{
	"contracts/_ronx2.sol": {
		"X3Program": {
			"abi": [
				{
					"inputs": [],
					"stateMutability": "nonpayable",
					"type": "constructor"
				},
				{
					"anonymous": false,
					"inputs": [
						{
							"indexed": true,
							"internalType": "address",
							"name": "user",
							"type": "address"
						},
						{
							"indexed": false,
							"internalType": "uint256",
							"name": "amount",
							"type": "uint256"
						}
					],
					"name": "Earnings",
					"type": "event"
				},
				{
					"anonymous": false,
					"inputs": [
						{
							"indexed": true,
							"internalType": "address",
							"name": "user",
							"type": "address"
						},
						{
							"indexed": false,
							"internalType": "uint8",
							"name": "newLevel",
							"type": "uint8"
						},
						{
							"indexed": false,
							"internalType": "uint256",
							"name": "price",
							"type": "uint256"
						},
						{
							"indexed": false,
							"internalType": "uint256",
							"name": "uplineEarnings",
							"type": "uint256"
						},
						{
							"indexed": false,
							"internalType": "uint256",
							"name": "ownerEarnings",
							"type": "uint256"
						}
					],
					"name": "LevelUpgraded",
					"type": "event"
				},
				{
					"anonymous": false,
					"inputs": [
						{
							"indexed": true,
							"internalType": "address",
							"name": "user",
							"type": "address"
						},
						{
							"indexed": false,
							"internalType": "uint256",
							"name": "cycleCount",
							"type": "uint256"
						}
					],
					"name": "NewCycle",
					"type": "event"
				},
				{
					"anonymous": false,
					"inputs": [
						{
							"indexed": true,
							"internalType": "address",
							"name": "user",
							"type": "address"
						},
						{
							"indexed": true,
							"internalType": "address",
							"name": "referral",
							"type": "address"
						}
					],
					"name": "NewReferral",
					"type": "event"
				},
				{
					"anonymous": false,
					"inputs": [
						{
							"indexed": true,
							"internalType": "address",
							"name": "user",
							"type": "address"
						},
						{
							"indexed": true,
							"internalType": "address",
							"name": "upline",
							"type": "address"
						},
						{
							"indexed": false,
							"internalType": "uint256",
							"name": "userId",
							"type": "uint256"
						},
						{
							"indexed": false,
							"internalType": "uint256",
							"name": "uplineId",
							"type": "uint256"
						},
						{
							"indexed": false,
							"internalType": "uint256",
							"name": "fee",
							"type": "uint256"
						}
					],
					"name": "Registration",
					"type": "event"
				},
				{
					"inputs": [],
					"name": "BASIC_PRICE",
					"outputs": [
						{
							"internalType": "uint256",
							"name": "",
							"type": "uint256"
						}
					],
					"stateMutability": "view",
					"type": "function"
				},
				{
					"inputs": [],
					"name": "LAST_LEVEL",
					"outputs": [
						{
							"internalType": "uint8",
							"name": "",
							"type": "uint8"
						}
					],
					"stateMutability": "view",
					"type": "function"
				},
				{
					"inputs": [],
					"name": "REGISTRATION_FEE",
					"outputs": [
						{
							"internalType": "uint256",
							"name": "",
							"type": "uint256"
						}
					],
					"stateMutability": "view",
					"type": "function"
				},
				{
					"inputs": [
						{
							"internalType": "uint8",
							"name": "_newLevel",
							"type": "uint8"
						}
					],
					"name": "buyLevel",
					"outputs": [],
					"stateMutability": "payable",
					"type": "function"
				},
				{
					"inputs": [
						{
							"internalType": "address",
							"name": "userAddress",
							"type": "address"
						}
					],
					"name": "generateReferralLink",
					"outputs": [
						{
							"internalType": "string",
							"name": "",
							"type": "string"
						}
					],
					"stateMutability": "view",
					"type": "function"
				},
				{
					"inputs": [
						{
							"internalType": "uint8",
							"name": "_level",
							"type": "uint8"
						}
					],
					"name": "getLevelPrice",
					"outputs": [
						{
							"internalType": "uint256",
							"name": "",
							"type": "uint256"
						}
					],
					"stateMutability": "view",
					"type": "function"
				},
				{
					"inputs": [
						{
							"internalType": "uint256",
							"name": "_id",
							"type": "uint256"
						}
					],
					"name": "getUserById",
					"outputs": [
						{
							"internalType": "address",
							"name": "",
							"type": "address"
						}
					],
					"stateMutability": "view",
					"type": "function"
				},
				{
					"inputs": [
						{
							"internalType": "address",
							"name": "_user",
							"type": "address"
						}
					],
					"name": "getUserInfo",
					"outputs": [
						{
							"internalType": "address",
							"name": "",
							"type": "address"
						},
						{
							"internalType": "uint256",
							"name": "",
							"type": "uint256"
						},
						{
							"internalType": "uint256",
							"name": "",
							"type": "uint256"
						},
						{
							"internalType": "uint256",
							"name": "",
							"type": "uint256"
						},
						{
							"internalType": "uint256",
							"name": "",
							"type": "uint256"
						},
						{
							"internalType": "uint256",
							"name": "",
							"type": "uint256"
						},
						{
							"internalType": "string",
							"name": "",
							"type": "string"
						},
						{
							"internalType": "string",
							"name": "",
							"type": "string"
						},
						{
							"internalType": "string",
							"name": "",
							"type": "string"
						},
						{
							"internalType": "string",
							"name": "",
							"type": "string"
						},
						{
							"internalType": "address",
							"name": "",
							"type": "address"
						}
					],
					"stateMutability": "view",
					"type": "function"
				},
				{
					"inputs": [
						{
							"internalType": "uint256",
							"name": "",
							"type": "uint256"
						}
					],
					"name": "idToAddress",
					"outputs": [
						{
							"internalType": "address",
							"name": "",
							"type": "address"
						}
					],
					"stateMutability": "view",
					"type": "function"
				},
				{
					"inputs": [],
					"name": "lastUserId",
					"outputs": [
						{
							"internalType": "uint256",
							"name": "",
							"type": "uint256"
						}
					],
					"stateMutability": "view",
					"type": "function"
				},
				{
					"inputs": [
						{
							"internalType": "uint8",
							"name": "",
							"type": "uint8"
						}
					],
					"name": "levelPrice",
					"outputs": [
						{
							"internalType": "uint256",
							"name": "",
							"type": "uint256"
						}
					],
					"stateMutability": "view",
					"type": "function"
				},
				{
					"inputs": [],
					"name": "owner",
					"outputs": [
						{
							"internalType": "address",
							"name": "",
							"type": "address"
						}
					],
					"stateMutability": "view",
					"type": "function"
				},
				{
					"inputs": [
						{
							"internalType": "address",
							"name": "_user",
							"type": "address"
						}
					],
					"name": "payUpline",
					"outputs": [
						{
							"internalType": "uint256",
							"name": "",
							"type": "uint256"
						}
					],
					"stateMutability": "payable",
					"type": "function"
				},
				{
					"inputs": [
						{
							"internalType": "address",
							"name": "_upline",
							"type": "address"
						},
						{
							"internalType": "string",
							"name": "firstName",
							"type": "string"
						},
						{
							"internalType": "string",
							"name": "lastName",
							"type": "string"
						},
						{
							"internalType": "string",
							"name": "profilePic",
							"type": "string"
						},
						{
							"internalType": "string",
							"name": "email",
							"type": "string"
						}
					],
					"name": "registerUpline",
					"outputs": [],
					"stateMutability": "payable",
					"type": "function"
				},
				{
					"inputs": [
						{
							"internalType": "address",
							"name": "_upline",
							"type": "address"
						},
						{
							"internalType": "string",
							"name": "firstName",
							"type": "string"
						},
						{
							"internalType": "string",
							"name": "lastName",
							"type": "string"
						},
						{
							"internalType": "string",
							"name": "profilePic",
							"type": "string"
						},
						{
							"internalType": "string",
							"name": "email",
							"type": "string"
						},
						{
							"internalType": "string",
							"name": "password",
							"type": "string"
						},
						{
							"internalType": "address",
							"name": "userAddress",
							"type": "address"
						}
					],
					"name": "registerUser",
					"outputs": [],
					"stateMutability": "payable",
					"type": "function"
				},
				{
					"inputs": [
						{
							"internalType": "address",
							"name": "_user",
							"type": "address"
						}
					],
					"name": "transactionHistory",
					"outputs": [
						{
							"internalType": "uint256",
							"name": "",
							"type": "uint256"
						},
						{
							"internalType": "uint256",
							"name": "",
							"type": "uint256"
						}
					],
					"stateMutability": "view",
					"type": "function"
				},
				{
					"inputs": [
						{
							"internalType": "address",
							"name": "",
							"type": "address"
						}
					],
					"name": "users",
					"outputs": [
						{
							"internalType": "address",
							"name": "upline",
							"type": "address"
						},
						{
							"internalType": "uint256",
							"name": "id",
							"type": "uint256"
						},
						{
							"internalType": "uint256",
							"name": "referralCount",
							"type": "uint256"
						},
						{
							"internalType": "uint256",
							"name": "cycleCount",
							"type": "uint256"
						},
						{
							"internalType": "uint256",
							"name": "earnings",
							"type": "uint256"
						},
						{
							"internalType": "uint8",
							"name": "partnerLevel",
							"type": "uint8"
						},
						{
							"internalType": "string",
							"name": "firstName",
							"type": "string"
						},
						{
							"internalType": "string",
							"name": "lastName",
							"type": "string"
						},
						{
							"internalType": "string",
							"name": "profilePic",
							"type": "string"
						},
						{
							"internalType": "string",
							"name": "email",
							"type": "string"
						},
						{
							"internalType": "bytes32",
							"name": "passwordHash",
							"type": "bytes32"
						},
						{
							"internalType": "address",
							"name": "userAddress",
							"type": "address"
						}
					],
					"stateMutability": "view",
					"type": "function"
				}
			],
			"devdoc": {
				"kind": "dev",
				"methods": {},
				"version": 1
			},
			"evm": {
				"assembly": "    /* \"contracts/_ronx2.sol\":62:10446  contract X3Program {... */\n  mstore(0x40, 0x80)\n    /* \"contracts/_ronx2.sol\":656:657  2 */\n  0x02\n    /* \"contracts/_ronx2.sol\":628:657  uint256 public lastUserId = 2 */\n  0x03\n  sstore\n    /* \"contracts/_ronx2.sol\":1282:2124  constructor() {... */\n  callvalue\n  dup1\n  iszero\n  tag_1\n  jumpi\n  0x00\n  dup1\n  revert\ntag_1:\n  pop\n    /* \"contracts/_ronx2.sol\":1315:1325  msg.sender */\n  caller\n    /* \"contracts/_ronx2.sol\":1307:1312  owner */\n  0x04\n  0x00\n    /* \"contracts/_ronx2.sol\":1307:1325  owner = msg.sender */\n  0x0100\n  exp\n  dup2\n  sload\n  dup2\n  0xffffffffffffffffffffffffffffffffffffffff\n  mul\n  not\n  and\n  swap1\n  dup4\n  0xffffffffffffffffffffffffffffffffffffffff\n  and\n  mul\n  or\n  swap1\n  sstore\n  pop\n    /* \"contracts/_ronx2.sol\":1353:1761  User({... */\n  mload(0x40)\n  dup1\n  0x01a0\n  add\n  0x40\n  mstore\n  dup1\n    /* \"contracts/_ronx2.sol\":1389:1390  0 */\n  0x00\n    /* \"contracts/_ronx2.sol\":1353:1761  User({... */\n  0xffffffffffffffffffffffffffffffffffffffff\n  and\n  dup2\n  mstore\n  0x20\n  add\n    /* \"contracts/_ronx2.sol\":1410:1411  1 */\n  0x01\n    /* \"contracts/_ronx2.sol\":1353:1761  User({... */\n  dup2\n  mstore\n  0x20\n  add\n    /* \"contracts/_ronx2.sol\":1441:1442  0 */\n  0x00\n    /* \"contracts/_ronx2.sol\":1353:1761  User({... */\n  dup2\n  mstore\n  0x20\n  add\n    /* \"contracts/_ronx2.sol\":1469:1470  0 */\n  0x00\n    /* \"contracts/_ronx2.sol\":1353:1761  User({... */\n  dup2\n  mstore\n  0x20\n  add\n    /* \"contracts/_ronx2.sol\":1495:1496  0 */\n  0x00\n    /* \"contracts/_ronx2.sol\":1353:1761  User({... */\n  dup2\n  mstore\n  0x20\n  add\n    /* \"contracts/_ronx2.sol\":1525:1526  1 */\n  0x01\n    /* \"contracts/_ronx2.sol\":1353:1761  User({... */\n  0xff\n  and\n  dup2\n  mstore\n  0x20\n  add\n    /* \"contracts/_ronx2.sol\":1566:1567  0 */\n  0x00\n    /* \"contracts/_ronx2.sol\":1552:1568  new address[](0) */\n  0xffffffffffffffff\n  dup2\n  gt\n  iszero\n  tag_4\n  jumpi\n  tag_5\n  tag_6\n  jump\t// in\ntag_5:\ntag_4:\n  mload(0x40)\n  swap1\n  dup1\n  dup3\n  mstore\n  dup1\n  0x20\n  mul\n  0x20\n  add\n  dup3\n  add\n  0x40\n  mstore\n  dup1\n  iszero\n  tag_7\n  jumpi\n  dup2\n  0x20\n  add\n  0x20\n  dup3\n  mul\n  dup1\n  calldatasize\n  dup4\n  calldatacopy\n  dup1\n  dup3\n  add\n  swap2\n  pop\n  pop\n  swap1\n  pop\ntag_7:\n  pop\n    /* \"contracts/_ronx2.sol\":1353:1761  User({... */\n  dup2\n  mstore\n  0x20\n  add\n  mload(0x40)\n  dup1\n  0x20\n  add\n  0x40\n  mstore\n  dup1\n  0x00\n  dup2\n  mstore\n  pop\n  dup2\n  mstore\n  0x20\n  add\n  mload(0x40)\n  dup1\n  0x20\n  add\n  0x40\n  mstore\n  dup1\n  0x00\n  dup2\n  mstore\n  pop\n  dup2\n  mstore\n  0x20\n  add\n  mload(0x40)\n  dup1\n  0x20\n  add\n  0x40\n  mstore\n  dup1\n  0x00\n  dup2\n  mstore\n  pop\n  dup2\n  mstore\n  0x20\n  add\n  mload(0x40)\n  dup1\n  0x20\n  add\n  0x40\n  mstore\n  dup1\n  0x00\n  dup2\n  mstore\n  pop\n  dup2\n  mstore\n  0x20\n  add\n    /* \"contracts/_ronx2.sol\":1714:1715  0 */\n  0x00\n    /* \"contracts/_ronx2.sol\":1706:1716  bytes32(0) */\n  dup1\n  shl\n    /* \"contracts/_ronx2.sol\":1353:1761  User({... */\n  dup2\n  mstore\n  0x20\n  add\n    /* \"contracts/_ronx2.sol\":1744:1749  owner */\n  0x04\n  0x00\n  swap1\n  sload\n  swap1\n  0x0100\n  exp\n  swap1\n  div\n  0xffffffffffffffffffffffffffffffffffffffff\n  and\n    /* \"contracts/_ronx2.sol\":1353:1761  User({... */\n  0xffffffffffffffffffffffffffffffffffffffff\n  and\n  dup2\n  mstore\n  pop\n    /* \"contracts/_ronx2.sol\":1338:1343  users */\n  0x00\n    /* \"contracts/_ronx2.sol\":1338:1350  users[owner] */\n  dup1\n    /* \"contracts/_ronx2.sol\":1344:1349  owner */\n  0x04\n  0x00\n  swap1\n  sload\n  swap1\n  0x0100\n  exp\n  swap1\n  div\n  0xffffffffffffffffffffffffffffffffffffffff\n  and\n    /* \"contracts/_ronx2.sol\":1338:1350  users[owner] */\n  0xffffffffffffffffffffffffffffffffffffffff\n  and\n  0xffffffffffffffffffffffffffffffffffffffff\n  and\n  dup2\n  mstore\n  0x20\n  add\n  swap1\n  dup2\n  mstore\n  0x20\n  add\n  0x00\n  keccak256\n    /* \"contracts/_ronx2.sol\":1338:1761  users[owner] = User({... */\n  0x00\n  dup3\n  add\n  mload\n  dup2\n  0x00\n  add\n  exp(0x0100, 0x00)\n  dup2\n  sload\n  dup2\n  0xffffffffffffffffffffffffffffffffffffffff\n  mul\n  not\n  and\n  swap1\n  dup4\n  0xffffffffffffffffffffffffffffffffffffffff\n  and\n  mul\n  or\n  swap1\n  sstore\n  pop\n  0x20\n  dup3\n  add\n  mload\n  dup2\n  0x01\n  add\n  sstore\n  0x40\n  dup3\n  add\n  mload\n  dup2\n  0x02\n  add\n  sstore\n  0x60\n  dup3\n  add\n  mload\n  dup2\n  0x03\n  add\n  sstore\n  0x80\n  dup3\n  add\n  mload\n  dup2\n  0x04\n  add\n  sstore\n  0xa0\n  dup3\n  add\n  mload\n  dup2\n  0x05\n  add\n  exp(0x0100, 0x00)\n  dup2\n  sload\n  dup2\n  0xff\n  mul\n  not\n  and\n  swap1\n  dup4\n  0xff\n  and\n  mul\n  or\n  swap1\n  sstore\n  pop\n  0xc0\n  dup3\n  add\n  mload\n  dup2\n  0x06\n  add\n  swap1\n  dup1\n  mload\n  swap1\n  0x20\n  add\n  swap1\n  tag_8\n  swap3\n  swap2\n  swap1\n  tag_9\n  jump\t// in\ntag_8:\n  pop\n  0xe0\n  dup3\n  add\n  mload\n  dup2\n  0x07\n  add\n  swap1\n  dup2\n  tag_10\n  swap2\n  swap1\n  tag_11\n  jump\t// in\ntag_10:\n  pop\n  0x0100\n  dup3\n  add\n  mload\n  dup2\n  0x08\n  add\n  swap1\n  dup2\n  tag_12\n  swap2\n  swap1\n  tag_11\n  jump\t// in\ntag_12:\n  pop\n  0x0120\n  dup3\n  add\n  mload\n  dup2\n  0x09\n  add\n  swap1\n  dup2\n  tag_13\n  swap2\n  swap1\n  tag_11\n  jump\t// in\ntag_13:\n  pop\n  0x0140\n  dup3\n  add\n  mload\n  dup2\n  0x0a\n  add\n  swap1\n  dup2\n  tag_14\n  swap2\n  swap1\n  tag_11\n  jump\t// in\ntag_14:\n  pop\n  0x0160\n  dup3\n  add\n  mload\n  dup2\n  0x0b\n  add\n  sstore\n  0x0180\n  dup3\n  add\n  mload\n  dup2\n  0x0c\n  add\n  exp(0x0100, 0x00)\n  dup2\n  sload\n  dup2\n  0xffffffffffffffffffffffffffffffffffffffff\n  mul\n  not\n  and\n  swap1\n  dup4\n  0xffffffffffffffffffffffffffffffffffffffff\n  and\n  mul\n  or\n  swap1\n  sstore\n  pop\n  swap1\n  pop\n  pop\n    /* \"contracts/_ronx2.sol\":1791:1796  owner */\n  0x04\n  0x00\n  swap1\n  sload\n  swap1\n  0x0100\n  exp\n  swap1\n  div\n  0xffffffffffffffffffffffffffffffffffffffff\n  and\n    /* \"contracts/_ronx2.sol\":1774:1785  idToAddress */\n  0x01\n    /* \"contracts/_ronx2.sol\":1774:1788  idToAddress[1] */\n  0x00\n    /* \"contracts/_ronx2.sol\":1786:1787  1 */\n  0x01\n    /* \"contracts/_ronx2.sol\":1774:1788  idToAddress[1] */\n  dup2\n  mstore\n  0x20\n  add\n  swap1\n  dup2\n  mstore\n  0x20\n  add\n  0x00\n  keccak256\n  0x00\n    /* \"contracts/_ronx2.sol\":1774:1796  idToAddress[1] = owner */\n  0x0100\n  exp\n  dup2\n  sload\n  dup2\n  0xffffffffffffffffffffffffffffffffffffffff\n  mul\n  not\n  and\n  swap1\n  dup4\n  0xffffffffffffffffffffffffffffffffffffffff\n  and\n  mul\n  or\n  swap1\n  sstore\n  pop\n    /* \"contracts/_ronx2.sol\":746:750  5e18 */\n  0x4563918244f40000\n    /* \"contracts/_ronx2.sol\":1845:1855  levelPrice */\n  0x02\n    /* \"contracts/_ronx2.sol\":1845:1858  levelPrice[1] */\n  0x00\n    /* \"contracts/_ronx2.sol\":1856:1857  1 */\n  0x01\n    /* \"contracts/_ronx2.sol\":1845:1858  levelPrice[1] */\n  0xff\n  and\n  dup2\n  mstore\n  0x20\n  add\n  swap1\n  dup2\n  mstore\n  0x20\n  add\n  0x00\n  keccak256\n    /* \"contracts/_ronx2.sol\":1845:1872  levelPrice[1] = BASIC_PRICE */\n  dup2\n  swap1\n  sstore\n  pop\n    /* \"contracts/_ronx2.sol\":1888:1895  uint8 i */\n  0x00\n    /* \"contracts/_ronx2.sol\":1898:1899  2 */\n  0x02\n    /* \"contracts/_ronx2.sol\":1888:1899  uint8 i = 2 */\n  swap1\n  pop\n    /* \"contracts/_ronx2.sol\":1883:1978  for (uint8 i = 2; i <= 8; i++) {... */\ntag_15:\n    /* \"contracts/_ronx2.sol\":1906:1907  8 */\n  0x08\n    /* \"contracts/_ronx2.sol\":1901:1902  i */\n  dup2\n    /* \"contracts/_ronx2.sol\":1901:1907  i <= 8 */\n  0xff\n  and\n  gt\n    /* \"contracts/_ronx2.sol\":1883:1978  for (uint8 i = 2; i <= 8; i++) {... */\n  tag_16\n  jumpi\n    /* \"contracts/_ronx2.sol\":1965:1966  2 */\n  0x02\n    /* \"contracts/_ronx2.sol\":1945:1955  levelPrice */\n  dup1\n    /* \"contracts/_ronx2.sol\":1945:1962  levelPrice[i - 1] */\n  0x00\n    /* \"contracts/_ronx2.sol\":1960:1961  1 */\n  0x01\n    /* \"contracts/_ronx2.sol\":1956:1957  i */\n  dup5\n    /* \"contracts/_ronx2.sol\":1956:1961  i - 1 */\n  tag_18\n  swap2\n  swap1\n  tag_19\n  jump\t// in\ntag_18:\n    /* \"contracts/_ronx2.sol\":1945:1962  levelPrice[i - 1] */\n  0xff\n  and\n  0xff\n  and\n  dup2\n  mstore\n  0x20\n  add\n  swap1\n  dup2\n  mstore\n  0x20\n  add\n  0x00\n  keccak256\n  sload\n    /* \"contracts/_ronx2.sol\":1945:1966  levelPrice[i - 1] * 2 */\n  tag_20\n  swap2\n  swap1\n  tag_21\n  jump\t// in\ntag_20:\n    /* \"contracts/_ronx2.sol\":1929:1939  levelPrice */\n  0x02\n    /* \"contracts/_ronx2.sol\":1929:1942  levelPrice[i] */\n  0x00\n    /* \"contracts/_ronx2.sol\":1940:1941  i */\n  dup4\n    /* \"contracts/_ronx2.sol\":1929:1942  levelPrice[i] */\n  0xff\n  and\n  0xff\n  and\n  dup2\n  mstore\n  0x20\n  add\n  swap1\n  dup2\n  mstore\n  0x20\n  add\n  0x00\n  keccak256\n    /* \"contracts/_ronx2.sol\":1929:1966  levelPrice[i] = levelPrice[i - 1] * 2 */\n  dup2\n  swap1\n  sstore\n  pop\n    /* \"contracts/_ronx2.sol\":1909:1912  i++ */\n  dup1\n  dup1\n  tag_22\n  swap1\n  tag_23\n  jump\t// in\ntag_22:\n  swap2\n  pop\n  pop\n    /* \"contracts/_ronx2.sol\":1883:1978  for (uint8 i = 2; i <= 8; i++) {... */\n  jump(tag_15)\ntag_16:\n  pop\n    /* \"contracts/_ronx2.sol\":2004:2011  1250e18 */\n  0x43c33c193756480000\n    /* \"contracts/_ronx2.sol\":1988:1998  levelPrice */\n  0x02\n    /* \"contracts/_ronx2.sol\":1988:2001  levelPrice[9] */\n  0x00\n    /* \"contracts/_ronx2.sol\":1999:2000  9 */\n  0x09\n    /* \"contracts/_ronx2.sol\":1988:2001  levelPrice[9] */\n  0xff\n  and\n  dup2\n  mstore\n  0x20\n  add\n  swap1\n  dup2\n  mstore\n  0x20\n  add\n  0x00\n  keccak256\n    /* \"contracts/_ronx2.sol\":1988:2011  levelPrice[9] = 1250e18 */\n  dup2\n  swap1\n  sstore\n  pop\n    /* \"contracts/_ronx2.sol\":2039:2046  2500e18 */\n  0x878678326eac900000\n    /* \"contracts/_ronx2.sol\":2022:2032  levelPrice */\n  0x02\n    /* \"contracts/_ronx2.sol\":2022:2036  levelPrice[10] */\n  0x00\n    /* \"contracts/_ronx2.sol\":2033:2035  10 */\n  0x0a\n    /* \"contracts/_ronx2.sol\":2022:2036  levelPrice[10] */\n  0xff\n  and\n  dup2\n  mstore\n  0x20\n  add\n  swap1\n  dup2\n  mstore\n  0x20\n  add\n  0x00\n  keccak256\n    /* \"contracts/_ronx2.sol\":2022:2046  levelPrice[10] = 2500e18 */\n  dup2\n  swap1\n  sstore\n  pop\n    /* \"contracts/_ronx2.sol\":2074:2081  5000e18 */\n  0x010f0cf064dd59200000\n    /* \"contracts/_ronx2.sol\":2057:2067  levelPrice */\n  0x02\n    /* \"contracts/_ronx2.sol\":2057:2071  levelPrice[11] */\n  0x00\n    /* \"contracts/_ronx2.sol\":2068:2070  11 */\n  0x0b\n    /* \"contracts/_ronx2.sol\":2057:2071  levelPrice[11] */\n  0xff\n  and\n  dup2\n  mstore\n  0x20\n  add\n  swap1\n  dup2\n  mstore\n  0x20\n  add\n  0x00\n  keccak256\n    /* \"contracts/_ronx2.sol\":2057:2081  levelPrice[11] = 5000e18 */\n  dup2\n  swap1\n  sstore\n  pop\n    /* \"contracts/_ronx2.sol\":2109:2116  9900e18 */\n  0x0218ae196b8d4f300000\n    /* \"contracts/_ronx2.sol\":2092:2102  levelPrice */\n  0x02\n    /* \"contracts/_ronx2.sol\":2092:2106  levelPrice[12] */\n  0x00\n    /* \"contracts/_ronx2.sol\":2103:2105  12 */\n  0x0c\n    /* \"contracts/_ronx2.sol\":2092:2106  levelPrice[12] */\n  0xff\n  and\n  dup2\n  mstore\n  0x20\n  add\n  swap1\n  dup2\n  mstore\n  0x20\n  add\n  0x00\n  keccak256\n    /* \"contracts/_ronx2.sol\":2092:2116  levelPrice[12] = 9900e18 */\n  dup2\n  swap1\n  sstore\n  pop\n    /* \"contracts/_ronx2.sol\":62:10446  contract X3Program {... */\n  jump(tag_24)\ntag_9:\n  dup3\n  dup1\n  sload\n  dup3\n  dup3\n  sstore\n  swap1\n  0x00\n  mstore\n  keccak256(0x00, 0x20)\n  swap1\n  dup2\n  add\n  swap3\n  dup3\n  iszero\n  tag_25\n  jumpi\n  swap2\n  0x20\n  mul\n  dup3\n  add\ntag_26:\n  dup3\n  dup2\n  gt\n  iszero\n  tag_27\n  jumpi\n  dup3\n  mload\n  dup3\n  exp(0x0100, 0x00)\n  dup2\n  sload\n  dup2\n  0xffffffffffffffffffffffffffffffffffffffff\n  mul\n  not\n  and\n  swap1\n  dup4\n  0xffffffffffffffffffffffffffffffffffffffff\n  and\n  mul\n  or\n  swap1\n  sstore\n  pop\n  swap2\n  0x20\n  add\n  swap2\n  swap1\n  0x01\n  add\n  swap1\n  jump(tag_26)\ntag_27:\ntag_25:\n  pop\n  swap1\n  pop\n  tag_28\n  swap2\n  swap1\n  tag_29\n  jump\t// in\ntag_28:\n  pop\n  swap1\n  jump\t// out\ntag_29:\ntag_30:\n  dup1\n  dup3\n  gt\n  iszero\n  tag_31\n  jumpi\n  0x00\n  dup2\n  0x00\n  swap1\n  sstore\n  pop\n  0x01\n  add\n  jump(tag_30)\ntag_31:\n  pop\n  swap1\n  jump\t// out\n    /* \"#utility.yul\":7:187   */\ntag_6:\n    /* \"#utility.yul\":55:132   */\n  0x4e487b7100000000000000000000000000000000000000000000000000000000\n    /* \"#utility.yul\":52:53   */\n  0x00\n    /* \"#utility.yul\":45:133   */\n  mstore\n    /* \"#utility.yul\":152:156   */\n  0x41\n    /* \"#utility.yul\":149:150   */\n  0x04\n    /* \"#utility.yul\":142:157   */\n  mstore\n    /* \"#utility.yul\":176:180   */\n  0x24\n    /* \"#utility.yul\":173:174   */\n  0x00\n    /* \"#utility.yul\":166:181   */\n  revert\n    /* \"#utility.yul\":193:292   */\ntag_32:\n    /* \"#utility.yul\":245:251   */\n  0x00\n    /* \"#utility.yul\":279:284   */\n  dup2\n    /* \"#utility.yul\":273:285   */\n  mload\n    /* \"#utility.yul\":263:285   */\n  swap1\n  pop\n    /* \"#utility.yul\":193:292   */\n  swap2\n  swap1\n  pop\n  jump\t// out\n    /* \"#utility.yul\":298:478   */\ntag_33:\n    /* \"#utility.yul\":346:423   */\n  0x4e487b7100000000000000000000000000000000000000000000000000000000\n    /* \"#utility.yul\":343:344   */\n  0x00\n    /* \"#utility.yul\":336:424   */\n  mstore\n    /* \"#utility.yul\":443:447   */\n  0x22\n    /* \"#utility.yul\":440:441   */\n  0x04\n    /* \"#utility.yul\":433:448   */\n  mstore\n    /* \"#utility.yul\":467:471   */\n  0x24\n    /* \"#utility.yul\":464:465   */\n  0x00\n    /* \"#utility.yul\":457:472   */\n  revert\n    /* \"#utility.yul\":484:804   */\ntag_34:\n    /* \"#utility.yul\":528:534   */\n  0x00\n    /* \"#utility.yul\":565:566   */\n  0x02\n    /* \"#utility.yul\":559:563   */\n  dup3\n    /* \"#utility.yul\":555:567   */\n  div\n    /* \"#utility.yul\":545:567   */\n  swap1\n  pop\n    /* \"#utility.yul\":612:613   */\n  0x01\n    /* \"#utility.yul\":606:610   */\n  dup3\n    /* \"#utility.yul\":602:614   */\n  and\n    /* \"#utility.yul\":633:651   */\n  dup1\n    /* \"#utility.yul\":623:704   */\n  tag_58\n  jumpi\n    /* \"#utility.yul\":689:693   */\n  0x7f\n    /* \"#utility.yul\":681:687   */\n  dup3\n    /* \"#utility.yul\":677:694   */\n  and\n    /* \"#utility.yul\":667:694   */\n  swap2\n  pop\n    /* \"#utility.yul\":623:704   */\ntag_58:\n    /* \"#utility.yul\":751:753   */\n  0x20\n    /* \"#utility.yul\":743:749   */\n  dup3\n    /* \"#utility.yul\":740:754   */\n  lt\n    /* \"#utility.yul\":720:738   */\n  dup2\n    /* \"#utility.yul\":717:755   */\n  sub\n    /* \"#utility.yul\":714:798   */\n  tag_59\n  jumpi\n    /* \"#utility.yul\":770:788   */\n  tag_60\n  tag_33\n  jump\t// in\ntag_60:\n    /* \"#utility.yul\":714:798   */\ntag_59:\n    /* \"#utility.yul\":535:804   */\n  pop\n    /* \"#utility.yul\":484:804   */\n  swap2\n  swap1\n  pop\n  jump\t// out\n    /* \"#utility.yul\":810:951   */\ntag_35:\n    /* \"#utility.yul\":859:863   */\n  0x00\n    /* \"#utility.yul\":882:885   */\n  dup2\n    /* \"#utility.yul\":874:885   */\n  swap1\n  pop\n    /* \"#utility.yul\":905:908   */\n  dup2\n    /* \"#utility.yul\":902:903   */\n  0x00\n    /* \"#utility.yul\":895:909   */\n  mstore\n    /* \"#utility.yul\":939:943   */\n  0x20\n    /* \"#utility.yul\":936:937   */\n  0x00\n    /* \"#utility.yul\":926:944   */\n  keccak256\n    /* \"#utility.yul\":918:944   */\n  swap1\n  pop\n    /* \"#utility.yul\":810:951   */\n  swap2\n  swap1\n  pop\n  jump\t// out\n    /* \"#utility.yul\":957:1050   */\ntag_36:\n    /* \"#utility.yul\":994:1000   */\n  0x00\n    /* \"#utility.yul\":1041:1043   */\n  0x20\n    /* \"#utility.yul\":1036:1038   */\n  0x1f\n    /* \"#utility.yul\":1029:1034   */\n  dup4\n    /* \"#utility.yul\":1025:1039   */\n  add\n    /* \"#utility.yul\":1021:1044   */\n  div\n    /* \"#utility.yul\":1011:1044   */\n  swap1\n  pop\n    /* \"#utility.yul\":957:1050   */\n  swap2\n  swap1\n  pop\n  jump\t// out\n    /* \"#utility.yul\":1056:1163   */\ntag_37:\n    /* \"#utility.yul\":1100:1108   */\n  0x00\n    /* \"#utility.yul\":1150:1155   */\n  dup3\n    /* \"#utility.yul\":1144:1148   */\n  dup3\n    /* \"#utility.yul\":1140:1156   */\n  shl\n    /* \"#utility.yul\":1119:1156   */\n  swap1\n  pop\n    /* \"#utility.yul\":1056:1163   */\n  swap3\n  swap2\n  pop\n  pop\n  jump\t// out\n    /* \"#utility.yul\":1169:1562   */\ntag_38:\n    /* \"#utility.yul\":1238:1244   */\n  0x00\n    /* \"#utility.yul\":1288:1289   */\n  0x08\n    /* \"#utility.yul\":1276:1286   */\n  dup4\n    /* \"#utility.yul\":1272:1290   */\n  mul\n    /* \"#utility.yul\":1311:1408   */\n  tag_65\n    /* \"#utility.yul\":1341:1407   */\n  0xffffffffffffffffffffffffffffffffffffffffffffffffffffffffffffffff\n    /* \"#utility.yul\":1330:1339   */\n  dup3\n    /* \"#utility.yul\":1311:1408   */\n  tag_37\n  jump\t// in\ntag_65:\n    /* \"#utility.yul\":1429:1468   */\n  tag_66\n    /* \"#utility.yul\":1459:1467   */\n  dup7\n    /* \"#utility.yul\":1448:1457   */\n  dup4\n    /* \"#utility.yul\":1429:1468   */\n  tag_37\n  jump\t// in\ntag_66:\n    /* \"#utility.yul\":1417:1468   */\n  swap6\n  pop\n    /* \"#utility.yul\":1501:1505   */\n  dup1\n    /* \"#utility.yul\":1497:1506   */\n  not\n    /* \"#utility.yul\":1490:1495   */\n  dup5\n    /* \"#utility.yul\":1486:1507   */\n  and\n    /* \"#utility.yul\":1477:1507   */\n  swap4\n  pop\n    /* \"#utility.yul\":1550:1554   */\n  dup1\n    /* \"#utility.yul\":1540:1548   */\n  dup7\n    /* \"#utility.yul\":1536:1555   */\n  and\n    /* \"#utility.yul\":1529:1534   */\n  dup5\n    /* \"#utility.yul\":1526:1556   */\n  or\n    /* \"#utility.yul\":1516:1556   */\n  swap3\n  pop\n    /* \"#utility.yul\":1245:1562   */\n  pop\n  pop\n    /* \"#utility.yul\":1169:1562   */\n  swap4\n  swap3\n  pop\n  pop\n  pop\n  jump\t// out\n    /* \"#utility.yul\":1568:1645   */\ntag_39:\n    /* \"#utility.yul\":1605:1612   */\n  0x00\n    /* \"#utility.yul\":1634:1639   */\n  dup2\n    /* \"#utility.yul\":1623:1639   */\n  swap1\n  pop\n    /* \"#utility.yul\":1568:1645   */\n  swap2\n  swap1\n  pop\n  jump\t// out\n    /* \"#utility.yul\":1651:1711   */\ntag_40:\n    /* \"#utility.yul\":1679:1682   */\n  0x00\n    /* \"#utility.yul\":1700:1705   */\n  dup2\n    /* \"#utility.yul\":1693:1705   */\n  swap1\n  pop\n    /* \"#utility.yul\":1651:1711   */\n  swap2\n  swap1\n  pop\n  jump\t// out\n    /* \"#utility.yul\":1717:1859   */\ntag_41:\n    /* \"#utility.yul\":1767:1776   */\n  0x00\n    /* \"#utility.yul\":1800:1853   */\n  tag_70\n    /* \"#utility.yul\":1818:1852   */\n  tag_71\n    /* \"#utility.yul\":1827:1851   */\n  tag_72\n    /* \"#utility.yul\":1845:1850   */\n  dup5\n    /* \"#utility.yul\":1827:1851   */\n  tag_39\n  jump\t// in\ntag_72:\n    /* \"#utility.yul\":1818:1852   */\n  tag_40\n  jump\t// in\ntag_71:\n    /* \"#utility.yul\":1800:1853   */\n  tag_39\n  jump\t// in\ntag_70:\n    /* \"#utility.yul\":1787:1853   */\n  swap1\n  pop\n    /* \"#utility.yul\":1717:1859   */\n  swap2\n  swap1\n  pop\n  jump\t// out\n    /* \"#utility.yul\":1865:1940   */\ntag_42:\n    /* \"#utility.yul\":1908:1911   */\n  0x00\n    /* \"#utility.yul\":1929:1934   */\n  dup2\n    /* \"#utility.yul\":1922:1934   */\n  swap1\n  pop\n    /* \"#utility.yul\":1865:1940   */\n  swap2\n  swap1\n  pop\n  jump\t// out\n    /* \"#utility.yul\":1946:2215   */\ntag_43:\n    /* \"#utility.yul\":2056:2095   */\n  tag_75\n    /* \"#utility.yul\":2087:2094   */\n  dup4\n    /* \"#utility.yul\":2056:2095   */\n  tag_41\n  jump\t// in\ntag_75:\n    /* \"#utility.yul\":2117:2208   */\n  tag_76\n    /* \"#utility.yul\":2166:2207   */\n  tag_77\n    /* \"#utility.yul\":2190:2206   */\n  dup3\n    /* \"#utility.yul\":2166:2207   */\n  tag_42\n  jump\t// in\ntag_77:\n    /* \"#utility.yul\":2158:2164   */\n  dup5\n    /* \"#utility.yul\":2151:2155   */\n  dup5\n    /* \"#utility.yul\":2145:2156   */\n  sload\n    /* \"#utility.yul\":2117:2208   */\n  tag_38\n  jump\t// in\ntag_76:\n    /* \"#utility.yul\":2111:2115   */\n  dup3\n    /* \"#utility.yul\":2104:2209   */\n  sstore\n    /* \"#utility.yul\":2022:2215   */\n  pop\n    /* \"#utility.yul\":1946:2215   */\n  pop\n  pop\n  pop\n  jump\t// out\n    /* \"#utility.yul\":2221:2294   */\ntag_44:\n    /* \"#utility.yul\":2266:2269   */\n  0x00\n    /* \"#utility.yul\":2221:2294   */\n  swap1\n  jump\t// out\n    /* \"#utility.yul\":2300:2489   */\ntag_45:\n    /* \"#utility.yul\":2377:2409   */\n  tag_80\n  tag_44\n  jump\t// in\ntag_80:\n    /* \"#utility.yul\":2418:2483   */\n  tag_81\n    /* \"#utility.yul\":2476:2482   */\n  dup2\n    /* \"#utility.yul\":2468:2474   */\n  dup5\n    /* \"#utility.yul\":2462:2466   */\n  dup5\n    /* \"#utility.yul\":2418:2483   */\n  tag_43\n  jump\t// in\ntag_81:\n    /* \"#utility.yul\":2353:2489   */\n  pop\n    /* \"#utility.yul\":2300:2489   */\n  pop\n  pop\n  jump\t// out\n    /* \"#utility.yul\":2495:2681   */\ntag_46:\n    /* \"#utility.yul\":2555:2675   */\ntag_83:\n    /* \"#utility.yul\":2572:2575   */\n  dup2\n    /* \"#utility.yul\":2565:2570   */\n  dup2\n    /* \"#utility.yul\":2562:2576   */\n  lt\n    /* \"#utility.yul\":2555:2675   */\n  iszero\n  tag_85\n  jumpi\n    /* \"#utility.yul\":2626:2665   */\n  tag_86\n    /* \"#utility.yul\":2663:2664   */\n  0x00\n    /* \"#utility.yul\":2656:2661   */\n  dup3\n    /* \"#utility.yul\":2626:2665   */\n  tag_45\n  jump\t// in\ntag_86:\n    /* \"#utility.yul\":2599:2600   */\n  0x01\n    /* \"#utility.yul\":2592:2597   */\n  dup2\n    /* \"#utility.yul\":2588:2601   */\n  add\n    /* \"#utility.yul\":2579:2601   */\n  swap1\n  pop\n    /* \"#utility.yul\":2555:2675   */\n  jump(tag_83)\ntag_85:\n    /* \"#utility.yul\":2495:2681   */\n  pop\n  pop\n  jump\t// out\n    /* \"#utility.yul\":2687:3230   */\ntag_47:\n    /* \"#utility.yul\":2788:2790   */\n  0x1f\n    /* \"#utility.yul\":2783:2786   */\n  dup3\n    /* \"#utility.yul\":2780:2791   */\n  gt\n    /* \"#utility.yul\":2777:3223   */\n  iszero\n  tag_88\n  jumpi\n    /* \"#utility.yul\":2822:2860   */\n  tag_89\n    /* \"#utility.yul\":2854:2859   */\n  dup2\n    /* \"#utility.yul\":2822:2860   */\n  tag_35\n  jump\t// in\ntag_89:\n    /* \"#utility.yul\":2906:2935   */\n  tag_90\n    /* \"#utility.yul\":2924:2934   */\n  dup5\n    /* \"#utility.yul\":2906:2935   */\n  tag_36\n  jump\t// in\ntag_90:\n    /* \"#utility.yul\":2896:2904   */\n  dup2\n    /* \"#utility.yul\":2892:2936   */\n  add\n    /* \"#utility.yul\":3089:3091   */\n  0x20\n    /* \"#utility.yul\":3077:3087   */\n  dup6\n    /* \"#utility.yul\":3074:3092   */\n  lt\n    /* \"#utility.yul\":3071:3120   */\n  iszero\n  tag_91\n  jumpi\n    /* \"#utility.yul\":3110:3118   */\n  dup2\n    /* \"#utility.yul\":3095:3118   */\n  swap1\n  pop\n    /* \"#utility.yul\":3071:3120   */\ntag_91:\n    /* \"#utility.yul\":3133:3213   */\n  tag_92\n    /* \"#utility.yul\":3189:3211   */\n  tag_93\n    /* \"#utility.yul\":3207:3210   */\n  dup6\n    /* \"#utility.yul\":3189:3211   */\n  tag_36\n  jump\t// in\ntag_93:\n    /* \"#utility.yul\":3179:3187   */\n  dup4\n    /* \"#utility.yul\":3175:3212   */\n  add\n    /* \"#utility.yul\":3162:3173   */\n  dup3\n    /* \"#utility.yul\":3133:3213   */\n  tag_46\n  jump\t// in\ntag_92:\n    /* \"#utility.yul\":2792:3223   */\n  pop\n  pop\n    /* \"#utility.yul\":2777:3223   */\ntag_88:\n    /* \"#utility.yul\":2687:3230   */\n  pop\n  pop\n  pop\n  jump\t// out\n    /* \"#utility.yul\":3236:3353   */\ntag_48:\n    /* \"#utility.yul\":3290:3298   */\n  0x00\n    /* \"#utility.yul\":3340:3345   */\n  dup3\n    /* \"#utility.yul\":3334:3338   */\n  dup3\n    /* \"#utility.yul\":3330:3346   */\n  shr\n    /* \"#utility.yul\":3309:3346   */\n  swap1\n  pop\n    /* \"#utility.yul\":3236:3353   */\n  swap3\n  swap2\n  pop\n  pop\n  jump\t// out\n    /* \"#utility.yul\":3359:3528   */\ntag_49:\n    /* \"#utility.yul\":3403:3409   */\n  0x00\n    /* \"#utility.yul\":3436:3487   */\n  tag_96\n    /* \"#utility.yul\":3484:3485   */\n  0x00\n    /* \"#utility.yul\":3480:3486   */\n  not\n    /* \"#utility.yul\":3472:3477   */\n  dup5\n    /* \"#utility.yul\":3469:3470   */\n  0x08\n    /* \"#utility.yul\":3465:3478   */\n  mul\n    /* \"#utility.yul\":3436:3487   */\n  tag_48\n  jump\t// in\ntag_96:\n    /* \"#utility.yul\":3432:3488   */\n  not\n    /* \"#utility.yul\":3517:3521   */\n  dup1\n    /* \"#utility.yul\":3511:3515   */\n  dup4\n    /* \"#utility.yul\":3507:3522   */\n  and\n    /* \"#utility.yul\":3497:3522   */\n  swap2\n  pop\n    /* \"#utility.yul\":3410:3528   */\n  pop\n    /* \"#utility.yul\":3359:3528   */\n  swap3\n  swap2\n  pop\n  pop\n  jump\t// out\n    /* \"#utility.yul\":3533:3828   */\ntag_50:\n    /* \"#utility.yul\":3609:3613   */\n  0x00\n    /* \"#utility.yul\":3755:3784   */\n  tag_98\n    /* \"#utility.yul\":3780:3783   */\n  dup4\n    /* \"#utility.yul\":3774:3778   */\n  dup4\n    /* \"#utility.yul\":3755:3784   */\n  tag_49\n  jump\t// in\ntag_98:\n    /* \"#utility.yul\":3747:3784   */\n  swap2\n  pop\n    /* \"#utility.yul\":3817:3820   */\n  dup3\n    /* \"#utility.yul\":3814:3815   */\n  0x02\n    /* \"#utility.yul\":3810:3821   */\n  mul\n    /* \"#utility.yul\":3804:3808   */\n  dup3\n    /* \"#utility.yul\":3801:3822   */\n  or\n    /* \"#utility.yul\":3793:3822   */\n  swap1\n  pop\n    /* \"#utility.yul\":3533:3828   */\n  swap3\n  swap2\n  pop\n  pop\n  jump\t// out\n    /* \"#utility.yul\":3833:5228   */\ntag_11:\n    /* \"#utility.yul\":3950:3987   */\n  tag_100\n    /* \"#utility.yul\":3983:3986   */\n  dup3\n    /* \"#utility.yul\":3950:3987   */\n  tag_32\n  jump\t// in\ntag_100:\n    /* \"#utility.yul\":4052:4070   */\n  0xffffffffffffffff\n    /* \"#utility.yul\":4044:4050   */\n  dup2\n    /* \"#utility.yul\":4041:4071   */\n  gt\n    /* \"#utility.yul\":4038:4094   */\n  iszero\n  tag_101\n  jumpi\n    /* \"#utility.yul\":4074:4092   */\n  tag_102\n  tag_6\n  jump\t// in\ntag_102:\n    /* \"#utility.yul\":4038:4094   */\ntag_101:\n    /* \"#utility.yul\":4118:4156   */\n  tag_103\n    /* \"#utility.yul\":4150:4154   */\n  dup3\n    /* \"#utility.yul\":4144:4155   */\n  sload\n    /* \"#utility.yul\":4118:4156   */\n  tag_34\n  jump\t// in\ntag_103:\n    /* \"#utility.yul\":4203:4270   */\n  tag_104\n    /* \"#utility.yul\":4263:4269   */\n  dup3\n    /* \"#utility.yul\":4255:4261   */\n  dup3\n    /* \"#utility.yul\":4249:4253   */\n  dup6\n    /* \"#utility.yul\":4203:4270   */\n  tag_47\n  jump\t// in\ntag_104:\n    /* \"#utility.yul\":4297:4298   */\n  0x00\n    /* \"#utility.yul\":4321:4325   */\n  0x20\n    /* \"#utility.yul\":4308:4325   */\n  swap1\n  pop\n    /* \"#utility.yul\":4353:4355   */\n  0x1f\n    /* \"#utility.yul\":4345:4351   */\n  dup4\n    /* \"#utility.yul\":4342:4356   */\n  gt\n    /* \"#utility.yul\":4370:4371   */\n  0x01\n    /* \"#utility.yul\":4365:4983   */\n  dup2\n  eq\n  tag_106\n  jumpi\n    /* \"#utility.yul\":5027:5028   */\n  0x00\n    /* \"#utility.yul\":5044:5050   */\n  dup5\n    /* \"#utility.yul\":5041:5118   */\n  iszero\n  tag_107\n  jumpi\n    /* \"#utility.yul\":5093:5102   */\n  dup3\n    /* \"#utility.yul\":5088:5091   */\n  dup8\n    /* \"#utility.yul\":5084:5103   */\n  add\n    /* \"#utility.yul\":5078:5104   */\n  mload\n    /* \"#utility.yul\":5069:5104   */\n  swap1\n  pop\n    /* \"#utility.yul\":5041:5118   */\ntag_107:\n    /* \"#utility.yul\":5144:5211   */\n  tag_108\n    /* \"#utility.yul\":5204:5210   */\n  dup6\n    /* \"#utility.yul\":5197:5202   */\n  dup3\n    /* \"#utility.yul\":5144:5211   */\n  tag_50\n  jump\t// in\ntag_108:\n    /* \"#utility.yul\":5138:5142   */\n  dup7\n    /* \"#utility.yul\":5131:5212   */\n  sstore\n    /* \"#utility.yul\":5000:5222   */\n  pop\n    /* \"#utility.yul\":4335:5222   */\n  jump(tag_105)\n    /* \"#utility.yul\":4365:4983   */\ntag_106:\n    /* \"#utility.yul\":4417:4421   */\n  0x1f\n    /* \"#utility.yul\":4413:4422   */\n  not\n    /* \"#utility.yul\":4405:4411   */\n  dup5\n    /* \"#utility.yul\":4401:4423   */\n  and\n    /* \"#utility.yul\":4451:4488   */\n  tag_109\n    /* \"#utility.yul\":4483:4487   */\n  dup7\n    /* \"#utility.yul\":4451:4488   */\n  tag_35\n  jump\t// in\ntag_109:\n    /* \"#utility.yul\":4510:4511   */\n  0x00\n    /* \"#utility.yul\":4524:4732   */\ntag_110:\n    /* \"#utility.yul\":4538:4545   */\n  dup3\n    /* \"#utility.yul\":4535:4536   */\n  dup2\n    /* \"#utility.yul\":4532:4546   */\n  lt\n    /* \"#utility.yul\":4524:4732   */\n  iszero\n  tag_112\n  jumpi\n    /* \"#utility.yul\":4617:4626   */\n  dup5\n    /* \"#utility.yul\":4612:4615   */\n  dup10\n    /* \"#utility.yul\":4608:4627   */\n  add\n    /* \"#utility.yul\":4602:4628   */\n  mload\n    /* \"#utility.yul\":4594:4600   */\n  dup3\n    /* \"#utility.yul\":4587:4629   */\n  sstore\n    /* \"#utility.yul\":4668:4669   */\n  0x01\n    /* \"#utility.yul\":4660:4666   */\n  dup3\n    /* \"#utility.yul\":4656:4670   */\n  add\n    /* \"#utility.yul\":4646:4670   */\n  swap2\n  pop\n    /* \"#utility.yul\":4715:4717   */\n  0x20\n    /* \"#utility.yul\":4704:4713   */\n  dup6\n    /* \"#utility.yul\":4700:4718   */\n  add\n    /* \"#utility.yul\":4687:4718   */\n  swap5\n  pop\n    /* \"#utility.yul\":4561:4565   */\n  0x20\n    /* \"#utility.yul\":4558:4559   */\n  dup2\n    /* \"#utility.yul\":4554:4566   */\n  add\n    /* \"#utility.yul\":4549:4566   */\n  swap1\n  pop\n    /* \"#utility.yul\":4524:4732   */\n  jump(tag_110)\ntag_112:\n    /* \"#utility.yul\":4760:4766   */\n  dup7\n    /* \"#utility.yul\":4751:4758   */\n  dup4\n    /* \"#utility.yul\":4748:4767   */\n  lt\n    /* \"#utility.yul\":4745:4924   */\n  iszero\n  tag_113\n  jumpi\n    /* \"#utility.yul\":4818:4827   */\n  dup5\n    /* \"#utility.yul\":4813:4816   */\n  dup10\n    /* \"#utility.yul\":4809:4828   */\n  add\n    /* \"#utility.yul\":4803:4829   */\n  mload\n    /* \"#utility.yul\":4861:4909   */\n  tag_114\n    /* \"#utility.yul\":4903:4907   */\n  0x1f\n    /* \"#utility.yul\":4895:4901   */\n  dup10\n    /* \"#utility.yul\":4891:4908   */\n  and\n    /* \"#utility.yul\":4880:4889   */\n  dup3\n    /* \"#utility.yul\":4861:4909   */\n  tag_49\n  jump\t// in\ntag_114:\n    /* \"#utility.yul\":4853:4859   */\n  dup4\n    /* \"#utility.yul\":4846:4910   */\n  sstore\n    /* \"#utility.yul\":4768:4924   */\n  pop\n    /* \"#utility.yul\":4745:4924   */\ntag_113:\n    /* \"#utility.yul\":4970:4971   */\n  0x01\n    /* \"#utility.yul\":4966:4967   */\n  0x02\n    /* \"#utility.yul\":4958:4964   */\n  dup9\n    /* \"#utility.yul\":4954:4968   */\n  mul\n    /* \"#utility.yul\":4950:4972   */\n  add\n    /* \"#utility.yul\":4944:4948   */\n  dup9\n    /* \"#utility.yul\":4937:4973   */\n  sstore\n    /* \"#utility.yul\":4372:4983   */\n  pop\n  pop\n  pop\n    /* \"#utility.yul\":4335:5222   */\ntag_105:\n  pop\n    /* \"#utility.yul\":3925:5228   */\n  pop\n  pop\n  pop\n    /* \"#utility.yul\":3833:5228   */\n  pop\n  pop\n  jump\t// out\n    /* \"#utility.yul\":5234:5320   */\ntag_51:\n    /* \"#utility.yul\":5269:5276   */\n  0x00\n    /* \"#utility.yul\":5309:5313   */\n  0xff\n    /* \"#utility.yul\":5302:5307   */\n  dup3\n    /* \"#utility.yul\":5298:5314   */\n  and\n    /* \"#utility.yul\":5287:5314   */\n  swap1\n  pop\n    /* \"#utility.yul\":5234:5320   */\n  swap2\n  swap1\n  pop\n  jump\t// out\n    /* \"#utility.yul\":5326:5506   */\ntag_52:\n    /* \"#utility.yul\":5374:5451   */\n  0x4e487b7100000000000000000000000000000000000000000000000000000000\n    /* \"#utility.yul\":5371:5372   */\n  0x00\n    /* \"#utility.yul\":5364:5452   */\n  mstore\n    /* \"#utility.yul\":5471:5475   */\n  0x11\n    /* \"#utility.yul\":5468:5469   */\n  0x04\n    /* \"#utility.yul\":5461:5476   */\n  mstore\n    /* \"#utility.yul\":5495:5499   */\n  0x24\n    /* \"#utility.yul\":5492:5493   */\n  0x00\n    /* \"#utility.yul\":5485:5500   */\n  revert\n    /* \"#utility.yul\":5512:5703   */\ntag_19:\n    /* \"#utility.yul\":5550:5554   */\n  0x00\n    /* \"#utility.yul\":5570:5588   */\n  tag_118\n    /* \"#utility.yul\":5586:5587   */\n  dup3\n    /* \"#utility.yul\":5570:5588   */\n  tag_51\n  jump\t// in\ntag_118:\n    /* \"#utility.yul\":5565:5588   */\n  swap2\n  pop\n    /* \"#utility.yul\":5602:5620   */\n  tag_119\n    /* \"#utility.yul\":5618:5619   */\n  dup4\n    /* \"#utility.yul\":5602:5620   */\n  tag_51\n  jump\t// in\ntag_119:\n    /* \"#utility.yul\":5597:5620   */\n  swap3\n  pop\n    /* \"#utility.yul\":5644:5645   */\n  dup3\n    /* \"#utility.yul\":5641:5642   */\n  dup3\n    /* \"#utility.yul\":5637:5646   */\n  sub\n    /* \"#utility.yul\":5629:5646   */\n  swap1\n  pop\n    /* \"#utility.yul\":5668:5672   */\n  0xff\n    /* \"#utility.yul\":5662:5666   */\n  dup2\n    /* \"#utility.yul\":5659:5673   */\n  gt\n    /* \"#utility.yul\":5656:5696   */\n  iszero\n  tag_120\n  jumpi\n    /* \"#utility.yul\":5676:5694   */\n  tag_121\n  tag_52\n  jump\t// in\ntag_121:\n    /* \"#utility.yul\":5656:5696   */\ntag_120:\n    /* \"#utility.yul\":5512:5703   */\n  swap3\n  swap2\n  pop\n  pop\n  jump\t// out\n    /* \"#utility.yul\":5709:6119   */\ntag_21:\n    /* \"#utility.yul\":5749:5756   */\n  0x00\n    /* \"#utility.yul\":5772:5792   */\n  tag_123\n    /* \"#utility.yul\":5790:5791   */\n  dup3\n    /* \"#utility.yul\":5772:5792   */\n  tag_39\n  jump\t// in\ntag_123:\n    /* \"#utility.yul\":5767:5792   */\n  swap2\n  pop\n    /* \"#utility.yul\":5806:5826   */\n  tag_124\n    /* \"#utility.yul\":5824:5825   */\n  dup4\n    /* \"#utility.yul\":5806:5826   */\n  tag_39\n  jump\t// in\ntag_124:\n    /* \"#utility.yul\":5801:5826   */\n  swap3\n  pop\n    /* \"#utility.yul\":5861:5862   */\n  dup3\n    /* \"#utility.yul\":5858:5859   */\n  dup3\n    /* \"#utility.yul\":5854:5863   */\n  mul\n    /* \"#utility.yul\":5883:5913   */\n  tag_125\n    /* \"#utility.yul\":5901:5912   */\n  dup2\n    /* \"#utility.yul\":5883:5913   */\n  tag_39\n  jump\t// in\ntag_125:\n    /* \"#utility.yul\":5872:5913   */\n  swap2\n  pop\n    /* \"#utility.yul\":6062:6063   */\n  dup3\n    /* \"#utility.yul\":6053:6060   */\n  dup3\n    /* \"#utility.yul\":6049:6064   */\n  div\n    /* \"#utility.yul\":6046:6047   */\n  dup5\n    /* \"#utility.yul\":6043:6065   */\n  eq\n    /* \"#utility.yul\":6023:6024   */\n  dup4\n    /* \"#utility.yul\":6016:6025   */\n  iszero\n    /* \"#utility.yul\":5996:6079   */\n  or\n    /* \"#utility.yul\":5973:6112   */\n  tag_126\n  jumpi\n    /* \"#utility.yul\":6092:6110   */\n  tag_127\n  tag_52\n  jump\t// in\ntag_127:\n    /* \"#utility.yul\":5973:6112   */\ntag_126:\n    /* \"#utility.yul\":5757:6119   */\n  pop\n    /* \"#utility.yul\":5709:6119   */\n  swap3\n  swap2\n  pop\n  pop\n  jump\t// out\n    /* \"#utility.yul\":6125:6292   */\ntag_23:\n    /* \"#utility.yul\":6162:6165   */\n  0x00\n    /* \"#utility.yul\":6185:6207   */\n  tag_129\n    /* \"#utility.yul\":6201:6206   */\n  dup3\n    /* \"#utility.yul\":6185:6207   */\n  tag_51\n  jump\t// in\ntag_129:\n    /* \"#utility.yul\":6176:6207   */\n  swap2\n  pop\n    /* \"#utility.yul\":6229:6233   */\n  0xff\n    /* \"#utility.yul\":6222:6227   */\n  dup3\n    /* \"#utility.yul\":6219:6234   */\n  sub\n    /* \"#utility.yul\":6216:6257   */\n  tag_130\n  jumpi\n    /* \"#utility.yul\":6237:6255   */\n  tag_131\n  tag_52\n  jump\t// in\ntag_131:\n    /* \"#utility.yul\":6216:6257   */\ntag_130:\n    /* \"#utility.yul\":6284:6285   */\n  0x01\n    /* \"#utility.yul\":6277:6282   */\n  dup3\n    /* \"#utility.yul\":6273:6286   */\n  add\n    /* \"#utility.yul\":6266:6286   */\n  swap1\n  pop\n    /* \"#utility.yul\":6125:6292   */\n  swap2\n  swap1\n  pop\n  jump\t// out\n    /* \"contracts/_ronx2.sol\":62:10446  contract X3Program {... */\ntag_24:\n  dataSize(sub_0)\n  dup1\n  dataOffset(sub_0)\n  0x00\n  codecopy\n  0x00\n  return\nstop\n\nsub_0: assembly {\n        /* \"contracts/_ronx2.sol\":62:10446  contract X3Program {... */\n      mstore(0x40, 0x80)\n      jumpi(tag_1, lt(calldatasize, 0x04))\n      shr(0xe0, calldataload(0x00))\n      dup1\n      0x6f8e2516\n      gt\n      tag_19\n      jumpi\n      dup1\n      0x9ac7e09e\n      gt\n      tag_20\n      jumpi\n      dup1\n      0x9ac7e09e\n      eq\n      tag_14\n      jumpi\n      dup1\n      0xa87430ba\n      eq\n      tag_15\n      jumpi\n      dup1\n      0xaed8a6a7\n      eq\n      tag_16\n      jumpi\n      dup1\n      0xde972b43\n      eq\n      tag_17\n      jumpi\n      dup1\n      0xecabdf79\n      eq\n      tag_18\n      jumpi\n      jump(tag_1)\n    tag_20:\n      dup1\n      0x6f8e2516\n      eq\n      tag_10\n      jumpi\n      dup1\n      0x8d17a4d0\n      eq\n      tag_11\n      jumpi\n      dup1\n      0x8da5cb5b\n      eq\n      tag_12\n      jumpi\n      dup1\n      0x90426274\n      eq\n      tag_13\n      jumpi\n      jump(tag_1)\n    tag_19:\n      dup1\n      0x348d4487\n      gt\n      tag_21\n      jumpi\n      dup1\n      0x348d4487\n      eq\n      tag_6\n      jumpi\n      dup1\n      0x6386c1c7\n      eq\n      tag_7\n      jumpi\n      dup1\n      0x64b4f751\n      eq\n      tag_8\n      jumpi\n      dup1\n      0x6ed6da9e\n      eq\n      tag_9\n      jumpi\n      jump(tag_1)\n    tag_21:\n      dup1\n      0x1394c053\n      eq\n      tag_2\n      jumpi\n      dup1\n      0x29c70400\n      eq\n      tag_3\n      jumpi\n      dup1\n      0x2a2d0c47\n      eq\n      tag_4\n      jumpi\n      dup1\n      0x3056deb8\n      eq\n      tag_5\n      jumpi\n    tag_1:\n      0x00\n      dup1\n      revert\n        /* \"contracts/_ronx2.sol\":2138:3275  function registerUpline(... */\n    tag_2:\n      tag_22\n      0x04\n      dup1\n      calldatasize\n      sub\n      dup2\n      add\n      swap1\n      tag_23\n      swap2\n      swap1\n      tag_24\n      jump\t// in\n    tag_23:\n      tag_25\n      jump\t// in\n    tag_22:\n      stop\n        /* \"contracts/_ronx2.sol\":664:701  uint8 public constant LAST_LEVEL = 12 */\n    tag_3:\n      callvalue\n      dup1\n      iszero\n      tag_26\n      jumpi\n      0x00\n      dup1\n      revert\n    tag_26:\n      pop\n      tag_27\n      tag_28\n      jump\t// in\n    tag_27:\n      mload(0x40)\n      tag_29\n      swap2\n      swap1\n      tag_30\n      jump\t// in\n    tag_29:\n      mload(0x40)\n      dup1\n      swap2\n      sub\n      swap1\n      return\n        /* \"contracts/_ronx2.sol\":523:569  mapping(uint256 => address) public idToAddress */\n    tag_4:\n      callvalue\n      dup1\n      iszero\n      tag_31\n      jumpi\n      0x00\n      dup1\n      revert\n    tag_31:\n      pop\n      tag_32\n      0x04\n      dup1\n      calldatasize\n      sub\n      dup2\n      add\n      swap1\n      tag_33\n      swap2\n      swap1\n      tag_34\n      jump\t// in\n    tag_33:\n      tag_35\n      jump\t// in\n    tag_32:\n      mload(0x40)\n      tag_36\n      swap2\n      swap1\n      tag_37\n      jump\t// in\n    tag_36:\n      mload(0x40)\n      dup1\n      swap2\n      sub\n      swap1\n      return\n        /* \"contracts/_ronx2.sol\":3283:4877  function registerUser(... */\n    tag_5:\n      tag_38\n      0x04\n      dup1\n      calldatasize\n      sub\n      dup2\n      add\n      swap1\n      tag_39\n      swap2\n      swap1\n      tag_40\n      jump\t// in\n    tag_39:\n      tag_41\n      jump\t// in\n    tag_38:\n      stop\n        /* \"contracts/_ronx2.sol\":628:657  uint256 public lastUserId = 2 */\n    tag_6:\n      callvalue\n      dup1\n      iszero\n      tag_42\n      jumpi\n      0x00\n      dup1\n      revert\n    tag_42:\n      pop\n      tag_43\n      tag_44\n      jump\t// in\n    tag_43:\n      mload(0x40)\n      tag_45\n      swap2\n      swap1\n      tag_46\n      jump\t// in\n    tag_45:\n      mload(0x40)\n      dup1\n      swap2\n      sub\n      swap1\n      return\n        /* \"contracts/_ronx2.sol\":9359:9948  function getUserInfo(address _user) public view returns (... */\n    tag_7:\n      callvalue\n      dup1\n      iszero\n      tag_47\n      jumpi\n      0x00\n      dup1\n      revert\n    tag_47:\n      pop\n      tag_48\n      0x04\n      dup1\n      calldatasize\n      sub\n      dup2\n      add\n      swap1\n      tag_49\n      swap2\n      swap1\n      tag_50\n      jump\t// in\n    tag_49:\n      tag_51\n      jump\t// in\n    tag_48:\n      mload(0x40)\n      tag_52\n      swap12\n      swap11\n      swap10\n      swap9\n      swap8\n      swap7\n      swap6\n      swap5\n      swap4\n      swap3\n      swap2\n      swap1\n      tag_53\n      jump\t// in\n    tag_52:\n      mload(0x40)\n      dup1\n      swap2\n      sub\n      swap1\n      return\n        /* \"contracts/_ronx2.sol\":757:805  uint256 public constant REGISTRATION_FEE = 25e18 */\n    tag_8:\n      callvalue\n      dup1\n      iszero\n      tag_54\n      jumpi\n      0x00\n      dup1\n      revert\n    tag_54:\n      pop\n      tag_55\n      tag_56\n      jump\t// in\n    tag_55:\n      mload(0x40)\n      tag_57\n      swap2\n      swap1\n      tag_46\n      jump\t// in\n    tag_57:\n      mload(0x40)\n      dup1\n      swap2\n      sub\n      swap1\n      return\n        /* \"contracts/_ronx2.sol\":10146:10252  function getUserById(uint256 _id) public view returns (address) {... */\n    tag_9:\n      callvalue\n      dup1\n      iszero\n      tag_58\n      jumpi\n      0x00\n      dup1\n      revert\n    tag_58:\n      pop\n      tag_59\n      0x04\n      dup1\n      calldatasize\n      sub\n      dup2\n      add\n      swap1\n      tag_60\n      swap2\n      swap1\n      tag_34\n      jump\t// in\n    tag_60:\n      tag_61\n      jump\t// in\n    tag_59:\n      mload(0x40)\n      tag_62\n      swap2\n      swap1\n      tag_37\n      jump\t// in\n    tag_62:\n      mload(0x40)\n      dup1\n      swap2\n      sub\n      swap1\n      return\n        /* \"contracts/_ronx2.sol\":10260:10443  function getLevelPrice(uint8 _level) public view returns (uint256) {... */\n    tag_10:\n      callvalue\n      dup1\n      iszero\n      tag_63\n      jumpi\n      0x00\n      dup1\n      revert\n    tag_63:\n      pop\n      tag_64\n      0x04\n      dup1\n      calldatasize\n      sub\n      dup2\n      add\n      swap1\n      tag_65\n      swap2\n      swap1\n      tag_66\n      jump\t// in\n    tag_65:\n      tag_67\n      jump\t// in\n    tag_64:\n      mload(0x40)\n      tag_68\n      swap2\n      swap1\n      tag_46\n      jump\t// in\n    tag_68:\n      mload(0x40)\n      dup1\n      swap2\n      sub\n      swap1\n      return\n        /* \"contracts/_ronx2.sol\":6025:7248  function buyLevel(uint8 _newLevel) public payable {... */\n    tag_11:\n      tag_69\n      0x04\n      dup1\n      calldatasize\n      sub\n      dup2\n      add\n      swap1\n      tag_70\n      swap2\n      swap1\n      tag_66\n      jump\t// in\n    tag_70:\n      tag_71\n      jump\t// in\n    tag_69:\n      stop\n        /* \"contracts/_ronx2.sol\":814:834  address public owner */\n    tag_12:\n      callvalue\n      dup1\n      iszero\n      tag_72\n      jumpi\n      0x00\n      dup1\n      revert\n    tag_72:\n      pop\n      tag_73\n      tag_74\n      jump\t// in\n    tag_73:\n      mload(0x40)\n      tag_75\n      swap2\n      swap1\n      tag_37\n      jump\t// in\n    tag_75:\n      mload(0x40)\n      dup1\n      swap2\n      sub\n      swap1\n      return\n        /* \"contracts/_ronx2.sol\":8110:9209  function payUpline(address _user) public payable returns (uint256) {... */\n    tag_13:\n      tag_76\n      0x04\n      dup1\n      calldatasize\n      sub\n      dup2\n      add\n      swap1\n      tag_77\n      swap2\n      swap1\n      tag_50\n      jump\t// in\n    tag_77:\n      tag_78\n      jump\t// in\n    tag_76:\n      mload(0x40)\n      tag_79\n      swap2\n      swap1\n      tag_46\n      jump\t// in\n    tag_79:\n      mload(0x40)\n      dup1\n      swap2\n      sub\n      swap1\n      return\n        /* \"contracts/_ronx2.sol\":708:750  uint256 public constant BASIC_PRICE = 5e18 */\n    tag_14:\n      callvalue\n      dup1\n      iszero\n      tag_80\n      jumpi\n      0x00\n      dup1\n      revert\n    tag_80:\n      pop\n      tag_81\n      tag_82\n      jump\t// in\n    tag_81:\n      mload(0x40)\n      tag_83\n      swap2\n      swap1\n      tag_46\n      jump\t// in\n    tag_83:\n      mload(0x40)\n      dup1\n      swap2\n      sub\n      swap1\n      return\n        /* \"contracts/_ronx2.sol\":479:516  mapping(address => User) public users */\n    tag_15:\n      callvalue\n      dup1\n      iszero\n      tag_84\n      jumpi\n      0x00\n      dup1\n      revert\n    tag_84:\n      pop\n      tag_85\n      0x04\n      dup1\n      calldatasize\n      sub\n      dup2\n      add\n      swap1\n      tag_86\n      swap2\n      swap1\n      tag_50\n      jump\t// in\n    tag_86:\n      tag_87\n      jump\t// in\n    tag_85:\n      mload(0x40)\n      tag_88\n      swap13\n      swap12\n      swap11\n      swap10\n      swap9\n      swap8\n      swap7\n      swap6\n      swap5\n      swap4\n      swap3\n      swap2\n      swap1\n      tag_89\n      jump\t// in\n    tag_88:\n      mload(0x40)\n      dup1\n      swap2\n      sub\n      swap1\n      return\n        /* \"contracts/_ronx2.sol\":7256:7494  function generateReferralLink(address userAddress) public view returns (string memory) {... */\n    tag_16:\n      callvalue\n      dup1\n      iszero\n      tag_90\n      jumpi\n      0x00\n      dup1\n      revert\n    tag_90:\n      pop\n      tag_91\n      0x04\n      dup1\n      calldatasize\n      sub\n      dup2\n      add\n      swap1\n      tag_92\n      swap2\n      swap1\n      tag_50\n      jump\t// in\n    tag_92:\n      tag_93\n      jump\t// in\n    tag_91:\n      mload(0x40)\n      tag_94\n      swap2\n      swap1\n      tag_95\n      jump\t// in\n    tag_94:\n      mload(0x40)\n      dup1\n      swap2\n      sub\n      swap1\n      return\n        /* \"contracts/_ronx2.sol\":9956:10138  function transactionHistory(address _user) public view returns (uint256, uint256) {... */\n    tag_17:\n      callvalue\n      dup1\n      iszero\n      tag_96\n      jumpi\n      0x00\n      dup1\n      revert\n    tag_96:\n      pop\n      tag_97\n      0x04\n      dup1\n      calldatasize\n      sub\n      dup2\n      add\n      swap1\n      tag_98\n      swap2\n      swap1\n      tag_50\n      jump\t// in\n    tag_98:\n      tag_99\n      jump\t// in\n    tag_97:\n      mload(0x40)\n      tag_100\n      swap3\n      swap2\n      swap1\n      tag_101\n      jump\t// in\n    tag_100:\n      mload(0x40)\n      dup1\n      swap2\n      sub\n      swap1\n      return\n        /* \"contracts/_ronx2.sol\":576:619  mapping(uint8 => uint256) public levelPrice */\n    tag_18:\n      callvalue\n      dup1\n      iszero\n      tag_102\n      jumpi\n      0x00\n      dup1\n      revert\n    tag_102:\n      pop\n      tag_103\n      0x04\n      dup1\n      calldatasize\n      sub\n      dup2\n      add\n      swap1\n      tag_104\n      swap2\n      swap1\n      tag_66\n      jump\t// in\n    tag_104:\n      tag_105\n      jump\t// in\n    tag_103:\n      mload(0x40)\n      tag_106\n      swap2\n      swap1\n      tag_46\n      jump\t// in\n    tag_106:\n      mload(0x40)\n      dup1\n      swap2\n      sub\n      swap1\n      return\n        /* \"contracts/_ronx2.sol\":2138:3275  function registerUpline(... */\n    tag_25:\n        /* \"contracts/_ronx2.sol\":2382:2383  0 */\n      0x00\n        /* \"contracts/_ronx2.sol\":2361:2366  users */\n      dup1\n        /* \"contracts/_ronx2.sol\":2361:2375  users[_upline] */\n      0x00\n        /* \"contracts/_ronx2.sol\":2367:2374  _upline */\n      dup8\n        /* \"contracts/_ronx2.sol\":2361:2375  users[_upline] */\n      0xffffffffffffffffffffffffffffffffffffffff\n      and\n      0xffffffffffffffffffffffffffffffffffffffff\n      and\n      dup2\n      mstore\n      0x20\n      add\n      swap1\n      dup2\n      mstore\n      0x20\n      add\n      0x00\n      keccak256\n        /* \"contracts/_ronx2.sol\":2361:2378  users[_upline].id */\n      0x01\n      add\n      sload\n        /* \"contracts/_ronx2.sol\":2361:2383  users[_upline].id == 0 */\n      eq\n        /* \"contracts/_ronx2.sol\":2353:2413  require(users[_upline].id == 0, \"Upline already registered\") */\n      tag_108\n      jumpi\n      mload(0x40)\n      0x08c379a000000000000000000000000000000000000000000000000000000000\n      dup2\n      mstore\n      0x04\n      add\n      tag_109\n      swap1\n      tag_110\n      jump\t// in\n    tag_109:\n      mload(0x40)\n      dup1\n      swap2\n      sub\n      swap1\n      revert\n    tag_108:\n        /* \"contracts/_ronx2.sol\":2557:3000  User({... */\n      mload(0x40)\n      dup1\n      0x01a0\n      add\n      0x40\n      mstore\n      dup1\n        /* \"contracts/_ronx2.sol\":2593:2594  0 */\n      0x00\n        /* \"contracts/_ronx2.sol\":2557:3000  User({... */\n      0xffffffffffffffffffffffffffffffffffffffff\n      and\n      dup2\n      mstore\n      0x20\n      add\n        /* \"contracts/_ronx2.sol\":2614:2624  lastUserId */\n      sload(0x03)\n        /* \"contracts/_ronx2.sol\":2557:3000  User({... */\n      dup2\n      mstore\n      0x20\n      add\n        /* \"contracts/_ronx2.sol\":2654:2655  0 */\n      0x00\n        /* \"contracts/_ronx2.sol\":2557:3000  User({... */\n      dup2\n      mstore\n      0x20\n      add\n        /* \"contracts/_ronx2.sol\":2682:2683  0 */\n      0x00\n        /* \"contracts/_ronx2.sol\":2557:3000  User({... */\n      dup2\n      mstore\n      0x20\n      add\n        /* \"contracts/_ronx2.sol\":2708:2709  0 */\n      0x00\n        /* \"contracts/_ronx2.sol\":2557:3000  User({... */\n      dup2\n      mstore\n      0x20\n      add\n        /* \"contracts/_ronx2.sol\":2738:2739  1 */\n      0x01\n        /* \"contracts/_ronx2.sol\":2557:3000  User({... */\n      0xff\n      and\n      dup2\n      mstore\n      0x20\n      add\n        /* \"contracts/_ronx2.sol\":2779:2780  0 */\n      0x00\n        /* \"contracts/_ronx2.sol\":2765:2781  new address[](0) */\n      0xffffffffffffffff\n      dup2\n      gt\n      iszero\n      tag_111\n      jumpi\n      tag_112\n      tag_113\n      jump\t// in\n    tag_112:\n    tag_111:\n      mload(0x40)\n      swap1\n      dup1\n      dup3\n      mstore\n      dup1\n      0x20\n      mul\n      0x20\n      add\n      dup3\n      add\n      0x40\n      mstore\n      dup1\n      iszero\n      tag_114\n      jumpi\n      dup2\n      0x20\n      add\n      0x20\n      dup3\n      mul\n      dup1\n      calldatasize\n      dup4\n      calldatacopy\n      dup1\n      dup3\n      add\n      swap2\n      pop\n      pop\n      swap1\n      pop\n    tag_114:\n      pop\n        /* \"contracts/_ronx2.sol\":2557:3000  User({... */\n      dup2\n      mstore\n      0x20\n      add\n        /* \"contracts/_ronx2.sol\":2808:2817  firstName */\n      dup6\n        /* \"contracts/_ronx2.sol\":2557:3000  User({... */\n      dup2\n      mstore\n      0x20\n      add\n        /* \"contracts/_ronx2.sol\":2842:2850  lastName */\n      dup5\n        /* \"contracts/_ronx2.sol\":2557:3000  User({... */\n      dup2\n      mstore\n      0x20\n      add\n        /* \"contracts/_ronx2.sol\":2877:2887  profilePic */\n      dup4\n        /* \"contracts/_ronx2.sol\":2557:3000  User({... */\n      dup2\n      mstore\n      0x20\n      add\n        /* \"contracts/_ronx2.sol\":2909:2914  email */\n      dup3\n        /* \"contracts/_ronx2.sol\":2557:3000  User({... */\n      dup2\n      mstore\n      0x20\n      add\n        /* \"contracts/_ronx2.sol\":2951:2952  0 */\n      0x00\n        /* \"contracts/_ronx2.sol\":2943:2953  bytes32(0) */\n      dup1\n      shl\n        /* \"contracts/_ronx2.sol\":2557:3000  User({... */\n      dup2\n      mstore\n      0x20\n      add\n        /* \"contracts/_ronx2.sol\":2981:2988  _upline */\n      dup7\n        /* \"contracts/_ronx2.sol\":2557:3000  User({... */\n      0xffffffffffffffffffffffffffffffffffffffff\n      and\n      dup2\n      mstore\n      pop\n        /* \"contracts/_ronx2.sol\":2540:2545  users */\n      0x00\n        /* \"contracts/_ronx2.sol\":2540:2554  users[_upline] */\n      dup1\n        /* \"contracts/_ronx2.sol\":2546:2553  _upline */\n      dup8\n        /* \"contracts/_ronx2.sol\":2540:2554  users[_upline] */\n      0xffffffffffffffffffffffffffffffffffffffff\n      and\n      0xffffffffffffffffffffffffffffffffffffffff\n      and\n      dup2\n      mstore\n      0x20\n      add\n      swap1\n      dup2\n      mstore\n      0x20\n      add\n      0x00\n      keccak256\n        /* \"contracts/_ronx2.sol\":2540:3000  users[_upline] = User({... */\n      0x00\n      dup3\n      add\n      mload\n      dup2\n      0x00\n      add\n      exp(0x0100, 0x00)\n      dup2\n      sload\n      dup2\n      0xffffffffffffffffffffffffffffffffffffffff\n      mul\n      not\n      and\n      swap1\n      dup4\n      0xffffffffffffffffffffffffffffffffffffffff\n      and\n      mul\n      or\n      swap1\n      sstore\n      pop\n      0x20\n      dup3\n      add\n      mload\n      dup2\n      0x01\n      add\n      sstore\n      0x40\n      dup3\n      add\n      mload\n      dup2\n      0x02\n      add\n      sstore\n      0x60\n      dup3\n      add\n      mload\n      dup2\n      0x03\n      add\n      sstore\n      0x80\n      dup3\n      add\n      mload\n      dup2\n      0x04\n      add\n      sstore\n      0xa0\n      dup3\n      add\n      mload\n      dup2\n      0x05\n      add\n      exp(0x0100, 0x00)\n      dup2\n      sload\n      dup2\n      0xff\n      mul\n      not\n      and\n      swap1\n      dup4\n      0xff\n      and\n      mul\n      or\n      swap1\n      sstore\n      pop\n      0xc0\n      dup3\n      add\n      mload\n      dup2\n      0x06\n      add\n      swap1\n      dup1\n      mload\n      swap1\n      0x20\n      add\n      swap1\n      tag_115\n      swap3\n      swap2\n      swap1\n      tag_116\n      jump\t// in\n    tag_115:\n      pop\n      0xe0\n      dup3\n      add\n      mload\n      dup2\n      0x07\n      add\n      swap1\n      dup2\n      tag_117\n      swap2\n      swap1\n      tag_118\n      jump\t// in\n    tag_117:\n      pop\n      0x0100\n      dup3\n      add\n      mload\n      dup2\n      0x08\n      add\n      swap1\n      dup2\n      tag_119\n      swap2\n      swap1\n      tag_118\n      jump\t// in\n    tag_119:\n      pop\n      0x0120\n      dup3\n      add\n      mload\n      dup2\n      0x09\n      add\n      swap1\n      dup2\n      tag_120\n      swap2\n      swap1\n      tag_118\n      jump\t// in\n    tag_120:\n      pop\n      0x0140\n      dup3\n      add\n      mload\n      dup2\n      0x0a\n      add\n      swap1\n      dup2\n      tag_121\n      swap2\n      swap1\n      tag_118\n      jump\t// in\n    tag_121:\n      pop\n      0x0160\n      dup3\n      add\n      mload\n      dup2\n      0x0b\n      add\n      sstore\n      0x0180\n      dup3\n      add\n      mload\n      dup2\n      0x0c\n      add\n      exp(0x0100, 0x00)\n      dup2\n      sload\n      dup2\n      0xffffffffffffffffffffffffffffffffffffffff\n      mul\n      not\n      and\n      swap1\n      dup4\n      0xffffffffffffffffffffffffffffffffffffffff\n      and\n      mul\n      or\n      swap1\n      sstore\n      pop\n      swap1\n      pop\n      pop\n        /* \"contracts/_ronx2.sol\":3039:3046  _upline */\n      dup5\n        /* \"contracts/_ronx2.sol\":3013:3024  idToAddress */\n      0x01\n        /* \"contracts/_ronx2.sol\":3013:3036  idToAddress[lastUserId] */\n      0x00\n        /* \"contracts/_ronx2.sol\":3025:3035  lastUserId */\n      sload(0x03)\n        /* \"contracts/_ronx2.sol\":3013:3036  idToAddress[lastUserId] */\n      dup2\n      mstore\n      0x20\n      add\n      swap1\n      dup2\n      mstore\n      0x20\n      add\n      0x00\n      keccak256\n      0x00\n        /* \"contracts/_ronx2.sol\":3013:3046  idToAddress[lastUserId] = _upline */\n      0x0100\n      exp\n      dup2\n      sload\n      dup2\n      0xffffffffffffffffffffffffffffffffffffffff\n      mul\n      not\n      and\n      swap1\n      dup4\n      0xffffffffffffffffffffffffffffffffffffffff\n      and\n      mul\n      or\n      swap1\n      sstore\n      pop\n        /* \"contracts/_ronx2.sol\":3057:3067  lastUserId */\n      0x03\n      0x00\n        /* \"contracts/_ronx2.sol\":3057:3069  lastUserId++ */\n      dup2\n      sload\n      dup1\n      swap3\n      swap2\n      swap1\n      tag_122\n      swap1\n      tag_123\n      jump\t// in\n    tag_122:\n      swap2\n      swap1\n      pop\n      sstore\n      pop\n        /* \"contracts/_ronx2.sol\":3150:3155  owner */\n      0x04\n      0x00\n      swap1\n      sload\n      swap1\n      0x0100\n      exp\n      swap1\n      div\n      0xffffffffffffffffffffffffffffffffffffffff\n      and\n        /* \"contracts/_ronx2.sol\":3142:3165  payable(owner).transfer */\n      0xffffffffffffffffffffffffffffffffffffffff\n      and\n        /* \"contracts/_ronx2.sol\":3142:3176  payable(owner).transfer(msg.value) */\n      0x08fc\n        /* \"contracts/_ronx2.sol\":3166:3175  msg.value */\n      callvalue\n        /* \"contracts/_ronx2.sol\":3142:3176  payable(owner).transfer(msg.value) */\n      swap1\n      dup2\n      iszero\n      mul\n      swap1\n      mload(0x40)\n      0x00\n      mload(0x40)\n      dup1\n      dup4\n      sub\n      dup2\n      dup6\n      dup9\n      dup9\n      call\n      swap4\n      pop\n      pop\n      pop\n      pop\n      iszero\n      dup1\n      iszero\n      tag_125\n      jumpi\n      returndatasize\n      0x00\n      dup1\n      returndatacopy\n      revert(0x00, returndatasize)\n    tag_125:\n      pop\n        /* \"contracts/_ronx2.sol\":3224:3225  0 */\n      0x00\n        /* \"contracts/_ronx2.sol\":3194:3267  Registration(_upline, address(0), users[_upline].id, 0, REGISTRATION_FEE) */\n      0xffffffffffffffffffffffffffffffffffffffff\n      and\n        /* \"contracts/_ronx2.sol\":3207:3214  _upline */\n      dup6\n        /* \"contracts/_ronx2.sol\":3194:3267  Registration(_upline, address(0), users[_upline].id, 0, REGISTRATION_FEE) */\n      0xffffffffffffffffffffffffffffffffffffffff\n      and\n      0xc1df0cc11cc2a40ae327c4da54a7bc5d5007047ac744e37eed7b461a78117215\n        /* \"contracts/_ronx2.sol\":3228:3233  users */\n      0x00\n        /* \"contracts/_ronx2.sol\":3228:3242  users[_upline] */\n      dup1\n        /* \"contracts/_ronx2.sol\":3234:3241  _upline */\n      dup10\n        /* \"contracts/_ronx2.sol\":3228:3242  users[_upline] */\n      0xffffffffffffffffffffffffffffffffffffffff\n      and\n      0xffffffffffffffffffffffffffffffffffffffff\n      and\n      dup2\n      mstore\n      0x20\n      add\n      swap1\n      dup2\n      mstore\n      0x20\n      add\n      0x00\n      keccak256\n        /* \"contracts/_ronx2.sol\":3228:3245  users[_upline].id */\n      0x01\n      add\n      sload\n        /* \"contracts/_ronx2.sol\":3247:3248  0 */\n      0x00\n        /* \"contracts/_ronx2.sol\":800:805  25e18 */\n      0x015af1d78b58c40000\n        /* \"contracts/_ronx2.sol\":3194:3267  Registration(_upline, address(0), users[_upline].id, 0, REGISTRATION_FEE) */\n      mload(0x40)\n      tag_126\n      swap4\n      swap3\n      swap2\n      swap1\n      tag_127\n      jump\t// in\n    tag_126:\n      mload(0x40)\n      dup1\n      swap2\n      sub\n      swap1\n      log3\n        /* \"contracts/_ronx2.sol\":2138:3275  function registerUpline(... */\n      pop\n      pop\n      pop\n      pop\n      pop\n      jump\t// out\n        /* \"contracts/_ronx2.sol\":664:701  uint8 public constant LAST_LEVEL = 12 */\n    tag_28:\n        /* \"contracts/_ronx2.sol\":699:701  12 */\n      0x0c\n        /* \"contracts/_ronx2.sol\":664:701  uint8 public constant LAST_LEVEL = 12 */\n      dup2\n      jump\t// out\n        /* \"contracts/_ronx2.sol\":523:569  mapping(uint256 => address) public idToAddress */\n    tag_35:\n      mstore(0x20, 0x01)\n      dup1\n      0x00\n      mstore\n      keccak256(0x00, 0x40)\n      0x00\n      swap2\n      pop\n      sload\n      swap1\n      0x0100\n      exp\n      swap1\n      div\n      0xffffffffffffffffffffffffffffffffffffffff\n      and\n      dup2\n      jump\t// out\n        /* \"contracts/_ronx2.sol\":3283:4877  function registerUser(... */\n    tag_41:\n        /* \"contracts/_ronx2.sol\":3588:3589  0 */\n      0x00\n        /* \"contracts/_ronx2.sol\":3567:3572  users */\n      dup1\n        /* \"contracts/_ronx2.sol\":3567:3581  users[_upline] */\n      0x00\n        /* \"contracts/_ronx2.sol\":3573:3580  _upline */\n      dup10\n        /* \"contracts/_ronx2.sol\":3567:3581  users[_upline] */\n      0xffffffffffffffffffffffffffffffffffffffff\n      and\n      0xffffffffffffffffffffffffffffffffffffffff\n      and\n      dup2\n      mstore\n      0x20\n      add\n      swap1\n      dup2\n      mstore\n      0x20\n      add\n      0x00\n      keccak256\n        /* \"contracts/_ronx2.sol\":3567:3584  users[_upline].id */\n      0x01\n      add\n      sload\n        /* \"contracts/_ronx2.sol\":3567:3589  users[_upline].id != 0 */\n      sub\n        /* \"contracts/_ronx2.sol\":3559:3615  require(users[_upline].id != 0, \"Upline does not exist\") */\n      tag_129\n      jumpi\n      mload(0x40)\n      0x08c379a000000000000000000000000000000000000000000000000000000000\n      dup2\n      mstore\n      0x04\n      add\n      tag_130\n      swap1\n      tag_131\n      jump\t// in\n    tag_130:\n      mload(0x40)\n      dup1\n      swap2\n      sub\n      swap1\n      revert\n    tag_129:\n        /* \"contracts/_ronx2.sol\":3784:3804  bytes32 passwordHash */\n      0x00\n        /* \"contracts/_ronx2.sol\":3834:3842  password */\n      dup3\n        /* \"contracts/_ronx2.sol\":3817:3843  abi.encodePacked(password) */\n      add(0x20, mload(0x40))\n      tag_132\n      swap2\n      swap1\n      tag_133\n      jump\t// in\n    tag_132:\n      mload(0x40)\n      0x20\n      dup2\n      dup4\n      sub\n      sub\n      dup2\n      mstore\n      swap1\n      0x40\n      mstore\n        /* \"contracts/_ronx2.sol\":3807:3844  keccak256(abi.encodePacked(password)) */\n      dup1\n      mload\n      swap1\n      0x20\n      add\n      keccak256\n        /* \"contracts/_ronx2.sol\":3784:3844  bytes32 passwordHash = keccak256(abi.encodePacked(password)) */\n      swap1\n      pop\n        /* \"contracts/_ronx2.sol\":3907:4353  User({... */\n      mload(0x40)\n      dup1\n      0x01a0\n      add\n      0x40\n      mstore\n      dup1\n        /* \"contracts/_ronx2.sol\":3935:3942  _upline */\n      dup10\n        /* \"contracts/_ronx2.sol\":3907:4353  User({... */\n      0xffffffffffffffffffffffffffffffffffffffff\n      and\n      dup2\n      mstore\n      0x20\n      add\n        /* \"contracts/_ronx2.sol\":3961:3971  lastUserId */\n      sload(0x03)\n        /* \"contracts/_ronx2.sol\":3907:4353  User({... */\n      dup2\n      mstore\n      0x20\n      add\n        /* \"contracts/_ronx2.sol\":4001:4002  0 */\n      0x00\n        /* \"contracts/_ronx2.sol\":3907:4353  User({... */\n      dup2\n      mstore\n      0x20\n      add\n        /* \"contracts/_ronx2.sol\":4029:4030  0 */\n      0x00\n        /* \"contracts/_ronx2.sol\":3907:4353  User({... */\n      dup2\n      mstore\n      0x20\n      add\n        /* \"contracts/_ronx2.sol\":4055:4056  0 */\n      0x00\n        /* \"contracts/_ronx2.sol\":3907:4353  User({... */\n      dup2\n      mstore\n      0x20\n      add\n        /* \"contracts/_ronx2.sol\":4085:4086  1 */\n      0x01\n        /* \"contracts/_ronx2.sol\":3907:4353  User({... */\n      0xff\n      and\n      dup2\n      mstore\n      0x20\n      add\n        /* \"contracts/_ronx2.sol\":4126:4127  0 */\n      0x00\n        /* \"contracts/_ronx2.sol\":4112:4128  new address[](0) */\n      0xffffffffffffffff\n      dup2\n      gt\n      iszero\n      tag_134\n      jumpi\n      tag_135\n      tag_113\n      jump\t// in\n    tag_135:\n    tag_134:\n      mload(0x40)\n      swap1\n      dup1\n      dup3\n      mstore\n      dup1\n      0x20\n      mul\n      0x20\n      add\n      dup3\n      add\n      0x40\n      mstore\n      dup1\n      iszero\n      tag_136\n      jumpi\n      dup2\n      0x20\n      add\n      0x20\n      dup3\n      mul\n      dup1\n      calldatasize\n      dup4\n      calldatacopy\n      dup1\n      dup3\n      add\n      swap2\n      pop\n      pop\n      swap1\n      pop\n    tag_136:\n      pop\n        /* \"contracts/_ronx2.sol\":3907:4353  User({... */\n      dup2\n      mstore\n      0x20\n      add\n        /* \"contracts/_ronx2.sol\":4155:4164  firstName */\n      dup9\n        /* \"contracts/_ronx2.sol\":3907:4353  User({... */\n      dup2\n      mstore\n      0x20\n      add\n        /* \"contracts/_ronx2.sol\":4189:4197  lastName */\n      dup8\n        /* \"contracts/_ronx2.sol\":3907:4353  User({... */\n      dup2\n      mstore\n      0x20\n      add\n        /* \"contracts/_ronx2.sol\":4224:4234  profilePic */\n      dup7\n        /* \"contracts/_ronx2.sol\":3907:4353  User({... */\n      dup2\n      mstore\n      0x20\n      add\n        /* \"contracts/_ronx2.sol\":4256:4261  email */\n      dup6\n        /* \"contracts/_ronx2.sol\":3907:4353  User({... */\n      dup2\n      mstore\n      0x20\n      add\n        /* \"contracts/_ronx2.sol\":4290:4302  passwordHash */\n      dup3\n        /* \"contracts/_ronx2.sol\":3907:4353  User({... */\n      dup2\n      mstore\n      0x20\n      add\n        /* \"contracts/_ronx2.sol\":4330:4341  userAddress */\n      dup4\n        /* \"contracts/_ronx2.sol\":3907:4353  User({... */\n      0xffffffffffffffffffffffffffffffffffffffff\n      and\n      dup2\n      mstore\n      pop\n        /* \"contracts/_ronx2.sol\":3887:3892  users */\n      0x00\n        /* \"contracts/_ronx2.sol\":3887:3904  users[msg.sender] */\n      dup1\n        /* \"contracts/_ronx2.sol\":3893:3903  msg.sender */\n      caller\n        /* \"contracts/_ronx2.sol\":3887:3904  users[msg.sender] */\n      0xffffffffffffffffffffffffffffffffffffffff\n      and\n      0xffffffffffffffffffffffffffffffffffffffff\n      and\n      dup2\n      mstore\n      0x20\n      add\n      swap1\n      dup2\n      mstore\n      0x20\n      add\n      0x00\n      keccak256\n        /* \"contracts/_ronx2.sol\":3887:4353  users[msg.sender] = User({... */\n      0x00\n      dup3\n      add\n      mload\n      dup2\n      0x00\n      add\n      exp(0x0100, 0x00)\n      dup2\n      sload\n      dup2\n      0xffffffffffffffffffffffffffffffffffffffff\n      mul\n      not\n      and\n      swap1\n      dup4\n      0xffffffffffffffffffffffffffffffffffffffff\n      and\n      mul\n      or\n      swap1\n      sstore\n      pop\n      0x20\n      dup3\n      add\n      mload\n      dup2\n      0x01\n      add\n      sstore\n      0x40\n      dup3\n      add\n      mload\n      dup2\n      0x02\n      add\n      sstore\n      0x60\n      dup3\n      add\n      mload\n      dup2\n      0x03\n      add\n      sstore\n      0x80\n      dup3\n      add\n      mload\n      dup2\n      0x04\n      add\n      sstore\n      0xa0\n      dup3\n      add\n      mload\n      dup2\n      0x05\n      add\n      exp(0x0100, 0x00)\n      dup2\n      sload\n      dup2\n      0xff\n      mul\n      not\n      and\n      swap1\n      dup4\n      0xff\n      and\n      mul\n      or\n      swap1\n      sstore\n      pop\n      0xc0\n      dup3\n      add\n      mload\n      dup2\n      0x06\n      add\n      swap1\n      dup1\n      mload\n      swap1\n      0x20\n      add\n      swap1\n      tag_137\n      swap3\n      swap2\n      swap1\n      tag_116\n      jump\t// in\n    tag_137:\n      pop\n      0xe0\n      dup3\n      add\n      mload\n      dup2\n      0x07\n      add\n      swap1\n      dup2\n      tag_138\n      swap2\n      swap1\n      tag_118\n      jump\t// in\n    tag_138:\n      pop\n      0x0100\n      dup3\n      add\n      mload\n      dup2\n      0x08\n      add\n      swap1\n      dup2\n      tag_139\n      swap2\n      swap1\n      tag_118\n      jump\t// in\n    tag_139:\n      pop\n      0x0120\n      dup3\n      add\n      mload\n      dup2\n      0x09\n      add\n      swap1\n      dup2\n      tag_140\n      swap2\n      swap1\n      tag_118\n      jump\t// in\n    tag_140:\n      pop\n      0x0140\n      dup3\n      add\n      mload\n      dup2\n      0x0a\n      add\n      swap1\n      dup2\n      tag_141\n      swap2\n      swap1\n      tag_118\n      jump\t// in\n    tag_141:\n      pop\n      0x0160\n      dup3\n      add\n      mload\n      dup2\n      0x0b\n      add\n      sstore\n      0x0180\n      dup3\n      add\n      mload\n      dup2\n      0x0c\n      add\n      exp(0x0100, 0x00)\n      dup2\n      sload\n      dup2\n      0xffffffffffffffffffffffffffffffffffffffff\n      mul\n      not\n      and\n      swap1\n      dup4\n      0xffffffffffffffffffffffffffffffffffffffff\n      and\n      mul\n      or\n      swap1\n      sstore\n      pop\n      swap1\n      pop\n      pop\n        /* \"contracts/_ronx2.sol\":4392:4402  msg.sender */\n      caller\n        /* \"contracts/_ronx2.sol\":4366:4377  idToAddress */\n      0x01\n        /* \"contracts/_ronx2.sol\":4366:4389  idToAddress[lastUserId] */\n      0x00\n        /* \"contracts/_ronx2.sol\":4378:4388  lastUserId */\n      sload(0x03)\n        /* \"contracts/_ronx2.sol\":4366:4389  idToAddress[lastUserId] */\n      dup2\n      mstore\n      0x20\n      add\n      swap1\n      dup2\n      mstore\n      0x20\n      add\n      0x00\n      keccak256\n      0x00\n        /* \"contracts/_ronx2.sol\":4366:4402  idToAddress[lastUserId] = msg.sender */\n      0x0100\n      exp\n      dup2\n      sload\n      dup2\n      0xffffffffffffffffffffffffffffffffffffffff\n      mul\n      not\n      and\n      swap1\n      dup4\n      0xffffffffffffffffffffffffffffffffffffffff\n      and\n      mul\n      or\n      swap1\n      sstore\n      pop\n        /* \"contracts/_ronx2.sol\":4413:4423  lastUserId */\n      0x03\n      0x00\n        /* \"contracts/_ronx2.sol\":4413:4425  lastUserId++ */\n      dup2\n      sload\n      dup1\n      swap3\n      swap2\n      swap1\n      tag_142\n      swap1\n      tag_123\n      jump\t// in\n    tag_142:\n      swap2\n      swap1\n      pop\n      sstore\n      pop\n        /* \"contracts/_ronx2.sol\":4467:4472  users */\n      0x00\n        /* \"contracts/_ronx2.sol\":4467:4481  users[_upline] */\n      dup1\n        /* \"contracts/_ronx2.sol\":4473:4480  _upline */\n      dup10\n        /* \"contracts/_ronx2.sol\":4467:4481  users[_upline] */\n      0xffffffffffffffffffffffffffffffffffffffff\n      and\n      0xffffffffffffffffffffffffffffffffffffffff\n      and\n      dup2\n      mstore\n      0x20\n      add\n      swap1\n      dup2\n      mstore\n      0x20\n      add\n      0x00\n      keccak256\n        /* \"contracts/_ronx2.sol\":4467:4495  users[_upline].referralCount */\n      0x02\n      add\n      0x00\n        /* \"contracts/_ronx2.sol\":4467:4497  users[_upline].referralCount++ */\n      dup2\n      sload\n      dup1\n      swap3\n      swap2\n      swap1\n      tag_143\n      swap1\n      tag_123\n      jump\t// in\n    tag_143:\n      swap2\n      swap1\n      pop\n      sstore\n      pop\n        /* \"contracts/_ronx2.sol\":4508:4513  users */\n      0x00\n        /* \"contracts/_ronx2.sol\":4508:4522  users[_upline] */\n      dup1\n        /* \"contracts/_ronx2.sol\":4514:4521  _upline */\n      dup10\n        /* \"contracts/_ronx2.sol\":4508:4522  users[_upline] */\n      0xffffffffffffffffffffffffffffffffffffffff\n      and\n      0xffffffffffffffffffffffffffffffffffffffff\n      and\n      dup2\n      mstore\n      0x20\n      add\n      swap1\n      dup2\n      mstore\n      0x20\n      add\n      0x00\n      keccak256\n        /* \"contracts/_ronx2.sol\":4508:4532  users[_upline].referrals */\n      0x06\n      add\n        /* \"contracts/_ronx2.sol\":4538:4548  msg.sender */\n      caller\n        /* \"contracts/_ronx2.sol\":4508:4549  users[_upline].referrals.push(msg.sender) */\n      swap1\n      dup1\n      0x01\n      dup2\n      sload\n      add\n      dup1\n      dup3\n      sstore\n      dup1\n      swap2\n      pop\n      pop\n      0x01\n      swap1\n      sub\n      swap1\n      0x00\n      mstore\n      keccak256(0x00, 0x20)\n      add\n      0x00\n      swap1\n      swap2\n      swap1\n      swap2\n      swap1\n      swap2\n      0x0100\n      exp\n      dup2\n      sload\n      dup2\n      0xffffffffffffffffffffffffffffffffffffffff\n      mul\n      not\n      and\n      swap1\n      dup4\n      0xffffffffffffffffffffffffffffffffffffffff\n      and\n      mul\n      or\n      swap1\n      sstore\n      pop\n        /* \"contracts/_ronx2.sol\":4568:4573  owner */\n      0x04\n      0x00\n      swap1\n      sload\n      swap1\n      0x0100\n      exp\n      swap1\n      div\n      0xffffffffffffffffffffffffffffffffffffffff\n      and\n        /* \"contracts/_ronx2.sol\":4560:4583  payable(owner).transfer */\n      0xffffffffffffffffffffffffffffffffffffffff\n      and\n        /* \"contracts/_ronx2.sol\":4560:4594  payable(owner).transfer(msg.value) */\n      0x08fc\n        /* \"contracts/_ronx2.sol\":4584:4593  msg.value */\n      callvalue\n        /* \"contracts/_ronx2.sol\":4560:4594  payable(owner).transfer(msg.value) */\n      swap1\n      dup2\n      iszero\n      mul\n      swap1\n      mload(0x40)\n      0x00\n      mload(0x40)\n      dup1\n      dup4\n      sub\n      dup2\n      dup6\n      dup9\n      dup9\n      call\n      swap4\n      pop\n      pop\n      pop\n      pop\n      iszero\n      dup1\n      iszero\n      tag_146\n      jumpi\n      returndatasize\n      0x00\n      dup1\n      returndatacopy\n      revert(0x00, returndatasize)\n    tag_146:\n      pop\n        /* \"contracts/_ronx2.sol\":4654:4689  handleReferral(msg.sender, _upline) */\n      tag_147\n        /* \"contracts/_ronx2.sol\":4669:4679  msg.sender */\n      caller\n        /* \"contracts/_ronx2.sol\":4681:4688  _upline */\n      dup10\n        /* \"contracts/_ronx2.sol\":4654:4668  handleReferral */\n      tag_148\n        /* \"contracts/_ronx2.sol\":4654:4689  handleReferral(msg.sender, _upline) */\n      jump\t// in\n    tag_147:\n        /* \"contracts/_ronx2.sol\":4803:4810  _upline */\n      dup8\n        /* \"contracts/_ronx2.sol\":4778:4869  Registration(msg.sender, _upline, users[msg.sender].id, users[_upline].id,REGISTRATION_FEE) */\n      0xffffffffffffffffffffffffffffffffffffffff\n      and\n        /* \"contracts/_ronx2.sol\":4791:4801  msg.sender */\n      caller\n        /* \"contracts/_ronx2.sol\":4778:4869  Registration(msg.sender, _upline, users[msg.sender].id, users[_upline].id,REGISTRATION_FEE) */\n      0xffffffffffffffffffffffffffffffffffffffff\n      and\n      0xc1df0cc11cc2a40ae327c4da54a7bc5d5007047ac744e37eed7b461a78117215\n        /* \"contracts/_ronx2.sol\":4812:4817  users */\n      0x00\n        /* \"contracts/_ronx2.sol\":4812:4829  users[msg.sender] */\n      dup1\n        /* \"contracts/_ronx2.sol\":4818:4828  msg.sender */\n      caller\n        /* \"contracts/_ronx2.sol\":4812:4829  users[msg.sender] */\n      0xffffffffffffffffffffffffffffffffffffffff\n      and\n      0xffffffffffffffffffffffffffffffffffffffff\n      and\n      dup2\n      mstore\n      0x20\n      add\n      swap1\n      dup2\n      mstore\n      0x20\n      add\n      0x00\n      keccak256\n        /* \"contracts/_ronx2.sol\":4812:4832  users[msg.sender].id */\n      0x01\n      add\n      sload\n        /* \"contracts/_ronx2.sol\":4834:4839  users */\n      0x00\n        /* \"contracts/_ronx2.sol\":4834:4848  users[_upline] */\n      dup1\n        /* \"contracts/_ronx2.sol\":4840:4847  _upline */\n      dup14\n        /* \"contracts/_ronx2.sol\":4834:4848  users[_upline] */\n      0xffffffffffffffffffffffffffffffffffffffff\n      and\n      0xffffffffffffffffffffffffffffffffffffffff\n      and\n      dup2\n      mstore\n      0x20\n      add\n      swap1\n      dup2\n      mstore\n      0x20\n      add\n      0x00\n      keccak256\n        /* \"contracts/_ronx2.sol\":4834:4851  users[_upline].id */\n      0x01\n      add\n      sload\n        /* \"contracts/_ronx2.sol\":800:805  25e18 */\n      0x015af1d78b58c40000\n        /* \"contracts/_ronx2.sol\":4778:4869  Registration(msg.sender, _upline, users[msg.sender].id, users[_upline].id,REGISTRATION_FEE) */\n      mload(0x40)\n      tag_149\n      swap4\n      swap3\n      swap2\n      swap1\n      tag_150\n      jump\t// in\n    tag_149:\n      mload(0x40)\n      dup1\n      swap2\n      sub\n      swap1\n      log3\n        /* \"contracts/_ronx2.sol\":3548:4877  {... */\n      pop\n        /* \"contracts/_ronx2.sol\":3283:4877  function registerUser(... */\n      pop\n      pop\n      pop\n      pop\n      pop\n      pop\n      pop\n      jump\t// out\n        /* \"contracts/_ronx2.sol\":628:657  uint256 public lastUserId = 2 */\n    tag_44:\n      sload(0x03)\n      dup2\n      jump\t// out\n        /* \"contracts/_ronx2.sol\":9359:9948  function getUserInfo(address _user) public view returns (... */\n    tag_51:\n        /* \"contracts/_ronx2.sol\":9426:9433  address */\n      0x00\n        /* \"contracts/_ronx2.sol\":9435:9442  uint256 */\n      dup1\n        /* \"contracts/_ronx2.sol\":9444:9451  uint256 */\n      0x00\n        /* \"contracts/_ronx2.sol\":9453:9460  uint256 */\n      dup1\n        /* \"contracts/_ronx2.sol\":9462:9469  uint256 */\n      0x00\n        /* \"contracts/_ronx2.sol\":9471:9478  uint256 */\n      dup1\n        /* \"contracts/_ronx2.sol\":9480:9493  string memory */\n      0x60\n        /* \"contracts/_ronx2.sol\":9495:9508  string memory */\n      dup1\n        /* \"contracts/_ronx2.sol\":9510:9523  string memory */\n      0x60\n        /* \"contracts/_ronx2.sol\":9525:9538  string memory */\n      dup1\n        /* \"contracts/_ronx2.sol\":9540:9547  address */\n      0x00\n        /* \"contracts/_ronx2.sol\":9566:9582  User memory user */\n      dup1\n        /* \"contracts/_ronx2.sol\":9585:9590  users */\n      0x00\n        /* \"contracts/_ronx2.sol\":9585:9597  users[_user] */\n      dup1\n        /* \"contracts/_ronx2.sol\":9591:9596  _user */\n      dup15\n        /* \"contracts/_ronx2.sol\":9585:9597  users[_user] */\n      0xffffffffffffffffffffffffffffffffffffffff\n      and\n      0xffffffffffffffffffffffffffffffffffffffff\n      and\n      dup2\n      mstore\n      0x20\n      add\n      swap1\n      dup2\n      mstore\n      0x20\n      add\n      0x00\n      keccak256\n        /* \"contracts/_ronx2.sol\":9566:9597  User memory user = users[_user] */\n      mload(0x40)\n      dup1\n      0x01a0\n      add\n      0x40\n      mstore\n      swap1\n      dup2\n      0x00\n      dup3\n      add\n      0x00\n      swap1\n      sload\n      swap1\n      0x0100\n      exp\n      swap1\n      div\n      0xffffffffffffffffffffffffffffffffffffffff\n      and\n      0xffffffffffffffffffffffffffffffffffffffff\n      and\n      0xffffffffffffffffffffffffffffffffffffffff\n      and\n      dup2\n      mstore\n      0x20\n      add\n      0x01\n      dup3\n      add\n      sload\n      dup2\n      mstore\n      0x20\n      add\n      0x02\n      dup3\n      add\n      sload\n      dup2\n      mstore\n      0x20\n      add\n      0x03\n      dup3\n      add\n      sload\n      dup2\n      mstore\n      0x20\n      add\n      0x04\n      dup3\n      add\n      sload\n      dup2\n      mstore\n      0x20\n      add\n      0x05\n      dup3\n      add\n      0x00\n      swap1\n      sload\n      swap1\n      0x0100\n      exp\n      swap1\n      div\n      0xff\n      and\n      0xff\n      and\n      0xff\n      and\n      dup2\n      mstore\n      0x20\n      add\n      0x06\n      dup3\n      add\n      dup1\n      sload\n      dup1\n      0x20\n      mul\n      0x20\n      add\n      mload(0x40)\n      swap1\n      dup2\n      add\n      0x40\n      mstore\n      dup1\n      swap3\n      swap2\n      swap1\n      dup2\n      dup2\n      mstore\n      0x20\n      add\n      dup3\n      dup1\n      sload\n      dup1\n      iszero\n      tag_152\n      jumpi\n      0x20\n      mul\n      dup3\n      add\n      swap2\n      swap1\n      0x00\n      mstore\n      keccak256(0x00, 0x20)\n      swap1\n    tag_153:\n      dup2\n      0x00\n      swap1\n      sload\n      swap1\n      0x0100\n      exp\n      swap1\n      div\n      0xffffffffffffffffffffffffffffffffffffffff\n      and\n      0xffffffffffffffffffffffffffffffffffffffff\n      and\n      dup2\n      mstore\n      0x20\n      add\n      swap1\n      0x01\n      add\n      swap1\n      dup1\n      dup4\n      gt\n      tag_153\n      jumpi\n    tag_152:\n      pop\n      pop\n      pop\n      pop\n      pop\n      dup2\n      mstore\n      0x20\n      add\n      0x07\n      dup3\n      add\n      dup1\n      sload\n      tag_154\n      swap1\n      tag_155\n      jump\t// in\n    tag_154:\n      dup1\n      0x1f\n      add\n      0x20\n      dup1\n      swap2\n      div\n      mul\n      0x20\n      add\n      mload(0x40)\n      swap1\n      dup2\n      add\n      0x40\n      mstore\n      dup1\n      swap3\n      swap2\n      swap1\n      dup2\n      dup2\n      mstore\n      0x20\n      add\n      dup3\n      dup1\n      sload\n      tag_156\n      swap1\n      tag_155\n      jump\t// in\n    tag_156:\n      dup1\n      iszero\n      tag_157\n      jumpi\n      dup1\n      0x1f\n      lt\n      tag_158\n      jumpi\n      0x0100\n      dup1\n      dup4\n      sload\n      div\n      mul\n      dup4\n      mstore\n      swap2\n      0x20\n      add\n      swap2\n      jump(tag_157)\n    tag_158:\n      dup3\n      add\n      swap2\n      swap1\n      0x00\n      mstore\n      keccak256(0x00, 0x20)\n      swap1\n    tag_159:\n      dup2\n      sload\n      dup2\n      mstore\n      swap1\n      0x01\n      add\n      swap1\n      0x20\n      add\n      dup1\n      dup4\n      gt\n      tag_159\n      jumpi\n      dup3\n      swap1\n      sub\n      0x1f\n      and\n      dup3\n      add\n      swap2\n    tag_157:\n      pop\n      pop\n      pop\n      pop\n      pop\n      dup2\n      mstore\n      0x20\n      add\n      0x08\n      dup3\n      add\n      dup1\n      sload\n      tag_160\n      swap1\n      tag_155\n      jump\t// in\n    tag_160:\n      dup1\n      0x1f\n      add\n      0x20\n      dup1\n      swap2\n      div\n      mul\n      0x20\n      add\n      mload(0x40)\n      swap1\n      dup2\n      add\n      0x40\n      mstore\n      dup1\n      swap3\n      swap2\n      swap1\n      dup2\n      dup2\n      mstore\n      0x20\n      add\n      dup3\n      dup1\n      sload\n      tag_161\n      swap1\n      tag_155\n      jump\t// in\n    tag_161:\n      dup1\n      iszero\n      tag_162\n      jumpi\n      dup1\n      0x1f\n      lt\n      tag_163\n      jumpi\n      0x0100\n      dup1\n      dup4\n      sload\n      div\n      mul\n      dup4\n      mstore\n      swap2\n      0x20\n      add\n      swap2\n      jump(tag_162)\n    tag_163:\n      dup3\n      add\n      swap2\n      swap1\n      0x00\n      mstore\n      keccak256(0x00, 0x20)\n      swap1\n    tag_164:\n      dup2\n      sload\n      dup2\n      mstore\n      swap1\n      0x01\n      add\n      swap1\n      0x20\n      add\n      dup1\n      dup4\n      gt\n      tag_164\n      jumpi\n      dup3\n      swap1\n      sub\n      0x1f\n      and\n      dup3\n      add\n      swap2\n    tag_162:\n      pop\n      pop\n      pop\n      pop\n      pop\n      dup2\n      mstore\n      0x20\n      add\n      0x09\n      dup3\n      add\n      dup1\n      sload\n      tag_165\n      swap1\n      tag_155\n      jump\t// in\n    tag_165:\n      dup1\n      0x1f\n      add\n      0x20\n      dup1\n      swap2\n      div\n      mul\n      0x20\n      add\n      mload(0x40)\n      swap1\n      dup2\n      add\n      0x40\n      mstore\n      dup1\n      swap3\n      swap2\n      swap1\n      dup2\n      dup2\n      mstore\n      0x20\n      add\n      dup3\n      dup1\n      sload\n      tag_166\n      swap1\n      tag_155\n      jump\t// in\n    tag_166:\n      dup1\n      iszero\n      tag_167\n      jumpi\n      dup1\n      0x1f\n      lt\n      tag_168\n      jumpi\n      0x0100\n      dup1\n      dup4\n      sload\n      div\n      mul\n      dup4\n      mstore\n      swap2\n      0x20\n      add\n      swap2\n      jump(tag_167)\n    tag_168:\n      dup3\n      add\n      swap2\n      swap1\n      0x00\n      mstore\n      keccak256(0x00, 0x20)\n      swap1\n    tag_169:\n      dup2\n      sload\n      dup2\n      mstore\n      swap1\n      0x01\n      add\n      swap1\n      0x20\n      add\n      dup1\n      dup4\n      gt\n      tag_169\n      jumpi\n      dup3\n      swap1\n      sub\n      0x1f\n      and\n      dup3\n      add\n      swap2\n    tag_167:\n      pop\n      pop\n      pop\n      pop\n      pop\n      dup2\n      mstore\n      0x20\n      add\n      0x0a\n      dup3\n      add\n      dup1\n      sload\n      tag_170\n      swap1\n      tag_155\n      jump\t// in\n    tag_170:\n      dup1\n      0x1f\n      add\n      0x20\n      dup1\n      swap2\n      div\n      mul\n      0x20\n      add\n      mload(0x40)\n      swap1\n      dup2\n      add\n      0x40\n      mstore\n      dup1\n      swap3\n      swap2\n      swap1\n      dup2\n      dup2\n      mstore\n      0x20\n      add\n      dup3\n      dup1\n      sload\n      tag_171\n      swap1\n      tag_155\n      jump\t// in\n    tag_171:\n      dup1\n      iszero\n      tag_172\n      jumpi\n      dup1\n      0x1f\n      lt\n      tag_173\n      jumpi\n      0x0100\n      dup1\n      dup4\n      sload\n      div\n      mul\n      dup4\n      mstore\n      swap2\n      0x20\n      add\n      swap2\n      jump(tag_172)\n    tag_173:\n      dup3\n      add\n      swap2\n      swap1\n      0x00\n      mstore\n      keccak256(0x00, 0x20)\n      swap1\n    tag_174:\n      dup2\n      sload\n      dup2\n      mstore\n      swap1\n      0x01\n      add\n      swap1\n      0x20\n      add\n      dup1\n      dup4\n      gt\n      tag_174\n      jumpi\n      dup3\n      swap1\n      sub\n      0x1f\n      and\n      dup3\n      add\n      swap2\n    tag_172:\n      pop\n      pop\n      pop\n      pop\n      pop\n      dup2\n      mstore\n      0x20\n      add\n      0x0b\n      dup3\n      add\n      sload\n      dup2\n      mstore\n      0x20\n      add\n      0x0c\n      dup3\n      add\n      0x00\n      swap1\n      sload\n      swap1\n      0x0100\n      exp\n      swap1\n      div\n      0xffffffffffffffffffffffffffffffffffffffff\n      and\n      0xffffffffffffffffffffffffffffffffffffffff\n      and\n      0xffffffffffffffffffffffffffffffffffffffff\n      and\n      dup2\n      mstore\n      pop\n      pop\n      swap1\n      pop\n        /* \"contracts/_ronx2.sol\":9630:9634  user */\n      dup1\n        /* \"contracts/_ronx2.sol\":9630:9641  user.upline */\n      0x00\n      add\n      mload\n        /* \"contracts/_ronx2.sol\":9656:9660  user */\n      dup2\n        /* \"contracts/_ronx2.sol\":9656:9663  user.id */\n      0x20\n      add\n      mload\n        /* \"contracts/_ronx2.sol\":9678:9682  user */\n      dup3\n        /* \"contracts/_ronx2.sol\":9678:9696  user.referralCount */\n      0x40\n      add\n      mload\n        /* \"contracts/_ronx2.sol\":9711:9715  user */\n      dup4\n        /* \"contracts/_ronx2.sol\":9711:9726  user.cycleCount */\n      0x60\n      add\n      mload\n        /* \"contracts/_ronx2.sol\":9741:9745  user */\n      dup5\n        /* \"contracts/_ronx2.sol\":9741:9754  user.earnings */\n      0x80\n      add\n      mload\n        /* \"contracts/_ronx2.sol\":9769:9773  user */\n      dup6\n        /* \"contracts/_ronx2.sol\":9769:9786  user.partnerLevel */\n      0xa0\n      add\n      mload\n        /* \"contracts/_ronx2.sol\":9801:9805  user */\n      dup7\n        /* \"contracts/_ronx2.sol\":9801:9815  user.firstName */\n      0xe0\n      add\n      mload\n        /* \"contracts/_ronx2.sol\":9830:9834  user */\n      dup8\n        /* \"contracts/_ronx2.sol\":9830:9843  user.lastName */\n      0x0100\n      add\n      mload\n        /* \"contracts/_ronx2.sol\":9858:9862  user */\n      dup9\n        /* \"contracts/_ronx2.sol\":9858:9873  user.profilePic */\n      0x0120\n      add\n      mload\n        /* \"contracts/_ronx2.sol\":9888:9892  user */\n      dup10\n        /* \"contracts/_ronx2.sol\":9888:9898  user.email */\n      0x0140\n      add\n      mload\n        /* \"contracts/_ronx2.sol\":9913:9917  user */\n      dup11\n        /* \"contracts/_ronx2.sol\":9913:9929  user.userAddress */\n      0x0180\n      add\n      mload\n        /* \"contracts/_ronx2.sol\":9608:9940  return (... */\n      dup6\n      0xff\n      and\n      swap6\n      pop\n      swap12\n      pop\n      swap12\n      pop\n      swap12\n      pop\n      swap12\n      pop\n      swap12\n      pop\n      swap12\n      pop\n      swap12\n      pop\n      swap12\n      pop\n      swap12\n      pop\n      swap12\n      pop\n      swap12\n      pop\n      pop\n        /* \"contracts/_ronx2.sol\":9359:9948  function getUserInfo(address _user) public view returns (... */\n      swap2\n      swap4\n      swap6\n      swap8\n      swap10\n      swap12\n      swap1\n      swap3\n      swap5\n      swap7\n      swap9\n      swap11\n      pop\n      jump\t// out\n        /* \"contracts/_ronx2.sol\":757:805  uint256 public constant REGISTRATION_FEE = 25e18 */\n    tag_56:\n        /* \"contracts/_ronx2.sol\":800:805  25e18 */\n      0x015af1d78b58c40000\n        /* \"contracts/_ronx2.sol\":757:805  uint256 public constant REGISTRATION_FEE = 25e18 */\n      dup2\n      jump\t// out\n        /* \"contracts/_ronx2.sol\":10146:10252  function getUserById(uint256 _id) public view returns (address) {... */\n    tag_61:\n        /* \"contracts/_ronx2.sol\":10201:10208  address */\n      0x00\n        /* \"contracts/_ronx2.sol\":10228:10239  idToAddress */\n      0x01\n        /* \"contracts/_ronx2.sol\":10228:10244  idToAddress[_id] */\n      0x00\n        /* \"contracts/_ronx2.sol\":10240:10243  _id */\n      dup4\n        /* \"contracts/_ronx2.sol\":10228:10244  idToAddress[_id] */\n      dup2\n      mstore\n      0x20\n      add\n      swap1\n      dup2\n      mstore\n      0x20\n      add\n      0x00\n      keccak256\n      0x00\n      swap1\n      sload\n      swap1\n      0x0100\n      exp\n      swap1\n      div\n      0xffffffffffffffffffffffffffffffffffffffff\n      and\n        /* \"contracts/_ronx2.sol\":10221:10244  return idToAddress[_id] */\n      swap1\n      pop\n        /* \"contracts/_ronx2.sol\":10146:10252  function getUserById(uint256 _id) public view returns (address) {... */\n      swap2\n      swap1\n      pop\n      jump\t// out\n        /* \"contracts/_ronx2.sol\":10260:10443  function getLevelPrice(uint8 _level) public view returns (uint256) {... */\n    tag_67:\n        /* \"contracts/_ronx2.sol\":10318:10325  uint256 */\n      0x00\n        /* \"contracts/_ronx2.sol\":10356:10357  1 */\n      0x01\n        /* \"contracts/_ronx2.sol\":10346:10352  _level */\n      dup3\n        /* \"contracts/_ronx2.sol\":10346:10357  _level >= 1 */\n      0xff\n      and\n      lt\n      iszero\n        /* \"contracts/_ronx2.sol\":10346:10381  _level >= 1 && _level <= LAST_LEVEL */\n      dup1\n      iszero\n      tag_177\n      jumpi\n      pop\n        /* \"contracts/_ronx2.sol\":699:701  12 */\n      0x0c\n        /* \"contracts/_ronx2.sol\":10361:10381  _level <= LAST_LEVEL */\n      0xff\n      and\n        /* \"contracts/_ronx2.sol\":10361:10367  _level */\n      dup3\n        /* \"contracts/_ronx2.sol\":10361:10381  _level <= LAST_LEVEL */\n      0xff\n      and\n      gt\n      iszero\n        /* \"contracts/_ronx2.sol\":10346:10381  _level >= 1 && _level <= LAST_LEVEL */\n    tag_177:\n        /* \"contracts/_ronx2.sol\":10338:10399  require(_level >= 1 && _level <= LAST_LEVEL, \"Invalid level\") */\n      tag_178\n      jumpi\n      mload(0x40)\n      0x08c379a000000000000000000000000000000000000000000000000000000000\n      dup2\n      mstore\n      0x04\n      add\n      tag_179\n      swap1\n      tag_180\n      jump\t// in\n    tag_179:\n      mload(0x40)\n      dup1\n      swap2\n      sub\n      swap1\n      revert\n    tag_178:\n        /* \"contracts/_ronx2.sol\":10417:10427  levelPrice */\n      0x02\n        /* \"contracts/_ronx2.sol\":10417:10435  levelPrice[_level] */\n      0x00\n        /* \"contracts/_ronx2.sol\":10428:10434  _level */\n      dup4\n        /* \"contracts/_ronx2.sol\":10417:10435  levelPrice[_level] */\n      0xff\n      and\n      0xff\n      and\n      dup2\n      mstore\n      0x20\n      add\n      swap1\n      dup2\n      mstore\n      0x20\n      add\n      0x00\n      keccak256\n      sload\n        /* \"contracts/_ronx2.sol\":10410:10435  return levelPrice[_level] */\n      swap1\n      pop\n        /* \"contracts/_ronx2.sol\":10260:10443  function getLevelPrice(uint8 _level) public view returns (uint256) {... */\n      swap2\n      swap1\n      pop\n      jump\t// out\n        /* \"contracts/_ronx2.sol\":6025:7248  function buyLevel(uint8 _newLevel) public payable {... */\n    tag_71:\n        /* \"contracts/_ronx2.sol\":6102:6107  users */\n      0x00\n        /* \"contracts/_ronx2.sol\":6102:6119  users[msg.sender] */\n      dup1\n        /* \"contracts/_ronx2.sol\":6108:6118  msg.sender */\n      caller\n        /* \"contracts/_ronx2.sol\":6102:6119  users[msg.sender] */\n      0xffffffffffffffffffffffffffffffffffffffff\n      and\n      0xffffffffffffffffffffffffffffffffffffffff\n      and\n      dup2\n      mstore\n      0x20\n      add\n      swap1\n      dup2\n      mstore\n      0x20\n      add\n      0x00\n      keccak256\n        /* \"contracts/_ronx2.sol\":6102:6132  users[msg.sender].partnerLevel */\n      0x05\n      add\n      0x00\n      swap1\n      sload\n      swap1\n      0x0100\n      exp\n      swap1\n      div\n      0xff\n      and\n        /* \"contracts/_ronx2.sol\":6090:6132  _newLevel > users[msg.sender].partnerLevel */\n      0xff\n      and\n        /* \"contracts/_ronx2.sol\":6090:6099  _newLevel */\n      dup2\n        /* \"contracts/_ronx2.sol\":6090:6132  _newLevel > users[msg.sender].partnerLevel */\n      0xff\n      and\n      gt\n        /* \"contracts/_ronx2.sol\":6082:6179  require(_newLevel > users[msg.sender].partnerLevel, \"Cannot downgrade or stay at the same level\") */\n      tag_182\n      jumpi\n      mload(0x40)\n      0x08c379a000000000000000000000000000000000000000000000000000000000\n      dup2\n      mstore\n      0x04\n      add\n      tag_183\n      swap1\n      tag_184\n      jump\t// in\n    tag_183:\n      mload(0x40)\n      dup1\n      swap2\n      sub\n      swap1\n      revert\n    tag_182:\n        /* \"contracts/_ronx2.sol\":699:701  12 */\n      0x0c\n        /* \"contracts/_ronx2.sol\":6194:6217  _newLevel <= LAST_LEVEL */\n      0xff\n      and\n        /* \"contracts/_ronx2.sol\":6194:6203  _newLevel */\n      dup2\n        /* \"contracts/_ronx2.sol\":6194:6217  _newLevel <= LAST_LEVEL */\n      0xff\n      and\n      gt\n      iszero\n        /* \"contracts/_ronx2.sol\":6186:6235  require(_newLevel <= LAST_LEVEL, \"Invalid level\") */\n      tag_185\n      jumpi\n      mload(0x40)\n      0x08c379a000000000000000000000000000000000000000000000000000000000\n      dup2\n      mstore\n      0x04\n      add\n      tag_186\n      swap1\n      tag_180\n      jump\t// in\n    tag_186:\n      mload(0x40)\n      dup1\n      swap2\n      sub\n      swap1\n      revert\n    tag_185:\n        /* \"contracts/_ronx2.sol\":6244:6257  uint256 price */\n      0x00\n        /* \"contracts/_ronx2.sol\":6260:6270  levelPrice */\n      0x02\n        /* \"contracts/_ronx2.sol\":6260:6281  levelPrice[_newLevel] */\n      0x00\n        /* \"contracts/_ronx2.sol\":6271:6280  _newLevel */\n      dup4\n        /* \"contracts/_ronx2.sol\":6260:6281  levelPrice[_newLevel] */\n      0xff\n      and\n      0xff\n      and\n      dup2\n      mstore\n      0x20\n      add\n      swap1\n      dup2\n      mstore\n      0x20\n      add\n      0x00\n      keccak256\n      sload\n        /* \"contracts/_ronx2.sol\":6244:6281  uint256 price = levelPrice[_newLevel] */\n      swap1\n      pop\n        /* \"contracts/_ronx2.sol\":6391:6405  address upline */\n      0x00\n        /* \"contracts/_ronx2.sol\":6408:6413  users */\n      dup1\n        /* \"contracts/_ronx2.sol\":6408:6425  users[msg.sender] */\n      0x00\n        /* \"contracts/_ronx2.sol\":6414:6424  msg.sender */\n      caller\n        /* \"contracts/_ronx2.sol\":6408:6425  users[msg.sender] */\n      0xffffffffffffffffffffffffffffffffffffffff\n      and\n      0xffffffffffffffffffffffffffffffffffffffff\n      and\n      dup2\n      mstore\n      0x20\n      add\n      swap1\n      dup2\n      mstore\n      0x20\n      add\n      0x00\n      keccak256\n        /* \"contracts/_ronx2.sol\":6408:6432  users[msg.sender].upline */\n      0x00\n      add\n      0x00\n      swap1\n      sload\n      swap1\n      0x0100\n      exp\n      swap1\n      div\n      0xffffffffffffffffffffffffffffffffffffffff\n      and\n        /* \"contracts/_ronx2.sol\":6391:6432  address upline = users[msg.sender].upline */\n      swap1\n      pop\n        /* \"contracts/_ronx2.sol\":6439:6461  uint256 uplineEarnings */\n      0x00\n        /* \"contracts/_ronx2.sol\":6477:6480  100 */\n      0x64\n        /* \"contracts/_ronx2.sol\":6472:6474  10 */\n      0x0a\n        /* \"contracts/_ronx2.sol\":6464:6469  price */\n      dup5\n        /* \"contracts/_ronx2.sol\":6464:6474  price * 10 */\n      tag_187\n      swap2\n      swap1\n      tag_188\n      jump\t// in\n    tag_187:\n        /* \"contracts/_ronx2.sol\":6464:6480  price * 10 / 100 */\n      tag_189\n      swap2\n      swap1\n      tag_190\n      jump\t// in\n    tag_189:\n        /* \"contracts/_ronx2.sol\":6439:6480  uint256 uplineEarnings = price * 10 / 100 */\n      swap1\n      pop\n        /* \"contracts/_ronx2.sol\":6504:6525  uint256 ownerEarnings */\n      0x00\n        /* \"contracts/_ronx2.sol\":6536:6550  uplineEarnings */\n      dup2\n        /* \"contracts/_ronx2.sol\":6528:6533  price */\n      dup5\n        /* \"contracts/_ronx2.sol\":6528:6550  price - uplineEarnings */\n      tag_191\n      swap2\n      swap1\n      tag_192\n      jump\t// in\n    tag_191:\n        /* \"contracts/_ronx2.sol\":6504:6550  uint256 ownerEarnings = price - uplineEarnings */\n      swap1\n      pop\n        /* \"contracts/_ronx2.sol\":6628:6637  _newLevel */\n      dup5\n        /* \"contracts/_ronx2.sol\":6595:6600  users */\n      0x00\n        /* \"contracts/_ronx2.sol\":6595:6612  users[msg.sender] */\n      dup1\n        /* \"contracts/_ronx2.sol\":6601:6611  msg.sender */\n      caller\n        /* \"contracts/_ronx2.sol\":6595:6612  users[msg.sender] */\n      0xffffffffffffffffffffffffffffffffffffffff\n      and\n      0xffffffffffffffffffffffffffffffffffffffff\n      and\n      dup2\n      mstore\n      0x20\n      add\n      swap1\n      dup2\n      mstore\n      0x20\n      add\n      0x00\n      keccak256\n        /* \"contracts/_ronx2.sol\":6595:6625  users[msg.sender].partnerLevel */\n      0x05\n      add\n      0x00\n        /* \"contracts/_ronx2.sol\":6595:6637  users[msg.sender].partnerLevel = _newLevel */\n      0x0100\n      exp\n      dup2\n      sload\n      dup2\n      0xff\n      mul\n      not\n      and\n      swap1\n      dup4\n      0xff\n      and\n      mul\n      or\n      swap1\n      sstore\n      pop\n        /* \"contracts/_ronx2.sol\":6708:6709  0 */\n      0x00\n        /* \"contracts/_ronx2.sol\":6690:6710  upline != address(0) */\n      0xffffffffffffffffffffffffffffffffffffffff\n      and\n        /* \"contracts/_ronx2.sol\":6690:6696  upline */\n      dup4\n        /* \"contracts/_ronx2.sol\":6690:6710  upline != address(0) */\n      0xffffffffffffffffffffffffffffffffffffffff\n      and\n      eq\n        /* \"contracts/_ronx2.sol\":6686:6964  if (upline != address(0)) {... */\n      tag_193\n      jumpi\n        /* \"contracts/_ronx2.sol\":6724:6742  bool successUpline */\n      0x00\n        /* \"contracts/_ronx2.sol\":6756:6762  upline */\n      dup4\n        /* \"contracts/_ronx2.sol\":6748:6768  payable(upline).call */\n      0xffffffffffffffffffffffffffffffffffffffff\n      and\n        /* \"contracts/_ronx2.sol\":6776:6790  uplineEarnings */\n      dup4\n        /* \"contracts/_ronx2.sol\":6748:6795  payable(upline).call{value: uplineEarnings}(\"\") */\n      mload(0x40)\n      tag_194\n      swap1\n      tag_195\n      jump\t// in\n    tag_194:\n      0x00\n      mload(0x40)\n      dup1\n      dup4\n      sub\n      dup2\n      dup6\n      dup8\n      gas\n      call\n      swap3\n      pop\n      pop\n      pop\n      returndatasize\n      dup1\n      0x00\n      dup2\n      eq\n      tag_198\n      jumpi\n      mload(0x40)\n      swap2\n      pop\n      and(add(returndatasize, 0x3f), not(0x1f))\n      dup3\n      add\n      0x40\n      mstore\n      returndatasize\n      dup3\n      mstore\n      returndatasize\n      0x00\n      0x20\n      dup5\n      add\n      returndatacopy\n      jump(tag_197)\n    tag_198:\n      0x60\n      swap2\n      pop\n    tag_197:\n      pop\n        /* \"contracts/_ronx2.sol\":6723:6795  (bool successUpline, ) = payable(upline).call{value: uplineEarnings}(\"\") */\n      pop\n      swap1\n      pop\n        /* \"contracts/_ronx2.sol\":6814:6827  successUpline */\n      dup1\n        /* \"contracts/_ronx2.sol\":6806:6857  require(successUpline, \"Transfer to upline failed\") */\n      tag_199\n      jumpi\n      mload(0x40)\n      0x08c379a000000000000000000000000000000000000000000000000000000000\n      dup2\n      mstore\n      0x04\n      add\n      tag_200\n      swap1\n      tag_201\n      jump\t// in\n    tag_200:\n      mload(0x40)\n      dup1\n      swap2\n      sub\n      swap1\n      revert\n    tag_199:\n        /* \"contracts/_ronx2.sol\":6894:6908  uplineEarnings */\n      dup3\n        /* \"contracts/_ronx2.sol\":6868:6873  users */\n      0x00\n        /* \"contracts/_ronx2.sol\":6868:6881  users[upline] */\n      dup1\n        /* \"contracts/_ronx2.sol\":6874:6880  upline */\n      dup7\n        /* \"contracts/_ronx2.sol\":6868:6881  users[upline] */\n      0xffffffffffffffffffffffffffffffffffffffff\n      and\n      0xffffffffffffffffffffffffffffffffffffffff\n      and\n      dup2\n      mstore\n      0x20\n      add\n      swap1\n      dup2\n      mstore\n      0x20\n      add\n      0x00\n      keccak256\n        /* \"contracts/_ronx2.sol\":6868:6890  users[upline].earnings */\n      0x04\n      add\n      0x00\n        /* \"contracts/_ronx2.sol\":6868:6908  users[upline].earnings += uplineEarnings */\n      dup3\n      dup3\n      sload\n      tag_202\n      swap2\n      swap1\n      tag_203\n      jump\t// in\n    tag_202:\n      swap3\n      pop\n      pop\n      dup2\n      swap1\n      sstore\n      pop\n        /* \"contracts/_ronx2.sol\":6933:6939  upline */\n      dup4\n        /* \"contracts/_ronx2.sol\":6924:6956  Earnings(upline, uplineEarnings) */\n      0xffffffffffffffffffffffffffffffffffffffff\n      and\n      0x92d81ab7e787d9a43bbb8f8ca7f0b2708da03b86d5aea53d5d20656ff8dad1ee\n        /* \"contracts/_ronx2.sol\":6941:6955  uplineEarnings */\n      dup5\n        /* \"contracts/_ronx2.sol\":6924:6956  Earnings(upline, uplineEarnings) */\n      mload(0x40)\n      tag_204\n      swap2\n      swap1\n      tag_46\n      jump\t// in\n    tag_204:\n      mload(0x40)\n      dup1\n      swap2\n      sub\n      swap1\n      log2\n        /* \"contracts/_ronx2.sol\":6712:6964  {... */\n      pop\n        /* \"contracts/_ronx2.sol\":6686:6964  if (upline != address(0)) {... */\n    tag_193:\n        /* \"contracts/_ronx2.sol\":7030:7047  bool successOwner */\n      0x00\n        /* \"contracts/_ronx2.sol\":7061:7066  owner */\n      0x04\n      0x00\n      swap1\n      sload\n      swap1\n      0x0100\n      exp\n      swap1\n      div\n      0xffffffffffffffffffffffffffffffffffffffff\n      and\n        /* \"contracts/_ronx2.sol\":7053:7072  payable(owner).call */\n      0xffffffffffffffffffffffffffffffffffffffff\n      and\n        /* \"contracts/_ronx2.sol\":7080:7093  ownerEarnings */\n      dup3\n        /* \"contracts/_ronx2.sol\":7053:7098  payable(owner).call{value: ownerEarnings}(\"\") */\n      mload(0x40)\n      tag_205\n      swap1\n      tag_195\n      jump\t// in\n    tag_205:\n      0x00\n      mload(0x40)\n      dup1\n      dup4\n      sub\n      dup2\n      dup6\n      dup8\n      gas\n      call\n      swap3\n      pop\n      pop\n      pop\n      returndatasize\n      dup1\n      0x00\n      dup2\n      eq\n      tag_208\n      jumpi\n      mload(0x40)\n      swap2\n      pop\n      and(add(returndatasize, 0x3f), not(0x1f))\n      dup3\n      add\n      0x40\n      mstore\n      returndatasize\n      dup3\n      mstore\n      returndatasize\n      0x00\n      0x20\n      dup5\n      add\n      returndatacopy\n      jump(tag_207)\n    tag_208:\n      0x60\n      swap2\n      pop\n    tag_207:\n      pop\n        /* \"contracts/_ronx2.sol\":7029:7098  (bool successOwner, ) = payable(owner).call{value: ownerEarnings}(\"\") */\n      pop\n      swap1\n      pop\n        /* \"contracts/_ronx2.sol\":7184:7194  msg.sender */\n      caller\n        /* \"contracts/_ronx2.sol\":7170:7244  LevelUpgraded(msg.sender, _newLevel, price, uplineEarnings, ownerEarnings) */\n      0xffffffffffffffffffffffffffffffffffffffff\n      and\n      0xdbf0b0dd9da4bea8f6827b8c94d9d2c555a713d0b15d01f002f81f321bba5e3c\n        /* \"contracts/_ronx2.sol\":7196:7205  _newLevel */\n      dup8\n        /* \"contracts/_ronx2.sol\":7207:7212  price */\n      dup8\n        /* \"contracts/_ronx2.sol\":7214:7228  uplineEarnings */\n      dup7\n        /* \"contracts/_ronx2.sol\":7230:7243  ownerEarnings */\n      dup7\n        /* \"contracts/_ronx2.sol\":7170:7244  LevelUpgraded(msg.sender, _newLevel, price, uplineEarnings, ownerEarnings) */\n      mload(0x40)\n      tag_209\n      swap5\n      swap4\n      swap3\n      swap2\n      swap1\n      tag_210\n      jump\t// in\n    tag_209:\n      mload(0x40)\n      dup1\n      swap2\n      sub\n      swap1\n      log2\n        /* \"contracts/_ronx2.sol\":6075:7248  {... */\n      pop\n      pop\n      pop\n      pop\n      pop\n        /* \"contracts/_ronx2.sol\":6025:7248  function buyLevel(uint8 _newLevel) public payable {... */\n      pop\n      jump\t// out\n        /* \"contracts/_ronx2.sol\":814:834  address public owner */\n    tag_74:\n      0x04\n      0x00\n      swap1\n      sload\n      swap1\n      0x0100\n      exp\n      swap1\n      div\n      0xffffffffffffffffffffffffffffffffffffffff\n      and\n      dup2\n      jump\t// out\n        /* \"contracts/_ronx2.sol\":8110:9209  function payUpline(address _user) public payable returns (uint256) {... */\n    tag_78:\n        /* \"contracts/_ronx2.sol\":8168:8175  uint256 */\n      0x00\n        /* \"contracts/_ronx2.sol\":8188:8206  address uplineUser */\n      dup1\n        /* \"contracts/_ronx2.sol\":8209:8214  users */\n      0x00\n        /* \"contracts/_ronx2.sol\":8209:8221  users[_user] */\n      dup1\n        /* \"contracts/_ronx2.sol\":8215:8220  _user */\n      dup5\n        /* \"contracts/_ronx2.sol\":8209:8221  users[_user] */\n      0xffffffffffffffffffffffffffffffffffffffff\n      and\n      0xffffffffffffffffffffffffffffffffffffffff\n      and\n      dup2\n      mstore\n      0x20\n      add\n      swap1\n      dup2\n      mstore\n      0x20\n      add\n      0x00\n      keccak256\n        /* \"contracts/_ronx2.sol\":8209:8228  users[_user].upline */\n      0x00\n      add\n      0x00\n      swap1\n      sload\n      swap1\n      0x0100\n      exp\n      swap1\n      div\n      0xffffffffffffffffffffffffffffffffffffffff\n      and\n        /* \"contracts/_ronx2.sol\":8188:8228  address uplineUser = users[_user].upline */\n      swap1\n      pop\n        /* \"contracts/_ronx2.sol\":8267:8268  0 */\n      0x00\n        /* \"contracts/_ronx2.sol\":8245:8269  uplineUser == address(0) */\n      0xffffffffffffffffffffffffffffffffffffffff\n      and\n        /* \"contracts/_ronx2.sol\":8245:8255  uplineUser */\n      dup2\n        /* \"contracts/_ronx2.sol\":8245:8269  uplineUser == address(0) */\n      0xffffffffffffffffffffffffffffffffffffffff\n      and\n      sub\n        /* \"contracts/_ronx2.sol\":8241:8306  if (uplineUser == address(0)) {... */\n      tag_212\n      jumpi\n        /* \"contracts/_ronx2.sol\":8293:8294  0 */\n      0x00\n        /* \"contracts/_ronx2.sol\":8286:8294  return 0 */\n      swap2\n      pop\n      pop\n      jump(tag_211)\n        /* \"contracts/_ronx2.sol\":8241:8306  if (uplineUser == address(0)) {... */\n    tag_212:\n        /* \"contracts/_ronx2.sol\":8357:8358  2 */\n      0x02\n        /* \"contracts/_ronx2.sol\":8322:8327  users */\n      0x00\n        /* \"contracts/_ronx2.sol\":8322:8339  users[uplineUser] */\n      dup1\n        /* \"contracts/_ronx2.sol\":8328:8338  uplineUser */\n      dup4\n        /* \"contracts/_ronx2.sol\":8322:8339  users[uplineUser] */\n      0xffffffffffffffffffffffffffffffffffffffff\n      and\n      0xffffffffffffffffffffffffffffffffffffffff\n      and\n      dup2\n      mstore\n      0x20\n      add\n      swap1\n      dup2\n      mstore\n      0x20\n      add\n      0x00\n      keccak256\n        /* \"contracts/_ronx2.sol\":8322:8353  users[uplineUser].referralCount */\n      0x02\n      add\n      sload\n        /* \"contracts/_ronx2.sol\":8322:8358  users[uplineUser].referralCount >= 2 */\n      lt\n        /* \"contracts/_ronx2.sol\":8318:9202  if (users[uplineUser].referralCount >= 2) {... */\n      tag_213\n      jumpi\n        /* \"contracts/_ronx2.sol\":8375:8386  uint8 level */\n      0x00\n        /* \"contracts/_ronx2.sol\":8389:8394  users */\n      dup1\n        /* \"contracts/_ronx2.sol\":8389:8406  users[uplineUser] */\n      0x00\n        /* \"contracts/_ronx2.sol\":8395:8405  uplineUser */\n      dup4\n        /* \"contracts/_ronx2.sol\":8389:8406  users[uplineUser] */\n      0xffffffffffffffffffffffffffffffffffffffff\n      and\n      0xffffffffffffffffffffffffffffffffffffffff\n      and\n      dup2\n      mstore\n      0x20\n      add\n      swap1\n      dup2\n      mstore\n      0x20\n      add\n      0x00\n      keccak256\n        /* \"contracts/_ronx2.sol\":8389:8419  users[uplineUser].partnerLevel */\n      0x05\n      add\n      0x00\n      swap1\n      sload\n      swap1\n      0x0100\n      exp\n      swap1\n      div\n      0xff\n      and\n        /* \"contracts/_ronx2.sol\":8375:8419  uint8 level = users[uplineUser].partnerLevel */\n      swap1\n      pop\n        /* \"contracts/_ronx2.sol\":8434:8448  uint256 reward */\n      0x00\n        /* \"contracts/_ronx2.sol\":8451:8461  levelPrice */\n      0x02\n        /* \"contracts/_ronx2.sol\":8451:8464  levelPrice[1] */\n      0x00\n        /* \"contracts/_ronx2.sol\":8462:8463  1 */\n      0x01\n        /* \"contracts/_ronx2.sol\":8451:8464  levelPrice[1] */\n      0xff\n      and\n      dup2\n      mstore\n      0x20\n      add\n      swap1\n      dup2\n      mstore\n      0x20\n      add\n      0x00\n      keccak256\n      sload\n        /* \"contracts/_ronx2.sol\":8434:8464  uint256 reward = levelPrice[1] */\n      swap1\n      pop\n        /* \"contracts/_ronx2.sol\":8512:8518  reward */\n      dup1\n        /* \"contracts/_ronx2.sol\":8487:8508  address(this).balance */\n      selfbalance\n        /* \"contracts/_ronx2.sol\":8487:8518  address(this).balance >= reward */\n      lt\n      iszero\n        /* \"contracts/_ronx2.sol\":8479:8552  require(address(this).balance >= reward, \"Insufficient contract balance\") */\n      tag_214\n      jumpi\n      mload(0x40)\n      0x08c379a000000000000000000000000000000000000000000000000000000000\n      dup2\n      mstore\n      0x04\n      add\n      tag_215\n      swap1\n      tag_216\n      jump\t// in\n    tag_215:\n      mload(0x40)\n      dup1\n      swap2\n      sub\n      swap1\n      revert\n    tag_214:\n        /* \"contracts/_ronx2.sol\":8567:8597  rewardUser(uplineUser, reward) */\n      tag_217\n        /* \"contracts/_ronx2.sol\":8578:8588  uplineUser */\n      dup4\n        /* \"contracts/_ronx2.sol\":8590:8596  reward */\n      dup3\n        /* \"contracts/_ronx2.sol\":8567:8577  rewardUser */\n      tag_218\n        /* \"contracts/_ronx2.sol\":8567:8597  rewardUser(uplineUser, reward) */\n      jump\t// in\n    tag_217:\n        /* \"contracts/_ronx2.sol\":8614:8619  users */\n      0x00\n        /* \"contracts/_ronx2.sol\":8614:8631  users[uplineUser] */\n      dup1\n        /* \"contracts/_ronx2.sol\":8620:8630  uplineUser */\n      dup5\n        /* \"contracts/_ronx2.sol\":8614:8631  users[uplineUser] */\n      0xffffffffffffffffffffffffffffffffffffffff\n      and\n      0xffffffffffffffffffffffffffffffffffffffff\n      and\n      dup2\n      mstore\n      0x20\n      add\n      swap1\n      dup2\n      mstore\n      0x20\n      add\n      0x00\n      keccak256\n        /* \"contracts/_ronx2.sol\":8614:8642  users[uplineUser].cycleCount */\n      0x03\n      add\n      0x00\n        /* \"contracts/_ronx2.sol\":8614:8644  users[uplineUser].cycleCount++ */\n      dup2\n      sload\n      dup1\n      swap3\n      swap2\n      swap1\n      tag_219\n      swap1\n      tag_123\n      jump\t// in\n    tag_219:\n      swap2\n      swap1\n      pop\n      sstore\n      pop\n        /* \"contracts/_ronx2.sol\":8673:8683  uplineUser */\n      dup3\n        /* \"contracts/_ronx2.sol\":8664:8714  NewCycle(uplineUser, users[uplineUser].cycleCount) */\n      0xffffffffffffffffffffffffffffffffffffffff\n      and\n      0x18c00b25130b4512b396a52c89756cb9a1177c6002fe34cbc071f88cf90812a1\n        /* \"contracts/_ronx2.sol\":8685:8690  users */\n      0x00\n        /* \"contracts/_ronx2.sol\":8685:8702  users[uplineUser] */\n      dup1\n        /* \"contracts/_ronx2.sol\":8691:8701  uplineUser */\n      dup7\n        /* \"contracts/_ronx2.sol\":8685:8702  users[uplineUser] */\n      0xffffffffffffffffffffffffffffffffffffffff\n      and\n      0xffffffffffffffffffffffffffffffffffffffff\n      and\n      dup2\n      mstore\n      0x20\n      add\n      swap1\n      dup2\n      mstore\n      0x20\n      add\n      0x00\n      keccak256\n        /* \"contracts/_ronx2.sol\":8685:8713  users[uplineUser].cycleCount */\n      0x03\n      add\n      sload\n        /* \"contracts/_ronx2.sol\":8664:8714  NewCycle(uplineUser, users[uplineUser].cycleCount) */\n      mload(0x40)\n      tag_220\n      swap2\n      swap1\n      tag_46\n      jump\t// in\n    tag_220:\n      mload(0x40)\n      dup1\n      swap2\n      sub\n      swap1\n      log2\n        /* \"contracts/_ronx2.sol\":8763:8764  0 */\n      0x00\n        /* \"contracts/_ronx2.sol\":8729:8734  users */\n      dup1\n        /* \"contracts/_ronx2.sol\":8729:8746  users[uplineUser] */\n      0x00\n        /* \"contracts/_ronx2.sol\":8735:8745  uplineUser */\n      dup6\n        /* \"contracts/_ronx2.sol\":8729:8746  users[uplineUser] */\n      0xffffffffffffffffffffffffffffffffffffffff\n      and\n      0xffffffffffffffffffffffffffffffffffffffff\n      and\n      dup2\n      mstore\n      0x20\n      add\n      swap1\n      dup2\n      mstore\n      0x20\n      add\n      0x00\n      keccak256\n        /* \"contracts/_ronx2.sol\":8729:8760  users[uplineUser].referralCount */\n      0x02\n      add\n        /* \"contracts/_ronx2.sol\":8729:8764  users[uplineUser].referralCount = 0 */\n      dup2\n      swap1\n      sstore\n      pop\n        /* \"contracts/_ronx2.sol\":8360:8776  {... */\n      pop\n      pop\n        /* \"contracts/_ronx2.sol\":8318:9202  if (users[uplineUser].referralCount >= 2) {... */\n      jump(tag_221)\n    tag_213:\n        /* \"contracts/_ronx2.sol\":8811:8816  users */\n      0x00\n        /* \"contracts/_ronx2.sol\":8811:8828  users[uplineUser] */\n      dup1\n        /* \"contracts/_ronx2.sol\":8817:8827  uplineUser */\n      dup3\n        /* \"contracts/_ronx2.sol\":8811:8828  users[uplineUser] */\n      0xffffffffffffffffffffffffffffffffffffffff\n      and\n      0xffffffffffffffffffffffffffffffffffffffff\n      and\n      dup2\n      mstore\n      0x20\n      add\n      swap1\n      dup2\n      mstore\n      0x20\n      add\n      0x00\n      keccak256\n        /* \"contracts/_ronx2.sol\":8811:8842  users[uplineUser].referralCount */\n      0x02\n      add\n      0x00\n        /* \"contracts/_ronx2.sol\":8811:8844  users[uplineUser].referralCount++ */\n      dup2\n      sload\n      dup1\n      swap3\n      swap2\n      swap1\n      tag_222\n      swap1\n      tag_123\n      jump\t// in\n    tag_222:\n      swap2\n      swap1\n      pop\n      sstore\n      pop\n        /* \"contracts/_ronx2.sol\":8918:8930  bool success */\n      0x00\n        /* \"contracts/_ronx2.sol\":8944:8954  uplineUser */\n      dup2\n        /* \"contracts/_ronx2.sol\":8936:8960  payable(uplineUser).call */\n      0xffffffffffffffffffffffffffffffffffffffff\n      and\n        /* \"contracts/_ronx2.sol\":8968:8977  msg.value */\n      callvalue\n        /* \"contracts/_ronx2.sol\":8936:8982  payable(uplineUser).call{value: msg.value}(\"\") */\n      mload(0x40)\n      tag_223\n      swap1\n      tag_195\n      jump\t// in\n    tag_223:\n      0x00\n      mload(0x40)\n      dup1\n      dup4\n      sub\n      dup2\n      dup6\n      dup8\n      gas\n      call\n      swap3\n      pop\n      pop\n      pop\n      returndatasize\n      dup1\n      0x00\n      dup2\n      eq\n      tag_226\n      jumpi\n      mload(0x40)\n      swap2\n      pop\n      and(add(returndatasize, 0x3f), not(0x1f))\n      dup3\n      add\n      0x40\n      mstore\n      returndatasize\n      dup3\n      mstore\n      returndatasize\n      0x00\n      0x20\n      dup5\n      add\n      returndatacopy\n      jump(tag_225)\n    tag_226:\n      0x60\n      swap2\n      pop\n    tag_225:\n      pop\n        /* \"contracts/_ronx2.sol\":8917:8982  (bool success, ) = payable(uplineUser).call{value: msg.value}(\"\") */\n      pop\n      swap1\n      pop\n        /* \"contracts/_ronx2.sol\":9004:9011  success */\n      dup1\n        /* \"contracts/_ronx2.sol\":8996:9031  require(success, \"Transfer failed\") */\n      tag_227\n      jumpi\n      mload(0x40)\n      0x08c379a000000000000000000000000000000000000000000000000000000000\n      dup2\n      mstore\n      0x04\n      add\n      tag_228\n      swap1\n      tag_229\n      jump\t// in\n    tag_228:\n      mload(0x40)\n      dup1\n      swap2\n      sub\n      swap1\n      revert\n    tag_227:\n        /* \"contracts/_ronx2.sol\":9075:9084  msg.value */\n      callvalue\n        /* \"contracts/_ronx2.sol\":9045:9050  users */\n      0x00\n        /* \"contracts/_ronx2.sol\":9045:9062  users[uplineUser] */\n      dup1\n        /* \"contracts/_ronx2.sol\":9051:9061  uplineUser */\n      dup5\n        /* \"contracts/_ronx2.sol\":9045:9062  users[uplineUser] */\n      0xffffffffffffffffffffffffffffffffffffffff\n      and\n      0xffffffffffffffffffffffffffffffffffffffff\n      and\n      dup2\n      mstore\n      0x20\n      add\n      swap1\n      dup2\n      mstore\n      0x20\n      add\n      0x00\n      keccak256\n        /* \"contracts/_ronx2.sol\":9045:9071  users[uplineUser].earnings */\n      0x04\n      add\n      0x00\n        /* \"contracts/_ronx2.sol\":9045:9084  users[uplineUser].earnings += msg.value */\n      dup3\n      dup3\n      sload\n      tag_230\n      swap2\n      swap1\n      tag_203\n      jump\t// in\n    tag_230:\n      swap3\n      pop\n      pop\n      dup2\n      swap1\n      sstore\n      pop\n        /* \"contracts/_ronx2.sol\":9112:9122  uplineUser */\n      dup2\n        /* \"contracts/_ronx2.sol\":9103:9134  Earnings(uplineUser, msg.value) */\n      0xffffffffffffffffffffffffffffffffffffffff\n      and\n      0x92d81ab7e787d9a43bbb8f8ca7f0b2708da03b86d5aea53d5d20656ff8dad1ee\n        /* \"contracts/_ronx2.sol\":9124:9133  msg.value */\n      callvalue\n        /* \"contracts/_ronx2.sol\":9103:9134  Earnings(uplineUser, msg.value) */\n      mload(0x40)\n      tag_231\n      swap2\n      swap1\n      tag_46\n      jump\t// in\n    tag_231:\n      mload(0x40)\n      dup1\n      swap2\n      sub\n      swap1\n      log2\n        /* \"contracts/_ronx2.sol\":9172:9182  uplineUser */\n      dup2\n        /* \"contracts/_ronx2.sol\":9153:9183  NewReferral(_user, uplineUser) */\n      0xffffffffffffffffffffffffffffffffffffffff\n      and\n        /* \"contracts/_ronx2.sol\":9165:9170  _user */\n      dup5\n        /* \"contracts/_ronx2.sol\":9153:9183  NewReferral(_user, uplineUser) */\n      0xffffffffffffffffffffffffffffffffffffffff\n      and\n      0x965e581fd2224ce85185c5f48cfbcc00e17fa216f970b274fc724888f6b8994a\n      mload(0x40)\n      mload(0x40)\n      dup1\n      swap2\n      sub\n      swap1\n      log3\n        /* \"contracts/_ronx2.sol\":8782:9202  {... */\n      pop\n        /* \"contracts/_ronx2.sol\":8318:9202  if (users[uplineUser].referralCount >= 2) {... */\n    tag_221:\n        /* \"contracts/_ronx2.sol\":8177:9209  {... */\n      pop\n        /* \"contracts/_ronx2.sol\":8110:9209  function payUpline(address _user) public payable returns (uint256) {... */\n    tag_211:\n      swap2\n      swap1\n      pop\n      jump\t// out\n        /* \"contracts/_ronx2.sol\":708:750  uint256 public constant BASIC_PRICE = 5e18 */\n    tag_82:\n        /* \"contracts/_ronx2.sol\":746:750  5e18 */\n      0x4563918244f40000\n        /* \"contracts/_ronx2.sol\":708:750  uint256 public constant BASIC_PRICE = 5e18 */\n      dup2\n      jump\t// out\n        /* \"contracts/_ronx2.sol\":479:516  mapping(address => User) public users */\n    tag_87:\n      mstore(0x20, 0x00)\n      dup1\n      0x00\n      mstore\n      keccak256(0x00, 0x40)\n      0x00\n      swap2\n      pop\n      swap1\n      pop\n      dup1\n      0x00\n      add\n      0x00\n      swap1\n      sload\n      swap1\n      0x0100\n      exp\n      swap1\n      div\n      0xffffffffffffffffffffffffffffffffffffffff\n      and\n      swap1\n      dup1\n      0x01\n      add\n      sload\n      swap1\n      dup1\n      0x02\n      add\n      sload\n      swap1\n      dup1\n      0x03\n      add\n      sload\n      swap1\n      dup1\n      0x04\n      add\n      sload\n      swap1\n      dup1\n      0x05\n      add\n      0x00\n      swap1\n      sload\n      swap1\n      0x0100\n      exp\n      swap1\n      div\n      0xff\n      and\n      swap1\n      dup1\n      0x07\n      add\n      dup1\n      sload\n      tag_232\n      swap1\n      tag_155\n      jump\t// in\n    tag_232:\n      dup1\n      0x1f\n      add\n      0x20\n      dup1\n      swap2\n      div\n      mul\n      0x20\n      add\n      mload(0x40)\n      swap1\n      dup2\n      add\n      0x40\n      mstore\n      dup1\n      swap3\n      swap2\n      swap1\n      dup2\n      dup2\n      mstore\n      0x20\n      add\n      dup3\n      dup1\n      sload\n      tag_233\n      swap1\n      tag_155\n      jump\t// in\n    tag_233:\n      dup1\n      iszero\n      tag_234\n      jumpi\n      dup1\n      0x1f\n      lt\n      tag_235\n      jumpi\n      0x0100\n      dup1\n      dup4\n      sload\n      div\n      mul\n      dup4\n      mstore\n      swap2\n      0x20\n      add\n      swap2\n      jump(tag_234)\n    tag_235:\n      dup3\n      add\n      swap2\n      swap1\n      0x00\n      mstore\n      keccak256(0x00, 0x20)\n      swap1\n    tag_236:\n      dup2\n      sload\n      dup2\n      mstore\n      swap1\n      0x01\n      add\n      swap1\n      0x20\n      add\n      dup1\n      dup4\n      gt\n      tag_236\n      jumpi\n      dup3\n      swap1\n      sub\n      0x1f\n      and\n      dup3\n      add\n      swap2\n    tag_234:\n      pop\n      pop\n      pop\n      pop\n      pop\n      swap1\n      dup1\n      0x08\n      add\n      dup1\n      sload\n      tag_237\n      swap1\n      tag_155\n      jump\t// in\n    tag_237:\n      dup1\n      0x1f\n      add\n      0x20\n      dup1\n      swap2\n      div\n      mul\n      0x20\n      add\n      mload(0x40)\n      swap1\n      dup2\n      add\n      0x40\n      mstore\n      dup1\n      swap3\n      swap2\n      swap1\n      dup2\n      dup2\n      mstore\n      0x20\n      add\n      dup3\n      dup1\n      sload\n      tag_238\n      swap1\n      tag_155\n      jump\t// in\n    tag_238:\n      dup1\n      iszero\n      tag_239\n      jumpi\n      dup1\n      0x1f\n      lt\n      tag_240\n      jumpi\n      0x0100\n      dup1\n      dup4\n      sload\n      div\n      mul\n      dup4\n      mstore\n      swap2\n      0x20\n      add\n      swap2\n      jump(tag_239)\n    tag_240:\n      dup3\n      add\n      swap2\n      swap1\n      0x00\n      mstore\n      keccak256(0x00, 0x20)\n      swap1\n    tag_241:\n      dup2\n      sload\n      dup2\n      mstore\n      swap1\n      0x01\n      add\n      swap1\n      0x20\n      add\n      dup1\n      dup4\n      gt\n      tag_241\n      jumpi\n      dup3\n      swap1\n      sub\n      0x1f\n      and\n      dup3\n      add\n      swap2\n    tag_239:\n      pop\n      pop\n      pop\n      pop\n      pop\n      swap1\n      dup1\n      0x09\n      add\n      dup1\n      sload\n      tag_242\n      swap1\n      tag_155\n      jump\t// in\n    tag_242:\n      dup1\n      0x1f\n      add\n      0x20\n      dup1\n      swap2\n      div\n      mul\n      0x20\n      add\n      mload(0x40)\n      swap1\n      dup2\n      add\n      0x40\n      mstore\n      dup1\n      swap3\n      swap2\n      swap1\n      dup2\n      dup2\n      mstore\n      0x20\n      add\n      dup3\n      dup1\n      sload\n      tag_243\n      swap1\n      tag_155\n      jump\t// in\n    tag_243:\n      dup1\n      iszero\n      tag_244\n      jumpi\n      dup1\n      0x1f\n      lt\n      tag_245\n      jumpi\n      0x0100\n      dup1\n      dup4\n      sload\n      div\n      mul\n      dup4\n      mstore\n      swap2\n      0x20\n      add\n      swap2\n      jump(tag_244)\n    tag_245:\n      dup3\n      add\n      swap2\n      swap1\n      0x00\n      mstore\n      keccak256(0x00, 0x20)\n      swap1\n    tag_246:\n      dup2\n      sload\n      dup2\n      mstore\n      swap1\n      0x01\n      add\n      swap1\n      0x20\n      add\n      dup1\n      dup4\n      gt\n      tag_246\n      jumpi\n      dup3\n      swap1\n      sub\n      0x1f\n      and\n      dup3\n      add\n      swap2\n    tag_244:\n      pop\n      pop\n      pop\n      pop\n      pop\n      swap1\n      dup1\n      0x0a\n      add\n      dup1\n      sload\n      tag_247\n      swap1\n      tag_155\n      jump\t// in\n    tag_247:\n      dup1\n      0x1f\n      add\n      0x20\n      dup1\n      swap2\n      div\n      mul\n      0x20\n      add\n      mload(0x40)\n      swap1\n      dup2\n      add\n      0x40\n      mstore\n      dup1\n      swap3\n      swap2\n      swap1\n      dup2\n      dup2\n      mstore\n      0x20\n      add\n      dup3\n      dup1\n      sload\n      tag_248\n      swap1\n      tag_155\n      jump\t// in\n    tag_248:\n      dup1\n      iszero\n      tag_249\n      jumpi\n      dup1\n      0x1f\n      lt\n      tag_250\n      jumpi\n      0x0100\n      dup1\n      dup4\n      sload\n      div\n      mul\n      dup4\n      mstore\n      swap2\n      0x20\n      add\n      swap2\n      jump(tag_249)\n    tag_250:\n      dup3\n      add\n      swap2\n      swap1\n      0x00\n      mstore\n      keccak256(0x00, 0x20)\n      swap1\n    tag_251:\n      dup2\n      sload\n      dup2\n      mstore\n      swap1\n      0x01\n      add\n      swap1\n      0x20\n      add\n      dup1\n      dup4\n      gt\n      tag_251\n      jumpi\n      dup3\n      swap1\n      sub\n      0x1f\n      and\n      dup3\n      add\n      swap2\n    tag_249:\n      pop\n      pop\n      pop\n      pop\n      pop\n      swap1\n      dup1\n      0x0b\n      add\n      sload\n      swap1\n      dup1\n      0x0c\n      add\n      0x00\n      swap1\n      sload\n      swap1\n      0x0100\n      exp\n      swap1\n      div\n      0xffffffffffffffffffffffffffffffffffffffff\n      and\n      swap1\n      pop\n      dup13\n      jump\t// out\n        /* \"contracts/_ronx2.sol\":7256:7494  function generateReferralLink(address userAddress) public view returns (string memory) {... */\n    tag_93:\n        /* \"contracts/_ronx2.sol\":7328:7341  string memory */\n      0x60\n        /* \"contracts/_ronx2.sol\":7354:7365  uint userId */\n      0x00\n        /* \"contracts/_ronx2.sol\":7368:7373  users */\n      dup1\n        /* \"contracts/_ronx2.sol\":7368:7386  users[userAddress] */\n      0x00\n        /* \"contracts/_ronx2.sol\":7374:7385  userAddress */\n      dup5\n        /* \"contracts/_ronx2.sol\":7368:7386  users[userAddress] */\n      0xffffffffffffffffffffffffffffffffffffffff\n      and\n      0xffffffffffffffffffffffffffffffffffffffff\n      and\n      dup2\n      mstore\n      0x20\n      add\n      swap1\n      dup2\n      mstore\n      0x20\n      add\n      0x00\n      keccak256\n        /* \"contracts/_ronx2.sol\":7368:7389  users[userAddress].id */\n      0x01\n      add\n      sload\n        /* \"contracts/_ronx2.sol\":7354:7389  uint userId = users[userAddress].id */\n      swap1\n      pop\n        /* \"contracts/_ronx2.sol\":7464:7484  uintToString(userId) */\n      tag_253\n        /* \"contracts/_ronx2.sol\":7477:7483  userId */\n      dup2\n        /* \"contracts/_ronx2.sol\":7464:7476  uintToString */\n      tag_254\n        /* \"contracts/_ronx2.sol\":7464:7484  uintToString(userId) */\n      jump\t// in\n    tag_253:\n        /* \"contracts/_ronx2.sol\":7414:7485  abi.encodePacked(\"https://example.com/referral/\", uintToString(userId)) */\n      add(0x20, mload(0x40))\n      tag_255\n      swap2\n      swap1\n      tag_256\n      jump\t// in\n    tag_255:\n      mload(0x40)\n      0x20\n      dup2\n      dup4\n      sub\n      sub\n      dup2\n      mstore\n      swap1\n      0x40\n      mstore\n        /* \"contracts/_ronx2.sol\":7400:7486  return string(abi.encodePacked(\"https://example.com/referral/\", uintToString(userId))) */\n      swap2\n      pop\n      pop\n        /* \"contracts/_ronx2.sol\":7256:7494  function generateReferralLink(address userAddress) public view returns (string memory) {... */\n      swap2\n      swap1\n      pop\n      jump\t// out\n        /* \"contracts/_ronx2.sol\":9956:10138  function transactionHistory(address _user) public view returns (uint256, uint256) {... */\n    tag_99:\n        /* \"contracts/_ronx2.sol\":10020:10027  uint256 */\n      0x00\n        /* \"contracts/_ronx2.sol\":10029:10036  uint256 */\n      dup1\n        /* \"contracts/_ronx2.sol\":10049:10065  User memory user */\n      0x00\n        /* \"contracts/_ronx2.sol\":10068:10073  users */\n      dup1\n        /* \"contracts/_ronx2.sol\":10068:10080  users[_user] */\n      0x00\n        /* \"contracts/_ronx2.sol\":10074:10079  _user */\n      dup6\n        /* \"contracts/_ronx2.sol\":10068:10080  users[_user] */\n      0xffffffffffffffffffffffffffffffffffffffff\n      and\n      0xffffffffffffffffffffffffffffffffffffffff\n      and\n      dup2\n      mstore\n      0x20\n      add\n      swap1\n      dup2\n      mstore\n      0x20\n      add\n      0x00\n      keccak256\n        /* \"contracts/_ronx2.sol\":10049:10080  User memory user = users[_user] */\n      mload(0x40)\n      dup1\n      0x01a0\n      add\n      0x40\n      mstore\n      swap1\n      dup2\n      0x00\n      dup3\n      add\n      0x00\n      swap1\n      sload\n      swap1\n      0x0100\n      exp\n      swap1\n      div\n      0xffffffffffffffffffffffffffffffffffffffff\n      and\n      0xffffffffffffffffffffffffffffffffffffffff\n      and\n      0xffffffffffffffffffffffffffffffffffffffff\n      and\n      dup2\n      mstore\n      0x20\n      add\n      0x01\n      dup3\n      add\n      sload\n      dup2\n      mstore\n      0x20\n      add\n      0x02\n      dup3\n      add\n      sload\n      dup2\n      mstore\n      0x20\n      add\n      0x03\n      dup3\n      add\n      sload\n      dup2\n      mstore\n      0x20\n      add\n      0x04\n      dup3\n      add\n      sload\n      dup2\n      mstore\n      0x20\n      add\n      0x05\n      dup3\n      add\n      0x00\n      swap1\n      sload\n      swap1\n      0x0100\n      exp\n      swap1\n      div\n      0xff\n      and\n      0xff\n      and\n      0xff\n      and\n      dup2\n      mstore\n      0x20\n      add\n      0x06\n      dup3\n      add\n      dup1\n      sload\n      dup1\n      0x20\n      mul\n      0x20\n      add\n      mload(0x40)\n      swap1\n      dup2\n      add\n      0x40\n      mstore\n      dup1\n      swap3\n      swap2\n      swap1\n      dup2\n      dup2\n      mstore\n      0x20\n      add\n      dup3\n      dup1\n      sload\n      dup1\n      iszero\n      tag_258\n      jumpi\n      0x20\n      mul\n      dup3\n      add\n      swap2\n      swap1\n      0x00\n      mstore\n      keccak256(0x00, 0x20)\n      swap1\n    tag_259:\n      dup2\n      0x00\n      swap1\n      sload\n      swap1\n      0x0100\n      exp\n      swap1\n      div\n      0xffffffffffffffffffffffffffffffffffffffff\n      and\n      0xffffffffffffffffffffffffffffffffffffffff\n      and\n      dup2\n      mstore\n      0x20\n      add\n      swap1\n      0x01\n      add\n      swap1\n      dup1\n      dup4\n      gt\n      tag_259\n      jumpi\n    tag_258:\n      pop\n      pop\n      pop\n      pop\n      pop\n      dup2\n      mstore\n      0x20\n      add\n      0x07\n      dup3\n      add\n      dup1\n      sload\n      tag_260\n      swap1\n      tag_155\n      jump\t// in\n    tag_260:\n      dup1\n      0x1f\n      add\n      0x20\n      dup1\n      swap2\n      div\n      mul\n      0x20\n      add\n      mload(0x40)\n      swap1\n      dup2\n      add\n      0x40\n      mstore\n      dup1\n      swap3\n      swap2\n      swap1\n      dup2\n      dup2\n      mstore\n      0x20\n      add\n      dup3\n      dup1\n      sload\n      tag_261\n      swap1\n      tag_155\n      jump\t// in\n    tag_261:\n      dup1\n      iszero\n      tag_262\n      jumpi\n      dup1\n      0x1f\n      lt\n      tag_263\n      jumpi\n      0x0100\n      dup1\n      dup4\n      sload\n      div\n      mul\n      dup4\n      mstore\n      swap2\n      0x20\n      add\n      swap2\n      jump(tag_262)\n    tag_263:\n      dup3\n      add\n      swap2\n      swap1\n      0x00\n      mstore\n      keccak256(0x00, 0x20)\n      swap1\n    tag_264:\n      dup2\n      sload\n      dup2\n      mstore\n      swap1\n      0x01\n      add\n      swap1\n      0x20\n      add\n      dup1\n      dup4\n      gt\n      tag_264\n      jumpi\n      dup3\n      swap1\n      sub\n      0x1f\n      and\n      dup3\n      add\n      swap2\n    tag_262:\n      pop\n      pop\n      pop\n      pop\n      pop\n      dup2\n      mstore\n      0x20\n      add\n      0x08\n      dup3\n      add\n      dup1\n      sload\n      tag_265\n      swap1\n      tag_155\n      jump\t// in\n    tag_265:\n      dup1\n      0x1f\n      add\n      0x20\n      dup1\n      swap2\n      div\n      mul\n      0x20\n      add\n      mload(0x40)\n      swap1\n      dup2\n      add\n      0x40\n      mstore\n      dup1\n      swap3\n      swap2\n      swap1\n      dup2\n      dup2\n      mstore\n      0x20\n      add\n      dup3\n      dup1\n      sload\n      tag_266\n      swap1\n      tag_155\n      jump\t// in\n    tag_266:\n      dup1\n      iszero\n      tag_267\n      jumpi\n      dup1\n      0x1f\n      lt\n      tag_268\n      jumpi\n      0x0100\n      dup1\n      dup4\n      sload\n      div\n      mul\n      dup4\n      mstore\n      swap2\n      0x20\n      add\n      swap2\n      jump(tag_267)\n    tag_268:\n      dup3\n      add\n      swap2\n      swap1\n      0x00\n      mstore\n      keccak256(0x00, 0x20)\n      swap1\n    tag_269:\n      dup2\n      sload\n      dup2\n      mstore\n      swap1\n      0x01\n      add\n      swap1\n      0x20\n      add\n      dup1\n      dup4\n      gt\n      tag_269\n      jumpi\n      dup3\n      swap1\n      sub\n      0x1f\n      and\n      dup3\n      add\n      swap2\n    tag_267:\n      pop\n      pop\n      pop\n      pop\n      pop\n      dup2\n      mstore\n      0x20\n      add\n      0x09\n      dup3\n      add\n      dup1\n      sload\n      tag_270\n      swap1\n      tag_155\n      jump\t// in\n    tag_270:\n      dup1\n      0x1f\n      add\n      0x20\n      dup1\n      swap2\n      div\n      mul\n      0x20\n      add\n      mload(0x40)\n      swap1\n      dup2\n      add\n      0x40\n      mstore\n      dup1\n      swap3\n      swap2\n      swap1\n      dup2\n      dup2\n      mstore\n      0x20\n      add\n      dup3\n      dup1\n      sload\n      tag_271\n      swap1\n      tag_155\n      jump\t// in\n    tag_271:\n      dup1\n      iszero\n      tag_272\n      jumpi\n      dup1\n      0x1f\n      lt\n      tag_273\n      jumpi\n      0x0100\n      dup1\n      dup4\n      sload\n      div\n      mul\n      dup4\n      mstore\n      swap2\n      0x20\n      add\n      swap2\n      jump(tag_272)\n    tag_273:\n      dup3\n      add\n      swap2\n      swap1\n      0x00\n      mstore\n      keccak256(0x00, 0x20)\n      swap1\n    tag_274:\n      dup2\n      sload\n      dup2\n      mstore\n      swap1\n      0x01\n      add\n      swap1\n      0x20\n      add\n      dup1\n      dup4\n      gt\n      tag_274\n      jumpi\n      dup3\n      swap1\n      sub\n      0x1f\n      and\n      dup3\n      add\n      swap2\n    tag_272:\n      pop\n      pop\n      pop\n      pop\n      pop\n      dup2\n      mstore\n      0x20\n      add\n      0x0a\n      dup3\n      add\n      dup1\n      sload\n      tag_275\n      swap1\n      tag_155\n      jump\t// in\n    tag_275:\n      dup1\n      0x1f\n      add\n      0x20\n      dup1\n      swap2\n      div\n      mul\n      0x20\n      add\n      mload(0x40)\n      swap1\n      dup2\n      add\n      0x40\n      mstore\n      dup1\n      swap3\n      swap2\n      swap1\n      dup2\n      dup2\n      mstore\n      0x20\n      add\n      dup3\n      dup1\n      sload\n      tag_276\n      swap1\n      tag_155\n      jump\t// in\n    tag_276:\n      dup1\n      iszero\n      tag_277\n      jumpi\n      dup1\n      0x1f\n      lt\n      tag_278\n      jumpi\n      0x0100\n      dup1\n      dup4\n      sload\n      div\n      mul\n      dup4\n      mstore\n      swap2\n      0x20\n      add\n      swap2\n      jump(tag_277)\n    tag_278:\n      dup3\n      add\n      swap2\n      swap1\n      0x00\n      mstore\n      keccak256(0x00, 0x20)\n      swap1\n    tag_279:\n      dup2\n      sload\n      dup2\n      mstore\n      swap1\n      0x01\n      add\n      swap1\n      0x20\n      add\n      dup1\n      dup4\n      gt\n      tag_279\n      jumpi\n      dup3\n      swap1\n      sub\n      0x1f\n      and\n      dup3\n      add\n      swap2\n    tag_277:\n      pop\n      pop\n      pop\n      pop\n      pop\n      dup2\n      mstore\n      0x20\n      add\n      0x0b\n      dup3\n      add\n      sload\n      dup2\n      mstore\n      0x20\n      add\n      0x0c\n      dup3\n      add\n      0x00\n      swap1\n      sload\n      swap1\n      0x0100\n      exp\n      swap1\n      div\n      0xffffffffffffffffffffffffffffffffffffffff\n      and\n      0xffffffffffffffffffffffffffffffffffffffff\n      and\n      0xffffffffffffffffffffffffffffffffffffffff\n      and\n      dup2\n      mstore\n      pop\n      pop\n      swap1\n      pop\n        /* \"contracts/_ronx2.sol\":10099:10103  user */\n      dup1\n        /* \"contracts/_ronx2.sol\":10099:10114  user.cycleCount */\n      0x60\n      add\n      mload\n        /* \"contracts/_ronx2.sol\":10116:10120  user */\n      dup2\n        /* \"contracts/_ronx2.sol\":10116:10129  user.earnings */\n      0x80\n      add\n      mload\n        /* \"contracts/_ronx2.sol\":10091:10130  return (user.cycleCount, user.earnings) */\n      swap3\n      pop\n      swap3\n      pop\n      pop\n        /* \"contracts/_ronx2.sol\":9956:10138  function transactionHistory(address _user) public view returns (uint256, uint256) {... */\n      swap2\n      pop\n      swap2\n      jump\t// out\n        /* \"contracts/_ronx2.sol\":576:619  mapping(uint8 => uint256) public levelPrice */\n    tag_105:\n      mstore(0x20, 0x02)\n      dup1\n      0x00\n      mstore\n      keccak256(0x00, 0x40)\n      0x00\n      swap2\n      pop\n      swap1\n      pop\n      sload\n      dup2\n      jump\t// out\n        /* \"contracts/_ronx2.sol\":4885:5654  function handleReferral(address _user, address _upline) internal {... */\n    tag_148:\n        /* \"contracts/_ronx2.sol\":4996:4997  3 */\n      0x03\n        /* \"contracts/_ronx2.sol\":4965:4970  users */\n      0x00\n        /* \"contracts/_ronx2.sol\":4965:4979  users[_upline] */\n      dup1\n        /* \"contracts/_ronx2.sol\":4971:4978  _upline */\n      dup4\n        /* \"contracts/_ronx2.sol\":4965:4979  users[_upline] */\n      0xffffffffffffffffffffffffffffffffffffffff\n      and\n      0xffffffffffffffffffffffffffffffffffffffff\n      and\n      dup2\n      mstore\n      0x20\n      add\n      swap1\n      dup2\n      mstore\n      0x20\n      add\n      0x00\n      keccak256\n        /* \"contracts/_ronx2.sol\":4965:4993  users[_upline].referralCount */\n      0x02\n      add\n      sload\n        /* \"contracts/_ronx2.sol\":4965:4997  users[_upline].referralCount < 3 */\n      lt\n        /* \"contracts/_ronx2.sol\":4961:5647  if (users[_upline].referralCount < 3) {... */\n      iszero\n      tag_281\n      jumpi\n        /* \"contracts/_ronx2.sol\":5092:5126  rewardUser(_upline, levelPrice[1]) */\n      tag_282\n        /* \"contracts/_ronx2.sol\":5103:5110  _upline */\n      dup2\n        /* \"contracts/_ronx2.sol\":5112:5122  levelPrice */\n      0x02\n        /* \"contracts/_ronx2.sol\":5112:5125  levelPrice[1] */\n      0x00\n        /* \"contracts/_ronx2.sol\":5123:5124  1 */\n      0x01\n        /* \"contracts/_ronx2.sol\":5112:5125  levelPrice[1] */\n      0xff\n      and\n      dup2\n      mstore\n      0x20\n      add\n      swap1\n      dup2\n      mstore\n      0x20\n      add\n      0x00\n      keccak256\n      sload\n        /* \"contracts/_ronx2.sol\":5092:5102  rewardUser */\n      tag_218\n        /* \"contracts/_ronx2.sol\":5092:5126  rewardUser(_upline, levelPrice[1]) */\n      jump\t// in\n    tag_282:\n        /* \"contracts/_ronx2.sol\":4961:5647  if (users[_upline].referralCount < 3) {... */\n      jump(tag_283)\n    tag_281:\n        /* \"contracts/_ronx2.sol\":5261:5283  address uplineOfUpline */\n      0x00\n        /* \"contracts/_ronx2.sol\":5286:5291  users */\n      dup1\n        /* \"contracts/_ronx2.sol\":5286:5300  users[_upline] */\n      0x00\n        /* \"contracts/_ronx2.sol\":5292:5299  _upline */\n      dup4\n        /* \"contracts/_ronx2.sol\":5286:5300  users[_upline] */\n      0xffffffffffffffffffffffffffffffffffffffff\n      and\n      0xffffffffffffffffffffffffffffffffffffffff\n      and\n      dup2\n      mstore\n      0x20\n      add\n      swap1\n      dup2\n      mstore\n      0x20\n      add\n      0x00\n      keccak256\n        /* \"contracts/_ronx2.sol\":5286:5307  users[_upline].upline */\n      0x00\n      add\n      0x00\n      swap1\n      sload\n      swap1\n      0x0100\n      exp\n      swap1\n      div\n      0xffffffffffffffffffffffffffffffffffffffff\n      and\n        /* \"contracts/_ronx2.sol\":5261:5307  address uplineOfUpline = users[_upline].upline */\n      swap1\n      pop\n        /* \"contracts/_ronx2.sol\":5352:5353  0 */\n      0x00\n        /* \"contracts/_ronx2.sol\":5326:5354  uplineOfUpline != address(0) */\n      0xffffffffffffffffffffffffffffffffffffffff\n      and\n        /* \"contracts/_ronx2.sol\":5326:5340  uplineOfUpline */\n      dup2\n        /* \"contracts/_ronx2.sol\":5326:5354  uplineOfUpline != address(0) */\n      0xffffffffffffffffffffffffffffffffffffffff\n      and\n      eq\n        /* \"contracts/_ronx2.sol\":5322:5546  if (uplineOfUpline != address(0)) {... */\n      tag_284\n      jumpi\n        /* \"contracts/_ronx2.sol\":5375:5416  rewardUser(uplineOfUpline, levelPrice[1]) */\n      tag_285\n        /* \"contracts/_ronx2.sol\":5386:5400  uplineOfUpline */\n      dup2\n        /* \"contracts/_ronx2.sol\":5402:5412  levelPrice */\n      0x02\n        /* \"contracts/_ronx2.sol\":5402:5415  levelPrice[1] */\n      0x00\n        /* \"contracts/_ronx2.sol\":5413:5414  1 */\n      0x01\n        /* \"contracts/_ronx2.sol\":5402:5415  levelPrice[1] */\n      0xff\n      and\n      dup2\n      mstore\n      0x20\n      add\n      swap1\n      dup2\n      mstore\n      0x20\n      add\n      0x00\n      keccak256\n      sload\n        /* \"contracts/_ronx2.sol\":5375:5385  rewardUser */\n      tag_218\n        /* \"contracts/_ronx2.sol\":5375:5416  rewardUser(uplineOfUpline, levelPrice[1]) */\n      jump\t// in\n    tag_285:\n        /* \"contracts/_ronx2.sol\":5435:5440  users */\n      0x00\n        /* \"contracts/_ronx2.sol\":5435:5449  users[_upline] */\n      dup1\n        /* \"contracts/_ronx2.sol\":5441:5448  _upline */\n      dup4\n        /* \"contracts/_ronx2.sol\":5435:5449  users[_upline] */\n      0xffffffffffffffffffffffffffffffffffffffff\n      and\n      0xffffffffffffffffffffffffffffffffffffffff\n      and\n      dup2\n      mstore\n      0x20\n      add\n      swap1\n      dup2\n      mstore\n      0x20\n      add\n      0x00\n      keccak256\n        /* \"contracts/_ronx2.sol\":5435:5460  users[_upline].cycleCount */\n      0x03\n      add\n      0x00\n        /* \"contracts/_ronx2.sol\":5435:5462  users[_upline].cycleCount++ */\n      dup2\n      sload\n      dup1\n      swap3\n      swap2\n      swap1\n      tag_286\n      swap1\n      tag_123\n      jump\t// in\n    tag_286:\n      swap2\n      swap1\n      pop\n      sstore\n      pop\n        /* \"contracts/_ronx2.sol\":5495:5502  _upline */\n      dup2\n        /* \"contracts/_ronx2.sol\":5486:5530  NewCycle(_upline, users[_upline].cycleCount) */\n      0xffffffffffffffffffffffffffffffffffffffff\n      and\n      0x18c00b25130b4512b396a52c89756cb9a1177c6002fe34cbc071f88cf90812a1\n        /* \"contracts/_ronx2.sol\":5504:5509  users */\n      0x00\n        /* \"contracts/_ronx2.sol\":5504:5518  users[_upline] */\n      dup1\n        /* \"contracts/_ronx2.sol\":5510:5517  _upline */\n      dup6\n        /* \"contracts/_ronx2.sol\":5504:5518  users[_upline] */\n      0xffffffffffffffffffffffffffffffffffffffff\n      and\n      0xffffffffffffffffffffffffffffffffffffffff\n      and\n      dup2\n      mstore\n      0x20\n      add\n      swap1\n      dup2\n      mstore\n      0x20\n      add\n      0x00\n      keccak256\n        /* \"contracts/_ronx2.sol\":5504:5529  users[_upline].cycleCount */\n      0x03\n      add\n      sload\n        /* \"contracts/_ronx2.sol\":5486:5530  NewCycle(_upline, users[_upline].cycleCount) */\n      mload(0x40)\n      tag_287\n      swap2\n      swap1\n      tag_46\n      jump\t// in\n    tag_287:\n      mload(0x40)\n      dup1\n      swap2\n      sub\n      swap1\n      log2\n        /* \"contracts/_ronx2.sol\":5322:5546  if (uplineOfUpline != address(0)) {... */\n    tag_284:\n        /* \"contracts/_ronx2.sol\":5634:5635  0 */\n      0x00\n        /* \"contracts/_ronx2.sol\":5603:5608  users */\n      dup1\n        /* \"contracts/_ronx2.sol\":5603:5617  users[_upline] */\n      0x00\n        /* \"contracts/_ronx2.sol\":5609:5616  _upline */\n      dup5\n        /* \"contracts/_ronx2.sol\":5603:5617  users[_upline] */\n      0xffffffffffffffffffffffffffffffffffffffff\n      and\n      0xffffffffffffffffffffffffffffffffffffffff\n      and\n      dup2\n      mstore\n      0x20\n      add\n      swap1\n      dup2\n      mstore\n      0x20\n      add\n      0x00\n      keccak256\n        /* \"contracts/_ronx2.sol\":5603:5631  users[_upline].referralCount */\n      0x02\n      add\n        /* \"contracts/_ronx2.sol\":5603:5635  users[_upline].referralCount = 0 */\n      dup2\n      swap1\n      sstore\n      pop\n        /* \"contracts/_ronx2.sol\":5144:5647  {... */\n      pop\n        /* \"contracts/_ronx2.sol\":4961:5647  if (users[_upline].referralCount < 3) {... */\n    tag_283:\n        /* \"contracts/_ronx2.sol\":4885:5654  function handleReferral(address _user, address _upline) internal {... */\n      pop\n      pop\n      jump\t// out\n        /* \"contracts/_ronx2.sol\":5662:6017  function rewardUser(address _user, uint256 _amount) internal {... */\n    tag_218:\n        /* \"contracts/_ronx2.sol\":5759:5766  _amount */\n      dup1\n        /* \"contracts/_ronx2.sol\":5734:5739  users */\n      0x00\n        /* \"contracts/_ronx2.sol\":5734:5746  users[_user] */\n      dup1\n        /* \"contracts/_ronx2.sol\":5740:5745  _user */\n      dup5\n        /* \"contracts/_ronx2.sol\":5734:5746  users[_user] */\n      0xffffffffffffffffffffffffffffffffffffffff\n      and\n      0xffffffffffffffffffffffffffffffffffffffff\n      and\n      dup2\n      mstore\n      0x20\n      add\n      swap1\n      dup2\n      mstore\n      0x20\n      add\n      0x00\n      keccak256\n        /* \"contracts/_ronx2.sol\":5734:5755  users[_user].earnings */\n      0x04\n      add\n      0x00\n        /* \"contracts/_ronx2.sol\":5734:5766  users[_user].earnings += _amount */\n      dup3\n      dup3\n      sload\n      tag_289\n      swap2\n      swap1\n      tag_203\n      jump\t// in\n    tag_289:\n      swap3\n      pop\n      pop\n      dup2\n      swap1\n      sstore\n      pop\n        /* \"contracts/_ronx2.sol\":5819:5831  bool success */\n      0x00\n        /* \"contracts/_ronx2.sol\":5845:5850  _user */\n      dup3\n        /* \"contracts/_ronx2.sol\":5837:5856  payable(_user).call */\n      0xffffffffffffffffffffffffffffffffffffffff\n      and\n        /* \"contracts/_ronx2.sol\":5864:5871  _amount */\n      dup3\n        /* \"contracts/_ronx2.sol\":5837:5876  payable(_user).call{value: _amount}(\"\") */\n      mload(0x40)\n      tag_290\n      swap1\n      tag_195\n      jump\t// in\n    tag_290:\n      0x00\n      mload(0x40)\n      dup1\n      dup4\n      sub\n      dup2\n      dup6\n      dup8\n      gas\n      call\n      swap3\n      pop\n      pop\n      pop\n      returndatasize\n      dup1\n      0x00\n      dup2\n      eq\n      tag_293\n      jumpi\n      mload(0x40)\n      swap2\n      pop\n      and(add(returndatasize, 0x3f), not(0x1f))\n      dup3\n      add\n      0x40\n      mstore\n      returndatasize\n      dup3\n      mstore\n      returndatasize\n      0x00\n      0x20\n      dup5\n      add\n      returndatacopy\n      jump(tag_292)\n    tag_293:\n      0x60\n      swap2\n      pop\n    tag_292:\n      pop\n        /* \"contracts/_ronx2.sol\":5818:5876  (bool success, ) = payable(_user).call{value: _amount}(\"\") */\n      pop\n      swap1\n      pop\n        /* \"contracts/_ronx2.sol\":5994:5999  _user */\n      dup3\n        /* \"contracts/_ronx2.sol\":5985:6009  Earnings(_user, _amount) */\n      0xffffffffffffffffffffffffffffffffffffffff\n      and\n      0x92d81ab7e787d9a43bbb8f8ca7f0b2708da03b86d5aea53d5d20656ff8dad1ee\n        /* \"contracts/_ronx2.sol\":6001:6008  _amount */\n      dup4\n        /* \"contracts/_ronx2.sol\":5985:6009  Earnings(_user, _amount) */\n      mload(0x40)\n      tag_294\n      swap2\n      swap1\n      tag_46\n      jump\t// in\n    tag_294:\n      mload(0x40)\n      dup1\n      swap2\n      sub\n      swap1\n      log2\n        /* \"contracts/_ronx2.sol\":5723:6017  {... */\n      pop\n        /* \"contracts/_ronx2.sol\":5662:6017  function rewardUser(address _user, uint256 _amount) internal {... */\n      pop\n      pop\n      jump\t// out\n        /* \"contracts/_ronx2.sol\":7502:8102  function uintToString(uint v) private pure returns (string memory str) {... */\n    tag_254:\n        /* \"contracts/_ronx2.sol\":7554:7571  string memory str */\n      0x60\n        /* \"contracts/_ronx2.sol\":7593:7594  0 */\n      0x00\n        /* \"contracts/_ronx2.sol\":7588:7589  v */\n      dup3\n        /* \"contracts/_ronx2.sol\":7588:7594  v == 0 */\n      sub\n        /* \"contracts/_ronx2.sol\":7584:7633  if (v == 0) {... */\n      tag_296\n      jumpi\n        /* \"contracts/_ronx2.sol\":7611:7621  return \"0\" */\n      mload(0x40)\n      dup1\n      0x40\n      add\n      0x40\n      mstore\n      dup1\n      0x01\n      dup2\n      mstore\n      0x20\n      add\n      0x3000000000000000000000000000000000000000000000000000000000000000\n      dup2\n      mstore\n      pop\n      swap1\n      pop\n      jump(tag_295)\n        /* \"contracts/_ronx2.sol\":7584:7633  if (v == 0) {... */\n    tag_296:\n        /* \"contracts/_ronx2.sol\":7643:7654  uint maxLen */\n      0x00\n        /* \"contracts/_ronx2.sol\":7657:7659  78 */\n      0x4e\n        /* \"contracts/_ronx2.sol\":7643:7659  uint maxLen = 78 */\n      swap1\n      pop\n        /* \"contracts/_ronx2.sol\":7714:7735  bytes memory reversed */\n      0x00\n        /* \"contracts/_ronx2.sol\":7748:7754  maxLen */\n      dup2\n        /* \"contracts/_ronx2.sol\":7738:7755  new bytes(maxLen) */\n      0xffffffffffffffff\n      dup2\n      gt\n      iszero\n      tag_297\n      jumpi\n      tag_298\n      tag_113\n      jump\t// in\n    tag_298:\n    tag_297:\n      mload(0x40)\n      swap1\n      dup1\n      dup3\n      mstore\n      dup1\n      0x1f\n      add\n      not(0x1f)\n      and\n      0x20\n      add\n      dup3\n      add\n      0x40\n      mstore\n      dup1\n      iszero\n      tag_299\n      jumpi\n      dup2\n      0x20\n      add\n      0x01\n      dup3\n      mul\n      dup1\n      calldatasize\n      dup4\n      calldatacopy\n      dup1\n      dup3\n      add\n      swap2\n      pop\n      pop\n      swap1\n      pop\n    tag_299:\n      pop\n        /* \"contracts/_ronx2.sol\":7714:7755  bytes memory reversed = new bytes(maxLen) */\n      swap1\n      pop\n        /* \"contracts/_ronx2.sol\":7766:7772  uint i */\n      0x00\n        /* \"contracts/_ronx2.sol\":7787:7937  while (v != 0) {... */\n    tag_300:\n        /* \"contracts/_ronx2.sol\":7799:7800  0 */\n      0x00\n        /* \"contracts/_ronx2.sol\":7794:7795  v */\n      dup6\n        /* \"contracts/_ronx2.sol\":7794:7800  v != 0 */\n      eq\n        /* \"contracts/_ronx2.sol\":7787:7937  while (v != 0) {... */\n      tag_301\n      jumpi\n        /* \"contracts/_ronx2.sol\":7817:7831  uint remainder */\n      0x00\n        /* \"contracts/_ronx2.sol\":7838:7840  10 */\n      0x0a\n        /* \"contracts/_ronx2.sol\":7834:7835  v */\n      dup7\n        /* \"contracts/_ronx2.sol\":7834:7840  v % 10 */\n      tag_302\n      swap2\n      swap1\n      tag_303\n      jump\t// in\n    tag_302:\n        /* \"contracts/_ronx2.sol\":7817:7840  uint remainder = v % 10 */\n      swap1\n      pop\n        /* \"contracts/_ronx2.sol\":7863:7865  10 */\n      0x0a\n        /* \"contracts/_ronx2.sol\":7859:7860  v */\n      dup7\n        /* \"contracts/_ronx2.sol\":7859:7865  v / 10 */\n      tag_304\n      swap2\n      swap1\n      tag_190\n      jump\t// in\n    tag_304:\n        /* \"contracts/_ronx2.sol\":7855:7865  v = v / 10 */\n      swap6\n      pop\n        /* \"contracts/_ronx2.sol\":7914:7923  remainder */\n      dup1\n        /* \"contracts/_ronx2.sol\":7909:7911  48 */\n      0x30\n        /* \"contracts/_ronx2.sol\":7909:7923  48 + remainder */\n      tag_305\n      swap2\n      swap1\n      tag_203\n      jump\t// in\n    tag_305:\n        /* \"contracts/_ronx2.sol\":7896:7925  bytes1(uint8(48 + remainder)) */\n      0xf8\n      shl\n        /* \"contracts/_ronx2.sol\":7880:7888  reversed */\n      dup4\n        /* \"contracts/_ronx2.sol\":7889:7892  i++ */\n      dup4\n      dup1\n      tag_306\n      swap1\n      tag_123\n      jump\t// in\n    tag_306:\n      swap5\n      pop\n        /* \"contracts/_ronx2.sol\":7880:7893  reversed[i++] */\n      dup2\n      mload\n      dup2\n      lt\n      tag_307\n      jumpi\n      tag_308\n      tag_309\n      jump\t// in\n    tag_308:\n    tag_307:\n      0x20\n      add\n      add\n        /* \"contracts/_ronx2.sol\":7880:7925  reversed[i++] = bytes1(uint8(48 + remainder)) */\n      swap1\n      not(0xffffffffffffffffffffffffffffffffffffffffffffffffffffffffffffff)\n      and\n      swap1\n      dup2\n      0x00\n      byte\n      swap1\n      mstore8\n      pop\n        /* \"contracts/_ronx2.sol\":7802:7937  {... */\n      pop\n        /* \"contracts/_ronx2.sol\":7787:7937  while (v != 0) {... */\n      jump(tag_300)\n    tag_301:\n        /* \"contracts/_ronx2.sol\":7947:7961  bytes memory s */\n      0x00\n        /* \"contracts/_ronx2.sol\":7974:7975  i */\n      dup2\n        /* \"contracts/_ronx2.sol\":7964:7976  new bytes(i) */\n      0xffffffffffffffff\n      dup2\n      gt\n      iszero\n      tag_310\n      jumpi\n      tag_311\n      tag_113\n      jump\t// in\n    tag_311:\n    tag_310:\n      mload(0x40)\n      swap1\n      dup1\n      dup3\n      mstore\n      dup1\n      0x1f\n      add\n      not(0x1f)\n      and\n      0x20\n      add\n      dup3\n      add\n      0x40\n      mstore\n      dup1\n      iszero\n      tag_312\n      jumpi\n      dup2\n      0x20\n      add\n      0x01\n      dup3\n      mul\n      dup1\n      calldatasize\n      dup4\n      calldatacopy\n      dup1\n      dup3\n      add\n      swap2\n      pop\n      pop\n      swap1\n      pop\n    tag_312:\n      pop\n        /* \"contracts/_ronx2.sol\":7947:7976  bytes memory s = new bytes(i) */\n      swap1\n      pop\n        /* \"contracts/_ronx2.sol\":7992:7998  uint j */\n      0x00\n        /* \"contracts/_ronx2.sol\":7987:8069  for (uint j = 0; j < i; j++) {... */\n    tag_313:\n        /* \"contracts/_ronx2.sol\":8008:8009  i */\n      dup3\n        /* \"contracts/_ronx2.sol\":8004:8005  j */\n      dup2\n        /* \"contracts/_ronx2.sol\":8004:8009  j < i */\n      lt\n        /* \"contracts/_ronx2.sol\":7987:8069  for (uint j = 0; j < i; j++) {... */\n      iszero\n      tag_314\n      jumpi\n        /* \"contracts/_ronx2.sol\":8038:8046  reversed */\n      dup4\n        /* \"contracts/_ronx2.sol\":8055:8056  1 */\n      0x01\n        /* \"contracts/_ronx2.sol\":8051:8052  j */\n      dup3\n        /* \"contracts/_ronx2.sol\":8047:8048  i */\n      dup6\n        /* \"contracts/_ronx2.sol\":8047:8052  i - j */\n      tag_316\n      swap2\n      swap1\n      tag_192\n      jump\t// in\n    tag_316:\n        /* \"contracts/_ronx2.sol\":8047:8056  i - j - 1 */\n      tag_317\n      swap2\n      swap1\n      tag_192\n      jump\t// in\n    tag_317:\n        /* \"contracts/_ronx2.sol\":8038:8057  reversed[i - j - 1] */\n      dup2\n      mload\n      dup2\n      lt\n      tag_318\n      jumpi\n      tag_319\n      tag_309\n      jump\t// in\n    tag_319:\n    tag_318:\n      0x20\n      add\n      add\n      mload\n      0xf8\n      shr\n      0xf8\n      shl\n        /* \"contracts/_ronx2.sol\":8031:8032  s */\n      dup3\n        /* \"contracts/_ronx2.sol\":8033:8034  j */\n      dup3\n        /* \"contracts/_ronx2.sol\":8031:8035  s[j] */\n      dup2\n      mload\n      dup2\n      lt\n      tag_320\n      jumpi\n      tag_321\n      tag_309\n      jump\t// in\n    tag_321:\n    tag_320:\n      0x20\n      add\n      add\n        /* \"contracts/_ronx2.sol\":8031:8057  s[j] = reversed[i - j - 1] */\n      swap1\n      not(0xffffffffffffffffffffffffffffffffffffffffffffffffffffffffffffff)\n      and\n      swap1\n      dup2\n      0x00\n      byte\n      swap1\n      mstore8\n      pop\n        /* \"contracts/_ronx2.sol\":8011:8014  j++ */\n      dup1\n      dup1\n      0x01\n      add\n      swap2\n      pop\n      pop\n        /* \"contracts/_ronx2.sol\":7987:8069  for (uint j = 0; j < i; j++) {... */\n      jump(tag_313)\n    tag_314:\n      pop\n        /* \"contracts/_ronx2.sol\":8092:8093  s */\n      dup1\n        /* \"contracts/_ronx2.sol\":8079:8094  str = string(s) */\n      swap5\n      pop\n        /* \"contracts/_ronx2.sol\":7573:8102  {... */\n      pop\n      pop\n      pop\n      pop\n        /* \"contracts/_ronx2.sol\":7502:8102  function uintToString(uint v) private pure returns (string memory str) {... */\n    tag_295:\n      swap2\n      swap1\n      pop\n      jump\t// out\n    tag_116:\n      dup3\n      dup1\n      sload\n      dup3\n      dup3\n      sstore\n      swap1\n      0x00\n      mstore\n      keccak256(0x00, 0x20)\n      swap1\n      dup2\n      add\n      swap3\n      dup3\n      iszero\n      tag_322\n      jumpi\n      swap2\n      0x20\n      mul\n      dup3\n      add\n    tag_323:\n      dup3\n      dup2\n      gt\n      iszero\n      tag_324\n      jumpi\n      dup3\n      mload\n      dup3\n      exp(0x0100, 0x00)\n      dup2\n      sload\n      dup2\n      0xffffffffffffffffffffffffffffffffffffffff\n      mul\n      not\n      and\n      swap1\n      dup4\n      0xffffffffffffffffffffffffffffffffffffffff\n      and\n      mul\n      or\n      swap1\n      sstore\n      pop\n      swap2\n      0x20\n      add\n      swap2\n      swap1\n      0x01\n      add\n      swap1\n      jump(tag_323)\n    tag_324:\n    tag_322:\n      pop\n      swap1\n      pop\n      tag_325\n      swap2\n      swap1\n      tag_326\n      jump\t// in\n    tag_325:\n      pop\n      swap1\n      jump\t// out\n    tag_326:\n    tag_327:\n      dup1\n      dup3\n      gt\n      iszero\n      tag_328\n      jumpi\n      0x00\n      dup2\n      0x00\n      swap1\n      sstore\n      pop\n      0x01\n      add\n      jump(tag_327)\n    tag_328:\n      pop\n      swap1\n      jump\t// out\n        /* \"#utility.yul\":7:82   */\n    tag_329:\n        /* \"#utility.yul\":40:46   */\n      0x00\n        /* \"#utility.yul\":73:75   */\n      0x40\n        /* \"#utility.yul\":67:76   */\n      mload\n        /* \"#utility.yul\":57:76   */\n      swap1\n      pop\n        /* \"#utility.yul\":7:82   */\n      swap1\n      jump\t// out\n        /* \"#utility.yul\":88:205   */\n    tag_330:\n        /* \"#utility.yul\":197:198   */\n      0x00\n        /* \"#utility.yul\":194:195   */\n      dup1\n        /* \"#utility.yul\":187:199   */\n      revert\n        /* \"#utility.yul\":211:328   */\n    tag_331:\n        /* \"#utility.yul\":320:321   */\n      0x00\n        /* \"#utility.yul\":317:318   */\n      dup1\n        /* \"#utility.yul\":310:322   */\n      revert\n        /* \"#utility.yul\":334:460   */\n    tag_332:\n        /* \"#utility.yul\":371:378   */\n      0x00\n        /* \"#utility.yul\":411:453   */\n      0xffffffffffffffffffffffffffffffffffffffff\n        /* \"#utility.yul\":404:409   */\n      dup3\n        /* \"#utility.yul\":400:454   */\n      and\n        /* \"#utility.yul\":389:454   */\n      swap1\n      pop\n        /* \"#utility.yul\":334:460   */\n      swap2\n      swap1\n      pop\n      jump\t// out\n        /* \"#utility.yul\":466:562   */\n    tag_333:\n        /* \"#utility.yul\":503:510   */\n      0x00\n        /* \"#utility.yul\":532:556   */\n      tag_408\n        /* \"#utility.yul\":550:555   */\n      dup3\n        /* \"#utility.yul\":532:556   */\n      tag_332\n      jump\t// in\n    tag_408:\n        /* \"#utility.yul\":521:556   */\n      swap1\n      pop\n        /* \"#utility.yul\":466:562   */\n      swap2\n      swap1\n      pop\n      jump\t// out\n        /* \"#utility.yul\":568:690   */\n    tag_334:\n        /* \"#utility.yul\":641:665   */\n      tag_410\n        /* \"#utility.yul\":659:664   */\n      dup2\n        /* \"#utility.yul\":641:665   */\n      tag_333\n      jump\t// in\n    tag_410:\n        /* \"#utility.yul\":634:639   */\n      dup2\n        /* \"#utility.yul\":631:666   */\n      eq\n        /* \"#utility.yul\":621:684   */\n      tag_411\n      jumpi\n        /* \"#utility.yul\":680:681   */\n      0x00\n        /* \"#utility.yul\":677:678   */\n      dup1\n        /* \"#utility.yul\":670:682   */\n      revert\n        /* \"#utility.yul\":621:684   */\n    tag_411:\n        /* \"#utility.yul\":568:690   */\n      pop\n      jump\t// out\n        /* \"#utility.yul\":696:835   */\n    tag_335:\n        /* \"#utility.yul\":742:747   */\n      0x00\n        /* \"#utility.yul\":780:786   */\n      dup2\n        /* \"#utility.yul\":767:787   */\n      calldataload\n        /* \"#utility.yul\":758:787   */\n      swap1\n      pop\n        /* \"#utility.yul\":796:829   */\n      tag_413\n        /* \"#utility.yul\":823:828   */\n      dup2\n        /* \"#utility.yul\":796:829   */\n      tag_334\n      jump\t// in\n    tag_413:\n        /* \"#utility.yul\":696:835   */\n      swap3\n      swap2\n      pop\n      pop\n      jump\t// out\n        /* \"#utility.yul\":841:958   */\n    tag_336:\n        /* \"#utility.yul\":950:951   */\n      0x00\n        /* \"#utility.yul\":947:948   */\n      dup1\n        /* \"#utility.yul\":940:952   */\n      revert\n        /* \"#utility.yul\":964:1081   */\n    tag_337:\n        /* \"#utility.yul\":1073:1074   */\n      0x00\n        /* \"#utility.yul\":1070:1071   */\n      dup1\n        /* \"#utility.yul\":1063:1075   */\n      revert\n        /* \"#utility.yul\":1087:1189   */\n    tag_338:\n        /* \"#utility.yul\":1128:1134   */\n      0x00\n        /* \"#utility.yul\":1179:1181   */\n      0x1f\n        /* \"#utility.yul\":1175:1182   */\n      not\n        /* \"#utility.yul\":1170:1172   */\n      0x1f\n        /* \"#utility.yul\":1163:1168   */\n      dup4\n        /* \"#utility.yul\":1159:1173   */\n      add\n        /* \"#utility.yul\":1155:1183   */\n      and\n        /* \"#utility.yul\":1145:1183   */\n      swap1\n      pop\n        /* \"#utility.yul\":1087:1189   */\n      swap2\n      swap1\n      pop\n      jump\t// out\n        /* \"#utility.yul\":1195:1375   */\n    tag_113:\n        /* \"#utility.yul\":1243:1320   */\n      0x4e487b7100000000000000000000000000000000000000000000000000000000\n        /* \"#utility.yul\":1240:1241   */\n      0x00\n        /* \"#utility.yul\":1233:1321   */\n      mstore\n        /* \"#utility.yul\":1340:1344   */\n      0x41\n        /* \"#utility.yul\":1337:1338   */\n      0x04\n        /* \"#utility.yul\":1330:1345   */\n      mstore\n        /* \"#utility.yul\":1364:1368   */\n      0x24\n        /* \"#utility.yul\":1361:1362   */\n      0x00\n        /* \"#utility.yul\":1354:1369   */\n      revert\n        /* \"#utility.yul\":1381:1662   */\n    tag_339:\n        /* \"#utility.yul\":1464:1491   */\n      tag_419\n        /* \"#utility.yul\":1486:1490   */\n      dup3\n        /* \"#utility.yul\":1464:1491   */\n      tag_338\n      jump\t// in\n    tag_419:\n        /* \"#utility.yul\":1456:1462   */\n      dup2\n        /* \"#utility.yul\":1452:1492   */\n      add\n        /* \"#utility.yul\":1594:1600   */\n      dup2\n        /* \"#utility.yul\":1582:1592   */\n      dup2\n        /* \"#utility.yul\":1579:1601   */\n      lt\n        /* \"#utility.yul\":1558:1576   */\n      0xffffffffffffffff\n        /* \"#utility.yul\":1546:1556   */\n      dup3\n        /* \"#utility.yul\":1543:1577   */\n      gt\n        /* \"#utility.yul\":1540:1602   */\n      or\n        /* \"#utility.yul\":1537:1625   */\n      iszero\n      tag_420\n      jumpi\n        /* \"#utility.yul\":1605:1623   */\n      tag_421\n      tag_113\n      jump\t// in\n    tag_421:\n        /* \"#utility.yul\":1537:1625   */\n    tag_420:\n        /* \"#utility.yul\":1645:1655   */\n      dup1\n        /* \"#utility.yul\":1641:1643   */\n      0x40\n        /* \"#utility.yul\":1634:1656   */\n      mstore\n        /* \"#utility.yul\":1424:1662   */\n      pop\n        /* \"#utility.yul\":1381:1662   */\n      pop\n      pop\n      jump\t// out\n        /* \"#utility.yul\":1668:1797   */\n    tag_340:\n        /* \"#utility.yul\":1702:1708   */\n      0x00\n        /* \"#utility.yul\":1729:1749   */\n      tag_423\n      tag_329\n      jump\t// in\n    tag_423:\n        /* \"#utility.yul\":1719:1749   */\n      swap1\n      pop\n        /* \"#utility.yul\":1758:1791   */\n      tag_424\n        /* \"#utility.yul\":1786:1790   */\n      dup3\n        /* \"#utility.yul\":1778:1784   */\n      dup3\n        /* \"#utility.yul\":1758:1791   */\n      tag_339\n      jump\t// in\n    tag_424:\n        /* \"#utility.yul\":1668:1797   */\n      swap2\n      swap1\n      pop\n      jump\t// out\n        /* \"#utility.yul\":1803:2111   */\n    tag_341:\n        /* \"#utility.yul\":1865:1869   */\n      0x00\n        /* \"#utility.yul\":1955:1973   */\n      0xffffffffffffffff\n        /* \"#utility.yul\":1947:1953   */\n      dup3\n        /* \"#utility.yul\":1944:1974   */\n      gt\n        /* \"#utility.yul\":1941:1997   */\n      iszero\n      tag_426\n      jumpi\n        /* \"#utility.yul\":1977:1995   */\n      tag_427\n      tag_113\n      jump\t// in\n    tag_427:\n        /* \"#utility.yul\":1941:1997   */\n    tag_426:\n        /* \"#utility.yul\":2015:2044   */\n      tag_428\n        /* \"#utility.yul\":2037:2043   */\n      dup3\n        /* \"#utility.yul\":2015:2044   */\n      tag_338\n      jump\t// in\n    tag_428:\n        /* \"#utility.yul\":2007:2044   */\n      swap1\n      pop\n        /* \"#utility.yul\":2099:2103   */\n      0x20\n        /* \"#utility.yul\":2093:2097   */\n      dup2\n        /* \"#utility.yul\":2089:2104   */\n      add\n        /* \"#utility.yul\":2081:2104   */\n      swap1\n      pop\n        /* \"#utility.yul\":1803:2111   */\n      swap2\n      swap1\n      pop\n      jump\t// out\n        /* \"#utility.yul\":2117:2265   */\n    tag_342:\n        /* \"#utility.yul\":2215:2221   */\n      dup3\n        /* \"#utility.yul\":2210:2213   */\n      dup2\n        /* \"#utility.yul\":2205:2208   */\n      dup4\n        /* \"#utility.yul\":2192:2222   */\n      calldatacopy\n        /* \"#utility.yul\":2256:2257   */\n      0x00\n        /* \"#utility.yul\":2247:2253   */\n      dup4\n        /* \"#utility.yul\":2242:2245   */\n      dup4\n        /* \"#utility.yul\":2238:2254   */\n      add\n        /* \"#utility.yul\":2231:2258   */\n      mstore\n        /* \"#utility.yul\":2117:2265   */\n      pop\n      pop\n      pop\n      jump\t// out\n        /* \"#utility.yul\":2271:2696   */\n    tag_343:\n        /* \"#utility.yul\":2349:2354   */\n      0x00\n        /* \"#utility.yul\":2374:2440   */\n      tag_431\n        /* \"#utility.yul\":2390:2439   */\n      tag_432\n        /* \"#utility.yul\":2432:2438   */\n      dup5\n        /* \"#utility.yul\":2390:2439   */\n      tag_341\n      jump\t// in\n    tag_432:\n        /* \"#utility.yul\":2374:2440   */\n      tag_340\n      jump\t// in\n    tag_431:\n        /* \"#utility.yul\":2365:2440   */\n      swap1\n      pop\n        /* \"#utility.yul\":2463:2469   */\n      dup3\n        /* \"#utility.yul\":2456:2461   */\n      dup2\n        /* \"#utility.yul\":2449:2470   */\n      mstore\n        /* \"#utility.yul\":2501:2505   */\n      0x20\n        /* \"#utility.yul\":2494:2499   */\n      dup2\n        /* \"#utility.yul\":2490:2506   */\n      add\n        /* \"#utility.yul\":2539:2542   */\n      dup5\n        /* \"#utility.yul\":2530:2536   */\n      dup5\n        /* \"#utility.yul\":2525:2528   */\n      dup5\n        /* \"#utility.yul\":2521:2537   */\n      add\n        /* \"#utility.yul\":2518:2543   */\n      gt\n        /* \"#utility.yul\":2515:2627   */\n      iszero\n      tag_433\n      jumpi\n        /* \"#utility.yul\":2546:2625   */\n      tag_434\n      tag_337\n      jump\t// in\n    tag_434:\n        /* \"#utility.yul\":2515:2627   */\n    tag_433:\n        /* \"#utility.yul\":2636:2690   */\n      tag_435\n        /* \"#utility.yul\":2683:2689   */\n      dup5\n        /* \"#utility.yul\":2678:2681   */\n      dup3\n        /* \"#utility.yul\":2673:2676   */\n      dup6\n        /* \"#utility.yul\":2636:2690   */\n      tag_342\n      jump\t// in\n    tag_435:\n        /* \"#utility.yul\":2355:2696   */\n      pop\n        /* \"#utility.yul\":2271:2696   */\n      swap4\n      swap3\n      pop\n      pop\n      pop\n      jump\t// out\n        /* \"#utility.yul\":2716:3056   */\n    tag_344:\n        /* \"#utility.yul\":2772:2777   */\n      0x00\n        /* \"#utility.yul\":2821:2824   */\n      dup3\n        /* \"#utility.yul\":2814:2818   */\n      0x1f\n        /* \"#utility.yul\":2806:2812   */\n      dup4\n        /* \"#utility.yul\":2802:2819   */\n      add\n        /* \"#utility.yul\":2798:2825   */\n      slt\n        /* \"#utility.yul\":2788:2910   */\n      tag_437\n      jumpi\n        /* \"#utility.yul\":2829:2908   */\n      tag_438\n      tag_336\n      jump\t// in\n    tag_438:\n        /* \"#utility.yul\":2788:2910   */\n    tag_437:\n        /* \"#utility.yul\":2946:2952   */\n      dup2\n        /* \"#utility.yul\":2933:2953   */\n      calldataload\n        /* \"#utility.yul\":2971:3050   */\n      tag_439\n        /* \"#utility.yul\":3046:3049   */\n      dup5\n        /* \"#utility.yul\":3038:3044   */\n      dup3\n        /* \"#utility.yul\":3031:3035   */\n      0x20\n        /* \"#utility.yul\":3023:3029   */\n      dup7\n        /* \"#utility.yul\":3019:3036   */\n      add\n        /* \"#utility.yul\":2971:3050   */\n      tag_343\n      jump\t// in\n    tag_439:\n        /* \"#utility.yul\":2962:3050   */\n      swap2\n      pop\n        /* \"#utility.yul\":2778:3056   */\n      pop\n        /* \"#utility.yul\":2716:3056   */\n      swap3\n      swap2\n      pop\n      pop\n      jump\t// out\n        /* \"#utility.yul\":3062:4693   */\n    tag_24:\n        /* \"#utility.yul\":3197:3203   */\n      0x00\n        /* \"#utility.yul\":3205:3211   */\n      dup1\n        /* \"#utility.yul\":3213:3219   */\n      0x00\n        /* \"#utility.yul\":3221:3227   */\n      dup1\n        /* \"#utility.yul\":3229:3235   */\n      0x00\n        /* \"#utility.yul\":3278:3281   */\n      0xa0\n        /* \"#utility.yul\":3266:3275   */\n      dup7\n        /* \"#utility.yul\":3257:3264   */\n      dup9\n        /* \"#utility.yul\":3253:3276   */\n      sub\n        /* \"#utility.yul\":3249:3282   */\n      slt\n        /* \"#utility.yul\":3246:3366   */\n      iszero\n      tag_441\n      jumpi\n        /* \"#utility.yul\":3285:3364   */\n      tag_442\n      tag_330\n      jump\t// in\n    tag_442:\n        /* \"#utility.yul\":3246:3366   */\n    tag_441:\n        /* \"#utility.yul\":3405:3406   */\n      0x00\n        /* \"#utility.yul\":3430:3483   */\n      tag_443\n        /* \"#utility.yul\":3475:3482   */\n      dup9\n        /* \"#utility.yul\":3466:3472   */\n      dup3\n        /* \"#utility.yul\":3455:3464   */\n      dup10\n        /* \"#utility.yul\":3451:3473   */\n      add\n        /* \"#utility.yul\":3430:3483   */\n      tag_335\n      jump\t// in\n    tag_443:\n        /* \"#utility.yul\":3420:3483   */\n      swap6\n      pop\n        /* \"#utility.yul\":3376:3493   */\n      pop\n        /* \"#utility.yul\":3560:3562   */\n      0x20\n        /* \"#utility.yul\":3549:3558   */\n      dup7\n        /* \"#utility.yul\":3545:3563   */\n      add\n        /* \"#utility.yul\":3532:3564   */\n      calldataload\n        /* \"#utility.yul\":3591:3609   */\n      0xffffffffffffffff\n        /* \"#utility.yul\":3583:3589   */\n      dup2\n        /* \"#utility.yul\":3580:3610   */\n      gt\n        /* \"#utility.yul\":3577:3694   */\n      iszero\n      tag_444\n      jumpi\n        /* \"#utility.yul\":3613:3692   */\n      tag_445\n      tag_331\n      jump\t// in\n    tag_445:\n        /* \"#utility.yul\":3577:3694   */\n    tag_444:\n        /* \"#utility.yul\":3718:3781   */\n      tag_446\n        /* \"#utility.yul\":3773:3780   */\n      dup9\n        /* \"#utility.yul\":3764:3770   */\n      dup3\n        /* \"#utility.yul\":3753:3762   */\n      dup10\n        /* \"#utility.yul\":3749:3771   */\n      add\n        /* \"#utility.yul\":3718:3781   */\n      tag_344\n      jump\t// in\n    tag_446:\n        /* \"#utility.yul\":3708:3781   */\n      swap5\n      pop\n        /* \"#utility.yul\":3503:3791   */\n      pop\n        /* \"#utility.yul\":3858:3860   */\n      0x40\n        /* \"#utility.yul\":3847:3856   */\n      dup7\n        /* \"#utility.yul\":3843:3861   */\n      add\n        /* \"#utility.yul\":3830:3862   */\n      calldataload\n        /* \"#utility.yul\":3889:3907   */\n      0xffffffffffffffff\n        /* \"#utility.yul\":3881:3887   */\n      dup2\n        /* \"#utility.yul\":3878:3908   */\n      gt\n        /* \"#utility.yul\":3875:3992   */\n      iszero\n      tag_447\n      jumpi\n        /* \"#utility.yul\":3911:3990   */\n      tag_448\n      tag_331\n      jump\t// in\n    tag_448:\n        /* \"#utility.yul\":3875:3992   */\n    tag_447:\n        /* \"#utility.yul\":4016:4079   */\n      tag_449\n        /* \"#utility.yul\":4071:4078   */\n      dup9\n        /* \"#utility.yul\":4062:4068   */\n      dup3\n        /* \"#utility.yul\":4051:4060   */\n      dup10\n        /* \"#utility.yul\":4047:4069   */\n      add\n        /* \"#utility.yul\":4016:4079   */\n      tag_344\n      jump\t// in\n    tag_449:\n        /* \"#utility.yul\":4006:4079   */\n      swap4\n      pop\n        /* \"#utility.yul\":3801:4089   */\n      pop\n        /* \"#utility.yul\":4156:4158   */\n      0x60\n        /* \"#utility.yul\":4145:4154   */\n      dup7\n        /* \"#utility.yul\":4141:4159   */\n      add\n        /* \"#utility.yul\":4128:4160   */\n      calldataload\n        /* \"#utility.yul\":4187:4205   */\n      0xffffffffffffffff\n        /* \"#utility.yul\":4179:4185   */\n      dup2\n        /* \"#utility.yul\":4176:4206   */\n      gt\n        /* \"#utility.yul\":4173:4290   */\n      iszero\n      tag_450\n      jumpi\n        /* \"#utility.yul\":4209:4288   */\n      tag_451\n      tag_331\n      jump\t// in\n    tag_451:\n        /* \"#utility.yul\":4173:4290   */\n    tag_450:\n        /* \"#utility.yul\":4314:4377   */\n      tag_452\n        /* \"#utility.yul\":4369:4376   */\n      dup9\n        /* \"#utility.yul\":4360:4366   */\n      dup3\n        /* \"#utility.yul\":4349:4358   */\n      dup10\n        /* \"#utility.yul\":4345:4367   */\n      add\n        /* \"#utility.yul\":4314:4377   */\n      tag_344\n      jump\t// in\n    tag_452:\n        /* \"#utility.yul\":4304:4377   */\n      swap3\n      pop\n        /* \"#utility.yul\":4099:4387   */\n      pop\n        /* \"#utility.yul\":4454:4457   */\n      0x80\n        /* \"#utility.yul\":4443:4452   */\n      dup7\n        /* \"#utility.yul\":4439:4458   */\n      add\n        /* \"#utility.yul\":4426:4459   */\n      calldataload\n        /* \"#utility.yul\":4486:4504   */\n      0xffffffffffffffff\n        /* \"#utility.yul\":4478:4484   */\n      dup2\n        /* \"#utility.yul\":4475:4505   */\n      gt\n        /* \"#utility.yul\":4472:4589   */\n      iszero\n      tag_453\n      jumpi\n        /* \"#utility.yul\":4508:4587   */\n      tag_454\n      tag_331\n      jump\t// in\n    tag_454:\n        /* \"#utility.yul\":4472:4589   */\n    tag_453:\n        /* \"#utility.yul\":4613:4676   */\n      tag_455\n        /* \"#utility.yul\":4668:4675   */\n      dup9\n        /* \"#utility.yul\":4659:4665   */\n      dup3\n        /* \"#utility.yul\":4648:4657   */\n      dup10\n        /* \"#utility.yul\":4644:4666   */\n      add\n        /* \"#utility.yul\":4613:4676   */\n      tag_344\n      jump\t// in\n    tag_455:\n        /* \"#utility.yul\":4603:4676   */\n      swap2\n      pop\n        /* \"#utility.yul\":4397:4686   */\n      pop\n        /* \"#utility.yul\":3062:4693   */\n      swap3\n      swap6\n      pop\n      swap3\n      swap6\n      swap1\n      swap4\n      pop\n      jump\t// out\n        /* \"#utility.yul\":4699:4785   */\n    tag_345:\n        /* \"#utility.yul\":4734:4741   */\n      0x00\n        /* \"#utility.yul\":4774:4778   */\n      0xff\n        /* \"#utility.yul\":4767:4772   */\n      dup3\n        /* \"#utility.yul\":4763:4779   */\n      and\n        /* \"#utility.yul\":4752:4779   */\n      swap1\n      pop\n        /* \"#utility.yul\":4699:4785   */\n      swap2\n      swap1\n      pop\n      jump\t// out\n        /* \"#utility.yul\":4791:4903   */\n    tag_346:\n        /* \"#utility.yul\":4874:4896   */\n      tag_458\n        /* \"#utility.yul\":4890:4895   */\n      dup2\n        /* \"#utility.yul\":4874:4896   */\n      tag_345\n      jump\t// in\n    tag_458:\n        /* \"#utility.yul\":4869:4872   */\n      dup3\n        /* \"#utility.yul\":4862:4897   */\n      mstore\n        /* \"#utility.yul\":4791:4903   */\n      pop\n      pop\n      jump\t// out\n        /* \"#utility.yul\":4909:5123   */\n    tag_30:\n        /* \"#utility.yul\":4998:5002   */\n      0x00\n        /* \"#utility.yul\":5036:5038   */\n      0x20\n        /* \"#utility.yul\":5025:5034   */\n      dup3\n        /* \"#utility.yul\":5021:5039   */\n      add\n        /* \"#utility.yul\":5013:5039   */\n      swap1\n      pop\n        /* \"#utility.yul\":5049:5116   */\n      tag_460\n        /* \"#utility.yul\":5113:5114   */\n      0x00\n        /* \"#utility.yul\":5102:5111   */\n      dup4\n        /* \"#utility.yul\":5098:5115   */\n      add\n        /* \"#utility.yul\":5089:5095   */\n      dup5\n        /* \"#utility.yul\":5049:5116   */\n      tag_346\n      jump\t// in\n    tag_460:\n        /* \"#utility.yul\":4909:5123   */\n      swap3\n      swap2\n      pop\n      pop\n      jump\t// out\n        /* \"#utility.yul\":5129:5206   */\n    tag_347:\n        /* \"#utility.yul\":5166:5173   */\n      0x00\n        /* \"#utility.yul\":5195:5200   */\n      dup2\n        /* \"#utility.yul\":5184:5200   */\n      swap1\n      pop\n        /* \"#utility.yul\":5129:5206   */\n      swap2\n      swap1\n      pop\n      jump\t// out\n        /* \"#utility.yul\":5212:5334   */\n    tag_348:\n        /* \"#utility.yul\":5285:5309   */\n      tag_463\n        /* \"#utility.yul\":5303:5308   */\n      dup2\n        /* \"#utility.yul\":5285:5309   */\n      tag_347\n      jump\t// in\n    tag_463:\n        /* \"#utility.yul\":5278:5283   */\n      dup2\n        /* \"#utility.yul\":5275:5310   */\n      eq\n        /* \"#utility.yul\":5265:5328   */\n      tag_464\n      jumpi\n        /* \"#utility.yul\":5324:5325   */\n      0x00\n        /* \"#utility.yul\":5321:5322   */\n      dup1\n        /* \"#utility.yul\":5314:5326   */\n      revert\n        /* \"#utility.yul\":5265:5328   */\n    tag_464:\n        /* \"#utility.yul\":5212:5334   */\n      pop\n      jump\t// out\n        /* \"#utility.yul\":5340:5479   */\n    tag_349:\n        /* \"#utility.yul\":5386:5391   */\n      0x00\n        /* \"#utility.yul\":5424:5430   */\n      dup2\n        /* \"#utility.yul\":5411:5431   */\n      calldataload\n        /* \"#utility.yul\":5402:5431   */\n      swap1\n      pop\n        /* \"#utility.yul\":5440:5473   */\n      tag_466\n        /* \"#utility.yul\":5467:5472   */\n      dup2\n        /* \"#utility.yul\":5440:5473   */\n      tag_348\n      jump\t// in\n    tag_466:\n        /* \"#utility.yul\":5340:5479   */\n      swap3\n      swap2\n      pop\n      pop\n      jump\t// out\n        /* \"#utility.yul\":5485:5814   */\n    tag_34:\n        /* \"#utility.yul\":5544:5550   */\n      0x00\n        /* \"#utility.yul\":5593:5595   */\n      0x20\n        /* \"#utility.yul\":5581:5590   */\n      dup3\n        /* \"#utility.yul\":5572:5579   */\n      dup5\n        /* \"#utility.yul\":5568:5591   */\n      sub\n        /* \"#utility.yul\":5564:5596   */\n      slt\n        /* \"#utility.yul\":5561:5680   */\n      iszero\n      tag_468\n      jumpi\n        /* \"#utility.yul\":5599:5678   */\n      tag_469\n      tag_330\n      jump\t// in\n    tag_469:\n        /* \"#utility.yul\":5561:5680   */\n    tag_468:\n        /* \"#utility.yul\":5719:5720   */\n      0x00\n        /* \"#utility.yul\":5744:5797   */\n      tag_470\n        /* \"#utility.yul\":5789:5796   */\n      dup5\n        /* \"#utility.yul\":5780:5786   */\n      dup3\n        /* \"#utility.yul\":5769:5778   */\n      dup6\n        /* \"#utility.yul\":5765:5787   */\n      add\n        /* \"#utility.yul\":5744:5797   */\n      tag_349\n      jump\t// in\n    tag_470:\n        /* \"#utility.yul\":5734:5797   */\n      swap2\n      pop\n        /* \"#utility.yul\":5690:5807   */\n      pop\n        /* \"#utility.yul\":5485:5814   */\n      swap3\n      swap2\n      pop\n      pop\n      jump\t// out\n        /* \"#utility.yul\":5820:5938   */\n    tag_350:\n        /* \"#utility.yul\":5907:5931   */\n      tag_472\n        /* \"#utility.yul\":5925:5930   */\n      dup2\n        /* \"#utility.yul\":5907:5931   */\n      tag_333\n      jump\t// in\n    tag_472:\n        /* \"#utility.yul\":5902:5905   */\n      dup3\n        /* \"#utility.yul\":5895:5932   */\n      mstore\n        /* \"#utility.yul\":5820:5938   */\n      pop\n      pop\n      jump\t// out\n        /* \"#utility.yul\":5944:6166   */\n    tag_37:\n        /* \"#utility.yul\":6037:6041   */\n      0x00\n        /* \"#utility.yul\":6075:6077   */\n      0x20\n        /* \"#utility.yul\":6064:6073   */\n      dup3\n        /* \"#utility.yul\":6060:6078   */\n      add\n        /* \"#utility.yul\":6052:6078   */\n      swap1\n      pop\n        /* \"#utility.yul\":6088:6159   */\n      tag_474\n        /* \"#utility.yul\":6156:6157   */\n      0x00\n        /* \"#utility.yul\":6145:6154   */\n      dup4\n        /* \"#utility.yul\":6141:6158   */\n      add\n        /* \"#utility.yul\":6132:6138   */\n      dup5\n        /* \"#utility.yul\":6088:6159   */\n      tag_350\n      jump\t// in\n    tag_474:\n        /* \"#utility.yul\":5944:6166   */\n      swap3\n      swap2\n      pop\n      pop\n      jump\t// out\n        /* \"#utility.yul\":6172:8275   */\n    tag_40:\n        /* \"#utility.yul\":6335:6341   */\n      0x00\n        /* \"#utility.yul\":6343:6349   */\n      dup1\n        /* \"#utility.yul\":6351:6357   */\n      0x00\n        /* \"#utility.yul\":6359:6365   */\n      dup1\n        /* \"#utility.yul\":6367:6373   */\n      0x00\n        /* \"#utility.yul\":6375:6381   */\n      dup1\n        /* \"#utility.yul\":6383:6389   */\n      0x00\n        /* \"#utility.yul\":6432:6435   */\n      0xe0\n        /* \"#utility.yul\":6420:6429   */\n      dup9\n        /* \"#utility.yul\":6411:6418   */\n      dup11\n        /* \"#utility.yul\":6407:6430   */\n      sub\n        /* \"#utility.yul\":6403:6436   */\n      slt\n        /* \"#utility.yul\":6400:6520   */\n      iszero\n      tag_476\n      jumpi\n        /* \"#utility.yul\":6439:6518   */\n      tag_477\n      tag_330\n      jump\t// in\n    tag_477:\n        /* \"#utility.yul\":6400:6520   */\n    tag_476:\n        /* \"#utility.yul\":6559:6560   */\n      0x00\n        /* \"#utility.yul\":6584:6637   */\n      tag_478\n        /* \"#utility.yul\":6629:6636   */\n      dup11\n        /* \"#utility.yul\":6620:6626   */\n      dup3\n        /* \"#utility.yul\":6609:6618   */\n      dup12\n        /* \"#utility.yul\":6605:6627   */\n      add\n        /* \"#utility.yul\":6584:6637   */\n      tag_335\n      jump\t// in\n    tag_478:\n        /* \"#utility.yul\":6574:6637   */\n      swap8\n      pop\n        /* \"#utility.yul\":6530:6647   */\n      pop\n        /* \"#utility.yul\":6714:6716   */\n      0x20\n        /* \"#utility.yul\":6703:6712   */\n      dup9\n        /* \"#utility.yul\":6699:6717   */\n      add\n        /* \"#utility.yul\":6686:6718   */\n      calldataload\n        /* \"#utility.yul\":6745:6763   */\n      0xffffffffffffffff\n        /* \"#utility.yul\":6737:6743   */\n      dup2\n        /* \"#utility.yul\":6734:6764   */\n      gt\n        /* \"#utility.yul\":6731:6848   */\n      iszero\n      tag_479\n      jumpi\n        /* \"#utility.yul\":6767:6846   */\n      tag_480\n      tag_331\n      jump\t// in\n    tag_480:\n        /* \"#utility.yul\":6731:6848   */\n    tag_479:\n        /* \"#utility.yul\":6872:6935   */\n      tag_481\n        /* \"#utility.yul\":6927:6934   */\n      dup11\n        /* \"#utility.yul\":6918:6924   */\n      dup3\n        /* \"#utility.yul\":6907:6916   */\n      dup12\n        /* \"#utility.yul\":6903:6925   */\n      add\n        /* \"#utility.yul\":6872:6935   */\n      tag_344\n      jump\t// in\n    tag_481:\n        /* \"#utility.yul\":6862:6935   */\n      swap7\n      pop\n        /* \"#utility.yul\":6657:6945   */\n      pop\n        /* \"#utility.yul\":7012:7014   */\n      0x40\n        /* \"#utility.yul\":7001:7010   */\n      dup9\n        /* \"#utility.yul\":6997:7015   */\n      add\n        /* \"#utility.yul\":6984:7016   */\n      calldataload\n        /* \"#utility.yul\":7043:7061   */\n      0xffffffffffffffff\n        /* \"#utility.yul\":7035:7041   */\n      dup2\n        /* \"#utility.yul\":7032:7062   */\n      gt\n        /* \"#utility.yul\":7029:7146   */\n      iszero\n      tag_482\n      jumpi\n        /* \"#utility.yul\":7065:7144   */\n      tag_483\n      tag_331\n      jump\t// in\n    tag_483:\n        /* \"#utility.yul\":7029:7146   */\n    tag_482:\n        /* \"#utility.yul\":7170:7233   */\n      tag_484\n        /* \"#utility.yul\":7225:7232   */\n      dup11\n        /* \"#utility.yul\":7216:7222   */\n      dup3\n        /* \"#utility.yul\":7205:7214   */\n      dup12\n        /* \"#utility.yul\":7201:7223   */\n      add\n        /* \"#utility.yul\":7170:7233   */\n      tag_344\n      jump\t// in\n    tag_484:\n        /* \"#utility.yul\":7160:7233   */\n      swap6\n      pop\n        /* \"#utility.yul\":6955:7243   */\n      pop\n        /* \"#utility.yul\":7310:7312   */\n      0x60\n        /* \"#utility.yul\":7299:7308   */\n      dup9\n        /* \"#utility.yul\":7295:7313   */\n      add\n        /* \"#utility.yul\":7282:7314   */\n      calldataload\n        /* \"#utility.yul\":7341:7359   */\n      0xffffffffffffffff\n        /* \"#utility.yul\":7333:7339   */\n      dup2\n        /* \"#utility.yul\":7330:7360   */\n      gt\n        /* \"#utility.yul\":7327:7444   */\n      iszero\n      tag_485\n      jumpi\n        /* \"#utility.yul\":7363:7442   */\n      tag_486\n      tag_331\n      jump\t// in\n    tag_486:\n        /* \"#utility.yul\":7327:7444   */\n    tag_485:\n        /* \"#utility.yul\":7468:7531   */\n      tag_487\n        /* \"#utility.yul\":7523:7530   */\n      dup11\n        /* \"#utility.yul\":7514:7520   */\n      dup3\n        /* \"#utility.yul\":7503:7512   */\n      dup12\n        /* \"#utility.yul\":7499:7521   */\n      add\n        /* \"#utility.yul\":7468:7531   */\n      tag_344\n      jump\t// in\n    tag_487:\n        /* \"#utility.yul\":7458:7531   */\n      swap5\n      pop\n        /* \"#utility.yul\":7253:7541   */\n      pop\n        /* \"#utility.yul\":7608:7611   */\n      0x80\n        /* \"#utility.yul\":7597:7606   */\n      dup9\n        /* \"#utility.yul\":7593:7612   */\n      add\n        /* \"#utility.yul\":7580:7613   */\n      calldataload\n        /* \"#utility.yul\":7640:7658   */\n      0xffffffffffffffff\n        /* \"#utility.yul\":7632:7638   */\n      dup2\n        /* \"#utility.yul\":7629:7659   */\n      gt\n        /* \"#utility.yul\":7626:7743   */\n      iszero\n      tag_488\n      jumpi\n        /* \"#utility.yul\":7662:7741   */\n      tag_489\n      tag_331\n      jump\t// in\n    tag_489:\n        /* \"#utility.yul\":7626:7743   */\n    tag_488:\n        /* \"#utility.yul\":7767:7830   */\n      tag_490\n        /* \"#utility.yul\":7822:7829   */\n      dup11\n        /* \"#utility.yul\":7813:7819   */\n      dup3\n        /* \"#utility.yul\":7802:7811   */\n      dup12\n        /* \"#utility.yul\":7798:7820   */\n      add\n        /* \"#utility.yul\":7767:7830   */\n      tag_344\n      jump\t// in\n    tag_490:\n        /* \"#utility.yul\":7757:7830   */\n      swap4\n      pop\n        /* \"#utility.yul\":7551:7840   */\n      pop\n        /* \"#utility.yul\":7907:7910   */\n      0xa0\n        /* \"#utility.yul\":7896:7905   */\n      dup9\n        /* \"#utility.yul\":7892:7911   */\n      add\n        /* \"#utility.yul\":7879:7912   */\n      calldataload\n        /* \"#utility.yul\":7939:7957   */\n      0xffffffffffffffff\n        /* \"#utility.yul\":7931:7937   */\n      dup2\n        /* \"#utility.yul\":7928:7958   */\n      gt\n        /* \"#utility.yul\":7925:8042   */\n      iszero\n      tag_491\n      jumpi\n        /* \"#utility.yul\":7961:8040   */\n      tag_492\n      tag_331\n      jump\t// in\n    tag_492:\n        /* \"#utility.yul\":7925:8042   */\n    tag_491:\n        /* \"#utility.yul\":8066:8129   */\n      tag_493\n        /* \"#utility.yul\":8121:8128   */\n      dup11\n        /* \"#utility.yul\":8112:8118   */\n      dup3\n        /* \"#utility.yul\":8101:8110   */\n      dup12\n        /* \"#utility.yul\":8097:8119   */\n      add\n        /* \"#utility.yul\":8066:8129   */\n      tag_344\n      jump\t// in\n    tag_493:\n        /* \"#utility.yul\":8056:8129   */\n      swap3\n      pop\n        /* \"#utility.yul\":7850:8139   */\n      pop\n        /* \"#utility.yul\":8178:8181   */\n      0xc0\n        /* \"#utility.yul\":8205:8258   */\n      tag_494\n        /* \"#utility.yul\":8250:8257   */\n      dup11\n        /* \"#utility.yul\":8241:8247   */\n      dup3\n        /* \"#utility.yul\":8230:8239   */\n      dup12\n        /* \"#utility.yul\":8226:8248   */\n      add\n        /* \"#utility.yul\":8205:8258   */\n      tag_335\n      jump\t// in\n    tag_494:\n        /* \"#utility.yul\":8195:8258   */\n      swap2\n      pop\n        /* \"#utility.yul\":8149:8268   */\n      pop\n        /* \"#utility.yul\":6172:8275   */\n      swap3\n      swap6\n      swap9\n      swap2\n      swap5\n      swap8\n      pop\n      swap3\n      swap6\n      pop\n      jump\t// out\n        /* \"#utility.yul\":8281:8399   */\n    tag_351:\n        /* \"#utility.yul\":8368:8392   */\n      tag_496\n        /* \"#utility.yul\":8386:8391   */\n      dup2\n        /* \"#utility.yul\":8368:8392   */\n      tag_347\n      jump\t// in\n    tag_496:\n        /* \"#utility.yul\":8363:8366   */\n      dup3\n        /* \"#utility.yul\":8356:8393   */\n      mstore\n        /* \"#utility.yul\":8281:8399   */\n      pop\n      pop\n      jump\t// out\n        /* \"#utility.yul\":8405:8627   */\n    tag_46:\n        /* \"#utility.yul\":8498:8502   */\n      0x00\n        /* \"#utility.yul\":8536:8538   */\n      0x20\n        /* \"#utility.yul\":8525:8534   */\n      dup3\n        /* \"#utility.yul\":8521:8539   */\n      add\n        /* \"#utility.yul\":8513:8539   */\n      swap1\n      pop\n        /* \"#utility.yul\":8549:8620   */\n      tag_498\n        /* \"#utility.yul\":8617:8618   */\n      0x00\n        /* \"#utility.yul\":8606:8615   */\n      dup4\n        /* \"#utility.yul\":8602:8619   */\n      add\n        /* \"#utility.yul\":8593:8599   */\n      dup5\n        /* \"#utility.yul\":8549:8620   */\n      tag_351\n      jump\t// in\n    tag_498:\n        /* \"#utility.yul\":8405:8627   */\n      swap3\n      swap2\n      pop\n      pop\n      jump\t// out\n        /* \"#utility.yul\":8633:8962   */\n    tag_50:\n        /* \"#utility.yul\":8692:8698   */\n      0x00\n        /* \"#utility.yul\":8741:8743   */\n      0x20\n        /* \"#utility.yul\":8729:8738   */\n      dup3\n        /* \"#utility.yul\":8720:8727   */\n      dup5\n        /* \"#utility.yul\":8716:8739   */\n      sub\n        /* \"#utility.yul\":8712:8744   */\n      slt\n        /* \"#utility.yul\":8709:8828   */\n      iszero\n      tag_500\n      jumpi\n        /* \"#utility.yul\":8747:8826   */\n      tag_501\n      tag_330\n      jump\t// in\n    tag_501:\n        /* \"#utility.yul\":8709:8828   */\n    tag_500:\n        /* \"#utility.yul\":8867:8868   */\n      0x00\n        /* \"#utility.yul\":8892:8945   */\n      tag_502\n        /* \"#utility.yul\":8937:8944   */\n      dup5\n        /* \"#utility.yul\":8928:8934   */\n      dup3\n        /* \"#utility.yul\":8917:8926   */\n      dup6\n        /* \"#utility.yul\":8913:8935   */\n      add\n        /* \"#utility.yul\":8892:8945   */\n      tag_335\n      jump\t// in\n    tag_502:\n        /* \"#utility.yul\":8882:8945   */\n      swap2\n      pop\n        /* \"#utility.yul\":8838:8955   */\n      pop\n        /* \"#utility.yul\":8633:8962   */\n      swap3\n      swap2\n      pop\n      pop\n      jump\t// out\n        /* \"#utility.yul\":8968:9067   */\n    tag_352:\n        /* \"#utility.yul\":9020:9026   */\n      0x00\n        /* \"#utility.yul\":9054:9059   */\n      dup2\n        /* \"#utility.yul\":9048:9060   */\n      mload\n        /* \"#utility.yul\":9038:9060   */\n      swap1\n      pop\n        /* \"#utility.yul\":8968:9067   */\n      swap2\n      swap1\n      pop\n      jump\t// out\n        /* \"#utility.yul\":9073:9242   */\n    tag_353:\n        /* \"#utility.yul\":9157:9168   */\n      0x00\n        /* \"#utility.yul\":9191:9197   */\n      dup3\n        /* \"#utility.yul\":9186:9189   */\n      dup3\n        /* \"#utility.yul\":9179:9198   */\n      mstore\n        /* \"#utility.yul\":9231:9235   */\n      0x20\n        /* \"#utility.yul\":9226:9229   */\n      dup3\n        /* \"#utility.yul\":9222:9236   */\n      add\n        /* \"#utility.yul\":9207:9236   */\n      swap1\n      pop\n        /* \"#utility.yul\":9073:9242   */\n      swap3\n      swap2\n      pop\n      pop\n      jump\t// out\n        /* \"#utility.yul\":9248:9387   */\n    tag_354:\n        /* \"#utility.yul\":9337:9343   */\n      dup3\n        /* \"#utility.yul\":9332:9335   */\n      dup2\n        /* \"#utility.yul\":9327:9330   */\n      dup4\n        /* \"#utility.yul\":9321:9344   */\n      mcopy\n        /* \"#utility.yul\":9378:9379   */\n      0x00\n        /* \"#utility.yul\":9369:9375   */\n      dup4\n        /* \"#utility.yul\":9364:9367   */\n      dup4\n        /* \"#utility.yul\":9360:9376   */\n      add\n        /* \"#utility.yul\":9353:9380   */\n      mstore\n        /* \"#utility.yul\":9248:9387   */\n      pop\n      pop\n      pop\n      jump\t// out\n        /* \"#utility.yul\":9393:9770   */\n    tag_355:\n        /* \"#utility.yul\":9481:9484   */\n      0x00\n        /* \"#utility.yul\":9509:9548   */\n      tag_507\n        /* \"#utility.yul\":9542:9547   */\n      dup3\n        /* \"#utility.yul\":9509:9548   */\n      tag_352\n      jump\t// in\n    tag_507:\n        /* \"#utility.yul\":9564:9635   */\n      tag_508\n        /* \"#utility.yul\":9628:9634   */\n      dup2\n        /* \"#utility.yul\":9623:9626   */\n      dup6\n        /* \"#utility.yul\":9564:9635   */\n      tag_353\n      jump\t// in\n    tag_508:\n        /* \"#utility.yul\":9557:9635   */\n      swap4\n      pop\n        /* \"#utility.yul\":9644:9709   */\n      tag_509\n        /* \"#utility.yul\":9702:9708   */\n      dup2\n        /* \"#utility.yul\":9697:9700   */\n      dup6\n        /* \"#utility.yul\":9690:9694   */\n      0x20\n        /* \"#utility.yul\":9683:9688   */\n      dup7\n        /* \"#utility.yul\":9679:9695   */\n      add\n        /* \"#utility.yul\":9644:9709   */\n      tag_354\n      jump\t// in\n    tag_509:\n        /* \"#utility.yul\":9734:9763   */\n      tag_510\n        /* \"#utility.yul\":9756:9762   */\n      dup2\n        /* \"#utility.yul\":9734:9763   */\n      tag_338\n      jump\t// in\n    tag_510:\n        /* \"#utility.yul\":9729:9732   */\n      dup5\n        /* \"#utility.yul\":9725:9764   */\n      add\n        /* \"#utility.yul\":9718:9764   */\n      swap2\n      pop\n        /* \"#utility.yul\":9485:9770   */\n      pop\n        /* \"#utility.yul\":9393:9770   */\n      swap3\n      swap2\n      pop\n      pop\n      jump\t// out\n        /* \"#utility.yul\":9776:11472   */\n    tag_53:\n        /* \"#utility.yul\":10230:10234   */\n      0x00\n        /* \"#utility.yul\":10268:10271   */\n      0x0160\n        /* \"#utility.yul\":10257:10266   */\n      dup3\n        /* \"#utility.yul\":10253:10272   */\n      add\n        /* \"#utility.yul\":10245:10272   */\n      swap1\n      pop\n        /* \"#utility.yul\":10282:10353   */\n      tag_512\n        /* \"#utility.yul\":10350:10351   */\n      0x00\n        /* \"#utility.yul\":10339:10348   */\n      dup4\n        /* \"#utility.yul\":10335:10352   */\n      add\n        /* \"#utility.yul\":10326:10332   */\n      dup15\n        /* \"#utility.yul\":10282:10353   */\n      tag_350\n      jump\t// in\n    tag_512:\n        /* \"#utility.yul\":10363:10435   */\n      tag_513\n        /* \"#utility.yul\":10431:10433   */\n      0x20\n        /* \"#utility.yul\":10420:10429   */\n      dup4\n        /* \"#utility.yul\":10416:10434   */\n      add\n        /* \"#utility.yul\":10407:10413   */\n      dup14\n        /* \"#utility.yul\":10363:10435   */\n      tag_351\n      jump\t// in\n    tag_513:\n        /* \"#utility.yul\":10445:10517   */\n      tag_514\n        /* \"#utility.yul\":10513:10515   */\n      0x40\n        /* \"#utility.yul\":10502:10511   */\n      dup4\n        /* \"#utility.yul\":10498:10516   */\n      add\n        /* \"#utility.yul\":10489:10495   */\n      dup13\n        /* \"#utility.yul\":10445:10517   */\n      tag_351\n      jump\t// in\n    tag_514:\n        /* \"#utility.yul\":10527:10599   */\n      tag_515\n        /* \"#utility.yul\":10595:10597   */\n      0x60\n        /* \"#utility.yul\":10584:10593   */\n      dup4\n        /* \"#utility.yul\":10580:10598   */\n      add\n        /* \"#utility.yul\":10571:10577   */\n      dup12\n        /* \"#utility.yul\":10527:10599   */\n      tag_351\n      jump\t// in\n    tag_515:\n        /* \"#utility.yul\":10609:10682   */\n      tag_516\n        /* \"#utility.yul\":10677:10680   */\n      0x80\n        /* \"#utility.yul\":10666:10675   */\n      dup4\n        /* \"#utility.yul\":10662:10681   */\n      add\n        /* \"#utility.yul\":10653:10659   */\n      dup11\n        /* \"#utility.yul\":10609:10682   */\n      tag_351\n      jump\t// in\n    tag_516:\n        /* \"#utility.yul\":10692:10765   */\n      tag_517\n        /* \"#utility.yul\":10760:10763   */\n      0xa0\n        /* \"#utility.yul\":10749:10758   */\n      dup4\n        /* \"#utility.yul\":10745:10764   */\n      add\n        /* \"#utility.yul\":10736:10742   */\n      dup10\n        /* \"#utility.yul\":10692:10765   */\n      tag_351\n      jump\t// in\n    tag_517:\n        /* \"#utility.yul\":10813:10822   */\n      dup2\n        /* \"#utility.yul\":10807:10811   */\n      dup2\n        /* \"#utility.yul\":10803:10823   */\n      sub\n        /* \"#utility.yul\":10797:10800   */\n      0xc0\n        /* \"#utility.yul\":10786:10795   */\n      dup4\n        /* \"#utility.yul\":10782:10801   */\n      add\n        /* \"#utility.yul\":10775:10824   */\n      mstore\n        /* \"#utility.yul\":10841:10919   */\n      tag_518\n        /* \"#utility.yul\":10914:10918   */\n      dup2\n        /* \"#utility.yul\":10905:10911   */\n      dup9\n        /* \"#utility.yul\":10841:10919   */\n      tag_355\n      jump\t// in\n    tag_518:\n        /* \"#utility.yul\":10833:10919   */\n      swap1\n      pop\n        /* \"#utility.yul\":10967:10976   */\n      dup2\n        /* \"#utility.yul\":10961:10965   */\n      dup2\n        /* \"#utility.yul\":10957:10977   */\n      sub\n        /* \"#utility.yul\":10951:10954   */\n      0xe0\n        /* \"#utility.yul\":10940:10949   */\n      dup4\n        /* \"#utility.yul\":10936:10955   */\n      add\n        /* \"#utility.yul\":10929:10978   */\n      mstore\n        /* \"#utility.yul\":10995:11073   */\n      tag_519\n        /* \"#utility.yul\":11068:11072   */\n      dup2\n        /* \"#utility.yul\":11059:11065   */\n      dup8\n        /* \"#utility.yul\":10995:11073   */\n      tag_355\n      jump\t// in\n    tag_519:\n        /* \"#utility.yul\":10987:11073   */\n      swap1\n      pop\n        /* \"#utility.yul\":11121:11130   */\n      dup2\n        /* \"#utility.yul\":11115:11119   */\n      dup2\n        /* \"#utility.yul\":11111:11131   */\n      sub\n        /* \"#utility.yul\":11105:11108   */\n      0x0100\n        /* \"#utility.yul\":11094:11103   */\n      dup4\n        /* \"#utility.yul\":11090:11109   */\n      add\n        /* \"#utility.yul\":11083:11132   */\n      mstore\n        /* \"#utility.yul\":11149:11227   */\n      tag_520\n        /* \"#utility.yul\":11222:11226   */\n      dup2\n        /* \"#utility.yul\":11213:11219   */\n      dup7\n        /* \"#utility.yul\":11149:11227   */\n      tag_355\n      jump\t// in\n    tag_520:\n        /* \"#utility.yul\":11141:11227   */\n      swap1\n      pop\n        /* \"#utility.yul\":11275:11284   */\n      dup2\n        /* \"#utility.yul\":11269:11273   */\n      dup2\n        /* \"#utility.yul\":11265:11285   */\n      sub\n        /* \"#utility.yul\":11259:11262   */\n      0x0120\n        /* \"#utility.yul\":11248:11257   */\n      dup4\n        /* \"#utility.yul\":11244:11263   */\n      add\n        /* \"#utility.yul\":11237:11286   */\n      mstore\n        /* \"#utility.yul\":11303:11381   */\n      tag_521\n        /* \"#utility.yul\":11376:11380   */\n      dup2\n        /* \"#utility.yul\":11367:11373   */\n      dup6\n        /* \"#utility.yul\":11303:11381   */\n      tag_355\n      jump\t// in\n    tag_521:\n        /* \"#utility.yul\":11295:11381   */\n      swap1\n      pop\n        /* \"#utility.yul\":11391:11465   */\n      tag_522\n        /* \"#utility.yul\":11460:11463   */\n      0x0140\n        /* \"#utility.yul\":11449:11458   */\n      dup4\n        /* \"#utility.yul\":11445:11464   */\n      add\n        /* \"#utility.yul\":11435:11442   */\n      dup5\n        /* \"#utility.yul\":11391:11465   */\n      tag_350\n      jump\t// in\n    tag_522:\n        /* \"#utility.yul\":9776:11472   */\n      swap13\n      swap12\n      pop\n      pop\n      pop\n      pop\n      pop\n      pop\n      pop\n      pop\n      pop\n      pop\n      pop\n      pop\n      jump\t// out\n        /* \"#utility.yul\":11478:11596   */\n    tag_356:\n        /* \"#utility.yul\":11549:11571   */\n      tag_524\n        /* \"#utility.yul\":11565:11570   */\n      dup2\n        /* \"#utility.yul\":11549:11571   */\n      tag_345\n      jump\t// in\n    tag_524:\n        /* \"#utility.yul\":11542:11547   */\n      dup2\n        /* \"#utility.yul\":11539:11572   */\n      eq\n        /* \"#utility.yul\":11529:11590   */\n      tag_525\n      jumpi\n        /* \"#utility.yul\":11586:11587   */\n      0x00\n        /* \"#utility.yul\":11583:11584   */\n      dup1\n        /* \"#utility.yul\":11576:11588   */\n      revert\n        /* \"#utility.yul\":11529:11590   */\n    tag_525:\n        /* \"#utility.yul\":11478:11596   */\n      pop\n      jump\t// out\n        /* \"#utility.yul\":11602:11737   */\n    tag_357:\n        /* \"#utility.yul\":11646:11651   */\n      0x00\n        /* \"#utility.yul\":11684:11690   */\n      dup2\n        /* \"#utility.yul\":11671:11691   */\n      calldataload\n        /* \"#utility.yul\":11662:11691   */\n      swap1\n      pop\n        /* \"#utility.yul\":11700:11731   */\n      tag_527\n        /* \"#utility.yul\":11725:11730   */\n      dup2\n        /* \"#utility.yul\":11700:11731   */\n      tag_356\n      jump\t// in\n    tag_527:\n        /* \"#utility.yul\":11602:11737   */\n      swap3\n      swap2\n      pop\n      pop\n      jump\t// out\n        /* \"#utility.yul\":11743:12068   */\n    tag_66:\n        /* \"#utility.yul\":11800:11806   */\n      0x00\n        /* \"#utility.yul\":11849:11851   */\n      0x20\n        /* \"#utility.yul\":11837:11846   */\n      dup3\n        /* \"#utility.yul\":11828:11835   */\n      dup5\n        /* \"#utility.yul\":11824:11847   */\n      sub\n        /* \"#utility.yul\":11820:11852   */\n      slt\n        /* \"#utility.yul\":11817:11936   */\n      iszero\n      tag_529\n      jumpi\n        /* \"#utility.yul\":11855:11934   */\n      tag_530\n      tag_330\n      jump\t// in\n    tag_530:\n        /* \"#utility.yul\":11817:11936   */\n    tag_529:\n        /* \"#utility.yul\":11975:11976   */\n      0x00\n        /* \"#utility.yul\":12000:12051   */\n      tag_531\n        /* \"#utility.yul\":12043:12050   */\n      dup5\n        /* \"#utility.yul\":12034:12040   */\n      dup3\n        /* \"#utility.yul\":12023:12032   */\n      dup6\n        /* \"#utility.yul\":12019:12041   */\n      add\n        /* \"#utility.yul\":12000:12051   */\n      tag_357\n      jump\t// in\n    tag_531:\n        /* \"#utility.yul\":11990:12051   */\n      swap2\n      pop\n        /* \"#utility.yul\":11946:12061   */\n      pop\n        /* \"#utility.yul\":11743:12068   */\n      swap3\n      swap2\n      pop\n      pop\n      jump\t// out\n        /* \"#utility.yul\":12074:12151   */\n    tag_358:\n        /* \"#utility.yul\":12111:12118   */\n      0x00\n        /* \"#utility.yul\":12140:12145   */\n      dup2\n        /* \"#utility.yul\":12129:12145   */\n      swap1\n      pop\n        /* \"#utility.yul\":12074:12151   */\n      swap2\n      swap1\n      pop\n      jump\t// out\n        /* \"#utility.yul\":12157:12275   */\n    tag_359:\n        /* \"#utility.yul\":12244:12268   */\n      tag_534\n        /* \"#utility.yul\":12262:12267   */\n      dup2\n        /* \"#utility.yul\":12244:12268   */\n      tag_358\n      jump\t// in\n    tag_534:\n        /* \"#utility.yul\":12239:12242   */\n      dup3\n        /* \"#utility.yul\":12232:12269   */\n      mstore\n        /* \"#utility.yul\":12157:12275   */\n      pop\n      pop\n      jump\t// out\n        /* \"#utility.yul\":12281:14082   */\n    tag_89:\n        /* \"#utility.yul\":12760:12764   */\n      0x00\n        /* \"#utility.yul\":12798:12801   */\n      0x0180\n        /* \"#utility.yul\":12787:12796   */\n      dup3\n        /* \"#utility.yul\":12783:12802   */\n      add\n        /* \"#utility.yul\":12775:12802   */\n      swap1\n      pop\n        /* \"#utility.yul\":12812:12883   */\n      tag_536\n        /* \"#utility.yul\":12880:12881   */\n      0x00\n        /* \"#utility.yul\":12869:12878   */\n      dup4\n        /* \"#utility.yul\":12865:12882   */\n      add\n        /* \"#utility.yul\":12856:12862   */\n      dup16\n        /* \"#utility.yul\":12812:12883   */\n      tag_350\n      jump\t// in\n    tag_536:\n        /* \"#utility.yul\":12893:12965   */\n      tag_537\n        /* \"#utility.yul\":12961:12963   */\n      0x20\n        /* \"#utility.yul\":12950:12959   */\n      dup4\n        /* \"#utility.yul\":12946:12964   */\n      add\n        /* \"#utility.yul\":12937:12943   */\n      dup15\n        /* \"#utility.yul\":12893:12965   */\n      tag_351\n      jump\t// in\n    tag_537:\n        /* \"#utility.yul\":12975:13047   */\n      tag_538\n        /* \"#utility.yul\":13043:13045   */\n      0x40\n        /* \"#utility.yul\":13032:13041   */\n      dup4\n        /* \"#utility.yul\":13028:13046   */\n      add\n        /* \"#utility.yul\":13019:13025   */\n      dup14\n        /* \"#utility.yul\":12975:13047   */\n      tag_351\n      jump\t// in\n    tag_538:\n        /* \"#utility.yul\":13057:13129   */\n      tag_539\n        /* \"#utility.yul\":13125:13127   */\n      0x60\n        /* \"#utility.yul\":13114:13123   */\n      dup4\n        /* \"#utility.yul\":13110:13128   */\n      add\n        /* \"#utility.yul\":13101:13107   */\n      dup13\n        /* \"#utility.yul\":13057:13129   */\n      tag_351\n      jump\t// in\n    tag_539:\n        /* \"#utility.yul\":13139:13212   */\n      tag_540\n        /* \"#utility.yul\":13207:13210   */\n      0x80\n        /* \"#utility.yul\":13196:13205   */\n      dup4\n        /* \"#utility.yul\":13192:13211   */\n      add\n        /* \"#utility.yul\":13183:13189   */\n      dup12\n        /* \"#utility.yul\":13139:13212   */\n      tag_351\n      jump\t// in\n    tag_540:\n        /* \"#utility.yul\":13222:13291   */\n      tag_541\n        /* \"#utility.yul\":13286:13289   */\n      0xa0\n        /* \"#utility.yul\":13275:13284   */\n      dup4\n        /* \"#utility.yul\":13271:13290   */\n      add\n        /* \"#utility.yul\":13262:13268   */\n      dup11\n        /* \"#utility.yul\":13222:13291   */\n      tag_346\n      jump\t// in\n    tag_541:\n        /* \"#utility.yul\":13339:13348   */\n      dup2\n        /* \"#utility.yul\":13333:13337   */\n      dup2\n        /* \"#utility.yul\":13329:13349   */\n      sub\n        /* \"#utility.yul\":13323:13326   */\n      0xc0\n        /* \"#utility.yul\":13312:13321   */\n      dup4\n        /* \"#utility.yul\":13308:13327   */\n      add\n        /* \"#utility.yul\":13301:13350   */\n      mstore\n        /* \"#utility.yul\":13367:13445   */\n      tag_542\n        /* \"#utility.yul\":13440:13444   */\n      dup2\n        /* \"#utility.yul\":13431:13437   */\n      dup10\n        /* \"#utility.yul\":13367:13445   */\n      tag_355\n      jump\t// in\n    tag_542:\n        /* \"#utility.yul\":13359:13445   */\n      swap1\n      pop\n        /* \"#utility.yul\":13493:13502   */\n      dup2\n        /* \"#utility.yul\":13487:13491   */\n      dup2\n        /* \"#utility.yul\":13483:13503   */\n      sub\n        /* \"#utility.yul\":13477:13480   */\n      0xe0\n        /* \"#utility.yul\":13466:13475   */\n      dup4\n        /* \"#utility.yul\":13462:13481   */\n      add\n        /* \"#utility.yul\":13455:13504   */\n      mstore\n        /* \"#utility.yul\":13521:13599   */\n      tag_543\n        /* \"#utility.yul\":13594:13598   */\n      dup2\n        /* \"#utility.yul\":13585:13591   */\n      dup9\n        /* \"#utility.yul\":13521:13599   */\n      tag_355\n      jump\t// in\n    tag_543:\n        /* \"#utility.yul\":13513:13599   */\n      swap1\n      pop\n        /* \"#utility.yul\":13647:13656   */\n      dup2\n        /* \"#utility.yul\":13641:13645   */\n      dup2\n        /* \"#utility.yul\":13637:13657   */\n      sub\n        /* \"#utility.yul\":13631:13634   */\n      0x0100\n        /* \"#utility.yul\":13620:13629   */\n      dup4\n        /* \"#utility.yul\":13616:13635   */\n      add\n        /* \"#utility.yul\":13609:13658   */\n      mstore\n        /* \"#utility.yul\":13675:13753   */\n      tag_544\n        /* \"#utility.yul\":13748:13752   */\n      dup2\n        /* \"#utility.yul\":13739:13745   */\n      dup8\n        /* \"#utility.yul\":13675:13753   */\n      tag_355\n      jump\t// in\n    tag_544:\n        /* \"#utility.yul\":13667:13753   */\n      swap1\n      pop\n        /* \"#utility.yul\":13801:13810   */\n      dup2\n        /* \"#utility.yul\":13795:13799   */\n      dup2\n        /* \"#utility.yul\":13791:13811   */\n      sub\n        /* \"#utility.yul\":13785:13788   */\n      0x0120\n        /* \"#utility.yul\":13774:13783   */\n      dup4\n        /* \"#utility.yul\":13770:13789   */\n      add\n        /* \"#utility.yul\":13763:13812   */\n      mstore\n        /* \"#utility.yul\":13829:13907   */\n      tag_545\n        /* \"#utility.yul\":13902:13906   */\n      dup2\n        /* \"#utility.yul\":13893:13899   */\n      dup7\n        /* \"#utility.yul\":13829:13907   */\n      tag_355\n      jump\t// in\n    tag_545:\n        /* \"#utility.yul\":13821:13907   */\n      swap1\n      pop\n        /* \"#utility.yul\":13917:13991   */\n      tag_546\n        /* \"#utility.yul\":13986:13989   */\n      0x0140\n        /* \"#utility.yul\":13975:13984   */\n      dup4\n        /* \"#utility.yul\":13971:13990   */\n      add\n        /* \"#utility.yul\":13961:13968   */\n      dup6\n        /* \"#utility.yul\":13917:13991   */\n      tag_359\n      jump\t// in\n    tag_546:\n        /* \"#utility.yul\":14001:14075   */\n      tag_547\n        /* \"#utility.yul\":14070:14073   */\n      0x0160\n        /* \"#utility.yul\":14059:14068   */\n      dup4\n        /* \"#utility.yul\":14055:14074   */\n      add\n        /* \"#utility.yul\":14045:14052   */\n      dup5\n        /* \"#utility.yul\":14001:14075   */\n      tag_350\n      jump\t// in\n    tag_547:\n        /* \"#utility.yul\":12281:14082   */\n      swap14\n      swap13\n      pop\n      pop\n      pop\n      pop\n      pop\n      pop\n      pop\n      pop\n      pop\n      pop\n      pop\n      pop\n      pop\n      jump\t// out\n        /* \"#utility.yul\":14088:14401   */\n    tag_95:\n        /* \"#utility.yul\":14201:14205   */\n      0x00\n        /* \"#utility.yul\":14239:14241   */\n      0x20\n        /* \"#utility.yul\":14228:14237   */\n      dup3\n        /* \"#utility.yul\":14224:14242   */\n      add\n        /* \"#utility.yul\":14216:14242   */\n      swap1\n      pop\n        /* \"#utility.yul\":14288:14297   */\n      dup2\n        /* \"#utility.yul\":14282:14286   */\n      dup2\n        /* \"#utility.yul\":14278:14298   */\n      sub\n        /* \"#utility.yul\":14274:14275   */\n      0x00\n        /* \"#utility.yul\":14263:14272   */\n      dup4\n        /* \"#utility.yul\":14259:14276   */\n      add\n        /* \"#utility.yul\":14252:14299   */\n      mstore\n        /* \"#utility.yul\":14316:14394   */\n      tag_549\n        /* \"#utility.yul\":14389:14393   */\n      dup2\n        /* \"#utility.yul\":14380:14386   */\n      dup5\n        /* \"#utility.yul\":14316:14394   */\n      tag_355\n      jump\t// in\n    tag_549:\n        /* \"#utility.yul\":14308:14394   */\n      swap1\n      pop\n        /* \"#utility.yul\":14088:14401   */\n      swap3\n      swap2\n      pop\n      pop\n      jump\t// out\n        /* \"#utility.yul\":14407:14739   */\n    tag_101:\n        /* \"#utility.yul\":14528:14532   */\n      0x00\n        /* \"#utility.yul\":14566:14568   */\n      0x40\n        /* \"#utility.yul\":14555:14564   */\n      dup3\n        /* \"#utility.yul\":14551:14569   */\n      add\n        /* \"#utility.yul\":14543:14569   */\n      swap1\n      pop\n        /* \"#utility.yul\":14579:14650   */\n      tag_551\n        /* \"#utility.yul\":14647:14648   */\n      0x00\n        /* \"#utility.yul\":14636:14645   */\n      dup4\n        /* \"#utility.yul\":14632:14649   */\n      add\n        /* \"#utility.yul\":14623:14629   */\n      dup6\n        /* \"#utility.yul\":14579:14650   */\n      tag_351\n      jump\t// in\n    tag_551:\n        /* \"#utility.yul\":14660:14732   */\n      tag_552\n        /* \"#utility.yul\":14728:14730   */\n      0x20\n        /* \"#utility.yul\":14717:14726   */\n      dup4\n        /* \"#utility.yul\":14713:14731   */\n      add\n        /* \"#utility.yul\":14704:14710   */\n      dup5\n        /* \"#utility.yul\":14660:14732   */\n      tag_351\n      jump\t// in\n    tag_552:\n        /* \"#utility.yul\":14407:14739   */\n      swap4\n      swap3\n      pop\n      pop\n      pop\n      jump\t// out\n        /* \"#utility.yul\":14745:14920   */\n    tag_360:\n        /* \"#utility.yul\":14885:14912   */\n      0x55706c696e6520616c7265616479207265676973746572656400000000000000\n        /* \"#utility.yul\":14881:14882   */\n      0x00\n        /* \"#utility.yul\":14873:14879   */\n      dup3\n        /* \"#utility.yul\":14869:14883   */\n      add\n        /* \"#utility.yul\":14862:14913   */\n      mstore\n        /* \"#utility.yul\":14745:14920   */\n      pop\n      jump\t// out\n        /* \"#utility.yul\":14926:15292   */\n    tag_361:\n        /* \"#utility.yul\":15068:15071   */\n      0x00\n        /* \"#utility.yul\":15089:15156   */\n      tag_555\n        /* \"#utility.yul\":15153:15155   */\n      0x19\n        /* \"#utility.yul\":15148:15151   */\n      dup4\n        /* \"#utility.yul\":15089:15156   */\n      tag_353\n      jump\t// in\n    tag_555:\n        /* \"#utility.yul\":15082:15156   */\n      swap2\n      pop\n        /* \"#utility.yul\":15165:15258   */\n      tag_556\n        /* \"#utility.yul\":15254:15257   */\n      dup3\n        /* \"#utility.yul\":15165:15258   */\n      tag_360\n      jump\t// in\n    tag_556:\n        /* \"#utility.yul\":15283:15285   */\n      0x20\n        /* \"#utility.yul\":15278:15281   */\n      dup3\n        /* \"#utility.yul\":15274:15286   */\n      add\n        /* \"#utility.yul\":15267:15286   */\n      swap1\n      pop\n        /* \"#utility.yul\":14926:15292   */\n      swap2\n      swap1\n      pop\n      jump\t// out\n        /* \"#utility.yul\":15298:15717   */\n    tag_110:\n        /* \"#utility.yul\":15464:15468   */\n      0x00\n        /* \"#utility.yul\":15502:15504   */\n      0x20\n        /* \"#utility.yul\":15491:15500   */\n      dup3\n        /* \"#utility.yul\":15487:15505   */\n      add\n        /* \"#utility.yul\":15479:15505   */\n      swap1\n      pop\n        /* \"#utility.yul\":15551:15560   */\n      dup2\n        /* \"#utility.yul\":15545:15549   */\n      dup2\n        /* \"#utility.yul\":15541:15561   */\n      sub\n        /* \"#utility.yul\":15537:15538   */\n      0x00\n        /* \"#utility.yul\":15526:15535   */\n      dup4\n        /* \"#utility.yul\":15522:15539   */\n      add\n        /* \"#utility.yul\":15515:15562   */\n      mstore\n        /* \"#utility.yul\":15579:15710   */\n      tag_558\n        /* \"#utility.yul\":15705:15709   */\n      dup2\n        /* \"#utility.yul\":15579:15710   */\n      tag_361\n      jump\t// in\n    tag_558:\n        /* \"#utility.yul\":15571:15710   */\n      swap1\n      pop\n        /* \"#utility.yul\":15298:15717   */\n      swap2\n      swap1\n      pop\n      jump\t// out\n        /* \"#utility.yul\":15723:15903   */\n    tag_362:\n        /* \"#utility.yul\":15771:15848   */\n      0x4e487b7100000000000000000000000000000000000000000000000000000000\n        /* \"#utility.yul\":15768:15769   */\n      0x00\n        /* \"#utility.yul\":15761:15849   */\n      mstore\n        /* \"#utility.yul\":15868:15872   */\n      0x22\n        /* \"#utility.yul\":15865:15866   */\n      0x04\n        /* \"#utility.yul\":15858:15873   */\n      mstore\n        /* \"#utility.yul\":15892:15896   */\n      0x24\n        /* \"#utility.yul\":15889:15890   */\n      0x00\n        /* \"#utility.yul\":15882:15897   */\n      revert\n        /* \"#utility.yul\":15909:16229   */\n    tag_155:\n        /* \"#utility.yul\":15953:15959   */\n      0x00\n        /* \"#utility.yul\":15990:15991   */\n      0x02\n        /* \"#utility.yul\":15984:15988   */\n      dup3\n        /* \"#utility.yul\":15980:15992   */\n      div\n        /* \"#utility.yul\":15970:15992   */\n      swap1\n      pop\n        /* \"#utility.yul\":16037:16038   */\n      0x01\n        /* \"#utility.yul\":16031:16035   */\n      dup3\n        /* \"#utility.yul\":16027:16039   */\n      and\n        /* \"#utility.yul\":16058:16076   */\n      dup1\n        /* \"#utility.yul\":16048:16129   */\n      tag_561\n      jumpi\n        /* \"#utility.yul\":16114:16118   */\n      0x7f\n        /* \"#utility.yul\":16106:16112   */\n      dup3\n        /* \"#utility.yul\":16102:16119   */\n      and\n        /* \"#utility.yul\":16092:16119   */\n      swap2\n      pop\n        /* \"#utility.yul\":16048:16129   */\n    tag_561:\n        /* \"#utility.yul\":16176:16178   */\n      0x20\n        /* \"#utility.yul\":16168:16174   */\n      dup3\n        /* \"#utility.yul\":16165:16179   */\n      lt\n        /* \"#utility.yul\":16145:16163   */\n      dup2\n        /* \"#utility.yul\":16142:16180   */\n      sub\n        /* \"#utility.yul\":16139:16223   */\n      tag_562\n      jumpi\n        /* \"#utility.yul\":16195:16213   */\n      tag_563\n      tag_362\n      jump\t// in\n    tag_563:\n        /* \"#utility.yul\":16139:16223   */\n    tag_562:\n        /* \"#utility.yul\":15960:16229   */\n      pop\n        /* \"#utility.yul\":15909:16229   */\n      swap2\n      swap1\n      pop\n      jump\t// out\n        /* \"#utility.yul\":16235:16376   */\n    tag_363:\n        /* \"#utility.yul\":16284:16288   */\n      0x00\n        /* \"#utility.yul\":16307:16310   */\n      dup2\n        /* \"#utility.yul\":16299:16310   */\n      swap1\n      pop\n        /* \"#utility.yul\":16330:16333   */\n      dup2\n        /* \"#utility.yul\":16327:16328   */\n      0x00\n        /* \"#utility.yul\":16320:16334   */\n      mstore\n        /* \"#utility.yul\":16364:16368   */\n      0x20\n        /* \"#utility.yul\":16361:16362   */\n      0x00\n        /* \"#utility.yul\":16351:16369   */\n      keccak256\n        /* \"#utility.yul\":16343:16369   */\n      swap1\n      pop\n        /* \"#utility.yul\":16235:16376   */\n      swap2\n      swap1\n      pop\n      jump\t// out\n        /* \"#utility.yul\":16382:16475   */\n    tag_364:\n        /* \"#utility.yul\":16419:16425   */\n      0x00\n        /* \"#utility.yul\":16466:16468   */\n      0x20\n        /* \"#utility.yul\":16461:16463   */\n      0x1f\n        /* \"#utility.yul\":16454:16459   */\n      dup4\n        /* \"#utility.yul\":16450:16464   */\n      add\n        /* \"#utility.yul\":16446:16469   */\n      div\n        /* \"#utility.yul\":16436:16469   */\n      swap1\n      pop\n        /* \"#utility.yul\":16382:16475   */\n      swap2\n      swap1\n      pop\n      jump\t// out\n        /* \"#utility.yul\":16481:16588   */\n    tag_365:\n        /* \"#utility.yul\":16525:16533   */\n      0x00\n        /* \"#utility.yul\":16575:16580   */\n      dup3\n        /* \"#utility.yul\":16569:16573   */\n      dup3\n        /* \"#utility.yul\":16565:16581   */\n      shl\n        /* \"#utility.yul\":16544:16581   */\n      swap1\n      pop\n        /* \"#utility.yul\":16481:16588   */\n      swap3\n      swap2\n      pop\n      pop\n      jump\t// out\n        /* \"#utility.yul\":16594:16987   */\n    tag_366:\n        /* \"#utility.yul\":16663:16669   */\n      0x00\n        /* \"#utility.yul\":16713:16714   */\n      0x08\n        /* \"#utility.yul\":16701:16711   */\n      dup4\n        /* \"#utility.yul\":16697:16715   */\n      mul\n        /* \"#utility.yul\":16736:16833   */\n      tag_568\n        /* \"#utility.yul\":16766:16832   */\n      0xffffffffffffffffffffffffffffffffffffffffffffffffffffffffffffffff\n        /* \"#utility.yul\":16755:16764   */\n      dup3\n        /* \"#utility.yul\":16736:16833   */\n      tag_365\n      jump\t// in\n    tag_568:\n        /* \"#utility.yul\":16854:16893   */\n      tag_569\n        /* \"#utility.yul\":16884:16892   */\n      dup7\n        /* \"#utility.yul\":16873:16882   */\n      dup4\n        /* \"#utility.yul\":16854:16893   */\n      tag_365\n      jump\t// in\n    tag_569:\n        /* \"#utility.yul\":16842:16893   */\n      swap6\n      pop\n        /* \"#utility.yul\":16926:16930   */\n      dup1\n        /* \"#utility.yul\":16922:16931   */\n      not\n        /* \"#utility.yul\":16915:16920   */\n      dup5\n        /* \"#utility.yul\":16911:16932   */\n      and\n        /* \"#utility.yul\":16902:16932   */\n      swap4\n      pop\n        /* \"#utility.yul\":16975:16979   */\n      dup1\n        /* \"#utility.yul\":16965:16973   */\n      dup7\n        /* \"#utility.yul\":16961:16980   */\n      and\n        /* \"#utility.yul\":16954:16959   */\n      dup5\n        /* \"#utility.yul\":16951:16981   */\n      or\n        /* \"#utility.yul\":16941:16981   */\n      swap3\n      pop\n        /* \"#utility.yul\":16670:16987   */\n      pop\n      pop\n        /* \"#utility.yul\":16594:16987   */\n      swap4\n      swap3\n      pop\n      pop\n      pop\n      jump\t// out\n        /* \"#utility.yul\":16993:17053   */\n    tag_367:\n        /* \"#utility.yul\":17021:17024   */\n      0x00\n        /* \"#utility.yul\":17042:17047   */\n      dup2\n        /* \"#utility.yul\":17035:17047   */\n      swap1\n      pop\n        /* \"#utility.yul\":16993:17053   */\n      swap2\n      swap1\n      pop\n      jump\t// out\n        /* \"#utility.yul\":17059:17201   */\n    tag_368:\n        /* \"#utility.yul\":17109:17118   */\n      0x00\n        /* \"#utility.yul\":17142:17195   */\n      tag_572\n        /* \"#utility.yul\":17160:17194   */\n      tag_573\n        /* \"#utility.yul\":17169:17193   */\n      tag_574\n        /* \"#utility.yul\":17187:17192   */\n      dup5\n        /* \"#utility.yul\":17169:17193   */\n      tag_347\n      jump\t// in\n    tag_574:\n        /* \"#utility.yul\":17160:17194   */\n      tag_367\n      jump\t// in\n    tag_573:\n        /* \"#utility.yul\":17142:17195   */\n      tag_347\n      jump\t// in\n    tag_572:\n        /* \"#utility.yul\":17129:17195   */\n      swap1\n      pop\n        /* \"#utility.yul\":17059:17201   */\n      swap2\n      swap1\n      pop\n      jump\t// out\n        /* \"#utility.yul\":17207:17282   */\n    tag_369:\n        /* \"#utility.yul\":17250:17253   */\n      0x00\n        /* \"#utility.yul\":17271:17276   */\n      dup2\n        /* \"#utility.yul\":17264:17276   */\n      swap1\n      pop\n        /* \"#utility.yul\":17207:17282   */\n      swap2\n      swap1\n      pop\n      jump\t// out\n        /* \"#utility.yul\":17288:17557   */\n    tag_370:\n        /* \"#utility.yul\":17398:17437   */\n      tag_577\n        /* \"#utility.yul\":17429:17436   */\n      dup4\n        /* \"#utility.yul\":17398:17437   */\n      tag_368\n      jump\t// in\n    tag_577:\n        /* \"#utility.yul\":17459:17550   */\n      tag_578\n        /* \"#utility.yul\":17508:17549   */\n      tag_579\n        /* \"#utility.yul\":17532:17548   */\n      dup3\n        /* \"#utility.yul\":17508:17549   */\n      tag_369\n      jump\t// in\n    tag_579:\n        /* \"#utility.yul\":17500:17506   */\n      dup5\n        /* \"#utility.yul\":17493:17497   */\n      dup5\n        /* \"#utility.yul\":17487:17498   */\n      sload\n        /* \"#utility.yul\":17459:17550   */\n      tag_366\n      jump\t// in\n    tag_578:\n        /* \"#utility.yul\":17453:17457   */\n      dup3\n        /* \"#utility.yul\":17446:17551   */\n      sstore\n        /* \"#utility.yul\":17364:17557   */\n      pop\n        /* \"#utility.yul\":17288:17557   */\n      pop\n      pop\n      pop\n      jump\t// out\n        /* \"#utility.yul\":17563:17636   */\n    tag_371:\n        /* \"#utility.yul\":17608:17611   */\n      0x00\n        /* \"#utility.yul\":17563:17636   */\n      swap1\n      jump\t// out\n        /* \"#utility.yul\":17642:17831   */\n    tag_372:\n        /* \"#utility.yul\":17719:17751   */\n      tag_582\n      tag_371\n      jump\t// in\n    tag_582:\n        /* \"#utility.yul\":17760:17825   */\n      tag_583\n        /* \"#utility.yul\":17818:17824   */\n      dup2\n        /* \"#utility.yul\":17810:17816   */\n      dup5\n        /* \"#utility.yul\":17804:17808   */\n      dup5\n        /* \"#utility.yul\":17760:17825   */\n      tag_370\n      jump\t// in\n    tag_583:\n        /* \"#utility.yul\":17695:17831   */\n      pop\n        /* \"#utility.yul\":17642:17831   */\n      pop\n      pop\n      jump\t// out\n        /* \"#utility.yul\":17837:18023   */\n    tag_373:\n        /* \"#utility.yul\":17897:18017   */\n    tag_585:\n        /* \"#utility.yul\":17914:17917   */\n      dup2\n        /* \"#utility.yul\":17907:17912   */\n      dup2\n        /* \"#utility.yul\":17904:17918   */\n      lt\n        /* \"#utility.yul\":17897:18017   */\n      iszero\n      tag_587\n      jumpi\n        /* \"#utility.yul\":17968:18007   */\n      tag_588\n        /* \"#utility.yul\":18005:18006   */\n      0x00\n        /* \"#utility.yul\":17998:18003   */\n      dup3\n        /* \"#utility.yul\":17968:18007   */\n      tag_372\n      jump\t// in\n    tag_588:\n        /* \"#utility.yul\":17941:17942   */\n      0x01\n        /* \"#utility.yul\":17934:17939   */\n      dup2\n        /* \"#utility.yul\":17930:17943   */\n      add\n        /* \"#utility.yul\":17921:17943   */\n      swap1\n      pop\n        /* \"#utility.yul\":17897:18017   */\n      jump(tag_585)\n    tag_587:\n        /* \"#utility.yul\":17837:18023   */\n      pop\n      pop\n      jump\t// out\n        /* \"#utility.yul\":18029:18572   */\n    tag_374:\n        /* \"#utility.yul\":18130:18132   */\n      0x1f\n        /* \"#utility.yul\":18125:18128   */\n      dup3\n        /* \"#utility.yul\":18122:18133   */\n      gt\n        /* \"#utility.yul\":18119:18565   */\n      iszero\n      tag_590\n      jumpi\n        /* \"#utility.yul\":18164:18202   */\n      tag_591\n        /* \"#utility.yul\":18196:18201   */\n      dup2\n        /* \"#utility.yul\":18164:18202   */\n      tag_363\n      jump\t// in\n    tag_591:\n        /* \"#utility.yul\":18248:18277   */\n      tag_592\n        /* \"#utility.yul\":18266:18276   */\n      dup5\n        /* \"#utility.yul\":18248:18277   */\n      tag_364\n      jump\t// in\n    tag_592:\n        /* \"#utility.yul\":18238:18246   */\n      dup2\n        /* \"#utility.yul\":18234:18278   */\n      add\n        /* \"#utility.yul\":18431:18433   */\n      0x20\n        /* \"#utility.yul\":18419:18429   */\n      dup6\n        /* \"#utility.yul\":18416:18434   */\n      lt\n        /* \"#utility.yul\":18413:18462   */\n      iszero\n      tag_593\n      jumpi\n        /* \"#utility.yul\":18452:18460   */\n      dup2\n        /* \"#utility.yul\":18437:18460   */\n      swap1\n      pop\n        /* \"#utility.yul\":18413:18462   */\n    tag_593:\n        /* \"#utility.yul\":18475:18555   */\n      tag_594\n        /* \"#utility.yul\":18531:18553   */\n      tag_595\n        /* \"#utility.yul\":18549:18552   */\n      dup6\n        /* \"#utility.yul\":18531:18553   */\n      tag_364\n      jump\t// in\n    tag_595:\n        /* \"#utility.yul\":18521:18529   */\n      dup4\n        /* \"#utility.yul\":18517:18554   */\n      add\n        /* \"#utility.yul\":18504:18515   */\n      dup3\n        /* \"#utility.yul\":18475:18555   */\n      tag_373\n      jump\t// in\n    tag_594:\n        /* \"#utility.yul\":18134:18565   */\n      pop\n      pop\n        /* \"#utility.yul\":18119:18565   */\n    tag_590:\n        /* \"#utility.yul\":18029:18572   */\n      pop\n      pop\n      pop\n      jump\t// out\n        /* \"#utility.yul\":18578:18695   */\n    tag_375:\n        /* \"#utility.yul\":18632:18640   */\n      0x00\n        /* \"#utility.yul\":18682:18687   */\n      dup3\n        /* \"#utility.yul\":18676:18680   */\n      dup3\n        /* \"#utility.yul\":18672:18688   */\n      shr\n        /* \"#utility.yul\":18651:18688   */\n      swap1\n      pop\n        /* \"#utility.yul\":18578:18695   */\n      swap3\n      swap2\n      pop\n      pop\n      jump\t// out\n        /* \"#utility.yul\":18701:18870   */\n    tag_376:\n        /* \"#utility.yul\":18745:18751   */\n      0x00\n        /* \"#utility.yul\":18778:18829   */\n      tag_598\n        /* \"#utility.yul\":18826:18827   */\n      0x00\n        /* \"#utility.yul\":18822:18828   */\n      not\n        /* \"#utility.yul\":18814:18819   */\n      dup5\n        /* \"#utility.yul\":18811:18812   */\n      0x08\n        /* \"#utility.yul\":18807:18820   */\n      mul\n        /* \"#utility.yul\":18778:18829   */\n      tag_375\n      jump\t// in\n    tag_598:\n        /* \"#utility.yul\":18774:18830   */\n      not\n        /* \"#utility.yul\":18859:18863   */\n      dup1\n        /* \"#utility.yul\":18853:18857   */\n      dup4\n        /* \"#utility.yul\":18849:18864   */\n      and\n        /* \"#utility.yul\":18839:18864   */\n      swap2\n      pop\n        /* \"#utility.yul\":18752:18870   */\n      pop\n        /* \"#utility.yul\":18701:18870   */\n      swap3\n      swap2\n      pop\n      pop\n      jump\t// out\n        /* \"#utility.yul\":18875:19170   */\n    tag_377:\n        /* \"#utility.yul\":18951:18955   */\n      0x00\n        /* \"#utility.yul\":19097:19126   */\n      tag_600\n        /* \"#utility.yul\":19122:19125   */\n      dup4\n        /* \"#utility.yul\":19116:19120   */\n      dup4\n        /* \"#utility.yul\":19097:19126   */\n      tag_376\n      jump\t// in\n    tag_600:\n        /* \"#utility.yul\":19089:19126   */\n      swap2\n      pop\n        /* \"#utility.yul\":19159:19162   */\n      dup3\n        /* \"#utility.yul\":19156:19157   */\n      0x02\n        /* \"#utility.yul\":19152:19163   */\n      mul\n        /* \"#utility.yul\":19146:19150   */\n      dup3\n        /* \"#utility.yul\":19143:19164   */\n      or\n        /* \"#utility.yul\":19135:19164   */\n      swap1\n      pop\n        /* \"#utility.yul\":18875:19170   */\n      swap3\n      swap2\n      pop\n      pop\n      jump\t// out\n        /* \"#utility.yul\":19175:20570   */\n    tag_118:\n        /* \"#utility.yul\":19292:19329   */\n      tag_602\n        /* \"#utility.yul\":19325:19328   */\n      dup3\n        /* \"#utility.yul\":19292:19329   */\n      tag_352\n      jump\t// in\n    tag_602:\n        /* \"#utility.yul\":19394:19412   */\n      0xffffffffffffffff\n        /* \"#utility.yul\":19386:19392   */\n      dup2\n        /* \"#utility.yul\":19383:19413   */\n      gt\n        /* \"#utility.yul\":19380:19436   */\n      iszero\n      tag_603\n      jumpi\n        /* \"#utility.yul\":19416:19434   */\n      tag_604\n      tag_113\n      jump\t// in\n    tag_604:\n        /* \"#utility.yul\":19380:19436   */\n    tag_603:\n        /* \"#utility.yul\":19460:19498   */\n      tag_605\n        /* \"#utility.yul\":19492:19496   */\n      dup3\n        /* \"#utility.yul\":19486:19497   */\n      sload\n        /* \"#utility.yul\":19460:19498   */\n      tag_155\n      jump\t// in\n    tag_605:\n        /* \"#utility.yul\":19545:19612   */\n      tag_606\n        /* \"#utility.yul\":19605:19611   */\n      dup3\n        /* \"#utility.yul\":19597:19603   */\n      dup3\n        /* \"#utility.yul\":19591:19595   */\n      dup6\n        /* \"#utility.yul\":19545:19612   */\n      tag_374\n      jump\t// in\n    tag_606:\n        /* \"#utility.yul\":19639:19640   */\n      0x00\n        /* \"#utility.yul\":19663:19667   */\n      0x20\n        /* \"#utility.yul\":19650:19667   */\n      swap1\n      pop\n        /* \"#utility.yul\":19695:19697   */\n      0x1f\n        /* \"#utility.yul\":19687:19693   */\n      dup4\n        /* \"#utility.yul\":19684:19698   */\n      gt\n        /* \"#utility.yul\":19712:19713   */\n      0x01\n        /* \"#utility.yul\":19707:20325   */\n      dup2\n      eq\n      tag_608\n      jumpi\n        /* \"#utility.yul\":20369:20370   */\n      0x00\n        /* \"#utility.yul\":20386:20392   */\n      dup5\n        /* \"#utility.yul\":20383:20460   */\n      iszero\n      tag_609\n      jumpi\n        /* \"#utility.yul\":20435:20444   */\n      dup3\n        /* \"#utility.yul\":20430:20433   */\n      dup8\n        /* \"#utility.yul\":20426:20445   */\n      add\n        /* \"#utility.yul\":20420:20446   */\n      mload\n        /* \"#utility.yul\":20411:20446   */\n      swap1\n      pop\n        /* \"#utility.yul\":20383:20460   */\n    tag_609:\n        /* \"#utility.yul\":20486:20553   */\n      tag_610\n        /* \"#utility.yul\":20546:20552   */\n      dup6\n        /* \"#utility.yul\":20539:20544   */\n      dup3\n        /* \"#utility.yul\":20486:20553   */\n      tag_377\n      jump\t// in\n    tag_610:\n        /* \"#utility.yul\":20480:20484   */\n      dup7\n        /* \"#utility.yul\":20473:20554   */\n      sstore\n        /* \"#utility.yul\":20342:20564   */\n      pop\n        /* \"#utility.yul\":19677:20564   */\n      jump(tag_607)\n        /* \"#utility.yul\":19707:20325   */\n    tag_608:\n        /* \"#utility.yul\":19759:19763   */\n      0x1f\n        /* \"#utility.yul\":19755:19764   */\n      not\n        /* \"#utility.yul\":19747:19753   */\n      dup5\n        /* \"#utility.yul\":19743:19765   */\n      and\n        /* \"#utility.yul\":19793:19830   */\n      tag_611\n        /* \"#utility.yul\":19825:19829   */\n      dup7\n        /* \"#utility.yul\":19793:19830   */\n      tag_363\n      jump\t// in\n    tag_611:\n        /* \"#utility.yul\":19852:19853   */\n      0x00\n        /* \"#utility.yul\":19866:20074   */\n    tag_612:\n        /* \"#utility.yul\":19880:19887   */\n      dup3\n        /* \"#utility.yul\":19877:19878   */\n      dup2\n        /* \"#utility.yul\":19874:19888   */\n      lt\n        /* \"#utility.yul\":19866:20074   */\n      iszero\n      tag_614\n      jumpi\n        /* \"#utility.yul\":19959:19968   */\n      dup5\n        /* \"#utility.yul\":19954:19957   */\n      dup10\n        /* \"#utility.yul\":19950:19969   */\n      add\n        /* \"#utility.yul\":19944:19970   */\n      mload\n        /* \"#utility.yul\":19936:19942   */\n      dup3\n        /* \"#utility.yul\":19929:19971   */\n      sstore\n        /* \"#utility.yul\":20010:20011   */\n      0x01\n        /* \"#utility.yul\":20002:20008   */\n      dup3\n        /* \"#utility.yul\":19998:20012   */\n      add\n        /* \"#utility.yul\":19988:20012   */\n      swap2\n      pop\n        /* \"#utility.yul\":20057:20059   */\n      0x20\n        /* \"#utility.yul\":20046:20055   */\n      dup6\n        /* \"#utility.yul\":20042:20060   */\n      add\n        /* \"#utility.yul\":20029:20060   */\n      swap5\n      pop\n        /* \"#utility.yul\":19903:19907   */\n      0x20\n        /* \"#utility.yul\":19900:19901   */\n      dup2\n        /* \"#utility.yul\":19896:19908   */\n      add\n        /* \"#utility.yul\":19891:19908   */\n      swap1\n      pop\n        /* \"#utility.yul\":19866:20074   */\n      jump(tag_612)\n    tag_614:\n        /* \"#utility.yul\":20102:20108   */\n      dup7\n        /* \"#utility.yul\":20093:20100   */\n      dup4\n        /* \"#utility.yul\":20090:20109   */\n      lt\n        /* \"#utility.yul\":20087:20266   */\n      iszero\n      tag_615\n      jumpi\n        /* \"#utility.yul\":20160:20169   */\n      dup5\n        /* \"#utility.yul\":20155:20158   */\n      dup10\n        /* \"#utility.yul\":20151:20170   */\n      add\n        /* \"#utility.yul\":20145:20171   */\n      mload\n        /* \"#utility.yul\":20203:20251   */\n      tag_616\n        /* \"#utility.yul\":20245:20249   */\n      0x1f\n        /* \"#utility.yul\":20237:20243   */\n      dup10\n        /* \"#utility.yul\":20233:20250   */\n      and\n        /* \"#utility.yul\":20222:20231   */\n      dup3\n        /* \"#utility.yul\":20203:20251   */\n      tag_376\n      jump\t// in\n    tag_616:\n        /* \"#utility.yul\":20195:20201   */\n      dup4\n        /* \"#utility.yul\":20188:20252   */\n      sstore\n        /* \"#utility.yul\":20110:20266   */\n      pop\n        /* \"#utility.yul\":20087:20266   */\n    tag_615:\n        /* \"#utility.yul\":20312:20313   */\n      0x01\n        /* \"#utility.yul\":20308:20309   */\n      0x02\n        /* \"#utility.yul\":20300:20306   */\n      dup9\n        /* \"#utility.yul\":20296:20310   */\n      mul\n        /* \"#utility.yul\":20292:20314   */\n      add\n        /* \"#utility.yul\":20286:20290   */\n      dup9\n        /* \"#utility.yul\":20279:20315   */\n      sstore\n        /* \"#utility.yul\":19714:20325   */\n      pop\n      pop\n      pop\n        /* \"#utility.yul\":19677:20564   */\n    tag_607:\n      pop\n        /* \"#utility.yul\":19267:20570   */\n      pop\n      pop\n      pop\n        /* \"#utility.yul\":19175:20570   */\n      pop\n      pop\n      jump\t// out\n        /* \"#utility.yul\":20576:20756   */\n    tag_378:\n        /* \"#utility.yul\":20624:20701   */\n      0x4e487b7100000000000000000000000000000000000000000000000000000000\n        /* \"#utility.yul\":20621:20622   */\n      0x00\n        /* \"#utility.yul\":20614:20702   */\n      mstore\n        /* \"#utility.yul\":20721:20725   */\n      0x11\n        /* \"#utility.yul\":20718:20719   */\n      0x04\n        /* \"#utility.yul\":20711:20726   */\n      mstore\n        /* \"#utility.yul\":20745:20749   */\n      0x24\n        /* \"#utility.yul\":20742:20743   */\n      0x00\n        /* \"#utility.yul\":20735:20750   */\n      revert\n        /* \"#utility.yul\":20762:20995   */\n    tag_123:\n        /* \"#utility.yul\":20801:20804   */\n      0x00\n        /* \"#utility.yul\":20824:20848   */\n      tag_619\n        /* \"#utility.yul\":20842:20847   */\n      dup3\n        /* \"#utility.yul\":20824:20848   */\n      tag_347\n      jump\t// in\n    tag_619:\n        /* \"#utility.yul\":20815:20848   */\n      swap2\n      pop\n        /* \"#utility.yul\":20870:20936   */\n      0xffffffffffffffffffffffffffffffffffffffffffffffffffffffffffffffff\n        /* \"#utility.yul\":20863:20868   */\n      dup3\n        /* \"#utility.yul\":20860:20937   */\n      sub\n        /* \"#utility.yul\":20857:20960   */\n      tag_620\n      jumpi\n        /* \"#utility.yul\":20940:20958   */\n      tag_621\n      tag_378\n      jump\t// in\n    tag_621:\n        /* \"#utility.yul\":20857:20960   */\n    tag_620:\n        /* \"#utility.yul\":20987:20988   */\n      0x01\n        /* \"#utility.yul\":20980:20985   */\n      dup3\n        /* \"#utility.yul\":20976:20989   */\n      add\n        /* \"#utility.yul\":20969:20989   */\n      swap1\n      pop\n        /* \"#utility.yul\":20762:20995   */\n      swap2\n      swap1\n      pop\n      jump\t// out\n        /* \"#utility.yul\":21001:21086   */\n    tag_379:\n        /* \"#utility.yul\":21046:21053   */\n      0x00\n        /* \"#utility.yul\":21075:21080   */\n      dup2\n        /* \"#utility.yul\":21064:21080   */\n      swap1\n      pop\n        /* \"#utility.yul\":21001:21086   */\n      swap2\n      swap1\n      pop\n      jump\t// out\n        /* \"#utility.yul\":21092:21250   */\n    tag_380:\n        /* \"#utility.yul\":21150:21159   */\n      0x00\n        /* \"#utility.yul\":21183:21244   */\n      tag_624\n        /* \"#utility.yul\":21201:21243   */\n      tag_625\n        /* \"#utility.yul\":21210:21242   */\n      tag_626\n        /* \"#utility.yul\":21236:21241   */\n      dup5\n        /* \"#utility.yul\":21210:21242   */\n      tag_379\n      jump\t// in\n    tag_626:\n        /* \"#utility.yul\":21201:21243   */\n      tag_367\n      jump\t// in\n    tag_625:\n        /* \"#utility.yul\":21183:21244   */\n      tag_347\n      jump\t// in\n    tag_624:\n        /* \"#utility.yul\":21170:21244   */\n      swap1\n      pop\n        /* \"#utility.yul\":21092:21250   */\n      swap2\n      swap1\n      pop\n      jump\t// out\n        /* \"#utility.yul\":21256:21403   */\n    tag_381:\n        /* \"#utility.yul\":21351:21396   */\n      tag_628\n        /* \"#utility.yul\":21390:21395   */\n      dup2\n        /* \"#utility.yul\":21351:21396   */\n      tag_380\n      jump\t// in\n    tag_628:\n        /* \"#utility.yul\":21346:21349   */\n      dup3\n        /* \"#utility.yul\":21339:21397   */\n      mstore\n        /* \"#utility.yul\":21256:21403   */\n      pop\n      pop\n      jump\t// out\n        /* \"#utility.yul\":21409:21867   */\n    tag_127:\n        /* \"#utility.yul\":21566:21570   */\n      0x00\n        /* \"#utility.yul\":21604:21606   */\n      0x60\n        /* \"#utility.yul\":21593:21602   */\n      dup3\n        /* \"#utility.yul\":21589:21607   */\n      add\n        /* \"#utility.yul\":21581:21607   */\n      swap1\n      pop\n        /* \"#utility.yul\":21617:21688   */\n      tag_630\n        /* \"#utility.yul\":21685:21686   */\n      0x00\n        /* \"#utility.yul\":21674:21683   */\n      dup4\n        /* \"#utility.yul\":21670:21687   */\n      add\n        /* \"#utility.yul\":21661:21667   */\n      dup7\n        /* \"#utility.yul\":21617:21688   */\n      tag_351\n      jump\t// in\n    tag_630:\n        /* \"#utility.yul\":21698:21778   */\n      tag_631\n        /* \"#utility.yul\":21774:21776   */\n      0x20\n        /* \"#utility.yul\":21763:21772   */\n      dup4\n        /* \"#utility.yul\":21759:21777   */\n      add\n        /* \"#utility.yul\":21750:21756   */\n      dup6\n        /* \"#utility.yul\":21698:21778   */\n      tag_381\n      jump\t// in\n    tag_631:\n        /* \"#utility.yul\":21788:21860   */\n      tag_632\n        /* \"#utility.yul\":21856:21858   */\n      0x40\n        /* \"#utility.yul\":21845:21854   */\n      dup4\n        /* \"#utility.yul\":21841:21859   */\n      add\n        /* \"#utility.yul\":21832:21838   */\n      dup5\n        /* \"#utility.yul\":21788:21860   */\n      tag_351\n      jump\t// in\n    tag_632:\n        /* \"#utility.yul\":21409:21867   */\n      swap5\n      swap4\n      pop\n      pop\n      pop\n      pop\n      jump\t// out\n        /* \"#utility.yul\":21873:22044   */\n    tag_382:\n        /* \"#utility.yul\":22013:22036   */\n      0x55706c696e6520646f6573206e6f742065786973740000000000000000000000\n        /* \"#utility.yul\":22009:22010   */\n      0x00\n        /* \"#utility.yul\":22001:22007   */\n      dup3\n        /* \"#utility.yul\":21997:22011   */\n      add\n        /* \"#utility.yul\":21990:22037   */\n      mstore\n        /* \"#utility.yul\":21873:22044   */\n      pop\n      jump\t// out\n        /* \"#utility.yul\":22050:22416   */\n    tag_383:\n        /* \"#utility.yul\":22192:22195   */\n      0x00\n        /* \"#utility.yul\":22213:22280   */\n      tag_635\n        /* \"#utility.yul\":22277:22279   */\n      0x15\n        /* \"#utility.yul\":22272:22275   */\n      dup4\n        /* \"#utility.yul\":22213:22280   */\n      tag_353\n      jump\t// in\n    tag_635:\n        /* \"#utility.yul\":22206:22280   */\n      swap2\n      pop\n        /* \"#utility.yul\":22289:22382   */\n      tag_636\n        /* \"#utility.yul\":22378:22381   */\n      dup3\n        /* \"#utility.yul\":22289:22382   */\n      tag_382\n      jump\t// in\n    tag_636:\n        /* \"#utility.yul\":22407:22409   */\n      0x20\n        /* \"#utility.yul\":22402:22405   */\n      dup3\n        /* \"#utility.yul\":22398:22410   */\n      add\n        /* \"#utility.yul\":22391:22410   */\n      swap1\n      pop\n        /* \"#utility.yul\":22050:22416   */\n      swap2\n      swap1\n      pop\n      jump\t// out\n        /* \"#utility.yul\":22422:22841   */\n    tag_131:\n        /* \"#utility.yul\":22588:22592   */\n      0x00\n        /* \"#utility.yul\":22626:22628   */\n      0x20\n        /* \"#utility.yul\":22615:22624   */\n      dup3\n        /* \"#utility.yul\":22611:22629   */\n      add\n        /* \"#utility.yul\":22603:22629   */\n      swap1\n      pop\n        /* \"#utility.yul\":22675:22684   */\n      dup2\n        /* \"#utility.yul\":22669:22673   */\n      dup2\n        /* \"#utility.yul\":22665:22685   */\n      sub\n        /* \"#utility.yul\":22661:22662   */\n      0x00\n        /* \"#utility.yul\":22650:22659   */\n      dup4\n        /* \"#utility.yul\":22646:22663   */\n      add\n        /* \"#utility.yul\":22639:22686   */\n      mstore\n        /* \"#utility.yul\":22703:22834   */\n      tag_638\n        /* \"#utility.yul\":22829:22833   */\n      dup2\n        /* \"#utility.yul\":22703:22834   */\n      tag_383\n      jump\t// in\n    tag_638:\n        /* \"#utility.yul\":22695:22834   */\n      swap1\n      pop\n        /* \"#utility.yul\":22422:22841   */\n      swap2\n      swap1\n      pop\n      jump\t// out\n        /* \"#utility.yul\":22847:22995   */\n    tag_384:\n        /* \"#utility.yul\":22949:22960   */\n      0x00\n        /* \"#utility.yul\":22986:22989   */\n      dup2\n        /* \"#utility.yul\":22971:22989   */\n      swap1\n      pop\n        /* \"#utility.yul\":22847:22995   */\n      swap3\n      swap2\n      pop\n      pop\n      jump\t// out\n        /* \"#utility.yul\":23001:23391   */\n    tag_385:\n        /* \"#utility.yul\":23107:23110   */\n      0x00\n        /* \"#utility.yul\":23135:23174   */\n      tag_641\n        /* \"#utility.yul\":23168:23173   */\n      dup3\n        /* \"#utility.yul\":23135:23174   */\n      tag_352\n      jump\t// in\n    tag_641:\n        /* \"#utility.yul\":23190:23279   */\n      tag_642\n        /* \"#utility.yul\":23272:23278   */\n      dup2\n        /* \"#utility.yul\":23267:23270   */\n      dup6\n        /* \"#utility.yul\":23190:23279   */\n      tag_384\n      jump\t// in\n    tag_642:\n        /* \"#utility.yul\":23183:23279   */\n      swap4\n      pop\n        /* \"#utility.yul\":23288:23353   */\n      tag_643\n        /* \"#utility.yul\":23346:23352   */\n      dup2\n        /* \"#utility.yul\":23341:23344   */\n      dup6\n        /* \"#utility.yul\":23334:23338   */\n      0x20\n        /* \"#utility.yul\":23327:23332   */\n      dup7\n        /* \"#utility.yul\":23323:23339   */\n      add\n        /* \"#utility.yul\":23288:23353   */\n      tag_354\n      jump\t// in\n    tag_643:\n        /* \"#utility.yul\":23378:23384   */\n      dup1\n        /* \"#utility.yul\":23373:23376   */\n      dup5\n        /* \"#utility.yul\":23369:23385   */\n      add\n        /* \"#utility.yul\":23362:23385   */\n      swap2\n      pop\n        /* \"#utility.yul\":23111:23391   */\n      pop\n        /* \"#utility.yul\":23001:23391   */\n      swap3\n      swap2\n      pop\n      pop\n      jump\t// out\n        /* \"#utility.yul\":23397:23672   */\n    tag_133:\n        /* \"#utility.yul\":23529:23532   */\n      0x00\n        /* \"#utility.yul\":23551:23646   */\n      tag_645\n        /* \"#utility.yul\":23642:23645   */\n      dup3\n        /* \"#utility.yul\":23633:23639   */\n      dup5\n        /* \"#utility.yul\":23551:23646   */\n      tag_385\n      jump\t// in\n    tag_645:\n        /* \"#utility.yul\":23544:23646   */\n      swap2\n      pop\n        /* \"#utility.yul\":23663:23666   */\n      dup2\n        /* \"#utility.yul\":23656:23666   */\n      swap1\n      pop\n        /* \"#utility.yul\":23397:23672   */\n      swap3\n      swap2\n      pop\n      pop\n      jump\t// out\n        /* \"#utility.yul\":23678:24120   */\n    tag_150:\n        /* \"#utility.yul\":23827:23831   */\n      0x00\n        /* \"#utility.yul\":23865:23867   */\n      0x60\n        /* \"#utility.yul\":23854:23863   */\n      dup3\n        /* \"#utility.yul\":23850:23868   */\n      add\n        /* \"#utility.yul\":23842:23868   */\n      swap1\n      pop\n        /* \"#utility.yul\":23878:23949   */\n      tag_647\n        /* \"#utility.yul\":23946:23947   */\n      0x00\n        /* \"#utility.yul\":23935:23944   */\n      dup4\n        /* \"#utility.yul\":23931:23948   */\n      add\n        /* \"#utility.yul\":23922:23928   */\n      dup7\n        /* \"#utility.yul\":23878:23949   */\n      tag_351\n      jump\t// in\n    tag_647:\n        /* \"#utility.yul\":23959:24031   */\n      tag_648\n        /* \"#utility.yul\":24027:24029   */\n      0x20\n        /* \"#utility.yul\":24016:24025   */\n      dup4\n        /* \"#utility.yul\":24012:24030   */\n      add\n        /* \"#utility.yul\":24003:24009   */\n      dup6\n        /* \"#utility.yul\":23959:24031   */\n      tag_351\n      jump\t// in\n    tag_648:\n        /* \"#utility.yul\":24041:24113   */\n      tag_649\n        /* \"#utility.yul\":24109:24111   */\n      0x40\n        /* \"#utility.yul\":24098:24107   */\n      dup4\n        /* \"#utility.yul\":24094:24112   */\n      add\n        /* \"#utility.yul\":24085:24091   */\n      dup5\n        /* \"#utility.yul\":24041:24113   */\n      tag_351\n      jump\t// in\n    tag_649:\n        /* \"#utility.yul\":23678:24120   */\n      swap5\n      swap4\n      pop\n      pop\n      pop\n      pop\n      jump\t// out\n        /* \"#utility.yul\":24126:24289   */\n    tag_386:\n        /* \"#utility.yul\":24266:24281   */\n      0x496e76616c6964206c6576656c00000000000000000000000000000000000000\n        /* \"#utility.yul\":24262:24263   */\n      0x00\n        /* \"#utility.yul\":24254:24260   */\n      dup3\n        /* \"#utility.yul\":24250:24264   */\n      add\n        /* \"#utility.yul\":24243:24282   */\n      mstore\n        /* \"#utility.yul\":24126:24289   */\n      pop\n      jump\t// out\n        /* \"#utility.yul\":24295:24661   */\n    tag_387:\n        /* \"#utility.yul\":24437:24440   */\n      0x00\n        /* \"#utility.yul\":24458:24525   */\n      tag_652\n        /* \"#utility.yul\":24522:24524   */\n      0x0d\n        /* \"#utility.yul\":24517:24520   */\n      dup4\n        /* \"#utility.yul\":24458:24525   */\n      tag_353\n      jump\t// in\n    tag_652:\n        /* \"#utility.yul\":24451:24525   */\n      swap2\n      pop\n        /* \"#utility.yul\":24534:24627   */\n      tag_653\n        /* \"#utility.yul\":24623:24626   */\n      dup3\n        /* \"#utility.yul\":24534:24627   */\n      tag_386\n      jump\t// in\n    tag_653:\n        /* \"#utility.yul\":24652:24654   */\n      0x20\n        /* \"#utility.yul\":24647:24650   */\n      dup3\n        /* \"#utility.yul\":24643:24655   */\n      add\n        /* \"#utility.yul\":24636:24655   */\n      swap1\n      pop\n        /* \"#utility.yul\":24295:24661   */\n      swap2\n      swap1\n      pop\n      jump\t// out\n        /* \"#utility.yul\":24667:25086   */\n    tag_180:\n        /* \"#utility.yul\":24833:24837   */\n      0x00\n        /* \"#utility.yul\":24871:24873   */\n      0x20\n        /* \"#utility.yul\":24860:24869   */\n      dup3\n        /* \"#utility.yul\":24856:24874   */\n      add\n        /* \"#utility.yul\":24848:24874   */\n      swap1\n      pop\n        /* \"#utility.yul\":24920:24929   */\n      dup2\n        /* \"#utility.yul\":24914:24918   */\n      dup2\n        /* \"#utility.yul\":24910:24930   */\n      sub\n        /* \"#utility.yul\":24906:24907   */\n      0x00\n        /* \"#utility.yul\":24895:24904   */\n      dup4\n        /* \"#utility.yul\":24891:24908   */\n      add\n        /* \"#utility.yul\":24884:24931   */\n      mstore\n        /* \"#utility.yul\":24948:25079   */\n      tag_655\n        /* \"#utility.yul\":25074:25078   */\n      dup2\n        /* \"#utility.yul\":24948:25079   */\n      tag_387\n      jump\t// in\n    tag_655:\n        /* \"#utility.yul\":24940:25079   */\n      swap1\n      pop\n        /* \"#utility.yul\":24667:25086   */\n      swap2\n      swap1\n      pop\n      jump\t// out\n        /* \"#utility.yul\":25092:25321   */\n    tag_388:\n        /* \"#utility.yul\":25232:25266   */\n      0x43616e6e6f7420646f776e6772616465206f7220737461792061742074686520\n        /* \"#utility.yul\":25228:25229   */\n      0x00\n        /* \"#utility.yul\":25220:25226   */\n      dup3\n        /* \"#utility.yul\":25216:25230   */\n      add\n        /* \"#utility.yul\":25209:25267   */\n      mstore\n        /* \"#utility.yul\":25301:25313   */\n      0x73616d65206c6576656c00000000000000000000000000000000000000000000\n        /* \"#utility.yul\":25296:25298   */\n      0x20\n        /* \"#utility.yul\":25288:25294   */\n      dup3\n        /* \"#utility.yul\":25284:25299   */\n      add\n        /* \"#utility.yul\":25277:25314   */\n      mstore\n        /* \"#utility.yul\":25092:25321   */\n      pop\n      jump\t// out\n        /* \"#utility.yul\":25327:25693   */\n    tag_389:\n        /* \"#utility.yul\":25469:25472   */\n      0x00\n        /* \"#utility.yul\":25490:25557   */\n      tag_658\n        /* \"#utility.yul\":25554:25556   */\n      0x2a\n        /* \"#utility.yul\":25549:25552   */\n      dup4\n        /* \"#utility.yul\":25490:25557   */\n      tag_353\n      jump\t// in\n    tag_658:\n        /* \"#utility.yul\":25483:25557   */\n      swap2\n      pop\n        /* \"#utility.yul\":25566:25659   */\n      tag_659\n        /* \"#utility.yul\":25655:25658   */\n      dup3\n        /* \"#utility.yul\":25566:25659   */\n      tag_388\n      jump\t// in\n    tag_659:\n        /* \"#utility.yul\":25684:25686   */\n      0x40\n        /* \"#utility.yul\":25679:25682   */\n      dup3\n        /* \"#utility.yul\":25675:25687   */\n      add\n        /* \"#utility.yul\":25668:25687   */\n      swap1\n      pop\n        /* \"#utility.yul\":25327:25693   */\n      swap2\n      swap1\n      pop\n      jump\t// out\n        /* \"#utility.yul\":25699:26118   */\n    tag_184:\n        /* \"#utility.yul\":25865:25869   */\n      0x00\n        /* \"#utility.yul\":25903:25905   */\n      0x20\n        /* \"#utility.yul\":25892:25901   */\n      dup3\n        /* \"#utility.yul\":25888:25906   */\n      add\n        /* \"#utility.yul\":25880:25906   */\n      swap1\n      pop\n        /* \"#utility.yul\":25952:25961   */\n      dup2\n        /* \"#utility.yul\":25946:25950   */\n      dup2\n        /* \"#utility.yul\":25942:25962   */\n      sub\n        /* \"#utility.yul\":25938:25939   */\n      0x00\n        /* \"#utility.yul\":25927:25936   */\n      dup4\n        /* \"#utility.yul\":25923:25940   */\n      add\n        /* \"#utility.yul\":25916:25963   */\n      mstore\n        /* \"#utility.yul\":25980:26111   */\n      tag_661\n        /* \"#utility.yul\":26106:26110   */\n      dup2\n        /* \"#utility.yul\":25980:26111   */\n      tag_389\n      jump\t// in\n    tag_661:\n        /* \"#utility.yul\":25972:26111   */\n      swap1\n      pop\n        /* \"#utility.yul\":25699:26118   */\n      swap2\n      swap1\n      pop\n      jump\t// out\n        /* \"#utility.yul\":26124:26534   */\n    tag_188:\n        /* \"#utility.yul\":26164:26171   */\n      0x00\n        /* \"#utility.yul\":26187:26207   */\n      tag_663\n        /* \"#utility.yul\":26205:26206   */\n      dup3\n        /* \"#utility.yul\":26187:26207   */\n      tag_347\n      jump\t// in\n    tag_663:\n        /* \"#utility.yul\":26182:26207   */\n      swap2\n      pop\n        /* \"#utility.yul\":26221:26241   */\n      tag_664\n        /* \"#utility.yul\":26239:26240   */\n      dup4\n        /* \"#utility.yul\":26221:26241   */\n      tag_347\n      jump\t// in\n    tag_664:\n        /* \"#utility.yul\":26216:26241   */\n      swap3\n      pop\n        /* \"#utility.yul\":26276:26277   */\n      dup3\n        /* \"#utility.yul\":26273:26274   */\n      dup3\n        /* \"#utility.yul\":26269:26278   */\n      mul\n        /* \"#utility.yul\":26298:26328   */\n      tag_665\n        /* \"#utility.yul\":26316:26327   */\n      dup2\n        /* \"#utility.yul\":26298:26328   */\n      tag_347\n      jump\t// in\n    tag_665:\n        /* \"#utility.yul\":26287:26328   */\n      swap2\n      pop\n        /* \"#utility.yul\":26477:26478   */\n      dup3\n        /* \"#utility.yul\":26468:26475   */\n      dup3\n        /* \"#utility.yul\":26464:26479   */\n      div\n        /* \"#utility.yul\":26461:26462   */\n      dup5\n        /* \"#utility.yul\":26458:26480   */\n      eq\n        /* \"#utility.yul\":26438:26439   */\n      dup4\n        /* \"#utility.yul\":26431:26440   */\n      iszero\n        /* \"#utility.yul\":26411:26494   */\n      or\n        /* \"#utility.yul\":26388:26527   */\n      tag_666\n      jumpi\n        /* \"#utility.yul\":26507:26525   */\n      tag_667\n      tag_378\n      jump\t// in\n    tag_667:\n        /* \"#utility.yul\":26388:26527   */\n    tag_666:\n        /* \"#utility.yul\":26172:26534   */\n      pop\n        /* \"#utility.yul\":26124:26534   */\n      swap3\n      swap2\n      pop\n      pop\n      jump\t// out\n        /* \"#utility.yul\":26540:26720   */\n    tag_390:\n        /* \"#utility.yul\":26588:26665   */\n      0x4e487b7100000000000000000000000000000000000000000000000000000000\n        /* \"#utility.yul\":26585:26586   */\n      0x00\n        /* \"#utility.yul\":26578:26666   */\n      mstore\n        /* \"#utility.yul\":26685:26689   */\n      0x12\n        /* \"#utility.yul\":26682:26683   */\n      0x04\n        /* \"#utility.yul\":26675:26690   */\n      mstore\n        /* \"#utility.yul\":26709:26713   */\n      0x24\n        /* \"#utility.yul\":26706:26707   */\n      0x00\n        /* \"#utility.yul\":26699:26714   */\n      revert\n        /* \"#utility.yul\":26726:26911   */\n    tag_190:\n        /* \"#utility.yul\":26766:26767   */\n      0x00\n        /* \"#utility.yul\":26783:26803   */\n      tag_670\n        /* \"#utility.yul\":26801:26802   */\n      dup3\n        /* \"#utility.yul\":26783:26803   */\n      tag_347\n      jump\t// in\n    tag_670:\n        /* \"#utility.yul\":26778:26803   */\n      swap2\n      pop\n        /* \"#utility.yul\":26817:26837   */\n      tag_671\n        /* \"#utility.yul\":26835:26836   */\n      dup4\n        /* \"#utility.yul\":26817:26837   */\n      tag_347\n      jump\t// in\n    tag_671:\n        /* \"#utility.yul\":26812:26837   */\n      swap3\n      pop\n        /* \"#utility.yul\":26856:26857   */\n      dup3\n        /* \"#utility.yul\":26846:26881   */\n      tag_672\n      jumpi\n        /* \"#utility.yul\":26861:26879   */\n      tag_673\n      tag_390\n      jump\t// in\n    tag_673:\n        /* \"#utility.yul\":26846:26881   */\n    tag_672:\n        /* \"#utility.yul\":26903:26904   */\n      dup3\n        /* \"#utility.yul\":26900:26901   */\n      dup3\n        /* \"#utility.yul\":26896:26905   */\n      div\n        /* \"#utility.yul\":26891:26905   */\n      swap1\n      pop\n        /* \"#utility.yul\":26726:26911   */\n      swap3\n      swap2\n      pop\n      pop\n      jump\t// out\n        /* \"#utility.yul\":26917:27111   */\n    tag_192:\n        /* \"#utility.yul\":26957:26961   */\n      0x00\n        /* \"#utility.yul\":26977:26997   */\n      tag_675\n        /* \"#utility.yul\":26995:26996   */\n      dup3\n        /* \"#utility.yul\":26977:26997   */\n      tag_347\n      jump\t// in\n    tag_675:\n        /* \"#utility.yul\":26972:26997   */\n      swap2\n      pop\n        /* \"#utility.yul\":27011:27031   */\n      tag_676\n        /* \"#utility.yul\":27029:27030   */\n      dup4\n        /* \"#utility.yul\":27011:27031   */\n      tag_347\n      jump\t// in\n    tag_676:\n        /* \"#utility.yul\":27006:27031   */\n      swap3\n      pop\n        /* \"#utility.yul\":27055:27056   */\n      dup3\n        /* \"#utility.yul\":27052:27053   */\n      dup3\n        /* \"#utility.yul\":27048:27057   */\n      sub\n        /* \"#utility.yul\":27040:27057   */\n      swap1\n      pop\n        /* \"#utility.yul\":27079:27080   */\n      dup2\n        /* \"#utility.yul\":27073:27077   */\n      dup2\n        /* \"#utility.yul\":27070:27081   */\n      gt\n        /* \"#utility.yul\":27067:27104   */\n      iszero\n      tag_677\n      jumpi\n        /* \"#utility.yul\":27084:27102   */\n      tag_678\n      tag_378\n      jump\t// in\n    tag_678:\n        /* \"#utility.yul\":27067:27104   */\n    tag_677:\n        /* \"#utility.yul\":26917:27111   */\n      swap3\n      swap2\n      pop\n      pop\n      jump\t// out\n        /* \"#utility.yul\":27117:27264   */\n    tag_391:\n        /* \"#utility.yul\":27218:27229   */\n      0x00\n        /* \"#utility.yul\":27255:27258   */\n      dup2\n        /* \"#utility.yul\":27240:27258   */\n      swap1\n      pop\n        /* \"#utility.yul\":27117:27264   */\n      swap3\n      swap2\n      pop\n      pop\n      jump\t// out\n        /* \"#utility.yul\":27270:27384   */\n    tag_392:\n      pop\n      jump\t// out\n        /* \"#utility.yul\":27390:27788   */\n    tag_393:\n        /* \"#utility.yul\":27549:27552   */\n      0x00\n        /* \"#utility.yul\":27570:27653   */\n      tag_682\n        /* \"#utility.yul\":27651:27652   */\n      0x00\n        /* \"#utility.yul\":27646:27649   */\n      dup4\n        /* \"#utility.yul\":27570:27653   */\n      tag_391\n      jump\t// in\n    tag_682:\n        /* \"#utility.yul\":27563:27653   */\n      swap2\n      pop\n        /* \"#utility.yul\":27662:27755   */\n      tag_683\n        /* \"#utility.yul\":27751:27754   */\n      dup3\n        /* \"#utility.yul\":27662:27755   */\n      tag_392\n      jump\t// in\n    tag_683:\n        /* \"#utility.yul\":27780:27781   */\n      0x00\n        /* \"#utility.yul\":27775:27778   */\n      dup3\n        /* \"#utility.yul\":27771:27782   */\n      add\n        /* \"#utility.yul\":27764:27782   */\n      swap1\n      pop\n        /* \"#utility.yul\":27390:27788   */\n      swap2\n      swap1\n      pop\n      jump\t// out\n        /* \"#utility.yul\":27794:28173   */\n    tag_195:\n        /* \"#utility.yul\":27978:27981   */\n      0x00\n        /* \"#utility.yul\":28000:28147   */\n      tag_685\n        /* \"#utility.yul\":28143:28146   */\n      dup3\n        /* \"#utility.yul\":28000:28147   */\n      tag_393\n      jump\t// in\n    tag_685:\n        /* \"#utility.yul\":27993:28147   */\n      swap2\n      pop\n        /* \"#utility.yul\":28164:28167   */\n      dup2\n        /* \"#utility.yul\":28157:28167   */\n      swap1\n      pop\n        /* \"#utility.yul\":27794:28173   */\n      swap2\n      swap1\n      pop\n      jump\t// out\n        /* \"#utility.yul\":28179:28354   */\n    tag_394:\n        /* \"#utility.yul\":28319:28346   */\n      0x5472616e7366657220746f2075706c696e65206661696c656400000000000000\n        /* \"#utility.yul\":28315:28316   */\n      0x00\n        /* \"#utility.yul\":28307:28313   */\n      dup3\n        /* \"#utility.yul\":28303:28317   */\n      add\n        /* \"#utility.yul\":28296:28347   */\n      mstore\n        /* \"#utility.yul\":28179:28354   */\n      pop\n      jump\t// out\n        /* \"#utility.yul\":28360:28726   */\n    tag_395:\n        /* \"#utility.yul\":28502:28505   */\n      0x00\n        /* \"#utility.yul\":28523:28590   */\n      tag_688\n        /* \"#utility.yul\":28587:28589   */\n      0x19\n        /* \"#utility.yul\":28582:28585   */\n      dup4\n        /* \"#utility.yul\":28523:28590   */\n      tag_353\n      jump\t// in\n    tag_688:\n        /* \"#utility.yul\":28516:28590   */\n      swap2\n      pop\n        /* \"#utility.yul\":28599:28692   */\n      tag_689\n        /* \"#utility.yul\":28688:28691   */\n      dup3\n        /* \"#utility.yul\":28599:28692   */\n      tag_394\n      jump\t// in\n    tag_689:\n        /* \"#utility.yul\":28717:28719   */\n      0x20\n        /* \"#utility.yul\":28712:28715   */\n      dup3\n        /* \"#utility.yul\":28708:28720   */\n      add\n        /* \"#utility.yul\":28701:28720   */\n      swap1\n      pop\n        /* \"#utility.yul\":28360:28726   */\n      swap2\n      swap1\n      pop\n      jump\t// out\n        /* \"#utility.yul\":28732:29151   */\n    tag_201:\n        /* \"#utility.yul\":28898:28902   */\n      0x00\n        /* \"#utility.yul\":28936:28938   */\n      0x20\n        /* \"#utility.yul\":28925:28934   */\n      dup3\n        /* \"#utility.yul\":28921:28939   */\n      add\n        /* \"#utility.yul\":28913:28939   */\n      swap1\n      pop\n        /* \"#utility.yul\":28985:28994   */\n      dup2\n        /* \"#utility.yul\":28979:28983   */\n      dup2\n        /* \"#utility.yul\":28975:28995   */\n      sub\n        /* \"#utility.yul\":28971:28972   */\n      0x00\n        /* \"#utility.yul\":28960:28969   */\n      dup4\n        /* \"#utility.yul\":28956:28973   */\n      add\n        /* \"#utility.yul\":28949:28996   */\n      mstore\n        /* \"#utility.yul\":29013:29144   */\n      tag_691\n        /* \"#utility.yul\":29139:29143   */\n      dup2\n        /* \"#utility.yul\":29013:29144   */\n      tag_395\n      jump\t// in\n    tag_691:\n        /* \"#utility.yul\":29005:29144   */\n      swap1\n      pop\n        /* \"#utility.yul\":28732:29151   */\n      swap2\n      swap1\n      pop\n      jump\t// out\n        /* \"#utility.yul\":29157:29348   */\n    tag_203:\n        /* \"#utility.yul\":29197:29200   */\n      0x00\n        /* \"#utility.yul\":29216:29236   */\n      tag_693\n        /* \"#utility.yul\":29234:29235   */\n      dup3\n        /* \"#utility.yul\":29216:29236   */\n      tag_347\n      jump\t// in\n    tag_693:\n        /* \"#utility.yul\":29211:29236   */\n      swap2\n      pop\n        /* \"#utility.yul\":29250:29270   */\n      tag_694\n        /* \"#utility.yul\":29268:29269   */\n      dup4\n        /* \"#utility.yul\":29250:29270   */\n      tag_347\n      jump\t// in\n    tag_694:\n        /* \"#utility.yul\":29245:29270   */\n      swap3\n      pop\n        /* \"#utility.yul\":29293:29294   */\n      dup3\n        /* \"#utility.yul\":29290:29291   */\n      dup3\n        /* \"#utility.yul\":29286:29295   */\n      add\n        /* \"#utility.yul\":29279:29295   */\n      swap1\n      pop\n        /* \"#utility.yul\":29314:29317   */\n      dup1\n        /* \"#utility.yul\":29311:29312   */\n      dup3\n        /* \"#utility.yul\":29308:29318   */\n      gt\n        /* \"#utility.yul\":29305:29341   */\n      iszero\n      tag_695\n      jumpi\n        /* \"#utility.yul\":29321:29339   */\n      tag_696\n      tag_378\n      jump\t// in\n    tag_696:\n        /* \"#utility.yul\":29305:29341   */\n    tag_695:\n        /* \"#utility.yul\":29157:29348   */\n      swap3\n      swap2\n      pop\n      pop\n      jump\t// out\n        /* \"#utility.yul\":29354:29899   */\n    tag_210:\n        /* \"#utility.yul\":29527:29531   */\n      0x00\n        /* \"#utility.yul\":29565:29568   */\n      0x80\n        /* \"#utility.yul\":29554:29563   */\n      dup3\n        /* \"#utility.yul\":29550:29569   */\n      add\n        /* \"#utility.yul\":29542:29569   */\n      swap1\n      pop\n        /* \"#utility.yul\":29579:29646   */\n      tag_698\n        /* \"#utility.yul\":29643:29644   */\n      0x00\n        /* \"#utility.yul\":29632:29641   */\n      dup4\n        /* \"#utility.yul\":29628:29645   */\n      add\n        /* \"#utility.yul\":29619:29625   */\n      dup8\n        /* \"#utility.yul\":29579:29646   */\n      tag_346\n      jump\t// in\n    tag_698:\n        /* \"#utility.yul\":29656:29728   */\n      tag_699\n        /* \"#utility.yul\":29724:29726   */\n      0x20\n        /* \"#utility.yul\":29713:29722   */\n      dup4\n        /* \"#utility.yul\":29709:29727   */\n      add\n        /* \"#utility.yul\":29700:29706   */\n      dup7\n        /* \"#utility.yul\":29656:29728   */\n      tag_351\n      jump\t// in\n    tag_699:\n        /* \"#utility.yul\":29738:29810   */\n      tag_700\n        /* \"#utility.yul\":29806:29808   */\n      0x40\n        /* \"#utility.yul\":29795:29804   */\n      dup4\n        /* \"#utility.yul\":29791:29809   */\n      add\n        /* \"#utility.yul\":29782:29788   */\n      dup6\n        /* \"#utility.yul\":29738:29810   */\n      tag_351\n      jump\t// in\n    tag_700:\n        /* \"#utility.yul\":29820:29892   */\n      tag_701\n        /* \"#utility.yul\":29888:29890   */\n      0x60\n        /* \"#utility.yul\":29877:29886   */\n      dup4\n        /* \"#utility.yul\":29873:29891   */\n      add\n        /* \"#utility.yul\":29864:29870   */\n      dup5\n        /* \"#utility.yul\":29820:29892   */\n      tag_351\n      jump\t// in\n    tag_701:\n        /* \"#utility.yul\":29354:29899   */\n      swap6\n      swap5\n      pop\n      pop\n      pop\n      pop\n      pop\n      jump\t// out\n        /* \"#utility.yul\":29905:30084   */\n    tag_396:\n        /* \"#utility.yul\":30045:30076   */\n      0x496e73756666696369656e7420636f6e74726163742062616c616e6365000000\n        /* \"#utility.yul\":30041:30042   */\n      0x00\n        /* \"#utility.yul\":30033:30039   */\n      dup3\n        /* \"#utility.yul\":30029:30043   */\n      add\n        /* \"#utility.yul\":30022:30077   */\n      mstore\n        /* \"#utility.yul\":29905:30084   */\n      pop\n      jump\t// out\n        /* \"#utility.yul\":30090:30456   */\n    tag_397:\n        /* \"#utility.yul\":30232:30235   */\n      0x00\n        /* \"#utility.yul\":30253:30320   */\n      tag_704\n        /* \"#utility.yul\":30317:30319   */\n      0x1d\n        /* \"#utility.yul\":30312:30315   */\n      dup4\n        /* \"#utility.yul\":30253:30320   */\n      tag_353\n      jump\t// in\n    tag_704:\n        /* \"#utility.yul\":30246:30320   */\n      swap2\n      pop\n        /* \"#utility.yul\":30329:30422   */\n      tag_705\n        /* \"#utility.yul\":30418:30421   */\n      dup3\n        /* \"#utility.yul\":30329:30422   */\n      tag_396\n      jump\t// in\n    tag_705:\n        /* \"#utility.yul\":30447:30449   */\n      0x20\n        /* \"#utility.yul\":30442:30445   */\n      dup3\n        /* \"#utility.yul\":30438:30450   */\n      add\n        /* \"#utility.yul\":30431:30450   */\n      swap1\n      pop\n        /* \"#utility.yul\":30090:30456   */\n      swap2\n      swap1\n      pop\n      jump\t// out\n        /* \"#utility.yul\":30462:30881   */\n    tag_216:\n        /* \"#utility.yul\":30628:30632   */\n      0x00\n        /* \"#utility.yul\":30666:30668   */\n      0x20\n        /* \"#utility.yul\":30655:30664   */\n      dup3\n        /* \"#utility.yul\":30651:30669   */\n      add\n        /* \"#utility.yul\":30643:30669   */\n      swap1\n      pop\n        /* \"#utility.yul\":30715:30724   */\n      dup2\n        /* \"#utility.yul\":30709:30713   */\n      dup2\n        /* \"#utility.yul\":30705:30725   */\n      sub\n        /* \"#utility.yul\":30701:30702   */\n      0x00\n        /* \"#utility.yul\":30690:30699   */\n      dup4\n        /* \"#utility.yul\":30686:30703   */\n      add\n        /* \"#utility.yul\":30679:30726   */\n      mstore\n        /* \"#utility.yul\":30743:30874   */\n      tag_707\n        /* \"#utility.yul\":30869:30873   */\n      dup2\n        /* \"#utility.yul\":30743:30874   */\n      tag_397\n      jump\t// in\n    tag_707:\n        /* \"#utility.yul\":30735:30874   */\n      swap1\n      pop\n        /* \"#utility.yul\":30462:30881   */\n      swap2\n      swap1\n      pop\n      jump\t// out\n        /* \"#utility.yul\":30887:31052   */\n    tag_398:\n        /* \"#utility.yul\":31027:31044   */\n      0x5472616e73666572206661696c65640000000000000000000000000000000000\n        /* \"#utility.yul\":31023:31024   */\n      0x00\n        /* \"#utility.yul\":31015:31021   */\n      dup3\n        /* \"#utility.yul\":31011:31025   */\n      add\n        /* \"#utility.yul\":31004:31045   */\n      mstore\n        /* \"#utility.yul\":30887:31052   */\n      pop\n      jump\t// out\n        /* \"#utility.yul\":31058:31424   */\n    tag_399:\n        /* \"#utility.yul\":31200:31203   */\n      0x00\n        /* \"#utility.yul\":31221:31288   */\n      tag_710\n        /* \"#utility.yul\":31285:31287   */\n      0x0f\n        /* \"#utility.yul\":31280:31283   */\n      dup4\n        /* \"#utility.yul\":31221:31288   */\n      tag_353\n      jump\t// in\n    tag_710:\n        /* \"#utility.yul\":31214:31288   */\n      swap2\n      pop\n        /* \"#utility.yul\":31297:31390   */\n      tag_711\n        /* \"#utility.yul\":31386:31389   */\n      dup3\n        /* \"#utility.yul\":31297:31390   */\n      tag_398\n      jump\t// in\n    tag_711:\n        /* \"#utility.yul\":31415:31417   */\n      0x20\n        /* \"#utility.yul\":31410:31413   */\n      dup3\n        /* \"#utility.yul\":31406:31418   */\n      add\n        /* \"#utility.yul\":31399:31418   */\n      swap1\n      pop\n        /* \"#utility.yul\":31058:31424   */\n      swap2\n      swap1\n      pop\n      jump\t// out\n        /* \"#utility.yul\":31430:31849   */\n    tag_229:\n        /* \"#utility.yul\":31596:31600   */\n      0x00\n        /* \"#utility.yul\":31634:31636   */\n      0x20\n        /* \"#utility.yul\":31623:31632   */\n      dup3\n        /* \"#utility.yul\":31619:31637   */\n      add\n        /* \"#utility.yul\":31611:31637   */\n      swap1\n      pop\n        /* \"#utility.yul\":31683:31692   */\n      dup2\n        /* \"#utility.yul\":31677:31681   */\n      dup2\n        /* \"#utility.yul\":31673:31693   */\n      sub\n        /* \"#utility.yul\":31669:31670   */\n      0x00\n        /* \"#utility.yul\":31658:31667   */\n      dup4\n        /* \"#utility.yul\":31654:31671   */\n      add\n        /* \"#utility.yul\":31647:31694   */\n      mstore\n        /* \"#utility.yul\":31711:31842   */\n      tag_713\n        /* \"#utility.yul\":31837:31841   */\n      dup2\n        /* \"#utility.yul\":31711:31842   */\n      tag_399\n      jump\t// in\n    tag_713:\n        /* \"#utility.yul\":31703:31842   */\n      swap1\n      pop\n        /* \"#utility.yul\":31430:31849   */\n      swap2\n      swap1\n      pop\n      jump\t// out\n        /* \"#utility.yul\":31855:32038   */\n    tag_400:\n        /* \"#utility.yul\":31995:32026   */\n      0x68747470733a2f2f6578616d706c652e636f6d2f726566657272616c2f000000\n        /* \"#utility.yul\":31991:31992   */\n      0x00\n        /* \"#utility.yul\":31983:31989   */\n      dup3\n        /* \"#utility.yul\":31979:31993   */\n      add\n        /* \"#utility.yul\":31972:32027   */\n      mstore\n        /* \"#utility.yul\":31855:32038   */\n      pop\n      jump\t// out\n        /* \"#utility.yul\":32048:32466   */\n    tag_401:\n        /* \"#utility.yul\":32208:32211   */\n      0x00\n        /* \"#utility.yul\":32233:32318   */\n      tag_716\n        /* \"#utility.yul\":32315:32317   */\n      0x1d\n        /* \"#utility.yul\":32310:32313   */\n      dup4\n        /* \"#utility.yul\":32233:32318   */\n      tag_384\n      jump\t// in\n    tag_716:\n        /* \"#utility.yul\":32226:32318   */\n      swap2\n      pop\n        /* \"#utility.yul\":32331:32424   */\n      tag_717\n        /* \"#utility.yul\":32420:32423   */\n      dup3\n        /* \"#utility.yul\":32331:32424   */\n      tag_400\n      jump\t// in\n    tag_717:\n        /* \"#utility.yul\":32453:32455   */\n      0x1d\n        /* \"#utility.yul\":32448:32451   */\n      dup3\n        /* \"#utility.yul\":32444:32456   */\n      add\n        /* \"#utility.yul\":32437:32456   */\n      swap1\n      pop\n        /* \"#utility.yul\":32048:32466   */\n      swap2\n      swap1\n      pop\n      jump\t// out\n        /* \"#utility.yul\":32476:33033   */\n    tag_256:\n        /* \"#utility.yul\":32709:32712   */\n      0x00\n        /* \"#utility.yul\":32735:32883   */\n      tag_719\n        /* \"#utility.yul\":32879:32882   */\n      dup3\n        /* \"#utility.yul\":32735:32883   */\n      tag_401\n      jump\t// in\n    tag_719:\n        /* \"#utility.yul\":32728:32883   */\n      swap2\n      pop\n        /* \"#utility.yul\":32904:32999   */\n      tag_720\n        /* \"#utility.yul\":32995:32998   */\n      dup3\n        /* \"#utility.yul\":32986:32992   */\n      dup5\n        /* \"#utility.yul\":32904:32999   */\n      tag_385\n      jump\t// in\n    tag_720:\n        /* \"#utility.yul\":32897:32999   */\n      swap2\n      pop\n        /* \"#utility.yul\":33020:33023   */\n      dup2\n        /* \"#utility.yul\":33013:33023   */\n      swap1\n      pop\n        /* \"#utility.yul\":32476:33033   */\n      swap3\n      swap2\n      pop\n      pop\n      jump\t// out\n        /* \"#utility.yul\":33043:33239   */\n    tag_303:\n        /* \"#utility.yul\":33075:33076   */\n      0x00\n        /* \"#utility.yul\":33096:33116   */\n      tag_722\n        /* \"#utility.yul\":33114:33115   */\n      dup3\n        /* \"#utility.yul\":33096:33116   */\n      tag_347\n      jump\t// in\n    tag_722:\n        /* \"#utility.yul\":33091:33116   */\n      swap2\n      pop\n        /* \"#utility.yul\":33134:33154   */\n      tag_723\n        /* \"#utility.yul\":33152:33153   */\n      dup4\n        /* \"#utility.yul\":33134:33154   */\n      tag_347\n      jump\t// in\n    tag_723:\n        /* \"#utility.yul\":33129:33154   */\n      swap3\n      pop\n        /* \"#utility.yul\":33177:33178   */\n      dup3\n        /* \"#utility.yul\":33167:33202   */\n      tag_724\n      jumpi\n        /* \"#utility.yul\":33182:33200   */\n      tag_725\n      tag_390\n      jump\t// in\n    tag_725:\n        /* \"#utility.yul\":33167:33202   */\n    tag_724:\n        /* \"#utility.yul\":33227:33228   */\n      dup3\n        /* \"#utility.yul\":33224:33225   */\n      dup3\n        /* \"#utility.yul\":33220:33229   */\n      mod\n        /* \"#utility.yul\":33215:33229   */\n      swap1\n      pop\n        /* \"#utility.yul\":33043:33239   */\n      swap3\n      swap2\n      pop\n      pop\n      jump\t// out\n        /* \"#utility.yul\":33249:33445   */\n    tag_309:\n        /* \"#utility.yul\":33301:33378   */\n      0x4e487b7100000000000000000000000000000000000000000000000000000000\n        /* \"#utility.yul\":33298:33299   */\n      0x00\n        /* \"#utility.yul\":33291:33379   */\n      mstore\n        /* \"#utility.yul\":33402:33406   */\n      0x32\n        /* \"#utility.yul\":33399:33400   */\n      0x04\n        /* \"#utility.yul\":33392:33407   */\n      mstore\n        /* \"#utility.yul\":33430:33434   */\n      0x24\n        /* \"#utility.yul\":33427:33428   */\n      0x00\n        /* \"#utility.yul\":33420:33435   */\n      revert\n\n    auxdata: 0xa26469706673582212208954956721076157133ad46bfaf782d4f4b76b582cbb1c0c7659d01852845be364736f6c634300081a0033\n}\n",
				"bytecode": {
					"linkReferences": {},
					"object": "60806040526002600355348015610014575f80fd5b503360045f6101000a81548173ffffffffffffffffffffffffffffffffffffffff021916908373ffffffffffffffffffffffffffffffffffffffff160217905550604051806101a001604052805f73ffffffffffffffffffffffffffffffffffffffff168152602001600181526020015f81526020015f81526020015f8152602001600160ff1681526020015f67ffffffffffffffff8111156100ba576100b961056e565b5b6040519080825280602002602001820160405280156100e85781602001602082028036833780820191505090505b50815260200160405180602001604052805f815250815260200160405180602001604052805f815250815260200160405180602001604052805f815250815260200160405180602001604052805f81525081526020015f801b815260200160045f9054906101000a900473ffffffffffffffffffffffffffffffffffffffff1673ffffffffffffffffffffffffffffffffffffffff168152505f8060045f9054906101000a900473ffffffffffffffffffffffffffffffffffffffff1673ffffffffffffffffffffffffffffffffffffffff1673ffffffffffffffffffffffffffffffffffffffff1681526020019081526020015f205f820151815f015f6101000a81548173ffffffffffffffffffffffffffffffffffffffff021916908373ffffffffffffffffffffffffffffffffffffffff1602179055506020820151816001015560408201518160020155606082015181600301556080820151816004015560a0820151816005015f6101000a81548160ff021916908360ff16021790555060c08201518160060190805190602001906102869291906104cc565b5060e082015181600701908161029c91906107a8565b506101008201518160080190816102b391906107a8565b506101208201518160090190816102ca91906107a8565b5061014082015181600a0190816102e191906107a8565b5061016082015181600b015561018082015181600c015f6101000a81548173ffffffffffffffffffffffffffffffffffffffff021916908373ffffffffffffffffffffffffffffffffffffffff16021790555090505060045f9054906101000a900473ffffffffffffffffffffffffffffffffffffffff1660015f600181526020019081526020015f205f6101000a81548173ffffffffffffffffffffffffffffffffffffffff021916908373ffffffffffffffffffffffffffffffffffffffff160217905550674563918244f4000060025f600160ff1681526020019081526020015f20819055505f600290505b60088160ff1611610438576002805f6001846103ec91906108b0565b60ff1660ff1681526020019081526020015f205461040a91906108e4565b60025f8360ff1660ff1681526020019081526020015f2081905550808061043090610925565b9150506103d0565b506843c33c19375648000060025f600960ff1681526020019081526020015f208190555068878678326eac90000060025f600a60ff1681526020019081526020015f208190555069010f0cf064dd5920000060025f600b60ff1681526020019081526020015f2081905550690218ae196b8d4f30000060025f600c60ff1681526020019081526020015f208190555061094d565b828054828255905f5260205f20908101928215610542579160200282015b82811115610541578251825f6101000a81548173ffffffffffffffffffffffffffffffffffffffff021916908373ffffffffffffffffffffffffffffffffffffffff160217905550916020019190600101906104ea565b5b50905061054f9190610553565b5090565b5b8082111561056a575f815f905550600101610554565b5090565b7f4e487b71000000000000000000000000000000000000000000000000000000005f52604160045260245ffd5b5f81519050919050565b7f4e487b71000000000000000000000000000000000000000000000000000000005f52602260045260245ffd5b5f60028204905060018216806105e957607f821691505b6020821081036105fc576105fb6105a5565b5b50919050565b5f819050815f5260205f209050919050565b5f6020601f8301049050919050565b5f82821b905092915050565b5f6008830261065e7fffffffffffffffffffffffffffffffffffffffffffffffffffffffffffffffff82610623565b6106688683610623565b95508019841693508086168417925050509392505050565b5f819050919050565b5f819050919050565b5f6106ac6106a76106a284610680565b610689565b610680565b9050919050565b5f819050919050565b6106c583610692565b6106d96106d1826106b3565b84845461062f565b825550505050565b5f90565b6106ed6106e1565b6106f88184846106bc565b505050565b5b8181101561071b576107105f826106e5565b6001810190506106fe565b5050565b601f8211156107605761073181610602565b61073a84610614565b81016020851015610749578190505b61075d61075585610614565b8301826106fd565b50505b505050565b5f82821c905092915050565b5f6107805f1984600802610765565b1980831691505092915050565b5f6107988383610771565b9150826002028217905092915050565b6107b18261059b565b67ffffffffffffffff8111156107ca576107c961056e565b5b6107d482546105d2565b6107df82828561071f565b5f60209050601f831160018114610810575f84156107fe578287015190505b610808858261078d565b86555061086f565b601f19841661081e86610602565b5f5b8281101561084557848901518255600182019150602085019450602081019050610820565b86831015610862578489015161085e601f891682610771565b8355505b6001600288020188555050505b505050505050565b5f60ff82169050919050565b7f4e487b71000000000000000000000000000000000000000000000000000000005f52601160045260245ffd5b5f6108ba82610877565b91506108c583610877565b9250828203905060ff8111156108de576108dd610883565b5b92915050565b5f6108ee82610680565b91506108f983610680565b925082820261090781610680565b9150828204841483151761091e5761091d610883565b5b5092915050565b5f61092f82610877565b915060ff820361094257610941610883565b5b600182019050919050565b613be18061095a5f395ff3fe6080604052600436106100fd575f3560e01c80636f8e2516116100945780639ac7e09e116100635780639ac7e09e14610327578063a87430ba14610351578063aed8a6a714610398578063de972b43146103d4578063ecabdf7914610411576100fd565b80636f8e2516146102755780638d17a4d0146102b15780638da5cb5b146102cd57806390426274146102f7576100fd565b8063348d4487116100d0578063348d44871461019f5780636386c1c7146101c957806364b4f7511461020f5780636ed6da9e14610239576100fd565b80631394c0531461010157806329c704001461011d5780632a2d0c47146101475780633056deb814610183575b5f80fd5b61011b60048036038101906101169190612c63565b61044d565b005b348015610128575f80fd5b506101316108bc565b60405161013e9190612d65565b60405180910390f35b348015610152575f80fd5b5061016d60048036038101906101689190612db1565b6108c1565b60405161017a9190612deb565b60405180910390f35b61019d60048036038101906101989190612e04565b6108f1565b005b3480156101aa575f80fd5b506101b3610ec5565b6040516101c09190612f3c565b60405180910390f35b3480156101d4575f80fd5b506101ef60048036038101906101ea9190612f55565b610ecb565b6040516102069b9a99989796959493929190612fe0565b60405180910390f35b34801561021a575f80fd5b5061022361134b565b6040516102309190612f3c565b60405180910390f35b348015610244575f80fd5b5061025f600480360381019061025a9190612db1565b611358565b60405161026c9190612deb565b60405180910390f35b348015610280575f80fd5b5061029b600480360381019061029691906130cf565b611391565b6040516102a89190612f3c565b60405180910390f35b6102cb60048036038101906102c691906130cf565b61140b565b005b3480156102d8575f80fd5b506102e161184b565b6040516102ee9190612deb565b60405180910390f35b610311600480360381019061030c9190612f55565b611870565b60405161031e9190612f3c565b60405180910390f35b348015610332575f80fd5b5061033b611d38565b6040516103489190612f3c565b60405180910390f35b34801561035c575f80fd5b5061037760048036038101906103729190612f55565b611d44565b60405161038f9c9b9a99989796959493929190613112565b60405180910390f35b3480156103a3575f80fd5b506103be60048036038101906103b99190612f55565b612001565b6040516103cb91906131e6565b60405180910390f35b3480156103df575f80fd5b506103fa60048036038101906103f59190612f55565b612076565b604051610408929190613206565b60405180910390f35b34801561041c575f80fd5b50610437600480360381019061043291906130cf565b612499565b6040516104449190612f3c565b60405180910390f35b5f805f8773ffffffffffffffffffffffffffffffffffffffff1673ffffffffffffffffffffffffffffffffffffffff1681526020019081526020015f2060010154146104ce576040517f08c379a00000000000000000000000000000000000000000000000000000000081526004016104c590613277565b60405180910390fd5b604051806101a001604052805f73ffffffffffffffffffffffffffffffffffffffff16815260200160035481526020015f81526020015f81526020015f8152602001600160ff1681526020015f67ffffffffffffffff81111561053457610533612b3f565b5b6040519080825280602002602001820160405280156105625781602001602082028036833780820191505090505b5081526020018581526020018481526020018381526020018281526020015f801b81526020018673ffffffffffffffffffffffffffffffffffffffff168152505f808773ffffffffffffffffffffffffffffffffffffffff1673ffffffffffffffffffffffffffffffffffffffff1681526020019081526020015f205f820151815f015f6101000a81548173ffffffffffffffffffffffffffffffffffffffff021916908373ffffffffffffffffffffffffffffffffffffffff1602179055506020820151816001015560408201518160020155606082015181600301556080820151816004015560a0820151816005015f6101000a81548160ff021916908360ff16021790555060c0820151816006019080519060200190610686929190612a1a565b5060e082015181600701908161069c919061348f565b506101008201518160080190816106b3919061348f565b506101208201518160090190816106ca919061348f565b5061014082015181600a0190816106e1919061348f565b5061016082015181600b015561018082015181600c015f6101000a81548173ffffffffffffffffffffffffffffffffffffffff021916908373ffffffffffffffffffffffffffffffffffffffff1602179055509050508460015f60035481526020019081526020015f205f6101000a81548173ffffffffffffffffffffffffffffffffffffffff021916908373ffffffffffffffffffffffffffffffffffffffff16021790555060035f81548092919061079a9061358b565b919050555060045f9054906101000a900473ffffffffffffffffffffffffffffffffffffffff1673ffffffffffffffffffffffffffffffffffffffff166108fc3490811502906040515f60405180830381858888f19350505050158015610803573d5f803e3d5ffd5b505f73ffffffffffffffffffffffffffffffffffffffff168573ffffffffffffffffffffffffffffffffffffffff167fc1df0cc11cc2a40ae327c4da54a7bc5d5007047ac744e37eed7b461a781172155f808973ffffffffffffffffffffffffffffffffffffffff1673ffffffffffffffffffffffffffffffffffffffff1681526020019081526020015f20600101545f68015af1d78b58c400006040516108ad9392919061360b565b60405180910390a35050505050565b600c81565b6001602052805f5260405f205f915054906101000a900473ffffffffffffffffffffffffffffffffffffffff1681565b5f805f8973ffffffffffffffffffffffffffffffffffffffff1673ffffffffffffffffffffffffffffffffffffffff1681526020019081526020015f206001015403610972576040517f08c379a00000000000000000000000000000000000000000000000000000000081526004016109699061368a565b60405180910390fd5b5f8260405160200161098491906136e2565b604051602081830303815290604052805190602001209050604051806101a001604052808973ffffffffffffffffffffffffffffffffffffffff16815260200160035481526020015f81526020015f81526020015f8152602001600160ff1681526020015f67ffffffffffffffff811115610a0257610a01612b3f565b5b604051908082528060200260200182016040528015610a305781602001602082028036833780820191505090505b5081526020018881526020018781526020018681526020018581526020018281526020018373ffffffffffffffffffffffffffffffffffffffff168152505f803373ffffffffffffffffffffffffffffffffffffffff1673ffffffffffffffffffffffffffffffffffffffff1681526020019081526020015f205f820151815f015f6101000a81548173ffffffffffffffffffffffffffffffffffffffff021916908373ffffffffffffffffffffffffffffffffffffffff1602179055506020820151816001015560408201518160020155606082015181600301556080820151816004015560a0820151816005015f6101000a81548160ff021916908360ff16021790555060c0820151816006019080519060200190610b52929190612a1a565b5060e0820151816007019081610b68919061348f565b50610100820151816008019081610b7f919061348f565b50610120820151816009019081610b96919061348f565b5061014082015181600a019081610bad919061348f565b5061016082015181600b015561018082015181600c015f6101000a81548173ffffffffffffffffffffffffffffffffffffffff021916908373ffffffffffffffffffffffffffffffffffffffff1602179055509050503360015f60035481526020019081526020015f205f6101000a81548173ffffffffffffffffffffffffffffffffffffffff021916908373ffffffffffffffffffffffffffffffffffffffff16021790555060035f815480929190610c669061358b565b91905055505f808973ffffffffffffffffffffffffffffffffffffffff1673ffffffffffffffffffffffffffffffffffffffff1681526020019081526020015f206002015f815480929190610cba9061358b565b91905055505f808973ffffffffffffffffffffffffffffffffffffffff1673ffffffffffffffffffffffffffffffffffffffff1681526020019081526020015f2060060133908060018154018082558091505060019003905f5260205f20015f9091909190916101000a81548173ffffffffffffffffffffffffffffffffffffffff021916908373ffffffffffffffffffffffffffffffffffffffff16021790555060045f9054906101000a900473ffffffffffffffffffffffffffffffffffffffff1673ffffffffffffffffffffffffffffffffffffffff166108fc3490811502906040515f60405180830381858888f19350505050158015610dc0573d5f803e3d5ffd5b50610dcb33896124ae565b8773ffffffffffffffffffffffffffffffffffffffff163373ffffffffffffffffffffffffffffffffffffffff167fc1df0cc11cc2a40ae327c4da54a7bc5d5007047ac744e37eed7b461a781172155f803373ffffffffffffffffffffffffffffffffffffffff1673ffffffffffffffffffffffffffffffffffffffff1681526020019081526020015f20600101545f808d73ffffffffffffffffffffffffffffffffffffffff1673ffffffffffffffffffffffffffffffffffffffff1681526020019081526020015f206001015468015af1d78b58c40000604051610eb3939291906136f8565b60405180910390a35050505050505050565b60035481565b5f805f805f806060806060805f805f808e73ffffffffffffffffffffffffffffffffffffffff1673ffffffffffffffffffffffffffffffffffffffff1681526020019081526020015f20604051806101a00160405290815f82015f9054906101000a900473ffffffffffffffffffffffffffffffffffffffff1673ffffffffffffffffffffffffffffffffffffffff1673ffffffffffffffffffffffffffffffffffffffff16815260200160018201548152602001600282015481526020016003820154815260200160048201548152602001600582015f9054906101000a900460ff1660ff1660ff1681526020016006820180548060200260200160405190810160405280929190818152602001828054801561103b57602002820191905f5260205f20905b815f9054906101000a900473ffffffffffffffffffffffffffffffffffffffff1673ffffffffffffffffffffffffffffffffffffffff1681526020019060010190808311610ff2575b50505050508152602001600782018054611054906132c2565b80601f0160208091040260200160405190810160405280929190818152602001828054611080906132c2565b80156110cb5780601f106110a2576101008083540402835291602001916110cb565b820191905f5260205f20905b8154815290600101906020018083116110ae57829003601f168201915b505050505081526020016008820180546110e4906132c2565b80601f0160208091040260200160405190810160405280929190818152602001828054611110906132c2565b801561115b5780601f106111325761010080835404028352916020019161115b565b820191905f5260205f20905b81548152906001019060200180831161113e57829003601f168201915b50505050508152602001600982018054611174906132c2565b80601f01602080910402602001604051908101604052809291908181526020018280546111a0906132c2565b80156111eb5780601f106111c2576101008083540402835291602001916111eb565b820191905f5260205f20905b8154815290600101906020018083116111ce57829003601f168201915b50505050508152602001600a82018054611204906132c2565b80601f0160208091040260200160405190810160405280929190818152602001828054611230906132c2565b801561127b5780601f106112525761010080835404028352916020019161127b565b820191905f5260205f20905b81548152906001019060200180831161125e57829003601f168201915b50505050508152602001600b8201548152602001600c82015f9054906101000a900473ffffffffffffffffffffffffffffffffffffffff1673ffffffffffffffffffffffffffffffffffffffff1673ffffffffffffffffffffffffffffffffffffffff16815250509050805f015181602001518260400151836060015184608001518560a001518660e001518761010001518861012001518961014001518a61018001518560ff1695509b509b509b509b509b509b509b509b509b509b509b505091939597999b90929496989a50565b68015af1d78b58c4000081565b5f60015f8381526020019081526020015f205f9054906101000a900473ffffffffffffffffffffffffffffffffffffffff169050919050565b5f60018260ff16101580156113ad5750600c60ff168260ff1611155b6113ec576040517f08c379a00000000000000000000000000000000000000000000000000000000081526004016113e390613777565b60405180910390fd5b60025f8360ff1660ff1681526020019081526020015f20549050919050565b5f803373ffffffffffffffffffffffffffffffffffffffff1673ffffffffffffffffffffffffffffffffffffffff1681526020019081526020015f206005015f9054906101000a900460ff1660ff168160ff161161149e576040517f08c379a000000000000000000000000000000000000000000000000000000000815260040161149590613805565b60405180910390fd5b600c60ff168160ff1611156114e8576040517f08c379a00000000000000000000000000000000000000000000000000000000081526004016114df90613777565b60405180910390fd5b5f60025f8360ff1660ff1681526020019081526020015f205490505f805f3373ffffffffffffffffffffffffffffffffffffffff1673ffffffffffffffffffffffffffffffffffffffff1681526020019081526020015f205f015f9054906101000a900473ffffffffffffffffffffffffffffffffffffffff1690505f6064600a846115749190613823565b61157e9190613891565b90505f818461158d91906138c1565b9050845f803373ffffffffffffffffffffffffffffffffffffffff1673ffffffffffffffffffffffffffffffffffffffff1681526020019081526020015f206005015f6101000a81548160ff021916908360ff1602179055505f73ffffffffffffffffffffffffffffffffffffffff168373ffffffffffffffffffffffffffffffffffffffff1614611766575f8373ffffffffffffffffffffffffffffffffffffffff168360405161163e90613921565b5f6040518083038185875af1925050503d805f8114611678576040519150601f19603f3d011682016040523d82523d5f602084013e61167d565b606091505b50509050806116c1576040517f08c379a00000000000000000000000000000000000000000000000000000000081526004016116b89061397f565b60405180910390fd5b825f808673ffffffffffffffffffffffffffffffffffffffff1673ffffffffffffffffffffffffffffffffffffffff1681526020019081526020015f206004015f82825461170f919061399d565b925050819055508373ffffffffffffffffffffffffffffffffffffffff167f92d81ab7e787d9a43bbb8f8ca7f0b2708da03b86d5aea53d5d20656ff8dad1ee8460405161175c9190612f3c565b60405180910390a2505b5f60045f9054906101000a900473ffffffffffffffffffffffffffffffffffffffff1673ffffffffffffffffffffffffffffffffffffffff16826040516117ac90613921565b5f6040518083038185875af1925050503d805f81146117e6576040519150601f19603f3d011682016040523d82523d5f602084013e6117eb565b606091505b505090503373ffffffffffffffffffffffffffffffffffffffff167fdbf0b0dd9da4bea8f6827b8c94d9d2c555a713d0b15d01f002f81f321bba5e3c8787868660405161183b94939291906139d0565b60405180910390a2505050505050565b60045f9054906101000a900473ffffffffffffffffffffffffffffffffffffffff1681565b5f805f808473ffffffffffffffffffffffffffffffffffffffff1673ffffffffffffffffffffffffffffffffffffffff1681526020019081526020015f205f015f9054906101000a900473ffffffffffffffffffffffffffffffffffffffff1690505f73ffffffffffffffffffffffffffffffffffffffff168173ffffffffffffffffffffffffffffffffffffffff160361190e575f915050611d33565b60025f808373ffffffffffffffffffffffffffffffffffffffff1673ffffffffffffffffffffffffffffffffffffffff1681526020019081526020015f206002015410611b36575f805f8373ffffffffffffffffffffffffffffffffffffffff1673ffffffffffffffffffffffffffffffffffffffff1681526020019081526020015f206005015f9054906101000a900460ff1690505f60025f600160ff1681526020019081526020015f2054905080471015611a00576040517f08c379a00000000000000000000000000000000000000000000000000000000081526004016119f790613a5d565b60405180910390fd5b611a0a83826126f9565b5f808473ffffffffffffffffffffffffffffffffffffffff1673ffffffffffffffffffffffffffffffffffffffff1681526020019081526020015f206003015f815480929190611a599061358b565b91905055508273ffffffffffffffffffffffffffffffffffffffff167f18c00b25130b4512b396a52c89756cb9a1177c6002fe34cbc071f88cf90812a15f808673ffffffffffffffffffffffffffffffffffffffff1673ffffffffffffffffffffffffffffffffffffffff1681526020019081526020015f2060030154604051611ae39190612f3c565b60405180910390a25f805f8573ffffffffffffffffffffffffffffffffffffffff1673ffffffffffffffffffffffffffffffffffffffff1681526020019081526020015f20600201819055505050611d31565b5f808273ffffffffffffffffffffffffffffffffffffffff1673ffffffffffffffffffffffffffffffffffffffff1681526020019081526020015f206002015f815480929190611b859061358b565b91905055505f8173ffffffffffffffffffffffffffffffffffffffff1634604051611baf90613921565b5f6040518083038185875af1925050503d805f8114611be9576040519150601f19603f3d011682016040523d82523d5f602084013e611bee565b606091505b5050905080611c32576040517f08c379a0000000000000000000000000000000000000000000000000000000008152600401611c2990613ac5565b60405180910390fd5b345f808473ffffffffffffffffffffffffffffffffffffffff1673ffffffffffffffffffffffffffffffffffffffff1681526020019081526020015f206004015f828254611c80919061399d565b925050819055508173ffffffffffffffffffffffffffffffffffffffff167f92d81ab7e787d9a43bbb8f8ca7f0b2708da03b86d5aea53d5d20656ff8dad1ee34604051611ccd9190612f3c565b60405180910390a28173ffffffffffffffffffffffffffffffffffffffff168473ffffffffffffffffffffffffffffffffffffffff167f965e581fd2224ce85185c5f48cfbcc00e17fa216f970b274fc724888f6b8994a60405160405180910390a3505b505b919050565b674563918244f4000081565b5f602052805f5260405f205f91509050805f015f9054906101000a900473ffffffffffffffffffffffffffffffffffffffff1690806001015490806002015490806003015490806004015490806005015f9054906101000a900460ff1690806007018054611db1906132c2565b80601f0160208091040260200160405190810160405280929190818152602001828054611ddd906132c2565b8015611e285780601f10611dff57610100808354040283529160200191611e28565b820191905f5260205f20905b815481529060010190602001808311611e0b57829003601f168201915b505050505090806008018054611e3d906132c2565b80601f0160208091040260200160405190810160405280929190818152602001828054611e69906132c2565b8015611eb45780601f10611e8b57610100808354040283529160200191611eb4565b820191905f5260205f20905b815481529060010190602001808311611e9757829003601f168201915b505050505090806009018054611ec9906132c2565b80601f0160208091040260200160405190810160405280929190818152602001828054611ef5906132c2565b8015611f405780601f10611f1757610100808354040283529160200191611f40565b820191905f5260205f20905b815481529060010190602001808311611f2357829003601f168201915b50505050509080600a018054611f55906132c2565b80601f0160208091040260200160405190810160405280929190818152602001828054611f81906132c2565b8015611fcc5780601f10611fa357610100808354040283529160200191611fcc565b820191905f5260205f20905b815481529060010190602001808311611faf57829003601f168201915b50505050509080600b01549080600c015f9054906101000a900473ffffffffffffffffffffffffffffffffffffffff1690508c565b60605f805f8473ffffffffffffffffffffffffffffffffffffffff1673ffffffffffffffffffffffffffffffffffffffff1681526020019081526020015f2060010154905061204f81612809565b60405160200161205f9190613b2d565b604051602081830303815290604052915050919050565b5f805f805f8573ffffffffffffffffffffffffffffffffffffffff1673ffffffffffffffffffffffffffffffffffffffff1681526020019081526020015f20604051806101a00160405290815f82015f9054906101000a900473ffffffffffffffffffffffffffffffffffffffff1673ffffffffffffffffffffffffffffffffffffffff1673ffffffffffffffffffffffffffffffffffffffff16815260200160018201548152602001600282015481526020016003820154815260200160048201548152602001600582015f9054906101000a900460ff1660ff1660ff168152602001600682018054806020026020016040519081016040528092919081815260200182805480156121db57602002820191905f5260205f20905b815f9054906101000a900473ffffffffffffffffffffffffffffffffffffffff1673ffffffffffffffffffffffffffffffffffffffff1681526020019060010190808311612192575b505050505081526020016007820180546121f4906132c2565b80601f0160208091040260200160405190810160405280929190818152602001828054612220906132c2565b801561226b5780601f106122425761010080835404028352916020019161226b565b820191905f5260205f20905b81548152906001019060200180831161224e57829003601f168201915b50505050508152602001600882018054612284906132c2565b80601f01602080910402602001604051908101604052809291908181526020018280546122b0906132c2565b80156122fb5780601f106122d2576101008083540402835291602001916122fb565b820191905f5260205f20905b8154815290600101906020018083116122de57829003601f168201915b50505050508152602001600982018054612314906132c2565b80601f0160208091040260200160405190810160405280929190818152602001828054612340906132c2565b801561238b5780601f106123625761010080835404028352916020019161238b565b820191905f5260205f20905b81548152906001019060200180831161236e57829003601f168201915b50505050508152602001600a820180546123a4906132c2565b80601f01602080910402602001604051908101604052809291908181526020018280546123d0906132c2565b801561241b5780601f106123f25761010080835404028352916020019161241b565b820191905f5260205f20905b8154815290600101906020018083116123fe57829003601f168201915b50505050508152602001600b8201548152602001600c82015f9054906101000a900473ffffffffffffffffffffffffffffffffffffffff1673ffffffffffffffffffffffffffffffffffffffff1673ffffffffffffffffffffffffffffffffffffffff16815250509050806060015181608001519250925050915091565b6002602052805f5260405f205f915090505481565b60035f808373ffffffffffffffffffffffffffffffffffffffff1673ffffffffffffffffffffffffffffffffffffffff1681526020019081526020015f2060020154101561251a576125158160025f600160ff1681526020019081526020015f20546126f9565b6126f5565b5f805f8373ffffffffffffffffffffffffffffffffffffffff1673ffffffffffffffffffffffffffffffffffffffff1681526020019081526020015f205f015f9054906101000a900473ffffffffffffffffffffffffffffffffffffffff1690505f73ffffffffffffffffffffffffffffffffffffffff168173ffffffffffffffffffffffffffffffffffffffff16146126af576125cd8160025f600160ff1681526020019081526020015f20546126f9565b5f808373ffffffffffffffffffffffffffffffffffffffff1673ffffffffffffffffffffffffffffffffffffffff1681526020019081526020015f206003015f81548092919061261c9061358b565b91905055508173ffffffffffffffffffffffffffffffffffffffff167f18c00b25130b4512b396a52c89756cb9a1177c6002fe34cbc071f88cf90812a15f808573ffffffffffffffffffffffffffffffffffffffff1673ffffffffffffffffffffffffffffffffffffffff1681526020019081526020015f20600301546040516126a69190612f3c565b60405180910390a25b5f805f8473ffffffffffffffffffffffffffffffffffffffff1673ffffffffffffffffffffffffffffffffffffffff1681526020019081526020015f2060020181905550505b5050565b805f808473ffffffffffffffffffffffffffffffffffffffff1673ffffffffffffffffffffffffffffffffffffffff1681526020019081526020015f206004015f828254612747919061399d565b925050819055505f8273ffffffffffffffffffffffffffffffffffffffff168260405161277390613921565b5f6040518083038185875af1925050503d805f81146127ad576040519150601f19603f3d011682016040523d82523d5f602084013e6127b2565b606091505b505090508273ffffffffffffffffffffffffffffffffffffffff167f92d81ab7e787d9a43bbb8f8ca7f0b2708da03b86d5aea53d5d20656ff8dad1ee836040516127fc9190612f3c565b60405180910390a2505050565b60605f820361284f576040518060400160405280600181526020017f30000000000000000000000000000000000000000000000000000000000000008152509050612a15565b5f604e90505f8167ffffffffffffffff81111561286f5761286e612b3f565b5b6040519080825280601f01601f1916602001820160405280156128a15781602001600182028036833780820191505090505b5090505f5b5f851461292f575f600a866128bb9190613b4e565b9050600a866128ca9190613891565b95508060306128d9919061399d565b60f81b8383806128e89061358b565b9450815181106128fb576128fa613b7e565b5b60200101907effffffffffffffffffffffffffffffffffffffffffffffffffffffffffffff191690815f1a905350506128a6565b5f8167ffffffffffffffff81111561294a57612949612b3f565b5b6040519080825280601f01601f19166020018201604052801561297c5781602001600182028036833780820191505090505b5090505f5b82811015612a0c57836001828561299891906138c1565b6129a291906138c1565b815181106129b3576129b2613b7e565b5b602001015160f81c60f81b8282815181106129d1576129d0613b7e565b5b60200101907effffffffffffffffffffffffffffffffffffffffffffffffffffffffffffff191690815f1a9053508080600101915050612981565b50809450505050505b919050565b828054828255905f5260205f20908101928215612a90579160200282015b82811115612a8f578251825f6101000a81548173ffffffffffffffffffffffffffffffffffffffff021916908373ffffffffffffffffffffffffffffffffffffffff16021790555091602001919060010190612a38565b5b509050612a9d9190612aa1565b5090565b5b80821115612ab8575f815f905550600101612aa2565b5090565b5f604051905090565b5f80fd5b5f80fd5b5f73ffffffffffffffffffffffffffffffffffffffff82169050919050565b5f612af682612acd565b9050919050565b612b0681612aec565b8114612b10575f80fd5b50565b5f81359050612b2181612afd565b92915050565b5f80fd5b5f80fd5b5f601f19601f8301169050919050565b7f4e487b71000000000000000000000000000000000000000000000000000000005f52604160045260245ffd5b612b7582612b2f565b810181811067ffffffffffffffff82111715612b9457612b93612b3f565b5b80604052505050565b5f612ba6612abc565b9050612bb28282612b6c565b919050565b5f67ffffffffffffffff821115612bd157612bd0612b3f565b5b612bda82612b2f565b9050602081019050919050565b828183375f83830152505050565b5f612c07612c0284612bb7565b612b9d565b905082815260208101848484011115612c2357612c22612b2b565b5b612c2e848285612be7565b509392505050565b5f82601f830112612c4a57612c49612b27565b5b8135612c5a848260208601612bf5565b91505092915050565b5f805f805f60a08688031215612c7c57612c7b612ac5565b5b5f612c8988828901612b13565b955050602086013567ffffffffffffffff811115612caa57612ca9612ac9565b5b612cb688828901612c36565b945050604086013567ffffffffffffffff811115612cd757612cd6612ac9565b5b612ce388828901612c36565b935050606086013567ffffffffffffffff811115612d0457612d03612ac9565b5b612d1088828901612c36565b925050608086013567ffffffffffffffff811115612d3157612d30612ac9565b5b612d3d88828901612c36565b9150509295509295909350565b5f60ff82169050919050565b612d5f81612d4a565b82525050565b5f602082019050612d785f830184612d56565b92915050565b5f819050919050565b612d9081612d7e565b8114612d9a575f80fd5b50565b5f81359050612dab81612d87565b92915050565b5f60208284031215612dc657612dc5612ac5565b5b5f612dd384828501612d9d565b91505092915050565b612de581612aec565b82525050565b5f602082019050612dfe5f830184612ddc565b92915050565b5f805f805f805f60e0888a031215612e1f57612e1e612ac5565b5b5f612e2c8a828b01612b13565b975050602088013567ffffffffffffffff811115612e4d57612e4c612ac9565b5b612e598a828b01612c36565b965050604088013567ffffffffffffffff811115612e7a57612e79612ac9565b5b612e868a828b01612c36565b955050606088013567ffffffffffffffff811115612ea757612ea6612ac9565b5b612eb38a828b01612c36565b945050608088013567ffffffffffffffff811115612ed457612ed3612ac9565b5b612ee08a828b01612c36565b93505060a088013567ffffffffffffffff811115612f0157612f00612ac9565b5b612f0d8a828b01612c36565b92505060c0612f1e8a828b01612b13565b91505092959891949750929550565b612f3681612d7e565b82525050565b5f602082019050612f4f5f830184612f2d565b92915050565b5f60208284031215612f6a57612f69612ac5565b5b5f612f7784828501612b13565b91505092915050565b5f81519050919050565b5f82825260208201905092915050565b8281835e5f83830152505050565b5f612fb282612f80565b612fbc8185612f8a565b9350612fcc818560208601612f9a565b612fd581612b2f565b840191505092915050565b5f61016082019050612ff45f83018e612ddc565b613001602083018d612f2d565b61300e604083018c612f2d565b61301b606083018b612f2d565b613028608083018a612f2d565b61303560a0830189612f2d565b81810360c08301526130478188612fa8565b905081810360e083015261305b8187612fa8565b90508181036101008301526130708186612fa8565b90508181036101208301526130858185612fa8565b9050613095610140830184612ddc565b9c9b505050505050505050505050565b6130ae81612d4a565b81146130b8575f80fd5b50565b5f813590506130c9816130a5565b92915050565b5f602082840312156130e4576130e3612ac5565b5b5f6130f1848285016130bb565b91505092915050565b5f819050919050565b61310c816130fa565b82525050565b5f610180820190506131265f83018f612ddc565b613133602083018e612f2d565b613140604083018d612f2d565b61314d606083018c612f2d565b61315a608083018b612f2d565b61316760a083018a612d56565b81810360c08301526131798189612fa8565b905081810360e083015261318d8188612fa8565b90508181036101008301526131a28187612fa8565b90508181036101208301526131b78186612fa8565b90506131c7610140830185613103565b6131d5610160830184612ddc565b9d9c50505050505050505050505050565b5f6020820190508181035f8301526131fe8184612fa8565b905092915050565b5f6040820190506132195f830185612f2d565b6132266020830184612f2d565b9392505050565b7f55706c696e6520616c72656164792072656769737465726564000000000000005f82015250565b5f613261601983612f8a565b915061326c8261322d565b602082019050919050565b5f6020820190508181035f83015261328e81613255565b9050919050565b7f4e487b71000000000000000000000000000000000000000000000000000000005f52602260045260245ffd5b5f60028204905060018216806132d957607f821691505b6020821081036132ec576132eb613295565b5b50919050565b5f819050815f5260205f209050919050565b5f6020601f8301049050919050565b5f82821b905092915050565b5f6008830261334e7fffffffffffffffffffffffffffffffffffffffffffffffffffffffffffffffff82613313565b6133588683613313565b95508019841693508086168417925050509392505050565b5f819050919050565b5f61339361338e61338984612d7e565b613370565b612d7e565b9050919050565b5f819050919050565b6133ac83613379565b6133c06133b88261339a565b84845461331f565b825550505050565b5f90565b6133d46133c8565b6133df8184846133a3565b505050565b5b81811015613402576133f75f826133cc565b6001810190506133e5565b5050565b601f82111561344757613418816132f2565b61342184613304565b81016020851015613430578190505b61344461343c85613304565b8301826133e4565b50505b505050565b5f82821c905092915050565b5f6134675f198460080261344c565b1980831691505092915050565b5f61347f8383613458565b9150826002028217905092915050565b61349882612f80565b67ffffffffffffffff8111156134b1576134b0612b3f565b5b6134bb82546132c2565b6134c6828285613406565b5f60209050601f8311600181146134f7575f84156134e5578287015190505b6134ef8582613474565b865550613556565b601f198416613505866132f2565b5f5b8281101561352c57848901518255600182019150602085019450602081019050613507565b868310156135495784890151613545601f891682613458565b8355505b6001600288020188555050505b505050505050565b7f4e487b71000000000000000000000000000000000000000000000000000000005f52601160045260245ffd5b5f61359582612d7e565b91507fffffffffffffffffffffffffffffffffffffffffffffffffffffffffffffffff82036135c7576135c661355e565b5b600182019050919050565b5f819050919050565b5f6135f56135f06135eb846135d2565b613370565b612d7e565b9050919050565b613605816135db565b82525050565b5f60608201905061361e5f830186612f2d565b61362b60208301856135fc565b6136386040830184612f2d565b949350505050565b7f55706c696e6520646f6573206e6f7420657869737400000000000000000000005f82015250565b5f613674601583612f8a565b915061367f82613640565b602082019050919050565b5f6020820190508181035f8301526136a181613668565b9050919050565b5f81905092915050565b5f6136bc82612f80565b6136c681856136a8565b93506136d6818560208601612f9a565b80840191505092915050565b5f6136ed82846136b2565b915081905092915050565b5f60608201905061370b5f830186612f2d565b6137186020830185612f2d565b6137256040830184612f2d565b949350505050565b7f496e76616c6964206c6576656c000000000000000000000000000000000000005f82015250565b5f613761600d83612f8a565b915061376c8261372d565b602082019050919050565b5f6020820190508181035f83015261378e81613755565b9050919050565b7f43616e6e6f7420646f776e6772616465206f72207374617920617420746865205f8201527f73616d65206c6576656c00000000000000000000000000000000000000000000602082015250565b5f6137ef602a83612f8a565b91506137fa82613795565b604082019050919050565b5f6020820190508181035f83015261381c816137e3565b9050919050565b5f61382d82612d7e565b915061383883612d7e565b925082820261384681612d7e565b9150828204841483151761385d5761385c61355e565b5b5092915050565b7f4e487b71000000000000000000000000000000000000000000000000000000005f52601260045260245ffd5b5f61389b82612d7e565b91506138a683612d7e565b9250826138b6576138b5613864565b5b828204905092915050565b5f6138cb82612d7e565b91506138d683612d7e565b92508282039050818111156138ee576138ed61355e565b5b92915050565b5f81905092915050565b50565b5f61390c5f836138f4565b9150613917826138fe565b5f82019050919050565b5f61392b82613901565b9150819050919050565b7f5472616e7366657220746f2075706c696e65206661696c6564000000000000005f82015250565b5f613969601983612f8a565b915061397482613935565b602082019050919050565b5f6020820190508181035f8301526139968161395d565b9050919050565b5f6139a782612d7e565b91506139b283612d7e565b92508282019050808211156139ca576139c961355e565b5b92915050565b5f6080820190506139e35f830187612d56565b6139f06020830186612f2d565b6139fd6040830185612f2d565b613a0a6060830184612f2d565b95945050505050565b7f496e73756666696369656e7420636f6e74726163742062616c616e63650000005f82015250565b5f613a47601d83612f8a565b9150613a5282613a13565b602082019050919050565b5f6020820190508181035f830152613a7481613a3b565b9050919050565b7f5472616e73666572206661696c656400000000000000000000000000000000005f82015250565b5f613aaf600f83612f8a565b9150613aba82613a7b565b602082019050919050565b5f6020820190508181035f830152613adc81613aa3565b9050919050565b7f68747470733a2f2f6578616d706c652e636f6d2f726566657272616c2f0000005f82015250565b5f613b17601d836136a8565b9150613b2282613ae3565b601d82019050919050565b5f613b3782613b0b565b9150613b4382846136b2565b915081905092915050565b5f613b5882612d7e565b9150613b6383612d7e565b925082613b7357613b72613864565b5b828206905092915050565b7f4e487b71000000000000000000000000000000000000000000000000000000005f52603260045260245ffdfea26469706673582212208954956721076157133ad46bfaf782d4f4b76b582cbb1c0c7659d01852845be364736f6c634300081a0033",
					"opcodes": "PUSH1 0x80 PUSH1 0x40 MSTORE PUSH1 0x2 PUSH1 0x3 SSTORE CALLVALUE DUP1 ISZERO PUSH2 0x14 JUMPI PUSH0 DUP1 REVERT JUMPDEST POP CALLER PUSH1 0x4 PUSH0 PUSH2 0x100 EXP DUP2 SLOAD DUP2 PUSH20 0xFFFFFFFFFFFFFFFFFFFFFFFFFFFFFFFFFFFFFFFF MUL NOT AND SWAP1 DUP4 PUSH20 0xFFFFFFFFFFFFFFFFFFFFFFFFFFFFFFFFFFFFFFFF AND MUL OR SWAP1 SSTORE POP PUSH1 0x40 MLOAD DUP1 PUSH2 0x1A0 ADD PUSH1 0x40 MSTORE DUP1 PUSH0 PUSH20 0xFFFFFFFFFFFFFFFFFFFFFFFFFFFFFFFFFFFFFFFF AND DUP2 MSTORE PUSH1 0x20 ADD PUSH1 0x1 DUP2 MSTORE PUSH1 0x20 ADD PUSH0 DUP2 MSTORE PUSH1 0x20 ADD PUSH0 DUP2 MSTORE PUSH1 0x20 ADD PUSH0 DUP2 MSTORE PUSH1 0x20 ADD PUSH1 0x1 PUSH1 0xFF AND DUP2 MSTORE PUSH1 0x20 ADD PUSH0 PUSH8 0xFFFFFFFFFFFFFFFF DUP2 GT ISZERO PUSH2 0xBA JUMPI PUSH2 0xB9 PUSH2 0x56E JUMP JUMPDEST JUMPDEST PUSH1 0x40 MLOAD SWAP1 DUP1 DUP3 MSTORE DUP1 PUSH1 0x20 MUL PUSH1 0x20 ADD DUP3 ADD PUSH1 0x40 MSTORE DUP1 ISZERO PUSH2 0xE8 JUMPI DUP2 PUSH1 0x20 ADD PUSH1 0x20 DUP3 MUL DUP1 CALLDATASIZE DUP4 CALLDATACOPY DUP1 DUP3 ADD SWAP2 POP POP SWAP1 POP JUMPDEST POP DUP2 MSTORE PUSH1 0x20 ADD PUSH1 0x40 MLOAD DUP1 PUSH1 0x20 ADD PUSH1 0x40 MSTORE DUP1 PUSH0 DUP2 MSTORE POP DUP2 MSTORE PUSH1 0x20 ADD PUSH1 0x40 MLOAD DUP1 PUSH1 0x20 ADD PUSH1 0x40 MSTORE DUP1 PUSH0 DUP2 MSTORE POP DUP2 MSTORE PUSH1 0x20 ADD PUSH1 0x40 MLOAD DUP1 PUSH1 0x20 ADD PUSH1 0x40 MSTORE DUP1 PUSH0 DUP2 MSTORE POP DUP2 MSTORE PUSH1 0x20 ADD PUSH1 0x40 MLOAD DUP1 PUSH1 0x20 ADD PUSH1 0x40 MSTORE DUP1 PUSH0 DUP2 MSTORE POP DUP2 MSTORE PUSH1 0x20 ADD PUSH0 DUP1 SHL DUP2 MSTORE PUSH1 0x20 ADD PUSH1 0x4 PUSH0 SWAP1 SLOAD SWAP1 PUSH2 0x100 EXP SWAP1 DIV PUSH20 0xFFFFFFFFFFFFFFFFFFFFFFFFFFFFFFFFFFFFFFFF AND PUSH20 0xFFFFFFFFFFFFFFFFFFFFFFFFFFFFFFFFFFFFFFFF AND DUP2 MSTORE POP PUSH0 DUP1 PUSH1 0x4 PUSH0 SWAP1 SLOAD SWAP1 PUSH2 0x100 EXP SWAP1 DIV PUSH20 0xFFFFFFFFFFFFFFFFFFFFFFFFFFFFFFFFFFFFFFFF AND PUSH20 0xFFFFFFFFFFFFFFFFFFFFFFFFFFFFFFFFFFFFFFFF AND PUSH20 0xFFFFFFFFFFFFFFFFFFFFFFFFFFFFFFFFFFFFFFFF AND DUP2 MSTORE PUSH1 0x20 ADD SWAP1 DUP2 MSTORE PUSH1 0x20 ADD PUSH0 KECCAK256 PUSH0 DUP3 ADD MLOAD DUP2 PUSH0 ADD PUSH0 PUSH2 0x100 EXP DUP2 SLOAD DUP2 PUSH20 0xFFFFFFFFFFFFFFFFFFFFFFFFFFFFFFFFFFFFFFFF MUL NOT AND SWAP1 DUP4 PUSH20 0xFFFFFFFFFFFFFFFFFFFFFFFFFFFFFFFFFFFFFFFF AND MUL OR SWAP1 SSTORE POP PUSH1 0x20 DUP3 ADD MLOAD DUP2 PUSH1 0x1 ADD SSTORE PUSH1 0x40 DUP3 ADD MLOAD DUP2 PUSH1 0x2 ADD SSTORE PUSH1 0x60 DUP3 ADD MLOAD DUP2 PUSH1 0x3 ADD SSTORE PUSH1 0x80 DUP3 ADD MLOAD DUP2 PUSH1 0x4 ADD SSTORE PUSH1 0xA0 DUP3 ADD MLOAD DUP2 PUSH1 0x5 ADD PUSH0 PUSH2 0x100 EXP DUP2 SLOAD DUP2 PUSH1 0xFF MUL NOT AND SWAP1 DUP4 PUSH1 0xFF AND MUL OR SWAP1 SSTORE POP PUSH1 0xC0 DUP3 ADD MLOAD DUP2 PUSH1 0x6 ADD SWAP1 DUP1 MLOAD SWAP1 PUSH1 0x20 ADD SWAP1 PUSH2 0x286 SWAP3 SWAP2 SWAP1 PUSH2 0x4CC JUMP JUMPDEST POP PUSH1 0xE0 DUP3 ADD MLOAD DUP2 PUSH1 0x7 ADD SWAP1 DUP2 PUSH2 0x29C SWAP2 SWAP1 PUSH2 0x7A8 JUMP JUMPDEST POP PUSH2 0x100 DUP3 ADD MLOAD DUP2 PUSH1 0x8 ADD SWAP1 DUP2 PUSH2 0x2B3 SWAP2 SWAP1 PUSH2 0x7A8 JUMP JUMPDEST POP PUSH2 0x120 DUP3 ADD MLOAD DUP2 PUSH1 0x9 ADD SWAP1 DUP2 PUSH2 0x2CA SWAP2 SWAP1 PUSH2 0x7A8 JUMP JUMPDEST POP PUSH2 0x140 DUP3 ADD MLOAD DUP2 PUSH1 0xA ADD SWAP1 DUP2 PUSH2 0x2E1 SWAP2 SWAP1 PUSH2 0x7A8 JUMP JUMPDEST POP PUSH2 0x160 DUP3 ADD MLOAD DUP2 PUSH1 0xB ADD SSTORE PUSH2 0x180 DUP3 ADD MLOAD DUP2 PUSH1 0xC ADD PUSH0 PUSH2 0x100 EXP DUP2 SLOAD DUP2 PUSH20 0xFFFFFFFFFFFFFFFFFFFFFFFFFFFFFFFFFFFFFFFF MUL NOT AND SWAP1 DUP4 PUSH20 0xFFFFFFFFFFFFFFFFFFFFFFFFFFFFFFFFFFFFFFFF AND MUL OR SWAP1 SSTORE POP SWAP1 POP POP PUSH1 0x4 PUSH0 SWAP1 SLOAD SWAP1 PUSH2 0x100 EXP SWAP1 DIV PUSH20 0xFFFFFFFFFFFFFFFFFFFFFFFFFFFFFFFFFFFFFFFF AND PUSH1 0x1 PUSH0 PUSH1 0x1 DUP2 MSTORE PUSH1 0x20 ADD SWAP1 DUP2 MSTORE PUSH1 0x20 ADD PUSH0 KECCAK256 PUSH0 PUSH2 0x100 EXP DUP2 SLOAD DUP2 PUSH20 0xFFFFFFFFFFFFFFFFFFFFFFFFFFFFFFFFFFFFFFFF MUL NOT AND SWAP1 DUP4 PUSH20 0xFFFFFFFFFFFFFFFFFFFFFFFFFFFFFFFFFFFFFFFF AND MUL OR SWAP1 SSTORE POP PUSH8 0x4563918244F40000 PUSH1 0x2 PUSH0 PUSH1 0x1 PUSH1 0xFF AND DUP2 MSTORE PUSH1 0x20 ADD SWAP1 DUP2 MSTORE PUSH1 0x20 ADD PUSH0 KECCAK256 DUP2 SWAP1 SSTORE POP PUSH0 PUSH1 0x2 SWAP1 POP JUMPDEST PUSH1 0x8 DUP2 PUSH1 0xFF AND GT PUSH2 0x438 JUMPI PUSH1 0x2 DUP1 PUSH0 PUSH1 0x1 DUP5 PUSH2 0x3EC SWAP2 SWAP1 PUSH2 0x8B0 JUMP JUMPDEST PUSH1 0xFF AND PUSH1 0xFF AND DUP2 MSTORE PUSH1 0x20 ADD SWAP1 DUP2 MSTORE PUSH1 0x20 ADD PUSH0 KECCAK256 SLOAD PUSH2 0x40A SWAP2 SWAP1 PUSH2 0x8E4 JUMP JUMPDEST PUSH1 0x2 PUSH0 DUP4 PUSH1 0xFF AND PUSH1 0xFF AND DUP2 MSTORE PUSH1 0x20 ADD SWAP1 DUP2 MSTORE PUSH1 0x20 ADD PUSH0 KECCAK256 DUP2 SWAP1 SSTORE POP DUP1 DUP1 PUSH2 0x430 SWAP1 PUSH2 0x925 JUMP JUMPDEST SWAP2 POP POP PUSH2 0x3D0 JUMP JUMPDEST POP PUSH9 0x43C33C193756480000 PUSH1 0x2 PUSH0 PUSH1 0x9 PUSH1 0xFF AND DUP2 MSTORE PUSH1 0x20 ADD SWAP1 DUP2 MSTORE PUSH1 0x20 ADD PUSH0 KECCAK256 DUP2 SWAP1 SSTORE POP PUSH9 0x878678326EAC900000 PUSH1 0x2 PUSH0 PUSH1 0xA PUSH1 0xFF AND DUP2 MSTORE PUSH1 0x20 ADD SWAP1 DUP2 MSTORE PUSH1 0x20 ADD PUSH0 KECCAK256 DUP2 SWAP1 SSTORE POP PUSH10 0x10F0CF064DD59200000 PUSH1 0x2 PUSH0 PUSH1 0xB PUSH1 0xFF AND DUP2 MSTORE PUSH1 0x20 ADD SWAP1 DUP2 MSTORE PUSH1 0x20 ADD PUSH0 KECCAK256 DUP2 SWAP1 SSTORE POP PUSH10 0x218AE196B8D4F300000 PUSH1 0x2 PUSH0 PUSH1 0xC PUSH1 0xFF AND DUP2 MSTORE PUSH1 0x20 ADD SWAP1 DUP2 MSTORE PUSH1 0x20 ADD PUSH0 KECCAK256 DUP2 SWAP1 SSTORE POP PUSH2 0x94D JUMP JUMPDEST DUP3 DUP1 SLOAD DUP3 DUP3 SSTORE SWAP1 PUSH0 MSTORE PUSH1 0x20 PUSH0 KECCAK256 SWAP1 DUP2 ADD SWAP3 DUP3 ISZERO PUSH2 0x542 JUMPI SWAP2 PUSH1 0x20 MUL DUP3 ADD JUMPDEST DUP3 DUP2 GT ISZERO PUSH2 0x541 JUMPI DUP3 MLOAD DUP3 PUSH0 PUSH2 0x100 EXP DUP2 SLOAD DUP2 PUSH20 0xFFFFFFFFFFFFFFFFFFFFFFFFFFFFFFFFFFFFFFFF MUL NOT AND SWAP1 DUP4 PUSH20 0xFFFFFFFFFFFFFFFFFFFFFFFFFFFFFFFFFFFFFFFF AND MUL OR SWAP1 SSTORE POP SWAP2 PUSH1 0x20 ADD SWAP2 SWAP1 PUSH1 0x1 ADD SWAP1 PUSH2 0x4EA JUMP JUMPDEST JUMPDEST POP SWAP1 POP PUSH2 0x54F SWAP2 SWAP1 PUSH2 0x553 JUMP JUMPDEST POP SWAP1 JUMP JUMPDEST JUMPDEST DUP1 DUP3 GT ISZERO PUSH2 0x56A JUMPI PUSH0 DUP2 PUSH0 SWAP1 SSTORE POP PUSH1 0x1 ADD PUSH2 0x554 JUMP JUMPDEST POP SWAP1 JUMP JUMPDEST PUSH32 0x4E487B7100000000000000000000000000000000000000000000000000000000 PUSH0 MSTORE PUSH1 0x41 PUSH1 0x4 MSTORE PUSH1 0x24 PUSH0 REVERT JUMPDEST PUSH0 DUP2 MLOAD SWAP1 POP SWAP2 SWAP1 POP JUMP JUMPDEST PUSH32 0x4E487B7100000000000000000000000000000000000000000000000000000000 PUSH0 MSTORE PUSH1 0x22 PUSH1 0x4 MSTORE PUSH1 0x24 PUSH0 REVERT JUMPDEST PUSH0 PUSH1 0x2 DUP3 DIV SWAP1 POP PUSH1 0x1 DUP3 AND DUP1 PUSH2 0x5E9 JUMPI PUSH1 0x7F DUP3 AND SWAP2 POP JUMPDEST PUSH1 0x20 DUP3 LT DUP2 SUB PUSH2 0x5FC JUMPI PUSH2 0x5FB PUSH2 0x5A5 JUMP JUMPDEST JUMPDEST POP SWAP2 SWAP1 POP JUMP JUMPDEST PUSH0 DUP2 SWAP1 POP DUP2 PUSH0 MSTORE PUSH1 0x20 PUSH0 KECCAK256 SWAP1 POP SWAP2 SWAP1 POP JUMP JUMPDEST PUSH0 PUSH1 0x20 PUSH1 0x1F DUP4 ADD DIV SWAP1 POP SWAP2 SWAP1 POP JUMP JUMPDEST PUSH0 DUP3 DUP3 SHL SWAP1 POP SWAP3 SWAP2 POP POP JUMP JUMPDEST PUSH0 PUSH1 0x8 DUP4 MUL PUSH2 0x65E PUSH32 0xFFFFFFFFFFFFFFFFFFFFFFFFFFFFFFFFFFFFFFFFFFFFFFFFFFFFFFFFFFFFFFFF DUP3 PUSH2 0x623 JUMP JUMPDEST PUSH2 0x668 DUP7 DUP4 PUSH2 0x623 JUMP JUMPDEST SWAP6 POP DUP1 NOT DUP5 AND SWAP4 POP DUP1 DUP7 AND DUP5 OR SWAP3 POP POP POP SWAP4 SWAP3 POP POP POP JUMP JUMPDEST PUSH0 DUP2 SWAP1 POP SWAP2 SWAP1 POP JUMP JUMPDEST PUSH0 DUP2 SWAP1 POP SWAP2 SWAP1 POP JUMP JUMPDEST PUSH0 PUSH2 0x6AC PUSH2 0x6A7 PUSH2 0x6A2 DUP5 PUSH2 0x680 JUMP JUMPDEST PUSH2 0x689 JUMP JUMPDEST PUSH2 0x680 JUMP JUMPDEST SWAP1 POP SWAP2 SWAP1 POP JUMP JUMPDEST PUSH0 DUP2 SWAP1 POP SWAP2 SWAP1 POP JUMP JUMPDEST PUSH2 0x6C5 DUP4 PUSH2 0x692 JUMP JUMPDEST PUSH2 0x6D9 PUSH2 0x6D1 DUP3 PUSH2 0x6B3 JUMP JUMPDEST DUP5 DUP5 SLOAD PUSH2 0x62F JUMP JUMPDEST DUP3 SSTORE POP POP POP POP JUMP JUMPDEST PUSH0 SWAP1 JUMP JUMPDEST PUSH2 0x6ED PUSH2 0x6E1 JUMP JUMPDEST PUSH2 0x6F8 DUP2 DUP5 DUP5 PUSH2 0x6BC JUMP JUMPDEST POP POP POP JUMP JUMPDEST JUMPDEST DUP2 DUP2 LT ISZERO PUSH2 0x71B JUMPI PUSH2 0x710 PUSH0 DUP3 PUSH2 0x6E5 JUMP JUMPDEST PUSH1 0x1 DUP2 ADD SWAP1 POP PUSH2 0x6FE JUMP JUMPDEST POP POP JUMP JUMPDEST PUSH1 0x1F DUP3 GT ISZERO PUSH2 0x760 JUMPI PUSH2 0x731 DUP2 PUSH2 0x602 JUMP JUMPDEST PUSH2 0x73A DUP5 PUSH2 0x614 JUMP JUMPDEST DUP2 ADD PUSH1 0x20 DUP6 LT ISZERO PUSH2 0x749 JUMPI DUP2 SWAP1 POP JUMPDEST PUSH2 0x75D PUSH2 0x755 DUP6 PUSH2 0x614 JUMP JUMPDEST DUP4 ADD DUP3 PUSH2 0x6FD JUMP JUMPDEST POP POP JUMPDEST POP POP POP JUMP JUMPDEST PUSH0 DUP3 DUP3 SHR SWAP1 POP SWAP3 SWAP2 POP POP JUMP JUMPDEST PUSH0 PUSH2 0x780 PUSH0 NOT DUP5 PUSH1 0x8 MUL PUSH2 0x765 JUMP JUMPDEST NOT DUP1 DUP4 AND SWAP2 POP POP SWAP3 SWAP2 POP POP JUMP JUMPDEST PUSH0 PUSH2 0x798 DUP4 DUP4 PUSH2 0x771 JUMP JUMPDEST SWAP2 POP DUP3 PUSH1 0x2 MUL DUP3 OR SWAP1 POP SWAP3 SWAP2 POP POP JUMP JUMPDEST PUSH2 0x7B1 DUP3 PUSH2 0x59B JUMP JUMPDEST PUSH8 0xFFFFFFFFFFFFFFFF DUP2 GT ISZERO PUSH2 0x7CA JUMPI PUSH2 0x7C9 PUSH2 0x56E JUMP JUMPDEST JUMPDEST PUSH2 0x7D4 DUP3 SLOAD PUSH2 0x5D2 JUMP JUMPDEST PUSH2 0x7DF DUP3 DUP3 DUP6 PUSH2 0x71F JUMP JUMPDEST PUSH0 PUSH1 0x20 SWAP1 POP PUSH1 0x1F DUP4 GT PUSH1 0x1 DUP2 EQ PUSH2 0x810 JUMPI PUSH0 DUP5 ISZERO PUSH2 0x7FE JUMPI DUP3 DUP8 ADD MLOAD SWAP1 POP JUMPDEST PUSH2 0x808 DUP6 DUP3 PUSH2 0x78D JUMP JUMPDEST DUP7 SSTORE POP PUSH2 0x86F JUMP JUMPDEST PUSH1 0x1F NOT DUP5 AND PUSH2 0x81E DUP7 PUSH2 0x602 JUMP JUMPDEST PUSH0 JUMPDEST DUP3 DUP2 LT ISZERO PUSH2 0x845 JUMPI DUP5 DUP10 ADD MLOAD DUP3 SSTORE PUSH1 0x1 DUP3 ADD SWAP2 POP PUSH1 0x20 DUP6 ADD SWAP5 POP PUSH1 0x20 DUP2 ADD SWAP1 POP PUSH2 0x820 JUMP JUMPDEST DUP7 DUP4 LT ISZERO PUSH2 0x862 JUMPI DUP5 DUP10 ADD MLOAD PUSH2 0x85E PUSH1 0x1F DUP10 AND DUP3 PUSH2 0x771 JUMP JUMPDEST DUP4 SSTORE POP JUMPDEST PUSH1 0x1 PUSH1 0x2 DUP9 MUL ADD DUP9 SSTORE POP POP POP JUMPDEST POP POP POP POP POP POP JUMP JUMPDEST PUSH0 PUSH1 0xFF DUP3 AND SWAP1 POP SWAP2 SWAP1 POP JUMP JUMPDEST PUSH32 0x4E487B7100000000000000000000000000000000000000000000000000000000 PUSH0 MSTORE PUSH1 0x11 PUSH1 0x4 MSTORE PUSH1 0x24 PUSH0 REVERT JUMPDEST PUSH0 PUSH2 0x8BA DUP3 PUSH2 0x877 JUMP JUMPDEST SWAP2 POP PUSH2 0x8C5 DUP4 PUSH2 0x877 JUMP JUMPDEST SWAP3 POP DUP3 DUP3 SUB SWAP1 POP PUSH1 0xFF DUP2 GT ISZERO PUSH2 0x8DE JUMPI PUSH2 0x8DD PUSH2 0x883 JUMP JUMPDEST JUMPDEST SWAP3 SWAP2 POP POP JUMP JUMPDEST PUSH0 PUSH2 0x8EE DUP3 PUSH2 0x680 JUMP JUMPDEST SWAP2 POP PUSH2 0x8F9 DUP4 PUSH2 0x680 JUMP JUMPDEST SWAP3 POP DUP3 DUP3 MUL PUSH2 0x907 DUP2 PUSH2 0x680 JUMP JUMPDEST SWAP2 POP DUP3 DUP3 DIV DUP5 EQ DUP4 ISZERO OR PUSH2 0x91E JUMPI PUSH2 0x91D PUSH2 0x883 JUMP JUMPDEST JUMPDEST POP SWAP3 SWAP2 POP POP JUMP JUMPDEST PUSH0 PUSH2 0x92F DUP3 PUSH2 0x877 JUMP JUMPDEST SWAP2 POP PUSH1 0xFF DUP3 SUB PUSH2 0x942 JUMPI PUSH2 0x941 PUSH2 0x883 JUMP JUMPDEST JUMPDEST PUSH1 0x1 DUP3 ADD SWAP1 POP SWAP2 SWAP1 POP JUMP JUMPDEST PUSH2 0x3BE1 DUP1 PUSH2 0x95A PUSH0 CODECOPY PUSH0 RETURN INVALID PUSH1 0x80 PUSH1 0x40 MSTORE PUSH1 0x4 CALLDATASIZE LT PUSH2 0xFD JUMPI PUSH0 CALLDATALOAD PUSH1 0xE0 SHR DUP1 PUSH4 0x6F8E2516 GT PUSH2 0x94 JUMPI DUP1 PUSH4 0x9AC7E09E GT PUSH2 0x63 JUMPI DUP1 PUSH4 0x9AC7E09E EQ PUSH2 0x327 JUMPI DUP1 PUSH4 0xA87430BA EQ PUSH2 0x351 JUMPI DUP1 PUSH4 0xAED8A6A7 EQ PUSH2 0x398 JUMPI DUP1 PUSH4 0xDE972B43 EQ PUSH2 0x3D4 JUMPI DUP1 PUSH4 0xECABDF79 EQ PUSH2 0x411 JUMPI PUSH2 0xFD JUMP JUMPDEST DUP1 PUSH4 0x6F8E2516 EQ PUSH2 0x275 JUMPI DUP1 PUSH4 0x8D17A4D0 EQ PUSH2 0x2B1 JUMPI DUP1 PUSH4 0x8DA5CB5B EQ PUSH2 0x2CD JUMPI DUP1 PUSH4 0x90426274 EQ PUSH2 0x2F7 JUMPI PUSH2 0xFD JUMP JUMPDEST DUP1 PUSH4 0x348D4487 GT PUSH2 0xD0 JUMPI DUP1 PUSH4 0x348D4487 EQ PUSH2 0x19F JUMPI DUP1 PUSH4 0x6386C1C7 EQ PUSH2 0x1C9 JUMPI DUP1 PUSH4 0x64B4F751 EQ PUSH2 0x20F JUMPI DUP1 PUSH4 0x6ED6DA9E EQ PUSH2 0x239 JUMPI PUSH2 0xFD JUMP JUMPDEST DUP1 PUSH4 0x1394C053 EQ PUSH2 0x101 JUMPI DUP1 PUSH4 0x29C70400 EQ PUSH2 0x11D JUMPI DUP1 PUSH4 0x2A2D0C47 EQ PUSH2 0x147 JUMPI DUP1 PUSH4 0x3056DEB8 EQ PUSH2 0x183 JUMPI JUMPDEST PUSH0 DUP1 REVERT JUMPDEST PUSH2 0x11B PUSH1 0x4 DUP1 CALLDATASIZE SUB DUP2 ADD SWAP1 PUSH2 0x116 SWAP2 SWAP1 PUSH2 0x2C63 JUMP JUMPDEST PUSH2 0x44D JUMP JUMPDEST STOP JUMPDEST CALLVALUE DUP1 ISZERO PUSH2 0x128 JUMPI PUSH0 DUP1 REVERT JUMPDEST POP PUSH2 0x131 PUSH2 0x8BC JUMP JUMPDEST PUSH1 0x40 MLOAD PUSH2 0x13E SWAP2 SWAP1 PUSH2 0x2D65 JUMP JUMPDEST PUSH1 0x40 MLOAD DUP1 SWAP2 SUB SWAP1 RETURN JUMPDEST CALLVALUE DUP1 ISZERO PUSH2 0x152 JUMPI PUSH0 DUP1 REVERT JUMPDEST POP PUSH2 0x16D PUSH1 0x4 DUP1 CALLDATASIZE SUB DUP2 ADD SWAP1 PUSH2 0x168 SWAP2 SWAP1 PUSH2 0x2DB1 JUMP JUMPDEST PUSH2 0x8C1 JUMP JUMPDEST PUSH1 0x40 MLOAD PUSH2 0x17A SWAP2 SWAP1 PUSH2 0x2DEB JUMP JUMPDEST PUSH1 0x40 MLOAD DUP1 SWAP2 SUB SWAP1 RETURN JUMPDEST PUSH2 0x19D PUSH1 0x4 DUP1 CALLDATASIZE SUB DUP2 ADD SWAP1 PUSH2 0x198 SWAP2 SWAP1 PUSH2 0x2E04 JUMP JUMPDEST PUSH2 0x8F1 JUMP JUMPDEST STOP JUMPDEST CALLVALUE DUP1 ISZERO PUSH2 0x1AA JUMPI PUSH0 DUP1 REVERT JUMPDEST POP PUSH2 0x1B3 PUSH2 0xEC5 JUMP JUMPDEST PUSH1 0x40 MLOAD PUSH2 0x1C0 SWAP2 SWAP1 PUSH2 0x2F3C JUMP JUMPDEST PUSH1 0x40 MLOAD DUP1 SWAP2 SUB SWAP1 RETURN JUMPDEST CALLVALUE DUP1 ISZERO PUSH2 0x1D4 JUMPI PUSH0 DUP1 REVERT JUMPDEST POP PUSH2 0x1EF PUSH1 0x4 DUP1 CALLDATASIZE SUB DUP2 ADD SWAP1 PUSH2 0x1EA SWAP2 SWAP1 PUSH2 0x2F55 JUMP JUMPDEST PUSH2 0xECB JUMP JUMPDEST PUSH1 0x40 MLOAD PUSH2 0x206 SWAP12 SWAP11 SWAP10 SWAP9 SWAP8 SWAP7 SWAP6 SWAP5 SWAP4 SWAP3 SWAP2 SWAP1 PUSH2 0x2FE0 JUMP JUMPDEST PUSH1 0x40 MLOAD DUP1 SWAP2 SUB SWAP1 RETURN JUMPDEST CALLVALUE DUP1 ISZERO PUSH2 0x21A JUMPI PUSH0 DUP1 REVERT JUMPDEST POP PUSH2 0x223 PUSH2 0x134B JUMP JUMPDEST PUSH1 0x40 MLOAD PUSH2 0x230 SWAP2 SWAP1 PUSH2 0x2F3C JUMP JUMPDEST PUSH1 0x40 MLOAD DUP1 SWAP2 SUB SWAP1 RETURN JUMPDEST CALLVALUE DUP1 ISZERO PUSH2 0x244 JUMPI PUSH0 DUP1 REVERT JUMPDEST POP PUSH2 0x25F PUSH1 0x4 DUP1 CALLDATASIZE SUB DUP2 ADD SWAP1 PUSH2 0x25A SWAP2 SWAP1 PUSH2 0x2DB1 JUMP JUMPDEST PUSH2 0x1358 JUMP JUMPDEST PUSH1 0x40 MLOAD PUSH2 0x26C SWAP2 SWAP1 PUSH2 0x2DEB JUMP JUMPDEST PUSH1 0x40 MLOAD DUP1 SWAP2 SUB SWAP1 RETURN JUMPDEST CALLVALUE DUP1 ISZERO PUSH2 0x280 JUMPI PUSH0 DUP1 REVERT JUMPDEST POP PUSH2 0x29B PUSH1 0x4 DUP1 CALLDATASIZE SUB DUP2 ADD SWAP1 PUSH2 0x296 SWAP2 SWAP1 PUSH2 0x30CF JUMP JUMPDEST PUSH2 0x1391 JUMP JUMPDEST PUSH1 0x40 MLOAD PUSH2 0x2A8 SWAP2 SWAP1 PUSH2 0x2F3C JUMP JUMPDEST PUSH1 0x40 MLOAD DUP1 SWAP2 SUB SWAP1 RETURN JUMPDEST PUSH2 0x2CB PUSH1 0x4 DUP1 CALLDATASIZE SUB DUP2 ADD SWAP1 PUSH2 0x2C6 SWAP2 SWAP1 PUSH2 0x30CF JUMP JUMPDEST PUSH2 0x140B JUMP JUMPDEST STOP JUMPDEST CALLVALUE DUP1 ISZERO PUSH2 0x2D8 JUMPI PUSH0 DUP1 REVERT JUMPDEST POP PUSH2 0x2E1 PUSH2 0x184B JUMP JUMPDEST PUSH1 0x40 MLOAD PUSH2 0x2EE SWAP2 SWAP1 PUSH2 0x2DEB JUMP JUMPDEST PUSH1 0x40 MLOAD DUP1 SWAP2 SUB SWAP1 RETURN JUMPDEST PUSH2 0x311 PUSH1 0x4 DUP1 CALLDATASIZE SUB DUP2 ADD SWAP1 PUSH2 0x30C SWAP2 SWAP1 PUSH2 0x2F55 JUMP JUMPDEST PUSH2 0x1870 JUMP JUMPDEST PUSH1 0x40 MLOAD PUSH2 0x31E SWAP2 SWAP1 PUSH2 0x2F3C JUMP JUMPDEST PUSH1 0x40 MLOAD DUP1 SWAP2 SUB SWAP1 RETURN JUMPDEST CALLVALUE DUP1 ISZERO PUSH2 0x332 JUMPI PUSH0 DUP1 REVERT JUMPDEST POP PUSH2 0x33B PUSH2 0x1D38 JUMP JUMPDEST PUSH1 0x40 MLOAD PUSH2 0x348 SWAP2 SWAP1 PUSH2 0x2F3C JUMP JUMPDEST PUSH1 0x40 MLOAD DUP1 SWAP2 SUB SWAP1 RETURN JUMPDEST CALLVALUE DUP1 ISZERO PUSH2 0x35C JUMPI PUSH0 DUP1 REVERT JUMPDEST POP PUSH2 0x377 PUSH1 0x4 DUP1 CALLDATASIZE SUB DUP2 ADD SWAP1 PUSH2 0x372 SWAP2 SWAP1 PUSH2 0x2F55 JUMP JUMPDEST PUSH2 0x1D44 JUMP JUMPDEST PUSH1 0x40 MLOAD PUSH2 0x38F SWAP13 SWAP12 SWAP11 SWAP10 SWAP9 SWAP8 SWAP7 SWAP6 SWAP5 SWAP4 SWAP3 SWAP2 SWAP1 PUSH2 0x3112 JUMP JUMPDEST PUSH1 0x40 MLOAD DUP1 SWAP2 SUB SWAP1 RETURN JUMPDEST CALLVALUE DUP1 ISZERO PUSH2 0x3A3 JUMPI PUSH0 DUP1 REVERT JUMPDEST POP PUSH2 0x3BE PUSH1 0x4 DUP1 CALLDATASIZE SUB DUP2 ADD SWAP1 PUSH2 0x3B9 SWAP2 SWAP1 PUSH2 0x2F55 JUMP JUMPDEST PUSH2 0x2001 JUMP JUMPDEST PUSH1 0x40 MLOAD PUSH2 0x3CB SWAP2 SWAP1 PUSH2 0x31E6 JUMP JUMPDEST PUSH1 0x40 MLOAD DUP1 SWAP2 SUB SWAP1 RETURN JUMPDEST CALLVALUE DUP1 ISZERO PUSH2 0x3DF JUMPI PUSH0 DUP1 REVERT JUMPDEST POP PUSH2 0x3FA PUSH1 0x4 DUP1 CALLDATASIZE SUB DUP2 ADD SWAP1 PUSH2 0x3F5 SWAP2 SWAP1 PUSH2 0x2F55 JUMP JUMPDEST PUSH2 0x2076 JUMP JUMPDEST PUSH1 0x40 MLOAD PUSH2 0x408 SWAP3 SWAP2 SWAP1 PUSH2 0x3206 JUMP JUMPDEST PUSH1 0x40 MLOAD DUP1 SWAP2 SUB SWAP1 RETURN JUMPDEST CALLVALUE DUP1 ISZERO PUSH2 0x41C JUMPI PUSH0 DUP1 REVERT JUMPDEST POP PUSH2 0x437 PUSH1 0x4 DUP1 CALLDATASIZE SUB DUP2 ADD SWAP1 PUSH2 0x432 SWAP2 SWAP1 PUSH2 0x30CF JUMP JUMPDEST PUSH2 0x2499 JUMP JUMPDEST PUSH1 0x40 MLOAD PUSH2 0x444 SWAP2 SWAP1 PUSH2 0x2F3C JUMP JUMPDEST PUSH1 0x40 MLOAD DUP1 SWAP2 SUB SWAP1 RETURN JUMPDEST PUSH0 DUP1 PUSH0 DUP8 PUSH20 0xFFFFFFFFFFFFFFFFFFFFFFFFFFFFFFFFFFFFFFFF AND PUSH20 0xFFFFFFFFFFFFFFFFFFFFFFFFFFFFFFFFFFFFFFFF AND DUP2 MSTORE PUSH1 0x20 ADD SWAP1 DUP2 MSTORE PUSH1 0x20 ADD PUSH0 KECCAK256 PUSH1 0x1 ADD SLOAD EQ PUSH2 0x4CE JUMPI PUSH1 0x40 MLOAD PUSH32 0x8C379A000000000000000000000000000000000000000000000000000000000 DUP2 MSTORE PUSH1 0x4 ADD PUSH2 0x4C5 SWAP1 PUSH2 0x3277 JUMP JUMPDEST PUSH1 0x40 MLOAD DUP1 SWAP2 SUB SWAP1 REVERT JUMPDEST PUSH1 0x40 MLOAD DUP1 PUSH2 0x1A0 ADD PUSH1 0x40 MSTORE DUP1 PUSH0 PUSH20 0xFFFFFFFFFFFFFFFFFFFFFFFFFFFFFFFFFFFFFFFF AND DUP2 MSTORE PUSH1 0x20 ADD PUSH1 0x3 SLOAD DUP2 MSTORE PUSH1 0x20 ADD PUSH0 DUP2 MSTORE PUSH1 0x20 ADD PUSH0 DUP2 MSTORE PUSH1 0x20 ADD PUSH0 DUP2 MSTORE PUSH1 0x20 ADD PUSH1 0x1 PUSH1 0xFF AND DUP2 MSTORE PUSH1 0x20 ADD PUSH0 PUSH8 0xFFFFFFFFFFFFFFFF DUP2 GT ISZERO PUSH2 0x534 JUMPI PUSH2 0x533 PUSH2 0x2B3F JUMP JUMPDEST JUMPDEST PUSH1 0x40 MLOAD SWAP1 DUP1 DUP3 MSTORE DUP1 PUSH1 0x20 MUL PUSH1 0x20 ADD DUP3 ADD PUSH1 0x40 MSTORE DUP1 ISZERO PUSH2 0x562 JUMPI DUP2 PUSH1 0x20 ADD PUSH1 0x20 DUP3 MUL DUP1 CALLDATASIZE DUP4 CALLDATACOPY DUP1 DUP3 ADD SWAP2 POP POP SWAP1 POP JUMPDEST POP DUP2 MSTORE PUSH1 0x20 ADD DUP6 DUP2 MSTORE PUSH1 0x20 ADD DUP5 DUP2 MSTORE PUSH1 0x20 ADD DUP4 DUP2 MSTORE PUSH1 0x20 ADD DUP3 DUP2 MSTORE PUSH1 0x20 ADD PUSH0 DUP1 SHL DUP2 MSTORE PUSH1 0x20 ADD DUP7 PUSH20 0xFFFFFFFFFFFFFFFFFFFFFFFFFFFFFFFFFFFFFFFF AND DUP2 MSTORE POP PUSH0 DUP1 DUP8 PUSH20 0xFFFFFFFFFFFFFFFFFFFFFFFFFFFFFFFFFFFFFFFF AND PUSH20 0xFFFFFFFFFFFFFFFFFFFFFFFFFFFFFFFFFFFFFFFF AND DUP2 MSTORE PUSH1 0x20 ADD SWAP1 DUP2 MSTORE PUSH1 0x20 ADD PUSH0 KECCAK256 PUSH0 DUP3 ADD MLOAD DUP2 PUSH0 ADD PUSH0 PUSH2 0x100 EXP DUP2 SLOAD DUP2 PUSH20 0xFFFFFFFFFFFFFFFFFFFFFFFFFFFFFFFFFFFFFFFF MUL NOT AND SWAP1 DUP4 PUSH20 0xFFFFFFFFFFFFFFFFFFFFFFFFFFFFFFFFFFFFFFFF AND MUL OR SWAP1 SSTORE POP PUSH1 0x20 DUP3 ADD MLOAD DUP2 PUSH1 0x1 ADD SSTORE PUSH1 0x40 DUP3 ADD MLOAD DUP2 PUSH1 0x2 ADD SSTORE PUSH1 0x60 DUP3 ADD MLOAD DUP2 PUSH1 0x3 ADD SSTORE PUSH1 0x80 DUP3 ADD MLOAD DUP2 PUSH1 0x4 ADD SSTORE PUSH1 0xA0 DUP3 ADD MLOAD DUP2 PUSH1 0x5 ADD PUSH0 PUSH2 0x100 EXP DUP2 SLOAD DUP2 PUSH1 0xFF MUL NOT AND SWAP1 DUP4 PUSH1 0xFF AND MUL OR SWAP1 SSTORE POP PUSH1 0xC0 DUP3 ADD MLOAD DUP2 PUSH1 0x6 ADD SWAP1 DUP1 MLOAD SWAP1 PUSH1 0x20 ADD SWAP1 PUSH2 0x686 SWAP3 SWAP2 SWAP1 PUSH2 0x2A1A JUMP JUMPDEST POP PUSH1 0xE0 DUP3 ADD MLOAD DUP2 PUSH1 0x7 ADD SWAP1 DUP2 PUSH2 0x69C SWAP2 SWAP1 PUSH2 0x348F JUMP JUMPDEST POP PUSH2 0x100 DUP3 ADD MLOAD DUP2 PUSH1 0x8 ADD SWAP1 DUP2 PUSH2 0x6B3 SWAP2 SWAP1 PUSH2 0x348F JUMP JUMPDEST POP PUSH2 0x120 DUP3 ADD MLOAD DUP2 PUSH1 0x9 ADD SWAP1 DUP2 PUSH2 0x6CA SWAP2 SWAP1 PUSH2 0x348F JUMP JUMPDEST POP PUSH2 0x140 DUP3 ADD MLOAD DUP2 PUSH1 0xA ADD SWAP1 DUP2 PUSH2 0x6E1 SWAP2 SWAP1 PUSH2 0x348F JUMP JUMPDEST POP PUSH2 0x160 DUP3 ADD MLOAD DUP2 PUSH1 0xB ADD SSTORE PUSH2 0x180 DUP3 ADD MLOAD DUP2 PUSH1 0xC ADD PUSH0 PUSH2 0x100 EXP DUP2 SLOAD DUP2 PUSH20 0xFFFFFFFFFFFFFFFFFFFFFFFFFFFFFFFFFFFFFFFF MUL NOT AND SWAP1 DUP4 PUSH20 0xFFFFFFFFFFFFFFFFFFFFFFFFFFFFFFFFFFFFFFFF AND MUL OR SWAP1 SSTORE POP SWAP1 POP POP DUP5 PUSH1 0x1 PUSH0 PUSH1 0x3 SLOAD DUP2 MSTORE PUSH1 0x20 ADD SWAP1 DUP2 MSTORE PUSH1 0x20 ADD PUSH0 KECCAK256 PUSH0 PUSH2 0x100 EXP DUP2 SLOAD DUP2 PUSH20 0xFFFFFFFFFFFFFFFFFFFFFFFFFFFFFFFFFFFFFFFF MUL NOT AND SWAP1 DUP4 PUSH20 0xFFFFFFFFFFFFFFFFFFFFFFFFFFFFFFFFFFFFFFFF AND MUL OR SWAP1 SSTORE POP PUSH1 0x3 PUSH0 DUP2 SLOAD DUP1 SWAP3 SWAP2 SWAP1 PUSH2 0x79A SWAP1 PUSH2 0x358B JUMP JUMPDEST SWAP2 SWAP1 POP SSTORE POP PUSH1 0x4 PUSH0 SWAP1 SLOAD SWAP1 PUSH2 0x100 EXP SWAP1 DIV PUSH20 0xFFFFFFFFFFFFFFFFFFFFFFFFFFFFFFFFFFFFFFFF AND PUSH20 0xFFFFFFFFFFFFFFFFFFFFFFFFFFFFFFFFFFFFFFFF AND PUSH2 0x8FC CALLVALUE SWAP1 DUP2 ISZERO MUL SWAP1 PUSH1 0x40 MLOAD PUSH0 PUSH1 0x40 MLOAD DUP1 DUP4 SUB DUP2 DUP6 DUP9 DUP9 CALL SWAP4 POP POP POP POP ISZERO DUP1 ISZERO PUSH2 0x803 JUMPI RETURNDATASIZE PUSH0 DUP1 RETURNDATACOPY RETURNDATASIZE PUSH0 REVERT JUMPDEST POP PUSH0 PUSH20 0xFFFFFFFFFFFFFFFFFFFFFFFFFFFFFFFFFFFFFFFF AND DUP6 PUSH20 0xFFFFFFFFFFFFFFFFFFFFFFFFFFFFFFFFFFFFFFFF AND PUSH32 0xC1DF0CC11CC2A40AE327C4DA54A7BC5D5007047AC744E37EED7B461A78117215 PUSH0 DUP1 DUP10 PUSH20 0xFFFFFFFFFFFFFFFFFFFFFFFFFFFFFFFFFFFFFFFF AND PUSH20 0xFFFFFFFFFFFFFFFFFFFFFFFFFFFFFFFFFFFFFFFF AND DUP2 MSTORE PUSH1 0x20 ADD SWAP1 DUP2 MSTORE PUSH1 0x20 ADD PUSH0 KECCAK256 PUSH1 0x1 ADD SLOAD PUSH0 PUSH9 0x15AF1D78B58C40000 PUSH1 0x40 MLOAD PUSH2 0x8AD SWAP4 SWAP3 SWAP2 SWAP1 PUSH2 0x360B JUMP JUMPDEST PUSH1 0x40 MLOAD DUP1 SWAP2 SUB SWAP1 LOG3 POP POP POP POP POP JUMP JUMPDEST PUSH1 0xC DUP2 JUMP JUMPDEST PUSH1 0x1 PUSH1 0x20 MSTORE DUP1 PUSH0 MSTORE PUSH1 0x40 PUSH0 KECCAK256 PUSH0 SWAP2 POP SLOAD SWAP1 PUSH2 0x100 EXP SWAP1 DIV PUSH20 0xFFFFFFFFFFFFFFFFFFFFFFFFFFFFFFFFFFFFFFFF AND DUP2 JUMP JUMPDEST PUSH0 DUP1 PUSH0 DUP10 PUSH20 0xFFFFFFFFFFFFFFFFFFFFFFFFFFFFFFFFFFFFFFFF AND PUSH20 0xFFFFFFFFFFFFFFFFFFFFFFFFFFFFFFFFFFFFFFFF AND DUP2 MSTORE PUSH1 0x20 ADD SWAP1 DUP2 MSTORE PUSH1 0x20 ADD PUSH0 KECCAK256 PUSH1 0x1 ADD SLOAD SUB PUSH2 0x972 JUMPI PUSH1 0x40 MLOAD PUSH32 0x8C379A000000000000000000000000000000000000000000000000000000000 DUP2 MSTORE PUSH1 0x4 ADD PUSH2 0x969 SWAP1 PUSH2 0x368A JUMP JUMPDEST PUSH1 0x40 MLOAD DUP1 SWAP2 SUB SWAP1 REVERT JUMPDEST PUSH0 DUP3 PUSH1 0x40 MLOAD PUSH1 0x20 ADD PUSH2 0x984 SWAP2 SWAP1 PUSH2 0x36E2 JUMP JUMPDEST PUSH1 0x40 MLOAD PUSH1 0x20 DUP2 DUP4 SUB SUB DUP2 MSTORE SWAP1 PUSH1 0x40 MSTORE DUP1 MLOAD SWAP1 PUSH1 0x20 ADD KECCAK256 SWAP1 POP PUSH1 0x40 MLOAD DUP1 PUSH2 0x1A0 ADD PUSH1 0x40 MSTORE DUP1 DUP10 PUSH20 0xFFFFFFFFFFFFFFFFFFFFFFFFFFFFFFFFFFFFFFFF AND DUP2 MSTORE PUSH1 0x20 ADD PUSH1 0x3 SLOAD DUP2 MSTORE PUSH1 0x20 ADD PUSH0 DUP2 MSTORE PUSH1 0x20 ADD PUSH0 DUP2 MSTORE PUSH1 0x20 ADD PUSH0 DUP2 MSTORE PUSH1 0x20 ADD PUSH1 0x1 PUSH1 0xFF AND DUP2 MSTORE PUSH1 0x20 ADD PUSH0 PUSH8 0xFFFFFFFFFFFFFFFF DUP2 GT ISZERO PUSH2 0xA02 JUMPI PUSH2 0xA01 PUSH2 0x2B3F JUMP JUMPDEST JUMPDEST PUSH1 0x40 MLOAD SWAP1 DUP1 DUP3 MSTORE DUP1 PUSH1 0x20 MUL PUSH1 0x20 ADD DUP3 ADD PUSH1 0x40 MSTORE DUP1 ISZERO PUSH2 0xA30 JUMPI DUP2 PUSH1 0x20 ADD PUSH1 0x20 DUP3 MUL DUP1 CALLDATASIZE DUP4 CALLDATACOPY DUP1 DUP3 ADD SWAP2 POP POP SWAP1 POP JUMPDEST POP DUP2 MSTORE PUSH1 0x20 ADD DUP9 DUP2 MSTORE PUSH1 0x20 ADD DUP8 DUP2 MSTORE PUSH1 0x20 ADD DUP7 DUP2 MSTORE PUSH1 0x20 ADD DUP6 DUP2 MSTORE PUSH1 0x20 ADD DUP3 DUP2 MSTORE PUSH1 0x20 ADD DUP4 PUSH20 0xFFFFFFFFFFFFFFFFFFFFFFFFFFFFFFFFFFFFFFFF AND DUP2 MSTORE POP PUSH0 DUP1 CALLER PUSH20 0xFFFFFFFFFFFFFFFFFFFFFFFFFFFFFFFFFFFFFFFF AND PUSH20 0xFFFFFFFFFFFFFFFFFFFFFFFFFFFFFFFFFFFFFFFF AND DUP2 MSTORE PUSH1 0x20 ADD SWAP1 DUP2 MSTORE PUSH1 0x20 ADD PUSH0 KECCAK256 PUSH0 DUP3 ADD MLOAD DUP2 PUSH0 ADD PUSH0 PUSH2 0x100 EXP DUP2 SLOAD DUP2 PUSH20 0xFFFFFFFFFFFFFFFFFFFFFFFFFFFFFFFFFFFFFFFF MUL NOT AND SWAP1 DUP4 PUSH20 0xFFFFFFFFFFFFFFFFFFFFFFFFFFFFFFFFFFFFFFFF AND MUL OR SWAP1 SSTORE POP PUSH1 0x20 DUP3 ADD MLOAD DUP2 PUSH1 0x1 ADD SSTORE PUSH1 0x40 DUP3 ADD MLOAD DUP2 PUSH1 0x2 ADD SSTORE PUSH1 0x60 DUP3 ADD MLOAD DUP2 PUSH1 0x3 ADD SSTORE PUSH1 0x80 DUP3 ADD MLOAD DUP2 PUSH1 0x4 ADD SSTORE PUSH1 0xA0 DUP3 ADD MLOAD DUP2 PUSH1 0x5 ADD PUSH0 PUSH2 0x100 EXP DUP2 SLOAD DUP2 PUSH1 0xFF MUL NOT AND SWAP1 DUP4 PUSH1 0xFF AND MUL OR SWAP1 SSTORE POP PUSH1 0xC0 DUP3 ADD MLOAD DUP2 PUSH1 0x6 ADD SWAP1 DUP1 MLOAD SWAP1 PUSH1 0x20 ADD SWAP1 PUSH2 0xB52 SWAP3 SWAP2 SWAP1 PUSH2 0x2A1A JUMP JUMPDEST POP PUSH1 0xE0 DUP3 ADD MLOAD DUP2 PUSH1 0x7 ADD SWAP1 DUP2 PUSH2 0xB68 SWAP2 SWAP1 PUSH2 0x348F JUMP JUMPDEST POP PUSH2 0x100 DUP3 ADD MLOAD DUP2 PUSH1 0x8 ADD SWAP1 DUP2 PUSH2 0xB7F SWAP2 SWAP1 PUSH2 0x348F JUMP JUMPDEST POP PUSH2 0x120 DUP3 ADD MLOAD DUP2 PUSH1 0x9 ADD SWAP1 DUP2 PUSH2 0xB96 SWAP2 SWAP1 PUSH2 0x348F JUMP JUMPDEST POP PUSH2 0x140 DUP3 ADD MLOAD DUP2 PUSH1 0xA ADD SWAP1 DUP2 PUSH2 0xBAD SWAP2 SWAP1 PUSH2 0x348F JUMP JUMPDEST POP PUSH2 0x160 DUP3 ADD MLOAD DUP2 PUSH1 0xB ADD SSTORE PUSH2 0x180 DUP3 ADD MLOAD DUP2 PUSH1 0xC ADD PUSH0 PUSH2 0x100 EXP DUP2 SLOAD DUP2 PUSH20 0xFFFFFFFFFFFFFFFFFFFFFFFFFFFFFFFFFFFFFFFF MUL NOT AND SWAP1 DUP4 PUSH20 0xFFFFFFFFFFFFFFFFFFFFFFFFFFFFFFFFFFFFFFFF AND MUL OR SWAP1 SSTORE POP SWAP1 POP POP CALLER PUSH1 0x1 PUSH0 PUSH1 0x3 SLOAD DUP2 MSTORE PUSH1 0x20 ADD SWAP1 DUP2 MSTORE PUSH1 0x20 ADD PUSH0 KECCAK256 PUSH0 PUSH2 0x100 EXP DUP2 SLOAD DUP2 PUSH20 0xFFFFFFFFFFFFFFFFFFFFFFFFFFFFFFFFFFFFFFFF MUL NOT AND SWAP1 DUP4 PUSH20 0xFFFFFFFFFFFFFFFFFFFFFFFFFFFFFFFFFFFFFFFF AND MUL OR SWAP1 SSTORE POP PUSH1 0x3 PUSH0 DUP2 SLOAD DUP1 SWAP3 SWAP2 SWAP1 PUSH2 0xC66 SWAP1 PUSH2 0x358B JUMP JUMPDEST SWAP2 SWAP1 POP SSTORE POP PUSH0 DUP1 DUP10 PUSH20 0xFFFFFFFFFFFFFFFFFFFFFFFFFFFFFFFFFFFFFFFF AND PUSH20 0xFFFFFFFFFFFFFFFFFFFFFFFFFFFFFFFFFFFFFFFF AND DUP2 MSTORE PUSH1 0x20 ADD SWAP1 DUP2 MSTORE PUSH1 0x20 ADD PUSH0 KECCAK256 PUSH1 0x2 ADD PUSH0 DUP2 SLOAD DUP1 SWAP3 SWAP2 SWAP1 PUSH2 0xCBA SWAP1 PUSH2 0x358B JUMP JUMPDEST SWAP2 SWAP1 POP SSTORE POP PUSH0 DUP1 DUP10 PUSH20 0xFFFFFFFFFFFFFFFFFFFFFFFFFFFFFFFFFFFFFFFF AND PUSH20 0xFFFFFFFFFFFFFFFFFFFFFFFFFFFFFFFFFFFFFFFF AND DUP2 MSTORE PUSH1 0x20 ADD SWAP1 DUP2 MSTORE PUSH1 0x20 ADD PUSH0 KECCAK256 PUSH1 0x6 ADD CALLER SWAP1 DUP1 PUSH1 0x1 DUP2 SLOAD ADD DUP1 DUP3 SSTORE DUP1 SWAP2 POP POP PUSH1 0x1 SWAP1 SUB SWAP1 PUSH0 MSTORE PUSH1 0x20 PUSH0 KECCAK256 ADD PUSH0 SWAP1 SWAP2 SWAP1 SWAP2 SWAP1 SWAP2 PUSH2 0x100 EXP DUP2 SLOAD DUP2 PUSH20 0xFFFFFFFFFFFFFFFFFFFFFFFFFFFFFFFFFFFFFFFF MUL NOT AND SWAP1 DUP4 PUSH20 0xFFFFFFFFFFFFFFFFFFFFFFFFFFFFFFFFFFFFFFFF AND MUL OR SWAP1 SSTORE POP PUSH1 0x4 PUSH0 SWAP1 SLOAD SWAP1 PUSH2 0x100 EXP SWAP1 DIV PUSH20 0xFFFFFFFFFFFFFFFFFFFFFFFFFFFFFFFFFFFFFFFF AND PUSH20 0xFFFFFFFFFFFFFFFFFFFFFFFFFFFFFFFFFFFFFFFF AND PUSH2 0x8FC CALLVALUE SWAP1 DUP2 ISZERO MUL SWAP1 PUSH1 0x40 MLOAD PUSH0 PUSH1 0x40 MLOAD DUP1 DUP4 SUB DUP2 DUP6 DUP9 DUP9 CALL SWAP4 POP POP POP POP ISZERO DUP1 ISZERO PUSH2 0xDC0 JUMPI RETURNDATASIZE PUSH0 DUP1 RETURNDATACOPY RETURNDATASIZE PUSH0 REVERT JUMPDEST POP PUSH2 0xDCB CALLER DUP10 PUSH2 0x24AE JUMP JUMPDEST DUP8 PUSH20 0xFFFFFFFFFFFFFFFFFFFFFFFFFFFFFFFFFFFFFFFF AND CALLER PUSH20 0xFFFFFFFFFFFFFFFFFFFFFFFFFFFFFFFFFFFFFFFF AND PUSH32 0xC1DF0CC11CC2A40AE327C4DA54A7BC5D5007047AC744E37EED7B461A78117215 PUSH0 DUP1 CALLER PUSH20 0xFFFFFFFFFFFFFFFFFFFFFFFFFFFFFFFFFFFFFFFF AND PUSH20 0xFFFFFFFFFFFFFFFFFFFFFFFFFFFFFFFFFFFFFFFF AND DUP2 MSTORE PUSH1 0x20 ADD SWAP1 DUP2 MSTORE PUSH1 0x20 ADD PUSH0 KECCAK256 PUSH1 0x1 ADD SLOAD PUSH0 DUP1 DUP14 PUSH20 0xFFFFFFFFFFFFFFFFFFFFFFFFFFFFFFFFFFFFFFFF AND PUSH20 0xFFFFFFFFFFFFFFFFFFFFFFFFFFFFFFFFFFFFFFFF AND DUP2 MSTORE PUSH1 0x20 ADD SWAP1 DUP2 MSTORE PUSH1 0x20 ADD PUSH0 KECCAK256 PUSH1 0x1 ADD SLOAD PUSH9 0x15AF1D78B58C40000 PUSH1 0x40 MLOAD PUSH2 0xEB3 SWAP4 SWAP3 SWAP2 SWAP1 PUSH2 0x36F8 JUMP JUMPDEST PUSH1 0x40 MLOAD DUP1 SWAP2 SUB SWAP1 LOG3 POP POP POP POP POP POP POP POP JUMP JUMPDEST PUSH1 0x3 SLOAD DUP2 JUMP JUMPDEST PUSH0 DUP1 PUSH0 DUP1 PUSH0 DUP1 PUSH1 0x60 DUP1 PUSH1 0x60 DUP1 PUSH0 DUP1 PUSH0 DUP1 DUP15 PUSH20 0xFFFFFFFFFFFFFFFFFFFFFFFFFFFFFFFFFFFFFFFF AND PUSH20 0xFFFFFFFFFFFFFFFFFFFFFFFFFFFFFFFFFFFFFFFF AND DUP2 MSTORE PUSH1 0x20 ADD SWAP1 DUP2 MSTORE PUSH1 0x20 ADD PUSH0 KECCAK256 PUSH1 0x40 MLOAD DUP1 PUSH2 0x1A0 ADD PUSH1 0x40 MSTORE SWAP1 DUP2 PUSH0 DUP3 ADD PUSH0 SWAP1 SLOAD SWAP1 PUSH2 0x100 EXP SWAP1 DIV PUSH20 0xFFFFFFFFFFFFFFFFFFFFFFFFFFFFFFFFFFFFFFFF AND PUSH20 0xFFFFFFFFFFFFFFFFFFFFFFFFFFFFFFFFFFFFFFFF AND PUSH20 0xFFFFFFFFFFFFFFFFFFFFFFFFFFFFFFFFFFFFFFFF AND DUP2 MSTORE PUSH1 0x20 ADD PUSH1 0x1 DUP3 ADD SLOAD DUP2 MSTORE PUSH1 0x20 ADD PUSH1 0x2 DUP3 ADD SLOAD DUP2 MSTORE PUSH1 0x20 ADD PUSH1 0x3 DUP3 ADD SLOAD DUP2 MSTORE PUSH1 0x20 ADD PUSH1 0x4 DUP3 ADD SLOAD DUP2 MSTORE PUSH1 0x20 ADD PUSH1 0x5 DUP3 ADD PUSH0 SWAP1 SLOAD SWAP1 PUSH2 0x100 EXP SWAP1 DIV PUSH1 0xFF AND PUSH1 0xFF AND PUSH1 0xFF AND DUP2 MSTORE PUSH1 0x20 ADD PUSH1 0x6 DUP3 ADD DUP1 SLOAD DUP1 PUSH1 0x20 MUL PUSH1 0x20 ADD PUSH1 0x40 MLOAD SWAP1 DUP2 ADD PUSH1 0x40 MSTORE DUP1 SWAP3 SWAP2 SWAP1 DUP2 DUP2 MSTORE PUSH1 0x20 ADD DUP3 DUP1 SLOAD DUP1 ISZERO PUSH2 0x103B JUMPI PUSH1 0x20 MUL DUP3 ADD SWAP2 SWAP1 PUSH0 MSTORE PUSH1 0x20 PUSH0 KECCAK256 SWAP1 JUMPDEST DUP2 PUSH0 SWAP1 SLOAD SWAP1 PUSH2 0x100 EXP SWAP1 DIV PUSH20 0xFFFFFFFFFFFFFFFFFFFFFFFFFFFFFFFFFFFFFFFF AND PUSH20 0xFFFFFFFFFFFFFFFFFFFFFFFFFFFFFFFFFFFFFFFF AND DUP2 MSTORE PUSH1 0x20 ADD SWAP1 PUSH1 0x1 ADD SWAP1 DUP1 DUP4 GT PUSH2 0xFF2 JUMPI JUMPDEST POP POP POP POP POP DUP2 MSTORE PUSH1 0x20 ADD PUSH1 0x7 DUP3 ADD DUP1 SLOAD PUSH2 0x1054 SWAP1 PUSH2 0x32C2 JUMP JUMPDEST DUP1 PUSH1 0x1F ADD PUSH1 0x20 DUP1 SWAP2 DIV MUL PUSH1 0x20 ADD PUSH1 0x40 MLOAD SWAP1 DUP2 ADD PUSH1 0x40 MSTORE DUP1 SWAP3 SWAP2 SWAP1 DUP2 DUP2 MSTORE PUSH1 0x20 ADD DUP3 DUP1 SLOAD PUSH2 0x1080 SWAP1 PUSH2 0x32C2 JUMP JUMPDEST DUP1 ISZERO PUSH2 0x10CB JUMPI DUP1 PUSH1 0x1F LT PUSH2 0x10A2 JUMPI PUSH2 0x100 DUP1 DUP4 SLOAD DIV MUL DUP4 MSTORE SWAP2 PUSH1 0x20 ADD SWAP2 PUSH2 0x10CB JUMP JUMPDEST DUP3 ADD SWAP2 SWAP1 PUSH0 MSTORE PUSH1 0x20 PUSH0 KECCAK256 SWAP1 JUMPDEST DUP2 SLOAD DUP2 MSTORE SWAP1 PUSH1 0x1 ADD SWAP1 PUSH1 0x20 ADD DUP1 DUP4 GT PUSH2 0x10AE JUMPI DUP3 SWAP1 SUB PUSH1 0x1F AND DUP3 ADD SWAP2 JUMPDEST POP POP POP POP POP DUP2 MSTORE PUSH1 0x20 ADD PUSH1 0x8 DUP3 ADD DUP1 SLOAD PUSH2 0x10E4 SWAP1 PUSH2 0x32C2 JUMP JUMPDEST DUP1 PUSH1 0x1F ADD PUSH1 0x20 DUP1 SWAP2 DIV MUL PUSH1 0x20 ADD PUSH1 0x40 MLOAD SWAP1 DUP2 ADD PUSH1 0x40 MSTORE DUP1 SWAP3 SWAP2 SWAP1 DUP2 DUP2 MSTORE PUSH1 0x20 ADD DUP3 DUP1 SLOAD PUSH2 0x1110 SWAP1 PUSH2 0x32C2 JUMP JUMPDEST DUP1 ISZERO PUSH2 0x115B JUMPI DUP1 PUSH1 0x1F LT PUSH2 0x1132 JUMPI PUSH2 0x100 DUP1 DUP4 SLOAD DIV MUL DUP4 MSTORE SWAP2 PUSH1 0x20 ADD SWAP2 PUSH2 0x115B JUMP JUMPDEST DUP3 ADD SWAP2 SWAP1 PUSH0 MSTORE PUSH1 0x20 PUSH0 KECCAK256 SWAP1 JUMPDEST DUP2 SLOAD DUP2 MSTORE SWAP1 PUSH1 0x1 ADD SWAP1 PUSH1 0x20 ADD DUP1 DUP4 GT PUSH2 0x113E JUMPI DUP3 SWAP1 SUB PUSH1 0x1F AND DUP3 ADD SWAP2 JUMPDEST POP POP POP POP POP DUP2 MSTORE PUSH1 0x20 ADD PUSH1 0x9 DUP3 ADD DUP1 SLOAD PUSH2 0x1174 SWAP1 PUSH2 0x32C2 JUMP JUMPDEST DUP1 PUSH1 0x1F ADD PUSH1 0x20 DUP1 SWAP2 DIV MUL PUSH1 0x20 ADD PUSH1 0x40 MLOAD SWAP1 DUP2 ADD PUSH1 0x40 MSTORE DUP1 SWAP3 SWAP2 SWAP1 DUP2 DUP2 MSTORE PUSH1 0x20 ADD DUP3 DUP1 SLOAD PUSH2 0x11A0 SWAP1 PUSH2 0x32C2 JUMP JUMPDEST DUP1 ISZERO PUSH2 0x11EB JUMPI DUP1 PUSH1 0x1F LT PUSH2 0x11C2 JUMPI PUSH2 0x100 DUP1 DUP4 SLOAD DIV MUL DUP4 MSTORE SWAP2 PUSH1 0x20 ADD SWAP2 PUSH2 0x11EB JUMP JUMPDEST DUP3 ADD SWAP2 SWAP1 PUSH0 MSTORE PUSH1 0x20 PUSH0 KECCAK256 SWAP1 JUMPDEST DUP2 SLOAD DUP2 MSTORE SWAP1 PUSH1 0x1 ADD SWAP1 PUSH1 0x20 ADD DUP1 DUP4 GT PUSH2 0x11CE JUMPI DUP3 SWAP1 SUB PUSH1 0x1F AND DUP3 ADD SWAP2 JUMPDEST POP POP POP POP POP DUP2 MSTORE PUSH1 0x20 ADD PUSH1 0xA DUP3 ADD DUP1 SLOAD PUSH2 0x1204 SWAP1 PUSH2 0x32C2 JUMP JUMPDEST DUP1 PUSH1 0x1F ADD PUSH1 0x20 DUP1 SWAP2 DIV MUL PUSH1 0x20 ADD PUSH1 0x40 MLOAD SWAP1 DUP2 ADD PUSH1 0x40 MSTORE DUP1 SWAP3 SWAP2 SWAP1 DUP2 DUP2 MSTORE PUSH1 0x20 ADD DUP3 DUP1 SLOAD PUSH2 0x1230 SWAP1 PUSH2 0x32C2 JUMP JUMPDEST DUP1 ISZERO PUSH2 0x127B JUMPI DUP1 PUSH1 0x1F LT PUSH2 0x1252 JUMPI PUSH2 0x100 DUP1 DUP4 SLOAD DIV MUL DUP4 MSTORE SWAP2 PUSH1 0x20 ADD SWAP2 PUSH2 0x127B JUMP JUMPDEST DUP3 ADD SWAP2 SWAP1 PUSH0 MSTORE PUSH1 0x20 PUSH0 KECCAK256 SWAP1 JUMPDEST DUP2 SLOAD DUP2 MSTORE SWAP1 PUSH1 0x1 ADD SWAP1 PUSH1 0x20 ADD DUP1 DUP4 GT PUSH2 0x125E JUMPI DUP3 SWAP1 SUB PUSH1 0x1F AND DUP3 ADD SWAP2 JUMPDEST POP POP POP POP POP DUP2 MSTORE PUSH1 0x20 ADD PUSH1 0xB DUP3 ADD SLOAD DUP2 MSTORE PUSH1 0x20 ADD PUSH1 0xC DUP3 ADD PUSH0 SWAP1 SLOAD SWAP1 PUSH2 0x100 EXP SWAP1 DIV PUSH20 0xFFFFFFFFFFFFFFFFFFFFFFFFFFFFFFFFFFFFFFFF AND PUSH20 0xFFFFFFFFFFFFFFFFFFFFFFFFFFFFFFFFFFFFFFFF AND PUSH20 0xFFFFFFFFFFFFFFFFFFFFFFFFFFFFFFFFFFFFFFFF AND DUP2 MSTORE POP POP SWAP1 POP DUP1 PUSH0 ADD MLOAD DUP2 PUSH1 0x20 ADD MLOAD DUP3 PUSH1 0x40 ADD MLOAD DUP4 PUSH1 0x60 ADD MLOAD DUP5 PUSH1 0x80 ADD MLOAD DUP6 PUSH1 0xA0 ADD MLOAD DUP7 PUSH1 0xE0 ADD MLOAD DUP8 PUSH2 0x100 ADD MLOAD DUP9 PUSH2 0x120 ADD MLOAD DUP10 PUSH2 0x140 ADD MLOAD DUP11 PUSH2 0x180 ADD MLOAD DUP6 PUSH1 0xFF AND SWAP6 POP SWAP12 POP SWAP12 POP SWAP12 POP SWAP12 POP SWAP12 POP SWAP12 POP SWAP12 POP SWAP12 POP SWAP12 POP SWAP12 POP SWAP12 POP POP SWAP2 SWAP4 SWAP6 SWAP8 SWAP10 SWAP12 SWAP1 SWAP3 SWAP5 SWAP7 SWAP9 SWAP11 POP JUMP JUMPDEST PUSH9 0x15AF1D78B58C40000 DUP2 JUMP JUMPDEST PUSH0 PUSH1 0x1 PUSH0 DUP4 DUP2 MSTORE PUSH1 0x20 ADD SWAP1 DUP2 MSTORE PUSH1 0x20 ADD PUSH0 KECCAK256 PUSH0 SWAP1 SLOAD SWAP1 PUSH2 0x100 EXP SWAP1 DIV PUSH20 0xFFFFFFFFFFFFFFFFFFFFFFFFFFFFFFFFFFFFFFFF AND SWAP1 POP SWAP2 SWAP1 POP JUMP JUMPDEST PUSH0 PUSH1 0x1 DUP3 PUSH1 0xFF AND LT ISZERO DUP1 ISZERO PUSH2 0x13AD JUMPI POP PUSH1 0xC PUSH1 0xFF AND DUP3 PUSH1 0xFF AND GT ISZERO JUMPDEST PUSH2 0x13EC JUMPI PUSH1 0x40 MLOAD PUSH32 0x8C379A000000000000000000000000000000000000000000000000000000000 DUP2 MSTORE PUSH1 0x4 ADD PUSH2 0x13E3 SWAP1 PUSH2 0x3777 JUMP JUMPDEST PUSH1 0x40 MLOAD DUP1 SWAP2 SUB SWAP1 REVERT JUMPDEST PUSH1 0x2 PUSH0 DUP4 PUSH1 0xFF AND PUSH1 0xFF AND DUP2 MSTORE PUSH1 0x20 ADD SWAP1 DUP2 MSTORE PUSH1 0x20 ADD PUSH0 KECCAK256 SLOAD SWAP1 POP SWAP2 SWAP1 POP JUMP JUMPDEST PUSH0 DUP1 CALLER PUSH20 0xFFFFFFFFFFFFFFFFFFFFFFFFFFFFFFFFFFFFFFFF AND PUSH20 0xFFFFFFFFFFFFFFFFFFFFFFFFFFFFFFFFFFFFFFFF AND DUP2 MSTORE PUSH1 0x20 ADD SWAP1 DUP2 MSTORE PUSH1 0x20 ADD PUSH0 KECCAK256 PUSH1 0x5 ADD PUSH0 SWAP1 SLOAD SWAP1 PUSH2 0x100 EXP SWAP1 DIV PUSH1 0xFF AND PUSH1 0xFF AND DUP2 PUSH1 0xFF AND GT PUSH2 0x149E JUMPI PUSH1 0x40 MLOAD PUSH32 0x8C379A000000000000000000000000000000000000000000000000000000000 DUP2 MSTORE PUSH1 0x4 ADD PUSH2 0x1495 SWAP1 PUSH2 0x3805 JUMP JUMPDEST PUSH1 0x40 MLOAD DUP1 SWAP2 SUB SWAP1 REVERT JUMPDEST PUSH1 0xC PUSH1 0xFF AND DUP2 PUSH1 0xFF AND GT ISZERO PUSH2 0x14E8 JUMPI PUSH1 0x40 MLOAD PUSH32 0x8C379A000000000000000000000000000000000000000000000000000000000 DUP2 MSTORE PUSH1 0x4 ADD PUSH2 0x14DF SWAP1 PUSH2 0x3777 JUMP JUMPDEST PUSH1 0x40 MLOAD DUP1 SWAP2 SUB SWAP1 REVERT JUMPDEST PUSH0 PUSH1 0x2 PUSH0 DUP4 PUSH1 0xFF AND PUSH1 0xFF AND DUP2 MSTORE PUSH1 0x20 ADD SWAP1 DUP2 MSTORE PUSH1 0x20 ADD PUSH0 KECCAK256 SLOAD SWAP1 POP PUSH0 DUP1 PUSH0 CALLER PUSH20 0xFFFFFFFFFFFFFFFFFFFFFFFFFFFFFFFFFFFFFFFF AND PUSH20 0xFFFFFFFFFFFFFFFFFFFFFFFFFFFFFFFFFFFFFFFF AND DUP2 MSTORE PUSH1 0x20 ADD SWAP1 DUP2 MSTORE PUSH1 0x20 ADD PUSH0 KECCAK256 PUSH0 ADD PUSH0 SWAP1 SLOAD SWAP1 PUSH2 0x100 EXP SWAP1 DIV PUSH20 0xFFFFFFFFFFFFFFFFFFFFFFFFFFFFFFFFFFFFFFFF AND SWAP1 POP PUSH0 PUSH1 0x64 PUSH1 0xA DUP5 PUSH2 0x1574 SWAP2 SWAP1 PUSH2 0x3823 JUMP JUMPDEST PUSH2 0x157E SWAP2 SWAP1 PUSH2 0x3891 JUMP JUMPDEST SWAP1 POP PUSH0 DUP2 DUP5 PUSH2 0x158D SWAP2 SWAP1 PUSH2 0x38C1 JUMP JUMPDEST SWAP1 POP DUP5 PUSH0 DUP1 CALLER PUSH20 0xFFFFFFFFFFFFFFFFFFFFFFFFFFFFFFFFFFFFFFFF AND PUSH20 0xFFFFFFFFFFFFFFFFFFFFFFFFFFFFFFFFFFFFFFFF AND DUP2 MSTORE PUSH1 0x20 ADD SWAP1 DUP2 MSTORE PUSH1 0x20 ADD PUSH0 KECCAK256 PUSH1 0x5 ADD PUSH0 PUSH2 0x100 EXP DUP2 SLOAD DUP2 PUSH1 0xFF MUL NOT AND SWAP1 DUP4 PUSH1 0xFF AND MUL OR SWAP1 SSTORE POP PUSH0 PUSH20 0xFFFFFFFFFFFFFFFFFFFFFFFFFFFFFFFFFFFFFFFF AND DUP4 PUSH20 0xFFFFFFFFFFFFFFFFFFFFFFFFFFFFFFFFFFFFFFFF AND EQ PUSH2 0x1766 JUMPI PUSH0 DUP4 PUSH20 0xFFFFFFFFFFFFFFFFFFFFFFFFFFFFFFFFFFFFFFFF AND DUP4 PUSH1 0x40 MLOAD PUSH2 0x163E SWAP1 PUSH2 0x3921 JUMP JUMPDEST PUSH0 PUSH1 0x40 MLOAD DUP1 DUP4 SUB DUP2 DUP6 DUP8 GAS CALL SWAP3 POP POP POP RETURNDATASIZE DUP1 PUSH0 DUP2 EQ PUSH2 0x1678 JUMPI PUSH1 0x40 MLOAD SWAP2 POP PUSH1 0x1F NOT PUSH1 0x3F RETURNDATASIZE ADD AND DUP3 ADD PUSH1 0x40 MSTORE RETURNDATASIZE DUP3 MSTORE RETURNDATASIZE PUSH0 PUSH1 0x20 DUP5 ADD RETURNDATACOPY PUSH2 0x167D JUMP JUMPDEST PUSH1 0x60 SWAP2 POP JUMPDEST POP POP SWAP1 POP DUP1 PUSH2 0x16C1 JUMPI PUSH1 0x40 MLOAD PUSH32 0x8C379A000000000000000000000000000000000000000000000000000000000 DUP2 MSTORE PUSH1 0x4 ADD PUSH2 0x16B8 SWAP1 PUSH2 0x397F JUMP JUMPDEST PUSH1 0x40 MLOAD DUP1 SWAP2 SUB SWAP1 REVERT JUMPDEST DUP3 PUSH0 DUP1 DUP7 PUSH20 0xFFFFFFFFFFFFFFFFFFFFFFFFFFFFFFFFFFFFFFFF AND PUSH20 0xFFFFFFFFFFFFFFFFFFFFFFFFFFFFFFFFFFFFFFFF AND DUP2 MSTORE PUSH1 0x20 ADD SWAP1 DUP2 MSTORE PUSH1 0x20 ADD PUSH0 KECCAK256 PUSH1 0x4 ADD PUSH0 DUP3 DUP3 SLOAD PUSH2 0x170F SWAP2 SWAP1 PUSH2 0x399D JUMP JUMPDEST SWAP3 POP POP DUP2 SWAP1 SSTORE POP DUP4 PUSH20 0xFFFFFFFFFFFFFFFFFFFFFFFFFFFFFFFFFFFFFFFF AND PUSH32 0x92D81AB7E787D9A43BBB8F8CA7F0B2708DA03B86D5AEA53D5D20656FF8DAD1EE DUP5 PUSH1 0x40 MLOAD PUSH2 0x175C SWAP2 SWAP1 PUSH2 0x2F3C JUMP JUMPDEST PUSH1 0x40 MLOAD DUP1 SWAP2 SUB SWAP1 LOG2 POP JUMPDEST PUSH0 PUSH1 0x4 PUSH0 SWAP1 SLOAD SWAP1 PUSH2 0x100 EXP SWAP1 DIV PUSH20 0xFFFFFFFFFFFFFFFFFFFFFFFFFFFFFFFFFFFFFFFF AND PUSH20 0xFFFFFFFFFFFFFFFFFFFFFFFFFFFFFFFFFFFFFFFF AND DUP3 PUSH1 0x40 MLOAD PUSH2 0x17AC SWAP1 PUSH2 0x3921 JUMP JUMPDEST PUSH0 PUSH1 0x40 MLOAD DUP1 DUP4 SUB DUP2 DUP6 DUP8 GAS CALL SWAP3 POP POP POP RETURNDATASIZE DUP1 PUSH0 DUP2 EQ PUSH2 0x17E6 JUMPI PUSH1 0x40 MLOAD SWAP2 POP PUSH1 0x1F NOT PUSH1 0x3F RETURNDATASIZE ADD AND DUP3 ADD PUSH1 0x40 MSTORE RETURNDATASIZE DUP3 MSTORE RETURNDATASIZE PUSH0 PUSH1 0x20 DUP5 ADD RETURNDATACOPY PUSH2 0x17EB JUMP JUMPDEST PUSH1 0x60 SWAP2 POP JUMPDEST POP POP SWAP1 POP CALLER PUSH20 0xFFFFFFFFFFFFFFFFFFFFFFFFFFFFFFFFFFFFFFFF AND PUSH32 0xDBF0B0DD9DA4BEA8F6827B8C94D9D2C555A713D0B15D01F002F81F321BBA5E3C DUP8 DUP8 DUP7 DUP7 PUSH1 0x40 MLOAD PUSH2 0x183B SWAP5 SWAP4 SWAP3 SWAP2 SWAP1 PUSH2 0x39D0 JUMP JUMPDEST PUSH1 0x40 MLOAD DUP1 SWAP2 SUB SWAP1 LOG2 POP POP POP POP POP POP JUMP JUMPDEST PUSH1 0x4 PUSH0 SWAP1 SLOAD SWAP1 PUSH2 0x100 EXP SWAP1 DIV PUSH20 0xFFFFFFFFFFFFFFFFFFFFFFFFFFFFFFFFFFFFFFFF AND DUP2 JUMP JUMPDEST PUSH0 DUP1 PUSH0 DUP1 DUP5 PUSH20 0xFFFFFFFFFFFFFFFFFFFFFFFFFFFFFFFFFFFFFFFF AND PUSH20 0xFFFFFFFFFFFFFFFFFFFFFFFFFFFFFFFFFFFFFFFF AND DUP2 MSTORE PUSH1 0x20 ADD SWAP1 DUP2 MSTORE PUSH1 0x20 ADD PUSH0 KECCAK256 PUSH0 ADD PUSH0 SWAP1 SLOAD SWAP1 PUSH2 0x100 EXP SWAP1 DIV PUSH20 0xFFFFFFFFFFFFFFFFFFFFFFFFFFFFFFFFFFFFFFFF AND SWAP1 POP PUSH0 PUSH20 0xFFFFFFFFFFFFFFFFFFFFFFFFFFFFFFFFFFFFFFFF AND DUP2 PUSH20 0xFFFFFFFFFFFFFFFFFFFFFFFFFFFFFFFFFFFFFFFF AND SUB PUSH2 0x190E JUMPI PUSH0 SWAP2 POP POP PUSH2 0x1D33 JUMP JUMPDEST PUSH1 0x2 PUSH0 DUP1 DUP4 PUSH20 0xFFFFFFFFFFFFFFFFFFFFFFFFFFFFFFFFFFFFFFFF AND PUSH20 0xFFFFFFFFFFFFFFFFFFFFFFFFFFFFFFFFFFFFFFFF AND DUP2 MSTORE PUSH1 0x20 ADD SWAP1 DUP2 MSTORE PUSH1 0x20 ADD PUSH0 KECCAK256 PUSH1 0x2 ADD SLOAD LT PUSH2 0x1B36 JUMPI PUSH0 DUP1 PUSH0 DUP4 PUSH20 0xFFFFFFFFFFFFFFFFFFFFFFFFFFFFFFFFFFFFFFFF AND PUSH20 0xFFFFFFFFFFFFFFFFFFFFFFFFFFFFFFFFFFFFFFFF AND DUP2 MSTORE PUSH1 0x20 ADD SWAP1 DUP2 MSTORE PUSH1 0x20 ADD PUSH0 KECCAK256 PUSH1 0x5 ADD PUSH0 SWAP1 SLOAD SWAP1 PUSH2 0x100 EXP SWAP1 DIV PUSH1 0xFF AND SWAP1 POP PUSH0 PUSH1 0x2 PUSH0 PUSH1 0x1 PUSH1 0xFF AND DUP2 MSTORE PUSH1 0x20 ADD SWAP1 DUP2 MSTORE PUSH1 0x20 ADD PUSH0 KECCAK256 SLOAD SWAP1 POP DUP1 SELFBALANCE LT ISZERO PUSH2 0x1A00 JUMPI PUSH1 0x40 MLOAD PUSH32 0x8C379A000000000000000000000000000000000000000000000000000000000 DUP2 MSTORE PUSH1 0x4 ADD PUSH2 0x19F7 SWAP1 PUSH2 0x3A5D JUMP JUMPDEST PUSH1 0x40 MLOAD DUP1 SWAP2 SUB SWAP1 REVERT JUMPDEST PUSH2 0x1A0A DUP4 DUP3 PUSH2 0x26F9 JUMP JUMPDEST PUSH0 DUP1 DUP5 PUSH20 0xFFFFFFFFFFFFFFFFFFFFFFFFFFFFFFFFFFFFFFFF AND PUSH20 0xFFFFFFFFFFFFFFFFFFFFFFFFFFFFFFFFFFFFFFFF AND DUP2 MSTORE PUSH1 0x20 ADD SWAP1 DUP2 MSTORE PUSH1 0x20 ADD PUSH0 KECCAK256 PUSH1 0x3 ADD PUSH0 DUP2 SLOAD DUP1 SWAP3 SWAP2 SWAP1 PUSH2 0x1A59 SWAP1 PUSH2 0x358B JUMP JUMPDEST SWAP2 SWAP1 POP SSTORE POP DUP3 PUSH20 0xFFFFFFFFFFFFFFFFFFFFFFFFFFFFFFFFFFFFFFFF AND PUSH32 0x18C00B25130B4512B396A52C89756CB9A1177C6002FE34CBC071F88CF90812A1 PUSH0 DUP1 DUP7 PUSH20 0xFFFFFFFFFFFFFFFFFFFFFFFFFFFFFFFFFFFFFFFF AND PUSH20 0xFFFFFFFFFFFFFFFFFFFFFFFFFFFFFFFFFFFFFFFF AND DUP2 MSTORE PUSH1 0x20 ADD SWAP1 DUP2 MSTORE PUSH1 0x20 ADD PUSH0 KECCAK256 PUSH1 0x3 ADD SLOAD PUSH1 0x40 MLOAD PUSH2 0x1AE3 SWAP2 SWAP1 PUSH2 0x2F3C JUMP JUMPDEST PUSH1 0x40 MLOAD DUP1 SWAP2 SUB SWAP1 LOG2 PUSH0 DUP1 PUSH0 DUP6 PUSH20 0xFFFFFFFFFFFFFFFFFFFFFFFFFFFFFFFFFFFFFFFF AND PUSH20 0xFFFFFFFFFFFFFFFFFFFFFFFFFFFFFFFFFFFFFFFF AND DUP2 MSTORE PUSH1 0x20 ADD SWAP1 DUP2 MSTORE PUSH1 0x20 ADD PUSH0 KECCAK256 PUSH1 0x2 ADD DUP2 SWAP1 SSTORE POP POP POP PUSH2 0x1D31 JUMP JUMPDEST PUSH0 DUP1 DUP3 PUSH20 0xFFFFFFFFFFFFFFFFFFFFFFFFFFFFFFFFFFFFFFFF AND PUSH20 0xFFFFFFFFFFFFFFFFFFFFFFFFFFFFFFFFFFFFFFFF AND DUP2 MSTORE PUSH1 0x20 ADD SWAP1 DUP2 MSTORE PUSH1 0x20 ADD PUSH0 KECCAK256 PUSH1 0x2 ADD PUSH0 DUP2 SLOAD DUP1 SWAP3 SWAP2 SWAP1 PUSH2 0x1B85 SWAP1 PUSH2 0x358B JUMP JUMPDEST SWAP2 SWAP1 POP SSTORE POP PUSH0 DUP2 PUSH20 0xFFFFFFFFFFFFFFFFFFFFFFFFFFFFFFFFFFFFFFFF AND CALLVALUE PUSH1 0x40 MLOAD PUSH2 0x1BAF SWAP1 PUSH2 0x3921 JUMP JUMPDEST PUSH0 PUSH1 0x40 MLOAD DUP1 DUP4 SUB DUP2 DUP6 DUP8 GAS CALL SWAP3 POP POP POP RETURNDATASIZE DUP1 PUSH0 DUP2 EQ PUSH2 0x1BE9 JUMPI PUSH1 0x40 MLOAD SWAP2 POP PUSH1 0x1F NOT PUSH1 0x3F RETURNDATASIZE ADD AND DUP3 ADD PUSH1 0x40 MSTORE RETURNDATASIZE DUP3 MSTORE RETURNDATASIZE PUSH0 PUSH1 0x20 DUP5 ADD RETURNDATACOPY PUSH2 0x1BEE JUMP JUMPDEST PUSH1 0x60 SWAP2 POP JUMPDEST POP POP SWAP1 POP DUP1 PUSH2 0x1C32 JUMPI PUSH1 0x40 MLOAD PUSH32 0x8C379A000000000000000000000000000000000000000000000000000000000 DUP2 MSTORE PUSH1 0x4 ADD PUSH2 0x1C29 SWAP1 PUSH2 0x3AC5 JUMP JUMPDEST PUSH1 0x40 MLOAD DUP1 SWAP2 SUB SWAP1 REVERT JUMPDEST CALLVALUE PUSH0 DUP1 DUP5 PUSH20 0xFFFFFFFFFFFFFFFFFFFFFFFFFFFFFFFFFFFFFFFF AND PUSH20 0xFFFFFFFFFFFFFFFFFFFFFFFFFFFFFFFFFFFFFFFF AND DUP2 MSTORE PUSH1 0x20 ADD SWAP1 DUP2 MSTORE PUSH1 0x20 ADD PUSH0 KECCAK256 PUSH1 0x4 ADD PUSH0 DUP3 DUP3 SLOAD PUSH2 0x1C80 SWAP2 SWAP1 PUSH2 0x399D JUMP JUMPDEST SWAP3 POP POP DUP2 SWAP1 SSTORE POP DUP2 PUSH20 0xFFFFFFFFFFFFFFFFFFFFFFFFFFFFFFFFFFFFFFFF AND PUSH32 0x92D81AB7E787D9A43BBB8F8CA7F0B2708DA03B86D5AEA53D5D20656FF8DAD1EE CALLVALUE PUSH1 0x40 MLOAD PUSH2 0x1CCD SWAP2 SWAP1 PUSH2 0x2F3C JUMP JUMPDEST PUSH1 0x40 MLOAD DUP1 SWAP2 SUB SWAP1 LOG2 DUP2 PUSH20 0xFFFFFFFFFFFFFFFFFFFFFFFFFFFFFFFFFFFFFFFF AND DUP5 PUSH20 0xFFFFFFFFFFFFFFFFFFFFFFFFFFFFFFFFFFFFFFFF AND PUSH32 0x965E581FD2224CE85185C5F48CFBCC00E17FA216F970B274FC724888F6B8994A PUSH1 0x40 MLOAD PUSH1 0x40 MLOAD DUP1 SWAP2 SUB SWAP1 LOG3 POP JUMPDEST POP JUMPDEST SWAP2 SWAP1 POP JUMP JUMPDEST PUSH8 0x4563918244F40000 DUP2 JUMP JUMPDEST PUSH0 PUSH1 0x20 MSTORE DUP1 PUSH0 MSTORE PUSH1 0x40 PUSH0 KECCAK256 PUSH0 SWAP2 POP SWAP1 POP DUP1 PUSH0 ADD PUSH0 SWAP1 SLOAD SWAP1 PUSH2 0x100 EXP SWAP1 DIV PUSH20 0xFFFFFFFFFFFFFFFFFFFFFFFFFFFFFFFFFFFFFFFF AND SWAP1 DUP1 PUSH1 0x1 ADD SLOAD SWAP1 DUP1 PUSH1 0x2 ADD SLOAD SWAP1 DUP1 PUSH1 0x3 ADD SLOAD SWAP1 DUP1 PUSH1 0x4 ADD SLOAD SWAP1 DUP1 PUSH1 0x5 ADD PUSH0 SWAP1 SLOAD SWAP1 PUSH2 0x100 EXP SWAP1 DIV PUSH1 0xFF AND SWAP1 DUP1 PUSH1 0x7 ADD DUP1 SLOAD PUSH2 0x1DB1 SWAP1 PUSH2 0x32C2 JUMP JUMPDEST DUP1 PUSH1 0x1F ADD PUSH1 0x20 DUP1 SWAP2 DIV MUL PUSH1 0x20 ADD PUSH1 0x40 MLOAD SWAP1 DUP2 ADD PUSH1 0x40 MSTORE DUP1 SWAP3 SWAP2 SWAP1 DUP2 DUP2 MSTORE PUSH1 0x20 ADD DUP3 DUP1 SLOAD PUSH2 0x1DDD SWAP1 PUSH2 0x32C2 JUMP JUMPDEST DUP1 ISZERO PUSH2 0x1E28 JUMPI DUP1 PUSH1 0x1F LT PUSH2 0x1DFF JUMPI PUSH2 0x100 DUP1 DUP4 SLOAD DIV MUL DUP4 MSTORE SWAP2 PUSH1 0x20 ADD SWAP2 PUSH2 0x1E28 JUMP JUMPDEST DUP3 ADD SWAP2 SWAP1 PUSH0 MSTORE PUSH1 0x20 PUSH0 KECCAK256 SWAP1 JUMPDEST DUP2 SLOAD DUP2 MSTORE SWAP1 PUSH1 0x1 ADD SWAP1 PUSH1 0x20 ADD DUP1 DUP4 GT PUSH2 0x1E0B JUMPI DUP3 SWAP1 SUB PUSH1 0x1F AND DUP3 ADD SWAP2 JUMPDEST POP POP POP POP POP SWAP1 DUP1 PUSH1 0x8 ADD DUP1 SLOAD PUSH2 0x1E3D SWAP1 PUSH2 0x32C2 JUMP JUMPDEST DUP1 PUSH1 0x1F ADD PUSH1 0x20 DUP1 SWAP2 DIV MUL PUSH1 0x20 ADD PUSH1 0x40 MLOAD SWAP1 DUP2 ADD PUSH1 0x40 MSTORE DUP1 SWAP3 SWAP2 SWAP1 DUP2 DUP2 MSTORE PUSH1 0x20 ADD DUP3 DUP1 SLOAD PUSH2 0x1E69 SWAP1 PUSH2 0x32C2 JUMP JUMPDEST DUP1 ISZERO PUSH2 0x1EB4 JUMPI DUP1 PUSH1 0x1F LT PUSH2 0x1E8B JUMPI PUSH2 0x100 DUP1 DUP4 SLOAD DIV MUL DUP4 MSTORE SWAP2 PUSH1 0x20 ADD SWAP2 PUSH2 0x1EB4 JUMP JUMPDEST DUP3 ADD SWAP2 SWAP1 PUSH0 MSTORE PUSH1 0x20 PUSH0 KECCAK256 SWAP1 JUMPDEST DUP2 SLOAD DUP2 MSTORE SWAP1 PUSH1 0x1 ADD SWAP1 PUSH1 0x20 ADD DUP1 DUP4 GT PUSH2 0x1E97 JUMPI DUP3 SWAP1 SUB PUSH1 0x1F AND DUP3 ADD SWAP2 JUMPDEST POP POP POP POP POP SWAP1 DUP1 PUSH1 0x9 ADD DUP1 SLOAD PUSH2 0x1EC9 SWAP1 PUSH2 0x32C2 JUMP JUMPDEST DUP1 PUSH1 0x1F ADD PUSH1 0x20 DUP1 SWAP2 DIV MUL PUSH1 0x20 ADD PUSH1 0x40 MLOAD SWAP1 DUP2 ADD PUSH1 0x40 MSTORE DUP1 SWAP3 SWAP2 SWAP1 DUP2 DUP2 MSTORE PUSH1 0x20 ADD DUP3 DUP1 SLOAD PUSH2 0x1EF5 SWAP1 PUSH2 0x32C2 JUMP JUMPDEST DUP1 ISZERO PUSH2 0x1F40 JUMPI DUP1 PUSH1 0x1F LT PUSH2 0x1F17 JUMPI PUSH2 0x100 DUP1 DUP4 SLOAD DIV MUL DUP4 MSTORE SWAP2 PUSH1 0x20 ADD SWAP2 PUSH2 0x1F40 JUMP JUMPDEST DUP3 ADD SWAP2 SWAP1 PUSH0 MSTORE PUSH1 0x20 PUSH0 KECCAK256 SWAP1 JUMPDEST DUP2 SLOAD DUP2 MSTORE SWAP1 PUSH1 0x1 ADD SWAP1 PUSH1 0x20 ADD DUP1 DUP4 GT PUSH2 0x1F23 JUMPI DUP3 SWAP1 SUB PUSH1 0x1F AND DUP3 ADD SWAP2 JUMPDEST POP POP POP POP POP SWAP1 DUP1 PUSH1 0xA ADD DUP1 SLOAD PUSH2 0x1F55 SWAP1 PUSH2 0x32C2 JUMP JUMPDEST DUP1 PUSH1 0x1F ADD PUSH1 0x20 DUP1 SWAP2 DIV MUL PUSH1 0x20 ADD PUSH1 0x40 MLOAD SWAP1 DUP2 ADD PUSH1 0x40 MSTORE DUP1 SWAP3 SWAP2 SWAP1 DUP2 DUP2 MSTORE PUSH1 0x20 ADD DUP3 DUP1 SLOAD PUSH2 0x1F81 SWAP1 PUSH2 0x32C2 JUMP JUMPDEST DUP1 ISZERO PUSH2 0x1FCC JUMPI DUP1 PUSH1 0x1F LT PUSH2 0x1FA3 JUMPI PUSH2 0x100 DUP1 DUP4 SLOAD DIV MUL DUP4 MSTORE SWAP2 PUSH1 0x20 ADD SWAP2 PUSH2 0x1FCC JUMP JUMPDEST DUP3 ADD SWAP2 SWAP1 PUSH0 MSTORE PUSH1 0x20 PUSH0 KECCAK256 SWAP1 JUMPDEST DUP2 SLOAD DUP2 MSTORE SWAP1 PUSH1 0x1 ADD SWAP1 PUSH1 0x20 ADD DUP1 DUP4 GT PUSH2 0x1FAF JUMPI DUP3 SWAP1 SUB PUSH1 0x1F AND DUP3 ADD SWAP2 JUMPDEST POP POP POP POP POP SWAP1 DUP1 PUSH1 0xB ADD SLOAD SWAP1 DUP1 PUSH1 0xC ADD PUSH0 SWAP1 SLOAD SWAP1 PUSH2 0x100 EXP SWAP1 DIV PUSH20 0xFFFFFFFFFFFFFFFFFFFFFFFFFFFFFFFFFFFFFFFF AND SWAP1 POP DUP13 JUMP JUMPDEST PUSH1 0x60 PUSH0 DUP1 PUSH0 DUP5 PUSH20 0xFFFFFFFFFFFFFFFFFFFFFFFFFFFFFFFFFFFFFFFF AND PUSH20 0xFFFFFFFFFFFFFFFFFFFFFFFFFFFFFFFFFFFFFFFF AND DUP2 MSTORE PUSH1 0x20 ADD SWAP1 DUP2 MSTORE PUSH1 0x20 ADD PUSH0 KECCAK256 PUSH1 0x1 ADD SLOAD SWAP1 POP PUSH2 0x204F DUP2 PUSH2 0x2809 JUMP JUMPDEST PUSH1 0x40 MLOAD PUSH1 0x20 ADD PUSH2 0x205F SWAP2 SWAP1 PUSH2 0x3B2D JUMP JUMPDEST PUSH1 0x40 MLOAD PUSH1 0x20 DUP2 DUP4 SUB SUB DUP2 MSTORE SWAP1 PUSH1 0x40 MSTORE SWAP2 POP POP SWAP2 SWAP1 POP JUMP JUMPDEST PUSH0 DUP1 PUSH0 DUP1 PUSH0 DUP6 PUSH20 0xFFFFFFFFFFFFFFFFFFFFFFFFFFFFFFFFFFFFFFFF AND PUSH20 0xFFFFFFFFFFFFFFFFFFFFFFFFFFFFFFFFFFFFFFFF AND DUP2 MSTORE PUSH1 0x20 ADD SWAP1 DUP2 MSTORE PUSH1 0x20 ADD PUSH0 KECCAK256 PUSH1 0x40 MLOAD DUP1 PUSH2 0x1A0 ADD PUSH1 0x40 MSTORE SWAP1 DUP2 PUSH0 DUP3 ADD PUSH0 SWAP1 SLOAD SWAP1 PUSH2 0x100 EXP SWAP1 DIV PUSH20 0xFFFFFFFFFFFFFFFFFFFFFFFFFFFFFFFFFFFFFFFF AND PUSH20 0xFFFFFFFFFFFFFFFFFFFFFFFFFFFFFFFFFFFFFFFF AND PUSH20 0xFFFFFFFFFFFFFFFFFFFFFFFFFFFFFFFFFFFFFFFF AND DUP2 MSTORE PUSH1 0x20 ADD PUSH1 0x1 DUP3 ADD SLOAD DUP2 MSTORE PUSH1 0x20 ADD PUSH1 0x2 DUP3 ADD SLOAD DUP2 MSTORE PUSH1 0x20 ADD PUSH1 0x3 DUP3 ADD SLOAD DUP2 MSTORE PUSH1 0x20 ADD PUSH1 0x4 DUP3 ADD SLOAD DUP2 MSTORE PUSH1 0x20 ADD PUSH1 0x5 DUP3 ADD PUSH0 SWAP1 SLOAD SWAP1 PUSH2 0x100 EXP SWAP1 DIV PUSH1 0xFF AND PUSH1 0xFF AND PUSH1 0xFF AND DUP2 MSTORE PUSH1 0x20 ADD PUSH1 0x6 DUP3 ADD DUP1 SLOAD DUP1 PUSH1 0x20 MUL PUSH1 0x20 ADD PUSH1 0x40 MLOAD SWAP1 DUP2 ADD PUSH1 0x40 MSTORE DUP1 SWAP3 SWAP2 SWAP1 DUP2 DUP2 MSTORE PUSH1 0x20 ADD DUP3 DUP1 SLOAD DUP1 ISZERO PUSH2 0x21DB JUMPI PUSH1 0x20 MUL DUP3 ADD SWAP2 SWAP1 PUSH0 MSTORE PUSH1 0x20 PUSH0 KECCAK256 SWAP1 JUMPDEST DUP2 PUSH0 SWAP1 SLOAD SWAP1 PUSH2 0x100 EXP SWAP1 DIV PUSH20 0xFFFFFFFFFFFFFFFFFFFFFFFFFFFFFFFFFFFFFFFF AND PUSH20 0xFFFFFFFFFFFFFFFFFFFFFFFFFFFFFFFFFFFFFFFF AND DUP2 MSTORE PUSH1 0x20 ADD SWAP1 PUSH1 0x1 ADD SWAP1 DUP1 DUP4 GT PUSH2 0x2192 JUMPI JUMPDEST POP POP POP POP POP DUP2 MSTORE PUSH1 0x20 ADD PUSH1 0x7 DUP3 ADD DUP1 SLOAD PUSH2 0x21F4 SWAP1 PUSH2 0x32C2 JUMP JUMPDEST DUP1 PUSH1 0x1F ADD PUSH1 0x20 DUP1 SWAP2 DIV MUL PUSH1 0x20 ADD PUSH1 0x40 MLOAD SWAP1 DUP2 ADD PUSH1 0x40 MSTORE DUP1 SWAP3 SWAP2 SWAP1 DUP2 DUP2 MSTORE PUSH1 0x20 ADD DUP3 DUP1 SLOAD PUSH2 0x2220 SWAP1 PUSH2 0x32C2 JUMP JUMPDEST DUP1 ISZERO PUSH2 0x226B JUMPI DUP1 PUSH1 0x1F LT PUSH2 0x2242 JUMPI PUSH2 0x100 DUP1 DUP4 SLOAD DIV MUL DUP4 MSTORE SWAP2 PUSH1 0x20 ADD SWAP2 PUSH2 0x226B JUMP JUMPDEST DUP3 ADD SWAP2 SWAP1 PUSH0 MSTORE PUSH1 0x20 PUSH0 KECCAK256 SWAP1 JUMPDEST DUP2 SLOAD DUP2 MSTORE SWAP1 PUSH1 0x1 ADD SWAP1 PUSH1 0x20 ADD DUP1 DUP4 GT PUSH2 0x224E JUMPI DUP3 SWAP1 SUB PUSH1 0x1F AND DUP3 ADD SWAP2 JUMPDEST POP POP POP POP POP DUP2 MSTORE PUSH1 0x20 ADD PUSH1 0x8 DUP3 ADD DUP1 SLOAD PUSH2 0x2284 SWAP1 PUSH2 0x32C2 JUMP JUMPDEST DUP1 PUSH1 0x1F ADD PUSH1 0x20 DUP1 SWAP2 DIV MUL PUSH1 0x20 ADD PUSH1 0x40 MLOAD SWAP1 DUP2 ADD PUSH1 0x40 MSTORE DUP1 SWAP3 SWAP2 SWAP1 DUP2 DUP2 MSTORE PUSH1 0x20 ADD DUP3 DUP1 SLOAD PUSH2 0x22B0 SWAP1 PUSH2 0x32C2 JUMP JUMPDEST DUP1 ISZERO PUSH2 0x22FB JUMPI DUP1 PUSH1 0x1F LT PUSH2 0x22D2 JUMPI PUSH2 0x100 DUP1 DUP4 SLOAD DIV MUL DUP4 MSTORE SWAP2 PUSH1 0x20 ADD SWAP2 PUSH2 0x22FB JUMP JUMPDEST DUP3 ADD SWAP2 SWAP1 PUSH0 MSTORE PUSH1 0x20 PUSH0 KECCAK256 SWAP1 JUMPDEST DUP2 SLOAD DUP2 MSTORE SWAP1 PUSH1 0x1 ADD SWAP1 PUSH1 0x20 ADD DUP1 DUP4 GT PUSH2 0x22DE JUMPI DUP3 SWAP1 SUB PUSH1 0x1F AND DUP3 ADD SWAP2 JUMPDEST POP POP POP POP POP DUP2 MSTORE PUSH1 0x20 ADD PUSH1 0x9 DUP3 ADD DUP1 SLOAD PUSH2 0x2314 SWAP1 PUSH2 0x32C2 JUMP JUMPDEST DUP1 PUSH1 0x1F ADD PUSH1 0x20 DUP1 SWAP2 DIV MUL PUSH1 0x20 ADD PUSH1 0x40 MLOAD SWAP1 DUP2 ADD PUSH1 0x40 MSTORE DUP1 SWAP3 SWAP2 SWAP1 DUP2 DUP2 MSTORE PUSH1 0x20 ADD DUP3 DUP1 SLOAD PUSH2 0x2340 SWAP1 PUSH2 0x32C2 JUMP JUMPDEST DUP1 ISZERO PUSH2 0x238B JUMPI DUP1 PUSH1 0x1F LT PUSH2 0x2362 JUMPI PUSH2 0x100 DUP1 DUP4 SLOAD DIV MUL DUP4 MSTORE SWAP2 PUSH1 0x20 ADD SWAP2 PUSH2 0x238B JUMP JUMPDEST DUP3 ADD SWAP2 SWAP1 PUSH0 MSTORE PUSH1 0x20 PUSH0 KECCAK256 SWAP1 JUMPDEST DUP2 SLOAD DUP2 MSTORE SWAP1 PUSH1 0x1 ADD SWAP1 PUSH1 0x20 ADD DUP1 DUP4 GT PUSH2 0x236E JUMPI DUP3 SWAP1 SUB PUSH1 0x1F AND DUP3 ADD SWAP2 JUMPDEST POP POP POP POP POP DUP2 MSTORE PUSH1 0x20 ADD PUSH1 0xA DUP3 ADD DUP1 SLOAD PUSH2 0x23A4 SWAP1 PUSH2 0x32C2 JUMP JUMPDEST DUP1 PUSH1 0x1F ADD PUSH1 0x20 DUP1 SWAP2 DIV MUL PUSH1 0x20 ADD PUSH1 0x40 MLOAD SWAP1 DUP2 ADD PUSH1 0x40 MSTORE DUP1 SWAP3 SWAP2 SWAP1 DUP2 DUP2 MSTORE PUSH1 0x20 ADD DUP3 DUP1 SLOAD PUSH2 0x23D0 SWAP1 PUSH2 0x32C2 JUMP JUMPDEST DUP1 ISZERO PUSH2 0x241B JUMPI DUP1 PUSH1 0x1F LT PUSH2 0x23F2 JUMPI PUSH2 0x100 DUP1 DUP4 SLOAD DIV MUL DUP4 MSTORE SWAP2 PUSH1 0x20 ADD SWAP2 PUSH2 0x241B JUMP JUMPDEST DUP3 ADD SWAP2 SWAP1 PUSH0 MSTORE PUSH1 0x20 PUSH0 KECCAK256 SWAP1 JUMPDEST DUP2 SLOAD DUP2 MSTORE SWAP1 PUSH1 0x1 ADD SWAP1 PUSH1 0x20 ADD DUP1 DUP4 GT PUSH2 0x23FE JUMPI DUP3 SWAP1 SUB PUSH1 0x1F AND DUP3 ADD SWAP2 JUMPDEST POP POP POP POP POP DUP2 MSTORE PUSH1 0x20 ADD PUSH1 0xB DUP3 ADD SLOAD DUP2 MSTORE PUSH1 0x20 ADD PUSH1 0xC DUP3 ADD PUSH0 SWAP1 SLOAD SWAP1 PUSH2 0x100 EXP SWAP1 DIV PUSH20 0xFFFFFFFFFFFFFFFFFFFFFFFFFFFFFFFFFFFFFFFF AND PUSH20 0xFFFFFFFFFFFFFFFFFFFFFFFFFFFFFFFFFFFFFFFF AND PUSH20 0xFFFFFFFFFFFFFFFFFFFFFFFFFFFFFFFFFFFFFFFF AND DUP2 MSTORE POP POP SWAP1 POP DUP1 PUSH1 0x60 ADD MLOAD DUP2 PUSH1 0x80 ADD MLOAD SWAP3 POP SWAP3 POP POP SWAP2 POP SWAP2 JUMP JUMPDEST PUSH1 0x2 PUSH1 0x20 MSTORE DUP1 PUSH0 MSTORE PUSH1 0x40 PUSH0 KECCAK256 PUSH0 SWAP2 POP SWAP1 POP SLOAD DUP2 JUMP JUMPDEST PUSH1 0x3 PUSH0 DUP1 DUP4 PUSH20 0xFFFFFFFFFFFFFFFFFFFFFFFFFFFFFFFFFFFFFFFF AND PUSH20 0xFFFFFFFFFFFFFFFFFFFFFFFFFFFFFFFFFFFFFFFF AND DUP2 MSTORE PUSH1 0x20 ADD SWAP1 DUP2 MSTORE PUSH1 0x20 ADD PUSH0 KECCAK256 PUSH1 0x2 ADD SLOAD LT ISZERO PUSH2 0x251A JUMPI PUSH2 0x2515 DUP2 PUSH1 0x2 PUSH0 PUSH1 0x1 PUSH1 0xFF AND DUP2 MSTORE PUSH1 0x20 ADD SWAP1 DUP2 MSTORE PUSH1 0x20 ADD PUSH0 KECCAK256 SLOAD PUSH2 0x26F9 JUMP JUMPDEST PUSH2 0x26F5 JUMP JUMPDEST PUSH0 DUP1 PUSH0 DUP4 PUSH20 0xFFFFFFFFFFFFFFFFFFFFFFFFFFFFFFFFFFFFFFFF AND PUSH20 0xFFFFFFFFFFFFFFFFFFFFFFFFFFFFFFFFFFFFFFFF AND DUP2 MSTORE PUSH1 0x20 ADD SWAP1 DUP2 MSTORE PUSH1 0x20 ADD PUSH0 KECCAK256 PUSH0 ADD PUSH0 SWAP1 SLOAD SWAP1 PUSH2 0x100 EXP SWAP1 DIV PUSH20 0xFFFFFFFFFFFFFFFFFFFFFFFFFFFFFFFFFFFFFFFF AND SWAP1 POP PUSH0 PUSH20 0xFFFFFFFFFFFFFFFFFFFFFFFFFFFFFFFFFFFFFFFF AND DUP2 PUSH20 0xFFFFFFFFFFFFFFFFFFFFFFFFFFFFFFFFFFFFFFFF AND EQ PUSH2 0x26AF JUMPI PUSH2 0x25CD DUP2 PUSH1 0x2 PUSH0 PUSH1 0x1 PUSH1 0xFF AND DUP2 MSTORE PUSH1 0x20 ADD SWAP1 DUP2 MSTORE PUSH1 0x20 ADD PUSH0 KECCAK256 SLOAD PUSH2 0x26F9 JUMP JUMPDEST PUSH0 DUP1 DUP4 PUSH20 0xFFFFFFFFFFFFFFFFFFFFFFFFFFFFFFFFFFFFFFFF AND PUSH20 0xFFFFFFFFFFFFFFFFFFFFFFFFFFFFFFFFFFFFFFFF AND DUP2 MSTORE PUSH1 0x20 ADD SWAP1 DUP2 MSTORE PUSH1 0x20 ADD PUSH0 KECCAK256 PUSH1 0x3 ADD PUSH0 DUP2 SLOAD DUP1 SWAP3 SWAP2 SWAP1 PUSH2 0x261C SWAP1 PUSH2 0x358B JUMP JUMPDEST SWAP2 SWAP1 POP SSTORE POP DUP2 PUSH20 0xFFFFFFFFFFFFFFFFFFFFFFFFFFFFFFFFFFFFFFFF AND PUSH32 0x18C00B25130B4512B396A52C89756CB9A1177C6002FE34CBC071F88CF90812A1 PUSH0 DUP1 DUP6 PUSH20 0xFFFFFFFFFFFFFFFFFFFFFFFFFFFFFFFFFFFFFFFF AND PUSH20 0xFFFFFFFFFFFFFFFFFFFFFFFFFFFFFFFFFFFFFFFF AND DUP2 MSTORE PUSH1 0x20 ADD SWAP1 DUP2 MSTORE PUSH1 0x20 ADD PUSH0 KECCAK256 PUSH1 0x3 ADD SLOAD PUSH1 0x40 MLOAD PUSH2 0x26A6 SWAP2 SWAP1 PUSH2 0x2F3C JUMP JUMPDEST PUSH1 0x40 MLOAD DUP1 SWAP2 SUB SWAP1 LOG2 JUMPDEST PUSH0 DUP1 PUSH0 DUP5 PUSH20 0xFFFFFFFFFFFFFFFFFFFFFFFFFFFFFFFFFFFFFFFF AND PUSH20 0xFFFFFFFFFFFFFFFFFFFFFFFFFFFFFFFFFFFFFFFF AND DUP2 MSTORE PUSH1 0x20 ADD SWAP1 DUP2 MSTORE PUSH1 0x20 ADD PUSH0 KECCAK256 PUSH1 0x2 ADD DUP2 SWAP1 SSTORE POP POP JUMPDEST POP POP JUMP JUMPDEST DUP1 PUSH0 DUP1 DUP5 PUSH20 0xFFFFFFFFFFFFFFFFFFFFFFFFFFFFFFFFFFFFFFFF AND PUSH20 0xFFFFFFFFFFFFFFFFFFFFFFFFFFFFFFFFFFFFFFFF AND DUP2 MSTORE PUSH1 0x20 ADD SWAP1 DUP2 MSTORE PUSH1 0x20 ADD PUSH0 KECCAK256 PUSH1 0x4 ADD PUSH0 DUP3 DUP3 SLOAD PUSH2 0x2747 SWAP2 SWAP1 PUSH2 0x399D JUMP JUMPDEST SWAP3 POP POP DUP2 SWAP1 SSTORE POP PUSH0 DUP3 PUSH20 0xFFFFFFFFFFFFFFFFFFFFFFFFFFFFFFFFFFFFFFFF AND DUP3 PUSH1 0x40 MLOAD PUSH2 0x2773 SWAP1 PUSH2 0x3921 JUMP JUMPDEST PUSH0 PUSH1 0x40 MLOAD DUP1 DUP4 SUB DUP2 DUP6 DUP8 GAS CALL SWAP3 POP POP POP RETURNDATASIZE DUP1 PUSH0 DUP2 EQ PUSH2 0x27AD JUMPI PUSH1 0x40 MLOAD SWAP2 POP PUSH1 0x1F NOT PUSH1 0x3F RETURNDATASIZE ADD AND DUP3 ADD PUSH1 0x40 MSTORE RETURNDATASIZE DUP3 MSTORE RETURNDATASIZE PUSH0 PUSH1 0x20 DUP5 ADD RETURNDATACOPY PUSH2 0x27B2 JUMP JUMPDEST PUSH1 0x60 SWAP2 POP JUMPDEST POP POP SWAP1 POP DUP3 PUSH20 0xFFFFFFFFFFFFFFFFFFFFFFFFFFFFFFFFFFFFFFFF AND PUSH32 0x92D81AB7E787D9A43BBB8F8CA7F0B2708DA03B86D5AEA53D5D20656FF8DAD1EE DUP4 PUSH1 0x40 MLOAD PUSH2 0x27FC SWAP2 SWAP1 PUSH2 0x2F3C JUMP JUMPDEST PUSH1 0x40 MLOAD DUP1 SWAP2 SUB SWAP1 LOG2 POP POP POP JUMP JUMPDEST PUSH1 0x60 PUSH0 DUP3 SUB PUSH2 0x284F JUMPI PUSH1 0x40 MLOAD DUP1 PUSH1 0x40 ADD PUSH1 0x40 MSTORE DUP1 PUSH1 0x1 DUP2 MSTORE PUSH1 0x20 ADD PUSH32 0x3000000000000000000000000000000000000000000000000000000000000000 DUP2 MSTORE POP SWAP1 POP PUSH2 0x2A15 JUMP JUMPDEST PUSH0 PUSH1 0x4E SWAP1 POP PUSH0 DUP2 PUSH8 0xFFFFFFFFFFFFFFFF DUP2 GT ISZERO PUSH2 0x286F JUMPI PUSH2 0x286E PUSH2 0x2B3F JUMP JUMPDEST JUMPDEST PUSH1 0x40 MLOAD SWAP1 DUP1 DUP3 MSTORE DUP1 PUSH1 0x1F ADD PUSH1 0x1F NOT AND PUSH1 0x20 ADD DUP3 ADD PUSH1 0x40 MSTORE DUP1 ISZERO PUSH2 0x28A1 JUMPI DUP2 PUSH1 0x20 ADD PUSH1 0x1 DUP3 MUL DUP1 CALLDATASIZE DUP4 CALLDATACOPY DUP1 DUP3 ADD SWAP2 POP POP SWAP1 POP JUMPDEST POP SWAP1 POP PUSH0 JUMPDEST PUSH0 DUP6 EQ PUSH2 0x292F JUMPI PUSH0 PUSH1 0xA DUP7 PUSH2 0x28BB SWAP2 SWAP1 PUSH2 0x3B4E JUMP JUMPDEST SWAP1 POP PUSH1 0xA DUP7 PUSH2 0x28CA SWAP2 SWAP1 PUSH2 0x3891 JUMP JUMPDEST SWAP6 POP DUP1 PUSH1 0x30 PUSH2 0x28D9 SWAP2 SWAP1 PUSH2 0x399D JUMP JUMPDEST PUSH1 0xF8 SHL DUP4 DUP4 DUP1 PUSH2 0x28E8 SWAP1 PUSH2 0x358B JUMP JUMPDEST SWAP5 POP DUP2 MLOAD DUP2 LT PUSH2 0x28FB JUMPI PUSH2 0x28FA PUSH2 0x3B7E JUMP JUMPDEST JUMPDEST PUSH1 0x20 ADD ADD SWAP1 PUSH31 0xFFFFFFFFFFFFFFFFFFFFFFFFFFFFFFFFFFFFFFFFFFFFFFFFFFFFFFFFFFFFFF NOT AND SWAP1 DUP2 PUSH0 BYTE SWAP1 MSTORE8 POP POP PUSH2 0x28A6 JUMP JUMPDEST PUSH0 DUP2 PUSH8 0xFFFFFFFFFFFFFFFF DUP2 GT ISZERO PUSH2 0x294A JUMPI PUSH2 0x2949 PUSH2 0x2B3F JUMP JUMPDEST JUMPDEST PUSH1 0x40 MLOAD SWAP1 DUP1 DUP3 MSTORE DUP1 PUSH1 0x1F ADD PUSH1 0x1F NOT AND PUSH1 0x20 ADD DUP3 ADD PUSH1 0x40 MSTORE DUP1 ISZERO PUSH2 0x297C JUMPI DUP2 PUSH1 0x20 ADD PUSH1 0x1 DUP3 MUL DUP1 CALLDATASIZE DUP4 CALLDATACOPY DUP1 DUP3 ADD SWAP2 POP POP SWAP1 POP JUMPDEST POP SWAP1 POP PUSH0 JUMPDEST DUP3 DUP2 LT ISZERO PUSH2 0x2A0C JUMPI DUP4 PUSH1 0x1 DUP3 DUP6 PUSH2 0x2998 SWAP2 SWAP1 PUSH2 0x38C1 JUMP JUMPDEST PUSH2 0x29A2 SWAP2 SWAP1 PUSH2 0x38C1 JUMP JUMPDEST DUP2 MLOAD DUP2 LT PUSH2 0x29B3 JUMPI PUSH2 0x29B2 PUSH2 0x3B7E JUMP JUMPDEST JUMPDEST PUSH1 0x20 ADD ADD MLOAD PUSH1 0xF8 SHR PUSH1 0xF8 SHL DUP3 DUP3 DUP2 MLOAD DUP2 LT PUSH2 0x29D1 JUMPI PUSH2 0x29D0 PUSH2 0x3B7E JUMP JUMPDEST JUMPDEST PUSH1 0x20 ADD ADD SWAP1 PUSH31 0xFFFFFFFFFFFFFFFFFFFFFFFFFFFFFFFFFFFFFFFFFFFFFFFFFFFFFFFFFFFFFF NOT AND SWAP1 DUP2 PUSH0 BYTE SWAP1 MSTORE8 POP DUP1 DUP1 PUSH1 0x1 ADD SWAP2 POP POP PUSH2 0x2981 JUMP JUMPDEST POP DUP1 SWAP5 POP POP POP POP POP JUMPDEST SWAP2 SWAP1 POP JUMP JUMPDEST DUP3 DUP1 SLOAD DUP3 DUP3 SSTORE SWAP1 PUSH0 MSTORE PUSH1 0x20 PUSH0 KECCAK256 SWAP1 DUP2 ADD SWAP3 DUP3 ISZERO PUSH2 0x2A90 JUMPI SWAP2 PUSH1 0x20 MUL DUP3 ADD JUMPDEST DUP3 DUP2 GT ISZERO PUSH2 0x2A8F JUMPI DUP3 MLOAD DUP3 PUSH0 PUSH2 0x100 EXP DUP2 SLOAD DUP2 PUSH20 0xFFFFFFFFFFFFFFFFFFFFFFFFFFFFFFFFFFFFFFFF MUL NOT AND SWAP1 DUP4 PUSH20 0xFFFFFFFFFFFFFFFFFFFFFFFFFFFFFFFFFFFFFFFF AND MUL OR SWAP1 SSTORE POP SWAP2 PUSH1 0x20 ADD SWAP2 SWAP1 PUSH1 0x1 ADD SWAP1 PUSH2 0x2A38 JUMP JUMPDEST JUMPDEST POP SWAP1 POP PUSH2 0x2A9D SWAP2 SWAP1 PUSH2 0x2AA1 JUMP JUMPDEST POP SWAP1 JUMP JUMPDEST JUMPDEST DUP1 DUP3 GT ISZERO PUSH2 0x2AB8 JUMPI PUSH0 DUP2 PUSH0 SWAP1 SSTORE POP PUSH1 0x1 ADD PUSH2 0x2AA2 JUMP JUMPDEST POP SWAP1 JUMP JUMPDEST PUSH0 PUSH1 0x40 MLOAD SWAP1 POP SWAP1 JUMP JUMPDEST PUSH0 DUP1 REVERT JUMPDEST PUSH0 DUP1 REVERT JUMPDEST PUSH0 PUSH20 0xFFFFFFFFFFFFFFFFFFFFFFFFFFFFFFFFFFFFFFFF DUP3 AND SWAP1 POP SWAP2 SWAP1 POP JUMP JUMPDEST PUSH0 PUSH2 0x2AF6 DUP3 PUSH2 0x2ACD JUMP JUMPDEST SWAP1 POP SWAP2 SWAP1 POP JUMP JUMPDEST PUSH2 0x2B06 DUP2 PUSH2 0x2AEC JUMP JUMPDEST DUP2 EQ PUSH2 0x2B10 JUMPI PUSH0 DUP1 REVERT JUMPDEST POP JUMP JUMPDEST PUSH0 DUP2 CALLDATALOAD SWAP1 POP PUSH2 0x2B21 DUP2 PUSH2 0x2AFD JUMP JUMPDEST SWAP3 SWAP2 POP POP JUMP JUMPDEST PUSH0 DUP1 REVERT JUMPDEST PUSH0 DUP1 REVERT JUMPDEST PUSH0 PUSH1 0x1F NOT PUSH1 0x1F DUP4 ADD AND SWAP1 POP SWAP2 SWAP1 POP JUMP JUMPDEST PUSH32 0x4E487B7100000000000000000000000000000000000000000000000000000000 PUSH0 MSTORE PUSH1 0x41 PUSH1 0x4 MSTORE PUSH1 0x24 PUSH0 REVERT JUMPDEST PUSH2 0x2B75 DUP3 PUSH2 0x2B2F JUMP JUMPDEST DUP2 ADD DUP2 DUP2 LT PUSH8 0xFFFFFFFFFFFFFFFF DUP3 GT OR ISZERO PUSH2 0x2B94 JUMPI PUSH2 0x2B93 PUSH2 0x2B3F JUMP JUMPDEST JUMPDEST DUP1 PUSH1 0x40 MSTORE POP POP POP JUMP JUMPDEST PUSH0 PUSH2 0x2BA6 PUSH2 0x2ABC JUMP JUMPDEST SWAP1 POP PUSH2 0x2BB2 DUP3 DUP3 PUSH2 0x2B6C JUMP JUMPDEST SWAP2 SWAP1 POP JUMP JUMPDEST PUSH0 PUSH8 0xFFFFFFFFFFFFFFFF DUP3 GT ISZERO PUSH2 0x2BD1 JUMPI PUSH2 0x2BD0 PUSH2 0x2B3F JUMP JUMPDEST JUMPDEST PUSH2 0x2BDA DUP3 PUSH2 0x2B2F JUMP JUMPDEST SWAP1 POP PUSH1 0x20 DUP2 ADD SWAP1 POP SWAP2 SWAP1 POP JUMP JUMPDEST DUP3 DUP2 DUP4 CALLDATACOPY PUSH0 DUP4 DUP4 ADD MSTORE POP POP POP JUMP JUMPDEST PUSH0 PUSH2 0x2C07 PUSH2 0x2C02 DUP5 PUSH2 0x2BB7 JUMP JUMPDEST PUSH2 0x2B9D JUMP JUMPDEST SWAP1 POP DUP3 DUP2 MSTORE PUSH1 0x20 DUP2 ADD DUP5 DUP5 DUP5 ADD GT ISZERO PUSH2 0x2C23 JUMPI PUSH2 0x2C22 PUSH2 0x2B2B JUMP JUMPDEST JUMPDEST PUSH2 0x2C2E DUP5 DUP3 DUP6 PUSH2 0x2BE7 JUMP JUMPDEST POP SWAP4 SWAP3 POP POP POP JUMP JUMPDEST PUSH0 DUP3 PUSH1 0x1F DUP4 ADD SLT PUSH2 0x2C4A JUMPI PUSH2 0x2C49 PUSH2 0x2B27 JUMP JUMPDEST JUMPDEST DUP2 CALLDATALOAD PUSH2 0x2C5A DUP5 DUP3 PUSH1 0x20 DUP7 ADD PUSH2 0x2BF5 JUMP JUMPDEST SWAP2 POP POP SWAP3 SWAP2 POP POP JUMP JUMPDEST PUSH0 DUP1 PUSH0 DUP1 PUSH0 PUSH1 0xA0 DUP7 DUP9 SUB SLT ISZERO PUSH2 0x2C7C JUMPI PUSH2 0x2C7B PUSH2 0x2AC5 JUMP JUMPDEST JUMPDEST PUSH0 PUSH2 0x2C89 DUP9 DUP3 DUP10 ADD PUSH2 0x2B13 JUMP JUMPDEST SWAP6 POP POP PUSH1 0x20 DUP7 ADD CALLDATALOAD PUSH8 0xFFFFFFFFFFFFFFFF DUP2 GT ISZERO PUSH2 0x2CAA JUMPI PUSH2 0x2CA9 PUSH2 0x2AC9 JUMP JUMPDEST JUMPDEST PUSH2 0x2CB6 DUP9 DUP3 DUP10 ADD PUSH2 0x2C36 JUMP JUMPDEST SWAP5 POP POP PUSH1 0x40 DUP7 ADD CALLDATALOAD PUSH8 0xFFFFFFFFFFFFFFFF DUP2 GT ISZERO PUSH2 0x2CD7 JUMPI PUSH2 0x2CD6 PUSH2 0x2AC9 JUMP JUMPDEST JUMPDEST PUSH2 0x2CE3 DUP9 DUP3 DUP10 ADD PUSH2 0x2C36 JUMP JUMPDEST SWAP4 POP POP PUSH1 0x60 DUP7 ADD CALLDATALOAD PUSH8 0xFFFFFFFFFFFFFFFF DUP2 GT ISZERO PUSH2 0x2D04 JUMPI PUSH2 0x2D03 PUSH2 0x2AC9 JUMP JUMPDEST JUMPDEST PUSH2 0x2D10 DUP9 DUP3 DUP10 ADD PUSH2 0x2C36 JUMP JUMPDEST SWAP3 POP POP PUSH1 0x80 DUP7 ADD CALLDATALOAD PUSH8 0xFFFFFFFFFFFFFFFF DUP2 GT ISZERO PUSH2 0x2D31 JUMPI PUSH2 0x2D30 PUSH2 0x2AC9 JUMP JUMPDEST JUMPDEST PUSH2 0x2D3D DUP9 DUP3 DUP10 ADD PUSH2 0x2C36 JUMP JUMPDEST SWAP2 POP POP SWAP3 SWAP6 POP SWAP3 SWAP6 SWAP1 SWAP4 POP JUMP JUMPDEST PUSH0 PUSH1 0xFF DUP3 AND SWAP1 POP SWAP2 SWAP1 POP JUMP JUMPDEST PUSH2 0x2D5F DUP2 PUSH2 0x2D4A JUMP JUMPDEST DUP3 MSTORE POP POP JUMP JUMPDEST PUSH0 PUSH1 0x20 DUP3 ADD SWAP1 POP PUSH2 0x2D78 PUSH0 DUP4 ADD DUP5 PUSH2 0x2D56 JUMP JUMPDEST SWAP3 SWAP2 POP POP JUMP JUMPDEST PUSH0 DUP2 SWAP1 POP SWAP2 SWAP1 POP JUMP JUMPDEST PUSH2 0x2D90 DUP2 PUSH2 0x2D7E JUMP JUMPDEST DUP2 EQ PUSH2 0x2D9A JUMPI PUSH0 DUP1 REVERT JUMPDEST POP JUMP JUMPDEST PUSH0 DUP2 CALLDATALOAD SWAP1 POP PUSH2 0x2DAB DUP2 PUSH2 0x2D87 JUMP JUMPDEST SWAP3 SWAP2 POP POP JUMP JUMPDEST PUSH0 PUSH1 0x20 DUP3 DUP5 SUB SLT ISZERO PUSH2 0x2DC6 JUMPI PUSH2 0x2DC5 PUSH2 0x2AC5 JUMP JUMPDEST JUMPDEST PUSH0 PUSH2 0x2DD3 DUP5 DUP3 DUP6 ADD PUSH2 0x2D9D JUMP JUMPDEST SWAP2 POP POP SWAP3 SWAP2 POP POP JUMP JUMPDEST PUSH2 0x2DE5 DUP2 PUSH2 0x2AEC JUMP JUMPDEST DUP3 MSTORE POP POP JUMP JUMPDEST PUSH0 PUSH1 0x20 DUP3 ADD SWAP1 POP PUSH2 0x2DFE PUSH0 DUP4 ADD DUP5 PUSH2 0x2DDC JUMP JUMPDEST SWAP3 SWAP2 POP POP JUMP JUMPDEST PUSH0 DUP1 PUSH0 DUP1 PUSH0 DUP1 PUSH0 PUSH1 0xE0 DUP9 DUP11 SUB SLT ISZERO PUSH2 0x2E1F JUMPI PUSH2 0x2E1E PUSH2 0x2AC5 JUMP JUMPDEST JUMPDEST PUSH0 PUSH2 0x2E2C DUP11 DUP3 DUP12 ADD PUSH2 0x2B13 JUMP JUMPDEST SWAP8 POP POP PUSH1 0x20 DUP9 ADD CALLDATALOAD PUSH8 0xFFFFFFFFFFFFFFFF DUP2 GT ISZERO PUSH2 0x2E4D JUMPI PUSH2 0x2E4C PUSH2 0x2AC9 JUMP JUMPDEST JUMPDEST PUSH2 0x2E59 DUP11 DUP3 DUP12 ADD PUSH2 0x2C36 JUMP JUMPDEST SWAP7 POP POP PUSH1 0x40 DUP9 ADD CALLDATALOAD PUSH8 0xFFFFFFFFFFFFFFFF DUP2 GT ISZERO PUSH2 0x2E7A JUMPI PUSH2 0x2E79 PUSH2 0x2AC9 JUMP JUMPDEST JUMPDEST PUSH2 0x2E86 DUP11 DUP3 DUP12 ADD PUSH2 0x2C36 JUMP JUMPDEST SWAP6 POP POP PUSH1 0x60 DUP9 ADD CALLDATALOAD PUSH8 0xFFFFFFFFFFFFFFFF DUP2 GT ISZERO PUSH2 0x2EA7 JUMPI PUSH2 0x2EA6 PUSH2 0x2AC9 JUMP JUMPDEST JUMPDEST PUSH2 0x2EB3 DUP11 DUP3 DUP12 ADD PUSH2 0x2C36 JUMP JUMPDEST SWAP5 POP POP PUSH1 0x80 DUP9 ADD CALLDATALOAD PUSH8 0xFFFFFFFFFFFFFFFF DUP2 GT ISZERO PUSH2 0x2ED4 JUMPI PUSH2 0x2ED3 PUSH2 0x2AC9 JUMP JUMPDEST JUMPDEST PUSH2 0x2EE0 DUP11 DUP3 DUP12 ADD PUSH2 0x2C36 JUMP JUMPDEST SWAP4 POP POP PUSH1 0xA0 DUP9 ADD CALLDATALOAD PUSH8 0xFFFFFFFFFFFFFFFF DUP2 GT ISZERO PUSH2 0x2F01 JUMPI PUSH2 0x2F00 PUSH2 0x2AC9 JUMP JUMPDEST JUMPDEST PUSH2 0x2F0D DUP11 DUP3 DUP12 ADD PUSH2 0x2C36 JUMP JUMPDEST SWAP3 POP POP PUSH1 0xC0 PUSH2 0x2F1E DUP11 DUP3 DUP12 ADD PUSH2 0x2B13 JUMP JUMPDEST SWAP2 POP POP SWAP3 SWAP6 SWAP9 SWAP2 SWAP5 SWAP8 POP SWAP3 SWAP6 POP JUMP JUMPDEST PUSH2 0x2F36 DUP2 PUSH2 0x2D7E JUMP JUMPDEST DUP3 MSTORE POP POP JUMP JUMPDEST PUSH0 PUSH1 0x20 DUP3 ADD SWAP1 POP PUSH2 0x2F4F PUSH0 DUP4 ADD DUP5 PUSH2 0x2F2D JUMP JUMPDEST SWAP3 SWAP2 POP POP JUMP JUMPDEST PUSH0 PUSH1 0x20 DUP3 DUP5 SUB SLT ISZERO PUSH2 0x2F6A JUMPI PUSH2 0x2F69 PUSH2 0x2AC5 JUMP JUMPDEST JUMPDEST PUSH0 PUSH2 0x2F77 DUP5 DUP3 DUP6 ADD PUSH2 0x2B13 JUMP JUMPDEST SWAP2 POP POP SWAP3 SWAP2 POP POP JUMP JUMPDEST PUSH0 DUP2 MLOAD SWAP1 POP SWAP2 SWAP1 POP JUMP JUMPDEST PUSH0 DUP3 DUP3 MSTORE PUSH1 0x20 DUP3 ADD SWAP1 POP SWAP3 SWAP2 POP POP JUMP JUMPDEST DUP3 DUP2 DUP4 MCOPY PUSH0 DUP4 DUP4 ADD MSTORE POP POP POP JUMP JUMPDEST PUSH0 PUSH2 0x2FB2 DUP3 PUSH2 0x2F80 JUMP JUMPDEST PUSH2 0x2FBC DUP2 DUP6 PUSH2 0x2F8A JUMP JUMPDEST SWAP4 POP PUSH2 0x2FCC DUP2 DUP6 PUSH1 0x20 DUP7 ADD PUSH2 0x2F9A JUMP JUMPDEST PUSH2 0x2FD5 DUP2 PUSH2 0x2B2F JUMP JUMPDEST DUP5 ADD SWAP2 POP POP SWAP3 SWAP2 POP POP JUMP JUMPDEST PUSH0 PUSH2 0x160 DUP3 ADD SWAP1 POP PUSH2 0x2FF4 PUSH0 DUP4 ADD DUP15 PUSH2 0x2DDC JUMP JUMPDEST PUSH2 0x3001 PUSH1 0x20 DUP4 ADD DUP14 PUSH2 0x2F2D JUMP JUMPDEST PUSH2 0x300E PUSH1 0x40 DUP4 ADD DUP13 PUSH2 0x2F2D JUMP JUMPDEST PUSH2 0x301B PUSH1 0x60 DUP4 ADD DUP12 PUSH2 0x2F2D JUMP JUMPDEST PUSH2 0x3028 PUSH1 0x80 DUP4 ADD DUP11 PUSH2 0x2F2D JUMP JUMPDEST PUSH2 0x3035 PUSH1 0xA0 DUP4 ADD DUP10 PUSH2 0x2F2D JUMP JUMPDEST DUP2 DUP2 SUB PUSH1 0xC0 DUP4 ADD MSTORE PUSH2 0x3047 DUP2 DUP9 PUSH2 0x2FA8 JUMP JUMPDEST SWAP1 POP DUP2 DUP2 SUB PUSH1 0xE0 DUP4 ADD MSTORE PUSH2 0x305B DUP2 DUP8 PUSH2 0x2FA8 JUMP JUMPDEST SWAP1 POP DUP2 DUP2 SUB PUSH2 0x100 DUP4 ADD MSTORE PUSH2 0x3070 DUP2 DUP7 PUSH2 0x2FA8 JUMP JUMPDEST SWAP1 POP DUP2 DUP2 SUB PUSH2 0x120 DUP4 ADD MSTORE PUSH2 0x3085 DUP2 DUP6 PUSH2 0x2FA8 JUMP JUMPDEST SWAP1 POP PUSH2 0x3095 PUSH2 0x140 DUP4 ADD DUP5 PUSH2 0x2DDC JUMP JUMPDEST SWAP13 SWAP12 POP POP POP POP POP POP POP POP POP POP POP POP JUMP JUMPDEST PUSH2 0x30AE DUP2 PUSH2 0x2D4A JUMP JUMPDEST DUP2 EQ PUSH2 0x30B8 JUMPI PUSH0 DUP1 REVERT JUMPDEST POP JUMP JUMPDEST PUSH0 DUP2 CALLDATALOAD SWAP1 POP PUSH2 0x30C9 DUP2 PUSH2 0x30A5 JUMP JUMPDEST SWAP3 SWAP2 POP POP JUMP JUMPDEST PUSH0 PUSH1 0x20 DUP3 DUP5 SUB SLT ISZERO PUSH2 0x30E4 JUMPI PUSH2 0x30E3 PUSH2 0x2AC5 JUMP JUMPDEST JUMPDEST PUSH0 PUSH2 0x30F1 DUP5 DUP3 DUP6 ADD PUSH2 0x30BB JUMP JUMPDEST SWAP2 POP POP SWAP3 SWAP2 POP POP JUMP JUMPDEST PUSH0 DUP2 SWAP1 POP SWAP2 SWAP1 POP JUMP JUMPDEST PUSH2 0x310C DUP2 PUSH2 0x30FA JUMP JUMPDEST DUP3 MSTORE POP POP JUMP JUMPDEST PUSH0 PUSH2 0x180 DUP3 ADD SWAP1 POP PUSH2 0x3126 PUSH0 DUP4 ADD DUP16 PUSH2 0x2DDC JUMP JUMPDEST PUSH2 0x3133 PUSH1 0x20 DUP4 ADD DUP15 PUSH2 0x2F2D JUMP JUMPDEST PUSH2 0x3140 PUSH1 0x40 DUP4 ADD DUP14 PUSH2 0x2F2D JUMP JUMPDEST PUSH2 0x314D PUSH1 0x60 DUP4 ADD DUP13 PUSH2 0x2F2D JUMP JUMPDEST PUSH2 0x315A PUSH1 0x80 DUP4 ADD DUP12 PUSH2 0x2F2D JUMP JUMPDEST PUSH2 0x3167 PUSH1 0xA0 DUP4 ADD DUP11 PUSH2 0x2D56 JUMP JUMPDEST DUP2 DUP2 SUB PUSH1 0xC0 DUP4 ADD MSTORE PUSH2 0x3179 DUP2 DUP10 PUSH2 0x2FA8 JUMP JUMPDEST SWAP1 POP DUP2 DUP2 SUB PUSH1 0xE0 DUP4 ADD MSTORE PUSH2 0x318D DUP2 DUP9 PUSH2 0x2FA8 JUMP JUMPDEST SWAP1 POP DUP2 DUP2 SUB PUSH2 0x100 DUP4 ADD MSTORE PUSH2 0x31A2 DUP2 DUP8 PUSH2 0x2FA8 JUMP JUMPDEST SWAP1 POP DUP2 DUP2 SUB PUSH2 0x120 DUP4 ADD MSTORE PUSH2 0x31B7 DUP2 DUP7 PUSH2 0x2FA8 JUMP JUMPDEST SWAP1 POP PUSH2 0x31C7 PUSH2 0x140 DUP4 ADD DUP6 PUSH2 0x3103 JUMP JUMPDEST PUSH2 0x31D5 PUSH2 0x160 DUP4 ADD DUP5 PUSH2 0x2DDC JUMP JUMPDEST SWAP14 SWAP13 POP POP POP POP POP POP POP POP POP POP POP POP POP JUMP JUMPDEST PUSH0 PUSH1 0x20 DUP3 ADD SWAP1 POP DUP2 DUP2 SUB PUSH0 DUP4 ADD MSTORE PUSH2 0x31FE DUP2 DUP5 PUSH2 0x2FA8 JUMP JUMPDEST SWAP1 POP SWAP3 SWAP2 POP POP JUMP JUMPDEST PUSH0 PUSH1 0x40 DUP3 ADD SWAP1 POP PUSH2 0x3219 PUSH0 DUP4 ADD DUP6 PUSH2 0x2F2D JUMP JUMPDEST PUSH2 0x3226 PUSH1 0x20 DUP4 ADD DUP5 PUSH2 0x2F2D JUMP JUMPDEST SWAP4 SWAP3 POP POP POP JUMP JUMPDEST PUSH32 0x55706C696E6520616C7265616479207265676973746572656400000000000000 PUSH0 DUP3 ADD MSTORE POP JUMP JUMPDEST PUSH0 PUSH2 0x3261 PUSH1 0x19 DUP4 PUSH2 0x2F8A JUMP JUMPDEST SWAP2 POP PUSH2 0x326C DUP3 PUSH2 0x322D JUMP JUMPDEST PUSH1 0x20 DUP3 ADD SWAP1 POP SWAP2 SWAP1 POP JUMP JUMPDEST PUSH0 PUSH1 0x20 DUP3 ADD SWAP1 POP DUP2 DUP2 SUB PUSH0 DUP4 ADD MSTORE PUSH2 0x328E DUP2 PUSH2 0x3255 JUMP JUMPDEST SWAP1 POP SWAP2 SWAP1 POP JUMP JUMPDEST PUSH32 0x4E487B7100000000000000000000000000000000000000000000000000000000 PUSH0 MSTORE PUSH1 0x22 PUSH1 0x4 MSTORE PUSH1 0x24 PUSH0 REVERT JUMPDEST PUSH0 PUSH1 0x2 DUP3 DIV SWAP1 POP PUSH1 0x1 DUP3 AND DUP1 PUSH2 0x32D9 JUMPI PUSH1 0x7F DUP3 AND SWAP2 POP JUMPDEST PUSH1 0x20 DUP3 LT DUP2 SUB PUSH2 0x32EC JUMPI PUSH2 0x32EB PUSH2 0x3295 JUMP JUMPDEST JUMPDEST POP SWAP2 SWAP1 POP JUMP JUMPDEST PUSH0 DUP2 SWAP1 POP DUP2 PUSH0 MSTORE PUSH1 0x20 PUSH0 KECCAK256 SWAP1 POP SWAP2 SWAP1 POP JUMP JUMPDEST PUSH0 PUSH1 0x20 PUSH1 0x1F DUP4 ADD DIV SWAP1 POP SWAP2 SWAP1 POP JUMP JUMPDEST PUSH0 DUP3 DUP3 SHL SWAP1 POP SWAP3 SWAP2 POP POP JUMP JUMPDEST PUSH0 PUSH1 0x8 DUP4 MUL PUSH2 0x334E PUSH32 0xFFFFFFFFFFFFFFFFFFFFFFFFFFFFFFFFFFFFFFFFFFFFFFFFFFFFFFFFFFFFFFFF DUP3 PUSH2 0x3313 JUMP JUMPDEST PUSH2 0x3358 DUP7 DUP4 PUSH2 0x3313 JUMP JUMPDEST SWAP6 POP DUP1 NOT DUP5 AND SWAP4 POP DUP1 DUP7 AND DUP5 OR SWAP3 POP POP POP SWAP4 SWAP3 POP POP POP JUMP JUMPDEST PUSH0 DUP2 SWAP1 POP SWAP2 SWAP1 POP JUMP JUMPDEST PUSH0 PUSH2 0x3393 PUSH2 0x338E PUSH2 0x3389 DUP5 PUSH2 0x2D7E JUMP JUMPDEST PUSH2 0x3370 JUMP JUMPDEST PUSH2 0x2D7E JUMP JUMPDEST SWAP1 POP SWAP2 SWAP1 POP JUMP JUMPDEST PUSH0 DUP2 SWAP1 POP SWAP2 SWAP1 POP JUMP JUMPDEST PUSH2 0x33AC DUP4 PUSH2 0x3379 JUMP JUMPDEST PUSH2 0x33C0 PUSH2 0x33B8 DUP3 PUSH2 0x339A JUMP JUMPDEST DUP5 DUP5 SLOAD PUSH2 0x331F JUMP JUMPDEST DUP3 SSTORE POP POP POP POP JUMP JUMPDEST PUSH0 SWAP1 JUMP JUMPDEST PUSH2 0x33D4 PUSH2 0x33C8 JUMP JUMPDEST PUSH2 0x33DF DUP2 DUP5 DUP5 PUSH2 0x33A3 JUMP JUMPDEST POP POP POP JUMP JUMPDEST JUMPDEST DUP2 DUP2 LT ISZERO PUSH2 0x3402 JUMPI PUSH2 0x33F7 PUSH0 DUP3 PUSH2 0x33CC JUMP JUMPDEST PUSH1 0x1 DUP2 ADD SWAP1 POP PUSH2 0x33E5 JUMP JUMPDEST POP POP JUMP JUMPDEST PUSH1 0x1F DUP3 GT ISZERO PUSH2 0x3447 JUMPI PUSH2 0x3418 DUP2 PUSH2 0x32F2 JUMP JUMPDEST PUSH2 0x3421 DUP5 PUSH2 0x3304 JUMP JUMPDEST DUP2 ADD PUSH1 0x20 DUP6 LT ISZERO PUSH2 0x3430 JUMPI DUP2 SWAP1 POP JUMPDEST PUSH2 0x3444 PUSH2 0x343C DUP6 PUSH2 0x3304 JUMP JUMPDEST DUP4 ADD DUP3 PUSH2 0x33E4 JUMP JUMPDEST POP POP JUMPDEST POP POP POP JUMP JUMPDEST PUSH0 DUP3 DUP3 SHR SWAP1 POP SWAP3 SWAP2 POP POP JUMP JUMPDEST PUSH0 PUSH2 0x3467 PUSH0 NOT DUP5 PUSH1 0x8 MUL PUSH2 0x344C JUMP JUMPDEST NOT DUP1 DUP4 AND SWAP2 POP POP SWAP3 SWAP2 POP POP JUMP JUMPDEST PUSH0 PUSH2 0x347F DUP4 DUP4 PUSH2 0x3458 JUMP JUMPDEST SWAP2 POP DUP3 PUSH1 0x2 MUL DUP3 OR SWAP1 POP SWAP3 SWAP2 POP POP JUMP JUMPDEST PUSH2 0x3498 DUP3 PUSH2 0x2F80 JUMP JUMPDEST PUSH8 0xFFFFFFFFFFFFFFFF DUP2 GT ISZERO PUSH2 0x34B1 JUMPI PUSH2 0x34B0 PUSH2 0x2B3F JUMP JUMPDEST JUMPDEST PUSH2 0x34BB DUP3 SLOAD PUSH2 0x32C2 JUMP JUMPDEST PUSH2 0x34C6 DUP3 DUP3 DUP6 PUSH2 0x3406 JUMP JUMPDEST PUSH0 PUSH1 0x20 SWAP1 POP PUSH1 0x1F DUP4 GT PUSH1 0x1 DUP2 EQ PUSH2 0x34F7 JUMPI PUSH0 DUP5 ISZERO PUSH2 0x34E5 JUMPI DUP3 DUP8 ADD MLOAD SWAP1 POP JUMPDEST PUSH2 0x34EF DUP6 DUP3 PUSH2 0x3474 JUMP JUMPDEST DUP7 SSTORE POP PUSH2 0x3556 JUMP JUMPDEST PUSH1 0x1F NOT DUP5 AND PUSH2 0x3505 DUP7 PUSH2 0x32F2 JUMP JUMPDEST PUSH0 JUMPDEST DUP3 DUP2 LT ISZERO PUSH2 0x352C JUMPI DUP5 DUP10 ADD MLOAD DUP3 SSTORE PUSH1 0x1 DUP3 ADD SWAP2 POP PUSH1 0x20 DUP6 ADD SWAP5 POP PUSH1 0x20 DUP2 ADD SWAP1 POP PUSH2 0x3507 JUMP JUMPDEST DUP7 DUP4 LT ISZERO PUSH2 0x3549 JUMPI DUP5 DUP10 ADD MLOAD PUSH2 0x3545 PUSH1 0x1F DUP10 AND DUP3 PUSH2 0x3458 JUMP JUMPDEST DUP4 SSTORE POP JUMPDEST PUSH1 0x1 PUSH1 0x2 DUP9 MUL ADD DUP9 SSTORE POP POP POP JUMPDEST POP POP POP POP POP POP JUMP JUMPDEST PUSH32 0x4E487B7100000000000000000000000000000000000000000000000000000000 PUSH0 MSTORE PUSH1 0x11 PUSH1 0x4 MSTORE PUSH1 0x24 PUSH0 REVERT JUMPDEST PUSH0 PUSH2 0x3595 DUP3 PUSH2 0x2D7E JUMP JUMPDEST SWAP2 POP PUSH32 0xFFFFFFFFFFFFFFFFFFFFFFFFFFFFFFFFFFFFFFFFFFFFFFFFFFFFFFFFFFFFFFFF DUP3 SUB PUSH2 0x35C7 JUMPI PUSH2 0x35C6 PUSH2 0x355E JUMP JUMPDEST JUMPDEST PUSH1 0x1 DUP3 ADD SWAP1 POP SWAP2 SWAP1 POP JUMP JUMPDEST PUSH0 DUP2 SWAP1 POP SWAP2 SWAP1 POP JUMP JUMPDEST PUSH0 PUSH2 0x35F5 PUSH2 0x35F0 PUSH2 0x35EB DUP5 PUSH2 0x35D2 JUMP JUMPDEST PUSH2 0x3370 JUMP JUMPDEST PUSH2 0x2D7E JUMP JUMPDEST SWAP1 POP SWAP2 SWAP1 POP JUMP JUMPDEST PUSH2 0x3605 DUP2 PUSH2 0x35DB JUMP JUMPDEST DUP3 MSTORE POP POP JUMP JUMPDEST PUSH0 PUSH1 0x60 DUP3 ADD SWAP1 POP PUSH2 0x361E PUSH0 DUP4 ADD DUP7 PUSH2 0x2F2D JUMP JUMPDEST PUSH2 0x362B PUSH1 0x20 DUP4 ADD DUP6 PUSH2 0x35FC JUMP JUMPDEST PUSH2 0x3638 PUSH1 0x40 DUP4 ADD DUP5 PUSH2 0x2F2D JUMP JUMPDEST SWAP5 SWAP4 POP POP POP POP JUMP JUMPDEST PUSH32 0x55706C696E6520646F6573206E6F742065786973740000000000000000000000 PUSH0 DUP3 ADD MSTORE POP JUMP JUMPDEST PUSH0 PUSH2 0x3674 PUSH1 0x15 DUP4 PUSH2 0x2F8A JUMP JUMPDEST SWAP2 POP PUSH2 0x367F DUP3 PUSH2 0x3640 JUMP JUMPDEST PUSH1 0x20 DUP3 ADD SWAP1 POP SWAP2 SWAP1 POP JUMP JUMPDEST PUSH0 PUSH1 0x20 DUP3 ADD SWAP1 POP DUP2 DUP2 SUB PUSH0 DUP4 ADD MSTORE PUSH2 0x36A1 DUP2 PUSH2 0x3668 JUMP JUMPDEST SWAP1 POP SWAP2 SWAP1 POP JUMP JUMPDEST PUSH0 DUP2 SWAP1 POP SWAP3 SWAP2 POP POP JUMP JUMPDEST PUSH0 PUSH2 0x36BC DUP3 PUSH2 0x2F80 JUMP JUMPDEST PUSH2 0x36C6 DUP2 DUP6 PUSH2 0x36A8 JUMP JUMPDEST SWAP4 POP PUSH2 0x36D6 DUP2 DUP6 PUSH1 0x20 DUP7 ADD PUSH2 0x2F9A JUMP JUMPDEST DUP1 DUP5 ADD SWAP2 POP POP SWAP3 SWAP2 POP POP JUMP JUMPDEST PUSH0 PUSH2 0x36ED DUP3 DUP5 PUSH2 0x36B2 JUMP JUMPDEST SWAP2 POP DUP2 SWAP1 POP SWAP3 SWAP2 POP POP JUMP JUMPDEST PUSH0 PUSH1 0x60 DUP3 ADD SWAP1 POP PUSH2 0x370B PUSH0 DUP4 ADD DUP7 PUSH2 0x2F2D JUMP JUMPDEST PUSH2 0x3718 PUSH1 0x20 DUP4 ADD DUP6 PUSH2 0x2F2D JUMP JUMPDEST PUSH2 0x3725 PUSH1 0x40 DUP4 ADD DUP5 PUSH2 0x2F2D JUMP JUMPDEST SWAP5 SWAP4 POP POP POP POP JUMP JUMPDEST PUSH32 0x496E76616C6964206C6576656C00000000000000000000000000000000000000 PUSH0 DUP3 ADD MSTORE POP JUMP JUMPDEST PUSH0 PUSH2 0x3761 PUSH1 0xD DUP4 PUSH2 0x2F8A JUMP JUMPDEST SWAP2 POP PUSH2 0x376C DUP3 PUSH2 0x372D JUMP JUMPDEST PUSH1 0x20 DUP3 ADD SWAP1 POP SWAP2 SWAP1 POP JUMP JUMPDEST PUSH0 PUSH1 0x20 DUP3 ADD SWAP1 POP DUP2 DUP2 SUB PUSH0 DUP4 ADD MSTORE PUSH2 0x378E DUP2 PUSH2 0x3755 JUMP JUMPDEST SWAP1 POP SWAP2 SWAP1 POP JUMP JUMPDEST PUSH32 0x43616E6E6F7420646F776E6772616465206F7220737461792061742074686520 PUSH0 DUP3 ADD MSTORE PUSH32 0x73616D65206C6576656C00000000000000000000000000000000000000000000 PUSH1 0x20 DUP3 ADD MSTORE POP JUMP JUMPDEST PUSH0 PUSH2 0x37EF PUSH1 0x2A DUP4 PUSH2 0x2F8A JUMP JUMPDEST SWAP2 POP PUSH2 0x37FA DUP3 PUSH2 0x3795 JUMP JUMPDEST PUSH1 0x40 DUP3 ADD SWAP1 POP SWAP2 SWAP1 POP JUMP JUMPDEST PUSH0 PUSH1 0x20 DUP3 ADD SWAP1 POP DUP2 DUP2 SUB PUSH0 DUP4 ADD MSTORE PUSH2 0x381C DUP2 PUSH2 0x37E3 JUMP JUMPDEST SWAP1 POP SWAP2 SWAP1 POP JUMP JUMPDEST PUSH0 PUSH2 0x382D DUP3 PUSH2 0x2D7E JUMP JUMPDEST SWAP2 POP PUSH2 0x3838 DUP4 PUSH2 0x2D7E JUMP JUMPDEST SWAP3 POP DUP3 DUP3 MUL PUSH2 0x3846 DUP2 PUSH2 0x2D7E JUMP JUMPDEST SWAP2 POP DUP3 DUP3 DIV DUP5 EQ DUP4 ISZERO OR PUSH2 0x385D JUMPI PUSH2 0x385C PUSH2 0x355E JUMP JUMPDEST JUMPDEST POP SWAP3 SWAP2 POP POP JUMP JUMPDEST PUSH32 0x4E487B7100000000000000000000000000000000000000000000000000000000 PUSH0 MSTORE PUSH1 0x12 PUSH1 0x4 MSTORE PUSH1 0x24 PUSH0 REVERT JUMPDEST PUSH0 PUSH2 0x389B DUP3 PUSH2 0x2D7E JUMP JUMPDEST SWAP2 POP PUSH2 0x38A6 DUP4 PUSH2 0x2D7E JUMP JUMPDEST SWAP3 POP DUP3 PUSH2 0x38B6 JUMPI PUSH2 0x38B5 PUSH2 0x3864 JUMP JUMPDEST JUMPDEST DUP3 DUP3 DIV SWAP1 POP SWAP3 SWAP2 POP POP JUMP JUMPDEST PUSH0 PUSH2 0x38CB DUP3 PUSH2 0x2D7E JUMP JUMPDEST SWAP2 POP PUSH2 0x38D6 DUP4 PUSH2 0x2D7E JUMP JUMPDEST SWAP3 POP DUP3 DUP3 SUB SWAP1 POP DUP2 DUP2 GT ISZERO PUSH2 0x38EE JUMPI PUSH2 0x38ED PUSH2 0x355E JUMP JUMPDEST JUMPDEST SWAP3 SWAP2 POP POP JUMP JUMPDEST PUSH0 DUP2 SWAP1 POP SWAP3 SWAP2 POP POP JUMP JUMPDEST POP JUMP JUMPDEST PUSH0 PUSH2 0x390C PUSH0 DUP4 PUSH2 0x38F4 JUMP JUMPDEST SWAP2 POP PUSH2 0x3917 DUP3 PUSH2 0x38FE JUMP JUMPDEST PUSH0 DUP3 ADD SWAP1 POP SWAP2 SWAP1 POP JUMP JUMPDEST PUSH0 PUSH2 0x392B DUP3 PUSH2 0x3901 JUMP JUMPDEST SWAP2 POP DUP2 SWAP1 POP SWAP2 SWAP1 POP JUMP JUMPDEST PUSH32 0x5472616E7366657220746F2075706C696E65206661696C656400000000000000 PUSH0 DUP3 ADD MSTORE POP JUMP JUMPDEST PUSH0 PUSH2 0x3969 PUSH1 0x19 DUP4 PUSH2 0x2F8A JUMP JUMPDEST SWAP2 POP PUSH2 0x3974 DUP3 PUSH2 0x3935 JUMP JUMPDEST PUSH1 0x20 DUP3 ADD SWAP1 POP SWAP2 SWAP1 POP JUMP JUMPDEST PUSH0 PUSH1 0x20 DUP3 ADD SWAP1 POP DUP2 DUP2 SUB PUSH0 DUP4 ADD MSTORE PUSH2 0x3996 DUP2 PUSH2 0x395D JUMP JUMPDEST SWAP1 POP SWAP2 SWAP1 POP JUMP JUMPDEST PUSH0 PUSH2 0x39A7 DUP3 PUSH2 0x2D7E JUMP JUMPDEST SWAP2 POP PUSH2 0x39B2 DUP4 PUSH2 0x2D7E JUMP JUMPDEST SWAP3 POP DUP3 DUP3 ADD SWAP1 POP DUP1 DUP3 GT ISZERO PUSH2 0x39CA JUMPI PUSH2 0x39C9 PUSH2 0x355E JUMP JUMPDEST JUMPDEST SWAP3 SWAP2 POP POP JUMP JUMPDEST PUSH0 PUSH1 0x80 DUP3 ADD SWAP1 POP PUSH2 0x39E3 PUSH0 DUP4 ADD DUP8 PUSH2 0x2D56 JUMP JUMPDEST PUSH2 0x39F0 PUSH1 0x20 DUP4 ADD DUP7 PUSH2 0x2F2D JUMP JUMPDEST PUSH2 0x39FD PUSH1 0x40 DUP4 ADD DUP6 PUSH2 0x2F2D JUMP JUMPDEST PUSH2 0x3A0A PUSH1 0x60 DUP4 ADD DUP5 PUSH2 0x2F2D JUMP JUMPDEST SWAP6 SWAP5 POP POP POP POP POP JUMP JUMPDEST PUSH32 0x496E73756666696369656E7420636F6E74726163742062616C616E6365000000 PUSH0 DUP3 ADD MSTORE POP JUMP JUMPDEST PUSH0 PUSH2 0x3A47 PUSH1 0x1D DUP4 PUSH2 0x2F8A JUMP JUMPDEST SWAP2 POP PUSH2 0x3A52 DUP3 PUSH2 0x3A13 JUMP JUMPDEST PUSH1 0x20 DUP3 ADD SWAP1 POP SWAP2 SWAP1 POP JUMP JUMPDEST PUSH0 PUSH1 0x20 DUP3 ADD SWAP1 POP DUP2 DUP2 SUB PUSH0 DUP4 ADD MSTORE PUSH2 0x3A74 DUP2 PUSH2 0x3A3B JUMP JUMPDEST SWAP1 POP SWAP2 SWAP1 POP JUMP JUMPDEST PUSH32 0x5472616E73666572206661696C65640000000000000000000000000000000000 PUSH0 DUP3 ADD MSTORE POP JUMP JUMPDEST PUSH0 PUSH2 0x3AAF PUSH1 0xF DUP4 PUSH2 0x2F8A JUMP JUMPDEST SWAP2 POP PUSH2 0x3ABA DUP3 PUSH2 0x3A7B JUMP JUMPDEST PUSH1 0x20 DUP3 ADD SWAP1 POP SWAP2 SWAP1 POP JUMP JUMPDEST PUSH0 PUSH1 0x20 DUP3 ADD SWAP1 POP DUP2 DUP2 SUB PUSH0 DUP4 ADD MSTORE PUSH2 0x3ADC DUP2 PUSH2 0x3AA3 JUMP JUMPDEST SWAP1 POP SWAP2 SWAP1 POP JUMP JUMPDEST PUSH32 0x68747470733A2F2F6578616D706C652E636F6D2F726566657272616C2F000000 PUSH0 DUP3 ADD MSTORE POP JUMP JUMPDEST PUSH0 PUSH2 0x3B17 PUSH1 0x1D DUP4 PUSH2 0x36A8 JUMP JUMPDEST SWAP2 POP PUSH2 0x3B22 DUP3 PUSH2 0x3AE3 JUMP JUMPDEST PUSH1 0x1D DUP3 ADD SWAP1 POP SWAP2 SWAP1 POP JUMP JUMPDEST PUSH0 PUSH2 0x3B37 DUP3 PUSH2 0x3B0B JUMP JUMPDEST SWAP2 POP PUSH2 0x3B43 DUP3 DUP5 PUSH2 0x36B2 JUMP JUMPDEST SWAP2 POP DUP2 SWAP1 POP SWAP3 SWAP2 POP POP JUMP JUMPDEST PUSH0 PUSH2 0x3B58 DUP3 PUSH2 0x2D7E JUMP JUMPDEST SWAP2 POP PUSH2 0x3B63 DUP4 PUSH2 0x2D7E JUMP JUMPDEST SWAP3 POP DUP3 PUSH2 0x3B73 JUMPI PUSH2 0x3B72 PUSH2 0x3864 JUMP JUMPDEST JUMPDEST DUP3 DUP3 MOD SWAP1 POP SWAP3 SWAP2 POP POP JUMP JUMPDEST PUSH32 0x4E487B7100000000000000000000000000000000000000000000000000000000 PUSH0 MSTORE PUSH1 0x32 PUSH1 0x4 MSTORE PUSH1 0x24 PUSH0 REVERT INVALID LOG2 PUSH5 0x6970667358 0x22 SLT KECCAK256 DUP10 SLOAD SWAP6 PUSH8 0x21076157133AD46B STATICCALL 0xF7 DUP3 0xD4 DELEGATECALL 0xB7 PUSH12 0x582CBB1C0C7659D01852845B 0xE3 PUSH5 0x736F6C6343 STOP ADDMOD BYTE STOP CALLER "
				},
				"gasEstimates": {
					"creation": {
						"codeDepositCost": "3065800",
						"executionCost": "infinite",
						"totalCost": "infinite"
					},
					"external": {
						"BASIC_PRICE()": "347",
						"LAST_LEVEL()": "377",
						"REGISTRATION_FEE()": "392",
						"buyLevel(uint8)": "infinite",
						"generateReferralLink(address)": "infinite",
						"getLevelPrice(uint8)": "2888",
						"getUserById(uint256)": "2941",
						"getUserInfo(address)": "infinite",
						"idToAddress(uint256)": "2895",
						"lastUserId()": "2448",
						"levelPrice(uint8)": "2870",
						"owner()": "2575",
						"payUpline(address)": "infinite",
						"registerUpline(address,string,string,string,string)": "infinite",
						"registerUser(address,string,string,string,string,string,address)": "infinite",
						"transactionHistory(address)": "infinite",
						"users(address)": "infinite"
					},
					"internal": {
						"handleReferral(address,address)": "infinite",
						"rewardUser(address,uint256)": "infinite",
						"uintToString(uint256)": "infinite"
					}
				},
				"methodIdentifiers": {
					"BASIC_PRICE()": "9ac7e09e",
					"LAST_LEVEL()": "29c70400",
					"REGISTRATION_FEE()": "64b4f751",
					"buyLevel(uint8)": "8d17a4d0",
					"generateReferralLink(address)": "aed8a6a7",
					"getLevelPrice(uint8)": "6f8e2516",
					"getUserById(uint256)": "6ed6da9e",
					"getUserInfo(address)": "6386c1c7",
					"idToAddress(uint256)": "2a2d0c47",
					"lastUserId()": "348d4487",
					"levelPrice(uint8)": "ecabdf79",
					"owner()": "8da5cb5b",
					"payUpline(address)": "90426274",
					"registerUpline(address,string,string,string,string)": "1394c053",
					"registerUser(address,string,string,string,string,string,address)": "3056deb8",
					"transactionHistory(address)": "de972b43",
					"users(address)": "a87430ba"
				}
			},
			"storageLayout": {
				"storage": [
					{
						"astId": 34,
						"contract": "contracts/_ronx2.sol:X3Program",
						"label": "users",
						"offset": 0,
						"slot": "0",
						"type": "t_mapping(t_address,t_struct(User)29_storage)"
					},
					{
						"astId": 38,
						"contract": "contracts/_ronx2.sol:X3Program",
						"label": "idToAddress",
						"offset": 0,
						"slot": "1",
						"type": "t_mapping(t_uint256,t_address)"
					},
					{
						"astId": 42,
						"contract": "contracts/_ronx2.sol:X3Program",
						"label": "levelPrice",
						"offset": 0,
						"slot": "2",
						"type": "t_mapping(t_uint8,t_uint256)"
					},
					{
						"astId": 45,
						"contract": "contracts/_ronx2.sol:X3Program",
						"label": "lastUserId",
						"offset": 0,
						"slot": "3",
						"type": "t_uint256"
					},
					{
						"astId": 56,
						"contract": "contracts/_ronx2.sol:X3Program",
						"label": "owner",
						"offset": 0,
						"slot": "4",
						"type": "t_address"
					}
				],
				"types": {
					"t_address": {
						"encoding": "inplace",
						"label": "address",
						"numberOfBytes": "20"
					},
					"t_array(t_address)dyn_storage": {
						"base": "t_address",
						"encoding": "dynamic_array",
						"label": "address[]",
						"numberOfBytes": "32"
					},
					"t_bytes32": {
						"encoding": "inplace",
						"label": "bytes32",
						"numberOfBytes": "32"
					},
					"t_mapping(t_address,t_struct(User)29_storage)": {
						"encoding": "mapping",
						"key": "t_address",
						"label": "mapping(address => struct X3Program.User)",
						"numberOfBytes": "32",
						"value": "t_struct(User)29_storage"
					},
					"t_mapping(t_uint256,t_address)": {
						"encoding": "mapping",
						"key": "t_uint256",
						"label": "mapping(uint256 => address)",
						"numberOfBytes": "32",
						"value": "t_address"
					},
					"t_mapping(t_uint8,t_uint256)": {
						"encoding": "mapping",
						"key": "t_uint8",
						"label": "mapping(uint8 => uint256)",
						"numberOfBytes": "32",
						"value": "t_uint256"
					},
					"t_string_storage": {
						"encoding": "bytes",
						"label": "string",
						"numberOfBytes": "32"
					},
					"t_struct(User)29_storage": {
						"encoding": "inplace",
						"label": "struct X3Program.User",
						"members": [
							{
								"astId": 3,
								"contract": "contracts/_ronx2.sol:X3Program",
								"label": "upline",
								"offset": 0,
								"slot": "0",
								"type": "t_address"
							},
							{
								"astId": 5,
								"contract": "contracts/_ronx2.sol:X3Program",
								"label": "id",
								"offset": 0,
								"slot": "1",
								"type": "t_uint256"
							},
							{
								"astId": 7,
								"contract": "contracts/_ronx2.sol:X3Program",
								"label": "referralCount",
								"offset": 0,
								"slot": "2",
								"type": "t_uint256"
							},
							{
								"astId": 9,
								"contract": "contracts/_ronx2.sol:X3Program",
								"label": "cycleCount",
								"offset": 0,
								"slot": "3",
								"type": "t_uint256"
							},
							{
								"astId": 11,
								"contract": "contracts/_ronx2.sol:X3Program",
								"label": "earnings",
								"offset": 0,
								"slot": "4",
								"type": "t_uint256"
							},
							{
								"astId": 13,
								"contract": "contracts/_ronx2.sol:X3Program",
								"label": "partnerLevel",
								"offset": 0,
								"slot": "5",
								"type": "t_uint8"
							},
							{
								"astId": 16,
								"contract": "contracts/_ronx2.sol:X3Program",
								"label": "referrals",
								"offset": 0,
								"slot": "6",
								"type": "t_array(t_address)dyn_storage"
							},
							{
								"astId": 18,
								"contract": "contracts/_ronx2.sol:X3Program",
								"label": "firstName",
								"offset": 0,
								"slot": "7",
								"type": "t_string_storage"
							},
							{
								"astId": 20,
								"contract": "contracts/_ronx2.sol:X3Program",
								"label": "lastName",
								"offset": 0,
								"slot": "8",
								"type": "t_string_storage"
							},
							{
								"astId": 22,
								"contract": "contracts/_ronx2.sol:X3Program",
								"label": "profilePic",
								"offset": 0,
								"slot": "9",
								"type": "t_string_storage"
							},
							{
								"astId": 24,
								"contract": "contracts/_ronx2.sol:X3Program",
								"label": "email",
								"offset": 0,
								"slot": "10",
								"type": "t_string_storage"
							},
							{
								"astId": 26,
								"contract": "contracts/_ronx2.sol:X3Program",
								"label": "passwordHash",
								"offset": 0,
								"slot": "11",
								"type": "t_bytes32"
							},
							{
								"astId": 28,
								"contract": "contracts/_ronx2.sol:X3Program",
								"label": "userAddress",
								"offset": 0,
								"slot": "12",
								"type": "t_address"
							}
						],
						"numberOfBytes": "416"
					},
					"t_uint256": {
						"encoding": "inplace",
						"label": "uint256",
						"numberOfBytes": "32"
					},
					"t_uint8": {
						"encoding": "inplace",
						"label": "uint8",
						"numberOfBytes": "1"
					}
				}
			},
			"userdoc": {
				"kind": "user",
				"methods": {},
				"version": 1
			}
		}
	}
}