{
	"contracts/_crowdfunding.sol": {
		"Crowdfunding": {
			"abi": [
				{
					"anonymous": false,
					"inputs": [
						{
							"indexed": false,
							"internalType": "uint256",
							"name": "campaignId",
							"type": "uint256"
						},
						{
							"indexed": false,
							"internalType": "address",
							"name": "creator",
							"type": "address"
						},
						{
							"indexed": false,
							"internalType": "uint256",
							"name": "goal",
							"type": "uint256"
						},
						{
							"indexed": false,
							"internalType": "uint256",
							"name": "deadline",
							"type": "uint256"
						}
					],
					"name": "CampaignCreated",
					"type": "event"
				},
				{
					"anonymous": false,
					"inputs": [
						{
							"indexed": false,
							"internalType": "uint256",
							"name": "campaignId",
							"type": "uint256"
						},
						{
							"indexed": false,
							"internalType": "address",
							"name": "contributor",
							"type": "address"
						},
						{
							"indexed": false,
							"internalType": "uint256",
							"name": "amount",
							"type": "uint256"
						}
					],
					"name": "ContributionMade",
					"type": "event"
				},
				{
					"anonymous": false,
					"inputs": [
						{
							"indexed": false,
							"internalType": "uint256",
							"name": "campaignId",
							"type": "uint256"
						},
						{
							"indexed": false,
							"internalType": "address",
							"name": "creator",
							"type": "address"
						},
						{
							"indexed": false,
							"internalType": "uint256",
							"name": "amount",
							"type": "uint256"
						}
					],
					"name": "FundsWithdrawn",
					"type": "event"
				},
				{
					"inputs": [],
					"name": "campaignCount",
					"outputs": [
						{
							"internalType": "uint256",
							"name": "",
							"type": "uint256"
						}
					],
					"stateMutability": "view",
					"type": "function"
				},
				{
					"inputs": [
						{
							"internalType": "uint256",
							"name": "",
							"type": "uint256"
						}
					],
					"name": "campaigns",
					"outputs": [
						{
							"internalType": "address payable",
							"name": "creator",
							"type": "address"
						},
						{
							"internalType": "uint256",
							"name": "goal",
							"type": "uint256"
						},
						{
							"internalType": "uint256",
							"name": "deadline",
							"type": "uint256"
						},
						{
							"internalType": "uint256",
							"name": "fundsRaised",
							"type": "uint256"
						},
						{
							"internalType": "bool",
							"name": "completed",
							"type": "bool"
						}
					],
					"stateMutability": "view",
					"type": "function"
				},
				{
					"inputs": [
						{
							"internalType": "uint256",
							"name": "_campaignId",
							"type": "uint256"
						}
					],
					"name": "contribute",
					"outputs": [],
					"stateMutability": "payable",
					"type": "function"
				},
				{
					"inputs": [
						{
							"internalType": "uint256",
							"name": "_goal",
							"type": "uint256"
						},
						{
							"internalType": "uint256",
							"name": "_duration",
							"type": "uint256"
						}
					],
					"name": "createCampaign",
					"outputs": [],
					"stateMutability": "nonpayable",
					"type": "function"
				},
				{
					"inputs": [
						{
							"internalType": "uint256",
							"name": "_campaignId",
							"type": "uint256"
						},
						{
							"internalType": "address",
							"name": "_contributor",
							"type": "address"
						}
					],
					"name": "getContribution",
					"outputs": [
						{
							"internalType": "uint256",
							"name": "",
							"type": "uint256"
						}
					],
					"stateMutability": "view",
					"type": "function"
				},
				{
					"inputs": [
						{
							"internalType": "uint256",
							"name": "_campaignId",
							"type": "uint256"
						}
					],
					"name": "withdrawFunds",
					"outputs": [],
					"stateMutability": "nonpayable",
					"type": "function"
				}
			],
			"devdoc": {
				"kind": "dev",
				"methods": {},
				"version": 1
			},
			"evm": {
				"assembly": "    /* \"contracts/_crowdfunding.sol\":60:2624  contract Crowdfunding {... */\n  mstore(0x40, 0x80)\n  callvalue\n  dup1\n  iszero\n  tag_1\n  jumpi\n  0x00\n  dup1\n  revert\ntag_1:\n  pop\n  dataSize(sub_0)\n  dup1\n  dataOffset(sub_0)\n  0x00\n  codecopy\n  0x00\n  return\nstop\n\nsub_0: assembly {\n        /* \"contracts/_crowdfunding.sol\":60:2624  contract Crowdfunding {... */\n      mstore(0x40, 0x80)\n      jumpi(tag_1, lt(calldatasize, 0x04))\n      shr(0xe0, calldataload(0x00))\n      dup1\n      0x141961bc\n      eq\n      tag_2\n      jumpi\n      dup1\n      0x155dd5ee\n      eq\n      tag_3\n      jumpi\n      dup1\n      0x22502268\n      eq\n      tag_4\n      jumpi\n      dup1\n      0x7274e30d\n      eq\n      tag_5\n      jumpi\n      dup1\n      0xc1cbbca7\n      eq\n      tag_6\n      jumpi\n      dup1\n      0xe081dbf9\n      eq\n      tag_7\n      jumpi\n    tag_1:\n      0x00\n      dup1\n      revert\n        /* \"contracts/_crowdfunding.sol\":332:374  mapping(uint => Campaign) public campaigns */\n    tag_2:\n      callvalue\n      dup1\n      iszero\n      tag_8\n      jumpi\n      0x00\n      dup1\n      revert\n    tag_8:\n      pop\n      tag_9\n      0x04\n      dup1\n      calldatasize\n      sub\n      dup2\n      add\n      swap1\n      tag_10\n      swap2\n      swap1\n      tag_11\n      jump\t// in\n    tag_10:\n      tag_12\n      jump\t// in\n    tag_9:\n      mload(0x40)\n      tag_13\n      swap6\n      swap5\n      swap4\n      swap3\n      swap2\n      swap1\n      tag_14\n      jump\t// in\n    tag_13:\n      mload(0x40)\n      dup1\n      swap2\n      sub\n      swap1\n      return\n        /* \"contracts/_crowdfunding.sol\":1953:2443  function withdrawFunds(uint _campaignId) external onlyCreator(_campaignId) campaignEnded(_campaignId) {... */\n    tag_3:\n      callvalue\n      dup1\n      iszero\n      tag_15\n      jumpi\n      0x00\n      dup1\n      revert\n    tag_15:\n      pop\n      tag_16\n      0x04\n      dup1\n      calldatasize\n      sub\n      dup2\n      add\n      swap1\n      tag_17\n      swap2\n      swap1\n      tag_11\n      jump\t// in\n    tag_17:\n      tag_18\n      jump\t// in\n    tag_16:\n      stop\n        /* \"contracts/_crowdfunding.sol\":1215:1613  function createCampaign(uint _goal, uint _duration) external {... */\n    tag_4:\n      callvalue\n      dup1\n      iszero\n      tag_19\n      jumpi\n      0x00\n      dup1\n      revert\n    tag_19:\n      pop\n      tag_20\n      0x04\n      dup1\n      calldatasize\n      sub\n      dup2\n      add\n      swap1\n      tag_21\n      swap2\n      swap1\n      tag_22\n      jump\t// in\n    tag_21:\n      tag_23\n      jump\t// in\n    tag_20:\n      stop\n        /* \"contracts/_crowdfunding.sol\":300:325  uint public campaignCount */\n    tag_5:\n      callvalue\n      dup1\n      iszero\n      tag_24\n      jumpi\n      0x00\n      dup1\n      revert\n    tag_24:\n      pop\n      tag_25\n      tag_26\n      jump\t// in\n    tag_25:\n      mload(0x40)\n      tag_27\n      swap2\n      swap1\n      tag_28\n      jump\t// in\n    tag_27:\n      mload(0x40)\n      dup1\n      swap2\n      sub\n      swap1\n      return\n        /* \"contracts/_crowdfunding.sol\":1621:1945  function contribute(uint _campaignId) external payable campaignActive(_campaignId) {... */\n    tag_6:\n      tag_29\n      0x04\n      dup1\n      calldatasize\n      sub\n      dup2\n      add\n      swap1\n      tag_30\n      swap2\n      swap1\n      tag_11\n      jump\t// in\n    tag_30:\n      tag_31\n      jump\t// in\n    tag_29:\n      stop\n        /* \"contracts/_crowdfunding.sol\":2451:2621  function getContribution(uint _campaignId, address _contributor) external view returns (uint) {... */\n    tag_7:\n      callvalue\n      dup1\n      iszero\n      tag_32\n      jumpi\n      0x00\n      dup1\n      revert\n    tag_32:\n      pop\n      tag_33\n      0x04\n      dup1\n      calldatasize\n      sub\n      dup2\n      add\n      swap1\n      tag_34\n      swap2\n      swap1\n      tag_35\n      jump\t// in\n    tag_34:\n      tag_36\n      jump\t// in\n    tag_33:\n      mload(0x40)\n      tag_37\n      swap2\n      swap1\n      tag_28\n      jump\t// in\n    tag_37:\n      mload(0x40)\n      dup1\n      swap2\n      sub\n      swap1\n      return\n        /* \"contracts/_crowdfunding.sol\":332:374  mapping(uint => Campaign) public campaigns */\n    tag_12:\n      mstore(0x20, 0x01)\n      dup1\n      0x00\n      mstore\n      keccak256(0x00, 0x40)\n      0x00\n      swap2\n      pop\n      swap1\n      pop\n      dup1\n      0x00\n      add\n      0x00\n      swap1\n      sload\n      swap1\n      0x0100\n      exp\n      swap1\n      div\n      0xffffffffffffffffffffffffffffffffffffffff\n      and\n      swap1\n      dup1\n      0x01\n      add\n      sload\n      swap1\n      dup1\n      0x02\n      add\n      sload\n      swap1\n      dup1\n      0x03\n      add\n      sload\n      swap1\n      dup1\n      0x04\n      add\n      0x00\n      swap1\n      sload\n      swap1\n      0x0100\n      exp\n      swap1\n      div\n      0xff\n      and\n      swap1\n      pop\n      dup6\n      jump\t// out\n        /* \"contracts/_crowdfunding.sol\":1953:2443  function withdrawFunds(uint _campaignId) external onlyCreator(_campaignId) campaignEnded(_campaignId) {... */\n    tag_18:\n        /* \"contracts/_crowdfunding.sol\":2015:2026  _campaignId */\n      dup1\n        /* \"contracts/_crowdfunding.sol\":699:708  campaigns */\n      0x01\n        /* \"contracts/_crowdfunding.sol\":699:721  campaigns[_campaignId] */\n      0x00\n        /* \"contracts/_crowdfunding.sol\":709:720  _campaignId */\n      dup3\n        /* \"contracts/_crowdfunding.sol\":699:721  campaigns[_campaignId] */\n      dup2\n      mstore\n      0x20\n      add\n      swap1\n      dup2\n      mstore\n      0x20\n      add\n      0x00\n      keccak256\n        /* \"contracts/_crowdfunding.sol\":699:729  campaigns[_campaignId].creator */\n      0x00\n      add\n      0x00\n      swap1\n      sload\n      swap1\n      0x0100\n      exp\n      swap1\n      div\n      0xffffffffffffffffffffffffffffffffffffffff\n      and\n        /* \"contracts/_crowdfunding.sol\":685:729  msg.sender == campaigns[_campaignId].creator */\n      0xffffffffffffffffffffffffffffffffffffffff\n      and\n        /* \"contracts/_crowdfunding.sol\":685:695  msg.sender */\n      caller\n        /* \"contracts/_crowdfunding.sol\":685:729  msg.sender == campaigns[_campaignId].creator */\n      0xffffffffffffffffffffffffffffffffffffffff\n      and\n      eq\n        /* \"contracts/_crowdfunding.sol\":677:776  require(msg.sender == campaigns[_campaignId].creator, \"Only the creator can execute this function\") */\n      tag_39\n      jumpi\n      mload(0x40)\n      0x08c379a000000000000000000000000000000000000000000000000000000000\n      dup2\n      mstore\n      0x04\n      add\n      tag_40\n      swap1\n      tag_41\n      jump\t// in\n    tag_40:\n      mload(0x40)\n      dup1\n      swap2\n      sub\n      swap1\n      revert\n    tag_39:\n        /* \"contracts/_crowdfunding.sol\":2042:2053  _campaignId */\n      dup2\n        /* \"contracts/_crowdfunding.sol\":1127:1136  campaigns */\n      0x01\n        /* \"contracts/_crowdfunding.sol\":1127:1149  campaigns[_campaignId] */\n      0x00\n        /* \"contracts/_crowdfunding.sol\":1137:1148  _campaignId */\n      dup3\n        /* \"contracts/_crowdfunding.sol\":1127:1149  campaigns[_campaignId] */\n      dup2\n      mstore\n      0x20\n      add\n      swap1\n      dup2\n      mstore\n      0x20\n      add\n      0x00\n      keccak256\n        /* \"contracts/_crowdfunding.sol\":1127:1158  campaigns[_campaignId].deadline */\n      0x02\n      add\n      sload\n        /* \"contracts/_crowdfunding.sol\":1108:1123  block.timestamp */\n      timestamp\n        /* \"contracts/_crowdfunding.sol\":1108:1158  block.timestamp >= campaigns[_campaignId].deadline */\n      lt\n      iszero\n        /* \"contracts/_crowdfunding.sol\":1100:1187  require(block.timestamp >= campaigns[_campaignId].deadline, \"Campaign is still active\") */\n      tag_43\n      jumpi\n      mload(0x40)\n      0x08c379a000000000000000000000000000000000000000000000000000000000\n      dup2\n      mstore\n      0x04\n      add\n      tag_44\n      swap1\n      tag_45\n      jump\t// in\n    tag_44:\n      mload(0x40)\n      dup1\n      swap2\n      sub\n      swap1\n      revert\n    tag_43:\n        /* \"contracts/_crowdfunding.sol\":2066:2091  Campaign storage campaign */\n      0x00\n        /* \"contracts/_crowdfunding.sol\":2094:2103  campaigns */\n      0x01\n        /* \"contracts/_crowdfunding.sol\":2094:2116  campaigns[_campaignId] */\n      0x00\n        /* \"contracts/_crowdfunding.sol\":2104:2115  _campaignId */\n      dup6\n        /* \"contracts/_crowdfunding.sol\":2094:2116  campaigns[_campaignId] */\n      dup2\n      mstore\n      0x20\n      add\n      swap1\n      dup2\n      mstore\n      0x20\n      add\n      0x00\n      keccak256\n        /* \"contracts/_crowdfunding.sol\":2066:2116  Campaign storage campaign = campaigns[_campaignId] */\n      swap1\n      pop\n        /* \"contracts/_crowdfunding.sol\":2159:2167  campaign */\n      dup1\n        /* \"contracts/_crowdfunding.sol\":2159:2172  campaign.goal */\n      0x01\n      add\n      sload\n        /* \"contracts/_crowdfunding.sol\":2135:2143  campaign */\n      dup2\n        /* \"contracts/_crowdfunding.sol\":2135:2155  campaign.fundsRaised */\n      0x03\n      add\n      sload\n        /* \"contracts/_crowdfunding.sol\":2135:2172  campaign.fundsRaised >= campaign.goal */\n      lt\n      iszero\n        /* \"contracts/_crowdfunding.sol\":2127:2208  require(campaign.fundsRaised >= campaign.goal, \"Campaign did not reach its goal\") */\n      tag_47\n      jumpi\n      mload(0x40)\n      0x08c379a000000000000000000000000000000000000000000000000000000000\n      dup2\n      mstore\n      0x04\n      add\n      tag_48\n      swap1\n      tag_49\n      jump\t// in\n    tag_48:\n      mload(0x40)\n      dup1\n      swap2\n      sub\n      swap1\n      revert\n    tag_47:\n        /* \"contracts/_crowdfunding.sol\":2221:2232  uint amount */\n      0x00\n        /* \"contracts/_crowdfunding.sol\":2235:2243  campaign */\n      dup2\n        /* \"contracts/_crowdfunding.sol\":2235:2255  campaign.fundsRaised */\n      0x03\n      add\n      sload\n        /* \"contracts/_crowdfunding.sol\":2221:2255  uint amount = campaign.fundsRaised */\n      swap1\n      pop\n        /* \"contracts/_crowdfunding.sol\":2289:2290  0 */\n      0x00\n        /* \"contracts/_crowdfunding.sol\":2266:2274  campaign */\n      dup3\n        /* \"contracts/_crowdfunding.sol\":2266:2286  campaign.fundsRaised */\n      0x03\n      add\n        /* \"contracts/_crowdfunding.sol\":2266:2290  campaign.fundsRaised = 0 */\n      dup2\n      swap1\n      sstore\n      pop\n        /* \"contracts/_crowdfunding.sol\":2322:2326  true */\n      0x01\n        /* \"contracts/_crowdfunding.sol\":2301:2309  campaign */\n      dup3\n        /* \"contracts/_crowdfunding.sol\":2301:2319  campaign.completed */\n      0x04\n      add\n      0x00\n        /* \"contracts/_crowdfunding.sol\":2301:2326  campaign.completed = true */\n      0x0100\n      exp\n      dup2\n      sload\n      dup2\n      0xff\n      mul\n      not\n      and\n      swap1\n      dup4\n      iszero\n      iszero\n      mul\n      or\n      swap1\n      sstore\n      pop\n        /* \"contracts/_crowdfunding.sol\":2339:2347  campaign */\n      dup2\n        /* \"contracts/_crowdfunding.sol\":2339:2355  campaign.creator */\n      0x00\n      add\n      0x00\n      swap1\n      sload\n      swap1\n      0x0100\n      exp\n      swap1\n      div\n      0xffffffffffffffffffffffffffffffffffffffff\n      and\n        /* \"contracts/_crowdfunding.sol\":2339:2364  campaign.creator.transfer */\n      0xffffffffffffffffffffffffffffffffffffffff\n      and\n        /* \"contracts/_crowdfunding.sol\":2339:2372  campaign.creator.transfer(amount) */\n      0x08fc\n        /* \"contracts/_crowdfunding.sol\":2365:2371  amount */\n      dup3\n        /* \"contracts/_crowdfunding.sol\":2339:2372  campaign.creator.transfer(amount) */\n      swap1\n      dup2\n      iszero\n      mul\n      swap1\n      mload(0x40)\n      0x00\n      mload(0x40)\n      dup1\n      dup4\n      sub\n      dup2\n      dup6\n      dup9\n      dup9\n      call\n      swap4\n      pop\n      pop\n      pop\n      pop\n      iszero\n      dup1\n      iszero\n      tag_51\n      jumpi\n      returndatasize\n      0x00\n      dup1\n      returndatacopy\n      revert(0x00, returndatasize)\n    tag_51:\n      pop\n        /* \"contracts/_crowdfunding.sol\":2388:2435  FundsWithdrawn(_campaignId, msg.sender, amount) */\n      0xf440aec6b52895984d061d622e6edeba6210f7c3e059be920663140c084560d7\n        /* \"contracts/_crowdfunding.sol\":2403:2414  _campaignId */\n      dup6\n        /* \"contracts/_crowdfunding.sol\":2416:2426  msg.sender */\n      caller\n        /* \"contracts/_crowdfunding.sol\":2428:2434  amount */\n      dup4\n        /* \"contracts/_crowdfunding.sol\":2388:2435  FundsWithdrawn(_campaignId, msg.sender, amount) */\n      mload(0x40)\n      tag_52\n      swap4\n      swap3\n      swap2\n      swap1\n      tag_53\n      jump\t// in\n    tag_52:\n      mload(0x40)\n      dup1\n      swap2\n      sub\n      swap1\n      log1\n        /* \"contracts/_crowdfunding.sol\":2055:2443  {... */\n      pop\n      pop\n        /* \"contracts/_crowdfunding.sol\":787:788  _ */\n      pop\n        /* \"contracts/_crowdfunding.sol\":1953:2443  function withdrawFunds(uint _campaignId) external onlyCreator(_campaignId) campaignEnded(_campaignId) {... */\n      pop\n      pop\n      jump\t// out\n        /* \"contracts/_crowdfunding.sol\":1215:1613  function createCampaign(uint _goal, uint _duration) external {... */\n    tag_23:\n        /* \"contracts/_crowdfunding.sol\":1287:1300  campaignCount */\n      0x00\n      dup1\n        /* \"contracts/_crowdfunding.sol\":1287:1302  campaignCount++ */\n      dup2\n      sload\n      dup1\n      swap3\n      swap2\n      swap1\n      tag_55\n      swap1\n      tag_56\n      jump\t// in\n    tag_55:\n      swap2\n      swap1\n      pop\n      sstore\n      pop\n        /* \"contracts/_crowdfunding.sol\":1313:1341  Campaign storage newCampaign */\n      0x00\n        /* \"contracts/_crowdfunding.sol\":1344:1353  campaigns */\n      0x01\n        /* \"contracts/_crowdfunding.sol\":1344:1368  campaigns[campaignCount] */\n      0x00\n        /* \"contracts/_crowdfunding.sol\":1354:1367  campaignCount */\n      dup1\n      sload\n        /* \"contracts/_crowdfunding.sol\":1344:1368  campaigns[campaignCount] */\n      dup2\n      mstore\n      0x20\n      add\n      swap1\n      dup2\n      mstore\n      0x20\n      add\n      0x00\n      keccak256\n        /* \"contracts/_crowdfunding.sol\":1313:1368  Campaign storage newCampaign = campaigns[campaignCount] */\n      swap1\n      pop\n        /* \"contracts/_crowdfunding.sol\":1409:1419  msg.sender */\n      caller\n        /* \"contracts/_crowdfunding.sol\":1379:1390  newCampaign */\n      dup2\n        /* \"contracts/_crowdfunding.sol\":1379:1398  newCampaign.creator */\n      0x00\n      add\n      0x00\n        /* \"contracts/_crowdfunding.sol\":1379:1420  newCampaign.creator = payable(msg.sender) */\n      0x0100\n      exp\n      dup2\n      sload\n      dup2\n      0xffffffffffffffffffffffffffffffffffffffff\n      mul\n      not\n      and\n      swap1\n      dup4\n      0xffffffffffffffffffffffffffffffffffffffff\n      and\n      mul\n      or\n      swap1\n      sstore\n      pop\n        /* \"contracts/_crowdfunding.sol\":1450:1455  _goal */\n      dup3\n        /* \"contracts/_crowdfunding.sol\":1431:1442  newCampaign */\n      dup2\n        /* \"contracts/_crowdfunding.sol\":1431:1447  newCampaign.goal */\n      0x01\n      add\n        /* \"contracts/_crowdfunding.sol\":1431:1455  newCampaign.goal = _goal */\n      dup2\n      swap1\n      sstore\n      pop\n        /* \"contracts/_crowdfunding.sol\":1507:1516  _duration */\n      dup2\n        /* \"contracts/_crowdfunding.sol\":1489:1504  block.timestamp */\n      timestamp\n        /* \"contracts/_crowdfunding.sol\":1489:1516  block.timestamp + _duration */\n      tag_57\n      swap2\n      swap1\n      tag_58\n      jump\t// in\n    tag_57:\n        /* \"contracts/_crowdfunding.sol\":1466:1477  newCampaign */\n      dup2\n        /* \"contracts/_crowdfunding.sol\":1466:1486  newCampaign.deadline */\n      0x02\n      add\n        /* \"contracts/_crowdfunding.sol\":1466:1516  newCampaign.deadline = block.timestamp + _duration */\n      dup2\n      swap1\n      sstore\n      pop\n        /* \"contracts/_crowdfunding.sol\":1534:1605  CampaignCreated(campaignCount, msg.sender, _goal, newCampaign.deadline) */\n      0x91b289a829e71d811b8c69e4a24ba2d40d115d8a236e9a724cb3bb2d43cf7223\n        /* \"contracts/_crowdfunding.sol\":1550:1563  campaignCount */\n      sload(0x00)\n        /* \"contracts/_crowdfunding.sol\":1565:1575  msg.sender */\n      caller\n        /* \"contracts/_crowdfunding.sol\":1577:1582  _goal */\n      dup6\n        /* \"contracts/_crowdfunding.sol\":1584:1595  newCampaign */\n      dup5\n        /* \"contracts/_crowdfunding.sol\":1584:1604  newCampaign.deadline */\n      0x02\n      add\n      sload\n        /* \"contracts/_crowdfunding.sol\":1534:1605  CampaignCreated(campaignCount, msg.sender, _goal, newCampaign.deadline) */\n      mload(0x40)\n      tag_59\n      swap5\n      swap4\n      swap3\n      swap2\n      swap1\n      tag_60\n      jump\t// in\n    tag_59:\n      mload(0x40)\n      dup1\n      swap2\n      sub\n      swap1\n      log1\n        /* \"contracts/_crowdfunding.sol\":1276:1613  {... */\n      pop\n        /* \"contracts/_crowdfunding.sol\":1215:1613  function createCampaign(uint _goal, uint _duration) external {... */\n      pop\n      pop\n      jump\t// out\n        /* \"contracts/_crowdfunding.sol\":300:325  uint public campaignCount */\n    tag_26:\n      sload(0x00)\n      dup2\n      jump\t// out\n        /* \"contracts/_crowdfunding.sol\":1621:1945  function contribute(uint _campaignId) external payable campaignActive(_campaignId) {... */\n    tag_31:\n        /* \"contracts/_crowdfunding.sol\":1691:1702  _campaignId */\n      dup1\n        /* \"contracts/_crowdfunding.sol\":883:892  campaigns */\n      0x01\n        /* \"contracts/_crowdfunding.sol\":883:905  campaigns[_campaignId] */\n      0x00\n        /* \"contracts/_crowdfunding.sol\":893:904  _campaignId */\n      dup3\n        /* \"contracts/_crowdfunding.sol\":883:905  campaigns[_campaignId] */\n      dup2\n      mstore\n      0x20\n      add\n      swap1\n      dup2\n      mstore\n      0x20\n      add\n      0x00\n      keccak256\n        /* \"contracts/_crowdfunding.sol\":883:914  campaigns[_campaignId].deadline */\n      0x02\n      add\n      sload\n        /* \"contracts/_crowdfunding.sol\":865:880  block.timestamp */\n      timestamp\n        /* \"contracts/_crowdfunding.sol\":865:914  block.timestamp < campaigns[_campaignId].deadline */\n      lt\n        /* \"contracts/_crowdfunding.sol\":857:937  require(block.timestamp < campaigns[_campaignId].deadline, \"Campaign has ended\") */\n      tag_62\n      jumpi\n      mload(0x40)\n      0x08c379a000000000000000000000000000000000000000000000000000000000\n      dup2\n      mstore\n      0x04\n      add\n      tag_63\n      swap1\n      tag_64\n      jump\t// in\n    tag_63:\n      mload(0x40)\n      dup1\n      swap2\n      sub\n      swap1\n      revert\n    tag_62:\n        /* \"contracts/_crowdfunding.sol\":957:966  campaigns */\n      0x01\n        /* \"contracts/_crowdfunding.sol\":957:979  campaigns[_campaignId] */\n      0x00\n        /* \"contracts/_crowdfunding.sol\":967:978  _campaignId */\n      dup3\n        /* \"contracts/_crowdfunding.sol\":957:979  campaigns[_campaignId] */\n      dup2\n      mstore\n      0x20\n      add\n      swap1\n      dup2\n      mstore\n      0x20\n      add\n      0x00\n      keccak256\n        /* \"contracts/_crowdfunding.sol\":957:989  campaigns[_campaignId].completed */\n      0x04\n      add\n      0x00\n      swap1\n      sload\n      swap1\n      0x0100\n      exp\n      swap1\n      div\n      0xff\n      and\n        /* \"contracts/_crowdfunding.sol\":956:989  !campaigns[_campaignId].completed */\n      iszero\n        /* \"contracts/_crowdfunding.sol\":948:1020  require(!campaigns[_campaignId].completed, \"Campaign already completed\") */\n      tag_65\n      jumpi\n      mload(0x40)\n      0x08c379a000000000000000000000000000000000000000000000000000000000\n      dup2\n      mstore\n      0x04\n      add\n      tag_66\n      swap1\n      tag_67\n      jump\t// in\n    tag_66:\n      mload(0x40)\n      dup1\n      swap2\n      sub\n      swap1\n      revert\n    tag_65:\n        /* \"contracts/_crowdfunding.sol\":1715:1740  Campaign storage campaign */\n      0x00\n        /* \"contracts/_crowdfunding.sol\":1743:1752  campaigns */\n      0x01\n        /* \"contracts/_crowdfunding.sol\":1743:1765  campaigns[_campaignId] */\n      0x00\n        /* \"contracts/_crowdfunding.sol\":1753:1764  _campaignId */\n      dup5\n        /* \"contracts/_crowdfunding.sol\":1743:1765  campaigns[_campaignId] */\n      dup2\n      mstore\n      0x20\n      add\n      swap1\n      dup2\n      mstore\n      0x20\n      add\n      0x00\n      keccak256\n        /* \"contracts/_crowdfunding.sol\":1715:1765  Campaign storage campaign = campaigns[_campaignId] */\n      swap1\n      pop\n        /* \"contracts/_crowdfunding.sol\":1800:1809  msg.value */\n      callvalue\n        /* \"contracts/_crowdfunding.sol\":1776:1784  campaign */\n      dup2\n        /* \"contracts/_crowdfunding.sol\":1776:1796  campaign.fundsRaised */\n      0x03\n      add\n      0x00\n        /* \"contracts/_crowdfunding.sol\":1776:1809  campaign.fundsRaised += msg.value */\n      dup3\n      dup3\n      sload\n      tag_69\n      swap2\n      swap1\n      tag_58\n      jump\t// in\n    tag_69:\n      swap3\n      pop\n      pop\n      dup2\n      swap1\n      sstore\n      pop\n        /* \"contracts/_crowdfunding.sol\":1858:1867  msg.value */\n      callvalue\n        /* \"contracts/_crowdfunding.sol\":1820:1828  campaign */\n      dup2\n        /* \"contracts/_crowdfunding.sol\":1820:1842  campaign.contributions */\n      0x05\n      add\n        /* \"contracts/_crowdfunding.sol\":1820:1854  campaign.contributions[msg.sender] */\n      0x00\n        /* \"contracts/_crowdfunding.sol\":1843:1853  msg.sender */\n      caller\n        /* \"contracts/_crowdfunding.sol\":1820:1854  campaign.contributions[msg.sender] */\n      0xffffffffffffffffffffffffffffffffffffffff\n      and\n      0xffffffffffffffffffffffffffffffffffffffff\n      and\n      dup2\n      mstore\n      0x20\n      add\n      swap1\n      dup2\n      mstore\n      0x20\n      add\n      0x00\n      keccak256\n      0x00\n        /* \"contracts/_crowdfunding.sol\":1820:1867  campaign.contributions[msg.sender] += msg.value */\n      dup3\n      dup3\n      sload\n      tag_70\n      swap2\n      swap1\n      tag_58\n      jump\t// in\n    tag_70:\n      swap3\n      pop\n      pop\n      dup2\n      swap1\n      sstore\n      pop\n        /* \"contracts/_crowdfunding.sol\":1885:1937  ContributionMade(_campaignId, msg.sender, msg.value) */\n      0x0a4a91237423e0a1766a761c7cb029311d8b95d6b1b81db1b949a70c98b4e08e\n        /* \"contracts/_crowdfunding.sol\":1902:1913  _campaignId */\n      dup4\n        /* \"contracts/_crowdfunding.sol\":1915:1925  msg.sender */\n      caller\n        /* \"contracts/_crowdfunding.sol\":1927:1936  msg.value */\n      callvalue\n        /* \"contracts/_crowdfunding.sol\":1885:1937  ContributionMade(_campaignId, msg.sender, msg.value) */\n      mload(0x40)\n      tag_71\n      swap4\n      swap3\n      swap2\n      swap1\n      tag_53\n      jump\t// in\n    tag_71:\n      mload(0x40)\n      dup1\n      swap2\n      sub\n      swap1\n      log1\n        /* \"contracts/_crowdfunding.sol\":1704:1945  {... */\n      pop\n        /* \"contracts/_crowdfunding.sol\":1621:1945  function contribute(uint _campaignId) external payable campaignActive(_campaignId) {... */\n      pop\n      pop\n      jump\t// out\n        /* \"contracts/_crowdfunding.sol\":2451:2621  function getContribution(uint _campaignId, address _contributor) external view returns (uint) {... */\n    tag_36:\n        /* \"contracts/_crowdfunding.sol\":2539:2543  uint */\n      0x00\n        /* \"contracts/_crowdfunding.sol\":2563:2572  campaigns */\n      0x01\n        /* \"contracts/_crowdfunding.sol\":2563:2585  campaigns[_campaignId] */\n      0x00\n        /* \"contracts/_crowdfunding.sol\":2573:2584  _campaignId */\n      dup5\n        /* \"contracts/_crowdfunding.sol\":2563:2585  campaigns[_campaignId] */\n      dup2\n      mstore\n      0x20\n      add\n      swap1\n      dup2\n      mstore\n      0x20\n      add\n      0x00\n      keccak256\n        /* \"contracts/_crowdfunding.sol\":2563:2599  campaigns[_campaignId].contributions */\n      0x05\n      add\n        /* \"contracts/_crowdfunding.sol\":2563:2613  campaigns[_campaignId].contributions[_contributor] */\n      0x00\n        /* \"contracts/_crowdfunding.sol\":2600:2612  _contributor */\n      dup4\n        /* \"contracts/_crowdfunding.sol\":2563:2613  campaigns[_campaignId].contributions[_contributor] */\n      0xffffffffffffffffffffffffffffffffffffffff\n      and\n      0xffffffffffffffffffffffffffffffffffffffff\n      and\n      dup2\n      mstore\n      0x20\n      add\n      swap1\n      dup2\n      mstore\n      0x20\n      add\n      0x00\n      keccak256\n      sload\n        /* \"contracts/_crowdfunding.sol\":2556:2613  return campaigns[_campaignId].contributions[_contributor] */\n      swap1\n      pop\n        /* \"contracts/_crowdfunding.sol\":2451:2621  function getContribution(uint _campaignId, address _contributor) external view returns (uint) {... */\n      swap3\n      swap2\n      pop\n      pop\n      jump\t// out\n        /* \"#utility.yul\":88:205   */\n    tag_74:\n        /* \"#utility.yul\":197:198   */\n      0x00\n        /* \"#utility.yul\":194:195   */\n      dup1\n        /* \"#utility.yul\":187:199   */\n      revert\n        /* \"#utility.yul\":334:411   */\n    tag_76:\n        /* \"#utility.yul\":371:378   */\n      0x00\n        /* \"#utility.yul\":400:405   */\n      dup2\n        /* \"#utility.yul\":389:405   */\n      swap1\n      pop\n        /* \"#utility.yul\":334:411   */\n      swap2\n      swap1\n      pop\n      jump\t// out\n        /* \"#utility.yul\":417:539   */\n    tag_77:\n        /* \"#utility.yul\":490:514   */\n      tag_107\n        /* \"#utility.yul\":508:513   */\n      dup2\n        /* \"#utility.yul\":490:514   */\n      tag_76\n      jump\t// in\n    tag_107:\n        /* \"#utility.yul\":483:488   */\n      dup2\n        /* \"#utility.yul\":480:515   */\n      eq\n        /* \"#utility.yul\":470:533   */\n      tag_108\n      jumpi\n        /* \"#utility.yul\":529:530   */\n      0x00\n        /* \"#utility.yul\":526:527   */\n      dup1\n        /* \"#utility.yul\":519:531   */\n      revert\n        /* \"#utility.yul\":470:533   */\n    tag_108:\n        /* \"#utility.yul\":417:539   */\n      pop\n      jump\t// out\n        /* \"#utility.yul\":545:684   */\n    tag_78:\n        /* \"#utility.yul\":591:596   */\n      0x00\n        /* \"#utility.yul\":629:635   */\n      dup2\n        /* \"#utility.yul\":616:636   */\n      calldataload\n        /* \"#utility.yul\":607:636   */\n      swap1\n      pop\n        /* \"#utility.yul\":645:678   */\n      tag_110\n        /* \"#utility.yul\":672:677   */\n      dup2\n        /* \"#utility.yul\":645:678   */\n      tag_77\n      jump\t// in\n    tag_110:\n        /* \"#utility.yul\":545:684   */\n      swap3\n      swap2\n      pop\n      pop\n      jump\t// out\n        /* \"#utility.yul\":690:1019   */\n    tag_11:\n        /* \"#utility.yul\":749:755   */\n      0x00\n        /* \"#utility.yul\":798:800   */\n      0x20\n        /* \"#utility.yul\":786:795   */\n      dup3\n        /* \"#utility.yul\":777:784   */\n      dup5\n        /* \"#utility.yul\":773:796   */\n      sub\n        /* \"#utility.yul\":769:801   */\n      slt\n        /* \"#utility.yul\":766:885   */\n      iszero\n      tag_112\n      jumpi\n        /* \"#utility.yul\":804:883   */\n      tag_113\n      tag_74\n      jump\t// in\n    tag_113:\n        /* \"#utility.yul\":766:885   */\n    tag_112:\n        /* \"#utility.yul\":924:925   */\n      0x00\n        /* \"#utility.yul\":949:1002   */\n      tag_114\n        /* \"#utility.yul\":994:1001   */\n      dup5\n        /* \"#utility.yul\":985:991   */\n      dup3\n        /* \"#utility.yul\":974:983   */\n      dup6\n        /* \"#utility.yul\":970:992   */\n      add\n        /* \"#utility.yul\":949:1002   */\n      tag_78\n      jump\t// in\n    tag_114:\n        /* \"#utility.yul\":939:1002   */\n      swap2\n      pop\n        /* \"#utility.yul\":895:1012   */\n      pop\n        /* \"#utility.yul\":690:1019   */\n      swap3\n      swap2\n      pop\n      pop\n      jump\t// out\n        /* \"#utility.yul\":1025:1151   */\n    tag_79:\n        /* \"#utility.yul\":1062:1069   */\n      0x00\n        /* \"#utility.yul\":1102:1144   */\n      0xffffffffffffffffffffffffffffffffffffffff\n        /* \"#utility.yul\":1095:1100   */\n      dup3\n        /* \"#utility.yul\":1091:1145   */\n      and\n        /* \"#utility.yul\":1080:1145   */\n      swap1\n      pop\n        /* \"#utility.yul\":1025:1151   */\n      swap2\n      swap1\n      pop\n      jump\t// out\n        /* \"#utility.yul\":1157:1261   */\n    tag_80:\n        /* \"#utility.yul\":1202:1209   */\n      0x00\n        /* \"#utility.yul\":1231:1255   */\n      tag_117\n        /* \"#utility.yul\":1249:1254   */\n      dup3\n        /* \"#utility.yul\":1231:1255   */\n      tag_79\n      jump\t// in\n    tag_117:\n        /* \"#utility.yul\":1220:1255   */\n      swap1\n      pop\n        /* \"#utility.yul\":1157:1261   */\n      swap2\n      swap1\n      pop\n      jump\t// out\n        /* \"#utility.yul\":1267:1409   */\n    tag_81:\n        /* \"#utility.yul\":1370:1402   */\n      tag_119\n        /* \"#utility.yul\":1396:1401   */\n      dup2\n        /* \"#utility.yul\":1370:1402   */\n      tag_80\n      jump\t// in\n    tag_119:\n        /* \"#utility.yul\":1365:1368   */\n      dup3\n        /* \"#utility.yul\":1358:1403   */\n      mstore\n        /* \"#utility.yul\":1267:1409   */\n      pop\n      pop\n      jump\t// out\n        /* \"#utility.yul\":1415:1533   */\n    tag_82:\n        /* \"#utility.yul\":1502:1526   */\n      tag_121\n        /* \"#utility.yul\":1520:1525   */\n      dup2\n        /* \"#utility.yul\":1502:1526   */\n      tag_76\n      jump\t// in\n    tag_121:\n        /* \"#utility.yul\":1497:1500   */\n      dup3\n        /* \"#utility.yul\":1490:1527   */\n      mstore\n        /* \"#utility.yul\":1415:1533   */\n      pop\n      pop\n      jump\t// out\n        /* \"#utility.yul\":1539:1629   */\n    tag_83:\n        /* \"#utility.yul\":1573:1580   */\n      0x00\n        /* \"#utility.yul\":1616:1621   */\n      dup2\n        /* \"#utility.yul\":1609:1622   */\n      iszero\n        /* \"#utility.yul\":1602:1623   */\n      iszero\n        /* \"#utility.yul\":1591:1623   */\n      swap1\n      pop\n        /* \"#utility.yul\":1539:1629   */\n      swap2\n      swap1\n      pop\n      jump\t// out\n        /* \"#utility.yul\":1635:1744   */\n    tag_84:\n        /* \"#utility.yul\":1716:1737   */\n      tag_124\n        /* \"#utility.yul\":1731:1736   */\n      dup2\n        /* \"#utility.yul\":1716:1737   */\n      tag_83\n      jump\t// in\n    tag_124:\n        /* \"#utility.yul\":1711:1714   */\n      dup3\n        /* \"#utility.yul\":1704:1738   */\n      mstore\n        /* \"#utility.yul\":1635:1744   */\n      pop\n      pop\n      jump\t// out\n        /* \"#utility.yul\":1750:2434   */\n    tag_14:\n        /* \"#utility.yul\":1965:1969   */\n      0x00\n        /* \"#utility.yul\":2003:2006   */\n      0xa0\n        /* \"#utility.yul\":1992:2001   */\n      dup3\n        /* \"#utility.yul\":1988:2007   */\n      add\n        /* \"#utility.yul\":1980:2007   */\n      swap1\n      pop\n        /* \"#utility.yul\":2017:2104   */\n      tag_126\n        /* \"#utility.yul\":2101:2102   */\n      0x00\n        /* \"#utility.yul\":2090:2099   */\n      dup4\n        /* \"#utility.yul\":2086:2103   */\n      add\n        /* \"#utility.yul\":2077:2083   */\n      dup9\n        /* \"#utility.yul\":2017:2104   */\n      tag_81\n      jump\t// in\n    tag_126:\n        /* \"#utility.yul\":2114:2186   */\n      tag_127\n        /* \"#utility.yul\":2182:2184   */\n      0x20\n        /* \"#utility.yul\":2171:2180   */\n      dup4\n        /* \"#utility.yul\":2167:2185   */\n      add\n        /* \"#utility.yul\":2158:2164   */\n      dup8\n        /* \"#utility.yul\":2114:2186   */\n      tag_82\n      jump\t// in\n    tag_127:\n        /* \"#utility.yul\":2196:2268   */\n      tag_128\n        /* \"#utility.yul\":2264:2266   */\n      0x40\n        /* \"#utility.yul\":2253:2262   */\n      dup4\n        /* \"#utility.yul\":2249:2267   */\n      add\n        /* \"#utility.yul\":2240:2246   */\n      dup7\n        /* \"#utility.yul\":2196:2268   */\n      tag_82\n      jump\t// in\n    tag_128:\n        /* \"#utility.yul\":2278:2350   */\n      tag_129\n        /* \"#utility.yul\":2346:2348   */\n      0x60\n        /* \"#utility.yul\":2335:2344   */\n      dup4\n        /* \"#utility.yul\":2331:2349   */\n      add\n        /* \"#utility.yul\":2322:2328   */\n      dup6\n        /* \"#utility.yul\":2278:2350   */\n      tag_82\n      jump\t// in\n    tag_129:\n        /* \"#utility.yul\":2360:2427   */\n      tag_130\n        /* \"#utility.yul\":2422:2425   */\n      0x80\n        /* \"#utility.yul\":2411:2420   */\n      dup4\n        /* \"#utility.yul\":2407:2426   */\n      add\n        /* \"#utility.yul\":2398:2404   */\n      dup5\n        /* \"#utility.yul\":2360:2427   */\n      tag_84\n      jump\t// in\n    tag_130:\n        /* \"#utility.yul\":1750:2434   */\n      swap7\n      swap6\n      pop\n      pop\n      pop\n      pop\n      pop\n      pop\n      jump\t// out\n        /* \"#utility.yul\":2440:2914   */\n    tag_22:\n        /* \"#utility.yul\":2508:2514   */\n      0x00\n        /* \"#utility.yul\":2516:2522   */\n      dup1\n        /* \"#utility.yul\":2565:2567   */\n      0x40\n        /* \"#utility.yul\":2553:2562   */\n      dup4\n        /* \"#utility.yul\":2544:2551   */\n      dup6\n        /* \"#utility.yul\":2540:2563   */\n      sub\n        /* \"#utility.yul\":2536:2568   */\n      slt\n        /* \"#utility.yul\":2533:2652   */\n      iszero\n      tag_132\n      jumpi\n        /* \"#utility.yul\":2571:2650   */\n      tag_133\n      tag_74\n      jump\t// in\n    tag_133:\n        /* \"#utility.yul\":2533:2652   */\n    tag_132:\n        /* \"#utility.yul\":2691:2692   */\n      0x00\n        /* \"#utility.yul\":2716:2769   */\n      tag_134\n        /* \"#utility.yul\":2761:2768   */\n      dup6\n        /* \"#utility.yul\":2752:2758   */\n      dup3\n        /* \"#utility.yul\":2741:2750   */\n      dup7\n        /* \"#utility.yul\":2737:2759   */\n      add\n        /* \"#utility.yul\":2716:2769   */\n      tag_78\n      jump\t// in\n    tag_134:\n        /* \"#utility.yul\":2706:2769   */\n      swap3\n      pop\n        /* \"#utility.yul\":2662:2779   */\n      pop\n        /* \"#utility.yul\":2818:2820   */\n      0x20\n        /* \"#utility.yul\":2844:2897   */\n      tag_135\n        /* \"#utility.yul\":2889:2896   */\n      dup6\n        /* \"#utility.yul\":2880:2886   */\n      dup3\n        /* \"#utility.yul\":2869:2878   */\n      dup7\n        /* \"#utility.yul\":2865:2887   */\n      add\n        /* \"#utility.yul\":2844:2897   */\n      tag_78\n      jump\t// in\n    tag_135:\n        /* \"#utility.yul\":2834:2897   */\n      swap2\n      pop\n        /* \"#utility.yul\":2789:2907   */\n      pop\n        /* \"#utility.yul\":2440:2914   */\n      swap3\n      pop\n      swap3\n      swap1\n      pop\n      jump\t// out\n        /* \"#utility.yul\":2920:3142   */\n    tag_28:\n        /* \"#utility.yul\":3013:3017   */\n      0x00\n        /* \"#utility.yul\":3051:3053   */\n      0x20\n        /* \"#utility.yul\":3040:3049   */\n      dup3\n        /* \"#utility.yul\":3036:3054   */\n      add\n        /* \"#utility.yul\":3028:3054   */\n      swap1\n      pop\n        /* \"#utility.yul\":3064:3135   */\n      tag_137\n        /* \"#utility.yul\":3132:3133   */\n      0x00\n        /* \"#utility.yul\":3121:3130   */\n      dup4\n        /* \"#utility.yul\":3117:3134   */\n      add\n        /* \"#utility.yul\":3108:3114   */\n      dup5\n        /* \"#utility.yul\":3064:3135   */\n      tag_82\n      jump\t// in\n    tag_137:\n        /* \"#utility.yul\":2920:3142   */\n      swap3\n      swap2\n      pop\n      pop\n      jump\t// out\n        /* \"#utility.yul\":3148:3244   */\n    tag_85:\n        /* \"#utility.yul\":3185:3192   */\n      0x00\n        /* \"#utility.yul\":3214:3238   */\n      tag_139\n        /* \"#utility.yul\":3232:3237   */\n      dup3\n        /* \"#utility.yul\":3214:3238   */\n      tag_79\n      jump\t// in\n    tag_139:\n        /* \"#utility.yul\":3203:3238   */\n      swap1\n      pop\n        /* \"#utility.yul\":3148:3244   */\n      swap2\n      swap1\n      pop\n      jump\t// out\n        /* \"#utility.yul\":3250:3372   */\n    tag_86:\n        /* \"#utility.yul\":3323:3347   */\n      tag_141\n        /* \"#utility.yul\":3341:3346   */\n      dup2\n        /* \"#utility.yul\":3323:3347   */\n      tag_85\n      jump\t// in\n    tag_141:\n        /* \"#utility.yul\":3316:3321   */\n      dup2\n        /* \"#utility.yul\":3313:3348   */\n      eq\n        /* \"#utility.yul\":3303:3366   */\n      tag_142\n      jumpi\n        /* \"#utility.yul\":3362:3363   */\n      0x00\n        /* \"#utility.yul\":3359:3360   */\n      dup1\n        /* \"#utility.yul\":3352:3364   */\n      revert\n        /* \"#utility.yul\":3303:3366   */\n    tag_142:\n        /* \"#utility.yul\":3250:3372   */\n      pop\n      jump\t// out\n        /* \"#utility.yul\":3378:3517   */\n    tag_87:\n        /* \"#utility.yul\":3424:3429   */\n      0x00\n        /* \"#utility.yul\":3462:3468   */\n      dup2\n        /* \"#utility.yul\":3449:3469   */\n      calldataload\n        /* \"#utility.yul\":3440:3469   */\n      swap1\n      pop\n        /* \"#utility.yul\":3478:3511   */\n      tag_144\n        /* \"#utility.yul\":3505:3510   */\n      dup2\n        /* \"#utility.yul\":3478:3511   */\n      tag_86\n      jump\t// in\n    tag_144:\n        /* \"#utility.yul\":3378:3517   */\n      swap3\n      swap2\n      pop\n      pop\n      jump\t// out\n        /* \"#utility.yul\":3523:3997   */\n    tag_35:\n        /* \"#utility.yul\":3591:3597   */\n      0x00\n        /* \"#utility.yul\":3599:3605   */\n      dup1\n        /* \"#utility.yul\":3648:3650   */\n      0x40\n        /* \"#utility.yul\":3636:3645   */\n      dup4\n        /* \"#utility.yul\":3627:3634   */\n      dup6\n        /* \"#utility.yul\":3623:3646   */\n      sub\n        /* \"#utility.yul\":3619:3651   */\n      slt\n        /* \"#utility.yul\":3616:3735   */\n      iszero\n      tag_146\n      jumpi\n        /* \"#utility.yul\":3654:3733   */\n      tag_147\n      tag_74\n      jump\t// in\n    tag_147:\n        /* \"#utility.yul\":3616:3735   */\n    tag_146:\n        /* \"#utility.yul\":3774:3775   */\n      0x00\n        /* \"#utility.yul\":3799:3852   */\n      tag_148\n        /* \"#utility.yul\":3844:3851   */\n      dup6\n        /* \"#utility.yul\":3835:3841   */\n      dup3\n        /* \"#utility.yul\":3824:3833   */\n      dup7\n        /* \"#utility.yul\":3820:3842   */\n      add\n        /* \"#utility.yul\":3799:3852   */\n      tag_78\n      jump\t// in\n    tag_148:\n        /* \"#utility.yul\":3789:3852   */\n      swap3\n      pop\n        /* \"#utility.yul\":3745:3862   */\n      pop\n        /* \"#utility.yul\":3901:3903   */\n      0x20\n        /* \"#utility.yul\":3927:3980   */\n      tag_149\n        /* \"#utility.yul\":3972:3979   */\n      dup6\n        /* \"#utility.yul\":3963:3969   */\n      dup3\n        /* \"#utility.yul\":3952:3961   */\n      dup7\n        /* \"#utility.yul\":3948:3970   */\n      add\n        /* \"#utility.yul\":3927:3980   */\n      tag_87\n      jump\t// in\n    tag_149:\n        /* \"#utility.yul\":3917:3980   */\n      swap2\n      pop\n        /* \"#utility.yul\":3872:3990   */\n      pop\n        /* \"#utility.yul\":3523:3997   */\n      swap3\n      pop\n      swap3\n      swap1\n      pop\n      jump\t// out\n        /* \"#utility.yul\":4003:4172   */\n    tag_88:\n        /* \"#utility.yul\":4087:4098   */\n      0x00\n        /* \"#utility.yul\":4121:4127   */\n      dup3\n        /* \"#utility.yul\":4116:4119   */\n      dup3\n        /* \"#utility.yul\":4109:4128   */\n      mstore\n        /* \"#utility.yul\":4161:4165   */\n      0x20\n        /* \"#utility.yul\":4156:4159   */\n      dup3\n        /* \"#utility.yul\":4152:4166   */\n      add\n        /* \"#utility.yul\":4137:4166   */\n      swap1\n      pop\n        /* \"#utility.yul\":4003:4172   */\n      swap3\n      swap2\n      pop\n      pop\n      jump\t// out\n        /* \"#utility.yul\":4178:4407   */\n    tag_89:\n        /* \"#utility.yul\":4318:4352   */\n      0x4f6e6c79207468652063726561746f722063616e206578656375746520746869\n        /* \"#utility.yul\":4314:4315   */\n      0x00\n        /* \"#utility.yul\":4306:4312   */\n      dup3\n        /* \"#utility.yul\":4302:4316   */\n      add\n        /* \"#utility.yul\":4295:4353   */\n      mstore\n        /* \"#utility.yul\":4387:4399   */\n      0x732066756e6374696f6e00000000000000000000000000000000000000000000\n        /* \"#utility.yul\":4382:4384   */\n      0x20\n        /* \"#utility.yul\":4374:4380   */\n      dup3\n        /* \"#utility.yul\":4370:4385   */\n      add\n        /* \"#utility.yul\":4363:4400   */\n      mstore\n        /* \"#utility.yul\":4178:4407   */\n      pop\n      jump\t// out\n        /* \"#utility.yul\":4413:4779   */\n    tag_90:\n        /* \"#utility.yul\":4555:4558   */\n      0x00\n        /* \"#utility.yul\":4576:4643   */\n      tag_153\n        /* \"#utility.yul\":4640:4642   */\n      0x2a\n        /* \"#utility.yul\":4635:4638   */\n      dup4\n        /* \"#utility.yul\":4576:4643   */\n      tag_88\n      jump\t// in\n    tag_153:\n        /* \"#utility.yul\":4569:4643   */\n      swap2\n      pop\n        /* \"#utility.yul\":4652:4745   */\n      tag_154\n        /* \"#utility.yul\":4741:4744   */\n      dup3\n        /* \"#utility.yul\":4652:4745   */\n      tag_89\n      jump\t// in\n    tag_154:\n        /* \"#utility.yul\":4770:4772   */\n      0x40\n        /* \"#utility.yul\":4765:4768   */\n      dup3\n        /* \"#utility.yul\":4761:4773   */\n      add\n        /* \"#utility.yul\":4754:4773   */\n      swap1\n      pop\n        /* \"#utility.yul\":4413:4779   */\n      swap2\n      swap1\n      pop\n      jump\t// out\n        /* \"#utility.yul\":4785:5204   */\n    tag_41:\n        /* \"#utility.yul\":4951:4955   */\n      0x00\n        /* \"#utility.yul\":4989:4991   */\n      0x20\n        /* \"#utility.yul\":4978:4987   */\n      dup3\n        /* \"#utility.yul\":4974:4992   */\n      add\n        /* \"#utility.yul\":4966:4992   */\n      swap1\n      pop\n        /* \"#utility.yul\":5038:5047   */\n      dup2\n        /* \"#utility.yul\":5032:5036   */\n      dup2\n        /* \"#utility.yul\":5028:5048   */\n      sub\n        /* \"#utility.yul\":5024:5025   */\n      0x00\n        /* \"#utility.yul\":5013:5022   */\n      dup4\n        /* \"#utility.yul\":5009:5026   */\n      add\n        /* \"#utility.yul\":5002:5049   */\n      mstore\n        /* \"#utility.yul\":5066:5197   */\n      tag_156\n        /* \"#utility.yul\":5192:5196   */\n      dup2\n        /* \"#utility.yul\":5066:5197   */\n      tag_90\n      jump\t// in\n    tag_156:\n        /* \"#utility.yul\":5058:5197   */\n      swap1\n      pop\n        /* \"#utility.yul\":4785:5204   */\n      swap2\n      swap1\n      pop\n      jump\t// out\n        /* \"#utility.yul\":5210:5384   */\n    tag_91:\n        /* \"#utility.yul\":5350:5376   */\n      0x43616d706169676e206973207374696c6c206163746976650000000000000000\n        /* \"#utility.yul\":5346:5347   */\n      0x00\n        /* \"#utility.yul\":5338:5344   */\n      dup3\n        /* \"#utility.yul\":5334:5348   */\n      add\n        /* \"#utility.yul\":5327:5377   */\n      mstore\n        /* \"#utility.yul\":5210:5384   */\n      pop\n      jump\t// out\n        /* \"#utility.yul\":5390:5756   */\n    tag_92:\n        /* \"#utility.yul\":5532:5535   */\n      0x00\n        /* \"#utility.yul\":5553:5620   */\n      tag_159\n        /* \"#utility.yul\":5617:5619   */\n      0x18\n        /* \"#utility.yul\":5612:5615   */\n      dup4\n        /* \"#utility.yul\":5553:5620   */\n      tag_88\n      jump\t// in\n    tag_159:\n        /* \"#utility.yul\":5546:5620   */\n      swap2\n      pop\n        /* \"#utility.yul\":5629:5722   */\n      tag_160\n        /* \"#utility.yul\":5718:5721   */\n      dup3\n        /* \"#utility.yul\":5629:5722   */\n      tag_91\n      jump\t// in\n    tag_160:\n        /* \"#utility.yul\":5747:5749   */\n      0x20\n        /* \"#utility.yul\":5742:5745   */\n      dup3\n        /* \"#utility.yul\":5738:5750   */\n      add\n        /* \"#utility.yul\":5731:5750   */\n      swap1\n      pop\n        /* \"#utility.yul\":5390:5756   */\n      swap2\n      swap1\n      pop\n      jump\t// out\n        /* \"#utility.yul\":5762:6181   */\n    tag_45:\n        /* \"#utility.yul\":5928:5932   */\n      0x00\n        /* \"#utility.yul\":5966:5968   */\n      0x20\n        /* \"#utility.yul\":5955:5964   */\n      dup3\n        /* \"#utility.yul\":5951:5969   */\n      add\n        /* \"#utility.yul\":5943:5969   */\n      swap1\n      pop\n        /* \"#utility.yul\":6015:6024   */\n      dup2\n        /* \"#utility.yul\":6009:6013   */\n      dup2\n        /* \"#utility.yul\":6005:6025   */\n      sub\n        /* \"#utility.yul\":6001:6002   */\n      0x00\n        /* \"#utility.yul\":5990:5999   */\n      dup4\n        /* \"#utility.yul\":5986:6003   */\n      add\n        /* \"#utility.yul\":5979:6026   */\n      mstore\n        /* \"#utility.yul\":6043:6174   */\n      tag_162\n        /* \"#utility.yul\":6169:6173   */\n      dup2\n        /* \"#utility.yul\":6043:6174   */\n      tag_92\n      jump\t// in\n    tag_162:\n        /* \"#utility.yul\":6035:6174   */\n      swap1\n      pop\n        /* \"#utility.yul\":5762:6181   */\n      swap2\n      swap1\n      pop\n      jump\t// out\n        /* \"#utility.yul\":6187:6368   */\n    tag_93:\n        /* \"#utility.yul\":6327:6360   */\n      0x43616d706169676e20646964206e6f742072656163682069747320676f616c00\n        /* \"#utility.yul\":6323:6324   */\n      0x00\n        /* \"#utility.yul\":6315:6321   */\n      dup3\n        /* \"#utility.yul\":6311:6325   */\n      add\n        /* \"#utility.yul\":6304:6361   */\n      mstore\n        /* \"#utility.yul\":6187:6368   */\n      pop\n      jump\t// out\n        /* \"#utility.yul\":6374:6740   */\n    tag_94:\n        /* \"#utility.yul\":6516:6519   */\n      0x00\n        /* \"#utility.yul\":6537:6604   */\n      tag_165\n        /* \"#utility.yul\":6601:6603   */\n      0x1f\n        /* \"#utility.yul\":6596:6599   */\n      dup4\n        /* \"#utility.yul\":6537:6604   */\n      tag_88\n      jump\t// in\n    tag_165:\n        /* \"#utility.yul\":6530:6604   */\n      swap2\n      pop\n        /* \"#utility.yul\":6613:6706   */\n      tag_166\n        /* \"#utility.yul\":6702:6705   */\n      dup3\n        /* \"#utility.yul\":6613:6706   */\n      tag_93\n      jump\t// in\n    tag_166:\n        /* \"#utility.yul\":6731:6733   */\n      0x20\n        /* \"#utility.yul\":6726:6729   */\n      dup3\n        /* \"#utility.yul\":6722:6734   */\n      add\n        /* \"#utility.yul\":6715:6734   */\n      swap1\n      pop\n        /* \"#utility.yul\":6374:6740   */\n      swap2\n      swap1\n      pop\n      jump\t// out\n        /* \"#utility.yul\":6746:7165   */\n    tag_49:\n        /* \"#utility.yul\":6912:6916   */\n      0x00\n        /* \"#utility.yul\":6950:6952   */\n      0x20\n        /* \"#utility.yul\":6939:6948   */\n      dup3\n        /* \"#utility.yul\":6935:6953   */\n      add\n        /* \"#utility.yul\":6927:6953   */\n      swap1\n      pop\n        /* \"#utility.yul\":6999:7008   */\n      dup2\n        /* \"#utility.yul\":6993:6997   */\n      dup2\n        /* \"#utility.yul\":6989:7009   */\n      sub\n        /* \"#utility.yul\":6985:6986   */\n      0x00\n        /* \"#utility.yul\":6974:6983   */\n      dup4\n        /* \"#utility.yul\":6970:6987   */\n      add\n        /* \"#utility.yul\":6963:7010   */\n      mstore\n        /* \"#utility.yul\":7027:7158   */\n      tag_168\n        /* \"#utility.yul\":7153:7157   */\n      dup2\n        /* \"#utility.yul\":7027:7158   */\n      tag_94\n      jump\t// in\n    tag_168:\n        /* \"#utility.yul\":7019:7158   */\n      swap1\n      pop\n        /* \"#utility.yul\":6746:7165   */\n      swap2\n      swap1\n      pop\n      jump\t// out\n        /* \"#utility.yul\":7171:7289   */\n    tag_95:\n        /* \"#utility.yul\":7258:7282   */\n      tag_170\n        /* \"#utility.yul\":7276:7281   */\n      dup2\n        /* \"#utility.yul\":7258:7282   */\n      tag_85\n      jump\t// in\n    tag_170:\n        /* \"#utility.yul\":7253:7256   */\n      dup3\n        /* \"#utility.yul\":7246:7283   */\n      mstore\n        /* \"#utility.yul\":7171:7289   */\n      pop\n      pop\n      jump\t// out\n        /* \"#utility.yul\":7295:7737   */\n    tag_53:\n        /* \"#utility.yul\":7444:7448   */\n      0x00\n        /* \"#utility.yul\":7482:7484   */\n      0x60\n        /* \"#utility.yul\":7471:7480   */\n      dup3\n        /* \"#utility.yul\":7467:7485   */\n      add\n        /* \"#utility.yul\":7459:7485   */\n      swap1\n      pop\n        /* \"#utility.yul\":7495:7566   */\n      tag_172\n        /* \"#utility.yul\":7563:7564   */\n      0x00\n        /* \"#utility.yul\":7552:7561   */\n      dup4\n        /* \"#utility.yul\":7548:7565   */\n      add\n        /* \"#utility.yul\":7539:7545   */\n      dup7\n        /* \"#utility.yul\":7495:7566   */\n      tag_82\n      jump\t// in\n    tag_172:\n        /* \"#utility.yul\":7576:7648   */\n      tag_173\n        /* \"#utility.yul\":7644:7646   */\n      0x20\n        /* \"#utility.yul\":7633:7642   */\n      dup4\n        /* \"#utility.yul\":7629:7647   */\n      add\n        /* \"#utility.yul\":7620:7626   */\n      dup6\n        /* \"#utility.yul\":7576:7648   */\n      tag_95\n      jump\t// in\n    tag_173:\n        /* \"#utility.yul\":7658:7730   */\n      tag_174\n        /* \"#utility.yul\":7726:7728   */\n      0x40\n        /* \"#utility.yul\":7715:7724   */\n      dup4\n        /* \"#utility.yul\":7711:7729   */\n      add\n        /* \"#utility.yul\":7702:7708   */\n      dup5\n        /* \"#utility.yul\":7658:7730   */\n      tag_82\n      jump\t// in\n    tag_174:\n        /* \"#utility.yul\":7295:7737   */\n      swap5\n      swap4\n      pop\n      pop\n      pop\n      pop\n      jump\t// out\n        /* \"#utility.yul\":7743:7923   */\n    tag_96:\n        /* \"#utility.yul\":7791:7868   */\n      0x4e487b7100000000000000000000000000000000000000000000000000000000\n        /* \"#utility.yul\":7788:7789   */\n      0x00\n        /* \"#utility.yul\":7781:7869   */\n      mstore\n        /* \"#utility.yul\":7888:7892   */\n      0x11\n        /* \"#utility.yul\":7885:7886   */\n      0x04\n        /* \"#utility.yul\":7878:7893   */\n      mstore\n        /* \"#utility.yul\":7912:7916   */\n      0x24\n        /* \"#utility.yul\":7909:7910   */\n      0x00\n        /* \"#utility.yul\":7902:7917   */\n      revert\n        /* \"#utility.yul\":7929:8162   */\n    tag_56:\n        /* \"#utility.yul\":7968:7971   */\n      0x00\n        /* \"#utility.yul\":7991:8015   */\n      tag_177\n        /* \"#utility.yul\":8009:8014   */\n      dup3\n        /* \"#utility.yul\":7991:8015   */\n      tag_76\n      jump\t// in\n    tag_177:\n        /* \"#utility.yul\":7982:8015   */\n      swap2\n      pop\n        /* \"#utility.yul\":8037:8103   */\n      0xffffffffffffffffffffffffffffffffffffffffffffffffffffffffffffffff\n        /* \"#utility.yul\":8030:8035   */\n      dup3\n        /* \"#utility.yul\":8027:8104   */\n      sub\n        /* \"#utility.yul\":8024:8127   */\n      tag_178\n      jumpi\n        /* \"#utility.yul\":8107:8125   */\n      tag_179\n      tag_96\n      jump\t// in\n    tag_179:\n        /* \"#utility.yul\":8024:8127   */\n    tag_178:\n        /* \"#utility.yul\":8154:8155   */\n      0x01\n        /* \"#utility.yul\":8147:8152   */\n      dup3\n        /* \"#utility.yul\":8143:8156   */\n      add\n        /* \"#utility.yul\":8136:8156   */\n      swap1\n      pop\n        /* \"#utility.yul\":7929:8162   */\n      swap2\n      swap1\n      pop\n      jump\t// out\n        /* \"#utility.yul\":8168:8359   */\n    tag_58:\n        /* \"#utility.yul\":8208:8211   */\n      0x00\n        /* \"#utility.yul\":8227:8247   */\n      tag_181\n        /* \"#utility.yul\":8245:8246   */\n      dup3\n        /* \"#utility.yul\":8227:8247   */\n      tag_76\n      jump\t// in\n    tag_181:\n        /* \"#utility.yul\":8222:8247   */\n      swap2\n      pop\n        /* \"#utility.yul\":8261:8281   */\n      tag_182\n        /* \"#utility.yul\":8279:8280   */\n      dup4\n        /* \"#utility.yul\":8261:8281   */\n      tag_76\n      jump\t// in\n    tag_182:\n        /* \"#utility.yul\":8256:8281   */\n      swap3\n      pop\n        /* \"#utility.yul\":8304:8305   */\n      dup3\n        /* \"#utility.yul\":8301:8302   */\n      dup3\n        /* \"#utility.yul\":8297:8306   */\n      add\n        /* \"#utility.yul\":8290:8306   */\n      swap1\n      pop\n        /* \"#utility.yul\":8325:8328   */\n      dup1\n        /* \"#utility.yul\":8322:8323   */\n      dup3\n        /* \"#utility.yul\":8319:8329   */\n      gt\n        /* \"#utility.yul\":8316:8352   */\n      iszero\n      tag_183\n      jumpi\n        /* \"#utility.yul\":8332:8350   */\n      tag_184\n      tag_96\n      jump\t// in\n    tag_184:\n        /* \"#utility.yul\":8316:8352   */\n    tag_183:\n        /* \"#utility.yul\":8168:8359   */\n      swap3\n      swap2\n      pop\n      pop\n      jump\t// out\n        /* \"#utility.yul\":8365:8918   */\n    tag_60:\n        /* \"#utility.yul\":8542:8546   */\n      0x00\n        /* \"#utility.yul\":8580:8583   */\n      0x80\n        /* \"#utility.yul\":8569:8578   */\n      dup3\n        /* \"#utility.yul\":8565:8584   */\n      add\n        /* \"#utility.yul\":8557:8584   */\n      swap1\n      pop\n        /* \"#utility.yul\":8594:8665   */\n      tag_186\n        /* \"#utility.yul\":8662:8663   */\n      0x00\n        /* \"#utility.yul\":8651:8660   */\n      dup4\n        /* \"#utility.yul\":8647:8664   */\n      add\n        /* \"#utility.yul\":8638:8644   */\n      dup8\n        /* \"#utility.yul\":8594:8665   */\n      tag_82\n      jump\t// in\n    tag_186:\n        /* \"#utility.yul\":8675:8747   */\n      tag_187\n        /* \"#utility.yul\":8743:8745   */\n      0x20\n        /* \"#utility.yul\":8732:8741   */\n      dup4\n        /* \"#utility.yul\":8728:8746   */\n      add\n        /* \"#utility.yul\":8719:8725   */\n      dup7\n        /* \"#utility.yul\":8675:8747   */\n      tag_95\n      jump\t// in\n    tag_187:\n        /* \"#utility.yul\":8757:8829   */\n      tag_188\n        /* \"#utility.yul\":8825:8827   */\n      0x40\n        /* \"#utility.yul\":8814:8823   */\n      dup4\n        /* \"#utility.yul\":8810:8828   */\n      add\n        /* \"#utility.yul\":8801:8807   */\n      dup6\n        /* \"#utility.yul\":8757:8829   */\n      tag_82\n      jump\t// in\n    tag_188:\n        /* \"#utility.yul\":8839:8911   */\n      tag_189\n        /* \"#utility.yul\":8907:8909   */\n      0x60\n        /* \"#utility.yul\":8896:8905   */\n      dup4\n        /* \"#utility.yul\":8892:8910   */\n      add\n        /* \"#utility.yul\":8883:8889   */\n      dup5\n        /* \"#utility.yul\":8839:8911   */\n      tag_82\n      jump\t// in\n    tag_189:\n        /* \"#utility.yul\":8365:8918   */\n      swap6\n      swap5\n      pop\n      pop\n      pop\n      pop\n      pop\n      jump\t// out\n        /* \"#utility.yul\":8924:9092   */\n    tag_97:\n        /* \"#utility.yul\":9064:9084   */\n      0x43616d706169676e2068617320656e6465640000000000000000000000000000\n        /* \"#utility.yul\":9060:9061   */\n      0x00\n        /* \"#utility.yul\":9052:9058   */\n      dup3\n        /* \"#utility.yul\":9048:9062   */\n      add\n        /* \"#utility.yul\":9041:9085   */\n      mstore\n        /* \"#utility.yul\":8924:9092   */\n      pop\n      jump\t// out\n        /* \"#utility.yul\":9098:9464   */\n    tag_98:\n        /* \"#utility.yul\":9240:9243   */\n      0x00\n        /* \"#utility.yul\":9261:9328   */\n      tag_192\n        /* \"#utility.yul\":9325:9327   */\n      0x12\n        /* \"#utility.yul\":9320:9323   */\n      dup4\n        /* \"#utility.yul\":9261:9328   */\n      tag_88\n      jump\t// in\n    tag_192:\n        /* \"#utility.yul\":9254:9328   */\n      swap2\n      pop\n        /* \"#utility.yul\":9337:9430   */\n      tag_193\n        /* \"#utility.yul\":9426:9429   */\n      dup3\n        /* \"#utility.yul\":9337:9430   */\n      tag_97\n      jump\t// in\n    tag_193:\n        /* \"#utility.yul\":9455:9457   */\n      0x20\n        /* \"#utility.yul\":9450:9453   */\n      dup3\n        /* \"#utility.yul\":9446:9458   */\n      add\n        /* \"#utility.yul\":9439:9458   */\n      swap1\n      pop\n        /* \"#utility.yul\":9098:9464   */\n      swap2\n      swap1\n      pop\n      jump\t// out\n        /* \"#utility.yul\":9470:9889   */\n    tag_64:\n        /* \"#utility.yul\":9636:9640   */\n      0x00\n        /* \"#utility.yul\":9674:9676   */\n      0x20\n        /* \"#utility.yul\":9663:9672   */\n      dup3\n        /* \"#utility.yul\":9659:9677   */\n      add\n        /* \"#utility.yul\":9651:9677   */\n      swap1\n      pop\n        /* \"#utility.yul\":9723:9732   */\n      dup2\n        /* \"#utility.yul\":9717:9721   */\n      dup2\n        /* \"#utility.yul\":9713:9733   */\n      sub\n        /* \"#utility.yul\":9709:9710   */\n      0x00\n        /* \"#utility.yul\":9698:9707   */\n      dup4\n        /* \"#utility.yul\":9694:9711   */\n      add\n        /* \"#utility.yul\":9687:9734   */\n      mstore\n        /* \"#utility.yul\":9751:9882   */\n      tag_195\n        /* \"#utility.yul\":9877:9881   */\n      dup2\n        /* \"#utility.yul\":9751:9882   */\n      tag_98\n      jump\t// in\n    tag_195:\n        /* \"#utility.yul\":9743:9882   */\n      swap1\n      pop\n        /* \"#utility.yul\":9470:9889   */\n      swap2\n      swap1\n      pop\n      jump\t// out\n        /* \"#utility.yul\":9895:10071   */\n    tag_99:\n        /* \"#utility.yul\":10035:10063   */\n      0x43616d706169676e20616c726561647920636f6d706c65746564000000000000\n        /* \"#utility.yul\":10031:10032   */\n      0x00\n        /* \"#utility.yul\":10023:10029   */\n      dup3\n        /* \"#utility.yul\":10019:10033   */\n      add\n        /* \"#utility.yul\":10012:10064   */\n      mstore\n        /* \"#utility.yul\":9895:10071   */\n      pop\n      jump\t// out\n        /* \"#utility.yul\":10077:10443   */\n    tag_100:\n        /* \"#utility.yul\":10219:10222   */\n      0x00\n        /* \"#utility.yul\":10240:10307   */\n      tag_198\n        /* \"#utility.yul\":10304:10306   */\n      0x1a\n        /* \"#utility.yul\":10299:10302   */\n      dup4\n        /* \"#utility.yul\":10240:10307   */\n      tag_88\n      jump\t// in\n    tag_198:\n        /* \"#utility.yul\":10233:10307   */\n      swap2\n      pop\n        /* \"#utility.yul\":10316:10409   */\n      tag_199\n        /* \"#utility.yul\":10405:10408   */\n      dup3\n        /* \"#utility.yul\":10316:10409   */\n      tag_99\n      jump\t// in\n    tag_199:\n        /* \"#utility.yul\":10434:10436   */\n      0x20\n        /* \"#utility.yul\":10429:10432   */\n      dup3\n        /* \"#utility.yul\":10425:10437   */\n      add\n        /* \"#utility.yul\":10418:10437   */\n      swap1\n      pop\n        /* \"#utility.yul\":10077:10443   */\n      swap2\n      swap1\n      pop\n      jump\t// out\n        /* \"#utility.yul\":10449:10868   */\n    tag_67:\n        /* \"#utility.yul\":10615:10619   */\n      0x00\n        /* \"#utility.yul\":10653:10655   */\n      0x20\n        /* \"#utility.yul\":10642:10651   */\n      dup3\n        /* \"#utility.yul\":10638:10656   */\n      add\n        /* \"#utility.yul\":10630:10656   */\n      swap1\n      pop\n        /* \"#utility.yul\":10702:10711   */\n      dup2\n        /* \"#utility.yul\":10696:10700   */\n      dup2\n        /* \"#utility.yul\":10692:10712   */\n      sub\n        /* \"#utility.yul\":10688:10689   */\n      0x00\n        /* \"#utility.yul\":10677:10686   */\n      dup4\n        /* \"#utility.yul\":10673:10690   */\n      add\n        /* \"#utility.yul\":10666:10713   */\n      mstore\n        /* \"#utility.yul\":10730:10861   */\n      tag_201\n        /* \"#utility.yul\":10856:10860   */\n      dup2\n        /* \"#utility.yul\":10730:10861   */\n      tag_100\n      jump\t// in\n    tag_201:\n        /* \"#utility.yul\":10722:10861   */\n      swap1\n      pop\n        /* \"#utility.yul\":10449:10868   */\n      swap2\n      swap1\n      pop\n      jump\t// out\n\n    auxdata: 0xa26469706673582212207063e52b4e398f7978a280d664152823d79a85a0fe62898038431e666eeb6fcf64736f6c634300081a0033\n}\n",
				"bytecode": {
					"linkReferences": {},
					"object": "6080604052348015600e575f80fd5b50610c2a8061001c5f395ff3fe608060405260043610610054575f3560e01c8063141961bc14610058578063155dd5ee1461009857806322502268146100c05780637274e30d146100e8578063c1cbbca714610112578063e081dbf91461012e575b5f80fd5b348015610063575f80fd5b5061007e600480360381019061007991906106d4565b61016a565b60405161008f959493929190610767565b60405180910390f35b3480156100a3575f80fd5b506100be60048036038101906100b991906106d4565b6101c7565b005b3480156100cb575f80fd5b506100e660048036038101906100e191906107b8565b6103f4565b005b3480156100f3575f80fd5b506100fc6104c4565b60405161010991906107f6565b60405180910390f35b61012c600480360381019061012791906106d4565b6104c9565b005b348015610139575f80fd5b50610154600480360381019061014f919061084a565b610644565b60405161016191906107f6565b60405180910390f35b6001602052805f5260405f205f91509050805f015f9054906101000a900473ffffffffffffffffffffffffffffffffffffffff1690806001015490806002015490806003015490806004015f9054906101000a900460ff16905085565b8060015f8281526020019081526020015f205f015f9054906101000a900473ffffffffffffffffffffffffffffffffffffffff1673ffffffffffffffffffffffffffffffffffffffff163373ffffffffffffffffffffffffffffffffffffffff1614610268576040517f08c379a000000000000000000000000000000000000000000000000000000000815260040161025f90610908565b60405180910390fd5b8160015f8281526020019081526020015f20600201544210156102c0576040517f08c379a00000000000000000000000000000000000000000000000000000000081526004016102b790610970565b60405180910390fd5b5f60015f8581526020019081526020015f20905080600101548160030154101561031f576040517f08c379a0000000000000000000000000000000000000000000000000000000008152600401610316906109d8565b60405180910390fd5b5f816003015490505f82600301819055506001826004015f6101000a81548160ff021916908315150217905550815f015f9054906101000a900473ffffffffffffffffffffffffffffffffffffffff1673ffffffffffffffffffffffffffffffffffffffff166108fc8290811502906040515f60405180830381858888f193505050501580156103b1573d5f803e3d5ffd5b507ff440aec6b52895984d061d622e6edeba6210f7c3e059be920663140c084560d78533836040516103e593929190610a05565b60405180910390a15050505050565b5f8081548092919061040590610a67565b91905055505f60015f805481526020019081526020015f20905033815f015f6101000a81548173ffffffffffffffffffffffffffffffffffffffff021916908373ffffffffffffffffffffffffffffffffffffffff16021790555082816001018190555081426104759190610aae565b81600201819055507f91b289a829e71d811b8c69e4a24ba2d40d115d8a236e9a724cb3bb2d43cf72235f54338584600201546040516104b79493929190610ae1565b60405180910390a1505050565b5f5481565b8060015f8281526020019081526020015f20600201544210610520576040517f08c379a000000000000000000000000000000000000000000000000000000000815260040161051790610b6e565b60405180910390fd5b60015f8281526020019081526020015f206004015f9054906101000a900460ff1615610581576040517f08c379a000000000000000000000000000000000000000000000000000000000815260040161057890610bd6565b60405180910390fd5b5f60015f8481526020019081526020015f20905034816003015f8282546105a89190610aae565b9250508190555034816005015f3373ffffffffffffffffffffffffffffffffffffffff1673ffffffffffffffffffffffffffffffffffffffff1681526020019081526020015f205f8282546105fd9190610aae565b925050819055507f0a4a91237423e0a1766a761c7cb029311d8b95d6b1b81db1b949a70c98b4e08e83333460405161063793929190610a05565b60405180910390a1505050565b5f60015f8481526020019081526020015f206005015f8373ffffffffffffffffffffffffffffffffffffffff1673ffffffffffffffffffffffffffffffffffffffff1681526020019081526020015f2054905092915050565b5f80fd5b5f819050919050565b6106b3816106a1565b81146106bd575f80fd5b50565b5f813590506106ce816106aa565b92915050565b5f602082840312156106e9576106e861069d565b5b5f6106f6848285016106c0565b91505092915050565b5f73ffffffffffffffffffffffffffffffffffffffff82169050919050565b5f610728826106ff565b9050919050565b6107388161071e565b82525050565b610747816106a1565b82525050565b5f8115159050919050565b6107618161074d565b82525050565b5f60a08201905061077a5f83018861072f565b610787602083018761073e565b610794604083018661073e565b6107a1606083018561073e565b6107ae6080830184610758565b9695505050505050565b5f80604083850312156107ce576107cd61069d565b5b5f6107db858286016106c0565b92505060206107ec858286016106c0565b9150509250929050565b5f6020820190506108095f83018461073e565b92915050565b5f610819826106ff565b9050919050565b6108298161080f565b8114610833575f80fd5b50565b5f8135905061084481610820565b92915050565b5f80604083850312156108605761085f61069d565b5b5f61086d858286016106c0565b925050602061087e85828601610836565b9150509250929050565b5f82825260208201905092915050565b7f4f6e6c79207468652063726561746f722063616e2065786563757465207468695f8201527f732066756e6374696f6e00000000000000000000000000000000000000000000602082015250565b5f6108f2602a83610888565b91506108fd82610898565b604082019050919050565b5f6020820190508181035f83015261091f816108e6565b9050919050565b7f43616d706169676e206973207374696c6c2061637469766500000000000000005f82015250565b5f61095a601883610888565b915061096582610926565b602082019050919050565b5f6020820190508181035f8301526109878161094e565b9050919050565b7f43616d706169676e20646964206e6f742072656163682069747320676f616c005f82015250565b5f6109c2601f83610888565b91506109cd8261098e565b602082019050919050565b5f6020820190508181035f8301526109ef816109b6565b9050919050565b6109ff8161080f565b82525050565b5f606082019050610a185f83018661073e565b610a2560208301856109f6565b610a32604083018461073e565b949350505050565b7f4e487b71000000000000000000000000000000000000000000000000000000005f52601160045260245ffd5b5f610a71826106a1565b91507fffffffffffffffffffffffffffffffffffffffffffffffffffffffffffffffff8203610aa357610aa2610a3a565b5b600182019050919050565b5f610ab8826106a1565b9150610ac3836106a1565b9250828201905080821115610adb57610ada610a3a565b5b92915050565b5f608082019050610af45f83018761073e565b610b0160208301866109f6565b610b0e604083018561073e565b610b1b606083018461073e565b95945050505050565b7f43616d706169676e2068617320656e64656400000000000000000000000000005f82015250565b5f610b58601283610888565b9150610b6382610b24565b602082019050919050565b5f6020820190508181035f830152610b8581610b4c565b9050919050565b7f43616d706169676e20616c726561647920636f6d706c657465640000000000005f82015250565b5f610bc0601a83610888565b9150610bcb82610b8c565b602082019050919050565b5f6020820190508181035f830152610bed81610bb4565b905091905056fea26469706673582212207063e52b4e398f7978a280d664152823d79a85a0fe62898038431e666eeb6fcf64736f6c634300081a0033",
					"opcodes": "PUSH1 0x80 PUSH1 0x40 MSTORE CALLVALUE DUP1 ISZERO PUSH1 0xE JUMPI PUSH0 DUP1 REVERT JUMPDEST POP PUSH2 0xC2A DUP1 PUSH2 0x1C PUSH0 CODECOPY PUSH0 RETURN INVALID PUSH1 0x80 PUSH1 0x40 MSTORE PUSH1 0x4 CALLDATASIZE LT PUSH2 0x54 JUMPI PUSH0 CALLDATALOAD PUSH1 0xE0 SHR DUP1 PUSH4 0x141961BC EQ PUSH2 0x58 JUMPI DUP1 PUSH4 0x155DD5EE EQ PUSH2 0x98 JUMPI DUP1 PUSH4 0x22502268 EQ PUSH2 0xC0 JUMPI DUP1 PUSH4 0x7274E30D EQ PUSH2 0xE8 JUMPI DUP1 PUSH4 0xC1CBBCA7 EQ PUSH2 0x112 JUMPI DUP1 PUSH4 0xE081DBF9 EQ PUSH2 0x12E JUMPI JUMPDEST PUSH0 DUP1 REVERT JUMPDEST CALLVALUE DUP1 ISZERO PUSH2 0x63 JUMPI PUSH0 DUP1 REVERT JUMPDEST POP PUSH2 0x7E PUSH1 0x4 DUP1 CALLDATASIZE SUB DUP2 ADD SWAP1 PUSH2 0x79 SWAP2 SWAP1 PUSH2 0x6D4 JUMP JUMPDEST PUSH2 0x16A JUMP JUMPDEST PUSH1 0x40 MLOAD PUSH2 0x8F SWAP6 SWAP5 SWAP4 SWAP3 SWAP2 SWAP1 PUSH2 0x767 JUMP JUMPDEST PUSH1 0x40 MLOAD DUP1 SWAP2 SUB SWAP1 RETURN JUMPDEST CALLVALUE DUP1 ISZERO PUSH2 0xA3 JUMPI PUSH0 DUP1 REVERT JUMPDEST POP PUSH2 0xBE PUSH1 0x4 DUP1 CALLDATASIZE SUB DUP2 ADD SWAP1 PUSH2 0xB9 SWAP2 SWAP1 PUSH2 0x6D4 JUMP JUMPDEST PUSH2 0x1C7 JUMP JUMPDEST STOP JUMPDEST CALLVALUE DUP1 ISZERO PUSH2 0xCB JUMPI PUSH0 DUP1 REVERT JUMPDEST POP PUSH2 0xE6 PUSH1 0x4 DUP1 CALLDATASIZE SUB DUP2 ADD SWAP1 PUSH2 0xE1 SWAP2 SWAP1 PUSH2 0x7B8 JUMP JUMPDEST PUSH2 0x3F4 JUMP JUMPDEST STOP JUMPDEST CALLVALUE DUP1 ISZERO PUSH2 0xF3 JUMPI PUSH0 DUP1 REVERT JUMPDEST POP PUSH2 0xFC PUSH2 0x4C4 JUMP JUMPDEST PUSH1 0x40 MLOAD PUSH2 0x109 SWAP2 SWAP1 PUSH2 0x7F6 JUMP JUMPDEST PUSH1 0x40 MLOAD DUP1 SWAP2 SUB SWAP1 RETURN JUMPDEST PUSH2 0x12C PUSH1 0x4 DUP1 CALLDATASIZE SUB DUP2 ADD SWAP1 PUSH2 0x127 SWAP2 SWAP1 PUSH2 0x6D4 JUMP JUMPDEST PUSH2 0x4C9 JUMP JUMPDEST STOP JUMPDEST CALLVALUE DUP1 ISZERO PUSH2 0x139 JUMPI PUSH0 DUP1 REVERT JUMPDEST POP PUSH2 0x154 PUSH1 0x4 DUP1 CALLDATASIZE SUB DUP2 ADD SWAP1 PUSH2 0x14F SWAP2 SWAP1 PUSH2 0x84A JUMP JUMPDEST PUSH2 0x644 JUMP JUMPDEST PUSH1 0x40 MLOAD PUSH2 0x161 SWAP2 SWAP1 PUSH2 0x7F6 JUMP JUMPDEST PUSH1 0x40 MLOAD DUP1 SWAP2 SUB SWAP1 RETURN JUMPDEST PUSH1 0x1 PUSH1 0x20 MSTORE DUP1 PUSH0 MSTORE PUSH1 0x40 PUSH0 KECCAK256 PUSH0 SWAP2 POP SWAP1 POP DUP1 PUSH0 ADD PUSH0 SWAP1 SLOAD SWAP1 PUSH2 0x100 EXP SWAP1 DIV PUSH20 0xFFFFFFFFFFFFFFFFFFFFFFFFFFFFFFFFFFFFFFFF AND SWAP1 DUP1 PUSH1 0x1 ADD SLOAD SWAP1 DUP1 PUSH1 0x2 ADD SLOAD SWAP1 DUP1 PUSH1 0x3 ADD SLOAD SWAP1 DUP1 PUSH1 0x4 ADD PUSH0 SWAP1 SLOAD SWAP1 PUSH2 0x100 EXP SWAP1 DIV PUSH1 0xFF AND SWAP1 POP DUP6 JUMP JUMPDEST DUP1 PUSH1 0x1 PUSH0 DUP3 DUP2 MSTORE PUSH1 0x20 ADD SWAP1 DUP2 MSTORE PUSH1 0x20 ADD PUSH0 KECCAK256 PUSH0 ADD PUSH0 SWAP1 SLOAD SWAP1 PUSH2 0x100 EXP SWAP1 DIV PUSH20 0xFFFFFFFFFFFFFFFFFFFFFFFFFFFFFFFFFFFFFFFF AND PUSH20 0xFFFFFFFFFFFFFFFFFFFFFFFFFFFFFFFFFFFFFFFF AND CALLER PUSH20 0xFFFFFFFFFFFFFFFFFFFFFFFFFFFFFFFFFFFFFFFF AND EQ PUSH2 0x268 JUMPI PUSH1 0x40 MLOAD PUSH32 0x8C379A000000000000000000000000000000000000000000000000000000000 DUP2 MSTORE PUSH1 0x4 ADD PUSH2 0x25F SWAP1 PUSH2 0x908 JUMP JUMPDEST PUSH1 0x40 MLOAD DUP1 SWAP2 SUB SWAP1 REVERT JUMPDEST DUP2 PUSH1 0x1 PUSH0 DUP3 DUP2 MSTORE PUSH1 0x20 ADD SWAP1 DUP2 MSTORE PUSH1 0x20 ADD PUSH0 KECCAK256 PUSH1 0x2 ADD SLOAD TIMESTAMP LT ISZERO PUSH2 0x2C0 JUMPI PUSH1 0x40 MLOAD PUSH32 0x8C379A000000000000000000000000000000000000000000000000000000000 DUP2 MSTORE PUSH1 0x4 ADD PUSH2 0x2B7 SWAP1 PUSH2 0x970 JUMP JUMPDEST PUSH1 0x40 MLOAD DUP1 SWAP2 SUB SWAP1 REVERT JUMPDEST PUSH0 PUSH1 0x1 PUSH0 DUP6 DUP2 MSTORE PUSH1 0x20 ADD SWAP1 DUP2 MSTORE PUSH1 0x20 ADD PUSH0 KECCAK256 SWAP1 POP DUP1 PUSH1 0x1 ADD SLOAD DUP2 PUSH1 0x3 ADD SLOAD LT ISZERO PUSH2 0x31F JUMPI PUSH1 0x40 MLOAD PUSH32 0x8C379A000000000000000000000000000000000000000000000000000000000 DUP2 MSTORE PUSH1 0x4 ADD PUSH2 0x316 SWAP1 PUSH2 0x9D8 JUMP JUMPDEST PUSH1 0x40 MLOAD DUP1 SWAP2 SUB SWAP1 REVERT JUMPDEST PUSH0 DUP2 PUSH1 0x3 ADD SLOAD SWAP1 POP PUSH0 DUP3 PUSH1 0x3 ADD DUP2 SWAP1 SSTORE POP PUSH1 0x1 DUP3 PUSH1 0x4 ADD PUSH0 PUSH2 0x100 EXP DUP2 SLOAD DUP2 PUSH1 0xFF MUL NOT AND SWAP1 DUP4 ISZERO ISZERO MUL OR SWAP1 SSTORE POP DUP2 PUSH0 ADD PUSH0 SWAP1 SLOAD SWAP1 PUSH2 0x100 EXP SWAP1 DIV PUSH20 0xFFFFFFFFFFFFFFFFFFFFFFFFFFFFFFFFFFFFFFFF AND PUSH20 0xFFFFFFFFFFFFFFFFFFFFFFFFFFFFFFFFFFFFFFFF AND PUSH2 0x8FC DUP3 SWAP1 DUP2 ISZERO MUL SWAP1 PUSH1 0x40 MLOAD PUSH0 PUSH1 0x40 MLOAD DUP1 DUP4 SUB DUP2 DUP6 DUP9 DUP9 CALL SWAP4 POP POP POP POP ISZERO DUP1 ISZERO PUSH2 0x3B1 JUMPI RETURNDATASIZE PUSH0 DUP1 RETURNDATACOPY RETURNDATASIZE PUSH0 REVERT JUMPDEST POP PUSH32 0xF440AEC6B52895984D061D622E6EDEBA6210F7C3E059BE920663140C084560D7 DUP6 CALLER DUP4 PUSH1 0x40 MLOAD PUSH2 0x3E5 SWAP4 SWAP3 SWAP2 SWAP1 PUSH2 0xA05 JUMP JUMPDEST PUSH1 0x40 MLOAD DUP1 SWAP2 SUB SWAP1 LOG1 POP POP POP POP POP JUMP JUMPDEST PUSH0 DUP1 DUP2 SLOAD DUP1 SWAP3 SWAP2 SWAP1 PUSH2 0x405 SWAP1 PUSH2 0xA67 JUMP JUMPDEST SWAP2 SWAP1 POP SSTORE POP PUSH0 PUSH1 0x1 PUSH0 DUP1 SLOAD DUP2 MSTORE PUSH1 0x20 ADD SWAP1 DUP2 MSTORE PUSH1 0x20 ADD PUSH0 KECCAK256 SWAP1 POP CALLER DUP2 PUSH0 ADD PUSH0 PUSH2 0x100 EXP DUP2 SLOAD DUP2 PUSH20 0xFFFFFFFFFFFFFFFFFFFFFFFFFFFFFFFFFFFFFFFF MUL NOT AND SWAP1 DUP4 PUSH20 0xFFFFFFFFFFFFFFFFFFFFFFFFFFFFFFFFFFFFFFFF AND MUL OR SWAP1 SSTORE POP DUP3 DUP2 PUSH1 0x1 ADD DUP2 SWAP1 SSTORE POP DUP2 TIMESTAMP PUSH2 0x475 SWAP2 SWAP1 PUSH2 0xAAE JUMP JUMPDEST DUP2 PUSH1 0x2 ADD DUP2 SWAP1 SSTORE POP PUSH32 0x91B289A829E71D811B8C69E4A24BA2D40D115D8A236E9A724CB3BB2D43CF7223 PUSH0 SLOAD CALLER DUP6 DUP5 PUSH1 0x2 ADD SLOAD PUSH1 0x40 MLOAD PUSH2 0x4B7 SWAP5 SWAP4 SWAP3 SWAP2 SWAP1 PUSH2 0xAE1 JUMP JUMPDEST PUSH1 0x40 MLOAD DUP1 SWAP2 SUB SWAP1 LOG1 POP POP POP JUMP JUMPDEST PUSH0 SLOAD DUP2 JUMP JUMPDEST DUP1 PUSH1 0x1 PUSH0 DUP3 DUP2 MSTORE PUSH1 0x20 ADD SWAP1 DUP2 MSTORE PUSH1 0x20 ADD PUSH0 KECCAK256 PUSH1 0x2 ADD SLOAD TIMESTAMP LT PUSH2 0x520 JUMPI PUSH1 0x40 MLOAD PUSH32 0x8C379A000000000000000000000000000000000000000000000000000000000 DUP2 MSTORE PUSH1 0x4 ADD PUSH2 0x517 SWAP1 PUSH2 0xB6E JUMP JUMPDEST PUSH1 0x40 MLOAD DUP1 SWAP2 SUB SWAP1 REVERT JUMPDEST PUSH1 0x1 PUSH0 DUP3 DUP2 MSTORE PUSH1 0x20 ADD SWAP1 DUP2 MSTORE PUSH1 0x20 ADD PUSH0 KECCAK256 PUSH1 0x4 ADD PUSH0 SWAP1 SLOAD SWAP1 PUSH2 0x100 EXP SWAP1 DIV PUSH1 0xFF AND ISZERO PUSH2 0x581 JUMPI PUSH1 0x40 MLOAD PUSH32 0x8C379A000000000000000000000000000000000000000000000000000000000 DUP2 MSTORE PUSH1 0x4 ADD PUSH2 0x578 SWAP1 PUSH2 0xBD6 JUMP JUMPDEST PUSH1 0x40 MLOAD DUP1 SWAP2 SUB SWAP1 REVERT JUMPDEST PUSH0 PUSH1 0x1 PUSH0 DUP5 DUP2 MSTORE PUSH1 0x20 ADD SWAP1 DUP2 MSTORE PUSH1 0x20 ADD PUSH0 KECCAK256 SWAP1 POP CALLVALUE DUP2 PUSH1 0x3 ADD PUSH0 DUP3 DUP3 SLOAD PUSH2 0x5A8 SWAP2 SWAP1 PUSH2 0xAAE JUMP JUMPDEST SWAP3 POP POP DUP2 SWAP1 SSTORE POP CALLVALUE DUP2 PUSH1 0x5 ADD PUSH0 CALLER PUSH20 0xFFFFFFFFFFFFFFFFFFFFFFFFFFFFFFFFFFFFFFFF AND PUSH20 0xFFFFFFFFFFFFFFFFFFFFFFFFFFFFFFFFFFFFFFFF AND DUP2 MSTORE PUSH1 0x20 ADD SWAP1 DUP2 MSTORE PUSH1 0x20 ADD PUSH0 KECCAK256 PUSH0 DUP3 DUP3 SLOAD PUSH2 0x5FD SWAP2 SWAP1 PUSH2 0xAAE JUMP JUMPDEST SWAP3 POP POP DUP2 SWAP1 SSTORE POP PUSH32 0xA4A91237423E0A1766A761C7CB029311D8B95D6B1B81DB1B949A70C98B4E08E DUP4 CALLER CALLVALUE PUSH1 0x40 MLOAD PUSH2 0x637 SWAP4 SWAP3 SWAP2 SWAP1 PUSH2 0xA05 JUMP JUMPDEST PUSH1 0x40 MLOAD DUP1 SWAP2 SUB SWAP1 LOG1 POP POP POP JUMP JUMPDEST PUSH0 PUSH1 0x1 PUSH0 DUP5 DUP2 MSTORE PUSH1 0x20 ADD SWAP1 DUP2 MSTORE PUSH1 0x20 ADD PUSH0 KECCAK256 PUSH1 0x5 ADD PUSH0 DUP4 PUSH20 0xFFFFFFFFFFFFFFFFFFFFFFFFFFFFFFFFFFFFFFFF AND PUSH20 0xFFFFFFFFFFFFFFFFFFFFFFFFFFFFFFFFFFFFFFFF AND DUP2 MSTORE PUSH1 0x20 ADD SWAP1 DUP2 MSTORE PUSH1 0x20 ADD PUSH0 KECCAK256 SLOAD SWAP1 POP SWAP3 SWAP2 POP POP JUMP JUMPDEST PUSH0 DUP1 REVERT JUMPDEST PUSH0 DUP2 SWAP1 POP SWAP2 SWAP1 POP JUMP JUMPDEST PUSH2 0x6B3 DUP2 PUSH2 0x6A1 JUMP JUMPDEST DUP2 EQ PUSH2 0x6BD JUMPI PUSH0 DUP1 REVERT JUMPDEST POP JUMP JUMPDEST PUSH0 DUP2 CALLDATALOAD SWAP1 POP PUSH2 0x6CE DUP2 PUSH2 0x6AA JUMP JUMPDEST SWAP3 SWAP2 POP POP JUMP JUMPDEST PUSH0 PUSH1 0x20 DUP3 DUP5 SUB SLT ISZERO PUSH2 0x6E9 JUMPI PUSH2 0x6E8 PUSH2 0x69D JUMP JUMPDEST JUMPDEST PUSH0 PUSH2 0x6F6 DUP5 DUP3 DUP6 ADD PUSH2 0x6C0 JUMP JUMPDEST SWAP2 POP POP SWAP3 SWAP2 POP POP JUMP JUMPDEST PUSH0 PUSH20 0xFFFFFFFFFFFFFFFFFFFFFFFFFFFFFFFFFFFFFFFF DUP3 AND SWAP1 POP SWAP2 SWAP1 POP JUMP JUMPDEST PUSH0 PUSH2 0x728 DUP3 PUSH2 0x6FF JUMP JUMPDEST SWAP1 POP SWAP2 SWAP1 POP JUMP JUMPDEST PUSH2 0x738 DUP2 PUSH2 0x71E JUMP JUMPDEST DUP3 MSTORE POP POP JUMP JUMPDEST PUSH2 0x747 DUP2 PUSH2 0x6A1 JUMP JUMPDEST DUP3 MSTORE POP POP JUMP JUMPDEST PUSH0 DUP2 ISZERO ISZERO SWAP1 POP SWAP2 SWAP1 POP JUMP JUMPDEST PUSH2 0x761 DUP2 PUSH2 0x74D JUMP JUMPDEST DUP3 MSTORE POP POP JUMP JUMPDEST PUSH0 PUSH1 0xA0 DUP3 ADD SWAP1 POP PUSH2 0x77A PUSH0 DUP4 ADD DUP9 PUSH2 0x72F JUMP JUMPDEST PUSH2 0x787 PUSH1 0x20 DUP4 ADD DUP8 PUSH2 0x73E JUMP JUMPDEST PUSH2 0x794 PUSH1 0x40 DUP4 ADD DUP7 PUSH2 0x73E JUMP JUMPDEST PUSH2 0x7A1 PUSH1 0x60 DUP4 ADD DUP6 PUSH2 0x73E JUMP JUMPDEST PUSH2 0x7AE PUSH1 0x80 DUP4 ADD DUP5 PUSH2 0x758 JUMP JUMPDEST SWAP7 SWAP6 POP POP POP POP POP POP JUMP JUMPDEST PUSH0 DUP1 PUSH1 0x40 DUP4 DUP6 SUB SLT ISZERO PUSH2 0x7CE JUMPI PUSH2 0x7CD PUSH2 0x69D JUMP JUMPDEST JUMPDEST PUSH0 PUSH2 0x7DB DUP6 DUP3 DUP7 ADD PUSH2 0x6C0 JUMP JUMPDEST SWAP3 POP POP PUSH1 0x20 PUSH2 0x7EC DUP6 DUP3 DUP7 ADD PUSH2 0x6C0 JUMP JUMPDEST SWAP2 POP POP SWAP3 POP SWAP3 SWAP1 POP JUMP JUMPDEST PUSH0 PUSH1 0x20 DUP3 ADD SWAP1 POP PUSH2 0x809 PUSH0 DUP4 ADD DUP5 PUSH2 0x73E JUMP JUMPDEST SWAP3 SWAP2 POP POP JUMP JUMPDEST PUSH0 PUSH2 0x819 DUP3 PUSH2 0x6FF JUMP JUMPDEST SWAP1 POP SWAP2 SWAP1 POP JUMP JUMPDEST PUSH2 0x829 DUP2 PUSH2 0x80F JUMP JUMPDEST DUP2 EQ PUSH2 0x833 JUMPI PUSH0 DUP1 REVERT JUMPDEST POP JUMP JUMPDEST PUSH0 DUP2 CALLDATALOAD SWAP1 POP PUSH2 0x844 DUP2 PUSH2 0x820 JUMP JUMPDEST SWAP3 SWAP2 POP POP JUMP JUMPDEST PUSH0 DUP1 PUSH1 0x40 DUP4 DUP6 SUB SLT ISZERO PUSH2 0x860 JUMPI PUSH2 0x85F PUSH2 0x69D JUMP JUMPDEST JUMPDEST PUSH0 PUSH2 0x86D DUP6 DUP3 DUP7 ADD PUSH2 0x6C0 JUMP JUMPDEST SWAP3 POP POP PUSH1 0x20 PUSH2 0x87E DUP6 DUP3 DUP7 ADD PUSH2 0x836 JUMP JUMPDEST SWAP2 POP POP SWAP3 POP SWAP3 SWAP1 POP JUMP JUMPDEST PUSH0 DUP3 DUP3 MSTORE PUSH1 0x20 DUP3 ADD SWAP1 POP SWAP3 SWAP2 POP POP JUMP JUMPDEST PUSH32 0x4F6E6C79207468652063726561746F722063616E206578656375746520746869 PUSH0 DUP3 ADD MSTORE PUSH32 0x732066756E6374696F6E00000000000000000000000000000000000000000000 PUSH1 0x20 DUP3 ADD MSTORE POP JUMP JUMPDEST PUSH0 PUSH2 0x8F2 PUSH1 0x2A DUP4 PUSH2 0x888 JUMP JUMPDEST SWAP2 POP PUSH2 0x8FD DUP3 PUSH2 0x898 JUMP JUMPDEST PUSH1 0x40 DUP3 ADD SWAP1 POP SWAP2 SWAP1 POP JUMP JUMPDEST PUSH0 PUSH1 0x20 DUP3 ADD SWAP1 POP DUP2 DUP2 SUB PUSH0 DUP4 ADD MSTORE PUSH2 0x91F DUP2 PUSH2 0x8E6 JUMP JUMPDEST SWAP1 POP SWAP2 SWAP1 POP JUMP JUMPDEST PUSH32 0x43616D706169676E206973207374696C6C206163746976650000000000000000 PUSH0 DUP3 ADD MSTORE POP JUMP JUMPDEST PUSH0 PUSH2 0x95A PUSH1 0x18 DUP4 PUSH2 0x888 JUMP JUMPDEST SWAP2 POP PUSH2 0x965 DUP3 PUSH2 0x926 JUMP JUMPDEST PUSH1 0x20 DUP3 ADD SWAP1 POP SWAP2 SWAP1 POP JUMP JUMPDEST PUSH0 PUSH1 0x20 DUP3 ADD SWAP1 POP DUP2 DUP2 SUB PUSH0 DUP4 ADD MSTORE PUSH2 0x987 DUP2 PUSH2 0x94E JUMP JUMPDEST SWAP1 POP SWAP2 SWAP1 POP JUMP JUMPDEST PUSH32 0x43616D706169676E20646964206E6F742072656163682069747320676F616C00 PUSH0 DUP3 ADD MSTORE POP JUMP JUMPDEST PUSH0 PUSH2 0x9C2 PUSH1 0x1F DUP4 PUSH2 0x888 JUMP JUMPDEST SWAP2 POP PUSH2 0x9CD DUP3 PUSH2 0x98E JUMP JUMPDEST PUSH1 0x20 DUP3 ADD SWAP1 POP SWAP2 SWAP1 POP JUMP JUMPDEST PUSH0 PUSH1 0x20 DUP3 ADD SWAP1 POP DUP2 DUP2 SUB PUSH0 DUP4 ADD MSTORE PUSH2 0x9EF DUP2 PUSH2 0x9B6 JUMP JUMPDEST SWAP1 POP SWAP2 SWAP1 POP JUMP JUMPDEST PUSH2 0x9FF DUP2 PUSH2 0x80F JUMP JUMPDEST DUP3 MSTORE POP POP JUMP JUMPDEST PUSH0 PUSH1 0x60 DUP3 ADD SWAP1 POP PUSH2 0xA18 PUSH0 DUP4 ADD DUP7 PUSH2 0x73E JUMP JUMPDEST PUSH2 0xA25 PUSH1 0x20 DUP4 ADD DUP6 PUSH2 0x9F6 JUMP JUMPDEST PUSH2 0xA32 PUSH1 0x40 DUP4 ADD DUP5 PUSH2 0x73E JUMP JUMPDEST SWAP5 SWAP4 POP POP POP POP JUMP JUMPDEST PUSH32 0x4E487B7100000000000000000000000000000000000000000000000000000000 PUSH0 MSTORE PUSH1 0x11 PUSH1 0x4 MSTORE PUSH1 0x24 PUSH0 REVERT JUMPDEST PUSH0 PUSH2 0xA71 DUP3 PUSH2 0x6A1 JUMP JUMPDEST SWAP2 POP PUSH32 0xFFFFFFFFFFFFFFFFFFFFFFFFFFFFFFFFFFFFFFFFFFFFFFFFFFFFFFFFFFFFFFFF DUP3 SUB PUSH2 0xAA3 JUMPI PUSH2 0xAA2 PUSH2 0xA3A JUMP JUMPDEST JUMPDEST PUSH1 0x1 DUP3 ADD SWAP1 POP SWAP2 SWAP1 POP JUMP JUMPDEST PUSH0 PUSH2 0xAB8 DUP3 PUSH2 0x6A1 JUMP JUMPDEST SWAP2 POP PUSH2 0xAC3 DUP4 PUSH2 0x6A1 JUMP JUMPDEST SWAP3 POP DUP3 DUP3 ADD SWAP1 POP DUP1 DUP3 GT ISZERO PUSH2 0xADB JUMPI PUSH2 0xADA PUSH2 0xA3A JUMP JUMPDEST JUMPDEST SWAP3 SWAP2 POP POP JUMP JUMPDEST PUSH0 PUSH1 0x80 DUP3 ADD SWAP1 POP PUSH2 0xAF4 PUSH0 DUP4 ADD DUP8 PUSH2 0x73E JUMP JUMPDEST PUSH2 0xB01 PUSH1 0x20 DUP4 ADD DUP7 PUSH2 0x9F6 JUMP JUMPDEST PUSH2 0xB0E PUSH1 0x40 DUP4 ADD DUP6 PUSH2 0x73E JUMP JUMPDEST PUSH2 0xB1B PUSH1 0x60 DUP4 ADD DUP5 PUSH2 0x73E JUMP JUMPDEST SWAP6 SWAP5 POP POP POP POP POP JUMP JUMPDEST PUSH32 0x43616D706169676E2068617320656E6465640000000000000000000000000000 PUSH0 DUP3 ADD MSTORE POP JUMP JUMPDEST PUSH0 PUSH2 0xB58 PUSH1 0x12 DUP4 PUSH2 0x888 JUMP JUMPDEST SWAP2 POP PUSH2 0xB63 DUP3 PUSH2 0xB24 JUMP JUMPDEST PUSH1 0x20 DUP3 ADD SWAP1 POP SWAP2 SWAP1 POP JUMP JUMPDEST PUSH0 PUSH1 0x20 DUP3 ADD SWAP1 POP DUP2 DUP2 SUB PUSH0 DUP4 ADD MSTORE PUSH2 0xB85 DUP2 PUSH2 0xB4C JUMP JUMPDEST SWAP1 POP SWAP2 SWAP1 POP JUMP JUMPDEST PUSH32 0x43616D706169676E20616C726561647920636F6D706C65746564000000000000 PUSH0 DUP3 ADD MSTORE POP JUMP JUMPDEST PUSH0 PUSH2 0xBC0 PUSH1 0x1A DUP4 PUSH2 0x888 JUMP JUMPDEST SWAP2 POP PUSH2 0xBCB DUP3 PUSH2 0xB8C JUMP JUMPDEST PUSH1 0x20 DUP3 ADD SWAP1 POP SWAP2 SWAP1 POP JUMP JUMPDEST PUSH0 PUSH1 0x20 DUP3 ADD SWAP1 POP DUP2 DUP2 SUB PUSH0 DUP4 ADD MSTORE PUSH2 0xBED DUP2 PUSH2 0xBB4 JUMP JUMPDEST SWAP1 POP SWAP2 SWAP1 POP JUMP INVALID LOG2 PUSH5 0x6970667358 0x22 SLT KECCAK256 PUSH17 0x63E52B4E398F7978A280D664152823D79A DUP6 LOG0 INVALID PUSH3 0x898038 NUMBER 0x1E PUSH7 0x6EEB6FCF64736F PUSH13 0x634300081A0033000000000000 "
				},
				"gasEstimates": {
					"creation": {
						"codeDepositCost": "622800",
						"executionCost": "655",
						"totalCost": "623455"
					},
					"external": {
						"campaignCount()": "2468",
						"campaigns(uint256)": "infinite",
						"contribute(uint256)": "infinite",
						"createCampaign(uint256,uint256)": "infinite",
						"getContribution(uint256,address)": "infinite",
						"withdrawFunds(uint256)": "infinite"
					}
				},
				"methodIdentifiers": {
					"campaignCount()": "7274e30d",
					"campaigns(uint256)": "141961bc",
					"contribute(uint256)": "c1cbbca7",
					"createCampaign(uint256,uint256)": "22502268",
					"getContribution(uint256,address)": "e081dbf9",
					"withdrawFunds(uint256)": "155dd5ee"
				}
			},
			"storageLayout": {
				"storage": [
					{
						"astId": 18,
						"contract": "contracts/_crowdfunding.sol:Crowdfunding",
						"label": "campaignCount",
						"offset": 0,
						"slot": "0",
						"type": "t_uint256"
					},
					{
						"astId": 23,
						"contract": "contracts/_crowdfunding.sol:Crowdfunding",
						"label": "campaigns",
						"offset": 0,
						"slot": "1",
						"type": "t_mapping(t_uint256,t_struct(Campaign)16_storage)"
					}
				],
				"types": {
					"t_address": {
						"encoding": "inplace",
						"label": "address",
						"numberOfBytes": "20"
					},
					"t_address_payable": {
						"encoding": "inplace",
						"label": "address payable",
						"numberOfBytes": "20"
					},
					"t_bool": {
						"encoding": "inplace",
						"label": "bool",
						"numberOfBytes": "1"
					},
					"t_mapping(t_address,t_uint256)": {
						"encoding": "mapping",
						"key": "t_address",
						"label": "mapping(address => uint256)",
						"numberOfBytes": "32",
						"value": "t_uint256"
					},
					"t_mapping(t_uint256,t_struct(Campaign)16_storage)": {
						"encoding": "mapping",
						"key": "t_uint256",
						"label": "mapping(uint256 => struct Crowdfunding.Campaign)",
						"numberOfBytes": "32",
						"value": "t_struct(Campaign)16_storage"
					},
					"t_struct(Campaign)16_storage": {
						"encoding": "inplace",
						"label": "struct Crowdfunding.Campaign",
						"members": [
							{
								"astId": 3,
								"contract": "contracts/_crowdfunding.sol:Crowdfunding",
								"label": "creator",
								"offset": 0,
								"slot": "0",
								"type": "t_address_payable"
							},
							{
								"astId": 5,
								"contract": "contracts/_crowdfunding.sol:Crowdfunding",
								"label": "goal",
								"offset": 0,
								"slot": "1",
								"type": "t_uint256"
							},
							{
								"astId": 7,
								"contract": "contracts/_crowdfunding.sol:Crowdfunding",
								"label": "deadline",
								"offset": 0,
								"slot": "2",
								"type": "t_uint256"
							},
							{
								"astId": 9,
								"contract": "contracts/_crowdfunding.sol:Crowdfunding",
								"label": "fundsRaised",
								"offset": 0,
								"slot": "3",
								"type": "t_uint256"
							},
							{
								"astId": 11,
								"contract": "contracts/_crowdfunding.sol:Crowdfunding",
								"label": "completed",
								"offset": 0,
								"slot": "4",
								"type": "t_bool"
							},
							{
								"astId": 15,
								"contract": "contracts/_crowdfunding.sol:Crowdfunding",
								"label": "contributions",
								"offset": 0,
								"slot": "5",
								"type": "t_mapping(t_address,t_uint256)"
							}
						],
						"numberOfBytes": "192"
					},
					"t_uint256": {
						"encoding": "inplace",
						"label": "uint256",
						"numberOfBytes": "32"
					}
				}
			},
			"userdoc": {
				"kind": "user",
				"methods": {},
				"version": 1
			}
		}
	}
}