{
	"contracts/_ronix.sol": {
		"RonxMatrix": {
			"abi": [
				{
					"anonymous": false,
					"inputs": [
						{
							"indexed": true,
							"internalType": "address",
							"name": "receiver",
							"type": "address"
						},
						{
							"indexed": true,
							"internalType": "address",
							"name": "from",
							"type": "address"
						},
						{
							"indexed": false,
							"internalType": "uint8",
							"name": "matrix",
							"type": "uint8"
						},
						{
							"indexed": false,
							"internalType": "uint8",
							"name": "level",
							"type": "uint8"
						}
					],
					"name": "MissedBUSDReceive",
					"type": "event"
				},
				{
					"anonymous": false,
					"inputs": [
						{
							"indexed": true,
							"internalType": "address",
							"name": "user",
							"type": "address"
						},
						{
							"indexed": true,
							"internalType": "address",
							"name": "referrer",
							"type": "address"
						},
						{
							"indexed": false,
							"internalType": "uint8",
							"name": "matrix",
							"type": "uint8"
						},
						{
							"indexed": false,
							"internalType": "uint8",
							"name": "level",
							"type": "uint8"
						},
						{
							"indexed": false,
							"internalType": "uint8",
							"name": "place",
							"type": "uint8"
						}
					],
					"name": "NewUserPlace",
					"type": "event"
				},
				{
					"anonymous": false,
					"inputs": [
						{
							"indexed": true,
							"internalType": "address",
							"name": "user",
							"type": "address"
						},
						{
							"indexed": true,
							"internalType": "address",
							"name": "referrer",
							"type": "address"
						},
						{
							"indexed": true,
							"internalType": "uint256",
							"name": "userId",
							"type": "uint256"
						},
						{
							"indexed": false,
							"internalType": "uint256",
							"name": "referrerId",
							"type": "uint256"
						}
					],
					"name": "Registration",
					"type": "event"
				},
				{
					"anonymous": false,
					"inputs": [
						{
							"indexed": true,
							"internalType": "address",
							"name": "user",
							"type": "address"
						},
						{
							"indexed": true,
							"internalType": "address",
							"name": "currentReferrer",
							"type": "address"
						},
						{
							"indexed": true,
							"internalType": "address",
							"name": "caller",
							"type": "address"
						},
						{
							"indexed": false,
							"internalType": "uint8",
							"name": "matrix",
							"type": "uint8"
						},
						{
							"indexed": false,
							"internalType": "uint8",
							"name": "level",
							"type": "uint8"
						}
					],
					"name": "Reinvest",
					"type": "event"
				},
				{
					"anonymous": false,
					"inputs": [
						{
							"indexed": true,
							"internalType": "address",
							"name": "from",
							"type": "address"
						},
						{
							"indexed": true,
							"internalType": "address",
							"name": "receiver",
							"type": "address"
						},
						{
							"indexed": false,
							"internalType": "uint8",
							"name": "matrix",
							"type": "uint8"
						},
						{
							"indexed": false,
							"internalType": "uint8",
							"name": "level",
							"type": "uint8"
						}
					],
					"name": "SentExtraBUSDDividends",
					"type": "event"
				},
				{
					"anonymous": false,
					"inputs": [
						{
							"indexed": true,
							"internalType": "address",
							"name": "user",
							"type": "address"
						},
						{
							"indexed": true,
							"internalType": "address",
							"name": "referrer",
							"type": "address"
						},
						{
							"indexed": false,
							"internalType": "uint8",
							"name": "matrix",
							"type": "uint8"
						},
						{
							"indexed": false,
							"internalType": "uint8",
							"name": "level",
							"type": "uint8"
						}
					],
					"name": "Upgrade",
					"type": "event"
				},
				{
					"stateMutability": "nonpayable",
					"type": "fallback"
				},
				{
					"inputs": [],
					"name": "BASIC_PRICE",
					"outputs": [
						{
							"internalType": "uint256",
							"name": "",
							"type": "uint256"
						}
					],
					"stateMutability": "view",
					"type": "function"
				},
				{
					"inputs": [],
					"name": "LAST_LEVEL",
					"outputs": [
						{
							"internalType": "uint8",
							"name": "",
							"type": "uint8"
						}
					],
					"stateMutability": "view",
					"type": "function"
				},
				{
					"inputs": [
						{
							"internalType": "address",
							"name": "",
							"type": "address"
						}
					],
					"name": "balances",
					"outputs": [
						{
							"internalType": "uint256",
							"name": "",
							"type": "uint256"
						}
					],
					"stateMutability": "view",
					"type": "function"
				},
				{
					"inputs": [
						{
							"internalType": "uint8",
							"name": "matrix",
							"type": "uint8"
						},
						{
							"internalType": "uint8",
							"name": "level",
							"type": "uint8"
						}
					],
					"name": "buyNewLevel",
					"outputs": [],
					"stateMutability": "nonpayable",
					"type": "function"
				},
				{
					"inputs": [
						{
							"internalType": "address",
							"name": "userAddress",
							"type": "address"
						},
						{
							"internalType": "uint8",
							"name": "matrix",
							"type": "uint8"
						},
						{
							"internalType": "uint8",
							"name": "level",
							"type": "uint8"
						}
					],
					"name": "buyNewLevelFor",
					"outputs": [],
					"stateMutability": "nonpayable",
					"type": "function"
				},
				{
					"inputs": [],
					"name": "changeLock",
					"outputs": [],
					"stateMutability": "nonpayable",
					"type": "function"
				},
				{
					"inputs": [],
					"name": "contractOwner",
					"outputs": [
						{
							"internalType": "address",
							"name": "",
							"type": "address"
						}
					],
					"stateMutability": "view",
					"type": "function"
				},
				{
					"inputs": [],
					"name": "depositToken",
					"outputs": [
						{
							"internalType": "contract IERC20",
							"name": "",
							"type": "address"
						}
					],
					"stateMutability": "view",
					"type": "function"
				},
				{
					"inputs": [
						{
							"internalType": "address",
							"name": "userAddress",
							"type": "address"
						},
						{
							"internalType": "uint8",
							"name": "level",
							"type": "uint8"
						}
					],
					"name": "findFreeX3Referrer",
					"outputs": [
						{
							"internalType": "address",
							"name": "",
							"type": "address"
						}
					],
					"stateMutability": "view",
					"type": "function"
				},
				{
					"inputs": [],
					"name": "id1",
					"outputs": [
						{
							"internalType": "address",
							"name": "",
							"type": "address"
						}
					],
					"stateMutability": "view",
					"type": "function"
				},
				{
					"inputs": [
						{
							"internalType": "uint256",
							"name": "",
							"type": "uint256"
						}
					],
					"name": "idToAddress",
					"outputs": [
						{
							"internalType": "address",
							"name": "",
							"type": "address"
						}
					],
					"stateMutability": "view",
					"type": "function"
				},
				{
					"inputs": [],
					"name": "impl",
					"outputs": [
						{
							"internalType": "address",
							"name": "",
							"type": "address"
						}
					],
					"stateMutability": "view",
					"type": "function"
				},
				{
					"inputs": [
						{
							"internalType": "address",
							"name": "_ownerAddress",
							"type": "address"
						},
						{
							"internalType": "address",
							"name": "_multisig",
							"type": "address"
						},
						{
							"internalType": "contract IERC20",
							"name": "_depositTokenAddress",
							"type": "address"
						}
					],
					"name": "init",
					"outputs": [],
					"stateMutability": "nonpayable",
					"type": "function"
				},
				{
					"inputs": [
						{
							"internalType": "address",
							"name": "user",
							"type": "address"
						}
					],
					"name": "isUserExists",
					"outputs": [
						{
							"internalType": "bool",
							"name": "",
							"type": "bool"
						}
					],
					"stateMutability": "view",
					"type": "function"
				},
				{
					"inputs": [],
					"name": "lastUserId",
					"outputs": [
						{
							"internalType": "uint256",
							"name": "",
							"type": "uint256"
						}
					],
					"stateMutability": "view",
					"type": "function"
				},
				{
					"inputs": [
						{
							"internalType": "uint8",
							"name": "",
							"type": "uint8"
						}
					],
					"name": "levelPrice",
					"outputs": [
						{
							"internalType": "uint256",
							"name": "",
							"type": "uint256"
						}
					],
					"stateMutability": "view",
					"type": "function"
				},
				{
					"inputs": [],
					"name": "locked",
					"outputs": [
						{
							"internalType": "bool",
							"name": "",
							"type": "bool"
						}
					],
					"stateMutability": "view",
					"type": "function"
				},
				{
					"inputs": [],
					"name": "multisig",
					"outputs": [
						{
							"internalType": "address",
							"name": "",
							"type": "address"
						}
					],
					"stateMutability": "view",
					"type": "function"
				},
				{
					"inputs": [
						{
							"internalType": "address",
							"name": "referrerAddress",
							"type": "address"
						}
					],
					"name": "registrationExt",
					"outputs": [],
					"stateMutability": "nonpayable",
					"type": "function"
				},
				{
					"inputs": [
						{
							"internalType": "address",
							"name": "userAddress",
							"type": "address"
						},
						{
							"internalType": "address",
							"name": "referrerAddress",
							"type": "address"
						}
					],
					"name": "registrationFor",
					"outputs": [],
					"stateMutability": "nonpayable",
					"type": "function"
				},
				{
					"inputs": [
						{
							"internalType": "uint256",
							"name": "",
							"type": "uint256"
						}
					],
					"name": "userIds",
					"outputs": [
						{
							"internalType": "address",
							"name": "",
							"type": "address"
						}
					],
					"stateMutability": "view",
					"type": "function"
				},
				{
					"inputs": [
						{
							"internalType": "address",
							"name": "",
							"type": "address"
						}
					],
					"name": "users",
					"outputs": [
						{
							"internalType": "uint256",
							"name": "id",
							"type": "uint256"
						},
						{
							"internalType": "address",
							"name": "referrer",
							"type": "address"
						},
						{
							"internalType": "uint256",
							"name": "partnersCount",
							"type": "uint256"
						}
					],
					"stateMutability": "view",
					"type": "function"
				},
				{
					"inputs": [
						{
							"internalType": "address",
							"name": "userAddress",
							"type": "address"
						},
						{
							"internalType": "uint8",
							"name": "level",
							"type": "uint8"
						}
					],
					"name": "usersActiveX3Levels",
					"outputs": [
						{
							"internalType": "bool",
							"name": "",
							"type": "bool"
						}
					],
					"stateMutability": "view",
					"type": "function"
				},
				{
					"inputs": [
						{
							"internalType": "address",
							"name": "userAddress",
							"type": "address"
						},
						{
							"internalType": "uint8",
							"name": "level",
							"type": "uint8"
						}
					],
					"name": "usersX3Matrix",
					"outputs": [
						{
							"internalType": "address",
							"name": "",
							"type": "address"
						},
						{
							"internalType": "address[]",
							"name": "",
							"type": "address[]"
						},
						{
							"internalType": "bool",
							"name": "",
							"type": "bool"
						}
					],
					"stateMutability": "view",
					"type": "function"
				},
				{
					"inputs": [
						{
							"internalType": "address",
							"name": "tokenAddress",
							"type": "address"
						}
					],
					"name": "withdrawLostTokens",
					"outputs": [],
					"stateMutability": "nonpayable",
					"type": "function"
				}
			],
			"devdoc": {
				"kind": "dev",
				"methods": {},
				"version": 1
			},
			"evm": {
				"assembly": "    /* \"contracts/_ronix.sol\":10105:19398  contract RonxMatrix is RonxBasic {... */\n  mstore(0x40, 0x80)\n  callvalue\n  dup1\n  iszero\n  tag_1\n  jumpi\n  0x00\n  dup1\n  revert\ntag_1:\n  pop\n  dataSize(sub_0)\n  dup1\n  dataOffset(sub_0)\n  0x00\n  codecopy\n  0x00\n  return\nstop\n\nsub_0: assembly {\n        /* \"contracts/_ronix.sol\":10105:19398  contract RonxMatrix is RonxBasic {... */\n      mstore(0x40, 0x80)\n      callvalue\n      dup1\n      iszero\n      tag_1\n      jumpi\n      0x00\n      dup1\n      revert\n    tag_1:\n      pop\n      jumpi(tag_2, lt(calldatasize, 0x04))\n      shr(0xe0, calldataload(0x00))\n      dup1\n      0x83ba31b2\n      gt\n      tag_29\n      jumpi\n      dup1\n      0xbe389d57\n      gt\n      tag_30\n      jumpi\n      dup1\n      0xcf309012\n      gt\n      tag_31\n      jumpi\n      dup1\n      0xcf309012\n      eq\n      tag_25\n      jumpi\n      dup1\n      0xecabdf79\n      eq\n      tag_26\n      jumpi\n      dup1\n      0xf07b62be\n      eq\n      tag_27\n      jumpi\n      dup1\n      0xfa45323d\n      eq\n      tag_28\n      jumpi\n      jump(tag_3)\n    tag_31:\n      dup1\n      0xbe389d57\n      eq\n      tag_22\n      jumpi\n      dup1\n      0xc89039c5\n      eq\n      tag_23\n      jumpi\n      dup1\n      0xce606ee0\n      eq\n      tag_24\n      jumpi\n      jump(tag_3)\n    tag_30:\n      dup1\n      0x83ba31b2\n      eq\n      tag_16\n      jumpi\n      dup1\n      0x8abf6077\n      eq\n      tag_17\n      jumpi\n      dup1\n      0x9ac7e09e\n      eq\n      tag_18\n      jumpi\n      dup1\n      0xa3546be4\n      eq\n      tag_19\n      jumpi\n      dup1\n      0xa87430ba\n      eq\n      tag_20\n      jumpi\n      dup1\n      0xb99a9671\n      eq\n      tag_21\n      jumpi\n      jump(tag_3)\n    tag_29:\n      dup1\n      0x38d7822b\n      gt\n      tag_32\n      jumpi\n      dup1\n      0x38d7822b\n      eq\n      tag_10\n      jumpi\n      dup1\n      0x4635fd68\n      eq\n      tag_11\n      jumpi\n      dup1\n      0x4783c35b\n      eq\n      tag_12\n      jumpi\n      dup1\n      0x509222cd\n      eq\n      tag_13\n      jumpi\n      dup1\n      0x517999bc\n      eq\n      tag_14\n      jumpi\n      dup1\n      0x797eee24\n      eq\n      tag_15\n      jumpi\n      jump(tag_3)\n    tag_32:\n      dup1\n      0x07279e2a\n      eq\n      tag_4\n      jumpi\n      dup1\n      0x184b9559\n      eq\n      tag_5\n      jumpi\n      dup1\n      0x27e235e3\n      eq\n      tag_6\n      jumpi\n      dup1\n      0x29c70400\n      eq\n      tag_7\n      jumpi\n      dup1\n      0x2a2d0c47\n      eq\n      tag_8\n      jumpi\n      dup1\n      0x348d4487\n      eq\n      tag_9\n      jumpi\n      jump(tag_3)\n    tag_2:\n    tag_3:\n        /* \"contracts/_ronix.sol\":11473:11474  0 */\n      0x00\n        /* \"contracts/_ronix.sol\":11454:11462  msg.data */\n      dup1\n      calldatasize\n        /* \"contracts/_ronix.sol\":11454:11469  msg.data.length */\n      swap1\n      pop\n        /* \"contracts/_ronix.sol\":11454:11474  msg.data.length == 0 */\n      sub\n        /* \"contracts/_ronix.sol\":11451:11539  if(msg.data.length == 0) {... */\n      tag_35\n      jumpi\n        /* \"contracts/_ronix.sol\":11498:11527  registration(msg.sender, id1) */\n      tag_36\n        /* \"contracts/_ronix.sol\":11511:11521  msg.sender */\n      caller\n        /* \"contracts/_ronix.sol\":11523:11526  id1 */\n      0x07\n      0x00\n      swap1\n      sload\n      swap1\n      0x0100\n      exp\n      swap1\n      div\n      0xffffffffffffffffffffffffffffffffffffffff\n      and\n        /* \"contracts/_ronix.sol\":11498:11510  registration */\n      tag_37\n        /* \"contracts/_ronix.sol\":11498:11527  registration(msg.sender, id1) */\n      jump\t// in\n    tag_36:\n        /* \"contracts/_ronix.sol\":11491:11527  return registration(msg.sender, id1) */\n      jump(tag_34)\n        /* \"contracts/_ronix.sol\":11451:11539  if(msg.data.length == 0) {... */\n    tag_35:\n        /* \"contracts/_ronix.sol\":11559:11609  registration(msg.sender, bytesToAddress(msg.data)) */\n      tag_38\n        /* \"contracts/_ronix.sol\":11572:11582  msg.sender */\n      caller\n        /* \"contracts/_ronix.sol\":11584:11608  bytesToAddress(msg.data) */\n      tag_39\n        /* \"contracts/_ronix.sol\":11599:11607  msg.data */\n      0x00\n      calldatasize\n        /* \"contracts/_ronix.sol\":11584:11608  bytesToAddress(msg.data) */\n      dup1\n      dup1\n      0x1f\n      add\n      0x20\n      dup1\n      swap2\n      div\n      mul\n      0x20\n      add\n      mload(0x40)\n      swap1\n      dup2\n      add\n      0x40\n      mstore\n      dup1\n      swap4\n      swap3\n      swap2\n      swap1\n      dup2\n      dup2\n      mstore\n      0x20\n      add\n      dup4\n      dup4\n      dup1\n      dup3\n      dup5\n      calldatacopy\n      0x00\n      dup2\n      dup5\n      add\n      mstore\n      not(0x1f)\n      0x1f\n      dup3\n      add\n      and\n      swap1\n      pop\n      dup1\n      dup4\n      add\n      swap3\n      pop\n      pop\n      pop\n      pop\n      pop\n      pop\n      pop\n        /* \"contracts/_ronix.sol\":11584:11598  bytesToAddress */\n      tag_40\n        /* \"contracts/_ronix.sol\":11584:11608  bytesToAddress(msg.data) */\n      jump\t// in\n    tag_39:\n        /* \"contracts/_ronix.sol\":11559:11571  registration */\n      tag_37\n        /* \"contracts/_ronix.sol\":11559:11609  registration(msg.sender, bytesToAddress(msg.data)) */\n      jump\t// in\n    tag_38:\n        /* \"contracts/_ronix.sol\":11420:11617  fallback() external {... */\n    tag_34:\n        /* \"contracts/_ronix.sol\":10105:19398  contract RonxMatrix is RonxBasic {... */\n      stop\n        /* \"contracts/_ronix.sol\":17065:17220  function usersActiveX3Levels(address userAddress, uint8 level) public view returns(bool) {... */\n    tag_4:\n      tag_41\n      0x04\n      dup1\n      calldatasize\n      sub\n      dup2\n      add\n      swap1\n      tag_42\n      swap2\n      swap1\n      tag_43\n      jump\t// in\n    tag_42:\n      tag_44\n      jump\t// in\n    tag_41:\n      mload(0x40)\n      tag_45\n      swap2\n      swap1\n      tag_46\n      jump\t// in\n    tag_45:\n      mload(0x40)\n      dup1\n      swap2\n      sub\n      swap1\n      return\n        /* \"contracts/_ronix.sol\":10404:11322  function init(address _ownerAddress, address _multisig, IERC20 _depositTokenAddress)public onlyContractOwner{... */\n    tag_5:\n      tag_47\n      0x04\n      dup1\n      calldatasize\n      sub\n      dup2\n      add\n      swap1\n      tag_48\n      swap2\n      swap1\n      tag_49\n      jump\t// in\n    tag_48:\n      tag_50\n      jump\t// in\n    tag_47:\n      stop\n        /* \"contracts/_ronix.sol\":9158:9198  mapping(address => uint) public balances */\n    tag_6:\n      tag_51\n      0x04\n      dup1\n      calldatasize\n      sub\n      dup2\n      add\n      swap1\n      tag_52\n      swap2\n      swap1\n      tag_53\n      jump\t// in\n    tag_52:\n      tag_54\n      jump\t// in\n    tag_51:\n      mload(0x40)\n      tag_55\n      swap2\n      swap1\n      tag_56\n      jump\t// in\n    tag_55:\n      mload(0x40)\n      dup1\n      swap2\n      sub\n      swap1\n      return\n        /* \"contracts/_ronix.sol\":8982:9005  uint8 public LAST_LEVEL */\n    tag_7:\n      tag_57\n      tag_58\n      jump\t// in\n    tag_57:\n      mload(0x40)\n      tag_59\n      swap2\n      swap1\n      tag_60\n      jump\t// in\n    tag_59:\n      mload(0x40)\n      dup1\n      swap2\n      sub\n      swap1\n      return\n        /* \"contracts/_ronix.sol\":9062:9105  mapping(uint => address) public idToAddress */\n    tag_8:\n      tag_61\n      0x04\n      dup1\n      calldatasize\n      sub\n      dup2\n      add\n      swap1\n      tag_62\n      swap2\n      swap1\n      tag_63\n      jump\t// in\n    tag_62:\n      tag_64\n      jump\t// in\n    tag_61:\n      mload(0x40)\n      tag_65\n      swap2\n      swap1\n      tag_66\n      jump\t// in\n    tag_65:\n      mload(0x40)\n      dup1\n      swap2\n      sub\n      swap1\n      return\n        /* \"contracts/_ronix.sol\":9206:9228  uint public lastUserId */\n    tag_9:\n      tag_67\n      tag_68\n      jump\t// in\n    tag_67:\n      mload(0x40)\n      tag_69\n      swap2\n      swap1\n      tag_56\n      jump\t// in\n    tag_69:\n      mload(0x40)\n      dup1\n      swap2\n      sub\n      swap1\n      return\n        /* \"contracts/_ronix.sol\":11767:11923  function registrationFor(address userAddress, address referrerAddress) external onlyUnlocked() {... */\n    tag_10:\n      tag_70\n      0x04\n      dup1\n      calldatasize\n      sub\n      dup2\n      add\n      swap1\n      tag_71\n      swap2\n      swap1\n      tag_72\n      jump\t// in\n    tag_71:\n      tag_73\n      jump\t// in\n    tag_70:\n      stop\n        /* \"contracts/_ronix.sol\":9112:9151  mapping(uint => address) public userIds */\n    tag_11:\n      tag_74\n      0x04\n      dup1\n      calldatasize\n      sub\n      dup2\n      add\n      swap1\n      tag_75\n      swap2\n      swap1\n      tag_63\n      jump\t// in\n    tag_75:\n      tag_76\n      jump\t// in\n    tag_74:\n      mload(0x40)\n      tag_77\n      swap2\n      swap1\n      tag_66\n      jump\t// in\n    tag_77:\n      mload(0x40)\n      dup1\n      swap2\n      sub\n      swap1\n      return\n        /* \"contracts/_ronix.sol\":9260:9283  address public multisig */\n    tag_12:\n      tag_78\n      tag_79\n      jump\t// in\n    tag_78:\n      mload(0x40)\n      tag_80\n      swap2\n      swap1\n      tag_66\n      jump\t// in\n    tag_80:\n      mload(0x40)\n      dup1\n      swap2\n      sub\n      swap1\n      return\n        /* \"contracts/_ronix.sol\":14902:15012  function isUserExists(address user) public view returns (bool) {... */\n    tag_13:\n      tag_81\n      0x04\n      dup1\n      calldatasize\n      sub\n      dup2\n      add\n      swap1\n      tag_82\n      swap2\n      swap1\n      tag_53\n      jump\t// in\n    tag_82:\n      tag_83\n      jump\t// in\n    tag_81:\n      mload(0x40)\n      tag_84\n      swap2\n      swap1\n      tag_46\n      jump\t// in\n    tag_84:\n      mload(0x40)\n      dup1\n      swap2\n      sub\n      swap1\n      return\n        /* \"contracts/_ronix.sol\":9235:9253  address public id1 */\n    tag_14:\n      tag_85\n      tag_86\n      jump\t// in\n    tag_85:\n      mload(0x40)\n      tag_87\n      swap2\n      swap1\n      tag_66\n      jump\t// in\n    tag_87:\n      mload(0x40)\n      dup1\n      swap2\n      sub\n      swap1\n      return\n        /* \"contracts/_ronix.sol\":11625:11759  function registrationExt(address referrerAddress) external onlyUnlocked() {... */\n    tag_15:\n      tag_88\n      0x04\n      dup1\n      calldatasize\n      sub\n      dup2\n      add\n      swap1\n      tag_89\n      swap2\n      swap1\n      tag_53\n      jump\t// in\n    tag_89:\n      tag_90\n      jump\t// in\n    tag_88:\n      stop\n        /* \"contracts/_ronix.sol\":17227:17539  function usersX3Matrix(address userAddress, uint8 level) public view returns(address, address[] memory, bool) {... */\n    tag_16:\n      tag_91\n      0x04\n      dup1\n      calldatasize\n      sub\n      dup2\n      add\n      swap1\n      tag_92\n      swap2\n      swap1\n      tag_43\n      jump\t// in\n    tag_92:\n      tag_93\n      jump\t// in\n    tag_91:\n      mload(0x40)\n      tag_94\n      swap4\n      swap3\n      swap2\n      swap1\n      tag_95\n      jump\t// in\n    tag_94:\n      mload(0x40)\n      dup1\n      swap2\n      sub\n      swap1\n      return\n        /* \"contracts/_ronix.sol\":8416:8435  address public impl */\n    tag_17:\n      tag_96\n      tag_97\n      jump\t// in\n    tag_96:\n      mload(0x40)\n      tag_98\n      swap2\n      swap1\n      tag_66\n      jump\t// in\n    tag_98:\n      mload(0x40)\n      dup1\n      swap2\n      sub\n      swap1\n      return\n        /* \"contracts/_ronix.sol\":9384:9407  uint public BASIC_PRICE */\n    tag_18:\n      tag_99\n      tag_100\n      jump\t// in\n    tag_99:\n      mload(0x40)\n      tag_101\n      swap2\n      swap1\n      tag_56\n      jump\t// in\n    tag_101:\n      mload(0x40)\n      dup1\n      swap2\n      sub\n      swap1\n      return\n        /* \"contracts/_ronix.sol\":18793:19394  function withdrawLostTokens(address tokenAddress) public onlyContractOwner {... */\n    tag_19:\n      tag_102\n      0x04\n      dup1\n      calldatasize\n      sub\n      dup2\n      add\n      swap1\n      tag_103\n      swap2\n      swap1\n      tag_53\n      jump\t// in\n    tag_103:\n      tag_104\n      jump\t// in\n    tag_102:\n      stop\n        /* \"contracts/_ronix.sol\":9018:9055  mapping(address => User) public users */\n    tag_20:\n      tag_105\n      0x04\n      dup1\n      calldatasize\n      sub\n      dup2\n      add\n      swap1\n      tag_106\n      swap2\n      swap1\n      tag_53\n      jump\t// in\n    tag_106:\n      tag_107\n      jump\t// in\n    tag_105:\n      mload(0x40)\n      tag_108\n      swap4\n      swap3\n      swap2\n      swap1\n      tag_109\n      jump\t// in\n    tag_108:\n      mload(0x40)\n      dup1\n      swap2\n      sub\n      swap1\n      return\n        /* \"contracts/_ronix.sol\":12071:12226  function buyNewLevelFor(address userAddress, uint8 matrix, uint8 level) external onlyUnlocked() {... */\n    tag_21:\n      tag_110\n      0x04\n      dup1\n      calldatasize\n      sub\n      dup2\n      add\n      swap1\n      tag_111\n      swap2\n      swap1\n      tag_112\n      jump\t// in\n    tag_111:\n      tag_113\n      jump\t// in\n    tag_110:\n      stop\n        /* \"contracts/_ronix.sol\":11935:12065  function buyNewLevel(uint8 matrix, uint8 level) external onlyUnlocked() {... */\n    tag_22:\n      tag_114\n      0x04\n      dup1\n      calldatasize\n      sub\n      dup2\n      add\n      swap1\n      tag_115\n      swap2\n      swap1\n      tag_116\n      jump\t// in\n    tag_115:\n      tag_117\n      jump\t// in\n    tag_114:\n      stop\n        /* \"contracts/_ronix.sol\":9345:9371  IERC20 public depositToken */\n    tag_23:\n      tag_118\n      tag_119\n      jump\t// in\n    tag_118:\n      mload(0x40)\n      tag_120\n      swap2\n      swap1\n      tag_121\n      jump\t// in\n    tag_120:\n      mload(0x40)\n      dup1\n      swap2\n      sub\n      swap1\n      return\n        /* \"contracts/_ronix.sol\":8442:8470  address public contractOwner */\n    tag_24:\n      tag_122\n      tag_123\n      jump\t// in\n    tag_122:\n      mload(0x40)\n      tag_124\n      swap2\n      swap1\n      tag_66\n      jump\t// in\n    tag_124:\n      mload(0x40)\n      dup1\n      swap2\n      sub\n      swap1\n      return\n        /* \"contracts/_ronix.sol\":9416:9434  bool public locked */\n    tag_25:\n      tag_125\n      tag_126\n      jump\t// in\n    tag_125:\n      mload(0x40)\n      tag_127\n      swap2\n      swap1\n      tag_46\n      jump\t// in\n    tag_127:\n      mload(0x40)\n      dup1\n      swap2\n      sub\n      swap1\n      return\n        /* \"contracts/_ronix.sol\":9296:9336  mapping(uint8 => uint) public levelPrice */\n    tag_26:\n      tag_128\n      0x04\n      dup1\n      calldatasize\n      sub\n      dup2\n      add\n      swap1\n      tag_129\n      swap2\n      swap1\n      tag_130\n      jump\t// in\n    tag_129:\n      tag_131\n      jump\t// in\n    tag_128:\n      mload(0x40)\n      tag_132\n      swap2\n      swap1\n      tag_56\n      jump\t// in\n    tag_132:\n      mload(0x40)\n      dup1\n      swap2\n      sub\n      swap1\n      return\n        /* \"contracts/_ronix.sol\":11328:11414  function changeLock() external onlyContractOwner() {... */\n    tag_27:\n      tag_133\n      tag_134\n      jump\t// in\n    tag_133:\n      stop\n        /* \"contracts/_ronix.sol\":15018:15367  function findFreeX3Referrer(address userAddress, uint8 level) public view returns(address) {... */\n    tag_28:\n      tag_135\n      0x04\n      dup1\n      calldatasize\n      sub\n      dup2\n      add\n      swap1\n      tag_136\n      swap2\n      swap1\n      tag_43\n      jump\t// in\n    tag_136:\n      tag_137\n      jump\t// in\n    tag_135:\n      mload(0x40)\n      tag_138\n      swap2\n      swap1\n      tag_66\n      jump\t// in\n    tag_138:\n      mload(0x40)\n      dup1\n      swap2\n      sub\n      swap1\n      return\n        /* \"contracts/_ronix.sol\":13465:14731  function registration(address userAddress, address referrerAddress) private {... */\n    tag_37:\n        /* \"contracts/_ronix.sol\":13553:13630  depositToken.safeTransferFrom(msg.sender, address(this), (BASIC_PRICE * 4)+5) */\n      tag_140\n        /* \"contracts/_ronix.sol\":13583:13593  msg.sender */\n      caller\n        /* \"contracts/_ronix.sol\":13603:13607  this */\n      address\n        /* \"contracts/_ronix.sol\":13628:13629  5 */\n      0x05\n        /* \"contracts/_ronix.sol\":13625:13626  4 */\n      0x04\n        /* \"contracts/_ronix.sol\":13611:13622  BASIC_PRICE */\n      sload(0x0b)\n        /* \"contracts/_ronix.sol\":13611:13626  BASIC_PRICE * 4 */\n      tag_141\n      swap2\n      swap1\n      tag_142\n      jump\t// in\n    tag_141:\n        /* \"contracts/_ronix.sol\":13610:13629  (BASIC_PRICE * 4)+5 */\n      tag_143\n      swap2\n      swap1\n      tag_144\n      jump\t// in\n    tag_143:\n        /* \"contracts/_ronix.sol\":13553:13565  depositToken */\n      0x0a\n      0x00\n      swap1\n      sload\n      swap1\n      0x0100\n      exp\n      swap1\n      div\n      0xffffffffffffffffffffffffffffffffffffffff\n      and\n        /* \"contracts/_ronix.sol\":13553:13582  depositToken.safeTransferFrom */\n      0xffffffffffffffffffffffffffffffffffffffff\n      and\n      tag_145\n      swap1\n        /* \"contracts/_ronix.sol\":13553:13630  depositToken.safeTransferFrom(msg.sender, address(this), (BASIC_PRICE * 4)+5) */\n      swap4\n      swap3\n      swap2\n      swap1\n      0xffffffff\n      and\n      jump\t// in\n    tag_140:\n        /* \"contracts/_ronix.sol\":13733:13758  isUserExists(userAddress) */\n      tag_146\n        /* \"contracts/_ronix.sol\":13746:13757  userAddress */\n      dup3\n        /* \"contracts/_ronix.sol\":13733:13745  isUserExists */\n      tag_83\n        /* \"contracts/_ronix.sol\":13733:13758  isUserExists(userAddress) */\n      jump\t// in\n    tag_146:\n        /* \"contracts/_ronix.sol\":13732:13758  !isUserExists(userAddress) */\n      iszero\n        /* \"contracts/_ronix.sol\":13724:13774  require(!isUserExists(userAddress), \"user exists\") */\n      tag_147\n      jumpi\n      mload(0x40)\n      0x08c379a000000000000000000000000000000000000000000000000000000000\n      dup2\n      mstore\n      0x04\n      add\n      tag_148\n      swap1\n      tag_149\n      jump\t// in\n    tag_148:\n      mload(0x40)\n      dup1\n      swap2\n      sub\n      swap1\n      revert\n    tag_147:\n        /* \"contracts/_ronix.sol\":13793:13822  isUserExists(referrerAddress) */\n      tag_150\n        /* \"contracts/_ronix.sol\":13806:13821  referrerAddress */\n      dup2\n        /* \"contracts/_ronix.sol\":13793:13805  isUserExists */\n      tag_83\n        /* \"contracts/_ronix.sol\":13793:13822  isUserExists(referrerAddress) */\n      jump\t// in\n    tag_150:\n        /* \"contracts/_ronix.sol\":13785:13846  require(isUserExists(referrerAddress), \"referrer not exists\") */\n      tag_151\n      jumpi\n      mload(0x40)\n      0x08c379a000000000000000000000000000000000000000000000000000000000\n      dup2\n      mstore\n      0x04\n      add\n      tag_152\n      swap1\n      tag_153\n      jump\t// in\n    tag_152:\n      mload(0x40)\n      dup1\n      swap2\n      sub\n      swap1\n      revert\n    tag_151:\n        /* \"contracts/_ronix.sol\":13867:13878  uint32 size */\n      0x00\n        /* \"contracts/_ronix.sol\":13933:13944  userAddress */\n      dup3\n        /* \"contracts/_ronix.sol\":13921:13945  extcodesize(userAddress) */\n      extcodesize\n        /* \"contracts/_ronix.sol\":13913:13945  size := extcodesize(userAddress) */\n      swap1\n      pop\n        /* \"contracts/_ronix.sol\":13967:13984  User storage user */\n      0x00\n        /* \"contracts/_ronix.sol\":13987:13992  users */\n      0x02\n        /* \"contracts/_ronix.sol\":13987:14005  users[userAddress] */\n      0x00\n        /* \"contracts/_ronix.sol\":13993:14004  userAddress */\n      dup6\n        /* \"contracts/_ronix.sol\":13987:14005  users[userAddress] */\n      0xffffffffffffffffffffffffffffffffffffffff\n      and\n      0xffffffffffffffffffffffffffffffffffffffff\n      and\n      dup2\n      mstore\n      0x20\n      add\n      swap1\n      dup2\n      mstore\n      0x20\n      add\n      0x00\n      keccak256\n        /* \"contracts/_ronix.sol\":13967:14005  User storage user = users[userAddress] */\n      swap1\n      pop\n        /* \"contracts/_ronix.sol\":14026:14036  lastUserId */\n      sload(0x06)\n        /* \"contracts/_ronix.sol\":14016:14020  user */\n      dup2\n        /* \"contracts/_ronix.sol\":14016:14023  user.id */\n      0x00\n      add\n        /* \"contracts/_ronix.sol\":14016:14036  user.id = lastUserId */\n      dup2\n      swap1\n      sstore\n      pop\n        /* \"contracts/_ronix.sol\":14063:14078  referrerAddress */\n      dup3\n        /* \"contracts/_ronix.sol\":14047:14051  user */\n      dup2\n        /* \"contracts/_ronix.sol\":14047:14060  user.referrer */\n      0x01\n      add\n      0x00\n        /* \"contracts/_ronix.sol\":14047:14078  user.referrer = referrerAddress */\n      0x0100\n      exp\n      dup2\n      sload\n      dup2\n      0xffffffffffffffffffffffffffffffffffffffff\n      mul\n      not\n      and\n      swap1\n      dup4\n      0xffffffffffffffffffffffffffffffffffffffff\n      and\n      mul\n      or\n      swap1\n      sstore\n      pop\n        /* \"contracts/_ronix.sol\":14110:14111  0 */\n      0x00\n        /* \"contracts/_ronix.sol\":14089:14093  user */\n      dup2\n        /* \"contracts/_ronix.sol\":14089:14107  user.partnersCount */\n      0x02\n      add\n        /* \"contracts/_ronix.sol\":14089:14111  user.partnersCount = 0 */\n      dup2\n      swap1\n      sstore\n      pop\n        /* \"contracts/_ronix.sol\":14148:14159  userAddress */\n      dup4\n        /* \"contracts/_ronix.sol\":14122:14133  idToAddress */\n      0x03\n        /* \"contracts/_ronix.sol\":14122:14145  idToAddress[lastUserId] */\n      0x00\n        /* \"contracts/_ronix.sol\":14134:14144  lastUserId */\n      sload(0x06)\n        /* \"contracts/_ronix.sol\":14122:14145  idToAddress[lastUserId] */\n      dup2\n      mstore\n      0x20\n      add\n      swap1\n      dup2\n      mstore\n      0x20\n      add\n      0x00\n      keccak256\n      0x00\n        /* \"contracts/_ronix.sol\":14122:14159  idToAddress[lastUserId] = userAddress */\n      0x0100\n      exp\n      dup2\n      sload\n      dup2\n      0xffffffffffffffffffffffffffffffffffffffff\n      mul\n      not\n      and\n      swap1\n      dup4\n      0xffffffffffffffffffffffffffffffffffffffff\n      and\n      mul\n      or\n      swap1\n      sstore\n      pop\n        /* \"contracts/_ronix.sol\":14210:14225  referrerAddress */\n      dup3\n        /* \"contracts/_ronix.sol\":14180:14185  users */\n      0x02\n        /* \"contracts/_ronix.sol\":14180:14198  users[userAddress] */\n      0x00\n        /* \"contracts/_ronix.sol\":14186:14197  userAddress */\n      dup7\n        /* \"contracts/_ronix.sol\":14180:14198  users[userAddress] */\n      0xffffffffffffffffffffffffffffffffffffffff\n      and\n      0xffffffffffffffffffffffffffffffffffffffff\n      and\n      dup2\n      mstore\n      0x20\n      add\n      swap1\n      dup2\n      mstore\n      0x20\n      add\n      0x00\n      keccak256\n        /* \"contracts/_ronix.sol\":14180:14207  users[userAddress].referrer */\n      0x01\n      add\n      0x00\n        /* \"contracts/_ronix.sol\":14180:14225  users[userAddress].referrer = referrerAddress */\n      0x0100\n      exp\n      dup2\n      sload\n      dup2\n      0xffffffffffffffffffffffffffffffffffffffff\n      mul\n      not\n      and\n      swap1\n      dup4\n      0xffffffffffffffffffffffffffffffffffffffff\n      and\n      mul\n      or\n      swap1\n      sstore\n      pop\n        /* \"contracts/_ronix.sol\":14285:14289  true */\n      0x01\n        /* \"contracts/_ronix.sol\":14246:14251  users */\n      0x02\n        /* \"contracts/_ronix.sol\":14246:14264  users[userAddress] */\n      0x00\n        /* \"contracts/_ronix.sol\":14252:14263  userAddress */\n      dup7\n        /* \"contracts/_ronix.sol\":14246:14264  users[userAddress] */\n      0xffffffffffffffffffffffffffffffffffffffff\n      and\n      0xffffffffffffffffffffffffffffffffffffffff\n      and\n      dup2\n      mstore\n      0x20\n      add\n      swap1\n      dup2\n      mstore\n      0x20\n      add\n      0x00\n      keccak256\n        /* \"contracts/_ronix.sol\":14246:14279  users[userAddress].activeX3Levels */\n      0x03\n      add\n        /* \"contracts/_ronix.sol\":14246:14282  users[userAddress].activeX3Levels[1] */\n      0x00\n        /* \"contracts/_ronix.sol\":14280:14281  1 */\n      0x01\n        /* \"contracts/_ronix.sol\":14246:14282  users[userAddress].activeX3Levels[1] */\n      0xff\n      and\n      dup2\n      mstore\n      0x20\n      add\n      swap1\n      dup2\n      mstore\n      0x20\n      add\n      0x00\n      keccak256\n      0x00\n        /* \"contracts/_ronix.sol\":14246:14289  users[userAddress].activeX3Levels[1] = true */\n      0x0100\n      exp\n      dup2\n      sload\n      dup2\n      0xff\n      mul\n      not\n      and\n      swap1\n      dup4\n      iszero\n      iszero\n      mul\n      or\n      swap1\n      sstore\n      pop\n        /* \"contracts/_ronix.sol\":14324:14335  userAddress */\n      dup4\n        /* \"contracts/_ronix.sol\":14302:14309  userIds */\n      0x04\n        /* \"contracts/_ronix.sol\":14302:14321  userIds[lastUserId] */\n      0x00\n        /* \"contracts/_ronix.sol\":14310:14320  lastUserId */\n      sload(0x06)\n        /* \"contracts/_ronix.sol\":14302:14321  userIds[lastUserId] */\n      dup2\n      mstore\n      0x20\n      add\n      swap1\n      dup2\n      mstore\n      0x20\n      add\n      0x00\n      keccak256\n      0x00\n        /* \"contracts/_ronix.sol\":14302:14335  userIds[lastUserId] = userAddress */\n      0x0100\n      exp\n      dup2\n      sload\n      dup2\n      0xffffffffffffffffffffffffffffffffffffffff\n      mul\n      not\n      and\n      swap1\n      dup4\n      0xffffffffffffffffffffffffffffffffffffffff\n      and\n      mul\n      or\n      swap1\n      sstore\n      pop\n        /* \"contracts/_ronix.sol\":14346:14356  lastUserId */\n      0x06\n      0x00\n        /* \"contracts/_ronix.sol\":14346:14358  lastUserId++ */\n      dup2\n      sload\n      dup1\n      swap3\n      swap2\n      swap1\n      tag_154\n      swap1\n      tag_155\n      jump\t// in\n    tag_154:\n      swap2\n      swap1\n      pop\n      sstore\n      pop\n        /* \"contracts/_ronix.sol\":14373:14378  users */\n      0x02\n        /* \"contracts/_ronix.sol\":14373:14395  users[referrerAddress] */\n      0x00\n        /* \"contracts/_ronix.sol\":14379:14394  referrerAddress */\n      dup5\n        /* \"contracts/_ronix.sol\":14373:14395  users[referrerAddress] */\n      0xffffffffffffffffffffffffffffffffffffffff\n      and\n      0xffffffffffffffffffffffffffffffffffffffff\n      and\n      dup2\n      mstore\n      0x20\n      add\n      swap1\n      dup2\n      mstore\n      0x20\n      add\n      0x00\n      keccak256\n        /* \"contracts/_ronix.sol\":14373:14409  users[referrerAddress].partnersCount */\n      0x02\n      add\n      0x00\n        /* \"contracts/_ronix.sol\":14373:14411  users[referrerAddress].partnersCount++ */\n      dup2\n      sload\n      dup1\n      swap3\n      swap2\n      swap1\n      tag_156\n      swap1\n      tag_155\n      jump\t// in\n    tag_156:\n      swap2\n      swap1\n      pop\n      sstore\n      pop\n        /* \"contracts/_ronix.sol\":14422:14444  address freeX3Referrer */\n      0x00\n        /* \"contracts/_ronix.sol\":14447:14481  findFreeX3Referrer(userAddress, 1) */\n      tag_157\n        /* \"contracts/_ronix.sol\":14466:14477  userAddress */\n      dup6\n        /* \"contracts/_ronix.sol\":14479:14480  1 */\n      0x01\n        /* \"contracts/_ronix.sol\":14447:14465  findFreeX3Referrer */\n      tag_137\n        /* \"contracts/_ronix.sol\":14447:14481  findFreeX3Referrer(userAddress, 1) */\n      jump\t// in\n    tag_157:\n        /* \"contracts/_ronix.sol\":14422:14481  address freeX3Referrer = findFreeX3Referrer(userAddress, 1) */\n      swap1\n      pop\n        /* \"contracts/_ronix.sol\":14541:14555  freeX3Referrer */\n      dup1\n        /* \"contracts/_ronix.sol\":14492:14497  users */\n      0x02\n        /* \"contracts/_ronix.sol\":14492:14510  users[userAddress] */\n      0x00\n        /* \"contracts/_ronix.sol\":14498:14509  userAddress */\n      dup8\n        /* \"contracts/_ronix.sol\":14492:14510  users[userAddress] */\n      0xffffffffffffffffffffffffffffffffffffffff\n      and\n      0xffffffffffffffffffffffffffffffffffffffff\n      and\n      dup2\n      mstore\n      0x20\n      add\n      swap1\n      dup2\n      mstore\n      0x20\n      add\n      0x00\n      keccak256\n        /* \"contracts/_ronix.sol\":14492:14519  users[userAddress].x3Matrix */\n      0x04\n      add\n        /* \"contracts/_ronix.sol\":14492:14522  users[userAddress].x3Matrix[1] */\n      0x00\n        /* \"contracts/_ronix.sol\":14520:14521  1 */\n      0x01\n        /* \"contracts/_ronix.sol\":14492:14522  users[userAddress].x3Matrix[1] */\n      0xff\n      and\n      dup2\n      mstore\n      0x20\n      add\n      swap1\n      dup2\n      mstore\n      0x20\n      add\n      0x00\n      keccak256\n        /* \"contracts/_ronix.sol\":14492:14538  users[userAddress].x3Matrix[1].currentReferrer */\n      0x00\n      add\n      0x00\n        /* \"contracts/_ronix.sol\":14492:14555  users[userAddress].x3Matrix[1].currentReferrer = freeX3Referrer */\n      0x0100\n      exp\n      dup2\n      sload\n      dup2\n      0xffffffffffffffffffffffffffffffffffffffff\n      mul\n      not\n      and\n      swap1\n      dup4\n      0xffffffffffffffffffffffffffffffffffffffff\n      and\n      mul\n      or\n      swap1\n      sstore\n      pop\n        /* \"contracts/_ronix.sol\":14566:14614  updateX3Referrer(userAddress, freeX3Referrer, 1) */\n      tag_158\n        /* \"contracts/_ronix.sol\":14583:14594  userAddress */\n      dup6\n        /* \"contracts/_ronix.sol\":14596:14610  freeX3Referrer */\n      dup3\n        /* \"contracts/_ronix.sol\":14612:14613  1 */\n      0x01\n        /* \"contracts/_ronix.sol\":14566:14582  updateX3Referrer */\n      tag_159\n        /* \"contracts/_ronix.sol\":14566:14614  updateX3Referrer(userAddress, freeX3Referrer, 1) */\n      jump\t// in\n    tag_158:\n        /* \"contracts/_ronix.sol\":14673:14678  users */\n      0x02\n        /* \"contracts/_ronix.sol\":14673:14691  users[userAddress] */\n      0x00\n        /* \"contracts/_ronix.sol\":14679:14690  userAddress */\n      dup7\n        /* \"contracts/_ronix.sol\":14673:14691  users[userAddress] */\n      0xffffffffffffffffffffffffffffffffffffffff\n      and\n      0xffffffffffffffffffffffffffffffffffffffff\n      and\n      dup2\n      mstore\n      0x20\n      add\n      swap1\n      dup2\n      mstore\n      0x20\n      add\n      0x00\n      keccak256\n        /* \"contracts/_ronix.sol\":14673:14694  users[userAddress].id */\n      0x00\n      add\n      sload\n        /* \"contracts/_ronix.sol\":14656:14671  referrerAddress */\n      dup5\n        /* \"contracts/_ronix.sol\":14630:14722  Registration(userAddress, referrerAddress, users[userAddress].id, users[referrerAddress].id) */\n      0xffffffffffffffffffffffffffffffffffffffff\n      and\n        /* \"contracts/_ronix.sol\":14643:14654  userAddress */\n      dup7\n        /* \"contracts/_ronix.sol\":14630:14722  Registration(userAddress, referrerAddress, users[userAddress].id, users[referrerAddress].id) */\n      0xffffffffffffffffffffffffffffffffffffffff\n      and\n      0x309bb360e8b69c23937ccc5fb01f9aeeead1c95a99604e175113ff82f2b1723a\n        /* \"contracts/_ronix.sol\":14696:14701  users */\n      0x02\n        /* \"contracts/_ronix.sol\":14696:14718  users[referrerAddress] */\n      0x00\n        /* \"contracts/_ronix.sol\":14702:14717  referrerAddress */\n      dup10\n        /* \"contracts/_ronix.sol\":14696:14718  users[referrerAddress] */\n      0xffffffffffffffffffffffffffffffffffffffff\n      and\n      0xffffffffffffffffffffffffffffffffffffffff\n      and\n      dup2\n      mstore\n      0x20\n      add\n      swap1\n      dup2\n      mstore\n      0x20\n      add\n      0x00\n      keccak256\n        /* \"contracts/_ronix.sol\":14696:14721  users[referrerAddress].id */\n      0x00\n      add\n      sload\n        /* \"contracts/_ronix.sol\":14630:14722  Registration(userAddress, referrerAddress, users[userAddress].id, users[referrerAddress].id) */\n      mload(0x40)\n      tag_160\n      swap2\n      swap1\n      tag_56\n      jump\t// in\n    tag_160:\n      mload(0x40)\n      dup1\n      swap2\n      sub\n      swap1\n      log4\n        /* \"contracts/_ronix.sol\":13541:14731  {... */\n      pop\n      pop\n      pop\n        /* \"contracts/_ronix.sol\":13465:14731  function registration(address userAddress, address referrerAddress) private {... */\n      pop\n      pop\n      jump\t// out\n        /* \"contracts/_ronix.sol\":14738:14896  function bytesToAddress(bytes memory bys) private pure returns (address addr) {... */\n    tag_40:\n        /* \"contracts/_ronix.sol\":14802:14814  address addr */\n      0x00\n        /* \"contracts/_ronix.sol\":14874:14876  20 */\n      0x14\n        /* \"contracts/_ronix.sol\":14869:14872  bys */\n      dup3\n        /* \"contracts/_ronix.sol\":14865:14877  add(bys, 20) */\n      add\n        /* \"contracts/_ronix.sol\":14859:14878  mload(add(bys, 20)) */\n      mload\n        /* \"contracts/_ronix.sol\":14851:14878  addr := mload(add(bys, 20)) */\n      swap1\n      pop\n        /* \"contracts/_ronix.sol\":14738:14896  function bytesToAddress(bytes memory bys) private pure returns (address addr) {... */\n      swap2\n      swap1\n      pop\n      jump\t// out\n        /* \"contracts/_ronix.sol\":17065:17220  function usersActiveX3Levels(address userAddress, uint8 level) public view returns(bool) {... */\n    tag_44:\n        /* \"contracts/_ronix.sol\":17148:17152  bool */\n      0x00\n        /* \"contracts/_ronix.sol\":17172:17177  users */\n      0x02\n        /* \"contracts/_ronix.sol\":17172:17190  users[userAddress] */\n      0x00\n        /* \"contracts/_ronix.sol\":17178:17189  userAddress */\n      dup5\n        /* \"contracts/_ronix.sol\":17172:17190  users[userAddress] */\n      0xffffffffffffffffffffffffffffffffffffffff\n      and\n      0xffffffffffffffffffffffffffffffffffffffff\n      and\n      dup2\n      mstore\n      0x20\n      add\n      swap1\n      dup2\n      mstore\n      0x20\n      add\n      0x00\n      keccak256\n        /* \"contracts/_ronix.sol\":17172:17205  users[userAddress].activeX3Levels */\n      0x03\n      add\n        /* \"contracts/_ronix.sol\":17172:17212  users[userAddress].activeX3Levels[level] */\n      0x00\n        /* \"contracts/_ronix.sol\":17206:17211  level */\n      dup4\n        /* \"contracts/_ronix.sol\":17172:17212  users[userAddress].activeX3Levels[level] */\n      0xff\n      and\n      0xff\n      and\n      dup2\n      mstore\n      0x20\n      add\n      swap1\n      dup2\n      mstore\n      0x20\n      add\n      0x00\n      keccak256\n      0x00\n      swap1\n      sload\n      swap1\n      0x0100\n      exp\n      swap1\n      div\n      0xff\n      and\n        /* \"contracts/_ronix.sol\":17165:17212  return users[userAddress].activeX3Levels[level] */\n      swap1\n      pop\n        /* \"contracts/_ronix.sol\":17065:17220  function usersActiveX3Levels(address userAddress, uint8 level) public view returns(bool) {... */\n      swap3\n      swap2\n      pop\n      pop\n      jump\t// out\n        /* \"contracts/_ronix.sol\":10404:11322  function init(address _ownerAddress, address _multisig, IERC20 _depositTokenAddress)public onlyContractOwner{... */\n    tag_50:\n        /* \"contracts/_ronix.sol\":10241:10254  contractOwner */\n      0x01\n      0x00\n      swap1\n      sload\n      swap1\n      0x0100\n      exp\n      swap1\n      div\n      0xffffffffffffffffffffffffffffffffffffffff\n      and\n        /* \"contracts/_ronix.sol\":10227:10254  msg.sender == contractOwner */\n      0xffffffffffffffffffffffffffffffffffffffff\n      and\n        /* \"contracts/_ronix.sol\":10227:10237  msg.sender */\n      caller\n        /* \"contracts/_ronix.sol\":10227:10254  msg.sender == contractOwner */\n      0xffffffffffffffffffffffffffffffffffffffff\n      and\n      eq\n        /* \"contracts/_ronix.sol\":10219:10268  require(msg.sender == contractOwner, \"onlyOwner\") */\n      tag_164\n      jumpi\n      mload(0x40)\n      0x08c379a000000000000000000000000000000000000000000000000000000000\n      dup2\n      mstore\n      0x04\n      add\n      tag_165\n      swap1\n      tag_166\n      jump\t// in\n    tag_165:\n      mload(0x40)\n      dup1\n      swap2\n      sub\n      swap1\n      revert\n    tag_164:\n        /* \"contracts/_ronix.sol\":10538:10542  5e18 */\n      0x4563918244f40000\n        /* \"contracts/_ronix.sol\":10523:10534  BASIC_PRICE */\n      0x0b\n        /* \"contracts/_ronix.sol\":10523:10542  BASIC_PRICE =  5e18 */\n      dup2\n      swap1\n      sstore\n      pop\n        /* \"contracts/_ronix.sol\":10566:10568  12 */\n      0x0c\n        /* \"contracts/_ronix.sol\":10553:10563  LAST_LEVEL */\n      0x01\n      0x14\n        /* \"contracts/_ronix.sol\":10553:10568  LAST_LEVEL = 12 */\n      0x0100\n      exp\n      dup2\n      sload\n      dup2\n      0xff\n      mul\n      not\n      and\n      swap1\n      dup4\n      0xff\n      and\n      mul\n      or\n      swap1\n      sstore\n      pop\n        /* \"contracts/_ronix.sol\":10595:10606  BASIC_PRICE */\n      sload(0x0b)\n        /* \"contracts/_ronix.sol\":10579:10589  levelPrice */\n      0x09\n        /* \"contracts/_ronix.sol\":10579:10592  levelPrice[1] */\n      0x00\n        /* \"contracts/_ronix.sol\":10590:10591  1 */\n      0x01\n        /* \"contracts/_ronix.sol\":10579:10592  levelPrice[1] */\n      0xff\n      and\n      dup2\n      mstore\n      0x20\n      add\n      swap1\n      dup2\n      mstore\n      0x20\n      add\n      0x00\n      keccak256\n        /* \"contracts/_ronix.sol\":10579:10606  levelPrice[1] = BASIC_PRICE */\n      dup2\n      swap1\n      sstore\n      pop\n        /* \"contracts/_ronix.sol\":10622:10629  uint8 i */\n      0x00\n        /* \"contracts/_ronix.sol\":10632:10633  2 */\n      0x02\n        /* \"contracts/_ronix.sol\":10622:10633  uint8 i = 2 */\n      swap1\n      pop\n        /* \"contracts/_ronix.sol\":10617:10710  for (uint8 i = 2; i <= 8; i++) {... */\n    tag_168:\n        /* \"contracts/_ronix.sol\":10640:10641  8 */\n      0x08\n        /* \"contracts/_ronix.sol\":10635:10636  i */\n      dup2\n        /* \"contracts/_ronix.sol\":10635:10641  i <= 8 */\n      0xff\n      and\n      gt\n        /* \"contracts/_ronix.sol\":10617:10710  for (uint8 i = 2; i <= 8; i++) {... */\n      tag_169\n      jumpi\n        /* \"contracts/_ronix.sol\":10697:10698  2 */\n      0x02\n        /* \"contracts/_ronix.sol\":10679:10689  levelPrice */\n      0x09\n        /* \"contracts/_ronix.sol\":10679:10694  levelPrice[i-1] */\n      0x00\n        /* \"contracts/_ronix.sol\":10692:10693  1 */\n      0x01\n        /* \"contracts/_ronix.sol\":10690:10691  i */\n      dup5\n        /* \"contracts/_ronix.sol\":10690:10693  i-1 */\n      tag_171\n      swap2\n      swap1\n      tag_172\n      jump\t// in\n    tag_171:\n        /* \"contracts/_ronix.sol\":10679:10694  levelPrice[i-1] */\n      0xff\n      and\n      0xff\n      and\n      dup2\n      mstore\n      0x20\n      add\n      swap1\n      dup2\n      mstore\n      0x20\n      add\n      0x00\n      keccak256\n      sload\n        /* \"contracts/_ronix.sol\":10679:10698  levelPrice[i-1] * 2 */\n      tag_173\n      swap2\n      swap1\n      tag_142\n      jump\t// in\n    tag_173:\n        /* \"contracts/_ronix.sol\":10663:10673  levelPrice */\n      0x09\n        /* \"contracts/_ronix.sol\":10663:10676  levelPrice[i] */\n      0x00\n        /* \"contracts/_ronix.sol\":10674:10675  i */\n      dup4\n        /* \"contracts/_ronix.sol\":10663:10676  levelPrice[i] */\n      0xff\n      and\n      0xff\n      and\n      dup2\n      mstore\n      0x20\n      add\n      swap1\n      dup2\n      mstore\n      0x20\n      add\n      0x00\n      keccak256\n        /* \"contracts/_ronix.sol\":10663:10698  levelPrice[i] = levelPrice[i-1] * 2 */\n      dup2\n      swap1\n      sstore\n      pop\n        /* \"contracts/_ronix.sol\":10643:10646  i++ */\n      dup1\n      dup1\n      tag_174\n      swap1\n      tag_175\n      jump\t// in\n    tag_174:\n      swap2\n      pop\n      pop\n        /* \"contracts/_ronix.sol\":10617:10710  for (uint8 i = 2; i <= 8; i++) {... */\n      jump(tag_168)\n    tag_169:\n      pop\n        /* \"contracts/_ronix.sol\":10736:10743  1250e18 */\n      0x43c33c193756480000\n        /* \"contracts/_ronix.sol\":10720:10730  levelPrice */\n      0x09\n        /* \"contracts/_ronix.sol\":10720:10733  levelPrice[9] */\n      0x00\n        /* \"contracts/_ronix.sol\":10731:10732  9 */\n      0x09\n        /* \"contracts/_ronix.sol\":10720:10733  levelPrice[9] */\n      0xff\n      and\n      dup2\n      mstore\n      0x20\n      add\n      swap1\n      dup2\n      mstore\n      0x20\n      add\n      0x00\n      keccak256\n        /* \"contracts/_ronix.sol\":10720:10743  levelPrice[9] = 1250e18 */\n      dup2\n      swap1\n      sstore\n      pop\n        /* \"contracts/_ronix.sol\":10771:10778  2500e18 */\n      0x878678326eac900000\n        /* \"contracts/_ronix.sol\":10754:10764  levelPrice */\n      0x09\n        /* \"contracts/_ronix.sol\":10754:10768  levelPrice[10] */\n      0x00\n        /* \"contracts/_ronix.sol\":10765:10767  10 */\n      0x0a\n        /* \"contracts/_ronix.sol\":10754:10768  levelPrice[10] */\n      0xff\n      and\n      dup2\n      mstore\n      0x20\n      add\n      swap1\n      dup2\n      mstore\n      0x20\n      add\n      0x00\n      keccak256\n        /* \"contracts/_ronix.sol\":10754:10778  levelPrice[10] = 2500e18 */\n      dup2\n      swap1\n      sstore\n      pop\n        /* \"contracts/_ronix.sol\":10806:10813  5000e18 */\n      0x010f0cf064dd59200000\n        /* \"contracts/_ronix.sol\":10789:10799  levelPrice */\n      0x09\n        /* \"contracts/_ronix.sol\":10789:10803  levelPrice[11] */\n      0x00\n        /* \"contracts/_ronix.sol\":10800:10802  11 */\n      0x0b\n        /* \"contracts/_ronix.sol\":10789:10803  levelPrice[11] */\n      0xff\n      and\n      dup2\n      mstore\n      0x20\n      add\n      swap1\n      dup2\n      mstore\n      0x20\n      add\n      0x00\n      keccak256\n        /* \"contracts/_ronix.sol\":10789:10813  levelPrice[11] = 5000e18 */\n      dup2\n      swap1\n      sstore\n      pop\n        /* \"contracts/_ronix.sol\":10841:10848  9900e18 */\n      0x0218ae196b8d4f300000\n        /* \"contracts/_ronix.sol\":10824:10834  levelPrice */\n      0x09\n        /* \"contracts/_ronix.sol\":10824:10838  levelPrice[12] */\n      0x00\n        /* \"contracts/_ronix.sol\":10835:10837  12 */\n      0x0c\n        /* \"contracts/_ronix.sol\":10824:10838  levelPrice[12] */\n      0xff\n      and\n      dup2\n      mstore\n      0x20\n      add\n      swap1\n      dup2\n      mstore\n      0x20\n      add\n      0x00\n      keccak256\n        /* \"contracts/_ronix.sol\":10824:10848  levelPrice[12] = 9900e18 */\n      dup2\n      swap1\n      sstore\n      pop\n        /* \"contracts/_ronix.sol\":10865:10878  _ownerAddress */\n      dup3\n        /* \"contracts/_ronix.sol\":10861:10864  id1 */\n      0x07\n      0x00\n        /* \"contracts/_ronix.sol\":10861:10878  id1=_ownerAddress */\n      0x0100\n      exp\n      dup2\n      sload\n      dup2\n      0xffffffffffffffffffffffffffffffffffffffff\n      mul\n      not\n      and\n      swap1\n      dup4\n      0xffffffffffffffffffffffffffffffffffffffff\n      and\n      mul\n      or\n      swap1\n      sstore\n      pop\n        /* \"contracts/_ronix.sol\":10889:10906  User storage user */\n      0x00\n        /* \"contracts/_ronix.sol\":10909:10914  users */\n      0x02\n        /* \"contracts/_ronix.sol\":10909:10930  users[ _ownerAddress] */\n      0x00\n        /* \"contracts/_ronix.sol\":10916:10929  _ownerAddress */\n      dup6\n        /* \"contracts/_ronix.sol\":10909:10930  users[ _ownerAddress] */\n      0xffffffffffffffffffffffffffffffffffffffff\n      and\n      0xffffffffffffffffffffffffffffffffffffffff\n      and\n      dup2\n      mstore\n      0x20\n      add\n      swap1\n      dup2\n      mstore\n      0x20\n      add\n      0x00\n      keccak256\n        /* \"contracts/_ronix.sol\":10889:10930  User storage user = users[ _ownerAddress] */\n      swap1\n      pop\n        /* \"contracts/_ronix.sol\":10951:10952  1 */\n      0x01\n        /* \"contracts/_ronix.sol\":10941:10945  user */\n      dup2\n        /* \"contracts/_ronix.sol\":10941:10948  user.id */\n      0x00\n      add\n        /* \"contracts/_ronix.sol\":10941:10952  user.id = 1 */\n      dup2\n      swap1\n      sstore\n      pop\n        /* \"contracts/_ronix.sol\":10987:10988  0 */\n      0x00\n        /* \"contracts/_ronix.sol\":10963:10967  user */\n      dup2\n        /* \"contracts/_ronix.sol\":10963:10976  user.referrer */\n      0x01\n      add\n      0x00\n        /* \"contracts/_ronix.sol\":10963:10989  user.referrer = address(0) */\n      0x0100\n      exp\n      dup2\n      sload\n      dup2\n      0xffffffffffffffffffffffffffffffffffffffff\n      mul\n      not\n      and\n      swap1\n      dup4\n      0xffffffffffffffffffffffffffffffffffffffff\n      and\n      mul\n      or\n      swap1\n      sstore\n      pop\n        /* \"contracts/_ronix.sol\":11021:11022  0 */\n      0x00\n        /* \"contracts/_ronix.sol\":11000:11004  user */\n      dup2\n        /* \"contracts/_ronix.sol\":11000:11018  user.partnersCount */\n      0x02\n      add\n        /* \"contracts/_ronix.sol\":11000:11022  user.partnersCount = 0 */\n      dup2\n      swap1\n      sstore\n      pop\n        /* \"contracts/_ronix.sol\":11050:11063  _ownerAddress */\n      dup4\n        /* \"contracts/_ronix.sol\":11033:11044  idToAddress */\n      0x03\n        /* \"contracts/_ronix.sol\":11033:11047  idToAddress[1] */\n      0x00\n        /* \"contracts/_ronix.sol\":11045:11046  1 */\n      0x01\n        /* \"contracts/_ronix.sol\":11033:11047  idToAddress[1] */\n      dup2\n      mstore\n      0x20\n      add\n      swap1\n      dup2\n      mstore\n      0x20\n      add\n      0x00\n      keccak256\n      0x00\n        /* \"contracts/_ronix.sol\":11033:11063  idToAddress[1] = _ownerAddress */\n      0x0100\n      exp\n      dup2\n      sload\n      dup2\n      0xffffffffffffffffffffffffffffffffffffffff\n      mul\n      not\n      and\n      swap1\n      dup4\n      0xffffffffffffffffffffffffffffffffffffffff\n      and\n      mul\n      or\n      swap1\n      sstore\n      pop\n        /* \"contracts/_ronix.sol\":11080:11087  uint8 i */\n      0x00\n        /* \"contracts/_ronix.sol\":11090:11091  1 */\n      0x01\n        /* \"contracts/_ronix.sol\":11080:11091  uint8 i = 1 */\n      swap1\n      pop\n        /* \"contracts/_ronix.sol\":11075:11187  for (uint8 i = 1; i <= LAST_LEVEL; i++) {... */\n    tag_176:\n        /* \"contracts/_ronix.sol\":11098:11108  LAST_LEVEL */\n      0x01\n      0x14\n      swap1\n      sload\n      swap1\n      0x0100\n      exp\n      swap1\n      div\n      0xff\n      and\n        /* \"contracts/_ronix.sol\":11093:11108  i <= LAST_LEVEL */\n      0xff\n      and\n        /* \"contracts/_ronix.sol\":11093:11094  i */\n      dup2\n        /* \"contracts/_ronix.sol\":11093:11108  i <= LAST_LEVEL */\n      0xff\n      and\n      gt\n        /* \"contracts/_ronix.sol\":11075:11187  for (uint8 i = 1; i <= LAST_LEVEL; i++) {... */\n      tag_177\n      jumpi\n        /* \"contracts/_ronix.sol\":11171:11175  true */\n      0x01\n        /* \"contracts/_ronix.sol\":11130:11135  users */\n      0x02\n        /* \"contracts/_ronix.sol\":11130:11150  users[_ownerAddress] */\n      0x00\n        /* \"contracts/_ronix.sol\":11136:11149  _ownerAddress */\n      dup8\n        /* \"contracts/_ronix.sol\":11130:11150  users[_ownerAddress] */\n      0xffffffffffffffffffffffffffffffffffffffff\n      and\n      0xffffffffffffffffffffffffffffffffffffffff\n      and\n      dup2\n      mstore\n      0x20\n      add\n      swap1\n      dup2\n      mstore\n      0x20\n      add\n      0x00\n      keccak256\n        /* \"contracts/_ronix.sol\":11130:11165  users[_ownerAddress].activeX3Levels */\n      0x03\n      add\n        /* \"contracts/_ronix.sol\":11130:11168  users[_ownerAddress].activeX3Levels[i] */\n      0x00\n        /* \"contracts/_ronix.sol\":11166:11167  i */\n      dup4\n        /* \"contracts/_ronix.sol\":11130:11168  users[_ownerAddress].activeX3Levels[i] */\n      0xff\n      and\n      0xff\n      and\n      dup2\n      mstore\n      0x20\n      add\n      swap1\n      dup2\n      mstore\n      0x20\n      add\n      0x00\n      keccak256\n      0x00\n        /* \"contracts/_ronix.sol\":11130:11175  users[_ownerAddress].activeX3Levels[i] = true */\n      0x0100\n      exp\n      dup2\n      sload\n      dup2\n      0xff\n      mul\n      not\n      and\n      swap1\n      dup4\n      iszero\n      iszero\n      mul\n      or\n      swap1\n      sstore\n      pop\n        /* \"contracts/_ronix.sol\":11110:11113  i++ */\n      dup1\n      dup1\n      tag_179\n      swap1\n      tag_175\n      jump\t// in\n    tag_179:\n      swap2\n      pop\n      pop\n        /* \"contracts/_ronix.sol\":11075:11187  for (uint8 i = 1; i <= LAST_LEVEL; i++) {... */\n      jump(tag_176)\n    tag_177:\n      pop\n        /* \"contracts/_ronix.sol\":11210:11211  2 */\n      0x02\n        /* \"contracts/_ronix.sol\":11197:11207  lastUserId */\n      0x06\n        /* \"contracts/_ronix.sol\":11197:11211  lastUserId = 2 */\n      dup2\n      swap1\n      sstore\n      pop\n        /* \"contracts/_ronix.sol\":11237:11257  _depositTokenAddress */\n      dup2\n        /* \"contracts/_ronix.sol\":11222:11234  depositToken */\n      0x0a\n      0x00\n        /* \"contracts/_ronix.sol\":11222:11257  depositToken = _depositTokenAddress */\n      0x0100\n      exp\n      dup2\n      sload\n      dup2\n      0xffffffffffffffffffffffffffffffffffffffff\n      mul\n      not\n      and\n      swap1\n      dup4\n      0xffffffffffffffffffffffffffffffffffffffff\n      and\n      mul\n      or\n      swap1\n      sstore\n      pop\n        /* \"contracts/_ronix.sol\":11279:11288  _multisig */\n      dup3\n        /* \"contracts/_ronix.sol\":11268:11276  multisig */\n      0x08\n      0x00\n        /* \"contracts/_ronix.sol\":11268:11288  multisig = _multisig */\n      0x0100\n      exp\n      dup2\n      sload\n      dup2\n      0xffffffffffffffffffffffffffffffffffffffff\n      mul\n      not\n      and\n      swap1\n      dup4\n      0xffffffffffffffffffffffffffffffffffffffff\n      and\n      mul\n      or\n      swap1\n      sstore\n      pop\n        /* \"contracts/_ronix.sol\":11308:11312  true */\n      0x01\n        /* \"contracts/_ronix.sol\":11299:11305  locked */\n      0x0c\n      0x00\n        /* \"contracts/_ronix.sol\":11299:11312  locked = true */\n      0x0100\n      exp\n      dup2\n      sload\n      dup2\n      0xff\n      mul\n      not\n      and\n      swap1\n      dup4\n      iszero\n      iszero\n      mul\n      or\n      swap1\n      sstore\n      pop\n        /* \"contracts/_ronix.sol\":10512:11322  {... */\n      pop\n        /* \"contracts/_ronix.sol\":10404:11322  function init(address _ownerAddress, address _multisig, IERC20 _depositTokenAddress)public onlyContractOwner{... */\n      pop\n      pop\n      pop\n      jump\t// out\n        /* \"contracts/_ronix.sol\":9158:9198  mapping(address => uint) public balances */\n    tag_54:\n      mstore(0x20, 0x05)\n      dup1\n      0x00\n      mstore\n      keccak256(0x00, 0x40)\n      0x00\n      swap2\n      pop\n      swap1\n      pop\n      sload\n      dup2\n      jump\t// out\n        /* \"contracts/_ronix.sol\":8982:9005  uint8 public LAST_LEVEL */\n    tag_58:\n      0x01\n      0x14\n      swap1\n      sload\n      swap1\n      0x0100\n      exp\n      swap1\n      div\n      0xff\n      and\n      dup2\n      jump\t// out\n        /* \"contracts/_ronix.sol\":9062:9105  mapping(uint => address) public idToAddress */\n    tag_64:\n      mstore(0x20, 0x03)\n      dup1\n      0x00\n      mstore\n      keccak256(0x00, 0x40)\n      0x00\n      swap2\n      pop\n      sload\n      swap1\n      0x0100\n      exp\n      swap1\n      div\n      0xffffffffffffffffffffffffffffffffffffffff\n      and\n      dup2\n      jump\t// out\n        /* \"contracts/_ronix.sol\":9206:9228  uint public lastUserId */\n    tag_68:\n      sload(0x06)\n      dup2\n      jump\t// out\n        /* \"contracts/_ronix.sol\":11767:11923  function registrationFor(address userAddress, address referrerAddress) external onlyUnlocked() {... */\n    tag_73:\n        /* \"contracts/_ronix.sol\":10338:10344  locked */\n      0x0c\n      0x00\n      swap1\n      sload\n      swap1\n      0x0100\n      exp\n      swap1\n      div\n      0xff\n      and\n        /* \"contracts/_ronix.sol\":10337:10344  !locked */\n      iszero\n        /* \"contracts/_ronix.sol\":10337:10375  !locked || msg.sender == contractOwner */\n      dup1\n      tag_181\n      jumpi\n      pop\n        /* \"contracts/_ronix.sol\":10362:10375  contractOwner */\n      0x01\n      0x00\n      swap1\n      sload\n      swap1\n      0x0100\n      exp\n      swap1\n      div\n      0xffffffffffffffffffffffffffffffffffffffff\n      and\n        /* \"contracts/_ronix.sol\":10348:10375  msg.sender == contractOwner */\n      0xffffffffffffffffffffffffffffffffffffffff\n      and\n        /* \"contracts/_ronix.sol\":10348:10358  msg.sender */\n      caller\n        /* \"contracts/_ronix.sol\":10348:10375  msg.sender == contractOwner */\n      0xffffffffffffffffffffffffffffffffffffffff\n      and\n      eq\n        /* \"contracts/_ronix.sol\":10337:10375  !locked || msg.sender == contractOwner */\n    tag_181:\n        /* \"contracts/_ronix.sol\":10329:10376  require(!locked || msg.sender == contractOwner) */\n      tag_182\n      jumpi\n      0x00\n      dup1\n      revert\n    tag_182:\n        /* \"contracts/_ronix.sol\":11873:11915  registration(userAddress, referrerAddress) */\n      tag_184\n        /* \"contracts/_ronix.sol\":11886:11897  userAddress */\n      dup3\n        /* \"contracts/_ronix.sol\":11899:11914  referrerAddress */\n      dup3\n        /* \"contracts/_ronix.sol\":11873:11885  registration */\n      tag_37\n        /* \"contracts/_ronix.sol\":11873:11915  registration(userAddress, referrerAddress) */\n      jump\t// in\n    tag_184:\n        /* \"contracts/_ronix.sol\":11767:11923  function registrationFor(address userAddress, address referrerAddress) external onlyUnlocked() {... */\n      pop\n      pop\n      jump\t// out\n        /* \"contracts/_ronix.sol\":9112:9151  mapping(uint => address) public userIds */\n    tag_76:\n      mstore(0x20, 0x04)\n      dup1\n      0x00\n      mstore\n      keccak256(0x00, 0x40)\n      0x00\n      swap2\n      pop\n      sload\n      swap1\n      0x0100\n      exp\n      swap1\n      div\n      0xffffffffffffffffffffffffffffffffffffffff\n      and\n      dup2\n      jump\t// out\n        /* \"contracts/_ronix.sol\":9260:9283  address public multisig */\n    tag_79:\n      0x08\n      0x00\n      swap1\n      sload\n      swap1\n      0x0100\n      exp\n      swap1\n      div\n      0xffffffffffffffffffffffffffffffffffffffff\n      and\n      dup2\n      jump\t// out\n        /* \"contracts/_ronix.sol\":14902:15012  function isUserExists(address user) public view returns (bool) {... */\n    tag_83:\n        /* \"contracts/_ronix.sol\":14959:14963  bool */\n      0x00\n        /* \"contracts/_ronix.sol\":15002:15003  0 */\n      dup1\n        /* \"contracts/_ronix.sol\":14984:14989  users */\n      0x02\n        /* \"contracts/_ronix.sol\":14984:14995  users[user] */\n      0x00\n        /* \"contracts/_ronix.sol\":14990:14994  user */\n      dup5\n        /* \"contracts/_ronix.sol\":14984:14995  users[user] */\n      0xffffffffffffffffffffffffffffffffffffffff\n      and\n      0xffffffffffffffffffffffffffffffffffffffff\n      and\n      dup2\n      mstore\n      0x20\n      add\n      swap1\n      dup2\n      mstore\n      0x20\n      add\n      0x00\n      keccak256\n        /* \"contracts/_ronix.sol\":14984:14998  users[user].id */\n      0x00\n      add\n      sload\n        /* \"contracts/_ronix.sol\":14984:15003  users[user].id != 0 */\n      eq\n      iszero\n        /* \"contracts/_ronix.sol\":14976:15004  return (users[user].id != 0) */\n      swap1\n      pop\n        /* \"contracts/_ronix.sol\":14902:15012  function isUserExists(address user) public view returns (bool) {... */\n      swap2\n      swap1\n      pop\n      jump\t// out\n        /* \"contracts/_ronix.sol\":9235:9253  address public id1 */\n    tag_86:\n      0x07\n      0x00\n      swap1\n      sload\n      swap1\n      0x0100\n      exp\n      swap1\n      div\n      0xffffffffffffffffffffffffffffffffffffffff\n      and\n      dup2\n      jump\t// out\n        /* \"contracts/_ronix.sol\":11625:11759  function registrationExt(address referrerAddress) external onlyUnlocked() {... */\n    tag_90:\n        /* \"contracts/_ronix.sol\":10338:10344  locked */\n      0x0c\n      0x00\n      swap1\n      sload\n      swap1\n      0x0100\n      exp\n      swap1\n      div\n      0xff\n      and\n        /* \"contracts/_ronix.sol\":10337:10344  !locked */\n      iszero\n        /* \"contracts/_ronix.sol\":10337:10375  !locked || msg.sender == contractOwner */\n      dup1\n      tag_187\n      jumpi\n      pop\n        /* \"contracts/_ronix.sol\":10362:10375  contractOwner */\n      0x01\n      0x00\n      swap1\n      sload\n      swap1\n      0x0100\n      exp\n      swap1\n      div\n      0xffffffffffffffffffffffffffffffffffffffff\n      and\n        /* \"contracts/_ronix.sol\":10348:10375  msg.sender == contractOwner */\n      0xffffffffffffffffffffffffffffffffffffffff\n      and\n        /* \"contracts/_ronix.sol\":10348:10358  msg.sender */\n      caller\n        /* \"contracts/_ronix.sol\":10348:10375  msg.sender == contractOwner */\n      0xffffffffffffffffffffffffffffffffffffffff\n      and\n      eq\n        /* \"contracts/_ronix.sol\":10337:10375  !locked || msg.sender == contractOwner */\n    tag_187:\n        /* \"contracts/_ronix.sol\":10329:10376  require(!locked || msg.sender == contractOwner) */\n      tag_188\n      jumpi\n      0x00\n      dup1\n      revert\n    tag_188:\n        /* \"contracts/_ronix.sol\":11710:11751  registration(msg.sender, referrerAddress) */\n      tag_190\n        /* \"contracts/_ronix.sol\":11723:11733  msg.sender */\n      caller\n        /* \"contracts/_ronix.sol\":11735:11750  referrerAddress */\n      dup3\n        /* \"contracts/_ronix.sol\":11710:11722  registration */\n      tag_37\n        /* \"contracts/_ronix.sol\":11710:11751  registration(msg.sender, referrerAddress) */\n      jump\t// in\n    tag_190:\n        /* \"contracts/_ronix.sol\":11625:11759  function registrationExt(address referrerAddress) external onlyUnlocked() {... */\n      pop\n      jump\t// out\n        /* \"contracts/_ronix.sol\":17227:17539  function usersX3Matrix(address userAddress, uint8 level) public view returns(address, address[] memory, bool) {... */\n    tag_93:\n        /* \"contracts/_ronix.sol\":17304:17311  address */\n      0x00\n        /* \"contracts/_ronix.sol\":17313:17329  address[] memory */\n      0x60\n        /* \"contracts/_ronix.sol\":17331:17335  bool */\n      0x00\n        /* \"contracts/_ronix.sol\":17356:17361  users */\n      0x02\n        /* \"contracts/_ronix.sol\":17356:17374  users[userAddress] */\n      0x00\n        /* \"contracts/_ronix.sol\":17362:17373  userAddress */\n      dup7\n        /* \"contracts/_ronix.sol\":17356:17374  users[userAddress] */\n      0xffffffffffffffffffffffffffffffffffffffff\n      and\n      0xffffffffffffffffffffffffffffffffffffffff\n      and\n      dup2\n      mstore\n      0x20\n      add\n      swap1\n      dup2\n      mstore\n      0x20\n      add\n      0x00\n      keccak256\n        /* \"contracts/_ronix.sol\":17356:17383  users[userAddress].x3Matrix */\n      0x04\n      add\n        /* \"contracts/_ronix.sol\":17356:17390  users[userAddress].x3Matrix[level] */\n      0x00\n        /* \"contracts/_ronix.sol\":17384:17389  level */\n      dup6\n        /* \"contracts/_ronix.sol\":17356:17390  users[userAddress].x3Matrix[level] */\n      0xff\n      and\n      0xff\n      and\n      dup2\n      mstore\n      0x20\n      add\n      swap1\n      dup2\n      mstore\n      0x20\n      add\n      0x00\n      keccak256\n        /* \"contracts/_ronix.sol\":17356:17406  users[userAddress].x3Matrix[level].currentReferrer */\n      0x00\n      add\n      0x00\n      swap1\n      sload\n      swap1\n      0x0100\n      exp\n      swap1\n      div\n      0xffffffffffffffffffffffffffffffffffffffff\n      and\n        /* \"contracts/_ronix.sol\":17425:17430  users */\n      0x02\n        /* \"contracts/_ronix.sol\":17425:17443  users[userAddress] */\n      0x00\n        /* \"contracts/_ronix.sol\":17431:17442  userAddress */\n      dup8\n        /* \"contracts/_ronix.sol\":17425:17443  users[userAddress] */\n      0xffffffffffffffffffffffffffffffffffffffff\n      and\n      0xffffffffffffffffffffffffffffffffffffffff\n      and\n      dup2\n      mstore\n      0x20\n      add\n      swap1\n      dup2\n      mstore\n      0x20\n      add\n      0x00\n      keccak256\n        /* \"contracts/_ronix.sol\":17425:17452  users[userAddress].x3Matrix */\n      0x04\n      add\n        /* \"contracts/_ronix.sol\":17425:17459  users[userAddress].x3Matrix[level] */\n      0x00\n        /* \"contracts/_ronix.sol\":17453:17458  level */\n      dup7\n        /* \"contracts/_ronix.sol\":17425:17459  users[userAddress].x3Matrix[level] */\n      0xff\n      and\n      0xff\n      and\n      dup2\n      mstore\n      0x20\n      add\n      swap1\n      dup2\n      mstore\n      0x20\n      add\n      0x00\n      keccak256\n        /* \"contracts/_ronix.sol\":17425:17469  users[userAddress].x3Matrix[level].referrals */\n      0x01\n      add\n        /* \"contracts/_ronix.sol\":17488:17493  users */\n      0x02\n        /* \"contracts/_ronix.sol\":17488:17506  users[userAddress] */\n      0x00\n        /* \"contracts/_ronix.sol\":17494:17505  userAddress */\n      dup9\n        /* \"contracts/_ronix.sol\":17488:17506  users[userAddress] */\n      0xffffffffffffffffffffffffffffffffffffffff\n      and\n      0xffffffffffffffffffffffffffffffffffffffff\n      and\n      dup2\n      mstore\n      0x20\n      add\n      swap1\n      dup2\n      mstore\n      0x20\n      add\n      0x00\n      keccak256\n        /* \"contracts/_ronix.sol\":17488:17515  users[userAddress].x3Matrix */\n      0x04\n      add\n        /* \"contracts/_ronix.sol\":17488:17522  users[userAddress].x3Matrix[level] */\n      0x00\n        /* \"contracts/_ronix.sol\":17516:17521  level */\n      dup8\n        /* \"contracts/_ronix.sol\":17488:17522  users[userAddress].x3Matrix[level] */\n      0xff\n      and\n      0xff\n      and\n      dup2\n      mstore\n      0x20\n      add\n      swap1\n      dup2\n      mstore\n      0x20\n      add\n      0x00\n      keccak256\n        /* \"contracts/_ronix.sol\":17488:17530  users[userAddress].x3Matrix[level].blocked */\n      0x02\n      add\n      0x00\n      swap1\n      sload\n      swap1\n      0x0100\n      exp\n      swap1\n      div\n      0xff\n      and\n        /* \"contracts/_ronix.sol\":17348:17531  return (users[userAddress].x3Matrix[level].currentReferrer,... */\n      dup2\n      dup1\n      sload\n      dup1\n      0x20\n      mul\n      0x20\n      add\n      mload(0x40)\n      swap1\n      dup2\n      add\n      0x40\n      mstore\n      dup1\n      swap3\n      swap2\n      swap1\n      dup2\n      dup2\n      mstore\n      0x20\n      add\n      dup3\n      dup1\n      sload\n      dup1\n      iszero\n      tag_192\n      jumpi\n      0x20\n      mul\n      dup3\n      add\n      swap2\n      swap1\n      0x00\n      mstore\n      keccak256(0x00, 0x20)\n      swap1\n    tag_193:\n      dup2\n      0x00\n      swap1\n      sload\n      swap1\n      0x0100\n      exp\n      swap1\n      div\n      0xffffffffffffffffffffffffffffffffffffffff\n      and\n      0xffffffffffffffffffffffffffffffffffffffff\n      and\n      dup2\n      mstore\n      0x20\n      add\n      swap1\n      0x01\n      add\n      swap1\n      dup1\n      dup4\n      gt\n      tag_193\n      jumpi\n    tag_192:\n      pop\n      pop\n      pop\n      pop\n      pop\n      swap2\n      pop\n      swap3\n      pop\n      swap3\n      pop\n      swap3\n      pop\n        /* \"contracts/_ronix.sol\":17227:17539  function usersX3Matrix(address userAddress, uint8 level) public view returns(address, address[] memory, bool) {... */\n      swap3\n      pop\n      swap3\n      pop\n      swap3\n      jump\t// out\n        /* \"contracts/_ronix.sol\":8416:8435  address public impl */\n    tag_97:\n      0x00\n      dup1\n      sload\n      swap1\n      0x0100\n      exp\n      swap1\n      div\n      0xffffffffffffffffffffffffffffffffffffffff\n      and\n      dup2\n      jump\t// out\n        /* \"contracts/_ronix.sol\":9384:9407  uint public BASIC_PRICE */\n    tag_100:\n      sload(0x0b)\n      dup2\n      jump\t// out\n        /* \"contracts/_ronix.sol\":18793:19394  function withdrawLostTokens(address tokenAddress) public onlyContractOwner {... */\n    tag_104:\n        /* \"contracts/_ronix.sol\":10241:10254  contractOwner */\n      0x01\n      0x00\n      swap1\n      sload\n      swap1\n      0x0100\n      exp\n      swap1\n      div\n      0xffffffffffffffffffffffffffffffffffffffff\n      and\n        /* \"contracts/_ronix.sol\":10227:10254  msg.sender == contractOwner */\n      0xffffffffffffffffffffffffffffffffffffffff\n      and\n        /* \"contracts/_ronix.sol\":10227:10237  msg.sender */\n      caller\n        /* \"contracts/_ronix.sol\":10227:10254  msg.sender == contractOwner */\n      0xffffffffffffffffffffffffffffffffffffffff\n      and\n      eq\n        /* \"contracts/_ronix.sol\":10219:10268  require(msg.sender == contractOwner, \"onlyOwner\") */\n      tag_195\n      jumpi\n      mload(0x40)\n      0x08c379a000000000000000000000000000000000000000000000000000000000\n      dup2\n      mstore\n      0x04\n      add\n      tag_196\n      swap1\n      tag_166\n      jump\t// in\n    tag_196:\n      mload(0x40)\n      dup1\n      swap2\n      sub\n      swap1\n      revert\n    tag_195:\n        /* \"contracts/_ronix.sol\":18911:18923  depositToken */\n      0x0a\n      0x00\n      swap1\n      sload\n      swap1\n      0x0100\n      exp\n      swap1\n      div\n      0xffffffffffffffffffffffffffffffffffffffff\n      and\n        /* \"contracts/_ronix.sol\":18887:18924  tokenAddress != address(depositToken) */\n      0xffffffffffffffffffffffffffffffffffffffff\n      and\n        /* \"contracts/_ronix.sol\":18887:18899  tokenAddress */\n      dup2\n        /* \"contracts/_ronix.sol\":18887:18924  tokenAddress != address(depositToken) */\n      0xffffffffffffffffffffffffffffffffffffffff\n      and\n      sub\n        /* \"contracts/_ronix.sol\":18879:18958  require(tokenAddress != address(depositToken), \"cannot withdraw deposit token\") */\n      tag_198\n      jumpi\n      mload(0x40)\n      0x08c379a000000000000000000000000000000000000000000000000000000000\n      dup2\n      mstore\n      0x04\n      add\n      tag_199\n      swap1\n      tag_200\n      jump\t// in\n    tag_199:\n      mload(0x40)\n      dup1\n      swap2\n      sub\n      swap1\n      revert\n    tag_198:\n        /* \"contracts/_ronix.sol\":18997:18998  0 */\n      0x00\n        /* \"contracts/_ronix.sol\":18973:18999  tokenAddress == address(0) */\n      0xffffffffffffffffffffffffffffffffffffffff\n      and\n        /* \"contracts/_ronix.sol\":18973:18985  tokenAddress */\n      dup2\n        /* \"contracts/_ronix.sol\":18973:18999  tokenAddress == address(0) */\n      0xffffffffffffffffffffffffffffffffffffffff\n      and\n      sub\n        /* \"contracts/_ronix.sol\":18969:19387  if (tokenAddress == address(0)) {... */\n      tag_201\n      jumpi\n        /* \"contracts/_ronix.sol\":19015:19046  address payable multisigPayable */\n      0x00\n        /* \"contracts/_ronix.sol\":19057:19065  multisig */\n      0x08\n      0x00\n      swap1\n      sload\n      swap1\n      0x0100\n      exp\n      swap1\n      div\n      0xffffffffffffffffffffffffffffffffffffffff\n      and\n        /* \"contracts/_ronix.sol\":19015:19066  address payable multisigPayable = payable(multisig) */\n      swap1\n      pop\n        /* \"contracts/_ronix.sol\":19080:19095  multisigPayable */\n      dup1\n        /* \"contracts/_ronix.sol\":19080:19104  multisigPayable.transfer */\n      0xffffffffffffffffffffffffffffffffffffffff\n      and\n        /* \"contracts/_ronix.sol\":19080:19127  multisigPayable.transfer(address(this).balance) */\n      0x08fc\n        /* \"contracts/_ronix.sol\":19105:19126  address(this).balance */\n      selfbalance\n        /* \"contracts/_ronix.sol\":19080:19127  multisigPayable.transfer(address(this).balance) */\n      swap1\n      dup2\n      iszero\n      mul\n      swap1\n      mload(0x40)\n      0x00\n      mload(0x40)\n      dup1\n      dup4\n      sub\n      dup2\n      dup6\n      dup9\n      dup9\n      call\n      swap4\n      pop\n      pop\n      pop\n      pop\n      iszero\n      dup1\n      iszero\n      tag_203\n      jumpi\n      returndatasize\n      0x00\n      dup1\n      returndatacopy\n      revert(0x00, returndatasize)\n    tag_203:\n      pop\n        /* \"contracts/_ronix.sol\":19001:19139  {... */\n      pop\n        /* \"contracts/_ronix.sol\":18969:19387  if (tokenAddress == address(0)) {... */\n      jump(tag_204)\n    tag_201:\n        /* \"contracts/_ronix.sol\":19167:19179  tokenAddress */\n      dup1\n        /* \"contracts/_ronix.sol\":19160:19189  IERC20(tokenAddress).transfer */\n      0xffffffffffffffffffffffffffffffffffffffff\n      and\n      0xa9059cbb\n        /* \"contracts/_ronix.sol\":19190:19198  multisig */\n      0x08\n      0x00\n      swap1\n      sload\n      swap1\n      0x0100\n      exp\n      swap1\n      div\n      0xffffffffffffffffffffffffffffffffffffffff\n      and\n        /* \"contracts/_ronix.sol\":19207:19219  tokenAddress */\n      dup4\n        /* \"contracts/_ronix.sol\":19200:19230  IERC20(tokenAddress).balanceOf */\n      0xffffffffffffffffffffffffffffffffffffffff\n      and\n      0x70a08231\n        /* \"contracts/_ronix.sol\":19239:19243  this */\n      address\n        /* \"contracts/_ronix.sol\":19200:19245  IERC20(tokenAddress).balanceOf(address(this)) */\n      mload(0x40)\n      dup3\n      0xffffffff\n      and\n      0xe0\n      shl\n      dup2\n      mstore\n      0x04\n      add\n      tag_205\n      swap2\n      swap1\n      tag_66\n      jump\t// in\n    tag_205:\n      0x20\n      mload(0x40)\n      dup1\n      dup4\n      sub\n      dup2\n      dup7\n      gas\n      staticcall\n      iszero\n      dup1\n      iszero\n      tag_207\n      jumpi\n      returndatasize\n      0x00\n      dup1\n      returndatacopy\n      revert(0x00, returndatasize)\n    tag_207:\n      pop\n      pop\n      pop\n      pop\n      mload(0x40)\n      returndatasize\n      not(0x1f)\n      0x1f\n      dup3\n      add\n      and\n      dup3\n      add\n      dup1\n      0x40\n      mstore\n      pop\n      dup2\n      add\n      swap1\n      tag_208\n      swap2\n      swap1\n      tag_209\n      jump\t// in\n    tag_208:\n        /* \"contracts/_ronix.sol\":19160:19246  IERC20(tokenAddress).transfer(multisig, IERC20(tokenAddress).balanceOf(address(this))) */\n      mload(0x40)\n      dup4\n      0xffffffff\n      and\n      0xe0\n      shl\n      dup2\n      mstore\n      0x04\n      add\n      tag_210\n      swap3\n      swap2\n      swap1\n      tag_211\n      jump\t// in\n    tag_210:\n      0x20\n      mload(0x40)\n      dup1\n      dup4\n      sub\n      dup2\n      0x00\n      dup8\n      gas\n      call\n      iszero\n      dup1\n      iszero\n      tag_213\n      jumpi\n      returndatasize\n      0x00\n      dup1\n      returndatacopy\n      revert(0x00, returndatasize)\n    tag_213:\n      pop\n      pop\n      pop\n      pop\n      mload(0x40)\n      returndatasize\n      not(0x1f)\n      0x1f\n      dup3\n      add\n      and\n      dup3\n      add\n      dup1\n      0x40\n      mstore\n      pop\n      dup2\n      add\n      swap1\n      tag_214\n      swap2\n      swap1\n      tag_215\n      jump\t// in\n    tag_214:\n      pop\n        /* \"contracts/_ronix.sol\":18969:19387  if (tokenAddress == address(0)) {... */\n    tag_204:\n        /* \"contracts/_ronix.sol\":18793:19394  function withdrawLostTokens(address tokenAddress) public onlyContractOwner {... */\n      pop\n      jump\t// out\n        /* \"contracts/_ronix.sol\":9018:9055  mapping(address => User) public users */\n    tag_107:\n      mstore(0x20, 0x02)\n      dup1\n      0x00\n      mstore\n      keccak256(0x00, 0x40)\n      0x00\n      swap2\n      pop\n      swap1\n      pop\n      dup1\n      0x00\n      add\n      sload\n      swap1\n      dup1\n      0x01\n      add\n      0x00\n      swap1\n      sload\n      swap1\n      0x0100\n      exp\n      swap1\n      div\n      0xffffffffffffffffffffffffffffffffffffffff\n      and\n      swap1\n      dup1\n      0x02\n      add\n      sload\n      swap1\n      pop\n      dup4\n      jump\t// out\n        /* \"contracts/_ronix.sol\":12071:12226  function buyNewLevelFor(address userAddress, uint8 matrix, uint8 level) external onlyUnlocked() {... */\n    tag_113:\n        /* \"contracts/_ronix.sol\":10338:10344  locked */\n      0x0c\n      0x00\n      swap1\n      sload\n      swap1\n      0x0100\n      exp\n      swap1\n      div\n      0xff\n      and\n        /* \"contracts/_ronix.sol\":10337:10344  !locked */\n      iszero\n        /* \"contracts/_ronix.sol\":10337:10375  !locked || msg.sender == contractOwner */\n      dup1\n      tag_217\n      jumpi\n      pop\n        /* \"contracts/_ronix.sol\":10362:10375  contractOwner */\n      0x01\n      0x00\n      swap1\n      sload\n      swap1\n      0x0100\n      exp\n      swap1\n      div\n      0xffffffffffffffffffffffffffffffffffffffff\n      and\n        /* \"contracts/_ronix.sol\":10348:10375  msg.sender == contractOwner */\n      0xffffffffffffffffffffffffffffffffffffffff\n      and\n        /* \"contracts/_ronix.sol\":10348:10358  msg.sender */\n      caller\n        /* \"contracts/_ronix.sol\":10348:10375  msg.sender == contractOwner */\n      0xffffffffffffffffffffffffffffffffffffffff\n      and\n      eq\n        /* \"contracts/_ronix.sol\":10337:10375  !locked || msg.sender == contractOwner */\n    tag_217:\n        /* \"contracts/_ronix.sol\":10329:10376  require(!locked || msg.sender == contractOwner) */\n      tag_218\n      jumpi\n      0x00\n      dup1\n      revert\n    tag_218:\n        /* \"contracts/_ronix.sol\":12178:12218  _buyNewLevel(userAddress, matrix, level) */\n      tag_220\n        /* \"contracts/_ronix.sol\":12191:12202  userAddress */\n      dup4\n        /* \"contracts/_ronix.sol\":12204:12210  matrix */\n      dup4\n        /* \"contracts/_ronix.sol\":12212:12217  level */\n      dup4\n        /* \"contracts/_ronix.sol\":12178:12190  _buyNewLevel */\n      tag_221\n        /* \"contracts/_ronix.sol\":12178:12218  _buyNewLevel(userAddress, matrix, level) */\n      jump\t// in\n    tag_220:\n        /* \"contracts/_ronix.sol\":12071:12226  function buyNewLevelFor(address userAddress, uint8 matrix, uint8 level) external onlyUnlocked() {... */\n      pop\n      pop\n      pop\n      jump\t// out\n        /* \"contracts/_ronix.sol\":11935:12065  function buyNewLevel(uint8 matrix, uint8 level) external onlyUnlocked() {... */\n    tag_117:\n        /* \"contracts/_ronix.sol\":10338:10344  locked */\n      0x0c\n      0x00\n      swap1\n      sload\n      swap1\n      0x0100\n      exp\n      swap1\n      div\n      0xff\n      and\n        /* \"contracts/_ronix.sol\":10337:10344  !locked */\n      iszero\n        /* \"contracts/_ronix.sol\":10337:10375  !locked || msg.sender == contractOwner */\n      dup1\n      tag_223\n      jumpi\n      pop\n        /* \"contracts/_ronix.sol\":10362:10375  contractOwner */\n      0x01\n      0x00\n      swap1\n      sload\n      swap1\n      0x0100\n      exp\n      swap1\n      div\n      0xffffffffffffffffffffffffffffffffffffffff\n      and\n        /* \"contracts/_ronix.sol\":10348:10375  msg.sender == contractOwner */\n      0xffffffffffffffffffffffffffffffffffffffff\n      and\n        /* \"contracts/_ronix.sol\":10348:10358  msg.sender */\n      caller\n        /* \"contracts/_ronix.sol\":10348:10375  msg.sender == contractOwner */\n      0xffffffffffffffffffffffffffffffffffffffff\n      and\n      eq\n        /* \"contracts/_ronix.sol\":10337:10375  !locked || msg.sender == contractOwner */\n    tag_223:\n        /* \"contracts/_ronix.sol\":10329:10376  require(!locked || msg.sender == contractOwner) */\n      tag_224\n      jumpi\n      0x00\n      dup1\n      revert\n    tag_224:\n        /* \"contracts/_ronix.sol\":12018:12057  _buyNewLevel(msg.sender, matrix, level) */\n      tag_226\n        /* \"contracts/_ronix.sol\":12031:12041  msg.sender */\n      caller\n        /* \"contracts/_ronix.sol\":12043:12049  matrix */\n      dup4\n        /* \"contracts/_ronix.sol\":12051:12056  level */\n      dup4\n        /* \"contracts/_ronix.sol\":12018:12030  _buyNewLevel */\n      tag_221\n        /* \"contracts/_ronix.sol\":12018:12057  _buyNewLevel(msg.sender, matrix, level) */\n      jump\t// in\n    tag_226:\n        /* \"contracts/_ronix.sol\":11935:12065  function buyNewLevel(uint8 matrix, uint8 level) external onlyUnlocked() {... */\n      pop\n      pop\n      jump\t// out\n        /* \"contracts/_ronix.sol\":9345:9371  IERC20 public depositToken */\n    tag_119:\n      0x0a\n      0x00\n      swap1\n      sload\n      swap1\n      0x0100\n      exp\n      swap1\n      div\n      0xffffffffffffffffffffffffffffffffffffffff\n      and\n      dup2\n      jump\t// out\n        /* \"contracts/_ronix.sol\":8442:8470  address public contractOwner */\n    tag_123:\n      0x01\n      0x00\n      swap1\n      sload\n      swap1\n      0x0100\n      exp\n      swap1\n      div\n      0xffffffffffffffffffffffffffffffffffffffff\n      and\n      dup2\n      jump\t// out\n        /* \"contracts/_ronix.sol\":9416:9434  bool public locked */\n    tag_126:\n      0x0c\n      0x00\n      swap1\n      sload\n      swap1\n      0x0100\n      exp\n      swap1\n      div\n      0xff\n      and\n      dup2\n      jump\t// out\n        /* \"contracts/_ronix.sol\":9296:9336  mapping(uint8 => uint) public levelPrice */\n    tag_131:\n      mstore(0x20, 0x09)\n      dup1\n      0x00\n      mstore\n      keccak256(0x00, 0x40)\n      0x00\n      swap2\n      pop\n      swap1\n      pop\n      sload\n      dup2\n      jump\t// out\n        /* \"contracts/_ronix.sol\":11328:11414  function changeLock() external onlyContractOwner() {... */\n    tag_134:\n        /* \"contracts/_ronix.sol\":10241:10254  contractOwner */\n      0x01\n      0x00\n      swap1\n      sload\n      swap1\n      0x0100\n      exp\n      swap1\n      div\n      0xffffffffffffffffffffffffffffffffffffffff\n      and\n        /* \"contracts/_ronix.sol\":10227:10254  msg.sender == contractOwner */\n      0xffffffffffffffffffffffffffffffffffffffff\n      and\n        /* \"contracts/_ronix.sol\":10227:10237  msg.sender */\n      caller\n        /* \"contracts/_ronix.sol\":10227:10254  msg.sender == contractOwner */\n      0xffffffffffffffffffffffffffffffffffffffff\n      and\n      eq\n        /* \"contracts/_ronix.sol\":10219:10268  require(msg.sender == contractOwner, \"onlyOwner\") */\n      tag_228\n      jumpi\n      mload(0x40)\n      0x08c379a000000000000000000000000000000000000000000000000000000000\n      dup2\n      mstore\n      0x04\n      add\n      tag_229\n      swap1\n      tag_166\n      jump\t// in\n    tag_229:\n      mload(0x40)\n      dup1\n      swap2\n      sub\n      swap1\n      revert\n    tag_228:\n        /* \"contracts/_ronix.sol\":11400:11406  locked */\n      0x0c\n      0x00\n      swap1\n      sload\n      swap1\n      0x0100\n      exp\n      swap1\n      div\n      0xff\n      and\n        /* \"contracts/_ronix.sol\":11399:11406  !locked */\n      iszero\n        /* \"contracts/_ronix.sol\":11390:11396  locked */\n      0x0c\n      0x00\n        /* \"contracts/_ronix.sol\":11390:11406  locked = !locked */\n      0x0100\n      exp\n      dup2\n      sload\n      dup2\n      0xff\n      mul\n      not\n      and\n      swap1\n      dup4\n      iszero\n      iszero\n      mul\n      or\n      swap1\n      sstore\n      pop\n        /* \"contracts/_ronix.sol\":11328:11414  function changeLock() external onlyContractOwner() {... */\n      jump\t// out\n        /* \"contracts/_ronix.sol\":15018:15367  function findFreeX3Referrer(address userAddress, uint8 level) public view returns(address) {... */\n    tag_137:\n        /* \"contracts/_ronix.sol\":15100:15107  address */\n      0x00\n        /* \"contracts/_ronix.sol\":15120:15360  while (true) {... */\n    tag_232:\n        /* \"contracts/_ronix.sol\":15127:15131  true */\n      0x01\n        /* \"contracts/_ronix.sol\":15120:15360  while (true) {... */\n      iszero\n      tag_233\n      jumpi\n        /* \"contracts/_ronix.sol\":15152:15157  users */\n      0x02\n        /* \"contracts/_ronix.sol\":15152:15186  users[users[userAddress].referrer] */\n      0x00\n        /* \"contracts/_ronix.sol\":15158:15163  users */\n      0x02\n        /* \"contracts/_ronix.sol\":15158:15176  users[userAddress] */\n      0x00\n        /* \"contracts/_ronix.sol\":15164:15175  userAddress */\n      dup7\n        /* \"contracts/_ronix.sol\":15158:15176  users[userAddress] */\n      0xffffffffffffffffffffffffffffffffffffffff\n      and\n      0xffffffffffffffffffffffffffffffffffffffff\n      and\n      dup2\n      mstore\n      0x20\n      add\n      swap1\n      dup2\n      mstore\n      0x20\n      add\n      0x00\n      keccak256\n        /* \"contracts/_ronix.sol\":15158:15185  users[userAddress].referrer */\n      0x01\n      add\n      0x00\n      swap1\n      sload\n      swap1\n      0x0100\n      exp\n      swap1\n      div\n      0xffffffffffffffffffffffffffffffffffffffff\n      and\n        /* \"contracts/_ronix.sol\":15152:15186  users[users[userAddress].referrer] */\n      0xffffffffffffffffffffffffffffffffffffffff\n      and\n      0xffffffffffffffffffffffffffffffffffffffff\n      and\n      dup2\n      mstore\n      0x20\n      add\n      swap1\n      dup2\n      mstore\n      0x20\n      add\n      0x00\n      keccak256\n        /* \"contracts/_ronix.sol\":15152:15201  users[users[userAddress].referrer].activeX3Levels */\n      0x03\n      add\n        /* \"contracts/_ronix.sol\":15152:15208  users[users[userAddress].referrer].activeX3Levels[level] */\n      0x00\n        /* \"contracts/_ronix.sol\":15202:15207  level */\n      dup4\n        /* \"contracts/_ronix.sol\":15152:15208  users[users[userAddress].referrer].activeX3Levels[level] */\n      0xff\n      and\n      0xff\n      and\n      dup2\n      mstore\n      0x20\n      add\n      swap1\n      dup2\n      mstore\n      0x20\n      add\n      0x00\n      keccak256\n      0x00\n      swap1\n      sload\n      swap1\n      0x0100\n      exp\n      swap1\n      div\n      0xff\n      and\n        /* \"contracts/_ronix.sol\":15148:15279  if (users[users[userAddress].referrer].activeX3Levels[level]) {... */\n      iszero\n      tag_234\n      jumpi\n        /* \"contracts/_ronix.sol\":15236:15241  users */\n      0x02\n        /* \"contracts/_ronix.sol\":15236:15254  users[userAddress] */\n      0x00\n        /* \"contracts/_ronix.sol\":15242:15253  userAddress */\n      dup5\n        /* \"contracts/_ronix.sol\":15236:15254  users[userAddress] */\n      0xffffffffffffffffffffffffffffffffffffffff\n      and\n      0xffffffffffffffffffffffffffffffffffffffff\n      and\n      dup2\n      mstore\n      0x20\n      add\n      swap1\n      dup2\n      mstore\n      0x20\n      add\n      0x00\n      keccak256\n        /* \"contracts/_ronix.sol\":15236:15263  users[userAddress].referrer */\n      0x01\n      add\n      0x00\n      swap1\n      sload\n      swap1\n      0x0100\n      exp\n      swap1\n      div\n      0xffffffffffffffffffffffffffffffffffffffff\n      and\n        /* \"contracts/_ronix.sol\":15229:15263  return users[userAddress].referrer */\n      swap1\n      pop\n      jump(tag_231)\n        /* \"contracts/_ronix.sol\":15148:15279  if (users[users[userAddress].referrer].activeX3Levels[level]) {... */\n    tag_234:\n        /* \"contracts/_ronix.sol\":15321:15326  users */\n      0x02\n        /* \"contracts/_ronix.sol\":15321:15339  users[userAddress] */\n      0x00\n        /* \"contracts/_ronix.sol\":15327:15338  userAddress */\n      dup5\n        /* \"contracts/_ronix.sol\":15321:15339  users[userAddress] */\n      0xffffffffffffffffffffffffffffffffffffffff\n      and\n      0xffffffffffffffffffffffffffffffffffffffff\n      and\n      dup2\n      mstore\n      0x20\n      add\n      swap1\n      dup2\n      mstore\n      0x20\n      add\n      0x00\n      keccak256\n        /* \"contracts/_ronix.sol\":15321:15348  users[userAddress].referrer */\n      0x01\n      add\n      0x00\n      swap1\n      sload\n      swap1\n      0x0100\n      exp\n      swap1\n      div\n      0xffffffffffffffffffffffffffffffffffffffff\n      and\n        /* \"contracts/_ronix.sol\":15307:15348  userAddress = users[userAddress].referrer */\n      swap3\n      pop\n        /* \"contracts/_ronix.sol\":15120:15360  while (true) {... */\n      jump(tag_232)\n    tag_233:\n        /* \"contracts/_ronix.sol\":15018:15367  function findFreeX3Referrer(address userAddress, uint8 level) public view returns(address) {... */\n    tag_231:\n      swap3\n      swap2\n      pop\n      pop\n      jump\t// out\n        /* \"contracts/_ronix.sol\":5353:5559  function safeTransferFrom(IERC20 token, address from, address to, uint256 value) internal {... */\n    tag_145:\n        /* \"contracts/_ronix.sol\":5454:5550  _callOptionalReturn(token, abi.encodeWithSelector(token.transferFrom.selector, from, to, value)) */\n      tag_236\n        /* \"contracts/_ronix.sol\":5474:5479  token */\n      dup5\n        /* \"contracts/_ronix.sol\":5504:5531  token.transferFrom.selector */\n      shl(0xe0, 0x23b872dd)\n        /* \"contracts/_ronix.sol\":5533:5537  from */\n      dup6\n        /* \"contracts/_ronix.sol\":5539:5541  to */\n      dup6\n        /* \"contracts/_ronix.sol\":5543:5548  value */\n      dup6\n        /* \"contracts/_ronix.sol\":5481:5549  abi.encodeWithSelector(token.transferFrom.selector, from, to, value) */\n      add(0x24, mload(0x40))\n      tag_237\n      swap4\n      swap3\n      swap2\n      swap1\n      tag_238\n      jump\t// in\n    tag_237:\n      mload(0x40)\n      0x20\n      dup2\n      dup4\n      sub\n      sub\n      dup2\n      mstore\n      swap1\n      0x40\n      mstore\n      swap1\n      not(0xffffffffffffffffffffffffffffffffffffffffffffffffffffffff)\n      and\n      0x20\n      dup3\n      add\n      dup1\n      mload\n      0xffffffffffffffffffffffffffffffffffffffffffffffffffffffff\n      dup4\n      dup2\n      dup4\n      and\n      or\n      dup4\n      mstore\n      pop\n      pop\n      pop\n      pop\n        /* \"contracts/_ronix.sol\":5454:5473  _callOptionalReturn */\n      tag_239\n        /* \"contracts/_ronix.sol\":5454:5550  _callOptionalReturn(token, abi.encodeWithSelector(token.transferFrom.selector, from, to, value)) */\n      jump\t// in\n    tag_236:\n        /* \"contracts/_ronix.sol\":5353:5559  function safeTransferFrom(IERC20 token, address from, address to, uint256 value) internal {... */\n      pop\n      pop\n      pop\n      pop\n      jump\t// out\n        /* \"contracts/_ronix.sol\":15373:17054  function updateX3Referrer(address userAddress, address referrerAddress, uint8 level) private {... */\n    tag_159:\n        /* \"contracts/_ronix.sol\":15478:15483  users */\n      0x02\n        /* \"contracts/_ronix.sol\":15478:15500  users[referrerAddress] */\n      0x00\n        /* \"contracts/_ronix.sol\":15484:15499  referrerAddress */\n      dup4\n        /* \"contracts/_ronix.sol\":15478:15500  users[referrerAddress] */\n      0xffffffffffffffffffffffffffffffffffffffff\n      and\n      0xffffffffffffffffffffffffffffffffffffffff\n      and\n      dup2\n      mstore\n      0x20\n      add\n      swap1\n      dup2\n      mstore\n      0x20\n      add\n      0x00\n      keccak256\n        /* \"contracts/_ronix.sol\":15478:15509  users[referrerAddress].x3Matrix */\n      0x04\n      add\n        /* \"contracts/_ronix.sol\":15478:15516  users[referrerAddress].x3Matrix[level] */\n      0x00\n        /* \"contracts/_ronix.sol\":15510:15515  level */\n      dup3\n        /* \"contracts/_ronix.sol\":15478:15516  users[referrerAddress].x3Matrix[level] */\n      0xff\n      and\n      0xff\n      and\n      dup2\n      mstore\n      0x20\n      add\n      swap1\n      dup2\n      mstore\n      0x20\n      add\n      0x00\n      keccak256\n        /* \"contracts/_ronix.sol\":15478:15526  users[referrerAddress].x3Matrix[level].referrals */\n      0x01\n      add\n        /* \"contracts/_ronix.sol\":15532:15543  userAddress */\n      dup4\n        /* \"contracts/_ronix.sol\":15478:15544  users[referrerAddress].x3Matrix[level].referrals.push(userAddress) */\n      swap1\n      dup1\n      0x01\n      dup2\n      sload\n      add\n      dup1\n      dup3\n      sstore\n      dup1\n      swap2\n      pop\n      pop\n      0x01\n      swap1\n      sub\n      swap1\n      0x00\n      mstore\n      keccak256(0x00, 0x20)\n      add\n      0x00\n      swap1\n      swap2\n      swap1\n      swap2\n      swap1\n      swap2\n      0x0100\n      exp\n      dup2\n      sload\n      dup2\n      0xffffffffffffffffffffffffffffffffffffffff\n      mul\n      not\n      and\n      swap1\n      dup4\n      0xffffffffffffffffffffffffffffffffffffffff\n      and\n      mul\n      or\n      swap1\n      sstore\n      pop\n        /* \"contracts/_ronix.sol\":15618:15619  3 */\n      0x03\n        /* \"contracts/_ronix.sol\":15560:15565  users */\n      0x02\n        /* \"contracts/_ronix.sol\":15560:15582  users[referrerAddress] */\n      0x00\n        /* \"contracts/_ronix.sol\":15566:15581  referrerAddress */\n      dup5\n        /* \"contracts/_ronix.sol\":15560:15582  users[referrerAddress] */\n      0xffffffffffffffffffffffffffffffffffffffff\n      and\n      0xffffffffffffffffffffffffffffffffffffffff\n      and\n      dup2\n      mstore\n      0x20\n      add\n      swap1\n      dup2\n      mstore\n      0x20\n      add\n      0x00\n      keccak256\n        /* \"contracts/_ronix.sol\":15560:15591  users[referrerAddress].x3Matrix */\n      0x04\n      add\n        /* \"contracts/_ronix.sol\":15560:15598  users[referrerAddress].x3Matrix[level] */\n      0x00\n        /* \"contracts/_ronix.sol\":15592:15597  level */\n      dup4\n        /* \"contracts/_ronix.sol\":15560:15598  users[referrerAddress].x3Matrix[level] */\n      0xff\n      and\n      0xff\n      and\n      dup2\n      mstore\n      0x20\n      add\n      swap1\n      dup2\n      mstore\n      0x20\n      add\n      0x00\n      keccak256\n        /* \"contracts/_ronix.sol\":15560:15608  users[referrerAddress].x3Matrix[level].referrals */\n      0x01\n      add\n        /* \"contracts/_ronix.sol\":15560:15615  users[referrerAddress].x3Matrix[level].referrals.length */\n      dup1\n      sload\n      swap1\n      pop\n        /* \"contracts/_ronix.sol\":15560:15619  users[referrerAddress].x3Matrix[level].referrals.length < 3 */\n      lt\n        /* \"contracts/_ronix.sol\":15556:15848  if (users[referrerAddress].x3Matrix[level].referrals.length < 3) {... */\n      iszero\n      tag_242\n      jumpi\n        /* \"contracts/_ronix.sol\":15667:15682  referrerAddress */\n      dup2\n        /* \"contracts/_ronix.sol\":15641:15757  NewUserPlace(userAddress, referrerAddress, 1, level, uint8(users[referrerAddress].x3Matrix[level].referrals.length)) */\n      0xffffffffffffffffffffffffffffffffffffffff\n      and\n        /* \"contracts/_ronix.sol\":15654:15665  userAddress */\n      dup4\n        /* \"contracts/_ronix.sol\":15641:15757  NewUserPlace(userAddress, referrerAddress, 1, level, uint8(users[referrerAddress].x3Matrix[level].referrals.length)) */\n      0xffffffffffffffffffffffffffffffffffffffff\n      and\n      0x68062c5925c4317adf3a7095478d28b33fd8b41458bc7620b61bc46bf1b24d82\n        /* \"contracts/_ronix.sol\":15684:15685  1 */\n      0x01\n        /* \"contracts/_ronix.sol\":15687:15692  level */\n      dup5\n        /* \"contracts/_ronix.sol\":15700:15705  users */\n      0x02\n        /* \"contracts/_ronix.sol\":15700:15722  users[referrerAddress] */\n      0x00\n        /* \"contracts/_ronix.sol\":15706:15721  referrerAddress */\n      dup9\n        /* \"contracts/_ronix.sol\":15700:15722  users[referrerAddress] */\n      0xffffffffffffffffffffffffffffffffffffffff\n      and\n      0xffffffffffffffffffffffffffffffffffffffff\n      and\n      dup2\n      mstore\n      0x20\n      add\n      swap1\n      dup2\n      mstore\n      0x20\n      add\n      0x00\n      keccak256\n        /* \"contracts/_ronix.sol\":15700:15731  users[referrerAddress].x3Matrix */\n      0x04\n      add\n        /* \"contracts/_ronix.sol\":15700:15738  users[referrerAddress].x3Matrix[level] */\n      0x00\n        /* \"contracts/_ronix.sol\":15732:15737  level */\n      dup8\n        /* \"contracts/_ronix.sol\":15700:15738  users[referrerAddress].x3Matrix[level] */\n      0xff\n      and\n      0xff\n      and\n      dup2\n      mstore\n      0x20\n      add\n      swap1\n      dup2\n      mstore\n      0x20\n      add\n      0x00\n      keccak256\n        /* \"contracts/_ronix.sol\":15700:15748  users[referrerAddress].x3Matrix[level].referrals */\n      0x01\n      add\n        /* \"contracts/_ronix.sol\":15700:15755  users[referrerAddress].x3Matrix[level].referrals.length */\n      dup1\n      sload\n      swap1\n      pop\n        /* \"contracts/_ronix.sol\":15641:15757  NewUserPlace(userAddress, referrerAddress, 1, level, uint8(users[referrerAddress].x3Matrix[level].referrals.length)) */\n      mload(0x40)\n      tag_243\n      swap4\n      swap3\n      swap2\n      swap1\n      tag_244\n      jump\t// in\n    tag_243:\n      mload(0x40)\n      dup1\n      swap2\n      sub\n      swap1\n      log3\n        /* \"contracts/_ronix.sol\":15779:15836  sendBUSDDividends(referrerAddress, userAddress, 1, level) */\n      tag_245\n        /* \"contracts/_ronix.sol\":15797:15812  referrerAddress */\n      dup3\n        /* \"contracts/_ronix.sol\":15814:15825  userAddress */\n      dup5\n        /* \"contracts/_ronix.sol\":15827:15828  1 */\n      0x01\n        /* \"contracts/_ronix.sol\":15830:15835  level */\n      dup5\n        /* \"contracts/_ronix.sol\":15779:15796  sendBUSDDividends */\n      tag_246\n        /* \"contracts/_ronix.sol\":15779:15836  sendBUSDDividends(referrerAddress, userAddress, 1, level) */\n      jump\t// in\n    tag_245:\n        /* \"contracts/_ronix.sol\":15772:15836  return sendBUSDDividends(referrerAddress, userAddress, 1, level) */\n      jump(tag_240)\n        /* \"contracts/_ronix.sol\":15556:15848  if (users[referrerAddress].x3Matrix[level].referrals.length < 3) {... */\n    tag_242:\n        /* \"contracts/_ronix.sol\":15909:15924  referrerAddress */\n      dup2\n        /* \"contracts/_ronix.sol\":15883:15938  NewUserPlace(userAddress, referrerAddress, 1, level, 3) */\n      0xffffffffffffffffffffffffffffffffffffffff\n      and\n        /* \"contracts/_ronix.sol\":15896:15907  userAddress */\n      dup4\n        /* \"contracts/_ronix.sol\":15883:15938  NewUserPlace(userAddress, referrerAddress, 1, level, 3) */\n      0xffffffffffffffffffffffffffffffffffffffff\n      and\n      0x68062c5925c4317adf3a7095478d28b33fd8b41458bc7620b61bc46bf1b24d82\n        /* \"contracts/_ronix.sol\":15926:15927  1 */\n      0x01\n        /* \"contracts/_ronix.sol\":15929:15934  level */\n      dup5\n        /* \"contracts/_ronix.sol\":15936:15937  3 */\n      0x03\n        /* \"contracts/_ronix.sol\":15883:15938  NewUserPlace(userAddress, referrerAddress, 1, level, 3) */\n      mload(0x40)\n      tag_247\n      swap4\n      swap3\n      swap2\n      swap1\n      tag_248\n      jump\t// in\n    tag_247:\n      mload(0x40)\n      dup1\n      swap2\n      sub\n      swap1\n      log3\n        /* \"contracts/_ronix.sol\":16038:16039  0 */\n      0x00\n        /* \"contracts/_ronix.sol\":16024:16040  new address[](0) */\n      0xffffffffffffffff\n      dup2\n      gt\n      iszero\n      tag_249\n      jumpi\n      tag_250\n      tag_251\n      jump\t// in\n    tag_250:\n    tag_249:\n      mload(0x40)\n      swap1\n      dup1\n      dup3\n      mstore\n      dup1\n      0x20\n      mul\n      0x20\n      add\n      dup3\n      add\n      0x40\n      mstore\n      dup1\n      iszero\n      tag_252\n      jumpi\n      dup2\n      0x20\n      add\n      0x20\n      dup3\n      mul\n      dup1\n      calldatasize\n      dup4\n      calldatacopy\n      dup1\n      dup3\n      add\n      swap2\n      pop\n      pop\n      swap1\n      pop\n    tag_252:\n      pop\n        /* \"contracts/_ronix.sol\":15973:15978  users */\n      0x02\n        /* \"contracts/_ronix.sol\":15973:15995  users[referrerAddress] */\n      0x00\n        /* \"contracts/_ronix.sol\":15979:15994  referrerAddress */\n      dup5\n        /* \"contracts/_ronix.sol\":15973:15995  users[referrerAddress] */\n      0xffffffffffffffffffffffffffffffffffffffff\n      and\n      0xffffffffffffffffffffffffffffffffffffffff\n      and\n      dup2\n      mstore\n      0x20\n      add\n      swap1\n      dup2\n      mstore\n      0x20\n      add\n      0x00\n      keccak256\n        /* \"contracts/_ronix.sol\":15973:16004  users[referrerAddress].x3Matrix */\n      0x04\n      add\n        /* \"contracts/_ronix.sol\":15973:16011  users[referrerAddress].x3Matrix[level] */\n      0x00\n        /* \"contracts/_ronix.sol\":16005:16010  level */\n      dup4\n        /* \"contracts/_ronix.sol\":15973:16011  users[referrerAddress].x3Matrix[level] */\n      0xff\n      and\n      0xff\n      and\n      dup2\n      mstore\n      0x20\n      add\n      swap1\n      dup2\n      mstore\n      0x20\n      add\n      0x00\n      keccak256\n        /* \"contracts/_ronix.sol\":15973:16021  users[referrerAddress].x3Matrix[level].referrals */\n      0x01\n      add\n        /* \"contracts/_ronix.sol\":15973:16040  users[referrerAddress].x3Matrix[level].referrals = new address[](0) */\n      swap1\n      dup1\n      mload\n      swap1\n      0x20\n      add\n      swap1\n      tag_253\n      swap3\n      swap2\n      swap1\n      tag_254\n      jump\t// in\n    tag_253:\n      pop\n        /* \"contracts/_ronix.sol\":16056:16061  users */\n      0x02\n        /* \"contracts/_ronix.sol\":16056:16078  users[referrerAddress] */\n      0x00\n        /* \"contracts/_ronix.sol\":16062:16077  referrerAddress */\n      dup4\n        /* \"contracts/_ronix.sol\":16056:16078  users[referrerAddress] */\n      0xffffffffffffffffffffffffffffffffffffffff\n      and\n      0xffffffffffffffffffffffffffffffffffffffff\n      and\n      dup2\n      mstore\n      0x20\n      add\n      swap1\n      dup2\n      mstore\n      0x20\n      add\n      0x00\n      keccak256\n        /* \"contracts/_ronix.sol\":16056:16093  users[referrerAddress].activeX3Levels */\n      0x03\n      add\n        /* \"contracts/_ronix.sol\":16056:16102  users[referrerAddress].activeX3Levels[level+1] */\n      0x00\n        /* \"contracts/_ronix.sol\":16100:16101  1 */\n      0x01\n        /* \"contracts/_ronix.sol\":16094:16099  level */\n      dup4\n        /* \"contracts/_ronix.sol\":16094:16101  level+1 */\n      tag_255\n      swap2\n      swap1\n      tag_256\n      jump\t// in\n    tag_255:\n        /* \"contracts/_ronix.sol\":16056:16102  users[referrerAddress].activeX3Levels[level+1] */\n      0xff\n      and\n      0xff\n      and\n      dup2\n      mstore\n      0x20\n      add\n      swap1\n      dup2\n      mstore\n      0x20\n      add\n      0x00\n      keccak256\n      0x00\n      swap1\n      sload\n      swap1\n      0x0100\n      exp\n      swap1\n      div\n      0xff\n      and\n        /* \"contracts/_ronix.sol\":16055:16102  !users[referrerAddress].activeX3Levels[level+1] */\n      iszero\n        /* \"contracts/_ronix.sol\":16055:16125  !users[referrerAddress].activeX3Levels[level+1] && level != LAST_LEVEL */\n      dup1\n      iszero\n      tag_257\n      jumpi\n      pop\n        /* \"contracts/_ronix.sol\":16115:16125  LAST_LEVEL */\n      0x01\n      0x14\n      swap1\n      sload\n      swap1\n      0x0100\n      exp\n      swap1\n      div\n      0xff\n      and\n        /* \"contracts/_ronix.sol\":16106:16125  level != LAST_LEVEL */\n      0xff\n      and\n        /* \"contracts/_ronix.sol\":16106:16111  level */\n      dup2\n        /* \"contracts/_ronix.sol\":16106:16125  level != LAST_LEVEL */\n      0xff\n      and\n      eq\n      iszero\n        /* \"contracts/_ronix.sol\":16055:16125  !users[referrerAddress].activeX3Levels[level+1] && level != LAST_LEVEL */\n    tag_257:\n        /* \"contracts/_ronix.sol\":16051:16207  if (!users[referrerAddress].activeX3Levels[level+1] && level != LAST_LEVEL) {... */\n      iszero\n      tag_258\n      jumpi\n        /* \"contracts/_ronix.sol\":16191:16195  true */\n      0x01\n        /* \"contracts/_ronix.sol\":16142:16147  users */\n      0x02\n        /* \"contracts/_ronix.sol\":16142:16164  users[referrerAddress] */\n      0x00\n        /* \"contracts/_ronix.sol\":16148:16163  referrerAddress */\n      dup5\n        /* \"contracts/_ronix.sol\":16142:16164  users[referrerAddress] */\n      0xffffffffffffffffffffffffffffffffffffffff\n      and\n      0xffffffffffffffffffffffffffffffffffffffff\n      and\n      dup2\n      mstore\n      0x20\n      add\n      swap1\n      dup2\n      mstore\n      0x20\n      add\n      0x00\n      keccak256\n        /* \"contracts/_ronix.sol\":16142:16173  users[referrerAddress].x3Matrix */\n      0x04\n      add\n        /* \"contracts/_ronix.sol\":16142:16180  users[referrerAddress].x3Matrix[level] */\n      0x00\n        /* \"contracts/_ronix.sol\":16174:16179  level */\n      dup4\n        /* \"contracts/_ronix.sol\":16142:16180  users[referrerAddress].x3Matrix[level] */\n      0xff\n      and\n      0xff\n      and\n      dup2\n      mstore\n      0x20\n      add\n      swap1\n      dup2\n      mstore\n      0x20\n      add\n      0x00\n      keccak256\n        /* \"contracts/_ronix.sol\":16142:16188  users[referrerAddress].x3Matrix[level].blocked */\n      0x02\n      add\n      0x00\n        /* \"contracts/_ronix.sol\":16142:16195  users[referrerAddress].x3Matrix[level].blocked = true */\n      0x0100\n      exp\n      dup2\n      sload\n      dup2\n      0xff\n      mul\n      not\n      and\n      swap1\n      dup4\n      iszero\n      iszero\n      mul\n      or\n      swap1\n      sstore\n      pop\n        /* \"contracts/_ronix.sol\":16051:16207  if (!users[referrerAddress].activeX3Levels[level+1] && level != LAST_LEVEL) {... */\n    tag_258:\n        /* \"contracts/_ronix.sol\":16241:16244  id1 */\n      0x07\n      0x00\n      swap1\n      sload\n      swap1\n      0x0100\n      exp\n      swap1\n      div\n      0xffffffffffffffffffffffffffffffffffffffff\n      and\n        /* \"contracts/_ronix.sol\":16222:16244  referrerAddress != id1 */\n      0xffffffffffffffffffffffffffffffffffffffff\n      and\n        /* \"contracts/_ronix.sol\":16222:16237  referrerAddress */\n      dup3\n        /* \"contracts/_ronix.sol\":16222:16244  referrerAddress != id1 */\n      0xffffffffffffffffffffffffffffffffffffffff\n      and\n      eq\n        /* \"contracts/_ronix.sol\":16218:17047  if (referrerAddress != id1) {... */\n      tag_259\n      jumpi\n        /* \"contracts/_ronix.sol\":16304:16331  address freeReferrerAddress */\n      0x00\n        /* \"contracts/_ronix.sol\":16334:16376  findFreeX3Referrer(referrerAddress, level) */\n      tag_260\n        /* \"contracts/_ronix.sol\":16353:16368  referrerAddress */\n      dup4\n        /* \"contracts/_ronix.sol\":16370:16375  level */\n      dup4\n        /* \"contracts/_ronix.sol\":16334:16352  findFreeX3Referrer */\n      tag_137\n        /* \"contracts/_ronix.sol\":16334:16376  findFreeX3Referrer(referrerAddress, level) */\n      jump\t// in\n    tag_260:\n        /* \"contracts/_ronix.sol\":16304:16376  address freeReferrerAddress = findFreeX3Referrer(referrerAddress, level) */\n      swap1\n      pop\n        /* \"contracts/_ronix.sol\":16453:16472  freeReferrerAddress */\n      dup1\n        /* \"contracts/_ronix.sol\":16395:16472  users[referrerAddress].x3Matrix[level].currentReferrer != freeReferrerAddress */\n      0xffffffffffffffffffffffffffffffffffffffff\n      and\n        /* \"contracts/_ronix.sol\":16395:16400  users */\n      0x02\n        /* \"contracts/_ronix.sol\":16395:16417  users[referrerAddress] */\n      0x00\n        /* \"contracts/_ronix.sol\":16401:16416  referrerAddress */\n      dup6\n        /* \"contracts/_ronix.sol\":16395:16417  users[referrerAddress] */\n      0xffffffffffffffffffffffffffffffffffffffff\n      and\n      0xffffffffffffffffffffffffffffffffffffffff\n      and\n      dup2\n      mstore\n      0x20\n      add\n      swap1\n      dup2\n      mstore\n      0x20\n      add\n      0x00\n      keccak256\n        /* \"contracts/_ronix.sol\":16395:16426  users[referrerAddress].x3Matrix */\n      0x04\n      add\n        /* \"contracts/_ronix.sol\":16395:16433  users[referrerAddress].x3Matrix[level] */\n      0x00\n        /* \"contracts/_ronix.sol\":16427:16432  level */\n      dup5\n        /* \"contracts/_ronix.sol\":16395:16433  users[referrerAddress].x3Matrix[level] */\n      0xff\n      and\n      0xff\n      and\n      dup2\n      mstore\n      0x20\n      add\n      swap1\n      dup2\n      mstore\n      0x20\n      add\n      0x00\n      keccak256\n        /* \"contracts/_ronix.sol\":16395:16449  users[referrerAddress].x3Matrix[level].currentReferrer */\n      0x00\n      add\n      0x00\n      swap1\n      sload\n      swap1\n      0x0100\n      exp\n      swap1\n      div\n      0xffffffffffffffffffffffffffffffffffffffff\n      and\n        /* \"contracts/_ronix.sol\":16395:16472  users[referrerAddress].x3Matrix[level].currentReferrer != freeReferrerAddress */\n      0xffffffffffffffffffffffffffffffffffffffff\n      and\n      eq\n        /* \"contracts/_ronix.sol\":16391:16585  if (users[referrerAddress].x3Matrix[level].currentReferrer != freeReferrerAddress) {... */\n      tag_261\n      jumpi\n        /* \"contracts/_ronix.sol\":16550:16569  freeReferrerAddress */\n      dup1\n        /* \"contracts/_ronix.sol\":16493:16498  users */\n      0x02\n        /* \"contracts/_ronix.sol\":16493:16515  users[referrerAddress] */\n      0x00\n        /* \"contracts/_ronix.sol\":16499:16514  referrerAddress */\n      dup6\n        /* \"contracts/_ronix.sol\":16493:16515  users[referrerAddress] */\n      0xffffffffffffffffffffffffffffffffffffffff\n      and\n      0xffffffffffffffffffffffffffffffffffffffff\n      and\n      dup2\n      mstore\n      0x20\n      add\n      swap1\n      dup2\n      mstore\n      0x20\n      add\n      0x00\n      keccak256\n        /* \"contracts/_ronix.sol\":16493:16524  users[referrerAddress].x3Matrix */\n      0x04\n      add\n        /* \"contracts/_ronix.sol\":16493:16531  users[referrerAddress].x3Matrix[level] */\n      0x00\n        /* \"contracts/_ronix.sol\":16525:16530  level */\n      dup5\n        /* \"contracts/_ronix.sol\":16493:16531  users[referrerAddress].x3Matrix[level] */\n      0xff\n      and\n      0xff\n      and\n      dup2\n      mstore\n      0x20\n      add\n      swap1\n      dup2\n      mstore\n      0x20\n      add\n      0x00\n      keccak256\n        /* \"contracts/_ronix.sol\":16493:16547  users[referrerAddress].x3Matrix[level].currentReferrer */\n      0x00\n      add\n      0x00\n        /* \"contracts/_ronix.sol\":16493:16569  users[referrerAddress].x3Matrix[level].currentReferrer = freeReferrerAddress */\n      0x0100\n      exp\n      dup2\n      sload\n      dup2\n      0xffffffffffffffffffffffffffffffffffffffff\n      mul\n      not\n      and\n      swap1\n      dup4\n      0xffffffffffffffffffffffffffffffffffffffff\n      and\n      mul\n      or\n      swap1\n      sstore\n      pop\n        /* \"contracts/_ronix.sol\":16391:16585  if (users[referrerAddress].x3Matrix[level].currentReferrer != freeReferrerAddress) {... */\n    tag_261:\n        /* \"contracts/_ronix.sol\":16613:16618  users */\n      0x02\n        /* \"contracts/_ronix.sol\":16613:16635  users[referrerAddress] */\n      0x00\n        /* \"contracts/_ronix.sol\":16619:16634  referrerAddress */\n      dup5\n        /* \"contracts/_ronix.sol\":16613:16635  users[referrerAddress] */\n      0xffffffffffffffffffffffffffffffffffffffff\n      and\n      0xffffffffffffffffffffffffffffffffffffffff\n      and\n      dup2\n      mstore\n      0x20\n      add\n      swap1\n      dup2\n      mstore\n      0x20\n      add\n      0x00\n      keccak256\n        /* \"contracts/_ronix.sol\":16613:16644  users[referrerAddress].x3Matrix */\n      0x04\n      add\n        /* \"contracts/_ronix.sol\":16613:16651  users[referrerAddress].x3Matrix[level] */\n      0x00\n        /* \"contracts/_ronix.sol\":16645:16650  level */\n      dup4\n        /* \"contracts/_ronix.sol\":16613:16651  users[referrerAddress].x3Matrix[level] */\n      0xff\n      and\n      0xff\n      and\n      dup2\n      mstore\n      0x20\n      add\n      swap1\n      dup2\n      mstore\n      0x20\n      add\n      0x00\n      keccak256\n        /* \"contracts/_ronix.sol\":16613:16665  users[referrerAddress].x3Matrix[level].reinvestCount */\n      0x03\n      add\n      0x00\n        /* \"contracts/_ronix.sol\":16613:16667  users[referrerAddress].x3Matrix[level].reinvestCount++ */\n      dup2\n      sload\n      dup1\n      swap3\n      swap2\n      swap1\n      tag_262\n      swap1\n      tag_155\n      jump\t// in\n    tag_262:\n      swap2\n      swap1\n      pop\n      sstore\n      pop\n        /* \"contracts/_ronix.sol\":16734:16745  userAddress */\n      dup4\n        /* \"contracts/_ronix.sol\":16687:16756  Reinvest(referrerAddress, freeReferrerAddress, userAddress, 1, level) */\n      0xffffffffffffffffffffffffffffffffffffffff\n      and\n        /* \"contracts/_ronix.sol\":16713:16732  freeReferrerAddress */\n      dup2\n        /* \"contracts/_ronix.sol\":16687:16756  Reinvest(referrerAddress, freeReferrerAddress, userAddress, 1, level) */\n      0xffffffffffffffffffffffffffffffffffffffff\n      and\n        /* \"contracts/_ronix.sol\":16696:16711  referrerAddress */\n      dup5\n        /* \"contracts/_ronix.sol\":16687:16756  Reinvest(referrerAddress, freeReferrerAddress, userAddress, 1, level) */\n      0xffffffffffffffffffffffffffffffffffffffff\n      and\n      0xa00c953eff38ec1b71e7fe060b2ab8df0bbe5354319fbdde4fbdafd6324386a6\n        /* \"contracts/_ronix.sol\":16747:16748  1 */\n      0x01\n        /* \"contracts/_ronix.sol\":16750:16755  level */\n      dup7\n        /* \"contracts/_ronix.sol\":16687:16756  Reinvest(referrerAddress, freeReferrerAddress, userAddress, 1, level) */\n      mload(0x40)\n      tag_263\n      swap3\n      swap2\n      swap1\n      tag_264\n      jump\t// in\n    tag_263:\n      mload(0x40)\n      dup1\n      swap2\n      sub\n      swap1\n      log4\n        /* \"contracts/_ronix.sol\":16771:16832  updateX3Referrer(referrerAddress, freeReferrerAddress, level) */\n      tag_265\n        /* \"contracts/_ronix.sol\":16788:16803  referrerAddress */\n      dup4\n        /* \"contracts/_ronix.sol\":16805:16824  freeReferrerAddress */\n      dup3\n        /* \"contracts/_ronix.sol\":16826:16831  level */\n      dup5\n        /* \"contracts/_ronix.sol\":16771:16787  updateX3Referrer */\n      tag_159\n        /* \"contracts/_ronix.sol\":16771:16832  updateX3Referrer(referrerAddress, freeReferrerAddress, level) */\n      jump\t// in\n    tag_265:\n        /* \"contracts/_ronix.sol\":16246:16844  {... */\n      pop\n        /* \"contracts/_ronix.sol\":16218:17047  if (referrerAddress != id1) {... */\n      jump(tag_266)\n    tag_259:\n        /* \"contracts/_ronix.sol\":16865:16910  sendBUSDDividends(id1, userAddress, 1, level) */\n      tag_267\n        /* \"contracts/_ronix.sol\":16883:16886  id1 */\n      0x07\n      0x00\n      swap1\n      sload\n      swap1\n      0x0100\n      exp\n      swap1\n      div\n      0xffffffffffffffffffffffffffffffffffffffff\n      and\n        /* \"contracts/_ronix.sol\":16888:16899  userAddress */\n      dup5\n        /* \"contracts/_ronix.sol\":16901:16902  1 */\n      0x01\n        /* \"contracts/_ronix.sol\":16904:16909  level */\n      dup5\n        /* \"contracts/_ronix.sol\":16865:16882  sendBUSDDividends */\n      tag_246\n        /* \"contracts/_ronix.sol\":16865:16910  sendBUSDDividends(id1, userAddress, 1, level) */\n      jump\t// in\n    tag_267:\n        /* \"contracts/_ronix.sol\":16925:16930  users */\n      0x02\n        /* \"contracts/_ronix.sol\":16925:16935  users[id1] */\n      0x00\n        /* \"contracts/_ronix.sol\":16931:16934  id1 */\n      0x07\n      0x00\n      swap1\n      sload\n      swap1\n      0x0100\n      exp\n      swap1\n      div\n      0xffffffffffffffffffffffffffffffffffffffff\n      and\n        /* \"contracts/_ronix.sol\":16925:16935  users[id1] */\n      0xffffffffffffffffffffffffffffffffffffffff\n      and\n      0xffffffffffffffffffffffffffffffffffffffff\n      and\n      dup2\n      mstore\n      0x20\n      add\n      swap1\n      dup2\n      mstore\n      0x20\n      add\n      0x00\n      keccak256\n        /* \"contracts/_ronix.sol\":16925:16944  users[id1].x3Matrix */\n      0x04\n      add\n        /* \"contracts/_ronix.sol\":16925:16951  users[id1].x3Matrix[level] */\n      0x00\n        /* \"contracts/_ronix.sol\":16945:16950  level */\n      dup3\n        /* \"contracts/_ronix.sol\":16925:16951  users[id1].x3Matrix[level] */\n      0xff\n      and\n      0xff\n      and\n      dup2\n      mstore\n      0x20\n      add\n      swap1\n      dup2\n      mstore\n      0x20\n      add\n      0x00\n      keccak256\n        /* \"contracts/_ronix.sol\":16925:16965  users[id1].x3Matrix[level].reinvestCount */\n      0x03\n      add\n      0x00\n        /* \"contracts/_ronix.sol\":16925:16967  users[id1].x3Matrix[level].reinvestCount++ */\n      dup2\n      sload\n      dup1\n      swap3\n      swap2\n      swap1\n      tag_268\n      swap1\n      tag_155\n      jump\t// in\n    tag_268:\n      swap2\n      swap1\n      pop\n      sstore\n      pop\n        /* \"contracts/_ronix.sol\":17013:17024  userAddress */\n      dup3\n        /* \"contracts/_ronix.sol\":16987:17035  Reinvest(id1, address(0), userAddress, 1, level) */\n      0xffffffffffffffffffffffffffffffffffffffff\n      and\n        /* \"contracts/_ronix.sol\":17009:17010  0 */\n      0x00\n        /* \"contracts/_ronix.sol\":16987:17035  Reinvest(id1, address(0), userAddress, 1, level) */\n      0xffffffffffffffffffffffffffffffffffffffff\n      and\n        /* \"contracts/_ronix.sol\":16996:16999  id1 */\n      0x07\n      0x00\n      swap1\n      sload\n      swap1\n      0x0100\n      exp\n      swap1\n      div\n      0xffffffffffffffffffffffffffffffffffffffff\n      and\n        /* \"contracts/_ronix.sol\":16987:17035  Reinvest(id1, address(0), userAddress, 1, level) */\n      0xffffffffffffffffffffffffffffffffffffffff\n      and\n      0xa00c953eff38ec1b71e7fe060b2ab8df0bbe5354319fbdde4fbdafd6324386a6\n        /* \"contracts/_ronix.sol\":17026:17027  1 */\n      0x01\n        /* \"contracts/_ronix.sol\":17029:17034  level */\n      dup6\n        /* \"contracts/_ronix.sol\":16987:17035  Reinvest(id1, address(0), userAddress, 1, level) */\n      mload(0x40)\n      tag_269\n      swap3\n      swap2\n      swap1\n      tag_264\n      jump\t// in\n    tag_269:\n      mload(0x40)\n      dup1\n      swap2\n      sub\n      swap1\n      log4\n        /* \"contracts/_ronix.sol\":16218:17047  if (referrerAddress != id1) {... */\n    tag_266:\n        /* \"contracts/_ronix.sol\":15373:17054  function updateX3Referrer(address userAddress, address referrerAddress, uint8 level) private {... */\n    tag_240:\n      pop\n      pop\n      pop\n      jump\t// out\n        /* \"contracts/_ronix.sol\":12232:13458  function _buyNewLevel(address _userAddress, uint8 matrix, uint8 level) internal {... */\n    tag_221:\n        /* \"contracts/_ronix.sol\":12331:12357  isUserExists(_userAddress) */\n      tag_271\n        /* \"contracts/_ronix.sol\":12344:12356  _userAddress */\n      dup4\n        /* \"contracts/_ronix.sol\":12331:12343  isUserExists */\n      tag_83\n        /* \"contracts/_ronix.sol\":12331:12357  isUserExists(_userAddress) */\n      jump\t// in\n    tag_271:\n        /* \"contracts/_ronix.sol\":12323:12397  require(isUserExists(_userAddress), \"user is not exists. Register first.\") */\n      tag_272\n      jumpi\n      mload(0x40)\n      0x08c379a000000000000000000000000000000000000000000000000000000000\n      dup2\n      mstore\n      0x04\n      add\n      tag_273\n      swap1\n      tag_274\n      jump\t// in\n    tag_273:\n      mload(0x40)\n      dup1\n      swap2\n      sub\n      swap1\n      revert\n    tag_272:\n        /* \"contracts/_ronix.sol\":12426:12427  1 */\n      0x01\n        /* \"contracts/_ronix.sol\":12416:12422  matrix */\n      dup3\n        /* \"contracts/_ronix.sol\":12416:12427  matrix == 1 */\n      0xff\n      and\n      eq\n        /* \"contracts/_ronix.sol\":12416:12442  matrix == 1 || matrix == 2 */\n      dup1\n      tag_275\n      jumpi\n      pop\n        /* \"contracts/_ronix.sol\":12441:12442  2 */\n      0x02\n        /* \"contracts/_ronix.sol\":12431:12437  matrix */\n      dup3\n        /* \"contracts/_ronix.sol\":12431:12442  matrix == 2 */\n      0xff\n      and\n      eq\n        /* \"contracts/_ronix.sol\":12416:12442  matrix == 1 || matrix == 2 */\n    tag_275:\n        /* \"contracts/_ronix.sol\":12408:12461  require(matrix == 1 || matrix == 2, \"invalid matrix\") */\n      tag_276\n      jumpi\n      mload(0x40)\n      0x08c379a000000000000000000000000000000000000000000000000000000000\n      dup2\n      mstore\n      0x04\n      add\n      tag_277\n      swap1\n      tag_278\n      jump\t// in\n    tag_277:\n      mload(0x40)\n      dup1\n      swap2\n      sub\n      swap1\n      revert\n    tag_276:\n        /* \"contracts/_ronix.sol\":12474:12549  depositToken.safeTransferFrom(msg.sender, address(this), levelPrice[level]) */\n      tag_279\n        /* \"contracts/_ronix.sol\":12504:12514  msg.sender */\n      caller\n        /* \"contracts/_ronix.sol\":12524:12528  this */\n      address\n        /* \"contracts/_ronix.sol\":12531:12541  levelPrice */\n      0x09\n        /* \"contracts/_ronix.sol\":12531:12548  levelPrice[level] */\n      0x00\n        /* \"contracts/_ronix.sol\":12542:12547  level */\n      dup6\n        /* \"contracts/_ronix.sol\":12531:12548  levelPrice[level] */\n      0xff\n      and\n      0xff\n      and\n      dup2\n      mstore\n      0x20\n      add\n      swap1\n      dup2\n      mstore\n      0x20\n      add\n      0x00\n      keccak256\n      sload\n        /* \"contracts/_ronix.sol\":12474:12486  depositToken */\n      0x0a\n      0x00\n      swap1\n      sload\n      swap1\n      0x0100\n      exp\n      swap1\n      div\n      0xffffffffffffffffffffffffffffffffffffffff\n      and\n        /* \"contracts/_ronix.sol\":12474:12503  depositToken.safeTransferFrom */\n      0xffffffffffffffffffffffffffffffffffffffff\n      and\n      tag_145\n      swap1\n        /* \"contracts/_ronix.sol\":12474:12549  depositToken.safeTransferFrom(msg.sender, address(this), levelPrice[level]) */\n      swap4\n      swap3\n      swap2\n      swap1\n      0xffffffff\n      and\n      jump\t// in\n    tag_279:\n        /* \"contracts/_ronix.sol\":12646:12647  1 */\n      0x01\n        /* \"contracts/_ronix.sol\":12638:12643  level */\n      dup2\n        /* \"contracts/_ronix.sol\":12638:12647  level > 1 */\n      0xff\n      and\n      gt\n        /* \"contracts/_ronix.sol\":12638:12670  level > 1 && level <= LAST_LEVEL */\n      dup1\n      iszero\n      tag_280\n      jumpi\n      pop\n        /* \"contracts/_ronix.sol\":12660:12670  LAST_LEVEL */\n      0x01\n      0x14\n      swap1\n      sload\n      swap1\n      0x0100\n      exp\n      swap1\n      div\n      0xff\n      and\n        /* \"contracts/_ronix.sol\":12651:12670  level <= LAST_LEVEL */\n      0xff\n      and\n        /* \"contracts/_ronix.sol\":12651:12656  level */\n      dup2\n        /* \"contracts/_ronix.sol\":12651:12670  level <= LAST_LEVEL */\n      0xff\n      and\n      gt\n      iszero\n        /* \"contracts/_ronix.sol\":12638:12670  level > 1 && level <= LAST_LEVEL */\n    tag_280:\n        /* \"contracts/_ronix.sol\":12630:12688  require(level > 1 && level <= LAST_LEVEL, \"invalid level\") */\n      tag_281\n      jumpi\n      mload(0x40)\n      0x08c379a000000000000000000000000000000000000000000000000000000000\n      dup2\n      mstore\n      0x04\n      add\n      tag_282\n      swap1\n      tag_283\n      jump\t// in\n    tag_282:\n      mload(0x40)\n      dup1\n      swap2\n      sub\n      swap1\n      revert\n    tag_281:\n        /* \"contracts/_ronix.sol\":12715:12716  1 */\n      0x01\n        /* \"contracts/_ronix.sol\":12705:12711  matrix */\n      dup3\n        /* \"contracts/_ronix.sol\":12705:12716  matrix == 1 */\n      0xff\n      and\n      sub\n        /* \"contracts/_ronix.sol\":12701:13449  if (matrix == 1) {... */\n      tag_284\n      jumpi\n        /* \"contracts/_ronix.sol\":12739:12744  users */\n      0x02\n        /* \"contracts/_ronix.sol\":12739:12758  users[_userAddress] */\n      0x00\n        /* \"contracts/_ronix.sol\":12745:12757  _userAddress */\n      dup5\n        /* \"contracts/_ronix.sol\":12739:12758  users[_userAddress] */\n      0xffffffffffffffffffffffffffffffffffffffff\n      and\n      0xffffffffffffffffffffffffffffffffffffffff\n      and\n      dup2\n      mstore\n      0x20\n      add\n      swap1\n      dup2\n      mstore\n      0x20\n      add\n      0x00\n      keccak256\n        /* \"contracts/_ronix.sol\":12739:12773  users[_userAddress].activeX3Levels */\n      0x03\n      add\n        /* \"contracts/_ronix.sol\":12739:12782  users[_userAddress].activeX3Levels[level-1] */\n      0x00\n        /* \"contracts/_ronix.sol\":12780:12781  1 */\n      0x01\n        /* \"contracts/_ronix.sol\":12774:12779  level */\n      dup4\n        /* \"contracts/_ronix.sol\":12774:12781  level-1 */\n      tag_285\n      swap2\n      swap1\n      tag_172\n      jump\t// in\n    tag_285:\n        /* \"contracts/_ronix.sol\":12739:12782  users[_userAddress].activeX3Levels[level-1] */\n      0xff\n      and\n      0xff\n      and\n      dup2\n      mstore\n      0x20\n      add\n      swap1\n      dup2\n      mstore\n      0x20\n      add\n      0x00\n      keccak256\n      0x00\n      swap1\n      sload\n      swap1\n      0x0100\n      exp\n      swap1\n      div\n      0xff\n      and\n        /* \"contracts/_ronix.sol\":12731:12811  require(users[_userAddress].activeX3Levels[level-1], \"buy previous level first\") */\n      tag_286\n      jumpi\n      mload(0x40)\n      0x08c379a000000000000000000000000000000000000000000000000000000000\n      dup2\n      mstore\n      0x04\n      add\n      tag_287\n      swap1\n      tag_288\n      jump\t// in\n    tag_287:\n      mload(0x40)\n      dup1\n      swap2\n      sub\n      swap1\n      revert\n    tag_286:\n        /* \"contracts/_ronix.sol\":12833:12838  users */\n      0x02\n        /* \"contracts/_ronix.sol\":12833:12852  users[_userAddress] */\n      0x00\n        /* \"contracts/_ronix.sol\":12839:12851  _userAddress */\n      dup5\n        /* \"contracts/_ronix.sol\":12833:12852  users[_userAddress] */\n      0xffffffffffffffffffffffffffffffffffffffff\n      and\n      0xffffffffffffffffffffffffffffffffffffffff\n      and\n      dup2\n      mstore\n      0x20\n      add\n      swap1\n      dup2\n      mstore\n      0x20\n      add\n      0x00\n      keccak256\n        /* \"contracts/_ronix.sol\":12833:12867  users[_userAddress].activeX3Levels */\n      0x03\n      add\n        /* \"contracts/_ronix.sol\":12833:12874  users[_userAddress].activeX3Levels[level] */\n      0x00\n        /* \"contracts/_ronix.sol\":12868:12873  level */\n      dup3\n        /* \"contracts/_ronix.sol\":12833:12874  users[_userAddress].activeX3Levels[level] */\n      0xff\n      and\n      0xff\n      and\n      dup2\n      mstore\n      0x20\n      add\n      swap1\n      dup2\n      mstore\n      0x20\n      add\n      0x00\n      keccak256\n      0x00\n      swap1\n      sload\n      swap1\n      0x0100\n      exp\n      swap1\n      div\n      0xff\n      and\n        /* \"contracts/_ronix.sol\":12832:12874  !users[_userAddress].activeX3Levels[level] */\n      iszero\n        /* \"contracts/_ronix.sol\":12824:12902  require(!users[_userAddress].activeX3Levels[level], \"level already activated\") */\n      tag_289\n      jumpi\n      mload(0x40)\n      0x08c379a000000000000000000000000000000000000000000000000000000000\n      dup2\n      mstore\n      0x04\n      add\n      tag_290\n      swap1\n      tag_291\n      jump\t// in\n    tag_290:\n      mload(0x40)\n      dup1\n      swap2\n      sub\n      swap1\n      revert\n    tag_289:\n        /* \"contracts/_ronix.sol\":12923:12928  users */\n      0x02\n        /* \"contracts/_ronix.sol\":12923:12942  users[_userAddress] */\n      0x00\n        /* \"contracts/_ronix.sol\":12929:12941  _userAddress */\n      dup5\n        /* \"contracts/_ronix.sol\":12923:12942  users[_userAddress] */\n      0xffffffffffffffffffffffffffffffffffffffff\n      and\n      0xffffffffffffffffffffffffffffffffffffffff\n      and\n      dup2\n      mstore\n      0x20\n      add\n      swap1\n      dup2\n      mstore\n      0x20\n      add\n      0x00\n      keccak256\n        /* \"contracts/_ronix.sol\":12923:12951  users[_userAddress].x3Matrix */\n      0x04\n      add\n        /* \"contracts/_ronix.sol\":12923:12960  users[_userAddress].x3Matrix[level-1] */\n      0x00\n        /* \"contracts/_ronix.sol\":12958:12959  1 */\n      0x01\n        /* \"contracts/_ronix.sol\":12952:12957  level */\n      dup4\n        /* \"contracts/_ronix.sol\":12952:12959  level-1 */\n      tag_292\n      swap2\n      swap1\n      tag_172\n      jump\t// in\n    tag_292:\n        /* \"contracts/_ronix.sol\":12923:12960  users[_userAddress].x3Matrix[level-1] */\n      0xff\n      and\n      0xff\n      and\n      dup2\n      mstore\n      0x20\n      add\n      swap1\n      dup2\n      mstore\n      0x20\n      add\n      0x00\n      keccak256\n        /* \"contracts/_ronix.sol\":12923:12968  users[_userAddress].x3Matrix[level-1].blocked */\n      0x02\n      add\n      0x00\n      swap1\n      sload\n      swap1\n      0x0100\n      exp\n      swap1\n      div\n      0xff\n      and\n        /* \"contracts/_ronix.sol\":12919:13058  if (users[_userAddress].x3Matrix[level-1].blocked) {... */\n      iszero\n      tag_293\n      jumpi\n        /* \"contracts/_ronix.sol\":13037:13042  false */\n      0x00\n        /* \"contracts/_ronix.sol\":12989:12994  users */\n      0x02\n        /* \"contracts/_ronix.sol\":12989:13008  users[_userAddress] */\n      0x00\n        /* \"contracts/_ronix.sol\":12995:13007  _userAddress */\n      dup6\n        /* \"contracts/_ronix.sol\":12989:13008  users[_userAddress] */\n      0xffffffffffffffffffffffffffffffffffffffff\n      and\n      0xffffffffffffffffffffffffffffffffffffffff\n      and\n      dup2\n      mstore\n      0x20\n      add\n      swap1\n      dup2\n      mstore\n      0x20\n      add\n      0x00\n      keccak256\n        /* \"contracts/_ronix.sol\":12989:13017  users[_userAddress].x3Matrix */\n      0x04\n      add\n        /* \"contracts/_ronix.sol\":12989:13026  users[_userAddress].x3Matrix[level-1] */\n      0x00\n        /* \"contracts/_ronix.sol\":13024:13025  1 */\n      0x01\n        /* \"contracts/_ronix.sol\":13018:13023  level */\n      dup5\n        /* \"contracts/_ronix.sol\":13018:13025  level-1 */\n      tag_294\n      swap2\n      swap1\n      tag_172\n      jump\t// in\n    tag_294:\n        /* \"contracts/_ronix.sol\":12989:13026  users[_userAddress].x3Matrix[level-1] */\n      0xff\n      and\n      0xff\n      and\n      dup2\n      mstore\n      0x20\n      add\n      swap1\n      dup2\n      mstore\n      0x20\n      add\n      0x00\n      keccak256\n        /* \"contracts/_ronix.sol\":12989:13034  users[_userAddress].x3Matrix[level-1].blocked */\n      0x02\n      add\n      0x00\n        /* \"contracts/_ronix.sol\":12989:13042  users[_userAddress].x3Matrix[level-1].blocked = false */\n      0x0100\n      exp\n      dup2\n      sload\n      dup2\n      0xff\n      mul\n      not\n      and\n      swap1\n      dup4\n      iszero\n      iszero\n      mul\n      or\n      swap1\n      sstore\n      pop\n        /* \"contracts/_ronix.sol\":12919:13058  if (users[_userAddress].x3Matrix[level-1].blocked) {... */\n    tag_293:\n        /* \"contracts/_ronix.sol\":13078:13100  address freeX3Referrer */\n      0x00\n        /* \"contracts/_ronix.sol\":13103:13142  findFreeX3Referrer(_userAddress, level) */\n      tag_295\n        /* \"contracts/_ronix.sol\":13122:13134  _userAddress */\n      dup5\n        /* \"contracts/_ronix.sol\":13136:13141  level */\n      dup4\n        /* \"contracts/_ronix.sol\":13103:13121  findFreeX3Referrer */\n      tag_137\n        /* \"contracts/_ronix.sol\":13103:13142  findFreeX3Referrer(_userAddress, level) */\n      jump\t// in\n    tag_295:\n        /* \"contracts/_ronix.sol\":13078:13142  address freeX3Referrer = findFreeX3Referrer(_userAddress, level) */\n      swap1\n      pop\n        /* \"contracts/_ronix.sol\":13211:13225  freeX3Referrer */\n      dup1\n        /* \"contracts/_ronix.sol\":13157:13162  users */\n      0x02\n        /* \"contracts/_ronix.sol\":13157:13176  users[_userAddress] */\n      0x00\n        /* \"contracts/_ronix.sol\":13163:13175  _userAddress */\n      dup7\n        /* \"contracts/_ronix.sol\":13157:13176  users[_userAddress] */\n      0xffffffffffffffffffffffffffffffffffffffff\n      and\n      0xffffffffffffffffffffffffffffffffffffffff\n      and\n      dup2\n      mstore\n      0x20\n      add\n      swap1\n      dup2\n      mstore\n      0x20\n      add\n      0x00\n      keccak256\n        /* \"contracts/_ronix.sol\":13157:13185  users[_userAddress].x3Matrix */\n      0x04\n      add\n        /* \"contracts/_ronix.sol\":13157:13192  users[_userAddress].x3Matrix[level] */\n      0x00\n        /* \"contracts/_ronix.sol\":13186:13191  level */\n      dup5\n        /* \"contracts/_ronix.sol\":13157:13192  users[_userAddress].x3Matrix[level] */\n      0xff\n      and\n      0xff\n      and\n      dup2\n      mstore\n      0x20\n      add\n      swap1\n      dup2\n      mstore\n      0x20\n      add\n      0x00\n      keccak256\n        /* \"contracts/_ronix.sol\":13157:13208  users[_userAddress].x3Matrix[level].currentReferrer */\n      0x00\n      add\n      0x00\n        /* \"contracts/_ronix.sol\":13157:13225  users[_userAddress].x3Matrix[level].currentReferrer = freeX3Referrer */\n      0x0100\n      exp\n      dup2\n      sload\n      dup2\n      0xffffffffffffffffffffffffffffffffffffffff\n      mul\n      not\n      and\n      swap1\n      dup4\n      0xffffffffffffffffffffffffffffffffffffffff\n      and\n      mul\n      or\n      swap1\n      sstore\n      pop\n        /* \"contracts/_ronix.sol\":13284:13288  true */\n      0x01\n        /* \"contracts/_ronix.sol\":13240:13245  users */\n      0x02\n        /* \"contracts/_ronix.sol\":13240:13259  users[_userAddress] */\n      0x00\n        /* \"contracts/_ronix.sol\":13246:13258  _userAddress */\n      dup7\n        /* \"contracts/_ronix.sol\":13240:13259  users[_userAddress] */\n      0xffffffffffffffffffffffffffffffffffffffff\n      and\n      0xffffffffffffffffffffffffffffffffffffffff\n      and\n      dup2\n      mstore\n      0x20\n      add\n      swap1\n      dup2\n      mstore\n      0x20\n      add\n      0x00\n      keccak256\n        /* \"contracts/_ronix.sol\":13240:13274  users[_userAddress].activeX3Levels */\n      0x03\n      add\n        /* \"contracts/_ronix.sol\":13240:13281  users[_userAddress].activeX3Levels[level] */\n      0x00\n        /* \"contracts/_ronix.sol\":13275:13280  level */\n      dup5\n        /* \"contracts/_ronix.sol\":13240:13281  users[_userAddress].activeX3Levels[level] */\n      0xff\n      and\n      0xff\n      and\n      dup2\n      mstore\n      0x20\n      add\n      swap1\n      dup2\n      mstore\n      0x20\n      add\n      0x00\n      keccak256\n      0x00\n        /* \"contracts/_ronix.sol\":13240:13288  users[_userAddress].activeX3Levels[level] = true */\n      0x0100\n      exp\n      dup2\n      sload\n      dup2\n      0xff\n      mul\n      not\n      and\n      swap1\n      dup4\n      iszero\n      iszero\n      mul\n      or\n      swap1\n      sstore\n      pop\n        /* \"contracts/_ronix.sol\":13303:13356  updateX3Referrer(_userAddress, freeX3Referrer, level) */\n      tag_296\n        /* \"contracts/_ronix.sol\":13320:13332  _userAddress */\n      dup5\n        /* \"contracts/_ronix.sol\":13334:13348  freeX3Referrer */\n      dup3\n        /* \"contracts/_ronix.sol\":13350:13355  level */\n      dup5\n        /* \"contracts/_ronix.sol\":13303:13319  updateX3Referrer */\n      tag_159\n        /* \"contracts/_ronix.sol\":13303:13356  updateX3Referrer(_userAddress, freeX3Referrer, level) */\n      jump\t// in\n    tag_296:\n        /* \"contracts/_ronix.sol\":13412:13426  freeX3Referrer */\n      dup1\n        /* \"contracts/_ronix.sol\":13390:13437  Upgrade(_userAddress, freeX3Referrer, 1, level) */\n      0xffffffffffffffffffffffffffffffffffffffff\n      and\n        /* \"contracts/_ronix.sol\":13398:13410  _userAddress */\n      dup5\n        /* \"contracts/_ronix.sol\":13390:13437  Upgrade(_userAddress, freeX3Referrer, 1, level) */\n      0xffffffffffffffffffffffffffffffffffffffff\n      and\n      0x18a92df19fd94d6cfff209966673a5ca05a1c8e2bb68e097fce2bdc2ed811119\n        /* \"contracts/_ronix.sol\":13428:13429  1 */\n      0x01\n        /* \"contracts/_ronix.sol\":13431:13436  level */\n      dup6\n        /* \"contracts/_ronix.sol\":13390:13437  Upgrade(_userAddress, freeX3Referrer, 1, level) */\n      mload(0x40)\n      tag_297\n      swap3\n      swap2\n      swap1\n      tag_264\n      jump\t// in\n    tag_297:\n      mload(0x40)\n      dup1\n      swap2\n      sub\n      swap1\n      log3\n        /* \"contracts/_ronix.sol\":12718:13449  {... */\n      pop\n        /* \"contracts/_ronix.sol\":12701:13449  if (matrix == 1) {... */\n    tag_284:\n        /* \"contracts/_ronix.sol\":12232:13458  function _buyNewLevel(address _userAddress, uint8 matrix, uint8 level) internal {... */\n      pop\n      pop\n      pop\n      jump\t// out\n        /* \"contracts/_ronix.sol\":6478:6812  function _callOptionalReturn(IERC20 token, bytes memory data) private {... */\n    tag_239:\n        /* \"contracts/_ronix.sol\":6559:6582  bytes memory returndata */\n      0x00\n        /* \"contracts/_ronix.sol\":6585:6655  address(token).functionCall(data, \"SafeERC20 : low level call failed\") */\n      tag_299\n        /* \"contracts/_ronix.sol\":6613:6617  data */\n      dup3\n        /* \"contracts/_ronix.sol\":6585:6655  address(token).functionCall(data, \"SafeERC20 : low level call failed\") */\n      mload(0x40)\n      dup1\n      0x60\n      add\n      0x40\n      mstore\n      dup1\n      0x21\n      dup2\n      mstore\n      0x20\n      add\n      data_ce700ee4acd3b3d438acd5e24e61d2ddf0314d8fedd036f609ee9ddd5a71b08b\n      0x21\n      swap2\n      codecopy\n        /* \"contracts/_ronix.sol\":6593:6598  token */\n      dup6\n        /* \"contracts/_ronix.sol\":6585:6612  address(token).functionCall */\n      0xffffffffffffffffffffffffffffffffffffffff\n      and\n      tag_300\n      swap1\n        /* \"contracts/_ronix.sol\":6585:6655  address(token).functionCall(data, \"SafeERC20 : low level call failed\") */\n      swap3\n      swap2\n      swap1\n      0xffffffff\n      and\n      jump\t// in\n    tag_299:\n        /* \"contracts/_ronix.sol\":6559:6655  bytes memory returndata = address(token).functionCall(data, \"SafeERC20 : low level call failed\") */\n      swap1\n      pop\n        /* \"contracts/_ronix.sol\":6687:6688  0 */\n      0x00\n        /* \"contracts/_ronix.sol\":6669:6679  returndata */\n      dup2\n        /* \"contracts/_ronix.sol\":6669:6686  returndata.length */\n      mload\n        /* \"contracts/_ronix.sol\":6669:6688  returndata.length>0 */\n      gt\n        /* \"contracts/_ronix.sol\":6666:6804  if(returndata.length>0) {... */\n      iszero\n      tag_301\n      jumpi\n        /* \"contracts/_ronix.sol\":6724:6734  returndata */\n      dup1\n        /* \"contracts/_ronix.sol\":6713:6743  abi.decode(returndata, (bool)) */\n      dup1\n      0x20\n      add\n      swap1\n      mload\n      dup2\n      add\n      swap1\n      tag_302\n      swap2\n      swap1\n      tag_215\n      jump\t// in\n    tag_302:\n        /* \"contracts/_ronix.sol\":6705:6791  require(abi.decode(returndata, (bool)), \"SafeERC20 : ERC20 operation did not succeed\") */\n      tag_303\n      jumpi\n      mload(0x40)\n      0x08c379a000000000000000000000000000000000000000000000000000000000\n      dup2\n      mstore\n      0x04\n      add\n      tag_304\n      swap1\n      tag_305\n      jump\t// in\n    tag_304:\n      mload(0x40)\n      dup1\n      swap2\n      sub\n      swap1\n      revert\n    tag_303:\n        /* \"contracts/_ronix.sol\":6666:6804  if(returndata.length>0) {... */\n    tag_301:\n        /* \"contracts/_ronix.sol\":6548:6812  {... */\n      pop\n        /* \"contracts/_ronix.sol\":6478:6812  function _callOptionalReturn(IERC20 token, bytes memory data) private {... */\n      pop\n      pop\n      jump\t// out\n        /* \"contracts/_ronix.sol\":18205:18780  function sendBUSDDividends(address userAddress, address _from, uint8 matrix, uint8 level) private {... */\n    tag_246:\n        /* \"contracts/_ronix.sol\":18315:18331  address receiver */\n      0x00\n        /* \"contracts/_ronix.sol\":18333:18354  bool isExtraDividends */\n      dup1\n        /* \"contracts/_ronix.sol\":18358:18409  findBUSDReceiver(userAddress, _from, matrix, level) */\n      tag_307\n        /* \"contracts/_ronix.sol\":18375:18386  userAddress */\n      dup7\n        /* \"contracts/_ronix.sol\":18388:18393  _from */\n      dup7\n        /* \"contracts/_ronix.sol\":18395:18401  matrix */\n      dup7\n        /* \"contracts/_ronix.sol\":18403:18408  level */\n      dup7\n        /* \"contracts/_ronix.sol\":18358:18374  findBUSDReceiver */\n      tag_308\n        /* \"contracts/_ronix.sol\":18358:18409  findBUSDReceiver(userAddress, _from, matrix, level) */\n      jump\t// in\n    tag_307:\n        /* \"contracts/_ronix.sol\":18314:18409  (address receiver, bool isExtraDividends) = findBUSDReceiver(userAddress, _from, matrix, level) */\n      swap2\n      pop\n      swap2\n      pop\n        /* \"contracts/_ronix.sol\":18422:18476  depositToken.safeTransfer(receiver, levelPrice[level]) */\n      tag_309\n        /* \"contracts/_ronix.sol\":18448:18456  receiver */\n      dup3\n        /* \"contracts/_ronix.sol\":18458:18468  levelPrice */\n      0x09\n        /* \"contracts/_ronix.sol\":18458:18475  levelPrice[level] */\n      0x00\n        /* \"contracts/_ronix.sol\":18469:18474  level */\n      dup7\n        /* \"contracts/_ronix.sol\":18458:18475  levelPrice[level] */\n      0xff\n      and\n      0xff\n      and\n      dup2\n      mstore\n      0x20\n      add\n      swap1\n      dup2\n      mstore\n      0x20\n      add\n      0x00\n      keccak256\n      sload\n        /* \"contracts/_ronix.sol\":18422:18434  depositToken */\n      0x0a\n      0x00\n      swap1\n      sload\n      swap1\n      0x0100\n      exp\n      swap1\n      div\n      0xffffffffffffffffffffffffffffffffffffffff\n      and\n        /* \"contracts/_ronix.sol\":18422:18447  depositToken.safeTransfer */\n      0xffffffffffffffffffffffffffffffffffffffff\n      and\n      tag_310\n      swap1\n        /* \"contracts/_ronix.sol\":18422:18476  depositToken.safeTransfer(receiver, levelPrice[level]) */\n      swap3\n      swap2\n      swap1\n      0xffffffff\n      and\n      jump\t// in\n    tag_309:\n        /* \"contracts/_ronix.sol\":18669:18685  isExtraDividends */\n      dup1\n        /* \"contracts/_ronix.sol\":18665:18773  if (isExtraDividends) {... */\n      iszero\n      tag_311\n      jumpi\n        /* \"contracts/_ronix.sol\":18737:18745  receiver */\n      dup2\n        /* \"contracts/_ronix.sol\":18707:18761  SentExtraBUSDDividends(_from, receiver, matrix, level) */\n      0xffffffffffffffffffffffffffffffffffffffff\n      and\n        /* \"contracts/_ronix.sol\":18730:18735  _from */\n      dup6\n        /* \"contracts/_ronix.sol\":18707:18761  SentExtraBUSDDividends(_from, receiver, matrix, level) */\n      0xffffffffffffffffffffffffffffffffffffffff\n      and\n      0xcb6aa629ee1faeb728bc6cce262180355c663f2f7b0b56ac9d99d56c889bb295\n        /* \"contracts/_ronix.sol\":18747:18753  matrix */\n      dup7\n        /* \"contracts/_ronix.sol\":18755:18760  level */\n      dup7\n        /* \"contracts/_ronix.sol\":18707:18761  SentExtraBUSDDividends(_from, receiver, matrix, level) */\n      mload(0x40)\n      tag_312\n      swap3\n      swap2\n      swap1\n      tag_313\n      jump\t// in\n    tag_312:\n      mload(0x40)\n      dup1\n      swap2\n      sub\n      swap1\n      log3\n        /* \"contracts/_ronix.sol\":18665:18773  if (isExtraDividends) {... */\n    tag_311:\n        /* \"contracts/_ronix.sol\":18303:18780  {... */\n      pop\n      pop\n        /* \"contracts/_ronix.sol\":18205:18780  function sendBUSDDividends(address userAddress, address _from, uint8 matrix, uint8 level) private {... */\n      pop\n      pop\n      pop\n      pop\n      jump\t// out\n        /* \"contracts/_ronix.sol\":2926:3121  function functionCall(address target, bytes memory data, string memory errorMessage) internal returns (bytes memory) {... */\n    tag_300:\n        /* \"contracts/_ronix.sol\":3029:3041  bytes memory */\n      0x60\n        /* \"contracts/_ronix.sol\":3061:3113  functionCallWithValue(target, data, 0, errorMessage) */\n      tag_315\n        /* \"contracts/_ronix.sol\":3083:3089  target */\n      dup5\n        /* \"contracts/_ronix.sol\":3091:3095  data */\n      dup5\n        /* \"contracts/_ronix.sol\":3097:3098  0 */\n      0x00\n        /* \"contracts/_ronix.sol\":3100:3112  errorMessage */\n      dup6\n        /* \"contracts/_ronix.sol\":3061:3082  functionCallWithValue */\n      tag_316\n        /* \"contracts/_ronix.sol\":3061:3113  functionCallWithValue(target, data, 0, errorMessage) */\n      jump\t// in\n    tag_315:\n        /* \"contracts/_ronix.sol\":3054:3113  return functionCallWithValue(target, data, 0, errorMessage) */\n      swap1\n      pop\n        /* \"contracts/_ronix.sol\":2926:3121  function functionCall(address target, bytes memory data, string memory errorMessage) internal returns (bytes memory) {... */\n      swap4\n      swap3\n      pop\n      pop\n      pop\n      jump\t// out\n        /* \"contracts/_ronix.sol\":17547:18197  function findBUSDReceiver(address userAddress, address _from, uint8 matrix, uint8 level) private returns(address,bool) {... */\n    tag_308:\n        /* \"contracts/_ronix.sol\":17652:17659  address */\n      0x00\n        /* \"contracts/_ronix.sol\":17660:17664  bool */\n      dup1\n        /* \"contracts/_ronix.sol\":17677:17693  address receiver */\n      0x00\n        /* \"contracts/_ronix.sol\":17696:17707  userAddress */\n      dup7\n        /* \"contracts/_ronix.sol\":17677:17707  address receiver = userAddress */\n      swap1\n      pop\n        /* \"contracts/_ronix.sol\":17718:17739  bool isExtraDividends */\n      0x00\n        /* \"contracts/_ronix.sol\":17764:17765  1 */\n      0x01\n        /* \"contracts/_ronix.sol\":17754:17760  matrix */\n      dup7\n        /* \"contracts/_ronix.sol\":17754:17765  matrix == 1 */\n      0xff\n      and\n      sub\n        /* \"contracts/_ronix.sol\":17750:18188  if (matrix == 1) {... */\n      tag_318\n      jumpi\n        /* \"contracts/_ronix.sol\":17782:18177  while (true) {... */\n    tag_319:\n        /* \"contracts/_ronix.sol\":17789:17793  true */\n      0x01\n        /* \"contracts/_ronix.sol\":17782:18177  while (true) {... */\n      iszero\n      tag_320\n      jumpi\n        /* \"contracts/_ronix.sol\":17818:17823  users */\n      0x02\n        /* \"contracts/_ronix.sol\":17818:17833  users[receiver] */\n      0x00\n        /* \"contracts/_ronix.sol\":17824:17832  receiver */\n      dup4\n        /* \"contracts/_ronix.sol\":17818:17833  users[receiver] */\n      0xffffffffffffffffffffffffffffffffffffffff\n      and\n      0xffffffffffffffffffffffffffffffffffffffff\n      and\n      dup2\n      mstore\n      0x20\n      add\n      swap1\n      dup2\n      mstore\n      0x20\n      add\n      0x00\n      keccak256\n        /* \"contracts/_ronix.sol\":17818:17842  users[receiver].x3Matrix */\n      0x04\n      add\n        /* \"contracts/_ronix.sol\":17818:17849  users[receiver].x3Matrix[level] */\n      0x00\n        /* \"contracts/_ronix.sol\":17843:17848  level */\n      dup7\n        /* \"contracts/_ronix.sol\":17818:17849  users[receiver].x3Matrix[level] */\n      0xff\n      and\n      0xff\n      and\n      dup2\n      mstore\n      0x20\n      add\n      swap1\n      dup2\n      mstore\n      0x20\n      add\n      0x00\n      keccak256\n        /* \"contracts/_ronix.sol\":17818:17857  users[receiver].x3Matrix[level].blocked */\n      0x02\n      add\n      0x00\n      swap1\n      sload\n      swap1\n      0x0100\n      exp\n      swap1\n      div\n      0xff\n      and\n        /* \"contracts/_ronix.sol\":17814:18162  if (users[receiver].x3Matrix[level].blocked) {... */\n      iszero\n      tag_321\n      jumpi\n        /* \"contracts/_ronix.sol\":17915:17920  _from */\n      dup7\n        /* \"contracts/_ronix.sol\":17887:17931  MissedBUSDReceive(receiver, _from, 1, level) */\n      0xffffffffffffffffffffffffffffffffffffffff\n      and\n        /* \"contracts/_ronix.sol\":17905:17913  receiver */\n      dup3\n        /* \"contracts/_ronix.sol\":17887:17931  MissedBUSDReceive(receiver, _from, 1, level) */\n      0xffffffffffffffffffffffffffffffffffffffff\n      and\n      0x07678b5e798b871147619c77c31d658def8f71fd554f6130ba85fe1bbae8d5bf\n        /* \"contracts/_ronix.sol\":17922:17923  1 */\n      0x01\n        /* \"contracts/_ronix.sol\":17925:17930  level */\n      dup9\n        /* \"contracts/_ronix.sol\":17887:17931  MissedBUSDReceive(receiver, _from, 1, level) */\n      mload(0x40)\n      tag_322\n      swap3\n      swap2\n      swap1\n      tag_264\n      jump\t// in\n    tag_322:\n      mload(0x40)\n      dup1\n      swap2\n      sub\n      swap1\n      log3\n        /* \"contracts/_ronix.sol\":17973:17977  true */\n      0x01\n        /* \"contracts/_ronix.sol\":17954:17977  isExtraDividends = true */\n      swap1\n      pop\n        /* \"contracts/_ronix.sol\":18011:18016  users */\n      0x02\n        /* \"contracts/_ronix.sol\":18011:18026  users[receiver] */\n      0x00\n        /* \"contracts/_ronix.sol\":18017:18025  receiver */\n      dup4\n        /* \"contracts/_ronix.sol\":18011:18026  users[receiver] */\n      0xffffffffffffffffffffffffffffffffffffffff\n      and\n      0xffffffffffffffffffffffffffffffffffffffff\n      and\n      dup2\n      mstore\n      0x20\n      add\n      swap1\n      dup2\n      mstore\n      0x20\n      add\n      0x00\n      keccak256\n        /* \"contracts/_ronix.sol\":18011:18035  users[receiver].x3Matrix */\n      0x04\n      add\n        /* \"contracts/_ronix.sol\":18011:18042  users[receiver].x3Matrix[level] */\n      0x00\n        /* \"contracts/_ronix.sol\":18036:18041  level */\n      dup7\n        /* \"contracts/_ronix.sol\":18011:18042  users[receiver].x3Matrix[level] */\n      0xff\n      and\n      0xff\n      and\n      dup2\n      mstore\n      0x20\n      add\n      swap1\n      dup2\n      mstore\n      0x20\n      add\n      0x00\n      keccak256\n        /* \"contracts/_ronix.sol\":18011:18058  users[receiver].x3Matrix[level].currentReferrer */\n      0x00\n      add\n      0x00\n      swap1\n      sload\n      swap1\n      0x0100\n      exp\n      swap1\n      div\n      0xffffffffffffffffffffffffffffffffffffffff\n      and\n        /* \"contracts/_ronix.sol\":18000:18058  receiver = users[receiver].x3Matrix[level].currentReferrer */\n      swap2\n      pop\n        /* \"contracts/_ronix.sol\":17814:18162  if (users[receiver].x3Matrix[level].blocked) {... */\n      jump(tag_323)\n    tag_321:\n        /* \"contracts/_ronix.sol\":18115:18123  receiver */\n      dup2\n        /* \"contracts/_ronix.sol\":18125:18141  isExtraDividends */\n      dup2\n        /* \"contracts/_ronix.sol\":18107:18142  return (receiver, isExtraDividends) */\n      swap4\n      pop\n      swap4\n      pop\n      pop\n      pop\n      jump(tag_317)\n        /* \"contracts/_ronix.sol\":17814:18162  if (users[receiver].x3Matrix[level].blocked) {... */\n    tag_323:\n        /* \"contracts/_ronix.sol\":17782:18177  while (true) {... */\n      jump(tag_319)\n    tag_320:\n        /* \"contracts/_ronix.sol\":17750:18188  if (matrix == 1) {... */\n    tag_318:\n        /* \"contracts/_ronix.sol\":17666:18197  {... */\n      pop\n      pop\n        /* \"contracts/_ronix.sol\":17547:18197  function findBUSDReceiver(address userAddress, address _from, uint8 matrix, uint8 level) private returns(address,bool) {... */\n    tag_317:\n      swap5\n      pop\n      swap5\n      swap3\n      pop\n      pop\n      pop\n      jump\t// out\n        /* \"contracts/_ronix.sol\":5169:5347  function safeTransfer(IERC20 token, address to, uint256 value) internal {... */\n    tag_310:\n        /* \"contracts/_ronix.sol\":5252:5338  _callOptionalReturn(token, abi.encodeWithSelector(token.transfer.selector, to, value)) */\n      tag_325\n        /* \"contracts/_ronix.sol\":5272:5277  token */\n      dup4\n        /* \"contracts/_ronix.sol\":5302:5325  token.transfer.selector */\n      shl(0xe0, 0xa9059cbb)\n        /* \"contracts/_ronix.sol\":5327:5329  to */\n      dup5\n        /* \"contracts/_ronix.sol\":5331:5336  value */\n      dup5\n        /* \"contracts/_ronix.sol\":5279:5337  abi.encodeWithSelector(token.transfer.selector, to, value) */\n      add(0x24, mload(0x40))\n      tag_326\n      swap3\n      swap2\n      swap1\n      tag_211\n      jump\t// in\n    tag_326:\n      mload(0x40)\n      0x20\n      dup2\n      dup4\n      sub\n      sub\n      dup2\n      mstore\n      swap1\n      0x40\n      mstore\n      swap1\n      not(0xffffffffffffffffffffffffffffffffffffffffffffffffffffffff)\n      and\n      0x20\n      dup3\n      add\n      dup1\n      mload\n      0xffffffffffffffffffffffffffffffffffffffffffffffffffffffff\n      dup4\n      dup2\n      dup4\n      and\n      or\n      dup4\n      mstore\n      pop\n      pop\n      pop\n      pop\n        /* \"contracts/_ronix.sol\":5252:5271  _callOptionalReturn */\n      tag_239\n        /* \"contracts/_ronix.sol\":5252:5338  _callOptionalReturn(token, abi.encodeWithSelector(token.transfer.selector, to, value)) */\n      jump\t// in\n    tag_325:\n        /* \"contracts/_ronix.sol\":5169:5347  function safeTransfer(IERC20 token, address to, uint256 value) internal {... */\n      pop\n      pop\n      pop\n      jump\t// out\n        /* \"contracts/_ronix.sol\":3360:3767  function functionCallWithValue(address target, bytes memory data, uint256 value, string memory errorMessage) internal returns (bytes memory) {... */\n    tag_316:\n        /* \"contracts/_ronix.sol\":3487:3499  bytes memory */\n      0x60\n        /* \"contracts/_ronix.sol\":3545:3550  value */\n      dup3\n        /* \"contracts/_ronix.sol\":3520:3541  address(this).balance */\n      selfbalance\n        /* \"contracts/_ronix.sol\":3520:3550  address(this).balance >= value */\n      lt\n      iszero\n        /* \"contracts/_ronix.sol\":3512:3594  require(address(this).balance >= value, \"Address : insufficient balance for call\") */\n      tag_328\n      jumpi\n      mload(0x40)\n      0x08c379a000000000000000000000000000000000000000000000000000000000\n      dup2\n      mstore\n      0x04\n      add\n      tag_329\n      swap1\n      tag_330\n      jump\t// in\n    tag_329:\n      mload(0x40)\n      dup1\n      swap2\n      sub\n      swap1\n      revert\n    tag_328:\n        /* \"contracts/_ronix.sol\":3606:3618  bool success */\n      0x00\n        /* \"contracts/_ronix.sol\":3620:3643  bytes memory returndata */\n      dup1\n        /* \"contracts/_ronix.sol\":3647:3653  target */\n      dup7\n        /* \"contracts/_ronix.sol\":3647:3658  target.call */\n      0xffffffffffffffffffffffffffffffffffffffff\n      and\n        /* \"contracts/_ronix.sol\":3667:3672  value */\n      dup6\n        /* \"contracts/_ronix.sol\":3674:3678  data */\n      dup8\n        /* \"contracts/_ronix.sol\":3647:3679  target.call{value : value}(data) */\n      mload(0x40)\n      tag_331\n      swap2\n      swap1\n      tag_332\n      jump\t// in\n    tag_331:\n      0x00\n      mload(0x40)\n      dup1\n      dup4\n      sub\n      dup2\n      dup6\n      dup8\n      gas\n      call\n      swap3\n      pop\n      pop\n      pop\n      returndatasize\n      dup1\n      0x00\n      dup2\n      eq\n      tag_335\n      jumpi\n      mload(0x40)\n      swap2\n      pop\n      and(add(returndatasize, 0x3f), not(0x1f))\n      dup3\n      add\n      0x40\n      mstore\n      returndatasize\n      dup3\n      mstore\n      returndatasize\n      0x00\n      0x20\n      dup5\n      add\n      returndatacopy\n      jump(tag_334)\n    tag_335:\n      0x60\n      swap2\n      pop\n    tag_334:\n      pop\n        /* \"contracts/_ronix.sol\":3605:3679  (bool success, bytes memory returndata) = target.call{value : value}(data) */\n      swap2\n      pop\n      swap2\n      pop\n        /* \"contracts/_ronix.sol\":3697:3759  verifyCallResultFromTarget( success, returndata, errorMessage) */\n      tag_336\n        /* \"contracts/_ronix.sol\":3725:3732  success */\n      dup3\n        /* \"contracts/_ronix.sol\":3734:3744  returndata */\n      dup3\n        /* \"contracts/_ronix.sol\":3746:3758  errorMessage */\n      dup7\n        /* \"contracts/_ronix.sol\":3697:3723  verifyCallResultFromTarget */\n      tag_337\n        /* \"contracts/_ronix.sol\":3697:3759  verifyCallResultFromTarget( success, returndata, errorMessage) */\n      jump\t// in\n    tag_336:\n        /* \"contracts/_ronix.sol\":3690:3759  return verifyCallResultFromTarget( success, returndata, errorMessage) */\n      swap3\n      pop\n      pop\n      pop\n        /* \"contracts/_ronix.sol\":3360:3767  function functionCallWithValue(address target, bytes memory data, uint256 value, string memory errorMessage) internal returns (bytes memory) {... */\n      swap5\n      swap4\n      pop\n      pop\n      pop\n      pop\n      jump\t// out\n        /* \"contracts/_ronix.sol\":4277:5070  function verifyCallResultFromTarget( bool success, bytes memory returndata, string memory errorMessage) internal pure returns (bytes memory) {... */\n    tag_337:\n        /* \"contracts/_ronix.sol\":4404:4416  bytes memory */\n      0x60\n        /* \"contracts/_ronix.sol\":4449:4456  success */\n      dup4\n        /* \"contracts/_ronix.sol\":4446:5063  if(success) {... */\n      iszero\n      tag_339\n      jumpi\n        /* \"contracts/_ronix.sol\":4495:4496  0 */\n      0x00\n        /* \"contracts/_ronix.sol\":4476:4486  returndata */\n      dup4\n        /* \"contracts/_ronix.sol\":4476:4493  returndata.length */\n      mload\n        /* \"contracts/_ronix.sol\":4476:4496  returndata.length==0 */\n      sub\n        /* \"contracts/_ronix.sol\":4473:4746  if(returndata.length==0) {... */\n      tag_340\n      jumpi\n        /* \"contracts/_ronix.sol\":4524:4534  returndata */\n      dup3\n        /* \"contracts/_ronix.sol\":4517:4534  return returndata */\n      swap1\n      pop\n      jump(tag_338)\n        /* \"contracts/_ronix.sol\":4473:4746  if(returndata.length==0) {... */\n    tag_340:\n        /* \"contracts/_ronix.sol\":4635:4645  returndata */\n      dup3\n        /* \"contracts/_ronix.sol\":4629:4646  mload(returndata) */\n      mload\n        /* \"contracts/_ronix.sol\":4696:4711  returndata_size */\n      dup1\n        /* \"contracts/_ronix.sol\":4683:4693  returndata */\n      dup5\n        /* \"contracts/_ronix.sol\":4679:4681  32 */\n      0x20\n        /* \"contracts/_ronix.sol\":4675:4694  add(32, returndata) */\n      add\n        /* \"contracts/_ronix.sol\":4668:4712  revert(add(32, returndata), returndata_size) */\n      revert\n        /* \"contracts/_ronix.sol\":4446:5063  if(success) {... */\n    tag_339:\n        /* \"contracts/_ronix.sol\":4798:4799  0 */\n      0x00\n        /* \"contracts/_ronix.sol\":4780:4790  returndata */\n      dup4\n        /* \"contracts/_ronix.sol\":4780:4797  returndata.length */\n      mload\n        /* \"contracts/_ronix.sol\":4780:4799  returndata.length>0 */\n      gt\n        /* \"contracts/_ronix.sol\":4777:5052  if(returndata.length>0) {... */\n      iszero\n      tag_343\n      jumpi\n        /* \"contracts/_ronix.sol\":4881:4891  returndata */\n      dup3\n        /* \"contracts/_ronix.sol\":4875:4892  mload(returndata) */\n      mload\n        /* \"contracts/_ronix.sol\":4942:4957  returndata_size */\n      dup1\n        /* \"contracts/_ronix.sol\":4929:4939  returndata */\n      dup5\n        /* \"contracts/_ronix.sol\":4925:4927  32 */\n      0x20\n        /* \"contracts/_ronix.sol\":4921:4940  add(32, returndata) */\n      add\n        /* \"contracts/_ronix.sol\":4914:4958  revert(add(32, returndata), returndata_size) */\n      revert\n        /* \"contracts/_ronix.sol\":4777:5052  if(returndata.length>0) {... */\n    tag_343:\n        /* \"contracts/_ronix.sol\":5023:5035  errorMessage */\n      dup2\n        /* \"contracts/_ronix.sol\":5016:5036  revert(errorMessage) */\n      mload(0x40)\n      0x08c379a000000000000000000000000000000000000000000000000000000000\n      dup2\n      mstore\n      0x04\n      add\n      tag_345\n      swap2\n      swap1\n      tag_346\n      jump\t// in\n    tag_345:\n      mload(0x40)\n      dup1\n      swap2\n      sub\n      swap1\n      revert\n        /* \"contracts/_ronix.sol\":4277:5070  function verifyCallResultFromTarget( bool success, bytes memory returndata, string memory errorMessage) internal pure returns (bytes memory) {... */\n    tag_338:\n      swap4\n      swap3\n      pop\n      pop\n      pop\n      jump\t// out\n    tag_254:\n      dup3\n      dup1\n      sload\n      dup3\n      dup3\n      sstore\n      swap1\n      0x00\n      mstore\n      keccak256(0x00, 0x20)\n      swap1\n      dup2\n      add\n      swap3\n      dup3\n      iszero\n      tag_347\n      jumpi\n      swap2\n      0x20\n      mul\n      dup3\n      add\n    tag_348:\n      dup3\n      dup2\n      gt\n      iszero\n      tag_349\n      jumpi\n      dup3\n      mload\n      dup3\n      exp(0x0100, 0x00)\n      dup2\n      sload\n      dup2\n      0xffffffffffffffffffffffffffffffffffffffff\n      mul\n      not\n      and\n      swap1\n      dup4\n      0xffffffffffffffffffffffffffffffffffffffff\n      and\n      mul\n      or\n      swap1\n      sstore\n      pop\n      swap2\n      0x20\n      add\n      swap2\n      swap1\n      0x01\n      add\n      swap1\n      jump(tag_348)\n    tag_349:\n    tag_347:\n      pop\n      swap1\n      pop\n      tag_350\n      swap2\n      swap1\n      tag_351\n      jump\t// in\n    tag_350:\n      pop\n      swap1\n      jump\t// out\n    tag_351:\n    tag_352:\n      dup1\n      dup3\n      gt\n      iszero\n      tag_353\n      jumpi\n      0x00\n      dup2\n      0x00\n      swap1\n      sstore\n      pop\n      0x01\n      add\n      jump(tag_352)\n    tag_353:\n      pop\n      swap1\n      jump\t// out\n        /* \"#utility.yul\":88:205   */\n    tag_355:\n        /* \"#utility.yul\":197:198   */\n      0x00\n        /* \"#utility.yul\":194:195   */\n      dup1\n        /* \"#utility.yul\":187:199   */\n      revert\n        /* \"#utility.yul\":334:460   */\n    tag_357:\n        /* \"#utility.yul\":371:378   */\n      0x00\n        /* \"#utility.yul\":411:453   */\n      0xffffffffffffffffffffffffffffffffffffffff\n        /* \"#utility.yul\":404:409   */\n      dup3\n        /* \"#utility.yul\":400:454   */\n      and\n        /* \"#utility.yul\":389:454   */\n      swap1\n      pop\n        /* \"#utility.yul\":334:460   */\n      swap2\n      swap1\n      pop\n      jump\t// out\n        /* \"#utility.yul\":466:562   */\n    tag_358:\n        /* \"#utility.yul\":503:510   */\n      0x00\n        /* \"#utility.yul\":532:556   */\n      tag_433\n        /* \"#utility.yul\":550:555   */\n      dup3\n        /* \"#utility.yul\":532:556   */\n      tag_357\n      jump\t// in\n    tag_433:\n        /* \"#utility.yul\":521:556   */\n      swap1\n      pop\n        /* \"#utility.yul\":466:562   */\n      swap2\n      swap1\n      pop\n      jump\t// out\n        /* \"#utility.yul\":568:690   */\n    tag_359:\n        /* \"#utility.yul\":641:665   */\n      tag_435\n        /* \"#utility.yul\":659:664   */\n      dup2\n        /* \"#utility.yul\":641:665   */\n      tag_358\n      jump\t// in\n    tag_435:\n        /* \"#utility.yul\":634:639   */\n      dup2\n        /* \"#utility.yul\":631:666   */\n      eq\n        /* \"#utility.yul\":621:684   */\n      tag_436\n      jumpi\n        /* \"#utility.yul\":680:681   */\n      0x00\n        /* \"#utility.yul\":677:678   */\n      dup1\n        /* \"#utility.yul\":670:682   */\n      revert\n        /* \"#utility.yul\":621:684   */\n    tag_436:\n        /* \"#utility.yul\":568:690   */\n      pop\n      jump\t// out\n        /* \"#utility.yul\":696:835   */\n    tag_360:\n        /* \"#utility.yul\":742:747   */\n      0x00\n        /* \"#utility.yul\":780:786   */\n      dup2\n        /* \"#utility.yul\":767:787   */\n      calldataload\n        /* \"#utility.yul\":758:787   */\n      swap1\n      pop\n        /* \"#utility.yul\":796:829   */\n      tag_438\n        /* \"#utility.yul\":823:828   */\n      dup2\n        /* \"#utility.yul\":796:829   */\n      tag_359\n      jump\t// in\n    tag_438:\n        /* \"#utility.yul\":696:835   */\n      swap3\n      swap2\n      pop\n      pop\n      jump\t// out\n        /* \"#utility.yul\":841:927   */\n    tag_361:\n        /* \"#utility.yul\":876:883   */\n      0x00\n        /* \"#utility.yul\":916:920   */\n      0xff\n        /* \"#utility.yul\":909:914   */\n      dup3\n        /* \"#utility.yul\":905:921   */\n      and\n        /* \"#utility.yul\":894:921   */\n      swap1\n      pop\n        /* \"#utility.yul\":841:927   */\n      swap2\n      swap1\n      pop\n      jump\t// out\n        /* \"#utility.yul\":933:1051   */\n    tag_362:\n        /* \"#utility.yul\":1004:1026   */\n      tag_441\n        /* \"#utility.yul\":1020:1025   */\n      dup2\n        /* \"#utility.yul\":1004:1026   */\n      tag_361\n      jump\t// in\n    tag_441:\n        /* \"#utility.yul\":997:1002   */\n      dup2\n        /* \"#utility.yul\":994:1027   */\n      eq\n        /* \"#utility.yul\":984:1045   */\n      tag_442\n      jumpi\n        /* \"#utility.yul\":1041:1042   */\n      0x00\n        /* \"#utility.yul\":1038:1039   */\n      dup1\n        /* \"#utility.yul\":1031:1043   */\n      revert\n        /* \"#utility.yul\":984:1045   */\n    tag_442:\n        /* \"#utility.yul\":933:1051   */\n      pop\n      jump\t// out\n        /* \"#utility.yul\":1057:1192   */\n    tag_363:\n        /* \"#utility.yul\":1101:1106   */\n      0x00\n        /* \"#utility.yul\":1139:1145   */\n      dup2\n        /* \"#utility.yul\":1126:1146   */\n      calldataload\n        /* \"#utility.yul\":1117:1146   */\n      swap1\n      pop\n        /* \"#utility.yul\":1155:1186   */\n      tag_444\n        /* \"#utility.yul\":1180:1185   */\n      dup2\n        /* \"#utility.yul\":1155:1186   */\n      tag_362\n      jump\t// in\n    tag_444:\n        /* \"#utility.yul\":1057:1192   */\n      swap3\n      swap2\n      pop\n      pop\n      jump\t// out\n        /* \"#utility.yul\":1198:1668   */\n    tag_43:\n        /* \"#utility.yul\":1264:1270   */\n      0x00\n        /* \"#utility.yul\":1272:1278   */\n      dup1\n        /* \"#utility.yul\":1321:1323   */\n      0x40\n        /* \"#utility.yul\":1309:1318   */\n      dup4\n        /* \"#utility.yul\":1300:1307   */\n      dup6\n        /* \"#utility.yul\":1296:1319   */\n      sub\n        /* \"#utility.yul\":1292:1324   */\n      slt\n        /* \"#utility.yul\":1289:1408   */\n      iszero\n      tag_446\n      jumpi\n        /* \"#utility.yul\":1327:1406   */\n      tag_447\n      tag_355\n      jump\t// in\n    tag_447:\n        /* \"#utility.yul\":1289:1408   */\n    tag_446:\n        /* \"#utility.yul\":1447:1448   */\n      0x00\n        /* \"#utility.yul\":1472:1525   */\n      tag_448\n        /* \"#utility.yul\":1517:1524   */\n      dup6\n        /* \"#utility.yul\":1508:1514   */\n      dup3\n        /* \"#utility.yul\":1497:1506   */\n      dup7\n        /* \"#utility.yul\":1493:1515   */\n      add\n        /* \"#utility.yul\":1472:1525   */\n      tag_360\n      jump\t// in\n    tag_448:\n        /* \"#utility.yul\":1462:1525   */\n      swap3\n      pop\n        /* \"#utility.yul\":1418:1535   */\n      pop\n        /* \"#utility.yul\":1574:1576   */\n      0x20\n        /* \"#utility.yul\":1600:1651   */\n      tag_449\n        /* \"#utility.yul\":1643:1650   */\n      dup6\n        /* \"#utility.yul\":1634:1640   */\n      dup3\n        /* \"#utility.yul\":1623:1632   */\n      dup7\n        /* \"#utility.yul\":1619:1641   */\n      add\n        /* \"#utility.yul\":1600:1651   */\n      tag_363\n      jump\t// in\n    tag_449:\n        /* \"#utility.yul\":1590:1651   */\n      swap2\n      pop\n        /* \"#utility.yul\":1545:1661   */\n      pop\n        /* \"#utility.yul\":1198:1668   */\n      swap3\n      pop\n      swap3\n      swap1\n      pop\n      jump\t// out\n        /* \"#utility.yul\":1674:1764   */\n    tag_364:\n        /* \"#utility.yul\":1708:1715   */\n      0x00\n        /* \"#utility.yul\":1751:1756   */\n      dup2\n        /* \"#utility.yul\":1744:1757   */\n      iszero\n        /* \"#utility.yul\":1737:1758   */\n      iszero\n        /* \"#utility.yul\":1726:1758   */\n      swap1\n      pop\n        /* \"#utility.yul\":1674:1764   */\n      swap2\n      swap1\n      pop\n      jump\t// out\n        /* \"#utility.yul\":1770:1879   */\n    tag_365:\n        /* \"#utility.yul\":1851:1872   */\n      tag_452\n        /* \"#utility.yul\":1866:1871   */\n      dup2\n        /* \"#utility.yul\":1851:1872   */\n      tag_364\n      jump\t// in\n    tag_452:\n        /* \"#utility.yul\":1846:1849   */\n      dup3\n        /* \"#utility.yul\":1839:1873   */\n      mstore\n        /* \"#utility.yul\":1770:1879   */\n      pop\n      pop\n      jump\t// out\n        /* \"#utility.yul\":1885:2095   */\n    tag_46:\n        /* \"#utility.yul\":1972:1976   */\n      0x00\n        /* \"#utility.yul\":2010:2012   */\n      0x20\n        /* \"#utility.yul\":1999:2008   */\n      dup3\n        /* \"#utility.yul\":1995:2013   */\n      add\n        /* \"#utility.yul\":1987:2013   */\n      swap1\n      pop\n        /* \"#utility.yul\":2023:2088   */\n      tag_454\n        /* \"#utility.yul\":2085:2086   */\n      0x00\n        /* \"#utility.yul\":2074:2083   */\n      dup4\n        /* \"#utility.yul\":2070:2087   */\n      add\n        /* \"#utility.yul\":2061:2067   */\n      dup5\n        /* \"#utility.yul\":2023:2088   */\n      tag_365\n      jump\t// in\n    tag_454:\n        /* \"#utility.yul\":1885:2095   */\n      swap3\n      swap2\n      pop\n      pop\n      jump\t// out\n        /* \"#utility.yul\":2101:2211   */\n    tag_366:\n        /* \"#utility.yul\":2152:2159   */\n      0x00\n        /* \"#utility.yul\":2181:2205   */\n      tag_456\n        /* \"#utility.yul\":2199:2204   */\n      dup3\n        /* \"#utility.yul\":2181:2205   */\n      tag_358\n      jump\t// in\n    tag_456:\n        /* \"#utility.yul\":2170:2205   */\n      swap1\n      pop\n        /* \"#utility.yul\":2101:2211   */\n      swap2\n      swap1\n      pop\n      jump\t// out\n        /* \"#utility.yul\":2217:2367   */\n    tag_367:\n        /* \"#utility.yul\":2304:2342   */\n      tag_458\n        /* \"#utility.yul\":2336:2341   */\n      dup2\n        /* \"#utility.yul\":2304:2342   */\n      tag_366\n      jump\t// in\n    tag_458:\n        /* \"#utility.yul\":2297:2302   */\n      dup2\n        /* \"#utility.yul\":2294:2343   */\n      eq\n        /* \"#utility.yul\":2284:2361   */\n      tag_459\n      jumpi\n        /* \"#utility.yul\":2357:2358   */\n      0x00\n        /* \"#utility.yul\":2354:2355   */\n      dup1\n        /* \"#utility.yul\":2347:2359   */\n      revert\n        /* \"#utility.yul\":2284:2361   */\n    tag_459:\n        /* \"#utility.yul\":2217:2367   */\n      pop\n      jump\t// out\n        /* \"#utility.yul\":2373:2540   */\n    tag_368:\n        /* \"#utility.yul\":2433:2438   */\n      0x00\n        /* \"#utility.yul\":2471:2477   */\n      dup2\n        /* \"#utility.yul\":2458:2478   */\n      calldataload\n        /* \"#utility.yul\":2449:2478   */\n      swap1\n      pop\n        /* \"#utility.yul\":2487:2534   */\n      tag_461\n        /* \"#utility.yul\":2528:2533   */\n      dup2\n        /* \"#utility.yul\":2487:2534   */\n      tag_367\n      jump\t// in\n    tag_461:\n        /* \"#utility.yul\":2373:2540   */\n      swap3\n      swap2\n      pop\n      pop\n      jump\t// out\n        /* \"#utility.yul\":2546:3193   */\n    tag_49:\n        /* \"#utility.yul\":2637:2643   */\n      0x00\n        /* \"#utility.yul\":2645:2651   */\n      dup1\n        /* \"#utility.yul\":2653:2659   */\n      0x00\n        /* \"#utility.yul\":2702:2704   */\n      0x60\n        /* \"#utility.yul\":2690:2699   */\n      dup5\n        /* \"#utility.yul\":2681:2688   */\n      dup7\n        /* \"#utility.yul\":2677:2700   */\n      sub\n        /* \"#utility.yul\":2673:2705   */\n      slt\n        /* \"#utility.yul\":2670:2789   */\n      iszero\n      tag_463\n      jumpi\n        /* \"#utility.yul\":2708:2787   */\n      tag_464\n      tag_355\n      jump\t// in\n    tag_464:\n        /* \"#utility.yul\":2670:2789   */\n    tag_463:\n        /* \"#utility.yul\":2828:2829   */\n      0x00\n        /* \"#utility.yul\":2853:2906   */\n      tag_465\n        /* \"#utility.yul\":2898:2905   */\n      dup7\n        /* \"#utility.yul\":2889:2895   */\n      dup3\n        /* \"#utility.yul\":2878:2887   */\n      dup8\n        /* \"#utility.yul\":2874:2896   */\n      add\n        /* \"#utility.yul\":2853:2906   */\n      tag_360\n      jump\t// in\n    tag_465:\n        /* \"#utility.yul\":2843:2906   */\n      swap4\n      pop\n        /* \"#utility.yul\":2799:2916   */\n      pop\n        /* \"#utility.yul\":2955:2957   */\n      0x20\n        /* \"#utility.yul\":2981:3034   */\n      tag_466\n        /* \"#utility.yul\":3026:3033   */\n      dup7\n        /* \"#utility.yul\":3017:3023   */\n      dup3\n        /* \"#utility.yul\":3006:3015   */\n      dup8\n        /* \"#utility.yul\":3002:3024   */\n      add\n        /* \"#utility.yul\":2981:3034   */\n      tag_360\n      jump\t// in\n    tag_466:\n        /* \"#utility.yul\":2971:3034   */\n      swap3\n      pop\n        /* \"#utility.yul\":2926:3044   */\n      pop\n        /* \"#utility.yul\":3083:3085   */\n      0x40\n        /* \"#utility.yul\":3109:3176   */\n      tag_467\n        /* \"#utility.yul\":3168:3175   */\n      dup7\n        /* \"#utility.yul\":3159:3165   */\n      dup3\n        /* \"#utility.yul\":3148:3157   */\n      dup8\n        /* \"#utility.yul\":3144:3166   */\n      add\n        /* \"#utility.yul\":3109:3176   */\n      tag_368\n      jump\t// in\n    tag_467:\n        /* \"#utility.yul\":3099:3176   */\n      swap2\n      pop\n        /* \"#utility.yul\":3054:3186   */\n      pop\n        /* \"#utility.yul\":2546:3193   */\n      swap3\n      pop\n      swap3\n      pop\n      swap3\n      jump\t// out\n        /* \"#utility.yul\":3199:3528   */\n    tag_53:\n        /* \"#utility.yul\":3258:3264   */\n      0x00\n        /* \"#utility.yul\":3307:3309   */\n      0x20\n        /* \"#utility.yul\":3295:3304   */\n      dup3\n        /* \"#utility.yul\":3286:3293   */\n      dup5\n        /* \"#utility.yul\":3282:3305   */\n      sub\n        /* \"#utility.yul\":3278:3310   */\n      slt\n        /* \"#utility.yul\":3275:3394   */\n      iszero\n      tag_469\n      jumpi\n        /* \"#utility.yul\":3313:3392   */\n      tag_470\n      tag_355\n      jump\t// in\n    tag_470:\n        /* \"#utility.yul\":3275:3394   */\n    tag_469:\n        /* \"#utility.yul\":3433:3434   */\n      0x00\n        /* \"#utility.yul\":3458:3511   */\n      tag_471\n        /* \"#utility.yul\":3503:3510   */\n      dup5\n        /* \"#utility.yul\":3494:3500   */\n      dup3\n        /* \"#utility.yul\":3483:3492   */\n      dup6\n        /* \"#utility.yul\":3479:3501   */\n      add\n        /* \"#utility.yul\":3458:3511   */\n      tag_360\n      jump\t// in\n    tag_471:\n        /* \"#utility.yul\":3448:3511   */\n      swap2\n      pop\n        /* \"#utility.yul\":3404:3521   */\n      pop\n        /* \"#utility.yul\":3199:3528   */\n      swap3\n      swap2\n      pop\n      pop\n      jump\t// out\n        /* \"#utility.yul\":3534:3611   */\n    tag_369:\n        /* \"#utility.yul\":3571:3578   */\n      0x00\n        /* \"#utility.yul\":3600:3605   */\n      dup2\n        /* \"#utility.yul\":3589:3605   */\n      swap1\n      pop\n        /* \"#utility.yul\":3534:3611   */\n      swap2\n      swap1\n      pop\n      jump\t// out\n        /* \"#utility.yul\":3617:3735   */\n    tag_370:\n        /* \"#utility.yul\":3704:3728   */\n      tag_474\n        /* \"#utility.yul\":3722:3727   */\n      dup2\n        /* \"#utility.yul\":3704:3728   */\n      tag_369\n      jump\t// in\n    tag_474:\n        /* \"#utility.yul\":3699:3702   */\n      dup3\n        /* \"#utility.yul\":3692:3729   */\n      mstore\n        /* \"#utility.yul\":3617:3735   */\n      pop\n      pop\n      jump\t// out\n        /* \"#utility.yul\":3741:3963   */\n    tag_56:\n        /* \"#utility.yul\":3834:3838   */\n      0x00\n        /* \"#utility.yul\":3872:3874   */\n      0x20\n        /* \"#utility.yul\":3861:3870   */\n      dup3\n        /* \"#utility.yul\":3857:3875   */\n      add\n        /* \"#utility.yul\":3849:3875   */\n      swap1\n      pop\n        /* \"#utility.yul\":3885:3956   */\n      tag_476\n        /* \"#utility.yul\":3953:3954   */\n      0x00\n        /* \"#utility.yul\":3942:3951   */\n      dup4\n        /* \"#utility.yul\":3938:3955   */\n      add\n        /* \"#utility.yul\":3929:3935   */\n      dup5\n        /* \"#utility.yul\":3885:3956   */\n      tag_370\n      jump\t// in\n    tag_476:\n        /* \"#utility.yul\":3741:3963   */\n      swap3\n      swap2\n      pop\n      pop\n      jump\t// out\n        /* \"#utility.yul\":3969:4081   */\n    tag_371:\n        /* \"#utility.yul\":4052:4074   */\n      tag_478\n        /* \"#utility.yul\":4068:4073   */\n      dup2\n        /* \"#utility.yul\":4052:4074   */\n      tag_361\n      jump\t// in\n    tag_478:\n        /* \"#utility.yul\":4047:4050   */\n      dup3\n        /* \"#utility.yul\":4040:4075   */\n      mstore\n        /* \"#utility.yul\":3969:4081   */\n      pop\n      pop\n      jump\t// out\n        /* \"#utility.yul\":4087:4301   */\n    tag_60:\n        /* \"#utility.yul\":4176:4180   */\n      0x00\n        /* \"#utility.yul\":4214:4216   */\n      0x20\n        /* \"#utility.yul\":4203:4212   */\n      dup3\n        /* \"#utility.yul\":4199:4217   */\n      add\n        /* \"#utility.yul\":4191:4217   */\n      swap1\n      pop\n        /* \"#utility.yul\":4227:4294   */\n      tag_480\n        /* \"#utility.yul\":4291:4292   */\n      0x00\n        /* \"#utility.yul\":4280:4289   */\n      dup4\n        /* \"#utility.yul\":4276:4293   */\n      add\n        /* \"#utility.yul\":4267:4273   */\n      dup5\n        /* \"#utility.yul\":4227:4294   */\n      tag_371\n      jump\t// in\n    tag_480:\n        /* \"#utility.yul\":4087:4301   */\n      swap3\n      swap2\n      pop\n      pop\n      jump\t// out\n        /* \"#utility.yul\":4307:4429   */\n    tag_372:\n        /* \"#utility.yul\":4380:4404   */\n      tag_482\n        /* \"#utility.yul\":4398:4403   */\n      dup2\n        /* \"#utility.yul\":4380:4404   */\n      tag_369\n      jump\t// in\n    tag_482:\n        /* \"#utility.yul\":4373:4378   */\n      dup2\n        /* \"#utility.yul\":4370:4405   */\n      eq\n        /* \"#utility.yul\":4360:4423   */\n      tag_483\n      jumpi\n        /* \"#utility.yul\":4419:4420   */\n      0x00\n        /* \"#utility.yul\":4416:4417   */\n      dup1\n        /* \"#utility.yul\":4409:4421   */\n      revert\n        /* \"#utility.yul\":4360:4423   */\n    tag_483:\n        /* \"#utility.yul\":4307:4429   */\n      pop\n      jump\t// out\n        /* \"#utility.yul\":4435:4574   */\n    tag_373:\n        /* \"#utility.yul\":4481:4486   */\n      0x00\n        /* \"#utility.yul\":4519:4525   */\n      dup2\n        /* \"#utility.yul\":4506:4526   */\n      calldataload\n        /* \"#utility.yul\":4497:4526   */\n      swap1\n      pop\n        /* \"#utility.yul\":4535:4568   */\n      tag_485\n        /* \"#utility.yul\":4562:4567   */\n      dup2\n        /* \"#utility.yul\":4535:4568   */\n      tag_372\n      jump\t// in\n    tag_485:\n        /* \"#utility.yul\":4435:4574   */\n      swap3\n      swap2\n      pop\n      pop\n      jump\t// out\n        /* \"#utility.yul\":4580:4909   */\n    tag_63:\n        /* \"#utility.yul\":4639:4645   */\n      0x00\n        /* \"#utility.yul\":4688:4690   */\n      0x20\n        /* \"#utility.yul\":4676:4685   */\n      dup3\n        /* \"#utility.yul\":4667:4674   */\n      dup5\n        /* \"#utility.yul\":4663:4686   */\n      sub\n        /* \"#utility.yul\":4659:4691   */\n      slt\n        /* \"#utility.yul\":4656:4775   */\n      iszero\n      tag_487\n      jumpi\n        /* \"#utility.yul\":4694:4773   */\n      tag_488\n      tag_355\n      jump\t// in\n    tag_488:\n        /* \"#utility.yul\":4656:4775   */\n    tag_487:\n        /* \"#utility.yul\":4814:4815   */\n      0x00\n        /* \"#utility.yul\":4839:4892   */\n      tag_489\n        /* \"#utility.yul\":4884:4891   */\n      dup5\n        /* \"#utility.yul\":4875:4881   */\n      dup3\n        /* \"#utility.yul\":4864:4873   */\n      dup6\n        /* \"#utility.yul\":4860:4882   */\n      add\n        /* \"#utility.yul\":4839:4892   */\n      tag_373\n      jump\t// in\n    tag_489:\n        /* \"#utility.yul\":4829:4892   */\n      swap2\n      pop\n        /* \"#utility.yul\":4785:4902   */\n      pop\n        /* \"#utility.yul\":4580:4909   */\n      swap3\n      swap2\n      pop\n      pop\n      jump\t// out\n        /* \"#utility.yul\":4915:5033   */\n    tag_374:\n        /* \"#utility.yul\":5002:5026   */\n      tag_491\n        /* \"#utility.yul\":5020:5025   */\n      dup2\n        /* \"#utility.yul\":5002:5026   */\n      tag_358\n      jump\t// in\n    tag_491:\n        /* \"#utility.yul\":4997:5000   */\n      dup3\n        /* \"#utility.yul\":4990:5027   */\n      mstore\n        /* \"#utility.yul\":4915:5033   */\n      pop\n      pop\n      jump\t// out\n        /* \"#utility.yul\":5039:5261   */\n    tag_66:\n        /* \"#utility.yul\":5132:5136   */\n      0x00\n        /* \"#utility.yul\":5170:5172   */\n      0x20\n        /* \"#utility.yul\":5159:5168   */\n      dup3\n        /* \"#utility.yul\":5155:5173   */\n      add\n        /* \"#utility.yul\":5147:5173   */\n      swap1\n      pop\n        /* \"#utility.yul\":5183:5254   */\n      tag_493\n        /* \"#utility.yul\":5251:5252   */\n      0x00\n        /* \"#utility.yul\":5240:5249   */\n      dup4\n        /* \"#utility.yul\":5236:5253   */\n      add\n        /* \"#utility.yul\":5227:5233   */\n      dup5\n        /* \"#utility.yul\":5183:5254   */\n      tag_374\n      jump\t// in\n    tag_493:\n        /* \"#utility.yul\":5039:5261   */\n      swap3\n      swap2\n      pop\n      pop\n      jump\t// out\n        /* \"#utility.yul\":5267:5741   */\n    tag_72:\n        /* \"#utility.yul\":5335:5341   */\n      0x00\n        /* \"#utility.yul\":5343:5349   */\n      dup1\n        /* \"#utility.yul\":5392:5394   */\n      0x40\n        /* \"#utility.yul\":5380:5389   */\n      dup4\n        /* \"#utility.yul\":5371:5378   */\n      dup6\n        /* \"#utility.yul\":5367:5390   */\n      sub\n        /* \"#utility.yul\":5363:5395   */\n      slt\n        /* \"#utility.yul\":5360:5479   */\n      iszero\n      tag_495\n      jumpi\n        /* \"#utility.yul\":5398:5477   */\n      tag_496\n      tag_355\n      jump\t// in\n    tag_496:\n        /* \"#utility.yul\":5360:5479   */\n    tag_495:\n        /* \"#utility.yul\":5518:5519   */\n      0x00\n        /* \"#utility.yul\":5543:5596   */\n      tag_497\n        /* \"#utility.yul\":5588:5595   */\n      dup6\n        /* \"#utility.yul\":5579:5585   */\n      dup3\n        /* \"#utility.yul\":5568:5577   */\n      dup7\n        /* \"#utility.yul\":5564:5586   */\n      add\n        /* \"#utility.yul\":5543:5596   */\n      tag_360\n      jump\t// in\n    tag_497:\n        /* \"#utility.yul\":5533:5596   */\n      swap3\n      pop\n        /* \"#utility.yul\":5489:5606   */\n      pop\n        /* \"#utility.yul\":5645:5647   */\n      0x20\n        /* \"#utility.yul\":5671:5724   */\n      tag_498\n        /* \"#utility.yul\":5716:5723   */\n      dup6\n        /* \"#utility.yul\":5707:5713   */\n      dup3\n        /* \"#utility.yul\":5696:5705   */\n      dup7\n        /* \"#utility.yul\":5692:5714   */\n      add\n        /* \"#utility.yul\":5671:5724   */\n      tag_360\n      jump\t// in\n    tag_498:\n        /* \"#utility.yul\":5661:5724   */\n      swap2\n      pop\n        /* \"#utility.yul\":5616:5734   */\n      pop\n        /* \"#utility.yul\":5267:5741   */\n      swap3\n      pop\n      swap3\n      swap1\n      pop\n      jump\t// out\n        /* \"#utility.yul\":5747:5861   */\n    tag_375:\n        /* \"#utility.yul\":5814:5820   */\n      0x00\n        /* \"#utility.yul\":5848:5853   */\n      dup2\n        /* \"#utility.yul\":5842:5854   */\n      mload\n        /* \"#utility.yul\":5832:5854   */\n      swap1\n      pop\n        /* \"#utility.yul\":5747:5861   */\n      swap2\n      swap1\n      pop\n      jump\t// out\n        /* \"#utility.yul\":5867:6051   */\n    tag_376:\n        /* \"#utility.yul\":5966:5977   */\n      0x00\n        /* \"#utility.yul\":6000:6006   */\n      dup3\n        /* \"#utility.yul\":5995:5998   */\n      dup3\n        /* \"#utility.yul\":5988:6007   */\n      mstore\n        /* \"#utility.yul\":6040:6044   */\n      0x20\n        /* \"#utility.yul\":6035:6038   */\n      dup3\n        /* \"#utility.yul\":6031:6045   */\n      add\n        /* \"#utility.yul\":6016:6045   */\n      swap1\n      pop\n        /* \"#utility.yul\":5867:6051   */\n      swap3\n      swap2\n      pop\n      pop\n      jump\t// out\n        /* \"#utility.yul\":6057:6189   */\n    tag_377:\n        /* \"#utility.yul\":6124:6128   */\n      0x00\n        /* \"#utility.yul\":6147:6150   */\n      dup2\n        /* \"#utility.yul\":6139:6150   */\n      swap1\n      pop\n        /* \"#utility.yul\":6177:6181   */\n      0x20\n        /* \"#utility.yul\":6172:6175   */\n      dup3\n        /* \"#utility.yul\":6168:6182   */\n      add\n        /* \"#utility.yul\":6160:6182   */\n      swap1\n      pop\n        /* \"#utility.yul\":6057:6189   */\n      swap2\n      swap1\n      pop\n      jump\t// out\n        /* \"#utility.yul\":6195:6303   */\n    tag_378:\n        /* \"#utility.yul\":6272:6296   */\n      tag_503\n        /* \"#utility.yul\":6290:6295   */\n      dup2\n        /* \"#utility.yul\":6272:6296   */\n      tag_358\n      jump\t// in\n    tag_503:\n        /* \"#utility.yul\":6267:6270   */\n      dup3\n        /* \"#utility.yul\":6260:6297   */\n      mstore\n        /* \"#utility.yul\":6195:6303   */\n      pop\n      pop\n      jump\t// out\n        /* \"#utility.yul\":6309:6488   */\n    tag_379:\n        /* \"#utility.yul\":6378:6388   */\n      0x00\n        /* \"#utility.yul\":6399:6445   */\n      tag_505\n        /* \"#utility.yul\":6441:6444   */\n      dup4\n        /* \"#utility.yul\":6433:6439   */\n      dup4\n        /* \"#utility.yul\":6399:6445   */\n      tag_378\n      jump\t// in\n    tag_505:\n        /* \"#utility.yul\":6477:6481   */\n      0x20\n        /* \"#utility.yul\":6472:6475   */\n      dup4\n        /* \"#utility.yul\":6468:6482   */\n      add\n        /* \"#utility.yul\":6454:6482   */\n      swap1\n      pop\n        /* \"#utility.yul\":6309:6488   */\n      swap3\n      swap2\n      pop\n      pop\n      jump\t// out\n        /* \"#utility.yul\":6494:6607   */\n    tag_380:\n        /* \"#utility.yul\":6564:6568   */\n      0x00\n        /* \"#utility.yul\":6596:6600   */\n      0x20\n        /* \"#utility.yul\":6591:6594   */\n      dup3\n        /* \"#utility.yul\":6587:6601   */\n      add\n        /* \"#utility.yul\":6579:6601   */\n      swap1\n      pop\n        /* \"#utility.yul\":6494:6607   */\n      swap2\n      swap1\n      pop\n      jump\t// out\n        /* \"#utility.yul\":6643:7375   */\n    tag_381:\n        /* \"#utility.yul\":6762:6765   */\n      0x00\n        /* \"#utility.yul\":6791:6845   */\n      tag_508\n        /* \"#utility.yul\":6839:6844   */\n      dup3\n        /* \"#utility.yul\":6791:6845   */\n      tag_375\n      jump\t// in\n    tag_508:\n        /* \"#utility.yul\":6861:6947   */\n      tag_509\n        /* \"#utility.yul\":6940:6946   */\n      dup2\n        /* \"#utility.yul\":6935:6938   */\n      dup6\n        /* \"#utility.yul\":6861:6947   */\n      tag_376\n      jump\t// in\n    tag_509:\n        /* \"#utility.yul\":6854:6947   */\n      swap4\n      pop\n        /* \"#utility.yul\":6971:7027   */\n      tag_510\n        /* \"#utility.yul\":7021:7026   */\n      dup4\n        /* \"#utility.yul\":6971:7027   */\n      tag_377\n      jump\t// in\n    tag_510:\n        /* \"#utility.yul\":7050:7057   */\n      dup1\n        /* \"#utility.yul\":7081:7082   */\n      0x00\n        /* \"#utility.yul\":7066:7350   */\n    tag_511:\n        /* \"#utility.yul\":7091:7097   */\n      dup4\n        /* \"#utility.yul\":7088:7089   */\n      dup2\n        /* \"#utility.yul\":7085:7098   */\n      lt\n        /* \"#utility.yul\":7066:7350   */\n      iszero\n      tag_513\n      jumpi\n        /* \"#utility.yul\":7167:7173   */\n      dup2\n        /* \"#utility.yul\":7161:7174   */\n      mload\n        /* \"#utility.yul\":7194:7257   */\n      tag_514\n        /* \"#utility.yul\":7253:7256   */\n      dup9\n        /* \"#utility.yul\":7238:7251   */\n      dup3\n        /* \"#utility.yul\":7194:7257   */\n      tag_379\n      jump\t// in\n    tag_514:\n        /* \"#utility.yul\":7187:7257   */\n      swap8\n      pop\n        /* \"#utility.yul\":7280:7340   */\n      tag_515\n        /* \"#utility.yul\":7333:7339   */\n      dup4\n        /* \"#utility.yul\":7280:7340   */\n      tag_380\n      jump\t// in\n    tag_515:\n        /* \"#utility.yul\":7270:7340   */\n      swap3\n      pop\n        /* \"#utility.yul\":7126:7350   */\n      pop\n        /* \"#utility.yul\":7113:7114   */\n      0x01\n        /* \"#utility.yul\":7110:7111   */\n      dup2\n        /* \"#utility.yul\":7106:7115   */\n      add\n        /* \"#utility.yul\":7101:7115   */\n      swap1\n      pop\n        /* \"#utility.yul\":7066:7350   */\n      jump(tag_511)\n    tag_513:\n        /* \"#utility.yul\":7070:7084   */\n      pop\n        /* \"#utility.yul\":7366:7369   */\n      dup6\n        /* \"#utility.yul\":7359:7369   */\n      swap4\n      pop\n        /* \"#utility.yul\":6767:7375   */\n      pop\n      pop\n      pop\n        /* \"#utility.yul\":6643:7375   */\n      swap3\n      swap2\n      pop\n      pop\n      jump\t// out\n        /* \"#utility.yul\":7381:7962   */\n    tag_95:\n        /* \"#utility.yul\":7574:7578   */\n      0x00\n        /* \"#utility.yul\":7612:7614   */\n      0x60\n        /* \"#utility.yul\":7601:7610   */\n      dup3\n        /* \"#utility.yul\":7597:7615   */\n      add\n        /* \"#utility.yul\":7589:7615   */\n      swap1\n      pop\n        /* \"#utility.yul\":7625:7696   */\n      tag_517\n        /* \"#utility.yul\":7693:7694   */\n      0x00\n        /* \"#utility.yul\":7682:7691   */\n      dup4\n        /* \"#utility.yul\":7678:7695   */\n      add\n        /* \"#utility.yul\":7669:7675   */\n      dup7\n        /* \"#utility.yul\":7625:7696   */\n      tag_374\n      jump\t// in\n    tag_517:\n        /* \"#utility.yul\":7743:7752   */\n      dup2\n        /* \"#utility.yul\":7737:7741   */\n      dup2\n        /* \"#utility.yul\":7733:7753   */\n      sub\n        /* \"#utility.yul\":7728:7730   */\n      0x20\n        /* \"#utility.yul\":7717:7726   */\n      dup4\n        /* \"#utility.yul\":7713:7731   */\n      add\n        /* \"#utility.yul\":7706:7754   */\n      mstore\n        /* \"#utility.yul\":7771:7879   */\n      tag_518\n        /* \"#utility.yul\":7874:7878   */\n      dup2\n        /* \"#utility.yul\":7865:7871   */\n      dup6\n        /* \"#utility.yul\":7771:7879   */\n      tag_381\n      jump\t// in\n    tag_518:\n        /* \"#utility.yul\":7763:7879   */\n      swap1\n      pop\n        /* \"#utility.yul\":7889:7955   */\n      tag_519\n        /* \"#utility.yul\":7951:7953   */\n      0x40\n        /* \"#utility.yul\":7940:7949   */\n      dup4\n        /* \"#utility.yul\":7936:7954   */\n      add\n        /* \"#utility.yul\":7927:7933   */\n      dup5\n        /* \"#utility.yul\":7889:7955   */\n      tag_365\n      jump\t// in\n    tag_519:\n        /* \"#utility.yul\":7381:7962   */\n      swap5\n      swap4\n      pop\n      pop\n      pop\n      pop\n      jump\t// out\n        /* \"#utility.yul\":7968:8410   */\n    tag_109:\n        /* \"#utility.yul\":8117:8121   */\n      0x00\n        /* \"#utility.yul\":8155:8157   */\n      0x60\n        /* \"#utility.yul\":8144:8153   */\n      dup3\n        /* \"#utility.yul\":8140:8158   */\n      add\n        /* \"#utility.yul\":8132:8158   */\n      swap1\n      pop\n        /* \"#utility.yul\":8168:8239   */\n      tag_521\n        /* \"#utility.yul\":8236:8237   */\n      0x00\n        /* \"#utility.yul\":8225:8234   */\n      dup4\n        /* \"#utility.yul\":8221:8238   */\n      add\n        /* \"#utility.yul\":8212:8218   */\n      dup7\n        /* \"#utility.yul\":8168:8239   */\n      tag_370\n      jump\t// in\n    tag_521:\n        /* \"#utility.yul\":8249:8321   */\n      tag_522\n        /* \"#utility.yul\":8317:8319   */\n      0x20\n        /* \"#utility.yul\":8306:8315   */\n      dup4\n        /* \"#utility.yul\":8302:8320   */\n      add\n        /* \"#utility.yul\":8293:8299   */\n      dup6\n        /* \"#utility.yul\":8249:8321   */\n      tag_374\n      jump\t// in\n    tag_522:\n        /* \"#utility.yul\":8331:8403   */\n      tag_523\n        /* \"#utility.yul\":8399:8401   */\n      0x40\n        /* \"#utility.yul\":8388:8397   */\n      dup4\n        /* \"#utility.yul\":8384:8402   */\n      add\n        /* \"#utility.yul\":8375:8381   */\n      dup5\n        /* \"#utility.yul\":8331:8403   */\n      tag_370\n      jump\t// in\n    tag_523:\n        /* \"#utility.yul\":7968:8410   */\n      swap5\n      swap4\n      pop\n      pop\n      pop\n      pop\n      jump\t// out\n        /* \"#utility.yul\":8416:9027   */\n    tag_112:\n        /* \"#utility.yul\":8489:8495   */\n      0x00\n        /* \"#utility.yul\":8497:8503   */\n      dup1\n        /* \"#utility.yul\":8505:8511   */\n      0x00\n        /* \"#utility.yul\":8554:8556   */\n      0x60\n        /* \"#utility.yul\":8542:8551   */\n      dup5\n        /* \"#utility.yul\":8533:8540   */\n      dup7\n        /* \"#utility.yul\":8529:8552   */\n      sub\n        /* \"#utility.yul\":8525:8557   */\n      slt\n        /* \"#utility.yul\":8522:8641   */\n      iszero\n      tag_525\n      jumpi\n        /* \"#utility.yul\":8560:8639   */\n      tag_526\n      tag_355\n      jump\t// in\n    tag_526:\n        /* \"#utility.yul\":8522:8641   */\n    tag_525:\n        /* \"#utility.yul\":8680:8681   */\n      0x00\n        /* \"#utility.yul\":8705:8758   */\n      tag_527\n        /* \"#utility.yul\":8750:8757   */\n      dup7\n        /* \"#utility.yul\":8741:8747   */\n      dup3\n        /* \"#utility.yul\":8730:8739   */\n      dup8\n        /* \"#utility.yul\":8726:8748   */\n      add\n        /* \"#utility.yul\":8705:8758   */\n      tag_360\n      jump\t// in\n    tag_527:\n        /* \"#utility.yul\":8695:8758   */\n      swap4\n      pop\n        /* \"#utility.yul\":8651:8768   */\n      pop\n        /* \"#utility.yul\":8807:8809   */\n      0x20\n        /* \"#utility.yul\":8833:8884   */\n      tag_528\n        /* \"#utility.yul\":8876:8883   */\n      dup7\n        /* \"#utility.yul\":8867:8873   */\n      dup3\n        /* \"#utility.yul\":8856:8865   */\n      dup8\n        /* \"#utility.yul\":8852:8874   */\n      add\n        /* \"#utility.yul\":8833:8884   */\n      tag_363\n      jump\t// in\n    tag_528:\n        /* \"#utility.yul\":8823:8884   */\n      swap3\n      pop\n        /* \"#utility.yul\":8778:8894   */\n      pop\n        /* \"#utility.yul\":8933:8935   */\n      0x40\n        /* \"#utility.yul\":8959:9010   */\n      tag_529\n        /* \"#utility.yul\":9002:9009   */\n      dup7\n        /* \"#utility.yul\":8993:8999   */\n      dup3\n        /* \"#utility.yul\":8982:8991   */\n      dup8\n        /* \"#utility.yul\":8978:9000   */\n      add\n        /* \"#utility.yul\":8959:9010   */\n      tag_363\n      jump\t// in\n    tag_529:\n        /* \"#utility.yul\":8949:9010   */\n      swap2\n      pop\n        /* \"#utility.yul\":8904:9020   */\n      pop\n        /* \"#utility.yul\":8416:9027   */\n      swap3\n      pop\n      swap3\n      pop\n      swap3\n      jump\t// out\n        /* \"#utility.yul\":9033:9499   */\n    tag_116:\n        /* \"#utility.yul\":9097:9103   */\n      0x00\n        /* \"#utility.yul\":9105:9111   */\n      dup1\n        /* \"#utility.yul\":9154:9156   */\n      0x40\n        /* \"#utility.yul\":9142:9151   */\n      dup4\n        /* \"#utility.yul\":9133:9140   */\n      dup6\n        /* \"#utility.yul\":9129:9152   */\n      sub\n        /* \"#utility.yul\":9125:9157   */\n      slt\n        /* \"#utility.yul\":9122:9241   */\n      iszero\n      tag_531\n      jumpi\n        /* \"#utility.yul\":9160:9239   */\n      tag_532\n      tag_355\n      jump\t// in\n    tag_532:\n        /* \"#utility.yul\":9122:9241   */\n    tag_531:\n        /* \"#utility.yul\":9280:9281   */\n      0x00\n        /* \"#utility.yul\":9305:9356   */\n      tag_533\n        /* \"#utility.yul\":9348:9355   */\n      dup6\n        /* \"#utility.yul\":9339:9345   */\n      dup3\n        /* \"#utility.yul\":9328:9337   */\n      dup7\n        /* \"#utility.yul\":9324:9346   */\n      add\n        /* \"#utility.yul\":9305:9356   */\n      tag_363\n      jump\t// in\n    tag_533:\n        /* \"#utility.yul\":9295:9356   */\n      swap3\n      pop\n        /* \"#utility.yul\":9251:9366   */\n      pop\n        /* \"#utility.yul\":9405:9407   */\n      0x20\n        /* \"#utility.yul\":9431:9482   */\n      tag_534\n        /* \"#utility.yul\":9474:9481   */\n      dup6\n        /* \"#utility.yul\":9465:9471   */\n      dup3\n        /* \"#utility.yul\":9454:9463   */\n      dup7\n        /* \"#utility.yul\":9450:9472   */\n      add\n        /* \"#utility.yul\":9431:9482   */\n      tag_363\n      jump\t// in\n    tag_534:\n        /* \"#utility.yul\":9421:9482   */\n      swap2\n      pop\n        /* \"#utility.yul\":9376:9492   */\n      pop\n        /* \"#utility.yul\":9033:9499   */\n      swap3\n      pop\n      swap3\n      swap1\n      pop\n      jump\t// out\n        /* \"#utility.yul\":9505:9565   */\n    tag_382:\n        /* \"#utility.yul\":9533:9536   */\n      0x00\n        /* \"#utility.yul\":9554:9559   */\n      dup2\n        /* \"#utility.yul\":9547:9559   */\n      swap1\n      pop\n        /* \"#utility.yul\":9505:9565   */\n      swap2\n      swap1\n      pop\n      jump\t// out\n        /* \"#utility.yul\":9571:9713   */\n    tag_383:\n        /* \"#utility.yul\":9621:9630   */\n      0x00\n        /* \"#utility.yul\":9654:9707   */\n      tag_537\n        /* \"#utility.yul\":9672:9706   */\n      tag_538\n        /* \"#utility.yul\":9681:9705   */\n      tag_539\n        /* \"#utility.yul\":9699:9704   */\n      dup5\n        /* \"#utility.yul\":9681:9705   */\n      tag_357\n      jump\t// in\n    tag_539:\n        /* \"#utility.yul\":9672:9706   */\n      tag_382\n      jump\t// in\n    tag_538:\n        /* \"#utility.yul\":9654:9707   */\n      tag_357\n      jump\t// in\n    tag_537:\n        /* \"#utility.yul\":9641:9707   */\n      swap1\n      pop\n        /* \"#utility.yul\":9571:9713   */\n      swap2\n      swap1\n      pop\n      jump\t// out\n        /* \"#utility.yul\":9719:9845   */\n    tag_384:\n        /* \"#utility.yul\":9769:9778   */\n      0x00\n        /* \"#utility.yul\":9802:9839   */\n      tag_541\n        /* \"#utility.yul\":9833:9838   */\n      dup3\n        /* \"#utility.yul\":9802:9839   */\n      tag_383\n      jump\t// in\n    tag_541:\n        /* \"#utility.yul\":9789:9839   */\n      swap1\n      pop\n        /* \"#utility.yul\":9719:9845   */\n      swap2\n      swap1\n      pop\n      jump\t// out\n        /* \"#utility.yul\":9851:9991   */\n    tag_385:\n        /* \"#utility.yul\":9915:9924   */\n      0x00\n        /* \"#utility.yul\":9948:9985   */\n      tag_543\n        /* \"#utility.yul\":9979:9984   */\n      dup3\n        /* \"#utility.yul\":9948:9985   */\n      tag_384\n      jump\t// in\n    tag_543:\n        /* \"#utility.yul\":9935:9985   */\n      swap1\n      pop\n        /* \"#utility.yul\":9851:9991   */\n      swap2\n      swap1\n      pop\n      jump\t// out\n        /* \"#utility.yul\":9997:10156   */\n    tag_386:\n        /* \"#utility.yul\":10098:10149   */\n      tag_545\n        /* \"#utility.yul\":10143:10148   */\n      dup2\n        /* \"#utility.yul\":10098:10149   */\n      tag_385\n      jump\t// in\n    tag_545:\n        /* \"#utility.yul\":10093:10096   */\n      dup3\n        /* \"#utility.yul\":10086:10150   */\n      mstore\n        /* \"#utility.yul\":9997:10156   */\n      pop\n      pop\n      jump\t// out\n        /* \"#utility.yul\":10162:10412   */\n    tag_121:\n        /* \"#utility.yul\":10269:10273   */\n      0x00\n        /* \"#utility.yul\":10307:10309   */\n      0x20\n        /* \"#utility.yul\":10296:10305   */\n      dup3\n        /* \"#utility.yul\":10292:10310   */\n      add\n        /* \"#utility.yul\":10284:10310   */\n      swap1\n      pop\n        /* \"#utility.yul\":10320:10405   */\n      tag_547\n        /* \"#utility.yul\":10402:10403   */\n      0x00\n        /* \"#utility.yul\":10391:10400   */\n      dup4\n        /* \"#utility.yul\":10387:10404   */\n      add\n        /* \"#utility.yul\":10378:10384   */\n      dup5\n        /* \"#utility.yul\":10320:10405   */\n      tag_386\n      jump\t// in\n    tag_547:\n        /* \"#utility.yul\":10162:10412   */\n      swap3\n      swap2\n      pop\n      pop\n      jump\t// out\n        /* \"#utility.yul\":10418:10743   */\n    tag_130:\n        /* \"#utility.yul\":10475:10481   */\n      0x00\n        /* \"#utility.yul\":10524:10526   */\n      0x20\n        /* \"#utility.yul\":10512:10521   */\n      dup3\n        /* \"#utility.yul\":10503:10510   */\n      dup5\n        /* \"#utility.yul\":10499:10522   */\n      sub\n        /* \"#utility.yul\":10495:10527   */\n      slt\n        /* \"#utility.yul\":10492:10611   */\n      iszero\n      tag_549\n      jumpi\n        /* \"#utility.yul\":10530:10609   */\n      tag_550\n      tag_355\n      jump\t// in\n    tag_550:\n        /* \"#utility.yul\":10492:10611   */\n    tag_549:\n        /* \"#utility.yul\":10650:10651   */\n      0x00\n        /* \"#utility.yul\":10675:10726   */\n      tag_551\n        /* \"#utility.yul\":10718:10725   */\n      dup5\n        /* \"#utility.yul\":10709:10715   */\n      dup3\n        /* \"#utility.yul\":10698:10707   */\n      dup6\n        /* \"#utility.yul\":10694:10716   */\n      add\n        /* \"#utility.yul\":10675:10726   */\n      tag_363\n      jump\t// in\n    tag_551:\n        /* \"#utility.yul\":10665:10726   */\n      swap2\n      pop\n        /* \"#utility.yul\":10621:10736   */\n      pop\n        /* \"#utility.yul\":10418:10743   */\n      swap3\n      swap2\n      pop\n      pop\n      jump\t// out\n        /* \"#utility.yul\":10749:10929   */\n    tag_387:\n        /* \"#utility.yul\":10797:10874   */\n      0x4e487b7100000000000000000000000000000000000000000000000000000000\n        /* \"#utility.yul\":10794:10795   */\n      0x00\n        /* \"#utility.yul\":10787:10875   */\n      mstore\n        /* \"#utility.yul\":10894:10898   */\n      0x11\n        /* \"#utility.yul\":10891:10892   */\n      0x04\n        /* \"#utility.yul\":10884:10899   */\n      mstore\n        /* \"#utility.yul\":10918:10922   */\n      0x24\n        /* \"#utility.yul\":10915:10916   */\n      0x00\n        /* \"#utility.yul\":10908:10923   */\n      revert\n        /* \"#utility.yul\":10935:11345   */\n    tag_142:\n        /* \"#utility.yul\":10975:10982   */\n      0x00\n        /* \"#utility.yul\":10998:11018   */\n      tag_554\n        /* \"#utility.yul\":11016:11017   */\n      dup3\n        /* \"#utility.yul\":10998:11018   */\n      tag_369\n      jump\t// in\n    tag_554:\n        /* \"#utility.yul\":10993:11018   */\n      swap2\n      pop\n        /* \"#utility.yul\":11032:11052   */\n      tag_555\n        /* \"#utility.yul\":11050:11051   */\n      dup4\n        /* \"#utility.yul\":11032:11052   */\n      tag_369\n      jump\t// in\n    tag_555:\n        /* \"#utility.yul\":11027:11052   */\n      swap3\n      pop\n        /* \"#utility.yul\":11087:11088   */\n      dup3\n        /* \"#utility.yul\":11084:11085   */\n      dup3\n        /* \"#utility.yul\":11080:11089   */\n      mul\n        /* \"#utility.yul\":11109:11139   */\n      tag_556\n        /* \"#utility.yul\":11127:11138   */\n      dup2\n        /* \"#utility.yul\":11109:11139   */\n      tag_369\n      jump\t// in\n    tag_556:\n        /* \"#utility.yul\":11098:11139   */\n      swap2\n      pop\n        /* \"#utility.yul\":11288:11289   */\n      dup3\n        /* \"#utility.yul\":11279:11286   */\n      dup3\n        /* \"#utility.yul\":11275:11290   */\n      div\n        /* \"#utility.yul\":11272:11273   */\n      dup5\n        /* \"#utility.yul\":11269:11291   */\n      eq\n        /* \"#utility.yul\":11249:11250   */\n      dup4\n        /* \"#utility.yul\":11242:11251   */\n      iszero\n        /* \"#utility.yul\":11222:11305   */\n      or\n        /* \"#utility.yul\":11199:11338   */\n      tag_557\n      jumpi\n        /* \"#utility.yul\":11318:11336   */\n      tag_558\n      tag_387\n      jump\t// in\n    tag_558:\n        /* \"#utility.yul\":11199:11338   */\n    tag_557:\n        /* \"#utility.yul\":10983:11345   */\n      pop\n        /* \"#utility.yul\":10935:11345   */\n      swap3\n      swap2\n      pop\n      pop\n      jump\t// out\n        /* \"#utility.yul\":11351:11542   */\n    tag_144:\n        /* \"#utility.yul\":11391:11394   */\n      0x00\n        /* \"#utility.yul\":11410:11430   */\n      tag_560\n        /* \"#utility.yul\":11428:11429   */\n      dup3\n        /* \"#utility.yul\":11410:11430   */\n      tag_369\n      jump\t// in\n    tag_560:\n        /* \"#utility.yul\":11405:11430   */\n      swap2\n      pop\n        /* \"#utility.yul\":11444:11464   */\n      tag_561\n        /* \"#utility.yul\":11462:11463   */\n      dup4\n        /* \"#utility.yul\":11444:11464   */\n      tag_369\n      jump\t// in\n    tag_561:\n        /* \"#utility.yul\":11439:11464   */\n      swap3\n      pop\n        /* \"#utility.yul\":11487:11488   */\n      dup3\n        /* \"#utility.yul\":11484:11485   */\n      dup3\n        /* \"#utility.yul\":11480:11489   */\n      add\n        /* \"#utility.yul\":11473:11489   */\n      swap1\n      pop\n        /* \"#utility.yul\":11508:11511   */\n      dup1\n        /* \"#utility.yul\":11505:11506   */\n      dup3\n        /* \"#utility.yul\":11502:11512   */\n      gt\n        /* \"#utility.yul\":11499:11535   */\n      iszero\n      tag_562\n      jumpi\n        /* \"#utility.yul\":11515:11533   */\n      tag_563\n      tag_387\n      jump\t// in\n    tag_563:\n        /* \"#utility.yul\":11499:11535   */\n    tag_562:\n        /* \"#utility.yul\":11351:11542   */\n      swap3\n      swap2\n      pop\n      pop\n      jump\t// out\n        /* \"#utility.yul\":11548:11717   */\n    tag_388:\n        /* \"#utility.yul\":11632:11643   */\n      0x00\n        /* \"#utility.yul\":11666:11672   */\n      dup3\n        /* \"#utility.yul\":11661:11664   */\n      dup3\n        /* \"#utility.yul\":11654:11673   */\n      mstore\n        /* \"#utility.yul\":11706:11710   */\n      0x20\n        /* \"#utility.yul\":11701:11704   */\n      dup3\n        /* \"#utility.yul\":11697:11711   */\n      add\n        /* \"#utility.yul\":11682:11711   */\n      swap1\n      pop\n        /* \"#utility.yul\":11548:11717   */\n      swap3\n      swap2\n      pop\n      pop\n      jump\t// out\n        /* \"#utility.yul\":11723:11884   */\n    tag_389:\n        /* \"#utility.yul\":11863:11876   */\n      0x7573657220657869737473000000000000000000000000000000000000000000\n        /* \"#utility.yul\":11859:11860   */\n      0x00\n        /* \"#utility.yul\":11851:11857   */\n      dup3\n        /* \"#utility.yul\":11847:11861   */\n      add\n        /* \"#utility.yul\":11840:11877   */\n      mstore\n        /* \"#utility.yul\":11723:11884   */\n      pop\n      jump\t// out\n        /* \"#utility.yul\":11890:12256   */\n    tag_390:\n        /* \"#utility.yul\":12032:12035   */\n      0x00\n        /* \"#utility.yul\":12053:12120   */\n      tag_567\n        /* \"#utility.yul\":12117:12119   */\n      0x0b\n        /* \"#utility.yul\":12112:12115   */\n      dup4\n        /* \"#utility.yul\":12053:12120   */\n      tag_388\n      jump\t// in\n    tag_567:\n        /* \"#utility.yul\":12046:12120   */\n      swap2\n      pop\n        /* \"#utility.yul\":12129:12222   */\n      tag_568\n        /* \"#utility.yul\":12218:12221   */\n      dup3\n        /* \"#utility.yul\":12129:12222   */\n      tag_389\n      jump\t// in\n    tag_568:\n        /* \"#utility.yul\":12247:12249   */\n      0x20\n        /* \"#utility.yul\":12242:12245   */\n      dup3\n        /* \"#utility.yul\":12238:12250   */\n      add\n        /* \"#utility.yul\":12231:12250   */\n      swap1\n      pop\n        /* \"#utility.yul\":11890:12256   */\n      swap2\n      swap1\n      pop\n      jump\t// out\n        /* \"#utility.yul\":12262:12681   */\n    tag_149:\n        /* \"#utility.yul\":12428:12432   */\n      0x00\n        /* \"#utility.yul\":12466:12468   */\n      0x20\n        /* \"#utility.yul\":12455:12464   */\n      dup3\n        /* \"#utility.yul\":12451:12469   */\n      add\n        /* \"#utility.yul\":12443:12469   */\n      swap1\n      pop\n        /* \"#utility.yul\":12515:12524   */\n      dup2\n        /* \"#utility.yul\":12509:12513   */\n      dup2\n        /* \"#utility.yul\":12505:12525   */\n      sub\n        /* \"#utility.yul\":12501:12502   */\n      0x00\n        /* \"#utility.yul\":12490:12499   */\n      dup4\n        /* \"#utility.yul\":12486:12503   */\n      add\n        /* \"#utility.yul\":12479:12526   */\n      mstore\n        /* \"#utility.yul\":12543:12674   */\n      tag_570\n        /* \"#utility.yul\":12669:12673   */\n      dup2\n        /* \"#utility.yul\":12543:12674   */\n      tag_390\n      jump\t// in\n    tag_570:\n        /* \"#utility.yul\":12535:12674   */\n      swap1\n      pop\n        /* \"#utility.yul\":12262:12681   */\n      swap2\n      swap1\n      pop\n      jump\t// out\n        /* \"#utility.yul\":12687:12856   */\n    tag_391:\n        /* \"#utility.yul\":12827:12848   */\n      0x7265666572726572206e6f742065786973747300000000000000000000000000\n        /* \"#utility.yul\":12823:12824   */\n      0x00\n        /* \"#utility.yul\":12815:12821   */\n      dup3\n        /* \"#utility.yul\":12811:12825   */\n      add\n        /* \"#utility.yul\":12804:12849   */\n      mstore\n        /* \"#utility.yul\":12687:12856   */\n      pop\n      jump\t// out\n        /* \"#utility.yul\":12862:13228   */\n    tag_392:\n        /* \"#utility.yul\":13004:13007   */\n      0x00\n        /* \"#utility.yul\":13025:13092   */\n      tag_573\n        /* \"#utility.yul\":13089:13091   */\n      0x13\n        /* \"#utility.yul\":13084:13087   */\n      dup4\n        /* \"#utility.yul\":13025:13092   */\n      tag_388\n      jump\t// in\n    tag_573:\n        /* \"#utility.yul\":13018:13092   */\n      swap2\n      pop\n        /* \"#utility.yul\":13101:13194   */\n      tag_574\n        /* \"#utility.yul\":13190:13193   */\n      dup3\n        /* \"#utility.yul\":13101:13194   */\n      tag_391\n      jump\t// in\n    tag_574:\n        /* \"#utility.yul\":13219:13221   */\n      0x20\n        /* \"#utility.yul\":13214:13217   */\n      dup3\n        /* \"#utility.yul\":13210:13222   */\n      add\n        /* \"#utility.yul\":13203:13222   */\n      swap1\n      pop\n        /* \"#utility.yul\":12862:13228   */\n      swap2\n      swap1\n      pop\n      jump\t// out\n        /* \"#utility.yul\":13234:13653   */\n    tag_153:\n        /* \"#utility.yul\":13400:13404   */\n      0x00\n        /* \"#utility.yul\":13438:13440   */\n      0x20\n        /* \"#utility.yul\":13427:13436   */\n      dup3\n        /* \"#utility.yul\":13423:13441   */\n      add\n        /* \"#utility.yul\":13415:13441   */\n      swap1\n      pop\n        /* \"#utility.yul\":13487:13496   */\n      dup2\n        /* \"#utility.yul\":13481:13485   */\n      dup2\n        /* \"#utility.yul\":13477:13497   */\n      sub\n        /* \"#utility.yul\":13473:13474   */\n      0x00\n        /* \"#utility.yul\":13462:13471   */\n      dup4\n        /* \"#utility.yul\":13458:13475   */\n      add\n        /* \"#utility.yul\":13451:13498   */\n      mstore\n        /* \"#utility.yul\":13515:13646   */\n      tag_576\n        /* \"#utility.yul\":13641:13645   */\n      dup2\n        /* \"#utility.yul\":13515:13646   */\n      tag_392\n      jump\t// in\n    tag_576:\n        /* \"#utility.yul\":13507:13646   */\n      swap1\n      pop\n        /* \"#utility.yul\":13234:13653   */\n      swap2\n      swap1\n      pop\n      jump\t// out\n        /* \"#utility.yul\":13659:13892   */\n    tag_155:\n        /* \"#utility.yul\":13698:13701   */\n      0x00\n        /* \"#utility.yul\":13721:13745   */\n      tag_578\n        /* \"#utility.yul\":13739:13744   */\n      dup3\n        /* \"#utility.yul\":13721:13745   */\n      tag_369\n      jump\t// in\n    tag_578:\n        /* \"#utility.yul\":13712:13745   */\n      swap2\n      pop\n        /* \"#utility.yul\":13767:13833   */\n      0xffffffffffffffffffffffffffffffffffffffffffffffffffffffffffffffff\n        /* \"#utility.yul\":13760:13765   */\n      dup3\n        /* \"#utility.yul\":13757:13834   */\n      sub\n        /* \"#utility.yul\":13754:13857   */\n      tag_579\n      jumpi\n        /* \"#utility.yul\":13837:13855   */\n      tag_580\n      tag_387\n      jump\t// in\n    tag_580:\n        /* \"#utility.yul\":13754:13857   */\n    tag_579:\n        /* \"#utility.yul\":13884:13885   */\n      0x01\n        /* \"#utility.yul\":13877:13882   */\n      dup3\n        /* \"#utility.yul\":13873:13886   */\n      add\n        /* \"#utility.yul\":13866:13886   */\n      swap1\n      pop\n        /* \"#utility.yul\":13659:13892   */\n      swap2\n      swap1\n      pop\n      jump\t// out\n        /* \"#utility.yul\":13898:14057   */\n    tag_393:\n        /* \"#utility.yul\":14038:14049   */\n      0x6f6e6c794f776e65720000000000000000000000000000000000000000000000\n        /* \"#utility.yul\":14034:14035   */\n      0x00\n        /* \"#utility.yul\":14026:14032   */\n      dup3\n        /* \"#utility.yul\":14022:14036   */\n      add\n        /* \"#utility.yul\":14015:14050   */\n      mstore\n        /* \"#utility.yul\":13898:14057   */\n      pop\n      jump\t// out\n        /* \"#utility.yul\":14063:14428   */\n    tag_394:\n        /* \"#utility.yul\":14205:14208   */\n      0x00\n        /* \"#utility.yul\":14226:14292   */\n      tag_583\n        /* \"#utility.yul\":14290:14291   */\n      0x09\n        /* \"#utility.yul\":14285:14288   */\n      dup4\n        /* \"#utility.yul\":14226:14292   */\n      tag_388\n      jump\t// in\n    tag_583:\n        /* \"#utility.yul\":14219:14292   */\n      swap2\n      pop\n        /* \"#utility.yul\":14301:14394   */\n      tag_584\n        /* \"#utility.yul\":14390:14393   */\n      dup3\n        /* \"#utility.yul\":14301:14394   */\n      tag_393\n      jump\t// in\n    tag_584:\n        /* \"#utility.yul\":14419:14421   */\n      0x20\n        /* \"#utility.yul\":14414:14417   */\n      dup3\n        /* \"#utility.yul\":14410:14422   */\n      add\n        /* \"#utility.yul\":14403:14422   */\n      swap1\n      pop\n        /* \"#utility.yul\":14063:14428   */\n      swap2\n      swap1\n      pop\n      jump\t// out\n        /* \"#utility.yul\":14434:14853   */\n    tag_166:\n        /* \"#utility.yul\":14600:14604   */\n      0x00\n        /* \"#utility.yul\":14638:14640   */\n      0x20\n        /* \"#utility.yul\":14627:14636   */\n      dup3\n        /* \"#utility.yul\":14623:14641   */\n      add\n        /* \"#utility.yul\":14615:14641   */\n      swap1\n      pop\n        /* \"#utility.yul\":14687:14696   */\n      dup2\n        /* \"#utility.yul\":14681:14685   */\n      dup2\n        /* \"#utility.yul\":14677:14697   */\n      sub\n        /* \"#utility.yul\":14673:14674   */\n      0x00\n        /* \"#utility.yul\":14662:14671   */\n      dup4\n        /* \"#utility.yul\":14658:14675   */\n      add\n        /* \"#utility.yul\":14651:14698   */\n      mstore\n        /* \"#utility.yul\":14715:14846   */\n      tag_586\n        /* \"#utility.yul\":14841:14845   */\n      dup2\n        /* \"#utility.yul\":14715:14846   */\n      tag_394\n      jump\t// in\n    tag_586:\n        /* \"#utility.yul\":14707:14846   */\n      swap1\n      pop\n        /* \"#utility.yul\":14434:14853   */\n      swap2\n      swap1\n      pop\n      jump\t// out\n        /* \"#utility.yul\":14859:15050   */\n    tag_172:\n        /* \"#utility.yul\":14897:14901   */\n      0x00\n        /* \"#utility.yul\":14917:14935   */\n      tag_588\n        /* \"#utility.yul\":14933:14934   */\n      dup3\n        /* \"#utility.yul\":14917:14935   */\n      tag_361\n      jump\t// in\n    tag_588:\n        /* \"#utility.yul\":14912:14935   */\n      swap2\n      pop\n        /* \"#utility.yul\":14949:14967   */\n      tag_589\n        /* \"#utility.yul\":14965:14966   */\n      dup4\n        /* \"#utility.yul\":14949:14967   */\n      tag_361\n      jump\t// in\n    tag_589:\n        /* \"#utility.yul\":14944:14967   */\n      swap3\n      pop\n        /* \"#utility.yul\":14991:14992   */\n      dup3\n        /* \"#utility.yul\":14988:14989   */\n      dup3\n        /* \"#utility.yul\":14984:14993   */\n      sub\n        /* \"#utility.yul\":14976:14993   */\n      swap1\n      pop\n        /* \"#utility.yul\":15015:15019   */\n      0xff\n        /* \"#utility.yul\":15009:15013   */\n      dup2\n        /* \"#utility.yul\":15006:15020   */\n      gt\n        /* \"#utility.yul\":15003:15043   */\n      iszero\n      tag_590\n      jumpi\n        /* \"#utility.yul\":15023:15041   */\n      tag_591\n      tag_387\n      jump\t// in\n    tag_591:\n        /* \"#utility.yul\":15003:15043   */\n    tag_590:\n        /* \"#utility.yul\":14859:15050   */\n      swap3\n      swap2\n      pop\n      pop\n      jump\t// out\n        /* \"#utility.yul\":15056:15223   */\n    tag_175:\n        /* \"#utility.yul\":15093:15096   */\n      0x00\n        /* \"#utility.yul\":15116:15138   */\n      tag_593\n        /* \"#utility.yul\":15132:15137   */\n      dup3\n        /* \"#utility.yul\":15116:15138   */\n      tag_361\n      jump\t// in\n    tag_593:\n        /* \"#utility.yul\":15107:15138   */\n      swap2\n      pop\n        /* \"#utility.yul\":15160:15164   */\n      0xff\n        /* \"#utility.yul\":15153:15158   */\n      dup3\n        /* \"#utility.yul\":15150:15165   */\n      sub\n        /* \"#utility.yul\":15147:15188   */\n      tag_594\n      jumpi\n        /* \"#utility.yul\":15168:15186   */\n      tag_595\n      tag_387\n      jump\t// in\n    tag_595:\n        /* \"#utility.yul\":15147:15188   */\n    tag_594:\n        /* \"#utility.yul\":15215:15216   */\n      0x01\n        /* \"#utility.yul\":15208:15213   */\n      dup3\n        /* \"#utility.yul\":15204:15217   */\n      add\n        /* \"#utility.yul\":15197:15217   */\n      swap1\n      pop\n        /* \"#utility.yul\":15056:15223   */\n      swap2\n      swap1\n      pop\n      jump\t// out\n        /* \"#utility.yul\":15229:15408   */\n    tag_395:\n        /* \"#utility.yul\":15369:15400   */\n      0x63616e6e6f74207769746864726177206465706f73697420746f6b656e000000\n        /* \"#utility.yul\":15365:15366   */\n      0x00\n        /* \"#utility.yul\":15357:15363   */\n      dup3\n        /* \"#utility.yul\":15353:15367   */\n      add\n        /* \"#utility.yul\":15346:15401   */\n      mstore\n        /* \"#utility.yul\":15229:15408   */\n      pop\n      jump\t// out\n        /* \"#utility.yul\":15414:15780   */\n    tag_396:\n        /* \"#utility.yul\":15556:15559   */\n      0x00\n        /* \"#utility.yul\":15577:15644   */\n      tag_598\n        /* \"#utility.yul\":15641:15643   */\n      0x1d\n        /* \"#utility.yul\":15636:15639   */\n      dup4\n        /* \"#utility.yul\":15577:15644   */\n      tag_388\n      jump\t// in\n    tag_598:\n        /* \"#utility.yul\":15570:15644   */\n      swap2\n      pop\n        /* \"#utility.yul\":15653:15746   */\n      tag_599\n        /* \"#utility.yul\":15742:15745   */\n      dup3\n        /* \"#utility.yul\":15653:15746   */\n      tag_395\n      jump\t// in\n    tag_599:\n        /* \"#utility.yul\":15771:15773   */\n      0x20\n        /* \"#utility.yul\":15766:15769   */\n      dup3\n        /* \"#utility.yul\":15762:15774   */\n      add\n        /* \"#utility.yul\":15755:15774   */\n      swap1\n      pop\n        /* \"#utility.yul\":15414:15780   */\n      swap2\n      swap1\n      pop\n      jump\t// out\n        /* \"#utility.yul\":15786:16205   */\n    tag_200:\n        /* \"#utility.yul\":15952:15956   */\n      0x00\n        /* \"#utility.yul\":15990:15992   */\n      0x20\n        /* \"#utility.yul\":15979:15988   */\n      dup3\n        /* \"#utility.yul\":15975:15993   */\n      add\n        /* \"#utility.yul\":15967:15993   */\n      swap1\n      pop\n        /* \"#utility.yul\":16039:16048   */\n      dup2\n        /* \"#utility.yul\":16033:16037   */\n      dup2\n        /* \"#utility.yul\":16029:16049   */\n      sub\n        /* \"#utility.yul\":16025:16026   */\n      0x00\n        /* \"#utility.yul\":16014:16023   */\n      dup4\n        /* \"#utility.yul\":16010:16027   */\n      add\n        /* \"#utility.yul\":16003:16050   */\n      mstore\n        /* \"#utility.yul\":16067:16198   */\n      tag_601\n        /* \"#utility.yul\":16193:16197   */\n      dup2\n        /* \"#utility.yul\":16067:16198   */\n      tag_396\n      jump\t// in\n    tag_601:\n        /* \"#utility.yul\":16059:16198   */\n      swap1\n      pop\n        /* \"#utility.yul\":15786:16205   */\n      swap2\n      swap1\n      pop\n      jump\t// out\n        /* \"#utility.yul\":16211:16354   */\n    tag_397:\n        /* \"#utility.yul\":16268:16273   */\n      0x00\n        /* \"#utility.yul\":16299:16305   */\n      dup2\n        /* \"#utility.yul\":16293:16306   */\n      mload\n        /* \"#utility.yul\":16284:16306   */\n      swap1\n      pop\n        /* \"#utility.yul\":16315:16348   */\n      tag_603\n        /* \"#utility.yul\":16342:16347   */\n      dup2\n        /* \"#utility.yul\":16315:16348   */\n      tag_372\n      jump\t// in\n    tag_603:\n        /* \"#utility.yul\":16211:16354   */\n      swap3\n      swap2\n      pop\n      pop\n      jump\t// out\n        /* \"#utility.yul\":16360:16711   */\n    tag_209:\n        /* \"#utility.yul\":16430:16436   */\n      0x00\n        /* \"#utility.yul\":16479:16481   */\n      0x20\n        /* \"#utility.yul\":16467:16476   */\n      dup3\n        /* \"#utility.yul\":16458:16465   */\n      dup5\n        /* \"#utility.yul\":16454:16477   */\n      sub\n        /* \"#utility.yul\":16450:16482   */\n      slt\n        /* \"#utility.yul\":16447:16566   */\n      iszero\n      tag_605\n      jumpi\n        /* \"#utility.yul\":16485:16564   */\n      tag_606\n      tag_355\n      jump\t// in\n    tag_606:\n        /* \"#utility.yul\":16447:16566   */\n    tag_605:\n        /* \"#utility.yul\":16605:16606   */\n      0x00\n        /* \"#utility.yul\":16630:16694   */\n      tag_607\n        /* \"#utility.yul\":16686:16693   */\n      dup5\n        /* \"#utility.yul\":16677:16683   */\n      dup3\n        /* \"#utility.yul\":16666:16675   */\n      dup6\n        /* \"#utility.yul\":16662:16684   */\n      add\n        /* \"#utility.yul\":16630:16694   */\n      tag_397\n      jump\t// in\n    tag_607:\n        /* \"#utility.yul\":16620:16694   */\n      swap2\n      pop\n        /* \"#utility.yul\":16576:16704   */\n      pop\n        /* \"#utility.yul\":16360:16711   */\n      swap3\n      swap2\n      pop\n      pop\n      jump\t// out\n        /* \"#utility.yul\":16717:17049   */\n    tag_211:\n        /* \"#utility.yul\":16838:16842   */\n      0x00\n        /* \"#utility.yul\":16876:16878   */\n      0x40\n        /* \"#utility.yul\":16865:16874   */\n      dup3\n        /* \"#utility.yul\":16861:16879   */\n      add\n        /* \"#utility.yul\":16853:16879   */\n      swap1\n      pop\n        /* \"#utility.yul\":16889:16960   */\n      tag_609\n        /* \"#utility.yul\":16957:16958   */\n      0x00\n        /* \"#utility.yul\":16946:16955   */\n      dup4\n        /* \"#utility.yul\":16942:16959   */\n      add\n        /* \"#utility.yul\":16933:16939   */\n      dup6\n        /* \"#utility.yul\":16889:16960   */\n      tag_374\n      jump\t// in\n    tag_609:\n        /* \"#utility.yul\":16970:17042   */\n      tag_610\n        /* \"#utility.yul\":17038:17040   */\n      0x20\n        /* \"#utility.yul\":17027:17036   */\n      dup4\n        /* \"#utility.yul\":17023:17041   */\n      add\n        /* \"#utility.yul\":17014:17020   */\n      dup5\n        /* \"#utility.yul\":16970:17042   */\n      tag_370\n      jump\t// in\n    tag_610:\n        /* \"#utility.yul\":16717:17049   */\n      swap4\n      swap3\n      pop\n      pop\n      pop\n      jump\t// out\n        /* \"#utility.yul\":17055:17171   */\n    tag_398:\n        /* \"#utility.yul\":17125:17146   */\n      tag_612\n        /* \"#utility.yul\":17140:17145   */\n      dup2\n        /* \"#utility.yul\":17125:17146   */\n      tag_364\n      jump\t// in\n    tag_612:\n        /* \"#utility.yul\":17118:17123   */\n      dup2\n        /* \"#utility.yul\":17115:17147   */\n      eq\n        /* \"#utility.yul\":17105:17165   */\n      tag_613\n      jumpi\n        /* \"#utility.yul\":17161:17162   */\n      0x00\n        /* \"#utility.yul\":17158:17159   */\n      dup1\n        /* \"#utility.yul\":17151:17163   */\n      revert\n        /* \"#utility.yul\":17105:17165   */\n    tag_613:\n        /* \"#utility.yul\":17055:17171   */\n      pop\n      jump\t// out\n        /* \"#utility.yul\":17177:17314   */\n    tag_399:\n        /* \"#utility.yul\":17231:17236   */\n      0x00\n        /* \"#utility.yul\":17262:17268   */\n      dup2\n        /* \"#utility.yul\":17256:17269   */\n      mload\n        /* \"#utility.yul\":17247:17269   */\n      swap1\n      pop\n        /* \"#utility.yul\":17278:17308   */\n      tag_615\n        /* \"#utility.yul\":17302:17307   */\n      dup2\n        /* \"#utility.yul\":17278:17308   */\n      tag_398\n      jump\t// in\n    tag_615:\n        /* \"#utility.yul\":17177:17314   */\n      swap3\n      swap2\n      pop\n      pop\n      jump\t// out\n        /* \"#utility.yul\":17320:17665   */\n    tag_215:\n        /* \"#utility.yul\":17387:17393   */\n      0x00\n        /* \"#utility.yul\":17436:17438   */\n      0x20\n        /* \"#utility.yul\":17424:17433   */\n      dup3\n        /* \"#utility.yul\":17415:17422   */\n      dup5\n        /* \"#utility.yul\":17411:17434   */\n      sub\n        /* \"#utility.yul\":17407:17439   */\n      slt\n        /* \"#utility.yul\":17404:17523   */\n      iszero\n      tag_617\n      jumpi\n        /* \"#utility.yul\":17442:17521   */\n      tag_618\n      tag_355\n      jump\t// in\n    tag_618:\n        /* \"#utility.yul\":17404:17523   */\n    tag_617:\n        /* \"#utility.yul\":17562:17563   */\n      0x00\n        /* \"#utility.yul\":17587:17648   */\n      tag_619\n        /* \"#utility.yul\":17640:17647   */\n      dup5\n        /* \"#utility.yul\":17631:17637   */\n      dup3\n        /* \"#utility.yul\":17620:17629   */\n      dup6\n        /* \"#utility.yul\":17616:17638   */\n      add\n        /* \"#utility.yul\":17587:17648   */\n      tag_399\n      jump\t// in\n    tag_619:\n        /* \"#utility.yul\":17577:17648   */\n      swap2\n      pop\n        /* \"#utility.yul\":17533:17658   */\n      pop\n        /* \"#utility.yul\":17320:17665   */\n      swap3\n      swap2\n      pop\n      pop\n      jump\t// out\n        /* \"#utility.yul\":17671:18113   */\n    tag_238:\n        /* \"#utility.yul\":17820:17824   */\n      0x00\n        /* \"#utility.yul\":17858:17860   */\n      0x60\n        /* \"#utility.yul\":17847:17856   */\n      dup3\n        /* \"#utility.yul\":17843:17861   */\n      add\n        /* \"#utility.yul\":17835:17861   */\n      swap1\n      pop\n        /* \"#utility.yul\":17871:17942   */\n      tag_621\n        /* \"#utility.yul\":17939:17940   */\n      0x00\n        /* \"#utility.yul\":17928:17937   */\n      dup4\n        /* \"#utility.yul\":17924:17941   */\n      add\n        /* \"#utility.yul\":17915:17921   */\n      dup7\n        /* \"#utility.yul\":17871:17942   */\n      tag_374\n      jump\t// in\n    tag_621:\n        /* \"#utility.yul\":17952:18024   */\n      tag_622\n        /* \"#utility.yul\":18020:18022   */\n      0x20\n        /* \"#utility.yul\":18009:18018   */\n      dup4\n        /* \"#utility.yul\":18005:18023   */\n      add\n        /* \"#utility.yul\":17996:18002   */\n      dup6\n        /* \"#utility.yul\":17952:18024   */\n      tag_374\n      jump\t// in\n    tag_622:\n        /* \"#utility.yul\":18034:18106   */\n      tag_623\n        /* \"#utility.yul\":18102:18104   */\n      0x40\n        /* \"#utility.yul\":18091:18100   */\n      dup4\n        /* \"#utility.yul\":18087:18105   */\n      add\n        /* \"#utility.yul\":18078:18084   */\n      dup5\n        /* \"#utility.yul\":18034:18106   */\n      tag_370\n      jump\t// in\n    tag_623:\n        /* \"#utility.yul\":17671:18113   */\n      swap5\n      swap4\n      pop\n      pop\n      pop\n      pop\n      jump\t// out\n        /* \"#utility.yul\":18119:18204   */\n    tag_400:\n        /* \"#utility.yul\":18164:18171   */\n      0x00\n        /* \"#utility.yul\":18193:18198   */\n      dup2\n        /* \"#utility.yul\":18182:18198   */\n      swap1\n      pop\n        /* \"#utility.yul\":18119:18204   */\n      swap2\n      swap1\n      pop\n      jump\t// out\n        /* \"#utility.yul\":18210:18364   */\n    tag_401:\n        /* \"#utility.yul\":18266:18275   */\n      0x00\n        /* \"#utility.yul\":18299:18358   */\n      tag_626\n        /* \"#utility.yul\":18315:18357   */\n      tag_627\n        /* \"#utility.yul\":18324:18356   */\n      tag_628\n        /* \"#utility.yul\":18350:18355   */\n      dup5\n        /* \"#utility.yul\":18324:18356   */\n      tag_400\n      jump\t// in\n    tag_628:\n        /* \"#utility.yul\":18315:18357   */\n      tag_382\n      jump\t// in\n    tag_627:\n        /* \"#utility.yul\":18299:18358   */\n      tag_361\n      jump\t// in\n    tag_626:\n        /* \"#utility.yul\":18286:18358   */\n      swap1\n      pop\n        /* \"#utility.yul\":18210:18364   */\n      swap2\n      swap1\n      pop\n      jump\t// out\n        /* \"#utility.yul\":18370:18513   */\n    tag_402:\n        /* \"#utility.yul\":18463:18506   */\n      tag_630\n        /* \"#utility.yul\":18500:18505   */\n      dup2\n        /* \"#utility.yul\":18463:18506   */\n      tag_401\n      jump\t// in\n    tag_630:\n        /* \"#utility.yul\":18458:18461   */\n      dup3\n        /* \"#utility.yul\":18451:18507   */\n      mstore\n        /* \"#utility.yul\":18370:18513   */\n      pop\n      pop\n      jump\t// out\n        /* \"#utility.yul\":18519:18957   */\n    tag_244:\n        /* \"#utility.yul\":18666:18670   */\n      0x00\n        /* \"#utility.yul\":18704:18706   */\n      0x60\n        /* \"#utility.yul\":18693:18702   */\n      dup3\n        /* \"#utility.yul\":18689:18707   */\n      add\n        /* \"#utility.yul\":18681:18707   */\n      swap1\n      pop\n        /* \"#utility.yul\":18717:18794   */\n      tag_632\n        /* \"#utility.yul\":18791:18792   */\n      0x00\n        /* \"#utility.yul\":18780:18789   */\n      dup4\n        /* \"#utility.yul\":18776:18793   */\n      add\n        /* \"#utility.yul\":18767:18773   */\n      dup7\n        /* \"#utility.yul\":18717:18794   */\n      tag_402\n      jump\t// in\n    tag_632:\n        /* \"#utility.yul\":18804:18872   */\n      tag_633\n        /* \"#utility.yul\":18868:18870   */\n      0x20\n        /* \"#utility.yul\":18857:18866   */\n      dup4\n        /* \"#utility.yul\":18853:18871   */\n      add\n        /* \"#utility.yul\":18844:18850   */\n      dup6\n        /* \"#utility.yul\":18804:18872   */\n      tag_371\n      jump\t// in\n    tag_633:\n        /* \"#utility.yul\":18882:18950   */\n      tag_634\n        /* \"#utility.yul\":18946:18948   */\n      0x40\n        /* \"#utility.yul\":18935:18944   */\n      dup4\n        /* \"#utility.yul\":18931:18949   */\n      add\n        /* \"#utility.yul\":18922:18928   */\n      dup5\n        /* \"#utility.yul\":18882:18950   */\n      tag_371\n      jump\t// in\n    tag_634:\n        /* \"#utility.yul\":18519:18957   */\n      swap5\n      swap4\n      pop\n      pop\n      pop\n      pop\n      jump\t// out\n        /* \"#utility.yul\":18963:19048   */\n    tag_403:\n        /* \"#utility.yul\":19008:19015   */\n      0x00\n        /* \"#utility.yul\":19037:19042   */\n      dup2\n        /* \"#utility.yul\":19026:19042   */\n      swap1\n      pop\n        /* \"#utility.yul\":18963:19048   */\n      swap2\n      swap1\n      pop\n      jump\t// out\n        /* \"#utility.yul\":19054:19208   */\n    tag_404:\n        /* \"#utility.yul\":19110:19119   */\n      0x00\n        /* \"#utility.yul\":19143:19202   */\n      tag_637\n        /* \"#utility.yul\":19159:19201   */\n      tag_638\n        /* \"#utility.yul\":19168:19200   */\n      tag_639\n        /* \"#utility.yul\":19194:19199   */\n      dup5\n        /* \"#utility.yul\":19168:19200   */\n      tag_403\n      jump\t// in\n    tag_639:\n        /* \"#utility.yul\":19159:19201   */\n      tag_382\n      jump\t// in\n    tag_638:\n        /* \"#utility.yul\":19143:19202   */\n      tag_361\n      jump\t// in\n    tag_637:\n        /* \"#utility.yul\":19130:19202   */\n      swap1\n      pop\n        /* \"#utility.yul\":19054:19208   */\n      swap2\n      swap1\n      pop\n      jump\t// out\n        /* \"#utility.yul\":19214:19357   */\n    tag_405:\n        /* \"#utility.yul\":19307:19350   */\n      tag_641\n        /* \"#utility.yul\":19344:19349   */\n      dup2\n        /* \"#utility.yul\":19307:19350   */\n      tag_404\n      jump\t// in\n    tag_641:\n        /* \"#utility.yul\":19302:19305   */\n      dup3\n        /* \"#utility.yul\":19295:19351   */\n      mstore\n        /* \"#utility.yul\":19214:19357   */\n      pop\n      pop\n      jump\t// out\n        /* \"#utility.yul\":19363:19821   */\n    tag_248:\n        /* \"#utility.yul\":19520:19524   */\n      0x00\n        /* \"#utility.yul\":19558:19560   */\n      0x60\n        /* \"#utility.yul\":19547:19556   */\n      dup3\n        /* \"#utility.yul\":19543:19561   */\n      add\n        /* \"#utility.yul\":19535:19561   */\n      swap1\n      pop\n        /* \"#utility.yul\":19571:19648   */\n      tag_643\n        /* \"#utility.yul\":19645:19646   */\n      0x00\n        /* \"#utility.yul\":19634:19643   */\n      dup4\n        /* \"#utility.yul\":19630:19647   */\n      add\n        /* \"#utility.yul\":19621:19627   */\n      dup7\n        /* \"#utility.yul\":19571:19648   */\n      tag_402\n      jump\t// in\n    tag_643:\n        /* \"#utility.yul\":19658:19726   */\n      tag_644\n        /* \"#utility.yul\":19722:19724   */\n      0x20\n        /* \"#utility.yul\":19711:19720   */\n      dup4\n        /* \"#utility.yul\":19707:19725   */\n      add\n        /* \"#utility.yul\":19698:19704   */\n      dup6\n        /* \"#utility.yul\":19658:19726   */\n      tag_371\n      jump\t// in\n    tag_644:\n        /* \"#utility.yul\":19736:19814   */\n      tag_645\n        /* \"#utility.yul\":19810:19812   */\n      0x40\n        /* \"#utility.yul\":19799:19808   */\n      dup4\n        /* \"#utility.yul\":19795:19813   */\n      add\n        /* \"#utility.yul\":19786:19792   */\n      dup5\n        /* \"#utility.yul\":19736:19814   */\n      tag_405\n      jump\t// in\n    tag_645:\n        /* \"#utility.yul\":19363:19821   */\n      swap5\n      swap4\n      pop\n      pop\n      pop\n      pop\n      jump\t// out\n        /* \"#utility.yul\":19827:20007   */\n    tag_251:\n        /* \"#utility.yul\":19875:19952   */\n      0x4e487b7100000000000000000000000000000000000000000000000000000000\n        /* \"#utility.yul\":19872:19873   */\n      0x00\n        /* \"#utility.yul\":19865:19953   */\n      mstore\n        /* \"#utility.yul\":19972:19976   */\n      0x41\n        /* \"#utility.yul\":19969:19970   */\n      0x04\n        /* \"#utility.yul\":19962:19977   */\n      mstore\n        /* \"#utility.yul\":19996:20000   */\n      0x24\n        /* \"#utility.yul\":19993:19994   */\n      0x00\n        /* \"#utility.yul\":19986:20001   */\n      revert\n        /* \"#utility.yul\":20013:20201   */\n    tag_256:\n        /* \"#utility.yul\":20051:20054   */\n      0x00\n        /* \"#utility.yul\":20070:20088   */\n      tag_648\n        /* \"#utility.yul\":20086:20087   */\n      dup3\n        /* \"#utility.yul\":20070:20088   */\n      tag_361\n      jump\t// in\n    tag_648:\n        /* \"#utility.yul\":20065:20088   */\n      swap2\n      pop\n        /* \"#utility.yul\":20102:20120   */\n      tag_649\n        /* \"#utility.yul\":20118:20119   */\n      dup4\n        /* \"#utility.yul\":20102:20120   */\n      tag_361\n      jump\t// in\n    tag_649:\n        /* \"#utility.yul\":20097:20120   */\n      swap3\n      pop\n        /* \"#utility.yul\":20143:20144   */\n      dup3\n        /* \"#utility.yul\":20140:20141   */\n      dup3\n        /* \"#utility.yul\":20136:20145   */\n      add\n        /* \"#utility.yul\":20129:20145   */\n      swap1\n      pop\n        /* \"#utility.yul\":20166:20170   */\n      0xff\n        /* \"#utility.yul\":20161:20164   */\n      dup2\n        /* \"#utility.yul\":20158:20171   */\n      gt\n        /* \"#utility.yul\":20155:20194   */\n      iszero\n      tag_650\n      jumpi\n        /* \"#utility.yul\":20174:20192   */\n      tag_651\n      tag_387\n      jump\t// in\n    tag_651:\n        /* \"#utility.yul\":20155:20194   */\n    tag_650:\n        /* \"#utility.yul\":20013:20201   */\n      swap3\n      swap2\n      pop\n      pop\n      jump\t// out\n        /* \"#utility.yul\":20207:20543   */\n    tag_264:\n        /* \"#utility.yul\":20330:20334   */\n      0x00\n        /* \"#utility.yul\":20368:20370   */\n      0x40\n        /* \"#utility.yul\":20357:20366   */\n      dup3\n        /* \"#utility.yul\":20353:20371   */\n      add\n        /* \"#utility.yul\":20345:20371   */\n      swap1\n      pop\n        /* \"#utility.yul\":20381:20458   */\n      tag_653\n        /* \"#utility.yul\":20455:20456   */\n      0x00\n        /* \"#utility.yul\":20444:20453   */\n      dup4\n        /* \"#utility.yul\":20440:20457   */\n      add\n        /* \"#utility.yul\":20431:20437   */\n      dup6\n        /* \"#utility.yul\":20381:20458   */\n      tag_402\n      jump\t// in\n    tag_653:\n        /* \"#utility.yul\":20468:20536   */\n      tag_654\n        /* \"#utility.yul\":20532:20534   */\n      0x20\n        /* \"#utility.yul\":20521:20530   */\n      dup4\n        /* \"#utility.yul\":20517:20535   */\n      add\n        /* \"#utility.yul\":20508:20514   */\n      dup5\n        /* \"#utility.yul\":20468:20536   */\n      tag_371\n      jump\t// in\n    tag_654:\n        /* \"#utility.yul\":20207:20543   */\n      swap4\n      swap3\n      pop\n      pop\n      pop\n      jump\t// out\n        /* \"#utility.yul\":20549:20771   */\n    tag_406:\n        /* \"#utility.yul\":20689:20723   */\n      0x75736572206973206e6f74206578697374732e20526567697374657220666972\n        /* \"#utility.yul\":20685:20686   */\n      0x00\n        /* \"#utility.yul\":20677:20683   */\n      dup3\n        /* \"#utility.yul\":20673:20687   */\n      add\n        /* \"#utility.yul\":20666:20724   */\n      mstore\n        /* \"#utility.yul\":20758:20763   */\n      0x73742e0000000000000000000000000000000000000000000000000000000000\n        /* \"#utility.yul\":20753:20755   */\n      0x20\n        /* \"#utility.yul\":20745:20751   */\n      dup3\n        /* \"#utility.yul\":20741:20756   */\n      add\n        /* \"#utility.yul\":20734:20764   */\n      mstore\n        /* \"#utility.yul\":20549:20771   */\n      pop\n      jump\t// out\n        /* \"#utility.yul\":20777:21143   */\n    tag_407:\n        /* \"#utility.yul\":20919:20922   */\n      0x00\n        /* \"#utility.yul\":20940:21007   */\n      tag_657\n        /* \"#utility.yul\":21004:21006   */\n      0x23\n        /* \"#utility.yul\":20999:21002   */\n      dup4\n        /* \"#utility.yul\":20940:21007   */\n      tag_388\n      jump\t// in\n    tag_657:\n        /* \"#utility.yul\":20933:21007   */\n      swap2\n      pop\n        /* \"#utility.yul\":21016:21109   */\n      tag_658\n        /* \"#utility.yul\":21105:21108   */\n      dup3\n        /* \"#utility.yul\":21016:21109   */\n      tag_406\n      jump\t// in\n    tag_658:\n        /* \"#utility.yul\":21134:21136   */\n      0x40\n        /* \"#utility.yul\":21129:21132   */\n      dup3\n        /* \"#utility.yul\":21125:21137   */\n      add\n        /* \"#utility.yul\":21118:21137   */\n      swap1\n      pop\n        /* \"#utility.yul\":20777:21143   */\n      swap2\n      swap1\n      pop\n      jump\t// out\n        /* \"#utility.yul\":21149:21568   */\n    tag_274:\n        /* \"#utility.yul\":21315:21319   */\n      0x00\n        /* \"#utility.yul\":21353:21355   */\n      0x20\n        /* \"#utility.yul\":21342:21351   */\n      dup3\n        /* \"#utility.yul\":21338:21356   */\n      add\n        /* \"#utility.yul\":21330:21356   */\n      swap1\n      pop\n        /* \"#utility.yul\":21402:21411   */\n      dup2\n        /* \"#utility.yul\":21396:21400   */\n      dup2\n        /* \"#utility.yul\":21392:21412   */\n      sub\n        /* \"#utility.yul\":21388:21389   */\n      0x00\n        /* \"#utility.yul\":21377:21386   */\n      dup4\n        /* \"#utility.yul\":21373:21390   */\n      add\n        /* \"#utility.yul\":21366:21413   */\n      mstore\n        /* \"#utility.yul\":21430:21561   */\n      tag_660\n        /* \"#utility.yul\":21556:21560   */\n      dup2\n        /* \"#utility.yul\":21430:21561   */\n      tag_407\n      jump\t// in\n    tag_660:\n        /* \"#utility.yul\":21422:21561   */\n      swap1\n      pop\n        /* \"#utility.yul\":21149:21568   */\n      swap2\n      swap1\n      pop\n      jump\t// out\n        /* \"#utility.yul\":21574:21738   */\n    tag_408:\n        /* \"#utility.yul\":21714:21730   */\n      0x696e76616c6964206d6174726978000000000000000000000000000000000000\n        /* \"#utility.yul\":21710:21711   */\n      0x00\n        /* \"#utility.yul\":21702:21708   */\n      dup3\n        /* \"#utility.yul\":21698:21712   */\n      add\n        /* \"#utility.yul\":21691:21731   */\n      mstore\n        /* \"#utility.yul\":21574:21738   */\n      pop\n      jump\t// out\n        /* \"#utility.yul\":21744:22110   */\n    tag_409:\n        /* \"#utility.yul\":21886:21889   */\n      0x00\n        /* \"#utility.yul\":21907:21974   */\n      tag_663\n        /* \"#utility.yul\":21971:21973   */\n      0x0e\n        /* \"#utility.yul\":21966:21969   */\n      dup4\n        /* \"#utility.yul\":21907:21974   */\n      tag_388\n      jump\t// in\n    tag_663:\n        /* \"#utility.yul\":21900:21974   */\n      swap2\n      pop\n        /* \"#utility.yul\":21983:22076   */\n      tag_664\n        /* \"#utility.yul\":22072:22075   */\n      dup3\n        /* \"#utility.yul\":21983:22076   */\n      tag_408\n      jump\t// in\n    tag_664:\n        /* \"#utility.yul\":22101:22103   */\n      0x20\n        /* \"#utility.yul\":22096:22099   */\n      dup3\n        /* \"#utility.yul\":22092:22104   */\n      add\n        /* \"#utility.yul\":22085:22104   */\n      swap1\n      pop\n        /* \"#utility.yul\":21744:22110   */\n      swap2\n      swap1\n      pop\n      jump\t// out\n        /* \"#utility.yul\":22116:22535   */\n    tag_278:\n        /* \"#utility.yul\":22282:22286   */\n      0x00\n        /* \"#utility.yul\":22320:22322   */\n      0x20\n        /* \"#utility.yul\":22309:22318   */\n      dup3\n        /* \"#utility.yul\":22305:22323   */\n      add\n        /* \"#utility.yul\":22297:22323   */\n      swap1\n      pop\n        /* \"#utility.yul\":22369:22378   */\n      dup2\n        /* \"#utility.yul\":22363:22367   */\n      dup2\n        /* \"#utility.yul\":22359:22379   */\n      sub\n        /* \"#utility.yul\":22355:22356   */\n      0x00\n        /* \"#utility.yul\":22344:22353   */\n      dup4\n        /* \"#utility.yul\":22340:22357   */\n      add\n        /* \"#utility.yul\":22333:22380   */\n      mstore\n        /* \"#utility.yul\":22397:22528   */\n      tag_666\n        /* \"#utility.yul\":22523:22527   */\n      dup2\n        /* \"#utility.yul\":22397:22528   */\n      tag_409\n      jump\t// in\n    tag_666:\n        /* \"#utility.yul\":22389:22528   */\n      swap1\n      pop\n        /* \"#utility.yul\":22116:22535   */\n      swap2\n      swap1\n      pop\n      jump\t// out\n        /* \"#utility.yul\":22541:22704   */\n    tag_410:\n        /* \"#utility.yul\":22681:22696   */\n      0x696e76616c6964206c6576656c00000000000000000000000000000000000000\n        /* \"#utility.yul\":22677:22678   */\n      0x00\n        /* \"#utility.yul\":22669:22675   */\n      dup3\n        /* \"#utility.yul\":22665:22679   */\n      add\n        /* \"#utility.yul\":22658:22697   */\n      mstore\n        /* \"#utility.yul\":22541:22704   */\n      pop\n      jump\t// out\n        /* \"#utility.yul\":22710:23076   */\n    tag_411:\n        /* \"#utility.yul\":22852:22855   */\n      0x00\n        /* \"#utility.yul\":22873:22940   */\n      tag_669\n        /* \"#utility.yul\":22937:22939   */\n      0x0d\n        /* \"#utility.yul\":22932:22935   */\n      dup4\n        /* \"#utility.yul\":22873:22940   */\n      tag_388\n      jump\t// in\n    tag_669:\n        /* \"#utility.yul\":22866:22940   */\n      swap2\n      pop\n        /* \"#utility.yul\":22949:23042   */\n      tag_670\n        /* \"#utility.yul\":23038:23041   */\n      dup3\n        /* \"#utility.yul\":22949:23042   */\n      tag_410\n      jump\t// in\n    tag_670:\n        /* \"#utility.yul\":23067:23069   */\n      0x20\n        /* \"#utility.yul\":23062:23065   */\n      dup3\n        /* \"#utility.yul\":23058:23070   */\n      add\n        /* \"#utility.yul\":23051:23070   */\n      swap1\n      pop\n        /* \"#utility.yul\":22710:23076   */\n      swap2\n      swap1\n      pop\n      jump\t// out\n        /* \"#utility.yul\":23082:23501   */\n    tag_283:\n        /* \"#utility.yul\":23248:23252   */\n      0x00\n        /* \"#utility.yul\":23286:23288   */\n      0x20\n        /* \"#utility.yul\":23275:23284   */\n      dup3\n        /* \"#utility.yul\":23271:23289   */\n      add\n        /* \"#utility.yul\":23263:23289   */\n      swap1\n      pop\n        /* \"#utility.yul\":23335:23344   */\n      dup2\n        /* \"#utility.yul\":23329:23333   */\n      dup2\n        /* \"#utility.yul\":23325:23345   */\n      sub\n        /* \"#utility.yul\":23321:23322   */\n      0x00\n        /* \"#utility.yul\":23310:23319   */\n      dup4\n        /* \"#utility.yul\":23306:23323   */\n      add\n        /* \"#utility.yul\":23299:23346   */\n      mstore\n        /* \"#utility.yul\":23363:23494   */\n      tag_672\n        /* \"#utility.yul\":23489:23493   */\n      dup2\n        /* \"#utility.yul\":23363:23494   */\n      tag_411\n      jump\t// in\n    tag_672:\n        /* \"#utility.yul\":23355:23494   */\n      swap1\n      pop\n        /* \"#utility.yul\":23082:23501   */\n      swap2\n      swap1\n      pop\n      jump\t// out\n        /* \"#utility.yul\":23507:23681   */\n    tag_412:\n        /* \"#utility.yul\":23647:23673   */\n      0x6275792070726576696f7573206c6576656c2066697273740000000000000000\n        /* \"#utility.yul\":23643:23644   */\n      0x00\n        /* \"#utility.yul\":23635:23641   */\n      dup3\n        /* \"#utility.yul\":23631:23645   */\n      add\n        /* \"#utility.yul\":23624:23674   */\n      mstore\n        /* \"#utility.yul\":23507:23681   */\n      pop\n      jump\t// out\n        /* \"#utility.yul\":23687:24053   */\n    tag_413:\n        /* \"#utility.yul\":23829:23832   */\n      0x00\n        /* \"#utility.yul\":23850:23917   */\n      tag_675\n        /* \"#utility.yul\":23914:23916   */\n      0x18\n        /* \"#utility.yul\":23909:23912   */\n      dup4\n        /* \"#utility.yul\":23850:23917   */\n      tag_388\n      jump\t// in\n    tag_675:\n        /* \"#utility.yul\":23843:23917   */\n      swap2\n      pop\n        /* \"#utility.yul\":23926:24019   */\n      tag_676\n        /* \"#utility.yul\":24015:24018   */\n      dup3\n        /* \"#utility.yul\":23926:24019   */\n      tag_412\n      jump\t// in\n    tag_676:\n        /* \"#utility.yul\":24044:24046   */\n      0x20\n        /* \"#utility.yul\":24039:24042   */\n      dup3\n        /* \"#utility.yul\":24035:24047   */\n      add\n        /* \"#utility.yul\":24028:24047   */\n      swap1\n      pop\n        /* \"#utility.yul\":23687:24053   */\n      swap2\n      swap1\n      pop\n      jump\t// out\n        /* \"#utility.yul\":24059:24478   */\n    tag_288:\n        /* \"#utility.yul\":24225:24229   */\n      0x00\n        /* \"#utility.yul\":24263:24265   */\n      0x20\n        /* \"#utility.yul\":24252:24261   */\n      dup3\n        /* \"#utility.yul\":24248:24266   */\n      add\n        /* \"#utility.yul\":24240:24266   */\n      swap1\n      pop\n        /* \"#utility.yul\":24312:24321   */\n      dup2\n        /* \"#utility.yul\":24306:24310   */\n      dup2\n        /* \"#utility.yul\":24302:24322   */\n      sub\n        /* \"#utility.yul\":24298:24299   */\n      0x00\n        /* \"#utility.yul\":24287:24296   */\n      dup4\n        /* \"#utility.yul\":24283:24300   */\n      add\n        /* \"#utility.yul\":24276:24323   */\n      mstore\n        /* \"#utility.yul\":24340:24471   */\n      tag_678\n        /* \"#utility.yul\":24466:24470   */\n      dup2\n        /* \"#utility.yul\":24340:24471   */\n      tag_413\n      jump\t// in\n    tag_678:\n        /* \"#utility.yul\":24332:24471   */\n      swap1\n      pop\n        /* \"#utility.yul\":24059:24478   */\n      swap2\n      swap1\n      pop\n      jump\t// out\n        /* \"#utility.yul\":24484:24657   */\n    tag_414:\n        /* \"#utility.yul\":24624:24649   */\n      0x6c6576656c20616c726561647920616374697661746564000000000000000000\n        /* \"#utility.yul\":24620:24621   */\n      0x00\n        /* \"#utility.yul\":24612:24618   */\n      dup3\n        /* \"#utility.yul\":24608:24622   */\n      add\n        /* \"#utility.yul\":24601:24650   */\n      mstore\n        /* \"#utility.yul\":24484:24657   */\n      pop\n      jump\t// out\n        /* \"#utility.yul\":24663:25029   */\n    tag_415:\n        /* \"#utility.yul\":24805:24808   */\n      0x00\n        /* \"#utility.yul\":24826:24893   */\n      tag_681\n        /* \"#utility.yul\":24890:24892   */\n      0x17\n        /* \"#utility.yul\":24885:24888   */\n      dup4\n        /* \"#utility.yul\":24826:24893   */\n      tag_388\n      jump\t// in\n    tag_681:\n        /* \"#utility.yul\":24819:24893   */\n      swap2\n      pop\n        /* \"#utility.yul\":24902:24995   */\n      tag_682\n        /* \"#utility.yul\":24991:24994   */\n      dup3\n        /* \"#utility.yul\":24902:24995   */\n      tag_414\n      jump\t// in\n    tag_682:\n        /* \"#utility.yul\":25020:25022   */\n      0x20\n        /* \"#utility.yul\":25015:25018   */\n      dup3\n        /* \"#utility.yul\":25011:25023   */\n      add\n        /* \"#utility.yul\":25004:25023   */\n      swap1\n      pop\n        /* \"#utility.yul\":24663:25029   */\n      swap2\n      swap1\n      pop\n      jump\t// out\n        /* \"#utility.yul\":25035:25454   */\n    tag_291:\n        /* \"#utility.yul\":25201:25205   */\n      0x00\n        /* \"#utility.yul\":25239:25241   */\n      0x20\n        /* \"#utility.yul\":25228:25237   */\n      dup3\n        /* \"#utility.yul\":25224:25242   */\n      add\n        /* \"#utility.yul\":25216:25242   */\n      swap1\n      pop\n        /* \"#utility.yul\":25288:25297   */\n      dup2\n        /* \"#utility.yul\":25282:25286   */\n      dup2\n        /* \"#utility.yul\":25278:25298   */\n      sub\n        /* \"#utility.yul\":25274:25275   */\n      0x00\n        /* \"#utility.yul\":25263:25272   */\n      dup4\n        /* \"#utility.yul\":25259:25276   */\n      add\n        /* \"#utility.yul\":25252:25299   */\n      mstore\n        /* \"#utility.yul\":25316:25447   */\n      tag_684\n        /* \"#utility.yul\":25442:25446   */\n      dup2\n        /* \"#utility.yul\":25316:25447   */\n      tag_415\n      jump\t// in\n    tag_684:\n        /* \"#utility.yul\":25308:25447   */\n      swap1\n      pop\n        /* \"#utility.yul\":25035:25454   */\n      swap2\n      swap1\n      pop\n      jump\t// out\n        /* \"#utility.yul\":25460:25690   */\n    tag_416:\n        /* \"#utility.yul\":25600:25634   */\n      0x536166654552433230203a204552433230206f7065726174696f6e2064696420\n        /* \"#utility.yul\":25596:25597   */\n      0x00\n        /* \"#utility.yul\":25588:25594   */\n      dup3\n        /* \"#utility.yul\":25584:25598   */\n      add\n        /* \"#utility.yul\":25577:25635   */\n      mstore\n        /* \"#utility.yul\":25669:25682   */\n      0x6e6f742073756363656564000000000000000000000000000000000000000000\n        /* \"#utility.yul\":25664:25666   */\n      0x20\n        /* \"#utility.yul\":25656:25662   */\n      dup3\n        /* \"#utility.yul\":25652:25667   */\n      add\n        /* \"#utility.yul\":25645:25683   */\n      mstore\n        /* \"#utility.yul\":25460:25690   */\n      pop\n      jump\t// out\n        /* \"#utility.yul\":25696:26062   */\n    tag_417:\n        /* \"#utility.yul\":25838:25841   */\n      0x00\n        /* \"#utility.yul\":25859:25926   */\n      tag_687\n        /* \"#utility.yul\":25923:25925   */\n      0x2b\n        /* \"#utility.yul\":25918:25921   */\n      dup4\n        /* \"#utility.yul\":25859:25926   */\n      tag_388\n      jump\t// in\n    tag_687:\n        /* \"#utility.yul\":25852:25926   */\n      swap2\n      pop\n        /* \"#utility.yul\":25935:26028   */\n      tag_688\n        /* \"#utility.yul\":26024:26027   */\n      dup3\n        /* \"#utility.yul\":25935:26028   */\n      tag_416\n      jump\t// in\n    tag_688:\n        /* \"#utility.yul\":26053:26055   */\n      0x40\n        /* \"#utility.yul\":26048:26051   */\n      dup3\n        /* \"#utility.yul\":26044:26056   */\n      add\n        /* \"#utility.yul\":26037:26056   */\n      swap1\n      pop\n        /* \"#utility.yul\":25696:26062   */\n      swap2\n      swap1\n      pop\n      jump\t// out\n        /* \"#utility.yul\":26068:26487   */\n    tag_305:\n        /* \"#utility.yul\":26234:26238   */\n      0x00\n        /* \"#utility.yul\":26272:26274   */\n      0x20\n        /* \"#utility.yul\":26261:26270   */\n      dup3\n        /* \"#utility.yul\":26257:26275   */\n      add\n        /* \"#utility.yul\":26249:26275   */\n      swap1\n      pop\n        /* \"#utility.yul\":26321:26330   */\n      dup2\n        /* \"#utility.yul\":26315:26319   */\n      dup2\n        /* \"#utility.yul\":26311:26331   */\n      sub\n        /* \"#utility.yul\":26307:26308   */\n      0x00\n        /* \"#utility.yul\":26296:26305   */\n      dup4\n        /* \"#utility.yul\":26292:26309   */\n      add\n        /* \"#utility.yul\":26285:26332   */\n      mstore\n        /* \"#utility.yul\":26349:26480   */\n      tag_690\n        /* \"#utility.yul\":26475:26479   */\n      dup2\n        /* \"#utility.yul\":26349:26480   */\n      tag_417\n      jump\t// in\n    tag_690:\n        /* \"#utility.yul\":26341:26480   */\n      swap1\n      pop\n        /* \"#utility.yul\":26068:26487   */\n      swap2\n      swap1\n      pop\n      jump\t// out\n        /* \"#utility.yul\":26493:26809   */\n    tag_313:\n        /* \"#utility.yul\":26606:26610   */\n      0x00\n        /* \"#utility.yul\":26644:26646   */\n      0x40\n        /* \"#utility.yul\":26633:26642   */\n      dup3\n        /* \"#utility.yul\":26629:26647   */\n      add\n        /* \"#utility.yul\":26621:26647   */\n      swap1\n      pop\n        /* \"#utility.yul\":26657:26724   */\n      tag_692\n        /* \"#utility.yul\":26721:26722   */\n      0x00\n        /* \"#utility.yul\":26710:26719   */\n      dup4\n        /* \"#utility.yul\":26706:26723   */\n      add\n        /* \"#utility.yul\":26697:26703   */\n      dup6\n        /* \"#utility.yul\":26657:26724   */\n      tag_371\n      jump\t// in\n    tag_692:\n        /* \"#utility.yul\":26734:26802   */\n      tag_693\n        /* \"#utility.yul\":26798:26800   */\n      0x20\n        /* \"#utility.yul\":26787:26796   */\n      dup4\n        /* \"#utility.yul\":26783:26801   */\n      add\n        /* \"#utility.yul\":26774:26780   */\n      dup5\n        /* \"#utility.yul\":26734:26802   */\n      tag_371\n      jump\t// in\n    tag_693:\n        /* \"#utility.yul\":26493:26809   */\n      swap4\n      swap3\n      pop\n      pop\n      pop\n      jump\t// out\n        /* \"#utility.yul\":26815:27041   */\n    tag_418:\n        /* \"#utility.yul\":26955:26989   */\n      0x41646472657373203a20696e73756666696369656e742062616c616e63652066\n        /* \"#utility.yul\":26951:26952   */\n      0x00\n        /* \"#utility.yul\":26943:26949   */\n      dup3\n        /* \"#utility.yul\":26939:26953   */\n      add\n        /* \"#utility.yul\":26932:26990   */\n      mstore\n        /* \"#utility.yul\":27024:27033   */\n      0x6f722063616c6c00000000000000000000000000000000000000000000000000\n        /* \"#utility.yul\":27019:27021   */\n      0x20\n        /* \"#utility.yul\":27011:27017   */\n      dup3\n        /* \"#utility.yul\":27007:27022   */\n      add\n        /* \"#utility.yul\":27000:27034   */\n      mstore\n        /* \"#utility.yul\":26815:27041   */\n      pop\n      jump\t// out\n        /* \"#utility.yul\":27047:27413   */\n    tag_419:\n        /* \"#utility.yul\":27189:27192   */\n      0x00\n        /* \"#utility.yul\":27210:27277   */\n      tag_696\n        /* \"#utility.yul\":27274:27276   */\n      0x27\n        /* \"#utility.yul\":27269:27272   */\n      dup4\n        /* \"#utility.yul\":27210:27277   */\n      tag_388\n      jump\t// in\n    tag_696:\n        /* \"#utility.yul\":27203:27277   */\n      swap2\n      pop\n        /* \"#utility.yul\":27286:27379   */\n      tag_697\n        /* \"#utility.yul\":27375:27378   */\n      dup3\n        /* \"#utility.yul\":27286:27379   */\n      tag_418\n      jump\t// in\n    tag_697:\n        /* \"#utility.yul\":27404:27406   */\n      0x40\n        /* \"#utility.yul\":27399:27402   */\n      dup3\n        /* \"#utility.yul\":27395:27407   */\n      add\n        /* \"#utility.yul\":27388:27407   */\n      swap1\n      pop\n        /* \"#utility.yul\":27047:27413   */\n      swap2\n      swap1\n      pop\n      jump\t// out\n        /* \"#utility.yul\":27419:27838   */\n    tag_330:\n        /* \"#utility.yul\":27585:27589   */\n      0x00\n        /* \"#utility.yul\":27623:27625   */\n      0x20\n        /* \"#utility.yul\":27612:27621   */\n      dup3\n        /* \"#utility.yul\":27608:27626   */\n      add\n        /* \"#utility.yul\":27600:27626   */\n      swap1\n      pop\n        /* \"#utility.yul\":27672:27681   */\n      dup2\n        /* \"#utility.yul\":27666:27670   */\n      dup2\n        /* \"#utility.yul\":27662:27682   */\n      sub\n        /* \"#utility.yul\":27658:27659   */\n      0x00\n        /* \"#utility.yul\":27647:27656   */\n      dup4\n        /* \"#utility.yul\":27643:27660   */\n      add\n        /* \"#utility.yul\":27636:27683   */\n      mstore\n        /* \"#utility.yul\":27700:27831   */\n      tag_699\n        /* \"#utility.yul\":27826:27830   */\n      dup2\n        /* \"#utility.yul\":27700:27831   */\n      tag_419\n      jump\t// in\n    tag_699:\n        /* \"#utility.yul\":27692:27831   */\n      swap1\n      pop\n        /* \"#utility.yul\":27419:27838   */\n      swap2\n      swap1\n      pop\n      jump\t// out\n        /* \"#utility.yul\":27844:27942   */\n    tag_420:\n        /* \"#utility.yul\":27895:27901   */\n      0x00\n        /* \"#utility.yul\":27929:27934   */\n      dup2\n        /* \"#utility.yul\":27923:27935   */\n      mload\n        /* \"#utility.yul\":27913:27935   */\n      swap1\n      pop\n        /* \"#utility.yul\":27844:27942   */\n      swap2\n      swap1\n      pop\n      jump\t// out\n        /* \"#utility.yul\":27948:28095   */\n    tag_421:\n        /* \"#utility.yul\":28049:28060   */\n      0x00\n        /* \"#utility.yul\":28086:28089   */\n      dup2\n        /* \"#utility.yul\":28071:28089   */\n      swap1\n      pop\n        /* \"#utility.yul\":27948:28095   */\n      swap3\n      swap2\n      pop\n      pop\n      jump\t// out\n        /* \"#utility.yul\":28101:28240   */\n    tag_422:\n        /* \"#utility.yul\":28190:28196   */\n      dup3\n        /* \"#utility.yul\":28185:28188   */\n      dup2\n        /* \"#utility.yul\":28180:28183   */\n      dup4\n        /* \"#utility.yul\":28174:28197   */\n      mcopy\n        /* \"#utility.yul\":28231:28232   */\n      0x00\n        /* \"#utility.yul\":28222:28228   */\n      dup4\n        /* \"#utility.yul\":28217:28220   */\n      dup4\n        /* \"#utility.yul\":28213:28229   */\n      add\n        /* \"#utility.yul\":28206:28233   */\n      mstore\n        /* \"#utility.yul\":28101:28240   */\n      pop\n      pop\n      pop\n      jump\t// out\n        /* \"#utility.yul\":28246:28632   */\n    tag_423:\n        /* \"#utility.yul\":28350:28353   */\n      0x00\n        /* \"#utility.yul\":28378:28416   */\n      tag_704\n        /* \"#utility.yul\":28410:28415   */\n      dup3\n        /* \"#utility.yul\":28378:28416   */\n      tag_420\n      jump\t// in\n    tag_704:\n        /* \"#utility.yul\":28432:28520   */\n      tag_705\n        /* \"#utility.yul\":28513:28519   */\n      dup2\n        /* \"#utility.yul\":28508:28511   */\n      dup6\n        /* \"#utility.yul\":28432:28520   */\n      tag_421\n      jump\t// in\n    tag_705:\n        /* \"#utility.yul\":28425:28520   */\n      swap4\n      pop\n        /* \"#utility.yul\":28529:28594   */\n      tag_706\n        /* \"#utility.yul\":28587:28593   */\n      dup2\n        /* \"#utility.yul\":28582:28585   */\n      dup6\n        /* \"#utility.yul\":28575:28579   */\n      0x20\n        /* \"#utility.yul\":28568:28573   */\n      dup7\n        /* \"#utility.yul\":28564:28580   */\n      add\n        /* \"#utility.yul\":28529:28594   */\n      tag_422\n      jump\t// in\n    tag_706:\n        /* \"#utility.yul\":28619:28625   */\n      dup1\n        /* \"#utility.yul\":28614:28617   */\n      dup5\n        /* \"#utility.yul\":28610:28626   */\n      add\n        /* \"#utility.yul\":28603:28626   */\n      swap2\n      pop\n        /* \"#utility.yul\":28354:28632   */\n      pop\n        /* \"#utility.yul\":28246:28632   */\n      swap3\n      swap2\n      pop\n      pop\n      jump\t// out\n        /* \"#utility.yul\":28638:28909   */\n    tag_332:\n        /* \"#utility.yul\":28768:28771   */\n      0x00\n        /* \"#utility.yul\":28790:28883   */\n      tag_708\n        /* \"#utility.yul\":28879:28882   */\n      dup3\n        /* \"#utility.yul\":28870:28876   */\n      dup5\n        /* \"#utility.yul\":28790:28883   */\n      tag_423\n      jump\t// in\n    tag_708:\n        /* \"#utility.yul\":28783:28883   */\n      swap2\n      pop\n        /* \"#utility.yul\":28900:28903   */\n      dup2\n        /* \"#utility.yul\":28893:28903   */\n      swap1\n      pop\n        /* \"#utility.yul\":28638:28909   */\n      swap3\n      swap2\n      pop\n      pop\n      jump\t// out\n        /* \"#utility.yul\":28915:29014   */\n    tag_424:\n        /* \"#utility.yul\":28967:28973   */\n      0x00\n        /* \"#utility.yul\":29001:29006   */\n      dup2\n        /* \"#utility.yul\":28995:29007   */\n      mload\n        /* \"#utility.yul\":28985:29007   */\n      swap1\n      pop\n        /* \"#utility.yul\":28915:29014   */\n      swap2\n      swap1\n      pop\n      jump\t// out\n        /* \"#utility.yul\":29020:29122   */\n    tag_425:\n        /* \"#utility.yul\":29061:29067   */\n      0x00\n        /* \"#utility.yul\":29112:29114   */\n      0x1f\n        /* \"#utility.yul\":29108:29115   */\n      not\n        /* \"#utility.yul\":29103:29105   */\n      0x1f\n        /* \"#utility.yul\":29096:29101   */\n      dup4\n        /* \"#utility.yul\":29092:29106   */\n      add\n        /* \"#utility.yul\":29088:29116   */\n      and\n        /* \"#utility.yul\":29078:29116   */\n      swap1\n      pop\n        /* \"#utility.yul\":29020:29122   */\n      swap2\n      swap1\n      pop\n      jump\t// out\n        /* \"#utility.yul\":29128:29505   */\n    tag_426:\n        /* \"#utility.yul\":29216:29219   */\n      0x00\n        /* \"#utility.yul\":29244:29283   */\n      tag_712\n        /* \"#utility.yul\":29277:29282   */\n      dup3\n        /* \"#utility.yul\":29244:29283   */\n      tag_424\n      jump\t// in\n    tag_712:\n        /* \"#utility.yul\":29299:29370   */\n      tag_713\n        /* \"#utility.yul\":29363:29369   */\n      dup2\n        /* \"#utility.yul\":29358:29361   */\n      dup6\n        /* \"#utility.yul\":29299:29370   */\n      tag_388\n      jump\t// in\n    tag_713:\n        /* \"#utility.yul\":29292:29370   */\n      swap4\n      pop\n        /* \"#utility.yul\":29379:29444   */\n      tag_714\n        /* \"#utility.yul\":29437:29443   */\n      dup2\n        /* \"#utility.yul\":29432:29435   */\n      dup6\n        /* \"#utility.yul\":29425:29429   */\n      0x20\n        /* \"#utility.yul\":29418:29423   */\n      dup7\n        /* \"#utility.yul\":29414:29430   */\n      add\n        /* \"#utility.yul\":29379:29444   */\n      tag_422\n      jump\t// in\n    tag_714:\n        /* \"#utility.yul\":29469:29498   */\n      tag_715\n        /* \"#utility.yul\":29491:29497   */\n      dup2\n        /* \"#utility.yul\":29469:29498   */\n      tag_425\n      jump\t// in\n    tag_715:\n        /* \"#utility.yul\":29464:29467   */\n      dup5\n        /* \"#utility.yul\":29460:29499   */\n      add\n        /* \"#utility.yul\":29453:29499   */\n      swap2\n      pop\n        /* \"#utility.yul\":29220:29505   */\n      pop\n        /* \"#utility.yul\":29128:29505   */\n      swap3\n      swap2\n      pop\n      pop\n      jump\t// out\n        /* \"#utility.yul\":29511:29824   */\n    tag_346:\n        /* \"#utility.yul\":29624:29628   */\n      0x00\n        /* \"#utility.yul\":29662:29664   */\n      0x20\n        /* \"#utility.yul\":29651:29660   */\n      dup3\n        /* \"#utility.yul\":29647:29665   */\n      add\n        /* \"#utility.yul\":29639:29665   */\n      swap1\n      pop\n        /* \"#utility.yul\":29711:29720   */\n      dup2\n        /* \"#utility.yul\":29705:29709   */\n      dup2\n        /* \"#utility.yul\":29701:29721   */\n      sub\n        /* \"#utility.yul\":29697:29698   */\n      0x00\n        /* \"#utility.yul\":29686:29695   */\n      dup4\n        /* \"#utility.yul\":29682:29699   */\n      add\n        /* \"#utility.yul\":29675:29722   */\n      mstore\n        /* \"#utility.yul\":29739:29817   */\n      tag_717\n        /* \"#utility.yul\":29812:29816   */\n      dup2\n        /* \"#utility.yul\":29803:29809   */\n      dup5\n        /* \"#utility.yul\":29739:29817   */\n      tag_426\n      jump\t// in\n    tag_717:\n        /* \"#utility.yul\":29731:29817   */\n      swap1\n      pop\n        /* \"#utility.yul\":29511:29824   */\n      swap3\n      swap2\n      pop\n      pop\n      jump\t// out\n    stop\n    data_ce700ee4acd3b3d438acd5e24e61d2ddf0314d8fedd036f609ee9ddd5a71b08b 536166654552433230203a206c6f77206c6576656c2063616c6c206661696c6564\n\n    auxdata: 0xa2646970667358221220a347d6edac116c578e625efd6891be39d689e26daaf54ef3b10eb02137c2636064736f6c634300081a0033\n}\n",
				"bytecode": {
					"linkReferences": {},
					"object": "6080604052348015600e575f80fd5b50613cd98061001c5f395ff3fe608060405234801561000f575f80fd5b5060043610610175575f3560e01c806383ba31b2116100dc578063be389d5711610095578063cf3090121161006f578063cf309012146104f4578063ecabdf7914610512578063f07b62be14610542578063fa45323d1461054c57610176565b8063be389d571461049c578063c89039c5146104b8578063ce606ee0146104d657610176565b806383ba31b2146103c45780638abf6077146103f65780639ac7e09e14610414578063a3546be414610432578063a87430ba1461044e578063b99a96711461048057610176565b806338d7822b1161012e57806338d7822b146102f05780634635fd681461030c5780634783c35b1461033c578063509222cd1461035a578063517999bc1461038a578063797eee24146103a857610176565b806307279e2a14610208578063184b95591461023857806327e235e31461025457806329c70400146102845780632a2d0c47146102a2578063348d4487146102d257610176565b5b5f80369050036101b0576101ab3360075f9054906101000a900473ffffffffffffffffffffffffffffffffffffffff1661057c565b610206565b610205336102005f368080601f0160208091040260200160405190810160405280939291908181526020018383808284375f81840152601f19601f82011690508083019250505050505050610a9e565b61057c565b5b005b610222600480360381019061021d9190612e5f565b610aab565b60405161022f9190612eb7565b60405180910390f35b610252600480360381019061024d9190612f0b565b610b16565b005b61026e60048036038101906102699190612f5b565b610f59565b60405161027b9190612f9e565b60405180910390f35b61028c610f6e565b6040516102999190612fc6565b60405180910390f35b6102bc60048036038101906102b79190613009565b610f81565b6040516102c99190613043565b60405180910390f35b6102da610fb1565b6040516102e79190612f9e565b60405180910390f35b61030a6004803603810190610305919061305c565b610fb7565b005b61032660048036038101906103219190613009565b611034565b6040516103339190613043565b60405180910390f35b610344611064565b6040516103519190613043565b60405180910390f35b610374600480360381019061036f9190612f5b565b611089565b6040516103819190612eb7565b60405180910390f35b6103926110d4565b60405161039f9190613043565b60405180910390f35b6103c260048036038101906103bd9190612f5b565b6110f9565b005b6103de60048036038101906103d99190612e5f565b611175565b6040516103ed93929190613151565b60405180910390f35b6103fe61133f565b60405161040b9190613043565b60405180910390f35b61041c611362565b6040516104299190612f9e565b60405180910390f35b61044c60048036038101906104479190612f5b565b611368565b005b61046860048036038101906104639190612f5b565b611640565b6040516104779392919061318d565b60405180910390f35b61049a600480360381019061049591906131c2565b611685565b005b6104b660048036038101906104b19190613212565b611704565b005b6104c0611782565b6040516104cd91906132ab565b60405180910390f35b6104de6117a7565b6040516104eb9190613043565b60405180910390f35b6104fc6117cc565b6040516105099190612eb7565b60405180910390f35b61052c600480360381019061052791906132c4565b6117de565b6040516105399190612f9e565b60405180910390f35b61054a6117f3565b005b61056660048036038101906105619190612e5f565b6118ac565b6040516105739190613043565b60405180910390f35b6105e4333060056004600b54610592919061331c565b61059c919061335d565b600a5f9054906101000a900473ffffffffffffffffffffffffffffffffffffffff1673ffffffffffffffffffffffffffffffffffffffff16611a50909392919063ffffffff16565b6105ed82611089565b1561062d576040517f08c379a0000000000000000000000000000000000000000000000000000000008152600401610624906133ea565b60405180910390fd5b61063681611089565b610675576040517f08c379a000000000000000000000000000000000000000000000000000000000815260040161066c90613452565b60405180910390fd5b5f823b90505f60025f8573ffffffffffffffffffffffffffffffffffffffff1673ffffffffffffffffffffffffffffffffffffffff1681526020019081526020015f209050600654815f018190555082816001015f6101000a81548173ffffffffffffffffffffffffffffffffffffffff021916908373ffffffffffffffffffffffffffffffffffffffff1602179055505f81600201819055508360035f60065481526020019081526020015f205f6101000a81548173ffffffffffffffffffffffffffffffffffffffff021916908373ffffffffffffffffffffffffffffffffffffffff1602179055508260025f8673ffffffffffffffffffffffffffffffffffffffff1673ffffffffffffffffffffffffffffffffffffffff1681526020019081526020015f206001015f6101000a81548173ffffffffffffffffffffffffffffffffffffffff021916908373ffffffffffffffffffffffffffffffffffffffff160217905550600160025f8673ffffffffffffffffffffffffffffffffffffffff1673ffffffffffffffffffffffffffffffffffffffff1681526020019081526020015f206003015f600160ff1681526020019081526020015f205f6101000a81548160ff0219169083151502179055508360045f60065481526020019081526020015f205f6101000a81548173ffffffffffffffffffffffffffffffffffffffff021916908373ffffffffffffffffffffffffffffffffffffffff16021790555060065f8154809291906108ac90613470565b919050555060025f8473ffffffffffffffffffffffffffffffffffffffff1673ffffffffffffffffffffffffffffffffffffffff1681526020019081526020015f206002015f81548092919061090190613470565b91905055505f6109128560016118ac565b90508060025f8773ffffffffffffffffffffffffffffffffffffffff1673ffffffffffffffffffffffffffffffffffffffff1681526020019081526020015f206004015f600160ff1681526020019081526020015f205f015f6101000a81548173ffffffffffffffffffffffffffffffffffffffff021916908373ffffffffffffffffffffffffffffffffffffffff1602179055506109b385826001611ad9565b60025f8673ffffffffffffffffffffffffffffffffffffffff1673ffffffffffffffffffffffffffffffffffffffff1681526020019081526020015f205f01548473ffffffffffffffffffffffffffffffffffffffff168673ffffffffffffffffffffffffffffffffffffffff167f309bb360e8b69c23937ccc5fb01f9aeeead1c95a99604e175113ff82f2b1723a60025f8973ffffffffffffffffffffffffffffffffffffffff1673ffffffffffffffffffffffffffffffffffffffff1681526020019081526020015f205f0154604051610a8f9190612f9e565b60405180910390a45050505050565b5f60148201519050919050565b5f60025f8473ffffffffffffffffffffffffffffffffffffffff1673ffffffffffffffffffffffffffffffffffffffff1681526020019081526020015f206003015f8360ff1660ff1681526020019081526020015f205f9054906101000a900460ff16905092915050565b60015f9054906101000a900473ffffffffffffffffffffffffffffffffffffffff1673ffffffffffffffffffffffffffffffffffffffff163373ffffffffffffffffffffffffffffffffffffffff1614610ba5576040517f08c379a0000000000000000000000000000000000000000000000000000000008152600401610b9c90613501565b60405180910390fd5b674563918244f40000600b81905550600c600160146101000a81548160ff021916908360ff160217905550600b5460095f600160ff1681526020019081526020015f20819055505f600290505b60088160ff1611610c5b57600260095f600184610c0f919061351f565b60ff1660ff1681526020019081526020015f2054610c2d919061331c565b60095f8360ff1660ff1681526020019081526020015f20819055508080610c5390613553565b915050610bf2565b506843c33c19375648000060095f600960ff1681526020019081526020015f208190555068878678326eac90000060095f600a60ff1681526020019081526020015f208190555069010f0cf064dd5920000060095f600b60ff1681526020019081526020015f2081905550690218ae196b8d4f30000060095f600c60ff1681526020019081526020015f20819055508260075f6101000a81548173ffffffffffffffffffffffffffffffffffffffff021916908373ffffffffffffffffffffffffffffffffffffffff1602179055505f60025f8573ffffffffffffffffffffffffffffffffffffffff1673ffffffffffffffffffffffffffffffffffffffff1681526020019081526020015f2090506001815f01819055505f816001015f6101000a81548173ffffffffffffffffffffffffffffffffffffffff021916908373ffffffffffffffffffffffffffffffffffffffff1602179055505f81600201819055508360035f600181526020019081526020015f205f6101000a81548173ffffffffffffffffffffffffffffffffffffffff021916908373ffffffffffffffffffffffffffffffffffffffff1602179055505f600190505b600160149054906101000a900460ff1660ff168160ff1611610eb057600160025f8773ffffffffffffffffffffffffffffffffffffffff1673ffffffffffffffffffffffffffffffffffffffff1681526020019081526020015f206003015f8360ff1660ff1681526020019081526020015f205f6101000a81548160ff0219169083151502179055508080610ea890613553565b915050610e14565b50600260068190555081600a5f6101000a81548173ffffffffffffffffffffffffffffffffffffffff021916908373ffffffffffffffffffffffffffffffffffffffff1602179055508260085f6101000a81548173ffffffffffffffffffffffffffffffffffffffff021916908373ffffffffffffffffffffffffffffffffffffffff1602179055506001600c5f6101000a81548160ff02191690831515021790555050505050565b6005602052805f5260405f205f915090505481565b600160149054906101000a900460ff1681565b6003602052805f5260405f205f915054906101000a900473ffffffffffffffffffffffffffffffffffffffff1681565b60065481565b600c5f9054906101000a900460ff16158061101e575060015f9054906101000a900473ffffffffffffffffffffffffffffffffffffffff1673ffffffffffffffffffffffffffffffffffffffff163373ffffffffffffffffffffffffffffffffffffffff16145b611026575f80fd5b611030828261057c565b5050565b6004602052805f5260405f205f915054906101000a900473ffffffffffffffffffffffffffffffffffffffff1681565b60085f9054906101000a900473ffffffffffffffffffffffffffffffffffffffff1681565b5f8060025f8473ffffffffffffffffffffffffffffffffffffffff1673ffffffffffffffffffffffffffffffffffffffff1681526020019081526020015f205f015414159050919050565b60075f9054906101000a900473ffffffffffffffffffffffffffffffffffffffff1681565b600c5f9054906101000a900460ff161580611160575060015f9054906101000a900473ffffffffffffffffffffffffffffffffffffffff1673ffffffffffffffffffffffffffffffffffffffff163373ffffffffffffffffffffffffffffffffffffffff16145b611168575f80fd5b611172338261057c565b50565b5f60605f60025f8673ffffffffffffffffffffffffffffffffffffffff1673ffffffffffffffffffffffffffffffffffffffff1681526020019081526020015f206004015f8560ff1660ff1681526020019081526020015f205f015f9054906101000a900473ffffffffffffffffffffffffffffffffffffffff1660025f8773ffffffffffffffffffffffffffffffffffffffff1673ffffffffffffffffffffffffffffffffffffffff1681526020019081526020015f206004015f8660ff1660ff1681526020019081526020015f2060010160025f8873ffffffffffffffffffffffffffffffffffffffff1673ffffffffffffffffffffffffffffffffffffffff1681526020019081526020015f206004015f8760ff1660ff1681526020019081526020015f206002015f9054906101000a900460ff168180548060200260200160405190810160405280929190818152602001828054801561132b57602002820191905f5260205f20905b815f9054906101000a900473ffffffffffffffffffffffffffffffffffffffff1673ffffffffffffffffffffffffffffffffffffffff16815260200190600101908083116112e2575b505050505091509250925092509250925092565b5f8054906101000a900473ffffffffffffffffffffffffffffffffffffffff1681565b600b5481565b60015f9054906101000a900473ffffffffffffffffffffffffffffffffffffffff1673ffffffffffffffffffffffffffffffffffffffff163373ffffffffffffffffffffffffffffffffffffffff16146113f7576040517f08c379a00000000000000000000000000000000000000000000000000000000081526004016113ee90613501565b60405180910390fd5b600a5f9054906101000a900473ffffffffffffffffffffffffffffffffffffffff1673ffffffffffffffffffffffffffffffffffffffff168173ffffffffffffffffffffffffffffffffffffffff1603611486576040517f08c379a000000000000000000000000000000000000000000000000000000000815260040161147d906135c5565b60405180910390fd5b5f73ffffffffffffffffffffffffffffffffffffffff168173ffffffffffffffffffffffffffffffffffffffff1603611528575f60085f9054906101000a900473ffffffffffffffffffffffffffffffffffffffff1690508073ffffffffffffffffffffffffffffffffffffffff166108fc4790811502906040515f60405180830381858888f19350505050158015611521573d5f803e3d5ffd5b505061163d565b8073ffffffffffffffffffffffffffffffffffffffff1663a9059cbb60085f9054906101000a900473ffffffffffffffffffffffffffffffffffffffff168373ffffffffffffffffffffffffffffffffffffffff166370a08231306040518263ffffffff1660e01b815260040161159f9190613043565b602060405180830381865afa1580156115ba573d5f803e3d5ffd5b505050506040513d601f19601f820116820180604052508101906115de91906135f7565b6040518363ffffffff1660e01b81526004016115fb929190613622565b6020604051808303815f875af1158015611617573d5f803e3d5ffd5b505050506040513d601f19601f8201168201806040525081019061163b9190613673565b505b50565b6002602052805f5260405f205f91509050805f015490806001015f9054906101000a900473ffffffffffffffffffffffffffffffffffffffff16908060020154905083565b600c5f9054906101000a900460ff1615806116ec575060015f9054906101000a900473ffffffffffffffffffffffffffffffffffffffff1673ffffffffffffffffffffffffffffffffffffffff163373ffffffffffffffffffffffffffffffffffffffff16145b6116f4575f80fd5b6116ff8383836122f0565b505050565b600c5f9054906101000a900460ff16158061176b575060015f9054906101000a900473ffffffffffffffffffffffffffffffffffffffff1673ffffffffffffffffffffffffffffffffffffffff163373ffffffffffffffffffffffffffffffffffffffff16145b611773575f80fd5b61177e3383836122f0565b5050565b600a5f9054906101000a900473ffffffffffffffffffffffffffffffffffffffff1681565b60015f9054906101000a900473ffffffffffffffffffffffffffffffffffffffff1681565b600c5f9054906101000a900460ff1681565b6009602052805f5260405f205f915090505481565b60015f9054906101000a900473ffffffffffffffffffffffffffffffffffffffff1673ffffffffffffffffffffffffffffffffffffffff163373ffffffffffffffffffffffffffffffffffffffff1614611882576040517f08c379a000000000000000000000000000000000000000000000000000000000815260040161187990613501565b60405180910390fd5b600c5f9054906101000a900460ff1615600c5f6101000a81548160ff021916908315150217905550565b5f5b600115611a495760025f60025f8673ffffffffffffffffffffffffffffffffffffffff1673ffffffffffffffffffffffffffffffffffffffff1681526020019081526020015f206001015f9054906101000a900473ffffffffffffffffffffffffffffffffffffffff1673ffffffffffffffffffffffffffffffffffffffff1673ffffffffffffffffffffffffffffffffffffffff1681526020019081526020015f206003015f8360ff1660ff1681526020019081526020015f205f9054906101000a900460ff16156119e25760025f8473ffffffffffffffffffffffffffffffffffffffff1673ffffffffffffffffffffffffffffffffffffffff1681526020019081526020015f206001015f9054906101000a900473ffffffffffffffffffffffffffffffffffffffff169050611a4a565b60025f8473ffffffffffffffffffffffffffffffffffffffff1673ffffffffffffffffffffffffffffffffffffffff1681526020019081526020015f206001015f9054906101000a900473ffffffffffffffffffffffffffffffffffffffff1692506118ae565b5b92915050565b611ad3846323b872dd60e01b858585604051602401611a719392919061369e565b604051602081830303815290604052907bffffffffffffffffffffffffffffffffffffffffffffffffffffffff19166020820180517bffffffffffffffffffffffffffffffffffffffffffffffffffffffff838183161783525050505061282d565b50505050565b60025f8373ffffffffffffffffffffffffffffffffffffffff1673ffffffffffffffffffffffffffffffffffffffff1681526020019081526020015f206004015f8260ff1660ff1681526020019081526020015f2060010183908060018154018082558091505060019003905f5260205f20015f9091909190916101000a81548173ffffffffffffffffffffffffffffffffffffffff021916908373ffffffffffffffffffffffffffffffffffffffff160217905550600360025f8473ffffffffffffffffffffffffffffffffffffffff1673ffffffffffffffffffffffffffffffffffffffff1681526020019081526020015f206004015f8360ff1660ff1681526020019081526020015f20600101805490501015611cca578173ffffffffffffffffffffffffffffffffffffffff168373ffffffffffffffffffffffffffffffffffffffff167f68062c5925c4317adf3a7095478d28b33fd8b41458bc7620b61bc46bf1b24d8260018460025f8873ffffffffffffffffffffffffffffffffffffffff1673ffffffffffffffffffffffffffffffffffffffff1681526020019081526020015f206004015f8760ff1660ff1681526020019081526020015f2060010180549050604051611cb09392919061370c565b60405180910390a3611cc582846001846128d5565b6122eb565b8173ffffffffffffffffffffffffffffffffffffffff168373ffffffffffffffffffffffffffffffffffffffff167f68062c5925c4317adf3a7095478d28b33fd8b41458bc7620b61bc46bf1b24d826001846003604051611d2d9392919061377a565b60405180910390a35f67ffffffffffffffff811115611d4f57611d4e6137af565b5b604051908082528060200260200182016040528015611d7d5781602001602082028036833780820191505090505b5060025f8473ffffffffffffffffffffffffffffffffffffffff1673ffffffffffffffffffffffffffffffffffffffff1681526020019081526020015f206004015f8360ff1660ff1681526020019081526020015f206001019080519060200190611de9929190612d29565b5060025f8373ffffffffffffffffffffffffffffffffffffffff1673ffffffffffffffffffffffffffffffffffffffff1681526020019081526020015f206003015f600183611e3891906137dc565b60ff1660ff1681526020019081526020015f205f9054906101000a900460ff16158015611e7a5750600160149054906101000a900460ff1660ff168160ff1614155b15611ef057600160025f8473ffffffffffffffffffffffffffffffffffffffff1673ffffffffffffffffffffffffffffffffffffffff1681526020019081526020015f206004015f8360ff1660ff1681526020019081526020015f206002015f6101000a81548160ff0219169083151502179055505b60075f9054906101000a900473ffffffffffffffffffffffffffffffffffffffff1673ffffffffffffffffffffffffffffffffffffffff168273ffffffffffffffffffffffffffffffffffffffff161461218d575f611f4f83836118ac565b90508073ffffffffffffffffffffffffffffffffffffffff1660025f8573ffffffffffffffffffffffffffffffffffffffff1673ffffffffffffffffffffffffffffffffffffffff1681526020019081526020015f206004015f8460ff1660ff1681526020019081526020015f205f015f9054906101000a900473ffffffffffffffffffffffffffffffffffffffff1673ffffffffffffffffffffffffffffffffffffffff1614612090578060025f8573ffffffffffffffffffffffffffffffffffffffff1673ffffffffffffffffffffffffffffffffffffffff1681526020019081526020015f206004015f8460ff1660ff1681526020019081526020015f205f015f6101000a81548173ffffffffffffffffffffffffffffffffffffffff021916908373ffffffffffffffffffffffffffffffffffffffff1602179055505b60025f8473ffffffffffffffffffffffffffffffffffffffff1673ffffffffffffffffffffffffffffffffffffffff1681526020019081526020015f206004015f8360ff1660ff1681526020019081526020015f206003015f8154809291906120f890613470565b91905055508373ffffffffffffffffffffffffffffffffffffffff168173ffffffffffffffffffffffffffffffffffffffff168473ffffffffffffffffffffffffffffffffffffffff167fa00c953eff38ec1b71e7fe060b2ab8df0bbe5354319fbdde4fbdafd6324386a6600186604051612174929190613810565b60405180910390a4612187838284611ad9565b506122ea565b6121bb60075f9054906101000a900473ffffffffffffffffffffffffffffffffffffffff16846001846128d5565b60025f60075f9054906101000a900473ffffffffffffffffffffffffffffffffffffffff1673ffffffffffffffffffffffffffffffffffffffff1673ffffffffffffffffffffffffffffffffffffffff1681526020019081526020015f206004015f8260ff1660ff1681526020019081526020015f206003015f81548092919061224490613470565b91905055508273ffffffffffffffffffffffffffffffffffffffff165f73ffffffffffffffffffffffffffffffffffffffff1660075f9054906101000a900473ffffffffffffffffffffffffffffffffffffffff1673ffffffffffffffffffffffffffffffffffffffff167fa00c953eff38ec1b71e7fe060b2ab8df0bbe5354319fbdde4fbdafd6324386a66001856040516122e1929190613810565b60405180910390a45b5b505050565b6122f983611089565b612338576040517f08c379a000000000000000000000000000000000000000000000000000000000815260040161232f906138a7565b60405180910390fd5b60018260ff16148061234d575060028260ff16145b61238c576040517f08c379a00000000000000000000000000000000000000000000000000000000081526004016123839061390f565b60405180910390fd5b6123f1333060095f8560ff1660ff1681526020019081526020015f2054600a5f9054906101000a900473ffffffffffffffffffffffffffffffffffffffff1673ffffffffffffffffffffffffffffffffffffffff16611a50909392919063ffffffff16565b60018160ff161180156124195750600160149054906101000a900460ff1660ff168160ff1611155b612458576040517f08c379a000000000000000000000000000000000000000000000000000000000815260040161244f90613977565b60405180910390fd5b60018260ff16036128285760025f8473ffffffffffffffffffffffffffffffffffffffff1673ffffffffffffffffffffffffffffffffffffffff1681526020019081526020015f206003015f6001836124b1919061351f565b60ff1660ff1681526020019081526020015f205f9054906101000a900460ff16612510576040517f08c379a0000000000000000000000000000000000000000000000000000000008152600401612507906139df565b60405180910390fd5b60025f8473ffffffffffffffffffffffffffffffffffffffff1673ffffffffffffffffffffffffffffffffffffffff1681526020019081526020015f206003015f8260ff1660ff1681526020019081526020015f205f9054906101000a900460ff16156125b2576040517f08c379a00000000000000000000000000000000000000000000000000000000081526004016125a990613a47565b60405180910390fd5b60025f8473ffffffffffffffffffffffffffffffffffffffff1673ffffffffffffffffffffffffffffffffffffffff1681526020019081526020015f206004015f600183612600919061351f565b60ff1660ff1681526020019081526020015f206002015f9054906101000a900460ff16156126a4575f60025f8573ffffffffffffffffffffffffffffffffffffffff1673ffffffffffffffffffffffffffffffffffffffff1681526020019081526020015f206004015f600184612677919061351f565b60ff1660ff1681526020019081526020015f206002015f6101000a81548160ff0219169083151502179055505b5f6126af84836118ac565b90508060025f8673ffffffffffffffffffffffffffffffffffffffff1673ffffffffffffffffffffffffffffffffffffffff1681526020019081526020015f206004015f8460ff1660ff1681526020019081526020015f205f015f6101000a81548173ffffffffffffffffffffffffffffffffffffffff021916908373ffffffffffffffffffffffffffffffffffffffff160217905550600160025f8673ffffffffffffffffffffffffffffffffffffffff1673ffffffffffffffffffffffffffffffffffffffff1681526020019081526020015f206003015f8460ff1660ff1681526020019081526020015f205f6101000a81548160ff0219169083151502179055506127be848284611ad9565b8073ffffffffffffffffffffffffffffffffffffffff168473ffffffffffffffffffffffffffffffffffffffff167f18a92df19fd94d6cfff209966673a5ca05a1c8e2bb68e097fce2bdc2ed81111960018560405161281e929190613810565b60405180910390a3505b505050565b5f61287182604051806060016040528060218152602001613c83602191398573ffffffffffffffffffffffffffffffffffffffff166129c09092919063ffffffff16565b90505f815111156128d057808060200190518101906128909190613673565b6128cf576040517f08c379a00000000000000000000000000000000000000000000000000000000081526004016128c690613ad5565b60405180910390fd5b5b505050565b5f806128e3868686866129d7565b9150915061294a8260095f8660ff1660ff1681526020019081526020015f2054600a5f9054906101000a900473ffffffffffffffffffffffffffffffffffffffff1673ffffffffffffffffffffffffffffffffffffffff16612b649092919063ffffffff16565b80156129b8578173ffffffffffffffffffffffffffffffffffffffff168573ffffffffffffffffffffffffffffffffffffffff167fcb6aa629ee1faeb728bc6cce262180355c663f2f7b0b56ac9d99d56c889bb29586866040516129af929190613af3565b60405180910390a35b505050505050565b60606129ce84845f85612bea565b90509392505050565b5f805f8690505f60018660ff1603612b58575b600115612b575760025f8373ffffffffffffffffffffffffffffffffffffffff1673ffffffffffffffffffffffffffffffffffffffff1681526020019081526020015f206004015f8660ff1660ff1681526020019081526020015f206002015f9054906101000a900460ff1615612b45578673ffffffffffffffffffffffffffffffffffffffff168273ffffffffffffffffffffffffffffffffffffffff167f07678b5e798b871147619c77c31d658def8f71fd554f6130ba85fe1bbae8d5bf600188604051612abb929190613810565b60405180910390a36001905060025f8373ffffffffffffffffffffffffffffffffffffffff1673ffffffffffffffffffffffffffffffffffffffff1681526020019081526020015f206004015f8660ff1660ff1681526020019081526020015f205f015f9054906101000a900473ffffffffffffffffffffffffffffffffffffffff169150612b52565b8181935093505050612b5b565b6129ea565b5b50505b94509492505050565b612be58363a9059cbb60e01b8484604051602401612b83929190613622565b604051602081830303815290604052907bffffffffffffffffffffffffffffffffffffffffffffffffffffffff19166020820180517bffffffffffffffffffffffffffffffffffffffffffffffffffffffff838183161783525050505061282d565b505050565b606082471015612c2f576040517f08c379a0000000000000000000000000000000000000000000000000000000008152600401612c2690613b8a565b60405180910390fd5b5f808673ffffffffffffffffffffffffffffffffffffffff168587604051612c579190613bfa565b5f6040518083038185875af1925050503d805f8114612c91576040519150601f19603f3d011682016040523d82523d5f602084013e612c96565b606091505b5091509150612ca6828286612cb2565b92505050949350505050565b60608315612cd3575f835103612cca57829050612d22565b82518084602001fd5b5f83511115612ce55782518084602001fd5b816040517f08c379a0000000000000000000000000000000000000000000000000000000008152600401612d199190613c62565b60405180910390fd5b9392505050565b828054828255905f5260205f20908101928215612d9f579160200282015b82811115612d9e578251825f6101000a81548173ffffffffffffffffffffffffffffffffffffffff021916908373ffffffffffffffffffffffffffffffffffffffff16021790555091602001919060010190612d47565b5b509050612dac9190612db0565b5090565b5b80821115612dc7575f815f905550600101612db1565b5090565b5f80fd5b5f73ffffffffffffffffffffffffffffffffffffffff82169050919050565b5f612df882612dcf565b9050919050565b612e0881612dee565b8114612e12575f80fd5b50565b5f81359050612e2381612dff565b92915050565b5f60ff82169050919050565b612e3e81612e29565b8114612e48575f80fd5b50565b5f81359050612e5981612e35565b92915050565b5f8060408385031215612e7557612e74612dcb565b5b5f612e8285828601612e15565b9250506020612e9385828601612e4b565b9150509250929050565b5f8115159050919050565b612eb181612e9d565b82525050565b5f602082019050612eca5f830184612ea8565b92915050565b5f612eda82612dee565b9050919050565b612eea81612ed0565b8114612ef4575f80fd5b50565b5f81359050612f0581612ee1565b92915050565b5f805f60608486031215612f2257612f21612dcb565b5b5f612f2f86828701612e15565b9350506020612f4086828701612e15565b9250506040612f5186828701612ef7565b9150509250925092565b5f60208284031215612f7057612f6f612dcb565b5b5f612f7d84828501612e15565b91505092915050565b5f819050919050565b612f9881612f86565b82525050565b5f602082019050612fb15f830184612f8f565b92915050565b612fc081612e29565b82525050565b5f602082019050612fd95f830184612fb7565b92915050565b612fe881612f86565b8114612ff2575f80fd5b50565b5f8135905061300381612fdf565b92915050565b5f6020828403121561301e5761301d612dcb565b5b5f61302b84828501612ff5565b91505092915050565b61303d81612dee565b82525050565b5f6020820190506130565f830184613034565b92915050565b5f806040838503121561307257613071612dcb565b5b5f61307f85828601612e15565b925050602061309085828601612e15565b9150509250929050565b5f81519050919050565b5f82825260208201905092915050565b5f819050602082019050919050565b6130cc81612dee565b82525050565b5f6130dd83836130c3565b60208301905092915050565b5f602082019050919050565b5f6130ff8261309a565b61310981856130a4565b9350613114836130b4565b805f5b8381101561314457815161312b88826130d2565b9750613136836130e9565b925050600181019050613117565b5085935050505092915050565b5f6060820190506131645f830186613034565b818103602083015261317681856130f5565b90506131856040830184612ea8565b949350505050565b5f6060820190506131a05f830186612f8f565b6131ad6020830185613034565b6131ba6040830184612f8f565b949350505050565b5f805f606084860312156131d9576131d8612dcb565b5b5f6131e686828701612e15565b93505060206131f786828701612e4b565b925050604061320886828701612e4b565b9150509250925092565b5f806040838503121561322857613227612dcb565b5b5f61323585828601612e4b565b925050602061324685828601612e4b565b9150509250929050565b5f819050919050565b5f61327361326e61326984612dcf565b613250565b612dcf565b9050919050565b5f61328482613259565b9050919050565b5f6132958261327a565b9050919050565b6132a58161328b565b82525050565b5f6020820190506132be5f83018461329c565b92915050565b5f602082840312156132d9576132d8612dcb565b5b5f6132e684828501612e4b565b91505092915050565b7f4e487b71000000000000000000000000000000000000000000000000000000005f52601160045260245ffd5b5f61332682612f86565b915061333183612f86565b925082820261333f81612f86565b91508282048414831517613356576133556132ef565b5b5092915050565b5f61336782612f86565b915061337283612f86565b925082820190508082111561338a576133896132ef565b5b92915050565b5f82825260208201905092915050565b7f75736572206578697374730000000000000000000000000000000000000000005f82015250565b5f6133d4600b83613390565b91506133df826133a0565b602082019050919050565b5f6020820190508181035f830152613401816133c8565b9050919050565b7f7265666572726572206e6f7420657869737473000000000000000000000000005f82015250565b5f61343c601383613390565b915061344782613408565b602082019050919050565b5f6020820190508181035f83015261346981613430565b9050919050565b5f61347a82612f86565b91507fffffffffffffffffffffffffffffffffffffffffffffffffffffffffffffffff82036134ac576134ab6132ef565b5b600182019050919050565b7f6f6e6c794f776e657200000000000000000000000000000000000000000000005f82015250565b5f6134eb600983613390565b91506134f6826134b7565b602082019050919050565b5f6020820190508181035f830152613518816134df565b9050919050565b5f61352982612e29565b915061353483612e29565b9250828203905060ff81111561354d5761354c6132ef565b5b92915050565b5f61355d82612e29565b915060ff82036135705761356f6132ef565b5b600182019050919050565b7f63616e6e6f74207769746864726177206465706f73697420746f6b656e0000005f82015250565b5f6135af601d83613390565b91506135ba8261357b565b602082019050919050565b5f6020820190508181035f8301526135dc816135a3565b9050919050565b5f815190506135f181612fdf565b92915050565b5f6020828403121561360c5761360b612dcb565b5b5f613619848285016135e3565b91505092915050565b5f6040820190506136355f830185613034565b6136426020830184612f8f565b9392505050565b61365281612e9d565b811461365c575f80fd5b50565b5f8151905061366d81613649565b92915050565b5f6020828403121561368857613687612dcb565b5b5f6136958482850161365f565b91505092915050565b5f6060820190506136b15f830186613034565b6136be6020830185613034565b6136cb6040830184612f8f565b949350505050565b5f819050919050565b5f6136f66136f16136ec846136d3565b613250565b612e29565b9050919050565b613706816136dc565b82525050565b5f60608201905061371f5f8301866136fd565b61372c6020830185612fb7565b6137396040830184612fb7565b949350505050565b5f819050919050565b5f61376461375f61375a84613741565b613250565b612e29565b9050919050565b6137748161374a565b82525050565b5f60608201905061378d5f8301866136fd565b61379a6020830185612fb7565b6137a7604083018461376b565b949350505050565b7f4e487b71000000000000000000000000000000000000000000000000000000005f52604160045260245ffd5b5f6137e682612e29565b91506137f183612e29565b9250828201905060ff81111561380a576138096132ef565b5b92915050565b5f6040820190506138235f8301856136fd565b6138306020830184612fb7565b9392505050565b7f75736572206973206e6f74206578697374732e205265676973746572206669725f8201527f73742e0000000000000000000000000000000000000000000000000000000000602082015250565b5f613891602383613390565b915061389c82613837565b604082019050919050565b5f6020820190508181035f8301526138be81613885565b9050919050565b7f696e76616c6964206d61747269780000000000000000000000000000000000005f82015250565b5f6138f9600e83613390565b9150613904826138c5565b602082019050919050565b5f6020820190508181035f830152613926816138ed565b9050919050565b7f696e76616c6964206c6576656c000000000000000000000000000000000000005f82015250565b5f613961600d83613390565b915061396c8261392d565b602082019050919050565b5f6020820190508181035f83015261398e81613955565b9050919050565b7f6275792070726576696f7573206c6576656c20666972737400000000000000005f82015250565b5f6139c9601883613390565b91506139d482613995565b602082019050919050565b5f6020820190508181035f8301526139f6816139bd565b9050919050565b7f6c6576656c20616c7265616479206163746976617465640000000000000000005f82015250565b5f613a31601783613390565b9150613a3c826139fd565b602082019050919050565b5f6020820190508181035f830152613a5e81613a25565b9050919050565b7f536166654552433230203a204552433230206f7065726174696f6e20646964205f8201527f6e6f742073756363656564000000000000000000000000000000000000000000602082015250565b5f613abf602b83613390565b9150613aca82613a65565b604082019050919050565b5f6020820190508181035f830152613aec81613ab3565b9050919050565b5f604082019050613b065f830185612fb7565b613b136020830184612fb7565b9392505050565b7f41646472657373203a20696e73756666696369656e742062616c616e636520665f8201527f6f722063616c6c00000000000000000000000000000000000000000000000000602082015250565b5f613b74602783613390565b9150613b7f82613b1a565b604082019050919050565b5f6020820190508181035f830152613ba181613b68565b9050919050565b5f81519050919050565b5f81905092915050565b8281835e5f83830152505050565b5f613bd482613ba8565b613bde8185613bb2565b9350613bee818560208601613bbc565b80840191505092915050565b5f613c058284613bca565b915081905092915050565b5f81519050919050565b5f601f19601f8301169050919050565b5f613c3482613c10565b613c3e8185613390565b9350613c4e818560208601613bbc565b613c5781613c1a565b840191505092915050565b5f6020820190508181035f830152613c7a8184613c2a565b90509291505056fe536166654552433230203a206c6f77206c6576656c2063616c6c206661696c6564a2646970667358221220a347d6edac116c578e625efd6891be39d689e26daaf54ef3b10eb02137c2636064736f6c634300081a0033",
					"opcodes": "PUSH1 0x80 PUSH1 0x40 MSTORE CALLVALUE DUP1 ISZERO PUSH1 0xE JUMPI PUSH0 DUP1 REVERT JUMPDEST POP PUSH2 0x3CD9 DUP1 PUSH2 0x1C PUSH0 CODECOPY PUSH0 RETURN INVALID PUSH1 0x80 PUSH1 0x40 MSTORE CALLVALUE DUP1 ISZERO PUSH2 0xF JUMPI PUSH0 DUP1 REVERT JUMPDEST POP PUSH1 0x4 CALLDATASIZE LT PUSH2 0x175 JUMPI PUSH0 CALLDATALOAD PUSH1 0xE0 SHR DUP1 PUSH4 0x83BA31B2 GT PUSH2 0xDC JUMPI DUP1 PUSH4 0xBE389D57 GT PUSH2 0x95 JUMPI DUP1 PUSH4 0xCF309012 GT PUSH2 0x6F JUMPI DUP1 PUSH4 0xCF309012 EQ PUSH2 0x4F4 JUMPI DUP1 PUSH4 0xECABDF79 EQ PUSH2 0x512 JUMPI DUP1 PUSH4 0xF07B62BE EQ PUSH2 0x542 JUMPI DUP1 PUSH4 0xFA45323D EQ PUSH2 0x54C JUMPI PUSH2 0x176 JUMP JUMPDEST DUP1 PUSH4 0xBE389D57 EQ PUSH2 0x49C JUMPI DUP1 PUSH4 0xC89039C5 EQ PUSH2 0x4B8 JUMPI DUP1 PUSH4 0xCE606EE0 EQ PUSH2 0x4D6 JUMPI PUSH2 0x176 JUMP JUMPDEST DUP1 PUSH4 0x83BA31B2 EQ PUSH2 0x3C4 JUMPI DUP1 PUSH4 0x8ABF6077 EQ PUSH2 0x3F6 JUMPI DUP1 PUSH4 0x9AC7E09E EQ PUSH2 0x414 JUMPI DUP1 PUSH4 0xA3546BE4 EQ PUSH2 0x432 JUMPI DUP1 PUSH4 0xA87430BA EQ PUSH2 0x44E JUMPI DUP1 PUSH4 0xB99A9671 EQ PUSH2 0x480 JUMPI PUSH2 0x176 JUMP JUMPDEST DUP1 PUSH4 0x38D7822B GT PUSH2 0x12E JUMPI DUP1 PUSH4 0x38D7822B EQ PUSH2 0x2F0 JUMPI DUP1 PUSH4 0x4635FD68 EQ PUSH2 0x30C JUMPI DUP1 PUSH4 0x4783C35B EQ PUSH2 0x33C JUMPI DUP1 PUSH4 0x509222CD EQ PUSH2 0x35A JUMPI DUP1 PUSH4 0x517999BC EQ PUSH2 0x38A JUMPI DUP1 PUSH4 0x797EEE24 EQ PUSH2 0x3A8 JUMPI PUSH2 0x176 JUMP JUMPDEST DUP1 PUSH4 0x7279E2A EQ PUSH2 0x208 JUMPI DUP1 PUSH4 0x184B9559 EQ PUSH2 0x238 JUMPI DUP1 PUSH4 0x27E235E3 EQ PUSH2 0x254 JUMPI DUP1 PUSH4 0x29C70400 EQ PUSH2 0x284 JUMPI DUP1 PUSH4 0x2A2D0C47 EQ PUSH2 0x2A2 JUMPI DUP1 PUSH4 0x348D4487 EQ PUSH2 0x2D2 JUMPI PUSH2 0x176 JUMP JUMPDEST JUMPDEST PUSH0 DUP1 CALLDATASIZE SWAP1 POP SUB PUSH2 0x1B0 JUMPI PUSH2 0x1AB CALLER PUSH1 0x7 PUSH0 SWAP1 SLOAD SWAP1 PUSH2 0x100 EXP SWAP1 DIV PUSH20 0xFFFFFFFFFFFFFFFFFFFFFFFFFFFFFFFFFFFFFFFF AND PUSH2 0x57C JUMP JUMPDEST PUSH2 0x206 JUMP JUMPDEST PUSH2 0x205 CALLER PUSH2 0x200 PUSH0 CALLDATASIZE DUP1 DUP1 PUSH1 0x1F ADD PUSH1 0x20 DUP1 SWAP2 DIV MUL PUSH1 0x20 ADD PUSH1 0x40 MLOAD SWAP1 DUP2 ADD PUSH1 0x40 MSTORE DUP1 SWAP4 SWAP3 SWAP2 SWAP1 DUP2 DUP2 MSTORE PUSH1 0x20 ADD DUP4 DUP4 DUP1 DUP3 DUP5 CALLDATACOPY PUSH0 DUP2 DUP5 ADD MSTORE PUSH1 0x1F NOT PUSH1 0x1F DUP3 ADD AND SWAP1 POP DUP1 DUP4 ADD SWAP3 POP POP POP POP POP POP POP PUSH2 0xA9E JUMP JUMPDEST PUSH2 0x57C JUMP JUMPDEST JUMPDEST STOP JUMPDEST PUSH2 0x222 PUSH1 0x4 DUP1 CALLDATASIZE SUB DUP2 ADD SWAP1 PUSH2 0x21D SWAP2 SWAP1 PUSH2 0x2E5F JUMP JUMPDEST PUSH2 0xAAB JUMP JUMPDEST PUSH1 0x40 MLOAD PUSH2 0x22F SWAP2 SWAP1 PUSH2 0x2EB7 JUMP JUMPDEST PUSH1 0x40 MLOAD DUP1 SWAP2 SUB SWAP1 RETURN JUMPDEST PUSH2 0x252 PUSH1 0x4 DUP1 CALLDATASIZE SUB DUP2 ADD SWAP1 PUSH2 0x24D SWAP2 SWAP1 PUSH2 0x2F0B JUMP JUMPDEST PUSH2 0xB16 JUMP JUMPDEST STOP JUMPDEST PUSH2 0x26E PUSH1 0x4 DUP1 CALLDATASIZE SUB DUP2 ADD SWAP1 PUSH2 0x269 SWAP2 SWAP1 PUSH2 0x2F5B JUMP JUMPDEST PUSH2 0xF59 JUMP JUMPDEST PUSH1 0x40 MLOAD PUSH2 0x27B SWAP2 SWAP1 PUSH2 0x2F9E JUMP JUMPDEST PUSH1 0x40 MLOAD DUP1 SWAP2 SUB SWAP1 RETURN JUMPDEST PUSH2 0x28C PUSH2 0xF6E JUMP JUMPDEST PUSH1 0x40 MLOAD PUSH2 0x299 SWAP2 SWAP1 PUSH2 0x2FC6 JUMP JUMPDEST PUSH1 0x40 MLOAD DUP1 SWAP2 SUB SWAP1 RETURN JUMPDEST PUSH2 0x2BC PUSH1 0x4 DUP1 CALLDATASIZE SUB DUP2 ADD SWAP1 PUSH2 0x2B7 SWAP2 SWAP1 PUSH2 0x3009 JUMP JUMPDEST PUSH2 0xF81 JUMP JUMPDEST PUSH1 0x40 MLOAD PUSH2 0x2C9 SWAP2 SWAP1 PUSH2 0x3043 JUMP JUMPDEST PUSH1 0x40 MLOAD DUP1 SWAP2 SUB SWAP1 RETURN JUMPDEST PUSH2 0x2DA PUSH2 0xFB1 JUMP JUMPDEST PUSH1 0x40 MLOAD PUSH2 0x2E7 SWAP2 SWAP1 PUSH2 0x2F9E JUMP JUMPDEST PUSH1 0x40 MLOAD DUP1 SWAP2 SUB SWAP1 RETURN JUMPDEST PUSH2 0x30A PUSH1 0x4 DUP1 CALLDATASIZE SUB DUP2 ADD SWAP1 PUSH2 0x305 SWAP2 SWAP1 PUSH2 0x305C JUMP JUMPDEST PUSH2 0xFB7 JUMP JUMPDEST STOP JUMPDEST PUSH2 0x326 PUSH1 0x4 DUP1 CALLDATASIZE SUB DUP2 ADD SWAP1 PUSH2 0x321 SWAP2 SWAP1 PUSH2 0x3009 JUMP JUMPDEST PUSH2 0x1034 JUMP JUMPDEST PUSH1 0x40 MLOAD PUSH2 0x333 SWAP2 SWAP1 PUSH2 0x3043 JUMP JUMPDEST PUSH1 0x40 MLOAD DUP1 SWAP2 SUB SWAP1 RETURN JUMPDEST PUSH2 0x344 PUSH2 0x1064 JUMP JUMPDEST PUSH1 0x40 MLOAD PUSH2 0x351 SWAP2 SWAP1 PUSH2 0x3043 JUMP JUMPDEST PUSH1 0x40 MLOAD DUP1 SWAP2 SUB SWAP1 RETURN JUMPDEST PUSH2 0x374 PUSH1 0x4 DUP1 CALLDATASIZE SUB DUP2 ADD SWAP1 PUSH2 0x36F SWAP2 SWAP1 PUSH2 0x2F5B JUMP JUMPDEST PUSH2 0x1089 JUMP JUMPDEST PUSH1 0x40 MLOAD PUSH2 0x381 SWAP2 SWAP1 PUSH2 0x2EB7 JUMP JUMPDEST PUSH1 0x40 MLOAD DUP1 SWAP2 SUB SWAP1 RETURN JUMPDEST PUSH2 0x392 PUSH2 0x10D4 JUMP JUMPDEST PUSH1 0x40 MLOAD PUSH2 0x39F SWAP2 SWAP1 PUSH2 0x3043 JUMP JUMPDEST PUSH1 0x40 MLOAD DUP1 SWAP2 SUB SWAP1 RETURN JUMPDEST PUSH2 0x3C2 PUSH1 0x4 DUP1 CALLDATASIZE SUB DUP2 ADD SWAP1 PUSH2 0x3BD SWAP2 SWAP1 PUSH2 0x2F5B JUMP JUMPDEST PUSH2 0x10F9 JUMP JUMPDEST STOP JUMPDEST PUSH2 0x3DE PUSH1 0x4 DUP1 CALLDATASIZE SUB DUP2 ADD SWAP1 PUSH2 0x3D9 SWAP2 SWAP1 PUSH2 0x2E5F JUMP JUMPDEST PUSH2 0x1175 JUMP JUMPDEST PUSH1 0x40 MLOAD PUSH2 0x3ED SWAP4 SWAP3 SWAP2 SWAP1 PUSH2 0x3151 JUMP JUMPDEST PUSH1 0x40 MLOAD DUP1 SWAP2 SUB SWAP1 RETURN JUMPDEST PUSH2 0x3FE PUSH2 0x133F JUMP JUMPDEST PUSH1 0x40 MLOAD PUSH2 0x40B SWAP2 SWAP1 PUSH2 0x3043 JUMP JUMPDEST PUSH1 0x40 MLOAD DUP1 SWAP2 SUB SWAP1 RETURN JUMPDEST PUSH2 0x41C PUSH2 0x1362 JUMP JUMPDEST PUSH1 0x40 MLOAD PUSH2 0x429 SWAP2 SWAP1 PUSH2 0x2F9E JUMP JUMPDEST PUSH1 0x40 MLOAD DUP1 SWAP2 SUB SWAP1 RETURN JUMPDEST PUSH2 0x44C PUSH1 0x4 DUP1 CALLDATASIZE SUB DUP2 ADD SWAP1 PUSH2 0x447 SWAP2 SWAP1 PUSH2 0x2F5B JUMP JUMPDEST PUSH2 0x1368 JUMP JUMPDEST STOP JUMPDEST PUSH2 0x468 PUSH1 0x4 DUP1 CALLDATASIZE SUB DUP2 ADD SWAP1 PUSH2 0x463 SWAP2 SWAP1 PUSH2 0x2F5B JUMP JUMPDEST PUSH2 0x1640 JUMP JUMPDEST PUSH1 0x40 MLOAD PUSH2 0x477 SWAP4 SWAP3 SWAP2 SWAP1 PUSH2 0x318D JUMP JUMPDEST PUSH1 0x40 MLOAD DUP1 SWAP2 SUB SWAP1 RETURN JUMPDEST PUSH2 0x49A PUSH1 0x4 DUP1 CALLDATASIZE SUB DUP2 ADD SWAP1 PUSH2 0x495 SWAP2 SWAP1 PUSH2 0x31C2 JUMP JUMPDEST PUSH2 0x1685 JUMP JUMPDEST STOP JUMPDEST PUSH2 0x4B6 PUSH1 0x4 DUP1 CALLDATASIZE SUB DUP2 ADD SWAP1 PUSH2 0x4B1 SWAP2 SWAP1 PUSH2 0x3212 JUMP JUMPDEST PUSH2 0x1704 JUMP JUMPDEST STOP JUMPDEST PUSH2 0x4C0 PUSH2 0x1782 JUMP JUMPDEST PUSH1 0x40 MLOAD PUSH2 0x4CD SWAP2 SWAP1 PUSH2 0x32AB JUMP JUMPDEST PUSH1 0x40 MLOAD DUP1 SWAP2 SUB SWAP1 RETURN JUMPDEST PUSH2 0x4DE PUSH2 0x17A7 JUMP JUMPDEST PUSH1 0x40 MLOAD PUSH2 0x4EB SWAP2 SWAP1 PUSH2 0x3043 JUMP JUMPDEST PUSH1 0x40 MLOAD DUP1 SWAP2 SUB SWAP1 RETURN JUMPDEST PUSH2 0x4FC PUSH2 0x17CC JUMP JUMPDEST PUSH1 0x40 MLOAD PUSH2 0x509 SWAP2 SWAP1 PUSH2 0x2EB7 JUMP JUMPDEST PUSH1 0x40 MLOAD DUP1 SWAP2 SUB SWAP1 RETURN JUMPDEST PUSH2 0x52C PUSH1 0x4 DUP1 CALLDATASIZE SUB DUP2 ADD SWAP1 PUSH2 0x527 SWAP2 SWAP1 PUSH2 0x32C4 JUMP JUMPDEST PUSH2 0x17DE JUMP JUMPDEST PUSH1 0x40 MLOAD PUSH2 0x539 SWAP2 SWAP1 PUSH2 0x2F9E JUMP JUMPDEST PUSH1 0x40 MLOAD DUP1 SWAP2 SUB SWAP1 RETURN JUMPDEST PUSH2 0x54A PUSH2 0x17F3 JUMP JUMPDEST STOP JUMPDEST PUSH2 0x566 PUSH1 0x4 DUP1 CALLDATASIZE SUB DUP2 ADD SWAP1 PUSH2 0x561 SWAP2 SWAP1 PUSH2 0x2E5F JUMP JUMPDEST PUSH2 0x18AC JUMP JUMPDEST PUSH1 0x40 MLOAD PUSH2 0x573 SWAP2 SWAP1 PUSH2 0x3043 JUMP JUMPDEST PUSH1 0x40 MLOAD DUP1 SWAP2 SUB SWAP1 RETURN JUMPDEST PUSH2 0x5E4 CALLER ADDRESS PUSH1 0x5 PUSH1 0x4 PUSH1 0xB SLOAD PUSH2 0x592 SWAP2 SWAP1 PUSH2 0x331C JUMP JUMPDEST PUSH2 0x59C SWAP2 SWAP1 PUSH2 0x335D JUMP JUMPDEST PUSH1 0xA PUSH0 SWAP1 SLOAD SWAP1 PUSH2 0x100 EXP SWAP1 DIV PUSH20 0xFFFFFFFFFFFFFFFFFFFFFFFFFFFFFFFFFFFFFFFF AND PUSH20 0xFFFFFFFFFFFFFFFFFFFFFFFFFFFFFFFFFFFFFFFF AND PUSH2 0x1A50 SWAP1 SWAP4 SWAP3 SWAP2 SWAP1 PUSH4 0xFFFFFFFF AND JUMP JUMPDEST PUSH2 0x5ED DUP3 PUSH2 0x1089 JUMP JUMPDEST ISZERO PUSH2 0x62D JUMPI PUSH1 0x40 MLOAD PUSH32 0x8C379A000000000000000000000000000000000000000000000000000000000 DUP2 MSTORE PUSH1 0x4 ADD PUSH2 0x624 SWAP1 PUSH2 0x33EA JUMP JUMPDEST PUSH1 0x40 MLOAD DUP1 SWAP2 SUB SWAP1 REVERT JUMPDEST PUSH2 0x636 DUP2 PUSH2 0x1089 JUMP JUMPDEST PUSH2 0x675 JUMPI PUSH1 0x40 MLOAD PUSH32 0x8C379A000000000000000000000000000000000000000000000000000000000 DUP2 MSTORE PUSH1 0x4 ADD PUSH2 0x66C SWAP1 PUSH2 0x3452 JUMP JUMPDEST PUSH1 0x40 MLOAD DUP1 SWAP2 SUB SWAP1 REVERT JUMPDEST PUSH0 DUP3 EXTCODESIZE SWAP1 POP PUSH0 PUSH1 0x2 PUSH0 DUP6 PUSH20 0xFFFFFFFFFFFFFFFFFFFFFFFFFFFFFFFFFFFFFFFF AND PUSH20 0xFFFFFFFFFFFFFFFFFFFFFFFFFFFFFFFFFFFFFFFF AND DUP2 MSTORE PUSH1 0x20 ADD SWAP1 DUP2 MSTORE PUSH1 0x20 ADD PUSH0 KECCAK256 SWAP1 POP PUSH1 0x6 SLOAD DUP2 PUSH0 ADD DUP2 SWAP1 SSTORE POP DUP3 DUP2 PUSH1 0x1 ADD PUSH0 PUSH2 0x100 EXP DUP2 SLOAD DUP2 PUSH20 0xFFFFFFFFFFFFFFFFFFFFFFFFFFFFFFFFFFFFFFFF MUL NOT AND SWAP1 DUP4 PUSH20 0xFFFFFFFFFFFFFFFFFFFFFFFFFFFFFFFFFFFFFFFF AND MUL OR SWAP1 SSTORE POP PUSH0 DUP2 PUSH1 0x2 ADD DUP2 SWAP1 SSTORE POP DUP4 PUSH1 0x3 PUSH0 PUSH1 0x6 SLOAD DUP2 MSTORE PUSH1 0x20 ADD SWAP1 DUP2 MSTORE PUSH1 0x20 ADD PUSH0 KECCAK256 PUSH0 PUSH2 0x100 EXP DUP2 SLOAD DUP2 PUSH20 0xFFFFFFFFFFFFFFFFFFFFFFFFFFFFFFFFFFFFFFFF MUL NOT AND SWAP1 DUP4 PUSH20 0xFFFFFFFFFFFFFFFFFFFFFFFFFFFFFFFFFFFFFFFF AND MUL OR SWAP1 SSTORE POP DUP3 PUSH1 0x2 PUSH0 DUP7 PUSH20 0xFFFFFFFFFFFFFFFFFFFFFFFFFFFFFFFFFFFFFFFF AND PUSH20 0xFFFFFFFFFFFFFFFFFFFFFFFFFFFFFFFFFFFFFFFF AND DUP2 MSTORE PUSH1 0x20 ADD SWAP1 DUP2 MSTORE PUSH1 0x20 ADD PUSH0 KECCAK256 PUSH1 0x1 ADD PUSH0 PUSH2 0x100 EXP DUP2 SLOAD DUP2 PUSH20 0xFFFFFFFFFFFFFFFFFFFFFFFFFFFFFFFFFFFFFFFF MUL NOT AND SWAP1 DUP4 PUSH20 0xFFFFFFFFFFFFFFFFFFFFFFFFFFFFFFFFFFFFFFFF AND MUL OR SWAP1 SSTORE POP PUSH1 0x1 PUSH1 0x2 PUSH0 DUP7 PUSH20 0xFFFFFFFFFFFFFFFFFFFFFFFFFFFFFFFFFFFFFFFF AND PUSH20 0xFFFFFFFFFFFFFFFFFFFFFFFFFFFFFFFFFFFFFFFF AND DUP2 MSTORE PUSH1 0x20 ADD SWAP1 DUP2 MSTORE PUSH1 0x20 ADD PUSH0 KECCAK256 PUSH1 0x3 ADD PUSH0 PUSH1 0x1 PUSH1 0xFF AND DUP2 MSTORE PUSH1 0x20 ADD SWAP1 DUP2 MSTORE PUSH1 0x20 ADD PUSH0 KECCAK256 PUSH0 PUSH2 0x100 EXP DUP2 SLOAD DUP2 PUSH1 0xFF MUL NOT AND SWAP1 DUP4 ISZERO ISZERO MUL OR SWAP1 SSTORE POP DUP4 PUSH1 0x4 PUSH0 PUSH1 0x6 SLOAD DUP2 MSTORE PUSH1 0x20 ADD SWAP1 DUP2 MSTORE PUSH1 0x20 ADD PUSH0 KECCAK256 PUSH0 PUSH2 0x100 EXP DUP2 SLOAD DUP2 PUSH20 0xFFFFFFFFFFFFFFFFFFFFFFFFFFFFFFFFFFFFFFFF MUL NOT AND SWAP1 DUP4 PUSH20 0xFFFFFFFFFFFFFFFFFFFFFFFFFFFFFFFFFFFFFFFF AND MUL OR SWAP1 SSTORE POP PUSH1 0x6 PUSH0 DUP2 SLOAD DUP1 SWAP3 SWAP2 SWAP1 PUSH2 0x8AC SWAP1 PUSH2 0x3470 JUMP JUMPDEST SWAP2 SWAP1 POP SSTORE POP PUSH1 0x2 PUSH0 DUP5 PUSH20 0xFFFFFFFFFFFFFFFFFFFFFFFFFFFFFFFFFFFFFFFF AND PUSH20 0xFFFFFFFFFFFFFFFFFFFFFFFFFFFFFFFFFFFFFFFF AND DUP2 MSTORE PUSH1 0x20 ADD SWAP1 DUP2 MSTORE PUSH1 0x20 ADD PUSH0 KECCAK256 PUSH1 0x2 ADD PUSH0 DUP2 SLOAD DUP1 SWAP3 SWAP2 SWAP1 PUSH2 0x901 SWAP1 PUSH2 0x3470 JUMP JUMPDEST SWAP2 SWAP1 POP SSTORE POP PUSH0 PUSH2 0x912 DUP6 PUSH1 0x1 PUSH2 0x18AC JUMP JUMPDEST SWAP1 POP DUP1 PUSH1 0x2 PUSH0 DUP8 PUSH20 0xFFFFFFFFFFFFFFFFFFFFFFFFFFFFFFFFFFFFFFFF AND PUSH20 0xFFFFFFFFFFFFFFFFFFFFFFFFFFFFFFFFFFFFFFFF AND DUP2 MSTORE PUSH1 0x20 ADD SWAP1 DUP2 MSTORE PUSH1 0x20 ADD PUSH0 KECCAK256 PUSH1 0x4 ADD PUSH0 PUSH1 0x1 PUSH1 0xFF AND DUP2 MSTORE PUSH1 0x20 ADD SWAP1 DUP2 MSTORE PUSH1 0x20 ADD PUSH0 KECCAK256 PUSH0 ADD PUSH0 PUSH2 0x100 EXP DUP2 SLOAD DUP2 PUSH20 0xFFFFFFFFFFFFFFFFFFFFFFFFFFFFFFFFFFFFFFFF MUL NOT AND SWAP1 DUP4 PUSH20 0xFFFFFFFFFFFFFFFFFFFFFFFFFFFFFFFFFFFFFFFF AND MUL OR SWAP1 SSTORE POP PUSH2 0x9B3 DUP6 DUP3 PUSH1 0x1 PUSH2 0x1AD9 JUMP JUMPDEST PUSH1 0x2 PUSH0 DUP7 PUSH20 0xFFFFFFFFFFFFFFFFFFFFFFFFFFFFFFFFFFFFFFFF AND PUSH20 0xFFFFFFFFFFFFFFFFFFFFFFFFFFFFFFFFFFFFFFFF AND DUP2 MSTORE PUSH1 0x20 ADD SWAP1 DUP2 MSTORE PUSH1 0x20 ADD PUSH0 KECCAK256 PUSH0 ADD SLOAD DUP5 PUSH20 0xFFFFFFFFFFFFFFFFFFFFFFFFFFFFFFFFFFFFFFFF AND DUP7 PUSH20 0xFFFFFFFFFFFFFFFFFFFFFFFFFFFFFFFFFFFFFFFF AND PUSH32 0x309BB360E8B69C23937CCC5FB01F9AEEEAD1C95A99604E175113FF82F2B1723A PUSH1 0x2 PUSH0 DUP10 PUSH20 0xFFFFFFFFFFFFFFFFFFFFFFFFFFFFFFFFFFFFFFFF AND PUSH20 0xFFFFFFFFFFFFFFFFFFFFFFFFFFFFFFFFFFFFFFFF AND DUP2 MSTORE PUSH1 0x20 ADD SWAP1 DUP2 MSTORE PUSH1 0x20 ADD PUSH0 KECCAK256 PUSH0 ADD SLOAD PUSH1 0x40 MLOAD PUSH2 0xA8F SWAP2 SWAP1 PUSH2 0x2F9E JUMP JUMPDEST PUSH1 0x40 MLOAD DUP1 SWAP2 SUB SWAP1 LOG4 POP POP POP POP POP JUMP JUMPDEST PUSH0 PUSH1 0x14 DUP3 ADD MLOAD SWAP1 POP SWAP2 SWAP1 POP JUMP JUMPDEST PUSH0 PUSH1 0x2 PUSH0 DUP5 PUSH20 0xFFFFFFFFFFFFFFFFFFFFFFFFFFFFFFFFFFFFFFFF AND PUSH20 0xFFFFFFFFFFFFFFFFFFFFFFFFFFFFFFFFFFFFFFFF AND DUP2 MSTORE PUSH1 0x20 ADD SWAP1 DUP2 MSTORE PUSH1 0x20 ADD PUSH0 KECCAK256 PUSH1 0x3 ADD PUSH0 DUP4 PUSH1 0xFF AND PUSH1 0xFF AND DUP2 MSTORE PUSH1 0x20 ADD SWAP1 DUP2 MSTORE PUSH1 0x20 ADD PUSH0 KECCAK256 PUSH0 SWAP1 SLOAD SWAP1 PUSH2 0x100 EXP SWAP1 DIV PUSH1 0xFF AND SWAP1 POP SWAP3 SWAP2 POP POP JUMP JUMPDEST PUSH1 0x1 PUSH0 SWAP1 SLOAD SWAP1 PUSH2 0x100 EXP SWAP1 DIV PUSH20 0xFFFFFFFFFFFFFFFFFFFFFFFFFFFFFFFFFFFFFFFF AND PUSH20 0xFFFFFFFFFFFFFFFFFFFFFFFFFFFFFFFFFFFFFFFF AND CALLER PUSH20 0xFFFFFFFFFFFFFFFFFFFFFFFFFFFFFFFFFFFFFFFF AND EQ PUSH2 0xBA5 JUMPI PUSH1 0x40 MLOAD PUSH32 0x8C379A000000000000000000000000000000000000000000000000000000000 DUP2 MSTORE PUSH1 0x4 ADD PUSH2 0xB9C SWAP1 PUSH2 0x3501 JUMP JUMPDEST PUSH1 0x40 MLOAD DUP1 SWAP2 SUB SWAP1 REVERT JUMPDEST PUSH8 0x4563918244F40000 PUSH1 0xB DUP2 SWAP1 SSTORE POP PUSH1 0xC PUSH1 0x1 PUSH1 0x14 PUSH2 0x100 EXP DUP2 SLOAD DUP2 PUSH1 0xFF MUL NOT AND SWAP1 DUP4 PUSH1 0xFF AND MUL OR SWAP1 SSTORE POP PUSH1 0xB SLOAD PUSH1 0x9 PUSH0 PUSH1 0x1 PUSH1 0xFF AND DUP2 MSTORE PUSH1 0x20 ADD SWAP1 DUP2 MSTORE PUSH1 0x20 ADD PUSH0 KECCAK256 DUP2 SWAP1 SSTORE POP PUSH0 PUSH1 0x2 SWAP1 POP JUMPDEST PUSH1 0x8 DUP2 PUSH1 0xFF AND GT PUSH2 0xC5B JUMPI PUSH1 0x2 PUSH1 0x9 PUSH0 PUSH1 0x1 DUP5 PUSH2 0xC0F SWAP2 SWAP1 PUSH2 0x351F JUMP JUMPDEST PUSH1 0xFF AND PUSH1 0xFF AND DUP2 MSTORE PUSH1 0x20 ADD SWAP1 DUP2 MSTORE PUSH1 0x20 ADD PUSH0 KECCAK256 SLOAD PUSH2 0xC2D SWAP2 SWAP1 PUSH2 0x331C JUMP JUMPDEST PUSH1 0x9 PUSH0 DUP4 PUSH1 0xFF AND PUSH1 0xFF AND DUP2 MSTORE PUSH1 0x20 ADD SWAP1 DUP2 MSTORE PUSH1 0x20 ADD PUSH0 KECCAK256 DUP2 SWAP1 SSTORE POP DUP1 DUP1 PUSH2 0xC53 SWAP1 PUSH2 0x3553 JUMP JUMPDEST SWAP2 POP POP PUSH2 0xBF2 JUMP JUMPDEST POP PUSH9 0x43C33C193756480000 PUSH1 0x9 PUSH0 PUSH1 0x9 PUSH1 0xFF AND DUP2 MSTORE PUSH1 0x20 ADD SWAP1 DUP2 MSTORE PUSH1 0x20 ADD PUSH0 KECCAK256 DUP2 SWAP1 SSTORE POP PUSH9 0x878678326EAC900000 PUSH1 0x9 PUSH0 PUSH1 0xA PUSH1 0xFF AND DUP2 MSTORE PUSH1 0x20 ADD SWAP1 DUP2 MSTORE PUSH1 0x20 ADD PUSH0 KECCAK256 DUP2 SWAP1 SSTORE POP PUSH10 0x10F0CF064DD59200000 PUSH1 0x9 PUSH0 PUSH1 0xB PUSH1 0xFF AND DUP2 MSTORE PUSH1 0x20 ADD SWAP1 DUP2 MSTORE PUSH1 0x20 ADD PUSH0 KECCAK256 DUP2 SWAP1 SSTORE POP PUSH10 0x218AE196B8D4F300000 PUSH1 0x9 PUSH0 PUSH1 0xC PUSH1 0xFF AND DUP2 MSTORE PUSH1 0x20 ADD SWAP1 DUP2 MSTORE PUSH1 0x20 ADD PUSH0 KECCAK256 DUP2 SWAP1 SSTORE POP DUP3 PUSH1 0x7 PUSH0 PUSH2 0x100 EXP DUP2 SLOAD DUP2 PUSH20 0xFFFFFFFFFFFFFFFFFFFFFFFFFFFFFFFFFFFFFFFF MUL NOT AND SWAP1 DUP4 PUSH20 0xFFFFFFFFFFFFFFFFFFFFFFFFFFFFFFFFFFFFFFFF AND MUL OR SWAP1 SSTORE POP PUSH0 PUSH1 0x2 PUSH0 DUP6 PUSH20 0xFFFFFFFFFFFFFFFFFFFFFFFFFFFFFFFFFFFFFFFF AND PUSH20 0xFFFFFFFFFFFFFFFFFFFFFFFFFFFFFFFFFFFFFFFF AND DUP2 MSTORE PUSH1 0x20 ADD SWAP1 DUP2 MSTORE PUSH1 0x20 ADD PUSH0 KECCAK256 SWAP1 POP PUSH1 0x1 DUP2 PUSH0 ADD DUP2 SWAP1 SSTORE POP PUSH0 DUP2 PUSH1 0x1 ADD PUSH0 PUSH2 0x100 EXP DUP2 SLOAD DUP2 PUSH20 0xFFFFFFFFFFFFFFFFFFFFFFFFFFFFFFFFFFFFFFFF MUL NOT AND SWAP1 DUP4 PUSH20 0xFFFFFFFFFFFFFFFFFFFFFFFFFFFFFFFFFFFFFFFF AND MUL OR SWAP1 SSTORE POP PUSH0 DUP2 PUSH1 0x2 ADD DUP2 SWAP1 SSTORE POP DUP4 PUSH1 0x3 PUSH0 PUSH1 0x1 DUP2 MSTORE PUSH1 0x20 ADD SWAP1 DUP2 MSTORE PUSH1 0x20 ADD PUSH0 KECCAK256 PUSH0 PUSH2 0x100 EXP DUP2 SLOAD DUP2 PUSH20 0xFFFFFFFFFFFFFFFFFFFFFFFFFFFFFFFFFFFFFFFF MUL NOT AND SWAP1 DUP4 PUSH20 0xFFFFFFFFFFFFFFFFFFFFFFFFFFFFFFFFFFFFFFFF AND MUL OR SWAP1 SSTORE POP PUSH0 PUSH1 0x1 SWAP1 POP JUMPDEST PUSH1 0x1 PUSH1 0x14 SWAP1 SLOAD SWAP1 PUSH2 0x100 EXP SWAP1 DIV PUSH1 0xFF AND PUSH1 0xFF AND DUP2 PUSH1 0xFF AND GT PUSH2 0xEB0 JUMPI PUSH1 0x1 PUSH1 0x2 PUSH0 DUP8 PUSH20 0xFFFFFFFFFFFFFFFFFFFFFFFFFFFFFFFFFFFFFFFF AND PUSH20 0xFFFFFFFFFFFFFFFFFFFFFFFFFFFFFFFFFFFFFFFF AND DUP2 MSTORE PUSH1 0x20 ADD SWAP1 DUP2 MSTORE PUSH1 0x20 ADD PUSH0 KECCAK256 PUSH1 0x3 ADD PUSH0 DUP4 PUSH1 0xFF AND PUSH1 0xFF AND DUP2 MSTORE PUSH1 0x20 ADD SWAP1 DUP2 MSTORE PUSH1 0x20 ADD PUSH0 KECCAK256 PUSH0 PUSH2 0x100 EXP DUP2 SLOAD DUP2 PUSH1 0xFF MUL NOT AND SWAP1 DUP4 ISZERO ISZERO MUL OR SWAP1 SSTORE POP DUP1 DUP1 PUSH2 0xEA8 SWAP1 PUSH2 0x3553 JUMP JUMPDEST SWAP2 POP POP PUSH2 0xE14 JUMP JUMPDEST POP PUSH1 0x2 PUSH1 0x6 DUP2 SWAP1 SSTORE POP DUP2 PUSH1 0xA PUSH0 PUSH2 0x100 EXP DUP2 SLOAD DUP2 PUSH20 0xFFFFFFFFFFFFFFFFFFFFFFFFFFFFFFFFFFFFFFFF MUL NOT AND SWAP1 DUP4 PUSH20 0xFFFFFFFFFFFFFFFFFFFFFFFFFFFFFFFFFFFFFFFF AND MUL OR SWAP1 SSTORE POP DUP3 PUSH1 0x8 PUSH0 PUSH2 0x100 EXP DUP2 SLOAD DUP2 PUSH20 0xFFFFFFFFFFFFFFFFFFFFFFFFFFFFFFFFFFFFFFFF MUL NOT AND SWAP1 DUP4 PUSH20 0xFFFFFFFFFFFFFFFFFFFFFFFFFFFFFFFFFFFFFFFF AND MUL OR SWAP1 SSTORE POP PUSH1 0x1 PUSH1 0xC PUSH0 PUSH2 0x100 EXP DUP2 SLOAD DUP2 PUSH1 0xFF MUL NOT AND SWAP1 DUP4 ISZERO ISZERO MUL OR SWAP1 SSTORE POP POP POP POP POP JUMP JUMPDEST PUSH1 0x5 PUSH1 0x20 MSTORE DUP1 PUSH0 MSTORE PUSH1 0x40 PUSH0 KECCAK256 PUSH0 SWAP2 POP SWAP1 POP SLOAD DUP2 JUMP JUMPDEST PUSH1 0x1 PUSH1 0x14 SWAP1 SLOAD SWAP1 PUSH2 0x100 EXP SWAP1 DIV PUSH1 0xFF AND DUP2 JUMP JUMPDEST PUSH1 0x3 PUSH1 0x20 MSTORE DUP1 PUSH0 MSTORE PUSH1 0x40 PUSH0 KECCAK256 PUSH0 SWAP2 POP SLOAD SWAP1 PUSH2 0x100 EXP SWAP1 DIV PUSH20 0xFFFFFFFFFFFFFFFFFFFFFFFFFFFFFFFFFFFFFFFF AND DUP2 JUMP JUMPDEST PUSH1 0x6 SLOAD DUP2 JUMP JUMPDEST PUSH1 0xC PUSH0 SWAP1 SLOAD SWAP1 PUSH2 0x100 EXP SWAP1 DIV PUSH1 0xFF AND ISZERO DUP1 PUSH2 0x101E JUMPI POP PUSH1 0x1 PUSH0 SWAP1 SLOAD SWAP1 PUSH2 0x100 EXP SWAP1 DIV PUSH20 0xFFFFFFFFFFFFFFFFFFFFFFFFFFFFFFFFFFFFFFFF AND PUSH20 0xFFFFFFFFFFFFFFFFFFFFFFFFFFFFFFFFFFFFFFFF AND CALLER PUSH20 0xFFFFFFFFFFFFFFFFFFFFFFFFFFFFFFFFFFFFFFFF AND EQ JUMPDEST PUSH2 0x1026 JUMPI PUSH0 DUP1 REVERT JUMPDEST PUSH2 0x1030 DUP3 DUP3 PUSH2 0x57C JUMP JUMPDEST POP POP JUMP JUMPDEST PUSH1 0x4 PUSH1 0x20 MSTORE DUP1 PUSH0 MSTORE PUSH1 0x40 PUSH0 KECCAK256 PUSH0 SWAP2 POP SLOAD SWAP1 PUSH2 0x100 EXP SWAP1 DIV PUSH20 0xFFFFFFFFFFFFFFFFFFFFFFFFFFFFFFFFFFFFFFFF AND DUP2 JUMP JUMPDEST PUSH1 0x8 PUSH0 SWAP1 SLOAD SWAP1 PUSH2 0x100 EXP SWAP1 DIV PUSH20 0xFFFFFFFFFFFFFFFFFFFFFFFFFFFFFFFFFFFFFFFF AND DUP2 JUMP JUMPDEST PUSH0 DUP1 PUSH1 0x2 PUSH0 DUP5 PUSH20 0xFFFFFFFFFFFFFFFFFFFFFFFFFFFFFFFFFFFFFFFF AND PUSH20 0xFFFFFFFFFFFFFFFFFFFFFFFFFFFFFFFFFFFFFFFF AND DUP2 MSTORE PUSH1 0x20 ADD SWAP1 DUP2 MSTORE PUSH1 0x20 ADD PUSH0 KECCAK256 PUSH0 ADD SLOAD EQ ISZERO SWAP1 POP SWAP2 SWAP1 POP JUMP JUMPDEST PUSH1 0x7 PUSH0 SWAP1 SLOAD SWAP1 PUSH2 0x100 EXP SWAP1 DIV PUSH20 0xFFFFFFFFFFFFFFFFFFFFFFFFFFFFFFFFFFFFFFFF AND DUP2 JUMP JUMPDEST PUSH1 0xC PUSH0 SWAP1 SLOAD SWAP1 PUSH2 0x100 EXP SWAP1 DIV PUSH1 0xFF AND ISZERO DUP1 PUSH2 0x1160 JUMPI POP PUSH1 0x1 PUSH0 SWAP1 SLOAD SWAP1 PUSH2 0x100 EXP SWAP1 DIV PUSH20 0xFFFFFFFFFFFFFFFFFFFFFFFFFFFFFFFFFFFFFFFF AND PUSH20 0xFFFFFFFFFFFFFFFFFFFFFFFFFFFFFFFFFFFFFFFF AND CALLER PUSH20 0xFFFFFFFFFFFFFFFFFFFFFFFFFFFFFFFFFFFFFFFF AND EQ JUMPDEST PUSH2 0x1168 JUMPI PUSH0 DUP1 REVERT JUMPDEST PUSH2 0x1172 CALLER DUP3 PUSH2 0x57C JUMP JUMPDEST POP JUMP JUMPDEST PUSH0 PUSH1 0x60 PUSH0 PUSH1 0x2 PUSH0 DUP7 PUSH20 0xFFFFFFFFFFFFFFFFFFFFFFFFFFFFFFFFFFFFFFFF AND PUSH20 0xFFFFFFFFFFFFFFFFFFFFFFFFFFFFFFFFFFFFFFFF AND DUP2 MSTORE PUSH1 0x20 ADD SWAP1 DUP2 MSTORE PUSH1 0x20 ADD PUSH0 KECCAK256 PUSH1 0x4 ADD PUSH0 DUP6 PUSH1 0xFF AND PUSH1 0xFF AND DUP2 MSTORE PUSH1 0x20 ADD SWAP1 DUP2 MSTORE PUSH1 0x20 ADD PUSH0 KECCAK256 PUSH0 ADD PUSH0 SWAP1 SLOAD SWAP1 PUSH2 0x100 EXP SWAP1 DIV PUSH20 0xFFFFFFFFFFFFFFFFFFFFFFFFFFFFFFFFFFFFFFFF AND PUSH1 0x2 PUSH0 DUP8 PUSH20 0xFFFFFFFFFFFFFFFFFFFFFFFFFFFFFFFFFFFFFFFF AND PUSH20 0xFFFFFFFFFFFFFFFFFFFFFFFFFFFFFFFFFFFFFFFF AND DUP2 MSTORE PUSH1 0x20 ADD SWAP1 DUP2 MSTORE PUSH1 0x20 ADD PUSH0 KECCAK256 PUSH1 0x4 ADD PUSH0 DUP7 PUSH1 0xFF AND PUSH1 0xFF AND DUP2 MSTORE PUSH1 0x20 ADD SWAP1 DUP2 MSTORE PUSH1 0x20 ADD PUSH0 KECCAK256 PUSH1 0x1 ADD PUSH1 0x2 PUSH0 DUP9 PUSH20 0xFFFFFFFFFFFFFFFFFFFFFFFFFFFFFFFFFFFFFFFF AND PUSH20 0xFFFFFFFFFFFFFFFFFFFFFFFFFFFFFFFFFFFFFFFF AND DUP2 MSTORE PUSH1 0x20 ADD SWAP1 DUP2 MSTORE PUSH1 0x20 ADD PUSH0 KECCAK256 PUSH1 0x4 ADD PUSH0 DUP8 PUSH1 0xFF AND PUSH1 0xFF AND DUP2 MSTORE PUSH1 0x20 ADD SWAP1 DUP2 MSTORE PUSH1 0x20 ADD PUSH0 KECCAK256 PUSH1 0x2 ADD PUSH0 SWAP1 SLOAD SWAP1 PUSH2 0x100 EXP SWAP1 DIV PUSH1 0xFF AND DUP2 DUP1 SLOAD DUP1 PUSH1 0x20 MUL PUSH1 0x20 ADD PUSH1 0x40 MLOAD SWAP1 DUP2 ADD PUSH1 0x40 MSTORE DUP1 SWAP3 SWAP2 SWAP1 DUP2 DUP2 MSTORE PUSH1 0x20 ADD DUP3 DUP1 SLOAD DUP1 ISZERO PUSH2 0x132B JUMPI PUSH1 0x20 MUL DUP3 ADD SWAP2 SWAP1 PUSH0 MSTORE PUSH1 0x20 PUSH0 KECCAK256 SWAP1 JUMPDEST DUP2 PUSH0 SWAP1 SLOAD SWAP1 PUSH2 0x100 EXP SWAP1 DIV PUSH20 0xFFFFFFFFFFFFFFFFFFFFFFFFFFFFFFFFFFFFFFFF AND PUSH20 0xFFFFFFFFFFFFFFFFFFFFFFFFFFFFFFFFFFFFFFFF AND DUP2 MSTORE PUSH1 0x20 ADD SWAP1 PUSH1 0x1 ADD SWAP1 DUP1 DUP4 GT PUSH2 0x12E2 JUMPI JUMPDEST POP POP POP POP POP SWAP2 POP SWAP3 POP SWAP3 POP SWAP3 POP SWAP3 POP SWAP3 POP SWAP3 JUMP JUMPDEST PUSH0 DUP1 SLOAD SWAP1 PUSH2 0x100 EXP SWAP1 DIV PUSH20 0xFFFFFFFFFFFFFFFFFFFFFFFFFFFFFFFFFFFFFFFF AND DUP2 JUMP JUMPDEST PUSH1 0xB SLOAD DUP2 JUMP JUMPDEST PUSH1 0x1 PUSH0 SWAP1 SLOAD SWAP1 PUSH2 0x100 EXP SWAP1 DIV PUSH20 0xFFFFFFFFFFFFFFFFFFFFFFFFFFFFFFFFFFFFFFFF AND PUSH20 0xFFFFFFFFFFFFFFFFFFFFFFFFFFFFFFFFFFFFFFFF AND CALLER PUSH20 0xFFFFFFFFFFFFFFFFFFFFFFFFFFFFFFFFFFFFFFFF AND EQ PUSH2 0x13F7 JUMPI PUSH1 0x40 MLOAD PUSH32 0x8C379A000000000000000000000000000000000000000000000000000000000 DUP2 MSTORE PUSH1 0x4 ADD PUSH2 0x13EE SWAP1 PUSH2 0x3501 JUMP JUMPDEST PUSH1 0x40 MLOAD DUP1 SWAP2 SUB SWAP1 REVERT JUMPDEST PUSH1 0xA PUSH0 SWAP1 SLOAD SWAP1 PUSH2 0x100 EXP SWAP1 DIV PUSH20 0xFFFFFFFFFFFFFFFFFFFFFFFFFFFFFFFFFFFFFFFF AND PUSH20 0xFFFFFFFFFFFFFFFFFFFFFFFFFFFFFFFFFFFFFFFF AND DUP2 PUSH20 0xFFFFFFFFFFFFFFFFFFFFFFFFFFFFFFFFFFFFFFFF AND SUB PUSH2 0x1486 JUMPI PUSH1 0x40 MLOAD PUSH32 0x8C379A000000000000000000000000000000000000000000000000000000000 DUP2 MSTORE PUSH1 0x4 ADD PUSH2 0x147D SWAP1 PUSH2 0x35C5 JUMP JUMPDEST PUSH1 0x40 MLOAD DUP1 SWAP2 SUB SWAP1 REVERT JUMPDEST PUSH0 PUSH20 0xFFFFFFFFFFFFFFFFFFFFFFFFFFFFFFFFFFFFFFFF AND DUP2 PUSH20 0xFFFFFFFFFFFFFFFFFFFFFFFFFFFFFFFFFFFFFFFF AND SUB PUSH2 0x1528 JUMPI PUSH0 PUSH1 0x8 PUSH0 SWAP1 SLOAD SWAP1 PUSH2 0x100 EXP SWAP1 DIV PUSH20 0xFFFFFFFFFFFFFFFFFFFFFFFFFFFFFFFFFFFFFFFF AND SWAP1 POP DUP1 PUSH20 0xFFFFFFFFFFFFFFFFFFFFFFFFFFFFFFFFFFFFFFFF AND PUSH2 0x8FC SELFBALANCE SWAP1 DUP2 ISZERO MUL SWAP1 PUSH1 0x40 MLOAD PUSH0 PUSH1 0x40 MLOAD DUP1 DUP4 SUB DUP2 DUP6 DUP9 DUP9 CALL SWAP4 POP POP POP POP ISZERO DUP1 ISZERO PUSH2 0x1521 JUMPI RETURNDATASIZE PUSH0 DUP1 RETURNDATACOPY RETURNDATASIZE PUSH0 REVERT JUMPDEST POP POP PUSH2 0x163D JUMP JUMPDEST DUP1 PUSH20 0xFFFFFFFFFFFFFFFFFFFFFFFFFFFFFFFFFFFFFFFF AND PUSH4 0xA9059CBB PUSH1 0x8 PUSH0 SWAP1 SLOAD SWAP1 PUSH2 0x100 EXP SWAP1 DIV PUSH20 0xFFFFFFFFFFFFFFFFFFFFFFFFFFFFFFFFFFFFFFFF AND DUP4 PUSH20 0xFFFFFFFFFFFFFFFFFFFFFFFFFFFFFFFFFFFFFFFF AND PUSH4 0x70A08231 ADDRESS PUSH1 0x40 MLOAD DUP3 PUSH4 0xFFFFFFFF AND PUSH1 0xE0 SHL DUP2 MSTORE PUSH1 0x4 ADD PUSH2 0x159F SWAP2 SWAP1 PUSH2 0x3043 JUMP JUMPDEST PUSH1 0x20 PUSH1 0x40 MLOAD DUP1 DUP4 SUB DUP2 DUP7 GAS STATICCALL ISZERO DUP1 ISZERO PUSH2 0x15BA JUMPI RETURNDATASIZE PUSH0 DUP1 RETURNDATACOPY RETURNDATASIZE PUSH0 REVERT JUMPDEST POP POP POP POP PUSH1 0x40 MLOAD RETURNDATASIZE PUSH1 0x1F NOT PUSH1 0x1F DUP3 ADD AND DUP3 ADD DUP1 PUSH1 0x40 MSTORE POP DUP2 ADD SWAP1 PUSH2 0x15DE SWAP2 SWAP1 PUSH2 0x35F7 JUMP JUMPDEST PUSH1 0x40 MLOAD DUP4 PUSH4 0xFFFFFFFF AND PUSH1 0xE0 SHL DUP2 MSTORE PUSH1 0x4 ADD PUSH2 0x15FB SWAP3 SWAP2 SWAP1 PUSH2 0x3622 JUMP JUMPDEST PUSH1 0x20 PUSH1 0x40 MLOAD DUP1 DUP4 SUB DUP2 PUSH0 DUP8 GAS CALL ISZERO DUP1 ISZERO PUSH2 0x1617 JUMPI RETURNDATASIZE PUSH0 DUP1 RETURNDATACOPY RETURNDATASIZE PUSH0 REVERT JUMPDEST POP POP POP POP PUSH1 0x40 MLOAD RETURNDATASIZE PUSH1 0x1F NOT PUSH1 0x1F DUP3 ADD AND DUP3 ADD DUP1 PUSH1 0x40 MSTORE POP DUP2 ADD SWAP1 PUSH2 0x163B SWAP2 SWAP1 PUSH2 0x3673 JUMP JUMPDEST POP JUMPDEST POP JUMP JUMPDEST PUSH1 0x2 PUSH1 0x20 MSTORE DUP1 PUSH0 MSTORE PUSH1 0x40 PUSH0 KECCAK256 PUSH0 SWAP2 POP SWAP1 POP DUP1 PUSH0 ADD SLOAD SWAP1 DUP1 PUSH1 0x1 ADD PUSH0 SWAP1 SLOAD SWAP1 PUSH2 0x100 EXP SWAP1 DIV PUSH20 0xFFFFFFFFFFFFFFFFFFFFFFFFFFFFFFFFFFFFFFFF AND SWAP1 DUP1 PUSH1 0x2 ADD SLOAD SWAP1 POP DUP4 JUMP JUMPDEST PUSH1 0xC PUSH0 SWAP1 SLOAD SWAP1 PUSH2 0x100 EXP SWAP1 DIV PUSH1 0xFF AND ISZERO DUP1 PUSH2 0x16EC JUMPI POP PUSH1 0x1 PUSH0 SWAP1 SLOAD SWAP1 PUSH2 0x100 EXP SWAP1 DIV PUSH20 0xFFFFFFFFFFFFFFFFFFFFFFFFFFFFFFFFFFFFFFFF AND PUSH20 0xFFFFFFFFFFFFFFFFFFFFFFFFFFFFFFFFFFFFFFFF AND CALLER PUSH20 0xFFFFFFFFFFFFFFFFFFFFFFFFFFFFFFFFFFFFFFFF AND EQ JUMPDEST PUSH2 0x16F4 JUMPI PUSH0 DUP1 REVERT JUMPDEST PUSH2 0x16FF DUP4 DUP4 DUP4 PUSH2 0x22F0 JUMP JUMPDEST POP POP POP JUMP JUMPDEST PUSH1 0xC PUSH0 SWAP1 SLOAD SWAP1 PUSH2 0x100 EXP SWAP1 DIV PUSH1 0xFF AND ISZERO DUP1 PUSH2 0x176B JUMPI POP PUSH1 0x1 PUSH0 SWAP1 SLOAD SWAP1 PUSH2 0x100 EXP SWAP1 DIV PUSH20 0xFFFFFFFFFFFFFFFFFFFFFFFFFFFFFFFFFFFFFFFF AND PUSH20 0xFFFFFFFFFFFFFFFFFFFFFFFFFFFFFFFFFFFFFFFF AND CALLER PUSH20 0xFFFFFFFFFFFFFFFFFFFFFFFFFFFFFFFFFFFFFFFF AND EQ JUMPDEST PUSH2 0x1773 JUMPI PUSH0 DUP1 REVERT JUMPDEST PUSH2 0x177E CALLER DUP4 DUP4 PUSH2 0x22F0 JUMP JUMPDEST POP POP JUMP JUMPDEST PUSH1 0xA PUSH0 SWAP1 SLOAD SWAP1 PUSH2 0x100 EXP SWAP1 DIV PUSH20 0xFFFFFFFFFFFFFFFFFFFFFFFFFFFFFFFFFFFFFFFF AND DUP2 JUMP JUMPDEST PUSH1 0x1 PUSH0 SWAP1 SLOAD SWAP1 PUSH2 0x100 EXP SWAP1 DIV PUSH20 0xFFFFFFFFFFFFFFFFFFFFFFFFFFFFFFFFFFFFFFFF AND DUP2 JUMP JUMPDEST PUSH1 0xC PUSH0 SWAP1 SLOAD SWAP1 PUSH2 0x100 EXP SWAP1 DIV PUSH1 0xFF AND DUP2 JUMP JUMPDEST PUSH1 0x9 PUSH1 0x20 MSTORE DUP1 PUSH0 MSTORE PUSH1 0x40 PUSH0 KECCAK256 PUSH0 SWAP2 POP SWAP1 POP SLOAD DUP2 JUMP JUMPDEST PUSH1 0x1 PUSH0 SWAP1 SLOAD SWAP1 PUSH2 0x100 EXP SWAP1 DIV PUSH20 0xFFFFFFFFFFFFFFFFFFFFFFFFFFFFFFFFFFFFFFFF AND PUSH20 0xFFFFFFFFFFFFFFFFFFFFFFFFFFFFFFFFFFFFFFFF AND CALLER PUSH20 0xFFFFFFFFFFFFFFFFFFFFFFFFFFFFFFFFFFFFFFFF AND EQ PUSH2 0x1882 JUMPI PUSH1 0x40 MLOAD PUSH32 0x8C379A000000000000000000000000000000000000000000000000000000000 DUP2 MSTORE PUSH1 0x4 ADD PUSH2 0x1879 SWAP1 PUSH2 0x3501 JUMP JUMPDEST PUSH1 0x40 MLOAD DUP1 SWAP2 SUB SWAP1 REVERT JUMPDEST PUSH1 0xC PUSH0 SWAP1 SLOAD SWAP1 PUSH2 0x100 EXP SWAP1 DIV PUSH1 0xFF AND ISZERO PUSH1 0xC PUSH0 PUSH2 0x100 EXP DUP2 SLOAD DUP2 PUSH1 0xFF MUL NOT AND SWAP1 DUP4 ISZERO ISZERO MUL OR SWAP1 SSTORE POP JUMP JUMPDEST PUSH0 JUMPDEST PUSH1 0x1 ISZERO PUSH2 0x1A49 JUMPI PUSH1 0x2 PUSH0 PUSH1 0x2 PUSH0 DUP7 PUSH20 0xFFFFFFFFFFFFFFFFFFFFFFFFFFFFFFFFFFFFFFFF AND PUSH20 0xFFFFFFFFFFFFFFFFFFFFFFFFFFFFFFFFFFFFFFFF AND DUP2 MSTORE PUSH1 0x20 ADD SWAP1 DUP2 MSTORE PUSH1 0x20 ADD PUSH0 KECCAK256 PUSH1 0x1 ADD PUSH0 SWAP1 SLOAD SWAP1 PUSH2 0x100 EXP SWAP1 DIV PUSH20 0xFFFFFFFFFFFFFFFFFFFFFFFFFFFFFFFFFFFFFFFF AND PUSH20 0xFFFFFFFFFFFFFFFFFFFFFFFFFFFFFFFFFFFFFFFF AND PUSH20 0xFFFFFFFFFFFFFFFFFFFFFFFFFFFFFFFFFFFFFFFF AND DUP2 MSTORE PUSH1 0x20 ADD SWAP1 DUP2 MSTORE PUSH1 0x20 ADD PUSH0 KECCAK256 PUSH1 0x3 ADD PUSH0 DUP4 PUSH1 0xFF AND PUSH1 0xFF AND DUP2 MSTORE PUSH1 0x20 ADD SWAP1 DUP2 MSTORE PUSH1 0x20 ADD PUSH0 KECCAK256 PUSH0 SWAP1 SLOAD SWAP1 PUSH2 0x100 EXP SWAP1 DIV PUSH1 0xFF AND ISZERO PUSH2 0x19E2 JUMPI PUSH1 0x2 PUSH0 DUP5 PUSH20 0xFFFFFFFFFFFFFFFFFFFFFFFFFFFFFFFFFFFFFFFF AND PUSH20 0xFFFFFFFFFFFFFFFFFFFFFFFFFFFFFFFFFFFFFFFF AND DUP2 MSTORE PUSH1 0x20 ADD SWAP1 DUP2 MSTORE PUSH1 0x20 ADD PUSH0 KECCAK256 PUSH1 0x1 ADD PUSH0 SWAP1 SLOAD SWAP1 PUSH2 0x100 EXP SWAP1 DIV PUSH20 0xFFFFFFFFFFFFFFFFFFFFFFFFFFFFFFFFFFFFFFFF AND SWAP1 POP PUSH2 0x1A4A JUMP JUMPDEST PUSH1 0x2 PUSH0 DUP5 PUSH20 0xFFFFFFFFFFFFFFFFFFFFFFFFFFFFFFFFFFFFFFFF AND PUSH20 0xFFFFFFFFFFFFFFFFFFFFFFFFFFFFFFFFFFFFFFFF AND DUP2 MSTORE PUSH1 0x20 ADD SWAP1 DUP2 MSTORE PUSH1 0x20 ADD PUSH0 KECCAK256 PUSH1 0x1 ADD PUSH0 SWAP1 SLOAD SWAP1 PUSH2 0x100 EXP SWAP1 DIV PUSH20 0xFFFFFFFFFFFFFFFFFFFFFFFFFFFFFFFFFFFFFFFF AND SWAP3 POP PUSH2 0x18AE JUMP JUMPDEST JUMPDEST SWAP3 SWAP2 POP POP JUMP JUMPDEST PUSH2 0x1AD3 DUP5 PUSH4 0x23B872DD PUSH1 0xE0 SHL DUP6 DUP6 DUP6 PUSH1 0x40 MLOAD PUSH1 0x24 ADD PUSH2 0x1A71 SWAP4 SWAP3 SWAP2 SWAP1 PUSH2 0x369E JUMP JUMPDEST PUSH1 0x40 MLOAD PUSH1 0x20 DUP2 DUP4 SUB SUB DUP2 MSTORE SWAP1 PUSH1 0x40 MSTORE SWAP1 PUSH28 0xFFFFFFFFFFFFFFFFFFFFFFFFFFFFFFFFFFFFFFFFFFFFFFFFFFFFFFFF NOT AND PUSH1 0x20 DUP3 ADD DUP1 MLOAD PUSH28 0xFFFFFFFFFFFFFFFFFFFFFFFFFFFFFFFFFFFFFFFFFFFFFFFFFFFFFFFF DUP4 DUP2 DUP4 AND OR DUP4 MSTORE POP POP POP POP PUSH2 0x282D JUMP JUMPDEST POP POP POP POP JUMP JUMPDEST PUSH1 0x2 PUSH0 DUP4 PUSH20 0xFFFFFFFFFFFFFFFFFFFFFFFFFFFFFFFFFFFFFFFF AND PUSH20 0xFFFFFFFFFFFFFFFFFFFFFFFFFFFFFFFFFFFFFFFF AND DUP2 MSTORE PUSH1 0x20 ADD SWAP1 DUP2 MSTORE PUSH1 0x20 ADD PUSH0 KECCAK256 PUSH1 0x4 ADD PUSH0 DUP3 PUSH1 0xFF AND PUSH1 0xFF AND DUP2 MSTORE PUSH1 0x20 ADD SWAP1 DUP2 MSTORE PUSH1 0x20 ADD PUSH0 KECCAK256 PUSH1 0x1 ADD DUP4 SWAP1 DUP1 PUSH1 0x1 DUP2 SLOAD ADD DUP1 DUP3 SSTORE DUP1 SWAP2 POP POP PUSH1 0x1 SWAP1 SUB SWAP1 PUSH0 MSTORE PUSH1 0x20 PUSH0 KECCAK256 ADD PUSH0 SWAP1 SWAP2 SWAP1 SWAP2 SWAP1 SWAP2 PUSH2 0x100 EXP DUP2 SLOAD DUP2 PUSH20 0xFFFFFFFFFFFFFFFFFFFFFFFFFFFFFFFFFFFFFFFF MUL NOT AND SWAP1 DUP4 PUSH20 0xFFFFFFFFFFFFFFFFFFFFFFFFFFFFFFFFFFFFFFFF AND MUL OR SWAP1 SSTORE POP PUSH1 0x3 PUSH1 0x2 PUSH0 DUP5 PUSH20 0xFFFFFFFFFFFFFFFFFFFFFFFFFFFFFFFFFFFFFFFF AND PUSH20 0xFFFFFFFFFFFFFFFFFFFFFFFFFFFFFFFFFFFFFFFF AND DUP2 MSTORE PUSH1 0x20 ADD SWAP1 DUP2 MSTORE PUSH1 0x20 ADD PUSH0 KECCAK256 PUSH1 0x4 ADD PUSH0 DUP4 PUSH1 0xFF AND PUSH1 0xFF AND DUP2 MSTORE PUSH1 0x20 ADD SWAP1 DUP2 MSTORE PUSH1 0x20 ADD PUSH0 KECCAK256 PUSH1 0x1 ADD DUP1 SLOAD SWAP1 POP LT ISZERO PUSH2 0x1CCA JUMPI DUP2 PUSH20 0xFFFFFFFFFFFFFFFFFFFFFFFFFFFFFFFFFFFFFFFF AND DUP4 PUSH20 0xFFFFFFFFFFFFFFFFFFFFFFFFFFFFFFFFFFFFFFFF AND PUSH32 0x68062C5925C4317ADF3A7095478D28B33FD8B41458BC7620B61BC46BF1B24D82 PUSH1 0x1 DUP5 PUSH1 0x2 PUSH0 DUP9 PUSH20 0xFFFFFFFFFFFFFFFFFFFFFFFFFFFFFFFFFFFFFFFF AND PUSH20 0xFFFFFFFFFFFFFFFFFFFFFFFFFFFFFFFFFFFFFFFF AND DUP2 MSTORE PUSH1 0x20 ADD SWAP1 DUP2 MSTORE PUSH1 0x20 ADD PUSH0 KECCAK256 PUSH1 0x4 ADD PUSH0 DUP8 PUSH1 0xFF AND PUSH1 0xFF AND DUP2 MSTORE PUSH1 0x20 ADD SWAP1 DUP2 MSTORE PUSH1 0x20 ADD PUSH0 KECCAK256 PUSH1 0x1 ADD DUP1 SLOAD SWAP1 POP PUSH1 0x40 MLOAD PUSH2 0x1CB0 SWAP4 SWAP3 SWAP2 SWAP1 PUSH2 0x370C JUMP JUMPDEST PUSH1 0x40 MLOAD DUP1 SWAP2 SUB SWAP1 LOG3 PUSH2 0x1CC5 DUP3 DUP5 PUSH1 0x1 DUP5 PUSH2 0x28D5 JUMP JUMPDEST PUSH2 0x22EB JUMP JUMPDEST DUP2 PUSH20 0xFFFFFFFFFFFFFFFFFFFFFFFFFFFFFFFFFFFFFFFF AND DUP4 PUSH20 0xFFFFFFFFFFFFFFFFFFFFFFFFFFFFFFFFFFFFFFFF AND PUSH32 0x68062C5925C4317ADF3A7095478D28B33FD8B41458BC7620B61BC46BF1B24D82 PUSH1 0x1 DUP5 PUSH1 0x3 PUSH1 0x40 MLOAD PUSH2 0x1D2D SWAP4 SWAP3 SWAP2 SWAP1 PUSH2 0x377A JUMP JUMPDEST PUSH1 0x40 MLOAD DUP1 SWAP2 SUB SWAP1 LOG3 PUSH0 PUSH8 0xFFFFFFFFFFFFFFFF DUP2 GT ISZERO PUSH2 0x1D4F JUMPI PUSH2 0x1D4E PUSH2 0x37AF JUMP JUMPDEST JUMPDEST PUSH1 0x40 MLOAD SWAP1 DUP1 DUP3 MSTORE DUP1 PUSH1 0x20 MUL PUSH1 0x20 ADD DUP3 ADD PUSH1 0x40 MSTORE DUP1 ISZERO PUSH2 0x1D7D JUMPI DUP2 PUSH1 0x20 ADD PUSH1 0x20 DUP3 MUL DUP1 CALLDATASIZE DUP4 CALLDATACOPY DUP1 DUP3 ADD SWAP2 POP POP SWAP1 POP JUMPDEST POP PUSH1 0x2 PUSH0 DUP5 PUSH20 0xFFFFFFFFFFFFFFFFFFFFFFFFFFFFFFFFFFFFFFFF AND PUSH20 0xFFFFFFFFFFFFFFFFFFFFFFFFFFFFFFFFFFFFFFFF AND DUP2 MSTORE PUSH1 0x20 ADD SWAP1 DUP2 MSTORE PUSH1 0x20 ADD PUSH0 KECCAK256 PUSH1 0x4 ADD PUSH0 DUP4 PUSH1 0xFF AND PUSH1 0xFF AND DUP2 MSTORE PUSH1 0x20 ADD SWAP1 DUP2 MSTORE PUSH1 0x20 ADD PUSH0 KECCAK256 PUSH1 0x1 ADD SWAP1 DUP1 MLOAD SWAP1 PUSH1 0x20 ADD SWAP1 PUSH2 0x1DE9 SWAP3 SWAP2 SWAP1 PUSH2 0x2D29 JUMP JUMPDEST POP PUSH1 0x2 PUSH0 DUP4 PUSH20 0xFFFFFFFFFFFFFFFFFFFFFFFFFFFFFFFFFFFFFFFF AND PUSH20 0xFFFFFFFFFFFFFFFFFFFFFFFFFFFFFFFFFFFFFFFF AND DUP2 MSTORE PUSH1 0x20 ADD SWAP1 DUP2 MSTORE PUSH1 0x20 ADD PUSH0 KECCAK256 PUSH1 0x3 ADD PUSH0 PUSH1 0x1 DUP4 PUSH2 0x1E38 SWAP2 SWAP1 PUSH2 0x37DC JUMP JUMPDEST PUSH1 0xFF AND PUSH1 0xFF AND DUP2 MSTORE PUSH1 0x20 ADD SWAP1 DUP2 MSTORE PUSH1 0x20 ADD PUSH0 KECCAK256 PUSH0 SWAP1 SLOAD SWAP1 PUSH2 0x100 EXP SWAP1 DIV PUSH1 0xFF AND ISZERO DUP1 ISZERO PUSH2 0x1E7A JUMPI POP PUSH1 0x1 PUSH1 0x14 SWAP1 SLOAD SWAP1 PUSH2 0x100 EXP SWAP1 DIV PUSH1 0xFF AND PUSH1 0xFF AND DUP2 PUSH1 0xFF AND EQ ISZERO JUMPDEST ISZERO PUSH2 0x1EF0 JUMPI PUSH1 0x1 PUSH1 0x2 PUSH0 DUP5 PUSH20 0xFFFFFFFFFFFFFFFFFFFFFFFFFFFFFFFFFFFFFFFF AND PUSH20 0xFFFFFFFFFFFFFFFFFFFFFFFFFFFFFFFFFFFFFFFF AND DUP2 MSTORE PUSH1 0x20 ADD SWAP1 DUP2 MSTORE PUSH1 0x20 ADD PUSH0 KECCAK256 PUSH1 0x4 ADD PUSH0 DUP4 PUSH1 0xFF AND PUSH1 0xFF AND DUP2 MSTORE PUSH1 0x20 ADD SWAP1 DUP2 MSTORE PUSH1 0x20 ADD PUSH0 KECCAK256 PUSH1 0x2 ADD PUSH0 PUSH2 0x100 EXP DUP2 SLOAD DUP2 PUSH1 0xFF MUL NOT AND SWAP1 DUP4 ISZERO ISZERO MUL OR SWAP1 SSTORE POP JUMPDEST PUSH1 0x7 PUSH0 SWAP1 SLOAD SWAP1 PUSH2 0x100 EXP SWAP1 DIV PUSH20 0xFFFFFFFFFFFFFFFFFFFFFFFFFFFFFFFFFFFFFFFF AND PUSH20 0xFFFFFFFFFFFFFFFFFFFFFFFFFFFFFFFFFFFFFFFF AND DUP3 PUSH20 0xFFFFFFFFFFFFFFFFFFFFFFFFFFFFFFFFFFFFFFFF AND EQ PUSH2 0x218D JUMPI PUSH0 PUSH2 0x1F4F DUP4 DUP4 PUSH2 0x18AC JUMP JUMPDEST SWAP1 POP DUP1 PUSH20 0xFFFFFFFFFFFFFFFFFFFFFFFFFFFFFFFFFFFFFFFF AND PUSH1 0x2 PUSH0 DUP6 PUSH20 0xFFFFFFFFFFFFFFFFFFFFFFFFFFFFFFFFFFFFFFFF AND PUSH20 0xFFFFFFFFFFFFFFFFFFFFFFFFFFFFFFFFFFFFFFFF AND DUP2 MSTORE PUSH1 0x20 ADD SWAP1 DUP2 MSTORE PUSH1 0x20 ADD PUSH0 KECCAK256 PUSH1 0x4 ADD PUSH0 DUP5 PUSH1 0xFF AND PUSH1 0xFF AND DUP2 MSTORE PUSH1 0x20 ADD SWAP1 DUP2 MSTORE PUSH1 0x20 ADD PUSH0 KECCAK256 PUSH0 ADD PUSH0 SWAP1 SLOAD SWAP1 PUSH2 0x100 EXP SWAP1 DIV PUSH20 0xFFFFFFFFFFFFFFFFFFFFFFFFFFFFFFFFFFFFFFFF AND PUSH20 0xFFFFFFFFFFFFFFFFFFFFFFFFFFFFFFFFFFFFFFFF AND EQ PUSH2 0x2090 JUMPI DUP1 PUSH1 0x2 PUSH0 DUP6 PUSH20 0xFFFFFFFFFFFFFFFFFFFFFFFFFFFFFFFFFFFFFFFF AND PUSH20 0xFFFFFFFFFFFFFFFFFFFFFFFFFFFFFFFFFFFFFFFF AND DUP2 MSTORE PUSH1 0x20 ADD SWAP1 DUP2 MSTORE PUSH1 0x20 ADD PUSH0 KECCAK256 PUSH1 0x4 ADD PUSH0 DUP5 PUSH1 0xFF AND PUSH1 0xFF AND DUP2 MSTORE PUSH1 0x20 ADD SWAP1 DUP2 MSTORE PUSH1 0x20 ADD PUSH0 KECCAK256 PUSH0 ADD PUSH0 PUSH2 0x100 EXP DUP2 SLOAD DUP2 PUSH20 0xFFFFFFFFFFFFFFFFFFFFFFFFFFFFFFFFFFFFFFFF MUL NOT AND SWAP1 DUP4 PUSH20 0xFFFFFFFFFFFFFFFFFFFFFFFFFFFFFFFFFFFFFFFF AND MUL OR SWAP1 SSTORE POP JUMPDEST PUSH1 0x2 PUSH0 DUP5 PUSH20 0xFFFFFFFFFFFFFFFFFFFFFFFFFFFFFFFFFFFFFFFF AND PUSH20 0xFFFFFFFFFFFFFFFFFFFFFFFFFFFFFFFFFFFFFFFF AND DUP2 MSTORE PUSH1 0x20 ADD SWAP1 DUP2 MSTORE PUSH1 0x20 ADD PUSH0 KECCAK256 PUSH1 0x4 ADD PUSH0 DUP4 PUSH1 0xFF AND PUSH1 0xFF AND DUP2 MSTORE PUSH1 0x20 ADD SWAP1 DUP2 MSTORE PUSH1 0x20 ADD PUSH0 KECCAK256 PUSH1 0x3 ADD PUSH0 DUP2 SLOAD DUP1 SWAP3 SWAP2 SWAP1 PUSH2 0x20F8 SWAP1 PUSH2 0x3470 JUMP JUMPDEST SWAP2 SWAP1 POP SSTORE POP DUP4 PUSH20 0xFFFFFFFFFFFFFFFFFFFFFFFFFFFFFFFFFFFFFFFF AND DUP2 PUSH20 0xFFFFFFFFFFFFFFFFFFFFFFFFFFFFFFFFFFFFFFFF AND DUP5 PUSH20 0xFFFFFFFFFFFFFFFFFFFFFFFFFFFFFFFFFFFFFFFF AND PUSH32 0xA00C953EFF38EC1B71E7FE060B2AB8DF0BBE5354319FBDDE4FBDAFD6324386A6 PUSH1 0x1 DUP7 PUSH1 0x40 MLOAD PUSH2 0x2174 SWAP3 SWAP2 SWAP1 PUSH2 0x3810 JUMP JUMPDEST PUSH1 0x40 MLOAD DUP1 SWAP2 SUB SWAP1 LOG4 PUSH2 0x2187 DUP4 DUP3 DUP5 PUSH2 0x1AD9 JUMP JUMPDEST POP PUSH2 0x22EA JUMP JUMPDEST PUSH2 0x21BB PUSH1 0x7 PUSH0 SWAP1 SLOAD SWAP1 PUSH2 0x100 EXP SWAP1 DIV PUSH20 0xFFFFFFFFFFFFFFFFFFFFFFFFFFFFFFFFFFFFFFFF AND DUP5 PUSH1 0x1 DUP5 PUSH2 0x28D5 JUMP JUMPDEST PUSH1 0x2 PUSH0 PUSH1 0x7 PUSH0 SWAP1 SLOAD SWAP1 PUSH2 0x100 EXP SWAP1 DIV PUSH20 0xFFFFFFFFFFFFFFFFFFFFFFFFFFFFFFFFFFFFFFFF AND PUSH20 0xFFFFFFFFFFFFFFFFFFFFFFFFFFFFFFFFFFFFFFFF AND PUSH20 0xFFFFFFFFFFFFFFFFFFFFFFFFFFFFFFFFFFFFFFFF AND DUP2 MSTORE PUSH1 0x20 ADD SWAP1 DUP2 MSTORE PUSH1 0x20 ADD PUSH0 KECCAK256 PUSH1 0x4 ADD PUSH0 DUP3 PUSH1 0xFF AND PUSH1 0xFF AND DUP2 MSTORE PUSH1 0x20 ADD SWAP1 DUP2 MSTORE PUSH1 0x20 ADD PUSH0 KECCAK256 PUSH1 0x3 ADD PUSH0 DUP2 SLOAD DUP1 SWAP3 SWAP2 SWAP1 PUSH2 0x2244 SWAP1 PUSH2 0x3470 JUMP JUMPDEST SWAP2 SWAP1 POP SSTORE POP DUP3 PUSH20 0xFFFFFFFFFFFFFFFFFFFFFFFFFFFFFFFFFFFFFFFF AND PUSH0 PUSH20 0xFFFFFFFFFFFFFFFFFFFFFFFFFFFFFFFFFFFFFFFF AND PUSH1 0x7 PUSH0 SWAP1 SLOAD SWAP1 PUSH2 0x100 EXP SWAP1 DIV PUSH20 0xFFFFFFFFFFFFFFFFFFFFFFFFFFFFFFFFFFFFFFFF AND PUSH20 0xFFFFFFFFFFFFFFFFFFFFFFFFFFFFFFFFFFFFFFFF AND PUSH32 0xA00C953EFF38EC1B71E7FE060B2AB8DF0BBE5354319FBDDE4FBDAFD6324386A6 PUSH1 0x1 DUP6 PUSH1 0x40 MLOAD PUSH2 0x22E1 SWAP3 SWAP2 SWAP1 PUSH2 0x3810 JUMP JUMPDEST PUSH1 0x40 MLOAD DUP1 SWAP2 SUB SWAP1 LOG4 JUMPDEST JUMPDEST POP POP POP JUMP JUMPDEST PUSH2 0x22F9 DUP4 PUSH2 0x1089 JUMP JUMPDEST PUSH2 0x2338 JUMPI PUSH1 0x40 MLOAD PUSH32 0x8C379A000000000000000000000000000000000000000000000000000000000 DUP2 MSTORE PUSH1 0x4 ADD PUSH2 0x232F SWAP1 PUSH2 0x38A7 JUMP JUMPDEST PUSH1 0x40 MLOAD DUP1 SWAP2 SUB SWAP1 REVERT JUMPDEST PUSH1 0x1 DUP3 PUSH1 0xFF AND EQ DUP1 PUSH2 0x234D JUMPI POP PUSH1 0x2 DUP3 PUSH1 0xFF AND EQ JUMPDEST PUSH2 0x238C JUMPI PUSH1 0x40 MLOAD PUSH32 0x8C379A000000000000000000000000000000000000000000000000000000000 DUP2 MSTORE PUSH1 0x4 ADD PUSH2 0x2383 SWAP1 PUSH2 0x390F JUMP JUMPDEST PUSH1 0x40 MLOAD DUP1 SWAP2 SUB SWAP1 REVERT JUMPDEST PUSH2 0x23F1 CALLER ADDRESS PUSH1 0x9 PUSH0 DUP6 PUSH1 0xFF AND PUSH1 0xFF AND DUP2 MSTORE PUSH1 0x20 ADD SWAP1 DUP2 MSTORE PUSH1 0x20 ADD PUSH0 KECCAK256 SLOAD PUSH1 0xA PUSH0 SWAP1 SLOAD SWAP1 PUSH2 0x100 EXP SWAP1 DIV PUSH20 0xFFFFFFFFFFFFFFFFFFFFFFFFFFFFFFFFFFFFFFFF AND PUSH20 0xFFFFFFFFFFFFFFFFFFFFFFFFFFFFFFFFFFFFFFFF AND PUSH2 0x1A50 SWAP1 SWAP4 SWAP3 SWAP2 SWAP1 PUSH4 0xFFFFFFFF AND JUMP JUMPDEST PUSH1 0x1 DUP2 PUSH1 0xFF AND GT DUP1 ISZERO PUSH2 0x2419 JUMPI POP PUSH1 0x1 PUSH1 0x14 SWAP1 SLOAD SWAP1 PUSH2 0x100 EXP SWAP1 DIV PUSH1 0xFF AND PUSH1 0xFF AND DUP2 PUSH1 0xFF AND GT ISZERO JUMPDEST PUSH2 0x2458 JUMPI PUSH1 0x40 MLOAD PUSH32 0x8C379A000000000000000000000000000000000000000000000000000000000 DUP2 MSTORE PUSH1 0x4 ADD PUSH2 0x244F SWAP1 PUSH2 0x3977 JUMP JUMPDEST PUSH1 0x40 MLOAD DUP1 SWAP2 SUB SWAP1 REVERT JUMPDEST PUSH1 0x1 DUP3 PUSH1 0xFF AND SUB PUSH2 0x2828 JUMPI PUSH1 0x2 PUSH0 DUP5 PUSH20 0xFFFFFFFFFFFFFFFFFFFFFFFFFFFFFFFFFFFFFFFF AND PUSH20 0xFFFFFFFFFFFFFFFFFFFFFFFFFFFFFFFFFFFFFFFF AND DUP2 MSTORE PUSH1 0x20 ADD SWAP1 DUP2 MSTORE PUSH1 0x20 ADD PUSH0 KECCAK256 PUSH1 0x3 ADD PUSH0 PUSH1 0x1 DUP4 PUSH2 0x24B1 SWAP2 SWAP1 PUSH2 0x351F JUMP JUMPDEST PUSH1 0xFF AND PUSH1 0xFF AND DUP2 MSTORE PUSH1 0x20 ADD SWAP1 DUP2 MSTORE PUSH1 0x20 ADD PUSH0 KECCAK256 PUSH0 SWAP1 SLOAD SWAP1 PUSH2 0x100 EXP SWAP1 DIV PUSH1 0xFF AND PUSH2 0x2510 JUMPI PUSH1 0x40 MLOAD PUSH32 0x8C379A000000000000000000000000000000000000000000000000000000000 DUP2 MSTORE PUSH1 0x4 ADD PUSH2 0x2507 SWAP1 PUSH2 0x39DF JUMP JUMPDEST PUSH1 0x40 MLOAD DUP1 SWAP2 SUB SWAP1 REVERT JUMPDEST PUSH1 0x2 PUSH0 DUP5 PUSH20 0xFFFFFFFFFFFFFFFFFFFFFFFFFFFFFFFFFFFFFFFF AND PUSH20 0xFFFFFFFFFFFFFFFFFFFFFFFFFFFFFFFFFFFFFFFF AND DUP2 MSTORE PUSH1 0x20 ADD SWAP1 DUP2 MSTORE PUSH1 0x20 ADD PUSH0 KECCAK256 PUSH1 0x3 ADD PUSH0 DUP3 PUSH1 0xFF AND PUSH1 0xFF AND DUP2 MSTORE PUSH1 0x20 ADD SWAP1 DUP2 MSTORE PUSH1 0x20 ADD PUSH0 KECCAK256 PUSH0 SWAP1 SLOAD SWAP1 PUSH2 0x100 EXP SWAP1 DIV PUSH1 0xFF AND ISZERO PUSH2 0x25B2 JUMPI PUSH1 0x40 MLOAD PUSH32 0x8C379A000000000000000000000000000000000000000000000000000000000 DUP2 MSTORE PUSH1 0x4 ADD PUSH2 0x25A9 SWAP1 PUSH2 0x3A47 JUMP JUMPDEST PUSH1 0x40 MLOAD DUP1 SWAP2 SUB SWAP1 REVERT JUMPDEST PUSH1 0x2 PUSH0 DUP5 PUSH20 0xFFFFFFFFFFFFFFFFFFFFFFFFFFFFFFFFFFFFFFFF AND PUSH20 0xFFFFFFFFFFFFFFFFFFFFFFFFFFFFFFFFFFFFFFFF AND DUP2 MSTORE PUSH1 0x20 ADD SWAP1 DUP2 MSTORE PUSH1 0x20 ADD PUSH0 KECCAK256 PUSH1 0x4 ADD PUSH0 PUSH1 0x1 DUP4 PUSH2 0x2600 SWAP2 SWAP1 PUSH2 0x351F JUMP JUMPDEST PUSH1 0xFF AND PUSH1 0xFF AND DUP2 MSTORE PUSH1 0x20 ADD SWAP1 DUP2 MSTORE PUSH1 0x20 ADD PUSH0 KECCAK256 PUSH1 0x2 ADD PUSH0 SWAP1 SLOAD SWAP1 PUSH2 0x100 EXP SWAP1 DIV PUSH1 0xFF AND ISZERO PUSH2 0x26A4 JUMPI PUSH0 PUSH1 0x2 PUSH0 DUP6 PUSH20 0xFFFFFFFFFFFFFFFFFFFFFFFFFFFFFFFFFFFFFFFF AND PUSH20 0xFFFFFFFFFFFFFFFFFFFFFFFFFFFFFFFFFFFFFFFF AND DUP2 MSTORE PUSH1 0x20 ADD SWAP1 DUP2 MSTORE PUSH1 0x20 ADD PUSH0 KECCAK256 PUSH1 0x4 ADD PUSH0 PUSH1 0x1 DUP5 PUSH2 0x2677 SWAP2 SWAP1 PUSH2 0x351F JUMP JUMPDEST PUSH1 0xFF AND PUSH1 0xFF AND DUP2 MSTORE PUSH1 0x20 ADD SWAP1 DUP2 MSTORE PUSH1 0x20 ADD PUSH0 KECCAK256 PUSH1 0x2 ADD PUSH0 PUSH2 0x100 EXP DUP2 SLOAD DUP2 PUSH1 0xFF MUL NOT AND SWAP1 DUP4 ISZERO ISZERO MUL OR SWAP1 SSTORE POP JUMPDEST PUSH0 PUSH2 0x26AF DUP5 DUP4 PUSH2 0x18AC JUMP JUMPDEST SWAP1 POP DUP1 PUSH1 0x2 PUSH0 DUP7 PUSH20 0xFFFFFFFFFFFFFFFFFFFFFFFFFFFFFFFFFFFFFFFF AND PUSH20 0xFFFFFFFFFFFFFFFFFFFFFFFFFFFFFFFFFFFFFFFF AND DUP2 MSTORE PUSH1 0x20 ADD SWAP1 DUP2 MSTORE PUSH1 0x20 ADD PUSH0 KECCAK256 PUSH1 0x4 ADD PUSH0 DUP5 PUSH1 0xFF AND PUSH1 0xFF AND DUP2 MSTORE PUSH1 0x20 ADD SWAP1 DUP2 MSTORE PUSH1 0x20 ADD PUSH0 KECCAK256 PUSH0 ADD PUSH0 PUSH2 0x100 EXP DUP2 SLOAD DUP2 PUSH20 0xFFFFFFFFFFFFFFFFFFFFFFFFFFFFFFFFFFFFFFFF MUL NOT AND SWAP1 DUP4 PUSH20 0xFFFFFFFFFFFFFFFFFFFFFFFFFFFFFFFFFFFFFFFF AND MUL OR SWAP1 SSTORE POP PUSH1 0x1 PUSH1 0x2 PUSH0 DUP7 PUSH20 0xFFFFFFFFFFFFFFFFFFFFFFFFFFFFFFFFFFFFFFFF AND PUSH20 0xFFFFFFFFFFFFFFFFFFFFFFFFFFFFFFFFFFFFFFFF AND DUP2 MSTORE PUSH1 0x20 ADD SWAP1 DUP2 MSTORE PUSH1 0x20 ADD PUSH0 KECCAK256 PUSH1 0x3 ADD PUSH0 DUP5 PUSH1 0xFF AND PUSH1 0xFF AND DUP2 MSTORE PUSH1 0x20 ADD SWAP1 DUP2 MSTORE PUSH1 0x20 ADD PUSH0 KECCAK256 PUSH0 PUSH2 0x100 EXP DUP2 SLOAD DUP2 PUSH1 0xFF MUL NOT AND SWAP1 DUP4 ISZERO ISZERO MUL OR SWAP1 SSTORE POP PUSH2 0x27BE DUP5 DUP3 DUP5 PUSH2 0x1AD9 JUMP JUMPDEST DUP1 PUSH20 0xFFFFFFFFFFFFFFFFFFFFFFFFFFFFFFFFFFFFFFFF AND DUP5 PUSH20 0xFFFFFFFFFFFFFFFFFFFFFFFFFFFFFFFFFFFFFFFF AND PUSH32 0x18A92DF19FD94D6CFFF209966673A5CA05A1C8E2BB68E097FCE2BDC2ED811119 PUSH1 0x1 DUP6 PUSH1 0x40 MLOAD PUSH2 0x281E SWAP3 SWAP2 SWAP1 PUSH2 0x3810 JUMP JUMPDEST PUSH1 0x40 MLOAD DUP1 SWAP2 SUB SWAP1 LOG3 POP JUMPDEST POP POP POP JUMP JUMPDEST PUSH0 PUSH2 0x2871 DUP3 PUSH1 0x40 MLOAD DUP1 PUSH1 0x60 ADD PUSH1 0x40 MSTORE DUP1 PUSH1 0x21 DUP2 MSTORE PUSH1 0x20 ADD PUSH2 0x3C83 PUSH1 0x21 SWAP2 CODECOPY DUP6 PUSH20 0xFFFFFFFFFFFFFFFFFFFFFFFFFFFFFFFFFFFFFFFF AND PUSH2 0x29C0 SWAP1 SWAP3 SWAP2 SWAP1 PUSH4 0xFFFFFFFF AND JUMP JUMPDEST SWAP1 POP PUSH0 DUP2 MLOAD GT ISZERO PUSH2 0x28D0 JUMPI DUP1 DUP1 PUSH1 0x20 ADD SWAP1 MLOAD DUP2 ADD SWAP1 PUSH2 0x2890 SWAP2 SWAP1 PUSH2 0x3673 JUMP JUMPDEST PUSH2 0x28CF JUMPI PUSH1 0x40 MLOAD PUSH32 0x8C379A000000000000000000000000000000000000000000000000000000000 DUP2 MSTORE PUSH1 0x4 ADD PUSH2 0x28C6 SWAP1 PUSH2 0x3AD5 JUMP JUMPDEST PUSH1 0x40 MLOAD DUP1 SWAP2 SUB SWAP1 REVERT JUMPDEST JUMPDEST POP POP POP JUMP JUMPDEST PUSH0 DUP1 PUSH2 0x28E3 DUP7 DUP7 DUP7 DUP7 PUSH2 0x29D7 JUMP JUMPDEST SWAP2 POP SWAP2 POP PUSH2 0x294A DUP3 PUSH1 0x9 PUSH0 DUP7 PUSH1 0xFF AND PUSH1 0xFF AND DUP2 MSTORE PUSH1 0x20 ADD SWAP1 DUP2 MSTORE PUSH1 0x20 ADD PUSH0 KECCAK256 SLOAD PUSH1 0xA PUSH0 SWAP1 SLOAD SWAP1 PUSH2 0x100 EXP SWAP1 DIV PUSH20 0xFFFFFFFFFFFFFFFFFFFFFFFFFFFFFFFFFFFFFFFF AND PUSH20 0xFFFFFFFFFFFFFFFFFFFFFFFFFFFFFFFFFFFFFFFF AND PUSH2 0x2B64 SWAP1 SWAP3 SWAP2 SWAP1 PUSH4 0xFFFFFFFF AND JUMP JUMPDEST DUP1 ISZERO PUSH2 0x29B8 JUMPI DUP2 PUSH20 0xFFFFFFFFFFFFFFFFFFFFFFFFFFFFFFFFFFFFFFFF AND DUP6 PUSH20 0xFFFFFFFFFFFFFFFFFFFFFFFFFFFFFFFFFFFFFFFF AND PUSH32 0xCB6AA629EE1FAEB728BC6CCE262180355C663F2F7B0B56AC9D99D56C889BB295 DUP7 DUP7 PUSH1 0x40 MLOAD PUSH2 0x29AF SWAP3 SWAP2 SWAP1 PUSH2 0x3AF3 JUMP JUMPDEST PUSH1 0x40 MLOAD DUP1 SWAP2 SUB SWAP1 LOG3 JUMPDEST POP POP POP POP POP POP JUMP JUMPDEST PUSH1 0x60 PUSH2 0x29CE DUP5 DUP5 PUSH0 DUP6 PUSH2 0x2BEA JUMP JUMPDEST SWAP1 POP SWAP4 SWAP3 POP POP POP JUMP JUMPDEST PUSH0 DUP1 PUSH0 DUP7 SWAP1 POP PUSH0 PUSH1 0x1 DUP7 PUSH1 0xFF AND SUB PUSH2 0x2B58 JUMPI JUMPDEST PUSH1 0x1 ISZERO PUSH2 0x2B57 JUMPI PUSH1 0x2 PUSH0 DUP4 PUSH20 0xFFFFFFFFFFFFFFFFFFFFFFFFFFFFFFFFFFFFFFFF AND PUSH20 0xFFFFFFFFFFFFFFFFFFFFFFFFFFFFFFFFFFFFFFFF AND DUP2 MSTORE PUSH1 0x20 ADD SWAP1 DUP2 MSTORE PUSH1 0x20 ADD PUSH0 KECCAK256 PUSH1 0x4 ADD PUSH0 DUP7 PUSH1 0xFF AND PUSH1 0xFF AND DUP2 MSTORE PUSH1 0x20 ADD SWAP1 DUP2 MSTORE PUSH1 0x20 ADD PUSH0 KECCAK256 PUSH1 0x2 ADD PUSH0 SWAP1 SLOAD SWAP1 PUSH2 0x100 EXP SWAP1 DIV PUSH1 0xFF AND ISZERO PUSH2 0x2B45 JUMPI DUP7 PUSH20 0xFFFFFFFFFFFFFFFFFFFFFFFFFFFFFFFFFFFFFFFF AND DUP3 PUSH20 0xFFFFFFFFFFFFFFFFFFFFFFFFFFFFFFFFFFFFFFFF AND PUSH32 0x7678B5E798B871147619C77C31D658DEF8F71FD554F6130BA85FE1BBAE8D5BF PUSH1 0x1 DUP9 PUSH1 0x40 MLOAD PUSH2 0x2ABB SWAP3 SWAP2 SWAP1 PUSH2 0x3810 JUMP JUMPDEST PUSH1 0x40 MLOAD DUP1 SWAP2 SUB SWAP1 LOG3 PUSH1 0x1 SWAP1 POP PUSH1 0x2 PUSH0 DUP4 PUSH20 0xFFFFFFFFFFFFFFFFFFFFFFFFFFFFFFFFFFFFFFFF AND PUSH20 0xFFFFFFFFFFFFFFFFFFFFFFFFFFFFFFFFFFFFFFFF AND DUP2 MSTORE PUSH1 0x20 ADD SWAP1 DUP2 MSTORE PUSH1 0x20 ADD PUSH0 KECCAK256 PUSH1 0x4 ADD PUSH0 DUP7 PUSH1 0xFF AND PUSH1 0xFF AND DUP2 MSTORE PUSH1 0x20 ADD SWAP1 DUP2 MSTORE PUSH1 0x20 ADD PUSH0 KECCAK256 PUSH0 ADD PUSH0 SWAP1 SLOAD SWAP1 PUSH2 0x100 EXP SWAP1 DIV PUSH20 0xFFFFFFFFFFFFFFFFFFFFFFFFFFFFFFFFFFFFFFFF AND SWAP2 POP PUSH2 0x2B52 JUMP JUMPDEST DUP2 DUP2 SWAP4 POP SWAP4 POP POP POP PUSH2 0x2B5B JUMP JUMPDEST PUSH2 0x29EA JUMP JUMPDEST JUMPDEST POP POP JUMPDEST SWAP5 POP SWAP5 SWAP3 POP POP POP JUMP JUMPDEST PUSH2 0x2BE5 DUP4 PUSH4 0xA9059CBB PUSH1 0xE0 SHL DUP5 DUP5 PUSH1 0x40 MLOAD PUSH1 0x24 ADD PUSH2 0x2B83 SWAP3 SWAP2 SWAP1 PUSH2 0x3622 JUMP JUMPDEST PUSH1 0x40 MLOAD PUSH1 0x20 DUP2 DUP4 SUB SUB DUP2 MSTORE SWAP1 PUSH1 0x40 MSTORE SWAP1 PUSH28 0xFFFFFFFFFFFFFFFFFFFFFFFFFFFFFFFFFFFFFFFFFFFFFFFFFFFFFFFF NOT AND PUSH1 0x20 DUP3 ADD DUP1 MLOAD PUSH28 0xFFFFFFFFFFFFFFFFFFFFFFFFFFFFFFFFFFFFFFFFFFFFFFFFFFFFFFFF DUP4 DUP2 DUP4 AND OR DUP4 MSTORE POP POP POP POP PUSH2 0x282D JUMP JUMPDEST POP POP POP JUMP JUMPDEST PUSH1 0x60 DUP3 SELFBALANCE LT ISZERO PUSH2 0x2C2F JUMPI PUSH1 0x40 MLOAD PUSH32 0x8C379A000000000000000000000000000000000000000000000000000000000 DUP2 MSTORE PUSH1 0x4 ADD PUSH2 0x2C26 SWAP1 PUSH2 0x3B8A JUMP JUMPDEST PUSH1 0x40 MLOAD DUP1 SWAP2 SUB SWAP1 REVERT JUMPDEST PUSH0 DUP1 DUP7 PUSH20 0xFFFFFFFFFFFFFFFFFFFFFFFFFFFFFFFFFFFFFFFF AND DUP6 DUP8 PUSH1 0x40 MLOAD PUSH2 0x2C57 SWAP2 SWAP1 PUSH2 0x3BFA JUMP JUMPDEST PUSH0 PUSH1 0x40 MLOAD DUP1 DUP4 SUB DUP2 DUP6 DUP8 GAS CALL SWAP3 POP POP POP RETURNDATASIZE DUP1 PUSH0 DUP2 EQ PUSH2 0x2C91 JUMPI PUSH1 0x40 MLOAD SWAP2 POP PUSH1 0x1F NOT PUSH1 0x3F RETURNDATASIZE ADD AND DUP3 ADD PUSH1 0x40 MSTORE RETURNDATASIZE DUP3 MSTORE RETURNDATASIZE PUSH0 PUSH1 0x20 DUP5 ADD RETURNDATACOPY PUSH2 0x2C96 JUMP JUMPDEST PUSH1 0x60 SWAP2 POP JUMPDEST POP SWAP2 POP SWAP2 POP PUSH2 0x2CA6 DUP3 DUP3 DUP7 PUSH2 0x2CB2 JUMP JUMPDEST SWAP3 POP POP POP SWAP5 SWAP4 POP POP POP POP JUMP JUMPDEST PUSH1 0x60 DUP4 ISZERO PUSH2 0x2CD3 JUMPI PUSH0 DUP4 MLOAD SUB PUSH2 0x2CCA JUMPI DUP3 SWAP1 POP PUSH2 0x2D22 JUMP JUMPDEST DUP3 MLOAD DUP1 DUP5 PUSH1 0x20 ADD REVERT JUMPDEST PUSH0 DUP4 MLOAD GT ISZERO PUSH2 0x2CE5 JUMPI DUP3 MLOAD DUP1 DUP5 PUSH1 0x20 ADD REVERT JUMPDEST DUP2 PUSH1 0x40 MLOAD PUSH32 0x8C379A000000000000000000000000000000000000000000000000000000000 DUP2 MSTORE PUSH1 0x4 ADD PUSH2 0x2D19 SWAP2 SWAP1 PUSH2 0x3C62 JUMP JUMPDEST PUSH1 0x40 MLOAD DUP1 SWAP2 SUB SWAP1 REVERT JUMPDEST SWAP4 SWAP3 POP POP POP JUMP JUMPDEST DUP3 DUP1 SLOAD DUP3 DUP3 SSTORE SWAP1 PUSH0 MSTORE PUSH1 0x20 PUSH0 KECCAK256 SWAP1 DUP2 ADD SWAP3 DUP3 ISZERO PUSH2 0x2D9F JUMPI SWAP2 PUSH1 0x20 MUL DUP3 ADD JUMPDEST DUP3 DUP2 GT ISZERO PUSH2 0x2D9E JUMPI DUP3 MLOAD DUP3 PUSH0 PUSH2 0x100 EXP DUP2 SLOAD DUP2 PUSH20 0xFFFFFFFFFFFFFFFFFFFFFFFFFFFFFFFFFFFFFFFF MUL NOT AND SWAP1 DUP4 PUSH20 0xFFFFFFFFFFFFFFFFFFFFFFFFFFFFFFFFFFFFFFFF AND MUL OR SWAP1 SSTORE POP SWAP2 PUSH1 0x20 ADD SWAP2 SWAP1 PUSH1 0x1 ADD SWAP1 PUSH2 0x2D47 JUMP JUMPDEST JUMPDEST POP SWAP1 POP PUSH2 0x2DAC SWAP2 SWAP1 PUSH2 0x2DB0 JUMP JUMPDEST POP SWAP1 JUMP JUMPDEST JUMPDEST DUP1 DUP3 GT ISZERO PUSH2 0x2DC7 JUMPI PUSH0 DUP2 PUSH0 SWAP1 SSTORE POP PUSH1 0x1 ADD PUSH2 0x2DB1 JUMP JUMPDEST POP SWAP1 JUMP JUMPDEST PUSH0 DUP1 REVERT JUMPDEST PUSH0 PUSH20 0xFFFFFFFFFFFFFFFFFFFFFFFFFFFFFFFFFFFFFFFF DUP3 AND SWAP1 POP SWAP2 SWAP1 POP JUMP JUMPDEST PUSH0 PUSH2 0x2DF8 DUP3 PUSH2 0x2DCF JUMP JUMPDEST SWAP1 POP SWAP2 SWAP1 POP JUMP JUMPDEST PUSH2 0x2E08 DUP2 PUSH2 0x2DEE JUMP JUMPDEST DUP2 EQ PUSH2 0x2E12 JUMPI PUSH0 DUP1 REVERT JUMPDEST POP JUMP JUMPDEST PUSH0 DUP2 CALLDATALOAD SWAP1 POP PUSH2 0x2E23 DUP2 PUSH2 0x2DFF JUMP JUMPDEST SWAP3 SWAP2 POP POP JUMP JUMPDEST PUSH0 PUSH1 0xFF DUP3 AND SWAP1 POP SWAP2 SWAP1 POP JUMP JUMPDEST PUSH2 0x2E3E DUP2 PUSH2 0x2E29 JUMP JUMPDEST DUP2 EQ PUSH2 0x2E48 JUMPI PUSH0 DUP1 REVERT JUMPDEST POP JUMP JUMPDEST PUSH0 DUP2 CALLDATALOAD SWAP1 POP PUSH2 0x2E59 DUP2 PUSH2 0x2E35 JUMP JUMPDEST SWAP3 SWAP2 POP POP JUMP JUMPDEST PUSH0 DUP1 PUSH1 0x40 DUP4 DUP6 SUB SLT ISZERO PUSH2 0x2E75 JUMPI PUSH2 0x2E74 PUSH2 0x2DCB JUMP JUMPDEST JUMPDEST PUSH0 PUSH2 0x2E82 DUP6 DUP3 DUP7 ADD PUSH2 0x2E15 JUMP JUMPDEST SWAP3 POP POP PUSH1 0x20 PUSH2 0x2E93 DUP6 DUP3 DUP7 ADD PUSH2 0x2E4B JUMP JUMPDEST SWAP2 POP POP SWAP3 POP SWAP3 SWAP1 POP JUMP JUMPDEST PUSH0 DUP2 ISZERO ISZERO SWAP1 POP SWAP2 SWAP1 POP JUMP JUMPDEST PUSH2 0x2EB1 DUP2 PUSH2 0x2E9D JUMP JUMPDEST DUP3 MSTORE POP POP JUMP JUMPDEST PUSH0 PUSH1 0x20 DUP3 ADD SWAP1 POP PUSH2 0x2ECA PUSH0 DUP4 ADD DUP5 PUSH2 0x2EA8 JUMP JUMPDEST SWAP3 SWAP2 POP POP JUMP JUMPDEST PUSH0 PUSH2 0x2EDA DUP3 PUSH2 0x2DEE JUMP JUMPDEST SWAP1 POP SWAP2 SWAP1 POP JUMP JUMPDEST PUSH2 0x2EEA DUP2 PUSH2 0x2ED0 JUMP JUMPDEST DUP2 EQ PUSH2 0x2EF4 JUMPI PUSH0 DUP1 REVERT JUMPDEST POP JUMP JUMPDEST PUSH0 DUP2 CALLDATALOAD SWAP1 POP PUSH2 0x2F05 DUP2 PUSH2 0x2EE1 JUMP JUMPDEST SWAP3 SWAP2 POP POP JUMP JUMPDEST PUSH0 DUP1 PUSH0 PUSH1 0x60 DUP5 DUP7 SUB SLT ISZERO PUSH2 0x2F22 JUMPI PUSH2 0x2F21 PUSH2 0x2DCB JUMP JUMPDEST JUMPDEST PUSH0 PUSH2 0x2F2F DUP7 DUP3 DUP8 ADD PUSH2 0x2E15 JUMP JUMPDEST SWAP4 POP POP PUSH1 0x20 PUSH2 0x2F40 DUP7 DUP3 DUP8 ADD PUSH2 0x2E15 JUMP JUMPDEST SWAP3 POP POP PUSH1 0x40 PUSH2 0x2F51 DUP7 DUP3 DUP8 ADD PUSH2 0x2EF7 JUMP JUMPDEST SWAP2 POP POP SWAP3 POP SWAP3 POP SWAP3 JUMP JUMPDEST PUSH0 PUSH1 0x20 DUP3 DUP5 SUB SLT ISZERO PUSH2 0x2F70 JUMPI PUSH2 0x2F6F PUSH2 0x2DCB JUMP JUMPDEST JUMPDEST PUSH0 PUSH2 0x2F7D DUP5 DUP3 DUP6 ADD PUSH2 0x2E15 JUMP JUMPDEST SWAP2 POP POP SWAP3 SWAP2 POP POP JUMP JUMPDEST PUSH0 DUP2 SWAP1 POP SWAP2 SWAP1 POP JUMP JUMPDEST PUSH2 0x2F98 DUP2 PUSH2 0x2F86 JUMP JUMPDEST DUP3 MSTORE POP POP JUMP JUMPDEST PUSH0 PUSH1 0x20 DUP3 ADD SWAP1 POP PUSH2 0x2FB1 PUSH0 DUP4 ADD DUP5 PUSH2 0x2F8F JUMP JUMPDEST SWAP3 SWAP2 POP POP JUMP JUMPDEST PUSH2 0x2FC0 DUP2 PUSH2 0x2E29 JUMP JUMPDEST DUP3 MSTORE POP POP JUMP JUMPDEST PUSH0 PUSH1 0x20 DUP3 ADD SWAP1 POP PUSH2 0x2FD9 PUSH0 DUP4 ADD DUP5 PUSH2 0x2FB7 JUMP JUMPDEST SWAP3 SWAP2 POP POP JUMP JUMPDEST PUSH2 0x2FE8 DUP2 PUSH2 0x2F86 JUMP JUMPDEST DUP2 EQ PUSH2 0x2FF2 JUMPI PUSH0 DUP1 REVERT JUMPDEST POP JUMP JUMPDEST PUSH0 DUP2 CALLDATALOAD SWAP1 POP PUSH2 0x3003 DUP2 PUSH2 0x2FDF JUMP JUMPDEST SWAP3 SWAP2 POP POP JUMP JUMPDEST PUSH0 PUSH1 0x20 DUP3 DUP5 SUB SLT ISZERO PUSH2 0x301E JUMPI PUSH2 0x301D PUSH2 0x2DCB JUMP JUMPDEST JUMPDEST PUSH0 PUSH2 0x302B DUP5 DUP3 DUP6 ADD PUSH2 0x2FF5 JUMP JUMPDEST SWAP2 POP POP SWAP3 SWAP2 POP POP JUMP JUMPDEST PUSH2 0x303D DUP2 PUSH2 0x2DEE JUMP JUMPDEST DUP3 MSTORE POP POP JUMP JUMPDEST PUSH0 PUSH1 0x20 DUP3 ADD SWAP1 POP PUSH2 0x3056 PUSH0 DUP4 ADD DUP5 PUSH2 0x3034 JUMP JUMPDEST SWAP3 SWAP2 POP POP JUMP JUMPDEST PUSH0 DUP1 PUSH1 0x40 DUP4 DUP6 SUB SLT ISZERO PUSH2 0x3072 JUMPI PUSH2 0x3071 PUSH2 0x2DCB JUMP JUMPDEST JUMPDEST PUSH0 PUSH2 0x307F DUP6 DUP3 DUP7 ADD PUSH2 0x2E15 JUMP JUMPDEST SWAP3 POP POP PUSH1 0x20 PUSH2 0x3090 DUP6 DUP3 DUP7 ADD PUSH2 0x2E15 JUMP JUMPDEST SWAP2 POP POP SWAP3 POP SWAP3 SWAP1 POP JUMP JUMPDEST PUSH0 DUP2 MLOAD SWAP1 POP SWAP2 SWAP1 POP JUMP JUMPDEST PUSH0 DUP3 DUP3 MSTORE PUSH1 0x20 DUP3 ADD SWAP1 POP SWAP3 SWAP2 POP POP JUMP JUMPDEST PUSH0 DUP2 SWAP1 POP PUSH1 0x20 DUP3 ADD SWAP1 POP SWAP2 SWAP1 POP JUMP JUMPDEST PUSH2 0x30CC DUP2 PUSH2 0x2DEE JUMP JUMPDEST DUP3 MSTORE POP POP JUMP JUMPDEST PUSH0 PUSH2 0x30DD DUP4 DUP4 PUSH2 0x30C3 JUMP JUMPDEST PUSH1 0x20 DUP4 ADD SWAP1 POP SWAP3 SWAP2 POP POP JUMP JUMPDEST PUSH0 PUSH1 0x20 DUP3 ADD SWAP1 POP SWAP2 SWAP1 POP JUMP JUMPDEST PUSH0 PUSH2 0x30FF DUP3 PUSH2 0x309A JUMP JUMPDEST PUSH2 0x3109 DUP2 DUP6 PUSH2 0x30A4 JUMP JUMPDEST SWAP4 POP PUSH2 0x3114 DUP4 PUSH2 0x30B4 JUMP JUMPDEST DUP1 PUSH0 JUMPDEST DUP4 DUP2 LT ISZERO PUSH2 0x3144 JUMPI DUP2 MLOAD PUSH2 0x312B DUP9 DUP3 PUSH2 0x30D2 JUMP JUMPDEST SWAP8 POP PUSH2 0x3136 DUP4 PUSH2 0x30E9 JUMP JUMPDEST SWAP3 POP POP PUSH1 0x1 DUP2 ADD SWAP1 POP PUSH2 0x3117 JUMP JUMPDEST POP DUP6 SWAP4 POP POP POP POP SWAP3 SWAP2 POP POP JUMP JUMPDEST PUSH0 PUSH1 0x60 DUP3 ADD SWAP1 POP PUSH2 0x3164 PUSH0 DUP4 ADD DUP7 PUSH2 0x3034 JUMP JUMPDEST DUP2 DUP2 SUB PUSH1 0x20 DUP4 ADD MSTORE PUSH2 0x3176 DUP2 DUP6 PUSH2 0x30F5 JUMP JUMPDEST SWAP1 POP PUSH2 0x3185 PUSH1 0x40 DUP4 ADD DUP5 PUSH2 0x2EA8 JUMP JUMPDEST SWAP5 SWAP4 POP POP POP POP JUMP JUMPDEST PUSH0 PUSH1 0x60 DUP3 ADD SWAP1 POP PUSH2 0x31A0 PUSH0 DUP4 ADD DUP7 PUSH2 0x2F8F JUMP JUMPDEST PUSH2 0x31AD PUSH1 0x20 DUP4 ADD DUP6 PUSH2 0x3034 JUMP JUMPDEST PUSH2 0x31BA PUSH1 0x40 DUP4 ADD DUP5 PUSH2 0x2F8F JUMP JUMPDEST SWAP5 SWAP4 POP POP POP POP JUMP JUMPDEST PUSH0 DUP1 PUSH0 PUSH1 0x60 DUP5 DUP7 SUB SLT ISZERO PUSH2 0x31D9 JUMPI PUSH2 0x31D8 PUSH2 0x2DCB JUMP JUMPDEST JUMPDEST PUSH0 PUSH2 0x31E6 DUP7 DUP3 DUP8 ADD PUSH2 0x2E15 JUMP JUMPDEST SWAP4 POP POP PUSH1 0x20 PUSH2 0x31F7 DUP7 DUP3 DUP8 ADD PUSH2 0x2E4B JUMP JUMPDEST SWAP3 POP POP PUSH1 0x40 PUSH2 0x3208 DUP7 DUP3 DUP8 ADD PUSH2 0x2E4B JUMP JUMPDEST SWAP2 POP POP SWAP3 POP SWAP3 POP SWAP3 JUMP JUMPDEST PUSH0 DUP1 PUSH1 0x40 DUP4 DUP6 SUB SLT ISZERO PUSH2 0x3228 JUMPI PUSH2 0x3227 PUSH2 0x2DCB JUMP JUMPDEST JUMPDEST PUSH0 PUSH2 0x3235 DUP6 DUP3 DUP7 ADD PUSH2 0x2E4B JUMP JUMPDEST SWAP3 POP POP PUSH1 0x20 PUSH2 0x3246 DUP6 DUP3 DUP7 ADD PUSH2 0x2E4B JUMP JUMPDEST SWAP2 POP POP SWAP3 POP SWAP3 SWAP1 POP JUMP JUMPDEST PUSH0 DUP2 SWAP1 POP SWAP2 SWAP1 POP JUMP JUMPDEST PUSH0 PUSH2 0x3273 PUSH2 0x326E PUSH2 0x3269 DUP5 PUSH2 0x2DCF JUMP JUMPDEST PUSH2 0x3250 JUMP JUMPDEST PUSH2 0x2DCF JUMP JUMPDEST SWAP1 POP SWAP2 SWAP1 POP JUMP JUMPDEST PUSH0 PUSH2 0x3284 DUP3 PUSH2 0x3259 JUMP JUMPDEST SWAP1 POP SWAP2 SWAP1 POP JUMP JUMPDEST PUSH0 PUSH2 0x3295 DUP3 PUSH2 0x327A JUMP JUMPDEST SWAP1 POP SWAP2 SWAP1 POP JUMP JUMPDEST PUSH2 0x32A5 DUP2 PUSH2 0x328B JUMP JUMPDEST DUP3 MSTORE POP POP JUMP JUMPDEST PUSH0 PUSH1 0x20 DUP3 ADD SWAP1 POP PUSH2 0x32BE PUSH0 DUP4 ADD DUP5 PUSH2 0x329C JUMP JUMPDEST SWAP3 SWAP2 POP POP JUMP JUMPDEST PUSH0 PUSH1 0x20 DUP3 DUP5 SUB SLT ISZERO PUSH2 0x32D9 JUMPI PUSH2 0x32D8 PUSH2 0x2DCB JUMP JUMPDEST JUMPDEST PUSH0 PUSH2 0x32E6 DUP5 DUP3 DUP6 ADD PUSH2 0x2E4B JUMP JUMPDEST SWAP2 POP POP SWAP3 SWAP2 POP POP JUMP JUMPDEST PUSH32 0x4E487B7100000000000000000000000000000000000000000000000000000000 PUSH0 MSTORE PUSH1 0x11 PUSH1 0x4 MSTORE PUSH1 0x24 PUSH0 REVERT JUMPDEST PUSH0 PUSH2 0x3326 DUP3 PUSH2 0x2F86 JUMP JUMPDEST SWAP2 POP PUSH2 0x3331 DUP4 PUSH2 0x2F86 JUMP JUMPDEST SWAP3 POP DUP3 DUP3 MUL PUSH2 0x333F DUP2 PUSH2 0x2F86 JUMP JUMPDEST SWAP2 POP DUP3 DUP3 DIV DUP5 EQ DUP4 ISZERO OR PUSH2 0x3356 JUMPI PUSH2 0x3355 PUSH2 0x32EF JUMP JUMPDEST JUMPDEST POP SWAP3 SWAP2 POP POP JUMP JUMPDEST PUSH0 PUSH2 0x3367 DUP3 PUSH2 0x2F86 JUMP JUMPDEST SWAP2 POP PUSH2 0x3372 DUP4 PUSH2 0x2F86 JUMP JUMPDEST SWAP3 POP DUP3 DUP3 ADD SWAP1 POP DUP1 DUP3 GT ISZERO PUSH2 0x338A JUMPI PUSH2 0x3389 PUSH2 0x32EF JUMP JUMPDEST JUMPDEST SWAP3 SWAP2 POP POP JUMP JUMPDEST PUSH0 DUP3 DUP3 MSTORE PUSH1 0x20 DUP3 ADD SWAP1 POP SWAP3 SWAP2 POP POP JUMP JUMPDEST PUSH32 0x7573657220657869737473000000000000000000000000000000000000000000 PUSH0 DUP3 ADD MSTORE POP JUMP JUMPDEST PUSH0 PUSH2 0x33D4 PUSH1 0xB DUP4 PUSH2 0x3390 JUMP JUMPDEST SWAP2 POP PUSH2 0x33DF DUP3 PUSH2 0x33A0 JUMP JUMPDEST PUSH1 0x20 DUP3 ADD SWAP1 POP SWAP2 SWAP1 POP JUMP JUMPDEST PUSH0 PUSH1 0x20 DUP3 ADD SWAP1 POP DUP2 DUP2 SUB PUSH0 DUP4 ADD MSTORE PUSH2 0x3401 DUP2 PUSH2 0x33C8 JUMP JUMPDEST SWAP1 POP SWAP2 SWAP1 POP JUMP JUMPDEST PUSH32 0x7265666572726572206E6F742065786973747300000000000000000000000000 PUSH0 DUP3 ADD MSTORE POP JUMP JUMPDEST PUSH0 PUSH2 0x343C PUSH1 0x13 DUP4 PUSH2 0x3390 JUMP JUMPDEST SWAP2 POP PUSH2 0x3447 DUP3 PUSH2 0x3408 JUMP JUMPDEST PUSH1 0x20 DUP3 ADD SWAP1 POP SWAP2 SWAP1 POP JUMP JUMPDEST PUSH0 PUSH1 0x20 DUP3 ADD SWAP1 POP DUP2 DUP2 SUB PUSH0 DUP4 ADD MSTORE PUSH2 0x3469 DUP2 PUSH2 0x3430 JUMP JUMPDEST SWAP1 POP SWAP2 SWAP1 POP JUMP JUMPDEST PUSH0 PUSH2 0x347A DUP3 PUSH2 0x2F86 JUMP JUMPDEST SWAP2 POP PUSH32 0xFFFFFFFFFFFFFFFFFFFFFFFFFFFFFFFFFFFFFFFFFFFFFFFFFFFFFFFFFFFFFFFF DUP3 SUB PUSH2 0x34AC JUMPI PUSH2 0x34AB PUSH2 0x32EF JUMP JUMPDEST JUMPDEST PUSH1 0x1 DUP3 ADD SWAP1 POP SWAP2 SWAP1 POP JUMP JUMPDEST PUSH32 0x6F6E6C794F776E65720000000000000000000000000000000000000000000000 PUSH0 DUP3 ADD MSTORE POP JUMP JUMPDEST PUSH0 PUSH2 0x34EB PUSH1 0x9 DUP4 PUSH2 0x3390 JUMP JUMPDEST SWAP2 POP PUSH2 0x34F6 DUP3 PUSH2 0x34B7 JUMP JUMPDEST PUSH1 0x20 DUP3 ADD SWAP1 POP SWAP2 SWAP1 POP JUMP JUMPDEST PUSH0 PUSH1 0x20 DUP3 ADD SWAP1 POP DUP2 DUP2 SUB PUSH0 DUP4 ADD MSTORE PUSH2 0x3518 DUP2 PUSH2 0x34DF JUMP JUMPDEST SWAP1 POP SWAP2 SWAP1 POP JUMP JUMPDEST PUSH0 PUSH2 0x3529 DUP3 PUSH2 0x2E29 JUMP JUMPDEST SWAP2 POP PUSH2 0x3534 DUP4 PUSH2 0x2E29 JUMP JUMPDEST SWAP3 POP DUP3 DUP3 SUB SWAP1 POP PUSH1 0xFF DUP2 GT ISZERO PUSH2 0x354D JUMPI PUSH2 0x354C PUSH2 0x32EF JUMP JUMPDEST JUMPDEST SWAP3 SWAP2 POP POP JUMP JUMPDEST PUSH0 PUSH2 0x355D DUP3 PUSH2 0x2E29 JUMP JUMPDEST SWAP2 POP PUSH1 0xFF DUP3 SUB PUSH2 0x3570 JUMPI PUSH2 0x356F PUSH2 0x32EF JUMP JUMPDEST JUMPDEST PUSH1 0x1 DUP3 ADD SWAP1 POP SWAP2 SWAP1 POP JUMP JUMPDEST PUSH32 0x63616E6E6F74207769746864726177206465706F73697420746F6B656E000000 PUSH0 DUP3 ADD MSTORE POP JUMP JUMPDEST PUSH0 PUSH2 0x35AF PUSH1 0x1D DUP4 PUSH2 0x3390 JUMP JUMPDEST SWAP2 POP PUSH2 0x35BA DUP3 PUSH2 0x357B JUMP JUMPDEST PUSH1 0x20 DUP3 ADD SWAP1 POP SWAP2 SWAP1 POP JUMP JUMPDEST PUSH0 PUSH1 0x20 DUP3 ADD SWAP1 POP DUP2 DUP2 SUB PUSH0 DUP4 ADD MSTORE PUSH2 0x35DC DUP2 PUSH2 0x35A3 JUMP JUMPDEST SWAP1 POP SWAP2 SWAP1 POP JUMP JUMPDEST PUSH0 DUP2 MLOAD SWAP1 POP PUSH2 0x35F1 DUP2 PUSH2 0x2FDF JUMP JUMPDEST SWAP3 SWAP2 POP POP JUMP JUMPDEST PUSH0 PUSH1 0x20 DUP3 DUP5 SUB SLT ISZERO PUSH2 0x360C JUMPI PUSH2 0x360B PUSH2 0x2DCB JUMP JUMPDEST JUMPDEST PUSH0 PUSH2 0x3619 DUP5 DUP3 DUP6 ADD PUSH2 0x35E3 JUMP JUMPDEST SWAP2 POP POP SWAP3 SWAP2 POP POP JUMP JUMPDEST PUSH0 PUSH1 0x40 DUP3 ADD SWAP1 POP PUSH2 0x3635 PUSH0 DUP4 ADD DUP6 PUSH2 0x3034 JUMP JUMPDEST PUSH2 0x3642 PUSH1 0x20 DUP4 ADD DUP5 PUSH2 0x2F8F JUMP JUMPDEST SWAP4 SWAP3 POP POP POP JUMP JUMPDEST PUSH2 0x3652 DUP2 PUSH2 0x2E9D JUMP JUMPDEST DUP2 EQ PUSH2 0x365C JUMPI PUSH0 DUP1 REVERT JUMPDEST POP JUMP JUMPDEST PUSH0 DUP2 MLOAD SWAP1 POP PUSH2 0x366D DUP2 PUSH2 0x3649 JUMP JUMPDEST SWAP3 SWAP2 POP POP JUMP JUMPDEST PUSH0 PUSH1 0x20 DUP3 DUP5 SUB SLT ISZERO PUSH2 0x3688 JUMPI PUSH2 0x3687 PUSH2 0x2DCB JUMP JUMPDEST JUMPDEST PUSH0 PUSH2 0x3695 DUP5 DUP3 DUP6 ADD PUSH2 0x365F JUMP JUMPDEST SWAP2 POP POP SWAP3 SWAP2 POP POP JUMP JUMPDEST PUSH0 PUSH1 0x60 DUP3 ADD SWAP1 POP PUSH2 0x36B1 PUSH0 DUP4 ADD DUP7 PUSH2 0x3034 JUMP JUMPDEST PUSH2 0x36BE PUSH1 0x20 DUP4 ADD DUP6 PUSH2 0x3034 JUMP JUMPDEST PUSH2 0x36CB PUSH1 0x40 DUP4 ADD DUP5 PUSH2 0x2F8F JUMP JUMPDEST SWAP5 SWAP4 POP POP POP POP JUMP JUMPDEST PUSH0 DUP2 SWAP1 POP SWAP2 SWAP1 POP JUMP JUMPDEST PUSH0 PUSH2 0x36F6 PUSH2 0x36F1 PUSH2 0x36EC DUP5 PUSH2 0x36D3 JUMP JUMPDEST PUSH2 0x3250 JUMP JUMPDEST PUSH2 0x2E29 JUMP JUMPDEST SWAP1 POP SWAP2 SWAP1 POP JUMP JUMPDEST PUSH2 0x3706 DUP2 PUSH2 0x36DC JUMP JUMPDEST DUP3 MSTORE POP POP JUMP JUMPDEST PUSH0 PUSH1 0x60 DUP3 ADD SWAP1 POP PUSH2 0x371F PUSH0 DUP4 ADD DUP7 PUSH2 0x36FD JUMP JUMPDEST PUSH2 0x372C PUSH1 0x20 DUP4 ADD DUP6 PUSH2 0x2FB7 JUMP JUMPDEST PUSH2 0x3739 PUSH1 0x40 DUP4 ADD DUP5 PUSH2 0x2FB7 JUMP JUMPDEST SWAP5 SWAP4 POP POP POP POP JUMP JUMPDEST PUSH0 DUP2 SWAP1 POP SWAP2 SWAP1 POP JUMP JUMPDEST PUSH0 PUSH2 0x3764 PUSH2 0x375F PUSH2 0x375A DUP5 PUSH2 0x3741 JUMP JUMPDEST PUSH2 0x3250 JUMP JUMPDEST PUSH2 0x2E29 JUMP JUMPDEST SWAP1 POP SWAP2 SWAP1 POP JUMP JUMPDEST PUSH2 0x3774 DUP2 PUSH2 0x374A JUMP JUMPDEST DUP3 MSTORE POP POP JUMP JUMPDEST PUSH0 PUSH1 0x60 DUP3 ADD SWAP1 POP PUSH2 0x378D PUSH0 DUP4 ADD DUP7 PUSH2 0x36FD JUMP JUMPDEST PUSH2 0x379A PUSH1 0x20 DUP4 ADD DUP6 PUSH2 0x2FB7 JUMP JUMPDEST PUSH2 0x37A7 PUSH1 0x40 DUP4 ADD DUP5 PUSH2 0x376B JUMP JUMPDEST SWAP5 SWAP4 POP POP POP POP JUMP JUMPDEST PUSH32 0x4E487B7100000000000000000000000000000000000000000000000000000000 PUSH0 MSTORE PUSH1 0x41 PUSH1 0x4 MSTORE PUSH1 0x24 PUSH0 REVERT JUMPDEST PUSH0 PUSH2 0x37E6 DUP3 PUSH2 0x2E29 JUMP JUMPDEST SWAP2 POP PUSH2 0x37F1 DUP4 PUSH2 0x2E29 JUMP JUMPDEST SWAP3 POP DUP3 DUP3 ADD SWAP1 POP PUSH1 0xFF DUP2 GT ISZERO PUSH2 0x380A JUMPI PUSH2 0x3809 PUSH2 0x32EF JUMP JUMPDEST JUMPDEST SWAP3 SWAP2 POP POP JUMP JUMPDEST PUSH0 PUSH1 0x40 DUP3 ADD SWAP1 POP PUSH2 0x3823 PUSH0 DUP4 ADD DUP6 PUSH2 0x36FD JUMP JUMPDEST PUSH2 0x3830 PUSH1 0x20 DUP4 ADD DUP5 PUSH2 0x2FB7 JUMP JUMPDEST SWAP4 SWAP3 POP POP POP JUMP JUMPDEST PUSH32 0x75736572206973206E6F74206578697374732E20526567697374657220666972 PUSH0 DUP3 ADD MSTORE PUSH32 0x73742E0000000000000000000000000000000000000000000000000000000000 PUSH1 0x20 DUP3 ADD MSTORE POP JUMP JUMPDEST PUSH0 PUSH2 0x3891 PUSH1 0x23 DUP4 PUSH2 0x3390 JUMP JUMPDEST SWAP2 POP PUSH2 0x389C DUP3 PUSH2 0x3837 JUMP JUMPDEST PUSH1 0x40 DUP3 ADD SWAP1 POP SWAP2 SWAP1 POP JUMP JUMPDEST PUSH0 PUSH1 0x20 DUP3 ADD SWAP1 POP DUP2 DUP2 SUB PUSH0 DUP4 ADD MSTORE PUSH2 0x38BE DUP2 PUSH2 0x3885 JUMP JUMPDEST SWAP1 POP SWAP2 SWAP1 POP JUMP JUMPDEST PUSH32 0x696E76616C6964206D6174726978000000000000000000000000000000000000 PUSH0 DUP3 ADD MSTORE POP JUMP JUMPDEST PUSH0 PUSH2 0x38F9 PUSH1 0xE DUP4 PUSH2 0x3390 JUMP JUMPDEST SWAP2 POP PUSH2 0x3904 DUP3 PUSH2 0x38C5 JUMP JUMPDEST PUSH1 0x20 DUP3 ADD SWAP1 POP SWAP2 SWAP1 POP JUMP JUMPDEST PUSH0 PUSH1 0x20 DUP3 ADD SWAP1 POP DUP2 DUP2 SUB PUSH0 DUP4 ADD MSTORE PUSH2 0x3926 DUP2 PUSH2 0x38ED JUMP JUMPDEST SWAP1 POP SWAP2 SWAP1 POP JUMP JUMPDEST PUSH32 0x696E76616C6964206C6576656C00000000000000000000000000000000000000 PUSH0 DUP3 ADD MSTORE POP JUMP JUMPDEST PUSH0 PUSH2 0x3961 PUSH1 0xD DUP4 PUSH2 0x3390 JUMP JUMPDEST SWAP2 POP PUSH2 0x396C DUP3 PUSH2 0x392D JUMP JUMPDEST PUSH1 0x20 DUP3 ADD SWAP1 POP SWAP2 SWAP1 POP JUMP JUMPDEST PUSH0 PUSH1 0x20 DUP3 ADD SWAP1 POP DUP2 DUP2 SUB PUSH0 DUP4 ADD MSTORE PUSH2 0x398E DUP2 PUSH2 0x3955 JUMP JUMPDEST SWAP1 POP SWAP2 SWAP1 POP JUMP JUMPDEST PUSH32 0x6275792070726576696F7573206C6576656C2066697273740000000000000000 PUSH0 DUP3 ADD MSTORE POP JUMP JUMPDEST PUSH0 PUSH2 0x39C9 PUSH1 0x18 DUP4 PUSH2 0x3390 JUMP JUMPDEST SWAP2 POP PUSH2 0x39D4 DUP3 PUSH2 0x3995 JUMP JUMPDEST PUSH1 0x20 DUP3 ADD SWAP1 POP SWAP2 SWAP1 POP JUMP JUMPDEST PUSH0 PUSH1 0x20 DUP3 ADD SWAP1 POP DUP2 DUP2 SUB PUSH0 DUP4 ADD MSTORE PUSH2 0x39F6 DUP2 PUSH2 0x39BD JUMP JUMPDEST SWAP1 POP SWAP2 SWAP1 POP JUMP JUMPDEST PUSH32 0x6C6576656C20616C726561647920616374697661746564000000000000000000 PUSH0 DUP3 ADD MSTORE POP JUMP JUMPDEST PUSH0 PUSH2 0x3A31 PUSH1 0x17 DUP4 PUSH2 0x3390 JUMP JUMPDEST SWAP2 POP PUSH2 0x3A3C DUP3 PUSH2 0x39FD JUMP JUMPDEST PUSH1 0x20 DUP3 ADD SWAP1 POP SWAP2 SWAP1 POP JUMP JUMPDEST PUSH0 PUSH1 0x20 DUP3 ADD SWAP1 POP DUP2 DUP2 SUB PUSH0 DUP4 ADD MSTORE PUSH2 0x3A5E DUP2 PUSH2 0x3A25 JUMP JUMPDEST SWAP1 POP SWAP2 SWAP1 POP JUMP JUMPDEST PUSH32 0x536166654552433230203A204552433230206F7065726174696F6E2064696420 PUSH0 DUP3 ADD MSTORE PUSH32 0x6E6F742073756363656564000000000000000000000000000000000000000000 PUSH1 0x20 DUP3 ADD MSTORE POP JUMP JUMPDEST PUSH0 PUSH2 0x3ABF PUSH1 0x2B DUP4 PUSH2 0x3390 JUMP JUMPDEST SWAP2 POP PUSH2 0x3ACA DUP3 PUSH2 0x3A65 JUMP JUMPDEST PUSH1 0x40 DUP3 ADD SWAP1 POP SWAP2 SWAP1 POP JUMP JUMPDEST PUSH0 PUSH1 0x20 DUP3 ADD SWAP1 POP DUP2 DUP2 SUB PUSH0 DUP4 ADD MSTORE PUSH2 0x3AEC DUP2 PUSH2 0x3AB3 JUMP JUMPDEST SWAP1 POP SWAP2 SWAP1 POP JUMP JUMPDEST PUSH0 PUSH1 0x40 DUP3 ADD SWAP1 POP PUSH2 0x3B06 PUSH0 DUP4 ADD DUP6 PUSH2 0x2FB7 JUMP JUMPDEST PUSH2 0x3B13 PUSH1 0x20 DUP4 ADD DUP5 PUSH2 0x2FB7 JUMP JUMPDEST SWAP4 SWAP3 POP POP POP JUMP JUMPDEST PUSH32 0x41646472657373203A20696E73756666696369656E742062616C616E63652066 PUSH0 DUP3 ADD MSTORE PUSH32 0x6F722063616C6C00000000000000000000000000000000000000000000000000 PUSH1 0x20 DUP3 ADD MSTORE POP JUMP JUMPDEST PUSH0 PUSH2 0x3B74 PUSH1 0x27 DUP4 PUSH2 0x3390 JUMP JUMPDEST SWAP2 POP PUSH2 0x3B7F DUP3 PUSH2 0x3B1A JUMP JUMPDEST PUSH1 0x40 DUP3 ADD SWAP1 POP SWAP2 SWAP1 POP JUMP JUMPDEST PUSH0 PUSH1 0x20 DUP3 ADD SWAP1 POP DUP2 DUP2 SUB PUSH0 DUP4 ADD MSTORE PUSH2 0x3BA1 DUP2 PUSH2 0x3B68 JUMP JUMPDEST SWAP1 POP SWAP2 SWAP1 POP JUMP JUMPDEST PUSH0 DUP2 MLOAD SWAP1 POP SWAP2 SWAP1 POP JUMP JUMPDEST PUSH0 DUP2 SWAP1 POP SWAP3 SWAP2 POP POP JUMP JUMPDEST DUP3 DUP2 DUP4 MCOPY PUSH0 DUP4 DUP4 ADD MSTORE POP POP POP JUMP JUMPDEST PUSH0 PUSH2 0x3BD4 DUP3 PUSH2 0x3BA8 JUMP JUMPDEST PUSH2 0x3BDE DUP2 DUP6 PUSH2 0x3BB2 JUMP JUMPDEST SWAP4 POP PUSH2 0x3BEE DUP2 DUP6 PUSH1 0x20 DUP7 ADD PUSH2 0x3BBC JUMP JUMPDEST DUP1 DUP5 ADD SWAP2 POP POP SWAP3 SWAP2 POP POP JUMP JUMPDEST PUSH0 PUSH2 0x3C05 DUP3 DUP5 PUSH2 0x3BCA JUMP JUMPDEST SWAP2 POP DUP2 SWAP1 POP SWAP3 SWAP2 POP POP JUMP JUMPDEST PUSH0 DUP2 MLOAD SWAP1 POP SWAP2 SWAP1 POP JUMP JUMPDEST PUSH0 PUSH1 0x1F NOT PUSH1 0x1F DUP4 ADD AND SWAP1 POP SWAP2 SWAP1 POP JUMP JUMPDEST PUSH0 PUSH2 0x3C34 DUP3 PUSH2 0x3C10 JUMP JUMPDEST PUSH2 0x3C3E DUP2 DUP6 PUSH2 0x3390 JUMP JUMPDEST SWAP4 POP PUSH2 0x3C4E DUP2 DUP6 PUSH1 0x20 DUP7 ADD PUSH2 0x3BBC JUMP JUMPDEST PUSH2 0x3C57 DUP2 PUSH2 0x3C1A JUMP JUMPDEST DUP5 ADD SWAP2 POP POP SWAP3 SWAP2 POP POP JUMP JUMPDEST PUSH0 PUSH1 0x20 DUP3 ADD SWAP1 POP DUP2 DUP2 SUB PUSH0 DUP4 ADD MSTORE PUSH2 0x3C7A DUP2 DUP5 PUSH2 0x3C2A JUMP JUMPDEST SWAP1 POP SWAP3 SWAP2 POP POP JUMP INVALID MSTORE8 PUSH2 0x6665 GASLIMIT MSTORE NUMBER ORIGIN ADDRESS KECCAK256 GASPRICE KECCAK256 PUSH13 0x6F77206C6576656C2063616C6C KECCAK256 PUSH7 0x61696C6564A264 PUSH10 0x70667358221220A347D6 0xED 0xAC GT PUSH13 0x578E625EFD6891BE39D689E26D 0xAA CREATE2 0x4E RETURN 0xB1 0xE 0xB0 0x21 CALLDATACOPY 0xC2 PUSH4 0x6064736F PUSH13 0x634300081A0033000000000000 "
				},
				"gasEstimates": {
					"creation": {
						"codeDepositCost": "3115400",
						"executionCost": "3434",
						"totalCost": "3118834"
					},
					"external": {
						"": "infinite",
						"BASIC_PRICE()": "2492",
						"LAST_LEVEL()": "2607",
						"balances(address)": "2870",
						"buyNewLevel(uint8,uint8)": "infinite",
						"buyNewLevelFor(address,uint8,uint8)": "infinite",
						"changeLock()": "28804",
						"contractOwner()": "2597",
						"depositToken()": "infinite",
						"findFreeX3Referrer(address,uint8)": "infinite",
						"id1()": "2619",
						"idToAddress(uint256)": "2939",
						"impl()": "2550",
						"init(address,address,address)": "infinite",
						"isUserExists(address)": "2938",
						"lastUserId()": "2559",
						"levelPrice(uint8)": "2826",
						"locked()": "2510",
						"multisig()": "2575",
						"registrationExt(address)": "infinite",
						"registrationFor(address,address)": "infinite",
						"userIds(uint256)": "2872",
						"users(address)": "infinite",
						"usersActiveX3Levels(address,uint8)": "3165",
						"usersX3Matrix(address,uint8)": "infinite",
						"withdrawLostTokens(address)": "infinite"
					},
					"internal": {
						"_buyNewLevel(address,uint8,uint8)": "infinite",
						"bytesToAddress(bytes memory)": "infinite",
						"findBUSDReceiver(address,address,uint8,uint8)": "infinite",
						"registration(address,address)": "infinite",
						"sendBUSDDividends(address,address,uint8,uint8)": "infinite",
						"updateX3Referrer(address,address,uint8)": "infinite"
					}
				},
				"methodIdentifiers": {
					"BASIC_PRICE()": "9ac7e09e",
					"LAST_LEVEL()": "29c70400",
					"balances(address)": "27e235e3",
					"buyNewLevel(uint8,uint8)": "be389d57",
					"buyNewLevelFor(address,uint8,uint8)": "b99a9671",
					"changeLock()": "f07b62be",
					"contractOwner()": "ce606ee0",
					"depositToken()": "c89039c5",
					"findFreeX3Referrer(address,uint8)": "fa45323d",
					"id1()": "517999bc",
					"idToAddress(uint256)": "2a2d0c47",
					"impl()": "8abf6077",
					"init(address,address,address)": "184b9559",
					"isUserExists(address)": "509222cd",
					"lastUserId()": "348d4487",
					"levelPrice(uint8)": "ecabdf79",
					"locked()": "cf309012",
					"multisig()": "4783c35b",
					"registrationExt(address)": "797eee24",
					"registrationFor(address,address)": "38d7822b",
					"userIds(uint256)": "4635fd68",
					"users(address)": "a87430ba",
					"usersActiveX3Levels(address,uint8)": "07279e2a",
					"usersX3Matrix(address,uint8)": "83ba31b2",
					"withdrawLostTokens(address)": "a3546be4"
				}
			},
			"storageLayout": {
				"storage": [
					{
						"astId": 750,
						"contract": "contracts/_ronix.sol:RonxMatrix",
						"label": "impl",
						"offset": 0,
						"slot": "0",
						"type": "t_address"
					},
					{
						"astId": 752,
						"contract": "contracts/_ronix.sol:RonxMatrix",
						"label": "contractOwner",
						"offset": 0,
						"slot": "1",
						"type": "t_address"
					},
					{
						"astId": 788,
						"contract": "contracts/_ronix.sol:RonxMatrix",
						"label": "LAST_LEVEL",
						"offset": 20,
						"slot": "1",
						"type": "t_uint8"
					},
					{
						"astId": 793,
						"contract": "contracts/_ronix.sol:RonxMatrix",
						"label": "users",
						"offset": 0,
						"slot": "2",
						"type": "t_mapping(t_address,t_struct(User)768_storage)"
					},
					{
						"astId": 797,
						"contract": "contracts/_ronix.sol:RonxMatrix",
						"label": "idToAddress",
						"offset": 0,
						"slot": "3",
						"type": "t_mapping(t_uint256,t_address)"
					},
					{
						"astId": 801,
						"contract": "contracts/_ronix.sol:RonxMatrix",
						"label": "userIds",
						"offset": 0,
						"slot": "4",
						"type": "t_mapping(t_uint256,t_address)"
					},
					{
						"astId": 805,
						"contract": "contracts/_ronix.sol:RonxMatrix",
						"label": "balances",
						"offset": 0,
						"slot": "5",
						"type": "t_mapping(t_address,t_uint256)"
					},
					{
						"astId": 807,
						"contract": "contracts/_ronix.sol:RonxMatrix",
						"label": "lastUserId",
						"offset": 0,
						"slot": "6",
						"type": "t_uint256"
					},
					{
						"astId": 809,
						"contract": "contracts/_ronix.sol:RonxMatrix",
						"label": "id1",
						"offset": 0,
						"slot": "7",
						"type": "t_address"
					},
					{
						"astId": 811,
						"contract": "contracts/_ronix.sol:RonxMatrix",
						"label": "multisig",
						"offset": 0,
						"slot": "8",
						"type": "t_address"
					},
					{
						"astId": 815,
						"contract": "contracts/_ronix.sol:RonxMatrix",
						"label": "levelPrice",
						"offset": 0,
						"slot": "9",
						"type": "t_mapping(t_uint8,t_uint256)"
					},
					{
						"astId": 818,
						"contract": "contracts/_ronix.sol:RonxMatrix",
						"label": "depositToken",
						"offset": 0,
						"slot": "10",
						"type": "t_contract(IERC20)195"
					},
					{
						"astId": 820,
						"contract": "contracts/_ronix.sol:RonxMatrix",
						"label": "BASIC_PRICE",
						"offset": 0,
						"slot": "11",
						"type": "t_uint256"
					},
					{
						"astId": 822,
						"contract": "contracts/_ronix.sol:RonxMatrix",
						"label": "locked",
						"offset": 0,
						"slot": "12",
						"type": "t_bool"
					}
				],
				"types": {
					"t_address": {
						"encoding": "inplace",
						"label": "address",
						"numberOfBytes": "20"
					},
					"t_array(t_address)dyn_storage": {
						"base": "t_address",
						"encoding": "dynamic_array",
						"label": "address[]",
						"numberOfBytes": "32"
					},
					"t_bool": {
						"encoding": "inplace",
						"label": "bool",
						"numberOfBytes": "1"
					},
					"t_contract(IERC20)195": {
						"encoding": "inplace",
						"label": "contract IERC20",
						"numberOfBytes": "20"
					},
					"t_mapping(t_address,t_struct(User)768_storage)": {
						"encoding": "mapping",
						"key": "t_address",
						"label": "mapping(address => struct RonxBasic.User)",
						"numberOfBytes": "32",
						"value": "t_struct(User)768_storage"
					},
					"t_mapping(t_address,t_uint256)": {
						"encoding": "mapping",
						"key": "t_address",
						"label": "mapping(address => uint256)",
						"numberOfBytes": "32",
						"value": "t_uint256"
					},
					"t_mapping(t_uint256,t_address)": {
						"encoding": "mapping",
						"key": "t_uint256",
						"label": "mapping(uint256 => address)",
						"numberOfBytes": "32",
						"value": "t_address"
					},
					"t_mapping(t_uint256,t_uint256)": {
						"encoding": "mapping",
						"key": "t_uint256",
						"label": "mapping(uint256 => uint256)",
						"numberOfBytes": "32",
						"value": "t_uint256"
					},
					"t_mapping(t_uint8,t_bool)": {
						"encoding": "mapping",
						"key": "t_uint8",
						"label": "mapping(uint8 => bool)",
						"numberOfBytes": "32",
						"value": "t_bool"
					},
					"t_mapping(t_uint8,t_struct(X3)786_storage)": {
						"encoding": "mapping",
						"key": "t_uint8",
						"label": "mapping(uint8 => struct RonxBasic.X3)",
						"numberOfBytes": "32",
						"value": "t_struct(X3)786_storage"
					},
					"t_mapping(t_uint8,t_uint256)": {
						"encoding": "mapping",
						"key": "t_uint8",
						"label": "mapping(uint8 => uint256)",
						"numberOfBytes": "32",
						"value": "t_uint256"
					},
					"t_struct(User)768_storage": {
						"encoding": "inplace",
						"label": "struct RonxBasic.User",
						"members": [
							{
								"astId": 754,
								"contract": "contracts/_ronix.sol:RonxMatrix",
								"label": "id",
								"offset": 0,
								"slot": "0",
								"type": "t_uint256"
							},
							{
								"astId": 756,
								"contract": "contracts/_ronix.sol:RonxMatrix",
								"label": "referrer",
								"offset": 0,
								"slot": "1",
								"type": "t_address"
							},
							{
								"astId": 758,
								"contract": "contracts/_ronix.sol:RonxMatrix",
								"label": "partnersCount",
								"offset": 0,
								"slot": "2",
								"type": "t_uint256"
							},
							{
								"astId": 762,
								"contract": "contracts/_ronix.sol:RonxMatrix",
								"label": "activeX3Levels",
								"offset": 0,
								"slot": "3",
								"type": "t_mapping(t_uint8,t_bool)"
							},
							{
								"astId": 767,
								"contract": "contracts/_ronix.sol:RonxMatrix",
								"label": "x3Matrix",
								"offset": 0,
								"slot": "4",
								"type": "t_mapping(t_uint8,t_struct(X3)786_storage)"
							}
						],
						"numberOfBytes": "160"
					},
					"t_struct(X3)786_storage": {
						"encoding": "inplace",
						"label": "struct RonxBasic.X3",
						"members": [
							{
								"astId": 770,
								"contract": "contracts/_ronix.sol:RonxMatrix",
								"label": "currentReferrer",
								"offset": 0,
								"slot": "0",
								"type": "t_address"
							},
							{
								"astId": 773,
								"contract": "contracts/_ronix.sol:RonxMatrix",
								"label": "referrals",
								"offset": 0,
								"slot": "1",
								"type": "t_array(t_address)dyn_storage"
							},
							{
								"astId": 775,
								"contract": "contracts/_ronix.sol:RonxMatrix",
								"label": "blocked",
								"offset": 0,
								"slot": "2",
								"type": "t_bool"
							},
							{
								"astId": 777,
								"contract": "contracts/_ronix.sol:RonxMatrix",
								"label": "reinvestCount",
								"offset": 0,
								"slot": "3",
								"type": "t_uint256"
							},
							{
								"astId": 781,
								"contract": "contracts/_ronix.sol:RonxMatrix",
								"label": "referralsReinvestCounts",
								"offset": 0,
								"slot": "4",
								"type": "t_mapping(t_uint256,t_uint256)"
							},
							{
								"astId": 785,
								"contract": "contracts/_ronix.sol:RonxMatrix",
								"label": "referralsBalances",
								"offset": 0,
								"slot": "5",
								"type": "t_mapping(t_uint256,t_uint256)"
							}
						],
						"numberOfBytes": "192"
					},
					"t_uint256": {
						"encoding": "inplace",
						"label": "uint256",
						"numberOfBytes": "32"
					},
					"t_uint8": {
						"encoding": "inplace",
						"label": "uint8",
						"numberOfBytes": "1"
					}
				}
			},
			"userdoc": {
				"kind": "user",
				"methods": {},
				"version": 1
			}
		}
	}
}