{
	"contracts/_ecommerce.sol": {
		"ECommerce": {
			"abi": [
				{
					"inputs": [],
					"stateMutability": "nonpayable",
					"type": "constructor"
				},
				{
					"anonymous": false,
					"inputs": [
						{
							"indexed": false,
							"internalType": "uint256",
							"name": "orderId",
							"type": "uint256"
						}
					],
					"name": "DisputeOpened",
					"type": "event"
				},
				{
					"anonymous": false,
					"inputs": [
						{
							"indexed": false,
							"internalType": "uint256",
							"name": "orderId",
							"type": "uint256"
						},
						{
							"indexed": false,
							"internalType": "bool",
							"name": "favorBuyer",
							"type": "bool"
						}
					],
					"name": "DisputeResolved",
					"type": "event"
				},
				{
					"anonymous": false,
					"inputs": [
						{
							"indexed": false,
							"internalType": "uint256",
							"name": "productId",
							"type": "uint256"
						},
						{
							"indexed": false,
							"internalType": "address",
							"name": "seller",
							"type": "address"
						},
						{
							"indexed": false,
							"internalType": "string",
							"name": "name",
							"type": "string"
						},
						{
							"indexed": false,
							"internalType": "uint256",
							"name": "price",
							"type": "uint256"
						}
					],
					"name": "ProductListed",
					"type": "event"
				},
				{
					"anonymous": false,
					"inputs": [
						{
							"indexed": false,
							"internalType": "uint256",
							"name": "productId",
							"type": "uint256"
						},
						{
							"indexed": false,
							"internalType": "address",
							"name": "buyer",
							"type": "address"
						},
						{
							"indexed": false,
							"internalType": "uint256",
							"name": "orderId",
							"type": "uint256"
						}
					],
					"name": "ProductPurchased",
					"type": "event"
				},
				{
					"anonymous": false,
					"inputs": [
						{
							"indexed": false,
							"internalType": "uint256",
							"name": "orderId",
							"type": "uint256"
						}
					],
					"name": "ProductReceived",
					"type": "event"
				},
				{
					"anonymous": false,
					"inputs": [
						{
							"indexed": false,
							"internalType": "uint256",
							"name": "orderId",
							"type": "uint256"
						}
					],
					"name": "ProductShipped",
					"type": "event"
				},
				{
					"inputs": [],
					"name": "admin",
					"outputs": [
						{
							"internalType": "address",
							"name": "",
							"type": "address"
						}
					],
					"stateMutability": "view",
					"type": "function"
				},
				{
					"inputs": [
						{
							"internalType": "uint256",
							"name": "_productId",
							"type": "uint256"
						}
					],
					"name": "buyProduct",
					"outputs": [],
					"stateMutability": "payable",
					"type": "function"
				},
				{
					"inputs": [
						{
							"internalType": "string",
							"name": "_name",
							"type": "string"
						},
						{
							"internalType": "string",
							"name": "_description",
							"type": "string"
						},
						{
							"internalType": "uint256",
							"name": "_price",
							"type": "uint256"
						}
					],
					"name": "listProduct",
					"outputs": [],
					"stateMutability": "nonpayable",
					"type": "function"
				},
				{
					"inputs": [
						{
							"internalType": "uint256",
							"name": "_orderId",
							"type": "uint256"
						}
					],
					"name": "openDispute",
					"outputs": [],
					"stateMutability": "nonpayable",
					"type": "function"
				},
				{
					"inputs": [],
					"name": "orderCount",
					"outputs": [
						{
							"internalType": "uint256",
							"name": "",
							"type": "uint256"
						}
					],
					"stateMutability": "view",
					"type": "function"
				},
				{
					"inputs": [
						{
							"internalType": "uint256",
							"name": "",
							"type": "uint256"
						}
					],
					"name": "orders",
					"outputs": [
						{
							"internalType": "uint256",
							"name": "productId",
							"type": "uint256"
						},
						{
							"internalType": "address",
							"name": "buyer",
							"type": "address"
						},
						{
							"internalType": "uint256",
							"name": "price",
							"type": "uint256"
						},
						{
							"internalType": "bool",
							"name": "shipped",
							"type": "bool"
						},
						{
							"internalType": "bool",
							"name": "received",
							"type": "bool"
						},
						{
							"internalType": "bool",
							"name": "dispute",
							"type": "bool"
						}
					],
					"stateMutability": "view",
					"type": "function"
				},
				{
					"inputs": [],
					"name": "productCount",
					"outputs": [
						{
							"internalType": "uint256",
							"name": "",
							"type": "uint256"
						}
					],
					"stateMutability": "view",
					"type": "function"
				},
				{
					"inputs": [
						{
							"internalType": "uint256",
							"name": "",
							"type": "uint256"
						}
					],
					"name": "products",
					"outputs": [
						{
							"internalType": "uint256",
							"name": "id",
							"type": "uint256"
						},
						{
							"internalType": "address payable",
							"name": "seller",
							"type": "address"
						},
						{
							"internalType": "string",
							"name": "name",
							"type": "string"
						},
						{
							"internalType": "string",
							"name": "description",
							"type": "string"
						},
						{
							"internalType": "uint256",
							"name": "price",
							"type": "uint256"
						},
						{
							"internalType": "bool",
							"name": "sold",
							"type": "bool"
						}
					],
					"stateMutability": "view",
					"type": "function"
				},
				{
					"inputs": [
						{
							"internalType": "uint256",
							"name": "_orderId",
							"type": "uint256"
						}
					],
					"name": "receiveProduct",
					"outputs": [],
					"stateMutability": "nonpayable",
					"type": "function"
				},
				{
					"inputs": [
						{
							"internalType": "uint256",
							"name": "_orderId",
							"type": "uint256"
						},
						{
							"internalType": "bool",
							"name": "_favorBuyer",
							"type": "bool"
						}
					],
					"name": "resolveDispute",
					"outputs": [],
					"stateMutability": "nonpayable",
					"type": "function"
				},
				{
					"inputs": [
						{
							"internalType": "uint256",
							"name": "_orderId",
							"type": "uint256"
						}
					],
					"name": "shipProduct",
					"outputs": [],
					"stateMutability": "nonpayable",
					"type": "function"
				}
			],
			"devdoc": {
				"kind": "dev",
				"methods": {},
				"version": 1
			},
			"evm": {
				"assembly": "    /* \"contracts/_ecommerce.sol\":60:3793  contract ECommerce {... */\n  mstore(0x40, 0x80)\n    /* \"contracts/_ecommerce.sol\":1402:1453  constructor() {... */\n  callvalue\n  dup1\n  iszero\n  tag_1\n  jumpi\n  0x00\n  dup1\n  revert\ntag_1:\n  pop\n    /* \"contracts/_ecommerce.sol\":1435:1445  msg.sender */\n  caller\n    /* \"contracts/_ecommerce.sol\":1427:1432  admin */\n  0x04\n  0x00\n    /* \"contracts/_ecommerce.sol\":1427:1445  admin = msg.sender */\n  0x0100\n  exp\n  dup2\n  sload\n  dup2\n  0xffffffffffffffffffffffffffffffffffffffff\n  mul\n  not\n  and\n  swap1\n  dup4\n  0xffffffffffffffffffffffffffffffffffffffff\n  and\n  mul\n  or\n  swap1\n  sstore\n  pop\n    /* \"contracts/_ecommerce.sol\":60:3793  contract ECommerce {... */\n  dataSize(sub_0)\n  dup1\n  dataOffset(sub_0)\n  0x00\n  codecopy\n  0x00\n  return\nstop\n\nsub_0: assembly {\n        /* \"contracts/_ecommerce.sol\":60:3793  contract ECommerce {... */\n      mstore(0x40, 0x80)\n      jumpi(tag_1, lt(calldatasize, 0x04))\n      shr(0xe0, calldataload(0x00))\n      dup1\n      0x6d6b7777\n      gt\n      tag_13\n      jumpi\n      dup1\n      0x6d6b7777\n      eq\n      tag_7\n      jumpi\n      dup1\n      0x7acc0b20\n      eq\n      tag_8\n      jumpi\n      dup1\n      0x8642269e\n      eq\n      tag_9\n      jumpi\n      dup1\n      0xa85c38ef\n      eq\n      tag_10\n      jumpi\n      dup1\n      0xe0f6ef87\n      eq\n      tag_11\n      jumpi\n      dup1\n      0xf851a440\n      eq\n      tag_12\n      jumpi\n      jump(tag_1)\n    tag_13:\n      dup1\n      0x2453ffa8\n      eq\n      tag_2\n      jumpi\n      dup1\n      0x27d00fb0\n      eq\n      tag_3\n      jumpi\n      dup1\n      0x2927d1d9\n      eq\n      tag_4\n      jumpi\n      dup1\n      0x29d78328\n      eq\n      tag_5\n      jumpi\n      dup1\n      0x34b25ee2\n      eq\n      tag_6\n      jumpi\n    tag_1:\n      0x00\n      dup1\n      revert\n        /* \"contracts/_ecommerce.sol\":460:482  uint public orderCount */\n    tag_2:\n      callvalue\n      dup1\n      iszero\n      tag_14\n      jumpi\n      0x00\n      dup1\n      revert\n    tag_14:\n      pop\n      tag_15\n      tag_16\n      jump\t// in\n    tag_15:\n      mload(0x40)\n      tag_17\n      swap2\n      swap1\n      tag_18\n      jump\t// in\n    tag_17:\n      mload(0x40)\n      dup1\n      swap2\n      sub\n      swap1\n      return\n        /* \"contracts/_ecommerce.sol\":2995:3312  function openDispute(uint _orderId) external onlyBuyer(_orderId) {... */\n    tag_3:\n      callvalue\n      dup1\n      iszero\n      tag_19\n      jumpi\n      0x00\n      dup1\n      revert\n    tag_19:\n      pop\n      tag_20\n      0x04\n      dup1\n      calldatasize\n      sub\n      dup2\n      add\n      swap1\n      tag_21\n      swap2\n      swap1\n      tag_22\n      jump\t// in\n    tag_21:\n      tag_23\n      jump\t// in\n    tag_20:\n      stop\n        /* \"contracts/_ecommerce.sol\":2314:2589  function shipProduct(uint _orderId) external onlySeller(orders[_orderId].productId) {... */\n    tag_4:\n      callvalue\n      dup1\n      iszero\n      tag_24\n      jumpi\n      0x00\n      dup1\n      revert\n    tag_24:\n      pop\n      tag_25\n      0x04\n      dup1\n      calldatasize\n      sub\n      dup2\n      add\n      swap1\n      tag_26\n      swap2\n      swap1\n      tag_22\n      jump\t// in\n    tag_26:\n      tag_27\n      jump\t// in\n    tag_25:\n      stop\n        /* \"contracts/_ecommerce.sol\":2597:2987  function receiveProduct(uint _orderId) external onlyBuyer(_orderId) {... */\n    tag_5:\n      callvalue\n      dup1\n      iszero\n      tag_28\n      jumpi\n      0x00\n      dup1\n      revert\n    tag_28:\n      pop\n      tag_29\n      0x04\n      dup1\n      calldatasize\n      sub\n      dup2\n      add\n      swap1\n      tag_30\n      swap2\n      swap1\n      tag_22\n      jump\t// in\n    tag_30:\n      tag_31\n      jump\t// in\n    tag_29:\n      stop\n        /* \"contracts/_ecommerce.sol\":3320:3790  function resolveDispute(uint _orderId, bool _favorBuyer) external onlyAdmin {... */\n    tag_6:\n      callvalue\n      dup1\n      iszero\n      tag_32\n      jumpi\n      0x00\n      dup1\n      revert\n    tag_32:\n      pop\n      tag_33\n      0x04\n      dup1\n      calldatasize\n      sub\n      dup2\n      add\n      swap1\n      tag_34\n      swap2\n      swap1\n      tag_35\n      jump\t// in\n    tag_34:\n      tag_36\n      jump\t// in\n    tag_33:\n      stop\n        /* \"contracts/_ecommerce.sol\":1461:1839  function listProduct(string calldata _name, string calldata _description, uint _price) external {... */\n    tag_7:\n      callvalue\n      dup1\n      iszero\n      tag_37\n      jumpi\n      0x00\n      dup1\n      revert\n    tag_37:\n      pop\n      tag_38\n      0x04\n      dup1\n      calldatasize\n      sub\n      dup2\n      add\n      swap1\n      tag_39\n      swap2\n      swap1\n      tag_40\n      jump\t// in\n    tag_39:\n      tag_41\n      jump\t// in\n    tag_38:\n      stop\n        /* \"contracts/_ecommerce.sol\":489:529  mapping(uint => Product) public products */\n    tag_8:\n      callvalue\n      dup1\n      iszero\n      tag_42\n      jumpi\n      0x00\n      dup1\n      revert\n    tag_42:\n      pop\n      tag_43\n      0x04\n      dup1\n      calldatasize\n      sub\n      dup2\n      add\n      swap1\n      tag_44\n      swap2\n      swap1\n      tag_22\n      jump\t// in\n    tag_44:\n      tag_45\n      jump\t// in\n    tag_43:\n      mload(0x40)\n      tag_46\n      swap7\n      swap6\n      swap5\n      swap4\n      swap3\n      swap2\n      swap1\n      tag_47\n      jump\t// in\n    tag_46:\n      mload(0x40)\n      dup1\n      swap2\n      sub\n      swap1\n      return\n        /* \"contracts/_ecommerce.sol\":1847:2306  function buyProduct(uint _productId) external payable {... */\n    tag_9:\n      tag_48\n      0x04\n      dup1\n      calldatasize\n      sub\n      dup2\n      add\n      swap1\n      tag_49\n      swap2\n      swap1\n      tag_22\n      jump\t// in\n    tag_49:\n      tag_50\n      jump\t// in\n    tag_48:\n      stop\n        /* \"contracts/_ecommerce.sol\":536:572  mapping(uint => Order) public orders */\n    tag_10:\n      callvalue\n      dup1\n      iszero\n      tag_51\n      jumpi\n      0x00\n      dup1\n      revert\n    tag_51:\n      pop\n      tag_52\n      0x04\n      dup1\n      calldatasize\n      sub\n      dup2\n      add\n      swap1\n      tag_53\n      swap2\n      swap1\n      tag_22\n      jump\t// in\n    tag_53:\n      tag_54\n      jump\t// in\n    tag_52:\n      mload(0x40)\n      tag_55\n      swap7\n      swap6\n      swap5\n      swap4\n      swap3\n      swap2\n      swap1\n      tag_56\n      jump\t// in\n    tag_55:\n      mload(0x40)\n      dup1\n      swap2\n      sub\n      swap1\n      return\n        /* \"contracts/_ecommerce.sol\":429:453  uint public productCount */\n    tag_11:\n      callvalue\n      dup1\n      iszero\n      tag_57\n      jumpi\n      0x00\n      dup1\n      revert\n    tag_57:\n      pop\n      tag_58\n      tag_59\n      jump\t// in\n    tag_58:\n      mload(0x40)\n      tag_60\n      swap2\n      swap1\n      tag_18\n      jump\t// in\n    tag_60:\n      mload(0x40)\n      dup1\n      swap2\n      sub\n      swap1\n      return\n        /* \"contracts/_ecommerce.sol\":579:599  address public admin */\n    tag_12:\n      callvalue\n      dup1\n      iszero\n      tag_61\n      jumpi\n      0x00\n      dup1\n      revert\n    tag_61:\n      pop\n      tag_62\n      tag_63\n      jump\t// in\n    tag_62:\n      mload(0x40)\n      tag_64\n      swap2\n      swap1\n      tag_65\n      jump\t// in\n    tag_64:\n      mload(0x40)\n      dup1\n      swap2\n      sub\n      swap1\n      return\n        /* \"contracts/_ecommerce.sol\":460:482  uint public orderCount */\n    tag_16:\n      sload(0x01)\n      dup2\n      jump\t// out\n        /* \"contracts/_ecommerce.sol\":2995:3312  function openDispute(uint _orderId) external onlyBuyer(_orderId) {... */\n    tag_23:\n        /* \"contracts/_ecommerce.sol\":3050:3058  _orderId */\n      dup1\n        /* \"contracts/_ecommerce.sol\":1323:1333  msg.sender */\n      caller\n        /* \"contracts/_ecommerce.sol\":1297:1333  orders[_orderId].buyer == msg.sender */\n      0xffffffffffffffffffffffffffffffffffffffff\n      and\n        /* \"contracts/_ecommerce.sol\":1297:1303  orders */\n      0x03\n        /* \"contracts/_ecommerce.sol\":1297:1313  orders[_orderId] */\n      0x00\n        /* \"contracts/_ecommerce.sol\":1304:1312  _orderId */\n      dup4\n        /* \"contracts/_ecommerce.sol\":1297:1313  orders[_orderId] */\n      dup2\n      mstore\n      0x20\n      add\n      swap1\n      dup2\n      mstore\n      0x20\n      add\n      0x00\n      keccak256\n        /* \"contracts/_ecommerce.sol\":1297:1319  orders[_orderId].buyer */\n      0x01\n      add\n      0x00\n      swap1\n      sload\n      swap1\n      0x0100\n      exp\n      swap1\n      div\n      0xffffffffffffffffffffffffffffffffffffffff\n      and\n        /* \"contracts/_ecommerce.sol\":1297:1333  orders[_orderId].buyer == msg.sender */\n      0xffffffffffffffffffffffffffffffffffffffff\n      and\n      eq\n        /* \"contracts/_ecommerce.sol\":1289:1374  require(orders[_orderId].buyer == msg.sender, \"Only buyer can execute this function\") */\n      tag_67\n      jumpi\n      mload(0x40)\n      0x08c379a000000000000000000000000000000000000000000000000000000000\n      dup2\n      mstore\n      0x04\n      add\n      tag_68\n      swap1\n      tag_69\n      jump\t// in\n    tag_68:\n      mload(0x40)\n      dup1\n      swap2\n      sub\n      swap1\n      revert\n    tag_67:\n        /* \"contracts/_ecommerce.sol\":3071:3090  Order storage order */\n      0x00\n        /* \"contracts/_ecommerce.sol\":3093:3099  orders */\n      0x03\n        /* \"contracts/_ecommerce.sol\":3093:3109  orders[_orderId] */\n      0x00\n        /* \"contracts/_ecommerce.sol\":3100:3108  _orderId */\n      dup5\n        /* \"contracts/_ecommerce.sol\":3093:3109  orders[_orderId] */\n      dup2\n      mstore\n      0x20\n      add\n      swap1\n      dup2\n      mstore\n      0x20\n      add\n      0x00\n      keccak256\n        /* \"contracts/_ecommerce.sol\":3071:3109  Order storage order = orders[_orderId] */\n      swap1\n      pop\n        /* \"contracts/_ecommerce.sol\":3128:3133  order */\n      dup1\n        /* \"contracts/_ecommerce.sol\":3128:3141  order.shipped */\n      0x03\n      add\n      0x00\n      swap1\n      sload\n      swap1\n      0x0100\n      exp\n      swap1\n      div\n      0xff\n      and\n        /* \"contracts/_ecommerce.sol\":3120:3169  require(order.shipped, \"Product not shipped yet\") */\n      tag_71\n      jumpi\n      mload(0x40)\n      0x08c379a000000000000000000000000000000000000000000000000000000000\n      dup2\n      mstore\n      0x04\n      add\n      tag_72\n      swap1\n      tag_73\n      jump\t// in\n    tag_72:\n      mload(0x40)\n      dup1\n      swap2\n      sub\n      swap1\n      revert\n    tag_71:\n        /* \"contracts/_ecommerce.sol\":3189:3194  order */\n      dup1\n        /* \"contracts/_ecommerce.sol\":3189:3203  order.received */\n      0x03\n      add\n      0x01\n      swap1\n      sload\n      swap1\n      0x0100\n      exp\n      swap1\n      div\n      0xff\n      and\n        /* \"contracts/_ecommerce.sol\":3188:3203  !order.received */\n      iszero\n        /* \"contracts/_ecommerce.sol\":3180:3232  require(!order.received, \"Product already received\") */\n      tag_74\n      jumpi\n      mload(0x40)\n      0x08c379a000000000000000000000000000000000000000000000000000000000\n      dup2\n      mstore\n      0x04\n      add\n      tag_75\n      swap1\n      tag_76\n      jump\t// in\n    tag_75:\n      mload(0x40)\n      dup1\n      swap2\n      sub\n      swap1\n      revert\n    tag_74:\n        /* \"contracts/_ecommerce.sol\":3261:3265  true */\n      0x01\n        /* \"contracts/_ecommerce.sol\":3245:3250  order */\n      dup2\n        /* \"contracts/_ecommerce.sol\":3245:3258  order.dispute */\n      0x03\n      add\n      0x02\n        /* \"contracts/_ecommerce.sol\":3245:3265  order.dispute = true */\n      0x0100\n      exp\n      dup2\n      sload\n      dup2\n      0xff\n      mul\n      not\n      and\n      swap1\n      dup4\n      iszero\n      iszero\n      mul\n      or\n      swap1\n      sstore\n      pop\n        /* \"contracts/_ecommerce.sol\":3281:3304  DisputeOpened(_orderId) */\n      0xed50123fe46d12537dcaae53f33aee1c64bcc9e4f222560f3bae6c0824040dd3\n        /* \"contracts/_ecommerce.sol\":3295:3303  _orderId */\n      dup4\n        /* \"contracts/_ecommerce.sol\":3281:3304  DisputeOpened(_orderId) */\n      mload(0x40)\n      tag_77\n      swap2\n      swap1\n      tag_18\n      jump\t// in\n    tag_77:\n      mload(0x40)\n      dup1\n      swap2\n      sub\n      swap1\n      log1\n        /* \"contracts/_ecommerce.sol\":3060:3312  {... */\n      pop\n        /* \"contracts/_ecommerce.sol\":2995:3312  function openDispute(uint _orderId) external onlyBuyer(_orderId) {... */\n      pop\n      pop\n      jump\t// out\n        /* \"contracts/_ecommerce.sol\":2314:2589  function shipProduct(uint _orderId) external onlySeller(orders[_orderId].productId) {... */\n    tag_27:\n        /* \"contracts/_ecommerce.sol\":2370:2376  orders */\n      0x03\n        /* \"contracts/_ecommerce.sol\":2370:2386  orders[_orderId] */\n      0x00\n        /* \"contracts/_ecommerce.sol\":2377:2385  _orderId */\n      dup3\n        /* \"contracts/_ecommerce.sol\":2370:2386  orders[_orderId] */\n      dup2\n      mstore\n      0x20\n      add\n      swap1\n      dup2\n      mstore\n      0x20\n      add\n      0x00\n      keccak256\n        /* \"contracts/_ecommerce.sol\":2370:2396  orders[_orderId].productId */\n      0x00\n      add\n      sload\n        /* \"contracts/_ecommerce.sol\":1164:1174  msg.sender */\n      caller\n        /* \"contracts/_ecommerce.sol\":1133:1174  products[_productId].seller == msg.sender */\n      0xffffffffffffffffffffffffffffffffffffffff\n      and\n        /* \"contracts/_ecommerce.sol\":1133:1141  products */\n      0x02\n        /* \"contracts/_ecommerce.sol\":1133:1153  products[_productId] */\n      0x00\n        /* \"contracts/_ecommerce.sol\":1142:1152  _productId */\n      dup4\n        /* \"contracts/_ecommerce.sol\":1133:1153  products[_productId] */\n      dup2\n      mstore\n      0x20\n      add\n      swap1\n      dup2\n      mstore\n      0x20\n      add\n      0x00\n      keccak256\n        /* \"contracts/_ecommerce.sol\":1133:1160  products[_productId].seller */\n      0x01\n      add\n      0x00\n      swap1\n      sload\n      swap1\n      0x0100\n      exp\n      swap1\n      div\n      0xffffffffffffffffffffffffffffffffffffffff\n      and\n        /* \"contracts/_ecommerce.sol\":1133:1174  products[_productId].seller == msg.sender */\n      0xffffffffffffffffffffffffffffffffffffffff\n      and\n      eq\n        /* \"contracts/_ecommerce.sol\":1125:1216  require(products[_productId].seller == msg.sender, \"Only seller can execute this function\") */\n      tag_79\n      jumpi\n      mload(0x40)\n      0x08c379a000000000000000000000000000000000000000000000000000000000\n      dup2\n      mstore\n      0x04\n      add\n      tag_80\n      swap1\n      tag_81\n      jump\t// in\n    tag_80:\n      mload(0x40)\n      dup1\n      swap2\n      sub\n      swap1\n      revert\n    tag_79:\n        /* \"contracts/_ecommerce.sol\":2409:2428  Order storage order */\n      0x00\n        /* \"contracts/_ecommerce.sol\":2431:2437  orders */\n      0x03\n        /* \"contracts/_ecommerce.sol\":2431:2447  orders[_orderId] */\n      0x00\n        /* \"contracts/_ecommerce.sol\":2438:2446  _orderId */\n      dup5\n        /* \"contracts/_ecommerce.sol\":2431:2447  orders[_orderId] */\n      dup2\n      mstore\n      0x20\n      add\n      swap1\n      dup2\n      mstore\n      0x20\n      add\n      0x00\n      keccak256\n        /* \"contracts/_ecommerce.sol\":2409:2447  Order storage order = orders[_orderId] */\n      swap1\n      pop\n        /* \"contracts/_ecommerce.sol\":2467:2472  order */\n      dup1\n        /* \"contracts/_ecommerce.sol\":2467:2480  order.shipped */\n      0x03\n      add\n      0x00\n      swap1\n      sload\n      swap1\n      0x0100\n      exp\n      swap1\n      div\n      0xff\n      and\n        /* \"contracts/_ecommerce.sol\":2466:2480  !order.shipped */\n      iszero\n        /* \"contracts/_ecommerce.sol\":2458:2508  require(!order.shipped, \"Product already shipped\") */\n      tag_83\n      jumpi\n      mload(0x40)\n      0x08c379a000000000000000000000000000000000000000000000000000000000\n      dup2\n      mstore\n      0x04\n      add\n      tag_84\n      swap1\n      tag_85\n      jump\t// in\n    tag_84:\n      mload(0x40)\n      dup1\n      swap2\n      sub\n      swap1\n      revert\n    tag_83:\n        /* \"contracts/_ecommerce.sol\":2537:2541  true */\n      0x01\n        /* \"contracts/_ecommerce.sol\":2521:2526  order */\n      dup2\n        /* \"contracts/_ecommerce.sol\":2521:2534  order.shipped */\n      0x03\n      add\n      0x00\n        /* \"contracts/_ecommerce.sol\":2521:2541  order.shipped = true */\n      0x0100\n      exp\n      dup2\n      sload\n      dup2\n      0xff\n      mul\n      not\n      and\n      swap1\n      dup4\n      iszero\n      iszero\n      mul\n      or\n      swap1\n      sstore\n      pop\n        /* \"contracts/_ecommerce.sol\":2557:2581  ProductShipped(_orderId) */\n      0xf91b0b39fbb56d78224050bb7e56777ee7aca5ed18ada91cc9c21677db7f9abe\n        /* \"contracts/_ecommerce.sol\":2572:2580  _orderId */\n      dup4\n        /* \"contracts/_ecommerce.sol\":2557:2581  ProductShipped(_orderId) */\n      mload(0x40)\n      tag_86\n      swap2\n      swap1\n      tag_18\n      jump\t// in\n    tag_86:\n      mload(0x40)\n      dup1\n      swap2\n      sub\n      swap1\n      log1\n        /* \"contracts/_ecommerce.sol\":2398:2589  {... */\n      pop\n        /* \"contracts/_ecommerce.sol\":2314:2589  function shipProduct(uint _orderId) external onlySeller(orders[_orderId].productId) {... */\n      pop\n      pop\n      jump\t// out\n        /* \"contracts/_ecommerce.sol\":2597:2987  function receiveProduct(uint _orderId) external onlyBuyer(_orderId) {... */\n    tag_31:\n        /* \"contracts/_ecommerce.sol\":2655:2663  _orderId */\n      dup1\n        /* \"contracts/_ecommerce.sol\":1323:1333  msg.sender */\n      caller\n        /* \"contracts/_ecommerce.sol\":1297:1333  orders[_orderId].buyer == msg.sender */\n      0xffffffffffffffffffffffffffffffffffffffff\n      and\n        /* \"contracts/_ecommerce.sol\":1297:1303  orders */\n      0x03\n        /* \"contracts/_ecommerce.sol\":1297:1313  orders[_orderId] */\n      0x00\n        /* \"contracts/_ecommerce.sol\":1304:1312  _orderId */\n      dup4\n        /* \"contracts/_ecommerce.sol\":1297:1313  orders[_orderId] */\n      dup2\n      mstore\n      0x20\n      add\n      swap1\n      dup2\n      mstore\n      0x20\n      add\n      0x00\n      keccak256\n        /* \"contracts/_ecommerce.sol\":1297:1319  orders[_orderId].buyer */\n      0x01\n      add\n      0x00\n      swap1\n      sload\n      swap1\n      0x0100\n      exp\n      swap1\n      div\n      0xffffffffffffffffffffffffffffffffffffffff\n      and\n        /* \"contracts/_ecommerce.sol\":1297:1333  orders[_orderId].buyer == msg.sender */\n      0xffffffffffffffffffffffffffffffffffffffff\n      and\n      eq\n        /* \"contracts/_ecommerce.sol\":1289:1374  require(orders[_orderId].buyer == msg.sender, \"Only buyer can execute this function\") */\n      tag_88\n      jumpi\n      mload(0x40)\n      0x08c379a000000000000000000000000000000000000000000000000000000000\n      dup2\n      mstore\n      0x04\n      add\n      tag_89\n      swap1\n      tag_69\n      jump\t// in\n    tag_89:\n      mload(0x40)\n      dup1\n      swap2\n      sub\n      swap1\n      revert\n    tag_88:\n        /* \"contracts/_ecommerce.sol\":2676:2695  Order storage order */\n      0x00\n        /* \"contracts/_ecommerce.sol\":2698:2704  orders */\n      0x03\n        /* \"contracts/_ecommerce.sol\":2698:2714  orders[_orderId] */\n      0x00\n        /* \"contracts/_ecommerce.sol\":2705:2713  _orderId */\n      dup5\n        /* \"contracts/_ecommerce.sol\":2698:2714  orders[_orderId] */\n      dup2\n      mstore\n      0x20\n      add\n      swap1\n      dup2\n      mstore\n      0x20\n      add\n      0x00\n      keccak256\n        /* \"contracts/_ecommerce.sol\":2676:2714  Order storage order = orders[_orderId] */\n      swap1\n      pop\n        /* \"contracts/_ecommerce.sol\":2733:2738  order */\n      dup1\n        /* \"contracts/_ecommerce.sol\":2733:2746  order.shipped */\n      0x03\n      add\n      0x00\n      swap1\n      sload\n      swap1\n      0x0100\n      exp\n      swap1\n      div\n      0xff\n      and\n        /* \"contracts/_ecommerce.sol\":2725:2774  require(order.shipped, \"Product not shipped yet\") */\n      tag_91\n      jumpi\n      mload(0x40)\n      0x08c379a000000000000000000000000000000000000000000000000000000000\n      dup2\n      mstore\n      0x04\n      add\n      tag_92\n      swap1\n      tag_73\n      jump\t// in\n    tag_92:\n      mload(0x40)\n      dup1\n      swap2\n      sub\n      swap1\n      revert\n    tag_91:\n        /* \"contracts/_ecommerce.sol\":2794:2799  order */\n      dup1\n        /* \"contracts/_ecommerce.sol\":2794:2808  order.received */\n      0x03\n      add\n      0x01\n      swap1\n      sload\n      swap1\n      0x0100\n      exp\n      swap1\n      div\n      0xff\n      and\n        /* \"contracts/_ecommerce.sol\":2793:2808  !order.received */\n      iszero\n        /* \"contracts/_ecommerce.sol\":2785:2837  require(!order.received, \"Product already received\") */\n      tag_93\n      jumpi\n      mload(0x40)\n      0x08c379a000000000000000000000000000000000000000000000000000000000\n      dup2\n      mstore\n      0x04\n      add\n      tag_94\n      swap1\n      tag_76\n      jump\t// in\n    tag_94:\n      mload(0x40)\n      dup1\n      swap2\n      sub\n      swap1\n      revert\n    tag_93:\n        /* \"contracts/_ecommerce.sol\":2867:2871  true */\n      0x01\n        /* \"contracts/_ecommerce.sol\":2850:2855  order */\n      dup2\n        /* \"contracts/_ecommerce.sol\":2850:2864  order.received */\n      0x03\n      add\n      0x01\n        /* \"contracts/_ecommerce.sol\":2850:2871  order.received = true */\n      0x0100\n      exp\n      dup2\n      sload\n      dup2\n      0xff\n      mul\n      not\n      and\n      swap1\n      dup4\n      iszero\n      iszero\n      mul\n      or\n      swap1\n      sstore\n      pop\n        /* \"contracts/_ecommerce.sol\":2882:2890  products */\n      0x02\n        /* \"contracts/_ecommerce.sol\":2882:2907  products[order.productId] */\n      0x00\n        /* \"contracts/_ecommerce.sol\":2891:2896  order */\n      dup3\n        /* \"contracts/_ecommerce.sol\":2891:2906  order.productId */\n      0x00\n      add\n      sload\n        /* \"contracts/_ecommerce.sol\":2882:2907  products[order.productId] */\n      dup2\n      mstore\n      0x20\n      add\n      swap1\n      dup2\n      mstore\n      0x20\n      add\n      0x00\n      keccak256\n        /* \"contracts/_ecommerce.sol\":2882:2914  products[order.productId].seller */\n      0x01\n      add\n      0x00\n      swap1\n      sload\n      swap1\n      0x0100\n      exp\n      swap1\n      div\n      0xffffffffffffffffffffffffffffffffffffffff\n      and\n        /* \"contracts/_ecommerce.sol\":2882:2923  products[order.productId].seller.transfer */\n      0xffffffffffffffffffffffffffffffffffffffff\n      and\n        /* \"contracts/_ecommerce.sol\":2882:2936  products[order.productId].seller.transfer(order.price) */\n      0x08fc\n        /* \"contracts/_ecommerce.sol\":2924:2929  order */\n      dup3\n        /* \"contracts/_ecommerce.sol\":2924:2935  order.price */\n      0x02\n      add\n      sload\n        /* \"contracts/_ecommerce.sol\":2882:2936  products[order.productId].seller.transfer(order.price) */\n      swap1\n      dup2\n      iszero\n      mul\n      swap1\n      mload(0x40)\n      0x00\n      mload(0x40)\n      dup1\n      dup4\n      sub\n      dup2\n      dup6\n      dup9\n      dup9\n      call\n      swap4\n      pop\n      pop\n      pop\n      pop\n      iszero\n      dup1\n      iszero\n      tag_96\n      jumpi\n      returndatasize\n      0x00\n      dup1\n      returndatacopy\n      revert(0x00, returndatasize)\n    tag_96:\n      pop\n        /* \"contracts/_ecommerce.sol\":2954:2979  ProductReceived(_orderId) */\n      0x14dea969eedd35dc22a00dc5d0c573ad6305c40d63100de02135b0226eb4c8aa\n        /* \"contracts/_ecommerce.sol\":2970:2978  _orderId */\n      dup4\n        /* \"contracts/_ecommerce.sol\":2954:2979  ProductReceived(_orderId) */\n      mload(0x40)\n      tag_97\n      swap2\n      swap1\n      tag_18\n      jump\t// in\n    tag_97:\n      mload(0x40)\n      dup1\n      swap2\n      sub\n      swap1\n      log1\n        /* \"contracts/_ecommerce.sol\":2665:2987  {... */\n      pop\n        /* \"contracts/_ecommerce.sol\":2597:2987  function receiveProduct(uint _orderId) external onlyBuyer(_orderId) {... */\n      pop\n      pop\n      jump\t// out\n        /* \"contracts/_ecommerce.sol\":3320:3790  function resolveDispute(uint _orderId, bool _favorBuyer) external onlyAdmin {... */\n    tag_36:\n        /* \"contracts/_ecommerce.sol\":1003:1008  admin */\n      0x04\n      0x00\n      swap1\n      sload\n      swap1\n      0x0100\n      exp\n      swap1\n      div\n      0xffffffffffffffffffffffffffffffffffffffff\n      and\n        /* \"contracts/_ecommerce.sol\":989:1008  msg.sender == admin */\n      0xffffffffffffffffffffffffffffffffffffffff\n      and\n        /* \"contracts/_ecommerce.sol\":989:999  msg.sender */\n      caller\n        /* \"contracts/_ecommerce.sol\":989:1008  msg.sender == admin */\n      0xffffffffffffffffffffffffffffffffffffffff\n      and\n      eq\n        /* \"contracts/_ecommerce.sol\":981:1049  require(msg.sender == admin, \"Only admin can execute this function\") */\n      tag_99\n      jumpi\n      mload(0x40)\n      0x08c379a000000000000000000000000000000000000000000000000000000000\n      dup2\n      mstore\n      0x04\n      add\n      tag_100\n      swap1\n      tag_101\n      jump\t// in\n    tag_100:\n      mload(0x40)\n      dup1\n      swap2\n      sub\n      swap1\n      revert\n    tag_99:\n        /* \"contracts/_ecommerce.sol\":3407:3426  Order storage order */\n      0x00\n        /* \"contracts/_ecommerce.sol\":3429:3435  orders */\n      0x03\n        /* \"contracts/_ecommerce.sol\":3429:3445  orders[_orderId] */\n      0x00\n        /* \"contracts/_ecommerce.sol\":3436:3444  _orderId */\n      dup5\n        /* \"contracts/_ecommerce.sol\":3429:3445  orders[_orderId] */\n      dup2\n      mstore\n      0x20\n      add\n      swap1\n      dup2\n      mstore\n      0x20\n      add\n      0x00\n      keccak256\n        /* \"contracts/_ecommerce.sol\":3407:3445  Order storage order = orders[_orderId] */\n      swap1\n      pop\n        /* \"contracts/_ecommerce.sol\":3464:3469  order */\n      dup1\n        /* \"contracts/_ecommerce.sol\":3464:3477  order.dispute */\n      0x03\n      add\n      0x02\n      swap1\n      sload\n      swap1\n      0x0100\n      exp\n      swap1\n      div\n      0xff\n      and\n        /* \"contracts/_ecommerce.sol\":3456:3507  require(order.dispute, \"No dispute for this order\") */\n      tag_103\n      jumpi\n      mload(0x40)\n      0x08c379a000000000000000000000000000000000000000000000000000000000\n      dup2\n      mstore\n      0x04\n      add\n      tag_104\n      swap1\n      tag_105\n      jump\t// in\n    tag_104:\n      mload(0x40)\n      dup1\n      swap2\n      sub\n      swap1\n      revert\n    tag_103:\n        /* \"contracts/_ecommerce.sol\":3536:3541  false */\n      0x00\n        /* \"contracts/_ecommerce.sol\":3520:3525  order */\n      dup2\n        /* \"contracts/_ecommerce.sol\":3520:3533  order.dispute */\n      0x03\n      add\n      0x02\n        /* \"contracts/_ecommerce.sol\":3520:3541  order.dispute = false */\n      0x0100\n      exp\n      dup2\n      sload\n      dup2\n      0xff\n      mul\n      not\n      and\n      swap1\n      dup4\n      iszero\n      iszero\n      mul\n      or\n      swap1\n      sstore\n      pop\n        /* \"contracts/_ecommerce.sol\":3558:3569  _favorBuyer */\n      dup2\n        /* \"contracts/_ecommerce.sol\":3554:3727  if (_favorBuyer) {... */\n      iszero\n      tag_106\n      jumpi\n        /* \"contracts/_ecommerce.sol\":3594:3599  order */\n      dup1\n        /* \"contracts/_ecommerce.sol\":3594:3605  order.buyer */\n      0x01\n      add\n      0x00\n      swap1\n      sload\n      swap1\n      0x0100\n      exp\n      swap1\n      div\n      0xffffffffffffffffffffffffffffffffffffffff\n      and\n        /* \"contracts/_ecommerce.sol\":3586:3615  payable(order.buyer).transfer */\n      0xffffffffffffffffffffffffffffffffffffffff\n      and\n        /* \"contracts/_ecommerce.sol\":3586:3628  payable(order.buyer).transfer(order.price) */\n      0x08fc\n        /* \"contracts/_ecommerce.sol\":3616:3621  order */\n      dup3\n        /* \"contracts/_ecommerce.sol\":3616:3627  order.price */\n      0x02\n      add\n      sload\n        /* \"contracts/_ecommerce.sol\":3586:3628  payable(order.buyer).transfer(order.price) */\n      swap1\n      dup2\n      iszero\n      mul\n      swap1\n      mload(0x40)\n      0x00\n      mload(0x40)\n      dup1\n      dup4\n      sub\n      dup2\n      dup6\n      dup9\n      dup9\n      call\n      swap4\n      pop\n      pop\n      pop\n      pop\n      iszero\n      dup1\n      iszero\n      tag_108\n      jumpi\n      returndatasize\n      0x00\n      dup1\n      returndatacopy\n      revert(0x00, returndatasize)\n    tag_108:\n      pop\n        /* \"contracts/_ecommerce.sol\":3554:3727  if (_favorBuyer) {... */\n      jump(tag_109)\n    tag_106:\n        /* \"contracts/_ecommerce.sol\":3661:3669  products */\n      0x02\n        /* \"contracts/_ecommerce.sol\":3661:3686  products[order.productId] */\n      0x00\n        /* \"contracts/_ecommerce.sol\":3670:3675  order */\n      dup3\n        /* \"contracts/_ecommerce.sol\":3670:3685  order.productId */\n      0x00\n      add\n      sload\n        /* \"contracts/_ecommerce.sol\":3661:3686  products[order.productId] */\n      dup2\n      mstore\n      0x20\n      add\n      swap1\n      dup2\n      mstore\n      0x20\n      add\n      0x00\n      keccak256\n        /* \"contracts/_ecommerce.sol\":3661:3693  products[order.productId].seller */\n      0x01\n      add\n      0x00\n      swap1\n      sload\n      swap1\n      0x0100\n      exp\n      swap1\n      div\n      0xffffffffffffffffffffffffffffffffffffffff\n      and\n        /* \"contracts/_ecommerce.sol\":3661:3702  products[order.productId].seller.transfer */\n      0xffffffffffffffffffffffffffffffffffffffff\n      and\n        /* \"contracts/_ecommerce.sol\":3661:3715  products[order.productId].seller.transfer(order.price) */\n      0x08fc\n        /* \"contracts/_ecommerce.sol\":3703:3708  order */\n      dup3\n        /* \"contracts/_ecommerce.sol\":3703:3714  order.price */\n      0x02\n      add\n      sload\n        /* \"contracts/_ecommerce.sol\":3661:3715  products[order.productId].seller.transfer(order.price) */\n      swap1\n      dup2\n      iszero\n      mul\n      swap1\n      mload(0x40)\n      0x00\n      mload(0x40)\n      dup1\n      dup4\n      sub\n      dup2\n      dup6\n      dup9\n      dup9\n      call\n      swap4\n      pop\n      pop\n      pop\n      pop\n      iszero\n      dup1\n      iszero\n      tag_111\n      jumpi\n      returndatasize\n      0x00\n      dup1\n      returndatacopy\n      revert(0x00, returndatasize)\n    tag_111:\n      pop\n        /* \"contracts/_ecommerce.sol\":3554:3727  if (_favorBuyer) {... */\n    tag_109:\n        /* \"contracts/_ecommerce.sol\":3744:3782  DisputeResolved(_orderId, _favorBuyer) */\n      0x5a87909bff68caaaaf0b3fd9c74eeccc928832f879315e5c6fb7a73612f26c0c\n        /* \"contracts/_ecommerce.sol\":3760:3768  _orderId */\n      dup4\n        /* \"contracts/_ecommerce.sol\":3770:3781  _favorBuyer */\n      dup4\n        /* \"contracts/_ecommerce.sol\":3744:3782  DisputeResolved(_orderId, _favorBuyer) */\n      mload(0x40)\n      tag_112\n      swap3\n      swap2\n      swap1\n      tag_113\n      jump\t// in\n    tag_112:\n      mload(0x40)\n      dup1\n      swap2\n      sub\n      swap1\n      log1\n        /* \"contracts/_ecommerce.sol\":3396:3790  {... */\n      pop\n        /* \"contracts/_ecommerce.sol\":3320:3790  function resolveDispute(uint _orderId, bool _favorBuyer) external onlyAdmin {... */\n      pop\n      pop\n      jump\t// out\n        /* \"contracts/_ecommerce.sol\":1461:1839  function listProduct(string calldata _name, string calldata _description, uint _price) external {... */\n    tag_41:\n        /* \"contracts/_ecommerce.sol\":1585:1586  0 */\n      0x00\n        /* \"contracts/_ecommerce.sol\":1576:1582  _price */\n      dup2\n        /* \"contracts/_ecommerce.sol\":1576:1586  _price > 0 */\n      gt\n        /* \"contracts/_ecommerce.sol\":1568:1622  require(_price > 0, \"Price must be greater than zero\") */\n      tag_115\n      jumpi\n      mload(0x40)\n      0x08c379a000000000000000000000000000000000000000000000000000000000\n      dup2\n      mstore\n      0x04\n      add\n      tag_116\n      swap1\n      tag_117\n      jump\t// in\n    tag_116:\n      mload(0x40)\n      dup1\n      swap2\n      sub\n      swap1\n      revert\n    tag_115:\n        /* \"contracts/_ecommerce.sol\":1633:1645  productCount */\n      0x00\n      dup1\n        /* \"contracts/_ecommerce.sol\":1633:1647  productCount++ */\n      dup2\n      sload\n      dup1\n      swap3\n      swap2\n      swap1\n      tag_118\n      swap1\n      tag_119\n      jump\t// in\n    tag_118:\n      swap2\n      swap1\n      pop\n      sstore\n      pop\n        /* \"contracts/_ecommerce.sol\":1683:1761  Product(productCount, payable(msg.sender), _name, _description, _price, false) */\n      mload(0x40)\n      dup1\n      0xc0\n      add\n      0x40\n      mstore\n      dup1\n        /* \"contracts/_ecommerce.sol\":1691:1703  productCount */\n      sload(0x00)\n        /* \"contracts/_ecommerce.sol\":1683:1761  Product(productCount, payable(msg.sender), _name, _description, _price, false) */\n      dup2\n      mstore\n      0x20\n      add\n        /* \"contracts/_ecommerce.sol\":1713:1723  msg.sender */\n      caller\n        /* \"contracts/_ecommerce.sol\":1683:1761  Product(productCount, payable(msg.sender), _name, _description, _price, false) */\n      0xffffffffffffffffffffffffffffffffffffffff\n      and\n      dup2\n      mstore\n      0x20\n      add\n        /* \"contracts/_ecommerce.sol\":1726:1731  _name */\n      dup7\n      dup7\n        /* \"contracts/_ecommerce.sol\":1683:1761  Product(productCount, payable(msg.sender), _name, _description, _price, false) */\n      dup1\n      dup1\n      0x1f\n      add\n      0x20\n      dup1\n      swap2\n      div\n      mul\n      0x20\n      add\n      mload(0x40)\n      swap1\n      dup2\n      add\n      0x40\n      mstore\n      dup1\n      swap4\n      swap3\n      swap2\n      swap1\n      dup2\n      dup2\n      mstore\n      0x20\n      add\n      dup4\n      dup4\n      dup1\n      dup3\n      dup5\n      calldatacopy\n      0x00\n      dup2\n      dup5\n      add\n      mstore\n      not(0x1f)\n      0x1f\n      dup3\n      add\n      and\n      swap1\n      pop\n      dup1\n      dup4\n      add\n      swap3\n      pop\n      pop\n      pop\n      pop\n      pop\n      pop\n      pop\n      dup2\n      mstore\n      0x20\n      add\n        /* \"contracts/_ecommerce.sol\":1733:1745  _description */\n      dup5\n      dup5\n        /* \"contracts/_ecommerce.sol\":1683:1761  Product(productCount, payable(msg.sender), _name, _description, _price, false) */\n      dup1\n      dup1\n      0x1f\n      add\n      0x20\n      dup1\n      swap2\n      div\n      mul\n      0x20\n      add\n      mload(0x40)\n      swap1\n      dup2\n      add\n      0x40\n      mstore\n      dup1\n      swap4\n      swap3\n      swap2\n      swap1\n      dup2\n      dup2\n      mstore\n      0x20\n      add\n      dup4\n      dup4\n      dup1\n      dup3\n      dup5\n      calldatacopy\n      0x00\n      dup2\n      dup5\n      add\n      mstore\n      not(0x1f)\n      0x1f\n      dup3\n      add\n      and\n      swap1\n      pop\n      dup1\n      dup4\n      add\n      swap3\n      pop\n      pop\n      pop\n      pop\n      pop\n      pop\n      pop\n      dup2\n      mstore\n      0x20\n      add\n        /* \"contracts/_ecommerce.sol\":1747:1753  _price */\n      dup3\n        /* \"contracts/_ecommerce.sol\":1683:1761  Product(productCount, payable(msg.sender), _name, _description, _price, false) */\n      dup2\n      mstore\n      0x20\n      add\n        /* \"contracts/_ecommerce.sol\":1755:1760  false */\n      0x00\n        /* \"contracts/_ecommerce.sol\":1683:1761  Product(productCount, payable(msg.sender), _name, _description, _price, false) */\n      iszero\n      iszero\n      dup2\n      mstore\n      pop\n        /* \"contracts/_ecommerce.sol\":1658:1666  products */\n      0x02\n        /* \"contracts/_ecommerce.sol\":1658:1680  products[productCount] */\n      0x00\n        /* \"contracts/_ecommerce.sol\":1667:1679  productCount */\n      dup1\n      sload\n        /* \"contracts/_ecommerce.sol\":1658:1680  products[productCount] */\n      dup2\n      mstore\n      0x20\n      add\n      swap1\n      dup2\n      mstore\n      0x20\n      add\n      0x00\n      keccak256\n        /* \"contracts/_ecommerce.sol\":1658:1761  products[productCount] = Product(productCount, payable(msg.sender), _name, _description, _price, false) */\n      0x00\n      dup3\n      add\n      mload\n      dup2\n      0x00\n      add\n      sstore\n      0x20\n      dup3\n      add\n      mload\n      dup2\n      0x01\n      add\n      exp(0x0100, 0x00)\n      dup2\n      sload\n      dup2\n      0xffffffffffffffffffffffffffffffffffffffff\n      mul\n      not\n      and\n      swap1\n      dup4\n      0xffffffffffffffffffffffffffffffffffffffff\n      and\n      mul\n      or\n      swap1\n      sstore\n      pop\n      0x40\n      dup3\n      add\n      mload\n      dup2\n      0x02\n      add\n      swap1\n      dup2\n      tag_120\n      swap2\n      swap1\n      tag_121\n      jump\t// in\n    tag_120:\n      pop\n      0x60\n      dup3\n      add\n      mload\n      dup2\n      0x03\n      add\n      swap1\n      dup2\n      tag_122\n      swap2\n      swap1\n      tag_121\n      jump\t// in\n    tag_122:\n      pop\n      0x80\n      dup3\n      add\n      mload\n      dup2\n      0x04\n      add\n      sstore\n      0xa0\n      dup3\n      add\n      mload\n      dup2\n      0x05\n      add\n      exp(0x0100, 0x00)\n      dup2\n      sload\n      dup2\n      0xff\n      mul\n      not\n      and\n      swap1\n      dup4\n      iszero\n      iszero\n      mul\n      or\n      swap1\n      sstore\n      pop\n      swap1\n      pop\n      pop\n        /* \"contracts/_ecommerce.sol\":1777:1831  ProductListed(productCount, msg.sender, _name, _price) */\n      0x899c32fbd27a24397979837f3acd7bfee4a37ee60b2d2f1a0643a725f39a7a49\n        /* \"contracts/_ecommerce.sol\":1791:1803  productCount */\n      sload(0x00)\n        /* \"contracts/_ecommerce.sol\":1805:1815  msg.sender */\n      caller\n        /* \"contracts/_ecommerce.sol\":1817:1822  _name */\n      dup8\n      dup8\n        /* \"contracts/_ecommerce.sol\":1824:1830  _price */\n      dup6\n        /* \"contracts/_ecommerce.sol\":1777:1831  ProductListed(productCount, msg.sender, _name, _price) */\n      mload(0x40)\n      tag_123\n      swap6\n      swap5\n      swap4\n      swap3\n      swap2\n      swap1\n      tag_124\n      jump\t// in\n    tag_123:\n      mload(0x40)\n      dup1\n      swap2\n      sub\n      swap1\n      log1\n        /* \"contracts/_ecommerce.sol\":1461:1839  function listProduct(string calldata _name, string calldata _description, uint _price) external {... */\n      pop\n      pop\n      pop\n      pop\n      pop\n      jump\t// out\n        /* \"contracts/_ecommerce.sol\":489:529  mapping(uint => Product) public products */\n    tag_45:\n      mstore(0x20, 0x02)\n      dup1\n      0x00\n      mstore\n      keccak256(0x00, 0x40)\n      0x00\n      swap2\n      pop\n      swap1\n      pop\n      dup1\n      0x00\n      add\n      sload\n      swap1\n      dup1\n      0x01\n      add\n      0x00\n      swap1\n      sload\n      swap1\n      0x0100\n      exp\n      swap1\n      div\n      0xffffffffffffffffffffffffffffffffffffffff\n      and\n      swap1\n      dup1\n      0x02\n      add\n      dup1\n      sload\n      tag_125\n      swap1\n      tag_126\n      jump\t// in\n    tag_125:\n      dup1\n      0x1f\n      add\n      0x20\n      dup1\n      swap2\n      div\n      mul\n      0x20\n      add\n      mload(0x40)\n      swap1\n      dup2\n      add\n      0x40\n      mstore\n      dup1\n      swap3\n      swap2\n      swap1\n      dup2\n      dup2\n      mstore\n      0x20\n      add\n      dup3\n      dup1\n      sload\n      tag_127\n      swap1\n      tag_126\n      jump\t// in\n    tag_127:\n      dup1\n      iszero\n      tag_128\n      jumpi\n      dup1\n      0x1f\n      lt\n      tag_129\n      jumpi\n      0x0100\n      dup1\n      dup4\n      sload\n      div\n      mul\n      dup4\n      mstore\n      swap2\n      0x20\n      add\n      swap2\n      jump(tag_128)\n    tag_129:\n      dup3\n      add\n      swap2\n      swap1\n      0x00\n      mstore\n      keccak256(0x00, 0x20)\n      swap1\n    tag_130:\n      dup2\n      sload\n      dup2\n      mstore\n      swap1\n      0x01\n      add\n      swap1\n      0x20\n      add\n      dup1\n      dup4\n      gt\n      tag_130\n      jumpi\n      dup3\n      swap1\n      sub\n      0x1f\n      and\n      dup3\n      add\n      swap2\n    tag_128:\n      pop\n      pop\n      pop\n      pop\n      pop\n      swap1\n      dup1\n      0x03\n      add\n      dup1\n      sload\n      tag_131\n      swap1\n      tag_126\n      jump\t// in\n    tag_131:\n      dup1\n      0x1f\n      add\n      0x20\n      dup1\n      swap2\n      div\n      mul\n      0x20\n      add\n      mload(0x40)\n      swap1\n      dup2\n      add\n      0x40\n      mstore\n      dup1\n      swap3\n      swap2\n      swap1\n      dup2\n      dup2\n      mstore\n      0x20\n      add\n      dup3\n      dup1\n      sload\n      tag_132\n      swap1\n      tag_126\n      jump\t// in\n    tag_132:\n      dup1\n      iszero\n      tag_133\n      jumpi\n      dup1\n      0x1f\n      lt\n      tag_134\n      jumpi\n      0x0100\n      dup1\n      dup4\n      sload\n      div\n      mul\n      dup4\n      mstore\n      swap2\n      0x20\n      add\n      swap2\n      jump(tag_133)\n    tag_134:\n      dup3\n      add\n      swap2\n      swap1\n      0x00\n      mstore\n      keccak256(0x00, 0x20)\n      swap1\n    tag_135:\n      dup2\n      sload\n      dup2\n      mstore\n      swap1\n      0x01\n      add\n      swap1\n      0x20\n      add\n      dup1\n      dup4\n      gt\n      tag_135\n      jumpi\n      dup3\n      swap1\n      sub\n      0x1f\n      and\n      dup3\n      add\n      swap2\n    tag_133:\n      pop\n      pop\n      pop\n      pop\n      pop\n      swap1\n      dup1\n      0x04\n      add\n      sload\n      swap1\n      dup1\n      0x05\n      add\n      0x00\n      swap1\n      sload\n      swap1\n      0x0100\n      exp\n      swap1\n      div\n      0xff\n      and\n      swap1\n      pop\n      dup7\n      jump\t// out\n        /* \"contracts/_ecommerce.sol\":1847:2306  function buyProduct(uint _productId) external payable {... */\n    tag_50:\n        /* \"contracts/_ecommerce.sol\":1912:1935  Product storage product */\n      0x00\n        /* \"contracts/_ecommerce.sol\":1938:1946  products */\n      0x02\n        /* \"contracts/_ecommerce.sol\":1938:1958  products[_productId] */\n      0x00\n        /* \"contracts/_ecommerce.sol\":1947:1957  _productId */\n      dup4\n        /* \"contracts/_ecommerce.sol\":1938:1958  products[_productId] */\n      dup2\n      mstore\n      0x20\n      add\n      swap1\n      dup2\n      mstore\n      0x20\n      add\n      0x00\n      keccak256\n        /* \"contracts/_ecommerce.sol\":1912:1958  Product storage product = products[_productId] */\n      swap1\n      pop\n        /* \"contracts/_ecommerce.sol\":1978:1985  product */\n      dup1\n        /* \"contracts/_ecommerce.sol\":1978:1990  product.sold */\n      0x05\n      add\n      0x00\n      swap1\n      sload\n      swap1\n      0x0100\n      exp\n      swap1\n      div\n      0xff\n      and\n        /* \"contracts/_ecommerce.sol\":1977:1990  !product.sold */\n      iszero\n        /* \"contracts/_ecommerce.sol\":1969:2015  require(!product.sold, \"Product already sold\") */\n      tag_137\n      jumpi\n      mload(0x40)\n      0x08c379a000000000000000000000000000000000000000000000000000000000\n      dup2\n      mstore\n      0x04\n      add\n      tag_138\n      swap1\n      tag_139\n      jump\t// in\n    tag_138:\n      mload(0x40)\n      dup1\n      swap2\n      sub\n      swap1\n      revert\n    tag_137:\n        /* \"contracts/_ecommerce.sol\":2047:2054  product */\n      dup1\n        /* \"contracts/_ecommerce.sol\":2047:2060  product.price */\n      0x04\n      add\n      sload\n        /* \"contracts/_ecommerce.sol\":2034:2043  msg.value */\n      callvalue\n        /* \"contracts/_ecommerce.sol\":2034:2060  msg.value == product.price */\n      eq\n        /* \"contracts/_ecommerce.sol\":2026:2080  require(msg.value == product.price, \"Incorrect price\") */\n      tag_140\n      jumpi\n      mload(0x40)\n      0x08c379a000000000000000000000000000000000000000000000000000000000\n      dup2\n      mstore\n      0x04\n      add\n      tag_141\n      swap1\n      tag_142\n      jump\t// in\n    tag_141:\n      mload(0x40)\n      dup1\n      swap2\n      sub\n      swap1\n      revert\n    tag_140:\n        /* \"contracts/_ecommerce.sol\":2093:2103  orderCount */\n      0x01\n      0x00\n        /* \"contracts/_ecommerce.sol\":2093:2105  orderCount++ */\n      dup2\n      sload\n      dup1\n      swap3\n      swap2\n      swap1\n      tag_143\n      swap1\n      tag_119\n      jump\t// in\n    tag_143:\n      swap2\n      swap1\n      pop\n      sstore\n      pop\n        /* \"contracts/_ecommerce.sol\":2137:2198  Order(_productId, msg.sender, msg.value, false, false, false) */\n      mload(0x40)\n      dup1\n      0xc0\n      add\n      0x40\n      mstore\n      dup1\n        /* \"contracts/_ecommerce.sol\":2143:2153  _productId */\n      dup4\n        /* \"contracts/_ecommerce.sol\":2137:2198  Order(_productId, msg.sender, msg.value, false, false, false) */\n      dup2\n      mstore\n      0x20\n      add\n        /* \"contracts/_ecommerce.sol\":2155:2165  msg.sender */\n      caller\n        /* \"contracts/_ecommerce.sol\":2137:2198  Order(_productId, msg.sender, msg.value, false, false, false) */\n      0xffffffffffffffffffffffffffffffffffffffff\n      and\n      dup2\n      mstore\n      0x20\n      add\n        /* \"contracts/_ecommerce.sol\":2167:2176  msg.value */\n      callvalue\n        /* \"contracts/_ecommerce.sol\":2137:2198  Order(_productId, msg.sender, msg.value, false, false, false) */\n      dup2\n      mstore\n      0x20\n      add\n        /* \"contracts/_ecommerce.sol\":2178:2183  false */\n      0x00\n        /* \"contracts/_ecommerce.sol\":2137:2198  Order(_productId, msg.sender, msg.value, false, false, false) */\n      iszero\n      iszero\n      dup2\n      mstore\n      0x20\n      add\n        /* \"contracts/_ecommerce.sol\":2185:2190  false */\n      0x00\n        /* \"contracts/_ecommerce.sol\":2137:2198  Order(_productId, msg.sender, msg.value, false, false, false) */\n      iszero\n      iszero\n      dup2\n      mstore\n      0x20\n      add\n        /* \"contracts/_ecommerce.sol\":2192:2197  false */\n      0x00\n        /* \"contracts/_ecommerce.sol\":2137:2198  Order(_productId, msg.sender, msg.value, false, false, false) */\n      iszero\n      iszero\n      dup2\n      mstore\n      pop\n        /* \"contracts/_ecommerce.sol\":2116:2122  orders */\n      0x03\n        /* \"contracts/_ecommerce.sol\":2116:2134  orders[orderCount] */\n      0x00\n        /* \"contracts/_ecommerce.sol\":2123:2133  orderCount */\n      sload(0x01)\n        /* \"contracts/_ecommerce.sol\":2116:2134  orders[orderCount] */\n      dup2\n      mstore\n      0x20\n      add\n      swap1\n      dup2\n      mstore\n      0x20\n      add\n      0x00\n      keccak256\n        /* \"contracts/_ecommerce.sol\":2116:2198  orders[orderCount] = Order(_productId, msg.sender, msg.value, false, false, false) */\n      0x00\n      dup3\n      add\n      mload\n      dup2\n      0x00\n      add\n      sstore\n      0x20\n      dup3\n      add\n      mload\n      dup2\n      0x01\n      add\n      exp(0x0100, 0x00)\n      dup2\n      sload\n      dup2\n      0xffffffffffffffffffffffffffffffffffffffff\n      mul\n      not\n      and\n      swap1\n      dup4\n      0xffffffffffffffffffffffffffffffffffffffff\n      and\n      mul\n      or\n      swap1\n      sstore\n      pop\n      0x40\n      dup3\n      add\n      mload\n      dup2\n      0x02\n      add\n      sstore\n      0x60\n      dup3\n      add\n      mload\n      dup2\n      0x03\n      add\n      exp(0x0100, 0x00)\n      dup2\n      sload\n      dup2\n      0xff\n      mul\n      not\n      and\n      swap1\n      dup4\n      iszero\n      iszero\n      mul\n      or\n      swap1\n      sstore\n      pop\n      0x80\n      dup3\n      add\n      mload\n      dup2\n      0x03\n      add\n      exp(0x0100, 0x01)\n      dup2\n      sload\n      dup2\n      0xff\n      mul\n      not\n      and\n      swap1\n      dup4\n      iszero\n      iszero\n      mul\n      or\n      swap1\n      sstore\n      pop\n      0xa0\n      dup3\n      add\n      mload\n      dup2\n      0x03\n      add\n      exp(0x0100, 0x02)\n      dup2\n      sload\n      dup2\n      0xff\n      mul\n      not\n      and\n      swap1\n      dup4\n      iszero\n      iszero\n      mul\n      or\n      swap1\n      sstore\n      pop\n      swap1\n      pop\n      pop\n        /* \"contracts/_ecommerce.sol\":2224:2228  true */\n      0x01\n        /* \"contracts/_ecommerce.sol\":2209:2216  product */\n      dup2\n        /* \"contracts/_ecommerce.sol\":2209:2221  product.sold */\n      0x05\n      add\n      0x00\n        /* \"contracts/_ecommerce.sol\":2209:2228  product.sold = true */\n      0x0100\n      exp\n      dup2\n      sload\n      dup2\n      0xff\n      mul\n      not\n      and\n      swap1\n      dup4\n      iszero\n      iszero\n      mul\n      or\n      swap1\n      sstore\n      pop\n        /* \"contracts/_ecommerce.sol\":2246:2298  ProductPurchased(_productId, msg.sender, orderCount) */\n      0xa530f889d7f1bd9a73028e48944ca013ab2c6624a31e3fa26f923f4bb719abd5\n        /* \"contracts/_ecommerce.sol\":2263:2273  _productId */\n      dup3\n        /* \"contracts/_ecommerce.sol\":2275:2285  msg.sender */\n      caller\n        /* \"contracts/_ecommerce.sol\":2287:2297  orderCount */\n      sload(0x01)\n        /* \"contracts/_ecommerce.sol\":2246:2298  ProductPurchased(_productId, msg.sender, orderCount) */\n      mload(0x40)\n      tag_144\n      swap4\n      swap3\n      swap2\n      swap1\n      tag_145\n      jump\t// in\n    tag_144:\n      mload(0x40)\n      dup1\n      swap2\n      sub\n      swap1\n      log1\n        /* \"contracts/_ecommerce.sol\":1901:2306  {... */\n      pop\n        /* \"contracts/_ecommerce.sol\":1847:2306  function buyProduct(uint _productId) external payable {... */\n      pop\n      jump\t// out\n        /* \"contracts/_ecommerce.sol\":536:572  mapping(uint => Order) public orders */\n    tag_54:\n      mstore(0x20, 0x03)\n      dup1\n      0x00\n      mstore\n      keccak256(0x00, 0x40)\n      0x00\n      swap2\n      pop\n      swap1\n      pop\n      dup1\n      0x00\n      add\n      sload\n      swap1\n      dup1\n      0x01\n      add\n      0x00\n      swap1\n      sload\n      swap1\n      0x0100\n      exp\n      swap1\n      div\n      0xffffffffffffffffffffffffffffffffffffffff\n      and\n      swap1\n      dup1\n      0x02\n      add\n      sload\n      swap1\n      dup1\n      0x03\n      add\n      0x00\n      swap1\n      sload\n      swap1\n      0x0100\n      exp\n      swap1\n      div\n      0xff\n      and\n      swap1\n      dup1\n      0x03\n      add\n      0x01\n      swap1\n      sload\n      swap1\n      0x0100\n      exp\n      swap1\n      div\n      0xff\n      and\n      swap1\n      dup1\n      0x03\n      add\n      0x02\n      swap1\n      sload\n      swap1\n      0x0100\n      exp\n      swap1\n      div\n      0xff\n      and\n      swap1\n      pop\n      dup7\n      jump\t// out\n        /* \"contracts/_ecommerce.sol\":429:453  uint public productCount */\n    tag_59:\n      sload(0x00)\n      dup2\n      jump\t// out\n        /* \"contracts/_ecommerce.sol\":579:599  address public admin */\n    tag_63:\n      0x04\n      0x00\n      swap1\n      sload\n      swap1\n      0x0100\n      exp\n      swap1\n      div\n      0xffffffffffffffffffffffffffffffffffffffff\n      and\n      dup2\n      jump\t// out\n        /* \"#utility.yul\":7:84   */\n    tag_146:\n        /* \"#utility.yul\":44:51   */\n      0x00\n        /* \"#utility.yul\":73:78   */\n      dup2\n        /* \"#utility.yul\":62:78   */\n      swap1\n      pop\n        /* \"#utility.yul\":7:84   */\n      swap2\n      swap1\n      pop\n      jump\t// out\n        /* \"#utility.yul\":90:208   */\n    tag_147:\n        /* \"#utility.yul\":177:201   */\n      tag_214\n        /* \"#utility.yul\":195:200   */\n      dup2\n        /* \"#utility.yul\":177:201   */\n      tag_146\n      jump\t// in\n    tag_214:\n        /* \"#utility.yul\":172:175   */\n      dup3\n        /* \"#utility.yul\":165:202   */\n      mstore\n        /* \"#utility.yul\":90:208   */\n      pop\n      pop\n      jump\t// out\n        /* \"#utility.yul\":214:436   */\n    tag_18:\n        /* \"#utility.yul\":307:311   */\n      0x00\n        /* \"#utility.yul\":345:347   */\n      0x20\n        /* \"#utility.yul\":334:343   */\n      dup3\n        /* \"#utility.yul\":330:348   */\n      add\n        /* \"#utility.yul\":322:348   */\n      swap1\n      pop\n        /* \"#utility.yul\":358:429   */\n      tag_216\n        /* \"#utility.yul\":426:427   */\n      0x00\n        /* \"#utility.yul\":415:424   */\n      dup4\n        /* \"#utility.yul\":411:428   */\n      add\n        /* \"#utility.yul\":402:408   */\n      dup5\n        /* \"#utility.yul\":358:429   */\n      tag_147\n      jump\t// in\n    tag_216:\n        /* \"#utility.yul\":214:436   */\n      swap3\n      swap2\n      pop\n      pop\n      jump\t// out\n        /* \"#utility.yul\":523:640   */\n    tag_149:\n        /* \"#utility.yul\":632:633   */\n      0x00\n        /* \"#utility.yul\":629:630   */\n      dup1\n        /* \"#utility.yul\":622:634   */\n      revert\n        /* \"#utility.yul\":646:763   */\n    tag_150:\n        /* \"#utility.yul\":755:756   */\n      0x00\n        /* \"#utility.yul\":752:753   */\n      dup1\n        /* \"#utility.yul\":745:757   */\n      revert\n        /* \"#utility.yul\":769:891   */\n    tag_151:\n        /* \"#utility.yul\":842:866   */\n      tag_221\n        /* \"#utility.yul\":860:865   */\n      dup2\n        /* \"#utility.yul\":842:866   */\n      tag_146\n      jump\t// in\n    tag_221:\n        /* \"#utility.yul\":835:840   */\n      dup2\n        /* \"#utility.yul\":832:867   */\n      eq\n        /* \"#utility.yul\":822:885   */\n      tag_222\n      jumpi\n        /* \"#utility.yul\":881:882   */\n      0x00\n        /* \"#utility.yul\":878:879   */\n      dup1\n        /* \"#utility.yul\":871:883   */\n      revert\n        /* \"#utility.yul\":822:885   */\n    tag_222:\n        /* \"#utility.yul\":769:891   */\n      pop\n      jump\t// out\n        /* \"#utility.yul\":897:1036   */\n    tag_152:\n        /* \"#utility.yul\":943:948   */\n      0x00\n        /* \"#utility.yul\":981:987   */\n      dup2\n        /* \"#utility.yul\":968:988   */\n      calldataload\n        /* \"#utility.yul\":959:988   */\n      swap1\n      pop\n        /* \"#utility.yul\":997:1030   */\n      tag_224\n        /* \"#utility.yul\":1024:1029   */\n      dup2\n        /* \"#utility.yul\":997:1030   */\n      tag_151\n      jump\t// in\n    tag_224:\n        /* \"#utility.yul\":897:1036   */\n      swap3\n      swap2\n      pop\n      pop\n      jump\t// out\n        /* \"#utility.yul\":1042:1371   */\n    tag_22:\n        /* \"#utility.yul\":1101:1107   */\n      0x00\n        /* \"#utility.yul\":1150:1152   */\n      0x20\n        /* \"#utility.yul\":1138:1147   */\n      dup3\n        /* \"#utility.yul\":1129:1136   */\n      dup5\n        /* \"#utility.yul\":1125:1148   */\n      sub\n        /* \"#utility.yul\":1121:1153   */\n      slt\n        /* \"#utility.yul\":1118:1237   */\n      iszero\n      tag_226\n      jumpi\n        /* \"#utility.yul\":1156:1235   */\n      tag_227\n      tag_149\n      jump\t// in\n    tag_227:\n        /* \"#utility.yul\":1118:1237   */\n    tag_226:\n        /* \"#utility.yul\":1276:1277   */\n      0x00\n        /* \"#utility.yul\":1301:1354   */\n      tag_228\n        /* \"#utility.yul\":1346:1353   */\n      dup5\n        /* \"#utility.yul\":1337:1343   */\n      dup3\n        /* \"#utility.yul\":1326:1335   */\n      dup6\n        /* \"#utility.yul\":1322:1344   */\n      add\n        /* \"#utility.yul\":1301:1354   */\n      tag_152\n      jump\t// in\n    tag_228:\n        /* \"#utility.yul\":1291:1354   */\n      swap2\n      pop\n        /* \"#utility.yul\":1247:1364   */\n      pop\n        /* \"#utility.yul\":1042:1371   */\n      swap3\n      swap2\n      pop\n      pop\n      jump\t// out\n        /* \"#utility.yul\":1377:1467   */\n    tag_153:\n        /* \"#utility.yul\":1411:1418   */\n      0x00\n        /* \"#utility.yul\":1454:1459   */\n      dup2\n        /* \"#utility.yul\":1447:1460   */\n      iszero\n        /* \"#utility.yul\":1440:1461   */\n      iszero\n        /* \"#utility.yul\":1429:1461   */\n      swap1\n      pop\n        /* \"#utility.yul\":1377:1467   */\n      swap2\n      swap1\n      pop\n      jump\t// out\n        /* \"#utility.yul\":1473:1589   */\n    tag_154:\n        /* \"#utility.yul\":1543:1564   */\n      tag_231\n        /* \"#utility.yul\":1558:1563   */\n      dup2\n        /* \"#utility.yul\":1543:1564   */\n      tag_153\n      jump\t// in\n    tag_231:\n        /* \"#utility.yul\":1536:1541   */\n      dup2\n        /* \"#utility.yul\":1533:1565   */\n      eq\n        /* \"#utility.yul\":1523:1583   */\n      tag_232\n      jumpi\n        /* \"#utility.yul\":1579:1580   */\n      0x00\n        /* \"#utility.yul\":1576:1577   */\n      dup1\n        /* \"#utility.yul\":1569:1581   */\n      revert\n        /* \"#utility.yul\":1523:1583   */\n    tag_232:\n        /* \"#utility.yul\":1473:1589   */\n      pop\n      jump\t// out\n        /* \"#utility.yul\":1595:1728   */\n    tag_155:\n        /* \"#utility.yul\":1638:1643   */\n      0x00\n        /* \"#utility.yul\":1676:1682   */\n      dup2\n        /* \"#utility.yul\":1663:1683   */\n      calldataload\n        /* \"#utility.yul\":1654:1683   */\n      swap1\n      pop\n        /* \"#utility.yul\":1692:1722   */\n      tag_234\n        /* \"#utility.yul\":1716:1721   */\n      dup2\n        /* \"#utility.yul\":1692:1722   */\n      tag_154\n      jump\t// in\n    tag_234:\n        /* \"#utility.yul\":1595:1728   */\n      swap3\n      swap2\n      pop\n      pop\n      jump\t// out\n        /* \"#utility.yul\":1734:2202   */\n    tag_35:\n        /* \"#utility.yul\":1799:1805   */\n      0x00\n        /* \"#utility.yul\":1807:1813   */\n      dup1\n        /* \"#utility.yul\":1856:1858   */\n      0x40\n        /* \"#utility.yul\":1844:1853   */\n      dup4\n        /* \"#utility.yul\":1835:1842   */\n      dup6\n        /* \"#utility.yul\":1831:1854   */\n      sub\n        /* \"#utility.yul\":1827:1859   */\n      slt\n        /* \"#utility.yul\":1824:1943   */\n      iszero\n      tag_236\n      jumpi\n        /* \"#utility.yul\":1862:1941   */\n      tag_237\n      tag_149\n      jump\t// in\n    tag_237:\n        /* \"#utility.yul\":1824:1943   */\n    tag_236:\n        /* \"#utility.yul\":1982:1983   */\n      0x00\n        /* \"#utility.yul\":2007:2060   */\n      tag_238\n        /* \"#utility.yul\":2052:2059   */\n      dup6\n        /* \"#utility.yul\":2043:2049   */\n      dup3\n        /* \"#utility.yul\":2032:2041   */\n      dup7\n        /* \"#utility.yul\":2028:2050   */\n      add\n        /* \"#utility.yul\":2007:2060   */\n      tag_152\n      jump\t// in\n    tag_238:\n        /* \"#utility.yul\":1997:2060   */\n      swap3\n      pop\n        /* \"#utility.yul\":1953:2070   */\n      pop\n        /* \"#utility.yul\":2109:2111   */\n      0x20\n        /* \"#utility.yul\":2135:2185   */\n      tag_239\n        /* \"#utility.yul\":2177:2184   */\n      dup6\n        /* \"#utility.yul\":2168:2174   */\n      dup3\n        /* \"#utility.yul\":2157:2166   */\n      dup7\n        /* \"#utility.yul\":2153:2175   */\n      add\n        /* \"#utility.yul\":2135:2185   */\n      tag_155\n      jump\t// in\n    tag_239:\n        /* \"#utility.yul\":2125:2185   */\n      swap2\n      pop\n        /* \"#utility.yul\":2080:2195   */\n      pop\n        /* \"#utility.yul\":1734:2202   */\n      swap3\n      pop\n      swap3\n      swap1\n      pop\n      jump\t// out\n        /* \"#utility.yul\":2208:2325   */\n    tag_156:\n        /* \"#utility.yul\":2317:2318   */\n      0x00\n        /* \"#utility.yul\":2314:2315   */\n      dup1\n        /* \"#utility.yul\":2307:2319   */\n      revert\n        /* \"#utility.yul\":2331:2448   */\n    tag_157:\n        /* \"#utility.yul\":2440:2441   */\n      0x00\n        /* \"#utility.yul\":2437:2438   */\n      dup1\n        /* \"#utility.yul\":2430:2442   */\n      revert\n        /* \"#utility.yul\":2454:2571   */\n    tag_158:\n        /* \"#utility.yul\":2563:2564   */\n      0x00\n        /* \"#utility.yul\":2560:2561   */\n      dup1\n        /* \"#utility.yul\":2553:2565   */\n      revert\n        /* \"#utility.yul\":2591:3144   */\n    tag_159:\n        /* \"#utility.yul\":2649:2657   */\n      0x00\n        /* \"#utility.yul\":2659:2665   */\n      dup1\n        /* \"#utility.yul\":2709:2712   */\n      dup4\n        /* \"#utility.yul\":2702:2706   */\n      0x1f\n        /* \"#utility.yul\":2694:2700   */\n      dup5\n        /* \"#utility.yul\":2690:2707   */\n      add\n        /* \"#utility.yul\":2686:2713   */\n      slt\n        /* \"#utility.yul\":2676:2798   */\n      tag_244\n      jumpi\n        /* \"#utility.yul\":2717:2796   */\n      tag_245\n      tag_156\n      jump\t// in\n    tag_245:\n        /* \"#utility.yul\":2676:2798   */\n    tag_244:\n        /* \"#utility.yul\":2830:2836   */\n      dup3\n        /* \"#utility.yul\":2817:2837   */\n      calldataload\n        /* \"#utility.yul\":2807:2837   */\n      swap1\n      pop\n        /* \"#utility.yul\":2860:2878   */\n      0xffffffffffffffff\n        /* \"#utility.yul\":2852:2858   */\n      dup2\n        /* \"#utility.yul\":2849:2879   */\n      gt\n        /* \"#utility.yul\":2846:2963   */\n      iszero\n      tag_246\n      jumpi\n        /* \"#utility.yul\":2882:2961   */\n      tag_247\n      tag_157\n      jump\t// in\n    tag_247:\n        /* \"#utility.yul\":2846:2963   */\n    tag_246:\n        /* \"#utility.yul\":2996:3000   */\n      0x20\n        /* \"#utility.yul\":2988:2994   */\n      dup4\n        /* \"#utility.yul\":2984:3001   */\n      add\n        /* \"#utility.yul\":2972:3001   */\n      swap2\n      pop\n        /* \"#utility.yul\":3050:3053   */\n      dup4\n        /* \"#utility.yul\":3042:3046   */\n      0x01\n        /* \"#utility.yul\":3034:3040   */\n      dup3\n        /* \"#utility.yul\":3030:3047   */\n      mul\n        /* \"#utility.yul\":3020:3028   */\n      dup4\n        /* \"#utility.yul\":3016:3048   */\n      add\n        /* \"#utility.yul\":3013:3054   */\n      gt\n        /* \"#utility.yul\":3010:3138   */\n      iszero\n      tag_248\n      jumpi\n        /* \"#utility.yul\":3057:3136   */\n      tag_249\n      tag_158\n      jump\t// in\n    tag_249:\n        /* \"#utility.yul\":3010:3138   */\n    tag_248:\n        /* \"#utility.yul\":2591:3144   */\n      swap3\n      pop\n      swap3\n      swap1\n      pop\n      jump\t// out\n        /* \"#utility.yul\":3150:4169   */\n    tag_40:\n        /* \"#utility.yul\":3251:3257   */\n      0x00\n        /* \"#utility.yul\":3259:3265   */\n      dup1\n        /* \"#utility.yul\":3267:3273   */\n      0x00\n        /* \"#utility.yul\":3275:3281   */\n      dup1\n        /* \"#utility.yul\":3283:3289   */\n      0x00\n        /* \"#utility.yul\":3332:3334   */\n      0x60\n        /* \"#utility.yul\":3320:3329   */\n      dup7\n        /* \"#utility.yul\":3311:3318   */\n      dup9\n        /* \"#utility.yul\":3307:3330   */\n      sub\n        /* \"#utility.yul\":3303:3335   */\n      slt\n        /* \"#utility.yul\":3300:3419   */\n      iszero\n      tag_251\n      jumpi\n        /* \"#utility.yul\":3338:3417   */\n      tag_252\n      tag_149\n      jump\t// in\n    tag_252:\n        /* \"#utility.yul\":3300:3419   */\n    tag_251:\n        /* \"#utility.yul\":3486:3487   */\n      0x00\n        /* \"#utility.yul\":3475:3484   */\n      dup7\n        /* \"#utility.yul\":3471:3488   */\n      add\n        /* \"#utility.yul\":3458:3489   */\n      calldataload\n        /* \"#utility.yul\":3516:3534   */\n      0xffffffffffffffff\n        /* \"#utility.yul\":3508:3514   */\n      dup2\n        /* \"#utility.yul\":3505:3535   */\n      gt\n        /* \"#utility.yul\":3502:3619   */\n      iszero\n      tag_253\n      jumpi\n        /* \"#utility.yul\":3538:3617   */\n      tag_254\n      tag_150\n      jump\t// in\n    tag_254:\n        /* \"#utility.yul\":3502:3619   */\n    tag_253:\n        /* \"#utility.yul\":3651:3716   */\n      tag_255\n        /* \"#utility.yul\":3708:3715   */\n      dup9\n        /* \"#utility.yul\":3699:3705   */\n      dup3\n        /* \"#utility.yul\":3688:3697   */\n      dup10\n        /* \"#utility.yul\":3684:3706   */\n      add\n        /* \"#utility.yul\":3651:3716   */\n      tag_159\n      jump\t// in\n    tag_255:\n        /* \"#utility.yul\":3633:3716   */\n      swap6\n      pop\n      swap6\n      pop\n        /* \"#utility.yul\":3429:3726   */\n      pop\n        /* \"#utility.yul\":3793:3795   */\n      0x20\n        /* \"#utility.yul\":3782:3791   */\n      dup7\n        /* \"#utility.yul\":3778:3796   */\n      add\n        /* \"#utility.yul\":3765:3797   */\n      calldataload\n        /* \"#utility.yul\":3824:3842   */\n      0xffffffffffffffff\n        /* \"#utility.yul\":3816:3822   */\n      dup2\n        /* \"#utility.yul\":3813:3843   */\n      gt\n        /* \"#utility.yul\":3810:3927   */\n      iszero\n      tag_256\n      jumpi\n        /* \"#utility.yul\":3846:3925   */\n      tag_257\n      tag_150\n      jump\t// in\n    tag_257:\n        /* \"#utility.yul\":3810:3927   */\n    tag_256:\n        /* \"#utility.yul\":3959:4024   */\n      tag_258\n        /* \"#utility.yul\":4016:4023   */\n      dup9\n        /* \"#utility.yul\":4007:4013   */\n      dup3\n        /* \"#utility.yul\":3996:4005   */\n      dup10\n        /* \"#utility.yul\":3992:4014   */\n      add\n        /* \"#utility.yul\":3959:4024   */\n      tag_159\n      jump\t// in\n    tag_258:\n        /* \"#utility.yul\":3941:4024   */\n      swap4\n      pop\n      swap4\n      pop\n        /* \"#utility.yul\":3736:4034   */\n      pop\n        /* \"#utility.yul\":4073:4075   */\n      0x40\n        /* \"#utility.yul\":4099:4152   */\n      tag_259\n        /* \"#utility.yul\":4144:4151   */\n      dup9\n        /* \"#utility.yul\":4135:4141   */\n      dup3\n        /* \"#utility.yul\":4124:4133   */\n      dup10\n        /* \"#utility.yul\":4120:4142   */\n      add\n        /* \"#utility.yul\":4099:4152   */\n      tag_152\n      jump\t// in\n    tag_259:\n        /* \"#utility.yul\":4089:4152   */\n      swap2\n      pop\n        /* \"#utility.yul\":4044:4162   */\n      pop\n        /* \"#utility.yul\":3150:4169   */\n      swap3\n      swap6\n      pop\n      swap3\n      swap6\n      swap1\n      swap4\n      pop\n      jump\t// out\n        /* \"#utility.yul\":4175:4301   */\n    tag_160:\n        /* \"#utility.yul\":4212:4219   */\n      0x00\n        /* \"#utility.yul\":4252:4294   */\n      0xffffffffffffffffffffffffffffffffffffffff\n        /* \"#utility.yul\":4245:4250   */\n      dup3\n        /* \"#utility.yul\":4241:4295   */\n      and\n        /* \"#utility.yul\":4230:4295   */\n      swap1\n      pop\n        /* \"#utility.yul\":4175:4301   */\n      swap2\n      swap1\n      pop\n      jump\t// out\n        /* \"#utility.yul\":4307:4411   */\n    tag_161:\n        /* \"#utility.yul\":4352:4359   */\n      0x00\n        /* \"#utility.yul\":4381:4405   */\n      tag_262\n        /* \"#utility.yul\":4399:4404   */\n      dup3\n        /* \"#utility.yul\":4381:4405   */\n      tag_160\n      jump\t// in\n    tag_262:\n        /* \"#utility.yul\":4370:4405   */\n      swap1\n      pop\n        /* \"#utility.yul\":4307:4411   */\n      swap2\n      swap1\n      pop\n      jump\t// out\n        /* \"#utility.yul\":4417:4559   */\n    tag_162:\n        /* \"#utility.yul\":4520:4552   */\n      tag_264\n        /* \"#utility.yul\":4546:4551   */\n      dup2\n        /* \"#utility.yul\":4520:4552   */\n      tag_161\n      jump\t// in\n    tag_264:\n        /* \"#utility.yul\":4515:4518   */\n      dup3\n        /* \"#utility.yul\":4508:4553   */\n      mstore\n        /* \"#utility.yul\":4417:4559   */\n      pop\n      pop\n      jump\t// out\n        /* \"#utility.yul\":4565:4664   */\n    tag_163:\n        /* \"#utility.yul\":4617:4623   */\n      0x00\n        /* \"#utility.yul\":4651:4656   */\n      dup2\n        /* \"#utility.yul\":4645:4657   */\n      mload\n        /* \"#utility.yul\":4635:4657   */\n      swap1\n      pop\n        /* \"#utility.yul\":4565:4664   */\n      swap2\n      swap1\n      pop\n      jump\t// out\n        /* \"#utility.yul\":4670:4839   */\n    tag_164:\n        /* \"#utility.yul\":4754:4765   */\n      0x00\n        /* \"#utility.yul\":4788:4794   */\n      dup3\n        /* \"#utility.yul\":4783:4786   */\n      dup3\n        /* \"#utility.yul\":4776:4795   */\n      mstore\n        /* \"#utility.yul\":4828:4832   */\n      0x20\n        /* \"#utility.yul\":4823:4826   */\n      dup3\n        /* \"#utility.yul\":4819:4833   */\n      add\n        /* \"#utility.yul\":4804:4833   */\n      swap1\n      pop\n        /* \"#utility.yul\":4670:4839   */\n      swap3\n      swap2\n      pop\n      pop\n      jump\t// out\n        /* \"#utility.yul\":4845:4984   */\n    tag_165:\n        /* \"#utility.yul\":4934:4940   */\n      dup3\n        /* \"#utility.yul\":4929:4932   */\n      dup2\n        /* \"#utility.yul\":4924:4927   */\n      dup4\n        /* \"#utility.yul\":4918:4941   */\n      mcopy\n        /* \"#utility.yul\":4975:4976   */\n      0x00\n        /* \"#utility.yul\":4966:4972   */\n      dup4\n        /* \"#utility.yul\":4961:4964   */\n      dup4\n        /* \"#utility.yul\":4957:4973   */\n      add\n        /* \"#utility.yul\":4950:4977   */\n      mstore\n        /* \"#utility.yul\":4845:4984   */\n      pop\n      pop\n      pop\n      jump\t// out\n        /* \"#utility.yul\":4990:5092   */\n    tag_166:\n        /* \"#utility.yul\":5031:5037   */\n      0x00\n        /* \"#utility.yul\":5082:5084   */\n      0x1f\n        /* \"#utility.yul\":5078:5085   */\n      not\n        /* \"#utility.yul\":5073:5075   */\n      0x1f\n        /* \"#utility.yul\":5066:5071   */\n      dup4\n        /* \"#utility.yul\":5062:5076   */\n      add\n        /* \"#utility.yul\":5058:5086   */\n      and\n        /* \"#utility.yul\":5048:5086   */\n      swap1\n      pop\n        /* \"#utility.yul\":4990:5092   */\n      swap2\n      swap1\n      pop\n      jump\t// out\n        /* \"#utility.yul\":5098:5475   */\n    tag_167:\n        /* \"#utility.yul\":5186:5189   */\n      0x00\n        /* \"#utility.yul\":5214:5253   */\n      tag_270\n        /* \"#utility.yul\":5247:5252   */\n      dup3\n        /* \"#utility.yul\":5214:5253   */\n      tag_163\n      jump\t// in\n    tag_270:\n        /* \"#utility.yul\":5269:5340   */\n      tag_271\n        /* \"#utility.yul\":5333:5339   */\n      dup2\n        /* \"#utility.yul\":5328:5331   */\n      dup6\n        /* \"#utility.yul\":5269:5340   */\n      tag_164\n      jump\t// in\n    tag_271:\n        /* \"#utility.yul\":5262:5340   */\n      swap4\n      pop\n        /* \"#utility.yul\":5349:5414   */\n      tag_272\n        /* \"#utility.yul\":5407:5413   */\n      dup2\n        /* \"#utility.yul\":5402:5405   */\n      dup6\n        /* \"#utility.yul\":5395:5399   */\n      0x20\n        /* \"#utility.yul\":5388:5393   */\n      dup7\n        /* \"#utility.yul\":5384:5400   */\n      add\n        /* \"#utility.yul\":5349:5414   */\n      tag_165\n      jump\t// in\n    tag_272:\n        /* \"#utility.yul\":5439:5468   */\n      tag_273\n        /* \"#utility.yul\":5461:5467   */\n      dup2\n        /* \"#utility.yul\":5439:5468   */\n      tag_166\n      jump\t// in\n    tag_273:\n        /* \"#utility.yul\":5434:5437   */\n      dup5\n        /* \"#utility.yul\":5430:5469   */\n      add\n        /* \"#utility.yul\":5423:5469   */\n      swap2\n      pop\n        /* \"#utility.yul\":5190:5475   */\n      pop\n        /* \"#utility.yul\":5098:5475   */\n      swap3\n      swap2\n      pop\n      pop\n      jump\t// out\n        /* \"#utility.yul\":5481:5590   */\n    tag_168:\n        /* \"#utility.yul\":5562:5583   */\n      tag_275\n        /* \"#utility.yul\":5577:5582   */\n      dup2\n        /* \"#utility.yul\":5562:5583   */\n      tag_153\n      jump\t// in\n    tag_275:\n        /* \"#utility.yul\":5557:5560   */\n      dup3\n        /* \"#utility.yul\":5550:5584   */\n      mstore\n        /* \"#utility.yul\":5481:5590   */\n      pop\n      pop\n      jump\t// out\n        /* \"#utility.yul\":5596:6573   */\n    tag_47:\n        /* \"#utility.yul\":5879:5883   */\n      0x00\n        /* \"#utility.yul\":5917:5920   */\n      0xc0\n        /* \"#utility.yul\":5906:5915   */\n      dup3\n        /* \"#utility.yul\":5902:5921   */\n      add\n        /* \"#utility.yul\":5894:5921   */\n      swap1\n      pop\n        /* \"#utility.yul\":5931:6002   */\n      tag_277\n        /* \"#utility.yul\":5999:6000   */\n      0x00\n        /* \"#utility.yul\":5988:5997   */\n      dup4\n        /* \"#utility.yul\":5984:6001   */\n      add\n        /* \"#utility.yul\":5975:5981   */\n      dup10\n        /* \"#utility.yul\":5931:6002   */\n      tag_147\n      jump\t// in\n    tag_277:\n        /* \"#utility.yul\":6012:6100   */\n      tag_278\n        /* \"#utility.yul\":6096:6098   */\n      0x20\n        /* \"#utility.yul\":6085:6094   */\n      dup4\n        /* \"#utility.yul\":6081:6099   */\n      add\n        /* \"#utility.yul\":6072:6078   */\n      dup9\n        /* \"#utility.yul\":6012:6100   */\n      tag_162\n      jump\t// in\n    tag_278:\n        /* \"#utility.yul\":6147:6156   */\n      dup2\n        /* \"#utility.yul\":6141:6145   */\n      dup2\n        /* \"#utility.yul\":6137:6157   */\n      sub\n        /* \"#utility.yul\":6132:6134   */\n      0x40\n        /* \"#utility.yul\":6121:6130   */\n      dup4\n        /* \"#utility.yul\":6117:6135   */\n      add\n        /* \"#utility.yul\":6110:6158   */\n      mstore\n        /* \"#utility.yul\":6175:6253   */\n      tag_279\n        /* \"#utility.yul\":6248:6252   */\n      dup2\n        /* \"#utility.yul\":6239:6245   */\n      dup8\n        /* \"#utility.yul\":6175:6253   */\n      tag_167\n      jump\t// in\n    tag_279:\n        /* \"#utility.yul\":6167:6253   */\n      swap1\n      pop\n        /* \"#utility.yul\":6300:6309   */\n      dup2\n        /* \"#utility.yul\":6294:6298   */\n      dup2\n        /* \"#utility.yul\":6290:6310   */\n      sub\n        /* \"#utility.yul\":6285:6287   */\n      0x60\n        /* \"#utility.yul\":6274:6283   */\n      dup4\n        /* \"#utility.yul\":6270:6288   */\n      add\n        /* \"#utility.yul\":6263:6311   */\n      mstore\n        /* \"#utility.yul\":6328:6406   */\n      tag_280\n        /* \"#utility.yul\":6401:6405   */\n      dup2\n        /* \"#utility.yul\":6392:6398   */\n      dup7\n        /* \"#utility.yul\":6328:6406   */\n      tag_167\n      jump\t// in\n    tag_280:\n        /* \"#utility.yul\":6320:6406   */\n      swap1\n      pop\n        /* \"#utility.yul\":6416:6489   */\n      tag_281\n        /* \"#utility.yul\":6484:6487   */\n      0x80\n        /* \"#utility.yul\":6473:6482   */\n      dup4\n        /* \"#utility.yul\":6469:6488   */\n      add\n        /* \"#utility.yul\":6460:6466   */\n      dup6\n        /* \"#utility.yul\":6416:6489   */\n      tag_147\n      jump\t// in\n    tag_281:\n        /* \"#utility.yul\":6499:6566   */\n      tag_282\n        /* \"#utility.yul\":6561:6564   */\n      0xa0\n        /* \"#utility.yul\":6550:6559   */\n      dup4\n        /* \"#utility.yul\":6546:6565   */\n      add\n        /* \"#utility.yul\":6537:6543   */\n      dup5\n        /* \"#utility.yul\":6499:6566   */\n      tag_168\n      jump\t// in\n    tag_282:\n        /* \"#utility.yul\":5596:6573   */\n      swap8\n      swap7\n      pop\n      pop\n      pop\n      pop\n      pop\n      pop\n      pop\n      jump\t// out\n        /* \"#utility.yul\":6579:6675   */\n    tag_169:\n        /* \"#utility.yul\":6616:6623   */\n      0x00\n        /* \"#utility.yul\":6645:6669   */\n      tag_284\n        /* \"#utility.yul\":6663:6668   */\n      dup3\n        /* \"#utility.yul\":6645:6669   */\n      tag_160\n      jump\t// in\n    tag_284:\n        /* \"#utility.yul\":6634:6669   */\n      swap1\n      pop\n        /* \"#utility.yul\":6579:6675   */\n      swap2\n      swap1\n      pop\n      jump\t// out\n        /* \"#utility.yul\":6681:6799   */\n    tag_170:\n        /* \"#utility.yul\":6768:6792   */\n      tag_286\n        /* \"#utility.yul\":6786:6791   */\n      dup2\n        /* \"#utility.yul\":6768:6792   */\n      tag_169\n      jump\t// in\n    tag_286:\n        /* \"#utility.yul\":6763:6766   */\n      dup3\n        /* \"#utility.yul\":6756:6793   */\n      mstore\n        /* \"#utility.yul\":6681:6799   */\n      pop\n      pop\n      jump\t// out\n        /* \"#utility.yul\":6805:7544   */\n    tag_56:\n        /* \"#utility.yul\":7020:7024   */\n      0x00\n        /* \"#utility.yul\":7058:7061   */\n      0xc0\n        /* \"#utility.yul\":7047:7056   */\n      dup3\n        /* \"#utility.yul\":7043:7062   */\n      add\n        /* \"#utility.yul\":7035:7062   */\n      swap1\n      pop\n        /* \"#utility.yul\":7072:7143   */\n      tag_288\n        /* \"#utility.yul\":7140:7141   */\n      0x00\n        /* \"#utility.yul\":7129:7138   */\n      dup4\n        /* \"#utility.yul\":7125:7142   */\n      add\n        /* \"#utility.yul\":7116:7122   */\n      dup10\n        /* \"#utility.yul\":7072:7143   */\n      tag_147\n      jump\t// in\n    tag_288:\n        /* \"#utility.yul\":7153:7225   */\n      tag_289\n        /* \"#utility.yul\":7221:7223   */\n      0x20\n        /* \"#utility.yul\":7210:7219   */\n      dup4\n        /* \"#utility.yul\":7206:7224   */\n      add\n        /* \"#utility.yul\":7197:7203   */\n      dup9\n        /* \"#utility.yul\":7153:7225   */\n      tag_170\n      jump\t// in\n    tag_289:\n        /* \"#utility.yul\":7235:7307   */\n      tag_290\n        /* \"#utility.yul\":7303:7305   */\n      0x40\n        /* \"#utility.yul\":7292:7301   */\n      dup4\n        /* \"#utility.yul\":7288:7306   */\n      add\n        /* \"#utility.yul\":7279:7285   */\n      dup8\n        /* \"#utility.yul\":7235:7307   */\n      tag_147\n      jump\t// in\n    tag_290:\n        /* \"#utility.yul\":7317:7383   */\n      tag_291\n        /* \"#utility.yul\":7379:7381   */\n      0x60\n        /* \"#utility.yul\":7368:7377   */\n      dup4\n        /* \"#utility.yul\":7364:7382   */\n      add\n        /* \"#utility.yul\":7355:7361   */\n      dup7\n        /* \"#utility.yul\":7317:7383   */\n      tag_168\n      jump\t// in\n    tag_291:\n        /* \"#utility.yul\":7393:7460   */\n      tag_292\n        /* \"#utility.yul\":7455:7458   */\n      0x80\n        /* \"#utility.yul\":7444:7453   */\n      dup4\n        /* \"#utility.yul\":7440:7459   */\n      add\n        /* \"#utility.yul\":7431:7437   */\n      dup6\n        /* \"#utility.yul\":7393:7460   */\n      tag_168\n      jump\t// in\n    tag_292:\n        /* \"#utility.yul\":7470:7537   */\n      tag_293\n        /* \"#utility.yul\":7532:7535   */\n      0xa0\n        /* \"#utility.yul\":7521:7530   */\n      dup4\n        /* \"#utility.yul\":7517:7536   */\n      add\n        /* \"#utility.yul\":7508:7514   */\n      dup5\n        /* \"#utility.yul\":7470:7537   */\n      tag_168\n      jump\t// in\n    tag_293:\n        /* \"#utility.yul\":6805:7544   */\n      swap8\n      swap7\n      pop\n      pop\n      pop\n      pop\n      pop\n      pop\n      pop\n      jump\t// out\n        /* \"#utility.yul\":7550:7772   */\n    tag_65:\n        /* \"#utility.yul\":7643:7647   */\n      0x00\n        /* \"#utility.yul\":7681:7683   */\n      0x20\n        /* \"#utility.yul\":7670:7679   */\n      dup3\n        /* \"#utility.yul\":7666:7684   */\n      add\n        /* \"#utility.yul\":7658:7684   */\n      swap1\n      pop\n        /* \"#utility.yul\":7694:7765   */\n      tag_295\n        /* \"#utility.yul\":7762:7763   */\n      0x00\n        /* \"#utility.yul\":7751:7760   */\n      dup4\n        /* \"#utility.yul\":7747:7764   */\n      add\n        /* \"#utility.yul\":7738:7744   */\n      dup5\n        /* \"#utility.yul\":7694:7765   */\n      tag_170\n      jump\t// in\n    tag_295:\n        /* \"#utility.yul\":7550:7772   */\n      swap3\n      swap2\n      pop\n      pop\n      jump\t// out\n        /* \"#utility.yul\":7778:8001   */\n    tag_171:\n        /* \"#utility.yul\":7918:7952   */\n      0x4f6e6c792062757965722063616e206578656375746520746869732066756e63\n        /* \"#utility.yul\":7914:7915   */\n      0x00\n        /* \"#utility.yul\":7906:7912   */\n      dup3\n        /* \"#utility.yul\":7902:7916   */\n      add\n        /* \"#utility.yul\":7895:7953   */\n      mstore\n        /* \"#utility.yul\":7987:7993   */\n      0x74696f6e00000000000000000000000000000000000000000000000000000000\n        /* \"#utility.yul\":7982:7984   */\n      0x20\n        /* \"#utility.yul\":7974:7980   */\n      dup3\n        /* \"#utility.yul\":7970:7985   */\n      add\n        /* \"#utility.yul\":7963:7994   */\n      mstore\n        /* \"#utility.yul\":7778:8001   */\n      pop\n      jump\t// out\n        /* \"#utility.yul\":8007:8373   */\n    tag_172:\n        /* \"#utility.yul\":8149:8152   */\n      0x00\n        /* \"#utility.yul\":8170:8237   */\n      tag_298\n        /* \"#utility.yul\":8234:8236   */\n      0x24\n        /* \"#utility.yul\":8229:8232   */\n      dup4\n        /* \"#utility.yul\":8170:8237   */\n      tag_164\n      jump\t// in\n    tag_298:\n        /* \"#utility.yul\":8163:8237   */\n      swap2\n      pop\n        /* \"#utility.yul\":8246:8339   */\n      tag_299\n        /* \"#utility.yul\":8335:8338   */\n      dup3\n        /* \"#utility.yul\":8246:8339   */\n      tag_171\n      jump\t// in\n    tag_299:\n        /* \"#utility.yul\":8364:8366   */\n      0x40\n        /* \"#utility.yul\":8359:8362   */\n      dup3\n        /* \"#utility.yul\":8355:8367   */\n      add\n        /* \"#utility.yul\":8348:8367   */\n      swap1\n      pop\n        /* \"#utility.yul\":8007:8373   */\n      swap2\n      swap1\n      pop\n      jump\t// out\n        /* \"#utility.yul\":8379:8798   */\n    tag_69:\n        /* \"#utility.yul\":8545:8549   */\n      0x00\n        /* \"#utility.yul\":8583:8585   */\n      0x20\n        /* \"#utility.yul\":8572:8581   */\n      dup3\n        /* \"#utility.yul\":8568:8586   */\n      add\n        /* \"#utility.yul\":8560:8586   */\n      swap1\n      pop\n        /* \"#utility.yul\":8632:8641   */\n      dup2\n        /* \"#utility.yul\":8626:8630   */\n      dup2\n        /* \"#utility.yul\":8622:8642   */\n      sub\n        /* \"#utility.yul\":8618:8619   */\n      0x00\n        /* \"#utility.yul\":8607:8616   */\n      dup4\n        /* \"#utility.yul\":8603:8620   */\n      add\n        /* \"#utility.yul\":8596:8643   */\n      mstore\n        /* \"#utility.yul\":8660:8791   */\n      tag_301\n        /* \"#utility.yul\":8786:8790   */\n      dup2\n        /* \"#utility.yul\":8660:8791   */\n      tag_172\n      jump\t// in\n    tag_301:\n        /* \"#utility.yul\":8652:8791   */\n      swap1\n      pop\n        /* \"#utility.yul\":8379:8798   */\n      swap2\n      swap1\n      pop\n      jump\t// out\n        /* \"#utility.yul\":8804:8977   */\n    tag_173:\n        /* \"#utility.yul\":8944:8969   */\n      0x50726f64756374206e6f74207368697070656420796574000000000000000000\n        /* \"#utility.yul\":8940:8941   */\n      0x00\n        /* \"#utility.yul\":8932:8938   */\n      dup3\n        /* \"#utility.yul\":8928:8942   */\n      add\n        /* \"#utility.yul\":8921:8970   */\n      mstore\n        /* \"#utility.yul\":8804:8977   */\n      pop\n      jump\t// out\n        /* \"#utility.yul\":8983:9349   */\n    tag_174:\n        /* \"#utility.yul\":9125:9128   */\n      0x00\n        /* \"#utility.yul\":9146:9213   */\n      tag_304\n        /* \"#utility.yul\":9210:9212   */\n      0x17\n        /* \"#utility.yul\":9205:9208   */\n      dup4\n        /* \"#utility.yul\":9146:9213   */\n      tag_164\n      jump\t// in\n    tag_304:\n        /* \"#utility.yul\":9139:9213   */\n      swap2\n      pop\n        /* \"#utility.yul\":9222:9315   */\n      tag_305\n        /* \"#utility.yul\":9311:9314   */\n      dup3\n        /* \"#utility.yul\":9222:9315   */\n      tag_173\n      jump\t// in\n    tag_305:\n        /* \"#utility.yul\":9340:9342   */\n      0x20\n        /* \"#utility.yul\":9335:9338   */\n      dup3\n        /* \"#utility.yul\":9331:9343   */\n      add\n        /* \"#utility.yul\":9324:9343   */\n      swap1\n      pop\n        /* \"#utility.yul\":8983:9349   */\n      swap2\n      swap1\n      pop\n      jump\t// out\n        /* \"#utility.yul\":9355:9774   */\n    tag_73:\n        /* \"#utility.yul\":9521:9525   */\n      0x00\n        /* \"#utility.yul\":9559:9561   */\n      0x20\n        /* \"#utility.yul\":9548:9557   */\n      dup3\n        /* \"#utility.yul\":9544:9562   */\n      add\n        /* \"#utility.yul\":9536:9562   */\n      swap1\n      pop\n        /* \"#utility.yul\":9608:9617   */\n      dup2\n        /* \"#utility.yul\":9602:9606   */\n      dup2\n        /* \"#utility.yul\":9598:9618   */\n      sub\n        /* \"#utility.yul\":9594:9595   */\n      0x00\n        /* \"#utility.yul\":9583:9592   */\n      dup4\n        /* \"#utility.yul\":9579:9596   */\n      add\n        /* \"#utility.yul\":9572:9619   */\n      mstore\n        /* \"#utility.yul\":9636:9767   */\n      tag_307\n        /* \"#utility.yul\":9762:9766   */\n      dup2\n        /* \"#utility.yul\":9636:9767   */\n      tag_174\n      jump\t// in\n    tag_307:\n        /* \"#utility.yul\":9628:9767   */\n      swap1\n      pop\n        /* \"#utility.yul\":9355:9774   */\n      swap2\n      swap1\n      pop\n      jump\t// out\n        /* \"#utility.yul\":9780:9954   */\n    tag_175:\n        /* \"#utility.yul\":9920:9946   */\n      0x50726f6475637420616c72656164792072656365697665640000000000000000\n        /* \"#utility.yul\":9916:9917   */\n      0x00\n        /* \"#utility.yul\":9908:9914   */\n      dup3\n        /* \"#utility.yul\":9904:9918   */\n      add\n        /* \"#utility.yul\":9897:9947   */\n      mstore\n        /* \"#utility.yul\":9780:9954   */\n      pop\n      jump\t// out\n        /* \"#utility.yul\":9960:10326   */\n    tag_176:\n        /* \"#utility.yul\":10102:10105   */\n      0x00\n        /* \"#utility.yul\":10123:10190   */\n      tag_310\n        /* \"#utility.yul\":10187:10189   */\n      0x18\n        /* \"#utility.yul\":10182:10185   */\n      dup4\n        /* \"#utility.yul\":10123:10190   */\n      tag_164\n      jump\t// in\n    tag_310:\n        /* \"#utility.yul\":10116:10190   */\n      swap2\n      pop\n        /* \"#utility.yul\":10199:10292   */\n      tag_311\n        /* \"#utility.yul\":10288:10291   */\n      dup3\n        /* \"#utility.yul\":10199:10292   */\n      tag_175\n      jump\t// in\n    tag_311:\n        /* \"#utility.yul\":10317:10319   */\n      0x20\n        /* \"#utility.yul\":10312:10315   */\n      dup3\n        /* \"#utility.yul\":10308:10320   */\n      add\n        /* \"#utility.yul\":10301:10320   */\n      swap1\n      pop\n        /* \"#utility.yul\":9960:10326   */\n      swap2\n      swap1\n      pop\n      jump\t// out\n        /* \"#utility.yul\":10332:10751   */\n    tag_76:\n        /* \"#utility.yul\":10498:10502   */\n      0x00\n        /* \"#utility.yul\":10536:10538   */\n      0x20\n        /* \"#utility.yul\":10525:10534   */\n      dup3\n        /* \"#utility.yul\":10521:10539   */\n      add\n        /* \"#utility.yul\":10513:10539   */\n      swap1\n      pop\n        /* \"#utility.yul\":10585:10594   */\n      dup2\n        /* \"#utility.yul\":10579:10583   */\n      dup2\n        /* \"#utility.yul\":10575:10595   */\n      sub\n        /* \"#utility.yul\":10571:10572   */\n      0x00\n        /* \"#utility.yul\":10560:10569   */\n      dup4\n        /* \"#utility.yul\":10556:10573   */\n      add\n        /* \"#utility.yul\":10549:10596   */\n      mstore\n        /* \"#utility.yul\":10613:10744   */\n      tag_313\n        /* \"#utility.yul\":10739:10743   */\n      dup2\n        /* \"#utility.yul\":10613:10744   */\n      tag_176\n      jump\t// in\n    tag_313:\n        /* \"#utility.yul\":10605:10744   */\n      swap1\n      pop\n        /* \"#utility.yul\":10332:10751   */\n      swap2\n      swap1\n      pop\n      jump\t// out\n        /* \"#utility.yul\":10757:10981   */\n    tag_177:\n        /* \"#utility.yul\":10897:10931   */\n      0x4f6e6c792073656c6c65722063616e206578656375746520746869732066756e\n        /* \"#utility.yul\":10893:10894   */\n      0x00\n        /* \"#utility.yul\":10885:10891   */\n      dup3\n        /* \"#utility.yul\":10881:10895   */\n      add\n        /* \"#utility.yul\":10874:10932   */\n      mstore\n        /* \"#utility.yul\":10966:10973   */\n      0x6374696f6e000000000000000000000000000000000000000000000000000000\n        /* \"#utility.yul\":10961:10963   */\n      0x20\n        /* \"#utility.yul\":10953:10959   */\n      dup3\n        /* \"#utility.yul\":10949:10964   */\n      add\n        /* \"#utility.yul\":10942:10974   */\n      mstore\n        /* \"#utility.yul\":10757:10981   */\n      pop\n      jump\t// out\n        /* \"#utility.yul\":10987:11353   */\n    tag_178:\n        /* \"#utility.yul\":11129:11132   */\n      0x00\n        /* \"#utility.yul\":11150:11217   */\n      tag_316\n        /* \"#utility.yul\":11214:11216   */\n      0x25\n        /* \"#utility.yul\":11209:11212   */\n      dup4\n        /* \"#utility.yul\":11150:11217   */\n      tag_164\n      jump\t// in\n    tag_316:\n        /* \"#utility.yul\":11143:11217   */\n      swap2\n      pop\n        /* \"#utility.yul\":11226:11319   */\n      tag_317\n        /* \"#utility.yul\":11315:11318   */\n      dup3\n        /* \"#utility.yul\":11226:11319   */\n      tag_177\n      jump\t// in\n    tag_317:\n        /* \"#utility.yul\":11344:11346   */\n      0x40\n        /* \"#utility.yul\":11339:11342   */\n      dup3\n        /* \"#utility.yul\":11335:11347   */\n      add\n        /* \"#utility.yul\":11328:11347   */\n      swap1\n      pop\n        /* \"#utility.yul\":10987:11353   */\n      swap2\n      swap1\n      pop\n      jump\t// out\n        /* \"#utility.yul\":11359:11778   */\n    tag_81:\n        /* \"#utility.yul\":11525:11529   */\n      0x00\n        /* \"#utility.yul\":11563:11565   */\n      0x20\n        /* \"#utility.yul\":11552:11561   */\n      dup3\n        /* \"#utility.yul\":11548:11566   */\n      add\n        /* \"#utility.yul\":11540:11566   */\n      swap1\n      pop\n        /* \"#utility.yul\":11612:11621   */\n      dup2\n        /* \"#utility.yul\":11606:11610   */\n      dup2\n        /* \"#utility.yul\":11602:11622   */\n      sub\n        /* \"#utility.yul\":11598:11599   */\n      0x00\n        /* \"#utility.yul\":11587:11596   */\n      dup4\n        /* \"#utility.yul\":11583:11600   */\n      add\n        /* \"#utility.yul\":11576:11623   */\n      mstore\n        /* \"#utility.yul\":11640:11771   */\n      tag_319\n        /* \"#utility.yul\":11766:11770   */\n      dup2\n        /* \"#utility.yul\":11640:11771   */\n      tag_178\n      jump\t// in\n    tag_319:\n        /* \"#utility.yul\":11632:11771   */\n      swap1\n      pop\n        /* \"#utility.yul\":11359:11778   */\n      swap2\n      swap1\n      pop\n      jump\t// out\n        /* \"#utility.yul\":11784:11957   */\n    tag_179:\n        /* \"#utility.yul\":11924:11949   */\n      0x50726f6475637420616c72656164792073686970706564000000000000000000\n        /* \"#utility.yul\":11920:11921   */\n      0x00\n        /* \"#utility.yul\":11912:11918   */\n      dup3\n        /* \"#utility.yul\":11908:11922   */\n      add\n        /* \"#utility.yul\":11901:11950   */\n      mstore\n        /* \"#utility.yul\":11784:11957   */\n      pop\n      jump\t// out\n        /* \"#utility.yul\":11963:12329   */\n    tag_180:\n        /* \"#utility.yul\":12105:12108   */\n      0x00\n        /* \"#utility.yul\":12126:12193   */\n      tag_322\n        /* \"#utility.yul\":12190:12192   */\n      0x17\n        /* \"#utility.yul\":12185:12188   */\n      dup4\n        /* \"#utility.yul\":12126:12193   */\n      tag_164\n      jump\t// in\n    tag_322:\n        /* \"#utility.yul\":12119:12193   */\n      swap2\n      pop\n        /* \"#utility.yul\":12202:12295   */\n      tag_323\n        /* \"#utility.yul\":12291:12294   */\n      dup3\n        /* \"#utility.yul\":12202:12295   */\n      tag_179\n      jump\t// in\n    tag_323:\n        /* \"#utility.yul\":12320:12322   */\n      0x20\n        /* \"#utility.yul\":12315:12318   */\n      dup3\n        /* \"#utility.yul\":12311:12323   */\n      add\n        /* \"#utility.yul\":12304:12323   */\n      swap1\n      pop\n        /* \"#utility.yul\":11963:12329   */\n      swap2\n      swap1\n      pop\n      jump\t// out\n        /* \"#utility.yul\":12335:12754   */\n    tag_85:\n        /* \"#utility.yul\":12501:12505   */\n      0x00\n        /* \"#utility.yul\":12539:12541   */\n      0x20\n        /* \"#utility.yul\":12528:12537   */\n      dup3\n        /* \"#utility.yul\":12524:12542   */\n      add\n        /* \"#utility.yul\":12516:12542   */\n      swap1\n      pop\n        /* \"#utility.yul\":12588:12597   */\n      dup2\n        /* \"#utility.yul\":12582:12586   */\n      dup2\n        /* \"#utility.yul\":12578:12598   */\n      sub\n        /* \"#utility.yul\":12574:12575   */\n      0x00\n        /* \"#utility.yul\":12563:12572   */\n      dup4\n        /* \"#utility.yul\":12559:12576   */\n      add\n        /* \"#utility.yul\":12552:12599   */\n      mstore\n        /* \"#utility.yul\":12616:12747   */\n      tag_325\n        /* \"#utility.yul\":12742:12746   */\n      dup2\n        /* \"#utility.yul\":12616:12747   */\n      tag_180\n      jump\t// in\n    tag_325:\n        /* \"#utility.yul\":12608:12747   */\n      swap1\n      pop\n        /* \"#utility.yul\":12335:12754   */\n      swap2\n      swap1\n      pop\n      jump\t// out\n        /* \"#utility.yul\":12760:12983   */\n    tag_181:\n        /* \"#utility.yul\":12900:12934   */\n      0x4f6e6c792061646d696e2063616e206578656375746520746869732066756e63\n        /* \"#utility.yul\":12896:12897   */\n      0x00\n        /* \"#utility.yul\":12888:12894   */\n      dup3\n        /* \"#utility.yul\":12884:12898   */\n      add\n        /* \"#utility.yul\":12877:12935   */\n      mstore\n        /* \"#utility.yul\":12969:12975   */\n      0x74696f6e00000000000000000000000000000000000000000000000000000000\n        /* \"#utility.yul\":12964:12966   */\n      0x20\n        /* \"#utility.yul\":12956:12962   */\n      dup3\n        /* \"#utility.yul\":12952:12967   */\n      add\n        /* \"#utility.yul\":12945:12976   */\n      mstore\n        /* \"#utility.yul\":12760:12983   */\n      pop\n      jump\t// out\n        /* \"#utility.yul\":12989:13355   */\n    tag_182:\n        /* \"#utility.yul\":13131:13134   */\n      0x00\n        /* \"#utility.yul\":13152:13219   */\n      tag_328\n        /* \"#utility.yul\":13216:13218   */\n      0x24\n        /* \"#utility.yul\":13211:13214   */\n      dup4\n        /* \"#utility.yul\":13152:13219   */\n      tag_164\n      jump\t// in\n    tag_328:\n        /* \"#utility.yul\":13145:13219   */\n      swap2\n      pop\n        /* \"#utility.yul\":13228:13321   */\n      tag_329\n        /* \"#utility.yul\":13317:13320   */\n      dup3\n        /* \"#utility.yul\":13228:13321   */\n      tag_181\n      jump\t// in\n    tag_329:\n        /* \"#utility.yul\":13346:13348   */\n      0x40\n        /* \"#utility.yul\":13341:13344   */\n      dup3\n        /* \"#utility.yul\":13337:13349   */\n      add\n        /* \"#utility.yul\":13330:13349   */\n      swap1\n      pop\n        /* \"#utility.yul\":12989:13355   */\n      swap2\n      swap1\n      pop\n      jump\t// out\n        /* \"#utility.yul\":13361:13780   */\n    tag_101:\n        /* \"#utility.yul\":13527:13531   */\n      0x00\n        /* \"#utility.yul\":13565:13567   */\n      0x20\n        /* \"#utility.yul\":13554:13563   */\n      dup3\n        /* \"#utility.yul\":13550:13568   */\n      add\n        /* \"#utility.yul\":13542:13568   */\n      swap1\n      pop\n        /* \"#utility.yul\":13614:13623   */\n      dup2\n        /* \"#utility.yul\":13608:13612   */\n      dup2\n        /* \"#utility.yul\":13604:13624   */\n      sub\n        /* \"#utility.yul\":13600:13601   */\n      0x00\n        /* \"#utility.yul\":13589:13598   */\n      dup4\n        /* \"#utility.yul\":13585:13602   */\n      add\n        /* \"#utility.yul\":13578:13625   */\n      mstore\n        /* \"#utility.yul\":13642:13773   */\n      tag_331\n        /* \"#utility.yul\":13768:13772   */\n      dup2\n        /* \"#utility.yul\":13642:13773   */\n      tag_182\n      jump\t// in\n    tag_331:\n        /* \"#utility.yul\":13634:13773   */\n      swap1\n      pop\n        /* \"#utility.yul\":13361:13780   */\n      swap2\n      swap1\n      pop\n      jump\t// out\n        /* \"#utility.yul\":13786:13961   */\n    tag_183:\n        /* \"#utility.yul\":13926:13953   */\n      0x4e6f206469737075746520666f722074686973206f7264657200000000000000\n        /* \"#utility.yul\":13922:13923   */\n      0x00\n        /* \"#utility.yul\":13914:13920   */\n      dup3\n        /* \"#utility.yul\":13910:13924   */\n      add\n        /* \"#utility.yul\":13903:13954   */\n      mstore\n        /* \"#utility.yul\":13786:13961   */\n      pop\n      jump\t// out\n        /* \"#utility.yul\":13967:14333   */\n    tag_184:\n        /* \"#utility.yul\":14109:14112   */\n      0x00\n        /* \"#utility.yul\":14130:14197   */\n      tag_334\n        /* \"#utility.yul\":14194:14196   */\n      0x19\n        /* \"#utility.yul\":14189:14192   */\n      dup4\n        /* \"#utility.yul\":14130:14197   */\n      tag_164\n      jump\t// in\n    tag_334:\n        /* \"#utility.yul\":14123:14197   */\n      swap2\n      pop\n        /* \"#utility.yul\":14206:14299   */\n      tag_335\n        /* \"#utility.yul\":14295:14298   */\n      dup3\n        /* \"#utility.yul\":14206:14299   */\n      tag_183\n      jump\t// in\n    tag_335:\n        /* \"#utility.yul\":14324:14326   */\n      0x20\n        /* \"#utility.yul\":14319:14322   */\n      dup3\n        /* \"#utility.yul\":14315:14327   */\n      add\n        /* \"#utility.yul\":14308:14327   */\n      swap1\n      pop\n        /* \"#utility.yul\":13967:14333   */\n      swap2\n      swap1\n      pop\n      jump\t// out\n        /* \"#utility.yul\":14339:14758   */\n    tag_105:\n        /* \"#utility.yul\":14505:14509   */\n      0x00\n        /* \"#utility.yul\":14543:14545   */\n      0x20\n        /* \"#utility.yul\":14532:14541   */\n      dup3\n        /* \"#utility.yul\":14528:14546   */\n      add\n        /* \"#utility.yul\":14520:14546   */\n      swap1\n      pop\n        /* \"#utility.yul\":14592:14601   */\n      dup2\n        /* \"#utility.yul\":14586:14590   */\n      dup2\n        /* \"#utility.yul\":14582:14602   */\n      sub\n        /* \"#utility.yul\":14578:14579   */\n      0x00\n        /* \"#utility.yul\":14567:14576   */\n      dup4\n        /* \"#utility.yul\":14563:14580   */\n      add\n        /* \"#utility.yul\":14556:14603   */\n      mstore\n        /* \"#utility.yul\":14620:14751   */\n      tag_337\n        /* \"#utility.yul\":14746:14750   */\n      dup2\n        /* \"#utility.yul\":14620:14751   */\n      tag_184\n      jump\t// in\n    tag_337:\n        /* \"#utility.yul\":14612:14751   */\n      swap1\n      pop\n        /* \"#utility.yul\":14339:14758   */\n      swap2\n      swap1\n      pop\n      jump\t// out\n        /* \"#utility.yul\":14764:15084   */\n    tag_113:\n        /* \"#utility.yul\":14879:14883   */\n      0x00\n        /* \"#utility.yul\":14917:14919   */\n      0x40\n        /* \"#utility.yul\":14906:14915   */\n      dup3\n        /* \"#utility.yul\":14902:14920   */\n      add\n        /* \"#utility.yul\":14894:14920   */\n      swap1\n      pop\n        /* \"#utility.yul\":14930:15001   */\n      tag_339\n        /* \"#utility.yul\":14998:14999   */\n      0x00\n        /* \"#utility.yul\":14987:14996   */\n      dup4\n        /* \"#utility.yul\":14983:15000   */\n      add\n        /* \"#utility.yul\":14974:14980   */\n      dup6\n        /* \"#utility.yul\":14930:15001   */\n      tag_147\n      jump\t// in\n    tag_339:\n        /* \"#utility.yul\":15011:15077   */\n      tag_340\n        /* \"#utility.yul\":15073:15075   */\n      0x20\n        /* \"#utility.yul\":15062:15071   */\n      dup4\n        /* \"#utility.yul\":15058:15076   */\n      add\n        /* \"#utility.yul\":15049:15055   */\n      dup5\n        /* \"#utility.yul\":15011:15077   */\n      tag_168\n      jump\t// in\n    tag_340:\n        /* \"#utility.yul\":14764:15084   */\n      swap4\n      swap3\n      pop\n      pop\n      pop\n      jump\t// out\n        /* \"#utility.yul\":15090:15271   */\n    tag_185:\n        /* \"#utility.yul\":15230:15263   */\n      0x5072696365206d7573742062652067726561746572207468616e207a65726f00\n        /* \"#utility.yul\":15226:15227   */\n      0x00\n        /* \"#utility.yul\":15218:15224   */\n      dup3\n        /* \"#utility.yul\":15214:15228   */\n      add\n        /* \"#utility.yul\":15207:15264   */\n      mstore\n        /* \"#utility.yul\":15090:15271   */\n      pop\n      jump\t// out\n        /* \"#utility.yul\":15277:15643   */\n    tag_186:\n        /* \"#utility.yul\":15419:15422   */\n      0x00\n        /* \"#utility.yul\":15440:15507   */\n      tag_343\n        /* \"#utility.yul\":15504:15506   */\n      0x1f\n        /* \"#utility.yul\":15499:15502   */\n      dup4\n        /* \"#utility.yul\":15440:15507   */\n      tag_164\n      jump\t// in\n    tag_343:\n        /* \"#utility.yul\":15433:15507   */\n      swap2\n      pop\n        /* \"#utility.yul\":15516:15609   */\n      tag_344\n        /* \"#utility.yul\":15605:15608   */\n      dup3\n        /* \"#utility.yul\":15516:15609   */\n      tag_185\n      jump\t// in\n    tag_344:\n        /* \"#utility.yul\":15634:15636   */\n      0x20\n        /* \"#utility.yul\":15629:15632   */\n      dup3\n        /* \"#utility.yul\":15625:15637   */\n      add\n        /* \"#utility.yul\":15618:15637   */\n      swap1\n      pop\n        /* \"#utility.yul\":15277:15643   */\n      swap2\n      swap1\n      pop\n      jump\t// out\n        /* \"#utility.yul\":15649:16068   */\n    tag_117:\n        /* \"#utility.yul\":15815:15819   */\n      0x00\n        /* \"#utility.yul\":15853:15855   */\n      0x20\n        /* \"#utility.yul\":15842:15851   */\n      dup3\n        /* \"#utility.yul\":15838:15856   */\n      add\n        /* \"#utility.yul\":15830:15856   */\n      swap1\n      pop\n        /* \"#utility.yul\":15902:15911   */\n      dup2\n        /* \"#utility.yul\":15896:15900   */\n      dup2\n        /* \"#utility.yul\":15892:15912   */\n      sub\n        /* \"#utility.yul\":15888:15889   */\n      0x00\n        /* \"#utility.yul\":15877:15886   */\n      dup4\n        /* \"#utility.yul\":15873:15890   */\n      add\n        /* \"#utility.yul\":15866:15913   */\n      mstore\n        /* \"#utility.yul\":15930:16061   */\n      tag_346\n        /* \"#utility.yul\":16056:16060   */\n      dup2\n        /* \"#utility.yul\":15930:16061   */\n      tag_186\n      jump\t// in\n    tag_346:\n        /* \"#utility.yul\":15922:16061   */\n      swap1\n      pop\n        /* \"#utility.yul\":15649:16068   */\n      swap2\n      swap1\n      pop\n      jump\t// out\n        /* \"#utility.yul\":16074:16254   */\n    tag_187:\n        /* \"#utility.yul\":16122:16199   */\n      0x4e487b7100000000000000000000000000000000000000000000000000000000\n        /* \"#utility.yul\":16119:16120   */\n      0x00\n        /* \"#utility.yul\":16112:16200   */\n      mstore\n        /* \"#utility.yul\":16219:16223   */\n      0x11\n        /* \"#utility.yul\":16216:16217   */\n      0x04\n        /* \"#utility.yul\":16209:16224   */\n      mstore\n        /* \"#utility.yul\":16243:16247   */\n      0x24\n        /* \"#utility.yul\":16240:16241   */\n      0x00\n        /* \"#utility.yul\":16233:16248   */\n      revert\n        /* \"#utility.yul\":16260:16493   */\n    tag_119:\n        /* \"#utility.yul\":16299:16302   */\n      0x00\n        /* \"#utility.yul\":16322:16346   */\n      tag_349\n        /* \"#utility.yul\":16340:16345   */\n      dup3\n        /* \"#utility.yul\":16322:16346   */\n      tag_146\n      jump\t// in\n    tag_349:\n        /* \"#utility.yul\":16313:16346   */\n      swap2\n      pop\n        /* \"#utility.yul\":16368:16434   */\n      0xffffffffffffffffffffffffffffffffffffffffffffffffffffffffffffffff\n        /* \"#utility.yul\":16361:16366   */\n      dup3\n        /* \"#utility.yul\":16358:16435   */\n      sub\n        /* \"#utility.yul\":16355:16458   */\n      tag_350\n      jumpi\n        /* \"#utility.yul\":16438:16456   */\n      tag_351\n      tag_187\n      jump\t// in\n    tag_351:\n        /* \"#utility.yul\":16355:16458   */\n    tag_350:\n        /* \"#utility.yul\":16485:16486   */\n      0x01\n        /* \"#utility.yul\":16478:16483   */\n      dup3\n        /* \"#utility.yul\":16474:16487   */\n      add\n        /* \"#utility.yul\":16467:16487   */\n      swap1\n      pop\n        /* \"#utility.yul\":16260:16493   */\n      swap2\n      swap1\n      pop\n      jump\t// out\n        /* \"#utility.yul\":16499:16679   */\n    tag_188:\n        /* \"#utility.yul\":16547:16624   */\n      0x4e487b7100000000000000000000000000000000000000000000000000000000\n        /* \"#utility.yul\":16544:16545   */\n      0x00\n        /* \"#utility.yul\":16537:16625   */\n      mstore\n        /* \"#utility.yul\":16644:16648   */\n      0x41\n        /* \"#utility.yul\":16641:16642   */\n      0x04\n        /* \"#utility.yul\":16634:16649   */\n      mstore\n        /* \"#utility.yul\":16668:16672   */\n      0x24\n        /* \"#utility.yul\":16665:16666   */\n      0x00\n        /* \"#utility.yul\":16658:16673   */\n      revert\n        /* \"#utility.yul\":16685:16865   */\n    tag_189:\n        /* \"#utility.yul\":16733:16810   */\n      0x4e487b7100000000000000000000000000000000000000000000000000000000\n        /* \"#utility.yul\":16730:16731   */\n      0x00\n        /* \"#utility.yul\":16723:16811   */\n      mstore\n        /* \"#utility.yul\":16830:16834   */\n      0x22\n        /* \"#utility.yul\":16827:16828   */\n      0x04\n        /* \"#utility.yul\":16820:16835   */\n      mstore\n        /* \"#utility.yul\":16854:16858   */\n      0x24\n        /* \"#utility.yul\":16851:16852   */\n      0x00\n        /* \"#utility.yul\":16844:16859   */\n      revert\n        /* \"#utility.yul\":16871:17191   */\n    tag_126:\n        /* \"#utility.yul\":16915:16921   */\n      0x00\n        /* \"#utility.yul\":16952:16953   */\n      0x02\n        /* \"#utility.yul\":16946:16950   */\n      dup3\n        /* \"#utility.yul\":16942:16954   */\n      div\n        /* \"#utility.yul\":16932:16954   */\n      swap1\n      pop\n        /* \"#utility.yul\":16999:17000   */\n      0x01\n        /* \"#utility.yul\":16993:16997   */\n      dup3\n        /* \"#utility.yul\":16989:17001   */\n      and\n        /* \"#utility.yul\":17020:17038   */\n      dup1\n        /* \"#utility.yul\":17010:17091   */\n      tag_355\n      jumpi\n        /* \"#utility.yul\":17076:17080   */\n      0x7f\n        /* \"#utility.yul\":17068:17074   */\n      dup3\n        /* \"#utility.yul\":17064:17081   */\n      and\n        /* \"#utility.yul\":17054:17081   */\n      swap2\n      pop\n        /* \"#utility.yul\":17010:17091   */\n    tag_355:\n        /* \"#utility.yul\":17138:17140   */\n      0x20\n        /* \"#utility.yul\":17130:17136   */\n      dup3\n        /* \"#utility.yul\":17127:17141   */\n      lt\n        /* \"#utility.yul\":17107:17125   */\n      dup2\n        /* \"#utility.yul\":17104:17142   */\n      sub\n        /* \"#utility.yul\":17101:17185   */\n      tag_356\n      jumpi\n        /* \"#utility.yul\":17157:17175   */\n      tag_357\n      tag_189\n      jump\t// in\n    tag_357:\n        /* \"#utility.yul\":17101:17185   */\n    tag_356:\n        /* \"#utility.yul\":16922:17191   */\n      pop\n        /* \"#utility.yul\":16871:17191   */\n      swap2\n      swap1\n      pop\n      jump\t// out\n        /* \"#utility.yul\":17197:17338   */\n    tag_190:\n        /* \"#utility.yul\":17246:17250   */\n      0x00\n        /* \"#utility.yul\":17269:17272   */\n      dup2\n        /* \"#utility.yul\":17261:17272   */\n      swap1\n      pop\n        /* \"#utility.yul\":17292:17295   */\n      dup2\n        /* \"#utility.yul\":17289:17290   */\n      0x00\n        /* \"#utility.yul\":17282:17296   */\n      mstore\n        /* \"#utility.yul\":17326:17330   */\n      0x20\n        /* \"#utility.yul\":17323:17324   */\n      0x00\n        /* \"#utility.yul\":17313:17331   */\n      keccak256\n        /* \"#utility.yul\":17305:17331   */\n      swap1\n      pop\n        /* \"#utility.yul\":17197:17338   */\n      swap2\n      swap1\n      pop\n      jump\t// out\n        /* \"#utility.yul\":17344:17437   */\n    tag_191:\n        /* \"#utility.yul\":17381:17387   */\n      0x00\n        /* \"#utility.yul\":17428:17430   */\n      0x20\n        /* \"#utility.yul\":17423:17425   */\n      0x1f\n        /* \"#utility.yul\":17416:17421   */\n      dup4\n        /* \"#utility.yul\":17412:17426   */\n      add\n        /* \"#utility.yul\":17408:17431   */\n      div\n        /* \"#utility.yul\":17398:17431   */\n      swap1\n      pop\n        /* \"#utility.yul\":17344:17437   */\n      swap2\n      swap1\n      pop\n      jump\t// out\n        /* \"#utility.yul\":17443:17550   */\n    tag_192:\n        /* \"#utility.yul\":17487:17495   */\n      0x00\n        /* \"#utility.yul\":17537:17542   */\n      dup3\n        /* \"#utility.yul\":17531:17535   */\n      dup3\n        /* \"#utility.yul\":17527:17543   */\n      shl\n        /* \"#utility.yul\":17506:17543   */\n      swap1\n      pop\n        /* \"#utility.yul\":17443:17550   */\n      swap3\n      swap2\n      pop\n      pop\n      jump\t// out\n        /* \"#utility.yul\":17556:17949   */\n    tag_193:\n        /* \"#utility.yul\":17625:17631   */\n      0x00\n        /* \"#utility.yul\":17675:17676   */\n      0x08\n        /* \"#utility.yul\":17663:17673   */\n      dup4\n        /* \"#utility.yul\":17659:17677   */\n      mul\n        /* \"#utility.yul\":17698:17795   */\n      tag_362\n        /* \"#utility.yul\":17728:17794   */\n      0xffffffffffffffffffffffffffffffffffffffffffffffffffffffffffffffff\n        /* \"#utility.yul\":17717:17726   */\n      dup3\n        /* \"#utility.yul\":17698:17795   */\n      tag_192\n      jump\t// in\n    tag_362:\n        /* \"#utility.yul\":17816:17855   */\n      tag_363\n        /* \"#utility.yul\":17846:17854   */\n      dup7\n        /* \"#utility.yul\":17835:17844   */\n      dup4\n        /* \"#utility.yul\":17816:17855   */\n      tag_192\n      jump\t// in\n    tag_363:\n        /* \"#utility.yul\":17804:17855   */\n      swap6\n      pop\n        /* \"#utility.yul\":17888:17892   */\n      dup1\n        /* \"#utility.yul\":17884:17893   */\n      not\n        /* \"#utility.yul\":17877:17882   */\n      dup5\n        /* \"#utility.yul\":17873:17894   */\n      and\n        /* \"#utility.yul\":17864:17894   */\n      swap4\n      pop\n        /* \"#utility.yul\":17937:17941   */\n      dup1\n        /* \"#utility.yul\":17927:17935   */\n      dup7\n        /* \"#utility.yul\":17923:17942   */\n      and\n        /* \"#utility.yul\":17916:17921   */\n      dup5\n        /* \"#utility.yul\":17913:17943   */\n      or\n        /* \"#utility.yul\":17903:17943   */\n      swap3\n      pop\n        /* \"#utility.yul\":17632:17949   */\n      pop\n      pop\n        /* \"#utility.yul\":17556:17949   */\n      swap4\n      swap3\n      pop\n      pop\n      pop\n      jump\t// out\n        /* \"#utility.yul\":17955:18015   */\n    tag_194:\n        /* \"#utility.yul\":17983:17986   */\n      0x00\n        /* \"#utility.yul\":18004:18009   */\n      dup2\n        /* \"#utility.yul\":17997:18009   */\n      swap1\n      pop\n        /* \"#utility.yul\":17955:18015   */\n      swap2\n      swap1\n      pop\n      jump\t// out\n        /* \"#utility.yul\":18021:18163   */\n    tag_195:\n        /* \"#utility.yul\":18071:18080   */\n      0x00\n        /* \"#utility.yul\":18104:18157   */\n      tag_366\n        /* \"#utility.yul\":18122:18156   */\n      tag_367\n        /* \"#utility.yul\":18131:18155   */\n      tag_368\n        /* \"#utility.yul\":18149:18154   */\n      dup5\n        /* \"#utility.yul\":18131:18155   */\n      tag_146\n      jump\t// in\n    tag_368:\n        /* \"#utility.yul\":18122:18156   */\n      tag_194\n      jump\t// in\n    tag_367:\n        /* \"#utility.yul\":18104:18157   */\n      tag_146\n      jump\t// in\n    tag_366:\n        /* \"#utility.yul\":18091:18157   */\n      swap1\n      pop\n        /* \"#utility.yul\":18021:18163   */\n      swap2\n      swap1\n      pop\n      jump\t// out\n        /* \"#utility.yul\":18169:18244   */\n    tag_196:\n        /* \"#utility.yul\":18212:18215   */\n      0x00\n        /* \"#utility.yul\":18233:18238   */\n      dup2\n        /* \"#utility.yul\":18226:18238   */\n      swap1\n      pop\n        /* \"#utility.yul\":18169:18244   */\n      swap2\n      swap1\n      pop\n      jump\t// out\n        /* \"#utility.yul\":18250:18519   */\n    tag_197:\n        /* \"#utility.yul\":18360:18399   */\n      tag_371\n        /* \"#utility.yul\":18391:18398   */\n      dup4\n        /* \"#utility.yul\":18360:18399   */\n      tag_195\n      jump\t// in\n    tag_371:\n        /* \"#utility.yul\":18421:18512   */\n      tag_372\n        /* \"#utility.yul\":18470:18511   */\n      tag_373\n        /* \"#utility.yul\":18494:18510   */\n      dup3\n        /* \"#utility.yul\":18470:18511   */\n      tag_196\n      jump\t// in\n    tag_373:\n        /* \"#utility.yul\":18462:18468   */\n      dup5\n        /* \"#utility.yul\":18455:18459   */\n      dup5\n        /* \"#utility.yul\":18449:18460   */\n      sload\n        /* \"#utility.yul\":18421:18512   */\n      tag_193\n      jump\t// in\n    tag_372:\n        /* \"#utility.yul\":18415:18419   */\n      dup3\n        /* \"#utility.yul\":18408:18513   */\n      sstore\n        /* \"#utility.yul\":18326:18519   */\n      pop\n        /* \"#utility.yul\":18250:18519   */\n      pop\n      pop\n      pop\n      jump\t// out\n        /* \"#utility.yul\":18525:18598   */\n    tag_198:\n        /* \"#utility.yul\":18570:18573   */\n      0x00\n        /* \"#utility.yul\":18525:18598   */\n      swap1\n      jump\t// out\n        /* \"#utility.yul\":18604:18793   */\n    tag_199:\n        /* \"#utility.yul\":18681:18713   */\n      tag_376\n      tag_198\n      jump\t// in\n    tag_376:\n        /* \"#utility.yul\":18722:18787   */\n      tag_377\n        /* \"#utility.yul\":18780:18786   */\n      dup2\n        /* \"#utility.yul\":18772:18778   */\n      dup5\n        /* \"#utility.yul\":18766:18770   */\n      dup5\n        /* \"#utility.yul\":18722:18787   */\n      tag_197\n      jump\t// in\n    tag_377:\n        /* \"#utility.yul\":18657:18793   */\n      pop\n        /* \"#utility.yul\":18604:18793   */\n      pop\n      pop\n      jump\t// out\n        /* \"#utility.yul\":18799:18985   */\n    tag_200:\n        /* \"#utility.yul\":18859:18979   */\n    tag_379:\n        /* \"#utility.yul\":18876:18879   */\n      dup2\n        /* \"#utility.yul\":18869:18874   */\n      dup2\n        /* \"#utility.yul\":18866:18880   */\n      lt\n        /* \"#utility.yul\":18859:18979   */\n      iszero\n      tag_381\n      jumpi\n        /* \"#utility.yul\":18930:18969   */\n      tag_382\n        /* \"#utility.yul\":18967:18968   */\n      0x00\n        /* \"#utility.yul\":18960:18965   */\n      dup3\n        /* \"#utility.yul\":18930:18969   */\n      tag_199\n      jump\t// in\n    tag_382:\n        /* \"#utility.yul\":18903:18904   */\n      0x01\n        /* \"#utility.yul\":18896:18901   */\n      dup2\n        /* \"#utility.yul\":18892:18905   */\n      add\n        /* \"#utility.yul\":18883:18905   */\n      swap1\n      pop\n        /* \"#utility.yul\":18859:18979   */\n      jump(tag_379)\n    tag_381:\n        /* \"#utility.yul\":18799:18985   */\n      pop\n      pop\n      jump\t// out\n        /* \"#utility.yul\":18991:19534   */\n    tag_201:\n        /* \"#utility.yul\":19092:19094   */\n      0x1f\n        /* \"#utility.yul\":19087:19090   */\n      dup3\n        /* \"#utility.yul\":19084:19095   */\n      gt\n        /* \"#utility.yul\":19081:19527   */\n      iszero\n      tag_384\n      jumpi\n        /* \"#utility.yul\":19126:19164   */\n      tag_385\n        /* \"#utility.yul\":19158:19163   */\n      dup2\n        /* \"#utility.yul\":19126:19164   */\n      tag_190\n      jump\t// in\n    tag_385:\n        /* \"#utility.yul\":19210:19239   */\n      tag_386\n        /* \"#utility.yul\":19228:19238   */\n      dup5\n        /* \"#utility.yul\":19210:19239   */\n      tag_191\n      jump\t// in\n    tag_386:\n        /* \"#utility.yul\":19200:19208   */\n      dup2\n        /* \"#utility.yul\":19196:19240   */\n      add\n        /* \"#utility.yul\":19393:19395   */\n      0x20\n        /* \"#utility.yul\":19381:19391   */\n      dup6\n        /* \"#utility.yul\":19378:19396   */\n      lt\n        /* \"#utility.yul\":19375:19424   */\n      iszero\n      tag_387\n      jumpi\n        /* \"#utility.yul\":19414:19422   */\n      dup2\n        /* \"#utility.yul\":19399:19422   */\n      swap1\n      pop\n        /* \"#utility.yul\":19375:19424   */\n    tag_387:\n        /* \"#utility.yul\":19437:19517   */\n      tag_388\n        /* \"#utility.yul\":19493:19515   */\n      tag_389\n        /* \"#utility.yul\":19511:19514   */\n      dup6\n        /* \"#utility.yul\":19493:19515   */\n      tag_191\n      jump\t// in\n    tag_389:\n        /* \"#utility.yul\":19483:19491   */\n      dup4\n        /* \"#utility.yul\":19479:19516   */\n      add\n        /* \"#utility.yul\":19466:19477   */\n      dup3\n        /* \"#utility.yul\":19437:19517   */\n      tag_200\n      jump\t// in\n    tag_388:\n        /* \"#utility.yul\":19096:19527   */\n      pop\n      pop\n        /* \"#utility.yul\":19081:19527   */\n    tag_384:\n        /* \"#utility.yul\":18991:19534   */\n      pop\n      pop\n      pop\n      jump\t// out\n        /* \"#utility.yul\":19540:19657   */\n    tag_202:\n        /* \"#utility.yul\":19594:19602   */\n      0x00\n        /* \"#utility.yul\":19644:19649   */\n      dup3\n        /* \"#utility.yul\":19638:19642   */\n      dup3\n        /* \"#utility.yul\":19634:19650   */\n      shr\n        /* \"#utility.yul\":19613:19650   */\n      swap1\n      pop\n        /* \"#utility.yul\":19540:19657   */\n      swap3\n      swap2\n      pop\n      pop\n      jump\t// out\n        /* \"#utility.yul\":19663:19832   */\n    tag_203:\n        /* \"#utility.yul\":19707:19713   */\n      0x00\n        /* \"#utility.yul\":19740:19791   */\n      tag_392\n        /* \"#utility.yul\":19788:19789   */\n      0x00\n        /* \"#utility.yul\":19784:19790   */\n      not\n        /* \"#utility.yul\":19776:19781   */\n      dup5\n        /* \"#utility.yul\":19773:19774   */\n      0x08\n        /* \"#utility.yul\":19769:19782   */\n      mul\n        /* \"#utility.yul\":19740:19791   */\n      tag_202\n      jump\t// in\n    tag_392:\n        /* \"#utility.yul\":19736:19792   */\n      not\n        /* \"#utility.yul\":19821:19825   */\n      dup1\n        /* \"#utility.yul\":19815:19819   */\n      dup4\n        /* \"#utility.yul\":19811:19826   */\n      and\n        /* \"#utility.yul\":19801:19826   */\n      swap2\n      pop\n        /* \"#utility.yul\":19714:19832   */\n      pop\n        /* \"#utility.yul\":19663:19832   */\n      swap3\n      swap2\n      pop\n      pop\n      jump\t// out\n        /* \"#utility.yul\":19837:20132   */\n    tag_204:\n        /* \"#utility.yul\":19913:19917   */\n      0x00\n        /* \"#utility.yul\":20059:20088   */\n      tag_394\n        /* \"#utility.yul\":20084:20087   */\n      dup4\n        /* \"#utility.yul\":20078:20082   */\n      dup4\n        /* \"#utility.yul\":20059:20088   */\n      tag_203\n      jump\t// in\n    tag_394:\n        /* \"#utility.yul\":20051:20088   */\n      swap2\n      pop\n        /* \"#utility.yul\":20121:20124   */\n      dup3\n        /* \"#utility.yul\":20118:20119   */\n      0x02\n        /* \"#utility.yul\":20114:20125   */\n      mul\n        /* \"#utility.yul\":20108:20112   */\n      dup3\n        /* \"#utility.yul\":20105:20126   */\n      or\n        /* \"#utility.yul\":20097:20126   */\n      swap1\n      pop\n        /* \"#utility.yul\":19837:20132   */\n      swap3\n      swap2\n      pop\n      pop\n      jump\t// out\n        /* \"#utility.yul\":20137:21532   */\n    tag_121:\n        /* \"#utility.yul\":20254:20291   */\n      tag_396\n        /* \"#utility.yul\":20287:20290   */\n      dup3\n        /* \"#utility.yul\":20254:20291   */\n      tag_163\n      jump\t// in\n    tag_396:\n        /* \"#utility.yul\":20356:20374   */\n      0xffffffffffffffff\n        /* \"#utility.yul\":20348:20354   */\n      dup2\n        /* \"#utility.yul\":20345:20375   */\n      gt\n        /* \"#utility.yul\":20342:20398   */\n      iszero\n      tag_397\n      jumpi\n        /* \"#utility.yul\":20378:20396   */\n      tag_398\n      tag_188\n      jump\t// in\n    tag_398:\n        /* \"#utility.yul\":20342:20398   */\n    tag_397:\n        /* \"#utility.yul\":20422:20460   */\n      tag_399\n        /* \"#utility.yul\":20454:20458   */\n      dup3\n        /* \"#utility.yul\":20448:20459   */\n      sload\n        /* \"#utility.yul\":20422:20460   */\n      tag_126\n      jump\t// in\n    tag_399:\n        /* \"#utility.yul\":20507:20574   */\n      tag_400\n        /* \"#utility.yul\":20567:20573   */\n      dup3\n        /* \"#utility.yul\":20559:20565   */\n      dup3\n        /* \"#utility.yul\":20553:20557   */\n      dup6\n        /* \"#utility.yul\":20507:20574   */\n      tag_201\n      jump\t// in\n    tag_400:\n        /* \"#utility.yul\":20601:20602   */\n      0x00\n        /* \"#utility.yul\":20625:20629   */\n      0x20\n        /* \"#utility.yul\":20612:20629   */\n      swap1\n      pop\n        /* \"#utility.yul\":20657:20659   */\n      0x1f\n        /* \"#utility.yul\":20649:20655   */\n      dup4\n        /* \"#utility.yul\":20646:20660   */\n      gt\n        /* \"#utility.yul\":20674:20675   */\n      0x01\n        /* \"#utility.yul\":20669:21287   */\n      dup2\n      eq\n      tag_402\n      jumpi\n        /* \"#utility.yul\":21331:21332   */\n      0x00\n        /* \"#utility.yul\":21348:21354   */\n      dup5\n        /* \"#utility.yul\":21345:21422   */\n      iszero\n      tag_403\n      jumpi\n        /* \"#utility.yul\":21397:21406   */\n      dup3\n        /* \"#utility.yul\":21392:21395   */\n      dup8\n        /* \"#utility.yul\":21388:21407   */\n      add\n        /* \"#utility.yul\":21382:21408   */\n      mload\n        /* \"#utility.yul\":21373:21408   */\n      swap1\n      pop\n        /* \"#utility.yul\":21345:21422   */\n    tag_403:\n        /* \"#utility.yul\":21448:21515   */\n      tag_404\n        /* \"#utility.yul\":21508:21514   */\n      dup6\n        /* \"#utility.yul\":21501:21506   */\n      dup3\n        /* \"#utility.yul\":21448:21515   */\n      tag_204\n      jump\t// in\n    tag_404:\n        /* \"#utility.yul\":21442:21446   */\n      dup7\n        /* \"#utility.yul\":21435:21516   */\n      sstore\n        /* \"#utility.yul\":21304:21526   */\n      pop\n        /* \"#utility.yul\":20639:21526   */\n      jump(tag_401)\n        /* \"#utility.yul\":20669:21287   */\n    tag_402:\n        /* \"#utility.yul\":20721:20725   */\n      0x1f\n        /* \"#utility.yul\":20717:20726   */\n      not\n        /* \"#utility.yul\":20709:20715   */\n      dup5\n        /* \"#utility.yul\":20705:20727   */\n      and\n        /* \"#utility.yul\":20755:20792   */\n      tag_405\n        /* \"#utility.yul\":20787:20791   */\n      dup7\n        /* \"#utility.yul\":20755:20792   */\n      tag_190\n      jump\t// in\n    tag_405:\n        /* \"#utility.yul\":20814:20815   */\n      0x00\n        /* \"#utility.yul\":20828:21036   */\n    tag_406:\n        /* \"#utility.yul\":20842:20849   */\n      dup3\n        /* \"#utility.yul\":20839:20840   */\n      dup2\n        /* \"#utility.yul\":20836:20850   */\n      lt\n        /* \"#utility.yul\":20828:21036   */\n      iszero\n      tag_408\n      jumpi\n        /* \"#utility.yul\":20921:20930   */\n      dup5\n        /* \"#utility.yul\":20916:20919   */\n      dup10\n        /* \"#utility.yul\":20912:20931   */\n      add\n        /* \"#utility.yul\":20906:20932   */\n      mload\n        /* \"#utility.yul\":20898:20904   */\n      dup3\n        /* \"#utility.yul\":20891:20933   */\n      sstore\n        /* \"#utility.yul\":20972:20973   */\n      0x01\n        /* \"#utility.yul\":20964:20970   */\n      dup3\n        /* \"#utility.yul\":20960:20974   */\n      add\n        /* \"#utility.yul\":20950:20974   */\n      swap2\n      pop\n        /* \"#utility.yul\":21019:21021   */\n      0x20\n        /* \"#utility.yul\":21008:21017   */\n      dup6\n        /* \"#utility.yul\":21004:21022   */\n      add\n        /* \"#utility.yul\":20991:21022   */\n      swap5\n      pop\n        /* \"#utility.yul\":20865:20869   */\n      0x20\n        /* \"#utility.yul\":20862:20863   */\n      dup2\n        /* \"#utility.yul\":20858:20870   */\n      add\n        /* \"#utility.yul\":20853:20870   */\n      swap1\n      pop\n        /* \"#utility.yul\":20828:21036   */\n      jump(tag_406)\n    tag_408:\n        /* \"#utility.yul\":21064:21070   */\n      dup7\n        /* \"#utility.yul\":21055:21062   */\n      dup4\n        /* \"#utility.yul\":21052:21071   */\n      lt\n        /* \"#utility.yul\":21049:21228   */\n      iszero\n      tag_409\n      jumpi\n        /* \"#utility.yul\":21122:21131   */\n      dup5\n        /* \"#utility.yul\":21117:21120   */\n      dup10\n        /* \"#utility.yul\":21113:21132   */\n      add\n        /* \"#utility.yul\":21107:21133   */\n      mload\n        /* \"#utility.yul\":21165:21213   */\n      tag_410\n        /* \"#utility.yul\":21207:21211   */\n      0x1f\n        /* \"#utility.yul\":21199:21205   */\n      dup10\n        /* \"#utility.yul\":21195:21212   */\n      and\n        /* \"#utility.yul\":21184:21193   */\n      dup3\n        /* \"#utility.yul\":21165:21213   */\n      tag_203\n      jump\t// in\n    tag_410:\n        /* \"#utility.yul\":21157:21163   */\n      dup4\n        /* \"#utility.yul\":21150:21214   */\n      sstore\n        /* \"#utility.yul\":21072:21228   */\n      pop\n        /* \"#utility.yul\":21049:21228   */\n    tag_409:\n        /* \"#utility.yul\":21274:21275   */\n      0x01\n        /* \"#utility.yul\":21270:21271   */\n      0x02\n        /* \"#utility.yul\":21262:21268   */\n      dup9\n        /* \"#utility.yul\":21258:21272   */\n      mul\n        /* \"#utility.yul\":21254:21276   */\n      add\n        /* \"#utility.yul\":21248:21252   */\n      dup9\n        /* \"#utility.yul\":21241:21277   */\n      sstore\n        /* \"#utility.yul\":20676:21287   */\n      pop\n      pop\n      pop\n        /* \"#utility.yul\":20639:21526   */\n    tag_401:\n      pop\n        /* \"#utility.yul\":20229:21532   */\n      pop\n      pop\n      pop\n        /* \"#utility.yul\":20137:21532   */\n      pop\n      pop\n      jump\t// out\n        /* \"#utility.yul\":21538:21686   */\n    tag_205:\n        /* \"#utility.yul\":21636:21642   */\n      dup3\n        /* \"#utility.yul\":21631:21634   */\n      dup2\n        /* \"#utility.yul\":21626:21629   */\n      dup4\n        /* \"#utility.yul\":21613:21643   */\n      calldatacopy\n        /* \"#utility.yul\":21677:21678   */\n      0x00\n        /* \"#utility.yul\":21668:21674   */\n      dup4\n        /* \"#utility.yul\":21663:21666   */\n      dup4\n        /* \"#utility.yul\":21659:21675   */\n      add\n        /* \"#utility.yul\":21652:21679   */\n      mstore\n        /* \"#utility.yul\":21538:21686   */\n      pop\n      pop\n      pop\n      jump\t// out\n        /* \"#utility.yul\":21716:22033   */\n    tag_206:\n        /* \"#utility.yul\":21814:21817   */\n      0x00\n        /* \"#utility.yul\":21835:21906   */\n      tag_413\n        /* \"#utility.yul\":21899:21905   */\n      dup4\n        /* \"#utility.yul\":21894:21897   */\n      dup6\n        /* \"#utility.yul\":21835:21906   */\n      tag_164\n      jump\t// in\n    tag_413:\n        /* \"#utility.yul\":21828:21906   */\n      swap4\n      pop\n        /* \"#utility.yul\":21916:21972   */\n      tag_414\n        /* \"#utility.yul\":21965:21971   */\n      dup4\n        /* \"#utility.yul\":21960:21963   */\n      dup6\n        /* \"#utility.yul\":21953:21958   */\n      dup5\n        /* \"#utility.yul\":21916:21972   */\n      tag_205\n      jump\t// in\n    tag_414:\n        /* \"#utility.yul\":21997:22026   */\n      tag_415\n        /* \"#utility.yul\":22019:22025   */\n      dup4\n        /* \"#utility.yul\":21997:22026   */\n      tag_166\n      jump\t// in\n    tag_415:\n        /* \"#utility.yul\":21992:21995   */\n      dup5\n        /* \"#utility.yul\":21988:22027   */\n      add\n        /* \"#utility.yul\":21981:22027   */\n      swap1\n      pop\n        /* \"#utility.yul\":21716:22033   */\n      swap4\n      swap3\n      pop\n      pop\n      pop\n      jump\t// out\n        /* \"#utility.yul\":22039:22703   */\n    tag_124:\n        /* \"#utility.yul\":22246:22250   */\n      0x00\n        /* \"#utility.yul\":22284:22287   */\n      0x80\n        /* \"#utility.yul\":22273:22282   */\n      dup3\n        /* \"#utility.yul\":22269:22288   */\n      add\n        /* \"#utility.yul\":22261:22288   */\n      swap1\n      pop\n        /* \"#utility.yul\":22298:22369   */\n      tag_417\n        /* \"#utility.yul\":22366:22367   */\n      0x00\n        /* \"#utility.yul\":22355:22364   */\n      dup4\n        /* \"#utility.yul\":22351:22368   */\n      add\n        /* \"#utility.yul\":22342:22348   */\n      dup9\n        /* \"#utility.yul\":22298:22369   */\n      tag_147\n      jump\t// in\n    tag_417:\n        /* \"#utility.yul\":22379:22451   */\n      tag_418\n        /* \"#utility.yul\":22447:22449   */\n      0x20\n        /* \"#utility.yul\":22436:22445   */\n      dup4\n        /* \"#utility.yul\":22432:22450   */\n      add\n        /* \"#utility.yul\":22423:22429   */\n      dup8\n        /* \"#utility.yul\":22379:22451   */\n      tag_170\n      jump\t// in\n    tag_418:\n        /* \"#utility.yul\":22498:22507   */\n      dup2\n        /* \"#utility.yul\":22492:22496   */\n      dup2\n        /* \"#utility.yul\":22488:22508   */\n      sub\n        /* \"#utility.yul\":22483:22485   */\n      0x40\n        /* \"#utility.yul\":22472:22481   */\n      dup4\n        /* \"#utility.yul\":22468:22486   */\n      add\n        /* \"#utility.yul\":22461:22509   */\n      mstore\n        /* \"#utility.yul\":22526:22614   */\n      tag_419\n        /* \"#utility.yul\":22609:22613   */\n      dup2\n        /* \"#utility.yul\":22600:22606   */\n      dup6\n        /* \"#utility.yul\":22592:22598   */\n      dup8\n        /* \"#utility.yul\":22526:22614   */\n      tag_206\n      jump\t// in\n    tag_419:\n        /* \"#utility.yul\":22518:22614   */\n      swap1\n      pop\n        /* \"#utility.yul\":22624:22696   */\n      tag_420\n        /* \"#utility.yul\":22692:22694   */\n      0x60\n        /* \"#utility.yul\":22681:22690   */\n      dup4\n        /* \"#utility.yul\":22677:22695   */\n      add\n        /* \"#utility.yul\":22668:22674   */\n      dup5\n        /* \"#utility.yul\":22624:22696   */\n      tag_147\n      jump\t// in\n    tag_420:\n        /* \"#utility.yul\":22039:22703   */\n      swap7\n      swap6\n      pop\n      pop\n      pop\n      pop\n      pop\n      pop\n      jump\t// out\n        /* \"#utility.yul\":22709:22879   */\n    tag_207:\n        /* \"#utility.yul\":22849:22871   */\n      0x50726f6475637420616c726561647920736f6c64000000000000000000000000\n        /* \"#utility.yul\":22845:22846   */\n      0x00\n        /* \"#utility.yul\":22837:22843   */\n      dup3\n        /* \"#utility.yul\":22833:22847   */\n      add\n        /* \"#utility.yul\":22826:22872   */\n      mstore\n        /* \"#utility.yul\":22709:22879   */\n      pop\n      jump\t// out\n        /* \"#utility.yul\":22885:23251   */\n    tag_208:\n        /* \"#utility.yul\":23027:23030   */\n      0x00\n        /* \"#utility.yul\":23048:23115   */\n      tag_423\n        /* \"#utility.yul\":23112:23114   */\n      0x14\n        /* \"#utility.yul\":23107:23110   */\n      dup4\n        /* \"#utility.yul\":23048:23115   */\n      tag_164\n      jump\t// in\n    tag_423:\n        /* \"#utility.yul\":23041:23115   */\n      swap2\n      pop\n        /* \"#utility.yul\":23124:23217   */\n      tag_424\n        /* \"#utility.yul\":23213:23216   */\n      dup3\n        /* \"#utility.yul\":23124:23217   */\n      tag_207\n      jump\t// in\n    tag_424:\n        /* \"#utility.yul\":23242:23244   */\n      0x20\n        /* \"#utility.yul\":23237:23240   */\n      dup3\n        /* \"#utility.yul\":23233:23245   */\n      add\n        /* \"#utility.yul\":23226:23245   */\n      swap1\n      pop\n        /* \"#utility.yul\":22885:23251   */\n      swap2\n      swap1\n      pop\n      jump\t// out\n        /* \"#utility.yul\":23257:23676   */\n    tag_139:\n        /* \"#utility.yul\":23423:23427   */\n      0x00\n        /* \"#utility.yul\":23461:23463   */\n      0x20\n        /* \"#utility.yul\":23450:23459   */\n      dup3\n        /* \"#utility.yul\":23446:23464   */\n      add\n        /* \"#utility.yul\":23438:23464   */\n      swap1\n      pop\n        /* \"#utility.yul\":23510:23519   */\n      dup2\n        /* \"#utility.yul\":23504:23508   */\n      dup2\n        /* \"#utility.yul\":23500:23520   */\n      sub\n        /* \"#utility.yul\":23496:23497   */\n      0x00\n        /* \"#utility.yul\":23485:23494   */\n      dup4\n        /* \"#utility.yul\":23481:23498   */\n      add\n        /* \"#utility.yul\":23474:23521   */\n      mstore\n        /* \"#utility.yul\":23538:23669   */\n      tag_426\n        /* \"#utility.yul\":23664:23668   */\n      dup2\n        /* \"#utility.yul\":23538:23669   */\n      tag_208\n      jump\t// in\n    tag_426:\n        /* \"#utility.yul\":23530:23669   */\n      swap1\n      pop\n        /* \"#utility.yul\":23257:23676   */\n      swap2\n      swap1\n      pop\n      jump\t// out\n        /* \"#utility.yul\":23682:23847   */\n    tag_209:\n        /* \"#utility.yul\":23822:23839   */\n      0x496e636f72726563742070726963650000000000000000000000000000000000\n        /* \"#utility.yul\":23818:23819   */\n      0x00\n        /* \"#utility.yul\":23810:23816   */\n      dup3\n        /* \"#utility.yul\":23806:23820   */\n      add\n        /* \"#utility.yul\":23799:23840   */\n      mstore\n        /* \"#utility.yul\":23682:23847   */\n      pop\n      jump\t// out\n        /* \"#utility.yul\":23853:24219   */\n    tag_210:\n        /* \"#utility.yul\":23995:23998   */\n      0x00\n        /* \"#utility.yul\":24016:24083   */\n      tag_429\n        /* \"#utility.yul\":24080:24082   */\n      0x0f\n        /* \"#utility.yul\":24075:24078   */\n      dup4\n        /* \"#utility.yul\":24016:24083   */\n      tag_164\n      jump\t// in\n    tag_429:\n        /* \"#utility.yul\":24009:24083   */\n      swap2\n      pop\n        /* \"#utility.yul\":24092:24185   */\n      tag_430\n        /* \"#utility.yul\":24181:24184   */\n      dup3\n        /* \"#utility.yul\":24092:24185   */\n      tag_209\n      jump\t// in\n    tag_430:\n        /* \"#utility.yul\":24210:24212   */\n      0x20\n        /* \"#utility.yul\":24205:24208   */\n      dup3\n        /* \"#utility.yul\":24201:24213   */\n      add\n        /* \"#utility.yul\":24194:24213   */\n      swap1\n      pop\n        /* \"#utility.yul\":23853:24219   */\n      swap2\n      swap1\n      pop\n      jump\t// out\n        /* \"#utility.yul\":24225:24644   */\n    tag_142:\n        /* \"#utility.yul\":24391:24395   */\n      0x00\n        /* \"#utility.yul\":24429:24431   */\n      0x20\n        /* \"#utility.yul\":24418:24427   */\n      dup3\n        /* \"#utility.yul\":24414:24432   */\n      add\n        /* \"#utility.yul\":24406:24432   */\n      swap1\n      pop\n        /* \"#utility.yul\":24478:24487   */\n      dup2\n        /* \"#utility.yul\":24472:24476   */\n      dup2\n        /* \"#utility.yul\":24468:24488   */\n      sub\n        /* \"#utility.yul\":24464:24465   */\n      0x00\n        /* \"#utility.yul\":24453:24462   */\n      dup4\n        /* \"#utility.yul\":24449:24466   */\n      add\n        /* \"#utility.yul\":24442:24489   */\n      mstore\n        /* \"#utility.yul\":24506:24637   */\n      tag_432\n        /* \"#utility.yul\":24632:24636   */\n      dup2\n        /* \"#utility.yul\":24506:24637   */\n      tag_210\n      jump\t// in\n    tag_432:\n        /* \"#utility.yul\":24498:24637   */\n      swap1\n      pop\n        /* \"#utility.yul\":24225:24644   */\n      swap2\n      swap1\n      pop\n      jump\t// out\n        /* \"#utility.yul\":24650:25092   */\n    tag_145:\n        /* \"#utility.yul\":24799:24803   */\n      0x00\n        /* \"#utility.yul\":24837:24839   */\n      0x60\n        /* \"#utility.yul\":24826:24835   */\n      dup3\n        /* \"#utility.yul\":24822:24840   */\n      add\n        /* \"#utility.yul\":24814:24840   */\n      swap1\n      pop\n        /* \"#utility.yul\":24850:24921   */\n      tag_434\n        /* \"#utility.yul\":24918:24919   */\n      0x00\n        /* \"#utility.yul\":24907:24916   */\n      dup4\n        /* \"#utility.yul\":24903:24920   */\n      add\n        /* \"#utility.yul\":24894:24900   */\n      dup7\n        /* \"#utility.yul\":24850:24921   */\n      tag_147\n      jump\t// in\n    tag_434:\n        /* \"#utility.yul\":24931:25003   */\n      tag_435\n        /* \"#utility.yul\":24999:25001   */\n      0x20\n        /* \"#utility.yul\":24988:24997   */\n      dup4\n        /* \"#utility.yul\":24984:25002   */\n      add\n        /* \"#utility.yul\":24975:24981   */\n      dup6\n        /* \"#utility.yul\":24931:25003   */\n      tag_170\n      jump\t// in\n    tag_435:\n        /* \"#utility.yul\":25013:25085   */\n      tag_436\n        /* \"#utility.yul\":25081:25083   */\n      0x40\n        /* \"#utility.yul\":25070:25079   */\n      dup4\n        /* \"#utility.yul\":25066:25084   */\n      add\n        /* \"#utility.yul\":25057:25063   */\n      dup5\n        /* \"#utility.yul\":25013:25085   */\n      tag_147\n      jump\t// in\n    tag_436:\n        /* \"#utility.yul\":24650:25092   */\n      swap5\n      swap4\n      pop\n      pop\n      pop\n      pop\n      jump\t// out\n\n    auxdata: 0xa264697066735822122020b5c681c60f066d41f0b1b2b89c798116e263cef20bbc5f0b417dfbfe7bba1364736f6c634300081a0033\n}\n",
				"bytecode": {
					"linkReferences": {},
					"object": "6080604052348015600e575f80fd5b503360045f6101000a81548173ffffffffffffffffffffffffffffffffffffffff021916908373ffffffffffffffffffffffffffffffffffffffff160217905550611d468061005c5f395ff3fe60806040526004361061009b575f3560e01c80636d6b7777116100635780636d6b7777146101695780637acc0b20146101915780638642269e146101d2578063a85c38ef146101ee578063e0f6ef871461022f578063f851a440146102595761009b565b80632453ffa81461009f57806327d00fb0146100c95780632927d1d9146100f157806329d783281461011957806334b25ee214610141575b5f80fd5b3480156100aa575f80fd5b506100b3610283565b6040516100c091906110a4565b60405180910390f35b3480156100d4575f80fd5b506100ef60048036038101906100ea91906110ef565b610289565b005b3480156100fc575f80fd5b50610117600480360381019061011291906110ef565b61043a565b005b348015610124575f80fd5b5061013f600480360381019061013a91906110ef565b6105ac565b005b34801561014c575f80fd5b506101676004803603810190610162919061114f565b6107db565b005b348015610174575f80fd5b5061018f600480360381019061018a91906111ee565b610a1e565b005b34801561019c575f80fd5b506101b760048036038101906101b291906110ef565b610c41565b6040516101c99695949392919061133d565b60405180910390f35b6101ec60048036038101906101e791906110ef565b610db0565b005b3480156101f9575f80fd5b50610214600480360381019061020f91906110ef565b610fe5565b604051610226969594939291906113ca565b60405180910390f35b34801561023a575f80fd5b50610243611062565b60405161025091906110a4565b60405180910390f35b348015610264575f80fd5b5061026d611067565b60405161027a9190611429565b60405180910390f35b60015481565b803373ffffffffffffffffffffffffffffffffffffffff1660035f8381526020019081526020015f206001015f9054906101000a900473ffffffffffffffffffffffffffffffffffffffff1673ffffffffffffffffffffffffffffffffffffffff161461032b576040517f08c379a0000000000000000000000000000000000000000000000000000000008152600401610322906114b2565b60405180910390fd5b5f60035f8481526020019081526020015f209050806003015f9054906101000a900460ff1661038f576040517f08c379a00000000000000000000000000000000000000000000000000000000081526004016103869061151a565b60405180910390fd5b8060030160019054906101000a900460ff16156103e1576040517f08c379a00000000000000000000000000000000000000000000000000000000081526004016103d890611582565b60405180910390fd5b60018160030160026101000a81548160ff0219169083151502179055507fed50123fe46d12537dcaae53f33aee1c64bcc9e4f222560f3bae6c0824040dd38360405161042d91906110a4565b60405180910390a1505050565b60035f8281526020019081526020015f205f01543373ffffffffffffffffffffffffffffffffffffffff1660025f8381526020019081526020015f206001015f9054906101000a900473ffffffffffffffffffffffffffffffffffffffff1673ffffffffffffffffffffffffffffffffffffffff16146104ef576040517f08c379a00000000000000000000000000000000000000000000000000000000081526004016104e690611610565b60405180910390fd5b5f60035f8481526020019081526020015f209050806003015f9054906101000a900460ff1615610554576040517f08c379a000000000000000000000000000000000000000000000000000000000815260040161054b90611678565b60405180910390fd5b6001816003015f6101000a81548160ff0219169083151502179055507ff91b0b39fbb56d78224050bb7e56777ee7aca5ed18ada91cc9c21677db7f9abe8360405161059f91906110a4565b60405180910390a1505050565b803373ffffffffffffffffffffffffffffffffffffffff1660035f8381526020019081526020015f206001015f9054906101000a900473ffffffffffffffffffffffffffffffffffffffff1673ffffffffffffffffffffffffffffffffffffffff161461064e576040517f08c379a0000000000000000000000000000000000000000000000000000000008152600401610645906114b2565b60405180910390fd5b5f60035f8481526020019081526020015f209050806003015f9054906101000a900460ff166106b2576040517f08c379a00000000000000000000000000000000000000000000000000000000081526004016106a99061151a565b60405180910390fd5b8060030160019054906101000a900460ff1615610704576040517f08c379a00000000000000000000000000000000000000000000000000000000081526004016106fb90611582565b60405180910390fd5b60018160030160016101000a81548160ff02191690831515021790555060025f825f015481526020019081526020015f206001015f9054906101000a900473ffffffffffffffffffffffffffffffffffffffff1673ffffffffffffffffffffffffffffffffffffffff166108fc826002015490811502906040515f60405180830381858888f1935050505015801561079e573d5f803e3d5ffd5b507f14dea969eedd35dc22a00dc5d0c573ad6305c40d63100de02135b0226eb4c8aa836040516107ce91906110a4565b60405180910390a1505050565b60045f9054906101000a900473ffffffffffffffffffffffffffffffffffffffff1673ffffffffffffffffffffffffffffffffffffffff163373ffffffffffffffffffffffffffffffffffffffff161461086a576040517f08c379a000000000000000000000000000000000000000000000000000000000815260040161086190611706565b60405180910390fd5b5f60035f8481526020019081526020015f2090508060030160029054906101000a900460ff166108cf576040517f08c379a00000000000000000000000000000000000000000000000000000000081526004016108c69061176e565b60405180910390fd5b5f8160030160026101000a81548160ff021916908315150217905550811561096157806001015f9054906101000a900473ffffffffffffffffffffffffffffffffffffffff1673ffffffffffffffffffffffffffffffffffffffff166108fc826002015490811502906040515f60405180830381858888f1935050505015801561095b573d5f803e3d5ffd5b506109e0565b60025f825f015481526020019081526020015f206001015f9054906101000a900473ffffffffffffffffffffffffffffffffffffffff1673ffffffffffffffffffffffffffffffffffffffff166108fc826002015490811502906040515f60405180830381858888f193505050501580156109de573d5f803e3d5ffd5b505b7f5a87909bff68caaaaf0b3fd9c74eeccc928832f879315e5c6fb7a73612f26c0c8383604051610a1192919061178c565b60405180910390a1505050565b5f8111610a60576040517f08c379a0000000000000000000000000000000000000000000000000000000008152600401610a57906117fd565b60405180910390fd5b5f80815480929190610a7190611848565b91905055506040518060c001604052805f5481526020013373ffffffffffffffffffffffffffffffffffffffff16815260200186868080601f0160208091040260200160405190810160405280939291908181526020018383808284375f81840152601f19601f82011690508083019250505050505050815260200184848080601f0160208091040260200160405190810160405280939291908181526020018383808284375f81840152601f19601f8201169050808301925050505050505081526020018281526020015f151581525060025f805481526020019081526020015f205f820151815f01556020820151816001015f6101000a81548173ffffffffffffffffffffffffffffffffffffffff021916908373ffffffffffffffffffffffffffffffffffffffff1602179055506040820151816002019081610bb79190611ab6565b506060820151816003019081610bcd9190611ab6565b506080820151816004015560a0820151816005015f6101000a81548160ff0219169083151502179055509050507f899c32fbd27a24397979837f3acd7bfee4a37ee60b2d2f1a0643a725f39a7a495f5433878785604051610c32959493929190611bbf565b60405180910390a15050505050565b6002602052805f5260405f205f91509050805f015490806001015f9054906101000a900473ffffffffffffffffffffffffffffffffffffffff1690806002018054610c8b906118e9565b80601f0160208091040260200160405190810160405280929190818152602001828054610cb7906118e9565b8015610d025780601f10610cd957610100808354040283529160200191610d02565b820191905f5260205f20905b815481529060010190602001808311610ce557829003601f168201915b505050505090806003018054610d17906118e9565b80601f0160208091040260200160405190810160405280929190818152602001828054610d43906118e9565b8015610d8e5780601f10610d6557610100808354040283529160200191610d8e565b820191905f5260205f20905b815481529060010190602001808311610d7157829003601f168201915b505050505090806004015490806005015f9054906101000a900460ff16905086565b5f60025f8381526020019081526020015f209050806005015f9054906101000a900460ff1615610e15576040517f08c379a0000000000000000000000000000000000000000000000000000000008152600401610e0c90611c55565b60405180910390fd5b80600401543414610e5b576040517f08c379a0000000000000000000000000000000000000000000000000000000008152600401610e5290611cbd565b60405180910390fd5b60015f815480929190610e6d90611848565b91905055506040518060c001604052808381526020013373ffffffffffffffffffffffffffffffffffffffff1681526020013481526020015f151581526020015f151581526020015f151581525060035f60015481526020019081526020015f205f820151815f01556020820151816001015f6101000a81548173ffffffffffffffffffffffffffffffffffffffff021916908373ffffffffffffffffffffffffffffffffffffffff160217905550604082015181600201556060820151816003015f6101000a81548160ff02191690831515021790555060808201518160030160016101000a81548160ff02191690831515021790555060a08201518160030160026101000a81548160ff0219169083151502179055509050506001816005015f6101000a81548160ff0219169083151502179055507fa530f889d7f1bd9a73028e48944ca013ab2c6624a31e3fa26f923f4bb719abd58233600154604051610fd993929190611cdb565b60405180910390a15050565b6003602052805f5260405f205f91509050805f015490806001015f9054906101000a900473ffffffffffffffffffffffffffffffffffffffff1690806002015490806003015f9054906101000a900460ff16908060030160019054906101000a900460ff16908060030160029054906101000a900460ff16905086565b5f5481565b60045f9054906101000a900473ffffffffffffffffffffffffffffffffffffffff1681565b5f819050919050565b61109e8161108c565b82525050565b5f6020820190506110b75f830184611095565b92915050565b5f80fd5b5f80fd5b6110ce8161108c565b81146110d8575f80fd5b50565b5f813590506110e9816110c5565b92915050565b5f60208284031215611104576111036110bd565b5b5f611111848285016110db565b91505092915050565b5f8115159050919050565b61112e8161111a565b8114611138575f80fd5b50565b5f8135905061114981611125565b92915050565b5f8060408385031215611165576111646110bd565b5b5f611172858286016110db565b92505060206111838582860161113b565b9150509250929050565b5f80fd5b5f80fd5b5f80fd5b5f8083601f8401126111ae576111ad61118d565b5b8235905067ffffffffffffffff8111156111cb576111ca611191565b5b6020830191508360018202830111156111e7576111e6611195565b5b9250929050565b5f805f805f60608688031215611207576112066110bd565b5b5f86013567ffffffffffffffff811115611224576112236110c1565b5b61123088828901611199565b9550955050602086013567ffffffffffffffff811115611253576112526110c1565b5b61125f88828901611199565b93509350506040611272888289016110db565b9150509295509295909350565b5f73ffffffffffffffffffffffffffffffffffffffff82169050919050565b5f6112a88261127f565b9050919050565b6112b88161129e565b82525050565b5f81519050919050565b5f82825260208201905092915050565b8281835e5f83830152505050565b5f601f19601f8301169050919050565b5f611300826112be565b61130a81856112c8565b935061131a8185602086016112d8565b611323816112e6565b840191505092915050565b6113378161111a565b82525050565b5f60c0820190506113505f830189611095565b61135d60208301886112af565b818103604083015261136f81876112f6565b9050818103606083015261138381866112f6565b90506113926080830185611095565b61139f60a083018461132e565b979650505050505050565b5f6113b48261127f565b9050919050565b6113c4816113aa565b82525050565b5f60c0820190506113dd5f830189611095565b6113ea60208301886113bb565b6113f76040830187611095565b611404606083018661132e565b611411608083018561132e565b61141e60a083018461132e565b979650505050505050565b5f60208201905061143c5f8301846113bb565b92915050565b7f4f6e6c792062757965722063616e206578656375746520746869732066756e635f8201527f74696f6e00000000000000000000000000000000000000000000000000000000602082015250565b5f61149c6024836112c8565b91506114a782611442565b604082019050919050565b5f6020820190508181035f8301526114c981611490565b9050919050565b7f50726f64756374206e6f742073686970706564207965740000000000000000005f82015250565b5f6115046017836112c8565b915061150f826114d0565b602082019050919050565b5f6020820190508181035f830152611531816114f8565b9050919050565b7f50726f6475637420616c726561647920726563656976656400000000000000005f82015250565b5f61156c6018836112c8565b915061157782611538565b602082019050919050565b5f6020820190508181035f83015261159981611560565b9050919050565b7f4f6e6c792073656c6c65722063616e206578656375746520746869732066756e5f8201527f6374696f6e000000000000000000000000000000000000000000000000000000602082015250565b5f6115fa6025836112c8565b9150611605826115a0565b604082019050919050565b5f6020820190508181035f830152611627816115ee565b9050919050565b7f50726f6475637420616c726561647920736869707065640000000000000000005f82015250565b5f6116626017836112c8565b915061166d8261162e565b602082019050919050565b5f6020820190508181035f83015261168f81611656565b9050919050565b7f4f6e6c792061646d696e2063616e206578656375746520746869732066756e635f8201527f74696f6e00000000000000000000000000000000000000000000000000000000602082015250565b5f6116f06024836112c8565b91506116fb82611696565b604082019050919050565b5f6020820190508181035f83015261171d816116e4565b9050919050565b7f4e6f206469737075746520666f722074686973206f72646572000000000000005f82015250565b5f6117586019836112c8565b915061176382611724565b602082019050919050565b5f6020820190508181035f8301526117858161174c565b9050919050565b5f60408201905061179f5f830185611095565b6117ac602083018461132e565b9392505050565b7f5072696365206d7573742062652067726561746572207468616e207a65726f005f82015250565b5f6117e7601f836112c8565b91506117f2826117b3565b602082019050919050565b5f6020820190508181035f830152611814816117db565b9050919050565b7f4e487b71000000000000000000000000000000000000000000000000000000005f52601160045260245ffd5b5f6118528261108c565b91507fffffffffffffffffffffffffffffffffffffffffffffffffffffffffffffffff82036118845761188361181b565b5b600182019050919050565b7f4e487b71000000000000000000000000000000000000000000000000000000005f52604160045260245ffd5b7f4e487b71000000000000000000000000000000000000000000000000000000005f52602260045260245ffd5b5f600282049050600182168061190057607f821691505b602082108103611913576119126118bc565b5b50919050565b5f819050815f5260205f209050919050565b5f6020601f8301049050919050565b5f82821b905092915050565b5f600883026119757fffffffffffffffffffffffffffffffffffffffffffffffffffffffffffffffff8261193a565b61197f868361193a565b95508019841693508086168417925050509392505050565b5f819050919050565b5f6119ba6119b56119b08461108c565b611997565b61108c565b9050919050565b5f819050919050565b6119d3836119a0565b6119e76119df826119c1565b848454611946565b825550505050565b5f90565b6119fb6119ef565b611a068184846119ca565b505050565b5b81811015611a2957611a1e5f826119f3565b600181019050611a0c565b5050565b601f821115611a6e57611a3f81611919565b611a488461192b565b81016020851015611a57578190505b611a6b611a638561192b565b830182611a0b565b50505b505050565b5f82821c905092915050565b5f611a8e5f1984600802611a73565b1980831691505092915050565b5f611aa68383611a7f565b9150826002028217905092915050565b611abf826112be565b67ffffffffffffffff811115611ad857611ad761188f565b5b611ae282546118e9565b611aed828285611a2d565b5f60209050601f831160018114611b1e575f8415611b0c578287015190505b611b168582611a9b565b865550611b7d565b601f198416611b2c86611919565b5f5b82811015611b5357848901518255600182019150602085019450602081019050611b2e565b86831015611b705784890151611b6c601f891682611a7f565b8355505b6001600288020188555050505b505050505050565b828183375f83830152505050565b5f611b9e83856112c8565b9350611bab838584611b85565b611bb4836112e6565b840190509392505050565b5f608082019050611bd25f830188611095565b611bdf60208301876113bb565b8181036040830152611bf2818587611b93565b9050611c016060830184611095565b9695505050505050565b7f50726f6475637420616c726561647920736f6c640000000000000000000000005f82015250565b5f611c3f6014836112c8565b9150611c4a82611c0b565b602082019050919050565b5f6020820190508181035f830152611c6c81611c33565b9050919050565b7f496e636f727265637420707269636500000000000000000000000000000000005f82015250565b5f611ca7600f836112c8565b9150611cb282611c73565b602082019050919050565b5f6020820190508181035f830152611cd481611c9b565b9050919050565b5f606082019050611cee5f830186611095565b611cfb60208301856113bb565b611d086040830184611095565b94935050505056fea264697066735822122020b5c681c60f066d41f0b1b2b89c798116e263cef20bbc5f0b417dfbfe7bba1364736f6c634300081a0033",
					"opcodes": "PUSH1 0x80 PUSH1 0x40 MSTORE CALLVALUE DUP1 ISZERO PUSH1 0xE JUMPI PUSH0 DUP1 REVERT JUMPDEST POP CALLER PUSH1 0x4 PUSH0 PUSH2 0x100 EXP DUP2 SLOAD DUP2 PUSH20 0xFFFFFFFFFFFFFFFFFFFFFFFFFFFFFFFFFFFFFFFF MUL NOT AND SWAP1 DUP4 PUSH20 0xFFFFFFFFFFFFFFFFFFFFFFFFFFFFFFFFFFFFFFFF AND MUL OR SWAP1 SSTORE POP PUSH2 0x1D46 DUP1 PUSH2 0x5C PUSH0 CODECOPY PUSH0 RETURN INVALID PUSH1 0x80 PUSH1 0x40 MSTORE PUSH1 0x4 CALLDATASIZE LT PUSH2 0x9B JUMPI PUSH0 CALLDATALOAD PUSH1 0xE0 SHR DUP1 PUSH4 0x6D6B7777 GT PUSH2 0x63 JUMPI DUP1 PUSH4 0x6D6B7777 EQ PUSH2 0x169 JUMPI DUP1 PUSH4 0x7ACC0B20 EQ PUSH2 0x191 JUMPI DUP1 PUSH4 0x8642269E EQ PUSH2 0x1D2 JUMPI DUP1 PUSH4 0xA85C38EF EQ PUSH2 0x1EE JUMPI DUP1 PUSH4 0xE0F6EF87 EQ PUSH2 0x22F JUMPI DUP1 PUSH4 0xF851A440 EQ PUSH2 0x259 JUMPI PUSH2 0x9B JUMP JUMPDEST DUP1 PUSH4 0x2453FFA8 EQ PUSH2 0x9F JUMPI DUP1 PUSH4 0x27D00FB0 EQ PUSH2 0xC9 JUMPI DUP1 PUSH4 0x2927D1D9 EQ PUSH2 0xF1 JUMPI DUP1 PUSH4 0x29D78328 EQ PUSH2 0x119 JUMPI DUP1 PUSH4 0x34B25EE2 EQ PUSH2 0x141 JUMPI JUMPDEST PUSH0 DUP1 REVERT JUMPDEST CALLVALUE DUP1 ISZERO PUSH2 0xAA JUMPI PUSH0 DUP1 REVERT JUMPDEST POP PUSH2 0xB3 PUSH2 0x283 JUMP JUMPDEST PUSH1 0x40 MLOAD PUSH2 0xC0 SWAP2 SWAP1 PUSH2 0x10A4 JUMP JUMPDEST PUSH1 0x40 MLOAD DUP1 SWAP2 SUB SWAP1 RETURN JUMPDEST CALLVALUE DUP1 ISZERO PUSH2 0xD4 JUMPI PUSH0 DUP1 REVERT JUMPDEST POP PUSH2 0xEF PUSH1 0x4 DUP1 CALLDATASIZE SUB DUP2 ADD SWAP1 PUSH2 0xEA SWAP2 SWAP1 PUSH2 0x10EF JUMP JUMPDEST PUSH2 0x289 JUMP JUMPDEST STOP JUMPDEST CALLVALUE DUP1 ISZERO PUSH2 0xFC JUMPI PUSH0 DUP1 REVERT JUMPDEST POP PUSH2 0x117 PUSH1 0x4 DUP1 CALLDATASIZE SUB DUP2 ADD SWAP1 PUSH2 0x112 SWAP2 SWAP1 PUSH2 0x10EF JUMP JUMPDEST PUSH2 0x43A JUMP JUMPDEST STOP JUMPDEST CALLVALUE DUP1 ISZERO PUSH2 0x124 JUMPI PUSH0 DUP1 REVERT JUMPDEST POP PUSH2 0x13F PUSH1 0x4 DUP1 CALLDATASIZE SUB DUP2 ADD SWAP1 PUSH2 0x13A SWAP2 SWAP1 PUSH2 0x10EF JUMP JUMPDEST PUSH2 0x5AC JUMP JUMPDEST STOP JUMPDEST CALLVALUE DUP1 ISZERO PUSH2 0x14C JUMPI PUSH0 DUP1 REVERT JUMPDEST POP PUSH2 0x167 PUSH1 0x4 DUP1 CALLDATASIZE SUB DUP2 ADD SWAP1 PUSH2 0x162 SWAP2 SWAP1 PUSH2 0x114F JUMP JUMPDEST PUSH2 0x7DB JUMP JUMPDEST STOP JUMPDEST CALLVALUE DUP1 ISZERO PUSH2 0x174 JUMPI PUSH0 DUP1 REVERT JUMPDEST POP PUSH2 0x18F PUSH1 0x4 DUP1 CALLDATASIZE SUB DUP2 ADD SWAP1 PUSH2 0x18A SWAP2 SWAP1 PUSH2 0x11EE JUMP JUMPDEST PUSH2 0xA1E JUMP JUMPDEST STOP JUMPDEST CALLVALUE DUP1 ISZERO PUSH2 0x19C JUMPI PUSH0 DUP1 REVERT JUMPDEST POP PUSH2 0x1B7 PUSH1 0x4 DUP1 CALLDATASIZE SUB DUP2 ADD SWAP1 PUSH2 0x1B2 SWAP2 SWAP1 PUSH2 0x10EF JUMP JUMPDEST PUSH2 0xC41 JUMP JUMPDEST PUSH1 0x40 MLOAD PUSH2 0x1C9 SWAP7 SWAP6 SWAP5 SWAP4 SWAP3 SWAP2 SWAP1 PUSH2 0x133D JUMP JUMPDEST PUSH1 0x40 MLOAD DUP1 SWAP2 SUB SWAP1 RETURN JUMPDEST PUSH2 0x1EC PUSH1 0x4 DUP1 CALLDATASIZE SUB DUP2 ADD SWAP1 PUSH2 0x1E7 SWAP2 SWAP1 PUSH2 0x10EF JUMP JUMPDEST PUSH2 0xDB0 JUMP JUMPDEST STOP JUMPDEST CALLVALUE DUP1 ISZERO PUSH2 0x1F9 JUMPI PUSH0 DUP1 REVERT JUMPDEST POP PUSH2 0x214 PUSH1 0x4 DUP1 CALLDATASIZE SUB DUP2 ADD SWAP1 PUSH2 0x20F SWAP2 SWAP1 PUSH2 0x10EF JUMP JUMPDEST PUSH2 0xFE5 JUMP JUMPDEST PUSH1 0x40 MLOAD PUSH2 0x226 SWAP7 SWAP6 SWAP5 SWAP4 SWAP3 SWAP2 SWAP1 PUSH2 0x13CA JUMP JUMPDEST PUSH1 0x40 MLOAD DUP1 SWAP2 SUB SWAP1 RETURN JUMPDEST CALLVALUE DUP1 ISZERO PUSH2 0x23A JUMPI PUSH0 DUP1 REVERT JUMPDEST POP PUSH2 0x243 PUSH2 0x1062 JUMP JUMPDEST PUSH1 0x40 MLOAD PUSH2 0x250 SWAP2 SWAP1 PUSH2 0x10A4 JUMP JUMPDEST PUSH1 0x40 MLOAD DUP1 SWAP2 SUB SWAP1 RETURN JUMPDEST CALLVALUE DUP1 ISZERO PUSH2 0x264 JUMPI PUSH0 DUP1 REVERT JUMPDEST POP PUSH2 0x26D PUSH2 0x1067 JUMP JUMPDEST PUSH1 0x40 MLOAD PUSH2 0x27A SWAP2 SWAP1 PUSH2 0x1429 JUMP JUMPDEST PUSH1 0x40 MLOAD DUP1 SWAP2 SUB SWAP1 RETURN JUMPDEST PUSH1 0x1 SLOAD DUP2 JUMP JUMPDEST DUP1 CALLER PUSH20 0xFFFFFFFFFFFFFFFFFFFFFFFFFFFFFFFFFFFFFFFF AND PUSH1 0x3 PUSH0 DUP4 DUP2 MSTORE PUSH1 0x20 ADD SWAP1 DUP2 MSTORE PUSH1 0x20 ADD PUSH0 KECCAK256 PUSH1 0x1 ADD PUSH0 SWAP1 SLOAD SWAP1 PUSH2 0x100 EXP SWAP1 DIV PUSH20 0xFFFFFFFFFFFFFFFFFFFFFFFFFFFFFFFFFFFFFFFF AND PUSH20 0xFFFFFFFFFFFFFFFFFFFFFFFFFFFFFFFFFFFFFFFF AND EQ PUSH2 0x32B JUMPI PUSH1 0x40 MLOAD PUSH32 0x8C379A000000000000000000000000000000000000000000000000000000000 DUP2 MSTORE PUSH1 0x4 ADD PUSH2 0x322 SWAP1 PUSH2 0x14B2 JUMP JUMPDEST PUSH1 0x40 MLOAD DUP1 SWAP2 SUB SWAP1 REVERT JUMPDEST PUSH0 PUSH1 0x3 PUSH0 DUP5 DUP2 MSTORE PUSH1 0x20 ADD SWAP1 DUP2 MSTORE PUSH1 0x20 ADD PUSH0 KECCAK256 SWAP1 POP DUP1 PUSH1 0x3 ADD PUSH0 SWAP1 SLOAD SWAP1 PUSH2 0x100 EXP SWAP1 DIV PUSH1 0xFF AND PUSH2 0x38F JUMPI PUSH1 0x40 MLOAD PUSH32 0x8C379A000000000000000000000000000000000000000000000000000000000 DUP2 MSTORE PUSH1 0x4 ADD PUSH2 0x386 SWAP1 PUSH2 0x151A JUMP JUMPDEST PUSH1 0x40 MLOAD DUP1 SWAP2 SUB SWAP1 REVERT JUMPDEST DUP1 PUSH1 0x3 ADD PUSH1 0x1 SWAP1 SLOAD SWAP1 PUSH2 0x100 EXP SWAP1 DIV PUSH1 0xFF AND ISZERO PUSH2 0x3E1 JUMPI PUSH1 0x40 MLOAD PUSH32 0x8C379A000000000000000000000000000000000000000000000000000000000 DUP2 MSTORE PUSH1 0x4 ADD PUSH2 0x3D8 SWAP1 PUSH2 0x1582 JUMP JUMPDEST PUSH1 0x40 MLOAD DUP1 SWAP2 SUB SWAP1 REVERT JUMPDEST PUSH1 0x1 DUP2 PUSH1 0x3 ADD PUSH1 0x2 PUSH2 0x100 EXP DUP2 SLOAD DUP2 PUSH1 0xFF MUL NOT AND SWAP1 DUP4 ISZERO ISZERO MUL OR SWAP1 SSTORE POP PUSH32 0xED50123FE46D12537DCAAE53F33AEE1C64BCC9E4F222560F3BAE6C0824040DD3 DUP4 PUSH1 0x40 MLOAD PUSH2 0x42D SWAP2 SWAP1 PUSH2 0x10A4 JUMP JUMPDEST PUSH1 0x40 MLOAD DUP1 SWAP2 SUB SWAP1 LOG1 POP POP POP JUMP JUMPDEST PUSH1 0x3 PUSH0 DUP3 DUP2 MSTORE PUSH1 0x20 ADD SWAP1 DUP2 MSTORE PUSH1 0x20 ADD PUSH0 KECCAK256 PUSH0 ADD SLOAD CALLER PUSH20 0xFFFFFFFFFFFFFFFFFFFFFFFFFFFFFFFFFFFFFFFF AND PUSH1 0x2 PUSH0 DUP4 DUP2 MSTORE PUSH1 0x20 ADD SWAP1 DUP2 MSTORE PUSH1 0x20 ADD PUSH0 KECCAK256 PUSH1 0x1 ADD PUSH0 SWAP1 SLOAD SWAP1 PUSH2 0x100 EXP SWAP1 DIV PUSH20 0xFFFFFFFFFFFFFFFFFFFFFFFFFFFFFFFFFFFFFFFF AND PUSH20 0xFFFFFFFFFFFFFFFFFFFFFFFFFFFFFFFFFFFFFFFF AND EQ PUSH2 0x4EF JUMPI PUSH1 0x40 MLOAD PUSH32 0x8C379A000000000000000000000000000000000000000000000000000000000 DUP2 MSTORE PUSH1 0x4 ADD PUSH2 0x4E6 SWAP1 PUSH2 0x1610 JUMP JUMPDEST PUSH1 0x40 MLOAD DUP1 SWAP2 SUB SWAP1 REVERT JUMPDEST PUSH0 PUSH1 0x3 PUSH0 DUP5 DUP2 MSTORE PUSH1 0x20 ADD SWAP1 DUP2 MSTORE PUSH1 0x20 ADD PUSH0 KECCAK256 SWAP1 POP DUP1 PUSH1 0x3 ADD PUSH0 SWAP1 SLOAD SWAP1 PUSH2 0x100 EXP SWAP1 DIV PUSH1 0xFF AND ISZERO PUSH2 0x554 JUMPI PUSH1 0x40 MLOAD PUSH32 0x8C379A000000000000000000000000000000000000000000000000000000000 DUP2 MSTORE PUSH1 0x4 ADD PUSH2 0x54B SWAP1 PUSH2 0x1678 JUMP JUMPDEST PUSH1 0x40 MLOAD DUP1 SWAP2 SUB SWAP1 REVERT JUMPDEST PUSH1 0x1 DUP2 PUSH1 0x3 ADD PUSH0 PUSH2 0x100 EXP DUP2 SLOAD DUP2 PUSH1 0xFF MUL NOT AND SWAP1 DUP4 ISZERO ISZERO MUL OR SWAP1 SSTORE POP PUSH32 0xF91B0B39FBB56D78224050BB7E56777EE7ACA5ED18ADA91CC9C21677DB7F9ABE DUP4 PUSH1 0x40 MLOAD PUSH2 0x59F SWAP2 SWAP1 PUSH2 0x10A4 JUMP JUMPDEST PUSH1 0x40 MLOAD DUP1 SWAP2 SUB SWAP1 LOG1 POP POP POP JUMP JUMPDEST DUP1 CALLER PUSH20 0xFFFFFFFFFFFFFFFFFFFFFFFFFFFFFFFFFFFFFFFF AND PUSH1 0x3 PUSH0 DUP4 DUP2 MSTORE PUSH1 0x20 ADD SWAP1 DUP2 MSTORE PUSH1 0x20 ADD PUSH0 KECCAK256 PUSH1 0x1 ADD PUSH0 SWAP1 SLOAD SWAP1 PUSH2 0x100 EXP SWAP1 DIV PUSH20 0xFFFFFFFFFFFFFFFFFFFFFFFFFFFFFFFFFFFFFFFF AND PUSH20 0xFFFFFFFFFFFFFFFFFFFFFFFFFFFFFFFFFFFFFFFF AND EQ PUSH2 0x64E JUMPI PUSH1 0x40 MLOAD PUSH32 0x8C379A000000000000000000000000000000000000000000000000000000000 DUP2 MSTORE PUSH1 0x4 ADD PUSH2 0x645 SWAP1 PUSH2 0x14B2 JUMP JUMPDEST PUSH1 0x40 MLOAD DUP1 SWAP2 SUB SWAP1 REVERT JUMPDEST PUSH0 PUSH1 0x3 PUSH0 DUP5 DUP2 MSTORE PUSH1 0x20 ADD SWAP1 DUP2 MSTORE PUSH1 0x20 ADD PUSH0 KECCAK256 SWAP1 POP DUP1 PUSH1 0x3 ADD PUSH0 SWAP1 SLOAD SWAP1 PUSH2 0x100 EXP SWAP1 DIV PUSH1 0xFF AND PUSH2 0x6B2 JUMPI PUSH1 0x40 MLOAD PUSH32 0x8C379A000000000000000000000000000000000000000000000000000000000 DUP2 MSTORE PUSH1 0x4 ADD PUSH2 0x6A9 SWAP1 PUSH2 0x151A JUMP JUMPDEST PUSH1 0x40 MLOAD DUP1 SWAP2 SUB SWAP1 REVERT JUMPDEST DUP1 PUSH1 0x3 ADD PUSH1 0x1 SWAP1 SLOAD SWAP1 PUSH2 0x100 EXP SWAP1 DIV PUSH1 0xFF AND ISZERO PUSH2 0x704 JUMPI PUSH1 0x40 MLOAD PUSH32 0x8C379A000000000000000000000000000000000000000000000000000000000 DUP2 MSTORE PUSH1 0x4 ADD PUSH2 0x6FB SWAP1 PUSH2 0x1582 JUMP JUMPDEST PUSH1 0x40 MLOAD DUP1 SWAP2 SUB SWAP1 REVERT JUMPDEST PUSH1 0x1 DUP2 PUSH1 0x3 ADD PUSH1 0x1 PUSH2 0x100 EXP DUP2 SLOAD DUP2 PUSH1 0xFF MUL NOT AND SWAP1 DUP4 ISZERO ISZERO MUL OR SWAP1 SSTORE POP PUSH1 0x2 PUSH0 DUP3 PUSH0 ADD SLOAD DUP2 MSTORE PUSH1 0x20 ADD SWAP1 DUP2 MSTORE PUSH1 0x20 ADD PUSH0 KECCAK256 PUSH1 0x1 ADD PUSH0 SWAP1 SLOAD SWAP1 PUSH2 0x100 EXP SWAP1 DIV PUSH20 0xFFFFFFFFFFFFFFFFFFFFFFFFFFFFFFFFFFFFFFFF AND PUSH20 0xFFFFFFFFFFFFFFFFFFFFFFFFFFFFFFFFFFFFFFFF AND PUSH2 0x8FC DUP3 PUSH1 0x2 ADD SLOAD SWAP1 DUP2 ISZERO MUL SWAP1 PUSH1 0x40 MLOAD PUSH0 PUSH1 0x40 MLOAD DUP1 DUP4 SUB DUP2 DUP6 DUP9 DUP9 CALL SWAP4 POP POP POP POP ISZERO DUP1 ISZERO PUSH2 0x79E JUMPI RETURNDATASIZE PUSH0 DUP1 RETURNDATACOPY RETURNDATASIZE PUSH0 REVERT JUMPDEST POP PUSH32 0x14DEA969EEDD35DC22A00DC5D0C573AD6305C40D63100DE02135B0226EB4C8AA DUP4 PUSH1 0x40 MLOAD PUSH2 0x7CE SWAP2 SWAP1 PUSH2 0x10A4 JUMP JUMPDEST PUSH1 0x40 MLOAD DUP1 SWAP2 SUB SWAP1 LOG1 POP POP POP JUMP JUMPDEST PUSH1 0x4 PUSH0 SWAP1 SLOAD SWAP1 PUSH2 0x100 EXP SWAP1 DIV PUSH20 0xFFFFFFFFFFFFFFFFFFFFFFFFFFFFFFFFFFFFFFFF AND PUSH20 0xFFFFFFFFFFFFFFFFFFFFFFFFFFFFFFFFFFFFFFFF AND CALLER PUSH20 0xFFFFFFFFFFFFFFFFFFFFFFFFFFFFFFFFFFFFFFFF AND EQ PUSH2 0x86A JUMPI PUSH1 0x40 MLOAD PUSH32 0x8C379A000000000000000000000000000000000000000000000000000000000 DUP2 MSTORE PUSH1 0x4 ADD PUSH2 0x861 SWAP1 PUSH2 0x1706 JUMP JUMPDEST PUSH1 0x40 MLOAD DUP1 SWAP2 SUB SWAP1 REVERT JUMPDEST PUSH0 PUSH1 0x3 PUSH0 DUP5 DUP2 MSTORE PUSH1 0x20 ADD SWAP1 DUP2 MSTORE PUSH1 0x20 ADD PUSH0 KECCAK256 SWAP1 POP DUP1 PUSH1 0x3 ADD PUSH1 0x2 SWAP1 SLOAD SWAP1 PUSH2 0x100 EXP SWAP1 DIV PUSH1 0xFF AND PUSH2 0x8CF JUMPI PUSH1 0x40 MLOAD PUSH32 0x8C379A000000000000000000000000000000000000000000000000000000000 DUP2 MSTORE PUSH1 0x4 ADD PUSH2 0x8C6 SWAP1 PUSH2 0x176E JUMP JUMPDEST PUSH1 0x40 MLOAD DUP1 SWAP2 SUB SWAP1 REVERT JUMPDEST PUSH0 DUP2 PUSH1 0x3 ADD PUSH1 0x2 PUSH2 0x100 EXP DUP2 SLOAD DUP2 PUSH1 0xFF MUL NOT AND SWAP1 DUP4 ISZERO ISZERO MUL OR SWAP1 SSTORE POP DUP2 ISZERO PUSH2 0x961 JUMPI DUP1 PUSH1 0x1 ADD PUSH0 SWAP1 SLOAD SWAP1 PUSH2 0x100 EXP SWAP1 DIV PUSH20 0xFFFFFFFFFFFFFFFFFFFFFFFFFFFFFFFFFFFFFFFF AND PUSH20 0xFFFFFFFFFFFFFFFFFFFFFFFFFFFFFFFFFFFFFFFF AND PUSH2 0x8FC DUP3 PUSH1 0x2 ADD SLOAD SWAP1 DUP2 ISZERO MUL SWAP1 PUSH1 0x40 MLOAD PUSH0 PUSH1 0x40 MLOAD DUP1 DUP4 SUB DUP2 DUP6 DUP9 DUP9 CALL SWAP4 POP POP POP POP ISZERO DUP1 ISZERO PUSH2 0x95B JUMPI RETURNDATASIZE PUSH0 DUP1 RETURNDATACOPY RETURNDATASIZE PUSH0 REVERT JUMPDEST POP PUSH2 0x9E0 JUMP JUMPDEST PUSH1 0x2 PUSH0 DUP3 PUSH0 ADD SLOAD DUP2 MSTORE PUSH1 0x20 ADD SWAP1 DUP2 MSTORE PUSH1 0x20 ADD PUSH0 KECCAK256 PUSH1 0x1 ADD PUSH0 SWAP1 SLOAD SWAP1 PUSH2 0x100 EXP SWAP1 DIV PUSH20 0xFFFFFFFFFFFFFFFFFFFFFFFFFFFFFFFFFFFFFFFF AND PUSH20 0xFFFFFFFFFFFFFFFFFFFFFFFFFFFFFFFFFFFFFFFF AND PUSH2 0x8FC DUP3 PUSH1 0x2 ADD SLOAD SWAP1 DUP2 ISZERO MUL SWAP1 PUSH1 0x40 MLOAD PUSH0 PUSH1 0x40 MLOAD DUP1 DUP4 SUB DUP2 DUP6 DUP9 DUP9 CALL SWAP4 POP POP POP POP ISZERO DUP1 ISZERO PUSH2 0x9DE JUMPI RETURNDATASIZE PUSH0 DUP1 RETURNDATACOPY RETURNDATASIZE PUSH0 REVERT JUMPDEST POP JUMPDEST PUSH32 0x5A87909BFF68CAAAAF0B3FD9C74EECCC928832F879315E5C6FB7A73612F26C0C DUP4 DUP4 PUSH1 0x40 MLOAD PUSH2 0xA11 SWAP3 SWAP2 SWAP1 PUSH2 0x178C JUMP JUMPDEST PUSH1 0x40 MLOAD DUP1 SWAP2 SUB SWAP1 LOG1 POP POP POP JUMP JUMPDEST PUSH0 DUP2 GT PUSH2 0xA60 JUMPI PUSH1 0x40 MLOAD PUSH32 0x8C379A000000000000000000000000000000000000000000000000000000000 DUP2 MSTORE PUSH1 0x4 ADD PUSH2 0xA57 SWAP1 PUSH2 0x17FD JUMP JUMPDEST PUSH1 0x40 MLOAD DUP1 SWAP2 SUB SWAP1 REVERT JUMPDEST PUSH0 DUP1 DUP2 SLOAD DUP1 SWAP3 SWAP2 SWAP1 PUSH2 0xA71 SWAP1 PUSH2 0x1848 JUMP JUMPDEST SWAP2 SWAP1 POP SSTORE POP PUSH1 0x40 MLOAD DUP1 PUSH1 0xC0 ADD PUSH1 0x40 MSTORE DUP1 PUSH0 SLOAD DUP2 MSTORE PUSH1 0x20 ADD CALLER PUSH20 0xFFFFFFFFFFFFFFFFFFFFFFFFFFFFFFFFFFFFFFFF AND DUP2 MSTORE PUSH1 0x20 ADD DUP7 DUP7 DUP1 DUP1 PUSH1 0x1F ADD PUSH1 0x20 DUP1 SWAP2 DIV MUL PUSH1 0x20 ADD PUSH1 0x40 MLOAD SWAP1 DUP2 ADD PUSH1 0x40 MSTORE DUP1 SWAP4 SWAP3 SWAP2 SWAP1 DUP2 DUP2 MSTORE PUSH1 0x20 ADD DUP4 DUP4 DUP1 DUP3 DUP5 CALLDATACOPY PUSH0 DUP2 DUP5 ADD MSTORE PUSH1 0x1F NOT PUSH1 0x1F DUP3 ADD AND SWAP1 POP DUP1 DUP4 ADD SWAP3 POP POP POP POP POP POP POP DUP2 MSTORE PUSH1 0x20 ADD DUP5 DUP5 DUP1 DUP1 PUSH1 0x1F ADD PUSH1 0x20 DUP1 SWAP2 DIV MUL PUSH1 0x20 ADD PUSH1 0x40 MLOAD SWAP1 DUP2 ADD PUSH1 0x40 MSTORE DUP1 SWAP4 SWAP3 SWAP2 SWAP1 DUP2 DUP2 MSTORE PUSH1 0x20 ADD DUP4 DUP4 DUP1 DUP3 DUP5 CALLDATACOPY PUSH0 DUP2 DUP5 ADD MSTORE PUSH1 0x1F NOT PUSH1 0x1F DUP3 ADD AND SWAP1 POP DUP1 DUP4 ADD SWAP3 POP POP POP POP POP POP POP DUP2 MSTORE PUSH1 0x20 ADD DUP3 DUP2 MSTORE PUSH1 0x20 ADD PUSH0 ISZERO ISZERO DUP2 MSTORE POP PUSH1 0x2 PUSH0 DUP1 SLOAD DUP2 MSTORE PUSH1 0x20 ADD SWAP1 DUP2 MSTORE PUSH1 0x20 ADD PUSH0 KECCAK256 PUSH0 DUP3 ADD MLOAD DUP2 PUSH0 ADD SSTORE PUSH1 0x20 DUP3 ADD MLOAD DUP2 PUSH1 0x1 ADD PUSH0 PUSH2 0x100 EXP DUP2 SLOAD DUP2 PUSH20 0xFFFFFFFFFFFFFFFFFFFFFFFFFFFFFFFFFFFFFFFF MUL NOT AND SWAP1 DUP4 PUSH20 0xFFFFFFFFFFFFFFFFFFFFFFFFFFFFFFFFFFFFFFFF AND MUL OR SWAP1 SSTORE POP PUSH1 0x40 DUP3 ADD MLOAD DUP2 PUSH1 0x2 ADD SWAP1 DUP2 PUSH2 0xBB7 SWAP2 SWAP1 PUSH2 0x1AB6 JUMP JUMPDEST POP PUSH1 0x60 DUP3 ADD MLOAD DUP2 PUSH1 0x3 ADD SWAP1 DUP2 PUSH2 0xBCD SWAP2 SWAP1 PUSH2 0x1AB6 JUMP JUMPDEST POP PUSH1 0x80 DUP3 ADD MLOAD DUP2 PUSH1 0x4 ADD SSTORE PUSH1 0xA0 DUP3 ADD MLOAD DUP2 PUSH1 0x5 ADD PUSH0 PUSH2 0x100 EXP DUP2 SLOAD DUP2 PUSH1 0xFF MUL NOT AND SWAP1 DUP4 ISZERO ISZERO MUL OR SWAP1 SSTORE POP SWAP1 POP POP PUSH32 0x899C32FBD27A24397979837F3ACD7BFEE4A37EE60B2D2F1A0643A725F39A7A49 PUSH0 SLOAD CALLER DUP8 DUP8 DUP6 PUSH1 0x40 MLOAD PUSH2 0xC32 SWAP6 SWAP5 SWAP4 SWAP3 SWAP2 SWAP1 PUSH2 0x1BBF JUMP JUMPDEST PUSH1 0x40 MLOAD DUP1 SWAP2 SUB SWAP1 LOG1 POP POP POP POP POP JUMP JUMPDEST PUSH1 0x2 PUSH1 0x20 MSTORE DUP1 PUSH0 MSTORE PUSH1 0x40 PUSH0 KECCAK256 PUSH0 SWAP2 POP SWAP1 POP DUP1 PUSH0 ADD SLOAD SWAP1 DUP1 PUSH1 0x1 ADD PUSH0 SWAP1 SLOAD SWAP1 PUSH2 0x100 EXP SWAP1 DIV PUSH20 0xFFFFFFFFFFFFFFFFFFFFFFFFFFFFFFFFFFFFFFFF AND SWAP1 DUP1 PUSH1 0x2 ADD DUP1 SLOAD PUSH2 0xC8B SWAP1 PUSH2 0x18E9 JUMP JUMPDEST DUP1 PUSH1 0x1F ADD PUSH1 0x20 DUP1 SWAP2 DIV MUL PUSH1 0x20 ADD PUSH1 0x40 MLOAD SWAP1 DUP2 ADD PUSH1 0x40 MSTORE DUP1 SWAP3 SWAP2 SWAP1 DUP2 DUP2 MSTORE PUSH1 0x20 ADD DUP3 DUP1 SLOAD PUSH2 0xCB7 SWAP1 PUSH2 0x18E9 JUMP JUMPDEST DUP1 ISZERO PUSH2 0xD02 JUMPI DUP1 PUSH1 0x1F LT PUSH2 0xCD9 JUMPI PUSH2 0x100 DUP1 DUP4 SLOAD DIV MUL DUP4 MSTORE SWAP2 PUSH1 0x20 ADD SWAP2 PUSH2 0xD02 JUMP JUMPDEST DUP3 ADD SWAP2 SWAP1 PUSH0 MSTORE PUSH1 0x20 PUSH0 KECCAK256 SWAP1 JUMPDEST DUP2 SLOAD DUP2 MSTORE SWAP1 PUSH1 0x1 ADD SWAP1 PUSH1 0x20 ADD DUP1 DUP4 GT PUSH2 0xCE5 JUMPI DUP3 SWAP1 SUB PUSH1 0x1F AND DUP3 ADD SWAP2 JUMPDEST POP POP POP POP POP SWAP1 DUP1 PUSH1 0x3 ADD DUP1 SLOAD PUSH2 0xD17 SWAP1 PUSH2 0x18E9 JUMP JUMPDEST DUP1 PUSH1 0x1F ADD PUSH1 0x20 DUP1 SWAP2 DIV MUL PUSH1 0x20 ADD PUSH1 0x40 MLOAD SWAP1 DUP2 ADD PUSH1 0x40 MSTORE DUP1 SWAP3 SWAP2 SWAP1 DUP2 DUP2 MSTORE PUSH1 0x20 ADD DUP3 DUP1 SLOAD PUSH2 0xD43 SWAP1 PUSH2 0x18E9 JUMP JUMPDEST DUP1 ISZERO PUSH2 0xD8E JUMPI DUP1 PUSH1 0x1F LT PUSH2 0xD65 JUMPI PUSH2 0x100 DUP1 DUP4 SLOAD DIV MUL DUP4 MSTORE SWAP2 PUSH1 0x20 ADD SWAP2 PUSH2 0xD8E JUMP JUMPDEST DUP3 ADD SWAP2 SWAP1 PUSH0 MSTORE PUSH1 0x20 PUSH0 KECCAK256 SWAP1 JUMPDEST DUP2 SLOAD DUP2 MSTORE SWAP1 PUSH1 0x1 ADD SWAP1 PUSH1 0x20 ADD DUP1 DUP4 GT PUSH2 0xD71 JUMPI DUP3 SWAP1 SUB PUSH1 0x1F AND DUP3 ADD SWAP2 JUMPDEST POP POP POP POP POP SWAP1 DUP1 PUSH1 0x4 ADD SLOAD SWAP1 DUP1 PUSH1 0x5 ADD PUSH0 SWAP1 SLOAD SWAP1 PUSH2 0x100 EXP SWAP1 DIV PUSH1 0xFF AND SWAP1 POP DUP7 JUMP JUMPDEST PUSH0 PUSH1 0x2 PUSH0 DUP4 DUP2 MSTORE PUSH1 0x20 ADD SWAP1 DUP2 MSTORE PUSH1 0x20 ADD PUSH0 KECCAK256 SWAP1 POP DUP1 PUSH1 0x5 ADD PUSH0 SWAP1 SLOAD SWAP1 PUSH2 0x100 EXP SWAP1 DIV PUSH1 0xFF AND ISZERO PUSH2 0xE15 JUMPI PUSH1 0x40 MLOAD PUSH32 0x8C379A000000000000000000000000000000000000000000000000000000000 DUP2 MSTORE PUSH1 0x4 ADD PUSH2 0xE0C SWAP1 PUSH2 0x1C55 JUMP JUMPDEST PUSH1 0x40 MLOAD DUP1 SWAP2 SUB SWAP1 REVERT JUMPDEST DUP1 PUSH1 0x4 ADD SLOAD CALLVALUE EQ PUSH2 0xE5B JUMPI PUSH1 0x40 MLOAD PUSH32 0x8C379A000000000000000000000000000000000000000000000000000000000 DUP2 MSTORE PUSH1 0x4 ADD PUSH2 0xE52 SWAP1 PUSH2 0x1CBD JUMP JUMPDEST PUSH1 0x40 MLOAD DUP1 SWAP2 SUB SWAP1 REVERT JUMPDEST PUSH1 0x1 PUSH0 DUP2 SLOAD DUP1 SWAP3 SWAP2 SWAP1 PUSH2 0xE6D SWAP1 PUSH2 0x1848 JUMP JUMPDEST SWAP2 SWAP1 POP SSTORE POP PUSH1 0x40 MLOAD DUP1 PUSH1 0xC0 ADD PUSH1 0x40 MSTORE DUP1 DUP4 DUP2 MSTORE PUSH1 0x20 ADD CALLER PUSH20 0xFFFFFFFFFFFFFFFFFFFFFFFFFFFFFFFFFFFFFFFF AND DUP2 MSTORE PUSH1 0x20 ADD CALLVALUE DUP2 MSTORE PUSH1 0x20 ADD PUSH0 ISZERO ISZERO DUP2 MSTORE PUSH1 0x20 ADD PUSH0 ISZERO ISZERO DUP2 MSTORE PUSH1 0x20 ADD PUSH0 ISZERO ISZERO DUP2 MSTORE POP PUSH1 0x3 PUSH0 PUSH1 0x1 SLOAD DUP2 MSTORE PUSH1 0x20 ADD SWAP1 DUP2 MSTORE PUSH1 0x20 ADD PUSH0 KECCAK256 PUSH0 DUP3 ADD MLOAD DUP2 PUSH0 ADD SSTORE PUSH1 0x20 DUP3 ADD MLOAD DUP2 PUSH1 0x1 ADD PUSH0 PUSH2 0x100 EXP DUP2 SLOAD DUP2 PUSH20 0xFFFFFFFFFFFFFFFFFFFFFFFFFFFFFFFFFFFFFFFF MUL NOT AND SWAP1 DUP4 PUSH20 0xFFFFFFFFFFFFFFFFFFFFFFFFFFFFFFFFFFFFFFFF AND MUL OR SWAP1 SSTORE POP PUSH1 0x40 DUP3 ADD MLOAD DUP2 PUSH1 0x2 ADD SSTORE PUSH1 0x60 DUP3 ADD MLOAD DUP2 PUSH1 0x3 ADD PUSH0 PUSH2 0x100 EXP DUP2 SLOAD DUP2 PUSH1 0xFF MUL NOT AND SWAP1 DUP4 ISZERO ISZERO MUL OR SWAP1 SSTORE POP PUSH1 0x80 DUP3 ADD MLOAD DUP2 PUSH1 0x3 ADD PUSH1 0x1 PUSH2 0x100 EXP DUP2 SLOAD DUP2 PUSH1 0xFF MUL NOT AND SWAP1 DUP4 ISZERO ISZERO MUL OR SWAP1 SSTORE POP PUSH1 0xA0 DUP3 ADD MLOAD DUP2 PUSH1 0x3 ADD PUSH1 0x2 PUSH2 0x100 EXP DUP2 SLOAD DUP2 PUSH1 0xFF MUL NOT AND SWAP1 DUP4 ISZERO ISZERO MUL OR SWAP1 SSTORE POP SWAP1 POP POP PUSH1 0x1 DUP2 PUSH1 0x5 ADD PUSH0 PUSH2 0x100 EXP DUP2 SLOAD DUP2 PUSH1 0xFF MUL NOT AND SWAP1 DUP4 ISZERO ISZERO MUL OR SWAP1 SSTORE POP PUSH32 0xA530F889D7F1BD9A73028E48944CA013AB2C6624A31E3FA26F923F4BB719ABD5 DUP3 CALLER PUSH1 0x1 SLOAD PUSH1 0x40 MLOAD PUSH2 0xFD9 SWAP4 SWAP3 SWAP2 SWAP1 PUSH2 0x1CDB JUMP JUMPDEST PUSH1 0x40 MLOAD DUP1 SWAP2 SUB SWAP1 LOG1 POP POP JUMP JUMPDEST PUSH1 0x3 PUSH1 0x20 MSTORE DUP1 PUSH0 MSTORE PUSH1 0x40 PUSH0 KECCAK256 PUSH0 SWAP2 POP SWAP1 POP DUP1 PUSH0 ADD SLOAD SWAP1 DUP1 PUSH1 0x1 ADD PUSH0 SWAP1 SLOAD SWAP1 PUSH2 0x100 EXP SWAP1 DIV PUSH20 0xFFFFFFFFFFFFFFFFFFFFFFFFFFFFFFFFFFFFFFFF AND SWAP1 DUP1 PUSH1 0x2 ADD SLOAD SWAP1 DUP1 PUSH1 0x3 ADD PUSH0 SWAP1 SLOAD SWAP1 PUSH2 0x100 EXP SWAP1 DIV PUSH1 0xFF AND SWAP1 DUP1 PUSH1 0x3 ADD PUSH1 0x1 SWAP1 SLOAD SWAP1 PUSH2 0x100 EXP SWAP1 DIV PUSH1 0xFF AND SWAP1 DUP1 PUSH1 0x3 ADD PUSH1 0x2 SWAP1 SLOAD SWAP1 PUSH2 0x100 EXP SWAP1 DIV PUSH1 0xFF AND SWAP1 POP DUP7 JUMP JUMPDEST PUSH0 SLOAD DUP2 JUMP JUMPDEST PUSH1 0x4 PUSH0 SWAP1 SLOAD SWAP1 PUSH2 0x100 EXP SWAP1 DIV PUSH20 0xFFFFFFFFFFFFFFFFFFFFFFFFFFFFFFFFFFFFFFFF AND DUP2 JUMP JUMPDEST PUSH0 DUP2 SWAP1 POP SWAP2 SWAP1 POP JUMP JUMPDEST PUSH2 0x109E DUP2 PUSH2 0x108C JUMP JUMPDEST DUP3 MSTORE POP POP JUMP JUMPDEST PUSH0 PUSH1 0x20 DUP3 ADD SWAP1 POP PUSH2 0x10B7 PUSH0 DUP4 ADD DUP5 PUSH2 0x1095 JUMP JUMPDEST SWAP3 SWAP2 POP POP JUMP JUMPDEST PUSH0 DUP1 REVERT JUMPDEST PUSH0 DUP1 REVERT JUMPDEST PUSH2 0x10CE DUP2 PUSH2 0x108C JUMP JUMPDEST DUP2 EQ PUSH2 0x10D8 JUMPI PUSH0 DUP1 REVERT JUMPDEST POP JUMP JUMPDEST PUSH0 DUP2 CALLDATALOAD SWAP1 POP PUSH2 0x10E9 DUP2 PUSH2 0x10C5 JUMP JUMPDEST SWAP3 SWAP2 POP POP JUMP JUMPDEST PUSH0 PUSH1 0x20 DUP3 DUP5 SUB SLT ISZERO PUSH2 0x1104 JUMPI PUSH2 0x1103 PUSH2 0x10BD JUMP JUMPDEST JUMPDEST PUSH0 PUSH2 0x1111 DUP5 DUP3 DUP6 ADD PUSH2 0x10DB JUMP JUMPDEST SWAP2 POP POP SWAP3 SWAP2 POP POP JUMP JUMPDEST PUSH0 DUP2 ISZERO ISZERO SWAP1 POP SWAP2 SWAP1 POP JUMP JUMPDEST PUSH2 0x112E DUP2 PUSH2 0x111A JUMP JUMPDEST DUP2 EQ PUSH2 0x1138 JUMPI PUSH0 DUP1 REVERT JUMPDEST POP JUMP JUMPDEST PUSH0 DUP2 CALLDATALOAD SWAP1 POP PUSH2 0x1149 DUP2 PUSH2 0x1125 JUMP JUMPDEST SWAP3 SWAP2 POP POP JUMP JUMPDEST PUSH0 DUP1 PUSH1 0x40 DUP4 DUP6 SUB SLT ISZERO PUSH2 0x1165 JUMPI PUSH2 0x1164 PUSH2 0x10BD JUMP JUMPDEST JUMPDEST PUSH0 PUSH2 0x1172 DUP6 DUP3 DUP7 ADD PUSH2 0x10DB JUMP JUMPDEST SWAP3 POP POP PUSH1 0x20 PUSH2 0x1183 DUP6 DUP3 DUP7 ADD PUSH2 0x113B JUMP JUMPDEST SWAP2 POP POP SWAP3 POP SWAP3 SWAP1 POP JUMP JUMPDEST PUSH0 DUP1 REVERT JUMPDEST PUSH0 DUP1 REVERT JUMPDEST PUSH0 DUP1 REVERT JUMPDEST PUSH0 DUP1 DUP4 PUSH1 0x1F DUP5 ADD SLT PUSH2 0x11AE JUMPI PUSH2 0x11AD PUSH2 0x118D JUMP JUMPDEST JUMPDEST DUP3 CALLDATALOAD SWAP1 POP PUSH8 0xFFFFFFFFFFFFFFFF DUP2 GT ISZERO PUSH2 0x11CB JUMPI PUSH2 0x11CA PUSH2 0x1191 JUMP JUMPDEST JUMPDEST PUSH1 0x20 DUP4 ADD SWAP2 POP DUP4 PUSH1 0x1 DUP3 MUL DUP4 ADD GT ISZERO PUSH2 0x11E7 JUMPI PUSH2 0x11E6 PUSH2 0x1195 JUMP JUMPDEST JUMPDEST SWAP3 POP SWAP3 SWAP1 POP JUMP JUMPDEST PUSH0 DUP1 PUSH0 DUP1 PUSH0 PUSH1 0x60 DUP7 DUP9 SUB SLT ISZERO PUSH2 0x1207 JUMPI PUSH2 0x1206 PUSH2 0x10BD JUMP JUMPDEST JUMPDEST PUSH0 DUP7 ADD CALLDATALOAD PUSH8 0xFFFFFFFFFFFFFFFF DUP2 GT ISZERO PUSH2 0x1224 JUMPI PUSH2 0x1223 PUSH2 0x10C1 JUMP JUMPDEST JUMPDEST PUSH2 0x1230 DUP9 DUP3 DUP10 ADD PUSH2 0x1199 JUMP JUMPDEST SWAP6 POP SWAP6 POP POP PUSH1 0x20 DUP7 ADD CALLDATALOAD PUSH8 0xFFFFFFFFFFFFFFFF DUP2 GT ISZERO PUSH2 0x1253 JUMPI PUSH2 0x1252 PUSH2 0x10C1 JUMP JUMPDEST JUMPDEST PUSH2 0x125F DUP9 DUP3 DUP10 ADD PUSH2 0x1199 JUMP JUMPDEST SWAP4 POP SWAP4 POP POP PUSH1 0x40 PUSH2 0x1272 DUP9 DUP3 DUP10 ADD PUSH2 0x10DB JUMP JUMPDEST SWAP2 POP POP SWAP3 SWAP6 POP SWAP3 SWAP6 SWAP1 SWAP4 POP JUMP JUMPDEST PUSH0 PUSH20 0xFFFFFFFFFFFFFFFFFFFFFFFFFFFFFFFFFFFFFFFF DUP3 AND SWAP1 POP SWAP2 SWAP1 POP JUMP JUMPDEST PUSH0 PUSH2 0x12A8 DUP3 PUSH2 0x127F JUMP JUMPDEST SWAP1 POP SWAP2 SWAP1 POP JUMP JUMPDEST PUSH2 0x12B8 DUP2 PUSH2 0x129E JUMP JUMPDEST DUP3 MSTORE POP POP JUMP JUMPDEST PUSH0 DUP2 MLOAD SWAP1 POP SWAP2 SWAP1 POP JUMP JUMPDEST PUSH0 DUP3 DUP3 MSTORE PUSH1 0x20 DUP3 ADD SWAP1 POP SWAP3 SWAP2 POP POP JUMP JUMPDEST DUP3 DUP2 DUP4 MCOPY PUSH0 DUP4 DUP4 ADD MSTORE POP POP POP JUMP JUMPDEST PUSH0 PUSH1 0x1F NOT PUSH1 0x1F DUP4 ADD AND SWAP1 POP SWAP2 SWAP1 POP JUMP JUMPDEST PUSH0 PUSH2 0x1300 DUP3 PUSH2 0x12BE JUMP JUMPDEST PUSH2 0x130A DUP2 DUP6 PUSH2 0x12C8 JUMP JUMPDEST SWAP4 POP PUSH2 0x131A DUP2 DUP6 PUSH1 0x20 DUP7 ADD PUSH2 0x12D8 JUMP JUMPDEST PUSH2 0x1323 DUP2 PUSH2 0x12E6 JUMP JUMPDEST DUP5 ADD SWAP2 POP POP SWAP3 SWAP2 POP POP JUMP JUMPDEST PUSH2 0x1337 DUP2 PUSH2 0x111A JUMP JUMPDEST DUP3 MSTORE POP POP JUMP JUMPDEST PUSH0 PUSH1 0xC0 DUP3 ADD SWAP1 POP PUSH2 0x1350 PUSH0 DUP4 ADD DUP10 PUSH2 0x1095 JUMP JUMPDEST PUSH2 0x135D PUSH1 0x20 DUP4 ADD DUP9 PUSH2 0x12AF JUMP JUMPDEST DUP2 DUP2 SUB PUSH1 0x40 DUP4 ADD MSTORE PUSH2 0x136F DUP2 DUP8 PUSH2 0x12F6 JUMP JUMPDEST SWAP1 POP DUP2 DUP2 SUB PUSH1 0x60 DUP4 ADD MSTORE PUSH2 0x1383 DUP2 DUP7 PUSH2 0x12F6 JUMP JUMPDEST SWAP1 POP PUSH2 0x1392 PUSH1 0x80 DUP4 ADD DUP6 PUSH2 0x1095 JUMP JUMPDEST PUSH2 0x139F PUSH1 0xA0 DUP4 ADD DUP5 PUSH2 0x132E JUMP JUMPDEST SWAP8 SWAP7 POP POP POP POP POP POP POP JUMP JUMPDEST PUSH0 PUSH2 0x13B4 DUP3 PUSH2 0x127F JUMP JUMPDEST SWAP1 POP SWAP2 SWAP1 POP JUMP JUMPDEST PUSH2 0x13C4 DUP2 PUSH2 0x13AA JUMP JUMPDEST DUP3 MSTORE POP POP JUMP JUMPDEST PUSH0 PUSH1 0xC0 DUP3 ADD SWAP1 POP PUSH2 0x13DD PUSH0 DUP4 ADD DUP10 PUSH2 0x1095 JUMP JUMPDEST PUSH2 0x13EA PUSH1 0x20 DUP4 ADD DUP9 PUSH2 0x13BB JUMP JUMPDEST PUSH2 0x13F7 PUSH1 0x40 DUP4 ADD DUP8 PUSH2 0x1095 JUMP JUMPDEST PUSH2 0x1404 PUSH1 0x60 DUP4 ADD DUP7 PUSH2 0x132E JUMP JUMPDEST PUSH2 0x1411 PUSH1 0x80 DUP4 ADD DUP6 PUSH2 0x132E JUMP JUMPDEST PUSH2 0x141E PUSH1 0xA0 DUP4 ADD DUP5 PUSH2 0x132E JUMP JUMPDEST SWAP8 SWAP7 POP POP POP POP POP POP POP JUMP JUMPDEST PUSH0 PUSH1 0x20 DUP3 ADD SWAP1 POP PUSH2 0x143C PUSH0 DUP4 ADD DUP5 PUSH2 0x13BB JUMP JUMPDEST SWAP3 SWAP2 POP POP JUMP JUMPDEST PUSH32 0x4F6E6C792062757965722063616E206578656375746520746869732066756E63 PUSH0 DUP3 ADD MSTORE PUSH32 0x74696F6E00000000000000000000000000000000000000000000000000000000 PUSH1 0x20 DUP3 ADD MSTORE POP JUMP JUMPDEST PUSH0 PUSH2 0x149C PUSH1 0x24 DUP4 PUSH2 0x12C8 JUMP JUMPDEST SWAP2 POP PUSH2 0x14A7 DUP3 PUSH2 0x1442 JUMP JUMPDEST PUSH1 0x40 DUP3 ADD SWAP1 POP SWAP2 SWAP1 POP JUMP JUMPDEST PUSH0 PUSH1 0x20 DUP3 ADD SWAP1 POP DUP2 DUP2 SUB PUSH0 DUP4 ADD MSTORE PUSH2 0x14C9 DUP2 PUSH2 0x1490 JUMP JUMPDEST SWAP1 POP SWAP2 SWAP1 POP JUMP JUMPDEST PUSH32 0x50726F64756374206E6F74207368697070656420796574000000000000000000 PUSH0 DUP3 ADD MSTORE POP JUMP JUMPDEST PUSH0 PUSH2 0x1504 PUSH1 0x17 DUP4 PUSH2 0x12C8 JUMP JUMPDEST SWAP2 POP PUSH2 0x150F DUP3 PUSH2 0x14D0 JUMP JUMPDEST PUSH1 0x20 DUP3 ADD SWAP1 POP SWAP2 SWAP1 POP JUMP JUMPDEST PUSH0 PUSH1 0x20 DUP3 ADD SWAP1 POP DUP2 DUP2 SUB PUSH0 DUP4 ADD MSTORE PUSH2 0x1531 DUP2 PUSH2 0x14F8 JUMP JUMPDEST SWAP1 POP SWAP2 SWAP1 POP JUMP JUMPDEST PUSH32 0x50726F6475637420616C72656164792072656365697665640000000000000000 PUSH0 DUP3 ADD MSTORE POP JUMP JUMPDEST PUSH0 PUSH2 0x156C PUSH1 0x18 DUP4 PUSH2 0x12C8 JUMP JUMPDEST SWAP2 POP PUSH2 0x1577 DUP3 PUSH2 0x1538 JUMP JUMPDEST PUSH1 0x20 DUP3 ADD SWAP1 POP SWAP2 SWAP1 POP JUMP JUMPDEST PUSH0 PUSH1 0x20 DUP3 ADD SWAP1 POP DUP2 DUP2 SUB PUSH0 DUP4 ADD MSTORE PUSH2 0x1599 DUP2 PUSH2 0x1560 JUMP JUMPDEST SWAP1 POP SWAP2 SWAP1 POP JUMP JUMPDEST PUSH32 0x4F6E6C792073656C6C65722063616E206578656375746520746869732066756E PUSH0 DUP3 ADD MSTORE PUSH32 0x6374696F6E000000000000000000000000000000000000000000000000000000 PUSH1 0x20 DUP3 ADD MSTORE POP JUMP JUMPDEST PUSH0 PUSH2 0x15FA PUSH1 0x25 DUP4 PUSH2 0x12C8 JUMP JUMPDEST SWAP2 POP PUSH2 0x1605 DUP3 PUSH2 0x15A0 JUMP JUMPDEST PUSH1 0x40 DUP3 ADD SWAP1 POP SWAP2 SWAP1 POP JUMP JUMPDEST PUSH0 PUSH1 0x20 DUP3 ADD SWAP1 POP DUP2 DUP2 SUB PUSH0 DUP4 ADD MSTORE PUSH2 0x1627 DUP2 PUSH2 0x15EE JUMP JUMPDEST SWAP1 POP SWAP2 SWAP1 POP JUMP JUMPDEST PUSH32 0x50726F6475637420616C72656164792073686970706564000000000000000000 PUSH0 DUP3 ADD MSTORE POP JUMP JUMPDEST PUSH0 PUSH2 0x1662 PUSH1 0x17 DUP4 PUSH2 0x12C8 JUMP JUMPDEST SWAP2 POP PUSH2 0x166D DUP3 PUSH2 0x162E JUMP JUMPDEST PUSH1 0x20 DUP3 ADD SWAP1 POP SWAP2 SWAP1 POP JUMP JUMPDEST PUSH0 PUSH1 0x20 DUP3 ADD SWAP1 POP DUP2 DUP2 SUB PUSH0 DUP4 ADD MSTORE PUSH2 0x168F DUP2 PUSH2 0x1656 JUMP JUMPDEST SWAP1 POP SWAP2 SWAP1 POP JUMP JUMPDEST PUSH32 0x4F6E6C792061646D696E2063616E206578656375746520746869732066756E63 PUSH0 DUP3 ADD MSTORE PUSH32 0x74696F6E00000000000000000000000000000000000000000000000000000000 PUSH1 0x20 DUP3 ADD MSTORE POP JUMP JUMPDEST PUSH0 PUSH2 0x16F0 PUSH1 0x24 DUP4 PUSH2 0x12C8 JUMP JUMPDEST SWAP2 POP PUSH2 0x16FB DUP3 PUSH2 0x1696 JUMP JUMPDEST PUSH1 0x40 DUP3 ADD SWAP1 POP SWAP2 SWAP1 POP JUMP JUMPDEST PUSH0 PUSH1 0x20 DUP3 ADD SWAP1 POP DUP2 DUP2 SUB PUSH0 DUP4 ADD MSTORE PUSH2 0x171D DUP2 PUSH2 0x16E4 JUMP JUMPDEST SWAP1 POP SWAP2 SWAP1 POP JUMP JUMPDEST PUSH32 0x4E6F206469737075746520666F722074686973206F7264657200000000000000 PUSH0 DUP3 ADD MSTORE POP JUMP JUMPDEST PUSH0 PUSH2 0x1758 PUSH1 0x19 DUP4 PUSH2 0x12C8 JUMP JUMPDEST SWAP2 POP PUSH2 0x1763 DUP3 PUSH2 0x1724 JUMP JUMPDEST PUSH1 0x20 DUP3 ADD SWAP1 POP SWAP2 SWAP1 POP JUMP JUMPDEST PUSH0 PUSH1 0x20 DUP3 ADD SWAP1 POP DUP2 DUP2 SUB PUSH0 DUP4 ADD MSTORE PUSH2 0x1785 DUP2 PUSH2 0x174C JUMP JUMPDEST SWAP1 POP SWAP2 SWAP1 POP JUMP JUMPDEST PUSH0 PUSH1 0x40 DUP3 ADD SWAP1 POP PUSH2 0x179F PUSH0 DUP4 ADD DUP6 PUSH2 0x1095 JUMP JUMPDEST PUSH2 0x17AC PUSH1 0x20 DUP4 ADD DUP5 PUSH2 0x132E JUMP JUMPDEST SWAP4 SWAP3 POP POP POP JUMP JUMPDEST PUSH32 0x5072696365206D7573742062652067726561746572207468616E207A65726F00 PUSH0 DUP3 ADD MSTORE POP JUMP JUMPDEST PUSH0 PUSH2 0x17E7 PUSH1 0x1F DUP4 PUSH2 0x12C8 JUMP JUMPDEST SWAP2 POP PUSH2 0x17F2 DUP3 PUSH2 0x17B3 JUMP JUMPDEST PUSH1 0x20 DUP3 ADD SWAP1 POP SWAP2 SWAP1 POP JUMP JUMPDEST PUSH0 PUSH1 0x20 DUP3 ADD SWAP1 POP DUP2 DUP2 SUB PUSH0 DUP4 ADD MSTORE PUSH2 0x1814 DUP2 PUSH2 0x17DB JUMP JUMPDEST SWAP1 POP SWAP2 SWAP1 POP JUMP JUMPDEST PUSH32 0x4E487B7100000000000000000000000000000000000000000000000000000000 PUSH0 MSTORE PUSH1 0x11 PUSH1 0x4 MSTORE PUSH1 0x24 PUSH0 REVERT JUMPDEST PUSH0 PUSH2 0x1852 DUP3 PUSH2 0x108C JUMP JUMPDEST SWAP2 POP PUSH32 0xFFFFFFFFFFFFFFFFFFFFFFFFFFFFFFFFFFFFFFFFFFFFFFFFFFFFFFFFFFFFFFFF DUP3 SUB PUSH2 0x1884 JUMPI PUSH2 0x1883 PUSH2 0x181B JUMP JUMPDEST JUMPDEST PUSH1 0x1 DUP3 ADD SWAP1 POP SWAP2 SWAP1 POP JUMP JUMPDEST PUSH32 0x4E487B7100000000000000000000000000000000000000000000000000000000 PUSH0 MSTORE PUSH1 0x41 PUSH1 0x4 MSTORE PUSH1 0x24 PUSH0 REVERT JUMPDEST PUSH32 0x4E487B7100000000000000000000000000000000000000000000000000000000 PUSH0 MSTORE PUSH1 0x22 PUSH1 0x4 MSTORE PUSH1 0x24 PUSH0 REVERT JUMPDEST PUSH0 PUSH1 0x2 DUP3 DIV SWAP1 POP PUSH1 0x1 DUP3 AND DUP1 PUSH2 0x1900 JUMPI PUSH1 0x7F DUP3 AND SWAP2 POP JUMPDEST PUSH1 0x20 DUP3 LT DUP2 SUB PUSH2 0x1913 JUMPI PUSH2 0x1912 PUSH2 0x18BC JUMP JUMPDEST JUMPDEST POP SWAP2 SWAP1 POP JUMP JUMPDEST PUSH0 DUP2 SWAP1 POP DUP2 PUSH0 MSTORE PUSH1 0x20 PUSH0 KECCAK256 SWAP1 POP SWAP2 SWAP1 POP JUMP JUMPDEST PUSH0 PUSH1 0x20 PUSH1 0x1F DUP4 ADD DIV SWAP1 POP SWAP2 SWAP1 POP JUMP JUMPDEST PUSH0 DUP3 DUP3 SHL SWAP1 POP SWAP3 SWAP2 POP POP JUMP JUMPDEST PUSH0 PUSH1 0x8 DUP4 MUL PUSH2 0x1975 PUSH32 0xFFFFFFFFFFFFFFFFFFFFFFFFFFFFFFFFFFFFFFFFFFFFFFFFFFFFFFFFFFFFFFFF DUP3 PUSH2 0x193A JUMP JUMPDEST PUSH2 0x197F DUP7 DUP4 PUSH2 0x193A JUMP JUMPDEST SWAP6 POP DUP1 NOT DUP5 AND SWAP4 POP DUP1 DUP7 AND DUP5 OR SWAP3 POP POP POP SWAP4 SWAP3 POP POP POP JUMP JUMPDEST PUSH0 DUP2 SWAP1 POP SWAP2 SWAP1 POP JUMP JUMPDEST PUSH0 PUSH2 0x19BA PUSH2 0x19B5 PUSH2 0x19B0 DUP5 PUSH2 0x108C JUMP JUMPDEST PUSH2 0x1997 JUMP JUMPDEST PUSH2 0x108C JUMP JUMPDEST SWAP1 POP SWAP2 SWAP1 POP JUMP JUMPDEST PUSH0 DUP2 SWAP1 POP SWAP2 SWAP1 POP JUMP JUMPDEST PUSH2 0x19D3 DUP4 PUSH2 0x19A0 JUMP JUMPDEST PUSH2 0x19E7 PUSH2 0x19DF DUP3 PUSH2 0x19C1 JUMP JUMPDEST DUP5 DUP5 SLOAD PUSH2 0x1946 JUMP JUMPDEST DUP3 SSTORE POP POP POP POP JUMP JUMPDEST PUSH0 SWAP1 JUMP JUMPDEST PUSH2 0x19FB PUSH2 0x19EF JUMP JUMPDEST PUSH2 0x1A06 DUP2 DUP5 DUP5 PUSH2 0x19CA JUMP JUMPDEST POP POP POP JUMP JUMPDEST JUMPDEST DUP2 DUP2 LT ISZERO PUSH2 0x1A29 JUMPI PUSH2 0x1A1E PUSH0 DUP3 PUSH2 0x19F3 JUMP JUMPDEST PUSH1 0x1 DUP2 ADD SWAP1 POP PUSH2 0x1A0C JUMP JUMPDEST POP POP JUMP JUMPDEST PUSH1 0x1F DUP3 GT ISZERO PUSH2 0x1A6E JUMPI PUSH2 0x1A3F DUP2 PUSH2 0x1919 JUMP JUMPDEST PUSH2 0x1A48 DUP5 PUSH2 0x192B JUMP JUMPDEST DUP2 ADD PUSH1 0x20 DUP6 LT ISZERO PUSH2 0x1A57 JUMPI DUP2 SWAP1 POP JUMPDEST PUSH2 0x1A6B PUSH2 0x1A63 DUP6 PUSH2 0x192B JUMP JUMPDEST DUP4 ADD DUP3 PUSH2 0x1A0B JUMP JUMPDEST POP POP JUMPDEST POP POP POP JUMP JUMPDEST PUSH0 DUP3 DUP3 SHR SWAP1 POP SWAP3 SWAP2 POP POP JUMP JUMPDEST PUSH0 PUSH2 0x1A8E PUSH0 NOT DUP5 PUSH1 0x8 MUL PUSH2 0x1A73 JUMP JUMPDEST NOT DUP1 DUP4 AND SWAP2 POP POP SWAP3 SWAP2 POP POP JUMP JUMPDEST PUSH0 PUSH2 0x1AA6 DUP4 DUP4 PUSH2 0x1A7F JUMP JUMPDEST SWAP2 POP DUP3 PUSH1 0x2 MUL DUP3 OR SWAP1 POP SWAP3 SWAP2 POP POP JUMP JUMPDEST PUSH2 0x1ABF DUP3 PUSH2 0x12BE JUMP JUMPDEST PUSH8 0xFFFFFFFFFFFFFFFF DUP2 GT ISZERO PUSH2 0x1AD8 JUMPI PUSH2 0x1AD7 PUSH2 0x188F JUMP JUMPDEST JUMPDEST PUSH2 0x1AE2 DUP3 SLOAD PUSH2 0x18E9 JUMP JUMPDEST PUSH2 0x1AED DUP3 DUP3 DUP6 PUSH2 0x1A2D JUMP JUMPDEST PUSH0 PUSH1 0x20 SWAP1 POP PUSH1 0x1F DUP4 GT PUSH1 0x1 DUP2 EQ PUSH2 0x1B1E JUMPI PUSH0 DUP5 ISZERO PUSH2 0x1B0C JUMPI DUP3 DUP8 ADD MLOAD SWAP1 POP JUMPDEST PUSH2 0x1B16 DUP6 DUP3 PUSH2 0x1A9B JUMP JUMPDEST DUP7 SSTORE POP PUSH2 0x1B7D JUMP JUMPDEST PUSH1 0x1F NOT DUP5 AND PUSH2 0x1B2C DUP7 PUSH2 0x1919 JUMP JUMPDEST PUSH0 JUMPDEST DUP3 DUP2 LT ISZERO PUSH2 0x1B53 JUMPI DUP5 DUP10 ADD MLOAD DUP3 SSTORE PUSH1 0x1 DUP3 ADD SWAP2 POP PUSH1 0x20 DUP6 ADD SWAP5 POP PUSH1 0x20 DUP2 ADD SWAP1 POP PUSH2 0x1B2E JUMP JUMPDEST DUP7 DUP4 LT ISZERO PUSH2 0x1B70 JUMPI DUP5 DUP10 ADD MLOAD PUSH2 0x1B6C PUSH1 0x1F DUP10 AND DUP3 PUSH2 0x1A7F JUMP JUMPDEST DUP4 SSTORE POP JUMPDEST PUSH1 0x1 PUSH1 0x2 DUP9 MUL ADD DUP9 SSTORE POP POP POP JUMPDEST POP POP POP POP POP POP JUMP JUMPDEST DUP3 DUP2 DUP4 CALLDATACOPY PUSH0 DUP4 DUP4 ADD MSTORE POP POP POP JUMP JUMPDEST PUSH0 PUSH2 0x1B9E DUP4 DUP6 PUSH2 0x12C8 JUMP JUMPDEST SWAP4 POP PUSH2 0x1BAB DUP4 DUP6 DUP5 PUSH2 0x1B85 JUMP JUMPDEST PUSH2 0x1BB4 DUP4 PUSH2 0x12E6 JUMP JUMPDEST DUP5 ADD SWAP1 POP SWAP4 SWAP3 POP POP POP JUMP JUMPDEST PUSH0 PUSH1 0x80 DUP3 ADD SWAP1 POP PUSH2 0x1BD2 PUSH0 DUP4 ADD DUP9 PUSH2 0x1095 JUMP JUMPDEST PUSH2 0x1BDF PUSH1 0x20 DUP4 ADD DUP8 PUSH2 0x13BB JUMP JUMPDEST DUP2 DUP2 SUB PUSH1 0x40 DUP4 ADD MSTORE PUSH2 0x1BF2 DUP2 DUP6 DUP8 PUSH2 0x1B93 JUMP JUMPDEST SWAP1 POP PUSH2 0x1C01 PUSH1 0x60 DUP4 ADD DUP5 PUSH2 0x1095 JUMP JUMPDEST SWAP7 SWAP6 POP POP POP POP POP POP JUMP JUMPDEST PUSH32 0x50726F6475637420616C726561647920736F6C64000000000000000000000000 PUSH0 DUP3 ADD MSTORE POP JUMP JUMPDEST PUSH0 PUSH2 0x1C3F PUSH1 0x14 DUP4 PUSH2 0x12C8 JUMP JUMPDEST SWAP2 POP PUSH2 0x1C4A DUP3 PUSH2 0x1C0B JUMP JUMPDEST PUSH1 0x20 DUP3 ADD SWAP1 POP SWAP2 SWAP1 POP JUMP JUMPDEST PUSH0 PUSH1 0x20 DUP3 ADD SWAP1 POP DUP2 DUP2 SUB PUSH0 DUP4 ADD MSTORE PUSH2 0x1C6C DUP2 PUSH2 0x1C33 JUMP JUMPDEST SWAP1 POP SWAP2 SWAP1 POP JUMP JUMPDEST PUSH32 0x496E636F72726563742070726963650000000000000000000000000000000000 PUSH0 DUP3 ADD MSTORE POP JUMP JUMPDEST PUSH0 PUSH2 0x1CA7 PUSH1 0xF DUP4 PUSH2 0x12C8 JUMP JUMPDEST SWAP2 POP PUSH2 0x1CB2 DUP3 PUSH2 0x1C73 JUMP JUMPDEST PUSH1 0x20 DUP3 ADD SWAP1 POP SWAP2 SWAP1 POP JUMP JUMPDEST PUSH0 PUSH1 0x20 DUP3 ADD SWAP1 POP DUP2 DUP2 SUB PUSH0 DUP4 ADD MSTORE PUSH2 0x1CD4 DUP2 PUSH2 0x1C9B JUMP JUMPDEST SWAP1 POP SWAP2 SWAP1 POP JUMP JUMPDEST PUSH0 PUSH1 0x60 DUP3 ADD SWAP1 POP PUSH2 0x1CEE PUSH0 DUP4 ADD DUP7 PUSH2 0x1095 JUMP JUMPDEST PUSH2 0x1CFB PUSH1 0x20 DUP4 ADD DUP6 PUSH2 0x13BB JUMP JUMPDEST PUSH2 0x1D08 PUSH1 0x40 DUP4 ADD DUP5 PUSH2 0x1095 JUMP JUMPDEST SWAP5 SWAP4 POP POP POP POP JUMP INVALID LOG2 PUSH5 0x6970667358 0x22 SLT KECCAK256 KECCAK256 0xB5 0xC6 DUP2 0xC6 0xF MOD PUSH14 0x41F0B1B2B89C798116E263CEF20B 0xBC PUSH0 SIGNEXTEND COINBASE PUSH30 0xFBFE7BBA1364736F6C634300081A00330000000000000000000000000000 "
				},
				"gasEstimates": {
					"creation": {
						"codeDepositCost": "1498800",
						"executionCost": "25831",
						"totalCost": "1524631"
					},
					"external": {
						"admin()": "2618",
						"buyProduct(uint256)": "infinite",
						"listProduct(string,string,uint256)": "infinite",
						"openDispute(uint256)": "infinite",
						"orderCount()": "2426",
						"orders(uint256)": "infinite",
						"productCount()": "2512",
						"products(uint256)": "infinite",
						"receiveProduct(uint256)": "infinite",
						"resolveDispute(uint256,bool)": "infinite",
						"shipProduct(uint256)": "infinite"
					}
				},
				"methodIdentifiers": {
					"admin()": "f851a440",
					"buyProduct(uint256)": "8642269e",
					"listProduct(string,string,uint256)": "6d6b7777",
					"openDispute(uint256)": "27d00fb0",
					"orderCount()": "2453ffa8",
					"orders(uint256)": "a85c38ef",
					"productCount()": "e0f6ef87",
					"products(uint256)": "7acc0b20",
					"receiveProduct(uint256)": "29d78328",
					"resolveDispute(uint256,bool)": "34b25ee2",
					"shipProduct(uint256)": "2927d1d9"
				}
			},
			"storageLayout": {
				"storage": [
					{
						"astId": 29,
						"contract": "contracts/_ecommerce.sol:ECommerce",
						"label": "productCount",
						"offset": 0,
						"slot": "0",
						"type": "t_uint256"
					},
					{
						"astId": 31,
						"contract": "contracts/_ecommerce.sol:ECommerce",
						"label": "orderCount",
						"offset": 0,
						"slot": "1",
						"type": "t_uint256"
					},
					{
						"astId": 36,
						"contract": "contracts/_ecommerce.sol:ECommerce",
						"label": "products",
						"offset": 0,
						"slot": "2",
						"type": "t_mapping(t_uint256,t_struct(Product)14_storage)"
					},
					{
						"astId": 41,
						"contract": "contracts/_ecommerce.sol:ECommerce",
						"label": "orders",
						"offset": 0,
						"slot": "3",
						"type": "t_mapping(t_uint256,t_struct(Order)27_storage)"
					},
					{
						"astId": 43,
						"contract": "contracts/_ecommerce.sol:ECommerce",
						"label": "admin",
						"offset": 0,
						"slot": "4",
						"type": "t_address"
					}
				],
				"types": {
					"t_address": {
						"encoding": "inplace",
						"label": "address",
						"numberOfBytes": "20"
					},
					"t_address_payable": {
						"encoding": "inplace",
						"label": "address payable",
						"numberOfBytes": "20"
					},
					"t_bool": {
						"encoding": "inplace",
						"label": "bool",
						"numberOfBytes": "1"
					},
					"t_mapping(t_uint256,t_struct(Order)27_storage)": {
						"encoding": "mapping",
						"key": "t_uint256",
						"label": "mapping(uint256 => struct ECommerce.Order)",
						"numberOfBytes": "32",
						"value": "t_struct(Order)27_storage"
					},
					"t_mapping(t_uint256,t_struct(Product)14_storage)": {
						"encoding": "mapping",
						"key": "t_uint256",
						"label": "mapping(uint256 => struct ECommerce.Product)",
						"numberOfBytes": "32",
						"value": "t_struct(Product)14_storage"
					},
					"t_string_storage": {
						"encoding": "bytes",
						"label": "string",
						"numberOfBytes": "32"
					},
					"t_struct(Order)27_storage": {
						"encoding": "inplace",
						"label": "struct ECommerce.Order",
						"members": [
							{
								"astId": 16,
								"contract": "contracts/_ecommerce.sol:ECommerce",
								"label": "productId",
								"offset": 0,
								"slot": "0",
								"type": "t_uint256"
							},
							{
								"astId": 18,
								"contract": "contracts/_ecommerce.sol:ECommerce",
								"label": "buyer",
								"offset": 0,
								"slot": "1",
								"type": "t_address"
							},
							{
								"astId": 20,
								"contract": "contracts/_ecommerce.sol:ECommerce",
								"label": "price",
								"offset": 0,
								"slot": "2",
								"type": "t_uint256"
							},
							{
								"astId": 22,
								"contract": "contracts/_ecommerce.sol:ECommerce",
								"label": "shipped",
								"offset": 0,
								"slot": "3",
								"type": "t_bool"
							},
							{
								"astId": 24,
								"contract": "contracts/_ecommerce.sol:ECommerce",
								"label": "received",
								"offset": 1,
								"slot": "3",
								"type": "t_bool"
							},
							{
								"astId": 26,
								"contract": "contracts/_ecommerce.sol:ECommerce",
								"label": "dispute",
								"offset": 2,
								"slot": "3",
								"type": "t_bool"
							}
						],
						"numberOfBytes": "128"
					},
					"t_struct(Product)14_storage": {
						"encoding": "inplace",
						"label": "struct ECommerce.Product",
						"members": [
							{
								"astId": 3,
								"contract": "contracts/_ecommerce.sol:ECommerce",
								"label": "id",
								"offset": 0,
								"slot": "0",
								"type": "t_uint256"
							},
							{
								"astId": 5,
								"contract": "contracts/_ecommerce.sol:ECommerce",
								"label": "seller",
								"offset": 0,
								"slot": "1",
								"type": "t_address_payable"
							},
							{
								"astId": 7,
								"contract": "contracts/_ecommerce.sol:ECommerce",
								"label": "name",
								"offset": 0,
								"slot": "2",
								"type": "t_string_storage"
							},
							{
								"astId": 9,
								"contract": "contracts/_ecommerce.sol:ECommerce",
								"label": "description",
								"offset": 0,
								"slot": "3",
								"type": "t_string_storage"
							},
							{
								"astId": 11,
								"contract": "contracts/_ecommerce.sol:ECommerce",
								"label": "price",
								"offset": 0,
								"slot": "4",
								"type": "t_uint256"
							},
							{
								"astId": 13,
								"contract": "contracts/_ecommerce.sol:ECommerce",
								"label": "sold",
								"offset": 0,
								"slot": "5",
								"type": "t_bool"
							}
						],
						"numberOfBytes": "192"
					},
					"t_uint256": {
						"encoding": "inplace",
						"label": "uint256",
						"numberOfBytes": "32"
					}
				}
			},
			"userdoc": {
				"kind": "user",
				"methods": {},
				"version": 1
			}
		}
	}
}