{
	"contracts/_ronx1.sol": {
		"X3Program": {
			"abi": [
				{
					"inputs": [],
					"stateMutability": "nonpayable",
					"type": "constructor"
				},
				{
					"anonymous": false,
					"inputs": [
						{
							"indexed": true,
							"internalType": "address",
							"name": "user",
							"type": "address"
						},
						{
							"indexed": false,
							"internalType": "uint256",
							"name": "amount",
							"type": "uint256"
						}
					],
					"name": "Earnings",
					"type": "event"
				},
				{
					"anonymous": false,
					"inputs": [
						{
							"indexed": true,
							"internalType": "address",
							"name": "user",
							"type": "address"
						},
						{
							"indexed": false,
							"internalType": "uint8",
							"name": "newLevel",
							"type": "uint8"
						},
						{
							"indexed": false,
							"internalType": "uint256",
							"name": "price",
							"type": "uint256"
						}
					],
					"name": "LevelUpgraded",
					"type": "event"
				},
				{
					"anonymous": false,
					"inputs": [
						{
							"indexed": true,
							"internalType": "address",
							"name": "user",
							"type": "address"
						},
						{
							"indexed": false,
							"internalType": "uint256",
							"name": "cycleCount",
							"type": "uint256"
						}
					],
					"name": "NewCycle",
					"type": "event"
				},
				{
					"anonymous": false,
					"inputs": [
						{
							"indexed": true,
							"internalType": "address",
							"name": "user",
							"type": "address"
						},
						{
							"indexed": true,
							"internalType": "address",
							"name": "referral",
							"type": "address"
						}
					],
					"name": "NewReferral",
					"type": "event"
				},
				{
					"anonymous": false,
					"inputs": [
						{
							"indexed": true,
							"internalType": "address",
							"name": "user",
							"type": "address"
						},
						{
							"indexed": true,
							"internalType": "address",
							"name": "upline",
							"type": "address"
						},
						{
							"indexed": false,
							"internalType": "uint256",
							"name": "userId",
							"type": "uint256"
						},
						{
							"indexed": false,
							"internalType": "uint256",
							"name": "uplineId",
							"type": "uint256"
						}
					],
					"name": "Registration",
					"type": "event"
				},
				{
					"inputs": [],
					"name": "BASIC_PRICE",
					"outputs": [
						{
							"internalType": "uint256",
							"name": "",
							"type": "uint256"
						}
					],
					"stateMutability": "view",
					"type": "function"
				},
				{
					"inputs": [],
					"name": "LAST_LEVEL",
					"outputs": [
						{
							"internalType": "uint8",
							"name": "",
							"type": "uint8"
						}
					],
					"stateMutability": "view",
					"type": "function"
				},
				{
					"inputs": [],
					"name": "REGISTRATION_FEE",
					"outputs": [
						{
							"internalType": "uint256",
							"name": "",
							"type": "uint256"
						}
					],
					"stateMutability": "view",
					"type": "function"
				},
				{
					"inputs": [
						{
							"internalType": "uint8",
							"name": "_newLevel",
							"type": "uint8"
						}
					],
					"name": "buyLevel",
					"outputs": [],
					"stateMutability": "payable",
					"type": "function"
				},
				{
					"inputs": [
						{
							"internalType": "address",
							"name": "userAddress",
							"type": "address"
						}
					],
					"name": "generateReferralLink",
					"outputs": [
						{
							"internalType": "string",
							"name": "",
							"type": "string"
						}
					],
					"stateMutability": "view",
					"type": "function"
				},
				{
					"inputs": [
						{
							"internalType": "uint8",
							"name": "_level",
							"type": "uint8"
						}
					],
					"name": "getLevelPrice",
					"outputs": [
						{
							"internalType": "uint256",
							"name": "",
							"type": "uint256"
						}
					],
					"stateMutability": "view",
					"type": "function"
				},
				{
					"inputs": [
						{
							"internalType": "uint256",
							"name": "_id",
							"type": "uint256"
						}
					],
					"name": "getUserById",
					"outputs": [
						{
							"internalType": "address",
							"name": "",
							"type": "address"
						}
					],
					"stateMutability": "view",
					"type": "function"
				},
				{
					"inputs": [
						{
							"internalType": "address",
							"name": "_user",
							"type": "address"
						}
					],
					"name": "getUserInfo",
					"outputs": [
						{
							"internalType": "address",
							"name": "",
							"type": "address"
						},
						{
							"internalType": "uint256",
							"name": "",
							"type": "uint256"
						},
						{
							"internalType": "uint256",
							"name": "",
							"type": "uint256"
						},
						{
							"internalType": "uint256",
							"name": "",
							"type": "uint256"
						},
						{
							"internalType": "uint256",
							"name": "",
							"type": "uint256"
						},
						{
							"internalType": "uint256",
							"name": "",
							"type": "uint256"
						},
						{
							"internalType": "string",
							"name": "",
							"type": "string"
						},
						{
							"internalType": "string",
							"name": "",
							"type": "string"
						},
						{
							"internalType": "string",
							"name": "",
							"type": "string"
						},
						{
							"internalType": "string",
							"name": "",
							"type": "string"
						},
						{
							"internalType": "address",
							"name": "",
							"type": "address"
						}
					],
					"stateMutability": "view",
					"type": "function"
				},
				{
					"inputs": [
						{
							"internalType": "address",
							"name": "_user",
							"type": "address"
						}
					],
					"name": "getUserReferrals",
					"outputs": [
						{
							"internalType": "address[]",
							"name": "",
							"type": "address[]"
						}
					],
					"stateMutability": "view",
					"type": "function"
				},
				{
					"inputs": [
						{
							"internalType": "uint256",
							"name": "",
							"type": "uint256"
						}
					],
					"name": "idToAddress",
					"outputs": [
						{
							"internalType": "address",
							"name": "",
							"type": "address"
						}
					],
					"stateMutability": "view",
					"type": "function"
				},
				{
					"inputs": [],
					"name": "lastUserId",
					"outputs": [
						{
							"internalType": "uint256",
							"name": "",
							"type": "uint256"
						}
					],
					"stateMutability": "view",
					"type": "function"
				},
				{
					"inputs": [
						{
							"internalType": "uint8",
							"name": "",
							"type": "uint8"
						}
					],
					"name": "levelPrice",
					"outputs": [
						{
							"internalType": "uint256",
							"name": "",
							"type": "uint256"
						}
					],
					"stateMutability": "view",
					"type": "function"
				},
				{
					"inputs": [],
					"name": "owner",
					"outputs": [
						{
							"internalType": "address",
							"name": "",
							"type": "address"
						}
					],
					"stateMutability": "view",
					"type": "function"
				},
				{
					"inputs": [
						{
							"internalType": "address",
							"name": "_user",
							"type": "address"
						}
					],
					"name": "payUpline",
					"outputs": [],
					"stateMutability": "payable",
					"type": "function"
				},
				{
					"inputs": [
						{
							"internalType": "address",
							"name": "_upline",
							"type": "address"
						},
						{
							"internalType": "string",
							"name": "firstName",
							"type": "string"
						},
						{
							"internalType": "string",
							"name": "lastName",
							"type": "string"
						},
						{
							"internalType": "string",
							"name": "profilePic",
							"type": "string"
						},
						{
							"internalType": "string",
							"name": "email",
							"type": "string"
						}
					],
					"name": "registerUpline",
					"outputs": [],
					"stateMutability": "payable",
					"type": "function"
				},
				{
					"inputs": [
						{
							"internalType": "address",
							"name": "_upline",
							"type": "address"
						},
						{
							"internalType": "string",
							"name": "firstName",
							"type": "string"
						},
						{
							"internalType": "string",
							"name": "lastName",
							"type": "string"
						},
						{
							"internalType": "string",
							"name": "profilePic",
							"type": "string"
						},
						{
							"internalType": "string",
							"name": "email",
							"type": "string"
						},
						{
							"internalType": "string",
							"name": "password",
							"type": "string"
						},
						{
							"internalType": "address",
							"name": "userAddress",
							"type": "address"
						}
					],
					"name": "registerUser",
					"outputs": [],
					"stateMutability": "payable",
					"type": "function"
				},
				{
					"inputs": [
						{
							"internalType": "address",
							"name": "_user",
							"type": "address"
						}
					],
					"name": "transactionHistory",
					"outputs": [
						{
							"internalType": "uint256",
							"name": "",
							"type": "uint256"
						},
						{
							"internalType": "uint256",
							"name": "",
							"type": "uint256"
						}
					],
					"stateMutability": "view",
					"type": "function"
				},
				{
					"inputs": [
						{
							"internalType": "address",
							"name": "",
							"type": "address"
						}
					],
					"name": "users",
					"outputs": [
						{
							"internalType": "address",
							"name": "upline",
							"type": "address"
						},
						{
							"internalType": "uint256",
							"name": "id",
							"type": "uint256"
						},
						{
							"internalType": "uint256",
							"name": "referralCount",
							"type": "uint256"
						},
						{
							"internalType": "uint256",
							"name": "cycleCount",
							"type": "uint256"
						},
						{
							"internalType": "uint256",
							"name": "earnings",
							"type": "uint256"
						},
						{
							"internalType": "uint256",
							"name": "partnerLevel",
							"type": "uint256"
						},
						{
							"internalType": "string",
							"name": "firstName",
							"type": "string"
						},
						{
							"internalType": "string",
							"name": "lastName",
							"type": "string"
						},
						{
							"internalType": "string",
							"name": "profilePic",
							"type": "string"
						},
						{
							"internalType": "string",
							"name": "email",
							"type": "string"
						},
						{
							"internalType": "bytes32",
							"name": "passwordHash",
							"type": "bytes32"
						},
						{
							"internalType": "address",
							"name": "userAddress",
							"type": "address"
						}
					],
					"stateMutability": "view",
					"type": "function"
				}
			],
			"devdoc": {
				"kind": "dev",
				"methods": {},
				"version": 1
			},
			"evm": {
				"assembly": "    /* \"contracts/_ronx1.sol\":60:8916  contract X3Program {... */\n  mstore(0x40, 0x80)\n    /* \"contracts/_ronx1.sol\":651:652  2 */\n  0x02\n    /* \"contracts/_ronx1.sol\":623:652  uint256 public lastUserId = 2 */\n  0x03\n  sstore\n    /* \"contracts/_ronx1.sol\":1301:2148  constructor() {... */\n  callvalue\n  dup1\n  iszero\n  tag_1\n  jumpi\n  0x00\n  dup1\n  revert\ntag_1:\n  pop\n    /* \"contracts/_ronx1.sol\":1334:1344  msg.sender */\n  caller\n    /* \"contracts/_ronx1.sol\":1326:1331  owner */\n  0x04\n  0x00\n    /* \"contracts/_ronx1.sol\":1326:1344  owner = msg.sender */\n  0x0100\n  exp\n  dup2\n  sload\n  dup2\n  0xffffffffffffffffffffffffffffffffffffffff\n  mul\n  not\n  and\n  swap1\n  dup4\n  0xffffffffffffffffffffffffffffffffffffffff\n  and\n  mul\n  or\n  swap1\n  sstore\n  pop\n    /* \"contracts/_ronx1.sol\":1372:1785  User({... */\n  mload(0x40)\n  dup1\n  0x01a0\n  add\n  0x40\n  mstore\n  dup1\n    /* \"contracts/_ronx1.sol\":1408:1409  0 */\n  0x00\n    /* \"contracts/_ronx1.sol\":1372:1785  User({... */\n  0xffffffffffffffffffffffffffffffffffffffff\n  and\n  dup2\n  mstore\n  0x20\n  add\n    /* \"contracts/_ronx1.sol\":1429:1430  1 */\n  0x01\n    /* \"contracts/_ronx1.sol\":1372:1785  User({... */\n  dup2\n  mstore\n  0x20\n  add\n    /* \"contracts/_ronx1.sol\":1460:1461  0 */\n  0x00\n    /* \"contracts/_ronx1.sol\":1372:1785  User({... */\n  dup2\n  mstore\n  0x20\n  add\n    /* \"contracts/_ronx1.sol\":1488:1489  0 */\n  0x00\n    /* \"contracts/_ronx1.sol\":1372:1785  User({... */\n  dup2\n  mstore\n  0x20\n  add\n    /* \"contracts/_ronx1.sol\":1514:1515  0 */\n  0x00\n    /* \"contracts/_ronx1.sol\":1372:1785  User({... */\n  dup2\n  mstore\n  0x20\n  add\n    /* \"contracts/_ronx1.sol\":1544:1545  1 */\n  0x01\n    /* \"contracts/_ronx1.sol\":1372:1785  User({... */\n  dup2\n  mstore\n  0x20\n  add\n    /* \"contracts/_ronx1.sol\":1585:1586  0 */\n  0x00\n    /* \"contracts/_ronx1.sol\":1571:1587  new address[](0) */\n  0xffffffffffffffff\n  dup2\n  gt\n  iszero\n  tag_4\n  jumpi\n  tag_5\n  tag_6\n  jump\t// in\ntag_5:\ntag_4:\n  mload(0x40)\n  swap1\n  dup1\n  dup3\n  mstore\n  dup1\n  0x20\n  mul\n  0x20\n  add\n  dup3\n  add\n  0x40\n  mstore\n  dup1\n  iszero\n  tag_7\n  jumpi\n  dup2\n  0x20\n  add\n  0x20\n  dup3\n  mul\n  dup1\n  calldatasize\n  dup4\n  calldatacopy\n  dup1\n  dup3\n  add\n  swap2\n  pop\n  pop\n  swap1\n  pop\ntag_7:\n  pop\n    /* \"contracts/_ronx1.sol\":1372:1785  User({... */\n  dup2\n  mstore\n  0x20\n  add\n  mload(0x40)\n  dup1\n  0x20\n  add\n  0x40\n  mstore\n  dup1\n  0x00\n  dup2\n  mstore\n  pop\n  dup2\n  mstore\n  0x20\n  add\n  mload(0x40)\n  dup1\n  0x20\n  add\n  0x40\n  mstore\n  dup1\n  0x00\n  dup2\n  mstore\n  pop\n  dup2\n  mstore\n  0x20\n  add\n  mload(0x40)\n  dup1\n  0x20\n  add\n  0x40\n  mstore\n  dup1\n  0x00\n  dup2\n  mstore\n  pop\n  dup2\n  mstore\n  0x20\n  add\n  mload(0x40)\n  dup1\n  0x20\n  add\n  0x40\n  mstore\n  dup1\n  0x00\n  dup2\n  mstore\n  pop\n  dup2\n  mstore\n  0x20\n  add\n    /* \"contracts/_ronx1.sol\":1733:1734  0 */\n  0x00\n    /* \"contracts/_ronx1.sol\":1725:1735  bytes32(0) */\n  dup1\n  shl\n    /* \"contracts/_ronx1.sol\":1372:1785  User({... */\n  dup2\n  mstore\n  0x20\n  add\n    /* \"contracts/_ronx1.sol\":1771:1772  0 */\n  0x00\n    /* \"contracts/_ronx1.sol\":1372:1785  User({... */\n  0xffffffffffffffffffffffffffffffffffffffff\n  and\n  dup2\n  mstore\n  pop\n    /* \"contracts/_ronx1.sol\":1357:1362  users */\n  0x00\n    /* \"contracts/_ronx1.sol\":1357:1369  users[owner] */\n  dup1\n    /* \"contracts/_ronx1.sol\":1363:1368  owner */\n  0x04\n  0x00\n  swap1\n  sload\n  swap1\n  0x0100\n  exp\n  swap1\n  div\n  0xffffffffffffffffffffffffffffffffffffffff\n  and\n    /* \"contracts/_ronx1.sol\":1357:1369  users[owner] */\n  0xffffffffffffffffffffffffffffffffffffffff\n  and\n  0xffffffffffffffffffffffffffffffffffffffff\n  and\n  dup2\n  mstore\n  0x20\n  add\n  swap1\n  dup2\n  mstore\n  0x20\n  add\n  0x00\n  keccak256\n    /* \"contracts/_ronx1.sol\":1357:1785  users[owner] = User({... */\n  0x00\n  dup3\n  add\n  mload\n  dup2\n  0x00\n  add\n  exp(0x0100, 0x00)\n  dup2\n  sload\n  dup2\n  0xffffffffffffffffffffffffffffffffffffffff\n  mul\n  not\n  and\n  swap1\n  dup4\n  0xffffffffffffffffffffffffffffffffffffffff\n  and\n  mul\n  or\n  swap1\n  sstore\n  pop\n  0x20\n  dup3\n  add\n  mload\n  dup2\n  0x01\n  add\n  sstore\n  0x40\n  dup3\n  add\n  mload\n  dup2\n  0x02\n  add\n  sstore\n  0x60\n  dup3\n  add\n  mload\n  dup2\n  0x03\n  add\n  sstore\n  0x80\n  dup3\n  add\n  mload\n  dup2\n  0x04\n  add\n  sstore\n  0xa0\n  dup3\n  add\n  mload\n  dup2\n  0x05\n  add\n  sstore\n  0xc0\n  dup3\n  add\n  mload\n  dup2\n  0x06\n  add\n  swap1\n  dup1\n  mload\n  swap1\n  0x20\n  add\n  swap1\n  tag_8\n  swap3\n  swap2\n  swap1\n  tag_9\n  jump\t// in\ntag_8:\n  pop\n  0xe0\n  dup3\n  add\n  mload\n  dup2\n  0x07\n  add\n  swap1\n  dup2\n  tag_10\n  swap2\n  swap1\n  tag_11\n  jump\t// in\ntag_10:\n  pop\n  0x0100\n  dup3\n  add\n  mload\n  dup2\n  0x08\n  add\n  swap1\n  dup2\n  tag_12\n  swap2\n  swap1\n  tag_11\n  jump\t// in\ntag_12:\n  pop\n  0x0120\n  dup3\n  add\n  mload\n  dup2\n  0x09\n  add\n  swap1\n  dup2\n  tag_13\n  swap2\n  swap1\n  tag_11\n  jump\t// in\ntag_13:\n  pop\n  0x0140\n  dup3\n  add\n  mload\n  dup2\n  0x0a\n  add\n  swap1\n  dup2\n  tag_14\n  swap2\n  swap1\n  tag_11\n  jump\t// in\ntag_14:\n  pop\n  0x0160\n  dup3\n  add\n  mload\n  dup2\n  0x0b\n  add\n  sstore\n  0x0180\n  dup3\n  add\n  mload\n  dup2\n  0x0c\n  add\n  exp(0x0100, 0x00)\n  dup2\n  sload\n  dup2\n  0xffffffffffffffffffffffffffffffffffffffff\n  mul\n  not\n  and\n  swap1\n  dup4\n  0xffffffffffffffffffffffffffffffffffffffff\n  and\n  mul\n  or\n  swap1\n  sstore\n  pop\n  swap1\n  pop\n  pop\n    /* \"contracts/_ronx1.sol\":1815:1820  owner */\n  0x04\n  0x00\n  swap1\n  sload\n  swap1\n  0x0100\n  exp\n  swap1\n  div\n  0xffffffffffffffffffffffffffffffffffffffff\n  and\n    /* \"contracts/_ronx1.sol\":1798:1809  idToAddress */\n  0x01\n    /* \"contracts/_ronx1.sol\":1798:1812  idToAddress[1] */\n  0x00\n    /* \"contracts/_ronx1.sol\":1810:1811  1 */\n  0x01\n    /* \"contracts/_ronx1.sol\":1798:1812  idToAddress[1] */\n  dup2\n  mstore\n  0x20\n  add\n  swap1\n  dup2\n  mstore\n  0x20\n  add\n  0x00\n  keccak256\n  0x00\n    /* \"contracts/_ronx1.sol\":1798:1820  idToAddress[1] = owner */\n  0x0100\n  exp\n  dup2\n  sload\n  dup2\n  0xffffffffffffffffffffffffffffffffffffffff\n  mul\n  not\n  and\n  swap1\n  dup4\n  0xffffffffffffffffffffffffffffffffffffffff\n  and\n  mul\n  or\n  swap1\n  sstore\n  pop\n    /* \"contracts/_ronx1.sol\":741:745  5e18 */\n  0x4563918244f40000\n    /* \"contracts/_ronx1.sol\":1869:1879  levelPrice */\n  0x02\n    /* \"contracts/_ronx1.sol\":1869:1882  levelPrice[1] */\n  0x00\n    /* \"contracts/_ronx1.sol\":1880:1881  1 */\n  0x01\n    /* \"contracts/_ronx1.sol\":1869:1882  levelPrice[1] */\n  0xff\n  and\n  dup2\n  mstore\n  0x20\n  add\n  swap1\n  dup2\n  mstore\n  0x20\n  add\n  0x00\n  keccak256\n    /* \"contracts/_ronx1.sol\":1869:1896  levelPrice[1] = BASIC_PRICE */\n  dup2\n  swap1\n  sstore\n  pop\n    /* \"contracts/_ronx1.sol\":1912:1919  uint8 i */\n  0x00\n    /* \"contracts/_ronx1.sol\":1922:1923  2 */\n  0x02\n    /* \"contracts/_ronx1.sol\":1912:1923  uint8 i = 2 */\n  swap1\n  pop\n    /* \"contracts/_ronx1.sol\":1907:2002  for (uint8 i = 2; i <= 8; i++) {... */\ntag_15:\n    /* \"contracts/_ronx1.sol\":1930:1931  8 */\n  0x08\n    /* \"contracts/_ronx1.sol\":1925:1926  i */\n  dup2\n    /* \"contracts/_ronx1.sol\":1925:1931  i <= 8 */\n  0xff\n  and\n  gt\n    /* \"contracts/_ronx1.sol\":1907:2002  for (uint8 i = 2; i <= 8; i++) {... */\n  tag_16\n  jumpi\n    /* \"contracts/_ronx1.sol\":1989:1990  2 */\n  0x02\n    /* \"contracts/_ronx1.sol\":1969:1979  levelPrice */\n  dup1\n    /* \"contracts/_ronx1.sol\":1969:1986  levelPrice[i - 1] */\n  0x00\n    /* \"contracts/_ronx1.sol\":1984:1985  1 */\n  0x01\n    /* \"contracts/_ronx1.sol\":1980:1981  i */\n  dup5\n    /* \"contracts/_ronx1.sol\":1980:1985  i - 1 */\n  tag_18\n  swap2\n  swap1\n  tag_19\n  jump\t// in\ntag_18:\n    /* \"contracts/_ronx1.sol\":1969:1986  levelPrice[i - 1] */\n  0xff\n  and\n  0xff\n  and\n  dup2\n  mstore\n  0x20\n  add\n  swap1\n  dup2\n  mstore\n  0x20\n  add\n  0x00\n  keccak256\n  sload\n    /* \"contracts/_ronx1.sol\":1969:1990  levelPrice[i - 1] * 2 */\n  tag_20\n  swap2\n  swap1\n  tag_21\n  jump\t// in\ntag_20:\n    /* \"contracts/_ronx1.sol\":1953:1963  levelPrice */\n  0x02\n    /* \"contracts/_ronx1.sol\":1953:1966  levelPrice[i] */\n  0x00\n    /* \"contracts/_ronx1.sol\":1964:1965  i */\n  dup4\n    /* \"contracts/_ronx1.sol\":1953:1966  levelPrice[i] */\n  0xff\n  and\n  0xff\n  and\n  dup2\n  mstore\n  0x20\n  add\n  swap1\n  dup2\n  mstore\n  0x20\n  add\n  0x00\n  keccak256\n    /* \"contracts/_ronx1.sol\":1953:1990  levelPrice[i] = levelPrice[i - 1] * 2 */\n  dup2\n  swap1\n  sstore\n  pop\n    /* \"contracts/_ronx1.sol\":1933:1936  i++ */\n  dup1\n  dup1\n  tag_22\n  swap1\n  tag_23\n  jump\t// in\ntag_22:\n  swap2\n  pop\n  pop\n    /* \"contracts/_ronx1.sol\":1907:2002  for (uint8 i = 2; i <= 8; i++) {... */\n  jump(tag_15)\ntag_16:\n  pop\n    /* \"contracts/_ronx1.sol\":2028:2035  1250e18 */\n  0x43c33c193756480000\n    /* \"contracts/_ronx1.sol\":2012:2022  levelPrice */\n  0x02\n    /* \"contracts/_ronx1.sol\":2012:2025  levelPrice[9] */\n  0x00\n    /* \"contracts/_ronx1.sol\":2023:2024  9 */\n  0x09\n    /* \"contracts/_ronx1.sol\":2012:2025  levelPrice[9] */\n  0xff\n  and\n  dup2\n  mstore\n  0x20\n  add\n  swap1\n  dup2\n  mstore\n  0x20\n  add\n  0x00\n  keccak256\n    /* \"contracts/_ronx1.sol\":2012:2035  levelPrice[9] = 1250e18 */\n  dup2\n  swap1\n  sstore\n  pop\n    /* \"contracts/_ronx1.sol\":2063:2070  2500e18 */\n  0x878678326eac900000\n    /* \"contracts/_ronx1.sol\":2046:2056  levelPrice */\n  0x02\n    /* \"contracts/_ronx1.sol\":2046:2060  levelPrice[10] */\n  0x00\n    /* \"contracts/_ronx1.sol\":2057:2059  10 */\n  0x0a\n    /* \"contracts/_ronx1.sol\":2046:2060  levelPrice[10] */\n  0xff\n  and\n  dup2\n  mstore\n  0x20\n  add\n  swap1\n  dup2\n  mstore\n  0x20\n  add\n  0x00\n  keccak256\n    /* \"contracts/_ronx1.sol\":2046:2070  levelPrice[10] = 2500e18 */\n  dup2\n  swap1\n  sstore\n  pop\n    /* \"contracts/_ronx1.sol\":2098:2105  5000e18 */\n  0x010f0cf064dd59200000\n    /* \"contracts/_ronx1.sol\":2081:2091  levelPrice */\n  0x02\n    /* \"contracts/_ronx1.sol\":2081:2095  levelPrice[11] */\n  0x00\n    /* \"contracts/_ronx1.sol\":2092:2094  11 */\n  0x0b\n    /* \"contracts/_ronx1.sol\":2081:2095  levelPrice[11] */\n  0xff\n  and\n  dup2\n  mstore\n  0x20\n  add\n  swap1\n  dup2\n  mstore\n  0x20\n  add\n  0x00\n  keccak256\n    /* \"contracts/_ronx1.sol\":2081:2105  levelPrice[11] = 5000e18 */\n  dup2\n  swap1\n  sstore\n  pop\n    /* \"contracts/_ronx1.sol\":2133:2140  9900e18 */\n  0x0218ae196b8d4f300000\n    /* \"contracts/_ronx1.sol\":2116:2126  levelPrice */\n  0x02\n    /* \"contracts/_ronx1.sol\":2116:2130  levelPrice[12] */\n  0x00\n    /* \"contracts/_ronx1.sol\":2127:2129  12 */\n  0x0c\n    /* \"contracts/_ronx1.sol\":2116:2130  levelPrice[12] */\n  0xff\n  and\n  dup2\n  mstore\n  0x20\n  add\n  swap1\n  dup2\n  mstore\n  0x20\n  add\n  0x00\n  keccak256\n    /* \"contracts/_ronx1.sol\":2116:2140  levelPrice[12] = 9900e18 */\n  dup2\n  swap1\n  sstore\n  pop\n    /* \"contracts/_ronx1.sol\":60:8916  contract X3Program {... */\n  jump(tag_24)\ntag_9:\n  dup3\n  dup1\n  sload\n  dup3\n  dup3\n  sstore\n  swap1\n  0x00\n  mstore\n  keccak256(0x00, 0x20)\n  swap1\n  dup2\n  add\n  swap3\n  dup3\n  iszero\n  tag_25\n  jumpi\n  swap2\n  0x20\n  mul\n  dup3\n  add\ntag_26:\n  dup3\n  dup2\n  gt\n  iszero\n  tag_27\n  jumpi\n  dup3\n  mload\n  dup3\n  exp(0x0100, 0x00)\n  dup2\n  sload\n  dup2\n  0xffffffffffffffffffffffffffffffffffffffff\n  mul\n  not\n  and\n  swap1\n  dup4\n  0xffffffffffffffffffffffffffffffffffffffff\n  and\n  mul\n  or\n  swap1\n  sstore\n  pop\n  swap2\n  0x20\n  add\n  swap2\n  swap1\n  0x01\n  add\n  swap1\n  jump(tag_26)\ntag_27:\ntag_25:\n  pop\n  swap1\n  pop\n  tag_28\n  swap2\n  swap1\n  tag_29\n  jump\t// in\ntag_28:\n  pop\n  swap1\n  jump\t// out\ntag_29:\ntag_30:\n  dup1\n  dup3\n  gt\n  iszero\n  tag_31\n  jumpi\n  0x00\n  dup2\n  0x00\n  swap1\n  sstore\n  pop\n  0x01\n  add\n  jump(tag_30)\ntag_31:\n  pop\n  swap1\n  jump\t// out\n    /* \"#utility.yul\":7:187   */\ntag_6:\n    /* \"#utility.yul\":55:132   */\n  0x4e487b7100000000000000000000000000000000000000000000000000000000\n    /* \"#utility.yul\":52:53   */\n  0x00\n    /* \"#utility.yul\":45:133   */\n  mstore\n    /* \"#utility.yul\":152:156   */\n  0x41\n    /* \"#utility.yul\":149:150   */\n  0x04\n    /* \"#utility.yul\":142:157   */\n  mstore\n    /* \"#utility.yul\":176:180   */\n  0x24\n    /* \"#utility.yul\":173:174   */\n  0x00\n    /* \"#utility.yul\":166:181   */\n  revert\n    /* \"#utility.yul\":193:292   */\ntag_32:\n    /* \"#utility.yul\":245:251   */\n  0x00\n    /* \"#utility.yul\":279:284   */\n  dup2\n    /* \"#utility.yul\":273:285   */\n  mload\n    /* \"#utility.yul\":263:285   */\n  swap1\n  pop\n    /* \"#utility.yul\":193:292   */\n  swap2\n  swap1\n  pop\n  jump\t// out\n    /* \"#utility.yul\":298:478   */\ntag_33:\n    /* \"#utility.yul\":346:423   */\n  0x4e487b7100000000000000000000000000000000000000000000000000000000\n    /* \"#utility.yul\":343:344   */\n  0x00\n    /* \"#utility.yul\":336:424   */\n  mstore\n    /* \"#utility.yul\":443:447   */\n  0x22\n    /* \"#utility.yul\":440:441   */\n  0x04\n    /* \"#utility.yul\":433:448   */\n  mstore\n    /* \"#utility.yul\":467:471   */\n  0x24\n    /* \"#utility.yul\":464:465   */\n  0x00\n    /* \"#utility.yul\":457:472   */\n  revert\n    /* \"#utility.yul\":484:804   */\ntag_34:\n    /* \"#utility.yul\":528:534   */\n  0x00\n    /* \"#utility.yul\":565:566   */\n  0x02\n    /* \"#utility.yul\":559:563   */\n  dup3\n    /* \"#utility.yul\":555:567   */\n  div\n    /* \"#utility.yul\":545:567   */\n  swap1\n  pop\n    /* \"#utility.yul\":612:613   */\n  0x01\n    /* \"#utility.yul\":606:610   */\n  dup3\n    /* \"#utility.yul\":602:614   */\n  and\n    /* \"#utility.yul\":633:651   */\n  dup1\n    /* \"#utility.yul\":623:704   */\n  tag_58\n  jumpi\n    /* \"#utility.yul\":689:693   */\n  0x7f\n    /* \"#utility.yul\":681:687   */\n  dup3\n    /* \"#utility.yul\":677:694   */\n  and\n    /* \"#utility.yul\":667:694   */\n  swap2\n  pop\n    /* \"#utility.yul\":623:704   */\ntag_58:\n    /* \"#utility.yul\":751:753   */\n  0x20\n    /* \"#utility.yul\":743:749   */\n  dup3\n    /* \"#utility.yul\":740:754   */\n  lt\n    /* \"#utility.yul\":720:738   */\n  dup2\n    /* \"#utility.yul\":717:755   */\n  sub\n    /* \"#utility.yul\":714:798   */\n  tag_59\n  jumpi\n    /* \"#utility.yul\":770:788   */\n  tag_60\n  tag_33\n  jump\t// in\ntag_60:\n    /* \"#utility.yul\":714:798   */\ntag_59:\n    /* \"#utility.yul\":535:804   */\n  pop\n    /* \"#utility.yul\":484:804   */\n  swap2\n  swap1\n  pop\n  jump\t// out\n    /* \"#utility.yul\":810:951   */\ntag_35:\n    /* \"#utility.yul\":859:863   */\n  0x00\n    /* \"#utility.yul\":882:885   */\n  dup2\n    /* \"#utility.yul\":874:885   */\n  swap1\n  pop\n    /* \"#utility.yul\":905:908   */\n  dup2\n    /* \"#utility.yul\":902:903   */\n  0x00\n    /* \"#utility.yul\":895:909   */\n  mstore\n    /* \"#utility.yul\":939:943   */\n  0x20\n    /* \"#utility.yul\":936:937   */\n  0x00\n    /* \"#utility.yul\":926:944   */\n  keccak256\n    /* \"#utility.yul\":918:944   */\n  swap1\n  pop\n    /* \"#utility.yul\":810:951   */\n  swap2\n  swap1\n  pop\n  jump\t// out\n    /* \"#utility.yul\":957:1050   */\ntag_36:\n    /* \"#utility.yul\":994:1000   */\n  0x00\n    /* \"#utility.yul\":1041:1043   */\n  0x20\n    /* \"#utility.yul\":1036:1038   */\n  0x1f\n    /* \"#utility.yul\":1029:1034   */\n  dup4\n    /* \"#utility.yul\":1025:1039   */\n  add\n    /* \"#utility.yul\":1021:1044   */\n  div\n    /* \"#utility.yul\":1011:1044   */\n  swap1\n  pop\n    /* \"#utility.yul\":957:1050   */\n  swap2\n  swap1\n  pop\n  jump\t// out\n    /* \"#utility.yul\":1056:1163   */\ntag_37:\n    /* \"#utility.yul\":1100:1108   */\n  0x00\n    /* \"#utility.yul\":1150:1155   */\n  dup3\n    /* \"#utility.yul\":1144:1148   */\n  dup3\n    /* \"#utility.yul\":1140:1156   */\n  shl\n    /* \"#utility.yul\":1119:1156   */\n  swap1\n  pop\n    /* \"#utility.yul\":1056:1163   */\n  swap3\n  swap2\n  pop\n  pop\n  jump\t// out\n    /* \"#utility.yul\":1169:1562   */\ntag_38:\n    /* \"#utility.yul\":1238:1244   */\n  0x00\n    /* \"#utility.yul\":1288:1289   */\n  0x08\n    /* \"#utility.yul\":1276:1286   */\n  dup4\n    /* \"#utility.yul\":1272:1290   */\n  mul\n    /* \"#utility.yul\":1311:1408   */\n  tag_65\n    /* \"#utility.yul\":1341:1407   */\n  0xffffffffffffffffffffffffffffffffffffffffffffffffffffffffffffffff\n    /* \"#utility.yul\":1330:1339   */\n  dup3\n    /* \"#utility.yul\":1311:1408   */\n  tag_37\n  jump\t// in\ntag_65:\n    /* \"#utility.yul\":1429:1468   */\n  tag_66\n    /* \"#utility.yul\":1459:1467   */\n  dup7\n    /* \"#utility.yul\":1448:1457   */\n  dup4\n    /* \"#utility.yul\":1429:1468   */\n  tag_37\n  jump\t// in\ntag_66:\n    /* \"#utility.yul\":1417:1468   */\n  swap6\n  pop\n    /* \"#utility.yul\":1501:1505   */\n  dup1\n    /* \"#utility.yul\":1497:1506   */\n  not\n    /* \"#utility.yul\":1490:1495   */\n  dup5\n    /* \"#utility.yul\":1486:1507   */\n  and\n    /* \"#utility.yul\":1477:1507   */\n  swap4\n  pop\n    /* \"#utility.yul\":1550:1554   */\n  dup1\n    /* \"#utility.yul\":1540:1548   */\n  dup7\n    /* \"#utility.yul\":1536:1555   */\n  and\n    /* \"#utility.yul\":1529:1534   */\n  dup5\n    /* \"#utility.yul\":1526:1556   */\n  or\n    /* \"#utility.yul\":1516:1556   */\n  swap3\n  pop\n    /* \"#utility.yul\":1245:1562   */\n  pop\n  pop\n    /* \"#utility.yul\":1169:1562   */\n  swap4\n  swap3\n  pop\n  pop\n  pop\n  jump\t// out\n    /* \"#utility.yul\":1568:1645   */\ntag_39:\n    /* \"#utility.yul\":1605:1612   */\n  0x00\n    /* \"#utility.yul\":1634:1639   */\n  dup2\n    /* \"#utility.yul\":1623:1639   */\n  swap1\n  pop\n    /* \"#utility.yul\":1568:1645   */\n  swap2\n  swap1\n  pop\n  jump\t// out\n    /* \"#utility.yul\":1651:1711   */\ntag_40:\n    /* \"#utility.yul\":1679:1682   */\n  0x00\n    /* \"#utility.yul\":1700:1705   */\n  dup2\n    /* \"#utility.yul\":1693:1705   */\n  swap1\n  pop\n    /* \"#utility.yul\":1651:1711   */\n  swap2\n  swap1\n  pop\n  jump\t// out\n    /* \"#utility.yul\":1717:1859   */\ntag_41:\n    /* \"#utility.yul\":1767:1776   */\n  0x00\n    /* \"#utility.yul\":1800:1853   */\n  tag_70\n    /* \"#utility.yul\":1818:1852   */\n  tag_71\n    /* \"#utility.yul\":1827:1851   */\n  tag_72\n    /* \"#utility.yul\":1845:1850   */\n  dup5\n    /* \"#utility.yul\":1827:1851   */\n  tag_39\n  jump\t// in\ntag_72:\n    /* \"#utility.yul\":1818:1852   */\n  tag_40\n  jump\t// in\ntag_71:\n    /* \"#utility.yul\":1800:1853   */\n  tag_39\n  jump\t// in\ntag_70:\n    /* \"#utility.yul\":1787:1853   */\n  swap1\n  pop\n    /* \"#utility.yul\":1717:1859   */\n  swap2\n  swap1\n  pop\n  jump\t// out\n    /* \"#utility.yul\":1865:1940   */\ntag_42:\n    /* \"#utility.yul\":1908:1911   */\n  0x00\n    /* \"#utility.yul\":1929:1934   */\n  dup2\n    /* \"#utility.yul\":1922:1934   */\n  swap1\n  pop\n    /* \"#utility.yul\":1865:1940   */\n  swap2\n  swap1\n  pop\n  jump\t// out\n    /* \"#utility.yul\":1946:2215   */\ntag_43:\n    /* \"#utility.yul\":2056:2095   */\n  tag_75\n    /* \"#utility.yul\":2087:2094   */\n  dup4\n    /* \"#utility.yul\":2056:2095   */\n  tag_41\n  jump\t// in\ntag_75:\n    /* \"#utility.yul\":2117:2208   */\n  tag_76\n    /* \"#utility.yul\":2166:2207   */\n  tag_77\n    /* \"#utility.yul\":2190:2206   */\n  dup3\n    /* \"#utility.yul\":2166:2207   */\n  tag_42\n  jump\t// in\ntag_77:\n    /* \"#utility.yul\":2158:2164   */\n  dup5\n    /* \"#utility.yul\":2151:2155   */\n  dup5\n    /* \"#utility.yul\":2145:2156   */\n  sload\n    /* \"#utility.yul\":2117:2208   */\n  tag_38\n  jump\t// in\ntag_76:\n    /* \"#utility.yul\":2111:2115   */\n  dup3\n    /* \"#utility.yul\":2104:2209   */\n  sstore\n    /* \"#utility.yul\":2022:2215   */\n  pop\n    /* \"#utility.yul\":1946:2215   */\n  pop\n  pop\n  pop\n  jump\t// out\n    /* \"#utility.yul\":2221:2294   */\ntag_44:\n    /* \"#utility.yul\":2266:2269   */\n  0x00\n    /* \"#utility.yul\":2221:2294   */\n  swap1\n  jump\t// out\n    /* \"#utility.yul\":2300:2489   */\ntag_45:\n    /* \"#utility.yul\":2377:2409   */\n  tag_80\n  tag_44\n  jump\t// in\ntag_80:\n    /* \"#utility.yul\":2418:2483   */\n  tag_81\n    /* \"#utility.yul\":2476:2482   */\n  dup2\n    /* \"#utility.yul\":2468:2474   */\n  dup5\n    /* \"#utility.yul\":2462:2466   */\n  dup5\n    /* \"#utility.yul\":2418:2483   */\n  tag_43\n  jump\t// in\ntag_81:\n    /* \"#utility.yul\":2353:2489   */\n  pop\n    /* \"#utility.yul\":2300:2489   */\n  pop\n  pop\n  jump\t// out\n    /* \"#utility.yul\":2495:2681   */\ntag_46:\n    /* \"#utility.yul\":2555:2675   */\ntag_83:\n    /* \"#utility.yul\":2572:2575   */\n  dup2\n    /* \"#utility.yul\":2565:2570   */\n  dup2\n    /* \"#utility.yul\":2562:2576   */\n  lt\n    /* \"#utility.yul\":2555:2675   */\n  iszero\n  tag_85\n  jumpi\n    /* \"#utility.yul\":2626:2665   */\n  tag_86\n    /* \"#utility.yul\":2663:2664   */\n  0x00\n    /* \"#utility.yul\":2656:2661   */\n  dup3\n    /* \"#utility.yul\":2626:2665   */\n  tag_45\n  jump\t// in\ntag_86:\n    /* \"#utility.yul\":2599:2600   */\n  0x01\n    /* \"#utility.yul\":2592:2597   */\n  dup2\n    /* \"#utility.yul\":2588:2601   */\n  add\n    /* \"#utility.yul\":2579:2601   */\n  swap1\n  pop\n    /* \"#utility.yul\":2555:2675   */\n  jump(tag_83)\ntag_85:\n    /* \"#utility.yul\":2495:2681   */\n  pop\n  pop\n  jump\t// out\n    /* \"#utility.yul\":2687:3230   */\ntag_47:\n    /* \"#utility.yul\":2788:2790   */\n  0x1f\n    /* \"#utility.yul\":2783:2786   */\n  dup3\n    /* \"#utility.yul\":2780:2791   */\n  gt\n    /* \"#utility.yul\":2777:3223   */\n  iszero\n  tag_88\n  jumpi\n    /* \"#utility.yul\":2822:2860   */\n  tag_89\n    /* \"#utility.yul\":2854:2859   */\n  dup2\n    /* \"#utility.yul\":2822:2860   */\n  tag_35\n  jump\t// in\ntag_89:\n    /* \"#utility.yul\":2906:2935   */\n  tag_90\n    /* \"#utility.yul\":2924:2934   */\n  dup5\n    /* \"#utility.yul\":2906:2935   */\n  tag_36\n  jump\t// in\ntag_90:\n    /* \"#utility.yul\":2896:2904   */\n  dup2\n    /* \"#utility.yul\":2892:2936   */\n  add\n    /* \"#utility.yul\":3089:3091   */\n  0x20\n    /* \"#utility.yul\":3077:3087   */\n  dup6\n    /* \"#utility.yul\":3074:3092   */\n  lt\n    /* \"#utility.yul\":3071:3120   */\n  iszero\n  tag_91\n  jumpi\n    /* \"#utility.yul\":3110:3118   */\n  dup2\n    /* \"#utility.yul\":3095:3118   */\n  swap1\n  pop\n    /* \"#utility.yul\":3071:3120   */\ntag_91:\n    /* \"#utility.yul\":3133:3213   */\n  tag_92\n    /* \"#utility.yul\":3189:3211   */\n  tag_93\n    /* \"#utility.yul\":3207:3210   */\n  dup6\n    /* \"#utility.yul\":3189:3211   */\n  tag_36\n  jump\t// in\ntag_93:\n    /* \"#utility.yul\":3179:3187   */\n  dup4\n    /* \"#utility.yul\":3175:3212   */\n  add\n    /* \"#utility.yul\":3162:3173   */\n  dup3\n    /* \"#utility.yul\":3133:3213   */\n  tag_46\n  jump\t// in\ntag_92:\n    /* \"#utility.yul\":2792:3223   */\n  pop\n  pop\n    /* \"#utility.yul\":2777:3223   */\ntag_88:\n    /* \"#utility.yul\":2687:3230   */\n  pop\n  pop\n  pop\n  jump\t// out\n    /* \"#utility.yul\":3236:3353   */\ntag_48:\n    /* \"#utility.yul\":3290:3298   */\n  0x00\n    /* \"#utility.yul\":3340:3345   */\n  dup3\n    /* \"#utility.yul\":3334:3338   */\n  dup3\n    /* \"#utility.yul\":3330:3346   */\n  shr\n    /* \"#utility.yul\":3309:3346   */\n  swap1\n  pop\n    /* \"#utility.yul\":3236:3353   */\n  swap3\n  swap2\n  pop\n  pop\n  jump\t// out\n    /* \"#utility.yul\":3359:3528   */\ntag_49:\n    /* \"#utility.yul\":3403:3409   */\n  0x00\n    /* \"#utility.yul\":3436:3487   */\n  tag_96\n    /* \"#utility.yul\":3484:3485   */\n  0x00\n    /* \"#utility.yul\":3480:3486   */\n  not\n    /* \"#utility.yul\":3472:3477   */\n  dup5\n    /* \"#utility.yul\":3469:3470   */\n  0x08\n    /* \"#utility.yul\":3465:3478   */\n  mul\n    /* \"#utility.yul\":3436:3487   */\n  tag_48\n  jump\t// in\ntag_96:\n    /* \"#utility.yul\":3432:3488   */\n  not\n    /* \"#utility.yul\":3517:3521   */\n  dup1\n    /* \"#utility.yul\":3511:3515   */\n  dup4\n    /* \"#utility.yul\":3507:3522   */\n  and\n    /* \"#utility.yul\":3497:3522   */\n  swap2\n  pop\n    /* \"#utility.yul\":3410:3528   */\n  pop\n    /* \"#utility.yul\":3359:3528   */\n  swap3\n  swap2\n  pop\n  pop\n  jump\t// out\n    /* \"#utility.yul\":3533:3828   */\ntag_50:\n    /* \"#utility.yul\":3609:3613   */\n  0x00\n    /* \"#utility.yul\":3755:3784   */\n  tag_98\n    /* \"#utility.yul\":3780:3783   */\n  dup4\n    /* \"#utility.yul\":3774:3778   */\n  dup4\n    /* \"#utility.yul\":3755:3784   */\n  tag_49\n  jump\t// in\ntag_98:\n    /* \"#utility.yul\":3747:3784   */\n  swap2\n  pop\n    /* \"#utility.yul\":3817:3820   */\n  dup3\n    /* \"#utility.yul\":3814:3815   */\n  0x02\n    /* \"#utility.yul\":3810:3821   */\n  mul\n    /* \"#utility.yul\":3804:3808   */\n  dup3\n    /* \"#utility.yul\":3801:3822   */\n  or\n    /* \"#utility.yul\":3793:3822   */\n  swap1\n  pop\n    /* \"#utility.yul\":3533:3828   */\n  swap3\n  swap2\n  pop\n  pop\n  jump\t// out\n    /* \"#utility.yul\":3833:5228   */\ntag_11:\n    /* \"#utility.yul\":3950:3987   */\n  tag_100\n    /* \"#utility.yul\":3983:3986   */\n  dup3\n    /* \"#utility.yul\":3950:3987   */\n  tag_32\n  jump\t// in\ntag_100:\n    /* \"#utility.yul\":4052:4070   */\n  0xffffffffffffffff\n    /* \"#utility.yul\":4044:4050   */\n  dup2\n    /* \"#utility.yul\":4041:4071   */\n  gt\n    /* \"#utility.yul\":4038:4094   */\n  iszero\n  tag_101\n  jumpi\n    /* \"#utility.yul\":4074:4092   */\n  tag_102\n  tag_6\n  jump\t// in\ntag_102:\n    /* \"#utility.yul\":4038:4094   */\ntag_101:\n    /* \"#utility.yul\":4118:4156   */\n  tag_103\n    /* \"#utility.yul\":4150:4154   */\n  dup3\n    /* \"#utility.yul\":4144:4155   */\n  sload\n    /* \"#utility.yul\":4118:4156   */\n  tag_34\n  jump\t// in\ntag_103:\n    /* \"#utility.yul\":4203:4270   */\n  tag_104\n    /* \"#utility.yul\":4263:4269   */\n  dup3\n    /* \"#utility.yul\":4255:4261   */\n  dup3\n    /* \"#utility.yul\":4249:4253   */\n  dup6\n    /* \"#utility.yul\":4203:4270   */\n  tag_47\n  jump\t// in\ntag_104:\n    /* \"#utility.yul\":4297:4298   */\n  0x00\n    /* \"#utility.yul\":4321:4325   */\n  0x20\n    /* \"#utility.yul\":4308:4325   */\n  swap1\n  pop\n    /* \"#utility.yul\":4353:4355   */\n  0x1f\n    /* \"#utility.yul\":4345:4351   */\n  dup4\n    /* \"#utility.yul\":4342:4356   */\n  gt\n    /* \"#utility.yul\":4370:4371   */\n  0x01\n    /* \"#utility.yul\":4365:4983   */\n  dup2\n  eq\n  tag_106\n  jumpi\n    /* \"#utility.yul\":5027:5028   */\n  0x00\n    /* \"#utility.yul\":5044:5050   */\n  dup5\n    /* \"#utility.yul\":5041:5118   */\n  iszero\n  tag_107\n  jumpi\n    /* \"#utility.yul\":5093:5102   */\n  dup3\n    /* \"#utility.yul\":5088:5091   */\n  dup8\n    /* \"#utility.yul\":5084:5103   */\n  add\n    /* \"#utility.yul\":5078:5104   */\n  mload\n    /* \"#utility.yul\":5069:5104   */\n  swap1\n  pop\n    /* \"#utility.yul\":5041:5118   */\ntag_107:\n    /* \"#utility.yul\":5144:5211   */\n  tag_108\n    /* \"#utility.yul\":5204:5210   */\n  dup6\n    /* \"#utility.yul\":5197:5202   */\n  dup3\n    /* \"#utility.yul\":5144:5211   */\n  tag_50\n  jump\t// in\ntag_108:\n    /* \"#utility.yul\":5138:5142   */\n  dup7\n    /* \"#utility.yul\":5131:5212   */\n  sstore\n    /* \"#utility.yul\":5000:5222   */\n  pop\n    /* \"#utility.yul\":4335:5222   */\n  jump(tag_105)\n    /* \"#utility.yul\":4365:4983   */\ntag_106:\n    /* \"#utility.yul\":4417:4421   */\n  0x1f\n    /* \"#utility.yul\":4413:4422   */\n  not\n    /* \"#utility.yul\":4405:4411   */\n  dup5\n    /* \"#utility.yul\":4401:4423   */\n  and\n    /* \"#utility.yul\":4451:4488   */\n  tag_109\n    /* \"#utility.yul\":4483:4487   */\n  dup7\n    /* \"#utility.yul\":4451:4488   */\n  tag_35\n  jump\t// in\ntag_109:\n    /* \"#utility.yul\":4510:4511   */\n  0x00\n    /* \"#utility.yul\":4524:4732   */\ntag_110:\n    /* \"#utility.yul\":4538:4545   */\n  dup3\n    /* \"#utility.yul\":4535:4536   */\n  dup2\n    /* \"#utility.yul\":4532:4546   */\n  lt\n    /* \"#utility.yul\":4524:4732   */\n  iszero\n  tag_112\n  jumpi\n    /* \"#utility.yul\":4617:4626   */\n  dup5\n    /* \"#utility.yul\":4612:4615   */\n  dup10\n    /* \"#utility.yul\":4608:4627   */\n  add\n    /* \"#utility.yul\":4602:4628   */\n  mload\n    /* \"#utility.yul\":4594:4600   */\n  dup3\n    /* \"#utility.yul\":4587:4629   */\n  sstore\n    /* \"#utility.yul\":4668:4669   */\n  0x01\n    /* \"#utility.yul\":4660:4666   */\n  dup3\n    /* \"#utility.yul\":4656:4670   */\n  add\n    /* \"#utility.yul\":4646:4670   */\n  swap2\n  pop\n    /* \"#utility.yul\":4715:4717   */\n  0x20\n    /* \"#utility.yul\":4704:4713   */\n  dup6\n    /* \"#utility.yul\":4700:4718   */\n  add\n    /* \"#utility.yul\":4687:4718   */\n  swap5\n  pop\n    /* \"#utility.yul\":4561:4565   */\n  0x20\n    /* \"#utility.yul\":4558:4559   */\n  dup2\n    /* \"#utility.yul\":4554:4566   */\n  add\n    /* \"#utility.yul\":4549:4566   */\n  swap1\n  pop\n    /* \"#utility.yul\":4524:4732   */\n  jump(tag_110)\ntag_112:\n    /* \"#utility.yul\":4760:4766   */\n  dup7\n    /* \"#utility.yul\":4751:4758   */\n  dup4\n    /* \"#utility.yul\":4748:4767   */\n  lt\n    /* \"#utility.yul\":4745:4924   */\n  iszero\n  tag_113\n  jumpi\n    /* \"#utility.yul\":4818:4827   */\n  dup5\n    /* \"#utility.yul\":4813:4816   */\n  dup10\n    /* \"#utility.yul\":4809:4828   */\n  add\n    /* \"#utility.yul\":4803:4829   */\n  mload\n    /* \"#utility.yul\":4861:4909   */\n  tag_114\n    /* \"#utility.yul\":4903:4907   */\n  0x1f\n    /* \"#utility.yul\":4895:4901   */\n  dup10\n    /* \"#utility.yul\":4891:4908   */\n  and\n    /* \"#utility.yul\":4880:4889   */\n  dup3\n    /* \"#utility.yul\":4861:4909   */\n  tag_49\n  jump\t// in\ntag_114:\n    /* \"#utility.yul\":4853:4859   */\n  dup4\n    /* \"#utility.yul\":4846:4910   */\n  sstore\n    /* \"#utility.yul\":4768:4924   */\n  pop\n    /* \"#utility.yul\":4745:4924   */\ntag_113:\n    /* \"#utility.yul\":4970:4971   */\n  0x01\n    /* \"#utility.yul\":4966:4967   */\n  0x02\n    /* \"#utility.yul\":4958:4964   */\n  dup9\n    /* \"#utility.yul\":4954:4968   */\n  mul\n    /* \"#utility.yul\":4950:4972   */\n  add\n    /* \"#utility.yul\":4944:4948   */\n  dup9\n    /* \"#utility.yul\":4937:4973   */\n  sstore\n    /* \"#utility.yul\":4372:4983   */\n  pop\n  pop\n  pop\n    /* \"#utility.yul\":4335:5222   */\ntag_105:\n  pop\n    /* \"#utility.yul\":3925:5228   */\n  pop\n  pop\n  pop\n    /* \"#utility.yul\":3833:5228   */\n  pop\n  pop\n  jump\t// out\n    /* \"#utility.yul\":5234:5320   */\ntag_51:\n    /* \"#utility.yul\":5269:5276   */\n  0x00\n    /* \"#utility.yul\":5309:5313   */\n  0xff\n    /* \"#utility.yul\":5302:5307   */\n  dup3\n    /* \"#utility.yul\":5298:5314   */\n  and\n    /* \"#utility.yul\":5287:5314   */\n  swap1\n  pop\n    /* \"#utility.yul\":5234:5320   */\n  swap2\n  swap1\n  pop\n  jump\t// out\n    /* \"#utility.yul\":5326:5506   */\ntag_52:\n    /* \"#utility.yul\":5374:5451   */\n  0x4e487b7100000000000000000000000000000000000000000000000000000000\n    /* \"#utility.yul\":5371:5372   */\n  0x00\n    /* \"#utility.yul\":5364:5452   */\n  mstore\n    /* \"#utility.yul\":5471:5475   */\n  0x11\n    /* \"#utility.yul\":5468:5469   */\n  0x04\n    /* \"#utility.yul\":5461:5476   */\n  mstore\n    /* \"#utility.yul\":5495:5499   */\n  0x24\n    /* \"#utility.yul\":5492:5493   */\n  0x00\n    /* \"#utility.yul\":5485:5500   */\n  revert\n    /* \"#utility.yul\":5512:5703   */\ntag_19:\n    /* \"#utility.yul\":5550:5554   */\n  0x00\n    /* \"#utility.yul\":5570:5588   */\n  tag_118\n    /* \"#utility.yul\":5586:5587   */\n  dup3\n    /* \"#utility.yul\":5570:5588   */\n  tag_51\n  jump\t// in\ntag_118:\n    /* \"#utility.yul\":5565:5588   */\n  swap2\n  pop\n    /* \"#utility.yul\":5602:5620   */\n  tag_119\n    /* \"#utility.yul\":5618:5619   */\n  dup4\n    /* \"#utility.yul\":5602:5620   */\n  tag_51\n  jump\t// in\ntag_119:\n    /* \"#utility.yul\":5597:5620   */\n  swap3\n  pop\n    /* \"#utility.yul\":5644:5645   */\n  dup3\n    /* \"#utility.yul\":5641:5642   */\n  dup3\n    /* \"#utility.yul\":5637:5646   */\n  sub\n    /* \"#utility.yul\":5629:5646   */\n  swap1\n  pop\n    /* \"#utility.yul\":5668:5672   */\n  0xff\n    /* \"#utility.yul\":5662:5666   */\n  dup2\n    /* \"#utility.yul\":5659:5673   */\n  gt\n    /* \"#utility.yul\":5656:5696   */\n  iszero\n  tag_120\n  jumpi\n    /* \"#utility.yul\":5676:5694   */\n  tag_121\n  tag_52\n  jump\t// in\ntag_121:\n    /* \"#utility.yul\":5656:5696   */\ntag_120:\n    /* \"#utility.yul\":5512:5703   */\n  swap3\n  swap2\n  pop\n  pop\n  jump\t// out\n    /* \"#utility.yul\":5709:6119   */\ntag_21:\n    /* \"#utility.yul\":5749:5756   */\n  0x00\n    /* \"#utility.yul\":5772:5792   */\n  tag_123\n    /* \"#utility.yul\":5790:5791   */\n  dup3\n    /* \"#utility.yul\":5772:5792   */\n  tag_39\n  jump\t// in\ntag_123:\n    /* \"#utility.yul\":5767:5792   */\n  swap2\n  pop\n    /* \"#utility.yul\":5806:5826   */\n  tag_124\n    /* \"#utility.yul\":5824:5825   */\n  dup4\n    /* \"#utility.yul\":5806:5826   */\n  tag_39\n  jump\t// in\ntag_124:\n    /* \"#utility.yul\":5801:5826   */\n  swap3\n  pop\n    /* \"#utility.yul\":5861:5862   */\n  dup3\n    /* \"#utility.yul\":5858:5859   */\n  dup3\n    /* \"#utility.yul\":5854:5863   */\n  mul\n    /* \"#utility.yul\":5883:5913   */\n  tag_125\n    /* \"#utility.yul\":5901:5912   */\n  dup2\n    /* \"#utility.yul\":5883:5913   */\n  tag_39\n  jump\t// in\ntag_125:\n    /* \"#utility.yul\":5872:5913   */\n  swap2\n  pop\n    /* \"#utility.yul\":6062:6063   */\n  dup3\n    /* \"#utility.yul\":6053:6060   */\n  dup3\n    /* \"#utility.yul\":6049:6064   */\n  div\n    /* \"#utility.yul\":6046:6047   */\n  dup5\n    /* \"#utility.yul\":6043:6065   */\n  eq\n    /* \"#utility.yul\":6023:6024   */\n  dup4\n    /* \"#utility.yul\":6016:6025   */\n  iszero\n    /* \"#utility.yul\":5996:6079   */\n  or\n    /* \"#utility.yul\":5973:6112   */\n  tag_126\n  jumpi\n    /* \"#utility.yul\":6092:6110   */\n  tag_127\n  tag_52\n  jump\t// in\ntag_127:\n    /* \"#utility.yul\":5973:6112   */\ntag_126:\n    /* \"#utility.yul\":5757:6119   */\n  pop\n    /* \"#utility.yul\":5709:6119   */\n  swap3\n  swap2\n  pop\n  pop\n  jump\t// out\n    /* \"#utility.yul\":6125:6292   */\ntag_23:\n    /* \"#utility.yul\":6162:6165   */\n  0x00\n    /* \"#utility.yul\":6185:6207   */\n  tag_129\n    /* \"#utility.yul\":6201:6206   */\n  dup3\n    /* \"#utility.yul\":6185:6207   */\n  tag_51\n  jump\t// in\ntag_129:\n    /* \"#utility.yul\":6176:6207   */\n  swap2\n  pop\n    /* \"#utility.yul\":6229:6233   */\n  0xff\n    /* \"#utility.yul\":6222:6227   */\n  dup3\n    /* \"#utility.yul\":6219:6234   */\n  sub\n    /* \"#utility.yul\":6216:6257   */\n  tag_130\n  jumpi\n    /* \"#utility.yul\":6237:6255   */\n  tag_131\n  tag_52\n  jump\t// in\ntag_131:\n    /* \"#utility.yul\":6216:6257   */\ntag_130:\n    /* \"#utility.yul\":6284:6285   */\n  0x01\n    /* \"#utility.yul\":6277:6282   */\n  dup3\n    /* \"#utility.yul\":6273:6286   */\n  add\n    /* \"#utility.yul\":6266:6286   */\n  swap1\n  pop\n    /* \"#utility.yul\":6125:6292   */\n  swap2\n  swap1\n  pop\n  jump\t// out\n    /* \"contracts/_ronx1.sol\":60:8916  contract X3Program {... */\ntag_24:\n  dataSize(sub_0)\n  dup1\n  dataOffset(sub_0)\n  0x00\n  codecopy\n  0x00\n  return\nstop\n\nsub_0: assembly {\n        /* \"contracts/_ronx1.sol\":60:8916  contract X3Program {... */\n      mstore(0x40, 0x80)\n      jumpi(tag_1, lt(calldatasize, 0x04))\n      shr(0xe0, calldataload(0x00))\n      dup1\n      0x6f8e2516\n      gt\n      tag_20\n      jumpi\n      dup1\n      0x9ac7e09e\n      gt\n      tag_21\n      jumpi\n      dup1\n      0x9ac7e09e\n      eq\n      tag_15\n      jumpi\n      dup1\n      0xa87430ba\n      eq\n      tag_16\n      jumpi\n      dup1\n      0xaed8a6a7\n      eq\n      tag_17\n      jumpi\n      dup1\n      0xde972b43\n      eq\n      tag_18\n      jumpi\n      dup1\n      0xecabdf79\n      eq\n      tag_19\n      jumpi\n      jump(tag_1)\n    tag_21:\n      dup1\n      0x6f8e2516\n      eq\n      tag_11\n      jumpi\n      dup1\n      0x8d17a4d0\n      eq\n      tag_12\n      jumpi\n      dup1\n      0x8da5cb5b\n      eq\n      tag_13\n      jumpi\n      dup1\n      0x90426274\n      eq\n      tag_14\n      jumpi\n      jump(tag_1)\n    tag_20:\n      dup1\n      0x348d4487\n      gt\n      tag_22\n      jumpi\n      dup1\n      0x348d4487\n      eq\n      tag_6\n      jumpi\n      dup1\n      0x575cea6b\n      eq\n      tag_7\n      jumpi\n      dup1\n      0x6386c1c7\n      eq\n      tag_8\n      jumpi\n      dup1\n      0x64b4f751\n      eq\n      tag_9\n      jumpi\n      dup1\n      0x6ed6da9e\n      eq\n      tag_10\n      jumpi\n      jump(tag_1)\n    tag_22:\n      dup1\n      0x1394c053\n      eq\n      tag_2\n      jumpi\n      dup1\n      0x29c70400\n      eq\n      tag_3\n      jumpi\n      dup1\n      0x2a2d0c47\n      eq\n      tag_4\n      jumpi\n      dup1\n      0x3056deb8\n      eq\n      tag_5\n      jumpi\n    tag_1:\n      0x00\n      dup1\n      revert\n        /* \"contracts/_ronx1.sol\":2156:3374  function registerUpline(... */\n    tag_2:\n      tag_23\n      0x04\n      dup1\n      calldatasize\n      sub\n      dup2\n      add\n      swap1\n      tag_24\n      swap2\n      swap1\n      tag_25\n      jump\t// in\n    tag_24:\n      tag_26\n      jump\t// in\n    tag_23:\n      stop\n        /* \"contracts/_ronx1.sol\":659:696  uint8 public constant LAST_LEVEL = 12 */\n    tag_3:\n      callvalue\n      dup1\n      iszero\n      tag_27\n      jumpi\n      0x00\n      dup1\n      revert\n    tag_27:\n      pop\n      tag_28\n      tag_29\n      jump\t// in\n    tag_28:\n      mload(0x40)\n      tag_30\n      swap2\n      swap1\n      tag_31\n      jump\t// in\n    tag_30:\n      mload(0x40)\n      dup1\n      swap2\n      sub\n      swap1\n      return\n        /* \"contracts/_ronx1.sol\":518:564  mapping(uint256 => address) public idToAddress */\n    tag_4:\n      callvalue\n      dup1\n      iszero\n      tag_32\n      jumpi\n      0x00\n      dup1\n      revert\n    tag_32:\n      pop\n      tag_33\n      0x04\n      dup1\n      calldatasize\n      sub\n      dup2\n      add\n      swap1\n      tag_34\n      swap2\n      swap1\n      tag_35\n      jump\t// in\n    tag_34:\n      tag_36\n      jump\t// in\n    tag_33:\n      mload(0x40)\n      tag_37\n      swap2\n      swap1\n      tag_38\n      jump\t// in\n    tag_37:\n      mload(0x40)\n      dup1\n      swap2\n      sub\n      swap1\n      return\n        /* \"contracts/_ronx1.sol\":3382:4859  function registerUser(... */\n    tag_5:\n      tag_39\n      0x04\n      dup1\n      calldatasize\n      sub\n      dup2\n      add\n      swap1\n      tag_40\n      swap2\n      swap1\n      tag_41\n      jump\t// in\n    tag_40:\n      tag_42\n      jump\t// in\n    tag_39:\n      stop\n        /* \"contracts/_ronx1.sol\":623:652  uint256 public lastUserId = 2 */\n    tag_6:\n      callvalue\n      dup1\n      iszero\n      tag_43\n      jumpi\n      0x00\n      dup1\n      revert\n    tag_43:\n      pop\n      tag_44\n      tag_45\n      jump\t// in\n    tag_44:\n      mload(0x40)\n      tag_46\n      swap2\n      swap1\n      tag_47\n      jump\t// in\n    tag_46:\n      mload(0x40)\n      dup1\n      swap2\n      sub\n      swap1\n      return\n        /* \"contracts/_ronx1.sol\":7686:7814  function getUserReferrals(address _user) public view returns (address[] memory) {... */\n    tag_7:\n      callvalue\n      dup1\n      iszero\n      tag_48\n      jumpi\n      0x00\n      dup1\n      revert\n    tag_48:\n      pop\n      tag_49\n      0x04\n      dup1\n      calldatasize\n      sub\n      dup2\n      add\n      swap1\n      tag_50\n      swap2\n      swap1\n      tag_51\n      jump\t// in\n    tag_50:\n      tag_52\n      jump\t// in\n    tag_49:\n      mload(0x40)\n      tag_53\n      swap2\n      swap1\n      tag_54\n      jump\t// in\n    tag_53:\n      mload(0x40)\n      dup1\n      swap2\n      sub\n      swap1\n      return\n        /* \"contracts/_ronx1.sol\":7824:8413  function getUserInfo(address _user) public view returns (... */\n    tag_8:\n      callvalue\n      dup1\n      iszero\n      tag_55\n      jumpi\n      0x00\n      dup1\n      revert\n    tag_55:\n      pop\n      tag_56\n      0x04\n      dup1\n      calldatasize\n      sub\n      dup2\n      add\n      swap1\n      tag_57\n      swap2\n      swap1\n      tag_51\n      jump\t// in\n    tag_57:\n      tag_58\n      jump\t// in\n    tag_56:\n      mload(0x40)\n      tag_59\n      swap12\n      swap11\n      swap10\n      swap9\n      swap8\n      swap7\n      swap6\n      swap5\n      swap4\n      swap3\n      swap2\n      swap1\n      tag_60\n      jump\t// in\n    tag_59:\n      mload(0x40)\n      dup1\n      swap2\n      sub\n      swap1\n      return\n        /* \"contracts/_ronx1.sol\":752:800  uint256 public constant REGISTRATION_FEE = 25e18 */\n    tag_9:\n      callvalue\n      dup1\n      iszero\n      tag_61\n      jumpi\n      0x00\n      dup1\n      revert\n    tag_61:\n      pop\n      tag_62\n      tag_63\n      jump\t// in\n    tag_62:\n      mload(0x40)\n      tag_64\n      swap2\n      swap1\n      tag_47\n      jump\t// in\n    tag_64:\n      mload(0x40)\n      dup1\n      swap2\n      sub\n      swap1\n      return\n        /* \"contracts/_ronx1.sol\":8611:8717  function getUserById(uint256 _id) public view returns (address) {... */\n    tag_10:\n      callvalue\n      dup1\n      iszero\n      tag_65\n      jumpi\n      0x00\n      dup1\n      revert\n    tag_65:\n      pop\n      tag_66\n      0x04\n      dup1\n      calldatasize\n      sub\n      dup2\n      add\n      swap1\n      tag_67\n      swap2\n      swap1\n      tag_35\n      jump\t// in\n    tag_67:\n      tag_68\n      jump\t// in\n    tag_66:\n      mload(0x40)\n      tag_69\n      swap2\n      swap1\n      tag_38\n      jump\t// in\n    tag_69:\n      mload(0x40)\n      dup1\n      swap2\n      sub\n      swap1\n      return\n        /* \"contracts/_ronx1.sol\":8725:8908  function getLevelPrice(uint8 _level) public view returns (uint256) {... */\n    tag_11:\n      callvalue\n      dup1\n      iszero\n      tag_70\n      jumpi\n      0x00\n      dup1\n      revert\n    tag_70:\n      pop\n      tag_71\n      0x04\n      dup1\n      calldatasize\n      sub\n      dup2\n      add\n      swap1\n      tag_72\n      swap2\n      swap1\n      tag_73\n      jump\t// in\n    tag_72:\n      tag_74\n      jump\t// in\n    tag_71:\n      mload(0x40)\n      tag_75\n      swap2\n      swap1\n      tag_47\n      jump\t// in\n    tag_75:\n      mload(0x40)\n      dup1\n      swap2\n      sub\n      swap1\n      return\n        /* \"contracts/_ronx1.sol\":4867:5462  function buyLevel(uint8 _newLevel) public payable {... */\n    tag_12:\n      tag_76\n      0x04\n      dup1\n      calldatasize\n      sub\n      dup2\n      add\n      swap1\n      tag_77\n      swap2\n      swap1\n      tag_73\n      jump\t// in\n    tag_77:\n      tag_78\n      jump\t// in\n    tag_76:\n      stop\n        /* \"contracts/_ronx1.sol\":892:912  address public owner */\n    tag_13:\n      callvalue\n      dup1\n      iszero\n      tag_79\n      jumpi\n      0x00\n      dup1\n      revert\n    tag_79:\n      pop\n      tag_80\n      tag_81\n      jump\t// in\n    tag_80:\n      mload(0x40)\n      tag_82\n      swap2\n      swap1\n      tag_38\n      jump\t// in\n    tag_82:\n      mload(0x40)\n      dup1\n      swap2\n      sub\n      swap1\n      return\n        /* \"contracts/_ronx1.sol\":6252:7678  function payUpline(address _user) public payable {... */\n    tag_14:\n      tag_83\n      0x04\n      dup1\n      calldatasize\n      sub\n      dup2\n      add\n      swap1\n      tag_84\n      swap2\n      swap1\n      tag_51\n      jump\t// in\n    tag_84:\n      tag_85\n      jump\t// in\n    tag_83:\n      stop\n        /* \"contracts/_ronx1.sol\":703:745  uint256 public constant BASIC_PRICE = 5e18 */\n    tag_15:\n      callvalue\n      dup1\n      iszero\n      tag_86\n      jumpi\n      0x00\n      dup1\n      revert\n    tag_86:\n      pop\n      tag_87\n      tag_88\n      jump\t// in\n    tag_87:\n      mload(0x40)\n      tag_89\n      swap2\n      swap1\n      tag_47\n      jump\t// in\n    tag_89:\n      mload(0x40)\n      dup1\n      swap2\n      sub\n      swap1\n      return\n        /* \"contracts/_ronx1.sol\":474:511  mapping(address => User) public users */\n    tag_16:\n      callvalue\n      dup1\n      iszero\n      tag_90\n      jumpi\n      0x00\n      dup1\n      revert\n    tag_90:\n      pop\n      tag_91\n      0x04\n      dup1\n      calldatasize\n      sub\n      dup2\n      add\n      swap1\n      tag_92\n      swap2\n      swap1\n      tag_51\n      jump\t// in\n    tag_92:\n      tag_93\n      jump\t// in\n    tag_91:\n      mload(0x40)\n      tag_94\n      swap13\n      swap12\n      swap11\n      swap10\n      swap9\n      swap8\n      swap7\n      swap6\n      swap5\n      swap4\n      swap3\n      swap2\n      swap1\n      tag_95\n      jump\t// in\n    tag_94:\n      mload(0x40)\n      dup1\n      swap2\n      sub\n      swap1\n      return\n        /* \"contracts/_ronx1.sol\":5468:5707  function generateReferralLink(address userAddress) public view returns (string memory) {... */\n    tag_17:\n      callvalue\n      dup1\n      iszero\n      tag_96\n      jumpi\n      0x00\n      dup1\n      revert\n    tag_96:\n      pop\n      tag_97\n      0x04\n      dup1\n      calldatasize\n      sub\n      dup2\n      add\n      swap1\n      tag_98\n      swap2\n      swap1\n      tag_51\n      jump\t// in\n    tag_98:\n      tag_99\n      jump\t// in\n    tag_97:\n      mload(0x40)\n      tag_100\n      swap2\n      swap1\n      tag_101\n      jump\t// in\n    tag_100:\n      mload(0x40)\n      dup1\n      swap2\n      sub\n      swap1\n      return\n        /* \"contracts/_ronx1.sol\":8421:8603  function transactionHistory(address _user) public view returns (uint256, uint256) {... */\n    tag_18:\n      callvalue\n      dup1\n      iszero\n      tag_102\n      jumpi\n      0x00\n      dup1\n      revert\n    tag_102:\n      pop\n      tag_103\n      0x04\n      dup1\n      calldatasize\n      sub\n      dup2\n      add\n      swap1\n      tag_104\n      swap2\n      swap1\n      tag_51\n      jump\t// in\n    tag_104:\n      tag_105\n      jump\t// in\n    tag_103:\n      mload(0x40)\n      tag_106\n      swap3\n      swap2\n      swap1\n      tag_107\n      jump\t// in\n    tag_106:\n      mload(0x40)\n      dup1\n      swap2\n      sub\n      swap1\n      return\n        /* \"contracts/_ronx1.sol\":571:614  mapping(uint8 => uint256) public levelPrice */\n    tag_19:\n      callvalue\n      dup1\n      iszero\n      tag_108\n      jumpi\n      0x00\n      dup1\n      revert\n    tag_108:\n      pop\n      tag_109\n      0x04\n      dup1\n      calldatasize\n      sub\n      dup2\n      add\n      swap1\n      tag_110\n      swap2\n      swap1\n      tag_73\n      jump\t// in\n    tag_110:\n      tag_111\n      jump\t// in\n    tag_109:\n      mload(0x40)\n      tag_112\n      swap2\n      swap1\n      tag_47\n      jump\t// in\n    tag_112:\n      mload(0x40)\n      dup1\n      swap2\n      sub\n      swap1\n      return\n        /* \"contracts/_ronx1.sol\":2156:3374  function registerUpline(... */\n    tag_26:\n        /* \"contracts/_ronx1.sol\":2495:2496  0 */\n      0x00\n        /* \"contracts/_ronx1.sol\":2474:2479  users */\n      dup1\n        /* \"contracts/_ronx1.sol\":2474:2488  users[_upline] */\n      0x00\n        /* \"contracts/_ronx1.sol\":2480:2487  _upline */\n      dup8\n        /* \"contracts/_ronx1.sol\":2474:2488  users[_upline] */\n      0xffffffffffffffffffffffffffffffffffffffff\n      and\n      0xffffffffffffffffffffffffffffffffffffffff\n      and\n      dup2\n      mstore\n      0x20\n      add\n      swap1\n      dup2\n      mstore\n      0x20\n      add\n      0x00\n      keccak256\n        /* \"contracts/_ronx1.sol\":2474:2491  users[_upline].id */\n      0x01\n      add\n      sload\n        /* \"contracts/_ronx1.sol\":2474:2496  users[_upline].id == 0 */\n      eq\n        /* \"contracts/_ronx1.sol\":2466:2526  require(users[_upline].id == 0, \"Upline already registered\") */\n      tag_114\n      jumpi\n      mload(0x40)\n      0x08c379a000000000000000000000000000000000000000000000000000000000\n      dup2\n      mstore\n      0x04\n      add\n      tag_115\n      swap1\n      tag_116\n      jump\t// in\n    tag_115:\n      mload(0x40)\n      dup1\n      swap2\n      sub\n      swap1\n      revert\n    tag_114:\n        /* \"contracts/_ronx1.sol\":2670:3117  User({... */\n      mload(0x40)\n      dup1\n      0x01a0\n      add\n      0x40\n      mstore\n      dup1\n        /* \"contracts/_ronx1.sol\":2706:2707  0 */\n      0x00\n        /* \"contracts/_ronx1.sol\":2670:3117  User({... */\n      0xffffffffffffffffffffffffffffffffffffffff\n      and\n      dup2\n      mstore\n      0x20\n      add\n        /* \"contracts/_ronx1.sol\":2727:2737  lastUserId */\n      sload(0x03)\n        /* \"contracts/_ronx1.sol\":2670:3117  User({... */\n      dup2\n      mstore\n      0x20\n      add\n        /* \"contracts/_ronx1.sol\":2767:2768  0 */\n      0x00\n        /* \"contracts/_ronx1.sol\":2670:3117  User({... */\n      dup2\n      mstore\n      0x20\n      add\n        /* \"contracts/_ronx1.sol\":2795:2796  0 */\n      0x00\n        /* \"contracts/_ronx1.sol\":2670:3117  User({... */\n      dup2\n      mstore\n      0x20\n      add\n        /* \"contracts/_ronx1.sol\":2821:2822  0 */\n      0x00\n        /* \"contracts/_ronx1.sol\":2670:3117  User({... */\n      dup2\n      mstore\n      0x20\n      add\n        /* \"contracts/_ronx1.sol\":2851:2852  1 */\n      0x01\n        /* \"contracts/_ronx1.sol\":2670:3117  User({... */\n      dup2\n      mstore\n      0x20\n      add\n        /* \"contracts/_ronx1.sol\":2892:2893  0 */\n      0x00\n        /* \"contracts/_ronx1.sol\":2878:2894  new address[](0) */\n      0xffffffffffffffff\n      dup2\n      gt\n      iszero\n      tag_117\n      jumpi\n      tag_118\n      tag_119\n      jump\t// in\n    tag_118:\n    tag_117:\n      mload(0x40)\n      swap1\n      dup1\n      dup3\n      mstore\n      dup1\n      0x20\n      mul\n      0x20\n      add\n      dup3\n      add\n      0x40\n      mstore\n      dup1\n      iszero\n      tag_120\n      jumpi\n      dup2\n      0x20\n      add\n      0x20\n      dup3\n      mul\n      dup1\n      calldatasize\n      dup4\n      calldatacopy\n      dup1\n      dup3\n      add\n      swap2\n      pop\n      pop\n      swap1\n      pop\n    tag_120:\n      pop\n        /* \"contracts/_ronx1.sol\":2670:3117  User({... */\n      dup2\n      mstore\n      0x20\n      add\n        /* \"contracts/_ronx1.sol\":2921:2930  firstName */\n      dup6\n        /* \"contracts/_ronx1.sol\":2670:3117  User({... */\n      dup2\n      mstore\n      0x20\n      add\n        /* \"contracts/_ronx1.sol\":2955:2963  lastName */\n      dup5\n        /* \"contracts/_ronx1.sol\":2670:3117  User({... */\n      dup2\n      mstore\n      0x20\n      add\n        /* \"contracts/_ronx1.sol\":2990:3000  profilePic */\n      dup4\n        /* \"contracts/_ronx1.sol\":2670:3117  User({... */\n      dup2\n      mstore\n      0x20\n      add\n        /* \"contracts/_ronx1.sol\":3022:3027  email */\n      dup3\n        /* \"contracts/_ronx1.sol\":2670:3117  User({... */\n      dup2\n      mstore\n      0x20\n      add\n        /* \"contracts/_ronx1.sol\":3065:3066  0 */\n      0x00\n        /* \"contracts/_ronx1.sol\":3057:3067  bytes32(0) */\n      dup1\n      shl\n        /* \"contracts/_ronx1.sol\":2670:3117  User({... */\n      dup2\n      mstore\n      0x20\n      add\n        /* \"contracts/_ronx1.sol\":3103:3104  0 */\n      0x00\n        /* \"contracts/_ronx1.sol\":2670:3117  User({... */\n      0xffffffffffffffffffffffffffffffffffffffff\n      and\n      dup2\n      mstore\n      pop\n        /* \"contracts/_ronx1.sol\":2653:2658  users */\n      0x00\n        /* \"contracts/_ronx1.sol\":2653:2667  users[_upline] */\n      dup1\n        /* \"contracts/_ronx1.sol\":2659:2666  _upline */\n      dup8\n        /* \"contracts/_ronx1.sol\":2653:2667  users[_upline] */\n      0xffffffffffffffffffffffffffffffffffffffff\n      and\n      0xffffffffffffffffffffffffffffffffffffffff\n      and\n      dup2\n      mstore\n      0x20\n      add\n      swap1\n      dup2\n      mstore\n      0x20\n      add\n      0x00\n      keccak256\n        /* \"contracts/_ronx1.sol\":2653:3117  users[_upline] = User({... */\n      0x00\n      dup3\n      add\n      mload\n      dup2\n      0x00\n      add\n      exp(0x0100, 0x00)\n      dup2\n      sload\n      dup2\n      0xffffffffffffffffffffffffffffffffffffffff\n      mul\n      not\n      and\n      swap1\n      dup4\n      0xffffffffffffffffffffffffffffffffffffffff\n      and\n      mul\n      or\n      swap1\n      sstore\n      pop\n      0x20\n      dup3\n      add\n      mload\n      dup2\n      0x01\n      add\n      sstore\n      0x40\n      dup3\n      add\n      mload\n      dup2\n      0x02\n      add\n      sstore\n      0x60\n      dup3\n      add\n      mload\n      dup2\n      0x03\n      add\n      sstore\n      0x80\n      dup3\n      add\n      mload\n      dup2\n      0x04\n      add\n      sstore\n      0xa0\n      dup3\n      add\n      mload\n      dup2\n      0x05\n      add\n      sstore\n      0xc0\n      dup3\n      add\n      mload\n      dup2\n      0x06\n      add\n      swap1\n      dup1\n      mload\n      swap1\n      0x20\n      add\n      swap1\n      tag_121\n      swap3\n      swap2\n      swap1\n      tag_122\n      jump\t// in\n    tag_121:\n      pop\n      0xe0\n      dup3\n      add\n      mload\n      dup2\n      0x07\n      add\n      swap1\n      dup2\n      tag_123\n      swap2\n      swap1\n      tag_124\n      jump\t// in\n    tag_123:\n      pop\n      0x0100\n      dup3\n      add\n      mload\n      dup2\n      0x08\n      add\n      swap1\n      dup2\n      tag_125\n      swap2\n      swap1\n      tag_124\n      jump\t// in\n    tag_125:\n      pop\n      0x0120\n      dup3\n      add\n      mload\n      dup2\n      0x09\n      add\n      swap1\n      dup2\n      tag_126\n      swap2\n      swap1\n      tag_124\n      jump\t// in\n    tag_126:\n      pop\n      0x0140\n      dup3\n      add\n      mload\n      dup2\n      0x0a\n      add\n      swap1\n      dup2\n      tag_127\n      swap2\n      swap1\n      tag_124\n      jump\t// in\n    tag_127:\n      pop\n      0x0160\n      dup3\n      add\n      mload\n      dup2\n      0x0b\n      add\n      sstore\n      0x0180\n      dup3\n      add\n      mload\n      dup2\n      0x0c\n      add\n      exp(0x0100, 0x00)\n      dup2\n      sload\n      dup2\n      0xffffffffffffffffffffffffffffffffffffffff\n      mul\n      not\n      and\n      swap1\n      dup4\n      0xffffffffffffffffffffffffffffffffffffffff\n      and\n      mul\n      or\n      swap1\n      sstore\n      pop\n      swap1\n      pop\n      pop\n        /* \"contracts/_ronx1.sol\":3156:3163  _upline */\n      dup5\n        /* \"contracts/_ronx1.sol\":3130:3141  idToAddress */\n      0x01\n        /* \"contracts/_ronx1.sol\":3130:3153  idToAddress[lastUserId] */\n      0x00\n        /* \"contracts/_ronx1.sol\":3142:3152  lastUserId */\n      sload(0x03)\n        /* \"contracts/_ronx1.sol\":3130:3153  idToAddress[lastUserId] */\n      dup2\n      mstore\n      0x20\n      add\n      swap1\n      dup2\n      mstore\n      0x20\n      add\n      0x00\n      keccak256\n      0x00\n        /* \"contracts/_ronx1.sol\":3130:3163  idToAddress[lastUserId] = _upline */\n      0x0100\n      exp\n      dup2\n      sload\n      dup2\n      0xffffffffffffffffffffffffffffffffffffffff\n      mul\n      not\n      and\n      swap1\n      dup4\n      0xffffffffffffffffffffffffffffffffffffffff\n      and\n      mul\n      or\n      swap1\n      sstore\n      pop\n        /* \"contracts/_ronx1.sol\":3174:3184  lastUserId */\n      0x03\n      0x00\n        /* \"contracts/_ronx1.sol\":3174:3186  lastUserId++ */\n      dup2\n      sload\n      dup1\n      swap3\n      swap2\n      swap1\n      tag_128\n      swap1\n      tag_129\n      jump\t// in\n    tag_128:\n      swap2\n      swap1\n      pop\n      sstore\n      pop\n        /* \"contracts/_ronx1.sol\":3267:3272  owner */\n      0x04\n      0x00\n      swap1\n      sload\n      swap1\n      0x0100\n      exp\n      swap1\n      div\n      0xffffffffffffffffffffffffffffffffffffffff\n      and\n        /* \"contracts/_ronx1.sol\":3259:3282  payable(owner).transfer */\n      0xffffffffffffffffffffffffffffffffffffffff\n      and\n        /* \"contracts/_ronx1.sol\":3259:3293  payable(owner).transfer(msg.value) */\n      0x08fc\n        /* \"contracts/_ronx1.sol\":3283:3292  msg.value */\n      callvalue\n        /* \"contracts/_ronx1.sol\":3259:3293  payable(owner).transfer(msg.value) */\n      swap1\n      dup2\n      iszero\n      mul\n      swap1\n      mload(0x40)\n      0x00\n      mload(0x40)\n      dup1\n      dup4\n      sub\n      dup2\n      dup6\n      dup9\n      dup9\n      call\n      swap4\n      pop\n      pop\n      pop\n      pop\n      iszero\n      dup1\n      iszero\n      tag_131\n      jumpi\n      returndatasize\n      0x00\n      dup1\n      returndatacopy\n      revert(0x00, returndatasize)\n    tag_131:\n      pop\n        /* \"contracts/_ronx1.sol\":3341:3342  0 */\n      0x00\n        /* \"contracts/_ronx1.sol\":3311:3366  Registration(_upline, address(0), users[_upline].id, 0) */\n      0xffffffffffffffffffffffffffffffffffffffff\n      and\n        /* \"contracts/_ronx1.sol\":3324:3331  _upline */\n      dup6\n        /* \"contracts/_ronx1.sol\":3311:3366  Registration(_upline, address(0), users[_upline].id, 0) */\n      0xffffffffffffffffffffffffffffffffffffffff\n      and\n      0x309bb360e8b69c23937ccc5fb01f9aeeead1c95a99604e175113ff82f2b1723a\n        /* \"contracts/_ronx1.sol\":3345:3350  users */\n      0x00\n        /* \"contracts/_ronx1.sol\":3345:3359  users[_upline] */\n      dup1\n        /* \"contracts/_ronx1.sol\":3351:3358  _upline */\n      dup10\n        /* \"contracts/_ronx1.sol\":3345:3359  users[_upline] */\n      0xffffffffffffffffffffffffffffffffffffffff\n      and\n      0xffffffffffffffffffffffffffffffffffffffff\n      and\n      dup2\n      mstore\n      0x20\n      add\n      swap1\n      dup2\n      mstore\n      0x20\n      add\n      0x00\n      keccak256\n        /* \"contracts/_ronx1.sol\":3345:3362  users[_upline].id */\n      0x01\n      add\n      sload\n        /* \"contracts/_ronx1.sol\":3364:3365  0 */\n      0x00\n        /* \"contracts/_ronx1.sol\":3311:3366  Registration(_upline, address(0), users[_upline].id, 0) */\n      mload(0x40)\n      tag_132\n      swap3\n      swap2\n      swap1\n      tag_133\n      jump\t// in\n    tag_132:\n      mload(0x40)\n      dup1\n      swap2\n      sub\n      swap1\n      log3\n        /* \"contracts/_ronx1.sol\":2156:3374  function registerUpline(... */\n      pop\n      pop\n      pop\n      pop\n      pop\n      jump\t// out\n        /* \"contracts/_ronx1.sol\":659:696  uint8 public constant LAST_LEVEL = 12 */\n    tag_29:\n        /* \"contracts/_ronx1.sol\":694:696  12 */\n      0x0c\n        /* \"contracts/_ronx1.sol\":659:696  uint8 public constant LAST_LEVEL = 12 */\n      dup2\n      jump\t// out\n        /* \"contracts/_ronx1.sol\":518:564  mapping(uint256 => address) public idToAddress */\n    tag_36:\n      mstore(0x20, 0x01)\n      dup1\n      0x00\n      mstore\n      keccak256(0x00, 0x40)\n      0x00\n      swap2\n      pop\n      sload\n      swap1\n      0x0100\n      exp\n      swap1\n      div\n      0xffffffffffffffffffffffffffffffffffffffff\n      and\n      dup2\n      jump\t// out\n        /* \"contracts/_ronx1.sol\":3382:4859  function registerUser(... */\n    tag_42:\n        /* \"contracts/_ronx1.sol\":3687:3688  0 */\n      0x00\n        /* \"contracts/_ronx1.sol\":3666:3671  users */\n      dup1\n        /* \"contracts/_ronx1.sol\":3666:3680  users[_upline] */\n      0x00\n        /* \"contracts/_ronx1.sol\":3672:3679  _upline */\n      dup10\n        /* \"contracts/_ronx1.sol\":3666:3680  users[_upline] */\n      0xffffffffffffffffffffffffffffffffffffffff\n      and\n      0xffffffffffffffffffffffffffffffffffffffff\n      and\n      dup2\n      mstore\n      0x20\n      add\n      swap1\n      dup2\n      mstore\n      0x20\n      add\n      0x00\n      keccak256\n        /* \"contracts/_ronx1.sol\":3666:3683  users[_upline].id */\n      0x01\n      add\n      sload\n        /* \"contracts/_ronx1.sol\":3666:3688  users[_upline].id != 0 */\n      sub\n        /* \"contracts/_ronx1.sol\":3658:3714  require(users[_upline].id != 0, \"Upline does not exist\") */\n      tag_135\n      jumpi\n      mload(0x40)\n      0x08c379a000000000000000000000000000000000000000000000000000000000\n      dup2\n      mstore\n      0x04\n      add\n      tag_136\n      swap1\n      tag_137\n      jump\t// in\n    tag_136:\n      mload(0x40)\n      dup1\n      swap2\n      sub\n      swap1\n      revert\n    tag_135:\n        /* \"contracts/_ronx1.sol\":3885:3905  bytes32 passwordHash */\n      0x00\n        /* \"contracts/_ronx1.sol\":3935:3943  password */\n      dup3\n        /* \"contracts/_ronx1.sol\":3918:3944  abi.encodePacked(password) */\n      add(0x20, mload(0x40))\n      tag_138\n      swap2\n      swap1\n      tag_139\n      jump\t// in\n    tag_138:\n      mload(0x40)\n      0x20\n      dup2\n      dup4\n      sub\n      sub\n      dup2\n      mstore\n      swap1\n      0x40\n      mstore\n        /* \"contracts/_ronx1.sol\":3908:3945  keccak256(abi.encodePacked(password)) */\n      dup1\n      mload\n      swap1\n      0x20\n      add\n      keccak256\n        /* \"contracts/_ronx1.sol\":3885:3945  bytes32 passwordHash = keccak256(abi.encodePacked(password)) */\n      swap1\n      pop\n        /* \"contracts/_ronx1.sol\":4006:4451  User({... */\n      mload(0x40)\n      dup1\n      0x01a0\n      add\n      0x40\n      mstore\n      dup1\n        /* \"contracts/_ronx1.sol\":4034:4041  _upline */\n      dup10\n        /* \"contracts/_ronx1.sol\":4006:4451  User({... */\n      0xffffffffffffffffffffffffffffffffffffffff\n      and\n      dup2\n      mstore\n      0x20\n      add\n        /* \"contracts/_ronx1.sol\":4060:4070  lastUserId */\n      sload(0x03)\n        /* \"contracts/_ronx1.sol\":4006:4451  User({... */\n      dup2\n      mstore\n      0x20\n      add\n        /* \"contracts/_ronx1.sol\":4100:4101  0 */\n      0x00\n        /* \"contracts/_ronx1.sol\":4006:4451  User({... */\n      dup2\n      mstore\n      0x20\n      add\n        /* \"contracts/_ronx1.sol\":4128:4129  0 */\n      0x00\n        /* \"contracts/_ronx1.sol\":4006:4451  User({... */\n      dup2\n      mstore\n      0x20\n      add\n        /* \"contracts/_ronx1.sol\":4154:4155  0 */\n      0x00\n        /* \"contracts/_ronx1.sol\":4006:4451  User({... */\n      dup2\n      mstore\n      0x20\n      add\n        /* \"contracts/_ronx1.sol\":4184:4185  1 */\n      0x01\n        /* \"contracts/_ronx1.sol\":4006:4451  User({... */\n      dup2\n      mstore\n      0x20\n      add\n        /* \"contracts/_ronx1.sol\":4225:4226  0 */\n      0x00\n        /* \"contracts/_ronx1.sol\":4211:4227  new address[](0) */\n      0xffffffffffffffff\n      dup2\n      gt\n      iszero\n      tag_140\n      jumpi\n      tag_141\n      tag_119\n      jump\t// in\n    tag_141:\n    tag_140:\n      mload(0x40)\n      swap1\n      dup1\n      dup3\n      mstore\n      dup1\n      0x20\n      mul\n      0x20\n      add\n      dup3\n      add\n      0x40\n      mstore\n      dup1\n      iszero\n      tag_142\n      jumpi\n      dup2\n      0x20\n      add\n      0x20\n      dup3\n      mul\n      dup1\n      calldatasize\n      dup4\n      calldatacopy\n      dup1\n      dup3\n      add\n      swap2\n      pop\n      pop\n      swap1\n      pop\n    tag_142:\n      pop\n        /* \"contracts/_ronx1.sol\":4006:4451  User({... */\n      dup2\n      mstore\n      0x20\n      add\n        /* \"contracts/_ronx1.sol\":4253:4262  firstName */\n      dup9\n        /* \"contracts/_ronx1.sol\":4006:4451  User({... */\n      dup2\n      mstore\n      0x20\n      add\n        /* \"contracts/_ronx1.sol\":4287:4295  lastName */\n      dup8\n        /* \"contracts/_ronx1.sol\":4006:4451  User({... */\n      dup2\n      mstore\n      0x20\n      add\n        /* \"contracts/_ronx1.sol\":4322:4332  profilePic */\n      dup7\n        /* \"contracts/_ronx1.sol\":4006:4451  User({... */\n      dup2\n      mstore\n      0x20\n      add\n        /* \"contracts/_ronx1.sol\":4354:4359  email */\n      dup6\n        /* \"contracts/_ronx1.sol\":4006:4451  User({... */\n      dup2\n      mstore\n      0x20\n      add\n        /* \"contracts/_ronx1.sol\":4388:4400  passwordHash */\n      dup3\n        /* \"contracts/_ronx1.sol\":4006:4451  User({... */\n      dup2\n      mstore\n      0x20\n      add\n        /* \"contracts/_ronx1.sol\":4428:4439  userAddress */\n      dup4\n        /* \"contracts/_ronx1.sol\":4006:4451  User({... */\n      0xffffffffffffffffffffffffffffffffffffffff\n      and\n      dup2\n      mstore\n      pop\n        /* \"contracts/_ronx1.sol\":3986:3991  users */\n      0x00\n        /* \"contracts/_ronx1.sol\":3986:4003  users[msg.sender] */\n      dup1\n        /* \"contracts/_ronx1.sol\":3992:4002  msg.sender */\n      caller\n        /* \"contracts/_ronx1.sol\":3986:4003  users[msg.sender] */\n      0xffffffffffffffffffffffffffffffffffffffff\n      and\n      0xffffffffffffffffffffffffffffffffffffffff\n      and\n      dup2\n      mstore\n      0x20\n      add\n      swap1\n      dup2\n      mstore\n      0x20\n      add\n      0x00\n      keccak256\n        /* \"contracts/_ronx1.sol\":3986:4451  users[msg.sender] = User({... */\n      0x00\n      dup3\n      add\n      mload\n      dup2\n      0x00\n      add\n      exp(0x0100, 0x00)\n      dup2\n      sload\n      dup2\n      0xffffffffffffffffffffffffffffffffffffffff\n      mul\n      not\n      and\n      swap1\n      dup4\n      0xffffffffffffffffffffffffffffffffffffffff\n      and\n      mul\n      or\n      swap1\n      sstore\n      pop\n      0x20\n      dup3\n      add\n      mload\n      dup2\n      0x01\n      add\n      sstore\n      0x40\n      dup3\n      add\n      mload\n      dup2\n      0x02\n      add\n      sstore\n      0x60\n      dup3\n      add\n      mload\n      dup2\n      0x03\n      add\n      sstore\n      0x80\n      dup3\n      add\n      mload\n      dup2\n      0x04\n      add\n      sstore\n      0xa0\n      dup3\n      add\n      mload\n      dup2\n      0x05\n      add\n      sstore\n      0xc0\n      dup3\n      add\n      mload\n      dup2\n      0x06\n      add\n      swap1\n      dup1\n      mload\n      swap1\n      0x20\n      add\n      swap1\n      tag_143\n      swap3\n      swap2\n      swap1\n      tag_122\n      jump\t// in\n    tag_143:\n      pop\n      0xe0\n      dup3\n      add\n      mload\n      dup2\n      0x07\n      add\n      swap1\n      dup2\n      tag_144\n      swap2\n      swap1\n      tag_124\n      jump\t// in\n    tag_144:\n      pop\n      0x0100\n      dup3\n      add\n      mload\n      dup2\n      0x08\n      add\n      swap1\n      dup2\n      tag_145\n      swap2\n      swap1\n      tag_124\n      jump\t// in\n    tag_145:\n      pop\n      0x0120\n      dup3\n      add\n      mload\n      dup2\n      0x09\n      add\n      swap1\n      dup2\n      tag_146\n      swap2\n      swap1\n      tag_124\n      jump\t// in\n    tag_146:\n      pop\n      0x0140\n      dup3\n      add\n      mload\n      dup2\n      0x0a\n      add\n      swap1\n      dup2\n      tag_147\n      swap2\n      swap1\n      tag_124\n      jump\t// in\n    tag_147:\n      pop\n      0x0160\n      dup3\n      add\n      mload\n      dup2\n      0x0b\n      add\n      sstore\n      0x0180\n      dup3\n      add\n      mload\n      dup2\n      0x0c\n      add\n      exp(0x0100, 0x00)\n      dup2\n      sload\n      dup2\n      0xffffffffffffffffffffffffffffffffffffffff\n      mul\n      not\n      and\n      swap1\n      dup4\n      0xffffffffffffffffffffffffffffffffffffffff\n      and\n      mul\n      or\n      swap1\n      sstore\n      pop\n      swap1\n      pop\n      pop\n        /* \"contracts/_ronx1.sol\":4490:4500  msg.sender */\n      caller\n        /* \"contracts/_ronx1.sol\":4464:4475  idToAddress */\n      0x01\n        /* \"contracts/_ronx1.sol\":4464:4487  idToAddress[lastUserId] */\n      0x00\n        /* \"contracts/_ronx1.sol\":4476:4486  lastUserId */\n      sload(0x03)\n        /* \"contracts/_ronx1.sol\":4464:4487  idToAddress[lastUserId] */\n      dup2\n      mstore\n      0x20\n      add\n      swap1\n      dup2\n      mstore\n      0x20\n      add\n      0x00\n      keccak256\n      0x00\n        /* \"contracts/_ronx1.sol\":4464:4500  idToAddress[lastUserId] = msg.sender */\n      0x0100\n      exp\n      dup2\n      sload\n      dup2\n      0xffffffffffffffffffffffffffffffffffffffff\n      mul\n      not\n      and\n      swap1\n      dup4\n      0xffffffffffffffffffffffffffffffffffffffff\n      and\n      mul\n      or\n      swap1\n      sstore\n      pop\n        /* \"contracts/_ronx1.sol\":4511:4521  lastUserId */\n      0x03\n      0x00\n        /* \"contracts/_ronx1.sol\":4511:4523  lastUserId++ */\n      dup2\n      sload\n      dup1\n      swap3\n      swap2\n      swap1\n      tag_148\n      swap1\n      tag_129\n      jump\t// in\n    tag_148:\n      swap2\n      swap1\n      pop\n      sstore\n      pop\n        /* \"contracts/_ronx1.sol\":4536:4541  users */\n      0x00\n        /* \"contracts/_ronx1.sol\":4536:4550  users[_upline] */\n      dup1\n        /* \"contracts/_ronx1.sol\":4542:4549  _upline */\n      dup10\n        /* \"contracts/_ronx1.sol\":4536:4550  users[_upline] */\n      0xffffffffffffffffffffffffffffffffffffffff\n      and\n      0xffffffffffffffffffffffffffffffffffffffff\n      and\n      dup2\n      mstore\n      0x20\n      add\n      swap1\n      dup2\n      mstore\n      0x20\n      add\n      0x00\n      keccak256\n        /* \"contracts/_ronx1.sol\":4536:4564  users[_upline].referralCount */\n      0x02\n      add\n      0x00\n        /* \"contracts/_ronx1.sol\":4536:4566  users[_upline].referralCount++ */\n      dup2\n      sload\n      dup1\n      swap3\n      swap2\n      swap1\n      tag_149\n      swap1\n      tag_129\n      jump\t// in\n    tag_149:\n      swap2\n      swap1\n      pop\n      sstore\n      pop\n        /* \"contracts/_ronx1.sol\":4577:4582  users */\n      0x00\n        /* \"contracts/_ronx1.sol\":4577:4591  users[_upline] */\n      dup1\n        /* \"contracts/_ronx1.sol\":4583:4590  _upline */\n      dup10\n        /* \"contracts/_ronx1.sol\":4577:4591  users[_upline] */\n      0xffffffffffffffffffffffffffffffffffffffff\n      and\n      0xffffffffffffffffffffffffffffffffffffffff\n      and\n      dup2\n      mstore\n      0x20\n      add\n      swap1\n      dup2\n      mstore\n      0x20\n      add\n      0x00\n      keccak256\n        /* \"contracts/_ronx1.sol\":4577:4601  users[_upline].referrals */\n      0x06\n      add\n        /* \"contracts/_ronx1.sol\":4607:4617  msg.sender */\n      caller\n        /* \"contracts/_ronx1.sol\":4577:4618  users[_upline].referrals.push(msg.sender) */\n      swap1\n      dup1\n      0x01\n      dup2\n      sload\n      add\n      dup1\n      dup3\n      sstore\n      dup1\n      swap2\n      pop\n      pop\n      0x01\n      swap1\n      sub\n      swap1\n      0x00\n      mstore\n      keccak256(0x00, 0x20)\n      add\n      0x00\n      swap1\n      swap2\n      swap1\n      swap2\n      swap1\n      swap2\n      0x0100\n      exp\n      dup2\n      sload\n      dup2\n      0xffffffffffffffffffffffffffffffffffffffff\n      mul\n      not\n      and\n      swap1\n      dup4\n      0xffffffffffffffffffffffffffffffffffffffff\n      and\n      mul\n      or\n      swap1\n      sstore\n      pop\n        /* \"contracts/_ronx1.sol\":4699:4704  owner */\n      0x04\n      0x00\n      swap1\n      sload\n      swap1\n      0x0100\n      exp\n      swap1\n      div\n      0xffffffffffffffffffffffffffffffffffffffff\n      and\n        /* \"contracts/_ronx1.sol\":4691:4714  payable(owner).transfer */\n      0xffffffffffffffffffffffffffffffffffffffff\n      and\n        /* \"contracts/_ronx1.sol\":4691:4725  payable(owner).transfer(msg.value) */\n      0x08fc\n        /* \"contracts/_ronx1.sol\":4715:4724  msg.value */\n      callvalue\n        /* \"contracts/_ronx1.sol\":4691:4725  payable(owner).transfer(msg.value) */\n      swap1\n      dup2\n      iszero\n      mul\n      swap1\n      mload(0x40)\n      0x00\n      mload(0x40)\n      dup1\n      dup4\n      sub\n      dup2\n      dup6\n      dup9\n      dup9\n      call\n      swap4\n      pop\n      pop\n      pop\n      pop\n      iszero\n      dup1\n      iszero\n      tag_152\n      jumpi\n      returndatasize\n      0x00\n      dup1\n      returndatacopy\n      revert(0x00, returndatasize)\n    tag_152:\n      pop\n        /* \"contracts/_ronx1.sol\":4738:4759  payUpline(msg.sender) */\n      tag_153\n        /* \"contracts/_ronx1.sol\":4748:4758  msg.sender */\n      caller\n        /* \"contracts/_ronx1.sol\":4738:4747  payUpline */\n      tag_85\n        /* \"contracts/_ronx1.sol\":4738:4759  payUpline(msg.sender) */\n      jump\t// in\n    tag_153:\n        /* \"contracts/_ronx1.sol\":4802:4809  _upline */\n      dup8\n        /* \"contracts/_ronx1.sol\":4777:4851  Registration(msg.sender, _upline, users[msg.sender].id, users[_upline].id) */\n      0xffffffffffffffffffffffffffffffffffffffff\n      and\n        /* \"contracts/_ronx1.sol\":4790:4800  msg.sender */\n      caller\n        /* \"contracts/_ronx1.sol\":4777:4851  Registration(msg.sender, _upline, users[msg.sender].id, users[_upline].id) */\n      0xffffffffffffffffffffffffffffffffffffffff\n      and\n      0x309bb360e8b69c23937ccc5fb01f9aeeead1c95a99604e175113ff82f2b1723a\n        /* \"contracts/_ronx1.sol\":4811:4816  users */\n      0x00\n        /* \"contracts/_ronx1.sol\":4811:4828  users[msg.sender] */\n      dup1\n        /* \"contracts/_ronx1.sol\":4817:4827  msg.sender */\n      caller\n        /* \"contracts/_ronx1.sol\":4811:4828  users[msg.sender] */\n      0xffffffffffffffffffffffffffffffffffffffff\n      and\n      0xffffffffffffffffffffffffffffffffffffffff\n      and\n      dup2\n      mstore\n      0x20\n      add\n      swap1\n      dup2\n      mstore\n      0x20\n      add\n      0x00\n      keccak256\n        /* \"contracts/_ronx1.sol\":4811:4831  users[msg.sender].id */\n      0x01\n      add\n      sload\n        /* \"contracts/_ronx1.sol\":4833:4838  users */\n      0x00\n        /* \"contracts/_ronx1.sol\":4833:4847  users[_upline] */\n      dup1\n        /* \"contracts/_ronx1.sol\":4839:4846  _upline */\n      dup14\n        /* \"contracts/_ronx1.sol\":4833:4847  users[_upline] */\n      0xffffffffffffffffffffffffffffffffffffffff\n      and\n      0xffffffffffffffffffffffffffffffffffffffff\n      and\n      dup2\n      mstore\n      0x20\n      add\n      swap1\n      dup2\n      mstore\n      0x20\n      add\n      0x00\n      keccak256\n        /* \"contracts/_ronx1.sol\":4833:4850  users[_upline].id */\n      0x01\n      add\n      sload\n        /* \"contracts/_ronx1.sol\":4777:4851  Registration(msg.sender, _upline, users[msg.sender].id, users[_upline].id) */\n      mload(0x40)\n      tag_154\n      swap3\n      swap2\n      swap1\n      tag_107\n      jump\t// in\n    tag_154:\n      mload(0x40)\n      dup1\n      swap2\n      sub\n      swap1\n      log3\n        /* \"contracts/_ronx1.sol\":3647:4859  {... */\n      pop\n        /* \"contracts/_ronx1.sol\":3382:4859  function registerUser(... */\n      pop\n      pop\n      pop\n      pop\n      pop\n      pop\n      pop\n      jump\t// out\n        /* \"contracts/_ronx1.sol\":623:652  uint256 public lastUserId = 2 */\n    tag_45:\n      sload(0x03)\n      dup2\n      jump\t// out\n        /* \"contracts/_ronx1.sol\":7686:7814  function getUserReferrals(address _user) public view returns (address[] memory) {... */\n    tag_52:\n        /* \"contracts/_ronx1.sol\":7748:7764  address[] memory */\n      0x60\n        /* \"contracts/_ronx1.sol\":7784:7789  users */\n      0x00\n        /* \"contracts/_ronx1.sol\":7784:7796  users[_user] */\n      dup1\n        /* \"contracts/_ronx1.sol\":7790:7795  _user */\n      dup4\n        /* \"contracts/_ronx1.sol\":7784:7796  users[_user] */\n      0xffffffffffffffffffffffffffffffffffffffff\n      and\n      0xffffffffffffffffffffffffffffffffffffffff\n      and\n      dup2\n      mstore\n      0x20\n      add\n      swap1\n      dup2\n      mstore\n      0x20\n      add\n      0x00\n      keccak256\n        /* \"contracts/_ronx1.sol\":7784:7806  users[_user].referrals */\n      0x06\n      add\n        /* \"contracts/_ronx1.sol\":7777:7806  return users[_user].referrals */\n      dup1\n      sload\n      dup1\n      0x20\n      mul\n      0x20\n      add\n      mload(0x40)\n      swap1\n      dup2\n      add\n      0x40\n      mstore\n      dup1\n      swap3\n      swap2\n      swap1\n      dup2\n      dup2\n      mstore\n      0x20\n      add\n      dup3\n      dup1\n      sload\n      dup1\n      iszero\n      tag_156\n      jumpi\n      0x20\n      mul\n      dup3\n      add\n      swap2\n      swap1\n      0x00\n      mstore\n      keccak256(0x00, 0x20)\n      swap1\n    tag_157:\n      dup2\n      0x00\n      swap1\n      sload\n      swap1\n      0x0100\n      exp\n      swap1\n      div\n      0xffffffffffffffffffffffffffffffffffffffff\n      and\n      0xffffffffffffffffffffffffffffffffffffffff\n      and\n      dup2\n      mstore\n      0x20\n      add\n      swap1\n      0x01\n      add\n      swap1\n      dup1\n      dup4\n      gt\n      tag_157\n      jumpi\n    tag_156:\n      pop\n      pop\n      pop\n      pop\n      pop\n      swap1\n      pop\n        /* \"contracts/_ronx1.sol\":7686:7814  function getUserReferrals(address _user) public view returns (address[] memory) {... */\n      swap2\n      swap1\n      pop\n      jump\t// out\n        /* \"contracts/_ronx1.sol\":7824:8413  function getUserInfo(address _user) public view returns (... */\n    tag_58:\n        /* \"contracts/_ronx1.sol\":7891:7898  address */\n      0x00\n        /* \"contracts/_ronx1.sol\":7900:7907  uint256 */\n      dup1\n        /* \"contracts/_ronx1.sol\":7909:7916  uint256 */\n      0x00\n        /* \"contracts/_ronx1.sol\":7918:7925  uint256 */\n      dup1\n        /* \"contracts/_ronx1.sol\":7927:7934  uint256 */\n      0x00\n        /* \"contracts/_ronx1.sol\":7936:7943  uint256 */\n      dup1\n        /* \"contracts/_ronx1.sol\":7945:7958  string memory */\n      0x60\n        /* \"contracts/_ronx1.sol\":7960:7973  string memory */\n      dup1\n        /* \"contracts/_ronx1.sol\":7975:7988  string memory */\n      0x60\n        /* \"contracts/_ronx1.sol\":7990:8003  string memory */\n      dup1\n        /* \"contracts/_ronx1.sol\":8005:8012  address */\n      0x00\n        /* \"contracts/_ronx1.sol\":8031:8047  User memory user */\n      dup1\n        /* \"contracts/_ronx1.sol\":8050:8055  users */\n      0x00\n        /* \"contracts/_ronx1.sol\":8050:8062  users[_user] */\n      dup1\n        /* \"contracts/_ronx1.sol\":8056:8061  _user */\n      dup15\n        /* \"contracts/_ronx1.sol\":8050:8062  users[_user] */\n      0xffffffffffffffffffffffffffffffffffffffff\n      and\n      0xffffffffffffffffffffffffffffffffffffffff\n      and\n      dup2\n      mstore\n      0x20\n      add\n      swap1\n      dup2\n      mstore\n      0x20\n      add\n      0x00\n      keccak256\n        /* \"contracts/_ronx1.sol\":8031:8062  User memory user = users[_user] */\n      mload(0x40)\n      dup1\n      0x01a0\n      add\n      0x40\n      mstore\n      swap1\n      dup2\n      0x00\n      dup3\n      add\n      0x00\n      swap1\n      sload\n      swap1\n      0x0100\n      exp\n      swap1\n      div\n      0xffffffffffffffffffffffffffffffffffffffff\n      and\n      0xffffffffffffffffffffffffffffffffffffffff\n      and\n      0xffffffffffffffffffffffffffffffffffffffff\n      and\n      dup2\n      mstore\n      0x20\n      add\n      0x01\n      dup3\n      add\n      sload\n      dup2\n      mstore\n      0x20\n      add\n      0x02\n      dup3\n      add\n      sload\n      dup2\n      mstore\n      0x20\n      add\n      0x03\n      dup3\n      add\n      sload\n      dup2\n      mstore\n      0x20\n      add\n      0x04\n      dup3\n      add\n      sload\n      dup2\n      mstore\n      0x20\n      add\n      0x05\n      dup3\n      add\n      sload\n      dup2\n      mstore\n      0x20\n      add\n      0x06\n      dup3\n      add\n      dup1\n      sload\n      dup1\n      0x20\n      mul\n      0x20\n      add\n      mload(0x40)\n      swap1\n      dup2\n      add\n      0x40\n      mstore\n      dup1\n      swap3\n      swap2\n      swap1\n      dup2\n      dup2\n      mstore\n      0x20\n      add\n      dup3\n      dup1\n      sload\n      dup1\n      iszero\n      tag_159\n      jumpi\n      0x20\n      mul\n      dup3\n      add\n      swap2\n      swap1\n      0x00\n      mstore\n      keccak256(0x00, 0x20)\n      swap1\n    tag_160:\n      dup2\n      0x00\n      swap1\n      sload\n      swap1\n      0x0100\n      exp\n      swap1\n      div\n      0xffffffffffffffffffffffffffffffffffffffff\n      and\n      0xffffffffffffffffffffffffffffffffffffffff\n      and\n      dup2\n      mstore\n      0x20\n      add\n      swap1\n      0x01\n      add\n      swap1\n      dup1\n      dup4\n      gt\n      tag_160\n      jumpi\n    tag_159:\n      pop\n      pop\n      pop\n      pop\n      pop\n      dup2\n      mstore\n      0x20\n      add\n      0x07\n      dup3\n      add\n      dup1\n      sload\n      tag_161\n      swap1\n      tag_162\n      jump\t// in\n    tag_161:\n      dup1\n      0x1f\n      add\n      0x20\n      dup1\n      swap2\n      div\n      mul\n      0x20\n      add\n      mload(0x40)\n      swap1\n      dup2\n      add\n      0x40\n      mstore\n      dup1\n      swap3\n      swap2\n      swap1\n      dup2\n      dup2\n      mstore\n      0x20\n      add\n      dup3\n      dup1\n      sload\n      tag_163\n      swap1\n      tag_162\n      jump\t// in\n    tag_163:\n      dup1\n      iszero\n      tag_164\n      jumpi\n      dup1\n      0x1f\n      lt\n      tag_165\n      jumpi\n      0x0100\n      dup1\n      dup4\n      sload\n      div\n      mul\n      dup4\n      mstore\n      swap2\n      0x20\n      add\n      swap2\n      jump(tag_164)\n    tag_165:\n      dup3\n      add\n      swap2\n      swap1\n      0x00\n      mstore\n      keccak256(0x00, 0x20)\n      swap1\n    tag_166:\n      dup2\n      sload\n      dup2\n      mstore\n      swap1\n      0x01\n      add\n      swap1\n      0x20\n      add\n      dup1\n      dup4\n      gt\n      tag_166\n      jumpi\n      dup3\n      swap1\n      sub\n      0x1f\n      and\n      dup3\n      add\n      swap2\n    tag_164:\n      pop\n      pop\n      pop\n      pop\n      pop\n      dup2\n      mstore\n      0x20\n      add\n      0x08\n      dup3\n      add\n      dup1\n      sload\n      tag_167\n      swap1\n      tag_162\n      jump\t// in\n    tag_167:\n      dup1\n      0x1f\n      add\n      0x20\n      dup1\n      swap2\n      div\n      mul\n      0x20\n      add\n      mload(0x40)\n      swap1\n      dup2\n      add\n      0x40\n      mstore\n      dup1\n      swap3\n      swap2\n      swap1\n      dup2\n      dup2\n      mstore\n      0x20\n      add\n      dup3\n      dup1\n      sload\n      tag_168\n      swap1\n      tag_162\n      jump\t// in\n    tag_168:\n      dup1\n      iszero\n      tag_169\n      jumpi\n      dup1\n      0x1f\n      lt\n      tag_170\n      jumpi\n      0x0100\n      dup1\n      dup4\n      sload\n      div\n      mul\n      dup4\n      mstore\n      swap2\n      0x20\n      add\n      swap2\n      jump(tag_169)\n    tag_170:\n      dup3\n      add\n      swap2\n      swap1\n      0x00\n      mstore\n      keccak256(0x00, 0x20)\n      swap1\n    tag_171:\n      dup2\n      sload\n      dup2\n      mstore\n      swap1\n      0x01\n      add\n      swap1\n      0x20\n      add\n      dup1\n      dup4\n      gt\n      tag_171\n      jumpi\n      dup3\n      swap1\n      sub\n      0x1f\n      and\n      dup3\n      add\n      swap2\n    tag_169:\n      pop\n      pop\n      pop\n      pop\n      pop\n      dup2\n      mstore\n      0x20\n      add\n      0x09\n      dup3\n      add\n      dup1\n      sload\n      tag_172\n      swap1\n      tag_162\n      jump\t// in\n    tag_172:\n      dup1\n      0x1f\n      add\n      0x20\n      dup1\n      swap2\n      div\n      mul\n      0x20\n      add\n      mload(0x40)\n      swap1\n      dup2\n      add\n      0x40\n      mstore\n      dup1\n      swap3\n      swap2\n      swap1\n      dup2\n      dup2\n      mstore\n      0x20\n      add\n      dup3\n      dup1\n      sload\n      tag_173\n      swap1\n      tag_162\n      jump\t// in\n    tag_173:\n      dup1\n      iszero\n      tag_174\n      jumpi\n      dup1\n      0x1f\n      lt\n      tag_175\n      jumpi\n      0x0100\n      dup1\n      dup4\n      sload\n      div\n      mul\n      dup4\n      mstore\n      swap2\n      0x20\n      add\n      swap2\n      jump(tag_174)\n    tag_175:\n      dup3\n      add\n      swap2\n      swap1\n      0x00\n      mstore\n      keccak256(0x00, 0x20)\n      swap1\n    tag_176:\n      dup2\n      sload\n      dup2\n      mstore\n      swap1\n      0x01\n      add\n      swap1\n      0x20\n      add\n      dup1\n      dup4\n      gt\n      tag_176\n      jumpi\n      dup3\n      swap1\n      sub\n      0x1f\n      and\n      dup3\n      add\n      swap2\n    tag_174:\n      pop\n      pop\n      pop\n      pop\n      pop\n      dup2\n      mstore\n      0x20\n      add\n      0x0a\n      dup3\n      add\n      dup1\n      sload\n      tag_177\n      swap1\n      tag_162\n      jump\t// in\n    tag_177:\n      dup1\n      0x1f\n      add\n      0x20\n      dup1\n      swap2\n      div\n      mul\n      0x20\n      add\n      mload(0x40)\n      swap1\n      dup2\n      add\n      0x40\n      mstore\n      dup1\n      swap3\n      swap2\n      swap1\n      dup2\n      dup2\n      mstore\n      0x20\n      add\n      dup3\n      dup1\n      sload\n      tag_178\n      swap1\n      tag_162\n      jump\t// in\n    tag_178:\n      dup1\n      iszero\n      tag_179\n      jumpi\n      dup1\n      0x1f\n      lt\n      tag_180\n      jumpi\n      0x0100\n      dup1\n      dup4\n      sload\n      div\n      mul\n      dup4\n      mstore\n      swap2\n      0x20\n      add\n      swap2\n      jump(tag_179)\n    tag_180:\n      dup3\n      add\n      swap2\n      swap1\n      0x00\n      mstore\n      keccak256(0x00, 0x20)\n      swap1\n    tag_181:\n      dup2\n      sload\n      dup2\n      mstore\n      swap1\n      0x01\n      add\n      swap1\n      0x20\n      add\n      dup1\n      dup4\n      gt\n      tag_181\n      jumpi\n      dup3\n      swap1\n      sub\n      0x1f\n      and\n      dup3\n      add\n      swap2\n    tag_179:\n      pop\n      pop\n      pop\n      pop\n      pop\n      dup2\n      mstore\n      0x20\n      add\n      0x0b\n      dup3\n      add\n      sload\n      dup2\n      mstore\n      0x20\n      add\n      0x0c\n      dup3\n      add\n      0x00\n      swap1\n      sload\n      swap1\n      0x0100\n      exp\n      swap1\n      div\n      0xffffffffffffffffffffffffffffffffffffffff\n      and\n      0xffffffffffffffffffffffffffffffffffffffff\n      and\n      0xffffffffffffffffffffffffffffffffffffffff\n      and\n      dup2\n      mstore\n      pop\n      pop\n      swap1\n      pop\n        /* \"contracts/_ronx1.sol\":8095:8099  user */\n      dup1\n        /* \"contracts/_ronx1.sol\":8095:8106  user.upline */\n      0x00\n      add\n      mload\n        /* \"contracts/_ronx1.sol\":8121:8125  user */\n      dup2\n        /* \"contracts/_ronx1.sol\":8121:8128  user.id */\n      0x20\n      add\n      mload\n        /* \"contracts/_ronx1.sol\":8143:8147  user */\n      dup3\n        /* \"contracts/_ronx1.sol\":8143:8161  user.referralCount */\n      0x40\n      add\n      mload\n        /* \"contracts/_ronx1.sol\":8176:8180  user */\n      dup4\n        /* \"contracts/_ronx1.sol\":8176:8191  user.cycleCount */\n      0x60\n      add\n      mload\n        /* \"contracts/_ronx1.sol\":8206:8210  user */\n      dup5\n        /* \"contracts/_ronx1.sol\":8206:8219  user.earnings */\n      0x80\n      add\n      mload\n        /* \"contracts/_ronx1.sol\":8234:8238  user */\n      dup6\n        /* \"contracts/_ronx1.sol\":8234:8251  user.partnerLevel */\n      0xa0\n      add\n      mload\n        /* \"contracts/_ronx1.sol\":8266:8270  user */\n      dup7\n        /* \"contracts/_ronx1.sol\":8266:8280  user.firstName */\n      0xe0\n      add\n      mload\n        /* \"contracts/_ronx1.sol\":8295:8299  user */\n      dup8\n        /* \"contracts/_ronx1.sol\":8295:8308  user.lastName */\n      0x0100\n      add\n      mload\n        /* \"contracts/_ronx1.sol\":8323:8327  user */\n      dup9\n        /* \"contracts/_ronx1.sol\":8323:8338  user.profilePic */\n      0x0120\n      add\n      mload\n        /* \"contracts/_ronx1.sol\":8353:8357  user */\n      dup10\n        /* \"contracts/_ronx1.sol\":8353:8363  user.email */\n      0x0140\n      add\n      mload\n        /* \"contracts/_ronx1.sol\":8378:8382  user */\n      dup11\n        /* \"contracts/_ronx1.sol\":8378:8394  user.userAddress */\n      0x0180\n      add\n      mload\n        /* \"contracts/_ronx1.sol\":8073:8405  return (... */\n      swap12\n      pop\n      swap12\n      pop\n      swap12\n      pop\n      swap12\n      pop\n      swap12\n      pop\n      swap12\n      pop\n      swap12\n      pop\n      swap12\n      pop\n      swap12\n      pop\n      swap12\n      pop\n      swap12\n      pop\n      pop\n        /* \"contracts/_ronx1.sol\":7824:8413  function getUserInfo(address _user) public view returns (... */\n      swap2\n      swap4\n      swap6\n      swap8\n      swap10\n      swap12\n      swap1\n      swap3\n      swap5\n      swap7\n      swap9\n      swap11\n      pop\n      jump\t// out\n        /* \"contracts/_ronx1.sol\":752:800  uint256 public constant REGISTRATION_FEE = 25e18 */\n    tag_63:\n        /* \"contracts/_ronx1.sol\":795:800  25e18 */\n      0x015af1d78b58c40000\n        /* \"contracts/_ronx1.sol\":752:800  uint256 public constant REGISTRATION_FEE = 25e18 */\n      dup2\n      jump\t// out\n        /* \"contracts/_ronx1.sol\":8611:8717  function getUserById(uint256 _id) public view returns (address) {... */\n    tag_68:\n        /* \"contracts/_ronx1.sol\":8666:8673  address */\n      0x00\n        /* \"contracts/_ronx1.sol\":8693:8704  idToAddress */\n      0x01\n        /* \"contracts/_ronx1.sol\":8693:8709  idToAddress[_id] */\n      0x00\n        /* \"contracts/_ronx1.sol\":8705:8708  _id */\n      dup4\n        /* \"contracts/_ronx1.sol\":8693:8709  idToAddress[_id] */\n      dup2\n      mstore\n      0x20\n      add\n      swap1\n      dup2\n      mstore\n      0x20\n      add\n      0x00\n      keccak256\n      0x00\n      swap1\n      sload\n      swap1\n      0x0100\n      exp\n      swap1\n      div\n      0xffffffffffffffffffffffffffffffffffffffff\n      and\n        /* \"contracts/_ronx1.sol\":8686:8709  return idToAddress[_id] */\n      swap1\n      pop\n        /* \"contracts/_ronx1.sol\":8611:8717  function getUserById(uint256 _id) public view returns (address) {... */\n      swap2\n      swap1\n      pop\n      jump\t// out\n        /* \"contracts/_ronx1.sol\":8725:8908  function getLevelPrice(uint8 _level) public view returns (uint256) {... */\n    tag_74:\n        /* \"contracts/_ronx1.sol\":8783:8790  uint256 */\n      0x00\n        /* \"contracts/_ronx1.sol\":8821:8822  1 */\n      0x01\n        /* \"contracts/_ronx1.sol\":8811:8817  _level */\n      dup3\n        /* \"contracts/_ronx1.sol\":8811:8822  _level >= 1 */\n      0xff\n      and\n      lt\n      iszero\n        /* \"contracts/_ronx1.sol\":8811:8846  _level >= 1 && _level <= LAST_LEVEL */\n      dup1\n      iszero\n      tag_184\n      jumpi\n      pop\n        /* \"contracts/_ronx1.sol\":694:696  12 */\n      0x0c\n        /* \"contracts/_ronx1.sol\":8826:8846  _level <= LAST_LEVEL */\n      0xff\n      and\n        /* \"contracts/_ronx1.sol\":8826:8832  _level */\n      dup3\n        /* \"contracts/_ronx1.sol\":8826:8846  _level <= LAST_LEVEL */\n      0xff\n      and\n      gt\n      iszero\n        /* \"contracts/_ronx1.sol\":8811:8846  _level >= 1 && _level <= LAST_LEVEL */\n    tag_184:\n        /* \"contracts/_ronx1.sol\":8803:8864  require(_level >= 1 && _level <= LAST_LEVEL, \"Invalid level\") */\n      tag_185\n      jumpi\n      mload(0x40)\n      0x08c379a000000000000000000000000000000000000000000000000000000000\n      dup2\n      mstore\n      0x04\n      add\n      tag_186\n      swap1\n      tag_187\n      jump\t// in\n    tag_186:\n      mload(0x40)\n      dup1\n      swap2\n      sub\n      swap1\n      revert\n    tag_185:\n        /* \"contracts/_ronx1.sol\":8882:8892  levelPrice */\n      0x02\n        /* \"contracts/_ronx1.sol\":8882:8900  levelPrice[_level] */\n      0x00\n        /* \"contracts/_ronx1.sol\":8893:8899  _level */\n      dup4\n        /* \"contracts/_ronx1.sol\":8882:8900  levelPrice[_level] */\n      0xff\n      and\n      0xff\n      and\n      dup2\n      mstore\n      0x20\n      add\n      swap1\n      dup2\n      mstore\n      0x20\n      add\n      0x00\n      keccak256\n      sload\n        /* \"contracts/_ronx1.sol\":8875:8900  return levelPrice[_level] */\n      swap1\n      pop\n        /* \"contracts/_ronx1.sol\":8725:8908  function getLevelPrice(uint8 _level) public view returns (uint256) {... */\n      swap2\n      swap1\n      pop\n      jump\t// out\n        /* \"contracts/_ronx1.sol\":4867:5462  function buyLevel(uint8 _newLevel) public payable {... */\n    tag_78:\n        /* \"contracts/_ronx1.sol\":4948:4953  users */\n      0x00\n        /* \"contracts/_ronx1.sol\":4948:4965  users[msg.sender] */\n      dup1\n        /* \"contracts/_ronx1.sol\":4954:4964  msg.sender */\n      caller\n        /* \"contracts/_ronx1.sol\":4948:4965  users[msg.sender] */\n      0xffffffffffffffffffffffffffffffffffffffff\n      and\n      0xffffffffffffffffffffffffffffffffffffffff\n      and\n      dup2\n      mstore\n      0x20\n      add\n      swap1\n      dup2\n      mstore\n      0x20\n      add\n      0x00\n      keccak256\n        /* \"contracts/_ronx1.sol\":4948:4978  users[msg.sender].partnerLevel */\n      0x05\n      add\n      sload\n        /* \"contracts/_ronx1.sol\":4936:4945  _newLevel */\n      dup2\n        /* \"contracts/_ronx1.sol\":4936:4978  _newLevel > users[msg.sender].partnerLevel */\n      0xff\n      and\n      gt\n        /* \"contracts/_ronx1.sol\":4928:5025  require(_newLevel > users[msg.sender].partnerLevel, \"Cannot downgrade or stay at the same level\") */\n      tag_189\n      jumpi\n      mload(0x40)\n      0x08c379a000000000000000000000000000000000000000000000000000000000\n      dup2\n      mstore\n      0x04\n      add\n      tag_190\n      swap1\n      tag_191\n      jump\t// in\n    tag_190:\n      mload(0x40)\n      dup1\n      swap2\n      sub\n      swap1\n      revert\n    tag_189:\n        /* \"contracts/_ronx1.sol\":694:696  12 */\n      0x0c\n        /* \"contracts/_ronx1.sol\":5044:5067  _newLevel <= LAST_LEVEL */\n      0xff\n      and\n        /* \"contracts/_ronx1.sol\":5044:5053  _newLevel */\n      dup2\n        /* \"contracts/_ronx1.sol\":5044:5067  _newLevel <= LAST_LEVEL */\n      0xff\n      and\n      gt\n      iszero\n        /* \"contracts/_ronx1.sol\":5036:5085  require(_newLevel <= LAST_LEVEL, \"Invalid level\") */\n      tag_192\n      jumpi\n      mload(0x40)\n      0x08c379a000000000000000000000000000000000000000000000000000000000\n      dup2\n      mstore\n      0x04\n      add\n      tag_193\n      swap1\n      tag_187\n      jump\t// in\n    tag_193:\n      mload(0x40)\n      dup1\n      swap2\n      sub\n      swap1\n      revert\n    tag_192:\n        /* \"contracts/_ronx1.sol\":5098:5111  uint256 price */\n      0x00\n        /* \"contracts/_ronx1.sol\":5114:5124  levelPrice */\n      0x02\n        /* \"contracts/_ronx1.sol\":5114:5135  levelPrice[_newLevel] */\n      0x00\n        /* \"contracts/_ronx1.sol\":5125:5134  _newLevel */\n      dup4\n        /* \"contracts/_ronx1.sol\":5114:5135  levelPrice[_newLevel] */\n      0xff\n      and\n      0xff\n      and\n      dup2\n      mstore\n      0x20\n      add\n      swap1\n      dup2\n      mstore\n      0x20\n      add\n      0x00\n      keccak256\n      sload\n        /* \"contracts/_ronx1.sol\":5098:5135  uint256 price = levelPrice[_newLevel] */\n      swap1\n      pop\n        /* \"contracts/_ronx1.sol\":5286:5295  _newLevel */\n      dup2\n        /* \"contracts/_ronx1.sol\":5253:5295  users[msg.sender].partnerLevel = _newLevel */\n      0xff\n      and\n        /* \"contracts/_ronx1.sol\":5253:5258  users */\n      0x00\n        /* \"contracts/_ronx1.sol\":5253:5270  users[msg.sender] */\n      dup1\n        /* \"contracts/_ronx1.sol\":5259:5269  msg.sender */\n      caller\n        /* \"contracts/_ronx1.sol\":5253:5270  users[msg.sender] */\n      0xffffffffffffffffffffffffffffffffffffffff\n      and\n      0xffffffffffffffffffffffffffffffffffffffff\n      and\n      dup2\n      mstore\n      0x20\n      add\n      swap1\n      dup2\n      mstore\n      0x20\n      add\n      0x00\n      keccak256\n        /* \"contracts/_ronx1.sol\":5253:5283  users[msg.sender].partnerLevel */\n      0x05\n      add\n        /* \"contracts/_ronx1.sol\":5253:5295  users[msg.sender].partnerLevel = _newLevel */\n      dup2\n      swap1\n      sstore\n      pop\n        /* \"contracts/_ronx1.sol\":5367:5372  owner */\n      0x04\n      0x00\n      swap1\n      sload\n      swap1\n      0x0100\n      exp\n      swap1\n      div\n      0xffffffffffffffffffffffffffffffffffffffff\n      and\n        /* \"contracts/_ronx1.sol\":5359:5382  payable(owner).transfer */\n      0xffffffffffffffffffffffffffffffffffffffff\n      and\n        /* \"contracts/_ronx1.sol\":5359:5393  payable(owner).transfer(msg.value) */\n      0x08fc\n        /* \"contracts/_ronx1.sol\":5383:5392  msg.value */\n      callvalue\n        /* \"contracts/_ronx1.sol\":5359:5393  payable(owner).transfer(msg.value) */\n      swap1\n      dup2\n      iszero\n      mul\n      swap1\n      mload(0x40)\n      0x00\n      mload(0x40)\n      dup1\n      dup4\n      sub\n      dup2\n      dup6\n      dup9\n      dup9\n      call\n      swap4\n      pop\n      pop\n      pop\n      pop\n      iszero\n      dup1\n      iszero\n      tag_195\n      jumpi\n      returndatasize\n      0x00\n      dup1\n      returndatacopy\n      revert(0x00, returndatasize)\n    tag_195:\n      pop\n        /* \"contracts/_ronx1.sol\":5425:5435  msg.sender */\n      caller\n        /* \"contracts/_ronx1.sol\":5411:5454  LevelUpgraded(msg.sender, _newLevel, price) */\n      0xffffffffffffffffffffffffffffffffffffffff\n      and\n      0x3aec384b4ee3b6f87982e6d06696cbcc9171f619053d3a6398e704c734ebac1f\n        /* \"contracts/_ronx1.sol\":5437:5446  _newLevel */\n      dup4\n        /* \"contracts/_ronx1.sol\":5448:5453  price */\n      dup4\n        /* \"contracts/_ronx1.sol\":5411:5454  LevelUpgraded(msg.sender, _newLevel, price) */\n      mload(0x40)\n      tag_196\n      swap3\n      swap2\n      swap1\n      tag_197\n      jump\t// in\n    tag_196:\n      mload(0x40)\n      dup1\n      swap2\n      sub\n      swap1\n      log2\n        /* \"contracts/_ronx1.sol\":4917:5462  {... */\n      pop\n        /* \"contracts/_ronx1.sol\":4867:5462  function buyLevel(uint8 _newLevel) public payable {... */\n      pop\n      jump\t// out\n        /* \"contracts/_ronx1.sol\":892:912  address public owner */\n    tag_81:\n      0x04\n      0x00\n      swap1\n      sload\n      swap1\n      0x0100\n      exp\n      swap1\n      div\n      0xffffffffffffffffffffffffffffffffffffffff\n      and\n      dup2\n      jump\t// out\n        /* \"contracts/_ronx1.sol\":6252:7678  function payUpline(address _user) public payable {... */\n    tag_85:\n        /* \"contracts/_ronx1.sol\":6368:6386  address uplineUser */\n      0x00\n        /* \"contracts/_ronx1.sol\":6389:6394  users */\n      dup1\n        /* \"contracts/_ronx1.sol\":6389:6401  users[_user] */\n      0x00\n        /* \"contracts/_ronx1.sol\":6395:6400  _user */\n      dup4\n        /* \"contracts/_ronx1.sol\":6389:6401  users[_user] */\n      0xffffffffffffffffffffffffffffffffffffffff\n      and\n      0xffffffffffffffffffffffffffffffffffffffff\n      and\n      dup2\n      mstore\n      0x20\n      add\n      swap1\n      dup2\n      mstore\n      0x20\n      add\n      0x00\n      keccak256\n        /* \"contracts/_ronx1.sol\":6389:6408  users[_user].upline */\n      0x00\n      add\n      0x00\n      swap1\n      sload\n      swap1\n      0x0100\n      exp\n      swap1\n      div\n      0xffffffffffffffffffffffffffffffffffffffff\n      and\n        /* \"contracts/_ronx1.sol\":6368:6408  address uplineUser = users[_user].upline */\n      swap1\n      pop\n        /* \"contracts/_ronx1.sol\":6483:6484  0 */\n      0x00\n        /* \"contracts/_ronx1.sol\":6461:6485  uplineUser == address(0) */\n      0xffffffffffffffffffffffffffffffffffffffff\n      and\n        /* \"contracts/_ronx1.sol\":6461:6471  uplineUser */\n      dup2\n        /* \"contracts/_ronx1.sol\":6461:6485  uplineUser == address(0) */\n      0xffffffffffffffffffffffffffffffffffffffff\n      and\n      sub\n        /* \"contracts/_ronx1.sol\":6457:6512  if (uplineUser == address(0)) {... */\n      tag_199\n      jumpi\n        /* \"contracts/_ronx1.sol\":6498:6505  return; */\n      pop\n      jump(tag_198)\n        /* \"contracts/_ronx1.sol\":6457:6512  if (uplineUser == address(0)) {... */\n    tag_199:\n        /* \"contracts/_ronx1.sol\":6629:6630  2 */\n      0x02\n        /* \"contracts/_ronx1.sol\":6594:6599  users */\n      0x00\n        /* \"contracts/_ronx1.sol\":6594:6611  users[uplineUser] */\n      dup1\n        /* \"contracts/_ronx1.sol\":6600:6610  uplineUser */\n      dup4\n        /* \"contracts/_ronx1.sol\":6594:6611  users[uplineUser] */\n      0xffffffffffffffffffffffffffffffffffffffff\n      and\n      0xffffffffffffffffffffffffffffffffffffffff\n      and\n      dup2\n      mstore\n      0x20\n      add\n      swap1\n      dup2\n      mstore\n      0x20\n      add\n      0x00\n      keccak256\n        /* \"contracts/_ronx1.sol\":6594:6625  users[uplineUser].referralCount */\n      0x02\n      add\n      sload\n        /* \"contracts/_ronx1.sol\":6594:6630  users[uplineUser].referralCount >= 2 */\n      lt\n        /* \"contracts/_ronx1.sol\":6590:7675  if (users[uplineUser].referralCount >= 2) {... */\n      tag_200\n      jumpi\n        /* \"contracts/_ronx1.sol\":6680:6694  uint256 reward */\n      0x00\n        /* \"contracts/_ronx1.sol\":6697:6707  levelPrice */\n      0x02\n        /* \"contracts/_ronx1.sol\":6697:6710  levelPrice[1] */\n      0x00\n        /* \"contracts/_ronx1.sol\":6708:6709  1 */\n      0x01\n        /* \"contracts/_ronx1.sol\":6697:6710  levelPrice[1] */\n      0xff\n      and\n      dup2\n      mstore\n      0x20\n      add\n      swap1\n      dup2\n      mstore\n      0x20\n      add\n      0x00\n      keccak256\n      sload\n        /* \"contracts/_ronx1.sol\":6680:6710  uint256 reward = levelPrice[1] */\n      swap1\n      pop\n        /* \"contracts/_ronx1.sol\":6828:6834  reward */\n      dup1\n        /* \"contracts/_ronx1.sol\":6803:6824  address(this).balance */\n      selfbalance\n        /* \"contracts/_ronx1.sol\":6803:6834  address(this).balance >= reward */\n      lt\n      iszero\n        /* \"contracts/_ronx1.sol\":6795:6868  require(address(this).balance >= reward, \"Insufficient contract balance\") */\n      tag_201\n      jumpi\n      mload(0x40)\n      0x08c379a000000000000000000000000000000000000000000000000000000000\n      dup2\n      mstore\n      0x04\n      add\n      tag_202\n      swap1\n      tag_203\n      jump\t// in\n    tag_202:\n      mload(0x40)\n      dup1\n      swap2\n      sub\n      swap1\n      revert\n    tag_201:\n        /* \"contracts/_ronx1.sol\":6957:6963  reward */\n      dup1\n        /* \"contracts/_ronx1.sol\":6927:6932  users */\n      0x00\n        /* \"contracts/_ronx1.sol\":6927:6944  users[uplineUser] */\n      dup1\n        /* \"contracts/_ronx1.sol\":6933:6943  uplineUser */\n      dup5\n        /* \"contracts/_ronx1.sol\":6927:6944  users[uplineUser] */\n      0xffffffffffffffffffffffffffffffffffffffff\n      and\n      0xffffffffffffffffffffffffffffffffffffffff\n      and\n      dup2\n      mstore\n      0x20\n      add\n      swap1\n      dup2\n      mstore\n      0x20\n      add\n      0x00\n      keccak256\n        /* \"contracts/_ronx1.sol\":6927:6953  users[uplineUser].earnings */\n      0x04\n      add\n      0x00\n        /* \"contracts/_ronx1.sol\":6927:6963  users[uplineUser].earnings += reward */\n      dup3\n      dup3\n      sload\n      tag_204\n      swap2\n      swap1\n      tag_205\n      jump\t// in\n    tag_204:\n      swap3\n      pop\n      pop\n      dup2\n      swap1\n      sstore\n      pop\n        /* \"contracts/_ronx1.sol\":7035:7047  bool success */\n      0x00\n        /* \"contracts/_ronx1.sol\":7061:7071  uplineUser */\n      dup3\n        /* \"contracts/_ronx1.sol\":7053:7077  payable(uplineUser).call */\n      0xffffffffffffffffffffffffffffffffffffffff\n      and\n        /* \"contracts/_ronx1.sol\":7085:7091  reward */\n      dup3\n        /* \"contracts/_ronx1.sol\":7053:7096  payable(uplineUser).call{value: reward}(\"\") */\n      mload(0x40)\n      tag_206\n      swap1\n      tag_207\n      jump\t// in\n    tag_206:\n      0x00\n      mload(0x40)\n      dup1\n      dup4\n      sub\n      dup2\n      dup6\n      dup8\n      gas\n      call\n      swap3\n      pop\n      pop\n      pop\n      returndatasize\n      dup1\n      0x00\n      dup2\n      eq\n      tag_210\n      jumpi\n      mload(0x40)\n      swap2\n      pop\n      and(add(returndatasize, 0x3f), not(0x1f))\n      dup3\n      add\n      0x40\n      mstore\n      returndatasize\n      dup3\n      mstore\n      returndatasize\n      0x00\n      0x20\n      dup5\n      add\n      returndatacopy\n      jump(tag_209)\n    tag_210:\n      0x60\n      swap2\n      pop\n    tag_209:\n      pop\n        /* \"contracts/_ronx1.sol\":7034:7096  (bool success, ) = payable(uplineUser).call{value: reward}(\"\") */\n      pop\n      swap1\n      pop\n        /* \"contracts/_ronx1.sol\":7115:7122  success */\n      dup1\n        /* \"contracts/_ronx1.sol\":7107:7142  require(success, \"Transfer failed\") */\n      tag_211\n      jumpi\n      mload(0x40)\n      0x08c379a000000000000000000000000000000000000000000000000000000000\n      dup2\n      mstore\n      0x04\n      add\n      tag_212\n      swap1\n      tag_213\n      jump\t// in\n    tag_212:\n      mload(0x40)\n      dup1\n      swap2\n      sub\n      swap1\n      revert\n    tag_211:\n        /* \"contracts/_ronx1.sol\":7212:7222  uplineUser */\n      dup3\n        /* \"contracts/_ronx1.sol\":7203:7231  Earnings(uplineUser, reward) */\n      0xffffffffffffffffffffffffffffffffffffffff\n      and\n      0x92d81ab7e787d9a43bbb8f8ca7f0b2708da03b86d5aea53d5d20656ff8dad1ee\n        /* \"contracts/_ronx1.sol\":7224:7230  reward */\n      dup4\n        /* \"contracts/_ronx1.sol\":7203:7231  Earnings(uplineUser, reward) */\n      mload(0x40)\n      tag_214\n      swap2\n      swap1\n      tag_47\n      jump\t// in\n    tag_214:\n      mload(0x40)\n      dup1\n      swap2\n      sub\n      swap1\n      log2\n        /* \"contracts/_ronx1.sol\":7302:7307  users */\n      0x00\n        /* \"contracts/_ronx1.sol\":7302:7319  users[uplineUser] */\n      dup1\n        /* \"contracts/_ronx1.sol\":7308:7318  uplineUser */\n      dup5\n        /* \"contracts/_ronx1.sol\":7302:7319  users[uplineUser] */\n      0xffffffffffffffffffffffffffffffffffffffff\n      and\n      0xffffffffffffffffffffffffffffffffffffffff\n      and\n      dup2\n      mstore\n      0x20\n      add\n      swap1\n      dup2\n      mstore\n      0x20\n      add\n      0x00\n      keccak256\n        /* \"contracts/_ronx1.sol\":7302:7330  users[uplineUser].cycleCount */\n      0x03\n      add\n      0x00\n        /* \"contracts/_ronx1.sol\":7302:7332  users[uplineUser].cycleCount++ */\n      dup2\n      sload\n      dup1\n      swap3\n      swap2\n      swap1\n      tag_215\n      swap1\n      tag_129\n      jump\t// in\n    tag_215:\n      swap2\n      swap1\n      pop\n      sstore\n      pop\n        /* \"contracts/_ronx1.sol\":7403:7413  uplineUser */\n      dup3\n        /* \"contracts/_ronx1.sol\":7394:7444  NewCycle(uplineUser, users[uplineUser].cycleCount) */\n      0xffffffffffffffffffffffffffffffffffffffff\n      and\n      0x18c00b25130b4512b396a52c89756cb9a1177c6002fe34cbc071f88cf90812a1\n        /* \"contracts/_ronx1.sol\":7415:7420  users */\n      0x00\n        /* \"contracts/_ronx1.sol\":7415:7432  users[uplineUser] */\n      dup1\n        /* \"contracts/_ronx1.sol\":7421:7431  uplineUser */\n      dup7\n        /* \"contracts/_ronx1.sol\":7415:7432  users[uplineUser] */\n      0xffffffffffffffffffffffffffffffffffffffff\n      and\n      0xffffffffffffffffffffffffffffffffffffffff\n      and\n      dup2\n      mstore\n      0x20\n      add\n      swap1\n      dup2\n      mstore\n      0x20\n      add\n      0x00\n      keccak256\n        /* \"contracts/_ronx1.sol\":7415:7443  users[uplineUser].cycleCount */\n      0x03\n      add\n      sload\n        /* \"contracts/_ronx1.sol\":7394:7444  NewCycle(uplineUser, users[uplineUser].cycleCount) */\n      mload(0x40)\n      tag_216\n      swap2\n      swap1\n      tag_47\n      jump\t// in\n    tag_216:\n      mload(0x40)\n      dup1\n      swap2\n      sub\n      swap1\n      log2\n        /* \"contracts/_ronx1.sol\":7548:7549  0 */\n      0x00\n        /* \"contracts/_ronx1.sol\":7514:7519  users */\n      dup1\n        /* \"contracts/_ronx1.sol\":7514:7531  users[uplineUser] */\n      0x00\n        /* \"contracts/_ronx1.sol\":7520:7530  uplineUser */\n      dup6\n        /* \"contracts/_ronx1.sol\":7514:7531  users[uplineUser] */\n      0xffffffffffffffffffffffffffffffffffffffff\n      and\n      0xffffffffffffffffffffffffffffffffffffffff\n      and\n      dup2\n      mstore\n      0x20\n      add\n      swap1\n      dup2\n      mstore\n      0x20\n      add\n      0x00\n      keccak256\n        /* \"contracts/_ronx1.sol\":7514:7545  users[uplineUser].referralCount */\n      0x02\n      add\n        /* \"contracts/_ronx1.sol\":7514:7549  users[uplineUser].referralCount = 0 */\n      dup2\n      swap1\n      sstore\n      pop\n        /* \"contracts/_ronx1.sol\":6632:7557  {... */\n      pop\n      pop\n        /* \"contracts/_ronx1.sol\":6590:7675  if (users[uplineUser].referralCount >= 2) {... */\n      jump(tag_217)\n    tag_200:\n        /* \"contracts/_ronx1.sol\":7634:7639  users */\n      0x00\n        /* \"contracts/_ronx1.sol\":7634:7651  users[uplineUser] */\n      dup1\n        /* \"contracts/_ronx1.sol\":7640:7650  uplineUser */\n      dup3\n        /* \"contracts/_ronx1.sol\":7634:7651  users[uplineUser] */\n      0xffffffffffffffffffffffffffffffffffffffff\n      and\n      0xffffffffffffffffffffffffffffffffffffffff\n      and\n      dup2\n      mstore\n      0x20\n      add\n      swap1\n      dup2\n      mstore\n      0x20\n      add\n      0x00\n      keccak256\n        /* \"contracts/_ronx1.sol\":7634:7665  users[uplineUser].referralCount */\n      0x02\n      add\n      0x00\n        /* \"contracts/_ronx1.sol\":7634:7667  users[uplineUser].referralCount++ */\n      dup2\n      sload\n      dup1\n      swap3\n      swap2\n      swap1\n      tag_218\n      swap1\n      tag_129\n      jump\t// in\n    tag_218:\n      swap2\n      swap1\n      pop\n      sstore\n      pop\n        /* \"contracts/_ronx1.sol\":6590:7675  if (users[uplineUser].referralCount >= 2) {... */\n    tag_217:\n        /* \"contracts/_ronx1.sol\":6301:7678  {... */\n      pop\n        /* \"contracts/_ronx1.sol\":6252:7678  function payUpline(address _user) public payable {... */\n    tag_198:\n      pop\n      jump\t// out\n        /* \"contracts/_ronx1.sol\":703:745  uint256 public constant BASIC_PRICE = 5e18 */\n    tag_88:\n        /* \"contracts/_ronx1.sol\":741:745  5e18 */\n      0x4563918244f40000\n        /* \"contracts/_ronx1.sol\":703:745  uint256 public constant BASIC_PRICE = 5e18 */\n      dup2\n      jump\t// out\n        /* \"contracts/_ronx1.sol\":474:511  mapping(address => User) public users */\n    tag_93:\n      mstore(0x20, 0x00)\n      dup1\n      0x00\n      mstore\n      keccak256(0x00, 0x40)\n      0x00\n      swap2\n      pop\n      swap1\n      pop\n      dup1\n      0x00\n      add\n      0x00\n      swap1\n      sload\n      swap1\n      0x0100\n      exp\n      swap1\n      div\n      0xffffffffffffffffffffffffffffffffffffffff\n      and\n      swap1\n      dup1\n      0x01\n      add\n      sload\n      swap1\n      dup1\n      0x02\n      add\n      sload\n      swap1\n      dup1\n      0x03\n      add\n      sload\n      swap1\n      dup1\n      0x04\n      add\n      sload\n      swap1\n      dup1\n      0x05\n      add\n      sload\n      swap1\n      dup1\n      0x07\n      add\n      dup1\n      sload\n      tag_219\n      swap1\n      tag_162\n      jump\t// in\n    tag_219:\n      dup1\n      0x1f\n      add\n      0x20\n      dup1\n      swap2\n      div\n      mul\n      0x20\n      add\n      mload(0x40)\n      swap1\n      dup2\n      add\n      0x40\n      mstore\n      dup1\n      swap3\n      swap2\n      swap1\n      dup2\n      dup2\n      mstore\n      0x20\n      add\n      dup3\n      dup1\n      sload\n      tag_220\n      swap1\n      tag_162\n      jump\t// in\n    tag_220:\n      dup1\n      iszero\n      tag_221\n      jumpi\n      dup1\n      0x1f\n      lt\n      tag_222\n      jumpi\n      0x0100\n      dup1\n      dup4\n      sload\n      div\n      mul\n      dup4\n      mstore\n      swap2\n      0x20\n      add\n      swap2\n      jump(tag_221)\n    tag_222:\n      dup3\n      add\n      swap2\n      swap1\n      0x00\n      mstore\n      keccak256(0x00, 0x20)\n      swap1\n    tag_223:\n      dup2\n      sload\n      dup2\n      mstore\n      swap1\n      0x01\n      add\n      swap1\n      0x20\n      add\n      dup1\n      dup4\n      gt\n      tag_223\n      jumpi\n      dup3\n      swap1\n      sub\n      0x1f\n      and\n      dup3\n      add\n      swap2\n    tag_221:\n      pop\n      pop\n      pop\n      pop\n      pop\n      swap1\n      dup1\n      0x08\n      add\n      dup1\n      sload\n      tag_224\n      swap1\n      tag_162\n      jump\t// in\n    tag_224:\n      dup1\n      0x1f\n      add\n      0x20\n      dup1\n      swap2\n      div\n      mul\n      0x20\n      add\n      mload(0x40)\n      swap1\n      dup2\n      add\n      0x40\n      mstore\n      dup1\n      swap3\n      swap2\n      swap1\n      dup2\n      dup2\n      mstore\n      0x20\n      add\n      dup3\n      dup1\n      sload\n      tag_225\n      swap1\n      tag_162\n      jump\t// in\n    tag_225:\n      dup1\n      iszero\n      tag_226\n      jumpi\n      dup1\n      0x1f\n      lt\n      tag_227\n      jumpi\n      0x0100\n      dup1\n      dup4\n      sload\n      div\n      mul\n      dup4\n      mstore\n      swap2\n      0x20\n      add\n      swap2\n      jump(tag_226)\n    tag_227:\n      dup3\n      add\n      swap2\n      swap1\n      0x00\n      mstore\n      keccak256(0x00, 0x20)\n      swap1\n    tag_228:\n      dup2\n      sload\n      dup2\n      mstore\n      swap1\n      0x01\n      add\n      swap1\n      0x20\n      add\n      dup1\n      dup4\n      gt\n      tag_228\n      jumpi\n      dup3\n      swap1\n      sub\n      0x1f\n      and\n      dup3\n      add\n      swap2\n    tag_226:\n      pop\n      pop\n      pop\n      pop\n      pop\n      swap1\n      dup1\n      0x09\n      add\n      dup1\n      sload\n      tag_229\n      swap1\n      tag_162\n      jump\t// in\n    tag_229:\n      dup1\n      0x1f\n      add\n      0x20\n      dup1\n      swap2\n      div\n      mul\n      0x20\n      add\n      mload(0x40)\n      swap1\n      dup2\n      add\n      0x40\n      mstore\n      dup1\n      swap3\n      swap2\n      swap1\n      dup2\n      dup2\n      mstore\n      0x20\n      add\n      dup3\n      dup1\n      sload\n      tag_230\n      swap1\n      tag_162\n      jump\t// in\n    tag_230:\n      dup1\n      iszero\n      tag_231\n      jumpi\n      dup1\n      0x1f\n      lt\n      tag_232\n      jumpi\n      0x0100\n      dup1\n      dup4\n      sload\n      div\n      mul\n      dup4\n      mstore\n      swap2\n      0x20\n      add\n      swap2\n      jump(tag_231)\n    tag_232:\n      dup3\n      add\n      swap2\n      swap1\n      0x00\n      mstore\n      keccak256(0x00, 0x20)\n      swap1\n    tag_233:\n      dup2\n      sload\n      dup2\n      mstore\n      swap1\n      0x01\n      add\n      swap1\n      0x20\n      add\n      dup1\n      dup4\n      gt\n      tag_233\n      jumpi\n      dup3\n      swap1\n      sub\n      0x1f\n      and\n      dup3\n      add\n      swap2\n    tag_231:\n      pop\n      pop\n      pop\n      pop\n      pop\n      swap1\n      dup1\n      0x0a\n      add\n      dup1\n      sload\n      tag_234\n      swap1\n      tag_162\n      jump\t// in\n    tag_234:\n      dup1\n      0x1f\n      add\n      0x20\n      dup1\n      swap2\n      div\n      mul\n      0x20\n      add\n      mload(0x40)\n      swap1\n      dup2\n      add\n      0x40\n      mstore\n      dup1\n      swap3\n      swap2\n      swap1\n      dup2\n      dup2\n      mstore\n      0x20\n      add\n      dup3\n      dup1\n      sload\n      tag_235\n      swap1\n      tag_162\n      jump\t// in\n    tag_235:\n      dup1\n      iszero\n      tag_236\n      jumpi\n      dup1\n      0x1f\n      lt\n      tag_237\n      jumpi\n      0x0100\n      dup1\n      dup4\n      sload\n      div\n      mul\n      dup4\n      mstore\n      swap2\n      0x20\n      add\n      swap2\n      jump(tag_236)\n    tag_237:\n      dup3\n      add\n      swap2\n      swap1\n      0x00\n      mstore\n      keccak256(0x00, 0x20)\n      swap1\n    tag_238:\n      dup2\n      sload\n      dup2\n      mstore\n      swap1\n      0x01\n      add\n      swap1\n      0x20\n      add\n      dup1\n      dup4\n      gt\n      tag_238\n      jumpi\n      dup3\n      swap1\n      sub\n      0x1f\n      and\n      dup3\n      add\n      swap2\n    tag_236:\n      pop\n      pop\n      pop\n      pop\n      pop\n      swap1\n      dup1\n      0x0b\n      add\n      sload\n      swap1\n      dup1\n      0x0c\n      add\n      0x00\n      swap1\n      sload\n      swap1\n      0x0100\n      exp\n      swap1\n      div\n      0xffffffffffffffffffffffffffffffffffffffff\n      and\n      swap1\n      pop\n      dup13\n      jump\t// out\n        /* \"contracts/_ronx1.sol\":5468:5707  function generateReferralLink(address userAddress) public view returns (string memory) {... */\n    tag_99:\n        /* \"contracts/_ronx1.sol\":5540:5553  string memory */\n      0x60\n        /* \"contracts/_ronx1.sol\":5567:5578  uint userId */\n      0x00\n        /* \"contracts/_ronx1.sol\":5581:5586  users */\n      dup1\n        /* \"contracts/_ronx1.sol\":5581:5599  users[userAddress] */\n      0x00\n        /* \"contracts/_ronx1.sol\":5587:5598  userAddress */\n      dup5\n        /* \"contracts/_ronx1.sol\":5581:5599  users[userAddress] */\n      0xffffffffffffffffffffffffffffffffffffffff\n      and\n      0xffffffffffffffffffffffffffffffffffffffff\n      and\n      dup2\n      mstore\n      0x20\n      add\n      swap1\n      dup2\n      mstore\n      0x20\n      add\n      0x00\n      keccak256\n        /* \"contracts/_ronx1.sol\":5581:5602  users[userAddress].id */\n      0x01\n      add\n      sload\n        /* \"contracts/_ronx1.sol\":5567:5602  uint userId = users[userAddress].id */\n      swap1\n      pop\n        /* \"contracts/_ronx1.sol\":5677:5697  uintToString(userId) */\n      tag_240\n        /* \"contracts/_ronx1.sol\":5690:5696  userId */\n      dup2\n        /* \"contracts/_ronx1.sol\":5677:5689  uintToString */\n      tag_241\n        /* \"contracts/_ronx1.sol\":5677:5697  uintToString(userId) */\n      jump\t// in\n    tag_240:\n        /* \"contracts/_ronx1.sol\":5627:5698  abi.encodePacked(\"https://example.com/referral/\", uintToString(userId)) */\n      add(0x20, mload(0x40))\n      tag_242\n      swap2\n      swap1\n      tag_243\n      jump\t// in\n    tag_242:\n      mload(0x40)\n      0x20\n      dup2\n      dup4\n      sub\n      sub\n      dup2\n      mstore\n      swap1\n      0x40\n      mstore\n        /* \"contracts/_ronx1.sol\":5613:5699  return string(abi.encodePacked(\"https://example.com/referral/\", uintToString(userId))) */\n      swap2\n      pop\n      pop\n        /* \"contracts/_ronx1.sol\":5468:5707  function generateReferralLink(address userAddress) public view returns (string memory) {... */\n      swap2\n      swap1\n      pop\n      jump\t// out\n        /* \"contracts/_ronx1.sol\":8421:8603  function transactionHistory(address _user) public view returns (uint256, uint256) {... */\n    tag_105:\n        /* \"contracts/_ronx1.sol\":8485:8492  uint256 */\n      0x00\n        /* \"contracts/_ronx1.sol\":8494:8501  uint256 */\n      dup1\n        /* \"contracts/_ronx1.sol\":8514:8530  User memory user */\n      0x00\n        /* \"contracts/_ronx1.sol\":8533:8538  users */\n      dup1\n        /* \"contracts/_ronx1.sol\":8533:8545  users[_user] */\n      0x00\n        /* \"contracts/_ronx1.sol\":8539:8544  _user */\n      dup6\n        /* \"contracts/_ronx1.sol\":8533:8545  users[_user] */\n      0xffffffffffffffffffffffffffffffffffffffff\n      and\n      0xffffffffffffffffffffffffffffffffffffffff\n      and\n      dup2\n      mstore\n      0x20\n      add\n      swap1\n      dup2\n      mstore\n      0x20\n      add\n      0x00\n      keccak256\n        /* \"contracts/_ronx1.sol\":8514:8545  User memory user = users[_user] */\n      mload(0x40)\n      dup1\n      0x01a0\n      add\n      0x40\n      mstore\n      swap1\n      dup2\n      0x00\n      dup3\n      add\n      0x00\n      swap1\n      sload\n      swap1\n      0x0100\n      exp\n      swap1\n      div\n      0xffffffffffffffffffffffffffffffffffffffff\n      and\n      0xffffffffffffffffffffffffffffffffffffffff\n      and\n      0xffffffffffffffffffffffffffffffffffffffff\n      and\n      dup2\n      mstore\n      0x20\n      add\n      0x01\n      dup3\n      add\n      sload\n      dup2\n      mstore\n      0x20\n      add\n      0x02\n      dup3\n      add\n      sload\n      dup2\n      mstore\n      0x20\n      add\n      0x03\n      dup3\n      add\n      sload\n      dup2\n      mstore\n      0x20\n      add\n      0x04\n      dup3\n      add\n      sload\n      dup2\n      mstore\n      0x20\n      add\n      0x05\n      dup3\n      add\n      sload\n      dup2\n      mstore\n      0x20\n      add\n      0x06\n      dup3\n      add\n      dup1\n      sload\n      dup1\n      0x20\n      mul\n      0x20\n      add\n      mload(0x40)\n      swap1\n      dup2\n      add\n      0x40\n      mstore\n      dup1\n      swap3\n      swap2\n      swap1\n      dup2\n      dup2\n      mstore\n      0x20\n      add\n      dup3\n      dup1\n      sload\n      dup1\n      iszero\n      tag_245\n      jumpi\n      0x20\n      mul\n      dup3\n      add\n      swap2\n      swap1\n      0x00\n      mstore\n      keccak256(0x00, 0x20)\n      swap1\n    tag_246:\n      dup2\n      0x00\n      swap1\n      sload\n      swap1\n      0x0100\n      exp\n      swap1\n      div\n      0xffffffffffffffffffffffffffffffffffffffff\n      and\n      0xffffffffffffffffffffffffffffffffffffffff\n      and\n      dup2\n      mstore\n      0x20\n      add\n      swap1\n      0x01\n      add\n      swap1\n      dup1\n      dup4\n      gt\n      tag_246\n      jumpi\n    tag_245:\n      pop\n      pop\n      pop\n      pop\n      pop\n      dup2\n      mstore\n      0x20\n      add\n      0x07\n      dup3\n      add\n      dup1\n      sload\n      tag_247\n      swap1\n      tag_162\n      jump\t// in\n    tag_247:\n      dup1\n      0x1f\n      add\n      0x20\n      dup1\n      swap2\n      div\n      mul\n      0x20\n      add\n      mload(0x40)\n      swap1\n      dup2\n      add\n      0x40\n      mstore\n      dup1\n      swap3\n      swap2\n      swap1\n      dup2\n      dup2\n      mstore\n      0x20\n      add\n      dup3\n      dup1\n      sload\n      tag_248\n      swap1\n      tag_162\n      jump\t// in\n    tag_248:\n      dup1\n      iszero\n      tag_249\n      jumpi\n      dup1\n      0x1f\n      lt\n      tag_250\n      jumpi\n      0x0100\n      dup1\n      dup4\n      sload\n      div\n      mul\n      dup4\n      mstore\n      swap2\n      0x20\n      add\n      swap2\n      jump(tag_249)\n    tag_250:\n      dup3\n      add\n      swap2\n      swap1\n      0x00\n      mstore\n      keccak256(0x00, 0x20)\n      swap1\n    tag_251:\n      dup2\n      sload\n      dup2\n      mstore\n      swap1\n      0x01\n      add\n      swap1\n      0x20\n      add\n      dup1\n      dup4\n      gt\n      tag_251\n      jumpi\n      dup3\n      swap1\n      sub\n      0x1f\n      and\n      dup3\n      add\n      swap2\n    tag_249:\n      pop\n      pop\n      pop\n      pop\n      pop\n      dup2\n      mstore\n      0x20\n      add\n      0x08\n      dup3\n      add\n      dup1\n      sload\n      tag_252\n      swap1\n      tag_162\n      jump\t// in\n    tag_252:\n      dup1\n      0x1f\n      add\n      0x20\n      dup1\n      swap2\n      div\n      mul\n      0x20\n      add\n      mload(0x40)\n      swap1\n      dup2\n      add\n      0x40\n      mstore\n      dup1\n      swap3\n      swap2\n      swap1\n      dup2\n      dup2\n      mstore\n      0x20\n      add\n      dup3\n      dup1\n      sload\n      tag_253\n      swap1\n      tag_162\n      jump\t// in\n    tag_253:\n      dup1\n      iszero\n      tag_254\n      jumpi\n      dup1\n      0x1f\n      lt\n      tag_255\n      jumpi\n      0x0100\n      dup1\n      dup4\n      sload\n      div\n      mul\n      dup4\n      mstore\n      swap2\n      0x20\n      add\n      swap2\n      jump(tag_254)\n    tag_255:\n      dup3\n      add\n      swap2\n      swap1\n      0x00\n      mstore\n      keccak256(0x00, 0x20)\n      swap1\n    tag_256:\n      dup2\n      sload\n      dup2\n      mstore\n      swap1\n      0x01\n      add\n      swap1\n      0x20\n      add\n      dup1\n      dup4\n      gt\n      tag_256\n      jumpi\n      dup3\n      swap1\n      sub\n      0x1f\n      and\n      dup3\n      add\n      swap2\n    tag_254:\n      pop\n      pop\n      pop\n      pop\n      pop\n      dup2\n      mstore\n      0x20\n      add\n      0x09\n      dup3\n      add\n      dup1\n      sload\n      tag_257\n      swap1\n      tag_162\n      jump\t// in\n    tag_257:\n      dup1\n      0x1f\n      add\n      0x20\n      dup1\n      swap2\n      div\n      mul\n      0x20\n      add\n      mload(0x40)\n      swap1\n      dup2\n      add\n      0x40\n      mstore\n      dup1\n      swap3\n      swap2\n      swap1\n      dup2\n      dup2\n      mstore\n      0x20\n      add\n      dup3\n      dup1\n      sload\n      tag_258\n      swap1\n      tag_162\n      jump\t// in\n    tag_258:\n      dup1\n      iszero\n      tag_259\n      jumpi\n      dup1\n      0x1f\n      lt\n      tag_260\n      jumpi\n      0x0100\n      dup1\n      dup4\n      sload\n      div\n      mul\n      dup4\n      mstore\n      swap2\n      0x20\n      add\n      swap2\n      jump(tag_259)\n    tag_260:\n      dup3\n      add\n      swap2\n      swap1\n      0x00\n      mstore\n      keccak256(0x00, 0x20)\n      swap1\n    tag_261:\n      dup2\n      sload\n      dup2\n      mstore\n      swap1\n      0x01\n      add\n      swap1\n      0x20\n      add\n      dup1\n      dup4\n      gt\n      tag_261\n      jumpi\n      dup3\n      swap1\n      sub\n      0x1f\n      and\n      dup3\n      add\n      swap2\n    tag_259:\n      pop\n      pop\n      pop\n      pop\n      pop\n      dup2\n      mstore\n      0x20\n      add\n      0x0a\n      dup3\n      add\n      dup1\n      sload\n      tag_262\n      swap1\n      tag_162\n      jump\t// in\n    tag_262:\n      dup1\n      0x1f\n      add\n      0x20\n      dup1\n      swap2\n      div\n      mul\n      0x20\n      add\n      mload(0x40)\n      swap1\n      dup2\n      add\n      0x40\n      mstore\n      dup1\n      swap3\n      swap2\n      swap1\n      dup2\n      dup2\n      mstore\n      0x20\n      add\n      dup3\n      dup1\n      sload\n      tag_263\n      swap1\n      tag_162\n      jump\t// in\n    tag_263:\n      dup1\n      iszero\n      tag_264\n      jumpi\n      dup1\n      0x1f\n      lt\n      tag_265\n      jumpi\n      0x0100\n      dup1\n      dup4\n      sload\n      div\n      mul\n      dup4\n      mstore\n      swap2\n      0x20\n      add\n      swap2\n      jump(tag_264)\n    tag_265:\n      dup3\n      add\n      swap2\n      swap1\n      0x00\n      mstore\n      keccak256(0x00, 0x20)\n      swap1\n    tag_266:\n      dup2\n      sload\n      dup2\n      mstore\n      swap1\n      0x01\n      add\n      swap1\n      0x20\n      add\n      dup1\n      dup4\n      gt\n      tag_266\n      jumpi\n      dup3\n      swap1\n      sub\n      0x1f\n      and\n      dup3\n      add\n      swap2\n    tag_264:\n      pop\n      pop\n      pop\n      pop\n      pop\n      dup2\n      mstore\n      0x20\n      add\n      0x0b\n      dup3\n      add\n      sload\n      dup2\n      mstore\n      0x20\n      add\n      0x0c\n      dup3\n      add\n      0x00\n      swap1\n      sload\n      swap1\n      0x0100\n      exp\n      swap1\n      div\n      0xffffffffffffffffffffffffffffffffffffffff\n      and\n      0xffffffffffffffffffffffffffffffffffffffff\n      and\n      0xffffffffffffffffffffffffffffffffffffffff\n      and\n      dup2\n      mstore\n      pop\n      pop\n      swap1\n      pop\n        /* \"contracts/_ronx1.sol\":8564:8568  user */\n      dup1\n        /* \"contracts/_ronx1.sol\":8564:8579  user.cycleCount */\n      0x60\n      add\n      mload\n        /* \"contracts/_ronx1.sol\":8581:8585  user */\n      dup2\n        /* \"contracts/_ronx1.sol\":8581:8594  user.earnings */\n      0x80\n      add\n      mload\n        /* \"contracts/_ronx1.sol\":8556:8595  return (user.cycleCount, user.earnings) */\n      swap3\n      pop\n      swap3\n      pop\n      pop\n        /* \"contracts/_ronx1.sol\":8421:8603  function transactionHistory(address _user) public view returns (uint256, uint256) {... */\n      swap2\n      pop\n      swap2\n      jump\t// out\n        /* \"contracts/_ronx1.sol\":571:614  mapping(uint8 => uint256) public levelPrice */\n    tag_111:\n      mstore(0x20, 0x02)\n      dup1\n      0x00\n      mstore\n      keccak256(0x00, 0x40)\n      0x00\n      swap2\n      pop\n      swap1\n      pop\n      sload\n      dup2\n      jump\t// out\n        /* \"contracts/_ronx1.sol\":5714:6246  function uintToString(uint v) private pure returns (string memory str) {... */\n    tag_241:\n        /* \"contracts/_ronx1.sol\":5766:5783  string memory str */\n      0x60\n        /* \"contracts/_ronx1.sol\":5801:5802  0 */\n      0x00\n        /* \"contracts/_ronx1.sol\":5796:5797  v */\n      dup3\n        /* \"contracts/_ronx1.sol\":5796:5802  v == 0 */\n      sub\n        /* \"contracts/_ronx1.sol\":5792:5833  if (v == 0) {... */\n      tag_268\n      jumpi\n        /* \"contracts/_ronx1.sol\":5815:5825  return \"0\" */\n      mload(0x40)\n      dup1\n      0x40\n      add\n      0x40\n      mstore\n      dup1\n      0x01\n      dup2\n      mstore\n      0x20\n      add\n      0x3000000000000000000000000000000000000000000000000000000000000000\n      dup2\n      mstore\n      pop\n      swap1\n      pop\n      jump(tag_267)\n        /* \"contracts/_ronx1.sol\":5792:5833  if (v == 0) {... */\n    tag_268:\n        /* \"contracts/_ronx1.sol\":5839:5850  uint maxLen */\n      0x00\n        /* \"contracts/_ronx1.sol\":5853:5855  78 */\n      0x4e\n        /* \"contracts/_ronx1.sol\":5839:5855  uint maxLen = 78 */\n      swap1\n      pop\n        /* \"contracts/_ronx1.sol\":5906:5927  bytes memory reversed */\n      0x00\n        /* \"contracts/_ronx1.sol\":5940:5946  maxLen */\n      dup2\n        /* \"contracts/_ronx1.sol\":5930:5947  new bytes(maxLen) */\n      0xffffffffffffffff\n      dup2\n      gt\n      iszero\n      tag_269\n      jumpi\n      tag_270\n      tag_119\n      jump\t// in\n    tag_270:\n    tag_269:\n      mload(0x40)\n      swap1\n      dup1\n      dup3\n      mstore\n      dup1\n      0x1f\n      add\n      not(0x1f)\n      and\n      0x20\n      add\n      dup3\n      add\n      0x40\n      mstore\n      dup1\n      iszero\n      tag_271\n      jumpi\n      dup2\n      0x20\n      add\n      0x01\n      dup3\n      mul\n      dup1\n      calldatasize\n      dup4\n      calldatacopy\n      dup1\n      dup3\n      add\n      swap2\n      pop\n      pop\n      swap1\n      pop\n    tag_271:\n      pop\n        /* \"contracts/_ronx1.sol\":5906:5947  bytes memory reversed = new bytes(maxLen) */\n      swap1\n      pop\n        /* \"contracts/_ronx1.sol\":5954:5960  uint i */\n      0x00\n        /* \"contracts/_ronx1.sol\":5971:6105  while (v != 0) {... */\n    tag_272:\n        /* \"contracts/_ronx1.sol\":5983:5984  0 */\n      0x00\n        /* \"contracts/_ronx1.sol\":5978:5979  v */\n      dup6\n        /* \"contracts/_ronx1.sol\":5978:5984  v != 0 */\n      eq\n        /* \"contracts/_ronx1.sol\":5971:6105  while (v != 0) {... */\n      tag_273\n      jumpi\n        /* \"contracts/_ronx1.sol\":5997:6011  uint remainder */\n      0x00\n        /* \"contracts/_ronx1.sol\":6018:6020  10 */\n      0x0a\n        /* \"contracts/_ronx1.sol\":6014:6015  v */\n      dup7\n        /* \"contracts/_ronx1.sol\":6014:6020  v % 10 */\n      tag_274\n      swap2\n      swap1\n      tag_275\n      jump\t// in\n    tag_274:\n        /* \"contracts/_ronx1.sol\":5997:6020  uint remainder = v % 10 */\n      swap1\n      pop\n        /* \"contracts/_ronx1.sol\":6039:6041  10 */\n      0x0a\n        /* \"contracts/_ronx1.sol\":6035:6036  v */\n      dup7\n        /* \"contracts/_ronx1.sol\":6035:6041  v / 10 */\n      tag_276\n      swap2\n      swap1\n      tag_277\n      jump\t// in\n    tag_276:\n        /* \"contracts/_ronx1.sol\":6031:6041  v = v / 10 */\n      swap6\n      pop\n        /* \"contracts/_ronx1.sol\":6086:6095  remainder */\n      dup1\n        /* \"contracts/_ronx1.sol\":6081:6083  48 */\n      0x30\n        /* \"contracts/_ronx1.sol\":6081:6095  48 + remainder */\n      tag_278\n      swap2\n      swap1\n      tag_205\n      jump\t// in\n    tag_278:\n        /* \"contracts/_ronx1.sol\":6068:6097  bytes1(uint8(48 + remainder)) */\n      0xf8\n      shl\n        /* \"contracts/_ronx1.sol\":6052:6060  reversed */\n      dup4\n        /* \"contracts/_ronx1.sol\":6061:6064  i++ */\n      dup4\n      dup1\n      tag_279\n      swap1\n      tag_129\n      jump\t// in\n    tag_279:\n      swap5\n      pop\n        /* \"contracts/_ronx1.sol\":6052:6065  reversed[i++] */\n      dup2\n      mload\n      dup2\n      lt\n      tag_280\n      jumpi\n      tag_281\n      tag_282\n      jump\t// in\n    tag_281:\n    tag_280:\n      0x20\n      add\n      add\n        /* \"contracts/_ronx1.sol\":6052:6097  reversed[i++] = bytes1(uint8(48 + remainder)) */\n      swap1\n      not(0xffffffffffffffffffffffffffffffffffffffffffffffffffffffffffffff)\n      and\n      swap1\n      dup2\n      0x00\n      byte\n      swap1\n      mstore8\n      pop\n        /* \"contracts/_ronx1.sol\":5986:6105  {... */\n      pop\n        /* \"contracts/_ronx1.sol\":5971:6105  while (v != 0) {... */\n      jump(tag_272)\n    tag_273:\n        /* \"contracts/_ronx1.sol\":6111:6125  bytes memory s */\n      0x00\n        /* \"contracts/_ronx1.sol\":6138:6139  i */\n      dup2\n        /* \"contracts/_ronx1.sol\":6128:6140  new bytes(i) */\n      0xffffffffffffffff\n      dup2\n      gt\n      iszero\n      tag_283\n      jumpi\n      tag_284\n      tag_119\n      jump\t// in\n    tag_284:\n    tag_283:\n      mload(0x40)\n      swap1\n      dup1\n      dup3\n      mstore\n      dup1\n      0x1f\n      add\n      not(0x1f)\n      and\n      0x20\n      add\n      dup3\n      add\n      0x40\n      mstore\n      dup1\n      iszero\n      tag_285\n      jumpi\n      dup2\n      0x20\n      add\n      0x01\n      dup3\n      mul\n      dup1\n      calldatasize\n      dup4\n      calldatacopy\n      dup1\n      dup3\n      add\n      swap2\n      pop\n      pop\n      swap1\n      pop\n    tag_285:\n      pop\n        /* \"contracts/_ronx1.sol\":6111:6140  bytes memory s = new bytes(i) */\n      swap1\n      pop\n        /* \"contracts/_ronx1.sol\":6152:6158  uint j */\n      0x00\n        /* \"contracts/_ronx1.sol\":6147:6221  for (uint j = 0; j < i; j++) {... */\n    tag_286:\n        /* \"contracts/_ronx1.sol\":6168:6169  i */\n      dup3\n        /* \"contracts/_ronx1.sol\":6164:6165  j */\n      dup2\n        /* \"contracts/_ronx1.sol\":6164:6169  j < i */\n      lt\n        /* \"contracts/_ronx1.sol\":6147:6221  for (uint j = 0; j < i; j++) {... */\n      iszero\n      tag_287\n      jumpi\n        /* \"contracts/_ronx1.sol\":6194:6202  reversed */\n      dup4\n        /* \"contracts/_ronx1.sol\":6211:6212  1 */\n      0x01\n        /* \"contracts/_ronx1.sol\":6207:6208  j */\n      dup3\n        /* \"contracts/_ronx1.sol\":6203:6204  i */\n      dup6\n        /* \"contracts/_ronx1.sol\":6203:6208  i - j */\n      tag_289\n      swap2\n      swap1\n      tag_290\n      jump\t// in\n    tag_289:\n        /* \"contracts/_ronx1.sol\":6203:6212  i - j - 1 */\n      tag_291\n      swap2\n      swap1\n      tag_290\n      jump\t// in\n    tag_291:\n        /* \"contracts/_ronx1.sol\":6194:6213  reversed[i - j - 1] */\n      dup2\n      mload\n      dup2\n      lt\n      tag_292\n      jumpi\n      tag_293\n      tag_282\n      jump\t// in\n    tag_293:\n    tag_292:\n      0x20\n      add\n      add\n      mload\n      0xf8\n      shr\n      0xf8\n      shl\n        /* \"contracts/_ronx1.sol\":6187:6188  s */\n      dup3\n        /* \"contracts/_ronx1.sol\":6189:6190  j */\n      dup3\n        /* \"contracts/_ronx1.sol\":6187:6191  s[j] */\n      dup2\n      mload\n      dup2\n      lt\n      tag_294\n      jumpi\n      tag_295\n      tag_282\n      jump\t// in\n    tag_295:\n    tag_294:\n      0x20\n      add\n      add\n        /* \"contracts/_ronx1.sol\":6187:6213  s[j] = reversed[i - j - 1] */\n      swap1\n      not(0xffffffffffffffffffffffffffffffffffffffffffffffffffffffffffffff)\n      and\n      swap1\n      dup2\n      0x00\n      byte\n      swap1\n      mstore8\n      pop\n        /* \"contracts/_ronx1.sol\":6171:6174  j++ */\n      dup1\n      dup1\n      0x01\n      add\n      swap2\n      pop\n      pop\n        /* \"contracts/_ronx1.sol\":6147:6221  for (uint j = 0; j < i; j++) {... */\n      jump(tag_286)\n    tag_287:\n      pop\n        /* \"contracts/_ronx1.sol\":6240:6241  s */\n      dup1\n        /* \"contracts/_ronx1.sol\":6227:6242  str = string(s) */\n      swap5\n      pop\n        /* \"contracts/_ronx1.sol\":5785:6246  {... */\n      pop\n      pop\n      pop\n      pop\n        /* \"contracts/_ronx1.sol\":5714:6246  function uintToString(uint v) private pure returns (string memory str) {... */\n    tag_267:\n      swap2\n      swap1\n      pop\n      jump\t// out\n    tag_122:\n      dup3\n      dup1\n      sload\n      dup3\n      dup3\n      sstore\n      swap1\n      0x00\n      mstore\n      keccak256(0x00, 0x20)\n      swap1\n      dup2\n      add\n      swap3\n      dup3\n      iszero\n      tag_296\n      jumpi\n      swap2\n      0x20\n      mul\n      dup3\n      add\n    tag_297:\n      dup3\n      dup2\n      gt\n      iszero\n      tag_298\n      jumpi\n      dup3\n      mload\n      dup3\n      exp(0x0100, 0x00)\n      dup2\n      sload\n      dup2\n      0xffffffffffffffffffffffffffffffffffffffff\n      mul\n      not\n      and\n      swap1\n      dup4\n      0xffffffffffffffffffffffffffffffffffffffff\n      and\n      mul\n      or\n      swap1\n      sstore\n      pop\n      swap2\n      0x20\n      add\n      swap2\n      swap1\n      0x01\n      add\n      swap1\n      jump(tag_297)\n    tag_298:\n    tag_296:\n      pop\n      swap1\n      pop\n      tag_299\n      swap2\n      swap1\n      tag_300\n      jump\t// in\n    tag_299:\n      pop\n      swap1\n      jump\t// out\n    tag_300:\n    tag_301:\n      dup1\n      dup3\n      gt\n      iszero\n      tag_302\n      jumpi\n      0x00\n      dup2\n      0x00\n      swap1\n      sstore\n      pop\n      0x01\n      add\n      jump(tag_301)\n    tag_302:\n      pop\n      swap1\n      jump\t// out\n        /* \"#utility.yul\":7:82   */\n    tag_303:\n        /* \"#utility.yul\":40:46   */\n      0x00\n        /* \"#utility.yul\":73:75   */\n      0x40\n        /* \"#utility.yul\":67:76   */\n      mload\n        /* \"#utility.yul\":57:76   */\n      swap1\n      pop\n        /* \"#utility.yul\":7:82   */\n      swap1\n      jump\t// out\n        /* \"#utility.yul\":88:205   */\n    tag_304:\n        /* \"#utility.yul\":197:198   */\n      0x00\n        /* \"#utility.yul\":194:195   */\n      dup1\n        /* \"#utility.yul\":187:199   */\n      revert\n        /* \"#utility.yul\":211:328   */\n    tag_305:\n        /* \"#utility.yul\":320:321   */\n      0x00\n        /* \"#utility.yul\":317:318   */\n      dup1\n        /* \"#utility.yul\":310:322   */\n      revert\n        /* \"#utility.yul\":334:460   */\n    tag_306:\n        /* \"#utility.yul\":371:378   */\n      0x00\n        /* \"#utility.yul\":411:453   */\n      0xffffffffffffffffffffffffffffffffffffffff\n        /* \"#utility.yul\":404:409   */\n      dup3\n        /* \"#utility.yul\":400:454   */\n      and\n        /* \"#utility.yul\":389:454   */\n      swap1\n      pop\n        /* \"#utility.yul\":334:460   */\n      swap2\n      swap1\n      pop\n      jump\t// out\n        /* \"#utility.yul\":466:562   */\n    tag_307:\n        /* \"#utility.yul\":503:510   */\n      0x00\n        /* \"#utility.yul\":532:556   */\n      tag_387\n        /* \"#utility.yul\":550:555   */\n      dup3\n        /* \"#utility.yul\":532:556   */\n      tag_306\n      jump\t// in\n    tag_387:\n        /* \"#utility.yul\":521:556   */\n      swap1\n      pop\n        /* \"#utility.yul\":466:562   */\n      swap2\n      swap1\n      pop\n      jump\t// out\n        /* \"#utility.yul\":568:690   */\n    tag_308:\n        /* \"#utility.yul\":641:665   */\n      tag_389\n        /* \"#utility.yul\":659:664   */\n      dup2\n        /* \"#utility.yul\":641:665   */\n      tag_307\n      jump\t// in\n    tag_389:\n        /* \"#utility.yul\":634:639   */\n      dup2\n        /* \"#utility.yul\":631:666   */\n      eq\n        /* \"#utility.yul\":621:684   */\n      tag_390\n      jumpi\n        /* \"#utility.yul\":680:681   */\n      0x00\n        /* \"#utility.yul\":677:678   */\n      dup1\n        /* \"#utility.yul\":670:682   */\n      revert\n        /* \"#utility.yul\":621:684   */\n    tag_390:\n        /* \"#utility.yul\":568:690   */\n      pop\n      jump\t// out\n        /* \"#utility.yul\":696:835   */\n    tag_309:\n        /* \"#utility.yul\":742:747   */\n      0x00\n        /* \"#utility.yul\":780:786   */\n      dup2\n        /* \"#utility.yul\":767:787   */\n      calldataload\n        /* \"#utility.yul\":758:787   */\n      swap1\n      pop\n        /* \"#utility.yul\":796:829   */\n      tag_392\n        /* \"#utility.yul\":823:828   */\n      dup2\n        /* \"#utility.yul\":796:829   */\n      tag_308\n      jump\t// in\n    tag_392:\n        /* \"#utility.yul\":696:835   */\n      swap3\n      swap2\n      pop\n      pop\n      jump\t// out\n        /* \"#utility.yul\":841:958   */\n    tag_310:\n        /* \"#utility.yul\":950:951   */\n      0x00\n        /* \"#utility.yul\":947:948   */\n      dup1\n        /* \"#utility.yul\":940:952   */\n      revert\n        /* \"#utility.yul\":964:1081   */\n    tag_311:\n        /* \"#utility.yul\":1073:1074   */\n      0x00\n        /* \"#utility.yul\":1070:1071   */\n      dup1\n        /* \"#utility.yul\":1063:1075   */\n      revert\n        /* \"#utility.yul\":1087:1189   */\n    tag_312:\n        /* \"#utility.yul\":1128:1134   */\n      0x00\n        /* \"#utility.yul\":1179:1181   */\n      0x1f\n        /* \"#utility.yul\":1175:1182   */\n      not\n        /* \"#utility.yul\":1170:1172   */\n      0x1f\n        /* \"#utility.yul\":1163:1168   */\n      dup4\n        /* \"#utility.yul\":1159:1173   */\n      add\n        /* \"#utility.yul\":1155:1183   */\n      and\n        /* \"#utility.yul\":1145:1183   */\n      swap1\n      pop\n        /* \"#utility.yul\":1087:1189   */\n      swap2\n      swap1\n      pop\n      jump\t// out\n        /* \"#utility.yul\":1195:1375   */\n    tag_119:\n        /* \"#utility.yul\":1243:1320   */\n      0x4e487b7100000000000000000000000000000000000000000000000000000000\n        /* \"#utility.yul\":1240:1241   */\n      0x00\n        /* \"#utility.yul\":1233:1321   */\n      mstore\n        /* \"#utility.yul\":1340:1344   */\n      0x41\n        /* \"#utility.yul\":1337:1338   */\n      0x04\n        /* \"#utility.yul\":1330:1345   */\n      mstore\n        /* \"#utility.yul\":1364:1368   */\n      0x24\n        /* \"#utility.yul\":1361:1362   */\n      0x00\n        /* \"#utility.yul\":1354:1369   */\n      revert\n        /* \"#utility.yul\":1381:1662   */\n    tag_313:\n        /* \"#utility.yul\":1464:1491   */\n      tag_398\n        /* \"#utility.yul\":1486:1490   */\n      dup3\n        /* \"#utility.yul\":1464:1491   */\n      tag_312\n      jump\t// in\n    tag_398:\n        /* \"#utility.yul\":1456:1462   */\n      dup2\n        /* \"#utility.yul\":1452:1492   */\n      add\n        /* \"#utility.yul\":1594:1600   */\n      dup2\n        /* \"#utility.yul\":1582:1592   */\n      dup2\n        /* \"#utility.yul\":1579:1601   */\n      lt\n        /* \"#utility.yul\":1558:1576   */\n      0xffffffffffffffff\n        /* \"#utility.yul\":1546:1556   */\n      dup3\n        /* \"#utility.yul\":1543:1577   */\n      gt\n        /* \"#utility.yul\":1540:1602   */\n      or\n        /* \"#utility.yul\":1537:1625   */\n      iszero\n      tag_399\n      jumpi\n        /* \"#utility.yul\":1605:1623   */\n      tag_400\n      tag_119\n      jump\t// in\n    tag_400:\n        /* \"#utility.yul\":1537:1625   */\n    tag_399:\n        /* \"#utility.yul\":1645:1655   */\n      dup1\n        /* \"#utility.yul\":1641:1643   */\n      0x40\n        /* \"#utility.yul\":1634:1656   */\n      mstore\n        /* \"#utility.yul\":1424:1662   */\n      pop\n        /* \"#utility.yul\":1381:1662   */\n      pop\n      pop\n      jump\t// out\n        /* \"#utility.yul\":1668:1797   */\n    tag_314:\n        /* \"#utility.yul\":1702:1708   */\n      0x00\n        /* \"#utility.yul\":1729:1749   */\n      tag_402\n      tag_303\n      jump\t// in\n    tag_402:\n        /* \"#utility.yul\":1719:1749   */\n      swap1\n      pop\n        /* \"#utility.yul\":1758:1791   */\n      tag_403\n        /* \"#utility.yul\":1786:1790   */\n      dup3\n        /* \"#utility.yul\":1778:1784   */\n      dup3\n        /* \"#utility.yul\":1758:1791   */\n      tag_313\n      jump\t// in\n    tag_403:\n        /* \"#utility.yul\":1668:1797   */\n      swap2\n      swap1\n      pop\n      jump\t// out\n        /* \"#utility.yul\":1803:2111   */\n    tag_315:\n        /* \"#utility.yul\":1865:1869   */\n      0x00\n        /* \"#utility.yul\":1955:1973   */\n      0xffffffffffffffff\n        /* \"#utility.yul\":1947:1953   */\n      dup3\n        /* \"#utility.yul\":1944:1974   */\n      gt\n        /* \"#utility.yul\":1941:1997   */\n      iszero\n      tag_405\n      jumpi\n        /* \"#utility.yul\":1977:1995   */\n      tag_406\n      tag_119\n      jump\t// in\n    tag_406:\n        /* \"#utility.yul\":1941:1997   */\n    tag_405:\n        /* \"#utility.yul\":2015:2044   */\n      tag_407\n        /* \"#utility.yul\":2037:2043   */\n      dup3\n        /* \"#utility.yul\":2015:2044   */\n      tag_312\n      jump\t// in\n    tag_407:\n        /* \"#utility.yul\":2007:2044   */\n      swap1\n      pop\n        /* \"#utility.yul\":2099:2103   */\n      0x20\n        /* \"#utility.yul\":2093:2097   */\n      dup2\n        /* \"#utility.yul\":2089:2104   */\n      add\n        /* \"#utility.yul\":2081:2104   */\n      swap1\n      pop\n        /* \"#utility.yul\":1803:2111   */\n      swap2\n      swap1\n      pop\n      jump\t// out\n        /* \"#utility.yul\":2117:2265   */\n    tag_316:\n        /* \"#utility.yul\":2215:2221   */\n      dup3\n        /* \"#utility.yul\":2210:2213   */\n      dup2\n        /* \"#utility.yul\":2205:2208   */\n      dup4\n        /* \"#utility.yul\":2192:2222   */\n      calldatacopy\n        /* \"#utility.yul\":2256:2257   */\n      0x00\n        /* \"#utility.yul\":2247:2253   */\n      dup4\n        /* \"#utility.yul\":2242:2245   */\n      dup4\n        /* \"#utility.yul\":2238:2254   */\n      add\n        /* \"#utility.yul\":2231:2258   */\n      mstore\n        /* \"#utility.yul\":2117:2265   */\n      pop\n      pop\n      pop\n      jump\t// out\n        /* \"#utility.yul\":2271:2696   */\n    tag_317:\n        /* \"#utility.yul\":2349:2354   */\n      0x00\n        /* \"#utility.yul\":2374:2440   */\n      tag_410\n        /* \"#utility.yul\":2390:2439   */\n      tag_411\n        /* \"#utility.yul\":2432:2438   */\n      dup5\n        /* \"#utility.yul\":2390:2439   */\n      tag_315\n      jump\t// in\n    tag_411:\n        /* \"#utility.yul\":2374:2440   */\n      tag_314\n      jump\t// in\n    tag_410:\n        /* \"#utility.yul\":2365:2440   */\n      swap1\n      pop\n        /* \"#utility.yul\":2463:2469   */\n      dup3\n        /* \"#utility.yul\":2456:2461   */\n      dup2\n        /* \"#utility.yul\":2449:2470   */\n      mstore\n        /* \"#utility.yul\":2501:2505   */\n      0x20\n        /* \"#utility.yul\":2494:2499   */\n      dup2\n        /* \"#utility.yul\":2490:2506   */\n      add\n        /* \"#utility.yul\":2539:2542   */\n      dup5\n        /* \"#utility.yul\":2530:2536   */\n      dup5\n        /* \"#utility.yul\":2525:2528   */\n      dup5\n        /* \"#utility.yul\":2521:2537   */\n      add\n        /* \"#utility.yul\":2518:2543   */\n      gt\n        /* \"#utility.yul\":2515:2627   */\n      iszero\n      tag_412\n      jumpi\n        /* \"#utility.yul\":2546:2625   */\n      tag_413\n      tag_311\n      jump\t// in\n    tag_413:\n        /* \"#utility.yul\":2515:2627   */\n    tag_412:\n        /* \"#utility.yul\":2636:2690   */\n      tag_414\n        /* \"#utility.yul\":2683:2689   */\n      dup5\n        /* \"#utility.yul\":2678:2681   */\n      dup3\n        /* \"#utility.yul\":2673:2676   */\n      dup6\n        /* \"#utility.yul\":2636:2690   */\n      tag_316\n      jump\t// in\n    tag_414:\n        /* \"#utility.yul\":2355:2696   */\n      pop\n        /* \"#utility.yul\":2271:2696   */\n      swap4\n      swap3\n      pop\n      pop\n      pop\n      jump\t// out\n        /* \"#utility.yul\":2716:3056   */\n    tag_318:\n        /* \"#utility.yul\":2772:2777   */\n      0x00\n        /* \"#utility.yul\":2821:2824   */\n      dup3\n        /* \"#utility.yul\":2814:2818   */\n      0x1f\n        /* \"#utility.yul\":2806:2812   */\n      dup4\n        /* \"#utility.yul\":2802:2819   */\n      add\n        /* \"#utility.yul\":2798:2825   */\n      slt\n        /* \"#utility.yul\":2788:2910   */\n      tag_416\n      jumpi\n        /* \"#utility.yul\":2829:2908   */\n      tag_417\n      tag_310\n      jump\t// in\n    tag_417:\n        /* \"#utility.yul\":2788:2910   */\n    tag_416:\n        /* \"#utility.yul\":2946:2952   */\n      dup2\n        /* \"#utility.yul\":2933:2953   */\n      calldataload\n        /* \"#utility.yul\":2971:3050   */\n      tag_418\n        /* \"#utility.yul\":3046:3049   */\n      dup5\n        /* \"#utility.yul\":3038:3044   */\n      dup3\n        /* \"#utility.yul\":3031:3035   */\n      0x20\n        /* \"#utility.yul\":3023:3029   */\n      dup7\n        /* \"#utility.yul\":3019:3036   */\n      add\n        /* \"#utility.yul\":2971:3050   */\n      tag_317\n      jump\t// in\n    tag_418:\n        /* \"#utility.yul\":2962:3050   */\n      swap2\n      pop\n        /* \"#utility.yul\":2778:3056   */\n      pop\n        /* \"#utility.yul\":2716:3056   */\n      swap3\n      swap2\n      pop\n      pop\n      jump\t// out\n        /* \"#utility.yul\":3062:4693   */\n    tag_25:\n        /* \"#utility.yul\":3197:3203   */\n      0x00\n        /* \"#utility.yul\":3205:3211   */\n      dup1\n        /* \"#utility.yul\":3213:3219   */\n      0x00\n        /* \"#utility.yul\":3221:3227   */\n      dup1\n        /* \"#utility.yul\":3229:3235   */\n      0x00\n        /* \"#utility.yul\":3278:3281   */\n      0xa0\n        /* \"#utility.yul\":3266:3275   */\n      dup7\n        /* \"#utility.yul\":3257:3264   */\n      dup9\n        /* \"#utility.yul\":3253:3276   */\n      sub\n        /* \"#utility.yul\":3249:3282   */\n      slt\n        /* \"#utility.yul\":3246:3366   */\n      iszero\n      tag_420\n      jumpi\n        /* \"#utility.yul\":3285:3364   */\n      tag_421\n      tag_304\n      jump\t// in\n    tag_421:\n        /* \"#utility.yul\":3246:3366   */\n    tag_420:\n        /* \"#utility.yul\":3405:3406   */\n      0x00\n        /* \"#utility.yul\":3430:3483   */\n      tag_422\n        /* \"#utility.yul\":3475:3482   */\n      dup9\n        /* \"#utility.yul\":3466:3472   */\n      dup3\n        /* \"#utility.yul\":3455:3464   */\n      dup10\n        /* \"#utility.yul\":3451:3473   */\n      add\n        /* \"#utility.yul\":3430:3483   */\n      tag_309\n      jump\t// in\n    tag_422:\n        /* \"#utility.yul\":3420:3483   */\n      swap6\n      pop\n        /* \"#utility.yul\":3376:3493   */\n      pop\n        /* \"#utility.yul\":3560:3562   */\n      0x20\n        /* \"#utility.yul\":3549:3558   */\n      dup7\n        /* \"#utility.yul\":3545:3563   */\n      add\n        /* \"#utility.yul\":3532:3564   */\n      calldataload\n        /* \"#utility.yul\":3591:3609   */\n      0xffffffffffffffff\n        /* \"#utility.yul\":3583:3589   */\n      dup2\n        /* \"#utility.yul\":3580:3610   */\n      gt\n        /* \"#utility.yul\":3577:3694   */\n      iszero\n      tag_423\n      jumpi\n        /* \"#utility.yul\":3613:3692   */\n      tag_424\n      tag_305\n      jump\t// in\n    tag_424:\n        /* \"#utility.yul\":3577:3694   */\n    tag_423:\n        /* \"#utility.yul\":3718:3781   */\n      tag_425\n        /* \"#utility.yul\":3773:3780   */\n      dup9\n        /* \"#utility.yul\":3764:3770   */\n      dup3\n        /* \"#utility.yul\":3753:3762   */\n      dup10\n        /* \"#utility.yul\":3749:3771   */\n      add\n        /* \"#utility.yul\":3718:3781   */\n      tag_318\n      jump\t// in\n    tag_425:\n        /* \"#utility.yul\":3708:3781   */\n      swap5\n      pop\n        /* \"#utility.yul\":3503:3791   */\n      pop\n        /* \"#utility.yul\":3858:3860   */\n      0x40\n        /* \"#utility.yul\":3847:3856   */\n      dup7\n        /* \"#utility.yul\":3843:3861   */\n      add\n        /* \"#utility.yul\":3830:3862   */\n      calldataload\n        /* \"#utility.yul\":3889:3907   */\n      0xffffffffffffffff\n        /* \"#utility.yul\":3881:3887   */\n      dup2\n        /* \"#utility.yul\":3878:3908   */\n      gt\n        /* \"#utility.yul\":3875:3992   */\n      iszero\n      tag_426\n      jumpi\n        /* \"#utility.yul\":3911:3990   */\n      tag_427\n      tag_305\n      jump\t// in\n    tag_427:\n        /* \"#utility.yul\":3875:3992   */\n    tag_426:\n        /* \"#utility.yul\":4016:4079   */\n      tag_428\n        /* \"#utility.yul\":4071:4078   */\n      dup9\n        /* \"#utility.yul\":4062:4068   */\n      dup3\n        /* \"#utility.yul\":4051:4060   */\n      dup10\n        /* \"#utility.yul\":4047:4069   */\n      add\n        /* \"#utility.yul\":4016:4079   */\n      tag_318\n      jump\t// in\n    tag_428:\n        /* \"#utility.yul\":4006:4079   */\n      swap4\n      pop\n        /* \"#utility.yul\":3801:4089   */\n      pop\n        /* \"#utility.yul\":4156:4158   */\n      0x60\n        /* \"#utility.yul\":4145:4154   */\n      dup7\n        /* \"#utility.yul\":4141:4159   */\n      add\n        /* \"#utility.yul\":4128:4160   */\n      calldataload\n        /* \"#utility.yul\":4187:4205   */\n      0xffffffffffffffff\n        /* \"#utility.yul\":4179:4185   */\n      dup2\n        /* \"#utility.yul\":4176:4206   */\n      gt\n        /* \"#utility.yul\":4173:4290   */\n      iszero\n      tag_429\n      jumpi\n        /* \"#utility.yul\":4209:4288   */\n      tag_430\n      tag_305\n      jump\t// in\n    tag_430:\n        /* \"#utility.yul\":4173:4290   */\n    tag_429:\n        /* \"#utility.yul\":4314:4377   */\n      tag_431\n        /* \"#utility.yul\":4369:4376   */\n      dup9\n        /* \"#utility.yul\":4360:4366   */\n      dup3\n        /* \"#utility.yul\":4349:4358   */\n      dup10\n        /* \"#utility.yul\":4345:4367   */\n      add\n        /* \"#utility.yul\":4314:4377   */\n      tag_318\n      jump\t// in\n    tag_431:\n        /* \"#utility.yul\":4304:4377   */\n      swap3\n      pop\n        /* \"#utility.yul\":4099:4387   */\n      pop\n        /* \"#utility.yul\":4454:4457   */\n      0x80\n        /* \"#utility.yul\":4443:4452   */\n      dup7\n        /* \"#utility.yul\":4439:4458   */\n      add\n        /* \"#utility.yul\":4426:4459   */\n      calldataload\n        /* \"#utility.yul\":4486:4504   */\n      0xffffffffffffffff\n        /* \"#utility.yul\":4478:4484   */\n      dup2\n        /* \"#utility.yul\":4475:4505   */\n      gt\n        /* \"#utility.yul\":4472:4589   */\n      iszero\n      tag_432\n      jumpi\n        /* \"#utility.yul\":4508:4587   */\n      tag_433\n      tag_305\n      jump\t// in\n    tag_433:\n        /* \"#utility.yul\":4472:4589   */\n    tag_432:\n        /* \"#utility.yul\":4613:4676   */\n      tag_434\n        /* \"#utility.yul\":4668:4675   */\n      dup9\n        /* \"#utility.yul\":4659:4665   */\n      dup3\n        /* \"#utility.yul\":4648:4657   */\n      dup10\n        /* \"#utility.yul\":4644:4666   */\n      add\n        /* \"#utility.yul\":4613:4676   */\n      tag_318\n      jump\t// in\n    tag_434:\n        /* \"#utility.yul\":4603:4676   */\n      swap2\n      pop\n        /* \"#utility.yul\":4397:4686   */\n      pop\n        /* \"#utility.yul\":3062:4693   */\n      swap3\n      swap6\n      pop\n      swap3\n      swap6\n      swap1\n      swap4\n      pop\n      jump\t// out\n        /* \"#utility.yul\":4699:4785   */\n    tag_319:\n        /* \"#utility.yul\":4734:4741   */\n      0x00\n        /* \"#utility.yul\":4774:4778   */\n      0xff\n        /* \"#utility.yul\":4767:4772   */\n      dup3\n        /* \"#utility.yul\":4763:4779   */\n      and\n        /* \"#utility.yul\":4752:4779   */\n      swap1\n      pop\n        /* \"#utility.yul\":4699:4785   */\n      swap2\n      swap1\n      pop\n      jump\t// out\n        /* \"#utility.yul\":4791:4903   */\n    tag_320:\n        /* \"#utility.yul\":4874:4896   */\n      tag_437\n        /* \"#utility.yul\":4890:4895   */\n      dup2\n        /* \"#utility.yul\":4874:4896   */\n      tag_319\n      jump\t// in\n    tag_437:\n        /* \"#utility.yul\":4869:4872   */\n      dup3\n        /* \"#utility.yul\":4862:4897   */\n      mstore\n        /* \"#utility.yul\":4791:4903   */\n      pop\n      pop\n      jump\t// out\n        /* \"#utility.yul\":4909:5123   */\n    tag_31:\n        /* \"#utility.yul\":4998:5002   */\n      0x00\n        /* \"#utility.yul\":5036:5038   */\n      0x20\n        /* \"#utility.yul\":5025:5034   */\n      dup3\n        /* \"#utility.yul\":5021:5039   */\n      add\n        /* \"#utility.yul\":5013:5039   */\n      swap1\n      pop\n        /* \"#utility.yul\":5049:5116   */\n      tag_439\n        /* \"#utility.yul\":5113:5114   */\n      0x00\n        /* \"#utility.yul\":5102:5111   */\n      dup4\n        /* \"#utility.yul\":5098:5115   */\n      add\n        /* \"#utility.yul\":5089:5095   */\n      dup5\n        /* \"#utility.yul\":5049:5116   */\n      tag_320\n      jump\t// in\n    tag_439:\n        /* \"#utility.yul\":4909:5123   */\n      swap3\n      swap2\n      pop\n      pop\n      jump\t// out\n        /* \"#utility.yul\":5129:5206   */\n    tag_321:\n        /* \"#utility.yul\":5166:5173   */\n      0x00\n        /* \"#utility.yul\":5195:5200   */\n      dup2\n        /* \"#utility.yul\":5184:5200   */\n      swap1\n      pop\n        /* \"#utility.yul\":5129:5206   */\n      swap2\n      swap1\n      pop\n      jump\t// out\n        /* \"#utility.yul\":5212:5334   */\n    tag_322:\n        /* \"#utility.yul\":5285:5309   */\n      tag_442\n        /* \"#utility.yul\":5303:5308   */\n      dup2\n        /* \"#utility.yul\":5285:5309   */\n      tag_321\n      jump\t// in\n    tag_442:\n        /* \"#utility.yul\":5278:5283   */\n      dup2\n        /* \"#utility.yul\":5275:5310   */\n      eq\n        /* \"#utility.yul\":5265:5328   */\n      tag_443\n      jumpi\n        /* \"#utility.yul\":5324:5325   */\n      0x00\n        /* \"#utility.yul\":5321:5322   */\n      dup1\n        /* \"#utility.yul\":5314:5326   */\n      revert\n        /* \"#utility.yul\":5265:5328   */\n    tag_443:\n        /* \"#utility.yul\":5212:5334   */\n      pop\n      jump\t// out\n        /* \"#utility.yul\":5340:5479   */\n    tag_323:\n        /* \"#utility.yul\":5386:5391   */\n      0x00\n        /* \"#utility.yul\":5424:5430   */\n      dup2\n        /* \"#utility.yul\":5411:5431   */\n      calldataload\n        /* \"#utility.yul\":5402:5431   */\n      swap1\n      pop\n        /* \"#utility.yul\":5440:5473   */\n      tag_445\n        /* \"#utility.yul\":5467:5472   */\n      dup2\n        /* \"#utility.yul\":5440:5473   */\n      tag_322\n      jump\t// in\n    tag_445:\n        /* \"#utility.yul\":5340:5479   */\n      swap3\n      swap2\n      pop\n      pop\n      jump\t// out\n        /* \"#utility.yul\":5485:5814   */\n    tag_35:\n        /* \"#utility.yul\":5544:5550   */\n      0x00\n        /* \"#utility.yul\":5593:5595   */\n      0x20\n        /* \"#utility.yul\":5581:5590   */\n      dup3\n        /* \"#utility.yul\":5572:5579   */\n      dup5\n        /* \"#utility.yul\":5568:5591   */\n      sub\n        /* \"#utility.yul\":5564:5596   */\n      slt\n        /* \"#utility.yul\":5561:5680   */\n      iszero\n      tag_447\n      jumpi\n        /* \"#utility.yul\":5599:5678   */\n      tag_448\n      tag_304\n      jump\t// in\n    tag_448:\n        /* \"#utility.yul\":5561:5680   */\n    tag_447:\n        /* \"#utility.yul\":5719:5720   */\n      0x00\n        /* \"#utility.yul\":5744:5797   */\n      tag_449\n        /* \"#utility.yul\":5789:5796   */\n      dup5\n        /* \"#utility.yul\":5780:5786   */\n      dup3\n        /* \"#utility.yul\":5769:5778   */\n      dup6\n        /* \"#utility.yul\":5765:5787   */\n      add\n        /* \"#utility.yul\":5744:5797   */\n      tag_323\n      jump\t// in\n    tag_449:\n        /* \"#utility.yul\":5734:5797   */\n      swap2\n      pop\n        /* \"#utility.yul\":5690:5807   */\n      pop\n        /* \"#utility.yul\":5485:5814   */\n      swap3\n      swap2\n      pop\n      pop\n      jump\t// out\n        /* \"#utility.yul\":5820:5938   */\n    tag_324:\n        /* \"#utility.yul\":5907:5931   */\n      tag_451\n        /* \"#utility.yul\":5925:5930   */\n      dup2\n        /* \"#utility.yul\":5907:5931   */\n      tag_307\n      jump\t// in\n    tag_451:\n        /* \"#utility.yul\":5902:5905   */\n      dup3\n        /* \"#utility.yul\":5895:5932   */\n      mstore\n        /* \"#utility.yul\":5820:5938   */\n      pop\n      pop\n      jump\t// out\n        /* \"#utility.yul\":5944:6166   */\n    tag_38:\n        /* \"#utility.yul\":6037:6041   */\n      0x00\n        /* \"#utility.yul\":6075:6077   */\n      0x20\n        /* \"#utility.yul\":6064:6073   */\n      dup3\n        /* \"#utility.yul\":6060:6078   */\n      add\n        /* \"#utility.yul\":6052:6078   */\n      swap1\n      pop\n        /* \"#utility.yul\":6088:6159   */\n      tag_453\n        /* \"#utility.yul\":6156:6157   */\n      0x00\n        /* \"#utility.yul\":6145:6154   */\n      dup4\n        /* \"#utility.yul\":6141:6158   */\n      add\n        /* \"#utility.yul\":6132:6138   */\n      dup5\n        /* \"#utility.yul\":6088:6159   */\n      tag_324\n      jump\t// in\n    tag_453:\n        /* \"#utility.yul\":5944:6166   */\n      swap3\n      swap2\n      pop\n      pop\n      jump\t// out\n        /* \"#utility.yul\":6172:8275   */\n    tag_41:\n        /* \"#utility.yul\":6335:6341   */\n      0x00\n        /* \"#utility.yul\":6343:6349   */\n      dup1\n        /* \"#utility.yul\":6351:6357   */\n      0x00\n        /* \"#utility.yul\":6359:6365   */\n      dup1\n        /* \"#utility.yul\":6367:6373   */\n      0x00\n        /* \"#utility.yul\":6375:6381   */\n      dup1\n        /* \"#utility.yul\":6383:6389   */\n      0x00\n        /* \"#utility.yul\":6432:6435   */\n      0xe0\n        /* \"#utility.yul\":6420:6429   */\n      dup9\n        /* \"#utility.yul\":6411:6418   */\n      dup11\n        /* \"#utility.yul\":6407:6430   */\n      sub\n        /* \"#utility.yul\":6403:6436   */\n      slt\n        /* \"#utility.yul\":6400:6520   */\n      iszero\n      tag_455\n      jumpi\n        /* \"#utility.yul\":6439:6518   */\n      tag_456\n      tag_304\n      jump\t// in\n    tag_456:\n        /* \"#utility.yul\":6400:6520   */\n    tag_455:\n        /* \"#utility.yul\":6559:6560   */\n      0x00\n        /* \"#utility.yul\":6584:6637   */\n      tag_457\n        /* \"#utility.yul\":6629:6636   */\n      dup11\n        /* \"#utility.yul\":6620:6626   */\n      dup3\n        /* \"#utility.yul\":6609:6618   */\n      dup12\n        /* \"#utility.yul\":6605:6627   */\n      add\n        /* \"#utility.yul\":6584:6637   */\n      tag_309\n      jump\t// in\n    tag_457:\n        /* \"#utility.yul\":6574:6637   */\n      swap8\n      pop\n        /* \"#utility.yul\":6530:6647   */\n      pop\n        /* \"#utility.yul\":6714:6716   */\n      0x20\n        /* \"#utility.yul\":6703:6712   */\n      dup9\n        /* \"#utility.yul\":6699:6717   */\n      add\n        /* \"#utility.yul\":6686:6718   */\n      calldataload\n        /* \"#utility.yul\":6745:6763   */\n      0xffffffffffffffff\n        /* \"#utility.yul\":6737:6743   */\n      dup2\n        /* \"#utility.yul\":6734:6764   */\n      gt\n        /* \"#utility.yul\":6731:6848   */\n      iszero\n      tag_458\n      jumpi\n        /* \"#utility.yul\":6767:6846   */\n      tag_459\n      tag_305\n      jump\t// in\n    tag_459:\n        /* \"#utility.yul\":6731:6848   */\n    tag_458:\n        /* \"#utility.yul\":6872:6935   */\n      tag_460\n        /* \"#utility.yul\":6927:6934   */\n      dup11\n        /* \"#utility.yul\":6918:6924   */\n      dup3\n        /* \"#utility.yul\":6907:6916   */\n      dup12\n        /* \"#utility.yul\":6903:6925   */\n      add\n        /* \"#utility.yul\":6872:6935   */\n      tag_318\n      jump\t// in\n    tag_460:\n        /* \"#utility.yul\":6862:6935   */\n      swap7\n      pop\n        /* \"#utility.yul\":6657:6945   */\n      pop\n        /* \"#utility.yul\":7012:7014   */\n      0x40\n        /* \"#utility.yul\":7001:7010   */\n      dup9\n        /* \"#utility.yul\":6997:7015   */\n      add\n        /* \"#utility.yul\":6984:7016   */\n      calldataload\n        /* \"#utility.yul\":7043:7061   */\n      0xffffffffffffffff\n        /* \"#utility.yul\":7035:7041   */\n      dup2\n        /* \"#utility.yul\":7032:7062   */\n      gt\n        /* \"#utility.yul\":7029:7146   */\n      iszero\n      tag_461\n      jumpi\n        /* \"#utility.yul\":7065:7144   */\n      tag_462\n      tag_305\n      jump\t// in\n    tag_462:\n        /* \"#utility.yul\":7029:7146   */\n    tag_461:\n        /* \"#utility.yul\":7170:7233   */\n      tag_463\n        /* \"#utility.yul\":7225:7232   */\n      dup11\n        /* \"#utility.yul\":7216:7222   */\n      dup3\n        /* \"#utility.yul\":7205:7214   */\n      dup12\n        /* \"#utility.yul\":7201:7223   */\n      add\n        /* \"#utility.yul\":7170:7233   */\n      tag_318\n      jump\t// in\n    tag_463:\n        /* \"#utility.yul\":7160:7233   */\n      swap6\n      pop\n        /* \"#utility.yul\":6955:7243   */\n      pop\n        /* \"#utility.yul\":7310:7312   */\n      0x60\n        /* \"#utility.yul\":7299:7308   */\n      dup9\n        /* \"#utility.yul\":7295:7313   */\n      add\n        /* \"#utility.yul\":7282:7314   */\n      calldataload\n        /* \"#utility.yul\":7341:7359   */\n      0xffffffffffffffff\n        /* \"#utility.yul\":7333:7339   */\n      dup2\n        /* \"#utility.yul\":7330:7360   */\n      gt\n        /* \"#utility.yul\":7327:7444   */\n      iszero\n      tag_464\n      jumpi\n        /* \"#utility.yul\":7363:7442   */\n      tag_465\n      tag_305\n      jump\t// in\n    tag_465:\n        /* \"#utility.yul\":7327:7444   */\n    tag_464:\n        /* \"#utility.yul\":7468:7531   */\n      tag_466\n        /* \"#utility.yul\":7523:7530   */\n      dup11\n        /* \"#utility.yul\":7514:7520   */\n      dup3\n        /* \"#utility.yul\":7503:7512   */\n      dup12\n        /* \"#utility.yul\":7499:7521   */\n      add\n        /* \"#utility.yul\":7468:7531   */\n      tag_318\n      jump\t// in\n    tag_466:\n        /* \"#utility.yul\":7458:7531   */\n      swap5\n      pop\n        /* \"#utility.yul\":7253:7541   */\n      pop\n        /* \"#utility.yul\":7608:7611   */\n      0x80\n        /* \"#utility.yul\":7597:7606   */\n      dup9\n        /* \"#utility.yul\":7593:7612   */\n      add\n        /* \"#utility.yul\":7580:7613   */\n      calldataload\n        /* \"#utility.yul\":7640:7658   */\n      0xffffffffffffffff\n        /* \"#utility.yul\":7632:7638   */\n      dup2\n        /* \"#utility.yul\":7629:7659   */\n      gt\n        /* \"#utility.yul\":7626:7743   */\n      iszero\n      tag_467\n      jumpi\n        /* \"#utility.yul\":7662:7741   */\n      tag_468\n      tag_305\n      jump\t// in\n    tag_468:\n        /* \"#utility.yul\":7626:7743   */\n    tag_467:\n        /* \"#utility.yul\":7767:7830   */\n      tag_469\n        /* \"#utility.yul\":7822:7829   */\n      dup11\n        /* \"#utility.yul\":7813:7819   */\n      dup3\n        /* \"#utility.yul\":7802:7811   */\n      dup12\n        /* \"#utility.yul\":7798:7820   */\n      add\n        /* \"#utility.yul\":7767:7830   */\n      tag_318\n      jump\t// in\n    tag_469:\n        /* \"#utility.yul\":7757:7830   */\n      swap4\n      pop\n        /* \"#utility.yul\":7551:7840   */\n      pop\n        /* \"#utility.yul\":7907:7910   */\n      0xa0\n        /* \"#utility.yul\":7896:7905   */\n      dup9\n        /* \"#utility.yul\":7892:7911   */\n      add\n        /* \"#utility.yul\":7879:7912   */\n      calldataload\n        /* \"#utility.yul\":7939:7957   */\n      0xffffffffffffffff\n        /* \"#utility.yul\":7931:7937   */\n      dup2\n        /* \"#utility.yul\":7928:7958   */\n      gt\n        /* \"#utility.yul\":7925:8042   */\n      iszero\n      tag_470\n      jumpi\n        /* \"#utility.yul\":7961:8040   */\n      tag_471\n      tag_305\n      jump\t// in\n    tag_471:\n        /* \"#utility.yul\":7925:8042   */\n    tag_470:\n        /* \"#utility.yul\":8066:8129   */\n      tag_472\n        /* \"#utility.yul\":8121:8128   */\n      dup11\n        /* \"#utility.yul\":8112:8118   */\n      dup3\n        /* \"#utility.yul\":8101:8110   */\n      dup12\n        /* \"#utility.yul\":8097:8119   */\n      add\n        /* \"#utility.yul\":8066:8129   */\n      tag_318\n      jump\t// in\n    tag_472:\n        /* \"#utility.yul\":8056:8129   */\n      swap3\n      pop\n        /* \"#utility.yul\":7850:8139   */\n      pop\n        /* \"#utility.yul\":8178:8181   */\n      0xc0\n        /* \"#utility.yul\":8205:8258   */\n      tag_473\n        /* \"#utility.yul\":8250:8257   */\n      dup11\n        /* \"#utility.yul\":8241:8247   */\n      dup3\n        /* \"#utility.yul\":8230:8239   */\n      dup12\n        /* \"#utility.yul\":8226:8248   */\n      add\n        /* \"#utility.yul\":8205:8258   */\n      tag_309\n      jump\t// in\n    tag_473:\n        /* \"#utility.yul\":8195:8258   */\n      swap2\n      pop\n        /* \"#utility.yul\":8149:8268   */\n      pop\n        /* \"#utility.yul\":6172:8275   */\n      swap3\n      swap6\n      swap9\n      swap2\n      swap5\n      swap8\n      pop\n      swap3\n      swap6\n      pop\n      jump\t// out\n        /* \"#utility.yul\":8281:8399   */\n    tag_325:\n        /* \"#utility.yul\":8368:8392   */\n      tag_475\n        /* \"#utility.yul\":8386:8391   */\n      dup2\n        /* \"#utility.yul\":8368:8392   */\n      tag_321\n      jump\t// in\n    tag_475:\n        /* \"#utility.yul\":8363:8366   */\n      dup3\n        /* \"#utility.yul\":8356:8393   */\n      mstore\n        /* \"#utility.yul\":8281:8399   */\n      pop\n      pop\n      jump\t// out\n        /* \"#utility.yul\":8405:8627   */\n    tag_47:\n        /* \"#utility.yul\":8498:8502   */\n      0x00\n        /* \"#utility.yul\":8536:8538   */\n      0x20\n        /* \"#utility.yul\":8525:8534   */\n      dup3\n        /* \"#utility.yul\":8521:8539   */\n      add\n        /* \"#utility.yul\":8513:8539   */\n      swap1\n      pop\n        /* \"#utility.yul\":8549:8620   */\n      tag_477\n        /* \"#utility.yul\":8617:8618   */\n      0x00\n        /* \"#utility.yul\":8606:8615   */\n      dup4\n        /* \"#utility.yul\":8602:8619   */\n      add\n        /* \"#utility.yul\":8593:8599   */\n      dup5\n        /* \"#utility.yul\":8549:8620   */\n      tag_325\n      jump\t// in\n    tag_477:\n        /* \"#utility.yul\":8405:8627   */\n      swap3\n      swap2\n      pop\n      pop\n      jump\t// out\n        /* \"#utility.yul\":8633:8962   */\n    tag_51:\n        /* \"#utility.yul\":8692:8698   */\n      0x00\n        /* \"#utility.yul\":8741:8743   */\n      0x20\n        /* \"#utility.yul\":8729:8738   */\n      dup3\n        /* \"#utility.yul\":8720:8727   */\n      dup5\n        /* \"#utility.yul\":8716:8739   */\n      sub\n        /* \"#utility.yul\":8712:8744   */\n      slt\n        /* \"#utility.yul\":8709:8828   */\n      iszero\n      tag_479\n      jumpi\n        /* \"#utility.yul\":8747:8826   */\n      tag_480\n      tag_304\n      jump\t// in\n    tag_480:\n        /* \"#utility.yul\":8709:8828   */\n    tag_479:\n        /* \"#utility.yul\":8867:8868   */\n      0x00\n        /* \"#utility.yul\":8892:8945   */\n      tag_481\n        /* \"#utility.yul\":8937:8944   */\n      dup5\n        /* \"#utility.yul\":8928:8934   */\n      dup3\n        /* \"#utility.yul\":8917:8926   */\n      dup6\n        /* \"#utility.yul\":8913:8935   */\n      add\n        /* \"#utility.yul\":8892:8945   */\n      tag_309\n      jump\t// in\n    tag_481:\n        /* \"#utility.yul\":8882:8945   */\n      swap2\n      pop\n        /* \"#utility.yul\":8838:8955   */\n      pop\n        /* \"#utility.yul\":8633:8962   */\n      swap3\n      swap2\n      pop\n      pop\n      jump\t// out\n        /* \"#utility.yul\":8968:9082   */\n    tag_326:\n        /* \"#utility.yul\":9035:9041   */\n      0x00\n        /* \"#utility.yul\":9069:9074   */\n      dup2\n        /* \"#utility.yul\":9063:9075   */\n      mload\n        /* \"#utility.yul\":9053:9075   */\n      swap1\n      pop\n        /* \"#utility.yul\":8968:9082   */\n      swap2\n      swap1\n      pop\n      jump\t// out\n        /* \"#utility.yul\":9088:9272   */\n    tag_327:\n        /* \"#utility.yul\":9187:9198   */\n      0x00\n        /* \"#utility.yul\":9221:9227   */\n      dup3\n        /* \"#utility.yul\":9216:9219   */\n      dup3\n        /* \"#utility.yul\":9209:9228   */\n      mstore\n        /* \"#utility.yul\":9261:9265   */\n      0x20\n        /* \"#utility.yul\":9256:9259   */\n      dup3\n        /* \"#utility.yul\":9252:9266   */\n      add\n        /* \"#utility.yul\":9237:9266   */\n      swap1\n      pop\n        /* \"#utility.yul\":9088:9272   */\n      swap3\n      swap2\n      pop\n      pop\n      jump\t// out\n        /* \"#utility.yul\":9278:9410   */\n    tag_328:\n        /* \"#utility.yul\":9345:9349   */\n      0x00\n        /* \"#utility.yul\":9368:9371   */\n      dup2\n        /* \"#utility.yul\":9360:9371   */\n      swap1\n      pop\n        /* \"#utility.yul\":9398:9402   */\n      0x20\n        /* \"#utility.yul\":9393:9396   */\n      dup3\n        /* \"#utility.yul\":9389:9403   */\n      add\n        /* \"#utility.yul\":9381:9403   */\n      swap1\n      pop\n        /* \"#utility.yul\":9278:9410   */\n      swap2\n      swap1\n      pop\n      jump\t// out\n        /* \"#utility.yul\":9416:9524   */\n    tag_329:\n        /* \"#utility.yul\":9493:9517   */\n      tag_486\n        /* \"#utility.yul\":9511:9516   */\n      dup2\n        /* \"#utility.yul\":9493:9517   */\n      tag_307\n      jump\t// in\n    tag_486:\n        /* \"#utility.yul\":9488:9491   */\n      dup3\n        /* \"#utility.yul\":9481:9518   */\n      mstore\n        /* \"#utility.yul\":9416:9524   */\n      pop\n      pop\n      jump\t// out\n        /* \"#utility.yul\":9530:9709   */\n    tag_330:\n        /* \"#utility.yul\":9599:9609   */\n      0x00\n        /* \"#utility.yul\":9620:9666   */\n      tag_488\n        /* \"#utility.yul\":9662:9665   */\n      dup4\n        /* \"#utility.yul\":9654:9660   */\n      dup4\n        /* \"#utility.yul\":9620:9666   */\n      tag_329\n      jump\t// in\n    tag_488:\n        /* \"#utility.yul\":9698:9702   */\n      0x20\n        /* \"#utility.yul\":9693:9696   */\n      dup4\n        /* \"#utility.yul\":9689:9703   */\n      add\n        /* \"#utility.yul\":9675:9703   */\n      swap1\n      pop\n        /* \"#utility.yul\":9530:9709   */\n      swap3\n      swap2\n      pop\n      pop\n      jump\t// out\n        /* \"#utility.yul\":9715:9828   */\n    tag_331:\n        /* \"#utility.yul\":9785:9789   */\n      0x00\n        /* \"#utility.yul\":9817:9821   */\n      0x20\n        /* \"#utility.yul\":9812:9815   */\n      dup3\n        /* \"#utility.yul\":9808:9822   */\n      add\n        /* \"#utility.yul\":9800:9822   */\n      swap1\n      pop\n        /* \"#utility.yul\":9715:9828   */\n      swap2\n      swap1\n      pop\n      jump\t// out\n        /* \"#utility.yul\":9864:10596   */\n    tag_332:\n        /* \"#utility.yul\":9983:9986   */\n      0x00\n        /* \"#utility.yul\":10012:10066   */\n      tag_491\n        /* \"#utility.yul\":10060:10065   */\n      dup3\n        /* \"#utility.yul\":10012:10066   */\n      tag_326\n      jump\t// in\n    tag_491:\n        /* \"#utility.yul\":10082:10168   */\n      tag_492\n        /* \"#utility.yul\":10161:10167   */\n      dup2\n        /* \"#utility.yul\":10156:10159   */\n      dup6\n        /* \"#utility.yul\":10082:10168   */\n      tag_327\n      jump\t// in\n    tag_492:\n        /* \"#utility.yul\":10075:10168   */\n      swap4\n      pop\n        /* \"#utility.yul\":10192:10248   */\n      tag_493\n        /* \"#utility.yul\":10242:10247   */\n      dup4\n        /* \"#utility.yul\":10192:10248   */\n      tag_328\n      jump\t// in\n    tag_493:\n        /* \"#utility.yul\":10271:10278   */\n      dup1\n        /* \"#utility.yul\":10302:10303   */\n      0x00\n        /* \"#utility.yul\":10287:10571   */\n    tag_494:\n        /* \"#utility.yul\":10312:10318   */\n      dup4\n        /* \"#utility.yul\":10309:10310   */\n      dup2\n        /* \"#utility.yul\":10306:10319   */\n      lt\n        /* \"#utility.yul\":10287:10571   */\n      iszero\n      tag_496\n      jumpi\n        /* \"#utility.yul\":10388:10394   */\n      dup2\n        /* \"#utility.yul\":10382:10395   */\n      mload\n        /* \"#utility.yul\":10415:10478   */\n      tag_497\n        /* \"#utility.yul\":10474:10477   */\n      dup9\n        /* \"#utility.yul\":10459:10472   */\n      dup3\n        /* \"#utility.yul\":10415:10478   */\n      tag_330\n      jump\t// in\n    tag_497:\n        /* \"#utility.yul\":10408:10478   */\n      swap8\n      pop\n        /* \"#utility.yul\":10501:10561   */\n      tag_498\n        /* \"#utility.yul\":10554:10560   */\n      dup4\n        /* \"#utility.yul\":10501:10561   */\n      tag_331\n      jump\t// in\n    tag_498:\n        /* \"#utility.yul\":10491:10561   */\n      swap3\n      pop\n        /* \"#utility.yul\":10347:10571   */\n      pop\n        /* \"#utility.yul\":10334:10335   */\n      0x01\n        /* \"#utility.yul\":10331:10332   */\n      dup2\n        /* \"#utility.yul\":10327:10336   */\n      add\n        /* \"#utility.yul\":10322:10336   */\n      swap1\n      pop\n        /* \"#utility.yul\":10287:10571   */\n      jump(tag_494)\n    tag_496:\n        /* \"#utility.yul\":10291:10305   */\n      pop\n        /* \"#utility.yul\":10587:10590   */\n      dup6\n        /* \"#utility.yul\":10580:10590   */\n      swap4\n      pop\n        /* \"#utility.yul\":9988:10596   */\n      pop\n      pop\n      pop\n        /* \"#utility.yul\":9864:10596   */\n      swap3\n      swap2\n      pop\n      pop\n      jump\t// out\n        /* \"#utility.yul\":10602:10975   */\n    tag_54:\n        /* \"#utility.yul\":10745:10749   */\n      0x00\n        /* \"#utility.yul\":10783:10785   */\n      0x20\n        /* \"#utility.yul\":10772:10781   */\n      dup3\n        /* \"#utility.yul\":10768:10786   */\n      add\n        /* \"#utility.yul\":10760:10786   */\n      swap1\n      pop\n        /* \"#utility.yul\":10832:10841   */\n      dup2\n        /* \"#utility.yul\":10826:10830   */\n      dup2\n        /* \"#utility.yul\":10822:10842   */\n      sub\n        /* \"#utility.yul\":10818:10819   */\n      0x00\n        /* \"#utility.yul\":10807:10816   */\n      dup4\n        /* \"#utility.yul\":10803:10820   */\n      add\n        /* \"#utility.yul\":10796:10843   */\n      mstore\n        /* \"#utility.yul\":10860:10968   */\n      tag_500\n        /* \"#utility.yul\":10963:10967   */\n      dup2\n        /* \"#utility.yul\":10954:10960   */\n      dup5\n        /* \"#utility.yul\":10860:10968   */\n      tag_332\n      jump\t// in\n    tag_500:\n        /* \"#utility.yul\":10852:10968   */\n      swap1\n      pop\n        /* \"#utility.yul\":10602:10975   */\n      swap3\n      swap2\n      pop\n      pop\n      jump\t// out\n        /* \"#utility.yul\":10981:11080   */\n    tag_333:\n        /* \"#utility.yul\":11033:11039   */\n      0x00\n        /* \"#utility.yul\":11067:11072   */\n      dup2\n        /* \"#utility.yul\":11061:11073   */\n      mload\n        /* \"#utility.yul\":11051:11073   */\n      swap1\n      pop\n        /* \"#utility.yul\":10981:11080   */\n      swap2\n      swap1\n      pop\n      jump\t// out\n        /* \"#utility.yul\":11086:11255   */\n    tag_334:\n        /* \"#utility.yul\":11170:11181   */\n      0x00\n        /* \"#utility.yul\":11204:11210   */\n      dup3\n        /* \"#utility.yul\":11199:11202   */\n      dup3\n        /* \"#utility.yul\":11192:11211   */\n      mstore\n        /* \"#utility.yul\":11244:11248   */\n      0x20\n        /* \"#utility.yul\":11239:11242   */\n      dup3\n        /* \"#utility.yul\":11235:11249   */\n      add\n        /* \"#utility.yul\":11220:11249   */\n      swap1\n      pop\n        /* \"#utility.yul\":11086:11255   */\n      swap3\n      swap2\n      pop\n      pop\n      jump\t// out\n        /* \"#utility.yul\":11261:11400   */\n    tag_335:\n        /* \"#utility.yul\":11350:11356   */\n      dup3\n        /* \"#utility.yul\":11345:11348   */\n      dup2\n        /* \"#utility.yul\":11340:11343   */\n      dup4\n        /* \"#utility.yul\":11334:11357   */\n      mcopy\n        /* \"#utility.yul\":11391:11392   */\n      0x00\n        /* \"#utility.yul\":11382:11388   */\n      dup4\n        /* \"#utility.yul\":11377:11380   */\n      dup4\n        /* \"#utility.yul\":11373:11389   */\n      add\n        /* \"#utility.yul\":11366:11393   */\n      mstore\n        /* \"#utility.yul\":11261:11400   */\n      pop\n      pop\n      pop\n      jump\t// out\n        /* \"#utility.yul\":11406:11783   */\n    tag_336:\n        /* \"#utility.yul\":11494:11497   */\n      0x00\n        /* \"#utility.yul\":11522:11561   */\n      tag_505\n        /* \"#utility.yul\":11555:11560   */\n      dup3\n        /* \"#utility.yul\":11522:11561   */\n      tag_333\n      jump\t// in\n    tag_505:\n        /* \"#utility.yul\":11577:11648   */\n      tag_506\n        /* \"#utility.yul\":11641:11647   */\n      dup2\n        /* \"#utility.yul\":11636:11639   */\n      dup6\n        /* \"#utility.yul\":11577:11648   */\n      tag_334\n      jump\t// in\n    tag_506:\n        /* \"#utility.yul\":11570:11648   */\n      swap4\n      pop\n        /* \"#utility.yul\":11657:11722   */\n      tag_507\n        /* \"#utility.yul\":11715:11721   */\n      dup2\n        /* \"#utility.yul\":11710:11713   */\n      dup6\n        /* \"#utility.yul\":11703:11707   */\n      0x20\n        /* \"#utility.yul\":11696:11701   */\n      dup7\n        /* \"#utility.yul\":11692:11708   */\n      add\n        /* \"#utility.yul\":11657:11722   */\n      tag_335\n      jump\t// in\n    tag_507:\n        /* \"#utility.yul\":11747:11776   */\n      tag_508\n        /* \"#utility.yul\":11769:11775   */\n      dup2\n        /* \"#utility.yul\":11747:11776   */\n      tag_312\n      jump\t// in\n    tag_508:\n        /* \"#utility.yul\":11742:11745   */\n      dup5\n        /* \"#utility.yul\":11738:11777   */\n      add\n        /* \"#utility.yul\":11731:11777   */\n      swap2\n      pop\n        /* \"#utility.yul\":11498:11783   */\n      pop\n        /* \"#utility.yul\":11406:11783   */\n      swap3\n      swap2\n      pop\n      pop\n      jump\t// out\n        /* \"#utility.yul\":11789:13485   */\n    tag_60:\n        /* \"#utility.yul\":12243:12247   */\n      0x00\n        /* \"#utility.yul\":12281:12284   */\n      0x0160\n        /* \"#utility.yul\":12270:12279   */\n      dup3\n        /* \"#utility.yul\":12266:12285   */\n      add\n        /* \"#utility.yul\":12258:12285   */\n      swap1\n      pop\n        /* \"#utility.yul\":12295:12366   */\n      tag_510\n        /* \"#utility.yul\":12363:12364   */\n      0x00\n        /* \"#utility.yul\":12352:12361   */\n      dup4\n        /* \"#utility.yul\":12348:12365   */\n      add\n        /* \"#utility.yul\":12339:12345   */\n      dup15\n        /* \"#utility.yul\":12295:12366   */\n      tag_324\n      jump\t// in\n    tag_510:\n        /* \"#utility.yul\":12376:12448   */\n      tag_511\n        /* \"#utility.yul\":12444:12446   */\n      0x20\n        /* \"#utility.yul\":12433:12442   */\n      dup4\n        /* \"#utility.yul\":12429:12447   */\n      add\n        /* \"#utility.yul\":12420:12426   */\n      dup14\n        /* \"#utility.yul\":12376:12448   */\n      tag_325\n      jump\t// in\n    tag_511:\n        /* \"#utility.yul\":12458:12530   */\n      tag_512\n        /* \"#utility.yul\":12526:12528   */\n      0x40\n        /* \"#utility.yul\":12515:12524   */\n      dup4\n        /* \"#utility.yul\":12511:12529   */\n      add\n        /* \"#utility.yul\":12502:12508   */\n      dup13\n        /* \"#utility.yul\":12458:12530   */\n      tag_325\n      jump\t// in\n    tag_512:\n        /* \"#utility.yul\":12540:12612   */\n      tag_513\n        /* \"#utility.yul\":12608:12610   */\n      0x60\n        /* \"#utility.yul\":12597:12606   */\n      dup4\n        /* \"#utility.yul\":12593:12611   */\n      add\n        /* \"#utility.yul\":12584:12590   */\n      dup12\n        /* \"#utility.yul\":12540:12612   */\n      tag_325\n      jump\t// in\n    tag_513:\n        /* \"#utility.yul\":12622:12695   */\n      tag_514\n        /* \"#utility.yul\":12690:12693   */\n      0x80\n        /* \"#utility.yul\":12679:12688   */\n      dup4\n        /* \"#utility.yul\":12675:12694   */\n      add\n        /* \"#utility.yul\":12666:12672   */\n      dup11\n        /* \"#utility.yul\":12622:12695   */\n      tag_325\n      jump\t// in\n    tag_514:\n        /* \"#utility.yul\":12705:12778   */\n      tag_515\n        /* \"#utility.yul\":12773:12776   */\n      0xa0\n        /* \"#utility.yul\":12762:12771   */\n      dup4\n        /* \"#utility.yul\":12758:12777   */\n      add\n        /* \"#utility.yul\":12749:12755   */\n      dup10\n        /* \"#utility.yul\":12705:12778   */\n      tag_325\n      jump\t// in\n    tag_515:\n        /* \"#utility.yul\":12826:12835   */\n      dup2\n        /* \"#utility.yul\":12820:12824   */\n      dup2\n        /* \"#utility.yul\":12816:12836   */\n      sub\n        /* \"#utility.yul\":12810:12813   */\n      0xc0\n        /* \"#utility.yul\":12799:12808   */\n      dup4\n        /* \"#utility.yul\":12795:12814   */\n      add\n        /* \"#utility.yul\":12788:12837   */\n      mstore\n        /* \"#utility.yul\":12854:12932   */\n      tag_516\n        /* \"#utility.yul\":12927:12931   */\n      dup2\n        /* \"#utility.yul\":12918:12924   */\n      dup9\n        /* \"#utility.yul\":12854:12932   */\n      tag_336\n      jump\t// in\n    tag_516:\n        /* \"#utility.yul\":12846:12932   */\n      swap1\n      pop\n        /* \"#utility.yul\":12980:12989   */\n      dup2\n        /* \"#utility.yul\":12974:12978   */\n      dup2\n        /* \"#utility.yul\":12970:12990   */\n      sub\n        /* \"#utility.yul\":12964:12967   */\n      0xe0\n        /* \"#utility.yul\":12953:12962   */\n      dup4\n        /* \"#utility.yul\":12949:12968   */\n      add\n        /* \"#utility.yul\":12942:12991   */\n      mstore\n        /* \"#utility.yul\":13008:13086   */\n      tag_517\n        /* \"#utility.yul\":13081:13085   */\n      dup2\n        /* \"#utility.yul\":13072:13078   */\n      dup8\n        /* \"#utility.yul\":13008:13086   */\n      tag_336\n      jump\t// in\n    tag_517:\n        /* \"#utility.yul\":13000:13086   */\n      swap1\n      pop\n        /* \"#utility.yul\":13134:13143   */\n      dup2\n        /* \"#utility.yul\":13128:13132   */\n      dup2\n        /* \"#utility.yul\":13124:13144   */\n      sub\n        /* \"#utility.yul\":13118:13121   */\n      0x0100\n        /* \"#utility.yul\":13107:13116   */\n      dup4\n        /* \"#utility.yul\":13103:13122   */\n      add\n        /* \"#utility.yul\":13096:13145   */\n      mstore\n        /* \"#utility.yul\":13162:13240   */\n      tag_518\n        /* \"#utility.yul\":13235:13239   */\n      dup2\n        /* \"#utility.yul\":13226:13232   */\n      dup7\n        /* \"#utility.yul\":13162:13240   */\n      tag_336\n      jump\t// in\n    tag_518:\n        /* \"#utility.yul\":13154:13240   */\n      swap1\n      pop\n        /* \"#utility.yul\":13288:13297   */\n      dup2\n        /* \"#utility.yul\":13282:13286   */\n      dup2\n        /* \"#utility.yul\":13278:13298   */\n      sub\n        /* \"#utility.yul\":13272:13275   */\n      0x0120\n        /* \"#utility.yul\":13261:13270   */\n      dup4\n        /* \"#utility.yul\":13257:13276   */\n      add\n        /* \"#utility.yul\":13250:13299   */\n      mstore\n        /* \"#utility.yul\":13316:13394   */\n      tag_519\n        /* \"#utility.yul\":13389:13393   */\n      dup2\n        /* \"#utility.yul\":13380:13386   */\n      dup6\n        /* \"#utility.yul\":13316:13394   */\n      tag_336\n      jump\t// in\n    tag_519:\n        /* \"#utility.yul\":13308:13394   */\n      swap1\n      pop\n        /* \"#utility.yul\":13404:13478   */\n      tag_520\n        /* \"#utility.yul\":13473:13476   */\n      0x0140\n        /* \"#utility.yul\":13462:13471   */\n      dup4\n        /* \"#utility.yul\":13458:13477   */\n      add\n        /* \"#utility.yul\":13448:13455   */\n      dup5\n        /* \"#utility.yul\":13404:13478   */\n      tag_324\n      jump\t// in\n    tag_520:\n        /* \"#utility.yul\":11789:13485   */\n      swap13\n      swap12\n      pop\n      pop\n      pop\n      pop\n      pop\n      pop\n      pop\n      pop\n      pop\n      pop\n      pop\n      pop\n      jump\t// out\n        /* \"#utility.yul\":13491:13609   */\n    tag_337:\n        /* \"#utility.yul\":13562:13584   */\n      tag_522\n        /* \"#utility.yul\":13578:13583   */\n      dup2\n        /* \"#utility.yul\":13562:13584   */\n      tag_319\n      jump\t// in\n    tag_522:\n        /* \"#utility.yul\":13555:13560   */\n      dup2\n        /* \"#utility.yul\":13552:13585   */\n      eq\n        /* \"#utility.yul\":13542:13603   */\n      tag_523\n      jumpi\n        /* \"#utility.yul\":13599:13600   */\n      0x00\n        /* \"#utility.yul\":13596:13597   */\n      dup1\n        /* \"#utility.yul\":13589:13601   */\n      revert\n        /* \"#utility.yul\":13542:13603   */\n    tag_523:\n        /* \"#utility.yul\":13491:13609   */\n      pop\n      jump\t// out\n        /* \"#utility.yul\":13615:13750   */\n    tag_338:\n        /* \"#utility.yul\":13659:13664   */\n      0x00\n        /* \"#utility.yul\":13697:13703   */\n      dup2\n        /* \"#utility.yul\":13684:13704   */\n      calldataload\n        /* \"#utility.yul\":13675:13704   */\n      swap1\n      pop\n        /* \"#utility.yul\":13713:13744   */\n      tag_525\n        /* \"#utility.yul\":13738:13743   */\n      dup2\n        /* \"#utility.yul\":13713:13744   */\n      tag_337\n      jump\t// in\n    tag_525:\n        /* \"#utility.yul\":13615:13750   */\n      swap3\n      swap2\n      pop\n      pop\n      jump\t// out\n        /* \"#utility.yul\":13756:14081   */\n    tag_73:\n        /* \"#utility.yul\":13813:13819   */\n      0x00\n        /* \"#utility.yul\":13862:13864   */\n      0x20\n        /* \"#utility.yul\":13850:13859   */\n      dup3\n        /* \"#utility.yul\":13841:13848   */\n      dup5\n        /* \"#utility.yul\":13837:13860   */\n      sub\n        /* \"#utility.yul\":13833:13865   */\n      slt\n        /* \"#utility.yul\":13830:13949   */\n      iszero\n      tag_527\n      jumpi\n        /* \"#utility.yul\":13868:13947   */\n      tag_528\n      tag_304\n      jump\t// in\n    tag_528:\n        /* \"#utility.yul\":13830:13949   */\n    tag_527:\n        /* \"#utility.yul\":13988:13989   */\n      0x00\n        /* \"#utility.yul\":14013:14064   */\n      tag_529\n        /* \"#utility.yul\":14056:14063   */\n      dup5\n        /* \"#utility.yul\":14047:14053   */\n      dup3\n        /* \"#utility.yul\":14036:14045   */\n      dup6\n        /* \"#utility.yul\":14032:14054   */\n      add\n        /* \"#utility.yul\":14013:14064   */\n      tag_338\n      jump\t// in\n    tag_529:\n        /* \"#utility.yul\":14003:14064   */\n      swap2\n      pop\n        /* \"#utility.yul\":13959:14074   */\n      pop\n        /* \"#utility.yul\":13756:14081   */\n      swap3\n      swap2\n      pop\n      pop\n      jump\t// out\n        /* \"#utility.yul\":14087:14164   */\n    tag_339:\n        /* \"#utility.yul\":14124:14131   */\n      0x00\n        /* \"#utility.yul\":14153:14158   */\n      dup2\n        /* \"#utility.yul\":14142:14158   */\n      swap1\n      pop\n        /* \"#utility.yul\":14087:14164   */\n      swap2\n      swap1\n      pop\n      jump\t// out\n        /* \"#utility.yul\":14170:14288   */\n    tag_340:\n        /* \"#utility.yul\":14257:14281   */\n      tag_532\n        /* \"#utility.yul\":14275:14280   */\n      dup2\n        /* \"#utility.yul\":14257:14281   */\n      tag_339\n      jump\t// in\n    tag_532:\n        /* \"#utility.yul\":14252:14255   */\n      dup3\n        /* \"#utility.yul\":14245:14282   */\n      mstore\n        /* \"#utility.yul\":14170:14288   */\n      pop\n      pop\n      jump\t// out\n        /* \"#utility.yul\":14294:16103   */\n    tag_95:\n        /* \"#utility.yul\":14777:14781   */\n      0x00\n        /* \"#utility.yul\":14815:14818   */\n      0x0180\n        /* \"#utility.yul\":14804:14813   */\n      dup3\n        /* \"#utility.yul\":14800:14819   */\n      add\n        /* \"#utility.yul\":14792:14819   */\n      swap1\n      pop\n        /* \"#utility.yul\":14829:14900   */\n      tag_534\n        /* \"#utility.yul\":14897:14898   */\n      0x00\n        /* \"#utility.yul\":14886:14895   */\n      dup4\n        /* \"#utility.yul\":14882:14899   */\n      add\n        /* \"#utility.yul\":14873:14879   */\n      dup16\n        /* \"#utility.yul\":14829:14900   */\n      tag_324\n      jump\t// in\n    tag_534:\n        /* \"#utility.yul\":14910:14982   */\n      tag_535\n        /* \"#utility.yul\":14978:14980   */\n      0x20\n        /* \"#utility.yul\":14967:14976   */\n      dup4\n        /* \"#utility.yul\":14963:14981   */\n      add\n        /* \"#utility.yul\":14954:14960   */\n      dup15\n        /* \"#utility.yul\":14910:14982   */\n      tag_325\n      jump\t// in\n    tag_535:\n        /* \"#utility.yul\":14992:15064   */\n      tag_536\n        /* \"#utility.yul\":15060:15062   */\n      0x40\n        /* \"#utility.yul\":15049:15058   */\n      dup4\n        /* \"#utility.yul\":15045:15063   */\n      add\n        /* \"#utility.yul\":15036:15042   */\n      dup14\n        /* \"#utility.yul\":14992:15064   */\n      tag_325\n      jump\t// in\n    tag_536:\n        /* \"#utility.yul\":15074:15146   */\n      tag_537\n        /* \"#utility.yul\":15142:15144   */\n      0x60\n        /* \"#utility.yul\":15131:15140   */\n      dup4\n        /* \"#utility.yul\":15127:15145   */\n      add\n        /* \"#utility.yul\":15118:15124   */\n      dup13\n        /* \"#utility.yul\":15074:15146   */\n      tag_325\n      jump\t// in\n    tag_537:\n        /* \"#utility.yul\":15156:15229   */\n      tag_538\n        /* \"#utility.yul\":15224:15227   */\n      0x80\n        /* \"#utility.yul\":15213:15222   */\n      dup4\n        /* \"#utility.yul\":15209:15228   */\n      add\n        /* \"#utility.yul\":15200:15206   */\n      dup12\n        /* \"#utility.yul\":15156:15229   */\n      tag_325\n      jump\t// in\n    tag_538:\n        /* \"#utility.yul\":15239:15312   */\n      tag_539\n        /* \"#utility.yul\":15307:15310   */\n      0xa0\n        /* \"#utility.yul\":15296:15305   */\n      dup4\n        /* \"#utility.yul\":15292:15311   */\n      add\n        /* \"#utility.yul\":15283:15289   */\n      dup11\n        /* \"#utility.yul\":15239:15312   */\n      tag_325\n      jump\t// in\n    tag_539:\n        /* \"#utility.yul\":15360:15369   */\n      dup2\n        /* \"#utility.yul\":15354:15358   */\n      dup2\n        /* \"#utility.yul\":15350:15370   */\n      sub\n        /* \"#utility.yul\":15344:15347   */\n      0xc0\n        /* \"#utility.yul\":15333:15342   */\n      dup4\n        /* \"#utility.yul\":15329:15348   */\n      add\n        /* \"#utility.yul\":15322:15371   */\n      mstore\n        /* \"#utility.yul\":15388:15466   */\n      tag_540\n        /* \"#utility.yul\":15461:15465   */\n      dup2\n        /* \"#utility.yul\":15452:15458   */\n      dup10\n        /* \"#utility.yul\":15388:15466   */\n      tag_336\n      jump\t// in\n    tag_540:\n        /* \"#utility.yul\":15380:15466   */\n      swap1\n      pop\n        /* \"#utility.yul\":15514:15523   */\n      dup2\n        /* \"#utility.yul\":15508:15512   */\n      dup2\n        /* \"#utility.yul\":15504:15524   */\n      sub\n        /* \"#utility.yul\":15498:15501   */\n      0xe0\n        /* \"#utility.yul\":15487:15496   */\n      dup4\n        /* \"#utility.yul\":15483:15502   */\n      add\n        /* \"#utility.yul\":15476:15525   */\n      mstore\n        /* \"#utility.yul\":15542:15620   */\n      tag_541\n        /* \"#utility.yul\":15615:15619   */\n      dup2\n        /* \"#utility.yul\":15606:15612   */\n      dup9\n        /* \"#utility.yul\":15542:15620   */\n      tag_336\n      jump\t// in\n    tag_541:\n        /* \"#utility.yul\":15534:15620   */\n      swap1\n      pop\n        /* \"#utility.yul\":15668:15677   */\n      dup2\n        /* \"#utility.yul\":15662:15666   */\n      dup2\n        /* \"#utility.yul\":15658:15678   */\n      sub\n        /* \"#utility.yul\":15652:15655   */\n      0x0100\n        /* \"#utility.yul\":15641:15650   */\n      dup4\n        /* \"#utility.yul\":15637:15656   */\n      add\n        /* \"#utility.yul\":15630:15679   */\n      mstore\n        /* \"#utility.yul\":15696:15774   */\n      tag_542\n        /* \"#utility.yul\":15769:15773   */\n      dup2\n        /* \"#utility.yul\":15760:15766   */\n      dup8\n        /* \"#utility.yul\":15696:15774   */\n      tag_336\n      jump\t// in\n    tag_542:\n        /* \"#utility.yul\":15688:15774   */\n      swap1\n      pop\n        /* \"#utility.yul\":15822:15831   */\n      dup2\n        /* \"#utility.yul\":15816:15820   */\n      dup2\n        /* \"#utility.yul\":15812:15832   */\n      sub\n        /* \"#utility.yul\":15806:15809   */\n      0x0120\n        /* \"#utility.yul\":15795:15804   */\n      dup4\n        /* \"#utility.yul\":15791:15810   */\n      add\n        /* \"#utility.yul\":15784:15833   */\n      mstore\n        /* \"#utility.yul\":15850:15928   */\n      tag_543\n        /* \"#utility.yul\":15923:15927   */\n      dup2\n        /* \"#utility.yul\":15914:15920   */\n      dup7\n        /* \"#utility.yul\":15850:15928   */\n      tag_336\n      jump\t// in\n    tag_543:\n        /* \"#utility.yul\":15842:15928   */\n      swap1\n      pop\n        /* \"#utility.yul\":15938:16012   */\n      tag_544\n        /* \"#utility.yul\":16007:16010   */\n      0x0140\n        /* \"#utility.yul\":15996:16005   */\n      dup4\n        /* \"#utility.yul\":15992:16011   */\n      add\n        /* \"#utility.yul\":15982:15989   */\n      dup6\n        /* \"#utility.yul\":15938:16012   */\n      tag_340\n      jump\t// in\n    tag_544:\n        /* \"#utility.yul\":16022:16096   */\n      tag_545\n        /* \"#utility.yul\":16091:16094   */\n      0x0160\n        /* \"#utility.yul\":16080:16089   */\n      dup4\n        /* \"#utility.yul\":16076:16095   */\n      add\n        /* \"#utility.yul\":16066:16073   */\n      dup5\n        /* \"#utility.yul\":16022:16096   */\n      tag_324\n      jump\t// in\n    tag_545:\n        /* \"#utility.yul\":14294:16103   */\n      swap14\n      swap13\n      pop\n      pop\n      pop\n      pop\n      pop\n      pop\n      pop\n      pop\n      pop\n      pop\n      pop\n      pop\n      pop\n      jump\t// out\n        /* \"#utility.yul\":16109:16422   */\n    tag_101:\n        /* \"#utility.yul\":16222:16226   */\n      0x00\n        /* \"#utility.yul\":16260:16262   */\n      0x20\n        /* \"#utility.yul\":16249:16258   */\n      dup3\n        /* \"#utility.yul\":16245:16263   */\n      add\n        /* \"#utility.yul\":16237:16263   */\n      swap1\n      pop\n        /* \"#utility.yul\":16309:16318   */\n      dup2\n        /* \"#utility.yul\":16303:16307   */\n      dup2\n        /* \"#utility.yul\":16299:16319   */\n      sub\n        /* \"#utility.yul\":16295:16296   */\n      0x00\n        /* \"#utility.yul\":16284:16293   */\n      dup4\n        /* \"#utility.yul\":16280:16297   */\n      add\n        /* \"#utility.yul\":16273:16320   */\n      mstore\n        /* \"#utility.yul\":16337:16415   */\n      tag_547\n        /* \"#utility.yul\":16410:16414   */\n      dup2\n        /* \"#utility.yul\":16401:16407   */\n      dup5\n        /* \"#utility.yul\":16337:16415   */\n      tag_336\n      jump\t// in\n    tag_547:\n        /* \"#utility.yul\":16329:16415   */\n      swap1\n      pop\n        /* \"#utility.yul\":16109:16422   */\n      swap3\n      swap2\n      pop\n      pop\n      jump\t// out\n        /* \"#utility.yul\":16428:16760   */\n    tag_107:\n        /* \"#utility.yul\":16549:16553   */\n      0x00\n        /* \"#utility.yul\":16587:16589   */\n      0x40\n        /* \"#utility.yul\":16576:16585   */\n      dup3\n        /* \"#utility.yul\":16572:16590   */\n      add\n        /* \"#utility.yul\":16564:16590   */\n      swap1\n      pop\n        /* \"#utility.yul\":16600:16671   */\n      tag_549\n        /* \"#utility.yul\":16668:16669   */\n      0x00\n        /* \"#utility.yul\":16657:16666   */\n      dup4\n        /* \"#utility.yul\":16653:16670   */\n      add\n        /* \"#utility.yul\":16644:16650   */\n      dup6\n        /* \"#utility.yul\":16600:16671   */\n      tag_325\n      jump\t// in\n    tag_549:\n        /* \"#utility.yul\":16681:16753   */\n      tag_550\n        /* \"#utility.yul\":16749:16751   */\n      0x20\n        /* \"#utility.yul\":16738:16747   */\n      dup4\n        /* \"#utility.yul\":16734:16752   */\n      add\n        /* \"#utility.yul\":16725:16731   */\n      dup5\n        /* \"#utility.yul\":16681:16753   */\n      tag_325\n      jump\t// in\n    tag_550:\n        /* \"#utility.yul\":16428:16760   */\n      swap4\n      swap3\n      pop\n      pop\n      pop\n      jump\t// out\n        /* \"#utility.yul\":16766:16941   */\n    tag_341:\n        /* \"#utility.yul\":16906:16933   */\n      0x55706c696e6520616c7265616479207265676973746572656400000000000000\n        /* \"#utility.yul\":16902:16903   */\n      0x00\n        /* \"#utility.yul\":16894:16900   */\n      dup3\n        /* \"#utility.yul\":16890:16904   */\n      add\n        /* \"#utility.yul\":16883:16934   */\n      mstore\n        /* \"#utility.yul\":16766:16941   */\n      pop\n      jump\t// out\n        /* \"#utility.yul\":16947:17313   */\n    tag_342:\n        /* \"#utility.yul\":17089:17092   */\n      0x00\n        /* \"#utility.yul\":17110:17177   */\n      tag_553\n        /* \"#utility.yul\":17174:17176   */\n      0x19\n        /* \"#utility.yul\":17169:17172   */\n      dup4\n        /* \"#utility.yul\":17110:17177   */\n      tag_334\n      jump\t// in\n    tag_553:\n        /* \"#utility.yul\":17103:17177   */\n      swap2\n      pop\n        /* \"#utility.yul\":17186:17279   */\n      tag_554\n        /* \"#utility.yul\":17275:17278   */\n      dup3\n        /* \"#utility.yul\":17186:17279   */\n      tag_341\n      jump\t// in\n    tag_554:\n        /* \"#utility.yul\":17304:17306   */\n      0x20\n        /* \"#utility.yul\":17299:17302   */\n      dup3\n        /* \"#utility.yul\":17295:17307   */\n      add\n        /* \"#utility.yul\":17288:17307   */\n      swap1\n      pop\n        /* \"#utility.yul\":16947:17313   */\n      swap2\n      swap1\n      pop\n      jump\t// out\n        /* \"#utility.yul\":17319:17738   */\n    tag_116:\n        /* \"#utility.yul\":17485:17489   */\n      0x00\n        /* \"#utility.yul\":17523:17525   */\n      0x20\n        /* \"#utility.yul\":17512:17521   */\n      dup3\n        /* \"#utility.yul\":17508:17526   */\n      add\n        /* \"#utility.yul\":17500:17526   */\n      swap1\n      pop\n        /* \"#utility.yul\":17572:17581   */\n      dup2\n        /* \"#utility.yul\":17566:17570   */\n      dup2\n        /* \"#utility.yul\":17562:17582   */\n      sub\n        /* \"#utility.yul\":17558:17559   */\n      0x00\n        /* \"#utility.yul\":17547:17556   */\n      dup4\n        /* \"#utility.yul\":17543:17560   */\n      add\n        /* \"#utility.yul\":17536:17583   */\n      mstore\n        /* \"#utility.yul\":17600:17731   */\n      tag_556\n        /* \"#utility.yul\":17726:17730   */\n      dup2\n        /* \"#utility.yul\":17600:17731   */\n      tag_342\n      jump\t// in\n    tag_556:\n        /* \"#utility.yul\":17592:17731   */\n      swap1\n      pop\n        /* \"#utility.yul\":17319:17738   */\n      swap2\n      swap1\n      pop\n      jump\t// out\n        /* \"#utility.yul\":17744:17924   */\n    tag_343:\n        /* \"#utility.yul\":17792:17869   */\n      0x4e487b7100000000000000000000000000000000000000000000000000000000\n        /* \"#utility.yul\":17789:17790   */\n      0x00\n        /* \"#utility.yul\":17782:17870   */\n      mstore\n        /* \"#utility.yul\":17889:17893   */\n      0x22\n        /* \"#utility.yul\":17886:17887   */\n      0x04\n        /* \"#utility.yul\":17879:17894   */\n      mstore\n        /* \"#utility.yul\":17913:17917   */\n      0x24\n        /* \"#utility.yul\":17910:17911   */\n      0x00\n        /* \"#utility.yul\":17903:17918   */\n      revert\n        /* \"#utility.yul\":17930:18250   */\n    tag_162:\n        /* \"#utility.yul\":17974:17980   */\n      0x00\n        /* \"#utility.yul\":18011:18012   */\n      0x02\n        /* \"#utility.yul\":18005:18009   */\n      dup3\n        /* \"#utility.yul\":18001:18013   */\n      div\n        /* \"#utility.yul\":17991:18013   */\n      swap1\n      pop\n        /* \"#utility.yul\":18058:18059   */\n      0x01\n        /* \"#utility.yul\":18052:18056   */\n      dup3\n        /* \"#utility.yul\":18048:18060   */\n      and\n        /* \"#utility.yul\":18079:18097   */\n      dup1\n        /* \"#utility.yul\":18069:18150   */\n      tag_559\n      jumpi\n        /* \"#utility.yul\":18135:18139   */\n      0x7f\n        /* \"#utility.yul\":18127:18133   */\n      dup3\n        /* \"#utility.yul\":18123:18140   */\n      and\n        /* \"#utility.yul\":18113:18140   */\n      swap2\n      pop\n        /* \"#utility.yul\":18069:18150   */\n    tag_559:\n        /* \"#utility.yul\":18197:18199   */\n      0x20\n        /* \"#utility.yul\":18189:18195   */\n      dup3\n        /* \"#utility.yul\":18186:18200   */\n      lt\n        /* \"#utility.yul\":18166:18184   */\n      dup2\n        /* \"#utility.yul\":18163:18201   */\n      sub\n        /* \"#utility.yul\":18160:18244   */\n      tag_560\n      jumpi\n        /* \"#utility.yul\":18216:18234   */\n      tag_561\n      tag_343\n      jump\t// in\n    tag_561:\n        /* \"#utility.yul\":18160:18244   */\n    tag_560:\n        /* \"#utility.yul\":17981:18250   */\n      pop\n        /* \"#utility.yul\":17930:18250   */\n      swap2\n      swap1\n      pop\n      jump\t// out\n        /* \"#utility.yul\":18256:18397   */\n    tag_344:\n        /* \"#utility.yul\":18305:18309   */\n      0x00\n        /* \"#utility.yul\":18328:18331   */\n      dup2\n        /* \"#utility.yul\":18320:18331   */\n      swap1\n      pop\n        /* \"#utility.yul\":18351:18354   */\n      dup2\n        /* \"#utility.yul\":18348:18349   */\n      0x00\n        /* \"#utility.yul\":18341:18355   */\n      mstore\n        /* \"#utility.yul\":18385:18389   */\n      0x20\n        /* \"#utility.yul\":18382:18383   */\n      0x00\n        /* \"#utility.yul\":18372:18390   */\n      keccak256\n        /* \"#utility.yul\":18364:18390   */\n      swap1\n      pop\n        /* \"#utility.yul\":18256:18397   */\n      swap2\n      swap1\n      pop\n      jump\t// out\n        /* \"#utility.yul\":18403:18496   */\n    tag_345:\n        /* \"#utility.yul\":18440:18446   */\n      0x00\n        /* \"#utility.yul\":18487:18489   */\n      0x20\n        /* \"#utility.yul\":18482:18484   */\n      0x1f\n        /* \"#utility.yul\":18475:18480   */\n      dup4\n        /* \"#utility.yul\":18471:18485   */\n      add\n        /* \"#utility.yul\":18467:18490   */\n      div\n        /* \"#utility.yul\":18457:18490   */\n      swap1\n      pop\n        /* \"#utility.yul\":18403:18496   */\n      swap2\n      swap1\n      pop\n      jump\t// out\n        /* \"#utility.yul\":18502:18609   */\n    tag_346:\n        /* \"#utility.yul\":18546:18554   */\n      0x00\n        /* \"#utility.yul\":18596:18601   */\n      dup3\n        /* \"#utility.yul\":18590:18594   */\n      dup3\n        /* \"#utility.yul\":18586:18602   */\n      shl\n        /* \"#utility.yul\":18565:18602   */\n      swap1\n      pop\n        /* \"#utility.yul\":18502:18609   */\n      swap3\n      swap2\n      pop\n      pop\n      jump\t// out\n        /* \"#utility.yul\":18615:19008   */\n    tag_347:\n        /* \"#utility.yul\":18684:18690   */\n      0x00\n        /* \"#utility.yul\":18734:18735   */\n      0x08\n        /* \"#utility.yul\":18722:18732   */\n      dup4\n        /* \"#utility.yul\":18718:18736   */\n      mul\n        /* \"#utility.yul\":18757:18854   */\n      tag_566\n        /* \"#utility.yul\":18787:18853   */\n      0xffffffffffffffffffffffffffffffffffffffffffffffffffffffffffffffff\n        /* \"#utility.yul\":18776:18785   */\n      dup3\n        /* \"#utility.yul\":18757:18854   */\n      tag_346\n      jump\t// in\n    tag_566:\n        /* \"#utility.yul\":18875:18914   */\n      tag_567\n        /* \"#utility.yul\":18905:18913   */\n      dup7\n        /* \"#utility.yul\":18894:18903   */\n      dup4\n        /* \"#utility.yul\":18875:18914   */\n      tag_346\n      jump\t// in\n    tag_567:\n        /* \"#utility.yul\":18863:18914   */\n      swap6\n      pop\n        /* \"#utility.yul\":18947:18951   */\n      dup1\n        /* \"#utility.yul\":18943:18952   */\n      not\n        /* \"#utility.yul\":18936:18941   */\n      dup5\n        /* \"#utility.yul\":18932:18953   */\n      and\n        /* \"#utility.yul\":18923:18953   */\n      swap4\n      pop\n        /* \"#utility.yul\":18996:19000   */\n      dup1\n        /* \"#utility.yul\":18986:18994   */\n      dup7\n        /* \"#utility.yul\":18982:19001   */\n      and\n        /* \"#utility.yul\":18975:18980   */\n      dup5\n        /* \"#utility.yul\":18972:19002   */\n      or\n        /* \"#utility.yul\":18962:19002   */\n      swap3\n      pop\n        /* \"#utility.yul\":18691:19008   */\n      pop\n      pop\n        /* \"#utility.yul\":18615:19008   */\n      swap4\n      swap3\n      pop\n      pop\n      pop\n      jump\t// out\n        /* \"#utility.yul\":19014:19074   */\n    tag_348:\n        /* \"#utility.yul\":19042:19045   */\n      0x00\n        /* \"#utility.yul\":19063:19068   */\n      dup2\n        /* \"#utility.yul\":19056:19068   */\n      swap1\n      pop\n        /* \"#utility.yul\":19014:19074   */\n      swap2\n      swap1\n      pop\n      jump\t// out\n        /* \"#utility.yul\":19080:19222   */\n    tag_349:\n        /* \"#utility.yul\":19130:19139   */\n      0x00\n        /* \"#utility.yul\":19163:19216   */\n      tag_570\n        /* \"#utility.yul\":19181:19215   */\n      tag_571\n        /* \"#utility.yul\":19190:19214   */\n      tag_572\n        /* \"#utility.yul\":19208:19213   */\n      dup5\n        /* \"#utility.yul\":19190:19214   */\n      tag_321\n      jump\t// in\n    tag_572:\n        /* \"#utility.yul\":19181:19215   */\n      tag_348\n      jump\t// in\n    tag_571:\n        /* \"#utility.yul\":19163:19216   */\n      tag_321\n      jump\t// in\n    tag_570:\n        /* \"#utility.yul\":19150:19216   */\n      swap1\n      pop\n        /* \"#utility.yul\":19080:19222   */\n      swap2\n      swap1\n      pop\n      jump\t// out\n        /* \"#utility.yul\":19228:19303   */\n    tag_350:\n        /* \"#utility.yul\":19271:19274   */\n      0x00\n        /* \"#utility.yul\":19292:19297   */\n      dup2\n        /* \"#utility.yul\":19285:19297   */\n      swap1\n      pop\n        /* \"#utility.yul\":19228:19303   */\n      swap2\n      swap1\n      pop\n      jump\t// out\n        /* \"#utility.yul\":19309:19578   */\n    tag_351:\n        /* \"#utility.yul\":19419:19458   */\n      tag_575\n        /* \"#utility.yul\":19450:19457   */\n      dup4\n        /* \"#utility.yul\":19419:19458   */\n      tag_349\n      jump\t// in\n    tag_575:\n        /* \"#utility.yul\":19480:19571   */\n      tag_576\n        /* \"#utility.yul\":19529:19570   */\n      tag_577\n        /* \"#utility.yul\":19553:19569   */\n      dup3\n        /* \"#utility.yul\":19529:19570   */\n      tag_350\n      jump\t// in\n    tag_577:\n        /* \"#utility.yul\":19521:19527   */\n      dup5\n        /* \"#utility.yul\":19514:19518   */\n      dup5\n        /* \"#utility.yul\":19508:19519   */\n      sload\n        /* \"#utility.yul\":19480:19571   */\n      tag_347\n      jump\t// in\n    tag_576:\n        /* \"#utility.yul\":19474:19478   */\n      dup3\n        /* \"#utility.yul\":19467:19572   */\n      sstore\n        /* \"#utility.yul\":19385:19578   */\n      pop\n        /* \"#utility.yul\":19309:19578   */\n      pop\n      pop\n      pop\n      jump\t// out\n        /* \"#utility.yul\":19584:19657   */\n    tag_352:\n        /* \"#utility.yul\":19629:19632   */\n      0x00\n        /* \"#utility.yul\":19584:19657   */\n      swap1\n      jump\t// out\n        /* \"#utility.yul\":19663:19852   */\n    tag_353:\n        /* \"#utility.yul\":19740:19772   */\n      tag_580\n      tag_352\n      jump\t// in\n    tag_580:\n        /* \"#utility.yul\":19781:19846   */\n      tag_581\n        /* \"#utility.yul\":19839:19845   */\n      dup2\n        /* \"#utility.yul\":19831:19837   */\n      dup5\n        /* \"#utility.yul\":19825:19829   */\n      dup5\n        /* \"#utility.yul\":19781:19846   */\n      tag_351\n      jump\t// in\n    tag_581:\n        /* \"#utility.yul\":19716:19852   */\n      pop\n        /* \"#utility.yul\":19663:19852   */\n      pop\n      pop\n      jump\t// out\n        /* \"#utility.yul\":19858:20044   */\n    tag_354:\n        /* \"#utility.yul\":19918:20038   */\n    tag_583:\n        /* \"#utility.yul\":19935:19938   */\n      dup2\n        /* \"#utility.yul\":19928:19933   */\n      dup2\n        /* \"#utility.yul\":19925:19939   */\n      lt\n        /* \"#utility.yul\":19918:20038   */\n      iszero\n      tag_585\n      jumpi\n        /* \"#utility.yul\":19989:20028   */\n      tag_586\n        /* \"#utility.yul\":20026:20027   */\n      0x00\n        /* \"#utility.yul\":20019:20024   */\n      dup3\n        /* \"#utility.yul\":19989:20028   */\n      tag_353\n      jump\t// in\n    tag_586:\n        /* \"#utility.yul\":19962:19963   */\n      0x01\n        /* \"#utility.yul\":19955:19960   */\n      dup2\n        /* \"#utility.yul\":19951:19964   */\n      add\n        /* \"#utility.yul\":19942:19964   */\n      swap1\n      pop\n        /* \"#utility.yul\":19918:20038   */\n      jump(tag_583)\n    tag_585:\n        /* \"#utility.yul\":19858:20044   */\n      pop\n      pop\n      jump\t// out\n        /* \"#utility.yul\":20050:20593   */\n    tag_355:\n        /* \"#utility.yul\":20151:20153   */\n      0x1f\n        /* \"#utility.yul\":20146:20149   */\n      dup3\n        /* \"#utility.yul\":20143:20154   */\n      gt\n        /* \"#utility.yul\":20140:20586   */\n      iszero\n      tag_588\n      jumpi\n        /* \"#utility.yul\":20185:20223   */\n      tag_589\n        /* \"#utility.yul\":20217:20222   */\n      dup2\n        /* \"#utility.yul\":20185:20223   */\n      tag_344\n      jump\t// in\n    tag_589:\n        /* \"#utility.yul\":20269:20298   */\n      tag_590\n        /* \"#utility.yul\":20287:20297   */\n      dup5\n        /* \"#utility.yul\":20269:20298   */\n      tag_345\n      jump\t// in\n    tag_590:\n        /* \"#utility.yul\":20259:20267   */\n      dup2\n        /* \"#utility.yul\":20255:20299   */\n      add\n        /* \"#utility.yul\":20452:20454   */\n      0x20\n        /* \"#utility.yul\":20440:20450   */\n      dup6\n        /* \"#utility.yul\":20437:20455   */\n      lt\n        /* \"#utility.yul\":20434:20483   */\n      iszero\n      tag_591\n      jumpi\n        /* \"#utility.yul\":20473:20481   */\n      dup2\n        /* \"#utility.yul\":20458:20481   */\n      swap1\n      pop\n        /* \"#utility.yul\":20434:20483   */\n    tag_591:\n        /* \"#utility.yul\":20496:20576   */\n      tag_592\n        /* \"#utility.yul\":20552:20574   */\n      tag_593\n        /* \"#utility.yul\":20570:20573   */\n      dup6\n        /* \"#utility.yul\":20552:20574   */\n      tag_345\n      jump\t// in\n    tag_593:\n        /* \"#utility.yul\":20542:20550   */\n      dup4\n        /* \"#utility.yul\":20538:20575   */\n      add\n        /* \"#utility.yul\":20525:20536   */\n      dup3\n        /* \"#utility.yul\":20496:20576   */\n      tag_354\n      jump\t// in\n    tag_592:\n        /* \"#utility.yul\":20155:20586   */\n      pop\n      pop\n        /* \"#utility.yul\":20140:20586   */\n    tag_588:\n        /* \"#utility.yul\":20050:20593   */\n      pop\n      pop\n      pop\n      jump\t// out\n        /* \"#utility.yul\":20599:20716   */\n    tag_356:\n        /* \"#utility.yul\":20653:20661   */\n      0x00\n        /* \"#utility.yul\":20703:20708   */\n      dup3\n        /* \"#utility.yul\":20697:20701   */\n      dup3\n        /* \"#utility.yul\":20693:20709   */\n      shr\n        /* \"#utility.yul\":20672:20709   */\n      swap1\n      pop\n        /* \"#utility.yul\":20599:20716   */\n      swap3\n      swap2\n      pop\n      pop\n      jump\t// out\n        /* \"#utility.yul\":20722:20891   */\n    tag_357:\n        /* \"#utility.yul\":20766:20772   */\n      0x00\n        /* \"#utility.yul\":20799:20850   */\n      tag_596\n        /* \"#utility.yul\":20847:20848   */\n      0x00\n        /* \"#utility.yul\":20843:20849   */\n      not\n        /* \"#utility.yul\":20835:20840   */\n      dup5\n        /* \"#utility.yul\":20832:20833   */\n      0x08\n        /* \"#utility.yul\":20828:20841   */\n      mul\n        /* \"#utility.yul\":20799:20850   */\n      tag_356\n      jump\t// in\n    tag_596:\n        /* \"#utility.yul\":20795:20851   */\n      not\n        /* \"#utility.yul\":20880:20884   */\n      dup1\n        /* \"#utility.yul\":20874:20878   */\n      dup4\n        /* \"#utility.yul\":20870:20885   */\n      and\n        /* \"#utility.yul\":20860:20885   */\n      swap2\n      pop\n        /* \"#utility.yul\":20773:20891   */\n      pop\n        /* \"#utility.yul\":20722:20891   */\n      swap3\n      swap2\n      pop\n      pop\n      jump\t// out\n        /* \"#utility.yul\":20896:21191   */\n    tag_358:\n        /* \"#utility.yul\":20972:20976   */\n      0x00\n        /* \"#utility.yul\":21118:21147   */\n      tag_598\n        /* \"#utility.yul\":21143:21146   */\n      dup4\n        /* \"#utility.yul\":21137:21141   */\n      dup4\n        /* \"#utility.yul\":21118:21147   */\n      tag_357\n      jump\t// in\n    tag_598:\n        /* \"#utility.yul\":21110:21147   */\n      swap2\n      pop\n        /* \"#utility.yul\":21180:21183   */\n      dup3\n        /* \"#utility.yul\":21177:21178   */\n      0x02\n        /* \"#utility.yul\":21173:21184   */\n      mul\n        /* \"#utility.yul\":21167:21171   */\n      dup3\n        /* \"#utility.yul\":21164:21185   */\n      or\n        /* \"#utility.yul\":21156:21185   */\n      swap1\n      pop\n        /* \"#utility.yul\":20896:21191   */\n      swap3\n      swap2\n      pop\n      pop\n      jump\t// out\n        /* \"#utility.yul\":21196:22591   */\n    tag_124:\n        /* \"#utility.yul\":21313:21350   */\n      tag_600\n        /* \"#utility.yul\":21346:21349   */\n      dup3\n        /* \"#utility.yul\":21313:21350   */\n      tag_333\n      jump\t// in\n    tag_600:\n        /* \"#utility.yul\":21415:21433   */\n      0xffffffffffffffff\n        /* \"#utility.yul\":21407:21413   */\n      dup2\n        /* \"#utility.yul\":21404:21434   */\n      gt\n        /* \"#utility.yul\":21401:21457   */\n      iszero\n      tag_601\n      jumpi\n        /* \"#utility.yul\":21437:21455   */\n      tag_602\n      tag_119\n      jump\t// in\n    tag_602:\n        /* \"#utility.yul\":21401:21457   */\n    tag_601:\n        /* \"#utility.yul\":21481:21519   */\n      tag_603\n        /* \"#utility.yul\":21513:21517   */\n      dup3\n        /* \"#utility.yul\":21507:21518   */\n      sload\n        /* \"#utility.yul\":21481:21519   */\n      tag_162\n      jump\t// in\n    tag_603:\n        /* \"#utility.yul\":21566:21633   */\n      tag_604\n        /* \"#utility.yul\":21626:21632   */\n      dup3\n        /* \"#utility.yul\":21618:21624   */\n      dup3\n        /* \"#utility.yul\":21612:21616   */\n      dup6\n        /* \"#utility.yul\":21566:21633   */\n      tag_355\n      jump\t// in\n    tag_604:\n        /* \"#utility.yul\":21660:21661   */\n      0x00\n        /* \"#utility.yul\":21684:21688   */\n      0x20\n        /* \"#utility.yul\":21671:21688   */\n      swap1\n      pop\n        /* \"#utility.yul\":21716:21718   */\n      0x1f\n        /* \"#utility.yul\":21708:21714   */\n      dup4\n        /* \"#utility.yul\":21705:21719   */\n      gt\n        /* \"#utility.yul\":21733:21734   */\n      0x01\n        /* \"#utility.yul\":21728:22346   */\n      dup2\n      eq\n      tag_606\n      jumpi\n        /* \"#utility.yul\":22390:22391   */\n      0x00\n        /* \"#utility.yul\":22407:22413   */\n      dup5\n        /* \"#utility.yul\":22404:22481   */\n      iszero\n      tag_607\n      jumpi\n        /* \"#utility.yul\":22456:22465   */\n      dup3\n        /* \"#utility.yul\":22451:22454   */\n      dup8\n        /* \"#utility.yul\":22447:22466   */\n      add\n        /* \"#utility.yul\":22441:22467   */\n      mload\n        /* \"#utility.yul\":22432:22467   */\n      swap1\n      pop\n        /* \"#utility.yul\":22404:22481   */\n    tag_607:\n        /* \"#utility.yul\":22507:22574   */\n      tag_608\n        /* \"#utility.yul\":22567:22573   */\n      dup6\n        /* \"#utility.yul\":22560:22565   */\n      dup3\n        /* \"#utility.yul\":22507:22574   */\n      tag_358\n      jump\t// in\n    tag_608:\n        /* \"#utility.yul\":22501:22505   */\n      dup7\n        /* \"#utility.yul\":22494:22575   */\n      sstore\n        /* \"#utility.yul\":22363:22585   */\n      pop\n        /* \"#utility.yul\":21698:22585   */\n      jump(tag_605)\n        /* \"#utility.yul\":21728:22346   */\n    tag_606:\n        /* \"#utility.yul\":21780:21784   */\n      0x1f\n        /* \"#utility.yul\":21776:21785   */\n      not\n        /* \"#utility.yul\":21768:21774   */\n      dup5\n        /* \"#utility.yul\":21764:21786   */\n      and\n        /* \"#utility.yul\":21814:21851   */\n      tag_609\n        /* \"#utility.yul\":21846:21850   */\n      dup7\n        /* \"#utility.yul\":21814:21851   */\n      tag_344\n      jump\t// in\n    tag_609:\n        /* \"#utility.yul\":21873:21874   */\n      0x00\n        /* \"#utility.yul\":21887:22095   */\n    tag_610:\n        /* \"#utility.yul\":21901:21908   */\n      dup3\n        /* \"#utility.yul\":21898:21899   */\n      dup2\n        /* \"#utility.yul\":21895:21909   */\n      lt\n        /* \"#utility.yul\":21887:22095   */\n      iszero\n      tag_612\n      jumpi\n        /* \"#utility.yul\":21980:21989   */\n      dup5\n        /* \"#utility.yul\":21975:21978   */\n      dup10\n        /* \"#utility.yul\":21971:21990   */\n      add\n        /* \"#utility.yul\":21965:21991   */\n      mload\n        /* \"#utility.yul\":21957:21963   */\n      dup3\n        /* \"#utility.yul\":21950:21992   */\n      sstore\n        /* \"#utility.yul\":22031:22032   */\n      0x01\n        /* \"#utility.yul\":22023:22029   */\n      dup3\n        /* \"#utility.yul\":22019:22033   */\n      add\n        /* \"#utility.yul\":22009:22033   */\n      swap2\n      pop\n        /* \"#utility.yul\":22078:22080   */\n      0x20\n        /* \"#utility.yul\":22067:22076   */\n      dup6\n        /* \"#utility.yul\":22063:22081   */\n      add\n        /* \"#utility.yul\":22050:22081   */\n      swap5\n      pop\n        /* \"#utility.yul\":21924:21928   */\n      0x20\n        /* \"#utility.yul\":21921:21922   */\n      dup2\n        /* \"#utility.yul\":21917:21929   */\n      add\n        /* \"#utility.yul\":21912:21929   */\n      swap1\n      pop\n        /* \"#utility.yul\":21887:22095   */\n      jump(tag_610)\n    tag_612:\n        /* \"#utility.yul\":22123:22129   */\n      dup7\n        /* \"#utility.yul\":22114:22121   */\n      dup4\n        /* \"#utility.yul\":22111:22130   */\n      lt\n        /* \"#utility.yul\":22108:22287   */\n      iszero\n      tag_613\n      jumpi\n        /* \"#utility.yul\":22181:22190   */\n      dup5\n        /* \"#utility.yul\":22176:22179   */\n      dup10\n        /* \"#utility.yul\":22172:22191   */\n      add\n        /* \"#utility.yul\":22166:22192   */\n      mload\n        /* \"#utility.yul\":22224:22272   */\n      tag_614\n        /* \"#utility.yul\":22266:22270   */\n      0x1f\n        /* \"#utility.yul\":22258:22264   */\n      dup10\n        /* \"#utility.yul\":22254:22271   */\n      and\n        /* \"#utility.yul\":22243:22252   */\n      dup3\n        /* \"#utility.yul\":22224:22272   */\n      tag_357\n      jump\t// in\n    tag_614:\n        /* \"#utility.yul\":22216:22222   */\n      dup4\n        /* \"#utility.yul\":22209:22273   */\n      sstore\n        /* \"#utility.yul\":22131:22287   */\n      pop\n        /* \"#utility.yul\":22108:22287   */\n    tag_613:\n        /* \"#utility.yul\":22333:22334   */\n      0x01\n        /* \"#utility.yul\":22329:22330   */\n      0x02\n        /* \"#utility.yul\":22321:22327   */\n      dup9\n        /* \"#utility.yul\":22317:22331   */\n      mul\n        /* \"#utility.yul\":22313:22335   */\n      add\n        /* \"#utility.yul\":22307:22311   */\n      dup9\n        /* \"#utility.yul\":22300:22336   */\n      sstore\n        /* \"#utility.yul\":21735:22346   */\n      pop\n      pop\n      pop\n        /* \"#utility.yul\":21698:22585   */\n    tag_605:\n      pop\n        /* \"#utility.yul\":21288:22591   */\n      pop\n      pop\n      pop\n        /* \"#utility.yul\":21196:22591   */\n      pop\n      pop\n      jump\t// out\n        /* \"#utility.yul\":22597:22777   */\n    tag_359:\n        /* \"#utility.yul\":22645:22722   */\n      0x4e487b7100000000000000000000000000000000000000000000000000000000\n        /* \"#utility.yul\":22642:22643   */\n      0x00\n        /* \"#utility.yul\":22635:22723   */\n      mstore\n        /* \"#utility.yul\":22742:22746   */\n      0x11\n        /* \"#utility.yul\":22739:22740   */\n      0x04\n        /* \"#utility.yul\":22732:22747   */\n      mstore\n        /* \"#utility.yul\":22766:22770   */\n      0x24\n        /* \"#utility.yul\":22763:22764   */\n      0x00\n        /* \"#utility.yul\":22756:22771   */\n      revert\n        /* \"#utility.yul\":22783:23016   */\n    tag_129:\n        /* \"#utility.yul\":22822:22825   */\n      0x00\n        /* \"#utility.yul\":22845:22869   */\n      tag_617\n        /* \"#utility.yul\":22863:22868   */\n      dup3\n        /* \"#utility.yul\":22845:22869   */\n      tag_321\n      jump\t// in\n    tag_617:\n        /* \"#utility.yul\":22836:22869   */\n      swap2\n      pop\n        /* \"#utility.yul\":22891:22957   */\n      0xffffffffffffffffffffffffffffffffffffffffffffffffffffffffffffffff\n        /* \"#utility.yul\":22884:22889   */\n      dup3\n        /* \"#utility.yul\":22881:22958   */\n      sub\n        /* \"#utility.yul\":22878:22981   */\n      tag_618\n      jumpi\n        /* \"#utility.yul\":22961:22979   */\n      tag_619\n      tag_359\n      jump\t// in\n    tag_619:\n        /* \"#utility.yul\":22878:22981   */\n    tag_618:\n        /* \"#utility.yul\":23008:23009   */\n      0x01\n        /* \"#utility.yul\":23001:23006   */\n      dup3\n        /* \"#utility.yul\":22997:23010   */\n      add\n        /* \"#utility.yul\":22990:23010   */\n      swap1\n      pop\n        /* \"#utility.yul\":22783:23016   */\n      swap2\n      swap1\n      pop\n      jump\t// out\n        /* \"#utility.yul\":23022:23107   */\n    tag_360:\n        /* \"#utility.yul\":23067:23074   */\n      0x00\n        /* \"#utility.yul\":23096:23101   */\n      dup2\n        /* \"#utility.yul\":23085:23101   */\n      swap1\n      pop\n        /* \"#utility.yul\":23022:23107   */\n      swap2\n      swap1\n      pop\n      jump\t// out\n        /* \"#utility.yul\":23113:23271   */\n    tag_361:\n        /* \"#utility.yul\":23171:23180   */\n      0x00\n        /* \"#utility.yul\":23204:23265   */\n      tag_622\n        /* \"#utility.yul\":23222:23264   */\n      tag_623\n        /* \"#utility.yul\":23231:23263   */\n      tag_624\n        /* \"#utility.yul\":23257:23262   */\n      dup5\n        /* \"#utility.yul\":23231:23263   */\n      tag_360\n      jump\t// in\n    tag_624:\n        /* \"#utility.yul\":23222:23264   */\n      tag_348\n      jump\t// in\n    tag_623:\n        /* \"#utility.yul\":23204:23265   */\n      tag_321\n      jump\t// in\n    tag_622:\n        /* \"#utility.yul\":23191:23265   */\n      swap1\n      pop\n        /* \"#utility.yul\":23113:23271   */\n      swap2\n      swap1\n      pop\n      jump\t// out\n        /* \"#utility.yul\":23277:23424   */\n    tag_362:\n        /* \"#utility.yul\":23372:23417   */\n      tag_626\n        /* \"#utility.yul\":23411:23416   */\n      dup2\n        /* \"#utility.yul\":23372:23417   */\n      tag_361\n      jump\t// in\n    tag_626:\n        /* \"#utility.yul\":23367:23370   */\n      dup3\n        /* \"#utility.yul\":23360:23418   */\n      mstore\n        /* \"#utility.yul\":23277:23424   */\n      pop\n      pop\n      jump\t// out\n        /* \"#utility.yul\":23430:23778   */\n    tag_133:\n        /* \"#utility.yul\":23559:23563   */\n      0x00\n        /* \"#utility.yul\":23597:23599   */\n      0x40\n        /* \"#utility.yul\":23586:23595   */\n      dup3\n        /* \"#utility.yul\":23582:23600   */\n      add\n        /* \"#utility.yul\":23574:23600   */\n      swap1\n      pop\n        /* \"#utility.yul\":23610:23681   */\n      tag_628\n        /* \"#utility.yul\":23678:23679   */\n      0x00\n        /* \"#utility.yul\":23667:23676   */\n      dup4\n        /* \"#utility.yul\":23663:23680   */\n      add\n        /* \"#utility.yul\":23654:23660   */\n      dup6\n        /* \"#utility.yul\":23610:23681   */\n      tag_325\n      jump\t// in\n    tag_628:\n        /* \"#utility.yul\":23691:23771   */\n      tag_629\n        /* \"#utility.yul\":23767:23769   */\n      0x20\n        /* \"#utility.yul\":23756:23765   */\n      dup4\n        /* \"#utility.yul\":23752:23770   */\n      add\n        /* \"#utility.yul\":23743:23749   */\n      dup5\n        /* \"#utility.yul\":23691:23771   */\n      tag_362\n      jump\t// in\n    tag_629:\n        /* \"#utility.yul\":23430:23778   */\n      swap4\n      swap3\n      pop\n      pop\n      pop\n      jump\t// out\n        /* \"#utility.yul\":23784:23955   */\n    tag_363:\n        /* \"#utility.yul\":23924:23947   */\n      0x55706c696e6520646f6573206e6f742065786973740000000000000000000000\n        /* \"#utility.yul\":23920:23921   */\n      0x00\n        /* \"#utility.yul\":23912:23918   */\n      dup3\n        /* \"#utility.yul\":23908:23922   */\n      add\n        /* \"#utility.yul\":23901:23948   */\n      mstore\n        /* \"#utility.yul\":23784:23955   */\n      pop\n      jump\t// out\n        /* \"#utility.yul\":23961:24327   */\n    tag_364:\n        /* \"#utility.yul\":24103:24106   */\n      0x00\n        /* \"#utility.yul\":24124:24191   */\n      tag_632\n        /* \"#utility.yul\":24188:24190   */\n      0x15\n        /* \"#utility.yul\":24183:24186   */\n      dup4\n        /* \"#utility.yul\":24124:24191   */\n      tag_334\n      jump\t// in\n    tag_632:\n        /* \"#utility.yul\":24117:24191   */\n      swap2\n      pop\n        /* \"#utility.yul\":24200:24293   */\n      tag_633\n        /* \"#utility.yul\":24289:24292   */\n      dup3\n        /* \"#utility.yul\":24200:24293   */\n      tag_363\n      jump\t// in\n    tag_633:\n        /* \"#utility.yul\":24318:24320   */\n      0x20\n        /* \"#utility.yul\":24313:24316   */\n      dup3\n        /* \"#utility.yul\":24309:24321   */\n      add\n        /* \"#utility.yul\":24302:24321   */\n      swap1\n      pop\n        /* \"#utility.yul\":23961:24327   */\n      swap2\n      swap1\n      pop\n      jump\t// out\n        /* \"#utility.yul\":24333:24752   */\n    tag_137:\n        /* \"#utility.yul\":24499:24503   */\n      0x00\n        /* \"#utility.yul\":24537:24539   */\n      0x20\n        /* \"#utility.yul\":24526:24535   */\n      dup3\n        /* \"#utility.yul\":24522:24540   */\n      add\n        /* \"#utility.yul\":24514:24540   */\n      swap1\n      pop\n        /* \"#utility.yul\":24586:24595   */\n      dup2\n        /* \"#utility.yul\":24580:24584   */\n      dup2\n        /* \"#utility.yul\":24576:24596   */\n      sub\n        /* \"#utility.yul\":24572:24573   */\n      0x00\n        /* \"#utility.yul\":24561:24570   */\n      dup4\n        /* \"#utility.yul\":24557:24574   */\n      add\n        /* \"#utility.yul\":24550:24597   */\n      mstore\n        /* \"#utility.yul\":24614:24745   */\n      tag_635\n        /* \"#utility.yul\":24740:24744   */\n      dup2\n        /* \"#utility.yul\":24614:24745   */\n      tag_364\n      jump\t// in\n    tag_635:\n        /* \"#utility.yul\":24606:24745   */\n      swap1\n      pop\n        /* \"#utility.yul\":24333:24752   */\n      swap2\n      swap1\n      pop\n      jump\t// out\n        /* \"#utility.yul\":24758:24906   */\n    tag_365:\n        /* \"#utility.yul\":24860:24871   */\n      0x00\n        /* \"#utility.yul\":24897:24900   */\n      dup2\n        /* \"#utility.yul\":24882:24900   */\n      swap1\n      pop\n        /* \"#utility.yul\":24758:24906   */\n      swap3\n      swap2\n      pop\n      pop\n      jump\t// out\n        /* \"#utility.yul\":24912:25302   */\n    tag_366:\n        /* \"#utility.yul\":25018:25021   */\n      0x00\n        /* \"#utility.yul\":25046:25085   */\n      tag_638\n        /* \"#utility.yul\":25079:25084   */\n      dup3\n        /* \"#utility.yul\":25046:25085   */\n      tag_333\n      jump\t// in\n    tag_638:\n        /* \"#utility.yul\":25101:25190   */\n      tag_639\n        /* \"#utility.yul\":25183:25189   */\n      dup2\n        /* \"#utility.yul\":25178:25181   */\n      dup6\n        /* \"#utility.yul\":25101:25190   */\n      tag_365\n      jump\t// in\n    tag_639:\n        /* \"#utility.yul\":25094:25190   */\n      swap4\n      pop\n        /* \"#utility.yul\":25199:25264   */\n      tag_640\n        /* \"#utility.yul\":25257:25263   */\n      dup2\n        /* \"#utility.yul\":25252:25255   */\n      dup6\n        /* \"#utility.yul\":25245:25249   */\n      0x20\n        /* \"#utility.yul\":25238:25243   */\n      dup7\n        /* \"#utility.yul\":25234:25250   */\n      add\n        /* \"#utility.yul\":25199:25264   */\n      tag_335\n      jump\t// in\n    tag_640:\n        /* \"#utility.yul\":25289:25295   */\n      dup1\n        /* \"#utility.yul\":25284:25287   */\n      dup5\n        /* \"#utility.yul\":25280:25296   */\n      add\n        /* \"#utility.yul\":25273:25296   */\n      swap2\n      pop\n        /* \"#utility.yul\":25022:25302   */\n      pop\n        /* \"#utility.yul\":24912:25302   */\n      swap3\n      swap2\n      pop\n      pop\n      jump\t// out\n        /* \"#utility.yul\":25308:25583   */\n    tag_139:\n        /* \"#utility.yul\":25440:25443   */\n      0x00\n        /* \"#utility.yul\":25462:25557   */\n      tag_642\n        /* \"#utility.yul\":25553:25556   */\n      dup3\n        /* \"#utility.yul\":25544:25550   */\n      dup5\n        /* \"#utility.yul\":25462:25557   */\n      tag_366\n      jump\t// in\n    tag_642:\n        /* \"#utility.yul\":25455:25557   */\n      swap2\n      pop\n        /* \"#utility.yul\":25574:25577   */\n      dup2\n        /* \"#utility.yul\":25567:25577   */\n      swap1\n      pop\n        /* \"#utility.yul\":25308:25583   */\n      swap3\n      swap2\n      pop\n      pop\n      jump\t// out\n        /* \"#utility.yul\":25589:25752   */\n    tag_367:\n        /* \"#utility.yul\":25729:25744   */\n      0x496e76616c6964206c6576656c00000000000000000000000000000000000000\n        /* \"#utility.yul\":25725:25726   */\n      0x00\n        /* \"#utility.yul\":25717:25723   */\n      dup3\n        /* \"#utility.yul\":25713:25727   */\n      add\n        /* \"#utility.yul\":25706:25745   */\n      mstore\n        /* \"#utility.yul\":25589:25752   */\n      pop\n      jump\t// out\n        /* \"#utility.yul\":25758:26124   */\n    tag_368:\n        /* \"#utility.yul\":25900:25903   */\n      0x00\n        /* \"#utility.yul\":25921:25988   */\n      tag_645\n        /* \"#utility.yul\":25985:25987   */\n      0x0d\n        /* \"#utility.yul\":25980:25983   */\n      dup4\n        /* \"#utility.yul\":25921:25988   */\n      tag_334\n      jump\t// in\n    tag_645:\n        /* \"#utility.yul\":25914:25988   */\n      swap2\n      pop\n        /* \"#utility.yul\":25997:26090   */\n      tag_646\n        /* \"#utility.yul\":26086:26089   */\n      dup3\n        /* \"#utility.yul\":25997:26090   */\n      tag_367\n      jump\t// in\n    tag_646:\n        /* \"#utility.yul\":26115:26117   */\n      0x20\n        /* \"#utility.yul\":26110:26113   */\n      dup3\n        /* \"#utility.yul\":26106:26118   */\n      add\n        /* \"#utility.yul\":26099:26118   */\n      swap1\n      pop\n        /* \"#utility.yul\":25758:26124   */\n      swap2\n      swap1\n      pop\n      jump\t// out\n        /* \"#utility.yul\":26130:26549   */\n    tag_187:\n        /* \"#utility.yul\":26296:26300   */\n      0x00\n        /* \"#utility.yul\":26334:26336   */\n      0x20\n        /* \"#utility.yul\":26323:26332   */\n      dup3\n        /* \"#utility.yul\":26319:26337   */\n      add\n        /* \"#utility.yul\":26311:26337   */\n      swap1\n      pop\n        /* \"#utility.yul\":26383:26392   */\n      dup2\n        /* \"#utility.yul\":26377:26381   */\n      dup2\n        /* \"#utility.yul\":26373:26393   */\n      sub\n        /* \"#utility.yul\":26369:26370   */\n      0x00\n        /* \"#utility.yul\":26358:26367   */\n      dup4\n        /* \"#utility.yul\":26354:26371   */\n      add\n        /* \"#utility.yul\":26347:26394   */\n      mstore\n        /* \"#utility.yul\":26411:26542   */\n      tag_648\n        /* \"#utility.yul\":26537:26541   */\n      dup2\n        /* \"#utility.yul\":26411:26542   */\n      tag_368\n      jump\t// in\n    tag_648:\n        /* \"#utility.yul\":26403:26542   */\n      swap1\n      pop\n        /* \"#utility.yul\":26130:26549   */\n      swap2\n      swap1\n      pop\n      jump\t// out\n        /* \"#utility.yul\":26555:26784   */\n    tag_369:\n        /* \"#utility.yul\":26695:26729   */\n      0x43616e6e6f7420646f776e6772616465206f7220737461792061742074686520\n        /* \"#utility.yul\":26691:26692   */\n      0x00\n        /* \"#utility.yul\":26683:26689   */\n      dup3\n        /* \"#utility.yul\":26679:26693   */\n      add\n        /* \"#utility.yul\":26672:26730   */\n      mstore\n        /* \"#utility.yul\":26764:26776   */\n      0x73616d65206c6576656c00000000000000000000000000000000000000000000\n        /* \"#utility.yul\":26759:26761   */\n      0x20\n        /* \"#utility.yul\":26751:26757   */\n      dup3\n        /* \"#utility.yul\":26747:26762   */\n      add\n        /* \"#utility.yul\":26740:26777   */\n      mstore\n        /* \"#utility.yul\":26555:26784   */\n      pop\n      jump\t// out\n        /* \"#utility.yul\":26790:27156   */\n    tag_370:\n        /* \"#utility.yul\":26932:26935   */\n      0x00\n        /* \"#utility.yul\":26953:27020   */\n      tag_651\n        /* \"#utility.yul\":27017:27019   */\n      0x2a\n        /* \"#utility.yul\":27012:27015   */\n      dup4\n        /* \"#utility.yul\":26953:27020   */\n      tag_334\n      jump\t// in\n    tag_651:\n        /* \"#utility.yul\":26946:27020   */\n      swap2\n      pop\n        /* \"#utility.yul\":27029:27122   */\n      tag_652\n        /* \"#utility.yul\":27118:27121   */\n      dup3\n        /* \"#utility.yul\":27029:27122   */\n      tag_369\n      jump\t// in\n    tag_652:\n        /* \"#utility.yul\":27147:27149   */\n      0x40\n        /* \"#utility.yul\":27142:27145   */\n      dup3\n        /* \"#utility.yul\":27138:27150   */\n      add\n        /* \"#utility.yul\":27131:27150   */\n      swap1\n      pop\n        /* \"#utility.yul\":26790:27156   */\n      swap2\n      swap1\n      pop\n      jump\t// out\n        /* \"#utility.yul\":27162:27581   */\n    tag_191:\n        /* \"#utility.yul\":27328:27332   */\n      0x00\n        /* \"#utility.yul\":27366:27368   */\n      0x20\n        /* \"#utility.yul\":27355:27364   */\n      dup3\n        /* \"#utility.yul\":27351:27369   */\n      add\n        /* \"#utility.yul\":27343:27369   */\n      swap1\n      pop\n        /* \"#utility.yul\":27415:27424   */\n      dup2\n        /* \"#utility.yul\":27409:27413   */\n      dup2\n        /* \"#utility.yul\":27405:27425   */\n      sub\n        /* \"#utility.yul\":27401:27402   */\n      0x00\n        /* \"#utility.yul\":27390:27399   */\n      dup4\n        /* \"#utility.yul\":27386:27403   */\n      add\n        /* \"#utility.yul\":27379:27426   */\n      mstore\n        /* \"#utility.yul\":27443:27574   */\n      tag_654\n        /* \"#utility.yul\":27569:27573   */\n      dup2\n        /* \"#utility.yul\":27443:27574   */\n      tag_370\n      jump\t// in\n    tag_654:\n        /* \"#utility.yul\":27435:27574   */\n      swap1\n      pop\n        /* \"#utility.yul\":27162:27581   */\n      swap2\n      swap1\n      pop\n      jump\t// out\n        /* \"#utility.yul\":27587:27911   */\n    tag_197:\n        /* \"#utility.yul\":27704:27708   */\n      0x00\n        /* \"#utility.yul\":27742:27744   */\n      0x40\n        /* \"#utility.yul\":27731:27740   */\n      dup3\n        /* \"#utility.yul\":27727:27745   */\n      add\n        /* \"#utility.yul\":27719:27745   */\n      swap1\n      pop\n        /* \"#utility.yul\":27755:27822   */\n      tag_656\n        /* \"#utility.yul\":27819:27820   */\n      0x00\n        /* \"#utility.yul\":27808:27817   */\n      dup4\n        /* \"#utility.yul\":27804:27821   */\n      add\n        /* \"#utility.yul\":27795:27801   */\n      dup6\n        /* \"#utility.yul\":27755:27822   */\n      tag_320\n      jump\t// in\n    tag_656:\n        /* \"#utility.yul\":27832:27904   */\n      tag_657\n        /* \"#utility.yul\":27900:27902   */\n      0x20\n        /* \"#utility.yul\":27889:27898   */\n      dup4\n        /* \"#utility.yul\":27885:27903   */\n      add\n        /* \"#utility.yul\":27876:27882   */\n      dup5\n        /* \"#utility.yul\":27832:27904   */\n      tag_325\n      jump\t// in\n    tag_657:\n        /* \"#utility.yul\":27587:27911   */\n      swap4\n      swap3\n      pop\n      pop\n      pop\n      jump\t// out\n        /* \"#utility.yul\":27917:28096   */\n    tag_371:\n        /* \"#utility.yul\":28057:28088   */\n      0x496e73756666696369656e7420636f6e74726163742062616c616e6365000000\n        /* \"#utility.yul\":28053:28054   */\n      0x00\n        /* \"#utility.yul\":28045:28051   */\n      dup3\n        /* \"#utility.yul\":28041:28055   */\n      add\n        /* \"#utility.yul\":28034:28089   */\n      mstore\n        /* \"#utility.yul\":27917:28096   */\n      pop\n      jump\t// out\n        /* \"#utility.yul\":28102:28468   */\n    tag_372:\n        /* \"#utility.yul\":28244:28247   */\n      0x00\n        /* \"#utility.yul\":28265:28332   */\n      tag_660\n        /* \"#utility.yul\":28329:28331   */\n      0x1d\n        /* \"#utility.yul\":28324:28327   */\n      dup4\n        /* \"#utility.yul\":28265:28332   */\n      tag_334\n      jump\t// in\n    tag_660:\n        /* \"#utility.yul\":28258:28332   */\n      swap2\n      pop\n        /* \"#utility.yul\":28341:28434   */\n      tag_661\n        /* \"#utility.yul\":28430:28433   */\n      dup3\n        /* \"#utility.yul\":28341:28434   */\n      tag_371\n      jump\t// in\n    tag_661:\n        /* \"#utility.yul\":28459:28461   */\n      0x20\n        /* \"#utility.yul\":28454:28457   */\n      dup3\n        /* \"#utility.yul\":28450:28462   */\n      add\n        /* \"#utility.yul\":28443:28462   */\n      swap1\n      pop\n        /* \"#utility.yul\":28102:28468   */\n      swap2\n      swap1\n      pop\n      jump\t// out\n        /* \"#utility.yul\":28474:28893   */\n    tag_203:\n        /* \"#utility.yul\":28640:28644   */\n      0x00\n        /* \"#utility.yul\":28678:28680   */\n      0x20\n        /* \"#utility.yul\":28667:28676   */\n      dup3\n        /* \"#utility.yul\":28663:28681   */\n      add\n        /* \"#utility.yul\":28655:28681   */\n      swap1\n      pop\n        /* \"#utility.yul\":28727:28736   */\n      dup2\n        /* \"#utility.yul\":28721:28725   */\n      dup2\n        /* \"#utility.yul\":28717:28737   */\n      sub\n        /* \"#utility.yul\":28713:28714   */\n      0x00\n        /* \"#utility.yul\":28702:28711   */\n      dup4\n        /* \"#utility.yul\":28698:28715   */\n      add\n        /* \"#utility.yul\":28691:28738   */\n      mstore\n        /* \"#utility.yul\":28755:28886   */\n      tag_663\n        /* \"#utility.yul\":28881:28885   */\n      dup2\n        /* \"#utility.yul\":28755:28886   */\n      tag_372\n      jump\t// in\n    tag_663:\n        /* \"#utility.yul\":28747:28886   */\n      swap1\n      pop\n        /* \"#utility.yul\":28474:28893   */\n      swap2\n      swap1\n      pop\n      jump\t// out\n        /* \"#utility.yul\":28899:29090   */\n    tag_205:\n        /* \"#utility.yul\":28939:28942   */\n      0x00\n        /* \"#utility.yul\":28958:28978   */\n      tag_665\n        /* \"#utility.yul\":28976:28977   */\n      dup3\n        /* \"#utility.yul\":28958:28978   */\n      tag_321\n      jump\t// in\n    tag_665:\n        /* \"#utility.yul\":28953:28978   */\n      swap2\n      pop\n        /* \"#utility.yul\":28992:29012   */\n      tag_666\n        /* \"#utility.yul\":29010:29011   */\n      dup4\n        /* \"#utility.yul\":28992:29012   */\n      tag_321\n      jump\t// in\n    tag_666:\n        /* \"#utility.yul\":28987:29012   */\n      swap3\n      pop\n        /* \"#utility.yul\":29035:29036   */\n      dup3\n        /* \"#utility.yul\":29032:29033   */\n      dup3\n        /* \"#utility.yul\":29028:29037   */\n      add\n        /* \"#utility.yul\":29021:29037   */\n      swap1\n      pop\n        /* \"#utility.yul\":29056:29059   */\n      dup1\n        /* \"#utility.yul\":29053:29054   */\n      dup3\n        /* \"#utility.yul\":29050:29060   */\n      gt\n        /* \"#utility.yul\":29047:29083   */\n      iszero\n      tag_667\n      jumpi\n        /* \"#utility.yul\":29063:29081   */\n      tag_668\n      tag_359\n      jump\t// in\n    tag_668:\n        /* \"#utility.yul\":29047:29083   */\n    tag_667:\n        /* \"#utility.yul\":28899:29090   */\n      swap3\n      swap2\n      pop\n      pop\n      jump\t// out\n        /* \"#utility.yul\":29096:29243   */\n    tag_373:\n        /* \"#utility.yul\":29197:29208   */\n      0x00\n        /* \"#utility.yul\":29234:29237   */\n      dup2\n        /* \"#utility.yul\":29219:29237   */\n      swap1\n      pop\n        /* \"#utility.yul\":29096:29243   */\n      swap3\n      swap2\n      pop\n      pop\n      jump\t// out\n        /* \"#utility.yul\":29249:29363   */\n    tag_374:\n      pop\n      jump\t// out\n        /* \"#utility.yul\":29369:29767   */\n    tag_375:\n        /* \"#utility.yul\":29528:29531   */\n      0x00\n        /* \"#utility.yul\":29549:29632   */\n      tag_672\n        /* \"#utility.yul\":29630:29631   */\n      0x00\n        /* \"#utility.yul\":29625:29628   */\n      dup4\n        /* \"#utility.yul\":29549:29632   */\n      tag_373\n      jump\t// in\n    tag_672:\n        /* \"#utility.yul\":29542:29632   */\n      swap2\n      pop\n        /* \"#utility.yul\":29641:29734   */\n      tag_673\n        /* \"#utility.yul\":29730:29733   */\n      dup3\n        /* \"#utility.yul\":29641:29734   */\n      tag_374\n      jump\t// in\n    tag_673:\n        /* \"#utility.yul\":29759:29760   */\n      0x00\n        /* \"#utility.yul\":29754:29757   */\n      dup3\n        /* \"#utility.yul\":29750:29761   */\n      add\n        /* \"#utility.yul\":29743:29761   */\n      swap1\n      pop\n        /* \"#utility.yul\":29369:29767   */\n      swap2\n      swap1\n      pop\n      jump\t// out\n        /* \"#utility.yul\":29773:30152   */\n    tag_207:\n        /* \"#utility.yul\":29957:29960   */\n      0x00\n        /* \"#utility.yul\":29979:30126   */\n      tag_675\n        /* \"#utility.yul\":30122:30125   */\n      dup3\n        /* \"#utility.yul\":29979:30126   */\n      tag_375\n      jump\t// in\n    tag_675:\n        /* \"#utility.yul\":29972:30126   */\n      swap2\n      pop\n        /* \"#utility.yul\":30143:30146   */\n      dup2\n        /* \"#utility.yul\":30136:30146   */\n      swap1\n      pop\n        /* \"#utility.yul\":29773:30152   */\n      swap2\n      swap1\n      pop\n      jump\t// out\n        /* \"#utility.yul\":30158:30323   */\n    tag_376:\n        /* \"#utility.yul\":30298:30315   */\n      0x5472616e73666572206661696c65640000000000000000000000000000000000\n        /* \"#utility.yul\":30294:30295   */\n      0x00\n        /* \"#utility.yul\":30286:30292   */\n      dup3\n        /* \"#utility.yul\":30282:30296   */\n      add\n        /* \"#utility.yul\":30275:30316   */\n      mstore\n        /* \"#utility.yul\":30158:30323   */\n      pop\n      jump\t// out\n        /* \"#utility.yul\":30329:30695   */\n    tag_377:\n        /* \"#utility.yul\":30471:30474   */\n      0x00\n        /* \"#utility.yul\":30492:30559   */\n      tag_678\n        /* \"#utility.yul\":30556:30558   */\n      0x0f\n        /* \"#utility.yul\":30551:30554   */\n      dup4\n        /* \"#utility.yul\":30492:30559   */\n      tag_334\n      jump\t// in\n    tag_678:\n        /* \"#utility.yul\":30485:30559   */\n      swap2\n      pop\n        /* \"#utility.yul\":30568:30661   */\n      tag_679\n        /* \"#utility.yul\":30657:30660   */\n      dup3\n        /* \"#utility.yul\":30568:30661   */\n      tag_376\n      jump\t// in\n    tag_679:\n        /* \"#utility.yul\":30686:30688   */\n      0x20\n        /* \"#utility.yul\":30681:30684   */\n      dup3\n        /* \"#utility.yul\":30677:30689   */\n      add\n        /* \"#utility.yul\":30670:30689   */\n      swap1\n      pop\n        /* \"#utility.yul\":30329:30695   */\n      swap2\n      swap1\n      pop\n      jump\t// out\n        /* \"#utility.yul\":30701:31120   */\n    tag_213:\n        /* \"#utility.yul\":30867:30871   */\n      0x00\n        /* \"#utility.yul\":30905:30907   */\n      0x20\n        /* \"#utility.yul\":30894:30903   */\n      dup3\n        /* \"#utility.yul\":30890:30908   */\n      add\n        /* \"#utility.yul\":30882:30908   */\n      swap1\n      pop\n        /* \"#utility.yul\":30954:30963   */\n      dup2\n        /* \"#utility.yul\":30948:30952   */\n      dup2\n        /* \"#utility.yul\":30944:30964   */\n      sub\n        /* \"#utility.yul\":30940:30941   */\n      0x00\n        /* \"#utility.yul\":30929:30938   */\n      dup4\n        /* \"#utility.yul\":30925:30942   */\n      add\n        /* \"#utility.yul\":30918:30965   */\n      mstore\n        /* \"#utility.yul\":30982:31113   */\n      tag_681\n        /* \"#utility.yul\":31108:31112   */\n      dup2\n        /* \"#utility.yul\":30982:31113   */\n      tag_377\n      jump\t// in\n    tag_681:\n        /* \"#utility.yul\":30974:31113   */\n      swap1\n      pop\n        /* \"#utility.yul\":30701:31120   */\n      swap2\n      swap1\n      pop\n      jump\t// out\n        /* \"#utility.yul\":31126:31309   */\n    tag_378:\n        /* \"#utility.yul\":31266:31297   */\n      0x68747470733a2f2f6578616d706c652e636f6d2f726566657272616c2f000000\n        /* \"#utility.yul\":31262:31263   */\n      0x00\n        /* \"#utility.yul\":31254:31260   */\n      dup3\n        /* \"#utility.yul\":31250:31264   */\n      add\n        /* \"#utility.yul\":31243:31298   */\n      mstore\n        /* \"#utility.yul\":31126:31309   */\n      pop\n      jump\t// out\n        /* \"#utility.yul\":31319:31737   */\n    tag_379:\n        /* \"#utility.yul\":31479:31482   */\n      0x00\n        /* \"#utility.yul\":31504:31589   */\n      tag_684\n        /* \"#utility.yul\":31586:31588   */\n      0x1d\n        /* \"#utility.yul\":31581:31584   */\n      dup4\n        /* \"#utility.yul\":31504:31589   */\n      tag_365\n      jump\t// in\n    tag_684:\n        /* \"#utility.yul\":31497:31589   */\n      swap2\n      pop\n        /* \"#utility.yul\":31602:31695   */\n      tag_685\n        /* \"#utility.yul\":31691:31694   */\n      dup3\n        /* \"#utility.yul\":31602:31695   */\n      tag_378\n      jump\t// in\n    tag_685:\n        /* \"#utility.yul\":31724:31726   */\n      0x1d\n        /* \"#utility.yul\":31719:31722   */\n      dup3\n        /* \"#utility.yul\":31715:31727   */\n      add\n        /* \"#utility.yul\":31708:31727   */\n      swap1\n      pop\n        /* \"#utility.yul\":31319:31737   */\n      swap2\n      swap1\n      pop\n      jump\t// out\n        /* \"#utility.yul\":31747:32304   */\n    tag_243:\n        /* \"#utility.yul\":31980:31983   */\n      0x00\n        /* \"#utility.yul\":32006:32154   */\n      tag_687\n        /* \"#utility.yul\":32150:32153   */\n      dup3\n        /* \"#utility.yul\":32006:32154   */\n      tag_379\n      jump\t// in\n    tag_687:\n        /* \"#utility.yul\":31999:32154   */\n      swap2\n      pop\n        /* \"#utility.yul\":32175:32270   */\n      tag_688\n        /* \"#utility.yul\":32266:32269   */\n      dup3\n        /* \"#utility.yul\":32257:32263   */\n      dup5\n        /* \"#utility.yul\":32175:32270   */\n      tag_366\n      jump\t// in\n    tag_688:\n        /* \"#utility.yul\":32168:32270   */\n      swap2\n      pop\n        /* \"#utility.yul\":32291:32294   */\n      dup2\n        /* \"#utility.yul\":32284:32294   */\n      swap1\n      pop\n        /* \"#utility.yul\":31747:32304   */\n      swap3\n      swap2\n      pop\n      pop\n      jump\t// out\n        /* \"#utility.yul\":32314:32510   */\n    tag_380:\n        /* \"#utility.yul\":32366:32443   */\n      0x4e487b7100000000000000000000000000000000000000000000000000000000\n        /* \"#utility.yul\":32363:32364   */\n      0x00\n        /* \"#utility.yul\":32356:32444   */\n      mstore\n        /* \"#utility.yul\":32467:32471   */\n      0x12\n        /* \"#utility.yul\":32464:32465   */\n      0x04\n        /* \"#utility.yul\":32457:32472   */\n      mstore\n        /* \"#utility.yul\":32495:32499   */\n      0x24\n        /* \"#utility.yul\":32492:32493   */\n      0x00\n        /* \"#utility.yul\":32485:32500   */\n      revert\n        /* \"#utility.yul\":32520:32716   */\n    tag_275:\n        /* \"#utility.yul\":32552:32553   */\n      0x00\n        /* \"#utility.yul\":32573:32593   */\n      tag_691\n        /* \"#utility.yul\":32591:32592   */\n      dup3\n        /* \"#utility.yul\":32573:32593   */\n      tag_321\n      jump\t// in\n    tag_691:\n        /* \"#utility.yul\":32568:32593   */\n      swap2\n      pop\n        /* \"#utility.yul\":32611:32631   */\n      tag_692\n        /* \"#utility.yul\":32629:32630   */\n      dup4\n        /* \"#utility.yul\":32611:32631   */\n      tag_321\n      jump\t// in\n    tag_692:\n        /* \"#utility.yul\":32606:32631   */\n      swap3\n      pop\n        /* \"#utility.yul\":32654:32655   */\n      dup3\n        /* \"#utility.yul\":32644:32679   */\n      tag_693\n      jumpi\n        /* \"#utility.yul\":32659:32677   */\n      tag_694\n      tag_380\n      jump\t// in\n    tag_694:\n        /* \"#utility.yul\":32644:32679   */\n    tag_693:\n        /* \"#utility.yul\":32704:32705   */\n      dup3\n        /* \"#utility.yul\":32701:32702   */\n      dup3\n        /* \"#utility.yul\":32697:32706   */\n      mod\n        /* \"#utility.yul\":32692:32706   */\n      swap1\n      pop\n        /* \"#utility.yul\":32520:32716   */\n      swap3\n      swap2\n      pop\n      pop\n      jump\t// out\n        /* \"#utility.yul\":32726:32931   */\n    tag_277:\n        /* \"#utility.yul\":32766:32767   */\n      0x00\n        /* \"#utility.yul\":32787:32807   */\n      tag_696\n        /* \"#utility.yul\":32805:32806   */\n      dup3\n        /* \"#utility.yul\":32787:32807   */\n      tag_321\n      jump\t// in\n    tag_696:\n        /* \"#utility.yul\":32782:32807   */\n      swap2\n      pop\n        /* \"#utility.yul\":32825:32845   */\n      tag_697\n        /* \"#utility.yul\":32843:32844   */\n      dup4\n        /* \"#utility.yul\":32825:32845   */\n      tag_321\n      jump\t// in\n    tag_697:\n        /* \"#utility.yul\":32820:32845   */\n      swap3\n      pop\n        /* \"#utility.yul\":32868:32869   */\n      dup3\n        /* \"#utility.yul\":32858:32893   */\n      tag_698\n      jumpi\n        /* \"#utility.yul\":32873:32891   */\n      tag_699\n      tag_380\n      jump\t// in\n    tag_699:\n        /* \"#utility.yul\":32858:32893   */\n    tag_698:\n        /* \"#utility.yul\":32919:32920   */\n      dup3\n        /* \"#utility.yul\":32916:32917   */\n      dup3\n        /* \"#utility.yul\":32912:32921   */\n      div\n        /* \"#utility.yul\":32907:32921   */\n      swap1\n      pop\n        /* \"#utility.yul\":32726:32931   */\n      swap3\n      swap2\n      pop\n      pop\n      jump\t// out\n        /* \"#utility.yul\":32941:33137   */\n    tag_282:\n        /* \"#utility.yul\":32993:33070   */\n      0x4e487b7100000000000000000000000000000000000000000000000000000000\n        /* \"#utility.yul\":32990:32991   */\n      0x00\n        /* \"#utility.yul\":32983:33071   */\n      mstore\n        /* \"#utility.yul\":33094:33098   */\n      0x32\n        /* \"#utility.yul\":33091:33092   */\n      0x04\n        /* \"#utility.yul\":33084:33099   */\n      mstore\n        /* \"#utility.yul\":33122:33126   */\n      0x24\n        /* \"#utility.yul\":33119:33120   */\n      0x00\n        /* \"#utility.yul\":33112:33127   */\n      revert\n        /* \"#utility.yul\":33147:33361   */\n    tag_290:\n        /* \"#utility.yul\":33187:33191   */\n      0x00\n        /* \"#utility.yul\":33211:33231   */\n      tag_702\n        /* \"#utility.yul\":33229:33230   */\n      dup3\n        /* \"#utility.yul\":33211:33231   */\n      tag_321\n      jump\t// in\n    tag_702:\n        /* \"#utility.yul\":33206:33231   */\n      swap2\n      pop\n        /* \"#utility.yul\":33249:33269   */\n      tag_703\n        /* \"#utility.yul\":33267:33268   */\n      dup4\n        /* \"#utility.yul\":33249:33269   */\n      tag_321\n      jump\t// in\n    tag_703:\n        /* \"#utility.yul\":33244:33269   */\n      swap3\n      pop\n        /* \"#utility.yul\":33297:33298   */\n      dup3\n        /* \"#utility.yul\":33294:33295   */\n      dup3\n        /* \"#utility.yul\":33290:33299   */\n      sub\n        /* \"#utility.yul\":33282:33299   */\n      swap1\n      pop\n        /* \"#utility.yul\":33325:33326   */\n      dup2\n        /* \"#utility.yul\":33319:33323   */\n      dup2\n        /* \"#utility.yul\":33316:33327   */\n      gt\n        /* \"#utility.yul\":33313:33350   */\n      iszero\n      tag_704\n      jumpi\n        /* \"#utility.yul\":33330:33348   */\n      tag_705\n      tag_359\n      jump\t// in\n    tag_705:\n        /* \"#utility.yul\":33313:33350   */\n    tag_704:\n        /* \"#utility.yul\":33147:33361   */\n      swap3\n      swap2\n      pop\n      pop\n      jump\t// out\n\n    auxdata: 0xa2646970667358221220c3be6543d3a275d8eef55e2dc2606c89dede6c748ee82a0a2073da76d5006abe64736f6c634300081a0033\n}\n",
				"bytecode": {
					"linkReferences": {},
					"object": "60806040526002600355348015610014575f80fd5b503360045f6101000a81548173ffffffffffffffffffffffffffffffffffffffff021916908373ffffffffffffffffffffffffffffffffffffffff160217905550604051806101a001604052805f73ffffffffffffffffffffffffffffffffffffffff168152602001600181526020015f81526020015f81526020015f8152602001600181526020015f67ffffffffffffffff8111156100b7576100b6610534565b5b6040519080825280602002602001820160405280156100e55781602001602082028036833780820191505090505b50815260200160405180602001604052805f815250815260200160405180602001604052805f815250815260200160405180602001604052805f815250815260200160405180602001604052805f81525081526020015f801b81526020015f73ffffffffffffffffffffffffffffffffffffffff168152505f8060045f9054906101000a900473ffffffffffffffffffffffffffffffffffffffff1673ffffffffffffffffffffffffffffffffffffffff1673ffffffffffffffffffffffffffffffffffffffff1681526020019081526020015f205f820151815f015f6101000a81548173ffffffffffffffffffffffffffffffffffffffff021916908373ffffffffffffffffffffffffffffffffffffffff1602179055506020820151816001015560408201518160020155606082015181600301556080820151816004015560a0820151816005015560c082015181600601908051906020019061024c929190610492565b5060e0820151816007019081610262919061076e565b50610100820151816008019081610279919061076e565b50610120820151816009019081610290919061076e565b5061014082015181600a0190816102a7919061076e565b5061016082015181600b015561018082015181600c015f6101000a81548173ffffffffffffffffffffffffffffffffffffffff021916908373ffffffffffffffffffffffffffffffffffffffff16021790555090505060045f9054906101000a900473ffffffffffffffffffffffffffffffffffffffff1660015f600181526020019081526020015f205f6101000a81548173ffffffffffffffffffffffffffffffffffffffff021916908373ffffffffffffffffffffffffffffffffffffffff160217905550674563918244f4000060025f600160ff1681526020019081526020015f20819055505f600290505b60088160ff16116103fe576002805f6001846103b29190610876565b60ff1660ff1681526020019081526020015f20546103d091906108aa565b60025f8360ff1660ff1681526020019081526020015f208190555080806103f6906108eb565b915050610396565b506843c33c19375648000060025f600960ff1681526020019081526020015f208190555068878678326eac90000060025f600a60ff1681526020019081526020015f208190555069010f0cf064dd5920000060025f600b60ff1681526020019081526020015f2081905550690218ae196b8d4f30000060025f600c60ff1681526020019081526020015f2081905550610913565b828054828255905f5260205f20908101928215610508579160200282015b82811115610507578251825f6101000a81548173ffffffffffffffffffffffffffffffffffffffff021916908373ffffffffffffffffffffffffffffffffffffffff160217905550916020019190600101906104b0565b5b5090506105159190610519565b5090565b5b80821115610530575f815f90555060010161051a565b5090565b7f4e487b71000000000000000000000000000000000000000000000000000000005f52604160045260245ffd5b5f81519050919050565b7f4e487b71000000000000000000000000000000000000000000000000000000005f52602260045260245ffd5b5f60028204905060018216806105af57607f821691505b6020821081036105c2576105c161056b565b5b50919050565b5f819050815f5260205f209050919050565b5f6020601f8301049050919050565b5f82821b905092915050565b5f600883026106247fffffffffffffffffffffffffffffffffffffffffffffffffffffffffffffffff826105e9565b61062e86836105e9565b95508019841693508086168417925050509392505050565b5f819050919050565b5f819050919050565b5f61067261066d61066884610646565b61064f565b610646565b9050919050565b5f819050919050565b61068b83610658565b61069f61069782610679565b8484546105f5565b825550505050565b5f90565b6106b36106a7565b6106be818484610682565b505050565b5b818110156106e1576106d65f826106ab565b6001810190506106c4565b5050565b601f821115610726576106f7816105c8565b610700846105da565b8101602085101561070f578190505b61072361071b856105da565b8301826106c3565b50505b505050565b5f82821c905092915050565b5f6107465f198460080261072b565b1980831691505092915050565b5f61075e8383610737565b9150826002028217905092915050565b61077782610561565b67ffffffffffffffff8111156107905761078f610534565b5b61079a8254610598565b6107a58282856106e5565b5f60209050601f8311600181146107d6575f84156107c4578287015190505b6107ce8582610753565b865550610835565b601f1984166107e4866105c8565b5f5b8281101561080b578489015182556001820191506020850194506020810190506107e6565b868310156108285784890151610824601f891682610737565b8355505b6001600288020188555050505b505050505050565b5f60ff82169050919050565b7f4e487b71000000000000000000000000000000000000000000000000000000005f52601160045260245ffd5b5f6108808261083d565b915061088b8361083d565b9250828203905060ff8111156108a4576108a3610849565b5b92915050565b5f6108b482610646565b91506108bf83610646565b92508282026108cd81610646565b915082820484148315176108e4576108e3610849565b5b5092915050565b5f6108f58261083d565b915060ff820361090857610907610849565b5b600182019050919050565b6135c2806109205f395ff3fe608060405260043610610108575f3560e01c80636f8e2516116100945780639ac7e09e116100635780639ac7e09e1461035a578063a87430ba14610384578063aed8a6a7146103cb578063de972b4314610407578063ecabdf791461044457610108565b80636f8e2516146102bc5780638d17a4d0146102f85780638da5cb5b14610314578063904262741461033e57610108565b8063348d4487116100db578063348d4487146101aa578063575cea6b146101d45780636386c1c71461021057806364b4f751146102565780636ed6da9e1461028057610108565b80631394c0531461010c57806329c70400146101285780632a2d0c47146101525780633056deb81461018e575b5f80fd5b61012660048036038101906101219190612675565b610480565b005b348015610133575f80fd5b5061013c6108cb565b6040516101499190612777565b60405180910390f35b34801561015d575f80fd5b50610178600480360381019061017391906127c3565b6108d0565b60405161018591906127fd565b60405180910390f35b6101a860048036038101906101a39190612816565b610900565b005b3480156101b5575f80fd5b506101be610eaf565b6040516101cb919061294e565b60405180910390f35b3480156101df575f80fd5b506101fa60048036038101906101f59190612967565b610eb5565b6040516102079190612a49565b60405180910390f35b34801561021b575f80fd5b5061023660048036038101906102319190612967565b610f7f565b60405161024d9b9a99989796959493929190612ac9565b60405180910390f35b348015610261575f80fd5b5061026a6113e7565b604051610277919061294e565b60405180910390f35b34801561028b575f80fd5b506102a660048036038101906102a191906127c3565b6113f4565b6040516102b391906127fd565b60405180910390f35b3480156102c7575f80fd5b506102e260048036038101906102dd9190612bb8565b61142d565b6040516102ef919061294e565b60405180910390f35b610312600480360381019061030d9190612bb8565b6114a7565b005b34801561031f575f80fd5b50610328611690565b60405161033591906127fd565b60405180910390f35b61035860048036038101906103539190612967565b6116b5565b005b348015610365575f80fd5b5061036e611ac3565b60405161037b919061294e565b60405180910390f35b34801561038f575f80fd5b506103aa60048036038101906103a59190612967565b611acf565b6040516103c29c9b9a99989796959493929190612bfb565b60405180910390f35b3480156103d6575f80fd5b506103f160048036038101906103ec9190612967565b611d80565b6040516103fe9190612ccf565b60405180910390f35b348015610412575f80fd5b5061042d60048036038101906104289190612967565b611df5565b60405161043b929190612cef565b60405180910390f35b34801561044f575f80fd5b5061046a60048036038101906104659190612bb8565b612206565b604051610477919061294e565b60405180910390f35b5f805f8773ffffffffffffffffffffffffffffffffffffffff1673ffffffffffffffffffffffffffffffffffffffff1681526020019081526020015f206001015414610501576040517f08c379a00000000000000000000000000000000000000000000000000000000081526004016104f890612d60565b60405180910390fd5b604051806101a001604052805f73ffffffffffffffffffffffffffffffffffffffff16815260200160035481526020015f81526020015f81526020015f8152602001600181526020015f67ffffffffffffffff81111561056457610563612551565b5b6040519080825280602002602001820160405280156105925781602001602082028036833780820191505090505b5081526020018581526020018481526020018381526020018281526020015f801b81526020015f73ffffffffffffffffffffffffffffffffffffffff168152505f808773ffffffffffffffffffffffffffffffffffffffff1673ffffffffffffffffffffffffffffffffffffffff1681526020019081526020015f205f820151815f015f6101000a81548173ffffffffffffffffffffffffffffffffffffffff021916908373ffffffffffffffffffffffffffffffffffffffff1602179055506020820151816001015560408201518160020155606082015181600301556080820151816004015560a0820151816005015560c08201518160060190805190602001906106a092919061242c565b5060e08201518160070190816106b69190612f78565b506101008201518160080190816106cd9190612f78565b506101208201518160090190816106e49190612f78565b5061014082015181600a0190816106fb9190612f78565b5061016082015181600b015561018082015181600c015f6101000a81548173ffffffffffffffffffffffffffffffffffffffff021916908373ffffffffffffffffffffffffffffffffffffffff1602179055509050508460015f60035481526020019081526020015f205f6101000a81548173ffffffffffffffffffffffffffffffffffffffff021916908373ffffffffffffffffffffffffffffffffffffffff16021790555060035f8154809291906107b490613074565b919050555060045f9054906101000a900473ffffffffffffffffffffffffffffffffffffffff1673ffffffffffffffffffffffffffffffffffffffff166108fc3490811502906040515f60405180830381858888f1935050505015801561081d573d5f803e3d5ffd5b505f73ffffffffffffffffffffffffffffffffffffffff168573ffffffffffffffffffffffffffffffffffffffff167f309bb360e8b69c23937ccc5fb01f9aeeead1c95a99604e175113ff82f2b1723a5f808973ffffffffffffffffffffffffffffffffffffffff1673ffffffffffffffffffffffffffffffffffffffff1681526020019081526020015f20600101545f6040516108bc9291906130f4565b60405180910390a35050505050565b600c81565b6001602052805f5260405f205f915054906101000a900473ffffffffffffffffffffffffffffffffffffffff1681565b5f805f8973ffffffffffffffffffffffffffffffffffffffff1673ffffffffffffffffffffffffffffffffffffffff1681526020019081526020015f206001015403610981576040517f08c379a000000000000000000000000000000000000000000000000000000000815260040161097890613165565b60405180910390fd5b5f8260405160200161099391906131bd565b604051602081830303815290604052805190602001209050604051806101a001604052808973ffffffffffffffffffffffffffffffffffffffff16815260200160035481526020015f81526020015f81526020015f8152602001600181526020015f67ffffffffffffffff811115610a0e57610a0d612551565b5b604051908082528060200260200182016040528015610a3c5781602001602082028036833780820191505090505b5081526020018881526020018781526020018681526020018581526020018281526020018373ffffffffffffffffffffffffffffffffffffffff168152505f803373ffffffffffffffffffffffffffffffffffffffff1673ffffffffffffffffffffffffffffffffffffffff1681526020019081526020015f205f820151815f015f6101000a81548173ffffffffffffffffffffffffffffffffffffffff021916908373ffffffffffffffffffffffffffffffffffffffff1602179055506020820151816001015560408201518160020155606082015181600301556080820151816004015560a0820151816005015560c0820151816006019080519060200190610b4892919061242c565b5060e0820151816007019081610b5e9190612f78565b50610100820151816008019081610b759190612f78565b50610120820151816009019081610b8c9190612f78565b5061014082015181600a019081610ba39190612f78565b5061016082015181600b015561018082015181600c015f6101000a81548173ffffffffffffffffffffffffffffffffffffffff021916908373ffffffffffffffffffffffffffffffffffffffff1602179055509050503360015f60035481526020019081526020015f205f6101000a81548173ffffffffffffffffffffffffffffffffffffffff021916908373ffffffffffffffffffffffffffffffffffffffff16021790555060035f815480929190610c5c90613074565b91905055505f808973ffffffffffffffffffffffffffffffffffffffff1673ffffffffffffffffffffffffffffffffffffffff1681526020019081526020015f206002015f815480929190610cb090613074565b91905055505f808973ffffffffffffffffffffffffffffffffffffffff1673ffffffffffffffffffffffffffffffffffffffff1681526020019081526020015f2060060133908060018154018082558091505060019003905f5260205f20015f9091909190916101000a81548173ffffffffffffffffffffffffffffffffffffffff021916908373ffffffffffffffffffffffffffffffffffffffff16021790555060045f9054906101000a900473ffffffffffffffffffffffffffffffffffffffff1673ffffffffffffffffffffffffffffffffffffffff166108fc3490811502906040515f60405180830381858888f19350505050158015610db6573d5f803e3d5ffd5b50610dc0336116b5565b8773ffffffffffffffffffffffffffffffffffffffff163373ffffffffffffffffffffffffffffffffffffffff167f309bb360e8b69c23937ccc5fb01f9aeeead1c95a99604e175113ff82f2b1723a5f803373ffffffffffffffffffffffffffffffffffffffff1673ffffffffffffffffffffffffffffffffffffffff1681526020019081526020015f20600101545f808d73ffffffffffffffffffffffffffffffffffffffff1673ffffffffffffffffffffffffffffffffffffffff1681526020019081526020015f2060010154604051610e9d929190612cef565b60405180910390a35050505050505050565b60035481565b60605f808373ffffffffffffffffffffffffffffffffffffffff1673ffffffffffffffffffffffffffffffffffffffff1681526020019081526020015f20600601805480602002602001604051908101604052809291908181526020018280548015610f7357602002820191905f5260205f20905b815f9054906101000a900473ffffffffffffffffffffffffffffffffffffffff1673ffffffffffffffffffffffffffffffffffffffff1681526020019060010190808311610f2a575b50505050509050919050565b5f805f805f806060806060805f805f808e73ffffffffffffffffffffffffffffffffffffffff1673ffffffffffffffffffffffffffffffffffffffff1681526020019081526020015f20604051806101a00160405290815f82015f9054906101000a900473ffffffffffffffffffffffffffffffffffffffff1673ffffffffffffffffffffffffffffffffffffffff1673ffffffffffffffffffffffffffffffffffffffff1681526020016001820154815260200160028201548152602001600382015481526020016004820154815260200160058201548152602001600682018054806020026020016040519081016040528092919081815260200182805480156110dd57602002820191905f5260205f20905b815f9054906101000a900473ffffffffffffffffffffffffffffffffffffffff1673ffffffffffffffffffffffffffffffffffffffff1681526020019060010190808311611094575b505050505081526020016007820180546110f690612dab565b80601f016020809104026020016040519081016040528092919081815260200182805461112290612dab565b801561116d5780601f106111445761010080835404028352916020019161116d565b820191905f5260205f20905b81548152906001019060200180831161115057829003601f168201915b5050505050815260200160088201805461118690612dab565b80601f01602080910402602001604051908101604052809291908181526020018280546111b290612dab565b80156111fd5780601f106111d4576101008083540402835291602001916111fd565b820191905f5260205f20905b8154815290600101906020018083116111e057829003601f168201915b5050505050815260200160098201805461121690612dab565b80601f016020809104026020016040519081016040528092919081815260200182805461124290612dab565b801561128d5780601f106112645761010080835404028352916020019161128d565b820191905f5260205f20905b81548152906001019060200180831161127057829003601f168201915b50505050508152602001600a820180546112a690612dab565b80601f01602080910402602001604051908101604052809291908181526020018280546112d290612dab565b801561131d5780601f106112f45761010080835404028352916020019161131d565b820191905f5260205f20905b81548152906001019060200180831161130057829003601f168201915b50505050508152602001600b8201548152602001600c82015f9054906101000a900473ffffffffffffffffffffffffffffffffffffffff1673ffffffffffffffffffffffffffffffffffffffff1673ffffffffffffffffffffffffffffffffffffffff16815250509050805f015181602001518260400151836060015184608001518560a001518660e001518761010001518861012001518961014001518a61018001519b509b509b509b509b509b509b509b509b509b509b505091939597999b90929496989a50565b68015af1d78b58c4000081565b5f60015f8381526020019081526020015f205f9054906101000a900473ffffffffffffffffffffffffffffffffffffffff169050919050565b5f60018260ff16101580156114495750600c60ff168260ff1611155b611488576040517f08c379a000000000000000000000000000000000000000000000000000000000815260040161147f9061321d565b60405180910390fd5b60025f8360ff1660ff1681526020019081526020015f20549050919050565b5f803373ffffffffffffffffffffffffffffffffffffffff1673ffffffffffffffffffffffffffffffffffffffff1681526020019081526020015f20600501548160ff161161152b576040517f08c379a0000000000000000000000000000000000000000000000000000000008152600401611522906132ab565b60405180910390fd5b600c60ff168160ff161115611575576040517f08c379a000000000000000000000000000000000000000000000000000000000815260040161156c9061321d565b60405180910390fd5b5f60025f8360ff1660ff1681526020019081526020015f205490508160ff165f803373ffffffffffffffffffffffffffffffffffffffff1673ffffffffffffffffffffffffffffffffffffffff1681526020019081526020015f206005018190555060045f9054906101000a900473ffffffffffffffffffffffffffffffffffffffff1673ffffffffffffffffffffffffffffffffffffffff166108fc3490811502906040515f60405180830381858888f1935050505015801561163b573d5f803e3d5ffd5b503373ffffffffffffffffffffffffffffffffffffffff167f3aec384b4ee3b6f87982e6d06696cbcc9171f619053d3a6398e704c734ebac1f83836040516116849291906132c9565b60405180910390a25050565b60045f9054906101000a900473ffffffffffffffffffffffffffffffffffffffff1681565b5f805f8373ffffffffffffffffffffffffffffffffffffffff1673ffffffffffffffffffffffffffffffffffffffff1681526020019081526020015f205f015f9054906101000a900473ffffffffffffffffffffffffffffffffffffffff1690505f73ffffffffffffffffffffffffffffffffffffffff168173ffffffffffffffffffffffffffffffffffffffff160361174f5750611ac0565b60025f808373ffffffffffffffffffffffffffffffffffffffff1673ffffffffffffffffffffffffffffffffffffffff1681526020019081526020015f206002015410611a69575f60025f600160ff1681526020019081526020015f20549050804710156117f2576040517f08c379a00000000000000000000000000000000000000000000000000000000081526004016117e99061333a565b60405180910390fd5b805f808473ffffffffffffffffffffffffffffffffffffffff1673ffffffffffffffffffffffffffffffffffffffff1681526020019081526020015f206004015f8282546118409190613358565b925050819055505f8273ffffffffffffffffffffffffffffffffffffffff168260405161186c906133b8565b5f6040518083038185875af1925050503d805f81146118a6576040519150601f19603f3d011682016040523d82523d5f602084013e6118ab565b606091505b50509050806118ef576040517f08c379a00000000000000000000000000000000000000000000000000000000081526004016118e690613416565b60405180910390fd5b8273ffffffffffffffffffffffffffffffffffffffff167f92d81ab7e787d9a43bbb8f8ca7f0b2708da03b86d5aea53d5d20656ff8dad1ee83604051611935919061294e565b60405180910390a25f808473ffffffffffffffffffffffffffffffffffffffff1673ffffffffffffffffffffffffffffffffffffffff1681526020019081526020015f206003015f81548092919061198c90613074565b91905055508273ffffffffffffffffffffffffffffffffffffffff167f18c00b25130b4512b396a52c89756cb9a1177c6002fe34cbc071f88cf90812a15f808673ffffffffffffffffffffffffffffffffffffffff1673ffffffffffffffffffffffffffffffffffffffff1681526020019081526020015f2060030154604051611a16919061294e565b60405180910390a25f805f8573ffffffffffffffffffffffffffffffffffffffff1673ffffffffffffffffffffffffffffffffffffffff1681526020019081526020015f20600201819055505050611abe565b5f808273ffffffffffffffffffffffffffffffffffffffff1673ffffffffffffffffffffffffffffffffffffffff1681526020019081526020015f206002015f815480929190611ab890613074565b91905055505b505b50565b674563918244f4000081565b5f602052805f5260405f205f91509050805f015f9054906101000a900473ffffffffffffffffffffffffffffffffffffffff1690806001015490806002015490806003015490806004015490806005015490806007018054611b3090612dab565b80601f0160208091040260200160405190810160405280929190818152602001828054611b5c90612dab565b8015611ba75780601f10611b7e57610100808354040283529160200191611ba7565b820191905f5260205f20905b815481529060010190602001808311611b8a57829003601f168201915b505050505090806008018054611bbc90612dab565b80601f0160208091040260200160405190810160405280929190818152602001828054611be890612dab565b8015611c335780601f10611c0a57610100808354040283529160200191611c33565b820191905f5260205f20905b815481529060010190602001808311611c1657829003601f168201915b505050505090806009018054611c4890612dab565b80601f0160208091040260200160405190810160405280929190818152602001828054611c7490612dab565b8015611cbf5780601f10611c9657610100808354040283529160200191611cbf565b820191905f5260205f20905b815481529060010190602001808311611ca257829003601f168201915b50505050509080600a018054611cd490612dab565b80601f0160208091040260200160405190810160405280929190818152602001828054611d0090612dab565b8015611d4b5780601f10611d2257610100808354040283529160200191611d4b565b820191905f5260205f20905b815481529060010190602001808311611d2e57829003601f168201915b50505050509080600b01549080600c015f9054906101000a900473ffffffffffffffffffffffffffffffffffffffff1690508c565b60605f805f8473ffffffffffffffffffffffffffffffffffffffff1673ffffffffffffffffffffffffffffffffffffffff1681526020019081526020015f20600101549050611dce8161221b565b604051602001611dde919061347e565b604051602081830303815290604052915050919050565b5f805f805f8573ffffffffffffffffffffffffffffffffffffffff1673ffffffffffffffffffffffffffffffffffffffff1681526020019081526020015f20604051806101a00160405290815f82015f9054906101000a900473ffffffffffffffffffffffffffffffffffffffff1673ffffffffffffffffffffffffffffffffffffffff1673ffffffffffffffffffffffffffffffffffffffff168152602001600182015481526020016002820154815260200160038201548152602001600482015481526020016005820154815260200160068201805480602002602001604051908101604052809291908181526020018280548015611f4857602002820191905f5260205f20905b815f9054906101000a900473ffffffffffffffffffffffffffffffffffffffff1673ffffffffffffffffffffffffffffffffffffffff1681526020019060010190808311611eff575b50505050508152602001600782018054611f6190612dab565b80601f0160208091040260200160405190810160405280929190818152602001828054611f8d90612dab565b8015611fd85780601f10611faf57610100808354040283529160200191611fd8565b820191905f5260205f20905b815481529060010190602001808311611fbb57829003601f168201915b50505050508152602001600882018054611ff190612dab565b80601f016020809104026020016040519081016040528092919081815260200182805461201d90612dab565b80156120685780601f1061203f57610100808354040283529160200191612068565b820191905f5260205f20905b81548152906001019060200180831161204b57829003601f168201915b5050505050815260200160098201805461208190612dab565b80601f01602080910402602001604051908101604052809291908181526020018280546120ad90612dab565b80156120f85780601f106120cf576101008083540402835291602001916120f8565b820191905f5260205f20905b8154815290600101906020018083116120db57829003601f168201915b50505050508152602001600a8201805461211190612dab565b80601f016020809104026020016040519081016040528092919081815260200182805461213d90612dab565b80156121885780601f1061215f57610100808354040283529160200191612188565b820191905f5260205f20905b81548152906001019060200180831161216b57829003601f168201915b50505050508152602001600b8201548152602001600c82015f9054906101000a900473ffffffffffffffffffffffffffffffffffffffff1673ffffffffffffffffffffffffffffffffffffffff1673ffffffffffffffffffffffffffffffffffffffff16815250509050806060015181608001519250925050915091565b6002602052805f5260405f205f915090505481565b60605f8203612261576040518060400160405280600181526020017f30000000000000000000000000000000000000000000000000000000000000008152509050612427565b5f604e90505f8167ffffffffffffffff81111561228157612280612551565b5b6040519080825280601f01601f1916602001820160405280156122b35781602001600182028036833780820191505090505b5090505f5b5f8514612341575f600a866122cd91906134cc565b9050600a866122dc91906134fc565b95508060306122eb9190613358565b60f81b8383806122fa90613074565b94508151811061230d5761230c61352c565b5b60200101907effffffffffffffffffffffffffffffffffffffffffffffffffffffffffffff191690815f1a905350506122b8565b5f8167ffffffffffffffff81111561235c5761235b612551565b5b6040519080825280601f01601f19166020018201604052801561238e5781602001600182028036833780820191505090505b5090505f5b8281101561241e5783600182856123aa9190613559565b6123b49190613559565b815181106123c5576123c461352c565b5b602001015160f81c60f81b8282815181106123e3576123e261352c565b5b60200101907effffffffffffffffffffffffffffffffffffffffffffffffffffffffffffff191690815f1a9053508080600101915050612393565b50809450505050505b919050565b828054828255905f5260205f209081019282156124a2579160200282015b828111156124a1578251825f6101000a81548173ffffffffffffffffffffffffffffffffffffffff021916908373ffffffffffffffffffffffffffffffffffffffff1602179055509160200191906001019061244a565b5b5090506124af91906124b3565b5090565b5b808211156124ca575f815f9055506001016124b4565b5090565b5f604051905090565b5f80fd5b5f80fd5b5f73ffffffffffffffffffffffffffffffffffffffff82169050919050565b5f612508826124df565b9050919050565b612518816124fe565b8114612522575f80fd5b50565b5f813590506125338161250f565b92915050565b5f80fd5b5f80fd5b5f601f19601f8301169050919050565b7f4e487b71000000000000000000000000000000000000000000000000000000005f52604160045260245ffd5b61258782612541565b810181811067ffffffffffffffff821117156125a6576125a5612551565b5b80604052505050565b5f6125b86124ce565b90506125c4828261257e565b919050565b5f67ffffffffffffffff8211156125e3576125e2612551565b5b6125ec82612541565b9050602081019050919050565b828183375f83830152505050565b5f612619612614846125c9565b6125af565b9050828152602081018484840111156126355761263461253d565b5b6126408482856125f9565b509392505050565b5f82601f83011261265c5761265b612539565b5b813561266c848260208601612607565b91505092915050565b5f805f805f60a0868803121561268e5761268d6124d7565b5b5f61269b88828901612525565b955050602086013567ffffffffffffffff8111156126bc576126bb6124db565b5b6126c888828901612648565b945050604086013567ffffffffffffffff8111156126e9576126e86124db565b5b6126f588828901612648565b935050606086013567ffffffffffffffff811115612716576127156124db565b5b61272288828901612648565b925050608086013567ffffffffffffffff811115612743576127426124db565b5b61274f88828901612648565b9150509295509295909350565b5f60ff82169050919050565b6127718161275c565b82525050565b5f60208201905061278a5f830184612768565b92915050565b5f819050919050565b6127a281612790565b81146127ac575f80fd5b50565b5f813590506127bd81612799565b92915050565b5f602082840312156127d8576127d76124d7565b5b5f6127e5848285016127af565b91505092915050565b6127f7816124fe565b82525050565b5f6020820190506128105f8301846127ee565b92915050565b5f805f805f805f60e0888a031215612831576128306124d7565b5b5f61283e8a828b01612525565b975050602088013567ffffffffffffffff81111561285f5761285e6124db565b5b61286b8a828b01612648565b965050604088013567ffffffffffffffff81111561288c5761288b6124db565b5b6128988a828b01612648565b955050606088013567ffffffffffffffff8111156128b9576128b86124db565b5b6128c58a828b01612648565b945050608088013567ffffffffffffffff8111156128e6576128e56124db565b5b6128f28a828b01612648565b93505060a088013567ffffffffffffffff811115612913576129126124db565b5b61291f8a828b01612648565b92505060c06129308a828b01612525565b91505092959891949750929550565b61294881612790565b82525050565b5f6020820190506129615f83018461293f565b92915050565b5f6020828403121561297c5761297b6124d7565b5b5f61298984828501612525565b91505092915050565b5f81519050919050565b5f82825260208201905092915050565b5f819050602082019050919050565b6129c4816124fe565b82525050565b5f6129d583836129bb565b60208301905092915050565b5f602082019050919050565b5f6129f782612992565b612a01818561299c565b9350612a0c836129ac565b805f5b83811015612a3c578151612a2388826129ca565b9750612a2e836129e1565b925050600181019050612a0f565b5085935050505092915050565b5f6020820190508181035f830152612a6181846129ed565b905092915050565b5f81519050919050565b5f82825260208201905092915050565b8281835e5f83830152505050565b5f612a9b82612a69565b612aa58185612a73565b9350612ab5818560208601612a83565b612abe81612541565b840191505092915050565b5f61016082019050612add5f83018e6127ee565b612aea602083018d61293f565b612af7604083018c61293f565b612b04606083018b61293f565b612b11608083018a61293f565b612b1e60a083018961293f565b81810360c0830152612b308188612a91565b905081810360e0830152612b448187612a91565b9050818103610100830152612b598186612a91565b9050818103610120830152612b6e8185612a91565b9050612b7e6101408301846127ee565b9c9b505050505050505050505050565b612b978161275c565b8114612ba1575f80fd5b50565b5f81359050612bb281612b8e565b92915050565b5f60208284031215612bcd57612bcc6124d7565b5b5f612bda84828501612ba4565b91505092915050565b5f819050919050565b612bf581612be3565b82525050565b5f61018082019050612c0f5f83018f6127ee565b612c1c602083018e61293f565b612c29604083018d61293f565b612c36606083018c61293f565b612c43608083018b61293f565b612c5060a083018a61293f565b81810360c0830152612c628189612a91565b905081810360e0830152612c768188612a91565b9050818103610100830152612c8b8187612a91565b9050818103610120830152612ca08186612a91565b9050612cb0610140830185612bec565b612cbe6101608301846127ee565b9d9c50505050505050505050505050565b5f6020820190508181035f830152612ce78184612a91565b905092915050565b5f604082019050612d025f83018561293f565b612d0f602083018461293f565b9392505050565b7f55706c696e6520616c72656164792072656769737465726564000000000000005f82015250565b5f612d4a601983612a73565b9150612d5582612d16565b602082019050919050565b5f6020820190508181035f830152612d7781612d3e565b9050919050565b7f4e487b71000000000000000000000000000000000000000000000000000000005f52602260045260245ffd5b5f6002820490506001821680612dc257607f821691505b602082108103612dd557612dd4612d7e565b5b50919050565b5f819050815f5260205f209050919050565b5f6020601f8301049050919050565b5f82821b905092915050565b5f60088302612e377fffffffffffffffffffffffffffffffffffffffffffffffffffffffffffffffff82612dfc565b612e418683612dfc565b95508019841693508086168417925050509392505050565b5f819050919050565b5f612e7c612e77612e7284612790565b612e59565b612790565b9050919050565b5f819050919050565b612e9583612e62565b612ea9612ea182612e83565b848454612e08565b825550505050565b5f90565b612ebd612eb1565b612ec8818484612e8c565b505050565b5b81811015612eeb57612ee05f82612eb5565b600181019050612ece565b5050565b601f821115612f3057612f0181612ddb565b612f0a84612ded565b81016020851015612f19578190505b612f2d612f2585612ded565b830182612ecd565b50505b505050565b5f82821c905092915050565b5f612f505f1984600802612f35565b1980831691505092915050565b5f612f688383612f41565b9150826002028217905092915050565b612f8182612a69565b67ffffffffffffffff811115612f9a57612f99612551565b5b612fa48254612dab565b612faf828285612eef565b5f60209050601f831160018114612fe0575f8415612fce578287015190505b612fd88582612f5d565b86555061303f565b601f198416612fee86612ddb565b5f5b8281101561301557848901518255600182019150602085019450602081019050612ff0565b86831015613032578489015161302e601f891682612f41565b8355505b6001600288020188555050505b505050505050565b7f4e487b71000000000000000000000000000000000000000000000000000000005f52601160045260245ffd5b5f61307e82612790565b91507fffffffffffffffffffffffffffffffffffffffffffffffffffffffffffffffff82036130b0576130af613047565b5b600182019050919050565b5f819050919050565b5f6130de6130d96130d4846130bb565b612e59565b612790565b9050919050565b6130ee816130c4565b82525050565b5f6040820190506131075f83018561293f565b61311460208301846130e5565b9392505050565b7f55706c696e6520646f6573206e6f7420657869737400000000000000000000005f82015250565b5f61314f601583612a73565b915061315a8261311b565b602082019050919050565b5f6020820190508181035f83015261317c81613143565b9050919050565b5f81905092915050565b5f61319782612a69565b6131a18185613183565b93506131b1818560208601612a83565b80840191505092915050565b5f6131c8828461318d565b915081905092915050565b7f496e76616c6964206c6576656c000000000000000000000000000000000000005f82015250565b5f613207600d83612a73565b9150613212826131d3565b602082019050919050565b5f6020820190508181035f830152613234816131fb565b9050919050565b7f43616e6e6f7420646f776e6772616465206f72207374617920617420746865205f8201527f73616d65206c6576656c00000000000000000000000000000000000000000000602082015250565b5f613295602a83612a73565b91506132a08261323b565b604082019050919050565b5f6020820190508181035f8301526132c281613289565b9050919050565b5f6040820190506132dc5f830185612768565b6132e9602083018461293f565b9392505050565b7f496e73756666696369656e7420636f6e74726163742062616c616e63650000005f82015250565b5f613324601d83612a73565b915061332f826132f0565b602082019050919050565b5f6020820190508181035f83015261335181613318565b9050919050565b5f61336282612790565b915061336d83612790565b925082820190508082111561338557613384613047565b5b92915050565b5f81905092915050565b50565b5f6133a35f8361338b565b91506133ae82613395565b5f82019050919050565b5f6133c282613398565b9150819050919050565b7f5472616e73666572206661696c656400000000000000000000000000000000005f82015250565b5f613400600f83612a73565b915061340b826133cc565b602082019050919050565b5f6020820190508181035f83015261342d816133f4565b9050919050565b7f68747470733a2f2f6578616d706c652e636f6d2f726566657272616c2f0000005f82015250565b5f613468601d83613183565b915061347382613434565b601d82019050919050565b5f6134888261345c565b9150613494828461318d565b915081905092915050565b7f4e487b71000000000000000000000000000000000000000000000000000000005f52601260045260245ffd5b5f6134d682612790565b91506134e183612790565b9250826134f1576134f061349f565b5b828206905092915050565b5f61350682612790565b915061351183612790565b9250826135215761352061349f565b5b828204905092915050565b7f4e487b71000000000000000000000000000000000000000000000000000000005f52603260045260245ffd5b5f61356382612790565b915061356e83612790565b925082820390508181111561358657613585613047565b5b9291505056fea2646970667358221220c3be6543d3a275d8eef55e2dc2606c89dede6c748ee82a0a2073da76d5006abe64736f6c634300081a0033",
					"opcodes": "PUSH1 0x80 PUSH1 0x40 MSTORE PUSH1 0x2 PUSH1 0x3 SSTORE CALLVALUE DUP1 ISZERO PUSH2 0x14 JUMPI PUSH0 DUP1 REVERT JUMPDEST POP CALLER PUSH1 0x4 PUSH0 PUSH2 0x100 EXP DUP2 SLOAD DUP2 PUSH20 0xFFFFFFFFFFFFFFFFFFFFFFFFFFFFFFFFFFFFFFFF MUL NOT AND SWAP1 DUP4 PUSH20 0xFFFFFFFFFFFFFFFFFFFFFFFFFFFFFFFFFFFFFFFF AND MUL OR SWAP1 SSTORE POP PUSH1 0x40 MLOAD DUP1 PUSH2 0x1A0 ADD PUSH1 0x40 MSTORE DUP1 PUSH0 PUSH20 0xFFFFFFFFFFFFFFFFFFFFFFFFFFFFFFFFFFFFFFFF AND DUP2 MSTORE PUSH1 0x20 ADD PUSH1 0x1 DUP2 MSTORE PUSH1 0x20 ADD PUSH0 DUP2 MSTORE PUSH1 0x20 ADD PUSH0 DUP2 MSTORE PUSH1 0x20 ADD PUSH0 DUP2 MSTORE PUSH1 0x20 ADD PUSH1 0x1 DUP2 MSTORE PUSH1 0x20 ADD PUSH0 PUSH8 0xFFFFFFFFFFFFFFFF DUP2 GT ISZERO PUSH2 0xB7 JUMPI PUSH2 0xB6 PUSH2 0x534 JUMP JUMPDEST JUMPDEST PUSH1 0x40 MLOAD SWAP1 DUP1 DUP3 MSTORE DUP1 PUSH1 0x20 MUL PUSH1 0x20 ADD DUP3 ADD PUSH1 0x40 MSTORE DUP1 ISZERO PUSH2 0xE5 JUMPI DUP2 PUSH1 0x20 ADD PUSH1 0x20 DUP3 MUL DUP1 CALLDATASIZE DUP4 CALLDATACOPY DUP1 DUP3 ADD SWAP2 POP POP SWAP1 POP JUMPDEST POP DUP2 MSTORE PUSH1 0x20 ADD PUSH1 0x40 MLOAD DUP1 PUSH1 0x20 ADD PUSH1 0x40 MSTORE DUP1 PUSH0 DUP2 MSTORE POP DUP2 MSTORE PUSH1 0x20 ADD PUSH1 0x40 MLOAD DUP1 PUSH1 0x20 ADD PUSH1 0x40 MSTORE DUP1 PUSH0 DUP2 MSTORE POP DUP2 MSTORE PUSH1 0x20 ADD PUSH1 0x40 MLOAD DUP1 PUSH1 0x20 ADD PUSH1 0x40 MSTORE DUP1 PUSH0 DUP2 MSTORE POP DUP2 MSTORE PUSH1 0x20 ADD PUSH1 0x40 MLOAD DUP1 PUSH1 0x20 ADD PUSH1 0x40 MSTORE DUP1 PUSH0 DUP2 MSTORE POP DUP2 MSTORE PUSH1 0x20 ADD PUSH0 DUP1 SHL DUP2 MSTORE PUSH1 0x20 ADD PUSH0 PUSH20 0xFFFFFFFFFFFFFFFFFFFFFFFFFFFFFFFFFFFFFFFF AND DUP2 MSTORE POP PUSH0 DUP1 PUSH1 0x4 PUSH0 SWAP1 SLOAD SWAP1 PUSH2 0x100 EXP SWAP1 DIV PUSH20 0xFFFFFFFFFFFFFFFFFFFFFFFFFFFFFFFFFFFFFFFF AND PUSH20 0xFFFFFFFFFFFFFFFFFFFFFFFFFFFFFFFFFFFFFFFF AND PUSH20 0xFFFFFFFFFFFFFFFFFFFFFFFFFFFFFFFFFFFFFFFF AND DUP2 MSTORE PUSH1 0x20 ADD SWAP1 DUP2 MSTORE PUSH1 0x20 ADD PUSH0 KECCAK256 PUSH0 DUP3 ADD MLOAD DUP2 PUSH0 ADD PUSH0 PUSH2 0x100 EXP DUP2 SLOAD DUP2 PUSH20 0xFFFFFFFFFFFFFFFFFFFFFFFFFFFFFFFFFFFFFFFF MUL NOT AND SWAP1 DUP4 PUSH20 0xFFFFFFFFFFFFFFFFFFFFFFFFFFFFFFFFFFFFFFFF AND MUL OR SWAP1 SSTORE POP PUSH1 0x20 DUP3 ADD MLOAD DUP2 PUSH1 0x1 ADD SSTORE PUSH1 0x40 DUP3 ADD MLOAD DUP2 PUSH1 0x2 ADD SSTORE PUSH1 0x60 DUP3 ADD MLOAD DUP2 PUSH1 0x3 ADD SSTORE PUSH1 0x80 DUP3 ADD MLOAD DUP2 PUSH1 0x4 ADD SSTORE PUSH1 0xA0 DUP3 ADD MLOAD DUP2 PUSH1 0x5 ADD SSTORE PUSH1 0xC0 DUP3 ADD MLOAD DUP2 PUSH1 0x6 ADD SWAP1 DUP1 MLOAD SWAP1 PUSH1 0x20 ADD SWAP1 PUSH2 0x24C SWAP3 SWAP2 SWAP1 PUSH2 0x492 JUMP JUMPDEST POP PUSH1 0xE0 DUP3 ADD MLOAD DUP2 PUSH1 0x7 ADD SWAP1 DUP2 PUSH2 0x262 SWAP2 SWAP1 PUSH2 0x76E JUMP JUMPDEST POP PUSH2 0x100 DUP3 ADD MLOAD DUP2 PUSH1 0x8 ADD SWAP1 DUP2 PUSH2 0x279 SWAP2 SWAP1 PUSH2 0x76E JUMP JUMPDEST POP PUSH2 0x120 DUP3 ADD MLOAD DUP2 PUSH1 0x9 ADD SWAP1 DUP2 PUSH2 0x290 SWAP2 SWAP1 PUSH2 0x76E JUMP JUMPDEST POP PUSH2 0x140 DUP3 ADD MLOAD DUP2 PUSH1 0xA ADD SWAP1 DUP2 PUSH2 0x2A7 SWAP2 SWAP1 PUSH2 0x76E JUMP JUMPDEST POP PUSH2 0x160 DUP3 ADD MLOAD DUP2 PUSH1 0xB ADD SSTORE PUSH2 0x180 DUP3 ADD MLOAD DUP2 PUSH1 0xC ADD PUSH0 PUSH2 0x100 EXP DUP2 SLOAD DUP2 PUSH20 0xFFFFFFFFFFFFFFFFFFFFFFFFFFFFFFFFFFFFFFFF MUL NOT AND SWAP1 DUP4 PUSH20 0xFFFFFFFFFFFFFFFFFFFFFFFFFFFFFFFFFFFFFFFF AND MUL OR SWAP1 SSTORE POP SWAP1 POP POP PUSH1 0x4 PUSH0 SWAP1 SLOAD SWAP1 PUSH2 0x100 EXP SWAP1 DIV PUSH20 0xFFFFFFFFFFFFFFFFFFFFFFFFFFFFFFFFFFFFFFFF AND PUSH1 0x1 PUSH0 PUSH1 0x1 DUP2 MSTORE PUSH1 0x20 ADD SWAP1 DUP2 MSTORE PUSH1 0x20 ADD PUSH0 KECCAK256 PUSH0 PUSH2 0x100 EXP DUP2 SLOAD DUP2 PUSH20 0xFFFFFFFFFFFFFFFFFFFFFFFFFFFFFFFFFFFFFFFF MUL NOT AND SWAP1 DUP4 PUSH20 0xFFFFFFFFFFFFFFFFFFFFFFFFFFFFFFFFFFFFFFFF AND MUL OR SWAP1 SSTORE POP PUSH8 0x4563918244F40000 PUSH1 0x2 PUSH0 PUSH1 0x1 PUSH1 0xFF AND DUP2 MSTORE PUSH1 0x20 ADD SWAP1 DUP2 MSTORE PUSH1 0x20 ADD PUSH0 KECCAK256 DUP2 SWAP1 SSTORE POP PUSH0 PUSH1 0x2 SWAP1 POP JUMPDEST PUSH1 0x8 DUP2 PUSH1 0xFF AND GT PUSH2 0x3FE JUMPI PUSH1 0x2 DUP1 PUSH0 PUSH1 0x1 DUP5 PUSH2 0x3B2 SWAP2 SWAP1 PUSH2 0x876 JUMP JUMPDEST PUSH1 0xFF AND PUSH1 0xFF AND DUP2 MSTORE PUSH1 0x20 ADD SWAP1 DUP2 MSTORE PUSH1 0x20 ADD PUSH0 KECCAK256 SLOAD PUSH2 0x3D0 SWAP2 SWAP1 PUSH2 0x8AA JUMP JUMPDEST PUSH1 0x2 PUSH0 DUP4 PUSH1 0xFF AND PUSH1 0xFF AND DUP2 MSTORE PUSH1 0x20 ADD SWAP1 DUP2 MSTORE PUSH1 0x20 ADD PUSH0 KECCAK256 DUP2 SWAP1 SSTORE POP DUP1 DUP1 PUSH2 0x3F6 SWAP1 PUSH2 0x8EB JUMP JUMPDEST SWAP2 POP POP PUSH2 0x396 JUMP JUMPDEST POP PUSH9 0x43C33C193756480000 PUSH1 0x2 PUSH0 PUSH1 0x9 PUSH1 0xFF AND DUP2 MSTORE PUSH1 0x20 ADD SWAP1 DUP2 MSTORE PUSH1 0x20 ADD PUSH0 KECCAK256 DUP2 SWAP1 SSTORE POP PUSH9 0x878678326EAC900000 PUSH1 0x2 PUSH0 PUSH1 0xA PUSH1 0xFF AND DUP2 MSTORE PUSH1 0x20 ADD SWAP1 DUP2 MSTORE PUSH1 0x20 ADD PUSH0 KECCAK256 DUP2 SWAP1 SSTORE POP PUSH10 0x10F0CF064DD59200000 PUSH1 0x2 PUSH0 PUSH1 0xB PUSH1 0xFF AND DUP2 MSTORE PUSH1 0x20 ADD SWAP1 DUP2 MSTORE PUSH1 0x20 ADD PUSH0 KECCAK256 DUP2 SWAP1 SSTORE POP PUSH10 0x218AE196B8D4F300000 PUSH1 0x2 PUSH0 PUSH1 0xC PUSH1 0xFF AND DUP2 MSTORE PUSH1 0x20 ADD SWAP1 DUP2 MSTORE PUSH1 0x20 ADD PUSH0 KECCAK256 DUP2 SWAP1 SSTORE POP PUSH2 0x913 JUMP JUMPDEST DUP3 DUP1 SLOAD DUP3 DUP3 SSTORE SWAP1 PUSH0 MSTORE PUSH1 0x20 PUSH0 KECCAK256 SWAP1 DUP2 ADD SWAP3 DUP3 ISZERO PUSH2 0x508 JUMPI SWAP2 PUSH1 0x20 MUL DUP3 ADD JUMPDEST DUP3 DUP2 GT ISZERO PUSH2 0x507 JUMPI DUP3 MLOAD DUP3 PUSH0 PUSH2 0x100 EXP DUP2 SLOAD DUP2 PUSH20 0xFFFFFFFFFFFFFFFFFFFFFFFFFFFFFFFFFFFFFFFF MUL NOT AND SWAP1 DUP4 PUSH20 0xFFFFFFFFFFFFFFFFFFFFFFFFFFFFFFFFFFFFFFFF AND MUL OR SWAP1 SSTORE POP SWAP2 PUSH1 0x20 ADD SWAP2 SWAP1 PUSH1 0x1 ADD SWAP1 PUSH2 0x4B0 JUMP JUMPDEST JUMPDEST POP SWAP1 POP PUSH2 0x515 SWAP2 SWAP1 PUSH2 0x519 JUMP JUMPDEST POP SWAP1 JUMP JUMPDEST JUMPDEST DUP1 DUP3 GT ISZERO PUSH2 0x530 JUMPI PUSH0 DUP2 PUSH0 SWAP1 SSTORE POP PUSH1 0x1 ADD PUSH2 0x51A JUMP JUMPDEST POP SWAP1 JUMP JUMPDEST PUSH32 0x4E487B7100000000000000000000000000000000000000000000000000000000 PUSH0 MSTORE PUSH1 0x41 PUSH1 0x4 MSTORE PUSH1 0x24 PUSH0 REVERT JUMPDEST PUSH0 DUP2 MLOAD SWAP1 POP SWAP2 SWAP1 POP JUMP JUMPDEST PUSH32 0x4E487B7100000000000000000000000000000000000000000000000000000000 PUSH0 MSTORE PUSH1 0x22 PUSH1 0x4 MSTORE PUSH1 0x24 PUSH0 REVERT JUMPDEST PUSH0 PUSH1 0x2 DUP3 DIV SWAP1 POP PUSH1 0x1 DUP3 AND DUP1 PUSH2 0x5AF JUMPI PUSH1 0x7F DUP3 AND SWAP2 POP JUMPDEST PUSH1 0x20 DUP3 LT DUP2 SUB PUSH2 0x5C2 JUMPI PUSH2 0x5C1 PUSH2 0x56B JUMP JUMPDEST JUMPDEST POP SWAP2 SWAP1 POP JUMP JUMPDEST PUSH0 DUP2 SWAP1 POP DUP2 PUSH0 MSTORE PUSH1 0x20 PUSH0 KECCAK256 SWAP1 POP SWAP2 SWAP1 POP JUMP JUMPDEST PUSH0 PUSH1 0x20 PUSH1 0x1F DUP4 ADD DIV SWAP1 POP SWAP2 SWAP1 POP JUMP JUMPDEST PUSH0 DUP3 DUP3 SHL SWAP1 POP SWAP3 SWAP2 POP POP JUMP JUMPDEST PUSH0 PUSH1 0x8 DUP4 MUL PUSH2 0x624 PUSH32 0xFFFFFFFFFFFFFFFFFFFFFFFFFFFFFFFFFFFFFFFFFFFFFFFFFFFFFFFFFFFFFFFF DUP3 PUSH2 0x5E9 JUMP JUMPDEST PUSH2 0x62E DUP7 DUP4 PUSH2 0x5E9 JUMP JUMPDEST SWAP6 POP DUP1 NOT DUP5 AND SWAP4 POP DUP1 DUP7 AND DUP5 OR SWAP3 POP POP POP SWAP4 SWAP3 POP POP POP JUMP JUMPDEST PUSH0 DUP2 SWAP1 POP SWAP2 SWAP1 POP JUMP JUMPDEST PUSH0 DUP2 SWAP1 POP SWAP2 SWAP1 POP JUMP JUMPDEST PUSH0 PUSH2 0x672 PUSH2 0x66D PUSH2 0x668 DUP5 PUSH2 0x646 JUMP JUMPDEST PUSH2 0x64F JUMP JUMPDEST PUSH2 0x646 JUMP JUMPDEST SWAP1 POP SWAP2 SWAP1 POP JUMP JUMPDEST PUSH0 DUP2 SWAP1 POP SWAP2 SWAP1 POP JUMP JUMPDEST PUSH2 0x68B DUP4 PUSH2 0x658 JUMP JUMPDEST PUSH2 0x69F PUSH2 0x697 DUP3 PUSH2 0x679 JUMP JUMPDEST DUP5 DUP5 SLOAD PUSH2 0x5F5 JUMP JUMPDEST DUP3 SSTORE POP POP POP POP JUMP JUMPDEST PUSH0 SWAP1 JUMP JUMPDEST PUSH2 0x6B3 PUSH2 0x6A7 JUMP JUMPDEST PUSH2 0x6BE DUP2 DUP5 DUP5 PUSH2 0x682 JUMP JUMPDEST POP POP POP JUMP JUMPDEST JUMPDEST DUP2 DUP2 LT ISZERO PUSH2 0x6E1 JUMPI PUSH2 0x6D6 PUSH0 DUP3 PUSH2 0x6AB JUMP JUMPDEST PUSH1 0x1 DUP2 ADD SWAP1 POP PUSH2 0x6C4 JUMP JUMPDEST POP POP JUMP JUMPDEST PUSH1 0x1F DUP3 GT ISZERO PUSH2 0x726 JUMPI PUSH2 0x6F7 DUP2 PUSH2 0x5C8 JUMP JUMPDEST PUSH2 0x700 DUP5 PUSH2 0x5DA JUMP JUMPDEST DUP2 ADD PUSH1 0x20 DUP6 LT ISZERO PUSH2 0x70F JUMPI DUP2 SWAP1 POP JUMPDEST PUSH2 0x723 PUSH2 0x71B DUP6 PUSH2 0x5DA JUMP JUMPDEST DUP4 ADD DUP3 PUSH2 0x6C3 JUMP JUMPDEST POP POP JUMPDEST POP POP POP JUMP JUMPDEST PUSH0 DUP3 DUP3 SHR SWAP1 POP SWAP3 SWAP2 POP POP JUMP JUMPDEST PUSH0 PUSH2 0x746 PUSH0 NOT DUP5 PUSH1 0x8 MUL PUSH2 0x72B JUMP JUMPDEST NOT DUP1 DUP4 AND SWAP2 POP POP SWAP3 SWAP2 POP POP JUMP JUMPDEST PUSH0 PUSH2 0x75E DUP4 DUP4 PUSH2 0x737 JUMP JUMPDEST SWAP2 POP DUP3 PUSH1 0x2 MUL DUP3 OR SWAP1 POP SWAP3 SWAP2 POP POP JUMP JUMPDEST PUSH2 0x777 DUP3 PUSH2 0x561 JUMP JUMPDEST PUSH8 0xFFFFFFFFFFFFFFFF DUP2 GT ISZERO PUSH2 0x790 JUMPI PUSH2 0x78F PUSH2 0x534 JUMP JUMPDEST JUMPDEST PUSH2 0x79A DUP3 SLOAD PUSH2 0x598 JUMP JUMPDEST PUSH2 0x7A5 DUP3 DUP3 DUP6 PUSH2 0x6E5 JUMP JUMPDEST PUSH0 PUSH1 0x20 SWAP1 POP PUSH1 0x1F DUP4 GT PUSH1 0x1 DUP2 EQ PUSH2 0x7D6 JUMPI PUSH0 DUP5 ISZERO PUSH2 0x7C4 JUMPI DUP3 DUP8 ADD MLOAD SWAP1 POP JUMPDEST PUSH2 0x7CE DUP6 DUP3 PUSH2 0x753 JUMP JUMPDEST DUP7 SSTORE POP PUSH2 0x835 JUMP JUMPDEST PUSH1 0x1F NOT DUP5 AND PUSH2 0x7E4 DUP7 PUSH2 0x5C8 JUMP JUMPDEST PUSH0 JUMPDEST DUP3 DUP2 LT ISZERO PUSH2 0x80B JUMPI DUP5 DUP10 ADD MLOAD DUP3 SSTORE PUSH1 0x1 DUP3 ADD SWAP2 POP PUSH1 0x20 DUP6 ADD SWAP5 POP PUSH1 0x20 DUP2 ADD SWAP1 POP PUSH2 0x7E6 JUMP JUMPDEST DUP7 DUP4 LT ISZERO PUSH2 0x828 JUMPI DUP5 DUP10 ADD MLOAD PUSH2 0x824 PUSH1 0x1F DUP10 AND DUP3 PUSH2 0x737 JUMP JUMPDEST DUP4 SSTORE POP JUMPDEST PUSH1 0x1 PUSH1 0x2 DUP9 MUL ADD DUP9 SSTORE POP POP POP JUMPDEST POP POP POP POP POP POP JUMP JUMPDEST PUSH0 PUSH1 0xFF DUP3 AND SWAP1 POP SWAP2 SWAP1 POP JUMP JUMPDEST PUSH32 0x4E487B7100000000000000000000000000000000000000000000000000000000 PUSH0 MSTORE PUSH1 0x11 PUSH1 0x4 MSTORE PUSH1 0x24 PUSH0 REVERT JUMPDEST PUSH0 PUSH2 0x880 DUP3 PUSH2 0x83D JUMP JUMPDEST SWAP2 POP PUSH2 0x88B DUP4 PUSH2 0x83D JUMP JUMPDEST SWAP3 POP DUP3 DUP3 SUB SWAP1 POP PUSH1 0xFF DUP2 GT ISZERO PUSH2 0x8A4 JUMPI PUSH2 0x8A3 PUSH2 0x849 JUMP JUMPDEST JUMPDEST SWAP3 SWAP2 POP POP JUMP JUMPDEST PUSH0 PUSH2 0x8B4 DUP3 PUSH2 0x646 JUMP JUMPDEST SWAP2 POP PUSH2 0x8BF DUP4 PUSH2 0x646 JUMP JUMPDEST SWAP3 POP DUP3 DUP3 MUL PUSH2 0x8CD DUP2 PUSH2 0x646 JUMP JUMPDEST SWAP2 POP DUP3 DUP3 DIV DUP5 EQ DUP4 ISZERO OR PUSH2 0x8E4 JUMPI PUSH2 0x8E3 PUSH2 0x849 JUMP JUMPDEST JUMPDEST POP SWAP3 SWAP2 POP POP JUMP JUMPDEST PUSH0 PUSH2 0x8F5 DUP3 PUSH2 0x83D JUMP JUMPDEST SWAP2 POP PUSH1 0xFF DUP3 SUB PUSH2 0x908 JUMPI PUSH2 0x907 PUSH2 0x849 JUMP JUMPDEST JUMPDEST PUSH1 0x1 DUP3 ADD SWAP1 POP SWAP2 SWAP1 POP JUMP JUMPDEST PUSH2 0x35C2 DUP1 PUSH2 0x920 PUSH0 CODECOPY PUSH0 RETURN INVALID PUSH1 0x80 PUSH1 0x40 MSTORE PUSH1 0x4 CALLDATASIZE LT PUSH2 0x108 JUMPI PUSH0 CALLDATALOAD PUSH1 0xE0 SHR DUP1 PUSH4 0x6F8E2516 GT PUSH2 0x94 JUMPI DUP1 PUSH4 0x9AC7E09E GT PUSH2 0x63 JUMPI DUP1 PUSH4 0x9AC7E09E EQ PUSH2 0x35A JUMPI DUP1 PUSH4 0xA87430BA EQ PUSH2 0x384 JUMPI DUP1 PUSH4 0xAED8A6A7 EQ PUSH2 0x3CB JUMPI DUP1 PUSH4 0xDE972B43 EQ PUSH2 0x407 JUMPI DUP1 PUSH4 0xECABDF79 EQ PUSH2 0x444 JUMPI PUSH2 0x108 JUMP JUMPDEST DUP1 PUSH4 0x6F8E2516 EQ PUSH2 0x2BC JUMPI DUP1 PUSH4 0x8D17A4D0 EQ PUSH2 0x2F8 JUMPI DUP1 PUSH4 0x8DA5CB5B EQ PUSH2 0x314 JUMPI DUP1 PUSH4 0x90426274 EQ PUSH2 0x33E JUMPI PUSH2 0x108 JUMP JUMPDEST DUP1 PUSH4 0x348D4487 GT PUSH2 0xDB JUMPI DUP1 PUSH4 0x348D4487 EQ PUSH2 0x1AA JUMPI DUP1 PUSH4 0x575CEA6B EQ PUSH2 0x1D4 JUMPI DUP1 PUSH4 0x6386C1C7 EQ PUSH2 0x210 JUMPI DUP1 PUSH4 0x64B4F751 EQ PUSH2 0x256 JUMPI DUP1 PUSH4 0x6ED6DA9E EQ PUSH2 0x280 JUMPI PUSH2 0x108 JUMP JUMPDEST DUP1 PUSH4 0x1394C053 EQ PUSH2 0x10C JUMPI DUP1 PUSH4 0x29C70400 EQ PUSH2 0x128 JUMPI DUP1 PUSH4 0x2A2D0C47 EQ PUSH2 0x152 JUMPI DUP1 PUSH4 0x3056DEB8 EQ PUSH2 0x18E JUMPI JUMPDEST PUSH0 DUP1 REVERT JUMPDEST PUSH2 0x126 PUSH1 0x4 DUP1 CALLDATASIZE SUB DUP2 ADD SWAP1 PUSH2 0x121 SWAP2 SWAP1 PUSH2 0x2675 JUMP JUMPDEST PUSH2 0x480 JUMP JUMPDEST STOP JUMPDEST CALLVALUE DUP1 ISZERO PUSH2 0x133 JUMPI PUSH0 DUP1 REVERT JUMPDEST POP PUSH2 0x13C PUSH2 0x8CB JUMP JUMPDEST PUSH1 0x40 MLOAD PUSH2 0x149 SWAP2 SWAP1 PUSH2 0x2777 JUMP JUMPDEST PUSH1 0x40 MLOAD DUP1 SWAP2 SUB SWAP1 RETURN JUMPDEST CALLVALUE DUP1 ISZERO PUSH2 0x15D JUMPI PUSH0 DUP1 REVERT JUMPDEST POP PUSH2 0x178 PUSH1 0x4 DUP1 CALLDATASIZE SUB DUP2 ADD SWAP1 PUSH2 0x173 SWAP2 SWAP1 PUSH2 0x27C3 JUMP JUMPDEST PUSH2 0x8D0 JUMP JUMPDEST PUSH1 0x40 MLOAD PUSH2 0x185 SWAP2 SWAP1 PUSH2 0x27FD JUMP JUMPDEST PUSH1 0x40 MLOAD DUP1 SWAP2 SUB SWAP1 RETURN JUMPDEST PUSH2 0x1A8 PUSH1 0x4 DUP1 CALLDATASIZE SUB DUP2 ADD SWAP1 PUSH2 0x1A3 SWAP2 SWAP1 PUSH2 0x2816 JUMP JUMPDEST PUSH2 0x900 JUMP JUMPDEST STOP JUMPDEST CALLVALUE DUP1 ISZERO PUSH2 0x1B5 JUMPI PUSH0 DUP1 REVERT JUMPDEST POP PUSH2 0x1BE PUSH2 0xEAF JUMP JUMPDEST PUSH1 0x40 MLOAD PUSH2 0x1CB SWAP2 SWAP1 PUSH2 0x294E JUMP JUMPDEST PUSH1 0x40 MLOAD DUP1 SWAP2 SUB SWAP1 RETURN JUMPDEST CALLVALUE DUP1 ISZERO PUSH2 0x1DF JUMPI PUSH0 DUP1 REVERT JUMPDEST POP PUSH2 0x1FA PUSH1 0x4 DUP1 CALLDATASIZE SUB DUP2 ADD SWAP1 PUSH2 0x1F5 SWAP2 SWAP1 PUSH2 0x2967 JUMP JUMPDEST PUSH2 0xEB5 JUMP JUMPDEST PUSH1 0x40 MLOAD PUSH2 0x207 SWAP2 SWAP1 PUSH2 0x2A49 JUMP JUMPDEST PUSH1 0x40 MLOAD DUP1 SWAP2 SUB SWAP1 RETURN JUMPDEST CALLVALUE DUP1 ISZERO PUSH2 0x21B JUMPI PUSH0 DUP1 REVERT JUMPDEST POP PUSH2 0x236 PUSH1 0x4 DUP1 CALLDATASIZE SUB DUP2 ADD SWAP1 PUSH2 0x231 SWAP2 SWAP1 PUSH2 0x2967 JUMP JUMPDEST PUSH2 0xF7F JUMP JUMPDEST PUSH1 0x40 MLOAD PUSH2 0x24D SWAP12 SWAP11 SWAP10 SWAP9 SWAP8 SWAP7 SWAP6 SWAP5 SWAP4 SWAP3 SWAP2 SWAP1 PUSH2 0x2AC9 JUMP JUMPDEST PUSH1 0x40 MLOAD DUP1 SWAP2 SUB SWAP1 RETURN JUMPDEST CALLVALUE DUP1 ISZERO PUSH2 0x261 JUMPI PUSH0 DUP1 REVERT JUMPDEST POP PUSH2 0x26A PUSH2 0x13E7 JUMP JUMPDEST PUSH1 0x40 MLOAD PUSH2 0x277 SWAP2 SWAP1 PUSH2 0x294E JUMP JUMPDEST PUSH1 0x40 MLOAD DUP1 SWAP2 SUB SWAP1 RETURN JUMPDEST CALLVALUE DUP1 ISZERO PUSH2 0x28B JUMPI PUSH0 DUP1 REVERT JUMPDEST POP PUSH2 0x2A6 PUSH1 0x4 DUP1 CALLDATASIZE SUB DUP2 ADD SWAP1 PUSH2 0x2A1 SWAP2 SWAP1 PUSH2 0x27C3 JUMP JUMPDEST PUSH2 0x13F4 JUMP JUMPDEST PUSH1 0x40 MLOAD PUSH2 0x2B3 SWAP2 SWAP1 PUSH2 0x27FD JUMP JUMPDEST PUSH1 0x40 MLOAD DUP1 SWAP2 SUB SWAP1 RETURN JUMPDEST CALLVALUE DUP1 ISZERO PUSH2 0x2C7 JUMPI PUSH0 DUP1 REVERT JUMPDEST POP PUSH2 0x2E2 PUSH1 0x4 DUP1 CALLDATASIZE SUB DUP2 ADD SWAP1 PUSH2 0x2DD SWAP2 SWAP1 PUSH2 0x2BB8 JUMP JUMPDEST PUSH2 0x142D JUMP JUMPDEST PUSH1 0x40 MLOAD PUSH2 0x2EF SWAP2 SWAP1 PUSH2 0x294E JUMP JUMPDEST PUSH1 0x40 MLOAD DUP1 SWAP2 SUB SWAP1 RETURN JUMPDEST PUSH2 0x312 PUSH1 0x4 DUP1 CALLDATASIZE SUB DUP2 ADD SWAP1 PUSH2 0x30D SWAP2 SWAP1 PUSH2 0x2BB8 JUMP JUMPDEST PUSH2 0x14A7 JUMP JUMPDEST STOP JUMPDEST CALLVALUE DUP1 ISZERO PUSH2 0x31F JUMPI PUSH0 DUP1 REVERT JUMPDEST POP PUSH2 0x328 PUSH2 0x1690 JUMP JUMPDEST PUSH1 0x40 MLOAD PUSH2 0x335 SWAP2 SWAP1 PUSH2 0x27FD JUMP JUMPDEST PUSH1 0x40 MLOAD DUP1 SWAP2 SUB SWAP1 RETURN JUMPDEST PUSH2 0x358 PUSH1 0x4 DUP1 CALLDATASIZE SUB DUP2 ADD SWAP1 PUSH2 0x353 SWAP2 SWAP1 PUSH2 0x2967 JUMP JUMPDEST PUSH2 0x16B5 JUMP JUMPDEST STOP JUMPDEST CALLVALUE DUP1 ISZERO PUSH2 0x365 JUMPI PUSH0 DUP1 REVERT JUMPDEST POP PUSH2 0x36E PUSH2 0x1AC3 JUMP JUMPDEST PUSH1 0x40 MLOAD PUSH2 0x37B SWAP2 SWAP1 PUSH2 0x294E JUMP JUMPDEST PUSH1 0x40 MLOAD DUP1 SWAP2 SUB SWAP1 RETURN JUMPDEST CALLVALUE DUP1 ISZERO PUSH2 0x38F JUMPI PUSH0 DUP1 REVERT JUMPDEST POP PUSH2 0x3AA PUSH1 0x4 DUP1 CALLDATASIZE SUB DUP2 ADD SWAP1 PUSH2 0x3A5 SWAP2 SWAP1 PUSH2 0x2967 JUMP JUMPDEST PUSH2 0x1ACF JUMP JUMPDEST PUSH1 0x40 MLOAD PUSH2 0x3C2 SWAP13 SWAP12 SWAP11 SWAP10 SWAP9 SWAP8 SWAP7 SWAP6 SWAP5 SWAP4 SWAP3 SWAP2 SWAP1 PUSH2 0x2BFB JUMP JUMPDEST PUSH1 0x40 MLOAD DUP1 SWAP2 SUB SWAP1 RETURN JUMPDEST CALLVALUE DUP1 ISZERO PUSH2 0x3D6 JUMPI PUSH0 DUP1 REVERT JUMPDEST POP PUSH2 0x3F1 PUSH1 0x4 DUP1 CALLDATASIZE SUB DUP2 ADD SWAP1 PUSH2 0x3EC SWAP2 SWAP1 PUSH2 0x2967 JUMP JUMPDEST PUSH2 0x1D80 JUMP JUMPDEST PUSH1 0x40 MLOAD PUSH2 0x3FE SWAP2 SWAP1 PUSH2 0x2CCF JUMP JUMPDEST PUSH1 0x40 MLOAD DUP1 SWAP2 SUB SWAP1 RETURN JUMPDEST CALLVALUE DUP1 ISZERO PUSH2 0x412 JUMPI PUSH0 DUP1 REVERT JUMPDEST POP PUSH2 0x42D PUSH1 0x4 DUP1 CALLDATASIZE SUB DUP2 ADD SWAP1 PUSH2 0x428 SWAP2 SWAP1 PUSH2 0x2967 JUMP JUMPDEST PUSH2 0x1DF5 JUMP JUMPDEST PUSH1 0x40 MLOAD PUSH2 0x43B SWAP3 SWAP2 SWAP1 PUSH2 0x2CEF JUMP JUMPDEST PUSH1 0x40 MLOAD DUP1 SWAP2 SUB SWAP1 RETURN JUMPDEST CALLVALUE DUP1 ISZERO PUSH2 0x44F JUMPI PUSH0 DUP1 REVERT JUMPDEST POP PUSH2 0x46A PUSH1 0x4 DUP1 CALLDATASIZE SUB DUP2 ADD SWAP1 PUSH2 0x465 SWAP2 SWAP1 PUSH2 0x2BB8 JUMP JUMPDEST PUSH2 0x2206 JUMP JUMPDEST PUSH1 0x40 MLOAD PUSH2 0x477 SWAP2 SWAP1 PUSH2 0x294E JUMP JUMPDEST PUSH1 0x40 MLOAD DUP1 SWAP2 SUB SWAP1 RETURN JUMPDEST PUSH0 DUP1 PUSH0 DUP8 PUSH20 0xFFFFFFFFFFFFFFFFFFFFFFFFFFFFFFFFFFFFFFFF AND PUSH20 0xFFFFFFFFFFFFFFFFFFFFFFFFFFFFFFFFFFFFFFFF AND DUP2 MSTORE PUSH1 0x20 ADD SWAP1 DUP2 MSTORE PUSH1 0x20 ADD PUSH0 KECCAK256 PUSH1 0x1 ADD SLOAD EQ PUSH2 0x501 JUMPI PUSH1 0x40 MLOAD PUSH32 0x8C379A000000000000000000000000000000000000000000000000000000000 DUP2 MSTORE PUSH1 0x4 ADD PUSH2 0x4F8 SWAP1 PUSH2 0x2D60 JUMP JUMPDEST PUSH1 0x40 MLOAD DUP1 SWAP2 SUB SWAP1 REVERT JUMPDEST PUSH1 0x40 MLOAD DUP1 PUSH2 0x1A0 ADD PUSH1 0x40 MSTORE DUP1 PUSH0 PUSH20 0xFFFFFFFFFFFFFFFFFFFFFFFFFFFFFFFFFFFFFFFF AND DUP2 MSTORE PUSH1 0x20 ADD PUSH1 0x3 SLOAD DUP2 MSTORE PUSH1 0x20 ADD PUSH0 DUP2 MSTORE PUSH1 0x20 ADD PUSH0 DUP2 MSTORE PUSH1 0x20 ADD PUSH0 DUP2 MSTORE PUSH1 0x20 ADD PUSH1 0x1 DUP2 MSTORE PUSH1 0x20 ADD PUSH0 PUSH8 0xFFFFFFFFFFFFFFFF DUP2 GT ISZERO PUSH2 0x564 JUMPI PUSH2 0x563 PUSH2 0x2551 JUMP JUMPDEST JUMPDEST PUSH1 0x40 MLOAD SWAP1 DUP1 DUP3 MSTORE DUP1 PUSH1 0x20 MUL PUSH1 0x20 ADD DUP3 ADD PUSH1 0x40 MSTORE DUP1 ISZERO PUSH2 0x592 JUMPI DUP2 PUSH1 0x20 ADD PUSH1 0x20 DUP3 MUL DUP1 CALLDATASIZE DUP4 CALLDATACOPY DUP1 DUP3 ADD SWAP2 POP POP SWAP1 POP JUMPDEST POP DUP2 MSTORE PUSH1 0x20 ADD DUP6 DUP2 MSTORE PUSH1 0x20 ADD DUP5 DUP2 MSTORE PUSH1 0x20 ADD DUP4 DUP2 MSTORE PUSH1 0x20 ADD DUP3 DUP2 MSTORE PUSH1 0x20 ADD PUSH0 DUP1 SHL DUP2 MSTORE PUSH1 0x20 ADD PUSH0 PUSH20 0xFFFFFFFFFFFFFFFFFFFFFFFFFFFFFFFFFFFFFFFF AND DUP2 MSTORE POP PUSH0 DUP1 DUP8 PUSH20 0xFFFFFFFFFFFFFFFFFFFFFFFFFFFFFFFFFFFFFFFF AND PUSH20 0xFFFFFFFFFFFFFFFFFFFFFFFFFFFFFFFFFFFFFFFF AND DUP2 MSTORE PUSH1 0x20 ADD SWAP1 DUP2 MSTORE PUSH1 0x20 ADD PUSH0 KECCAK256 PUSH0 DUP3 ADD MLOAD DUP2 PUSH0 ADD PUSH0 PUSH2 0x100 EXP DUP2 SLOAD DUP2 PUSH20 0xFFFFFFFFFFFFFFFFFFFFFFFFFFFFFFFFFFFFFFFF MUL NOT AND SWAP1 DUP4 PUSH20 0xFFFFFFFFFFFFFFFFFFFFFFFFFFFFFFFFFFFFFFFF AND MUL OR SWAP1 SSTORE POP PUSH1 0x20 DUP3 ADD MLOAD DUP2 PUSH1 0x1 ADD SSTORE PUSH1 0x40 DUP3 ADD MLOAD DUP2 PUSH1 0x2 ADD SSTORE PUSH1 0x60 DUP3 ADD MLOAD DUP2 PUSH1 0x3 ADD SSTORE PUSH1 0x80 DUP3 ADD MLOAD DUP2 PUSH1 0x4 ADD SSTORE PUSH1 0xA0 DUP3 ADD MLOAD DUP2 PUSH1 0x5 ADD SSTORE PUSH1 0xC0 DUP3 ADD MLOAD DUP2 PUSH1 0x6 ADD SWAP1 DUP1 MLOAD SWAP1 PUSH1 0x20 ADD SWAP1 PUSH2 0x6A0 SWAP3 SWAP2 SWAP1 PUSH2 0x242C JUMP JUMPDEST POP PUSH1 0xE0 DUP3 ADD MLOAD DUP2 PUSH1 0x7 ADD SWAP1 DUP2 PUSH2 0x6B6 SWAP2 SWAP1 PUSH2 0x2F78 JUMP JUMPDEST POP PUSH2 0x100 DUP3 ADD MLOAD DUP2 PUSH1 0x8 ADD SWAP1 DUP2 PUSH2 0x6CD SWAP2 SWAP1 PUSH2 0x2F78 JUMP JUMPDEST POP PUSH2 0x120 DUP3 ADD MLOAD DUP2 PUSH1 0x9 ADD SWAP1 DUP2 PUSH2 0x6E4 SWAP2 SWAP1 PUSH2 0x2F78 JUMP JUMPDEST POP PUSH2 0x140 DUP3 ADD MLOAD DUP2 PUSH1 0xA ADD SWAP1 DUP2 PUSH2 0x6FB SWAP2 SWAP1 PUSH2 0x2F78 JUMP JUMPDEST POP PUSH2 0x160 DUP3 ADD MLOAD DUP2 PUSH1 0xB ADD SSTORE PUSH2 0x180 DUP3 ADD MLOAD DUP2 PUSH1 0xC ADD PUSH0 PUSH2 0x100 EXP DUP2 SLOAD DUP2 PUSH20 0xFFFFFFFFFFFFFFFFFFFFFFFFFFFFFFFFFFFFFFFF MUL NOT AND SWAP1 DUP4 PUSH20 0xFFFFFFFFFFFFFFFFFFFFFFFFFFFFFFFFFFFFFFFF AND MUL OR SWAP1 SSTORE POP SWAP1 POP POP DUP5 PUSH1 0x1 PUSH0 PUSH1 0x3 SLOAD DUP2 MSTORE PUSH1 0x20 ADD SWAP1 DUP2 MSTORE PUSH1 0x20 ADD PUSH0 KECCAK256 PUSH0 PUSH2 0x100 EXP DUP2 SLOAD DUP2 PUSH20 0xFFFFFFFFFFFFFFFFFFFFFFFFFFFFFFFFFFFFFFFF MUL NOT AND SWAP1 DUP4 PUSH20 0xFFFFFFFFFFFFFFFFFFFFFFFFFFFFFFFFFFFFFFFF AND MUL OR SWAP1 SSTORE POP PUSH1 0x3 PUSH0 DUP2 SLOAD DUP1 SWAP3 SWAP2 SWAP1 PUSH2 0x7B4 SWAP1 PUSH2 0x3074 JUMP JUMPDEST SWAP2 SWAP1 POP SSTORE POP PUSH1 0x4 PUSH0 SWAP1 SLOAD SWAP1 PUSH2 0x100 EXP SWAP1 DIV PUSH20 0xFFFFFFFFFFFFFFFFFFFFFFFFFFFFFFFFFFFFFFFF AND PUSH20 0xFFFFFFFFFFFFFFFFFFFFFFFFFFFFFFFFFFFFFFFF AND PUSH2 0x8FC CALLVALUE SWAP1 DUP2 ISZERO MUL SWAP1 PUSH1 0x40 MLOAD PUSH0 PUSH1 0x40 MLOAD DUP1 DUP4 SUB DUP2 DUP6 DUP9 DUP9 CALL SWAP4 POP POP POP POP ISZERO DUP1 ISZERO PUSH2 0x81D JUMPI RETURNDATASIZE PUSH0 DUP1 RETURNDATACOPY RETURNDATASIZE PUSH0 REVERT JUMPDEST POP PUSH0 PUSH20 0xFFFFFFFFFFFFFFFFFFFFFFFFFFFFFFFFFFFFFFFF AND DUP6 PUSH20 0xFFFFFFFFFFFFFFFFFFFFFFFFFFFFFFFFFFFFFFFF AND PUSH32 0x309BB360E8B69C23937CCC5FB01F9AEEEAD1C95A99604E175113FF82F2B1723A PUSH0 DUP1 DUP10 PUSH20 0xFFFFFFFFFFFFFFFFFFFFFFFFFFFFFFFFFFFFFFFF AND PUSH20 0xFFFFFFFFFFFFFFFFFFFFFFFFFFFFFFFFFFFFFFFF AND DUP2 MSTORE PUSH1 0x20 ADD SWAP1 DUP2 MSTORE PUSH1 0x20 ADD PUSH0 KECCAK256 PUSH1 0x1 ADD SLOAD PUSH0 PUSH1 0x40 MLOAD PUSH2 0x8BC SWAP3 SWAP2 SWAP1 PUSH2 0x30F4 JUMP JUMPDEST PUSH1 0x40 MLOAD DUP1 SWAP2 SUB SWAP1 LOG3 POP POP POP POP POP JUMP JUMPDEST PUSH1 0xC DUP2 JUMP JUMPDEST PUSH1 0x1 PUSH1 0x20 MSTORE DUP1 PUSH0 MSTORE PUSH1 0x40 PUSH0 KECCAK256 PUSH0 SWAP2 POP SLOAD SWAP1 PUSH2 0x100 EXP SWAP1 DIV PUSH20 0xFFFFFFFFFFFFFFFFFFFFFFFFFFFFFFFFFFFFFFFF AND DUP2 JUMP JUMPDEST PUSH0 DUP1 PUSH0 DUP10 PUSH20 0xFFFFFFFFFFFFFFFFFFFFFFFFFFFFFFFFFFFFFFFF AND PUSH20 0xFFFFFFFFFFFFFFFFFFFFFFFFFFFFFFFFFFFFFFFF AND DUP2 MSTORE PUSH1 0x20 ADD SWAP1 DUP2 MSTORE PUSH1 0x20 ADD PUSH0 KECCAK256 PUSH1 0x1 ADD SLOAD SUB PUSH2 0x981 JUMPI PUSH1 0x40 MLOAD PUSH32 0x8C379A000000000000000000000000000000000000000000000000000000000 DUP2 MSTORE PUSH1 0x4 ADD PUSH2 0x978 SWAP1 PUSH2 0x3165 JUMP JUMPDEST PUSH1 0x40 MLOAD DUP1 SWAP2 SUB SWAP1 REVERT JUMPDEST PUSH0 DUP3 PUSH1 0x40 MLOAD PUSH1 0x20 ADD PUSH2 0x993 SWAP2 SWAP1 PUSH2 0x31BD JUMP JUMPDEST PUSH1 0x40 MLOAD PUSH1 0x20 DUP2 DUP4 SUB SUB DUP2 MSTORE SWAP1 PUSH1 0x40 MSTORE DUP1 MLOAD SWAP1 PUSH1 0x20 ADD KECCAK256 SWAP1 POP PUSH1 0x40 MLOAD DUP1 PUSH2 0x1A0 ADD PUSH1 0x40 MSTORE DUP1 DUP10 PUSH20 0xFFFFFFFFFFFFFFFFFFFFFFFFFFFFFFFFFFFFFFFF AND DUP2 MSTORE PUSH1 0x20 ADD PUSH1 0x3 SLOAD DUP2 MSTORE PUSH1 0x20 ADD PUSH0 DUP2 MSTORE PUSH1 0x20 ADD PUSH0 DUP2 MSTORE PUSH1 0x20 ADD PUSH0 DUP2 MSTORE PUSH1 0x20 ADD PUSH1 0x1 DUP2 MSTORE PUSH1 0x20 ADD PUSH0 PUSH8 0xFFFFFFFFFFFFFFFF DUP2 GT ISZERO PUSH2 0xA0E JUMPI PUSH2 0xA0D PUSH2 0x2551 JUMP JUMPDEST JUMPDEST PUSH1 0x40 MLOAD SWAP1 DUP1 DUP3 MSTORE DUP1 PUSH1 0x20 MUL PUSH1 0x20 ADD DUP3 ADD PUSH1 0x40 MSTORE DUP1 ISZERO PUSH2 0xA3C JUMPI DUP2 PUSH1 0x20 ADD PUSH1 0x20 DUP3 MUL DUP1 CALLDATASIZE DUP4 CALLDATACOPY DUP1 DUP3 ADD SWAP2 POP POP SWAP1 POP JUMPDEST POP DUP2 MSTORE PUSH1 0x20 ADD DUP9 DUP2 MSTORE PUSH1 0x20 ADD DUP8 DUP2 MSTORE PUSH1 0x20 ADD DUP7 DUP2 MSTORE PUSH1 0x20 ADD DUP6 DUP2 MSTORE PUSH1 0x20 ADD DUP3 DUP2 MSTORE PUSH1 0x20 ADD DUP4 PUSH20 0xFFFFFFFFFFFFFFFFFFFFFFFFFFFFFFFFFFFFFFFF AND DUP2 MSTORE POP PUSH0 DUP1 CALLER PUSH20 0xFFFFFFFFFFFFFFFFFFFFFFFFFFFFFFFFFFFFFFFF AND PUSH20 0xFFFFFFFFFFFFFFFFFFFFFFFFFFFFFFFFFFFFFFFF AND DUP2 MSTORE PUSH1 0x20 ADD SWAP1 DUP2 MSTORE PUSH1 0x20 ADD PUSH0 KECCAK256 PUSH0 DUP3 ADD MLOAD DUP2 PUSH0 ADD PUSH0 PUSH2 0x100 EXP DUP2 SLOAD DUP2 PUSH20 0xFFFFFFFFFFFFFFFFFFFFFFFFFFFFFFFFFFFFFFFF MUL NOT AND SWAP1 DUP4 PUSH20 0xFFFFFFFFFFFFFFFFFFFFFFFFFFFFFFFFFFFFFFFF AND MUL OR SWAP1 SSTORE POP PUSH1 0x20 DUP3 ADD MLOAD DUP2 PUSH1 0x1 ADD SSTORE PUSH1 0x40 DUP3 ADD MLOAD DUP2 PUSH1 0x2 ADD SSTORE PUSH1 0x60 DUP3 ADD MLOAD DUP2 PUSH1 0x3 ADD SSTORE PUSH1 0x80 DUP3 ADD MLOAD DUP2 PUSH1 0x4 ADD SSTORE PUSH1 0xA0 DUP3 ADD MLOAD DUP2 PUSH1 0x5 ADD SSTORE PUSH1 0xC0 DUP3 ADD MLOAD DUP2 PUSH1 0x6 ADD SWAP1 DUP1 MLOAD SWAP1 PUSH1 0x20 ADD SWAP1 PUSH2 0xB48 SWAP3 SWAP2 SWAP1 PUSH2 0x242C JUMP JUMPDEST POP PUSH1 0xE0 DUP3 ADD MLOAD DUP2 PUSH1 0x7 ADD SWAP1 DUP2 PUSH2 0xB5E SWAP2 SWAP1 PUSH2 0x2F78 JUMP JUMPDEST POP PUSH2 0x100 DUP3 ADD MLOAD DUP2 PUSH1 0x8 ADD SWAP1 DUP2 PUSH2 0xB75 SWAP2 SWAP1 PUSH2 0x2F78 JUMP JUMPDEST POP PUSH2 0x120 DUP3 ADD MLOAD DUP2 PUSH1 0x9 ADD SWAP1 DUP2 PUSH2 0xB8C SWAP2 SWAP1 PUSH2 0x2F78 JUMP JUMPDEST POP PUSH2 0x140 DUP3 ADD MLOAD DUP2 PUSH1 0xA ADD SWAP1 DUP2 PUSH2 0xBA3 SWAP2 SWAP1 PUSH2 0x2F78 JUMP JUMPDEST POP PUSH2 0x160 DUP3 ADD MLOAD DUP2 PUSH1 0xB ADD SSTORE PUSH2 0x180 DUP3 ADD MLOAD DUP2 PUSH1 0xC ADD PUSH0 PUSH2 0x100 EXP DUP2 SLOAD DUP2 PUSH20 0xFFFFFFFFFFFFFFFFFFFFFFFFFFFFFFFFFFFFFFFF MUL NOT AND SWAP1 DUP4 PUSH20 0xFFFFFFFFFFFFFFFFFFFFFFFFFFFFFFFFFFFFFFFF AND MUL OR SWAP1 SSTORE POP SWAP1 POP POP CALLER PUSH1 0x1 PUSH0 PUSH1 0x3 SLOAD DUP2 MSTORE PUSH1 0x20 ADD SWAP1 DUP2 MSTORE PUSH1 0x20 ADD PUSH0 KECCAK256 PUSH0 PUSH2 0x100 EXP DUP2 SLOAD DUP2 PUSH20 0xFFFFFFFFFFFFFFFFFFFFFFFFFFFFFFFFFFFFFFFF MUL NOT AND SWAP1 DUP4 PUSH20 0xFFFFFFFFFFFFFFFFFFFFFFFFFFFFFFFFFFFFFFFF AND MUL OR SWAP1 SSTORE POP PUSH1 0x3 PUSH0 DUP2 SLOAD DUP1 SWAP3 SWAP2 SWAP1 PUSH2 0xC5C SWAP1 PUSH2 0x3074 JUMP JUMPDEST SWAP2 SWAP1 POP SSTORE POP PUSH0 DUP1 DUP10 PUSH20 0xFFFFFFFFFFFFFFFFFFFFFFFFFFFFFFFFFFFFFFFF AND PUSH20 0xFFFFFFFFFFFFFFFFFFFFFFFFFFFFFFFFFFFFFFFF AND DUP2 MSTORE PUSH1 0x20 ADD SWAP1 DUP2 MSTORE PUSH1 0x20 ADD PUSH0 KECCAK256 PUSH1 0x2 ADD PUSH0 DUP2 SLOAD DUP1 SWAP3 SWAP2 SWAP1 PUSH2 0xCB0 SWAP1 PUSH2 0x3074 JUMP JUMPDEST SWAP2 SWAP1 POP SSTORE POP PUSH0 DUP1 DUP10 PUSH20 0xFFFFFFFFFFFFFFFFFFFFFFFFFFFFFFFFFFFFFFFF AND PUSH20 0xFFFFFFFFFFFFFFFFFFFFFFFFFFFFFFFFFFFFFFFF AND DUP2 MSTORE PUSH1 0x20 ADD SWAP1 DUP2 MSTORE PUSH1 0x20 ADD PUSH0 KECCAK256 PUSH1 0x6 ADD CALLER SWAP1 DUP1 PUSH1 0x1 DUP2 SLOAD ADD DUP1 DUP3 SSTORE DUP1 SWAP2 POP POP PUSH1 0x1 SWAP1 SUB SWAP1 PUSH0 MSTORE PUSH1 0x20 PUSH0 KECCAK256 ADD PUSH0 SWAP1 SWAP2 SWAP1 SWAP2 SWAP1 SWAP2 PUSH2 0x100 EXP DUP2 SLOAD DUP2 PUSH20 0xFFFFFFFFFFFFFFFFFFFFFFFFFFFFFFFFFFFFFFFF MUL NOT AND SWAP1 DUP4 PUSH20 0xFFFFFFFFFFFFFFFFFFFFFFFFFFFFFFFFFFFFFFFF AND MUL OR SWAP1 SSTORE POP PUSH1 0x4 PUSH0 SWAP1 SLOAD SWAP1 PUSH2 0x100 EXP SWAP1 DIV PUSH20 0xFFFFFFFFFFFFFFFFFFFFFFFFFFFFFFFFFFFFFFFF AND PUSH20 0xFFFFFFFFFFFFFFFFFFFFFFFFFFFFFFFFFFFFFFFF AND PUSH2 0x8FC CALLVALUE SWAP1 DUP2 ISZERO MUL SWAP1 PUSH1 0x40 MLOAD PUSH0 PUSH1 0x40 MLOAD DUP1 DUP4 SUB DUP2 DUP6 DUP9 DUP9 CALL SWAP4 POP POP POP POP ISZERO DUP1 ISZERO PUSH2 0xDB6 JUMPI RETURNDATASIZE PUSH0 DUP1 RETURNDATACOPY RETURNDATASIZE PUSH0 REVERT JUMPDEST POP PUSH2 0xDC0 CALLER PUSH2 0x16B5 JUMP JUMPDEST DUP8 PUSH20 0xFFFFFFFFFFFFFFFFFFFFFFFFFFFFFFFFFFFFFFFF AND CALLER PUSH20 0xFFFFFFFFFFFFFFFFFFFFFFFFFFFFFFFFFFFFFFFF AND PUSH32 0x309BB360E8B69C23937CCC5FB01F9AEEEAD1C95A99604E175113FF82F2B1723A PUSH0 DUP1 CALLER PUSH20 0xFFFFFFFFFFFFFFFFFFFFFFFFFFFFFFFFFFFFFFFF AND PUSH20 0xFFFFFFFFFFFFFFFFFFFFFFFFFFFFFFFFFFFFFFFF AND DUP2 MSTORE PUSH1 0x20 ADD SWAP1 DUP2 MSTORE PUSH1 0x20 ADD PUSH0 KECCAK256 PUSH1 0x1 ADD SLOAD PUSH0 DUP1 DUP14 PUSH20 0xFFFFFFFFFFFFFFFFFFFFFFFFFFFFFFFFFFFFFFFF AND PUSH20 0xFFFFFFFFFFFFFFFFFFFFFFFFFFFFFFFFFFFFFFFF AND DUP2 MSTORE PUSH1 0x20 ADD SWAP1 DUP2 MSTORE PUSH1 0x20 ADD PUSH0 KECCAK256 PUSH1 0x1 ADD SLOAD PUSH1 0x40 MLOAD PUSH2 0xE9D SWAP3 SWAP2 SWAP1 PUSH2 0x2CEF JUMP JUMPDEST PUSH1 0x40 MLOAD DUP1 SWAP2 SUB SWAP1 LOG3 POP POP POP POP POP POP POP POP JUMP JUMPDEST PUSH1 0x3 SLOAD DUP2 JUMP JUMPDEST PUSH1 0x60 PUSH0 DUP1 DUP4 PUSH20 0xFFFFFFFFFFFFFFFFFFFFFFFFFFFFFFFFFFFFFFFF AND PUSH20 0xFFFFFFFFFFFFFFFFFFFFFFFFFFFFFFFFFFFFFFFF AND DUP2 MSTORE PUSH1 0x20 ADD SWAP1 DUP2 MSTORE PUSH1 0x20 ADD PUSH0 KECCAK256 PUSH1 0x6 ADD DUP1 SLOAD DUP1 PUSH1 0x20 MUL PUSH1 0x20 ADD PUSH1 0x40 MLOAD SWAP1 DUP2 ADD PUSH1 0x40 MSTORE DUP1 SWAP3 SWAP2 SWAP1 DUP2 DUP2 MSTORE PUSH1 0x20 ADD DUP3 DUP1 SLOAD DUP1 ISZERO PUSH2 0xF73 JUMPI PUSH1 0x20 MUL DUP3 ADD SWAP2 SWAP1 PUSH0 MSTORE PUSH1 0x20 PUSH0 KECCAK256 SWAP1 JUMPDEST DUP2 PUSH0 SWAP1 SLOAD SWAP1 PUSH2 0x100 EXP SWAP1 DIV PUSH20 0xFFFFFFFFFFFFFFFFFFFFFFFFFFFFFFFFFFFFFFFF AND PUSH20 0xFFFFFFFFFFFFFFFFFFFFFFFFFFFFFFFFFFFFFFFF AND DUP2 MSTORE PUSH1 0x20 ADD SWAP1 PUSH1 0x1 ADD SWAP1 DUP1 DUP4 GT PUSH2 0xF2A JUMPI JUMPDEST POP POP POP POP POP SWAP1 POP SWAP2 SWAP1 POP JUMP JUMPDEST PUSH0 DUP1 PUSH0 DUP1 PUSH0 DUP1 PUSH1 0x60 DUP1 PUSH1 0x60 DUP1 PUSH0 DUP1 PUSH0 DUP1 DUP15 PUSH20 0xFFFFFFFFFFFFFFFFFFFFFFFFFFFFFFFFFFFFFFFF AND PUSH20 0xFFFFFFFFFFFFFFFFFFFFFFFFFFFFFFFFFFFFFFFF AND DUP2 MSTORE PUSH1 0x20 ADD SWAP1 DUP2 MSTORE PUSH1 0x20 ADD PUSH0 KECCAK256 PUSH1 0x40 MLOAD DUP1 PUSH2 0x1A0 ADD PUSH1 0x40 MSTORE SWAP1 DUP2 PUSH0 DUP3 ADD PUSH0 SWAP1 SLOAD SWAP1 PUSH2 0x100 EXP SWAP1 DIV PUSH20 0xFFFFFFFFFFFFFFFFFFFFFFFFFFFFFFFFFFFFFFFF AND PUSH20 0xFFFFFFFFFFFFFFFFFFFFFFFFFFFFFFFFFFFFFFFF AND PUSH20 0xFFFFFFFFFFFFFFFFFFFFFFFFFFFFFFFFFFFFFFFF AND DUP2 MSTORE PUSH1 0x20 ADD PUSH1 0x1 DUP3 ADD SLOAD DUP2 MSTORE PUSH1 0x20 ADD PUSH1 0x2 DUP3 ADD SLOAD DUP2 MSTORE PUSH1 0x20 ADD PUSH1 0x3 DUP3 ADD SLOAD DUP2 MSTORE PUSH1 0x20 ADD PUSH1 0x4 DUP3 ADD SLOAD DUP2 MSTORE PUSH1 0x20 ADD PUSH1 0x5 DUP3 ADD SLOAD DUP2 MSTORE PUSH1 0x20 ADD PUSH1 0x6 DUP3 ADD DUP1 SLOAD DUP1 PUSH1 0x20 MUL PUSH1 0x20 ADD PUSH1 0x40 MLOAD SWAP1 DUP2 ADD PUSH1 0x40 MSTORE DUP1 SWAP3 SWAP2 SWAP1 DUP2 DUP2 MSTORE PUSH1 0x20 ADD DUP3 DUP1 SLOAD DUP1 ISZERO PUSH2 0x10DD JUMPI PUSH1 0x20 MUL DUP3 ADD SWAP2 SWAP1 PUSH0 MSTORE PUSH1 0x20 PUSH0 KECCAK256 SWAP1 JUMPDEST DUP2 PUSH0 SWAP1 SLOAD SWAP1 PUSH2 0x100 EXP SWAP1 DIV PUSH20 0xFFFFFFFFFFFFFFFFFFFFFFFFFFFFFFFFFFFFFFFF AND PUSH20 0xFFFFFFFFFFFFFFFFFFFFFFFFFFFFFFFFFFFFFFFF AND DUP2 MSTORE PUSH1 0x20 ADD SWAP1 PUSH1 0x1 ADD SWAP1 DUP1 DUP4 GT PUSH2 0x1094 JUMPI JUMPDEST POP POP POP POP POP DUP2 MSTORE PUSH1 0x20 ADD PUSH1 0x7 DUP3 ADD DUP1 SLOAD PUSH2 0x10F6 SWAP1 PUSH2 0x2DAB JUMP JUMPDEST DUP1 PUSH1 0x1F ADD PUSH1 0x20 DUP1 SWAP2 DIV MUL PUSH1 0x20 ADD PUSH1 0x40 MLOAD SWAP1 DUP2 ADD PUSH1 0x40 MSTORE DUP1 SWAP3 SWAP2 SWAP1 DUP2 DUP2 MSTORE PUSH1 0x20 ADD DUP3 DUP1 SLOAD PUSH2 0x1122 SWAP1 PUSH2 0x2DAB JUMP JUMPDEST DUP1 ISZERO PUSH2 0x116D JUMPI DUP1 PUSH1 0x1F LT PUSH2 0x1144 JUMPI PUSH2 0x100 DUP1 DUP4 SLOAD DIV MUL DUP4 MSTORE SWAP2 PUSH1 0x20 ADD SWAP2 PUSH2 0x116D JUMP JUMPDEST DUP3 ADD SWAP2 SWAP1 PUSH0 MSTORE PUSH1 0x20 PUSH0 KECCAK256 SWAP1 JUMPDEST DUP2 SLOAD DUP2 MSTORE SWAP1 PUSH1 0x1 ADD SWAP1 PUSH1 0x20 ADD DUP1 DUP4 GT PUSH2 0x1150 JUMPI DUP3 SWAP1 SUB PUSH1 0x1F AND DUP3 ADD SWAP2 JUMPDEST POP POP POP POP POP DUP2 MSTORE PUSH1 0x20 ADD PUSH1 0x8 DUP3 ADD DUP1 SLOAD PUSH2 0x1186 SWAP1 PUSH2 0x2DAB JUMP JUMPDEST DUP1 PUSH1 0x1F ADD PUSH1 0x20 DUP1 SWAP2 DIV MUL PUSH1 0x20 ADD PUSH1 0x40 MLOAD SWAP1 DUP2 ADD PUSH1 0x40 MSTORE DUP1 SWAP3 SWAP2 SWAP1 DUP2 DUP2 MSTORE PUSH1 0x20 ADD DUP3 DUP1 SLOAD PUSH2 0x11B2 SWAP1 PUSH2 0x2DAB JUMP JUMPDEST DUP1 ISZERO PUSH2 0x11FD JUMPI DUP1 PUSH1 0x1F LT PUSH2 0x11D4 JUMPI PUSH2 0x100 DUP1 DUP4 SLOAD DIV MUL DUP4 MSTORE SWAP2 PUSH1 0x20 ADD SWAP2 PUSH2 0x11FD JUMP JUMPDEST DUP3 ADD SWAP2 SWAP1 PUSH0 MSTORE PUSH1 0x20 PUSH0 KECCAK256 SWAP1 JUMPDEST DUP2 SLOAD DUP2 MSTORE SWAP1 PUSH1 0x1 ADD SWAP1 PUSH1 0x20 ADD DUP1 DUP4 GT PUSH2 0x11E0 JUMPI DUP3 SWAP1 SUB PUSH1 0x1F AND DUP3 ADD SWAP2 JUMPDEST POP POP POP POP POP DUP2 MSTORE PUSH1 0x20 ADD PUSH1 0x9 DUP3 ADD DUP1 SLOAD PUSH2 0x1216 SWAP1 PUSH2 0x2DAB JUMP JUMPDEST DUP1 PUSH1 0x1F ADD PUSH1 0x20 DUP1 SWAP2 DIV MUL PUSH1 0x20 ADD PUSH1 0x40 MLOAD SWAP1 DUP2 ADD PUSH1 0x40 MSTORE DUP1 SWAP3 SWAP2 SWAP1 DUP2 DUP2 MSTORE PUSH1 0x20 ADD DUP3 DUP1 SLOAD PUSH2 0x1242 SWAP1 PUSH2 0x2DAB JUMP JUMPDEST DUP1 ISZERO PUSH2 0x128D JUMPI DUP1 PUSH1 0x1F LT PUSH2 0x1264 JUMPI PUSH2 0x100 DUP1 DUP4 SLOAD DIV MUL DUP4 MSTORE SWAP2 PUSH1 0x20 ADD SWAP2 PUSH2 0x128D JUMP JUMPDEST DUP3 ADD SWAP2 SWAP1 PUSH0 MSTORE PUSH1 0x20 PUSH0 KECCAK256 SWAP1 JUMPDEST DUP2 SLOAD DUP2 MSTORE SWAP1 PUSH1 0x1 ADD SWAP1 PUSH1 0x20 ADD DUP1 DUP4 GT PUSH2 0x1270 JUMPI DUP3 SWAP1 SUB PUSH1 0x1F AND DUP3 ADD SWAP2 JUMPDEST POP POP POP POP POP DUP2 MSTORE PUSH1 0x20 ADD PUSH1 0xA DUP3 ADD DUP1 SLOAD PUSH2 0x12A6 SWAP1 PUSH2 0x2DAB JUMP JUMPDEST DUP1 PUSH1 0x1F ADD PUSH1 0x20 DUP1 SWAP2 DIV MUL PUSH1 0x20 ADD PUSH1 0x40 MLOAD SWAP1 DUP2 ADD PUSH1 0x40 MSTORE DUP1 SWAP3 SWAP2 SWAP1 DUP2 DUP2 MSTORE PUSH1 0x20 ADD DUP3 DUP1 SLOAD PUSH2 0x12D2 SWAP1 PUSH2 0x2DAB JUMP JUMPDEST DUP1 ISZERO PUSH2 0x131D JUMPI DUP1 PUSH1 0x1F LT PUSH2 0x12F4 JUMPI PUSH2 0x100 DUP1 DUP4 SLOAD DIV MUL DUP4 MSTORE SWAP2 PUSH1 0x20 ADD SWAP2 PUSH2 0x131D JUMP JUMPDEST DUP3 ADD SWAP2 SWAP1 PUSH0 MSTORE PUSH1 0x20 PUSH0 KECCAK256 SWAP1 JUMPDEST DUP2 SLOAD DUP2 MSTORE SWAP1 PUSH1 0x1 ADD SWAP1 PUSH1 0x20 ADD DUP1 DUP4 GT PUSH2 0x1300 JUMPI DUP3 SWAP1 SUB PUSH1 0x1F AND DUP3 ADD SWAP2 JUMPDEST POP POP POP POP POP DUP2 MSTORE PUSH1 0x20 ADD PUSH1 0xB DUP3 ADD SLOAD DUP2 MSTORE PUSH1 0x20 ADD PUSH1 0xC DUP3 ADD PUSH0 SWAP1 SLOAD SWAP1 PUSH2 0x100 EXP SWAP1 DIV PUSH20 0xFFFFFFFFFFFFFFFFFFFFFFFFFFFFFFFFFFFFFFFF AND PUSH20 0xFFFFFFFFFFFFFFFFFFFFFFFFFFFFFFFFFFFFFFFF AND PUSH20 0xFFFFFFFFFFFFFFFFFFFFFFFFFFFFFFFFFFFFFFFF AND DUP2 MSTORE POP POP SWAP1 POP DUP1 PUSH0 ADD MLOAD DUP2 PUSH1 0x20 ADD MLOAD DUP3 PUSH1 0x40 ADD MLOAD DUP4 PUSH1 0x60 ADD MLOAD DUP5 PUSH1 0x80 ADD MLOAD DUP6 PUSH1 0xA0 ADD MLOAD DUP7 PUSH1 0xE0 ADD MLOAD DUP8 PUSH2 0x100 ADD MLOAD DUP9 PUSH2 0x120 ADD MLOAD DUP10 PUSH2 0x140 ADD MLOAD DUP11 PUSH2 0x180 ADD MLOAD SWAP12 POP SWAP12 POP SWAP12 POP SWAP12 POP SWAP12 POP SWAP12 POP SWAP12 POP SWAP12 POP SWAP12 POP SWAP12 POP SWAP12 POP POP SWAP2 SWAP4 SWAP6 SWAP8 SWAP10 SWAP12 SWAP1 SWAP3 SWAP5 SWAP7 SWAP9 SWAP11 POP JUMP JUMPDEST PUSH9 0x15AF1D78B58C40000 DUP2 JUMP JUMPDEST PUSH0 PUSH1 0x1 PUSH0 DUP4 DUP2 MSTORE PUSH1 0x20 ADD SWAP1 DUP2 MSTORE PUSH1 0x20 ADD PUSH0 KECCAK256 PUSH0 SWAP1 SLOAD SWAP1 PUSH2 0x100 EXP SWAP1 DIV PUSH20 0xFFFFFFFFFFFFFFFFFFFFFFFFFFFFFFFFFFFFFFFF AND SWAP1 POP SWAP2 SWAP1 POP JUMP JUMPDEST PUSH0 PUSH1 0x1 DUP3 PUSH1 0xFF AND LT ISZERO DUP1 ISZERO PUSH2 0x1449 JUMPI POP PUSH1 0xC PUSH1 0xFF AND DUP3 PUSH1 0xFF AND GT ISZERO JUMPDEST PUSH2 0x1488 JUMPI PUSH1 0x40 MLOAD PUSH32 0x8C379A000000000000000000000000000000000000000000000000000000000 DUP2 MSTORE PUSH1 0x4 ADD PUSH2 0x147F SWAP1 PUSH2 0x321D JUMP JUMPDEST PUSH1 0x40 MLOAD DUP1 SWAP2 SUB SWAP1 REVERT JUMPDEST PUSH1 0x2 PUSH0 DUP4 PUSH1 0xFF AND PUSH1 0xFF AND DUP2 MSTORE PUSH1 0x20 ADD SWAP1 DUP2 MSTORE PUSH1 0x20 ADD PUSH0 KECCAK256 SLOAD SWAP1 POP SWAP2 SWAP1 POP JUMP JUMPDEST PUSH0 DUP1 CALLER PUSH20 0xFFFFFFFFFFFFFFFFFFFFFFFFFFFFFFFFFFFFFFFF AND PUSH20 0xFFFFFFFFFFFFFFFFFFFFFFFFFFFFFFFFFFFFFFFF AND DUP2 MSTORE PUSH1 0x20 ADD SWAP1 DUP2 MSTORE PUSH1 0x20 ADD PUSH0 KECCAK256 PUSH1 0x5 ADD SLOAD DUP2 PUSH1 0xFF AND GT PUSH2 0x152B JUMPI PUSH1 0x40 MLOAD PUSH32 0x8C379A000000000000000000000000000000000000000000000000000000000 DUP2 MSTORE PUSH1 0x4 ADD PUSH2 0x1522 SWAP1 PUSH2 0x32AB JUMP JUMPDEST PUSH1 0x40 MLOAD DUP1 SWAP2 SUB SWAP1 REVERT JUMPDEST PUSH1 0xC PUSH1 0xFF AND DUP2 PUSH1 0xFF AND GT ISZERO PUSH2 0x1575 JUMPI PUSH1 0x40 MLOAD PUSH32 0x8C379A000000000000000000000000000000000000000000000000000000000 DUP2 MSTORE PUSH1 0x4 ADD PUSH2 0x156C SWAP1 PUSH2 0x321D JUMP JUMPDEST PUSH1 0x40 MLOAD DUP1 SWAP2 SUB SWAP1 REVERT JUMPDEST PUSH0 PUSH1 0x2 PUSH0 DUP4 PUSH1 0xFF AND PUSH1 0xFF AND DUP2 MSTORE PUSH1 0x20 ADD SWAP1 DUP2 MSTORE PUSH1 0x20 ADD PUSH0 KECCAK256 SLOAD SWAP1 POP DUP2 PUSH1 0xFF AND PUSH0 DUP1 CALLER PUSH20 0xFFFFFFFFFFFFFFFFFFFFFFFFFFFFFFFFFFFFFFFF AND PUSH20 0xFFFFFFFFFFFFFFFFFFFFFFFFFFFFFFFFFFFFFFFF AND DUP2 MSTORE PUSH1 0x20 ADD SWAP1 DUP2 MSTORE PUSH1 0x20 ADD PUSH0 KECCAK256 PUSH1 0x5 ADD DUP2 SWAP1 SSTORE POP PUSH1 0x4 PUSH0 SWAP1 SLOAD SWAP1 PUSH2 0x100 EXP SWAP1 DIV PUSH20 0xFFFFFFFFFFFFFFFFFFFFFFFFFFFFFFFFFFFFFFFF AND PUSH20 0xFFFFFFFFFFFFFFFFFFFFFFFFFFFFFFFFFFFFFFFF AND PUSH2 0x8FC CALLVALUE SWAP1 DUP2 ISZERO MUL SWAP1 PUSH1 0x40 MLOAD PUSH0 PUSH1 0x40 MLOAD DUP1 DUP4 SUB DUP2 DUP6 DUP9 DUP9 CALL SWAP4 POP POP POP POP ISZERO DUP1 ISZERO PUSH2 0x163B JUMPI RETURNDATASIZE PUSH0 DUP1 RETURNDATACOPY RETURNDATASIZE PUSH0 REVERT JUMPDEST POP CALLER PUSH20 0xFFFFFFFFFFFFFFFFFFFFFFFFFFFFFFFFFFFFFFFF AND PUSH32 0x3AEC384B4EE3B6F87982E6D06696CBCC9171F619053D3A6398E704C734EBAC1F DUP4 DUP4 PUSH1 0x40 MLOAD PUSH2 0x1684 SWAP3 SWAP2 SWAP1 PUSH2 0x32C9 JUMP JUMPDEST PUSH1 0x40 MLOAD DUP1 SWAP2 SUB SWAP1 LOG2 POP POP JUMP JUMPDEST PUSH1 0x4 PUSH0 SWAP1 SLOAD SWAP1 PUSH2 0x100 EXP SWAP1 DIV PUSH20 0xFFFFFFFFFFFFFFFFFFFFFFFFFFFFFFFFFFFFFFFF AND DUP2 JUMP JUMPDEST PUSH0 DUP1 PUSH0 DUP4 PUSH20 0xFFFFFFFFFFFFFFFFFFFFFFFFFFFFFFFFFFFFFFFF AND PUSH20 0xFFFFFFFFFFFFFFFFFFFFFFFFFFFFFFFFFFFFFFFF AND DUP2 MSTORE PUSH1 0x20 ADD SWAP1 DUP2 MSTORE PUSH1 0x20 ADD PUSH0 KECCAK256 PUSH0 ADD PUSH0 SWAP1 SLOAD SWAP1 PUSH2 0x100 EXP SWAP1 DIV PUSH20 0xFFFFFFFFFFFFFFFFFFFFFFFFFFFFFFFFFFFFFFFF AND SWAP1 POP PUSH0 PUSH20 0xFFFFFFFFFFFFFFFFFFFFFFFFFFFFFFFFFFFFFFFF AND DUP2 PUSH20 0xFFFFFFFFFFFFFFFFFFFFFFFFFFFFFFFFFFFFFFFF AND SUB PUSH2 0x174F JUMPI POP PUSH2 0x1AC0 JUMP JUMPDEST PUSH1 0x2 PUSH0 DUP1 DUP4 PUSH20 0xFFFFFFFFFFFFFFFFFFFFFFFFFFFFFFFFFFFFFFFF AND PUSH20 0xFFFFFFFFFFFFFFFFFFFFFFFFFFFFFFFFFFFFFFFF AND DUP2 MSTORE PUSH1 0x20 ADD SWAP1 DUP2 MSTORE PUSH1 0x20 ADD PUSH0 KECCAK256 PUSH1 0x2 ADD SLOAD LT PUSH2 0x1A69 JUMPI PUSH0 PUSH1 0x2 PUSH0 PUSH1 0x1 PUSH1 0xFF AND DUP2 MSTORE PUSH1 0x20 ADD SWAP1 DUP2 MSTORE PUSH1 0x20 ADD PUSH0 KECCAK256 SLOAD SWAP1 POP DUP1 SELFBALANCE LT ISZERO PUSH2 0x17F2 JUMPI PUSH1 0x40 MLOAD PUSH32 0x8C379A000000000000000000000000000000000000000000000000000000000 DUP2 MSTORE PUSH1 0x4 ADD PUSH2 0x17E9 SWAP1 PUSH2 0x333A JUMP JUMPDEST PUSH1 0x40 MLOAD DUP1 SWAP2 SUB SWAP1 REVERT JUMPDEST DUP1 PUSH0 DUP1 DUP5 PUSH20 0xFFFFFFFFFFFFFFFFFFFFFFFFFFFFFFFFFFFFFFFF AND PUSH20 0xFFFFFFFFFFFFFFFFFFFFFFFFFFFFFFFFFFFFFFFF AND DUP2 MSTORE PUSH1 0x20 ADD SWAP1 DUP2 MSTORE PUSH1 0x20 ADD PUSH0 KECCAK256 PUSH1 0x4 ADD PUSH0 DUP3 DUP3 SLOAD PUSH2 0x1840 SWAP2 SWAP1 PUSH2 0x3358 JUMP JUMPDEST SWAP3 POP POP DUP2 SWAP1 SSTORE POP PUSH0 DUP3 PUSH20 0xFFFFFFFFFFFFFFFFFFFFFFFFFFFFFFFFFFFFFFFF AND DUP3 PUSH1 0x40 MLOAD PUSH2 0x186C SWAP1 PUSH2 0x33B8 JUMP JUMPDEST PUSH0 PUSH1 0x40 MLOAD DUP1 DUP4 SUB DUP2 DUP6 DUP8 GAS CALL SWAP3 POP POP POP RETURNDATASIZE DUP1 PUSH0 DUP2 EQ PUSH2 0x18A6 JUMPI PUSH1 0x40 MLOAD SWAP2 POP PUSH1 0x1F NOT PUSH1 0x3F RETURNDATASIZE ADD AND DUP3 ADD PUSH1 0x40 MSTORE RETURNDATASIZE DUP3 MSTORE RETURNDATASIZE PUSH0 PUSH1 0x20 DUP5 ADD RETURNDATACOPY PUSH2 0x18AB JUMP JUMPDEST PUSH1 0x60 SWAP2 POP JUMPDEST POP POP SWAP1 POP DUP1 PUSH2 0x18EF JUMPI PUSH1 0x40 MLOAD PUSH32 0x8C379A000000000000000000000000000000000000000000000000000000000 DUP2 MSTORE PUSH1 0x4 ADD PUSH2 0x18E6 SWAP1 PUSH2 0x3416 JUMP JUMPDEST PUSH1 0x40 MLOAD DUP1 SWAP2 SUB SWAP1 REVERT JUMPDEST DUP3 PUSH20 0xFFFFFFFFFFFFFFFFFFFFFFFFFFFFFFFFFFFFFFFF AND PUSH32 0x92D81AB7E787D9A43BBB8F8CA7F0B2708DA03B86D5AEA53D5D20656FF8DAD1EE DUP4 PUSH1 0x40 MLOAD PUSH2 0x1935 SWAP2 SWAP1 PUSH2 0x294E JUMP JUMPDEST PUSH1 0x40 MLOAD DUP1 SWAP2 SUB SWAP1 LOG2 PUSH0 DUP1 DUP5 PUSH20 0xFFFFFFFFFFFFFFFFFFFFFFFFFFFFFFFFFFFFFFFF AND PUSH20 0xFFFFFFFFFFFFFFFFFFFFFFFFFFFFFFFFFFFFFFFF AND DUP2 MSTORE PUSH1 0x20 ADD SWAP1 DUP2 MSTORE PUSH1 0x20 ADD PUSH0 KECCAK256 PUSH1 0x3 ADD PUSH0 DUP2 SLOAD DUP1 SWAP3 SWAP2 SWAP1 PUSH2 0x198C SWAP1 PUSH2 0x3074 JUMP JUMPDEST SWAP2 SWAP1 POP SSTORE POP DUP3 PUSH20 0xFFFFFFFFFFFFFFFFFFFFFFFFFFFFFFFFFFFFFFFF AND PUSH32 0x18C00B25130B4512B396A52C89756CB9A1177C6002FE34CBC071F88CF90812A1 PUSH0 DUP1 DUP7 PUSH20 0xFFFFFFFFFFFFFFFFFFFFFFFFFFFFFFFFFFFFFFFF AND PUSH20 0xFFFFFFFFFFFFFFFFFFFFFFFFFFFFFFFFFFFFFFFF AND DUP2 MSTORE PUSH1 0x20 ADD SWAP1 DUP2 MSTORE PUSH1 0x20 ADD PUSH0 KECCAK256 PUSH1 0x3 ADD SLOAD PUSH1 0x40 MLOAD PUSH2 0x1A16 SWAP2 SWAP1 PUSH2 0x294E JUMP JUMPDEST PUSH1 0x40 MLOAD DUP1 SWAP2 SUB SWAP1 LOG2 PUSH0 DUP1 PUSH0 DUP6 PUSH20 0xFFFFFFFFFFFFFFFFFFFFFFFFFFFFFFFFFFFFFFFF AND PUSH20 0xFFFFFFFFFFFFFFFFFFFFFFFFFFFFFFFFFFFFFFFF AND DUP2 MSTORE PUSH1 0x20 ADD SWAP1 DUP2 MSTORE PUSH1 0x20 ADD PUSH0 KECCAK256 PUSH1 0x2 ADD DUP2 SWAP1 SSTORE POP POP POP PUSH2 0x1ABE JUMP JUMPDEST PUSH0 DUP1 DUP3 PUSH20 0xFFFFFFFFFFFFFFFFFFFFFFFFFFFFFFFFFFFFFFFF AND PUSH20 0xFFFFFFFFFFFFFFFFFFFFFFFFFFFFFFFFFFFFFFFF AND DUP2 MSTORE PUSH1 0x20 ADD SWAP1 DUP2 MSTORE PUSH1 0x20 ADD PUSH0 KECCAK256 PUSH1 0x2 ADD PUSH0 DUP2 SLOAD DUP1 SWAP3 SWAP2 SWAP1 PUSH2 0x1AB8 SWAP1 PUSH2 0x3074 JUMP JUMPDEST SWAP2 SWAP1 POP SSTORE POP JUMPDEST POP JUMPDEST POP JUMP JUMPDEST PUSH8 0x4563918244F40000 DUP2 JUMP JUMPDEST PUSH0 PUSH1 0x20 MSTORE DUP1 PUSH0 MSTORE PUSH1 0x40 PUSH0 KECCAK256 PUSH0 SWAP2 POP SWAP1 POP DUP1 PUSH0 ADD PUSH0 SWAP1 SLOAD SWAP1 PUSH2 0x100 EXP SWAP1 DIV PUSH20 0xFFFFFFFFFFFFFFFFFFFFFFFFFFFFFFFFFFFFFFFF AND SWAP1 DUP1 PUSH1 0x1 ADD SLOAD SWAP1 DUP1 PUSH1 0x2 ADD SLOAD SWAP1 DUP1 PUSH1 0x3 ADD SLOAD SWAP1 DUP1 PUSH1 0x4 ADD SLOAD SWAP1 DUP1 PUSH1 0x5 ADD SLOAD SWAP1 DUP1 PUSH1 0x7 ADD DUP1 SLOAD PUSH2 0x1B30 SWAP1 PUSH2 0x2DAB JUMP JUMPDEST DUP1 PUSH1 0x1F ADD PUSH1 0x20 DUP1 SWAP2 DIV MUL PUSH1 0x20 ADD PUSH1 0x40 MLOAD SWAP1 DUP2 ADD PUSH1 0x40 MSTORE DUP1 SWAP3 SWAP2 SWAP1 DUP2 DUP2 MSTORE PUSH1 0x20 ADD DUP3 DUP1 SLOAD PUSH2 0x1B5C SWAP1 PUSH2 0x2DAB JUMP JUMPDEST DUP1 ISZERO PUSH2 0x1BA7 JUMPI DUP1 PUSH1 0x1F LT PUSH2 0x1B7E JUMPI PUSH2 0x100 DUP1 DUP4 SLOAD DIV MUL DUP4 MSTORE SWAP2 PUSH1 0x20 ADD SWAP2 PUSH2 0x1BA7 JUMP JUMPDEST DUP3 ADD SWAP2 SWAP1 PUSH0 MSTORE PUSH1 0x20 PUSH0 KECCAK256 SWAP1 JUMPDEST DUP2 SLOAD DUP2 MSTORE SWAP1 PUSH1 0x1 ADD SWAP1 PUSH1 0x20 ADD DUP1 DUP4 GT PUSH2 0x1B8A JUMPI DUP3 SWAP1 SUB PUSH1 0x1F AND DUP3 ADD SWAP2 JUMPDEST POP POP POP POP POP SWAP1 DUP1 PUSH1 0x8 ADD DUP1 SLOAD PUSH2 0x1BBC SWAP1 PUSH2 0x2DAB JUMP JUMPDEST DUP1 PUSH1 0x1F ADD PUSH1 0x20 DUP1 SWAP2 DIV MUL PUSH1 0x20 ADD PUSH1 0x40 MLOAD SWAP1 DUP2 ADD PUSH1 0x40 MSTORE DUP1 SWAP3 SWAP2 SWAP1 DUP2 DUP2 MSTORE PUSH1 0x20 ADD DUP3 DUP1 SLOAD PUSH2 0x1BE8 SWAP1 PUSH2 0x2DAB JUMP JUMPDEST DUP1 ISZERO PUSH2 0x1C33 JUMPI DUP1 PUSH1 0x1F LT PUSH2 0x1C0A JUMPI PUSH2 0x100 DUP1 DUP4 SLOAD DIV MUL DUP4 MSTORE SWAP2 PUSH1 0x20 ADD SWAP2 PUSH2 0x1C33 JUMP JUMPDEST DUP3 ADD SWAP2 SWAP1 PUSH0 MSTORE PUSH1 0x20 PUSH0 KECCAK256 SWAP1 JUMPDEST DUP2 SLOAD DUP2 MSTORE SWAP1 PUSH1 0x1 ADD SWAP1 PUSH1 0x20 ADD DUP1 DUP4 GT PUSH2 0x1C16 JUMPI DUP3 SWAP1 SUB PUSH1 0x1F AND DUP3 ADD SWAP2 JUMPDEST POP POP POP POP POP SWAP1 DUP1 PUSH1 0x9 ADD DUP1 SLOAD PUSH2 0x1C48 SWAP1 PUSH2 0x2DAB JUMP JUMPDEST DUP1 PUSH1 0x1F ADD PUSH1 0x20 DUP1 SWAP2 DIV MUL PUSH1 0x20 ADD PUSH1 0x40 MLOAD SWAP1 DUP2 ADD PUSH1 0x40 MSTORE DUP1 SWAP3 SWAP2 SWAP1 DUP2 DUP2 MSTORE PUSH1 0x20 ADD DUP3 DUP1 SLOAD PUSH2 0x1C74 SWAP1 PUSH2 0x2DAB JUMP JUMPDEST DUP1 ISZERO PUSH2 0x1CBF JUMPI DUP1 PUSH1 0x1F LT PUSH2 0x1C96 JUMPI PUSH2 0x100 DUP1 DUP4 SLOAD DIV MUL DUP4 MSTORE SWAP2 PUSH1 0x20 ADD SWAP2 PUSH2 0x1CBF JUMP JUMPDEST DUP3 ADD SWAP2 SWAP1 PUSH0 MSTORE PUSH1 0x20 PUSH0 KECCAK256 SWAP1 JUMPDEST DUP2 SLOAD DUP2 MSTORE SWAP1 PUSH1 0x1 ADD SWAP1 PUSH1 0x20 ADD DUP1 DUP4 GT PUSH2 0x1CA2 JUMPI DUP3 SWAP1 SUB PUSH1 0x1F AND DUP3 ADD SWAP2 JUMPDEST POP POP POP POP POP SWAP1 DUP1 PUSH1 0xA ADD DUP1 SLOAD PUSH2 0x1CD4 SWAP1 PUSH2 0x2DAB JUMP JUMPDEST DUP1 PUSH1 0x1F ADD PUSH1 0x20 DUP1 SWAP2 DIV MUL PUSH1 0x20 ADD PUSH1 0x40 MLOAD SWAP1 DUP2 ADD PUSH1 0x40 MSTORE DUP1 SWAP3 SWAP2 SWAP1 DUP2 DUP2 MSTORE PUSH1 0x20 ADD DUP3 DUP1 SLOAD PUSH2 0x1D00 SWAP1 PUSH2 0x2DAB JUMP JUMPDEST DUP1 ISZERO PUSH2 0x1D4B JUMPI DUP1 PUSH1 0x1F LT PUSH2 0x1D22 JUMPI PUSH2 0x100 DUP1 DUP4 SLOAD DIV MUL DUP4 MSTORE SWAP2 PUSH1 0x20 ADD SWAP2 PUSH2 0x1D4B JUMP JUMPDEST DUP3 ADD SWAP2 SWAP1 PUSH0 MSTORE PUSH1 0x20 PUSH0 KECCAK256 SWAP1 JUMPDEST DUP2 SLOAD DUP2 MSTORE SWAP1 PUSH1 0x1 ADD SWAP1 PUSH1 0x20 ADD DUP1 DUP4 GT PUSH2 0x1D2E JUMPI DUP3 SWAP1 SUB PUSH1 0x1F AND DUP3 ADD SWAP2 JUMPDEST POP POP POP POP POP SWAP1 DUP1 PUSH1 0xB ADD SLOAD SWAP1 DUP1 PUSH1 0xC ADD PUSH0 SWAP1 SLOAD SWAP1 PUSH2 0x100 EXP SWAP1 DIV PUSH20 0xFFFFFFFFFFFFFFFFFFFFFFFFFFFFFFFFFFFFFFFF AND SWAP1 POP DUP13 JUMP JUMPDEST PUSH1 0x60 PUSH0 DUP1 PUSH0 DUP5 PUSH20 0xFFFFFFFFFFFFFFFFFFFFFFFFFFFFFFFFFFFFFFFF AND PUSH20 0xFFFFFFFFFFFFFFFFFFFFFFFFFFFFFFFFFFFFFFFF AND DUP2 MSTORE PUSH1 0x20 ADD SWAP1 DUP2 MSTORE PUSH1 0x20 ADD PUSH0 KECCAK256 PUSH1 0x1 ADD SLOAD SWAP1 POP PUSH2 0x1DCE DUP2 PUSH2 0x221B JUMP JUMPDEST PUSH1 0x40 MLOAD PUSH1 0x20 ADD PUSH2 0x1DDE SWAP2 SWAP1 PUSH2 0x347E JUMP JUMPDEST PUSH1 0x40 MLOAD PUSH1 0x20 DUP2 DUP4 SUB SUB DUP2 MSTORE SWAP1 PUSH1 0x40 MSTORE SWAP2 POP POP SWAP2 SWAP1 POP JUMP JUMPDEST PUSH0 DUP1 PUSH0 DUP1 PUSH0 DUP6 PUSH20 0xFFFFFFFFFFFFFFFFFFFFFFFFFFFFFFFFFFFFFFFF AND PUSH20 0xFFFFFFFFFFFFFFFFFFFFFFFFFFFFFFFFFFFFFFFF AND DUP2 MSTORE PUSH1 0x20 ADD SWAP1 DUP2 MSTORE PUSH1 0x20 ADD PUSH0 KECCAK256 PUSH1 0x40 MLOAD DUP1 PUSH2 0x1A0 ADD PUSH1 0x40 MSTORE SWAP1 DUP2 PUSH0 DUP3 ADD PUSH0 SWAP1 SLOAD SWAP1 PUSH2 0x100 EXP SWAP1 DIV PUSH20 0xFFFFFFFFFFFFFFFFFFFFFFFFFFFFFFFFFFFFFFFF AND PUSH20 0xFFFFFFFFFFFFFFFFFFFFFFFFFFFFFFFFFFFFFFFF AND PUSH20 0xFFFFFFFFFFFFFFFFFFFFFFFFFFFFFFFFFFFFFFFF AND DUP2 MSTORE PUSH1 0x20 ADD PUSH1 0x1 DUP3 ADD SLOAD DUP2 MSTORE PUSH1 0x20 ADD PUSH1 0x2 DUP3 ADD SLOAD DUP2 MSTORE PUSH1 0x20 ADD PUSH1 0x3 DUP3 ADD SLOAD DUP2 MSTORE PUSH1 0x20 ADD PUSH1 0x4 DUP3 ADD SLOAD DUP2 MSTORE PUSH1 0x20 ADD PUSH1 0x5 DUP3 ADD SLOAD DUP2 MSTORE PUSH1 0x20 ADD PUSH1 0x6 DUP3 ADD DUP1 SLOAD DUP1 PUSH1 0x20 MUL PUSH1 0x20 ADD PUSH1 0x40 MLOAD SWAP1 DUP2 ADD PUSH1 0x40 MSTORE DUP1 SWAP3 SWAP2 SWAP1 DUP2 DUP2 MSTORE PUSH1 0x20 ADD DUP3 DUP1 SLOAD DUP1 ISZERO PUSH2 0x1F48 JUMPI PUSH1 0x20 MUL DUP3 ADD SWAP2 SWAP1 PUSH0 MSTORE PUSH1 0x20 PUSH0 KECCAK256 SWAP1 JUMPDEST DUP2 PUSH0 SWAP1 SLOAD SWAP1 PUSH2 0x100 EXP SWAP1 DIV PUSH20 0xFFFFFFFFFFFFFFFFFFFFFFFFFFFFFFFFFFFFFFFF AND PUSH20 0xFFFFFFFFFFFFFFFFFFFFFFFFFFFFFFFFFFFFFFFF AND DUP2 MSTORE PUSH1 0x20 ADD SWAP1 PUSH1 0x1 ADD SWAP1 DUP1 DUP4 GT PUSH2 0x1EFF JUMPI JUMPDEST POP POP POP POP POP DUP2 MSTORE PUSH1 0x20 ADD PUSH1 0x7 DUP3 ADD DUP1 SLOAD PUSH2 0x1F61 SWAP1 PUSH2 0x2DAB JUMP JUMPDEST DUP1 PUSH1 0x1F ADD PUSH1 0x20 DUP1 SWAP2 DIV MUL PUSH1 0x20 ADD PUSH1 0x40 MLOAD SWAP1 DUP2 ADD PUSH1 0x40 MSTORE DUP1 SWAP3 SWAP2 SWAP1 DUP2 DUP2 MSTORE PUSH1 0x20 ADD DUP3 DUP1 SLOAD PUSH2 0x1F8D SWAP1 PUSH2 0x2DAB JUMP JUMPDEST DUP1 ISZERO PUSH2 0x1FD8 JUMPI DUP1 PUSH1 0x1F LT PUSH2 0x1FAF JUMPI PUSH2 0x100 DUP1 DUP4 SLOAD DIV MUL DUP4 MSTORE SWAP2 PUSH1 0x20 ADD SWAP2 PUSH2 0x1FD8 JUMP JUMPDEST DUP3 ADD SWAP2 SWAP1 PUSH0 MSTORE PUSH1 0x20 PUSH0 KECCAK256 SWAP1 JUMPDEST DUP2 SLOAD DUP2 MSTORE SWAP1 PUSH1 0x1 ADD SWAP1 PUSH1 0x20 ADD DUP1 DUP4 GT PUSH2 0x1FBB JUMPI DUP3 SWAP1 SUB PUSH1 0x1F AND DUP3 ADD SWAP2 JUMPDEST POP POP POP POP POP DUP2 MSTORE PUSH1 0x20 ADD PUSH1 0x8 DUP3 ADD DUP1 SLOAD PUSH2 0x1FF1 SWAP1 PUSH2 0x2DAB JUMP JUMPDEST DUP1 PUSH1 0x1F ADD PUSH1 0x20 DUP1 SWAP2 DIV MUL PUSH1 0x20 ADD PUSH1 0x40 MLOAD SWAP1 DUP2 ADD PUSH1 0x40 MSTORE DUP1 SWAP3 SWAP2 SWAP1 DUP2 DUP2 MSTORE PUSH1 0x20 ADD DUP3 DUP1 SLOAD PUSH2 0x201D SWAP1 PUSH2 0x2DAB JUMP JUMPDEST DUP1 ISZERO PUSH2 0x2068 JUMPI DUP1 PUSH1 0x1F LT PUSH2 0x203F JUMPI PUSH2 0x100 DUP1 DUP4 SLOAD DIV MUL DUP4 MSTORE SWAP2 PUSH1 0x20 ADD SWAP2 PUSH2 0x2068 JUMP JUMPDEST DUP3 ADD SWAP2 SWAP1 PUSH0 MSTORE PUSH1 0x20 PUSH0 KECCAK256 SWAP1 JUMPDEST DUP2 SLOAD DUP2 MSTORE SWAP1 PUSH1 0x1 ADD SWAP1 PUSH1 0x20 ADD DUP1 DUP4 GT PUSH2 0x204B JUMPI DUP3 SWAP1 SUB PUSH1 0x1F AND DUP3 ADD SWAP2 JUMPDEST POP POP POP POP POP DUP2 MSTORE PUSH1 0x20 ADD PUSH1 0x9 DUP3 ADD DUP1 SLOAD PUSH2 0x2081 SWAP1 PUSH2 0x2DAB JUMP JUMPDEST DUP1 PUSH1 0x1F ADD PUSH1 0x20 DUP1 SWAP2 DIV MUL PUSH1 0x20 ADD PUSH1 0x40 MLOAD SWAP1 DUP2 ADD PUSH1 0x40 MSTORE DUP1 SWAP3 SWAP2 SWAP1 DUP2 DUP2 MSTORE PUSH1 0x20 ADD DUP3 DUP1 SLOAD PUSH2 0x20AD SWAP1 PUSH2 0x2DAB JUMP JUMPDEST DUP1 ISZERO PUSH2 0x20F8 JUMPI DUP1 PUSH1 0x1F LT PUSH2 0x20CF JUMPI PUSH2 0x100 DUP1 DUP4 SLOAD DIV MUL DUP4 MSTORE SWAP2 PUSH1 0x20 ADD SWAP2 PUSH2 0x20F8 JUMP JUMPDEST DUP3 ADD SWAP2 SWAP1 PUSH0 MSTORE PUSH1 0x20 PUSH0 KECCAK256 SWAP1 JUMPDEST DUP2 SLOAD DUP2 MSTORE SWAP1 PUSH1 0x1 ADD SWAP1 PUSH1 0x20 ADD DUP1 DUP4 GT PUSH2 0x20DB JUMPI DUP3 SWAP1 SUB PUSH1 0x1F AND DUP3 ADD SWAP2 JUMPDEST POP POP POP POP POP DUP2 MSTORE PUSH1 0x20 ADD PUSH1 0xA DUP3 ADD DUP1 SLOAD PUSH2 0x2111 SWAP1 PUSH2 0x2DAB JUMP JUMPDEST DUP1 PUSH1 0x1F ADD PUSH1 0x20 DUP1 SWAP2 DIV MUL PUSH1 0x20 ADD PUSH1 0x40 MLOAD SWAP1 DUP2 ADD PUSH1 0x40 MSTORE DUP1 SWAP3 SWAP2 SWAP1 DUP2 DUP2 MSTORE PUSH1 0x20 ADD DUP3 DUP1 SLOAD PUSH2 0x213D SWAP1 PUSH2 0x2DAB JUMP JUMPDEST DUP1 ISZERO PUSH2 0x2188 JUMPI DUP1 PUSH1 0x1F LT PUSH2 0x215F JUMPI PUSH2 0x100 DUP1 DUP4 SLOAD DIV MUL DUP4 MSTORE SWAP2 PUSH1 0x20 ADD SWAP2 PUSH2 0x2188 JUMP JUMPDEST DUP3 ADD SWAP2 SWAP1 PUSH0 MSTORE PUSH1 0x20 PUSH0 KECCAK256 SWAP1 JUMPDEST DUP2 SLOAD DUP2 MSTORE SWAP1 PUSH1 0x1 ADD SWAP1 PUSH1 0x20 ADD DUP1 DUP4 GT PUSH2 0x216B JUMPI DUP3 SWAP1 SUB PUSH1 0x1F AND DUP3 ADD SWAP2 JUMPDEST POP POP POP POP POP DUP2 MSTORE PUSH1 0x20 ADD PUSH1 0xB DUP3 ADD SLOAD DUP2 MSTORE PUSH1 0x20 ADD PUSH1 0xC DUP3 ADD PUSH0 SWAP1 SLOAD SWAP1 PUSH2 0x100 EXP SWAP1 DIV PUSH20 0xFFFFFFFFFFFFFFFFFFFFFFFFFFFFFFFFFFFFFFFF AND PUSH20 0xFFFFFFFFFFFFFFFFFFFFFFFFFFFFFFFFFFFFFFFF AND PUSH20 0xFFFFFFFFFFFFFFFFFFFFFFFFFFFFFFFFFFFFFFFF AND DUP2 MSTORE POP POP SWAP1 POP DUP1 PUSH1 0x60 ADD MLOAD DUP2 PUSH1 0x80 ADD MLOAD SWAP3 POP SWAP3 POP POP SWAP2 POP SWAP2 JUMP JUMPDEST PUSH1 0x2 PUSH1 0x20 MSTORE DUP1 PUSH0 MSTORE PUSH1 0x40 PUSH0 KECCAK256 PUSH0 SWAP2 POP SWAP1 POP SLOAD DUP2 JUMP JUMPDEST PUSH1 0x60 PUSH0 DUP3 SUB PUSH2 0x2261 JUMPI PUSH1 0x40 MLOAD DUP1 PUSH1 0x40 ADD PUSH1 0x40 MSTORE DUP1 PUSH1 0x1 DUP2 MSTORE PUSH1 0x20 ADD PUSH32 0x3000000000000000000000000000000000000000000000000000000000000000 DUP2 MSTORE POP SWAP1 POP PUSH2 0x2427 JUMP JUMPDEST PUSH0 PUSH1 0x4E SWAP1 POP PUSH0 DUP2 PUSH8 0xFFFFFFFFFFFFFFFF DUP2 GT ISZERO PUSH2 0x2281 JUMPI PUSH2 0x2280 PUSH2 0x2551 JUMP JUMPDEST JUMPDEST PUSH1 0x40 MLOAD SWAP1 DUP1 DUP3 MSTORE DUP1 PUSH1 0x1F ADD PUSH1 0x1F NOT AND PUSH1 0x20 ADD DUP3 ADD PUSH1 0x40 MSTORE DUP1 ISZERO PUSH2 0x22B3 JUMPI DUP2 PUSH1 0x20 ADD PUSH1 0x1 DUP3 MUL DUP1 CALLDATASIZE DUP4 CALLDATACOPY DUP1 DUP3 ADD SWAP2 POP POP SWAP1 POP JUMPDEST POP SWAP1 POP PUSH0 JUMPDEST PUSH0 DUP6 EQ PUSH2 0x2341 JUMPI PUSH0 PUSH1 0xA DUP7 PUSH2 0x22CD SWAP2 SWAP1 PUSH2 0x34CC JUMP JUMPDEST SWAP1 POP PUSH1 0xA DUP7 PUSH2 0x22DC SWAP2 SWAP1 PUSH2 0x34FC JUMP JUMPDEST SWAP6 POP DUP1 PUSH1 0x30 PUSH2 0x22EB SWAP2 SWAP1 PUSH2 0x3358 JUMP JUMPDEST PUSH1 0xF8 SHL DUP4 DUP4 DUP1 PUSH2 0x22FA SWAP1 PUSH2 0x3074 JUMP JUMPDEST SWAP5 POP DUP2 MLOAD DUP2 LT PUSH2 0x230D JUMPI PUSH2 0x230C PUSH2 0x352C JUMP JUMPDEST JUMPDEST PUSH1 0x20 ADD ADD SWAP1 PUSH31 0xFFFFFFFFFFFFFFFFFFFFFFFFFFFFFFFFFFFFFFFFFFFFFFFFFFFFFFFFFFFFFF NOT AND SWAP1 DUP2 PUSH0 BYTE SWAP1 MSTORE8 POP POP PUSH2 0x22B8 JUMP JUMPDEST PUSH0 DUP2 PUSH8 0xFFFFFFFFFFFFFFFF DUP2 GT ISZERO PUSH2 0x235C JUMPI PUSH2 0x235B PUSH2 0x2551 JUMP JUMPDEST JUMPDEST PUSH1 0x40 MLOAD SWAP1 DUP1 DUP3 MSTORE DUP1 PUSH1 0x1F ADD PUSH1 0x1F NOT AND PUSH1 0x20 ADD DUP3 ADD PUSH1 0x40 MSTORE DUP1 ISZERO PUSH2 0x238E JUMPI DUP2 PUSH1 0x20 ADD PUSH1 0x1 DUP3 MUL DUP1 CALLDATASIZE DUP4 CALLDATACOPY DUP1 DUP3 ADD SWAP2 POP POP SWAP1 POP JUMPDEST POP SWAP1 POP PUSH0 JUMPDEST DUP3 DUP2 LT ISZERO PUSH2 0x241E JUMPI DUP4 PUSH1 0x1 DUP3 DUP6 PUSH2 0x23AA SWAP2 SWAP1 PUSH2 0x3559 JUMP JUMPDEST PUSH2 0x23B4 SWAP2 SWAP1 PUSH2 0x3559 JUMP JUMPDEST DUP2 MLOAD DUP2 LT PUSH2 0x23C5 JUMPI PUSH2 0x23C4 PUSH2 0x352C JUMP JUMPDEST JUMPDEST PUSH1 0x20 ADD ADD MLOAD PUSH1 0xF8 SHR PUSH1 0xF8 SHL DUP3 DUP3 DUP2 MLOAD DUP2 LT PUSH2 0x23E3 JUMPI PUSH2 0x23E2 PUSH2 0x352C JUMP JUMPDEST JUMPDEST PUSH1 0x20 ADD ADD SWAP1 PUSH31 0xFFFFFFFFFFFFFFFFFFFFFFFFFFFFFFFFFFFFFFFFFFFFFFFFFFFFFFFFFFFFFF NOT AND SWAP1 DUP2 PUSH0 BYTE SWAP1 MSTORE8 POP DUP1 DUP1 PUSH1 0x1 ADD SWAP2 POP POP PUSH2 0x2393 JUMP JUMPDEST POP DUP1 SWAP5 POP POP POP POP POP JUMPDEST SWAP2 SWAP1 POP JUMP JUMPDEST DUP3 DUP1 SLOAD DUP3 DUP3 SSTORE SWAP1 PUSH0 MSTORE PUSH1 0x20 PUSH0 KECCAK256 SWAP1 DUP2 ADD SWAP3 DUP3 ISZERO PUSH2 0x24A2 JUMPI SWAP2 PUSH1 0x20 MUL DUP3 ADD JUMPDEST DUP3 DUP2 GT ISZERO PUSH2 0x24A1 JUMPI DUP3 MLOAD DUP3 PUSH0 PUSH2 0x100 EXP DUP2 SLOAD DUP2 PUSH20 0xFFFFFFFFFFFFFFFFFFFFFFFFFFFFFFFFFFFFFFFF MUL NOT AND SWAP1 DUP4 PUSH20 0xFFFFFFFFFFFFFFFFFFFFFFFFFFFFFFFFFFFFFFFF AND MUL OR SWAP1 SSTORE POP SWAP2 PUSH1 0x20 ADD SWAP2 SWAP1 PUSH1 0x1 ADD SWAP1 PUSH2 0x244A JUMP JUMPDEST JUMPDEST POP SWAP1 POP PUSH2 0x24AF SWAP2 SWAP1 PUSH2 0x24B3 JUMP JUMPDEST POP SWAP1 JUMP JUMPDEST JUMPDEST DUP1 DUP3 GT ISZERO PUSH2 0x24CA JUMPI PUSH0 DUP2 PUSH0 SWAP1 SSTORE POP PUSH1 0x1 ADD PUSH2 0x24B4 JUMP JUMPDEST POP SWAP1 JUMP JUMPDEST PUSH0 PUSH1 0x40 MLOAD SWAP1 POP SWAP1 JUMP JUMPDEST PUSH0 DUP1 REVERT JUMPDEST PUSH0 DUP1 REVERT JUMPDEST PUSH0 PUSH20 0xFFFFFFFFFFFFFFFFFFFFFFFFFFFFFFFFFFFFFFFF DUP3 AND SWAP1 POP SWAP2 SWAP1 POP JUMP JUMPDEST PUSH0 PUSH2 0x2508 DUP3 PUSH2 0x24DF JUMP JUMPDEST SWAP1 POP SWAP2 SWAP1 POP JUMP JUMPDEST PUSH2 0x2518 DUP2 PUSH2 0x24FE JUMP JUMPDEST DUP2 EQ PUSH2 0x2522 JUMPI PUSH0 DUP1 REVERT JUMPDEST POP JUMP JUMPDEST PUSH0 DUP2 CALLDATALOAD SWAP1 POP PUSH2 0x2533 DUP2 PUSH2 0x250F JUMP JUMPDEST SWAP3 SWAP2 POP POP JUMP JUMPDEST PUSH0 DUP1 REVERT JUMPDEST PUSH0 DUP1 REVERT JUMPDEST PUSH0 PUSH1 0x1F NOT PUSH1 0x1F DUP4 ADD AND SWAP1 POP SWAP2 SWAP1 POP JUMP JUMPDEST PUSH32 0x4E487B7100000000000000000000000000000000000000000000000000000000 PUSH0 MSTORE PUSH1 0x41 PUSH1 0x4 MSTORE PUSH1 0x24 PUSH0 REVERT JUMPDEST PUSH2 0x2587 DUP3 PUSH2 0x2541 JUMP JUMPDEST DUP2 ADD DUP2 DUP2 LT PUSH8 0xFFFFFFFFFFFFFFFF DUP3 GT OR ISZERO PUSH2 0x25A6 JUMPI PUSH2 0x25A5 PUSH2 0x2551 JUMP JUMPDEST JUMPDEST DUP1 PUSH1 0x40 MSTORE POP POP POP JUMP JUMPDEST PUSH0 PUSH2 0x25B8 PUSH2 0x24CE JUMP JUMPDEST SWAP1 POP PUSH2 0x25C4 DUP3 DUP3 PUSH2 0x257E JUMP JUMPDEST SWAP2 SWAP1 POP JUMP JUMPDEST PUSH0 PUSH8 0xFFFFFFFFFFFFFFFF DUP3 GT ISZERO PUSH2 0x25E3 JUMPI PUSH2 0x25E2 PUSH2 0x2551 JUMP JUMPDEST JUMPDEST PUSH2 0x25EC DUP3 PUSH2 0x2541 JUMP JUMPDEST SWAP1 POP PUSH1 0x20 DUP2 ADD SWAP1 POP SWAP2 SWAP1 POP JUMP JUMPDEST DUP3 DUP2 DUP4 CALLDATACOPY PUSH0 DUP4 DUP4 ADD MSTORE POP POP POP JUMP JUMPDEST PUSH0 PUSH2 0x2619 PUSH2 0x2614 DUP5 PUSH2 0x25C9 JUMP JUMPDEST PUSH2 0x25AF JUMP JUMPDEST SWAP1 POP DUP3 DUP2 MSTORE PUSH1 0x20 DUP2 ADD DUP5 DUP5 DUP5 ADD GT ISZERO PUSH2 0x2635 JUMPI PUSH2 0x2634 PUSH2 0x253D JUMP JUMPDEST JUMPDEST PUSH2 0x2640 DUP5 DUP3 DUP6 PUSH2 0x25F9 JUMP JUMPDEST POP SWAP4 SWAP3 POP POP POP JUMP JUMPDEST PUSH0 DUP3 PUSH1 0x1F DUP4 ADD SLT PUSH2 0x265C JUMPI PUSH2 0x265B PUSH2 0x2539 JUMP JUMPDEST JUMPDEST DUP2 CALLDATALOAD PUSH2 0x266C DUP5 DUP3 PUSH1 0x20 DUP7 ADD PUSH2 0x2607 JUMP JUMPDEST SWAP2 POP POP SWAP3 SWAP2 POP POP JUMP JUMPDEST PUSH0 DUP1 PUSH0 DUP1 PUSH0 PUSH1 0xA0 DUP7 DUP9 SUB SLT ISZERO PUSH2 0x268E JUMPI PUSH2 0x268D PUSH2 0x24D7 JUMP JUMPDEST JUMPDEST PUSH0 PUSH2 0x269B DUP9 DUP3 DUP10 ADD PUSH2 0x2525 JUMP JUMPDEST SWAP6 POP POP PUSH1 0x20 DUP7 ADD CALLDATALOAD PUSH8 0xFFFFFFFFFFFFFFFF DUP2 GT ISZERO PUSH2 0x26BC JUMPI PUSH2 0x26BB PUSH2 0x24DB JUMP JUMPDEST JUMPDEST PUSH2 0x26C8 DUP9 DUP3 DUP10 ADD PUSH2 0x2648 JUMP JUMPDEST SWAP5 POP POP PUSH1 0x40 DUP7 ADD CALLDATALOAD PUSH8 0xFFFFFFFFFFFFFFFF DUP2 GT ISZERO PUSH2 0x26E9 JUMPI PUSH2 0x26E8 PUSH2 0x24DB JUMP JUMPDEST JUMPDEST PUSH2 0x26F5 DUP9 DUP3 DUP10 ADD PUSH2 0x2648 JUMP JUMPDEST SWAP4 POP POP PUSH1 0x60 DUP7 ADD CALLDATALOAD PUSH8 0xFFFFFFFFFFFFFFFF DUP2 GT ISZERO PUSH2 0x2716 JUMPI PUSH2 0x2715 PUSH2 0x24DB JUMP JUMPDEST JUMPDEST PUSH2 0x2722 DUP9 DUP3 DUP10 ADD PUSH2 0x2648 JUMP JUMPDEST SWAP3 POP POP PUSH1 0x80 DUP7 ADD CALLDATALOAD PUSH8 0xFFFFFFFFFFFFFFFF DUP2 GT ISZERO PUSH2 0x2743 JUMPI PUSH2 0x2742 PUSH2 0x24DB JUMP JUMPDEST JUMPDEST PUSH2 0x274F DUP9 DUP3 DUP10 ADD PUSH2 0x2648 JUMP JUMPDEST SWAP2 POP POP SWAP3 SWAP6 POP SWAP3 SWAP6 SWAP1 SWAP4 POP JUMP JUMPDEST PUSH0 PUSH1 0xFF DUP3 AND SWAP1 POP SWAP2 SWAP1 POP JUMP JUMPDEST PUSH2 0x2771 DUP2 PUSH2 0x275C JUMP JUMPDEST DUP3 MSTORE POP POP JUMP JUMPDEST PUSH0 PUSH1 0x20 DUP3 ADD SWAP1 POP PUSH2 0x278A PUSH0 DUP4 ADD DUP5 PUSH2 0x2768 JUMP JUMPDEST SWAP3 SWAP2 POP POP JUMP JUMPDEST PUSH0 DUP2 SWAP1 POP SWAP2 SWAP1 POP JUMP JUMPDEST PUSH2 0x27A2 DUP2 PUSH2 0x2790 JUMP JUMPDEST DUP2 EQ PUSH2 0x27AC JUMPI PUSH0 DUP1 REVERT JUMPDEST POP JUMP JUMPDEST PUSH0 DUP2 CALLDATALOAD SWAP1 POP PUSH2 0x27BD DUP2 PUSH2 0x2799 JUMP JUMPDEST SWAP3 SWAP2 POP POP JUMP JUMPDEST PUSH0 PUSH1 0x20 DUP3 DUP5 SUB SLT ISZERO PUSH2 0x27D8 JUMPI PUSH2 0x27D7 PUSH2 0x24D7 JUMP JUMPDEST JUMPDEST PUSH0 PUSH2 0x27E5 DUP5 DUP3 DUP6 ADD PUSH2 0x27AF JUMP JUMPDEST SWAP2 POP POP SWAP3 SWAP2 POP POP JUMP JUMPDEST PUSH2 0x27F7 DUP2 PUSH2 0x24FE JUMP JUMPDEST DUP3 MSTORE POP POP JUMP JUMPDEST PUSH0 PUSH1 0x20 DUP3 ADD SWAP1 POP PUSH2 0x2810 PUSH0 DUP4 ADD DUP5 PUSH2 0x27EE JUMP JUMPDEST SWAP3 SWAP2 POP POP JUMP JUMPDEST PUSH0 DUP1 PUSH0 DUP1 PUSH0 DUP1 PUSH0 PUSH1 0xE0 DUP9 DUP11 SUB SLT ISZERO PUSH2 0x2831 JUMPI PUSH2 0x2830 PUSH2 0x24D7 JUMP JUMPDEST JUMPDEST PUSH0 PUSH2 0x283E DUP11 DUP3 DUP12 ADD PUSH2 0x2525 JUMP JUMPDEST SWAP8 POP POP PUSH1 0x20 DUP9 ADD CALLDATALOAD PUSH8 0xFFFFFFFFFFFFFFFF DUP2 GT ISZERO PUSH2 0x285F JUMPI PUSH2 0x285E PUSH2 0x24DB JUMP JUMPDEST JUMPDEST PUSH2 0x286B DUP11 DUP3 DUP12 ADD PUSH2 0x2648 JUMP JUMPDEST SWAP7 POP POP PUSH1 0x40 DUP9 ADD CALLDATALOAD PUSH8 0xFFFFFFFFFFFFFFFF DUP2 GT ISZERO PUSH2 0x288C JUMPI PUSH2 0x288B PUSH2 0x24DB JUMP JUMPDEST JUMPDEST PUSH2 0x2898 DUP11 DUP3 DUP12 ADD PUSH2 0x2648 JUMP JUMPDEST SWAP6 POP POP PUSH1 0x60 DUP9 ADD CALLDATALOAD PUSH8 0xFFFFFFFFFFFFFFFF DUP2 GT ISZERO PUSH2 0x28B9 JUMPI PUSH2 0x28B8 PUSH2 0x24DB JUMP JUMPDEST JUMPDEST PUSH2 0x28C5 DUP11 DUP3 DUP12 ADD PUSH2 0x2648 JUMP JUMPDEST SWAP5 POP POP PUSH1 0x80 DUP9 ADD CALLDATALOAD PUSH8 0xFFFFFFFFFFFFFFFF DUP2 GT ISZERO PUSH2 0x28E6 JUMPI PUSH2 0x28E5 PUSH2 0x24DB JUMP JUMPDEST JUMPDEST PUSH2 0x28F2 DUP11 DUP3 DUP12 ADD PUSH2 0x2648 JUMP JUMPDEST SWAP4 POP POP PUSH1 0xA0 DUP9 ADD CALLDATALOAD PUSH8 0xFFFFFFFFFFFFFFFF DUP2 GT ISZERO PUSH2 0x2913 JUMPI PUSH2 0x2912 PUSH2 0x24DB JUMP JUMPDEST JUMPDEST PUSH2 0x291F DUP11 DUP3 DUP12 ADD PUSH2 0x2648 JUMP JUMPDEST SWAP3 POP POP PUSH1 0xC0 PUSH2 0x2930 DUP11 DUP3 DUP12 ADD PUSH2 0x2525 JUMP JUMPDEST SWAP2 POP POP SWAP3 SWAP6 SWAP9 SWAP2 SWAP5 SWAP8 POP SWAP3 SWAP6 POP JUMP JUMPDEST PUSH2 0x2948 DUP2 PUSH2 0x2790 JUMP JUMPDEST DUP3 MSTORE POP POP JUMP JUMPDEST PUSH0 PUSH1 0x20 DUP3 ADD SWAP1 POP PUSH2 0x2961 PUSH0 DUP4 ADD DUP5 PUSH2 0x293F JUMP JUMPDEST SWAP3 SWAP2 POP POP JUMP JUMPDEST PUSH0 PUSH1 0x20 DUP3 DUP5 SUB SLT ISZERO PUSH2 0x297C JUMPI PUSH2 0x297B PUSH2 0x24D7 JUMP JUMPDEST JUMPDEST PUSH0 PUSH2 0x2989 DUP5 DUP3 DUP6 ADD PUSH2 0x2525 JUMP JUMPDEST SWAP2 POP POP SWAP3 SWAP2 POP POP JUMP JUMPDEST PUSH0 DUP2 MLOAD SWAP1 POP SWAP2 SWAP1 POP JUMP JUMPDEST PUSH0 DUP3 DUP3 MSTORE PUSH1 0x20 DUP3 ADD SWAP1 POP SWAP3 SWAP2 POP POP JUMP JUMPDEST PUSH0 DUP2 SWAP1 POP PUSH1 0x20 DUP3 ADD SWAP1 POP SWAP2 SWAP1 POP JUMP JUMPDEST PUSH2 0x29C4 DUP2 PUSH2 0x24FE JUMP JUMPDEST DUP3 MSTORE POP POP JUMP JUMPDEST PUSH0 PUSH2 0x29D5 DUP4 DUP4 PUSH2 0x29BB JUMP JUMPDEST PUSH1 0x20 DUP4 ADD SWAP1 POP SWAP3 SWAP2 POP POP JUMP JUMPDEST PUSH0 PUSH1 0x20 DUP3 ADD SWAP1 POP SWAP2 SWAP1 POP JUMP JUMPDEST PUSH0 PUSH2 0x29F7 DUP3 PUSH2 0x2992 JUMP JUMPDEST PUSH2 0x2A01 DUP2 DUP6 PUSH2 0x299C JUMP JUMPDEST SWAP4 POP PUSH2 0x2A0C DUP4 PUSH2 0x29AC JUMP JUMPDEST DUP1 PUSH0 JUMPDEST DUP4 DUP2 LT ISZERO PUSH2 0x2A3C JUMPI DUP2 MLOAD PUSH2 0x2A23 DUP9 DUP3 PUSH2 0x29CA JUMP JUMPDEST SWAP8 POP PUSH2 0x2A2E DUP4 PUSH2 0x29E1 JUMP JUMPDEST SWAP3 POP POP PUSH1 0x1 DUP2 ADD SWAP1 POP PUSH2 0x2A0F JUMP JUMPDEST POP DUP6 SWAP4 POP POP POP POP SWAP3 SWAP2 POP POP JUMP JUMPDEST PUSH0 PUSH1 0x20 DUP3 ADD SWAP1 POP DUP2 DUP2 SUB PUSH0 DUP4 ADD MSTORE PUSH2 0x2A61 DUP2 DUP5 PUSH2 0x29ED JUMP JUMPDEST SWAP1 POP SWAP3 SWAP2 POP POP JUMP JUMPDEST PUSH0 DUP2 MLOAD SWAP1 POP SWAP2 SWAP1 POP JUMP JUMPDEST PUSH0 DUP3 DUP3 MSTORE PUSH1 0x20 DUP3 ADD SWAP1 POP SWAP3 SWAP2 POP POP JUMP JUMPDEST DUP3 DUP2 DUP4 MCOPY PUSH0 DUP4 DUP4 ADD MSTORE POP POP POP JUMP JUMPDEST PUSH0 PUSH2 0x2A9B DUP3 PUSH2 0x2A69 JUMP JUMPDEST PUSH2 0x2AA5 DUP2 DUP6 PUSH2 0x2A73 JUMP JUMPDEST SWAP4 POP PUSH2 0x2AB5 DUP2 DUP6 PUSH1 0x20 DUP7 ADD PUSH2 0x2A83 JUMP JUMPDEST PUSH2 0x2ABE DUP2 PUSH2 0x2541 JUMP JUMPDEST DUP5 ADD SWAP2 POP POP SWAP3 SWAP2 POP POP JUMP JUMPDEST PUSH0 PUSH2 0x160 DUP3 ADD SWAP1 POP PUSH2 0x2ADD PUSH0 DUP4 ADD DUP15 PUSH2 0x27EE JUMP JUMPDEST PUSH2 0x2AEA PUSH1 0x20 DUP4 ADD DUP14 PUSH2 0x293F JUMP JUMPDEST PUSH2 0x2AF7 PUSH1 0x40 DUP4 ADD DUP13 PUSH2 0x293F JUMP JUMPDEST PUSH2 0x2B04 PUSH1 0x60 DUP4 ADD DUP12 PUSH2 0x293F JUMP JUMPDEST PUSH2 0x2B11 PUSH1 0x80 DUP4 ADD DUP11 PUSH2 0x293F JUMP JUMPDEST PUSH2 0x2B1E PUSH1 0xA0 DUP4 ADD DUP10 PUSH2 0x293F JUMP JUMPDEST DUP2 DUP2 SUB PUSH1 0xC0 DUP4 ADD MSTORE PUSH2 0x2B30 DUP2 DUP9 PUSH2 0x2A91 JUMP JUMPDEST SWAP1 POP DUP2 DUP2 SUB PUSH1 0xE0 DUP4 ADD MSTORE PUSH2 0x2B44 DUP2 DUP8 PUSH2 0x2A91 JUMP JUMPDEST SWAP1 POP DUP2 DUP2 SUB PUSH2 0x100 DUP4 ADD MSTORE PUSH2 0x2B59 DUP2 DUP7 PUSH2 0x2A91 JUMP JUMPDEST SWAP1 POP DUP2 DUP2 SUB PUSH2 0x120 DUP4 ADD MSTORE PUSH2 0x2B6E DUP2 DUP6 PUSH2 0x2A91 JUMP JUMPDEST SWAP1 POP PUSH2 0x2B7E PUSH2 0x140 DUP4 ADD DUP5 PUSH2 0x27EE JUMP JUMPDEST SWAP13 SWAP12 POP POP POP POP POP POP POP POP POP POP POP POP JUMP JUMPDEST PUSH2 0x2B97 DUP2 PUSH2 0x275C JUMP JUMPDEST DUP2 EQ PUSH2 0x2BA1 JUMPI PUSH0 DUP1 REVERT JUMPDEST POP JUMP JUMPDEST PUSH0 DUP2 CALLDATALOAD SWAP1 POP PUSH2 0x2BB2 DUP2 PUSH2 0x2B8E JUMP JUMPDEST SWAP3 SWAP2 POP POP JUMP JUMPDEST PUSH0 PUSH1 0x20 DUP3 DUP5 SUB SLT ISZERO PUSH2 0x2BCD JUMPI PUSH2 0x2BCC PUSH2 0x24D7 JUMP JUMPDEST JUMPDEST PUSH0 PUSH2 0x2BDA DUP5 DUP3 DUP6 ADD PUSH2 0x2BA4 JUMP JUMPDEST SWAP2 POP POP SWAP3 SWAP2 POP POP JUMP JUMPDEST PUSH0 DUP2 SWAP1 POP SWAP2 SWAP1 POP JUMP JUMPDEST PUSH2 0x2BF5 DUP2 PUSH2 0x2BE3 JUMP JUMPDEST DUP3 MSTORE POP POP JUMP JUMPDEST PUSH0 PUSH2 0x180 DUP3 ADD SWAP1 POP PUSH2 0x2C0F PUSH0 DUP4 ADD DUP16 PUSH2 0x27EE JUMP JUMPDEST PUSH2 0x2C1C PUSH1 0x20 DUP4 ADD DUP15 PUSH2 0x293F JUMP JUMPDEST PUSH2 0x2C29 PUSH1 0x40 DUP4 ADD DUP14 PUSH2 0x293F JUMP JUMPDEST PUSH2 0x2C36 PUSH1 0x60 DUP4 ADD DUP13 PUSH2 0x293F JUMP JUMPDEST PUSH2 0x2C43 PUSH1 0x80 DUP4 ADD DUP12 PUSH2 0x293F JUMP JUMPDEST PUSH2 0x2C50 PUSH1 0xA0 DUP4 ADD DUP11 PUSH2 0x293F JUMP JUMPDEST DUP2 DUP2 SUB PUSH1 0xC0 DUP4 ADD MSTORE PUSH2 0x2C62 DUP2 DUP10 PUSH2 0x2A91 JUMP JUMPDEST SWAP1 POP DUP2 DUP2 SUB PUSH1 0xE0 DUP4 ADD MSTORE PUSH2 0x2C76 DUP2 DUP9 PUSH2 0x2A91 JUMP JUMPDEST SWAP1 POP DUP2 DUP2 SUB PUSH2 0x100 DUP4 ADD MSTORE PUSH2 0x2C8B DUP2 DUP8 PUSH2 0x2A91 JUMP JUMPDEST SWAP1 POP DUP2 DUP2 SUB PUSH2 0x120 DUP4 ADD MSTORE PUSH2 0x2CA0 DUP2 DUP7 PUSH2 0x2A91 JUMP JUMPDEST SWAP1 POP PUSH2 0x2CB0 PUSH2 0x140 DUP4 ADD DUP6 PUSH2 0x2BEC JUMP JUMPDEST PUSH2 0x2CBE PUSH2 0x160 DUP4 ADD DUP5 PUSH2 0x27EE JUMP JUMPDEST SWAP14 SWAP13 POP POP POP POP POP POP POP POP POP POP POP POP POP JUMP JUMPDEST PUSH0 PUSH1 0x20 DUP3 ADD SWAP1 POP DUP2 DUP2 SUB PUSH0 DUP4 ADD MSTORE PUSH2 0x2CE7 DUP2 DUP5 PUSH2 0x2A91 JUMP JUMPDEST SWAP1 POP SWAP3 SWAP2 POP POP JUMP JUMPDEST PUSH0 PUSH1 0x40 DUP3 ADD SWAP1 POP PUSH2 0x2D02 PUSH0 DUP4 ADD DUP6 PUSH2 0x293F JUMP JUMPDEST PUSH2 0x2D0F PUSH1 0x20 DUP4 ADD DUP5 PUSH2 0x293F JUMP JUMPDEST SWAP4 SWAP3 POP POP POP JUMP JUMPDEST PUSH32 0x55706C696E6520616C7265616479207265676973746572656400000000000000 PUSH0 DUP3 ADD MSTORE POP JUMP JUMPDEST PUSH0 PUSH2 0x2D4A PUSH1 0x19 DUP4 PUSH2 0x2A73 JUMP JUMPDEST SWAP2 POP PUSH2 0x2D55 DUP3 PUSH2 0x2D16 JUMP JUMPDEST PUSH1 0x20 DUP3 ADD SWAP1 POP SWAP2 SWAP1 POP JUMP JUMPDEST PUSH0 PUSH1 0x20 DUP3 ADD SWAP1 POP DUP2 DUP2 SUB PUSH0 DUP4 ADD MSTORE PUSH2 0x2D77 DUP2 PUSH2 0x2D3E JUMP JUMPDEST SWAP1 POP SWAP2 SWAP1 POP JUMP JUMPDEST PUSH32 0x4E487B7100000000000000000000000000000000000000000000000000000000 PUSH0 MSTORE PUSH1 0x22 PUSH1 0x4 MSTORE PUSH1 0x24 PUSH0 REVERT JUMPDEST PUSH0 PUSH1 0x2 DUP3 DIV SWAP1 POP PUSH1 0x1 DUP3 AND DUP1 PUSH2 0x2DC2 JUMPI PUSH1 0x7F DUP3 AND SWAP2 POP JUMPDEST PUSH1 0x20 DUP3 LT DUP2 SUB PUSH2 0x2DD5 JUMPI PUSH2 0x2DD4 PUSH2 0x2D7E JUMP JUMPDEST JUMPDEST POP SWAP2 SWAP1 POP JUMP JUMPDEST PUSH0 DUP2 SWAP1 POP DUP2 PUSH0 MSTORE PUSH1 0x20 PUSH0 KECCAK256 SWAP1 POP SWAP2 SWAP1 POP JUMP JUMPDEST PUSH0 PUSH1 0x20 PUSH1 0x1F DUP4 ADD DIV SWAP1 POP SWAP2 SWAP1 POP JUMP JUMPDEST PUSH0 DUP3 DUP3 SHL SWAP1 POP SWAP3 SWAP2 POP POP JUMP JUMPDEST PUSH0 PUSH1 0x8 DUP4 MUL PUSH2 0x2E37 PUSH32 0xFFFFFFFFFFFFFFFFFFFFFFFFFFFFFFFFFFFFFFFFFFFFFFFFFFFFFFFFFFFFFFFF DUP3 PUSH2 0x2DFC JUMP JUMPDEST PUSH2 0x2E41 DUP7 DUP4 PUSH2 0x2DFC JUMP JUMPDEST SWAP6 POP DUP1 NOT DUP5 AND SWAP4 POP DUP1 DUP7 AND DUP5 OR SWAP3 POP POP POP SWAP4 SWAP3 POP POP POP JUMP JUMPDEST PUSH0 DUP2 SWAP1 POP SWAP2 SWAP1 POP JUMP JUMPDEST PUSH0 PUSH2 0x2E7C PUSH2 0x2E77 PUSH2 0x2E72 DUP5 PUSH2 0x2790 JUMP JUMPDEST PUSH2 0x2E59 JUMP JUMPDEST PUSH2 0x2790 JUMP JUMPDEST SWAP1 POP SWAP2 SWAP1 POP JUMP JUMPDEST PUSH0 DUP2 SWAP1 POP SWAP2 SWAP1 POP JUMP JUMPDEST PUSH2 0x2E95 DUP4 PUSH2 0x2E62 JUMP JUMPDEST PUSH2 0x2EA9 PUSH2 0x2EA1 DUP3 PUSH2 0x2E83 JUMP JUMPDEST DUP5 DUP5 SLOAD PUSH2 0x2E08 JUMP JUMPDEST DUP3 SSTORE POP POP POP POP JUMP JUMPDEST PUSH0 SWAP1 JUMP JUMPDEST PUSH2 0x2EBD PUSH2 0x2EB1 JUMP JUMPDEST PUSH2 0x2EC8 DUP2 DUP5 DUP5 PUSH2 0x2E8C JUMP JUMPDEST POP POP POP JUMP JUMPDEST JUMPDEST DUP2 DUP2 LT ISZERO PUSH2 0x2EEB JUMPI PUSH2 0x2EE0 PUSH0 DUP3 PUSH2 0x2EB5 JUMP JUMPDEST PUSH1 0x1 DUP2 ADD SWAP1 POP PUSH2 0x2ECE JUMP JUMPDEST POP POP JUMP JUMPDEST PUSH1 0x1F DUP3 GT ISZERO PUSH2 0x2F30 JUMPI PUSH2 0x2F01 DUP2 PUSH2 0x2DDB JUMP JUMPDEST PUSH2 0x2F0A DUP5 PUSH2 0x2DED JUMP JUMPDEST DUP2 ADD PUSH1 0x20 DUP6 LT ISZERO PUSH2 0x2F19 JUMPI DUP2 SWAP1 POP JUMPDEST PUSH2 0x2F2D PUSH2 0x2F25 DUP6 PUSH2 0x2DED JUMP JUMPDEST DUP4 ADD DUP3 PUSH2 0x2ECD JUMP JUMPDEST POP POP JUMPDEST POP POP POP JUMP JUMPDEST PUSH0 DUP3 DUP3 SHR SWAP1 POP SWAP3 SWAP2 POP POP JUMP JUMPDEST PUSH0 PUSH2 0x2F50 PUSH0 NOT DUP5 PUSH1 0x8 MUL PUSH2 0x2F35 JUMP JUMPDEST NOT DUP1 DUP4 AND SWAP2 POP POP SWAP3 SWAP2 POP POP JUMP JUMPDEST PUSH0 PUSH2 0x2F68 DUP4 DUP4 PUSH2 0x2F41 JUMP JUMPDEST SWAP2 POP DUP3 PUSH1 0x2 MUL DUP3 OR SWAP1 POP SWAP3 SWAP2 POP POP JUMP JUMPDEST PUSH2 0x2F81 DUP3 PUSH2 0x2A69 JUMP JUMPDEST PUSH8 0xFFFFFFFFFFFFFFFF DUP2 GT ISZERO PUSH2 0x2F9A JUMPI PUSH2 0x2F99 PUSH2 0x2551 JUMP JUMPDEST JUMPDEST PUSH2 0x2FA4 DUP3 SLOAD PUSH2 0x2DAB JUMP JUMPDEST PUSH2 0x2FAF DUP3 DUP3 DUP6 PUSH2 0x2EEF JUMP JUMPDEST PUSH0 PUSH1 0x20 SWAP1 POP PUSH1 0x1F DUP4 GT PUSH1 0x1 DUP2 EQ PUSH2 0x2FE0 JUMPI PUSH0 DUP5 ISZERO PUSH2 0x2FCE JUMPI DUP3 DUP8 ADD MLOAD SWAP1 POP JUMPDEST PUSH2 0x2FD8 DUP6 DUP3 PUSH2 0x2F5D JUMP JUMPDEST DUP7 SSTORE POP PUSH2 0x303F JUMP JUMPDEST PUSH1 0x1F NOT DUP5 AND PUSH2 0x2FEE DUP7 PUSH2 0x2DDB JUMP JUMPDEST PUSH0 JUMPDEST DUP3 DUP2 LT ISZERO PUSH2 0x3015 JUMPI DUP5 DUP10 ADD MLOAD DUP3 SSTORE PUSH1 0x1 DUP3 ADD SWAP2 POP PUSH1 0x20 DUP6 ADD SWAP5 POP PUSH1 0x20 DUP2 ADD SWAP1 POP PUSH2 0x2FF0 JUMP JUMPDEST DUP7 DUP4 LT ISZERO PUSH2 0x3032 JUMPI DUP5 DUP10 ADD MLOAD PUSH2 0x302E PUSH1 0x1F DUP10 AND DUP3 PUSH2 0x2F41 JUMP JUMPDEST DUP4 SSTORE POP JUMPDEST PUSH1 0x1 PUSH1 0x2 DUP9 MUL ADD DUP9 SSTORE POP POP POP JUMPDEST POP POP POP POP POP POP JUMP JUMPDEST PUSH32 0x4E487B7100000000000000000000000000000000000000000000000000000000 PUSH0 MSTORE PUSH1 0x11 PUSH1 0x4 MSTORE PUSH1 0x24 PUSH0 REVERT JUMPDEST PUSH0 PUSH2 0x307E DUP3 PUSH2 0x2790 JUMP JUMPDEST SWAP2 POP PUSH32 0xFFFFFFFFFFFFFFFFFFFFFFFFFFFFFFFFFFFFFFFFFFFFFFFFFFFFFFFFFFFFFFFF DUP3 SUB PUSH2 0x30B0 JUMPI PUSH2 0x30AF PUSH2 0x3047 JUMP JUMPDEST JUMPDEST PUSH1 0x1 DUP3 ADD SWAP1 POP SWAP2 SWAP1 POP JUMP JUMPDEST PUSH0 DUP2 SWAP1 POP SWAP2 SWAP1 POP JUMP JUMPDEST PUSH0 PUSH2 0x30DE PUSH2 0x30D9 PUSH2 0x30D4 DUP5 PUSH2 0x30BB JUMP JUMPDEST PUSH2 0x2E59 JUMP JUMPDEST PUSH2 0x2790 JUMP JUMPDEST SWAP1 POP SWAP2 SWAP1 POP JUMP JUMPDEST PUSH2 0x30EE DUP2 PUSH2 0x30C4 JUMP JUMPDEST DUP3 MSTORE POP POP JUMP JUMPDEST PUSH0 PUSH1 0x40 DUP3 ADD SWAP1 POP PUSH2 0x3107 PUSH0 DUP4 ADD DUP6 PUSH2 0x293F JUMP JUMPDEST PUSH2 0x3114 PUSH1 0x20 DUP4 ADD DUP5 PUSH2 0x30E5 JUMP JUMPDEST SWAP4 SWAP3 POP POP POP JUMP JUMPDEST PUSH32 0x55706C696E6520646F6573206E6F742065786973740000000000000000000000 PUSH0 DUP3 ADD MSTORE POP JUMP JUMPDEST PUSH0 PUSH2 0x314F PUSH1 0x15 DUP4 PUSH2 0x2A73 JUMP JUMPDEST SWAP2 POP PUSH2 0x315A DUP3 PUSH2 0x311B JUMP JUMPDEST PUSH1 0x20 DUP3 ADD SWAP1 POP SWAP2 SWAP1 POP JUMP JUMPDEST PUSH0 PUSH1 0x20 DUP3 ADD SWAP1 POP DUP2 DUP2 SUB PUSH0 DUP4 ADD MSTORE PUSH2 0x317C DUP2 PUSH2 0x3143 JUMP JUMPDEST SWAP1 POP SWAP2 SWAP1 POP JUMP JUMPDEST PUSH0 DUP2 SWAP1 POP SWAP3 SWAP2 POP POP JUMP JUMPDEST PUSH0 PUSH2 0x3197 DUP3 PUSH2 0x2A69 JUMP JUMPDEST PUSH2 0x31A1 DUP2 DUP6 PUSH2 0x3183 JUMP JUMPDEST SWAP4 POP PUSH2 0x31B1 DUP2 DUP6 PUSH1 0x20 DUP7 ADD PUSH2 0x2A83 JUMP JUMPDEST DUP1 DUP5 ADD SWAP2 POP POP SWAP3 SWAP2 POP POP JUMP JUMPDEST PUSH0 PUSH2 0x31C8 DUP3 DUP5 PUSH2 0x318D JUMP JUMPDEST SWAP2 POP DUP2 SWAP1 POP SWAP3 SWAP2 POP POP JUMP JUMPDEST PUSH32 0x496E76616C6964206C6576656C00000000000000000000000000000000000000 PUSH0 DUP3 ADD MSTORE POP JUMP JUMPDEST PUSH0 PUSH2 0x3207 PUSH1 0xD DUP4 PUSH2 0x2A73 JUMP JUMPDEST SWAP2 POP PUSH2 0x3212 DUP3 PUSH2 0x31D3 JUMP JUMPDEST PUSH1 0x20 DUP3 ADD SWAP1 POP SWAP2 SWAP1 POP JUMP JUMPDEST PUSH0 PUSH1 0x20 DUP3 ADD SWAP1 POP DUP2 DUP2 SUB PUSH0 DUP4 ADD MSTORE PUSH2 0x3234 DUP2 PUSH2 0x31FB JUMP JUMPDEST SWAP1 POP SWAP2 SWAP1 POP JUMP JUMPDEST PUSH32 0x43616E6E6F7420646F776E6772616465206F7220737461792061742074686520 PUSH0 DUP3 ADD MSTORE PUSH32 0x73616D65206C6576656C00000000000000000000000000000000000000000000 PUSH1 0x20 DUP3 ADD MSTORE POP JUMP JUMPDEST PUSH0 PUSH2 0x3295 PUSH1 0x2A DUP4 PUSH2 0x2A73 JUMP JUMPDEST SWAP2 POP PUSH2 0x32A0 DUP3 PUSH2 0x323B JUMP JUMPDEST PUSH1 0x40 DUP3 ADD SWAP1 POP SWAP2 SWAP1 POP JUMP JUMPDEST PUSH0 PUSH1 0x20 DUP3 ADD SWAP1 POP DUP2 DUP2 SUB PUSH0 DUP4 ADD MSTORE PUSH2 0x32C2 DUP2 PUSH2 0x3289 JUMP JUMPDEST SWAP1 POP SWAP2 SWAP1 POP JUMP JUMPDEST PUSH0 PUSH1 0x40 DUP3 ADD SWAP1 POP PUSH2 0x32DC PUSH0 DUP4 ADD DUP6 PUSH2 0x2768 JUMP JUMPDEST PUSH2 0x32E9 PUSH1 0x20 DUP4 ADD DUP5 PUSH2 0x293F JUMP JUMPDEST SWAP4 SWAP3 POP POP POP JUMP JUMPDEST PUSH32 0x496E73756666696369656E7420636F6E74726163742062616C616E6365000000 PUSH0 DUP3 ADD MSTORE POP JUMP JUMPDEST PUSH0 PUSH2 0x3324 PUSH1 0x1D DUP4 PUSH2 0x2A73 JUMP JUMPDEST SWAP2 POP PUSH2 0x332F DUP3 PUSH2 0x32F0 JUMP JUMPDEST PUSH1 0x20 DUP3 ADD SWAP1 POP SWAP2 SWAP1 POP JUMP JUMPDEST PUSH0 PUSH1 0x20 DUP3 ADD SWAP1 POP DUP2 DUP2 SUB PUSH0 DUP4 ADD MSTORE PUSH2 0x3351 DUP2 PUSH2 0x3318 JUMP JUMPDEST SWAP1 POP SWAP2 SWAP1 POP JUMP JUMPDEST PUSH0 PUSH2 0x3362 DUP3 PUSH2 0x2790 JUMP JUMPDEST SWAP2 POP PUSH2 0x336D DUP4 PUSH2 0x2790 JUMP JUMPDEST SWAP3 POP DUP3 DUP3 ADD SWAP1 POP DUP1 DUP3 GT ISZERO PUSH2 0x3385 JUMPI PUSH2 0x3384 PUSH2 0x3047 JUMP JUMPDEST JUMPDEST SWAP3 SWAP2 POP POP JUMP JUMPDEST PUSH0 DUP2 SWAP1 POP SWAP3 SWAP2 POP POP JUMP JUMPDEST POP JUMP JUMPDEST PUSH0 PUSH2 0x33A3 PUSH0 DUP4 PUSH2 0x338B JUMP JUMPDEST SWAP2 POP PUSH2 0x33AE DUP3 PUSH2 0x3395 JUMP JUMPDEST PUSH0 DUP3 ADD SWAP1 POP SWAP2 SWAP1 POP JUMP JUMPDEST PUSH0 PUSH2 0x33C2 DUP3 PUSH2 0x3398 JUMP JUMPDEST SWAP2 POP DUP2 SWAP1 POP SWAP2 SWAP1 POP JUMP JUMPDEST PUSH32 0x5472616E73666572206661696C65640000000000000000000000000000000000 PUSH0 DUP3 ADD MSTORE POP JUMP JUMPDEST PUSH0 PUSH2 0x3400 PUSH1 0xF DUP4 PUSH2 0x2A73 JUMP JUMPDEST SWAP2 POP PUSH2 0x340B DUP3 PUSH2 0x33CC JUMP JUMPDEST PUSH1 0x20 DUP3 ADD SWAP1 POP SWAP2 SWAP1 POP JUMP JUMPDEST PUSH0 PUSH1 0x20 DUP3 ADD SWAP1 POP DUP2 DUP2 SUB PUSH0 DUP4 ADD MSTORE PUSH2 0x342D DUP2 PUSH2 0x33F4 JUMP JUMPDEST SWAP1 POP SWAP2 SWAP1 POP JUMP JUMPDEST PUSH32 0x68747470733A2F2F6578616D706C652E636F6D2F726566657272616C2F000000 PUSH0 DUP3 ADD MSTORE POP JUMP JUMPDEST PUSH0 PUSH2 0x3468 PUSH1 0x1D DUP4 PUSH2 0x3183 JUMP JUMPDEST SWAP2 POP PUSH2 0x3473 DUP3 PUSH2 0x3434 JUMP JUMPDEST PUSH1 0x1D DUP3 ADD SWAP1 POP SWAP2 SWAP1 POP JUMP JUMPDEST PUSH0 PUSH2 0x3488 DUP3 PUSH2 0x345C JUMP JUMPDEST SWAP2 POP PUSH2 0x3494 DUP3 DUP5 PUSH2 0x318D JUMP JUMPDEST SWAP2 POP DUP2 SWAP1 POP SWAP3 SWAP2 POP POP JUMP JUMPDEST PUSH32 0x4E487B7100000000000000000000000000000000000000000000000000000000 PUSH0 MSTORE PUSH1 0x12 PUSH1 0x4 MSTORE PUSH1 0x24 PUSH0 REVERT JUMPDEST PUSH0 PUSH2 0x34D6 DUP3 PUSH2 0x2790 JUMP JUMPDEST SWAP2 POP PUSH2 0x34E1 DUP4 PUSH2 0x2790 JUMP JUMPDEST SWAP3 POP DUP3 PUSH2 0x34F1 JUMPI PUSH2 0x34F0 PUSH2 0x349F JUMP JUMPDEST JUMPDEST DUP3 DUP3 MOD SWAP1 POP SWAP3 SWAP2 POP POP JUMP JUMPDEST PUSH0 PUSH2 0x3506 DUP3 PUSH2 0x2790 JUMP JUMPDEST SWAP2 POP PUSH2 0x3511 DUP4 PUSH2 0x2790 JUMP JUMPDEST SWAP3 POP DUP3 PUSH2 0x3521 JUMPI PUSH2 0x3520 PUSH2 0x349F JUMP JUMPDEST JUMPDEST DUP3 DUP3 DIV SWAP1 POP SWAP3 SWAP2 POP POP JUMP JUMPDEST PUSH32 0x4E487B7100000000000000000000000000000000000000000000000000000000 PUSH0 MSTORE PUSH1 0x32 PUSH1 0x4 MSTORE PUSH1 0x24 PUSH0 REVERT JUMPDEST PUSH0 PUSH2 0x3563 DUP3 PUSH2 0x2790 JUMP JUMPDEST SWAP2 POP PUSH2 0x356E DUP4 PUSH2 0x2790 JUMP JUMPDEST SWAP3 POP DUP3 DUP3 SUB SWAP1 POP DUP2 DUP2 GT ISZERO PUSH2 0x3586 JUMPI PUSH2 0x3585 PUSH2 0x3047 JUMP JUMPDEST JUMPDEST SWAP3 SWAP2 POP POP JUMP INVALID LOG2 PUSH5 0x6970667358 0x22 SLT KECCAK256 0xC3 0xBE PUSH6 0x43D3A275D8EE CREATE2 MCOPY 0x2D 0xC2 PUSH1 0x6C DUP10 0xDE 0xDE PUSH13 0x748EE82A0A2073DA76D5006ABE PUSH5 0x736F6C6343 STOP ADDMOD BYTE STOP CALLER "
				},
				"gasEstimates": {
					"creation": {
						"codeDepositCost": "2752400",
						"executionCost": "infinite",
						"totalCost": "infinite"
					},
					"external": {
						"BASIC_PRICE()": "347",
						"LAST_LEVEL()": "377",
						"REGISTRATION_FEE()": "414",
						"buyLevel(uint8)": "infinite",
						"generateReferralLink(address)": "infinite",
						"getLevelPrice(uint8)": "2888",
						"getUserById(uint256)": "2963",
						"getUserInfo(address)": "infinite",
						"getUserReferrals(address)": "infinite",
						"idToAddress(uint256)": "2895",
						"lastUserId()": "2448",
						"levelPrice(uint8)": "2870",
						"owner()": "2575",
						"payUpline(address)": "infinite",
						"registerUpline(address,string,string,string,string)": "infinite",
						"registerUser(address,string,string,string,string,string,address)": "infinite",
						"transactionHistory(address)": "infinite",
						"users(address)": "infinite"
					},
					"internal": {
						"uintToString(uint256)": "infinite"
					}
				},
				"methodIdentifiers": {
					"BASIC_PRICE()": "9ac7e09e",
					"LAST_LEVEL()": "29c70400",
					"REGISTRATION_FEE()": "64b4f751",
					"buyLevel(uint8)": "8d17a4d0",
					"generateReferralLink(address)": "aed8a6a7",
					"getLevelPrice(uint8)": "6f8e2516",
					"getUserById(uint256)": "6ed6da9e",
					"getUserInfo(address)": "6386c1c7",
					"getUserReferrals(address)": "575cea6b",
					"idToAddress(uint256)": "2a2d0c47",
					"lastUserId()": "348d4487",
					"levelPrice(uint8)": "ecabdf79",
					"owner()": "8da5cb5b",
					"payUpline(address)": "90426274",
					"registerUpline(address,string,string,string,string)": "1394c053",
					"registerUser(address,string,string,string,string,string,address)": "3056deb8",
					"transactionHistory(address)": "de972b43",
					"users(address)": "a87430ba"
				}
			},
			"storageLayout": {
				"storage": [
					{
						"astId": 34,
						"contract": "contracts/_ronx1.sol:X3Program",
						"label": "users",
						"offset": 0,
						"slot": "0",
						"type": "t_mapping(t_address,t_struct(User)29_storage)"
					},
					{
						"astId": 38,
						"contract": "contracts/_ronx1.sol:X3Program",
						"label": "idToAddress",
						"offset": 0,
						"slot": "1",
						"type": "t_mapping(t_uint256,t_address)"
					},
					{
						"astId": 42,
						"contract": "contracts/_ronx1.sol:X3Program",
						"label": "levelPrice",
						"offset": 0,
						"slot": "2",
						"type": "t_mapping(t_uint8,t_uint256)"
					},
					{
						"astId": 45,
						"contract": "contracts/_ronx1.sol:X3Program",
						"label": "lastUserId",
						"offset": 0,
						"slot": "3",
						"type": "t_uint256"
					},
					{
						"astId": 56,
						"contract": "contracts/_ronx1.sol:X3Program",
						"label": "owner",
						"offset": 0,
						"slot": "4",
						"type": "t_address"
					}
				],
				"types": {
					"t_address": {
						"encoding": "inplace",
						"label": "address",
						"numberOfBytes": "20"
					},
					"t_array(t_address)dyn_storage": {
						"base": "t_address",
						"encoding": "dynamic_array",
						"label": "address[]",
						"numberOfBytes": "32"
					},
					"t_bytes32": {
						"encoding": "inplace",
						"label": "bytes32",
						"numberOfBytes": "32"
					},
					"t_mapping(t_address,t_struct(User)29_storage)": {
						"encoding": "mapping",
						"key": "t_address",
						"label": "mapping(address => struct X3Program.User)",
						"numberOfBytes": "32",
						"value": "t_struct(User)29_storage"
					},
					"t_mapping(t_uint256,t_address)": {
						"encoding": "mapping",
						"key": "t_uint256",
						"label": "mapping(uint256 => address)",
						"numberOfBytes": "32",
						"value": "t_address"
					},
					"t_mapping(t_uint8,t_uint256)": {
						"encoding": "mapping",
						"key": "t_uint8",
						"label": "mapping(uint8 => uint256)",
						"numberOfBytes": "32",
						"value": "t_uint256"
					},
					"t_string_storage": {
						"encoding": "bytes",
						"label": "string",
						"numberOfBytes": "32"
					},
					"t_struct(User)29_storage": {
						"encoding": "inplace",
						"label": "struct X3Program.User",
						"members": [
							{
								"astId": 3,
								"contract": "contracts/_ronx1.sol:X3Program",
								"label": "upline",
								"offset": 0,
								"slot": "0",
								"type": "t_address"
							},
							{
								"astId": 5,
								"contract": "contracts/_ronx1.sol:X3Program",
								"label": "id",
								"offset": 0,
								"slot": "1",
								"type": "t_uint256"
							},
							{
								"astId": 7,
								"contract": "contracts/_ronx1.sol:X3Program",
								"label": "referralCount",
								"offset": 0,
								"slot": "2",
								"type": "t_uint256"
							},
							{
								"astId": 9,
								"contract": "contracts/_ronx1.sol:X3Program",
								"label": "cycleCount",
								"offset": 0,
								"slot": "3",
								"type": "t_uint256"
							},
							{
								"astId": 11,
								"contract": "contracts/_ronx1.sol:X3Program",
								"label": "earnings",
								"offset": 0,
								"slot": "4",
								"type": "t_uint256"
							},
							{
								"astId": 13,
								"contract": "contracts/_ronx1.sol:X3Program",
								"label": "partnerLevel",
								"offset": 0,
								"slot": "5",
								"type": "t_uint256"
							},
							{
								"astId": 16,
								"contract": "contracts/_ronx1.sol:X3Program",
								"label": "referrals",
								"offset": 0,
								"slot": "6",
								"type": "t_array(t_address)dyn_storage"
							},
							{
								"astId": 18,
								"contract": "contracts/_ronx1.sol:X3Program",
								"label": "firstName",
								"offset": 0,
								"slot": "7",
								"type": "t_string_storage"
							},
							{
								"astId": 20,
								"contract": "contracts/_ronx1.sol:X3Program",
								"label": "lastName",
								"offset": 0,
								"slot": "8",
								"type": "t_string_storage"
							},
							{
								"astId": 22,
								"contract": "contracts/_ronx1.sol:X3Program",
								"label": "profilePic",
								"offset": 0,
								"slot": "9",
								"type": "t_string_storage"
							},
							{
								"astId": 24,
								"contract": "contracts/_ronx1.sol:X3Program",
								"label": "email",
								"offset": 0,
								"slot": "10",
								"type": "t_string_storage"
							},
							{
								"astId": 26,
								"contract": "contracts/_ronx1.sol:X3Program",
								"label": "passwordHash",
								"offset": 0,
								"slot": "11",
								"type": "t_bytes32"
							},
							{
								"astId": 28,
								"contract": "contracts/_ronx1.sol:X3Program",
								"label": "userAddress",
								"offset": 0,
								"slot": "12",
								"type": "t_address"
							}
						],
						"numberOfBytes": "416"
					},
					"t_uint256": {
						"encoding": "inplace",
						"label": "uint256",
						"numberOfBytes": "32"
					},
					"t_uint8": {
						"encoding": "inplace",
						"label": "uint8",
						"numberOfBytes": "1"
					}
				}
			},
			"userdoc": {
				"kind": "user",
				"methods": {},
				"version": 1
			}
		}
	}
}