{
	"data": {
		"bytecode": {
			"linkReferences": {},
			"object": "6080604052348015600e575f80fd5b506151be8061001c5f395ff3fe608060405234801561000f575f80fd5b50600436106101dc575f3560e01c8063957fae9611610102578063c89039c5116100a0578063e3abc2bc1161006f578063e3abc2bc146106af578063ecabdf79146106e1578063f07b62be14610711578063fa45323d1461071b576101dd565b8063c89039c514610625578063ce606ee014610643578063cf30901214610661578063d20cf0e81461067f576101dd565b8063a87430ba116100dc578063a87430ba14610585578063aed8a6a7146105bd578063b99a9671146105ed578063be389d5714610609576101dd565b8063957fae961461052d5780639ac7e09e1461054b578063a3546be414610569576101dd565b80634635fd681161017a578063767382c411610149578063767382c4146104a557806383ba31b2146104c1578063885cec8d146104f35780638abf60771461050f576101dd565b80634635fd68146104095780634783c35b14610439578063509222cd14610457578063517999bc14610487576101dd565b806329c70400116101b657806329c70400146103815780632a2d0c471461039f578063348d4487146103cf57806335075ff0146103ed576101dd565b806307279e2a14610305578063184b95591461033557806327e235e314610351576101dd565b5b5f80369050036102625761025d3360085f9054906101000a900473ffffffffffffffffffffffffffffffffffffffff1660405180602001604052805f81525060405180602001604052805f81525060405180602001604052805f81525060405180602001604052805f81525060405180602001604052805f81525061074b565b610303565b610302336102b25f368080601f0160208091040260200160405190810160405280939291908181526020018383808284375f81840152601f19601f82011690508083019250505050505050610da3565b60405180602001604052805f81525060405180602001604052805f81525060405180602001604052805f81525060405180602001604052805f81525060405180602001604052805f81525061074b565b5b005b61031f600480360381019061031a91906139bb565b610db0565b60405161032c9190613a13565b60405180910390f35b61034f600480360381019061034a9190613a67565b610e1b565b005b61036b60048036038101906103669190613ab7565b611278565b6040516103789190613afa565b60405180910390f35b61038961128d565b6040516103969190613b22565b60405180910390f35b6103b960048036038101906103b49190613b65565b6112a0565b6040516103c69190613b9f565b60405180910390f35b6103d76112d0565b6040516103e49190613afa565b60405180910390f35b61040760048036038101906104029190613cf4565b6112d6565b005b610423600480360381019061041e9190613b65565b6112ed565b6040516104309190613b9f565b60405180910390f35b61044161131d565b60405161044e9190613b9f565b60405180910390f35b610471600480360381019061046c9190613ab7565b611342565b60405161047e9190613a13565b60405180910390f35b61048f61138d565b60405161049c9190613b9f565b60405180910390f35b6104bf60048036038101906104ba9190613cf4565b6113b2565b005b6104db60048036038101906104d691906139bb565b611438565b6040516104ea93929190613ec0565b60405180910390f35b61050d60048036038101906105089190613efc565b611602565b005b610517611689565b6040516105249190613b9f565b60405180910390f35b6105356116ac565b6040516105429190613afa565b60405180910390f35b6105536117ce565b6040516105609190613afa565b60405180910390f35b610583600480360381019061057e9190613ab7565b6117d4565b005b61059f600480360381019061059a9190613ab7565b611aac565b6040516105b49998979695949392919061409d565b60405180910390f35b6105d760048036038101906105d29190613ab7565b611db3565b6040516105e4919061414b565b60405180910390f35b6106076004803603810190610602919061416b565b611e28565b005b610623600480360381019061061e91906141bb565b611ea7565b005b61062d611f25565b60405161063a9190614254565b60405180910390f35b61064b611f4a565b6040516106589190613b9f565b60405180910390f35b610669611f6f565b6040516106769190613a13565b60405180910390f35b61069960048036038101906106949190613ab7565b611f81565b6040516106a691906143cc565b60405180910390f35b6106c960048036038101906106c491906143ec565b6120bd565b6040516106d89392919061442a565b60405180910390f35b6106fb60048036038101906106f69190614466565b612183565b6040516107089190613afa565b60405180910390f35b610719612198565b005b610735600480360381019061073091906139bb565b612251565b6040516107429190613b9f565b60405180910390f35b5f60056002600c5461075d91906144be565b61076791906144ff565b90506107b7333083600b5f9054906101000a900473ffffffffffffffffffffffffffffffffffffffff1673ffffffffffffffffffffffffffffffffffffffff166123f5909392919063ffffffff16565b6107c088611342565b15610800576040517f08c379a00000000000000000000000000000000000000000000000000000000081526004016107f79061457c565b60405180910390fd5b5f883b90505f8163ffffffff161461084d576040517f08c379a0000000000000000000000000000000000000000000000000000000008152600401610844906145e4565b60405180910390fd5b60075f81548092919061085f90614602565b91905055505f60025f8b73ffffffffffffffffffffffffffffffffffffffff1673ffffffffffffffffffffffffffffffffffffffff1681526020019081526020015f209050600754815f018190555088816001015f6101000a81548173ffffffffffffffffffffffffffffffffffffffff021916908373ffffffffffffffffffffffffffffffffffffffff1602179055505f81600801819055508781600201908161090a919061483a565b508681600301908161091c919061483a565b508581600401908161092e919061483a565b50846040516020016109409190614943565b6040516020818303038152906040528051906020012081600501819055508381600601908161096f919061483a565b506109798a611db3565b816007019081610989919061483a565b506001816009015f600160ff1681526020019081526020015f205f6101000a81548160ff0219169083151502179055508960035f60075481526020019081526020015f205f6101000a81548173ffffffffffffffffffffffffffffffffffffffff021916908373ffffffffffffffffffffffffffffffffffffffff1602179055508960045f60075481526020019081526020015f205f6101000a81548173ffffffffffffffffffffffffffffffffffffffff021916908373ffffffffffffffffffffffffffffffffffffffff16021790555060025f8a73ffffffffffffffffffffffffffffffffffffffff1673ffffffffffffffffffffffffffffffffffffffff1681526020019081526020015f206008015f815480929190610aab90614602565b91905055505f610abc8b6001612251565b90508060025f8d73ffffffffffffffffffffffffffffffffffffffff1673ffffffffffffffffffffffffffffffffffffffff1681526020019081526020015f20600a015f600160ff1681526020019081526020015f205f015f6101000a81548173ffffffffffffffffffffffffffffffffffffffff021916908373ffffffffffffffffffffffffffffffffffffffff16021790555060025f8273ffffffffffffffffffffffffffffffffffffffff1673ffffffffffffffffffffffffffffffffffffffff1681526020019081526020015f20600a015f600160ff1681526020019081526020015f206001018b908060018154018082558091505060019003905f5260205f20015f9091909190916101000a81548173ffffffffffffffffffffffffffffffffffffffff021916908373ffffffffffffffffffffffffffffffffffffffff160217905550610c118b82600161247e565b60065f8c73ffffffffffffffffffffffffffffffffffffffff1673ffffffffffffffffffffffffffffffffffffffff1681526020019081526020015f2060405180606001604052808681526020014281526020016040518060400160405280600c81526020017f526567697374726174696f6e0000000000000000000000000000000000000000815250815250908060018154018082558091505060019003905f5260205f2090600302015f909190919091505f820151815f0155602082015181600101556040820151816002019081610ceb919061483a565b505050815f01548a73ffffffffffffffffffffffffffffffffffffffff168c73ffffffffffffffffffffffffffffffffffffffff167f309bb360e8b69c23937ccc5fb01f9aeeead1c95a99604e175113ff82f2b1723a60025f8f73ffffffffffffffffffffffffffffffffffffffff1673ffffffffffffffffffffffffffffffffffffffff1681526020019081526020015f205f0154604051610d8e9190613afa565b60405180910390a45050505050505050505050565b5f60148201519050919050565b5f60025f8473ffffffffffffffffffffffffffffffffffffffff1673ffffffffffffffffffffffffffffffffffffffff1681526020019081526020015f206009015f8360ff1660ff1681526020019081526020015f205f9054906101000a900460ff16905092915050565b60015f9054906101000a900473ffffffffffffffffffffffffffffffffffffffff1673ffffffffffffffffffffffffffffffffffffffff163373ffffffffffffffffffffffffffffffffffffffff1614610eaa576040517f08c379a0000000000000000000000000000000000000000000000000000000008152600401610ea1906149a3565b60405180910390fd5b674563918244f40000600c81905550600c600160146101000a81548160ff021916908360ff160217905550600c54600a5f600160ff1681526020019081526020015f20819055505f600290505b60088160ff1611610f60576002600a5f600184610f1491906149c1565b60ff1660ff1681526020019081526020015f2054610f3291906144be565b600a5f8360ff1660ff1681526020019081526020015f20819055508080610f58906149f5565b915050610ef7565b506843c33c193756480000600a5f600960ff1681526020019081526020015f208190555068878678326eac900000600a5f600a60ff1681526020019081526020015f208190555069010f0cf064dd59200000600a5f600b60ff1681526020019081526020015f2081905550690218ae196b8d4f300000600a5f600c60ff1681526020019081526020015f20819055508260085f6101000a81548173ffffffffffffffffffffffffffffffffffffffff021916908373ffffffffffffffffffffffffffffffffffffffff1602179055505f60025f8573ffffffffffffffffffffffffffffffffffffffff1673ffffffffffffffffffffffffffffffffffffffff1681526020019081526020015f2090506001815f01819055505f816001015f6101000a81548173ffffffffffffffffffffffffffffffffffffffff021916908373ffffffffffffffffffffffffffffffffffffffff1602179055505f81600801819055506110cc84611db3565b8160070190816110dc919061483a565b508360035f600181526020019081526020015f205f6101000a81548173ffffffffffffffffffffffffffffffffffffffff021916908373ffffffffffffffffffffffffffffffffffffffff1602179055505f600190505b600160149054906101000a900460ff1660ff168160ff16116111cf57600160025f8773ffffffffffffffffffffffffffffffffffffffff1673ffffffffffffffffffffffffffffffffffffffff1681526020019081526020015f206009015f8360ff1660ff1681526020019081526020015f205f6101000a81548160ff02191690831515021790555080806111c7906149f5565b915050611133565b50600260078190555081600b5f6101000a81548173ffffffffffffffffffffffffffffffffffffffff021916908373ffffffffffffffffffffffffffffffffffffffff1602179055508260095f6101000a81548173ffffffffffffffffffffffffffffffffffffffff021916908373ffffffffffffffffffffffffffffffffffffffff1602179055506001600d5f6101000a81548160ff02191690831515021790555050505050565b6005602052805f5260405f205f915090505481565b600160149054906101000a900460ff1681565b6003602052805f5260405f205f915054906101000a900473ffffffffffffffffffffffffffffffffffffffff1681565b60075481565b6112e53387878787878761074b565b505050505050565b6004602052805f5260405f205f915054906101000a900473ffffffffffffffffffffffffffffffffffffffff1681565b60095f9054906101000a900473ffffffffffffffffffffffffffffffffffffffff1681565b5f8060025f8473ffffffffffffffffffffffffffffffffffffffff1673ffffffffffffffffffffffffffffffffffffffff1681526020019081526020015f205f015414159050919050565b60085f9054906101000a900473ffffffffffffffffffffffffffffffffffffffff1681565b600d5f9054906101000a900460ff161580611419575060015f9054906101000a900473ffffffffffffffffffffffffffffffffffffffff1673ffffffffffffffffffffffffffffffffffffffff163373ffffffffffffffffffffffffffffffffffffffff16145b611421575f80fd5b6114303387878787878761074b565b505050505050565b5f60605f60025f8673ffffffffffffffffffffffffffffffffffffffff1673ffffffffffffffffffffffffffffffffffffffff1681526020019081526020015f20600a015f8560ff1660ff1681526020019081526020015f205f015f9054906101000a900473ffffffffffffffffffffffffffffffffffffffff1660025f8773ffffffffffffffffffffffffffffffffffffffff1673ffffffffffffffffffffffffffffffffffffffff1681526020019081526020015f20600a015f8660ff1660ff1681526020019081526020015f2060010160025f8873ffffffffffffffffffffffffffffffffffffffff1673ffffffffffffffffffffffffffffffffffffffff1681526020019081526020015f20600a015f8760ff1660ff1681526020019081526020015f206002015f9054906101000a900460ff16818054806020026020016040519081016040528092919081815260200182805480156115ee57602002820191905f5260205f20905b815f9054906101000a900473ffffffffffffffffffffffffffffffffffffffff1673ffffffffffffffffffffffffffffffffffffffff16815260200190600101908083116115a5575b505050505091509250925092509250925092565b600d5f9054906101000a900460ff161580611669575060015f9054906101000a900473ffffffffffffffffffffffffffffffffffffffff1673ffffffffffffffffffffffffffffffffffffffff163373ffffffffffffffffffffffffffffffffffffffff16145b611671575f80fd5b6116808787878787878761074b565b50505050505050565b5f8054906101000a900473ffffffffffffffffffffffffffffffffffffffff1681565b5f805f90505f600190505b6007548110156117c6575f60045f8381526020019081526020015f205f9054906101000a900473ffffffffffffffffffffffffffffffffffffffff1690505f5b60065f8373ffffffffffffffffffffffffffffffffffffffff1673ffffffffffffffffffffffffffffffffffffffff1681526020019081526020015f20805490508110156117b75760065f8373ffffffffffffffffffffffffffffffffffffffff1673ffffffffffffffffffffffffffffffffffffffff1681526020019081526020015f20818154811061178e5761178d614a1d565b5b905f5260205f2090600302015f0154846117a891906144ff565b935080806001019150506116f7565b505080806001019150506116b7565b508091505090565b600c5481565b60015f9054906101000a900473ffffffffffffffffffffffffffffffffffffffff1673ffffffffffffffffffffffffffffffffffffffff163373ffffffffffffffffffffffffffffffffffffffff1614611863576040517f08c379a000000000000000000000000000000000000000000000000000000000815260040161185a906149a3565b60405180910390fd5b600b5f9054906101000a900473ffffffffffffffffffffffffffffffffffffffff1673ffffffffffffffffffffffffffffffffffffffff168173ffffffffffffffffffffffffffffffffffffffff16036118f2576040517f08c379a00000000000000000000000000000000000000000000000000000000081526004016118e990614a94565b60405180910390fd5b5f73ffffffffffffffffffffffffffffffffffffffff168173ffffffffffffffffffffffffffffffffffffffff1603611994575f60095f9054906101000a900473ffffffffffffffffffffffffffffffffffffffff1690508073ffffffffffffffffffffffffffffffffffffffff166108fc4790811502906040515f60405180830381858888f1935050505015801561198d573d5f803e3d5ffd5b5050611aa9565b8073ffffffffffffffffffffffffffffffffffffffff1663a9059cbb60095f9054906101000a900473ffffffffffffffffffffffffffffffffffffffff168373ffffffffffffffffffffffffffffffffffffffff166370a08231306040518263ffffffff1660e01b8152600401611a0b9190613b9f565b602060405180830381865afa158015611a26573d5f803e3d5ffd5b505050506040513d601f19601f82011682018060405250810190611a4a9190614ac6565b6040518363ffffffff1660e01b8152600401611a67929190614af1565b6020604051808303815f875af1158015611a83573d5f803e3d5ffd5b505050506040513d601f19601f82011682018060405250810190611aa79190614b42565b505b50565b6002602052805f5260405f205f91509050805f015490806001015f9054906101000a900473ffffffffffffffffffffffffffffffffffffffff1690806002018054611af690614676565b80601f0160208091040260200160405190810160405280929190818152602001828054611b2290614676565b8015611b6d5780601f10611b4457610100808354040283529160200191611b6d565b820191905f5260205f20905b815481529060010190602001808311611b5057829003601f168201915b505050505090806003018054611b8290614676565b80601f0160208091040260200160405190810160405280929190818152602001828054611bae90614676565b8015611bf95780601f10611bd057610100808354040283529160200191611bf9565b820191905f5260205f20905b815481529060010190602001808311611bdc57829003601f168201915b505050505090806004018054611c0e90614676565b80601f0160208091040260200160405190810160405280929190818152602001828054611c3a90614676565b8015611c855780601f10611c5c57610100808354040283529160200191611c85565b820191905f5260205f20905b815481529060010190602001808311611c6857829003601f168201915b505050505090806005015490806006018054611ca090614676565b80601f0160208091040260200160405190810160405280929190818152602001828054611ccc90614676565b8015611d175780601f10611cee57610100808354040283529160200191611d17565b820191905f5260205f20905b815481529060010190602001808311611cfa57829003601f168201915b505050505090806007018054611d2c90614676565b80601f0160208091040260200160405190810160405280929190818152602001828054611d5890614676565b8015611da35780601f10611d7a57610100808354040283529160200191611da3565b820191905f5260205f20905b815481529060010190602001808311611d8657829003601f168201915b5050505050908060080154905089565b60605f60025f8473ffffffffffffffffffffffffffffffffffffffff1673ffffffffffffffffffffffffffffffffffffffff1681526020019081526020015f205f01549050611e0181612c95565b604051602001611e119190614bb7565b604051602081830303815290604052915050919050565b600d5f9054906101000a900460ff161580611e8f575060015f9054906101000a900473ffffffffffffffffffffffffffffffffffffffff1673ffffffffffffffffffffffffffffffffffffffff163373ffffffffffffffffffffffffffffffffffffffff16145b611e97575f80fd5b611ea2838383612ea6565b505050565b600d5f9054906101000a900460ff161580611f0e575060015f9054906101000a900473ffffffffffffffffffffffffffffffffffffffff1673ffffffffffffffffffffffffffffffffffffffff163373ffffffffffffffffffffffffffffffffffffffff16145b611f16575f80fd5b611f21338383612ea6565b5050565b600b5f9054906101000a900473ffffffffffffffffffffffffffffffffffffffff1681565b60015f9054906101000a900473ffffffffffffffffffffffffffffffffffffffff1681565b600d5f9054906101000a900460ff1681565b606060065f8373ffffffffffffffffffffffffffffffffffffffff1673ffffffffffffffffffffffffffffffffffffffff1681526020019081526020015f20805480602002602001604051908101604052809291908181526020015f905b828210156120b2578382905f5260205f2090600302016040518060600160405290815f82015481526020016001820154815260200160028201805461202390614676565b80601f016020809104026020016040519081016040528092919081815260200182805461204f90614676565b801561209a5780601f106120715761010080835404028352916020019161209a565b820191905f5260205f20905b81548152906001019060200180831161207d57829003601f168201915b50505050508152505081526020019060010190611fdf565b505050509050919050565b6006602052815f5260405f2081815481106120d6575f80fd5b905f5260205f2090600302015f9150915050805f01549080600101549080600201805461210290614676565b80601f016020809104026020016040519081016040528092919081815260200182805461212e90614676565b80156121795780601f1061215057610100808354040283529160200191612179565b820191905f5260205f20905b81548152906001019060200180831161215c57829003601f168201915b5050505050905083565b600a602052805f5260405f205f915090505481565b60015f9054906101000a900473ffffffffffffffffffffffffffffffffffffffff1673ffffffffffffffffffffffffffffffffffffffff163373ffffffffffffffffffffffffffffffffffffffff1614612227576040517f08c379a000000000000000000000000000000000000000000000000000000000815260040161221e906149a3565b60405180910390fd5b600d5f9054906101000a900460ff1615600d5f6101000a81548160ff021916908315150217905550565b5f5b6001156123ee5760025f60025f8673ffffffffffffffffffffffffffffffffffffffff1673ffffffffffffffffffffffffffffffffffffffff1681526020019081526020015f206001015f9054906101000a900473ffffffffffffffffffffffffffffffffffffffff1673ffffffffffffffffffffffffffffffffffffffff1673ffffffffffffffffffffffffffffffffffffffff1681526020019081526020015f206009015f8360ff1660ff1681526020019081526020015f205f9054906101000a900460ff16156123875760025f8473ffffffffffffffffffffffffffffffffffffffff1673ffffffffffffffffffffffffffffffffffffffff1681526020019081526020015f206001015f9054906101000a900473ffffffffffffffffffffffffffffffffffffffff1690506123ef565b60025f8473ffffffffffffffffffffffffffffffffffffffff1673ffffffffffffffffffffffffffffffffffffffff1681526020019081526020015f206001015f9054906101000a900473ffffffffffffffffffffffffffffffffffffffff169250612253565b5b92915050565b612478846323b872dd60e01b85858560405160240161241693929190614bd8565b604051602081830303815290604052907bffffffffffffffffffffffffffffffffffffffffffffffffffffffff19166020820180517bffffffffffffffffffffffffffffffffffffffffffffffffffffffff838183161783525050505061337c565b50505050565b60025f8373ffffffffffffffffffffffffffffffffffffffff1673ffffffffffffffffffffffffffffffffffffffff1681526020019081526020015f20600a015f8260ff1660ff1681526020019081526020015f2060010183908060018154018082558091505060019003905f5260205f20015f9091909190916101000a81548173ffffffffffffffffffffffffffffffffffffffff021916908373ffffffffffffffffffffffffffffffffffffffff160217905550600360025f8473ffffffffffffffffffffffffffffffffffffffff1673ffffffffffffffffffffffffffffffffffffffff1681526020019081526020015f20600a015f8360ff1660ff1681526020019081526020015f2060010180549050101561266f578173ffffffffffffffffffffffffffffffffffffffff168373ffffffffffffffffffffffffffffffffffffffff167f68062c5925c4317adf3a7095478d28b33fd8b41458bc7620b61bc46bf1b24d8260018460025f8873ffffffffffffffffffffffffffffffffffffffff1673ffffffffffffffffffffffffffffffffffffffff1681526020019081526020015f20600a015f8760ff1660ff1681526020019081526020015f206001018054905060405161265593929190614c46565b60405180910390a361266a8284600184613424565b612c90565b8173ffffffffffffffffffffffffffffffffffffffff168373ffffffffffffffffffffffffffffffffffffffff167f68062c5925c4317adf3a7095478d28b33fd8b41458bc7620b61bc46bf1b24d8260018460036040516126d293929190614cb4565b60405180910390a35f67ffffffffffffffff8111156126f4576126f3613bd0565b5b6040519080825280602002602001820160405280156127225781602001602082028036833780820191505090505b5060025f8473ffffffffffffffffffffffffffffffffffffffff1673ffffffffffffffffffffffffffffffffffffffff1681526020019081526020015f20600a015f8360ff1660ff1681526020019081526020015f20600101908051906020019061278e929190613878565b5060025f8373ffffffffffffffffffffffffffffffffffffffff1673ffffffffffffffffffffffffffffffffffffffff1681526020019081526020015f206009015f6001836127dd9190614ce9565b60ff1660ff1681526020019081526020015f205f9054906101000a900460ff1615801561281f5750600160149054906101000a900460ff1660ff168160ff1614155b1561289557600160025f8473ffffffffffffffffffffffffffffffffffffffff1673ffffffffffffffffffffffffffffffffffffffff1681526020019081526020015f20600a015f8360ff1660ff1681526020019081526020015f206002015f6101000a81548160ff0219169083151502179055505b60085f9054906101000a900473ffffffffffffffffffffffffffffffffffffffff1673ffffffffffffffffffffffffffffffffffffffff168273ffffffffffffffffffffffffffffffffffffffff1614612b32575f6128f48383612251565b90508073ffffffffffffffffffffffffffffffffffffffff1660025f8573ffffffffffffffffffffffffffffffffffffffff1673ffffffffffffffffffffffffffffffffffffffff1681526020019081526020015f20600a015f8460ff1660ff1681526020019081526020015f205f015f9054906101000a900473ffffffffffffffffffffffffffffffffffffffff1673ffffffffffffffffffffffffffffffffffffffff1614612a35578060025f8573ffffffffffffffffffffffffffffffffffffffff1673ffffffffffffffffffffffffffffffffffffffff1681526020019081526020015f20600a015f8460ff1660ff1681526020019081526020015f205f015f6101000a81548173ffffffffffffffffffffffffffffffffffffffff021916908373ffffffffffffffffffffffffffffffffffffffff1602179055505b60025f8473ffffffffffffffffffffffffffffffffffffffff1673ffffffffffffffffffffffffffffffffffffffff1681526020019081526020015f20600a015f8360ff1660ff1681526020019081526020015f206003015f815480929190612a9d90614602565b91905055508373ffffffffffffffffffffffffffffffffffffffff168173ffffffffffffffffffffffffffffffffffffffff168473ffffffffffffffffffffffffffffffffffffffff167fa00c953eff38ec1b71e7fe060b2ab8df0bbe5354319fbdde4fbdafd6324386a6600186604051612b19929190614d1d565b60405180910390a4612b2c83828461247e565b50612c8f565b612b6060085f9054906101000a900473ffffffffffffffffffffffffffffffffffffffff1684600184613424565b60025f60085f9054906101000a900473ffffffffffffffffffffffffffffffffffffffff1673ffffffffffffffffffffffffffffffffffffffff1673ffffffffffffffffffffffffffffffffffffffff1681526020019081526020015f20600a015f8260ff1660ff1681526020019081526020015f206003015f815480929190612be990614602565b91905055508273ffffffffffffffffffffffffffffffffffffffff165f73ffffffffffffffffffffffffffffffffffffffff1660085f9054906101000a900473ffffffffffffffffffffffffffffffffffffffff1673ffffffffffffffffffffffffffffffffffffffff167fa00c953eff38ec1b71e7fe060b2ab8df0bbe5354319fbdde4fbdafd6324386a6600185604051612c86929190614d1d565b60405180910390a45b5b505050565b60605f8203612cdb576040518060400160405280600181526020017f30000000000000000000000000000000000000000000000000000000000000008152509050612ea1565b5f604e90505f8167ffffffffffffffff811115612cfb57612cfa613bd0565b5b6040519080825280601f01601f191660200182016040528015612d2d5781602001600182028036833780820191505090505b5090505f5b5f8514612dbb575f600a86612d479190614d71565b9050600a86612d569190614da1565b9550806030612d6591906144ff565b60f81b838380612d7490614602565b945081518110612d8757612d86614a1d565b5b60200101907effffffffffffffffffffffffffffffffffffffffffffffffffffffffffffff191690815f1a90535050612d32565b5f8167ffffffffffffffff811115612dd657612dd5613bd0565b5b6040519080825280601f01601f191660200182016040528015612e085781602001600182028036833780820191505090505b5090505f5b82811015612e98578360018285612e249190614dd1565b612e2e9190614dd1565b81518110612e3f57612e3e614a1d565b5b602001015160f81c60f81b828281518110612e5d57612e5c614a1d565b5b60200101907effffffffffffffffffffffffffffffffffffffffffffffffffffffffffffff191690815f1a9053508080600101915050612e0d565b50809450505050505b919050565b612eaf83611342565b612eee576040517f08c379a0000000000000000000000000000000000000000000000000000000008152600401612ee590614e74565b60405180910390fd5b60018260ff161480612f03575060028260ff16145b612f42576040517f08c379a0000000000000000000000000000000000000000000000000000000008152600401612f3990614edc565b60405180910390fd5b612fa73330600a5f8560ff1660ff1681526020019081526020015f2054600b5f9054906101000a900473ffffffffffffffffffffffffffffffffffffffff1673ffffffffffffffffffffffffffffffffffffffff166123f5909392919063ffffffff16565b60018260ff16036133775760025f8473ffffffffffffffffffffffffffffffffffffffff1673ffffffffffffffffffffffffffffffffffffffff1681526020019081526020015f206009015f60018361300091906149c1565b60ff1660ff1681526020019081526020015f205f9054906101000a900460ff1661305f576040517f08c379a000000000000000000000000000000000000000000000000000000000815260040161305690614f44565b60405180910390fd5b60025f8473ffffffffffffffffffffffffffffffffffffffff1673ffffffffffffffffffffffffffffffffffffffff1681526020019081526020015f206009015f8260ff1660ff1681526020019081526020015f205f9054906101000a900460ff1615613101576040517f08c379a00000000000000000000000000000000000000000000000000000000081526004016130f890614fac565b60405180910390fd5b60025f8473ffffffffffffffffffffffffffffffffffffffff1673ffffffffffffffffffffffffffffffffffffffff1681526020019081526020015f20600a015f60018361314f91906149c1565b60ff1660ff1681526020019081526020015f206002015f9054906101000a900460ff16156131f3575f60025f8573ffffffffffffffffffffffffffffffffffffffff1673ffffffffffffffffffffffffffffffffffffffff1681526020019081526020015f20600a015f6001846131c691906149c1565b60ff1660ff1681526020019081526020015f206002015f6101000a81548160ff0219169083151502179055505b5f6131fe8483612251565b90508060025f8673ffffffffffffffffffffffffffffffffffffffff1673ffffffffffffffffffffffffffffffffffffffff1681526020019081526020015f20600a015f8460ff1660ff1681526020019081526020015f205f015f6101000a81548173ffffffffffffffffffffffffffffffffffffffff021916908373ffffffffffffffffffffffffffffffffffffffff160217905550600160025f8673ffffffffffffffffffffffffffffffffffffffff1673ffffffffffffffffffffffffffffffffffffffff1681526020019081526020015f206009015f8460ff1660ff1681526020019081526020015f205f6101000a81548160ff02191690831515021790555061330d84828461247e565b8073ffffffffffffffffffffffffffffffffffffffff168473ffffffffffffffffffffffffffffffffffffffff167f18a92df19fd94d6cfff209966673a5ca05a1c8e2bb68e097fce2bdc2ed81111960018560405161336d929190614d1d565b60405180910390a3505b505050565b5f6133c082604051806060016040528060218152602001615168602191398573ffffffffffffffffffffffffffffffffffffffff1661350f9092919063ffffffff16565b90505f8151111561341f57808060200190518101906133df9190614b42565b61341e576040517f08c379a00000000000000000000000000000000000000000000000000000000081526004016134159061503a565b60405180910390fd5b5b505050565b5f8061343286868686613526565b9150915061349982600a5f8660ff1660ff1681526020019081526020015f2054600b5f9054906101000a900473ffffffffffffffffffffffffffffffffffffffff1673ffffffffffffffffffffffffffffffffffffffff166136b39092919063ffffffff16565b8015613507578173ffffffffffffffffffffffffffffffffffffffff168573ffffffffffffffffffffffffffffffffffffffff167fcb6aa629ee1faeb728bc6cce262180355c663f2f7b0b56ac9d99d56c889bb29586866040516134fe929190615058565b60405180910390a35b505050505050565b606061351d84845f85613739565b90509392505050565b5f805f8690505f60018660ff16036136a7575b6001156136a65760025f8373ffffffffffffffffffffffffffffffffffffffff1673ffffffffffffffffffffffffffffffffffffffff1681526020019081526020015f20600a015f8660ff1660ff1681526020019081526020015f206002015f9054906101000a900460ff1615613694578673ffffffffffffffffffffffffffffffffffffffff168273ffffffffffffffffffffffffffffffffffffffff167f07678b5e798b871147619c77c31d658def8f71fd554f6130ba85fe1bbae8d5bf60018860405161360a929190614d1d565b60405180910390a36001905060025f8373ffffffffffffffffffffffffffffffffffffffff1673ffffffffffffffffffffffffffffffffffffffff1681526020019081526020015f20600a015f8660ff1660ff1681526020019081526020015f205f015f9054906101000a900473ffffffffffffffffffffffffffffffffffffffff1691506136a1565b81819350935050506136aa565b613539565b5b50505b94509492505050565b6137348363a9059cbb60e01b84846040516024016136d2929190614af1565b604051602081830303815290604052907bffffffffffffffffffffffffffffffffffffffffffffffffffffffff19166020820180517bffffffffffffffffffffffffffffffffffffffffffffffffffffffff838183161783525050505061337c565b505050565b60608247101561377e576040517f08c379a0000000000000000000000000000000000000000000000000000000008152600401613775906150ef565b60405180910390fd5b5f808673ffffffffffffffffffffffffffffffffffffffff1685876040516137a69190615151565b5f6040518083038185875af1925050503d805f81146137e0576040519150601f19603f3d011682016040523d82523d5f602084013e6137e5565b606091505b50915091506137f5828286613801565b92505050949350505050565b60608315613822575f83510361381957829050613871565b82518084602001fd5b5f835111156138345782518084602001fd5b816040517f08c379a0000000000000000000000000000000000000000000000000000000008152600401613868919061414b565b60405180910390fd5b9392505050565b828054828255905f5260205f209081019282156138ee579160200282015b828111156138ed578251825f6101000a81548173ffffffffffffffffffffffffffffffffffffffff021916908373ffffffffffffffffffffffffffffffffffffffff16021790555091602001919060010190613896565b5b5090506138fb91906138ff565b5090565b5b80821115613916575f815f905550600101613900565b5090565b5f604051905090565b5f80fd5b5f80fd5b5f73ffffffffffffffffffffffffffffffffffffffff82169050919050565b5f6139548261392b565b9050919050565b6139648161394a565b811461396e575f80fd5b50565b5f8135905061397f8161395b565b92915050565b5f60ff82169050919050565b61399a81613985565b81146139a4575f80fd5b50565b5f813590506139b581613991565b92915050565b5f80604083850312156139d1576139d0613923565b5b5f6139de85828601613971565b92505060206139ef858286016139a7565b9150509250929050565b5f8115159050919050565b613a0d816139f9565b82525050565b5f602082019050613a265f830184613a04565b92915050565b5f613a368261394a565b9050919050565b613a4681613a2c565b8114613a50575f80fd5b50565b5f81359050613a6181613a3d565b92915050565b5f805f60608486031215613a7e57613a7d613923565b5b5f613a8b86828701613971565b9350506020613a9c86828701613971565b9250506040613aad86828701613a53565b9150509250925092565b5f60208284031215613acc57613acb613923565b5b5f613ad984828501613971565b91505092915050565b5f819050919050565b613af481613ae2565b82525050565b5f602082019050613b0d5f830184613aeb565b92915050565b613b1c81613985565b82525050565b5f602082019050613b355f830184613b13565b92915050565b613b4481613ae2565b8114613b4e575f80fd5b50565b5f81359050613b5f81613b3b565b92915050565b5f60208284031215613b7a57613b79613923565b5b5f613b8784828501613b51565b91505092915050565b613b998161394a565b82525050565b5f602082019050613bb25f830184613b90565b92915050565b5f80fd5b5f80fd5b5f601f19601f8301169050919050565b7f4e487b71000000000000000000000000000000000000000000000000000000005f52604160045260245ffd5b613c0682613bc0565b810181811067ffffffffffffffff82111715613c2557613c24613bd0565b5b80604052505050565b5f613c3761391a565b9050613c438282613bfd565b919050565b5f67ffffffffffffffff821115613c6257613c61613bd0565b5b613c6b82613bc0565b9050602081019050919050565b828183375f83830152505050565b5f613c98613c9384613c48565b613c2e565b905082815260208101848484011115613cb457613cb3613bbc565b5b613cbf848285613c78565b509392505050565b5f82601f830112613cdb57613cda613bb8565b5b8135613ceb848260208601613c86565b91505092915050565b5f805f805f8060c08789031215613d0e57613d0d613923565b5b5f613d1b89828a01613971565b965050602087013567ffffffffffffffff811115613d3c57613d3b613927565b5b613d4889828a01613cc7565b955050604087013567ffffffffffffffff811115613d6957613d68613927565b5b613d7589828a01613cc7565b945050606087013567ffffffffffffffff811115613d9657613d95613927565b5b613da289828a01613cc7565b935050608087013567ffffffffffffffff811115613dc357613dc2613927565b5b613dcf89828a01613cc7565b92505060a087013567ffffffffffffffff811115613df057613def613927565b5b613dfc89828a01613cc7565b9150509295509295509295565b5f81519050919050565b5f82825260208201905092915050565b5f819050602082019050919050565b613e3b8161394a565b82525050565b5f613e4c8383613e32565b60208301905092915050565b5f602082019050919050565b5f613e6e82613e09565b613e788185613e13565b9350613e8383613e23565b805f5b83811015613eb3578151613e9a8882613e41565b9750613ea583613e58565b925050600181019050613e86565b5085935050505092915050565b5f606082019050613ed35f830186613b90565b8181036020830152613ee58185613e64565b9050613ef46040830184613a04565b949350505050565b5f805f805f805f60e0888a031215613f1757613f16613923565b5b5f613f248a828b01613971565b9750506020613f358a828b01613971565b965050604088013567ffffffffffffffff811115613f5657613f55613927565b5b613f628a828b01613cc7565b955050606088013567ffffffffffffffff811115613f8357613f82613927565b5b613f8f8a828b01613cc7565b945050608088013567ffffffffffffffff811115613fb057613faf613927565b5b613fbc8a828b01613cc7565b93505060a088013567ffffffffffffffff811115613fdd57613fdc613927565b5b613fe98a828b01613cc7565b92505060c088013567ffffffffffffffff81111561400a57614009613927565b5b6140168a828b01613cc7565b91505092959891949750929550565b5f81519050919050565b5f82825260208201905092915050565b8281835e5f83830152505050565b5f61405782614025565b614061818561402f565b935061407181856020860161403f565b61407a81613bc0565b840191505092915050565b5f819050919050565b61409781614085565b82525050565b5f610120820190506140b15f83018c613aeb565b6140be602083018b613b90565b81810360408301526140d0818a61404d565b905081810360608301526140e4818961404d565b905081810360808301526140f8818861404d565b905061410760a083018761408e565b81810360c0830152614119818661404d565b905081810360e083015261412d818561404d565b905061413d610100830184613aeb565b9a9950505050505050505050565b5f6020820190508181035f830152614163818461404d565b905092915050565b5f805f6060848603121561418257614181613923565b5b5f61418f86828701613971565b93505060206141a0868287016139a7565b92505060406141b1868287016139a7565b9150509250925092565b5f80604083850312156141d1576141d0613923565b5b5f6141de858286016139a7565b92505060206141ef858286016139a7565b9150509250929050565b5f819050919050565b5f61421c6142176142128461392b565b6141f9565b61392b565b9050919050565b5f61422d82614202565b9050919050565b5f61423e82614223565b9050919050565b61424e81614234565b82525050565b5f6020820190506142675f830184614245565b92915050565b5f81519050919050565b5f82825260208201905092915050565b5f819050602082019050919050565b61429f81613ae2565b82525050565b5f82825260208201905092915050565b5f6142bf82614025565b6142c981856142a5565b93506142d981856020860161403f565b6142e281613bc0565b840191505092915050565b5f606083015f8301516143025f860182614296565b5060208301516143156020860182614296565b506040830151848203604086015261432d82826142b5565b9150508091505092915050565b5f61434583836142ed565b905092915050565b5f602082019050919050565b5f6143638261426d565b61436d8185614277565b93508360208202850161437f85614287565b805f5b858110156143ba578484038952815161439b858261433a565b94506143a68361434d565b925060208a01995050600181019050614382565b50829750879550505050505092915050565b5f6020820190508181035f8301526143e48184614359565b905092915050565b5f806040838503121561440257614401613923565b5b5f61440f85828601613971565b925050602061442085828601613b51565b9150509250929050565b5f60608201905061443d5f830186613aeb565b61444a6020830185613aeb565b818103604083015261445c818461404d565b9050949350505050565b5f6020828403121561447b5761447a613923565b5b5f614488848285016139a7565b91505092915050565b7f4e487b71000000000000000000000000000000000000000000000000000000005f52601160045260245ffd5b5f6144c882613ae2565b91506144d383613ae2565b92508282026144e181613ae2565b915082820484148315176144f8576144f7614491565b5b5092915050565b5f61450982613ae2565b915061451483613ae2565b925082820190508082111561452c5761452b614491565b5b92915050565b7f5573657220616c726561647920657869737473000000000000000000000000005f82015250565b5f61456660138361402f565b915061457182614532565b602082019050919050565b5f6020820190508181035f8301526145938161455a565b9050919050565b7f41646472657373206d75737420626520616e20454f41000000000000000000005f82015250565b5f6145ce60168361402f565b91506145d98261459a565b602082019050919050565b5f6020820190508181035f8301526145fb816145c2565b9050919050565b5f61460c82613ae2565b91507fffffffffffffffffffffffffffffffffffffffffffffffffffffffffffffffff820361463e5761463d614491565b5b600182019050919050565b7f4e487b71000000000000000000000000000000000000000000000000000000005f52602260045260245ffd5b5f600282049050600182168061468d57607f821691505b6020821081036146a05761469f614649565b5b50919050565b5f819050815f5260205f209050919050565b5f6020601f8301049050919050565b5f82821b905092915050565b5f600883026147027fffffffffffffffffffffffffffffffffffffffffffffffffffffffffffffffff826146c7565b61470c86836146c7565b95508019841693508086168417925050509392505050565b5f61473e61473961473484613ae2565b6141f9565b613ae2565b9050919050565b5f819050919050565b61475783614724565b61476b61476382614745565b8484546146d3565b825550505050565b5f90565b61477f614773565b61478a81848461474e565b505050565b5b818110156147ad576147a25f82614777565b600181019050614790565b5050565b601f8211156147f2576147c3816146a6565b6147cc846146b8565b810160208510156147db578190505b6147ef6147e7856146b8565b83018261478f565b50505b505050565b5f82821c905092915050565b5f6148125f19846008026147f7565b1980831691505092915050565b5f61482a8383614803565b9150826002028217905092915050565b61484382614025565b67ffffffffffffffff81111561485c5761485b613bd0565b5b6148668254614676565b6148718282856147b1565b5f60209050601f8311600181146148a2575f8415614890578287015190505b61489a858261481f565b865550614901565b601f1984166148b0866146a6565b5f5b828110156148d7578489015182556001820191506020850194506020810190506148b2565b868310156148f457848901516148f0601f891682614803565b8355505b6001600288020188555050505b505050505050565b5f81905092915050565b5f61491d82614025565b6149278185614909565b935061493781856020860161403f565b80840191505092915050565b5f61494e8284614913565b915081905092915050565b7f6f6e6c794f776e657200000000000000000000000000000000000000000000005f82015250565b5f61498d60098361402f565b915061499882614959565b602082019050919050565b5f6020820190508181035f8301526149ba81614981565b9050919050565b5f6149cb82613985565b91506149d683613985565b9250828203905060ff8111156149ef576149ee614491565b5b92915050565b5f6149ff82613985565b915060ff8203614a1257614a11614491565b5b600182019050919050565b7f4e487b71000000000000000000000000000000000000000000000000000000005f52603260045260245ffd5b7f63616e6e6f74207769746864726177206465706f73697420746f6b656e0000005f82015250565b5f614a7e601d8361402f565b9150614a8982614a4a565b602082019050919050565b5f6020820190508181035f830152614aab81614a72565b9050919050565b5f81519050614ac081613b3b565b92915050565b5f60208284031215614adb57614ada613923565b5b5f614ae884828501614ab2565b91505092915050565b5f604082019050614b045f830185613b90565b614b116020830184613aeb565b9392505050565b614b21816139f9565b8114614b2b575f80fd5b50565b5f81519050614b3c81614b18565b92915050565b5f60208284031215614b5757614b56613923565b5b5f614b6484828501614b2e565b91505092915050565b7f68747470733a2f2f6578616d706c652e636f6d2f726566657272616c2f0000005f82015250565b5f614ba1601d83614909565b9150614bac82614b6d565b601d82019050919050565b5f614bc182614b95565b9150614bcd8284614913565b915081905092915050565b5f606082019050614beb5f830186613b90565b614bf86020830185613b90565b614c056040830184613aeb565b949350505050565b5f819050919050565b5f614c30614c2b614c2684614c0d565b6141f9565b613985565b9050919050565b614c4081614c16565b82525050565b5f606082019050614c595f830186614c37565b614c666020830185613b13565b614c736040830184613b13565b949350505050565b5f819050919050565b5f614c9e614c99614c9484614c7b565b6141f9565b613985565b9050919050565b614cae81614c84565b82525050565b5f606082019050614cc75f830186614c37565b614cd46020830185613b13565b614ce16040830184614ca5565b949350505050565b5f614cf382613985565b9150614cfe83613985565b9250828201905060ff811115614d1757614d16614491565b5b92915050565b5f604082019050614d305f830185614c37565b614d3d6020830184613b13565b9392505050565b7f4e487b71000000000000000000000000000000000000000000000000000000005f52601260045260245ffd5b5f614d7b82613ae2565b9150614d8683613ae2565b925082614d9657614d95614d44565b5b828206905092915050565b5f614dab82613ae2565b9150614db683613ae2565b925082614dc657614dc5614d44565b5b828204905092915050565b5f614ddb82613ae2565b9150614de683613ae2565b9250828203905081811115614dfe57614dfd614491565b5b92915050565b7f75736572206973206e6f74206578697374732e205265676973746572206669725f8201527f73742e0000000000000000000000000000000000000000000000000000000000602082015250565b5f614e5e60238361402f565b9150614e6982614e04565b604082019050919050565b5f6020820190508181035f830152614e8b81614e52565b9050919050565b7f696e76616c6964206d61747269780000000000000000000000000000000000005f82015250565b5f614ec6600e8361402f565b9150614ed182614e92565b602082019050919050565b5f6020820190508181035f830152614ef381614eba565b9050919050565b7f6275792070726576696f7573206c6576656c20666972737400000000000000005f82015250565b5f614f2e60188361402f565b9150614f3982614efa565b602082019050919050565b5f6020820190508181035f830152614f5b81614f22565b9050919050565b7f6c6576656c20616c7265616479206163746976617465640000000000000000005f82015250565b5f614f9660178361402f565b9150614fa182614f62565b602082019050919050565b5f6020820190508181035f830152614fc381614f8a565b9050919050565b7f536166654552433230203a204552433230206f7065726174696f6e20646964205f8201527f6e6f742073756363656564000000000000000000000000000000000000000000602082015250565b5f615024602b8361402f565b915061502f82614fca565b604082019050919050565b5f6020820190508181035f83015261505181615018565b9050919050565b5f60408201905061506b5f830185613b13565b6150786020830184613b13565b9392505050565b7f41646472657373203a20696e73756666696369656e742062616c616e636520665f8201527f6f722063616c6c00000000000000000000000000000000000000000000000000602082015250565b5f6150d960278361402f565b91506150e48261507f565b604082019050919050565b5f6020820190508181035f830152615106816150cd565b9050919050565b5f81519050919050565b5f81905092915050565b5f61512b8261510d565b6151358185615117565b935061514581856020860161403f565b80840191505092915050565b5f61515c8284615121565b91508190509291505056fe536166654552433230203a206c6f77206c6576656c2063616c6c206661696c6564a2646970667358221220c4413f3cb77c5ee9f9b431a4bcbf1d9a2c20bf5c4587049c7c16076dbd69420864736f6c634300081a0033",
			"opcodes": "PUSH1 0x80 PUSH1 0x40 MSTORE CALLVALUE DUP1 ISZERO PUSH1 0xE JUMPI PUSH0 DUP1 REVERT JUMPDEST POP PUSH2 0x51BE DUP1 PUSH2 0x1C PUSH0 CODECOPY PUSH0 RETURN INVALID PUSH1 0x80 PUSH1 0x40 MSTORE CALLVALUE DUP1 ISZERO PUSH2 0xF JUMPI PUSH0 DUP1 REVERT JUMPDEST POP PUSH1 0x4 CALLDATASIZE LT PUSH2 0x1DC JUMPI PUSH0 CALLDATALOAD PUSH1 0xE0 SHR DUP1 PUSH4 0x957FAE96 GT PUSH2 0x102 JUMPI DUP1 PUSH4 0xC89039C5 GT PUSH2 0xA0 JUMPI DUP1 PUSH4 0xE3ABC2BC GT PUSH2 0x6F JUMPI DUP1 PUSH4 0xE3ABC2BC EQ PUSH2 0x6AF JUMPI DUP1 PUSH4 0xECABDF79 EQ PUSH2 0x6E1 JUMPI DUP1 PUSH4 0xF07B62BE EQ PUSH2 0x711 JUMPI DUP1 PUSH4 0xFA45323D EQ PUSH2 0x71B JUMPI PUSH2 0x1DD JUMP JUMPDEST DUP1 PUSH4 0xC89039C5 EQ PUSH2 0x625 JUMPI DUP1 PUSH4 0xCE606EE0 EQ PUSH2 0x643 JUMPI DUP1 PUSH4 0xCF309012 EQ PUSH2 0x661 JUMPI DUP1 PUSH4 0xD20CF0E8 EQ PUSH2 0x67F JUMPI PUSH2 0x1DD JUMP JUMPDEST DUP1 PUSH4 0xA87430BA GT PUSH2 0xDC JUMPI DUP1 PUSH4 0xA87430BA EQ PUSH2 0x585 JUMPI DUP1 PUSH4 0xAED8A6A7 EQ PUSH2 0x5BD JUMPI DUP1 PUSH4 0xB99A9671 EQ PUSH2 0x5ED JUMPI DUP1 PUSH4 0xBE389D57 EQ PUSH2 0x609 JUMPI PUSH2 0x1DD JUMP JUMPDEST DUP1 PUSH4 0x957FAE96 EQ PUSH2 0x52D JUMPI DUP1 PUSH4 0x9AC7E09E EQ PUSH2 0x54B JUMPI DUP1 PUSH4 0xA3546BE4 EQ PUSH2 0x569 JUMPI PUSH2 0x1DD JUMP JUMPDEST DUP1 PUSH4 0x4635FD68 GT PUSH2 0x17A JUMPI DUP1 PUSH4 0x767382C4 GT PUSH2 0x149 JUMPI DUP1 PUSH4 0x767382C4 EQ PUSH2 0x4A5 JUMPI DUP1 PUSH4 0x83BA31B2 EQ PUSH2 0x4C1 JUMPI DUP1 PUSH4 0x885CEC8D EQ PUSH2 0x4F3 JUMPI DUP1 PUSH4 0x8ABF6077 EQ PUSH2 0x50F JUMPI PUSH2 0x1DD JUMP JUMPDEST DUP1 PUSH4 0x4635FD68 EQ PUSH2 0x409 JUMPI DUP1 PUSH4 0x4783C35B EQ PUSH2 0x439 JUMPI DUP1 PUSH4 0x509222CD EQ PUSH2 0x457 JUMPI DUP1 PUSH4 0x517999BC EQ PUSH2 0x487 JUMPI PUSH2 0x1DD JUMP JUMPDEST DUP1 PUSH4 0x29C70400 GT PUSH2 0x1B6 JUMPI DUP1 PUSH4 0x29C70400 EQ PUSH2 0x381 JUMPI DUP1 PUSH4 0x2A2D0C47 EQ PUSH2 0x39F JUMPI DUP1 PUSH4 0x348D4487 EQ PUSH2 0x3CF JUMPI DUP1 PUSH4 0x35075FF0 EQ PUSH2 0x3ED JUMPI PUSH2 0x1DD JUMP JUMPDEST DUP1 PUSH4 0x7279E2A EQ PUSH2 0x305 JUMPI DUP1 PUSH4 0x184B9559 EQ PUSH2 0x335 JUMPI DUP1 PUSH4 0x27E235E3 EQ PUSH2 0x351 JUMPI PUSH2 0x1DD JUMP JUMPDEST JUMPDEST PUSH0 DUP1 CALLDATASIZE SWAP1 POP SUB PUSH2 0x262 JUMPI PUSH2 0x25D CALLER PUSH1 0x8 PUSH0 SWAP1 SLOAD SWAP1 PUSH2 0x100 EXP SWAP1 DIV PUSH20 0xFFFFFFFFFFFFFFFFFFFFFFFFFFFFFFFFFFFFFFFF AND PUSH1 0x40 MLOAD DUP1 PUSH1 0x20 ADD PUSH1 0x40 MSTORE DUP1 PUSH0 DUP2 MSTORE POP PUSH1 0x40 MLOAD DUP1 PUSH1 0x20 ADD PUSH1 0x40 MSTORE DUP1 PUSH0 DUP2 MSTORE POP PUSH1 0x40 MLOAD DUP1 PUSH1 0x20 ADD PUSH1 0x40 MSTORE DUP1 PUSH0 DUP2 MSTORE POP PUSH1 0x40 MLOAD DUP1 PUSH1 0x20 ADD PUSH1 0x40 MSTORE DUP1 PUSH0 DUP2 MSTORE POP PUSH1 0x40 MLOAD DUP1 PUSH1 0x20 ADD PUSH1 0x40 MSTORE DUP1 PUSH0 DUP2 MSTORE POP PUSH2 0x74B JUMP JUMPDEST PUSH2 0x303 JUMP JUMPDEST PUSH2 0x302 CALLER PUSH2 0x2B2 PUSH0 CALLDATASIZE DUP1 DUP1 PUSH1 0x1F ADD PUSH1 0x20 DUP1 SWAP2 DIV MUL PUSH1 0x20 ADD PUSH1 0x40 MLOAD SWAP1 DUP2 ADD PUSH1 0x40 MSTORE DUP1 SWAP4 SWAP3 SWAP2 SWAP1 DUP2 DUP2 MSTORE PUSH1 0x20 ADD DUP4 DUP4 DUP1 DUP3 DUP5 CALLDATACOPY PUSH0 DUP2 DUP5 ADD MSTORE PUSH1 0x1F NOT PUSH1 0x1F DUP3 ADD AND SWAP1 POP DUP1 DUP4 ADD SWAP3 POP POP POP POP POP POP POP PUSH2 0xDA3 JUMP JUMPDEST PUSH1 0x40 MLOAD DUP1 PUSH1 0x20 ADD PUSH1 0x40 MSTORE DUP1 PUSH0 DUP2 MSTORE POP PUSH1 0x40 MLOAD DUP1 PUSH1 0x20 ADD PUSH1 0x40 MSTORE DUP1 PUSH0 DUP2 MSTORE POP PUSH1 0x40 MLOAD DUP1 PUSH1 0x20 ADD PUSH1 0x40 MSTORE DUP1 PUSH0 DUP2 MSTORE POP PUSH1 0x40 MLOAD DUP1 PUSH1 0x20 ADD PUSH1 0x40 MSTORE DUP1 PUSH0 DUP2 MSTORE POP PUSH1 0x40 MLOAD DUP1 PUSH1 0x20 ADD PUSH1 0x40 MSTORE DUP1 PUSH0 DUP2 MSTORE POP PUSH2 0x74B JUMP JUMPDEST JUMPDEST STOP JUMPDEST PUSH2 0x31F PUSH1 0x4 DUP1 CALLDATASIZE SUB DUP2 ADD SWAP1 PUSH2 0x31A SWAP2 SWAP1 PUSH2 0x39BB JUMP JUMPDEST PUSH2 0xDB0 JUMP JUMPDEST PUSH1 0x40 MLOAD PUSH2 0x32C SWAP2 SWAP1 PUSH2 0x3A13 JUMP JUMPDEST PUSH1 0x40 MLOAD DUP1 SWAP2 SUB SWAP1 RETURN JUMPDEST PUSH2 0x34F PUSH1 0x4 DUP1 CALLDATASIZE SUB DUP2 ADD SWAP1 PUSH2 0x34A SWAP2 SWAP1 PUSH2 0x3A67 JUMP JUMPDEST PUSH2 0xE1B JUMP JUMPDEST STOP JUMPDEST PUSH2 0x36B PUSH1 0x4 DUP1 CALLDATASIZE SUB DUP2 ADD SWAP1 PUSH2 0x366 SWAP2 SWAP1 PUSH2 0x3AB7 JUMP JUMPDEST PUSH2 0x1278 JUMP JUMPDEST PUSH1 0x40 MLOAD PUSH2 0x378 SWAP2 SWAP1 PUSH2 0x3AFA JUMP JUMPDEST PUSH1 0x40 MLOAD DUP1 SWAP2 SUB SWAP1 RETURN JUMPDEST PUSH2 0x389 PUSH2 0x128D JUMP JUMPDEST PUSH1 0x40 MLOAD PUSH2 0x396 SWAP2 SWAP1 PUSH2 0x3B22 JUMP JUMPDEST PUSH1 0x40 MLOAD DUP1 SWAP2 SUB SWAP1 RETURN JUMPDEST PUSH2 0x3B9 PUSH1 0x4 DUP1 CALLDATASIZE SUB DUP2 ADD SWAP1 PUSH2 0x3B4 SWAP2 SWAP1 PUSH2 0x3B65 JUMP JUMPDEST PUSH2 0x12A0 JUMP JUMPDEST PUSH1 0x40 MLOAD PUSH2 0x3C6 SWAP2 SWAP1 PUSH2 0x3B9F JUMP JUMPDEST PUSH1 0x40 MLOAD DUP1 SWAP2 SUB SWAP1 RETURN JUMPDEST PUSH2 0x3D7 PUSH2 0x12D0 JUMP JUMPDEST PUSH1 0x40 MLOAD PUSH2 0x3E4 SWAP2 SWAP1 PUSH2 0x3AFA JUMP JUMPDEST PUSH1 0x40 MLOAD DUP1 SWAP2 SUB SWAP1 RETURN JUMPDEST PUSH2 0x407 PUSH1 0x4 DUP1 CALLDATASIZE SUB DUP2 ADD SWAP1 PUSH2 0x402 SWAP2 SWAP1 PUSH2 0x3CF4 JUMP JUMPDEST PUSH2 0x12D6 JUMP JUMPDEST STOP JUMPDEST PUSH2 0x423 PUSH1 0x4 DUP1 CALLDATASIZE SUB DUP2 ADD SWAP1 PUSH2 0x41E SWAP2 SWAP1 PUSH2 0x3B65 JUMP JUMPDEST PUSH2 0x12ED JUMP JUMPDEST PUSH1 0x40 MLOAD PUSH2 0x430 SWAP2 SWAP1 PUSH2 0x3B9F JUMP JUMPDEST PUSH1 0x40 MLOAD DUP1 SWAP2 SUB SWAP1 RETURN JUMPDEST PUSH2 0x441 PUSH2 0x131D JUMP JUMPDEST PUSH1 0x40 MLOAD PUSH2 0x44E SWAP2 SWAP1 PUSH2 0x3B9F JUMP JUMPDEST PUSH1 0x40 MLOAD DUP1 SWAP2 SUB SWAP1 RETURN JUMPDEST PUSH2 0x471 PUSH1 0x4 DUP1 CALLDATASIZE SUB DUP2 ADD SWAP1 PUSH2 0x46C SWAP2 SWAP1 PUSH2 0x3AB7 JUMP JUMPDEST PUSH2 0x1342 JUMP JUMPDEST PUSH1 0x40 MLOAD PUSH2 0x47E SWAP2 SWAP1 PUSH2 0x3A13 JUMP JUMPDEST PUSH1 0x40 MLOAD DUP1 SWAP2 SUB SWAP1 RETURN JUMPDEST PUSH2 0x48F PUSH2 0x138D JUMP JUMPDEST PUSH1 0x40 MLOAD PUSH2 0x49C SWAP2 SWAP1 PUSH2 0x3B9F JUMP JUMPDEST PUSH1 0x40 MLOAD DUP1 SWAP2 SUB SWAP1 RETURN JUMPDEST PUSH2 0x4BF PUSH1 0x4 DUP1 CALLDATASIZE SUB DUP2 ADD SWAP1 PUSH2 0x4BA SWAP2 SWAP1 PUSH2 0x3CF4 JUMP JUMPDEST PUSH2 0x13B2 JUMP JUMPDEST STOP JUMPDEST PUSH2 0x4DB PUSH1 0x4 DUP1 CALLDATASIZE SUB DUP2 ADD SWAP1 PUSH2 0x4D6 SWAP2 SWAP1 PUSH2 0x39BB JUMP JUMPDEST PUSH2 0x1438 JUMP JUMPDEST PUSH1 0x40 MLOAD PUSH2 0x4EA SWAP4 SWAP3 SWAP2 SWAP1 PUSH2 0x3EC0 JUMP JUMPDEST PUSH1 0x40 MLOAD DUP1 SWAP2 SUB SWAP1 RETURN JUMPDEST PUSH2 0x50D PUSH1 0x4 DUP1 CALLDATASIZE SUB DUP2 ADD SWAP1 PUSH2 0x508 SWAP2 SWAP1 PUSH2 0x3EFC JUMP JUMPDEST PUSH2 0x1602 JUMP JUMPDEST STOP JUMPDEST PUSH2 0x517 PUSH2 0x1689 JUMP JUMPDEST PUSH1 0x40 MLOAD PUSH2 0x524 SWAP2 SWAP1 PUSH2 0x3B9F JUMP JUMPDEST PUSH1 0x40 MLOAD DUP1 SWAP2 SUB SWAP1 RETURN JUMPDEST PUSH2 0x535 PUSH2 0x16AC JUMP JUMPDEST PUSH1 0x40 MLOAD PUSH2 0x542 SWAP2 SWAP1 PUSH2 0x3AFA JUMP JUMPDEST PUSH1 0x40 MLOAD DUP1 SWAP2 SUB SWAP1 RETURN JUMPDEST PUSH2 0x553 PUSH2 0x17CE JUMP JUMPDEST PUSH1 0x40 MLOAD PUSH2 0x560 SWAP2 SWAP1 PUSH2 0x3AFA JUMP JUMPDEST PUSH1 0x40 MLOAD DUP1 SWAP2 SUB SWAP1 RETURN JUMPDEST PUSH2 0x583 PUSH1 0x4 DUP1 CALLDATASIZE SUB DUP2 ADD SWAP1 PUSH2 0x57E SWAP2 SWAP1 PUSH2 0x3AB7 JUMP JUMPDEST PUSH2 0x17D4 JUMP JUMPDEST STOP JUMPDEST PUSH2 0x59F PUSH1 0x4 DUP1 CALLDATASIZE SUB DUP2 ADD SWAP1 PUSH2 0x59A SWAP2 SWAP1 PUSH2 0x3AB7 JUMP JUMPDEST PUSH2 0x1AAC JUMP JUMPDEST PUSH1 0x40 MLOAD PUSH2 0x5B4 SWAP10 SWAP9 SWAP8 SWAP7 SWAP6 SWAP5 SWAP4 SWAP3 SWAP2 SWAP1 PUSH2 0x409D JUMP JUMPDEST PUSH1 0x40 MLOAD DUP1 SWAP2 SUB SWAP1 RETURN JUMPDEST PUSH2 0x5D7 PUSH1 0x4 DUP1 CALLDATASIZE SUB DUP2 ADD SWAP1 PUSH2 0x5D2 SWAP2 SWAP1 PUSH2 0x3AB7 JUMP JUMPDEST PUSH2 0x1DB3 JUMP JUMPDEST PUSH1 0x40 MLOAD PUSH2 0x5E4 SWAP2 SWAP1 PUSH2 0x414B JUMP JUMPDEST PUSH1 0x40 MLOAD DUP1 SWAP2 SUB SWAP1 RETURN JUMPDEST PUSH2 0x607 PUSH1 0x4 DUP1 CALLDATASIZE SUB DUP2 ADD SWAP1 PUSH2 0x602 SWAP2 SWAP1 PUSH2 0x416B JUMP JUMPDEST PUSH2 0x1E28 JUMP JUMPDEST STOP JUMPDEST PUSH2 0x623 PUSH1 0x4 DUP1 CALLDATASIZE SUB DUP2 ADD SWAP1 PUSH2 0x61E SWAP2 SWAP1 PUSH2 0x41BB JUMP JUMPDEST PUSH2 0x1EA7 JUMP JUMPDEST STOP JUMPDEST PUSH2 0x62D PUSH2 0x1F25 JUMP JUMPDEST PUSH1 0x40 MLOAD PUSH2 0x63A SWAP2 SWAP1 PUSH2 0x4254 JUMP JUMPDEST PUSH1 0x40 MLOAD DUP1 SWAP2 SUB SWAP1 RETURN JUMPDEST PUSH2 0x64B PUSH2 0x1F4A JUMP JUMPDEST PUSH1 0x40 MLOAD PUSH2 0x658 SWAP2 SWAP1 PUSH2 0x3B9F JUMP JUMPDEST PUSH1 0x40 MLOAD DUP1 SWAP2 SUB SWAP1 RETURN JUMPDEST PUSH2 0x669 PUSH2 0x1F6F JUMP JUMPDEST PUSH1 0x40 MLOAD PUSH2 0x676 SWAP2 SWAP1 PUSH2 0x3A13 JUMP JUMPDEST PUSH1 0x40 MLOAD DUP1 SWAP2 SUB SWAP1 RETURN JUMPDEST PUSH2 0x699 PUSH1 0x4 DUP1 CALLDATASIZE SUB DUP2 ADD SWAP1 PUSH2 0x694 SWAP2 SWAP1 PUSH2 0x3AB7 JUMP JUMPDEST PUSH2 0x1F81 JUMP JUMPDEST PUSH1 0x40 MLOAD PUSH2 0x6A6 SWAP2 SWAP1 PUSH2 0x43CC JUMP JUMPDEST PUSH1 0x40 MLOAD DUP1 SWAP2 SUB SWAP1 RETURN JUMPDEST PUSH2 0x6C9 PUSH1 0x4 DUP1 CALLDATASIZE SUB DUP2 ADD SWAP1 PUSH2 0x6C4 SWAP2 SWAP1 PUSH2 0x43EC JUMP JUMPDEST PUSH2 0x20BD JUMP JUMPDEST PUSH1 0x40 MLOAD PUSH2 0x6D8 SWAP4 SWAP3 SWAP2 SWAP1 PUSH2 0x442A JUMP JUMPDEST PUSH1 0x40 MLOAD DUP1 SWAP2 SUB SWAP1 RETURN JUMPDEST PUSH2 0x6FB PUSH1 0x4 DUP1 CALLDATASIZE SUB DUP2 ADD SWAP1 PUSH2 0x6F6 SWAP2 SWAP1 PUSH2 0x4466 JUMP JUMPDEST PUSH2 0x2183 JUMP JUMPDEST PUSH1 0x40 MLOAD PUSH2 0x708 SWAP2 SWAP1 PUSH2 0x3AFA JUMP JUMPDEST PUSH1 0x40 MLOAD DUP1 SWAP2 SUB SWAP1 RETURN JUMPDEST PUSH2 0x719 PUSH2 0x2198 JUMP JUMPDEST STOP JUMPDEST PUSH2 0x735 PUSH1 0x4 DUP1 CALLDATASIZE SUB DUP2 ADD SWAP1 PUSH2 0x730 SWAP2 SWAP1 PUSH2 0x39BB JUMP JUMPDEST PUSH2 0x2251 JUMP JUMPDEST PUSH1 0x40 MLOAD PUSH2 0x742 SWAP2 SWAP1 PUSH2 0x3B9F JUMP JUMPDEST PUSH1 0x40 MLOAD DUP1 SWAP2 SUB SWAP1 RETURN JUMPDEST PUSH0 PUSH1 0x5 PUSH1 0x2 PUSH1 0xC SLOAD PUSH2 0x75D SWAP2 SWAP1 PUSH2 0x44BE JUMP JUMPDEST PUSH2 0x767 SWAP2 SWAP1 PUSH2 0x44FF JUMP JUMPDEST SWAP1 POP PUSH2 0x7B7 CALLER ADDRESS DUP4 PUSH1 0xB PUSH0 SWAP1 SLOAD SWAP1 PUSH2 0x100 EXP SWAP1 DIV PUSH20 0xFFFFFFFFFFFFFFFFFFFFFFFFFFFFFFFFFFFFFFFF AND PUSH20 0xFFFFFFFFFFFFFFFFFFFFFFFFFFFFFFFFFFFFFFFF AND PUSH2 0x23F5 SWAP1 SWAP4 SWAP3 SWAP2 SWAP1 PUSH4 0xFFFFFFFF AND JUMP JUMPDEST PUSH2 0x7C0 DUP9 PUSH2 0x1342 JUMP JUMPDEST ISZERO PUSH2 0x800 JUMPI PUSH1 0x40 MLOAD PUSH32 0x8C379A000000000000000000000000000000000000000000000000000000000 DUP2 MSTORE PUSH1 0x4 ADD PUSH2 0x7F7 SWAP1 PUSH2 0x457C JUMP JUMPDEST PUSH1 0x40 MLOAD DUP1 SWAP2 SUB SWAP1 REVERT JUMPDEST PUSH0 DUP9 EXTCODESIZE SWAP1 POP PUSH0 DUP2 PUSH4 0xFFFFFFFF AND EQ PUSH2 0x84D JUMPI PUSH1 0x40 MLOAD PUSH32 0x8C379A000000000000000000000000000000000000000000000000000000000 DUP2 MSTORE PUSH1 0x4 ADD PUSH2 0x844 SWAP1 PUSH2 0x45E4 JUMP JUMPDEST PUSH1 0x40 MLOAD DUP1 SWAP2 SUB SWAP1 REVERT JUMPDEST PUSH1 0x7 PUSH0 DUP2 SLOAD DUP1 SWAP3 SWAP2 SWAP1 PUSH2 0x85F SWAP1 PUSH2 0x4602 JUMP JUMPDEST SWAP2 SWAP1 POP SSTORE POP PUSH0 PUSH1 0x2 PUSH0 DUP12 PUSH20 0xFFFFFFFFFFFFFFFFFFFFFFFFFFFFFFFFFFFFFFFF AND PUSH20 0xFFFFFFFFFFFFFFFFFFFFFFFFFFFFFFFFFFFFFFFF AND DUP2 MSTORE PUSH1 0x20 ADD SWAP1 DUP2 MSTORE PUSH1 0x20 ADD PUSH0 KECCAK256 SWAP1 POP PUSH1 0x7 SLOAD DUP2 PUSH0 ADD DUP2 SWAP1 SSTORE POP DUP9 DUP2 PUSH1 0x1 ADD PUSH0 PUSH2 0x100 EXP DUP2 SLOAD DUP2 PUSH20 0xFFFFFFFFFFFFFFFFFFFFFFFFFFFFFFFFFFFFFFFF MUL NOT AND SWAP1 DUP4 PUSH20 0xFFFFFFFFFFFFFFFFFFFFFFFFFFFFFFFFFFFFFFFF AND MUL OR SWAP1 SSTORE POP PUSH0 DUP2 PUSH1 0x8 ADD DUP2 SWAP1 SSTORE POP DUP8 DUP2 PUSH1 0x2 ADD SWAP1 DUP2 PUSH2 0x90A SWAP2 SWAP1 PUSH2 0x483A JUMP JUMPDEST POP DUP7 DUP2 PUSH1 0x3 ADD SWAP1 DUP2 PUSH2 0x91C SWAP2 SWAP1 PUSH2 0x483A JUMP JUMPDEST POP DUP6 DUP2 PUSH1 0x4 ADD SWAP1 DUP2 PUSH2 0x92E SWAP2 SWAP1 PUSH2 0x483A JUMP JUMPDEST POP DUP5 PUSH1 0x40 MLOAD PUSH1 0x20 ADD PUSH2 0x940 SWAP2 SWAP1 PUSH2 0x4943 JUMP JUMPDEST PUSH1 0x40 MLOAD PUSH1 0x20 DUP2 DUP4 SUB SUB DUP2 MSTORE SWAP1 PUSH1 0x40 MSTORE DUP1 MLOAD SWAP1 PUSH1 0x20 ADD KECCAK256 DUP2 PUSH1 0x5 ADD DUP2 SWAP1 SSTORE POP DUP4 DUP2 PUSH1 0x6 ADD SWAP1 DUP2 PUSH2 0x96F SWAP2 SWAP1 PUSH2 0x483A JUMP JUMPDEST POP PUSH2 0x979 DUP11 PUSH2 0x1DB3 JUMP JUMPDEST DUP2 PUSH1 0x7 ADD SWAP1 DUP2 PUSH2 0x989 SWAP2 SWAP1 PUSH2 0x483A JUMP JUMPDEST POP PUSH1 0x1 DUP2 PUSH1 0x9 ADD PUSH0 PUSH1 0x1 PUSH1 0xFF AND DUP2 MSTORE PUSH1 0x20 ADD SWAP1 DUP2 MSTORE PUSH1 0x20 ADD PUSH0 KECCAK256 PUSH0 PUSH2 0x100 EXP DUP2 SLOAD DUP2 PUSH1 0xFF MUL NOT AND SWAP1 DUP4 ISZERO ISZERO MUL OR SWAP1 SSTORE POP DUP10 PUSH1 0x3 PUSH0 PUSH1 0x7 SLOAD DUP2 MSTORE PUSH1 0x20 ADD SWAP1 DUP2 MSTORE PUSH1 0x20 ADD PUSH0 KECCAK256 PUSH0 PUSH2 0x100 EXP DUP2 SLOAD DUP2 PUSH20 0xFFFFFFFFFFFFFFFFFFFFFFFFFFFFFFFFFFFFFFFF MUL NOT AND SWAP1 DUP4 PUSH20 0xFFFFFFFFFFFFFFFFFFFFFFFFFFFFFFFFFFFFFFFF AND MUL OR SWAP1 SSTORE POP DUP10 PUSH1 0x4 PUSH0 PUSH1 0x7 SLOAD DUP2 MSTORE PUSH1 0x20 ADD SWAP1 DUP2 MSTORE PUSH1 0x20 ADD PUSH0 KECCAK256 PUSH0 PUSH2 0x100 EXP DUP2 SLOAD DUP2 PUSH20 0xFFFFFFFFFFFFFFFFFFFFFFFFFFFFFFFFFFFFFFFF MUL NOT AND SWAP1 DUP4 PUSH20 0xFFFFFFFFFFFFFFFFFFFFFFFFFFFFFFFFFFFFFFFF AND MUL OR SWAP1 SSTORE POP PUSH1 0x2 PUSH0 DUP11 PUSH20 0xFFFFFFFFFFFFFFFFFFFFFFFFFFFFFFFFFFFFFFFF AND PUSH20 0xFFFFFFFFFFFFFFFFFFFFFFFFFFFFFFFFFFFFFFFF AND DUP2 MSTORE PUSH1 0x20 ADD SWAP1 DUP2 MSTORE PUSH1 0x20 ADD PUSH0 KECCAK256 PUSH1 0x8 ADD PUSH0 DUP2 SLOAD DUP1 SWAP3 SWAP2 SWAP1 PUSH2 0xAAB SWAP1 PUSH2 0x4602 JUMP JUMPDEST SWAP2 SWAP1 POP SSTORE POP PUSH0 PUSH2 0xABC DUP12 PUSH1 0x1 PUSH2 0x2251 JUMP JUMPDEST SWAP1 POP DUP1 PUSH1 0x2 PUSH0 DUP14 PUSH20 0xFFFFFFFFFFFFFFFFFFFFFFFFFFFFFFFFFFFFFFFF AND PUSH20 0xFFFFFFFFFFFFFFFFFFFFFFFFFFFFFFFFFFFFFFFF AND DUP2 MSTORE PUSH1 0x20 ADD SWAP1 DUP2 MSTORE PUSH1 0x20 ADD PUSH0 KECCAK256 PUSH1 0xA ADD PUSH0 PUSH1 0x1 PUSH1 0xFF AND DUP2 MSTORE PUSH1 0x20 ADD SWAP1 DUP2 MSTORE PUSH1 0x20 ADD PUSH0 KECCAK256 PUSH0 ADD PUSH0 PUSH2 0x100 EXP DUP2 SLOAD DUP2 PUSH20 0xFFFFFFFFFFFFFFFFFFFFFFFFFFFFFFFFFFFFFFFF MUL NOT AND SWAP1 DUP4 PUSH20 0xFFFFFFFFFFFFFFFFFFFFFFFFFFFFFFFFFFFFFFFF AND MUL OR SWAP1 SSTORE POP PUSH1 0x2 PUSH0 DUP3 PUSH20 0xFFFFFFFFFFFFFFFFFFFFFFFFFFFFFFFFFFFFFFFF AND PUSH20 0xFFFFFFFFFFFFFFFFFFFFFFFFFFFFFFFFFFFFFFFF AND DUP2 MSTORE PUSH1 0x20 ADD SWAP1 DUP2 MSTORE PUSH1 0x20 ADD PUSH0 KECCAK256 PUSH1 0xA ADD PUSH0 PUSH1 0x1 PUSH1 0xFF AND DUP2 MSTORE PUSH1 0x20 ADD SWAP1 DUP2 MSTORE PUSH1 0x20 ADD PUSH0 KECCAK256 PUSH1 0x1 ADD DUP12 SWAP1 DUP1 PUSH1 0x1 DUP2 SLOAD ADD DUP1 DUP3 SSTORE DUP1 SWAP2 POP POP PUSH1 0x1 SWAP1 SUB SWAP1 PUSH0 MSTORE PUSH1 0x20 PUSH0 KECCAK256 ADD PUSH0 SWAP1 SWAP2 SWAP1 SWAP2 SWAP1 SWAP2 PUSH2 0x100 EXP DUP2 SLOAD DUP2 PUSH20 0xFFFFFFFFFFFFFFFFFFFFFFFFFFFFFFFFFFFFFFFF MUL NOT AND SWAP1 DUP4 PUSH20 0xFFFFFFFFFFFFFFFFFFFFFFFFFFFFFFFFFFFFFFFF AND MUL OR SWAP1 SSTORE POP PUSH2 0xC11 DUP12 DUP3 PUSH1 0x1 PUSH2 0x247E JUMP JUMPDEST PUSH1 0x6 PUSH0 DUP13 PUSH20 0xFFFFFFFFFFFFFFFFFFFFFFFFFFFFFFFFFFFFFFFF AND PUSH20 0xFFFFFFFFFFFFFFFFFFFFFFFFFFFFFFFFFFFFFFFF AND DUP2 MSTORE PUSH1 0x20 ADD SWAP1 DUP2 MSTORE PUSH1 0x20 ADD PUSH0 KECCAK256 PUSH1 0x40 MLOAD DUP1 PUSH1 0x60 ADD PUSH1 0x40 MSTORE DUP1 DUP7 DUP2 MSTORE PUSH1 0x20 ADD TIMESTAMP DUP2 MSTORE PUSH1 0x20 ADD PUSH1 0x40 MLOAD DUP1 PUSH1 0x40 ADD PUSH1 0x40 MSTORE DUP1 PUSH1 0xC DUP2 MSTORE PUSH1 0x20 ADD PUSH32 0x526567697374726174696F6E0000000000000000000000000000000000000000 DUP2 MSTORE POP DUP2 MSTORE POP SWAP1 DUP1 PUSH1 0x1 DUP2 SLOAD ADD DUP1 DUP3 SSTORE DUP1 SWAP2 POP POP PUSH1 0x1 SWAP1 SUB SWAP1 PUSH0 MSTORE PUSH1 0x20 PUSH0 KECCAK256 SWAP1 PUSH1 0x3 MUL ADD PUSH0 SWAP1 SWAP2 SWAP1 SWAP2 SWAP1 SWAP2 POP PUSH0 DUP3 ADD MLOAD DUP2 PUSH0 ADD SSTORE PUSH1 0x20 DUP3 ADD MLOAD DUP2 PUSH1 0x1 ADD SSTORE PUSH1 0x40 DUP3 ADD MLOAD DUP2 PUSH1 0x2 ADD SWAP1 DUP2 PUSH2 0xCEB SWAP2 SWAP1 PUSH2 0x483A JUMP JUMPDEST POP POP POP DUP2 PUSH0 ADD SLOAD DUP11 PUSH20 0xFFFFFFFFFFFFFFFFFFFFFFFFFFFFFFFFFFFFFFFF AND DUP13 PUSH20 0xFFFFFFFFFFFFFFFFFFFFFFFFFFFFFFFFFFFFFFFF AND PUSH32 0x309BB360E8B69C23937CCC5FB01F9AEEEAD1C95A99604E175113FF82F2B1723A PUSH1 0x2 PUSH0 DUP16 PUSH20 0xFFFFFFFFFFFFFFFFFFFFFFFFFFFFFFFFFFFFFFFF AND PUSH20 0xFFFFFFFFFFFFFFFFFFFFFFFFFFFFFFFFFFFFFFFF AND DUP2 MSTORE PUSH1 0x20 ADD SWAP1 DUP2 MSTORE PUSH1 0x20 ADD PUSH0 KECCAK256 PUSH0 ADD SLOAD PUSH1 0x40 MLOAD PUSH2 0xD8E SWAP2 SWAP1 PUSH2 0x3AFA JUMP JUMPDEST PUSH1 0x40 MLOAD DUP1 SWAP2 SUB SWAP1 LOG4 POP POP POP POP POP POP POP POP POP POP POP JUMP JUMPDEST PUSH0 PUSH1 0x14 DUP3 ADD MLOAD SWAP1 POP SWAP2 SWAP1 POP JUMP JUMPDEST PUSH0 PUSH1 0x2 PUSH0 DUP5 PUSH20 0xFFFFFFFFFFFFFFFFFFFFFFFFFFFFFFFFFFFFFFFF AND PUSH20 0xFFFFFFFFFFFFFFFFFFFFFFFFFFFFFFFFFFFFFFFF AND DUP2 MSTORE PUSH1 0x20 ADD SWAP1 DUP2 MSTORE PUSH1 0x20 ADD PUSH0 KECCAK256 PUSH1 0x9 ADD PUSH0 DUP4 PUSH1 0xFF AND PUSH1 0xFF AND DUP2 MSTORE PUSH1 0x20 ADD SWAP1 DUP2 MSTORE PUSH1 0x20 ADD PUSH0 KECCAK256 PUSH0 SWAP1 SLOAD SWAP1 PUSH2 0x100 EXP SWAP1 DIV PUSH1 0xFF AND SWAP1 POP SWAP3 SWAP2 POP POP JUMP JUMPDEST PUSH1 0x1 PUSH0 SWAP1 SLOAD SWAP1 PUSH2 0x100 EXP SWAP1 DIV PUSH20 0xFFFFFFFFFFFFFFFFFFFFFFFFFFFFFFFFFFFFFFFF AND PUSH20 0xFFFFFFFFFFFFFFFFFFFFFFFFFFFFFFFFFFFFFFFF AND CALLER PUSH20 0xFFFFFFFFFFFFFFFFFFFFFFFFFFFFFFFFFFFFFFFF AND EQ PUSH2 0xEAA JUMPI PUSH1 0x40 MLOAD PUSH32 0x8C379A000000000000000000000000000000000000000000000000000000000 DUP2 MSTORE PUSH1 0x4 ADD PUSH2 0xEA1 SWAP1 PUSH2 0x49A3 JUMP JUMPDEST PUSH1 0x40 MLOAD DUP1 SWAP2 SUB SWAP1 REVERT JUMPDEST PUSH8 0x4563918244F40000 PUSH1 0xC DUP2 SWAP1 SSTORE POP PUSH1 0xC PUSH1 0x1 PUSH1 0x14 PUSH2 0x100 EXP DUP2 SLOAD DUP2 PUSH1 0xFF MUL NOT AND SWAP1 DUP4 PUSH1 0xFF AND MUL OR SWAP1 SSTORE POP PUSH1 0xC SLOAD PUSH1 0xA PUSH0 PUSH1 0x1 PUSH1 0xFF AND DUP2 MSTORE PUSH1 0x20 ADD SWAP1 DUP2 MSTORE PUSH1 0x20 ADD PUSH0 KECCAK256 DUP2 SWAP1 SSTORE POP PUSH0 PUSH1 0x2 SWAP1 POP JUMPDEST PUSH1 0x8 DUP2 PUSH1 0xFF AND GT PUSH2 0xF60 JUMPI PUSH1 0x2 PUSH1 0xA PUSH0 PUSH1 0x1 DUP5 PUSH2 0xF14 SWAP2 SWAP1 PUSH2 0x49C1 JUMP JUMPDEST PUSH1 0xFF AND PUSH1 0xFF AND DUP2 MSTORE PUSH1 0x20 ADD SWAP1 DUP2 MSTORE PUSH1 0x20 ADD PUSH0 KECCAK256 SLOAD PUSH2 0xF32 SWAP2 SWAP1 PUSH2 0x44BE JUMP JUMPDEST PUSH1 0xA PUSH0 DUP4 PUSH1 0xFF AND PUSH1 0xFF AND DUP2 MSTORE PUSH1 0x20 ADD SWAP1 DUP2 MSTORE PUSH1 0x20 ADD PUSH0 KECCAK256 DUP2 SWAP1 SSTORE POP DUP1 DUP1 PUSH2 0xF58 SWAP1 PUSH2 0x49F5 JUMP JUMPDEST SWAP2 POP POP PUSH2 0xEF7 JUMP JUMPDEST POP PUSH9 0x43C33C193756480000 PUSH1 0xA PUSH0 PUSH1 0x9 PUSH1 0xFF AND DUP2 MSTORE PUSH1 0x20 ADD SWAP1 DUP2 MSTORE PUSH1 0x20 ADD PUSH0 KECCAK256 DUP2 SWAP1 SSTORE POP PUSH9 0x878678326EAC900000 PUSH1 0xA PUSH0 PUSH1 0xA PUSH1 0xFF AND DUP2 MSTORE PUSH1 0x20 ADD SWAP1 DUP2 MSTORE PUSH1 0x20 ADD PUSH0 KECCAK256 DUP2 SWAP1 SSTORE POP PUSH10 0x10F0CF064DD59200000 PUSH1 0xA PUSH0 PUSH1 0xB PUSH1 0xFF AND DUP2 MSTORE PUSH1 0x20 ADD SWAP1 DUP2 MSTORE PUSH1 0x20 ADD PUSH0 KECCAK256 DUP2 SWAP1 SSTORE POP PUSH10 0x218AE196B8D4F300000 PUSH1 0xA PUSH0 PUSH1 0xC PUSH1 0xFF AND DUP2 MSTORE PUSH1 0x20 ADD SWAP1 DUP2 MSTORE PUSH1 0x20 ADD PUSH0 KECCAK256 DUP2 SWAP1 SSTORE POP DUP3 PUSH1 0x8 PUSH0 PUSH2 0x100 EXP DUP2 SLOAD DUP2 PUSH20 0xFFFFFFFFFFFFFFFFFFFFFFFFFFFFFFFFFFFFFFFF MUL NOT AND SWAP1 DUP4 PUSH20 0xFFFFFFFFFFFFFFFFFFFFFFFFFFFFFFFFFFFFFFFF AND MUL OR SWAP1 SSTORE POP PUSH0 PUSH1 0x2 PUSH0 DUP6 PUSH20 0xFFFFFFFFFFFFFFFFFFFFFFFFFFFFFFFFFFFFFFFF AND PUSH20 0xFFFFFFFFFFFFFFFFFFFFFFFFFFFFFFFFFFFFFFFF AND DUP2 MSTORE PUSH1 0x20 ADD SWAP1 DUP2 MSTORE PUSH1 0x20 ADD PUSH0 KECCAK256 SWAP1 POP PUSH1 0x1 DUP2 PUSH0 ADD DUP2 SWAP1 SSTORE POP PUSH0 DUP2 PUSH1 0x1 ADD PUSH0 PUSH2 0x100 EXP DUP2 SLOAD DUP2 PUSH20 0xFFFFFFFFFFFFFFFFFFFFFFFFFFFFFFFFFFFFFFFF MUL NOT AND SWAP1 DUP4 PUSH20 0xFFFFFFFFFFFFFFFFFFFFFFFFFFFFFFFFFFFFFFFF AND MUL OR SWAP1 SSTORE POP PUSH0 DUP2 PUSH1 0x8 ADD DUP2 SWAP1 SSTORE POP PUSH2 0x10CC DUP5 PUSH2 0x1DB3 JUMP JUMPDEST DUP2 PUSH1 0x7 ADD SWAP1 DUP2 PUSH2 0x10DC SWAP2 SWAP1 PUSH2 0x483A JUMP JUMPDEST POP DUP4 PUSH1 0x3 PUSH0 PUSH1 0x1 DUP2 MSTORE PUSH1 0x20 ADD SWAP1 DUP2 MSTORE PUSH1 0x20 ADD PUSH0 KECCAK256 PUSH0 PUSH2 0x100 EXP DUP2 SLOAD DUP2 PUSH20 0xFFFFFFFFFFFFFFFFFFFFFFFFFFFFFFFFFFFFFFFF MUL NOT AND SWAP1 DUP4 PUSH20 0xFFFFFFFFFFFFFFFFFFFFFFFFFFFFFFFFFFFFFFFF AND MUL OR SWAP1 SSTORE POP PUSH0 PUSH1 0x1 SWAP1 POP JUMPDEST PUSH1 0x1 PUSH1 0x14 SWAP1 SLOAD SWAP1 PUSH2 0x100 EXP SWAP1 DIV PUSH1 0xFF AND PUSH1 0xFF AND DUP2 PUSH1 0xFF AND GT PUSH2 0x11CF JUMPI PUSH1 0x1 PUSH1 0x2 PUSH0 DUP8 PUSH20 0xFFFFFFFFFFFFFFFFFFFFFFFFFFFFFFFFFFFFFFFF AND PUSH20 0xFFFFFFFFFFFFFFFFFFFFFFFFFFFFFFFFFFFFFFFF AND DUP2 MSTORE PUSH1 0x20 ADD SWAP1 DUP2 MSTORE PUSH1 0x20 ADD PUSH0 KECCAK256 PUSH1 0x9 ADD PUSH0 DUP4 PUSH1 0xFF AND PUSH1 0xFF AND DUP2 MSTORE PUSH1 0x20 ADD SWAP1 DUP2 MSTORE PUSH1 0x20 ADD PUSH0 KECCAK256 PUSH0 PUSH2 0x100 EXP DUP2 SLOAD DUP2 PUSH1 0xFF MUL NOT AND SWAP1 DUP4 ISZERO ISZERO MUL OR SWAP1 SSTORE POP DUP1 DUP1 PUSH2 0x11C7 SWAP1 PUSH2 0x49F5 JUMP JUMPDEST SWAP2 POP POP PUSH2 0x1133 JUMP JUMPDEST POP PUSH1 0x2 PUSH1 0x7 DUP2 SWAP1 SSTORE POP DUP2 PUSH1 0xB PUSH0 PUSH2 0x100 EXP DUP2 SLOAD DUP2 PUSH20 0xFFFFFFFFFFFFFFFFFFFFFFFFFFFFFFFFFFFFFFFF MUL NOT AND SWAP1 DUP4 PUSH20 0xFFFFFFFFFFFFFFFFFFFFFFFFFFFFFFFFFFFFFFFF AND MUL OR SWAP1 SSTORE POP DUP3 PUSH1 0x9 PUSH0 PUSH2 0x100 EXP DUP2 SLOAD DUP2 PUSH20 0xFFFFFFFFFFFFFFFFFFFFFFFFFFFFFFFFFFFFFFFF MUL NOT AND SWAP1 DUP4 PUSH20 0xFFFFFFFFFFFFFFFFFFFFFFFFFFFFFFFFFFFFFFFF AND MUL OR SWAP1 SSTORE POP PUSH1 0x1 PUSH1 0xD PUSH0 PUSH2 0x100 EXP DUP2 SLOAD DUP2 PUSH1 0xFF MUL NOT AND SWAP1 DUP4 ISZERO ISZERO MUL OR SWAP1 SSTORE POP POP POP POP POP JUMP JUMPDEST PUSH1 0x5 PUSH1 0x20 MSTORE DUP1 PUSH0 MSTORE PUSH1 0x40 PUSH0 KECCAK256 PUSH0 SWAP2 POP SWAP1 POP SLOAD DUP2 JUMP JUMPDEST PUSH1 0x1 PUSH1 0x14 SWAP1 SLOAD SWAP1 PUSH2 0x100 EXP SWAP1 DIV PUSH1 0xFF AND DUP2 JUMP JUMPDEST PUSH1 0x3 PUSH1 0x20 MSTORE DUP1 PUSH0 MSTORE PUSH1 0x40 PUSH0 KECCAK256 PUSH0 SWAP2 POP SLOAD SWAP1 PUSH2 0x100 EXP SWAP1 DIV PUSH20 0xFFFFFFFFFFFFFFFFFFFFFFFFFFFFFFFFFFFFFFFF AND DUP2 JUMP JUMPDEST PUSH1 0x7 SLOAD DUP2 JUMP JUMPDEST PUSH2 0x12E5 CALLER DUP8 DUP8 DUP8 DUP8 DUP8 DUP8 PUSH2 0x74B JUMP JUMPDEST POP POP POP POP POP POP JUMP JUMPDEST PUSH1 0x4 PUSH1 0x20 MSTORE DUP1 PUSH0 MSTORE PUSH1 0x40 PUSH0 KECCAK256 PUSH0 SWAP2 POP SLOAD SWAP1 PUSH2 0x100 EXP SWAP1 DIV PUSH20 0xFFFFFFFFFFFFFFFFFFFFFFFFFFFFFFFFFFFFFFFF AND DUP2 JUMP JUMPDEST PUSH1 0x9 PUSH0 SWAP1 SLOAD SWAP1 PUSH2 0x100 EXP SWAP1 DIV PUSH20 0xFFFFFFFFFFFFFFFFFFFFFFFFFFFFFFFFFFFFFFFF AND DUP2 JUMP JUMPDEST PUSH0 DUP1 PUSH1 0x2 PUSH0 DUP5 PUSH20 0xFFFFFFFFFFFFFFFFFFFFFFFFFFFFFFFFFFFFFFFF AND PUSH20 0xFFFFFFFFFFFFFFFFFFFFFFFFFFFFFFFFFFFFFFFF AND DUP2 MSTORE PUSH1 0x20 ADD SWAP1 DUP2 MSTORE PUSH1 0x20 ADD PUSH0 KECCAK256 PUSH0 ADD SLOAD EQ ISZERO SWAP1 POP SWAP2 SWAP1 POP JUMP JUMPDEST PUSH1 0x8 PUSH0 SWAP1 SLOAD SWAP1 PUSH2 0x100 EXP SWAP1 DIV PUSH20 0xFFFFFFFFFFFFFFFFFFFFFFFFFFFFFFFFFFFFFFFF AND DUP2 JUMP JUMPDEST PUSH1 0xD PUSH0 SWAP1 SLOAD SWAP1 PUSH2 0x100 EXP SWAP1 DIV PUSH1 0xFF AND ISZERO DUP1 PUSH2 0x1419 JUMPI POP PUSH1 0x1 PUSH0 SWAP1 SLOAD SWAP1 PUSH2 0x100 EXP SWAP1 DIV PUSH20 0xFFFFFFFFFFFFFFFFFFFFFFFFFFFFFFFFFFFFFFFF AND PUSH20 0xFFFFFFFFFFFFFFFFFFFFFFFFFFFFFFFFFFFFFFFF AND CALLER PUSH20 0xFFFFFFFFFFFFFFFFFFFFFFFFFFFFFFFFFFFFFFFF AND EQ JUMPDEST PUSH2 0x1421 JUMPI PUSH0 DUP1 REVERT JUMPDEST PUSH2 0x1430 CALLER DUP8 DUP8 DUP8 DUP8 DUP8 DUP8 PUSH2 0x74B JUMP JUMPDEST POP POP POP POP POP POP JUMP JUMPDEST PUSH0 PUSH1 0x60 PUSH0 PUSH1 0x2 PUSH0 DUP7 PUSH20 0xFFFFFFFFFFFFFFFFFFFFFFFFFFFFFFFFFFFFFFFF AND PUSH20 0xFFFFFFFFFFFFFFFFFFFFFFFFFFFFFFFFFFFFFFFF AND DUP2 MSTORE PUSH1 0x20 ADD SWAP1 DUP2 MSTORE PUSH1 0x20 ADD PUSH0 KECCAK256 PUSH1 0xA ADD PUSH0 DUP6 PUSH1 0xFF AND PUSH1 0xFF AND DUP2 MSTORE PUSH1 0x20 ADD SWAP1 DUP2 MSTORE PUSH1 0x20 ADD PUSH0 KECCAK256 PUSH0 ADD PUSH0 SWAP1 SLOAD SWAP1 PUSH2 0x100 EXP SWAP1 DIV PUSH20 0xFFFFFFFFFFFFFFFFFFFFFFFFFFFFFFFFFFFFFFFF AND PUSH1 0x2 PUSH0 DUP8 PUSH20 0xFFFFFFFFFFFFFFFFFFFFFFFFFFFFFFFFFFFFFFFF AND PUSH20 0xFFFFFFFFFFFFFFFFFFFFFFFFFFFFFFFFFFFFFFFF AND DUP2 MSTORE PUSH1 0x20 ADD SWAP1 DUP2 MSTORE PUSH1 0x20 ADD PUSH0 KECCAK256 PUSH1 0xA ADD PUSH0 DUP7 PUSH1 0xFF AND PUSH1 0xFF AND DUP2 MSTORE PUSH1 0x20 ADD SWAP1 DUP2 MSTORE PUSH1 0x20 ADD PUSH0 KECCAK256 PUSH1 0x1 ADD PUSH1 0x2 PUSH0 DUP9 PUSH20 0xFFFFFFFFFFFFFFFFFFFFFFFFFFFFFFFFFFFFFFFF AND PUSH20 0xFFFFFFFFFFFFFFFFFFFFFFFFFFFFFFFFFFFFFFFF AND DUP2 MSTORE PUSH1 0x20 ADD SWAP1 DUP2 MSTORE PUSH1 0x20 ADD PUSH0 KECCAK256 PUSH1 0xA ADD PUSH0 DUP8 PUSH1 0xFF AND PUSH1 0xFF AND DUP2 MSTORE PUSH1 0x20 ADD SWAP1 DUP2 MSTORE PUSH1 0x20 ADD PUSH0 KECCAK256 PUSH1 0x2 ADD PUSH0 SWAP1 SLOAD SWAP1 PUSH2 0x100 EXP SWAP1 DIV PUSH1 0xFF AND DUP2 DUP1 SLOAD DUP1 PUSH1 0x20 MUL PUSH1 0x20 ADD PUSH1 0x40 MLOAD SWAP1 DUP2 ADD PUSH1 0x40 MSTORE DUP1 SWAP3 SWAP2 SWAP1 DUP2 DUP2 MSTORE PUSH1 0x20 ADD DUP3 DUP1 SLOAD DUP1 ISZERO PUSH2 0x15EE JUMPI PUSH1 0x20 MUL DUP3 ADD SWAP2 SWAP1 PUSH0 MSTORE PUSH1 0x20 PUSH0 KECCAK256 SWAP1 JUMPDEST DUP2 PUSH0 SWAP1 SLOAD SWAP1 PUSH2 0x100 EXP SWAP1 DIV PUSH20 0xFFFFFFFFFFFFFFFFFFFFFFFFFFFFFFFFFFFFFFFF AND PUSH20 0xFFFFFFFFFFFFFFFFFFFFFFFFFFFFFFFFFFFFFFFF AND DUP2 MSTORE PUSH1 0x20 ADD SWAP1 PUSH1 0x1 ADD SWAP1 DUP1 DUP4 GT PUSH2 0x15A5 JUMPI JUMPDEST POP POP POP POP POP SWAP2 POP SWAP3 POP SWAP3 POP SWAP3 POP SWAP3 POP SWAP3 POP SWAP3 JUMP JUMPDEST PUSH1 0xD PUSH0 SWAP1 SLOAD SWAP1 PUSH2 0x100 EXP SWAP1 DIV PUSH1 0xFF AND ISZERO DUP1 PUSH2 0x1669 JUMPI POP PUSH1 0x1 PUSH0 SWAP1 SLOAD SWAP1 PUSH2 0x100 EXP SWAP1 DIV PUSH20 0xFFFFFFFFFFFFFFFFFFFFFFFFFFFFFFFFFFFFFFFF AND PUSH20 0xFFFFFFFFFFFFFFFFFFFFFFFFFFFFFFFFFFFFFFFF AND CALLER PUSH20 0xFFFFFFFFFFFFFFFFFFFFFFFFFFFFFFFFFFFFFFFF AND EQ JUMPDEST PUSH2 0x1671 JUMPI PUSH0 DUP1 REVERT JUMPDEST PUSH2 0x1680 DUP8 DUP8 DUP8 DUP8 DUP8 DUP8 DUP8 PUSH2 0x74B JUMP JUMPDEST POP POP POP POP POP POP POP JUMP JUMPDEST PUSH0 DUP1 SLOAD SWAP1 PUSH2 0x100 EXP SWAP1 DIV PUSH20 0xFFFFFFFFFFFFFFFFFFFFFFFFFFFFFFFFFFFFFFFF AND DUP2 JUMP JUMPDEST PUSH0 DUP1 PUSH0 SWAP1 POP PUSH0 PUSH1 0x1 SWAP1 POP JUMPDEST PUSH1 0x7 SLOAD DUP2 LT ISZERO PUSH2 0x17C6 JUMPI PUSH0 PUSH1 0x4 PUSH0 DUP4 DUP2 MSTORE PUSH1 0x20 ADD SWAP1 DUP2 MSTORE PUSH1 0x20 ADD PUSH0 KECCAK256 PUSH0 SWAP1 SLOAD SWAP1 PUSH2 0x100 EXP SWAP1 DIV PUSH20 0xFFFFFFFFFFFFFFFFFFFFFFFFFFFFFFFFFFFFFFFF AND SWAP1 POP PUSH0 JUMPDEST PUSH1 0x6 PUSH0 DUP4 PUSH20 0xFFFFFFFFFFFFFFFFFFFFFFFFFFFFFFFFFFFFFFFF AND PUSH20 0xFFFFFFFFFFFFFFFFFFFFFFFFFFFFFFFFFFFFFFFF AND DUP2 MSTORE PUSH1 0x20 ADD SWAP1 DUP2 MSTORE PUSH1 0x20 ADD PUSH0 KECCAK256 DUP1 SLOAD SWAP1 POP DUP2 LT ISZERO PUSH2 0x17B7 JUMPI PUSH1 0x6 PUSH0 DUP4 PUSH20 0xFFFFFFFFFFFFFFFFFFFFFFFFFFFFFFFFFFFFFFFF AND PUSH20 0xFFFFFFFFFFFFFFFFFFFFFFFFFFFFFFFFFFFFFFFF AND DUP2 MSTORE PUSH1 0x20 ADD SWAP1 DUP2 MSTORE PUSH1 0x20 ADD PUSH0 KECCAK256 DUP2 DUP2 SLOAD DUP2 LT PUSH2 0x178E JUMPI PUSH2 0x178D PUSH2 0x4A1D JUMP JUMPDEST JUMPDEST SWAP1 PUSH0 MSTORE PUSH1 0x20 PUSH0 KECCAK256 SWAP1 PUSH1 0x3 MUL ADD PUSH0 ADD SLOAD DUP5 PUSH2 0x17A8 SWAP2 SWAP1 PUSH2 0x44FF JUMP JUMPDEST SWAP4 POP DUP1 DUP1 PUSH1 0x1 ADD SWAP2 POP POP PUSH2 0x16F7 JUMP JUMPDEST POP POP DUP1 DUP1 PUSH1 0x1 ADD SWAP2 POP POP PUSH2 0x16B7 JUMP JUMPDEST POP DUP1 SWAP2 POP POP SWAP1 JUMP JUMPDEST PUSH1 0xC SLOAD DUP2 JUMP JUMPDEST PUSH1 0x1 PUSH0 SWAP1 SLOAD SWAP1 PUSH2 0x100 EXP SWAP1 DIV PUSH20 0xFFFFFFFFFFFFFFFFFFFFFFFFFFFFFFFFFFFFFFFF AND PUSH20 0xFFFFFFFFFFFFFFFFFFFFFFFFFFFFFFFFFFFFFFFF AND CALLER PUSH20 0xFFFFFFFFFFFFFFFFFFFFFFFFFFFFFFFFFFFFFFFF AND EQ PUSH2 0x1863 JUMPI PUSH1 0x40 MLOAD PUSH32 0x8C379A000000000000000000000000000000000000000000000000000000000 DUP2 MSTORE PUSH1 0x4 ADD PUSH2 0x185A SWAP1 PUSH2 0x49A3 JUMP JUMPDEST PUSH1 0x40 MLOAD DUP1 SWAP2 SUB SWAP1 REVERT JUMPDEST PUSH1 0xB PUSH0 SWAP1 SLOAD SWAP1 PUSH2 0x100 EXP SWAP1 DIV PUSH20 0xFFFFFFFFFFFFFFFFFFFFFFFFFFFFFFFFFFFFFFFF AND PUSH20 0xFFFFFFFFFFFFFFFFFFFFFFFFFFFFFFFFFFFFFFFF AND DUP2 PUSH20 0xFFFFFFFFFFFFFFFFFFFFFFFFFFFFFFFFFFFFFFFF AND SUB PUSH2 0x18F2 JUMPI PUSH1 0x40 MLOAD PUSH32 0x8C379A000000000000000000000000000000000000000000000000000000000 DUP2 MSTORE PUSH1 0x4 ADD PUSH2 0x18E9 SWAP1 PUSH2 0x4A94 JUMP JUMPDEST PUSH1 0x40 MLOAD DUP1 SWAP2 SUB SWAP1 REVERT JUMPDEST PUSH0 PUSH20 0xFFFFFFFFFFFFFFFFFFFFFFFFFFFFFFFFFFFFFFFF AND DUP2 PUSH20 0xFFFFFFFFFFFFFFFFFFFFFFFFFFFFFFFFFFFFFFFF AND SUB PUSH2 0x1994 JUMPI PUSH0 PUSH1 0x9 PUSH0 SWAP1 SLOAD SWAP1 PUSH2 0x100 EXP SWAP1 DIV PUSH20 0xFFFFFFFFFFFFFFFFFFFFFFFFFFFFFFFFFFFFFFFF AND SWAP1 POP DUP1 PUSH20 0xFFFFFFFFFFFFFFFFFFFFFFFFFFFFFFFFFFFFFFFF AND PUSH2 0x8FC SELFBALANCE SWAP1 DUP2 ISZERO MUL SWAP1 PUSH1 0x40 MLOAD PUSH0 PUSH1 0x40 MLOAD DUP1 DUP4 SUB DUP2 DUP6 DUP9 DUP9 CALL SWAP4 POP POP POP POP ISZERO DUP1 ISZERO PUSH2 0x198D JUMPI RETURNDATASIZE PUSH0 DUP1 RETURNDATACOPY RETURNDATASIZE PUSH0 REVERT JUMPDEST POP POP PUSH2 0x1AA9 JUMP JUMPDEST DUP1 PUSH20 0xFFFFFFFFFFFFFFFFFFFFFFFFFFFFFFFFFFFFFFFF AND PUSH4 0xA9059CBB PUSH1 0x9 PUSH0 SWAP1 SLOAD SWAP1 PUSH2 0x100 EXP SWAP1 DIV PUSH20 0xFFFFFFFFFFFFFFFFFFFFFFFFFFFFFFFFFFFFFFFF AND DUP4 PUSH20 0xFFFFFFFFFFFFFFFFFFFFFFFFFFFFFFFFFFFFFFFF AND PUSH4 0x70A08231 ADDRESS PUSH1 0x40 MLOAD DUP3 PUSH4 0xFFFFFFFF AND PUSH1 0xE0 SHL DUP2 MSTORE PUSH1 0x4 ADD PUSH2 0x1A0B SWAP2 SWAP1 PUSH2 0x3B9F JUMP JUMPDEST PUSH1 0x20 PUSH1 0x40 MLOAD DUP1 DUP4 SUB DUP2 DUP7 GAS STATICCALL ISZERO DUP1 ISZERO PUSH2 0x1A26 JUMPI RETURNDATASIZE PUSH0 DUP1 RETURNDATACOPY RETURNDATASIZE PUSH0 REVERT JUMPDEST POP POP POP POP PUSH1 0x40 MLOAD RETURNDATASIZE PUSH1 0x1F NOT PUSH1 0x1F DUP3 ADD AND DUP3 ADD DUP1 PUSH1 0x40 MSTORE POP DUP2 ADD SWAP1 PUSH2 0x1A4A SWAP2 SWAP1 PUSH2 0x4AC6 JUMP JUMPDEST PUSH1 0x40 MLOAD DUP4 PUSH4 0xFFFFFFFF AND PUSH1 0xE0 SHL DUP2 MSTORE PUSH1 0x4 ADD PUSH2 0x1A67 SWAP3 SWAP2 SWAP1 PUSH2 0x4AF1 JUMP JUMPDEST PUSH1 0x20 PUSH1 0x40 MLOAD DUP1 DUP4 SUB DUP2 PUSH0 DUP8 GAS CALL ISZERO DUP1 ISZERO PUSH2 0x1A83 JUMPI RETURNDATASIZE PUSH0 DUP1 RETURNDATACOPY RETURNDATASIZE PUSH0 REVERT JUMPDEST POP POP POP POP PUSH1 0x40 MLOAD RETURNDATASIZE PUSH1 0x1F NOT PUSH1 0x1F DUP3 ADD AND DUP3 ADD DUP1 PUSH1 0x40 MSTORE POP DUP2 ADD SWAP1 PUSH2 0x1AA7 SWAP2 SWAP1 PUSH2 0x4B42 JUMP JUMPDEST POP JUMPDEST POP JUMP JUMPDEST PUSH1 0x2 PUSH1 0x20 MSTORE DUP1 PUSH0 MSTORE PUSH1 0x40 PUSH0 KECCAK256 PUSH0 SWAP2 POP SWAP1 POP DUP1 PUSH0 ADD SLOAD SWAP1 DUP1 PUSH1 0x1 ADD PUSH0 SWAP1 SLOAD SWAP1 PUSH2 0x100 EXP SWAP1 DIV PUSH20 0xFFFFFFFFFFFFFFFFFFFFFFFFFFFFFFFFFFFFFFFF AND SWAP1 DUP1 PUSH1 0x2 ADD DUP1 SLOAD PUSH2 0x1AF6 SWAP1 PUSH2 0x4676 JUMP JUMPDEST DUP1 PUSH1 0x1F ADD PUSH1 0x20 DUP1 SWAP2 DIV MUL PUSH1 0x20 ADD PUSH1 0x40 MLOAD SWAP1 DUP2 ADD PUSH1 0x40 MSTORE DUP1 SWAP3 SWAP2 SWAP1 DUP2 DUP2 MSTORE PUSH1 0x20 ADD DUP3 DUP1 SLOAD PUSH2 0x1B22 SWAP1 PUSH2 0x4676 JUMP JUMPDEST DUP1 ISZERO PUSH2 0x1B6D JUMPI DUP1 PUSH1 0x1F LT PUSH2 0x1B44 JUMPI PUSH2 0x100 DUP1 DUP4 SLOAD DIV MUL DUP4 MSTORE SWAP2 PUSH1 0x20 ADD SWAP2 PUSH2 0x1B6D JUMP JUMPDEST DUP3 ADD SWAP2 SWAP1 PUSH0 MSTORE PUSH1 0x20 PUSH0 KECCAK256 SWAP1 JUMPDEST DUP2 SLOAD DUP2 MSTORE SWAP1 PUSH1 0x1 ADD SWAP1 PUSH1 0x20 ADD DUP1 DUP4 GT PUSH2 0x1B50 JUMPI DUP3 SWAP1 SUB PUSH1 0x1F AND DUP3 ADD SWAP2 JUMPDEST POP POP POP POP POP SWAP1 DUP1 PUSH1 0x3 ADD DUP1 SLOAD PUSH2 0x1B82 SWAP1 PUSH2 0x4676 JUMP JUMPDEST DUP1 PUSH1 0x1F ADD PUSH1 0x20 DUP1 SWAP2 DIV MUL PUSH1 0x20 ADD PUSH1 0x40 MLOAD SWAP1 DUP2 ADD PUSH1 0x40 MSTORE DUP1 SWAP3 SWAP2 SWAP1 DUP2 DUP2 MSTORE PUSH1 0x20 ADD DUP3 DUP1 SLOAD PUSH2 0x1BAE SWAP1 PUSH2 0x4676 JUMP JUMPDEST DUP1 ISZERO PUSH2 0x1BF9 JUMPI DUP1 PUSH1 0x1F LT PUSH2 0x1BD0 JUMPI PUSH2 0x100 DUP1 DUP4 SLOAD DIV MUL DUP4 MSTORE SWAP2 PUSH1 0x20 ADD SWAP2 PUSH2 0x1BF9 JUMP JUMPDEST DUP3 ADD SWAP2 SWAP1 PUSH0 MSTORE PUSH1 0x20 PUSH0 KECCAK256 SWAP1 JUMPDEST DUP2 SLOAD DUP2 MSTORE SWAP1 PUSH1 0x1 ADD SWAP1 PUSH1 0x20 ADD DUP1 DUP4 GT PUSH2 0x1BDC JUMPI DUP3 SWAP1 SUB PUSH1 0x1F AND DUP3 ADD SWAP2 JUMPDEST POP POP POP POP POP SWAP1 DUP1 PUSH1 0x4 ADD DUP1 SLOAD PUSH2 0x1C0E SWAP1 PUSH2 0x4676 JUMP JUMPDEST DUP1 PUSH1 0x1F ADD PUSH1 0x20 DUP1 SWAP2 DIV MUL PUSH1 0x20 ADD PUSH1 0x40 MLOAD SWAP1 DUP2 ADD PUSH1 0x40 MSTORE DUP1 SWAP3 SWAP2 SWAP1 DUP2 DUP2 MSTORE PUSH1 0x20 ADD DUP3 DUP1 SLOAD PUSH2 0x1C3A SWAP1 PUSH2 0x4676 JUMP JUMPDEST DUP1 ISZERO PUSH2 0x1C85 JUMPI DUP1 PUSH1 0x1F LT PUSH2 0x1C5C JUMPI PUSH2 0x100 DUP1 DUP4 SLOAD DIV MUL DUP4 MSTORE SWAP2 PUSH1 0x20 ADD SWAP2 PUSH2 0x1C85 JUMP JUMPDEST DUP3 ADD SWAP2 SWAP1 PUSH0 MSTORE PUSH1 0x20 PUSH0 KECCAK256 SWAP1 JUMPDEST DUP2 SLOAD DUP2 MSTORE SWAP1 PUSH1 0x1 ADD SWAP1 PUSH1 0x20 ADD DUP1 DUP4 GT PUSH2 0x1C68 JUMPI DUP3 SWAP1 SUB PUSH1 0x1F AND DUP3 ADD SWAP2 JUMPDEST POP POP POP POP POP SWAP1 DUP1 PUSH1 0x5 ADD SLOAD SWAP1 DUP1 PUSH1 0x6 ADD DUP1 SLOAD PUSH2 0x1CA0 SWAP1 PUSH2 0x4676 JUMP JUMPDEST DUP1 PUSH1 0x1F ADD PUSH1 0x20 DUP1 SWAP2 DIV MUL PUSH1 0x20 ADD PUSH1 0x40 MLOAD SWAP1 DUP2 ADD PUSH1 0x40 MSTORE DUP1 SWAP3 SWAP2 SWAP1 DUP2 DUP2 MSTORE PUSH1 0x20 ADD DUP3 DUP1 SLOAD PUSH2 0x1CCC SWAP1 PUSH2 0x4676 JUMP JUMPDEST DUP1 ISZERO PUSH2 0x1D17 JUMPI DUP1 PUSH1 0x1F LT PUSH2 0x1CEE JUMPI PUSH2 0x100 DUP1 DUP4 SLOAD DIV MUL DUP4 MSTORE SWAP2 PUSH1 0x20 ADD SWAP2 PUSH2 0x1D17 JUMP JUMPDEST DUP3 ADD SWAP2 SWAP1 PUSH0 MSTORE PUSH1 0x20 PUSH0 KECCAK256 SWAP1 JUMPDEST DUP2 SLOAD DUP2 MSTORE SWAP1 PUSH1 0x1 ADD SWAP1 PUSH1 0x20 ADD DUP1 DUP4 GT PUSH2 0x1CFA JUMPI DUP3 SWAP1 SUB PUSH1 0x1F AND DUP3 ADD SWAP2 JUMPDEST POP POP POP POP POP SWAP1 DUP1 PUSH1 0x7 ADD DUP1 SLOAD PUSH2 0x1D2C SWAP1 PUSH2 0x4676 JUMP JUMPDEST DUP1 PUSH1 0x1F ADD PUSH1 0x20 DUP1 SWAP2 DIV MUL PUSH1 0x20 ADD PUSH1 0x40 MLOAD SWAP1 DUP2 ADD PUSH1 0x40 MSTORE DUP1 SWAP3 SWAP2 SWAP1 DUP2 DUP2 MSTORE PUSH1 0x20 ADD DUP3 DUP1 SLOAD PUSH2 0x1D58 SWAP1 PUSH2 0x4676 JUMP JUMPDEST DUP1 ISZERO PUSH2 0x1DA3 JUMPI DUP1 PUSH1 0x1F LT PUSH2 0x1D7A JUMPI PUSH2 0x100 DUP1 DUP4 SLOAD DIV MUL DUP4 MSTORE SWAP2 PUSH1 0x20 ADD SWAP2 PUSH2 0x1DA3 JUMP JUMPDEST DUP3 ADD SWAP2 SWAP1 PUSH0 MSTORE PUSH1 0x20 PUSH0 KECCAK256 SWAP1 JUMPDEST DUP2 SLOAD DUP2 MSTORE SWAP1 PUSH1 0x1 ADD SWAP1 PUSH1 0x20 ADD DUP1 DUP4 GT PUSH2 0x1D86 JUMPI DUP3 SWAP1 SUB PUSH1 0x1F AND DUP3 ADD SWAP2 JUMPDEST POP POP POP POP POP SWAP1 DUP1 PUSH1 0x8 ADD SLOAD SWAP1 POP DUP10 JUMP JUMPDEST PUSH1 0x60 PUSH0 PUSH1 0x2 PUSH0 DUP5 PUSH20 0xFFFFFFFFFFFFFFFFFFFFFFFFFFFFFFFFFFFFFFFF AND PUSH20 0xFFFFFFFFFFFFFFFFFFFFFFFFFFFFFFFFFFFFFFFF AND DUP2 MSTORE PUSH1 0x20 ADD SWAP1 DUP2 MSTORE PUSH1 0x20 ADD PUSH0 KECCAK256 PUSH0 ADD SLOAD SWAP1 POP PUSH2 0x1E01 DUP2 PUSH2 0x2C95 JUMP JUMPDEST PUSH1 0x40 MLOAD PUSH1 0x20 ADD PUSH2 0x1E11 SWAP2 SWAP1 PUSH2 0x4BB7 JUMP JUMPDEST PUSH1 0x40 MLOAD PUSH1 0x20 DUP2 DUP4 SUB SUB DUP2 MSTORE SWAP1 PUSH1 0x40 MSTORE SWAP2 POP POP SWAP2 SWAP1 POP JUMP JUMPDEST PUSH1 0xD PUSH0 SWAP1 SLOAD SWAP1 PUSH2 0x100 EXP SWAP1 DIV PUSH1 0xFF AND ISZERO DUP1 PUSH2 0x1E8F JUMPI POP PUSH1 0x1 PUSH0 SWAP1 SLOAD SWAP1 PUSH2 0x100 EXP SWAP1 DIV PUSH20 0xFFFFFFFFFFFFFFFFFFFFFFFFFFFFFFFFFFFFFFFF AND PUSH20 0xFFFFFFFFFFFFFFFFFFFFFFFFFFFFFFFFFFFFFFFF AND CALLER PUSH20 0xFFFFFFFFFFFFFFFFFFFFFFFFFFFFFFFFFFFFFFFF AND EQ JUMPDEST PUSH2 0x1E97 JUMPI PUSH0 DUP1 REVERT JUMPDEST PUSH2 0x1EA2 DUP4 DUP4 DUP4 PUSH2 0x2EA6 JUMP JUMPDEST POP POP POP JUMP JUMPDEST PUSH1 0xD PUSH0 SWAP1 SLOAD SWAP1 PUSH2 0x100 EXP SWAP1 DIV PUSH1 0xFF AND ISZERO DUP1 PUSH2 0x1F0E JUMPI POP PUSH1 0x1 PUSH0 SWAP1 SLOAD SWAP1 PUSH2 0x100 EXP SWAP1 DIV PUSH20 0xFFFFFFFFFFFFFFFFFFFFFFFFFFFFFFFFFFFFFFFF AND PUSH20 0xFFFFFFFFFFFFFFFFFFFFFFFFFFFFFFFFFFFFFFFF AND CALLER PUSH20 0xFFFFFFFFFFFFFFFFFFFFFFFFFFFFFFFFFFFFFFFF AND EQ JUMPDEST PUSH2 0x1F16 JUMPI PUSH0 DUP1 REVERT JUMPDEST PUSH2 0x1F21 CALLER DUP4 DUP4 PUSH2 0x2EA6 JUMP JUMPDEST POP POP JUMP JUMPDEST PUSH1 0xB PUSH0 SWAP1 SLOAD SWAP1 PUSH2 0x100 EXP SWAP1 DIV PUSH20 0xFFFFFFFFFFFFFFFFFFFFFFFFFFFFFFFFFFFFFFFF AND DUP2 JUMP JUMPDEST PUSH1 0x1 PUSH0 SWAP1 SLOAD SWAP1 PUSH2 0x100 EXP SWAP1 DIV PUSH20 0xFFFFFFFFFFFFFFFFFFFFFFFFFFFFFFFFFFFFFFFF AND DUP2 JUMP JUMPDEST PUSH1 0xD PUSH0 SWAP1 SLOAD SWAP1 PUSH2 0x100 EXP SWAP1 DIV PUSH1 0xFF AND DUP2 JUMP JUMPDEST PUSH1 0x60 PUSH1 0x6 PUSH0 DUP4 PUSH20 0xFFFFFFFFFFFFFFFFFFFFFFFFFFFFFFFFFFFFFFFF AND PUSH20 0xFFFFFFFFFFFFFFFFFFFFFFFFFFFFFFFFFFFFFFFF AND DUP2 MSTORE PUSH1 0x20 ADD SWAP1 DUP2 MSTORE PUSH1 0x20 ADD PUSH0 KECCAK256 DUP1 SLOAD DUP1 PUSH1 0x20 MUL PUSH1 0x20 ADD PUSH1 0x40 MLOAD SWAP1 DUP2 ADD PUSH1 0x40 MSTORE DUP1 SWAP3 SWAP2 SWAP1 DUP2 DUP2 MSTORE PUSH1 0x20 ADD PUSH0 SWAP1 JUMPDEST DUP3 DUP3 LT ISZERO PUSH2 0x20B2 JUMPI DUP4 DUP3 SWAP1 PUSH0 MSTORE PUSH1 0x20 PUSH0 KECCAK256 SWAP1 PUSH1 0x3 MUL ADD PUSH1 0x40 MLOAD DUP1 PUSH1 0x60 ADD PUSH1 0x40 MSTORE SWAP1 DUP2 PUSH0 DUP3 ADD SLOAD DUP2 MSTORE PUSH1 0x20 ADD PUSH1 0x1 DUP3 ADD SLOAD DUP2 MSTORE PUSH1 0x20 ADD PUSH1 0x2 DUP3 ADD DUP1 SLOAD PUSH2 0x2023 SWAP1 PUSH2 0x4676 JUMP JUMPDEST DUP1 PUSH1 0x1F ADD PUSH1 0x20 DUP1 SWAP2 DIV MUL PUSH1 0x20 ADD PUSH1 0x40 MLOAD SWAP1 DUP2 ADD PUSH1 0x40 MSTORE DUP1 SWAP3 SWAP2 SWAP1 DUP2 DUP2 MSTORE PUSH1 0x20 ADD DUP3 DUP1 SLOAD PUSH2 0x204F SWAP1 PUSH2 0x4676 JUMP JUMPDEST DUP1 ISZERO PUSH2 0x209A JUMPI DUP1 PUSH1 0x1F LT PUSH2 0x2071 JUMPI PUSH2 0x100 DUP1 DUP4 SLOAD DIV MUL DUP4 MSTORE SWAP2 PUSH1 0x20 ADD SWAP2 PUSH2 0x209A JUMP JUMPDEST DUP3 ADD SWAP2 SWAP1 PUSH0 MSTORE PUSH1 0x20 PUSH0 KECCAK256 SWAP1 JUMPDEST DUP2 SLOAD DUP2 MSTORE SWAP1 PUSH1 0x1 ADD SWAP1 PUSH1 0x20 ADD DUP1 DUP4 GT PUSH2 0x207D JUMPI DUP3 SWAP1 SUB PUSH1 0x1F AND DUP3 ADD SWAP2 JUMPDEST POP POP POP POP POP DUP2 MSTORE POP POP DUP2 MSTORE PUSH1 0x20 ADD SWAP1 PUSH1 0x1 ADD SWAP1 PUSH2 0x1FDF JUMP JUMPDEST POP POP POP POP SWAP1 POP SWAP2 SWAP1 POP JUMP JUMPDEST PUSH1 0x6 PUSH1 0x20 MSTORE DUP2 PUSH0 MSTORE PUSH1 0x40 PUSH0 KECCAK256 DUP2 DUP2 SLOAD DUP2 LT PUSH2 0x20D6 JUMPI PUSH0 DUP1 REVERT JUMPDEST SWAP1 PUSH0 MSTORE PUSH1 0x20 PUSH0 KECCAK256 SWAP1 PUSH1 0x3 MUL ADD PUSH0 SWAP2 POP SWAP2 POP POP DUP1 PUSH0 ADD SLOAD SWAP1 DUP1 PUSH1 0x1 ADD SLOAD SWAP1 DUP1 PUSH1 0x2 ADD DUP1 SLOAD PUSH2 0x2102 SWAP1 PUSH2 0x4676 JUMP JUMPDEST DUP1 PUSH1 0x1F ADD PUSH1 0x20 DUP1 SWAP2 DIV MUL PUSH1 0x20 ADD PUSH1 0x40 MLOAD SWAP1 DUP2 ADD PUSH1 0x40 MSTORE DUP1 SWAP3 SWAP2 SWAP1 DUP2 DUP2 MSTORE PUSH1 0x20 ADD DUP3 DUP1 SLOAD PUSH2 0x212E SWAP1 PUSH2 0x4676 JUMP JUMPDEST DUP1 ISZERO PUSH2 0x2179 JUMPI DUP1 PUSH1 0x1F LT PUSH2 0x2150 JUMPI PUSH2 0x100 DUP1 DUP4 SLOAD DIV MUL DUP4 MSTORE SWAP2 PUSH1 0x20 ADD SWAP2 PUSH2 0x2179 JUMP JUMPDEST DUP3 ADD SWAP2 SWAP1 PUSH0 MSTORE PUSH1 0x20 PUSH0 KECCAK256 SWAP1 JUMPDEST DUP2 SLOAD DUP2 MSTORE SWAP1 PUSH1 0x1 ADD SWAP1 PUSH1 0x20 ADD DUP1 DUP4 GT PUSH2 0x215C JUMPI DUP3 SWAP1 SUB PUSH1 0x1F AND DUP3 ADD SWAP2 JUMPDEST POP POP POP POP POP SWAP1 POP DUP4 JUMP JUMPDEST PUSH1 0xA PUSH1 0x20 MSTORE DUP1 PUSH0 MSTORE PUSH1 0x40 PUSH0 KECCAK256 PUSH0 SWAP2 POP SWAP1 POP SLOAD DUP2 JUMP JUMPDEST PUSH1 0x1 PUSH0 SWAP1 SLOAD SWAP1 PUSH2 0x100 EXP SWAP1 DIV PUSH20 0xFFFFFFFFFFFFFFFFFFFFFFFFFFFFFFFFFFFFFFFF AND PUSH20 0xFFFFFFFFFFFFFFFFFFFFFFFFFFFFFFFFFFFFFFFF AND CALLER PUSH20 0xFFFFFFFFFFFFFFFFFFFFFFFFFFFFFFFFFFFFFFFF AND EQ PUSH2 0x2227 JUMPI PUSH1 0x40 MLOAD PUSH32 0x8C379A000000000000000000000000000000000000000000000000000000000 DUP2 MSTORE PUSH1 0x4 ADD PUSH2 0x221E SWAP1 PUSH2 0x49A3 JUMP JUMPDEST PUSH1 0x40 MLOAD DUP1 SWAP2 SUB SWAP1 REVERT JUMPDEST PUSH1 0xD PUSH0 SWAP1 SLOAD SWAP1 PUSH2 0x100 EXP SWAP1 DIV PUSH1 0xFF AND ISZERO PUSH1 0xD PUSH0 PUSH2 0x100 EXP DUP2 SLOAD DUP2 PUSH1 0xFF MUL NOT AND SWAP1 DUP4 ISZERO ISZERO MUL OR SWAP1 SSTORE POP JUMP JUMPDEST PUSH0 JUMPDEST PUSH1 0x1 ISZERO PUSH2 0x23EE JUMPI PUSH1 0x2 PUSH0 PUSH1 0x2 PUSH0 DUP7 PUSH20 0xFFFFFFFFFFFFFFFFFFFFFFFFFFFFFFFFFFFFFFFF AND PUSH20 0xFFFFFFFFFFFFFFFFFFFFFFFFFFFFFFFFFFFFFFFF AND DUP2 MSTORE PUSH1 0x20 ADD SWAP1 DUP2 MSTORE PUSH1 0x20 ADD PUSH0 KECCAK256 PUSH1 0x1 ADD PUSH0 SWAP1 SLOAD SWAP1 PUSH2 0x100 EXP SWAP1 DIV PUSH20 0xFFFFFFFFFFFFFFFFFFFFFFFFFFFFFFFFFFFFFFFF AND PUSH20 0xFFFFFFFFFFFFFFFFFFFFFFFFFFFFFFFFFFFFFFFF AND PUSH20 0xFFFFFFFFFFFFFFFFFFFFFFFFFFFFFFFFFFFFFFFF AND DUP2 MSTORE PUSH1 0x20 ADD SWAP1 DUP2 MSTORE PUSH1 0x20 ADD PUSH0 KECCAK256 PUSH1 0x9 ADD PUSH0 DUP4 PUSH1 0xFF AND PUSH1 0xFF AND DUP2 MSTORE PUSH1 0x20 ADD SWAP1 DUP2 MSTORE PUSH1 0x20 ADD PUSH0 KECCAK256 PUSH0 SWAP1 SLOAD SWAP1 PUSH2 0x100 EXP SWAP1 DIV PUSH1 0xFF AND ISZERO PUSH2 0x2387 JUMPI PUSH1 0x2 PUSH0 DUP5 PUSH20 0xFFFFFFFFFFFFFFFFFFFFFFFFFFFFFFFFFFFFFFFF AND PUSH20 0xFFFFFFFFFFFFFFFFFFFFFFFFFFFFFFFFFFFFFFFF AND DUP2 MSTORE PUSH1 0x20 ADD SWAP1 DUP2 MSTORE PUSH1 0x20 ADD PUSH0 KECCAK256 PUSH1 0x1 ADD PUSH0 SWAP1 SLOAD SWAP1 PUSH2 0x100 EXP SWAP1 DIV PUSH20 0xFFFFFFFFFFFFFFFFFFFFFFFFFFFFFFFFFFFFFFFF AND SWAP1 POP PUSH2 0x23EF JUMP JUMPDEST PUSH1 0x2 PUSH0 DUP5 PUSH20 0xFFFFFFFFFFFFFFFFFFFFFFFFFFFFFFFFFFFFFFFF AND PUSH20 0xFFFFFFFFFFFFFFFFFFFFFFFFFFFFFFFFFFFFFFFF AND DUP2 MSTORE PUSH1 0x20 ADD SWAP1 DUP2 MSTORE PUSH1 0x20 ADD PUSH0 KECCAK256 PUSH1 0x1 ADD PUSH0 SWAP1 SLOAD SWAP1 PUSH2 0x100 EXP SWAP1 DIV PUSH20 0xFFFFFFFFFFFFFFFFFFFFFFFFFFFFFFFFFFFFFFFF AND SWAP3 POP PUSH2 0x2253 JUMP JUMPDEST JUMPDEST SWAP3 SWAP2 POP POP JUMP JUMPDEST PUSH2 0x2478 DUP5 PUSH4 0x23B872DD PUSH1 0xE0 SHL DUP6 DUP6 DUP6 PUSH1 0x40 MLOAD PUSH1 0x24 ADD PUSH2 0x2416 SWAP4 SWAP3 SWAP2 SWAP1 PUSH2 0x4BD8 JUMP JUMPDEST PUSH1 0x40 MLOAD PUSH1 0x20 DUP2 DUP4 SUB SUB DUP2 MSTORE SWAP1 PUSH1 0x40 MSTORE SWAP1 PUSH28 0xFFFFFFFFFFFFFFFFFFFFFFFFFFFFFFFFFFFFFFFFFFFFFFFFFFFFFFFF NOT AND PUSH1 0x20 DUP3 ADD DUP1 MLOAD PUSH28 0xFFFFFFFFFFFFFFFFFFFFFFFFFFFFFFFFFFFFFFFFFFFFFFFFFFFFFFFF DUP4 DUP2 DUP4 AND OR DUP4 MSTORE POP POP POP POP PUSH2 0x337C JUMP JUMPDEST POP POP POP POP JUMP JUMPDEST PUSH1 0x2 PUSH0 DUP4 PUSH20 0xFFFFFFFFFFFFFFFFFFFFFFFFFFFFFFFFFFFFFFFF AND PUSH20 0xFFFFFFFFFFFFFFFFFFFFFFFFFFFFFFFFFFFFFFFF AND DUP2 MSTORE PUSH1 0x20 ADD SWAP1 DUP2 MSTORE PUSH1 0x20 ADD PUSH0 KECCAK256 PUSH1 0xA ADD PUSH0 DUP3 PUSH1 0xFF AND PUSH1 0xFF AND DUP2 MSTORE PUSH1 0x20 ADD SWAP1 DUP2 MSTORE PUSH1 0x20 ADD PUSH0 KECCAK256 PUSH1 0x1 ADD DUP4 SWAP1 DUP1 PUSH1 0x1 DUP2 SLOAD ADD DUP1 DUP3 SSTORE DUP1 SWAP2 POP POP PUSH1 0x1 SWAP1 SUB SWAP1 PUSH0 MSTORE PUSH1 0x20 PUSH0 KECCAK256 ADD PUSH0 SWAP1 SWAP2 SWAP1 SWAP2 SWAP1 SWAP2 PUSH2 0x100 EXP DUP2 SLOAD DUP2 PUSH20 0xFFFFFFFFFFFFFFFFFFFFFFFFFFFFFFFFFFFFFFFF MUL NOT AND SWAP1 DUP4 PUSH20 0xFFFFFFFFFFFFFFFFFFFFFFFFFFFFFFFFFFFFFFFF AND MUL OR SWAP1 SSTORE POP PUSH1 0x3 PUSH1 0x2 PUSH0 DUP5 PUSH20 0xFFFFFFFFFFFFFFFFFFFFFFFFFFFFFFFFFFFFFFFF AND PUSH20 0xFFFFFFFFFFFFFFFFFFFFFFFFFFFFFFFFFFFFFFFF AND DUP2 MSTORE PUSH1 0x20 ADD SWAP1 DUP2 MSTORE PUSH1 0x20 ADD PUSH0 KECCAK256 PUSH1 0xA ADD PUSH0 DUP4 PUSH1 0xFF AND PUSH1 0xFF AND DUP2 MSTORE PUSH1 0x20 ADD SWAP1 DUP2 MSTORE PUSH1 0x20 ADD PUSH0 KECCAK256 PUSH1 0x1 ADD DUP1 SLOAD SWAP1 POP LT ISZERO PUSH2 0x266F JUMPI DUP2 PUSH20 0xFFFFFFFFFFFFFFFFFFFFFFFFFFFFFFFFFFFFFFFF AND DUP4 PUSH20 0xFFFFFFFFFFFFFFFFFFFFFFFFFFFFFFFFFFFFFFFF AND PUSH32 0x68062C5925C4317ADF3A7095478D28B33FD8B41458BC7620B61BC46BF1B24D82 PUSH1 0x1 DUP5 PUSH1 0x2 PUSH0 DUP9 PUSH20 0xFFFFFFFFFFFFFFFFFFFFFFFFFFFFFFFFFFFFFFFF AND PUSH20 0xFFFFFFFFFFFFFFFFFFFFFFFFFFFFFFFFFFFFFFFF AND DUP2 MSTORE PUSH1 0x20 ADD SWAP1 DUP2 MSTORE PUSH1 0x20 ADD PUSH0 KECCAK256 PUSH1 0xA ADD PUSH0 DUP8 PUSH1 0xFF AND PUSH1 0xFF AND DUP2 MSTORE PUSH1 0x20 ADD SWAP1 DUP2 MSTORE PUSH1 0x20 ADD PUSH0 KECCAK256 PUSH1 0x1 ADD DUP1 SLOAD SWAP1 POP PUSH1 0x40 MLOAD PUSH2 0x2655 SWAP4 SWAP3 SWAP2 SWAP1 PUSH2 0x4C46 JUMP JUMPDEST PUSH1 0x40 MLOAD DUP1 SWAP2 SUB SWAP1 LOG3 PUSH2 0x266A DUP3 DUP5 PUSH1 0x1 DUP5 PUSH2 0x3424 JUMP JUMPDEST PUSH2 0x2C90 JUMP JUMPDEST DUP2 PUSH20 0xFFFFFFFFFFFFFFFFFFFFFFFFFFFFFFFFFFFFFFFF AND DUP4 PUSH20 0xFFFFFFFFFFFFFFFFFFFFFFFFFFFFFFFFFFFFFFFF AND PUSH32 0x68062C5925C4317ADF3A7095478D28B33FD8B41458BC7620B61BC46BF1B24D82 PUSH1 0x1 DUP5 PUSH1 0x3 PUSH1 0x40 MLOAD PUSH2 0x26D2 SWAP4 SWAP3 SWAP2 SWAP1 PUSH2 0x4CB4 JUMP JUMPDEST PUSH1 0x40 MLOAD DUP1 SWAP2 SUB SWAP1 LOG3 PUSH0 PUSH8 0xFFFFFFFFFFFFFFFF DUP2 GT ISZERO PUSH2 0x26F4 JUMPI PUSH2 0x26F3 PUSH2 0x3BD0 JUMP JUMPDEST JUMPDEST PUSH1 0x40 MLOAD SWAP1 DUP1 DUP3 MSTORE DUP1 PUSH1 0x20 MUL PUSH1 0x20 ADD DUP3 ADD PUSH1 0x40 MSTORE DUP1 ISZERO PUSH2 0x2722 JUMPI DUP2 PUSH1 0x20 ADD PUSH1 0x20 DUP3 MUL DUP1 CALLDATASIZE DUP4 CALLDATACOPY DUP1 DUP3 ADD SWAP2 POP POP SWAP1 POP JUMPDEST POP PUSH1 0x2 PUSH0 DUP5 PUSH20 0xFFFFFFFFFFFFFFFFFFFFFFFFFFFFFFFFFFFFFFFF AND PUSH20 0xFFFFFFFFFFFFFFFFFFFFFFFFFFFFFFFFFFFFFFFF AND DUP2 MSTORE PUSH1 0x20 ADD SWAP1 DUP2 MSTORE PUSH1 0x20 ADD PUSH0 KECCAK256 PUSH1 0xA ADD PUSH0 DUP4 PUSH1 0xFF AND PUSH1 0xFF AND DUP2 MSTORE PUSH1 0x20 ADD SWAP1 DUP2 MSTORE PUSH1 0x20 ADD PUSH0 KECCAK256 PUSH1 0x1 ADD SWAP1 DUP1 MLOAD SWAP1 PUSH1 0x20 ADD SWAP1 PUSH2 0x278E SWAP3 SWAP2 SWAP1 PUSH2 0x3878 JUMP JUMPDEST POP PUSH1 0x2 PUSH0 DUP4 PUSH20 0xFFFFFFFFFFFFFFFFFFFFFFFFFFFFFFFFFFFFFFFF AND PUSH20 0xFFFFFFFFFFFFFFFFFFFFFFFFFFFFFFFFFFFFFFFF AND DUP2 MSTORE PUSH1 0x20 ADD SWAP1 DUP2 MSTORE PUSH1 0x20 ADD PUSH0 KECCAK256 PUSH1 0x9 ADD PUSH0 PUSH1 0x1 DUP4 PUSH2 0x27DD SWAP2 SWAP1 PUSH2 0x4CE9 JUMP JUMPDEST PUSH1 0xFF AND PUSH1 0xFF AND DUP2 MSTORE PUSH1 0x20 ADD SWAP1 DUP2 MSTORE PUSH1 0x20 ADD PUSH0 KECCAK256 PUSH0 SWAP1 SLOAD SWAP1 PUSH2 0x100 EXP SWAP1 DIV PUSH1 0xFF AND ISZERO DUP1 ISZERO PUSH2 0x281F JUMPI POP PUSH1 0x1 PUSH1 0x14 SWAP1 SLOAD SWAP1 PUSH2 0x100 EXP SWAP1 DIV PUSH1 0xFF AND PUSH1 0xFF AND DUP2 PUSH1 0xFF AND EQ ISZERO JUMPDEST ISZERO PUSH2 0x2895 JUMPI PUSH1 0x1 PUSH1 0x2 PUSH0 DUP5 PUSH20 0xFFFFFFFFFFFFFFFFFFFFFFFFFFFFFFFFFFFFFFFF AND PUSH20 0xFFFFFFFFFFFFFFFFFFFFFFFFFFFFFFFFFFFFFFFF AND DUP2 MSTORE PUSH1 0x20 ADD SWAP1 DUP2 MSTORE PUSH1 0x20 ADD PUSH0 KECCAK256 PUSH1 0xA ADD PUSH0 DUP4 PUSH1 0xFF AND PUSH1 0xFF AND DUP2 MSTORE PUSH1 0x20 ADD SWAP1 DUP2 MSTORE PUSH1 0x20 ADD PUSH0 KECCAK256 PUSH1 0x2 ADD PUSH0 PUSH2 0x100 EXP DUP2 SLOAD DUP2 PUSH1 0xFF MUL NOT AND SWAP1 DUP4 ISZERO ISZERO MUL OR SWAP1 SSTORE POP JUMPDEST PUSH1 0x8 PUSH0 SWAP1 SLOAD SWAP1 PUSH2 0x100 EXP SWAP1 DIV PUSH20 0xFFFFFFFFFFFFFFFFFFFFFFFFFFFFFFFFFFFFFFFF AND PUSH20 0xFFFFFFFFFFFFFFFFFFFFFFFFFFFFFFFFFFFFFFFF AND DUP3 PUSH20 0xFFFFFFFFFFFFFFFFFFFFFFFFFFFFFFFFFFFFFFFF AND EQ PUSH2 0x2B32 JUMPI PUSH0 PUSH2 0x28F4 DUP4 DUP4 PUSH2 0x2251 JUMP JUMPDEST SWAP1 POP DUP1 PUSH20 0xFFFFFFFFFFFFFFFFFFFFFFFFFFFFFFFFFFFFFFFF AND PUSH1 0x2 PUSH0 DUP6 PUSH20 0xFFFFFFFFFFFFFFFFFFFFFFFFFFFFFFFFFFFFFFFF AND PUSH20 0xFFFFFFFFFFFFFFFFFFFFFFFFFFFFFFFFFFFFFFFF AND DUP2 MSTORE PUSH1 0x20 ADD SWAP1 DUP2 MSTORE PUSH1 0x20 ADD PUSH0 KECCAK256 PUSH1 0xA ADD PUSH0 DUP5 PUSH1 0xFF AND PUSH1 0xFF AND DUP2 MSTORE PUSH1 0x20 ADD SWAP1 DUP2 MSTORE PUSH1 0x20 ADD PUSH0 KECCAK256 PUSH0 ADD PUSH0 SWAP1 SLOAD SWAP1 PUSH2 0x100 EXP SWAP1 DIV PUSH20 0xFFFFFFFFFFFFFFFFFFFFFFFFFFFFFFFFFFFFFFFF AND PUSH20 0xFFFFFFFFFFFFFFFFFFFFFFFFFFFFFFFFFFFFFFFF AND EQ PUSH2 0x2A35 JUMPI DUP1 PUSH1 0x2 PUSH0 DUP6 PUSH20 0xFFFFFFFFFFFFFFFFFFFFFFFFFFFFFFFFFFFFFFFF AND PUSH20 0xFFFFFFFFFFFFFFFFFFFFFFFFFFFFFFFFFFFFFFFF AND DUP2 MSTORE PUSH1 0x20 ADD SWAP1 DUP2 MSTORE PUSH1 0x20 ADD PUSH0 KECCAK256 PUSH1 0xA ADD PUSH0 DUP5 PUSH1 0xFF AND PUSH1 0xFF AND DUP2 MSTORE PUSH1 0x20 ADD SWAP1 DUP2 MSTORE PUSH1 0x20 ADD PUSH0 KECCAK256 PUSH0 ADD PUSH0 PUSH2 0x100 EXP DUP2 SLOAD DUP2 PUSH20 0xFFFFFFFFFFFFFFFFFFFFFFFFFFFFFFFFFFFFFFFF MUL NOT AND SWAP1 DUP4 PUSH20 0xFFFFFFFFFFFFFFFFFFFFFFFFFFFFFFFFFFFFFFFF AND MUL OR SWAP1 SSTORE POP JUMPDEST PUSH1 0x2 PUSH0 DUP5 PUSH20 0xFFFFFFFFFFFFFFFFFFFFFFFFFFFFFFFFFFFFFFFF AND PUSH20 0xFFFFFFFFFFFFFFFFFFFFFFFFFFFFFFFFFFFFFFFF AND DUP2 MSTORE PUSH1 0x20 ADD SWAP1 DUP2 MSTORE PUSH1 0x20 ADD PUSH0 KECCAK256 PUSH1 0xA ADD PUSH0 DUP4 PUSH1 0xFF AND PUSH1 0xFF AND DUP2 MSTORE PUSH1 0x20 ADD SWAP1 DUP2 MSTORE PUSH1 0x20 ADD PUSH0 KECCAK256 PUSH1 0x3 ADD PUSH0 DUP2 SLOAD DUP1 SWAP3 SWAP2 SWAP1 PUSH2 0x2A9D SWAP1 PUSH2 0x4602 JUMP JUMPDEST SWAP2 SWAP1 POP SSTORE POP DUP4 PUSH20 0xFFFFFFFFFFFFFFFFFFFFFFFFFFFFFFFFFFFFFFFF AND DUP2 PUSH20 0xFFFFFFFFFFFFFFFFFFFFFFFFFFFFFFFFFFFFFFFF AND DUP5 PUSH20 0xFFFFFFFFFFFFFFFFFFFFFFFFFFFFFFFFFFFFFFFF AND PUSH32 0xA00C953EFF38EC1B71E7FE060B2AB8DF0BBE5354319FBDDE4FBDAFD6324386A6 PUSH1 0x1 DUP7 PUSH1 0x40 MLOAD PUSH2 0x2B19 SWAP3 SWAP2 SWAP1 PUSH2 0x4D1D JUMP JUMPDEST PUSH1 0x40 MLOAD DUP1 SWAP2 SUB SWAP1 LOG4 PUSH2 0x2B2C DUP4 DUP3 DUP5 PUSH2 0x247E JUMP JUMPDEST POP PUSH2 0x2C8F JUMP JUMPDEST PUSH2 0x2B60 PUSH1 0x8 PUSH0 SWAP1 SLOAD SWAP1 PUSH2 0x100 EXP SWAP1 DIV PUSH20 0xFFFFFFFFFFFFFFFFFFFFFFFFFFFFFFFFFFFFFFFF AND DUP5 PUSH1 0x1 DUP5 PUSH2 0x3424 JUMP JUMPDEST PUSH1 0x2 PUSH0 PUSH1 0x8 PUSH0 SWAP1 SLOAD SWAP1 PUSH2 0x100 EXP SWAP1 DIV PUSH20 0xFFFFFFFFFFFFFFFFFFFFFFFFFFFFFFFFFFFFFFFF AND PUSH20 0xFFFFFFFFFFFFFFFFFFFFFFFFFFFFFFFFFFFFFFFF AND PUSH20 0xFFFFFFFFFFFFFFFFFFFFFFFFFFFFFFFFFFFFFFFF AND DUP2 MSTORE PUSH1 0x20 ADD SWAP1 DUP2 MSTORE PUSH1 0x20 ADD PUSH0 KECCAK256 PUSH1 0xA ADD PUSH0 DUP3 PUSH1 0xFF AND PUSH1 0xFF AND DUP2 MSTORE PUSH1 0x20 ADD SWAP1 DUP2 MSTORE PUSH1 0x20 ADD PUSH0 KECCAK256 PUSH1 0x3 ADD PUSH0 DUP2 SLOAD DUP1 SWAP3 SWAP2 SWAP1 PUSH2 0x2BE9 SWAP1 PUSH2 0x4602 JUMP JUMPDEST SWAP2 SWAP1 POP SSTORE POP DUP3 PUSH20 0xFFFFFFFFFFFFFFFFFFFFFFFFFFFFFFFFFFFFFFFF AND PUSH0 PUSH20 0xFFFFFFFFFFFFFFFFFFFFFFFFFFFFFFFFFFFFFFFF AND PUSH1 0x8 PUSH0 SWAP1 SLOAD SWAP1 PUSH2 0x100 EXP SWAP1 DIV PUSH20 0xFFFFFFFFFFFFFFFFFFFFFFFFFFFFFFFFFFFFFFFF AND PUSH20 0xFFFFFFFFFFFFFFFFFFFFFFFFFFFFFFFFFFFFFFFF AND PUSH32 0xA00C953EFF38EC1B71E7FE060B2AB8DF0BBE5354319FBDDE4FBDAFD6324386A6 PUSH1 0x1 DUP6 PUSH1 0x40 MLOAD PUSH2 0x2C86 SWAP3 SWAP2 SWAP1 PUSH2 0x4D1D JUMP JUMPDEST PUSH1 0x40 MLOAD DUP1 SWAP2 SUB SWAP1 LOG4 JUMPDEST JUMPDEST POP POP POP JUMP JUMPDEST PUSH1 0x60 PUSH0 DUP3 SUB PUSH2 0x2CDB JUMPI PUSH1 0x40 MLOAD DUP1 PUSH1 0x40 ADD PUSH1 0x40 MSTORE DUP1 PUSH1 0x1 DUP2 MSTORE PUSH1 0x20 ADD PUSH32 0x3000000000000000000000000000000000000000000000000000000000000000 DUP2 MSTORE POP SWAP1 POP PUSH2 0x2EA1 JUMP JUMPDEST PUSH0 PUSH1 0x4E SWAP1 POP PUSH0 DUP2 PUSH8 0xFFFFFFFFFFFFFFFF DUP2 GT ISZERO PUSH2 0x2CFB JUMPI PUSH2 0x2CFA PUSH2 0x3BD0 JUMP JUMPDEST JUMPDEST PUSH1 0x40 MLOAD SWAP1 DUP1 DUP3 MSTORE DUP1 PUSH1 0x1F ADD PUSH1 0x1F NOT AND PUSH1 0x20 ADD DUP3 ADD PUSH1 0x40 MSTORE DUP1 ISZERO PUSH2 0x2D2D JUMPI DUP2 PUSH1 0x20 ADD PUSH1 0x1 DUP3 MUL DUP1 CALLDATASIZE DUP4 CALLDATACOPY DUP1 DUP3 ADD SWAP2 POP POP SWAP1 POP JUMPDEST POP SWAP1 POP PUSH0 JUMPDEST PUSH0 DUP6 EQ PUSH2 0x2DBB JUMPI PUSH0 PUSH1 0xA DUP7 PUSH2 0x2D47 SWAP2 SWAP1 PUSH2 0x4D71 JUMP JUMPDEST SWAP1 POP PUSH1 0xA DUP7 PUSH2 0x2D56 SWAP2 SWAP1 PUSH2 0x4DA1 JUMP JUMPDEST SWAP6 POP DUP1 PUSH1 0x30 PUSH2 0x2D65 SWAP2 SWAP1 PUSH2 0x44FF JUMP JUMPDEST PUSH1 0xF8 SHL DUP4 DUP4 DUP1 PUSH2 0x2D74 SWAP1 PUSH2 0x4602 JUMP JUMPDEST SWAP5 POP DUP2 MLOAD DUP2 LT PUSH2 0x2D87 JUMPI PUSH2 0x2D86 PUSH2 0x4A1D JUMP JUMPDEST JUMPDEST PUSH1 0x20 ADD ADD SWAP1 PUSH31 0xFFFFFFFFFFFFFFFFFFFFFFFFFFFFFFFFFFFFFFFFFFFFFFFFFFFFFFFFFFFFFF NOT AND SWAP1 DUP2 PUSH0 BYTE SWAP1 MSTORE8 POP POP PUSH2 0x2D32 JUMP JUMPDEST PUSH0 DUP2 PUSH8 0xFFFFFFFFFFFFFFFF DUP2 GT ISZERO PUSH2 0x2DD6 JUMPI PUSH2 0x2DD5 PUSH2 0x3BD0 JUMP JUMPDEST JUMPDEST PUSH1 0x40 MLOAD SWAP1 DUP1 DUP3 MSTORE DUP1 PUSH1 0x1F ADD PUSH1 0x1F NOT AND PUSH1 0x20 ADD DUP3 ADD PUSH1 0x40 MSTORE DUP1 ISZERO PUSH2 0x2E08 JUMPI DUP2 PUSH1 0x20 ADD PUSH1 0x1 DUP3 MUL DUP1 CALLDATASIZE DUP4 CALLDATACOPY DUP1 DUP3 ADD SWAP2 POP POP SWAP1 POP JUMPDEST POP SWAP1 POP PUSH0 JUMPDEST DUP3 DUP2 LT ISZERO PUSH2 0x2E98 JUMPI DUP4 PUSH1 0x1 DUP3 DUP6 PUSH2 0x2E24 SWAP2 SWAP1 PUSH2 0x4DD1 JUMP JUMPDEST PUSH2 0x2E2E SWAP2 SWAP1 PUSH2 0x4DD1 JUMP JUMPDEST DUP2 MLOAD DUP2 LT PUSH2 0x2E3F JUMPI PUSH2 0x2E3E PUSH2 0x4A1D JUMP JUMPDEST JUMPDEST PUSH1 0x20 ADD ADD MLOAD PUSH1 0xF8 SHR PUSH1 0xF8 SHL DUP3 DUP3 DUP2 MLOAD DUP2 LT PUSH2 0x2E5D JUMPI PUSH2 0x2E5C PUSH2 0x4A1D JUMP JUMPDEST JUMPDEST PUSH1 0x20 ADD ADD SWAP1 PUSH31 0xFFFFFFFFFFFFFFFFFFFFFFFFFFFFFFFFFFFFFFFFFFFFFFFFFFFFFFFFFFFFFF NOT AND SWAP1 DUP2 PUSH0 BYTE SWAP1 MSTORE8 POP DUP1 DUP1 PUSH1 0x1 ADD SWAP2 POP POP PUSH2 0x2E0D JUMP JUMPDEST POP DUP1 SWAP5 POP POP POP POP POP JUMPDEST SWAP2 SWAP1 POP JUMP JUMPDEST PUSH2 0x2EAF DUP4 PUSH2 0x1342 JUMP JUMPDEST PUSH2 0x2EEE JUMPI PUSH1 0x40 MLOAD PUSH32 0x8C379A000000000000000000000000000000000000000000000000000000000 DUP2 MSTORE PUSH1 0x4 ADD PUSH2 0x2EE5 SWAP1 PUSH2 0x4E74 JUMP JUMPDEST PUSH1 0x40 MLOAD DUP1 SWAP2 SUB SWAP1 REVERT JUMPDEST PUSH1 0x1 DUP3 PUSH1 0xFF AND EQ DUP1 PUSH2 0x2F03 JUMPI POP PUSH1 0x2 DUP3 PUSH1 0xFF AND EQ JUMPDEST PUSH2 0x2F42 JUMPI PUSH1 0x40 MLOAD PUSH32 0x8C379A000000000000000000000000000000000000000000000000000000000 DUP2 MSTORE PUSH1 0x4 ADD PUSH2 0x2F39 SWAP1 PUSH2 0x4EDC JUMP JUMPDEST PUSH1 0x40 MLOAD DUP1 SWAP2 SUB SWAP1 REVERT JUMPDEST PUSH2 0x2FA7 CALLER ADDRESS PUSH1 0xA PUSH0 DUP6 PUSH1 0xFF AND PUSH1 0xFF AND DUP2 MSTORE PUSH1 0x20 ADD SWAP1 DUP2 MSTORE PUSH1 0x20 ADD PUSH0 KECCAK256 SLOAD PUSH1 0xB PUSH0 SWAP1 SLOAD SWAP1 PUSH2 0x100 EXP SWAP1 DIV PUSH20 0xFFFFFFFFFFFFFFFFFFFFFFFFFFFFFFFFFFFFFFFF AND PUSH20 0xFFFFFFFFFFFFFFFFFFFFFFFFFFFFFFFFFFFFFFFF AND PUSH2 0x23F5 SWAP1 SWAP4 SWAP3 SWAP2 SWAP1 PUSH4 0xFFFFFFFF AND JUMP JUMPDEST PUSH1 0x1 DUP3 PUSH1 0xFF AND SUB PUSH2 0x3377 JUMPI PUSH1 0x2 PUSH0 DUP5 PUSH20 0xFFFFFFFFFFFFFFFFFFFFFFFFFFFFFFFFFFFFFFFF AND PUSH20 0xFFFFFFFFFFFFFFFFFFFFFFFFFFFFFFFFFFFFFFFF AND DUP2 MSTORE PUSH1 0x20 ADD SWAP1 DUP2 MSTORE PUSH1 0x20 ADD PUSH0 KECCAK256 PUSH1 0x9 ADD PUSH0 PUSH1 0x1 DUP4 PUSH2 0x3000 SWAP2 SWAP1 PUSH2 0x49C1 JUMP JUMPDEST PUSH1 0xFF AND PUSH1 0xFF AND DUP2 MSTORE PUSH1 0x20 ADD SWAP1 DUP2 MSTORE PUSH1 0x20 ADD PUSH0 KECCAK256 PUSH0 SWAP1 SLOAD SWAP1 PUSH2 0x100 EXP SWAP1 DIV PUSH1 0xFF AND PUSH2 0x305F JUMPI PUSH1 0x40 MLOAD PUSH32 0x8C379A000000000000000000000000000000000000000000000000000000000 DUP2 MSTORE PUSH1 0x4 ADD PUSH2 0x3056 SWAP1 PUSH2 0x4F44 JUMP JUMPDEST PUSH1 0x40 MLOAD DUP1 SWAP2 SUB SWAP1 REVERT JUMPDEST PUSH1 0x2 PUSH0 DUP5 PUSH20 0xFFFFFFFFFFFFFFFFFFFFFFFFFFFFFFFFFFFFFFFF AND PUSH20 0xFFFFFFFFFFFFFFFFFFFFFFFFFFFFFFFFFFFFFFFF AND DUP2 MSTORE PUSH1 0x20 ADD SWAP1 DUP2 MSTORE PUSH1 0x20 ADD PUSH0 KECCAK256 PUSH1 0x9 ADD PUSH0 DUP3 PUSH1 0xFF AND PUSH1 0xFF AND DUP2 MSTORE PUSH1 0x20 ADD SWAP1 DUP2 MSTORE PUSH1 0x20 ADD PUSH0 KECCAK256 PUSH0 SWAP1 SLOAD SWAP1 PUSH2 0x100 EXP SWAP1 DIV PUSH1 0xFF AND ISZERO PUSH2 0x3101 JUMPI PUSH1 0x40 MLOAD PUSH32 0x8C379A000000000000000000000000000000000000000000000000000000000 DUP2 MSTORE PUSH1 0x4 ADD PUSH2 0x30F8 SWAP1 PUSH2 0x4FAC JUMP JUMPDEST PUSH1 0x40 MLOAD DUP1 SWAP2 SUB SWAP1 REVERT JUMPDEST PUSH1 0x2 PUSH0 DUP5 PUSH20 0xFFFFFFFFFFFFFFFFFFFFFFFFFFFFFFFFFFFFFFFF AND PUSH20 0xFFFFFFFFFFFFFFFFFFFFFFFFFFFFFFFFFFFFFFFF AND DUP2 MSTORE PUSH1 0x20 ADD SWAP1 DUP2 MSTORE PUSH1 0x20 ADD PUSH0 KECCAK256 PUSH1 0xA ADD PUSH0 PUSH1 0x1 DUP4 PUSH2 0x314F SWAP2 SWAP1 PUSH2 0x49C1 JUMP JUMPDEST PUSH1 0xFF AND PUSH1 0xFF AND DUP2 MSTORE PUSH1 0x20 ADD SWAP1 DUP2 MSTORE PUSH1 0x20 ADD PUSH0 KECCAK256 PUSH1 0x2 ADD PUSH0 SWAP1 SLOAD SWAP1 PUSH2 0x100 EXP SWAP1 DIV PUSH1 0xFF AND ISZERO PUSH2 0x31F3 JUMPI PUSH0 PUSH1 0x2 PUSH0 DUP6 PUSH20 0xFFFFFFFFFFFFFFFFFFFFFFFFFFFFFFFFFFFFFFFF AND PUSH20 0xFFFFFFFFFFFFFFFFFFFFFFFFFFFFFFFFFFFFFFFF AND DUP2 MSTORE PUSH1 0x20 ADD SWAP1 DUP2 MSTORE PUSH1 0x20 ADD PUSH0 KECCAK256 PUSH1 0xA ADD PUSH0 PUSH1 0x1 DUP5 PUSH2 0x31C6 SWAP2 SWAP1 PUSH2 0x49C1 JUMP JUMPDEST PUSH1 0xFF AND PUSH1 0xFF AND DUP2 MSTORE PUSH1 0x20 ADD SWAP1 DUP2 MSTORE PUSH1 0x20 ADD PUSH0 KECCAK256 PUSH1 0x2 ADD PUSH0 PUSH2 0x100 EXP DUP2 SLOAD DUP2 PUSH1 0xFF MUL NOT AND SWAP1 DUP4 ISZERO ISZERO MUL OR SWAP1 SSTORE POP JUMPDEST PUSH0 PUSH2 0x31FE DUP5 DUP4 PUSH2 0x2251 JUMP JUMPDEST SWAP1 POP DUP1 PUSH1 0x2 PUSH0 DUP7 PUSH20 0xFFFFFFFFFFFFFFFFFFFFFFFFFFFFFFFFFFFFFFFF AND PUSH20 0xFFFFFFFFFFFFFFFFFFFFFFFFFFFFFFFFFFFFFFFF AND DUP2 MSTORE PUSH1 0x20 ADD SWAP1 DUP2 MSTORE PUSH1 0x20 ADD PUSH0 KECCAK256 PUSH1 0xA ADD PUSH0 DUP5 PUSH1 0xFF AND PUSH1 0xFF AND DUP2 MSTORE PUSH1 0x20 ADD SWAP1 DUP2 MSTORE PUSH1 0x20 ADD PUSH0 KECCAK256 PUSH0 ADD PUSH0 PUSH2 0x100 EXP DUP2 SLOAD DUP2 PUSH20 0xFFFFFFFFFFFFFFFFFFFFFFFFFFFFFFFFFFFFFFFF MUL NOT AND SWAP1 DUP4 PUSH20 0xFFFFFFFFFFFFFFFFFFFFFFFFFFFFFFFFFFFFFFFF AND MUL OR SWAP1 SSTORE POP PUSH1 0x1 PUSH1 0x2 PUSH0 DUP7 PUSH20 0xFFFFFFFFFFFFFFFFFFFFFFFFFFFFFFFFFFFFFFFF AND PUSH20 0xFFFFFFFFFFFFFFFFFFFFFFFFFFFFFFFFFFFFFFFF AND DUP2 MSTORE PUSH1 0x20 ADD SWAP1 DUP2 MSTORE PUSH1 0x20 ADD PUSH0 KECCAK256 PUSH1 0x9 ADD PUSH0 DUP5 PUSH1 0xFF AND PUSH1 0xFF AND DUP2 MSTORE PUSH1 0x20 ADD SWAP1 DUP2 MSTORE PUSH1 0x20 ADD PUSH0 KECCAK256 PUSH0 PUSH2 0x100 EXP DUP2 SLOAD DUP2 PUSH1 0xFF MUL NOT AND SWAP1 DUP4 ISZERO ISZERO MUL OR SWAP1 SSTORE POP PUSH2 0x330D DUP5 DUP3 DUP5 PUSH2 0x247E JUMP JUMPDEST DUP1 PUSH20 0xFFFFFFFFFFFFFFFFFFFFFFFFFFFFFFFFFFFFFFFF AND DUP5 PUSH20 0xFFFFFFFFFFFFFFFFFFFFFFFFFFFFFFFFFFFFFFFF AND PUSH32 0x18A92DF19FD94D6CFFF209966673A5CA05A1C8E2BB68E097FCE2BDC2ED811119 PUSH1 0x1 DUP6 PUSH1 0x40 MLOAD PUSH2 0x336D SWAP3 SWAP2 SWAP1 PUSH2 0x4D1D JUMP JUMPDEST PUSH1 0x40 MLOAD DUP1 SWAP2 SUB SWAP1 LOG3 POP JUMPDEST POP POP POP JUMP JUMPDEST PUSH0 PUSH2 0x33C0 DUP3 PUSH1 0x40 MLOAD DUP1 PUSH1 0x60 ADD PUSH1 0x40 MSTORE DUP1 PUSH1 0x21 DUP2 MSTORE PUSH1 0x20 ADD PUSH2 0x5168 PUSH1 0x21 SWAP2 CODECOPY DUP6 PUSH20 0xFFFFFFFFFFFFFFFFFFFFFFFFFFFFFFFFFFFFFFFF AND PUSH2 0x350F SWAP1 SWAP3 SWAP2 SWAP1 PUSH4 0xFFFFFFFF AND JUMP JUMPDEST SWAP1 POP PUSH0 DUP2 MLOAD GT ISZERO PUSH2 0x341F JUMPI DUP1 DUP1 PUSH1 0x20 ADD SWAP1 MLOAD DUP2 ADD SWAP1 PUSH2 0x33DF SWAP2 SWAP1 PUSH2 0x4B42 JUMP JUMPDEST PUSH2 0x341E JUMPI PUSH1 0x40 MLOAD PUSH32 0x8C379A000000000000000000000000000000000000000000000000000000000 DUP2 MSTORE PUSH1 0x4 ADD PUSH2 0x3415 SWAP1 PUSH2 0x503A JUMP JUMPDEST PUSH1 0x40 MLOAD DUP1 SWAP2 SUB SWAP1 REVERT JUMPDEST JUMPDEST POP POP POP JUMP JUMPDEST PUSH0 DUP1 PUSH2 0x3432 DUP7 DUP7 DUP7 DUP7 PUSH2 0x3526 JUMP JUMPDEST SWAP2 POP SWAP2 POP PUSH2 0x3499 DUP3 PUSH1 0xA PUSH0 DUP7 PUSH1 0xFF AND PUSH1 0xFF AND DUP2 MSTORE PUSH1 0x20 ADD SWAP1 DUP2 MSTORE PUSH1 0x20 ADD PUSH0 KECCAK256 SLOAD PUSH1 0xB PUSH0 SWAP1 SLOAD SWAP1 PUSH2 0x100 EXP SWAP1 DIV PUSH20 0xFFFFFFFFFFFFFFFFFFFFFFFFFFFFFFFFFFFFFFFF AND PUSH20 0xFFFFFFFFFFFFFFFFFFFFFFFFFFFFFFFFFFFFFFFF AND PUSH2 0x36B3 SWAP1 SWAP3 SWAP2 SWAP1 PUSH4 0xFFFFFFFF AND JUMP JUMPDEST DUP1 ISZERO PUSH2 0x3507 JUMPI DUP2 PUSH20 0xFFFFFFFFFFFFFFFFFFFFFFFFFFFFFFFFFFFFFFFF AND DUP6 PUSH20 0xFFFFFFFFFFFFFFFFFFFFFFFFFFFFFFFFFFFFFFFF AND PUSH32 0xCB6AA629EE1FAEB728BC6CCE262180355C663F2F7B0B56AC9D99D56C889BB295 DUP7 DUP7 PUSH1 0x40 MLOAD PUSH2 0x34FE SWAP3 SWAP2 SWAP1 PUSH2 0x5058 JUMP JUMPDEST PUSH1 0x40 MLOAD DUP1 SWAP2 SUB SWAP1 LOG3 JUMPDEST POP POP POP POP POP POP JUMP JUMPDEST PUSH1 0x60 PUSH2 0x351D DUP5 DUP5 PUSH0 DUP6 PUSH2 0x3739 JUMP JUMPDEST SWAP1 POP SWAP4 SWAP3 POP POP POP JUMP JUMPDEST PUSH0 DUP1 PUSH0 DUP7 SWAP1 POP PUSH0 PUSH1 0x1 DUP7 PUSH1 0xFF AND SUB PUSH2 0x36A7 JUMPI JUMPDEST PUSH1 0x1 ISZERO PUSH2 0x36A6 JUMPI PUSH1 0x2 PUSH0 DUP4 PUSH20 0xFFFFFFFFFFFFFFFFFFFFFFFFFFFFFFFFFFFFFFFF AND PUSH20 0xFFFFFFFFFFFFFFFFFFFFFFFFFFFFFFFFFFFFFFFF AND DUP2 MSTORE PUSH1 0x20 ADD SWAP1 DUP2 MSTORE PUSH1 0x20 ADD PUSH0 KECCAK256 PUSH1 0xA ADD PUSH0 DUP7 PUSH1 0xFF AND PUSH1 0xFF AND DUP2 MSTORE PUSH1 0x20 ADD SWAP1 DUP2 MSTORE PUSH1 0x20 ADD PUSH0 KECCAK256 PUSH1 0x2 ADD PUSH0 SWAP1 SLOAD SWAP1 PUSH2 0x100 EXP SWAP1 DIV PUSH1 0xFF AND ISZERO PUSH2 0x3694 JUMPI DUP7 PUSH20 0xFFFFFFFFFFFFFFFFFFFFFFFFFFFFFFFFFFFFFFFF AND DUP3 PUSH20 0xFFFFFFFFFFFFFFFFFFFFFFFFFFFFFFFFFFFFFFFF AND PUSH32 0x7678B5E798B871147619C77C31D658DEF8F71FD554F6130BA85FE1BBAE8D5BF PUSH1 0x1 DUP9 PUSH1 0x40 MLOAD PUSH2 0x360A SWAP3 SWAP2 SWAP1 PUSH2 0x4D1D JUMP JUMPDEST PUSH1 0x40 MLOAD DUP1 SWAP2 SUB SWAP1 LOG3 PUSH1 0x1 SWAP1 POP PUSH1 0x2 PUSH0 DUP4 PUSH20 0xFFFFFFFFFFFFFFFFFFFFFFFFFFFFFFFFFFFFFFFF AND PUSH20 0xFFFFFFFFFFFFFFFFFFFFFFFFFFFFFFFFFFFFFFFF AND DUP2 MSTORE PUSH1 0x20 ADD SWAP1 DUP2 MSTORE PUSH1 0x20 ADD PUSH0 KECCAK256 PUSH1 0xA ADD PUSH0 DUP7 PUSH1 0xFF AND PUSH1 0xFF AND DUP2 MSTORE PUSH1 0x20 ADD SWAP1 DUP2 MSTORE PUSH1 0x20 ADD PUSH0 KECCAK256 PUSH0 ADD PUSH0 SWAP1 SLOAD SWAP1 PUSH2 0x100 EXP SWAP1 DIV PUSH20 0xFFFFFFFFFFFFFFFFFFFFFFFFFFFFFFFFFFFFFFFF AND SWAP2 POP PUSH2 0x36A1 JUMP JUMPDEST DUP2 DUP2 SWAP4 POP SWAP4 POP POP POP PUSH2 0x36AA JUMP JUMPDEST PUSH2 0x3539 JUMP JUMPDEST JUMPDEST POP POP JUMPDEST SWAP5 POP SWAP5 SWAP3 POP POP POP JUMP JUMPDEST PUSH2 0x3734 DUP4 PUSH4 0xA9059CBB PUSH1 0xE0 SHL DUP5 DUP5 PUSH1 0x40 MLOAD PUSH1 0x24 ADD PUSH2 0x36D2 SWAP3 SWAP2 SWAP1 PUSH2 0x4AF1 JUMP JUMPDEST PUSH1 0x40 MLOAD PUSH1 0x20 DUP2 DUP4 SUB SUB DUP2 MSTORE SWAP1 PUSH1 0x40 MSTORE SWAP1 PUSH28 0xFFFFFFFFFFFFFFFFFFFFFFFFFFFFFFFFFFFFFFFFFFFFFFFFFFFFFFFF NOT AND PUSH1 0x20 DUP3 ADD DUP1 MLOAD PUSH28 0xFFFFFFFFFFFFFFFFFFFFFFFFFFFFFFFFFFFFFFFFFFFFFFFFFFFFFFFF DUP4 DUP2 DUP4 AND OR DUP4 MSTORE POP POP POP POP PUSH2 0x337C JUMP JUMPDEST POP POP POP JUMP JUMPDEST PUSH1 0x60 DUP3 SELFBALANCE LT ISZERO PUSH2 0x377E JUMPI PUSH1 0x40 MLOAD PUSH32 0x8C379A000000000000000000000000000000000000000000000000000000000 DUP2 MSTORE PUSH1 0x4 ADD PUSH2 0x3775 SWAP1 PUSH2 0x50EF JUMP JUMPDEST PUSH1 0x40 MLOAD DUP1 SWAP2 SUB SWAP1 REVERT JUMPDEST PUSH0 DUP1 DUP7 PUSH20 0xFFFFFFFFFFFFFFFFFFFFFFFFFFFFFFFFFFFFFFFF AND DUP6 DUP8 PUSH1 0x40 MLOAD PUSH2 0x37A6 SWAP2 SWAP1 PUSH2 0x5151 JUMP JUMPDEST PUSH0 PUSH1 0x40 MLOAD DUP1 DUP4 SUB DUP2 DUP6 DUP8 GAS CALL SWAP3 POP POP POP RETURNDATASIZE DUP1 PUSH0 DUP2 EQ PUSH2 0x37E0 JUMPI PUSH1 0x40 MLOAD SWAP2 POP PUSH1 0x1F NOT PUSH1 0x3F RETURNDATASIZE ADD AND DUP3 ADD PUSH1 0x40 MSTORE RETURNDATASIZE DUP3 MSTORE RETURNDATASIZE PUSH0 PUSH1 0x20 DUP5 ADD RETURNDATACOPY PUSH2 0x37E5 JUMP JUMPDEST PUSH1 0x60 SWAP2 POP JUMPDEST POP SWAP2 POP SWAP2 POP PUSH2 0x37F5 DUP3 DUP3 DUP7 PUSH2 0x3801 JUMP JUMPDEST SWAP3 POP POP POP SWAP5 SWAP4 POP POP POP POP JUMP JUMPDEST PUSH1 0x60 DUP4 ISZERO PUSH2 0x3822 JUMPI PUSH0 DUP4 MLOAD SUB PUSH2 0x3819 JUMPI DUP3 SWAP1 POP PUSH2 0x3871 JUMP JUMPDEST DUP3 MLOAD DUP1 DUP5 PUSH1 0x20 ADD REVERT JUMPDEST PUSH0 DUP4 MLOAD GT ISZERO PUSH2 0x3834 JUMPI DUP3 MLOAD DUP1 DUP5 PUSH1 0x20 ADD REVERT JUMPDEST DUP2 PUSH1 0x40 MLOAD PUSH32 0x8C379A000000000000000000000000000000000000000000000000000000000 DUP2 MSTORE PUSH1 0x4 ADD PUSH2 0x3868 SWAP2 SWAP1 PUSH2 0x414B JUMP JUMPDEST PUSH1 0x40 MLOAD DUP1 SWAP2 SUB SWAP1 REVERT JUMPDEST SWAP4 SWAP3 POP POP POP JUMP JUMPDEST DUP3 DUP1 SLOAD DUP3 DUP3 SSTORE SWAP1 PUSH0 MSTORE PUSH1 0x20 PUSH0 KECCAK256 SWAP1 DUP2 ADD SWAP3 DUP3 ISZERO PUSH2 0x38EE JUMPI SWAP2 PUSH1 0x20 MUL DUP3 ADD JUMPDEST DUP3 DUP2 GT ISZERO PUSH2 0x38ED JUMPI DUP3 MLOAD DUP3 PUSH0 PUSH2 0x100 EXP DUP2 SLOAD DUP2 PUSH20 0xFFFFFFFFFFFFFFFFFFFFFFFFFFFFFFFFFFFFFFFF MUL NOT AND SWAP1 DUP4 PUSH20 0xFFFFFFFFFFFFFFFFFFFFFFFFFFFFFFFFFFFFFFFF AND MUL OR SWAP1 SSTORE POP SWAP2 PUSH1 0x20 ADD SWAP2 SWAP1 PUSH1 0x1 ADD SWAP1 PUSH2 0x3896 JUMP JUMPDEST JUMPDEST POP SWAP1 POP PUSH2 0x38FB SWAP2 SWAP1 PUSH2 0x38FF JUMP JUMPDEST POP SWAP1 JUMP JUMPDEST JUMPDEST DUP1 DUP3 GT ISZERO PUSH2 0x3916 JUMPI PUSH0 DUP2 PUSH0 SWAP1 SSTORE POP PUSH1 0x1 ADD PUSH2 0x3900 JUMP JUMPDEST POP SWAP1 JUMP JUMPDEST PUSH0 PUSH1 0x40 MLOAD SWAP1 POP SWAP1 JUMP JUMPDEST PUSH0 DUP1 REVERT JUMPDEST PUSH0 DUP1 REVERT JUMPDEST PUSH0 PUSH20 0xFFFFFFFFFFFFFFFFFFFFFFFFFFFFFFFFFFFFFFFF DUP3 AND SWAP1 POP SWAP2 SWAP1 POP JUMP JUMPDEST PUSH0 PUSH2 0x3954 DUP3 PUSH2 0x392B JUMP JUMPDEST SWAP1 POP SWAP2 SWAP1 POP JUMP JUMPDEST PUSH2 0x3964 DUP2 PUSH2 0x394A JUMP JUMPDEST DUP2 EQ PUSH2 0x396E JUMPI PUSH0 DUP1 REVERT JUMPDEST POP JUMP JUMPDEST PUSH0 DUP2 CALLDATALOAD SWAP1 POP PUSH2 0x397F DUP2 PUSH2 0x395B JUMP JUMPDEST SWAP3 SWAP2 POP POP JUMP JUMPDEST PUSH0 PUSH1 0xFF DUP3 AND SWAP1 POP SWAP2 SWAP1 POP JUMP JUMPDEST PUSH2 0x399A DUP2 PUSH2 0x3985 JUMP JUMPDEST DUP2 EQ PUSH2 0x39A4 JUMPI PUSH0 DUP1 REVERT JUMPDEST POP JUMP JUMPDEST PUSH0 DUP2 CALLDATALOAD SWAP1 POP PUSH2 0x39B5 DUP2 PUSH2 0x3991 JUMP JUMPDEST SWAP3 SWAP2 POP POP JUMP JUMPDEST PUSH0 DUP1 PUSH1 0x40 DUP4 DUP6 SUB SLT ISZERO PUSH2 0x39D1 JUMPI PUSH2 0x39D0 PUSH2 0x3923 JUMP JUMPDEST JUMPDEST PUSH0 PUSH2 0x39DE DUP6 DUP3 DUP7 ADD PUSH2 0x3971 JUMP JUMPDEST SWAP3 POP POP PUSH1 0x20 PUSH2 0x39EF DUP6 DUP3 DUP7 ADD PUSH2 0x39A7 JUMP JUMPDEST SWAP2 POP POP SWAP3 POP SWAP3 SWAP1 POP JUMP JUMPDEST PUSH0 DUP2 ISZERO ISZERO SWAP1 POP SWAP2 SWAP1 POP JUMP JUMPDEST PUSH2 0x3A0D DUP2 PUSH2 0x39F9 JUMP JUMPDEST DUP3 MSTORE POP POP JUMP JUMPDEST PUSH0 PUSH1 0x20 DUP3 ADD SWAP1 POP PUSH2 0x3A26 PUSH0 DUP4 ADD DUP5 PUSH2 0x3A04 JUMP JUMPDEST SWAP3 SWAP2 POP POP JUMP JUMPDEST PUSH0 PUSH2 0x3A36 DUP3 PUSH2 0x394A JUMP JUMPDEST SWAP1 POP SWAP2 SWAP1 POP JUMP JUMPDEST PUSH2 0x3A46 DUP2 PUSH2 0x3A2C JUMP JUMPDEST DUP2 EQ PUSH2 0x3A50 JUMPI PUSH0 DUP1 REVERT JUMPDEST POP JUMP JUMPDEST PUSH0 DUP2 CALLDATALOAD SWAP1 POP PUSH2 0x3A61 DUP2 PUSH2 0x3A3D JUMP JUMPDEST SWAP3 SWAP2 POP POP JUMP JUMPDEST PUSH0 DUP1 PUSH0 PUSH1 0x60 DUP5 DUP7 SUB SLT ISZERO PUSH2 0x3A7E JUMPI PUSH2 0x3A7D PUSH2 0x3923 JUMP JUMPDEST JUMPDEST PUSH0 PUSH2 0x3A8B DUP7 DUP3 DUP8 ADD PUSH2 0x3971 JUMP JUMPDEST SWAP4 POP POP PUSH1 0x20 PUSH2 0x3A9C DUP7 DUP3 DUP8 ADD PUSH2 0x3971 JUMP JUMPDEST SWAP3 POP POP PUSH1 0x40 PUSH2 0x3AAD DUP7 DUP3 DUP8 ADD PUSH2 0x3A53 JUMP JUMPDEST SWAP2 POP POP SWAP3 POP SWAP3 POP SWAP3 JUMP JUMPDEST PUSH0 PUSH1 0x20 DUP3 DUP5 SUB SLT ISZERO PUSH2 0x3ACC JUMPI PUSH2 0x3ACB PUSH2 0x3923 JUMP JUMPDEST JUMPDEST PUSH0 PUSH2 0x3AD9 DUP5 DUP3 DUP6 ADD PUSH2 0x3971 JUMP JUMPDEST SWAP2 POP POP SWAP3 SWAP2 POP POP JUMP JUMPDEST PUSH0 DUP2 SWAP1 POP SWAP2 SWAP1 POP JUMP JUMPDEST PUSH2 0x3AF4 DUP2 PUSH2 0x3AE2 JUMP JUMPDEST DUP3 MSTORE POP POP JUMP JUMPDEST PUSH0 PUSH1 0x20 DUP3 ADD SWAP1 POP PUSH2 0x3B0D PUSH0 DUP4 ADD DUP5 PUSH2 0x3AEB JUMP JUMPDEST SWAP3 SWAP2 POP POP JUMP JUMPDEST PUSH2 0x3B1C DUP2 PUSH2 0x3985 JUMP JUMPDEST DUP3 MSTORE POP POP JUMP JUMPDEST PUSH0 PUSH1 0x20 DUP3 ADD SWAP1 POP PUSH2 0x3B35 PUSH0 DUP4 ADD DUP5 PUSH2 0x3B13 JUMP JUMPDEST SWAP3 SWAP2 POP POP JUMP JUMPDEST PUSH2 0x3B44 DUP2 PUSH2 0x3AE2 JUMP JUMPDEST DUP2 EQ PUSH2 0x3B4E JUMPI PUSH0 DUP1 REVERT JUMPDEST POP JUMP JUMPDEST PUSH0 DUP2 CALLDATALOAD SWAP1 POP PUSH2 0x3B5F DUP2 PUSH2 0x3B3B JUMP JUMPDEST SWAP3 SWAP2 POP POP JUMP JUMPDEST PUSH0 PUSH1 0x20 DUP3 DUP5 SUB SLT ISZERO PUSH2 0x3B7A JUMPI PUSH2 0x3B79 PUSH2 0x3923 JUMP JUMPDEST JUMPDEST PUSH0 PUSH2 0x3B87 DUP5 DUP3 DUP6 ADD PUSH2 0x3B51 JUMP JUMPDEST SWAP2 POP POP SWAP3 SWAP2 POP POP JUMP JUMPDEST PUSH2 0x3B99 DUP2 PUSH2 0x394A JUMP JUMPDEST DUP3 MSTORE POP POP JUMP JUMPDEST PUSH0 PUSH1 0x20 DUP3 ADD SWAP1 POP PUSH2 0x3BB2 PUSH0 DUP4 ADD DUP5 PUSH2 0x3B90 JUMP JUMPDEST SWAP3 SWAP2 POP POP JUMP JUMPDEST PUSH0 DUP1 REVERT JUMPDEST PUSH0 DUP1 REVERT JUMPDEST PUSH0 PUSH1 0x1F NOT PUSH1 0x1F DUP4 ADD AND SWAP1 POP SWAP2 SWAP1 POP JUMP JUMPDEST PUSH32 0x4E487B7100000000000000000000000000000000000000000000000000000000 PUSH0 MSTORE PUSH1 0x41 PUSH1 0x4 MSTORE PUSH1 0x24 PUSH0 REVERT JUMPDEST PUSH2 0x3C06 DUP3 PUSH2 0x3BC0 JUMP JUMPDEST DUP2 ADD DUP2 DUP2 LT PUSH8 0xFFFFFFFFFFFFFFFF DUP3 GT OR ISZERO PUSH2 0x3C25 JUMPI PUSH2 0x3C24 PUSH2 0x3BD0 JUMP JUMPDEST JUMPDEST DUP1 PUSH1 0x40 MSTORE POP POP POP JUMP JUMPDEST PUSH0 PUSH2 0x3C37 PUSH2 0x391A JUMP JUMPDEST SWAP1 POP PUSH2 0x3C43 DUP3 DUP3 PUSH2 0x3BFD JUMP JUMPDEST SWAP2 SWAP1 POP JUMP JUMPDEST PUSH0 PUSH8 0xFFFFFFFFFFFFFFFF DUP3 GT ISZERO PUSH2 0x3C62 JUMPI PUSH2 0x3C61 PUSH2 0x3BD0 JUMP JUMPDEST JUMPDEST PUSH2 0x3C6B DUP3 PUSH2 0x3BC0 JUMP JUMPDEST SWAP1 POP PUSH1 0x20 DUP2 ADD SWAP1 POP SWAP2 SWAP1 POP JUMP JUMPDEST DUP3 DUP2 DUP4 CALLDATACOPY PUSH0 DUP4 DUP4 ADD MSTORE POP POP POP JUMP JUMPDEST PUSH0 PUSH2 0x3C98 PUSH2 0x3C93 DUP5 PUSH2 0x3C48 JUMP JUMPDEST PUSH2 0x3C2E JUMP JUMPDEST SWAP1 POP DUP3 DUP2 MSTORE PUSH1 0x20 DUP2 ADD DUP5 DUP5 DUP5 ADD GT ISZERO PUSH2 0x3CB4 JUMPI PUSH2 0x3CB3 PUSH2 0x3BBC JUMP JUMPDEST JUMPDEST PUSH2 0x3CBF DUP5 DUP3 DUP6 PUSH2 0x3C78 JUMP JUMPDEST POP SWAP4 SWAP3 POP POP POP JUMP JUMPDEST PUSH0 DUP3 PUSH1 0x1F DUP4 ADD SLT PUSH2 0x3CDB JUMPI PUSH2 0x3CDA PUSH2 0x3BB8 JUMP JUMPDEST JUMPDEST DUP2 CALLDATALOAD PUSH2 0x3CEB DUP5 DUP3 PUSH1 0x20 DUP7 ADD PUSH2 0x3C86 JUMP JUMPDEST SWAP2 POP POP SWAP3 SWAP2 POP POP JUMP JUMPDEST PUSH0 DUP1 PUSH0 DUP1 PUSH0 DUP1 PUSH1 0xC0 DUP8 DUP10 SUB SLT ISZERO PUSH2 0x3D0E JUMPI PUSH2 0x3D0D PUSH2 0x3923 JUMP JUMPDEST JUMPDEST PUSH0 PUSH2 0x3D1B DUP10 DUP3 DUP11 ADD PUSH2 0x3971 JUMP JUMPDEST SWAP7 POP POP PUSH1 0x20 DUP8 ADD CALLDATALOAD PUSH8 0xFFFFFFFFFFFFFFFF DUP2 GT ISZERO PUSH2 0x3D3C JUMPI PUSH2 0x3D3B PUSH2 0x3927 JUMP JUMPDEST JUMPDEST PUSH2 0x3D48 DUP10 DUP3 DUP11 ADD PUSH2 0x3CC7 JUMP JUMPDEST SWAP6 POP POP PUSH1 0x40 DUP8 ADD CALLDATALOAD PUSH8 0xFFFFFFFFFFFFFFFF DUP2 GT ISZERO PUSH2 0x3D69 JUMPI PUSH2 0x3D68 PUSH2 0x3927 JUMP JUMPDEST JUMPDEST PUSH2 0x3D75 DUP10 DUP3 DUP11 ADD PUSH2 0x3CC7 JUMP JUMPDEST SWAP5 POP POP PUSH1 0x60 DUP8 ADD CALLDATALOAD PUSH8 0xFFFFFFFFFFFFFFFF DUP2 GT ISZERO PUSH2 0x3D96 JUMPI PUSH2 0x3D95 PUSH2 0x3927 JUMP JUMPDEST JUMPDEST PUSH2 0x3DA2 DUP10 DUP3 DUP11 ADD PUSH2 0x3CC7 JUMP JUMPDEST SWAP4 POP POP PUSH1 0x80 DUP8 ADD CALLDATALOAD PUSH8 0xFFFFFFFFFFFFFFFF DUP2 GT ISZERO PUSH2 0x3DC3 JUMPI PUSH2 0x3DC2 PUSH2 0x3927 JUMP JUMPDEST JUMPDEST PUSH2 0x3DCF DUP10 DUP3 DUP11 ADD PUSH2 0x3CC7 JUMP JUMPDEST SWAP3 POP POP PUSH1 0xA0 DUP8 ADD CALLDATALOAD PUSH8 0xFFFFFFFFFFFFFFFF DUP2 GT ISZERO PUSH2 0x3DF0 JUMPI PUSH2 0x3DEF PUSH2 0x3927 JUMP JUMPDEST JUMPDEST PUSH2 0x3DFC DUP10 DUP3 DUP11 ADD PUSH2 0x3CC7 JUMP JUMPDEST SWAP2 POP POP SWAP3 SWAP6 POP SWAP3 SWAP6 POP SWAP3 SWAP6 JUMP JUMPDEST PUSH0 DUP2 MLOAD SWAP1 POP SWAP2 SWAP1 POP JUMP JUMPDEST PUSH0 DUP3 DUP3 MSTORE PUSH1 0x20 DUP3 ADD SWAP1 POP SWAP3 SWAP2 POP POP JUMP JUMPDEST PUSH0 DUP2 SWAP1 POP PUSH1 0x20 DUP3 ADD SWAP1 POP SWAP2 SWAP1 POP JUMP JUMPDEST PUSH2 0x3E3B DUP2 PUSH2 0x394A JUMP JUMPDEST DUP3 MSTORE POP POP JUMP JUMPDEST PUSH0 PUSH2 0x3E4C DUP4 DUP4 PUSH2 0x3E32 JUMP JUMPDEST PUSH1 0x20 DUP4 ADD SWAP1 POP SWAP3 SWAP2 POP POP JUMP JUMPDEST PUSH0 PUSH1 0x20 DUP3 ADD SWAP1 POP SWAP2 SWAP1 POP JUMP JUMPDEST PUSH0 PUSH2 0x3E6E DUP3 PUSH2 0x3E09 JUMP JUMPDEST PUSH2 0x3E78 DUP2 DUP6 PUSH2 0x3E13 JUMP JUMPDEST SWAP4 POP PUSH2 0x3E83 DUP4 PUSH2 0x3E23 JUMP JUMPDEST DUP1 PUSH0 JUMPDEST DUP4 DUP2 LT ISZERO PUSH2 0x3EB3 JUMPI DUP2 MLOAD PUSH2 0x3E9A DUP9 DUP3 PUSH2 0x3E41 JUMP JUMPDEST SWAP8 POP PUSH2 0x3EA5 DUP4 PUSH2 0x3E58 JUMP JUMPDEST SWAP3 POP POP PUSH1 0x1 DUP2 ADD SWAP1 POP PUSH2 0x3E86 JUMP JUMPDEST POP DUP6 SWAP4 POP POP POP POP SWAP3 SWAP2 POP POP JUMP JUMPDEST PUSH0 PUSH1 0x60 DUP3 ADD SWAP1 POP PUSH2 0x3ED3 PUSH0 DUP4 ADD DUP7 PUSH2 0x3B90 JUMP JUMPDEST DUP2 DUP2 SUB PUSH1 0x20 DUP4 ADD MSTORE PUSH2 0x3EE5 DUP2 DUP6 PUSH2 0x3E64 JUMP JUMPDEST SWAP1 POP PUSH2 0x3EF4 PUSH1 0x40 DUP4 ADD DUP5 PUSH2 0x3A04 JUMP JUMPDEST SWAP5 SWAP4 POP POP POP POP JUMP JUMPDEST PUSH0 DUP1 PUSH0 DUP1 PUSH0 DUP1 PUSH0 PUSH1 0xE0 DUP9 DUP11 SUB SLT ISZERO PUSH2 0x3F17 JUMPI PUSH2 0x3F16 PUSH2 0x3923 JUMP JUMPDEST JUMPDEST PUSH0 PUSH2 0x3F24 DUP11 DUP3 DUP12 ADD PUSH2 0x3971 JUMP JUMPDEST SWAP8 POP POP PUSH1 0x20 PUSH2 0x3F35 DUP11 DUP3 DUP12 ADD PUSH2 0x3971 JUMP JUMPDEST SWAP7 POP POP PUSH1 0x40 DUP9 ADD CALLDATALOAD PUSH8 0xFFFFFFFFFFFFFFFF DUP2 GT ISZERO PUSH2 0x3F56 JUMPI PUSH2 0x3F55 PUSH2 0x3927 JUMP JUMPDEST JUMPDEST PUSH2 0x3F62 DUP11 DUP3 DUP12 ADD PUSH2 0x3CC7 JUMP JUMPDEST SWAP6 POP POP PUSH1 0x60 DUP9 ADD CALLDATALOAD PUSH8 0xFFFFFFFFFFFFFFFF DUP2 GT ISZERO PUSH2 0x3F83 JUMPI PUSH2 0x3F82 PUSH2 0x3927 JUMP JUMPDEST JUMPDEST PUSH2 0x3F8F DUP11 DUP3 DUP12 ADD PUSH2 0x3CC7 JUMP JUMPDEST SWAP5 POP POP PUSH1 0x80 DUP9 ADD CALLDATALOAD PUSH8 0xFFFFFFFFFFFFFFFF DUP2 GT ISZERO PUSH2 0x3FB0 JUMPI PUSH2 0x3FAF PUSH2 0x3927 JUMP JUMPDEST JUMPDEST PUSH2 0x3FBC DUP11 DUP3 DUP12 ADD PUSH2 0x3CC7 JUMP JUMPDEST SWAP4 POP POP PUSH1 0xA0 DUP9 ADD CALLDATALOAD PUSH8 0xFFFFFFFFFFFFFFFF DUP2 GT ISZERO PUSH2 0x3FDD JUMPI PUSH2 0x3FDC PUSH2 0x3927 JUMP JUMPDEST JUMPDEST PUSH2 0x3FE9 DUP11 DUP3 DUP12 ADD PUSH2 0x3CC7 JUMP JUMPDEST SWAP3 POP POP PUSH1 0xC0 DUP9 ADD CALLDATALOAD PUSH8 0xFFFFFFFFFFFFFFFF DUP2 GT ISZERO PUSH2 0x400A JUMPI PUSH2 0x4009 PUSH2 0x3927 JUMP JUMPDEST JUMPDEST PUSH2 0x4016 DUP11 DUP3 DUP12 ADD PUSH2 0x3CC7 JUMP JUMPDEST SWAP2 POP POP SWAP3 SWAP6 SWAP9 SWAP2 SWAP5 SWAP8 POP SWAP3 SWAP6 POP JUMP JUMPDEST PUSH0 DUP2 MLOAD SWAP1 POP SWAP2 SWAP1 POP JUMP JUMPDEST PUSH0 DUP3 DUP3 MSTORE PUSH1 0x20 DUP3 ADD SWAP1 POP SWAP3 SWAP2 POP POP JUMP JUMPDEST DUP3 DUP2 DUP4 MCOPY PUSH0 DUP4 DUP4 ADD MSTORE POP POP POP JUMP JUMPDEST PUSH0 PUSH2 0x4057 DUP3 PUSH2 0x4025 JUMP JUMPDEST PUSH2 0x4061 DUP2 DUP6 PUSH2 0x402F JUMP JUMPDEST SWAP4 POP PUSH2 0x4071 DUP2 DUP6 PUSH1 0x20 DUP7 ADD PUSH2 0x403F JUMP JUMPDEST PUSH2 0x407A DUP2 PUSH2 0x3BC0 JUMP JUMPDEST DUP5 ADD SWAP2 POP POP SWAP3 SWAP2 POP POP JUMP JUMPDEST PUSH0 DUP2 SWAP1 POP SWAP2 SWAP1 POP JUMP JUMPDEST PUSH2 0x4097 DUP2 PUSH2 0x4085 JUMP JUMPDEST DUP3 MSTORE POP POP JUMP JUMPDEST PUSH0 PUSH2 0x120 DUP3 ADD SWAP1 POP PUSH2 0x40B1 PUSH0 DUP4 ADD DUP13 PUSH2 0x3AEB JUMP JUMPDEST PUSH2 0x40BE PUSH1 0x20 DUP4 ADD DUP12 PUSH2 0x3B90 JUMP JUMPDEST DUP2 DUP2 SUB PUSH1 0x40 DUP4 ADD MSTORE PUSH2 0x40D0 DUP2 DUP11 PUSH2 0x404D JUMP JUMPDEST SWAP1 POP DUP2 DUP2 SUB PUSH1 0x60 DUP4 ADD MSTORE PUSH2 0x40E4 DUP2 DUP10 PUSH2 0x404D JUMP JUMPDEST SWAP1 POP DUP2 DUP2 SUB PUSH1 0x80 DUP4 ADD MSTORE PUSH2 0x40F8 DUP2 DUP9 PUSH2 0x404D JUMP JUMPDEST SWAP1 POP PUSH2 0x4107 PUSH1 0xA0 DUP4 ADD DUP8 PUSH2 0x408E JUMP JUMPDEST DUP2 DUP2 SUB PUSH1 0xC0 DUP4 ADD MSTORE PUSH2 0x4119 DUP2 DUP7 PUSH2 0x404D JUMP JUMPDEST SWAP1 POP DUP2 DUP2 SUB PUSH1 0xE0 DUP4 ADD MSTORE PUSH2 0x412D DUP2 DUP6 PUSH2 0x404D JUMP JUMPDEST SWAP1 POP PUSH2 0x413D PUSH2 0x100 DUP4 ADD DUP5 PUSH2 0x3AEB JUMP JUMPDEST SWAP11 SWAP10 POP POP POP POP POP POP POP POP POP POP JUMP JUMPDEST PUSH0 PUSH1 0x20 DUP3 ADD SWAP1 POP DUP2 DUP2 SUB PUSH0 DUP4 ADD MSTORE PUSH2 0x4163 DUP2 DUP5 PUSH2 0x404D JUMP JUMPDEST SWAP1 POP SWAP3 SWAP2 POP POP JUMP JUMPDEST PUSH0 DUP1 PUSH0 PUSH1 0x60 DUP5 DUP7 SUB SLT ISZERO PUSH2 0x4182 JUMPI PUSH2 0x4181 PUSH2 0x3923 JUMP JUMPDEST JUMPDEST PUSH0 PUSH2 0x418F DUP7 DUP3 DUP8 ADD PUSH2 0x3971 JUMP JUMPDEST SWAP4 POP POP PUSH1 0x20 PUSH2 0x41A0 DUP7 DUP3 DUP8 ADD PUSH2 0x39A7 JUMP JUMPDEST SWAP3 POP POP PUSH1 0x40 PUSH2 0x41B1 DUP7 DUP3 DUP8 ADD PUSH2 0x39A7 JUMP JUMPDEST SWAP2 POP POP SWAP3 POP SWAP3 POP SWAP3 JUMP JUMPDEST PUSH0 DUP1 PUSH1 0x40 DUP4 DUP6 SUB SLT ISZERO PUSH2 0x41D1 JUMPI PUSH2 0x41D0 PUSH2 0x3923 JUMP JUMPDEST JUMPDEST PUSH0 PUSH2 0x41DE DUP6 DUP3 DUP7 ADD PUSH2 0x39A7 JUMP JUMPDEST SWAP3 POP POP PUSH1 0x20 PUSH2 0x41EF DUP6 DUP3 DUP7 ADD PUSH2 0x39A7 JUMP JUMPDEST SWAP2 POP POP SWAP3 POP SWAP3 SWAP1 POP JUMP JUMPDEST PUSH0 DUP2 SWAP1 POP SWAP2 SWAP1 POP JUMP JUMPDEST PUSH0 PUSH2 0x421C PUSH2 0x4217 PUSH2 0x4212 DUP5 PUSH2 0x392B JUMP JUMPDEST PUSH2 0x41F9 JUMP JUMPDEST PUSH2 0x392B JUMP JUMPDEST SWAP1 POP SWAP2 SWAP1 POP JUMP JUMPDEST PUSH0 PUSH2 0x422D DUP3 PUSH2 0x4202 JUMP JUMPDEST SWAP1 POP SWAP2 SWAP1 POP JUMP JUMPDEST PUSH0 PUSH2 0x423E DUP3 PUSH2 0x4223 JUMP JUMPDEST SWAP1 POP SWAP2 SWAP1 POP JUMP JUMPDEST PUSH2 0x424E DUP2 PUSH2 0x4234 JUMP JUMPDEST DUP3 MSTORE POP POP JUMP JUMPDEST PUSH0 PUSH1 0x20 DUP3 ADD SWAP1 POP PUSH2 0x4267 PUSH0 DUP4 ADD DUP5 PUSH2 0x4245 JUMP JUMPDEST SWAP3 SWAP2 POP POP JUMP JUMPDEST PUSH0 DUP2 MLOAD SWAP1 POP SWAP2 SWAP1 POP JUMP JUMPDEST PUSH0 DUP3 DUP3 MSTORE PUSH1 0x20 DUP3 ADD SWAP1 POP SWAP3 SWAP2 POP POP JUMP JUMPDEST PUSH0 DUP2 SWAP1 POP PUSH1 0x20 DUP3 ADD SWAP1 POP SWAP2 SWAP1 POP JUMP JUMPDEST PUSH2 0x429F DUP2 PUSH2 0x3AE2 JUMP JUMPDEST DUP3 MSTORE POP POP JUMP JUMPDEST PUSH0 DUP3 DUP3 MSTORE PUSH1 0x20 DUP3 ADD SWAP1 POP SWAP3 SWAP2 POP POP JUMP JUMPDEST PUSH0 PUSH2 0x42BF DUP3 PUSH2 0x4025 JUMP JUMPDEST PUSH2 0x42C9 DUP2 DUP6 PUSH2 0x42A5 JUMP JUMPDEST SWAP4 POP PUSH2 0x42D9 DUP2 DUP6 PUSH1 0x20 DUP7 ADD PUSH2 0x403F JUMP JUMPDEST PUSH2 0x42E2 DUP2 PUSH2 0x3BC0 JUMP JUMPDEST DUP5 ADD SWAP2 POP POP SWAP3 SWAP2 POP POP JUMP JUMPDEST PUSH0 PUSH1 0x60 DUP4 ADD PUSH0 DUP4 ADD MLOAD PUSH2 0x4302 PUSH0 DUP7 ADD DUP3 PUSH2 0x4296 JUMP JUMPDEST POP PUSH1 0x20 DUP4 ADD MLOAD PUSH2 0x4315 PUSH1 0x20 DUP7 ADD DUP3 PUSH2 0x4296 JUMP JUMPDEST POP PUSH1 0x40 DUP4 ADD MLOAD DUP5 DUP3 SUB PUSH1 0x40 DUP7 ADD MSTORE PUSH2 0x432D DUP3 DUP3 PUSH2 0x42B5 JUMP JUMPDEST SWAP2 POP POP DUP1 SWAP2 POP POP SWAP3 SWAP2 POP POP JUMP JUMPDEST PUSH0 PUSH2 0x4345 DUP4 DUP4 PUSH2 0x42ED JUMP JUMPDEST SWAP1 POP SWAP3 SWAP2 POP POP JUMP JUMPDEST PUSH0 PUSH1 0x20 DUP3 ADD SWAP1 POP SWAP2 SWAP1 POP JUMP JUMPDEST PUSH0 PUSH2 0x4363 DUP3 PUSH2 0x426D JUMP JUMPDEST PUSH2 0x436D DUP2 DUP6 PUSH2 0x4277 JUMP JUMPDEST SWAP4 POP DUP4 PUSH1 0x20 DUP3 MUL DUP6 ADD PUSH2 0x437F DUP6 PUSH2 0x4287 JUMP JUMPDEST DUP1 PUSH0 JUMPDEST DUP6 DUP2 LT ISZERO PUSH2 0x43BA JUMPI DUP5 DUP5 SUB DUP10 MSTORE DUP2 MLOAD PUSH2 0x439B DUP6 DUP3 PUSH2 0x433A JUMP JUMPDEST SWAP5 POP PUSH2 0x43A6 DUP4 PUSH2 0x434D JUMP JUMPDEST SWAP3 POP PUSH1 0x20 DUP11 ADD SWAP10 POP POP PUSH1 0x1 DUP2 ADD SWAP1 POP PUSH2 0x4382 JUMP JUMPDEST POP DUP3 SWAP8 POP DUP8 SWAP6 POP POP POP POP POP POP SWAP3 SWAP2 POP POP JUMP JUMPDEST PUSH0 PUSH1 0x20 DUP3 ADD SWAP1 POP DUP2 DUP2 SUB PUSH0 DUP4 ADD MSTORE PUSH2 0x43E4 DUP2 DUP5 PUSH2 0x4359 JUMP JUMPDEST SWAP1 POP SWAP3 SWAP2 POP POP JUMP JUMPDEST PUSH0 DUP1 PUSH1 0x40 DUP4 DUP6 SUB SLT ISZERO PUSH2 0x4402 JUMPI PUSH2 0x4401 PUSH2 0x3923 JUMP JUMPDEST JUMPDEST PUSH0 PUSH2 0x440F DUP6 DUP3 DUP7 ADD PUSH2 0x3971 JUMP JUMPDEST SWAP3 POP POP PUSH1 0x20 PUSH2 0x4420 DUP6 DUP3 DUP7 ADD PUSH2 0x3B51 JUMP JUMPDEST SWAP2 POP POP SWAP3 POP SWAP3 SWAP1 POP JUMP JUMPDEST PUSH0 PUSH1 0x60 DUP3 ADD SWAP1 POP PUSH2 0x443D PUSH0 DUP4 ADD DUP7 PUSH2 0x3AEB JUMP JUMPDEST PUSH2 0x444A PUSH1 0x20 DUP4 ADD DUP6 PUSH2 0x3AEB JUMP JUMPDEST DUP2 DUP2 SUB PUSH1 0x40 DUP4 ADD MSTORE PUSH2 0x445C DUP2 DUP5 PUSH2 0x404D JUMP JUMPDEST SWAP1 POP SWAP5 SWAP4 POP POP POP POP JUMP JUMPDEST PUSH0 PUSH1 0x20 DUP3 DUP5 SUB SLT ISZERO PUSH2 0x447B JUMPI PUSH2 0x447A PUSH2 0x3923 JUMP JUMPDEST JUMPDEST PUSH0 PUSH2 0x4488 DUP5 DUP3 DUP6 ADD PUSH2 0x39A7 JUMP JUMPDEST SWAP2 POP POP SWAP3 SWAP2 POP POP JUMP JUMPDEST PUSH32 0x4E487B7100000000000000000000000000000000000000000000000000000000 PUSH0 MSTORE PUSH1 0x11 PUSH1 0x4 MSTORE PUSH1 0x24 PUSH0 REVERT JUMPDEST PUSH0 PUSH2 0x44C8 DUP3 PUSH2 0x3AE2 JUMP JUMPDEST SWAP2 POP PUSH2 0x44D3 DUP4 PUSH2 0x3AE2 JUMP JUMPDEST SWAP3 POP DUP3 DUP3 MUL PUSH2 0x44E1 DUP2 PUSH2 0x3AE2 JUMP JUMPDEST SWAP2 POP DUP3 DUP3 DIV DUP5 EQ DUP4 ISZERO OR PUSH2 0x44F8 JUMPI PUSH2 0x44F7 PUSH2 0x4491 JUMP JUMPDEST JUMPDEST POP SWAP3 SWAP2 POP POP JUMP JUMPDEST PUSH0 PUSH2 0x4509 DUP3 PUSH2 0x3AE2 JUMP JUMPDEST SWAP2 POP PUSH2 0x4514 DUP4 PUSH2 0x3AE2 JUMP JUMPDEST SWAP3 POP DUP3 DUP3 ADD SWAP1 POP DUP1 DUP3 GT ISZERO PUSH2 0x452C JUMPI PUSH2 0x452B PUSH2 0x4491 JUMP JUMPDEST JUMPDEST SWAP3 SWAP2 POP POP JUMP JUMPDEST PUSH32 0x5573657220616C72656164792065786973747300000000000000000000000000 PUSH0 DUP3 ADD MSTORE POP JUMP JUMPDEST PUSH0 PUSH2 0x4566 PUSH1 0x13 DUP4 PUSH2 0x402F JUMP JUMPDEST SWAP2 POP PUSH2 0x4571 DUP3 PUSH2 0x4532 JUMP JUMPDEST PUSH1 0x20 DUP3 ADD SWAP1 POP SWAP2 SWAP1 POP JUMP JUMPDEST PUSH0 PUSH1 0x20 DUP3 ADD SWAP1 POP DUP2 DUP2 SUB PUSH0 DUP4 ADD MSTORE PUSH2 0x4593 DUP2 PUSH2 0x455A JUMP JUMPDEST SWAP1 POP SWAP2 SWAP1 POP JUMP JUMPDEST PUSH32 0x41646472657373206D75737420626520616E20454F4100000000000000000000 PUSH0 DUP3 ADD MSTORE POP JUMP JUMPDEST PUSH0 PUSH2 0x45CE PUSH1 0x16 DUP4 PUSH2 0x402F JUMP JUMPDEST SWAP2 POP PUSH2 0x45D9 DUP3 PUSH2 0x459A JUMP JUMPDEST PUSH1 0x20 DUP3 ADD SWAP1 POP SWAP2 SWAP1 POP JUMP JUMPDEST PUSH0 PUSH1 0x20 DUP3 ADD SWAP1 POP DUP2 DUP2 SUB PUSH0 DUP4 ADD MSTORE PUSH2 0x45FB DUP2 PUSH2 0x45C2 JUMP JUMPDEST SWAP1 POP SWAP2 SWAP1 POP JUMP JUMPDEST PUSH0 PUSH2 0x460C DUP3 PUSH2 0x3AE2 JUMP JUMPDEST SWAP2 POP PUSH32 0xFFFFFFFFFFFFFFFFFFFFFFFFFFFFFFFFFFFFFFFFFFFFFFFFFFFFFFFFFFFFFFFF DUP3 SUB PUSH2 0x463E JUMPI PUSH2 0x463D PUSH2 0x4491 JUMP JUMPDEST JUMPDEST PUSH1 0x1 DUP3 ADD SWAP1 POP SWAP2 SWAP1 POP JUMP JUMPDEST PUSH32 0x4E487B7100000000000000000000000000000000000000000000000000000000 PUSH0 MSTORE PUSH1 0x22 PUSH1 0x4 MSTORE PUSH1 0x24 PUSH0 REVERT JUMPDEST PUSH0 PUSH1 0x2 DUP3 DIV SWAP1 POP PUSH1 0x1 DUP3 AND DUP1 PUSH2 0x468D JUMPI PUSH1 0x7F DUP3 AND SWAP2 POP JUMPDEST PUSH1 0x20 DUP3 LT DUP2 SUB PUSH2 0x46A0 JUMPI PUSH2 0x469F PUSH2 0x4649 JUMP JUMPDEST JUMPDEST POP SWAP2 SWAP1 POP JUMP JUMPDEST PUSH0 DUP2 SWAP1 POP DUP2 PUSH0 MSTORE PUSH1 0x20 PUSH0 KECCAK256 SWAP1 POP SWAP2 SWAP1 POP JUMP JUMPDEST PUSH0 PUSH1 0x20 PUSH1 0x1F DUP4 ADD DIV SWAP1 POP SWAP2 SWAP1 POP JUMP JUMPDEST PUSH0 DUP3 DUP3 SHL SWAP1 POP SWAP3 SWAP2 POP POP JUMP JUMPDEST PUSH0 PUSH1 0x8 DUP4 MUL PUSH2 0x4702 PUSH32 0xFFFFFFFFFFFFFFFFFFFFFFFFFFFFFFFFFFFFFFFFFFFFFFFFFFFFFFFFFFFFFFFF DUP3 PUSH2 0x46C7 JUMP JUMPDEST PUSH2 0x470C DUP7 DUP4 PUSH2 0x46C7 JUMP JUMPDEST SWAP6 POP DUP1 NOT DUP5 AND SWAP4 POP DUP1 DUP7 AND DUP5 OR SWAP3 POP POP POP SWAP4 SWAP3 POP POP POP JUMP JUMPDEST PUSH0 PUSH2 0x473E PUSH2 0x4739 PUSH2 0x4734 DUP5 PUSH2 0x3AE2 JUMP JUMPDEST PUSH2 0x41F9 JUMP JUMPDEST PUSH2 0x3AE2 JUMP JUMPDEST SWAP1 POP SWAP2 SWAP1 POP JUMP JUMPDEST PUSH0 DUP2 SWAP1 POP SWAP2 SWAP1 POP JUMP JUMPDEST PUSH2 0x4757 DUP4 PUSH2 0x4724 JUMP JUMPDEST PUSH2 0x476B PUSH2 0x4763 DUP3 PUSH2 0x4745 JUMP JUMPDEST DUP5 DUP5 SLOAD PUSH2 0x46D3 JUMP JUMPDEST DUP3 SSTORE POP POP POP POP JUMP JUMPDEST PUSH0 SWAP1 JUMP JUMPDEST PUSH2 0x477F PUSH2 0x4773 JUMP JUMPDEST PUSH2 0x478A DUP2 DUP5 DUP5 PUSH2 0x474E JUMP JUMPDEST POP POP POP JUMP JUMPDEST JUMPDEST DUP2 DUP2 LT ISZERO PUSH2 0x47AD JUMPI PUSH2 0x47A2 PUSH0 DUP3 PUSH2 0x4777 JUMP JUMPDEST PUSH1 0x1 DUP2 ADD SWAP1 POP PUSH2 0x4790 JUMP JUMPDEST POP POP JUMP JUMPDEST PUSH1 0x1F DUP3 GT ISZERO PUSH2 0x47F2 JUMPI PUSH2 0x47C3 DUP2 PUSH2 0x46A6 JUMP JUMPDEST PUSH2 0x47CC DUP5 PUSH2 0x46B8 JUMP JUMPDEST DUP2 ADD PUSH1 0x20 DUP6 LT ISZERO PUSH2 0x47DB JUMPI DUP2 SWAP1 POP JUMPDEST PUSH2 0x47EF PUSH2 0x47E7 DUP6 PUSH2 0x46B8 JUMP JUMPDEST DUP4 ADD DUP3 PUSH2 0x478F JUMP JUMPDEST POP POP JUMPDEST POP POP POP JUMP JUMPDEST PUSH0 DUP3 DUP3 SHR SWAP1 POP SWAP3 SWAP2 POP POP JUMP JUMPDEST PUSH0 PUSH2 0x4812 PUSH0 NOT DUP5 PUSH1 0x8 MUL PUSH2 0x47F7 JUMP JUMPDEST NOT DUP1 DUP4 AND SWAP2 POP POP SWAP3 SWAP2 POP POP JUMP JUMPDEST PUSH0 PUSH2 0x482A DUP4 DUP4 PUSH2 0x4803 JUMP JUMPDEST SWAP2 POP DUP3 PUSH1 0x2 MUL DUP3 OR SWAP1 POP SWAP3 SWAP2 POP POP JUMP JUMPDEST PUSH2 0x4843 DUP3 PUSH2 0x4025 JUMP JUMPDEST PUSH8 0xFFFFFFFFFFFFFFFF DUP2 GT ISZERO PUSH2 0x485C JUMPI PUSH2 0x485B PUSH2 0x3BD0 JUMP JUMPDEST JUMPDEST PUSH2 0x4866 DUP3 SLOAD PUSH2 0x4676 JUMP JUMPDEST PUSH2 0x4871 DUP3 DUP3 DUP6 PUSH2 0x47B1 JUMP JUMPDEST PUSH0 PUSH1 0x20 SWAP1 POP PUSH1 0x1F DUP4 GT PUSH1 0x1 DUP2 EQ PUSH2 0x48A2 JUMPI PUSH0 DUP5 ISZERO PUSH2 0x4890 JUMPI DUP3 DUP8 ADD MLOAD SWAP1 POP JUMPDEST PUSH2 0x489A DUP6 DUP3 PUSH2 0x481F JUMP JUMPDEST DUP7 SSTORE POP PUSH2 0x4901 JUMP JUMPDEST PUSH1 0x1F NOT DUP5 AND PUSH2 0x48B0 DUP7 PUSH2 0x46A6 JUMP JUMPDEST PUSH0 JUMPDEST DUP3 DUP2 LT ISZERO PUSH2 0x48D7 JUMPI DUP5 DUP10 ADD MLOAD DUP3 SSTORE PUSH1 0x1 DUP3 ADD SWAP2 POP PUSH1 0x20 DUP6 ADD SWAP5 POP PUSH1 0x20 DUP2 ADD SWAP1 POP PUSH2 0x48B2 JUMP JUMPDEST DUP7 DUP4 LT ISZERO PUSH2 0x48F4 JUMPI DUP5 DUP10 ADD MLOAD PUSH2 0x48F0 PUSH1 0x1F DUP10 AND DUP3 PUSH2 0x4803 JUMP JUMPDEST DUP4 SSTORE POP JUMPDEST PUSH1 0x1 PUSH1 0x2 DUP9 MUL ADD DUP9 SSTORE POP POP POP JUMPDEST POP POP POP POP POP POP JUMP JUMPDEST PUSH0 DUP2 SWAP1 POP SWAP3 SWAP2 POP POP JUMP JUMPDEST PUSH0 PUSH2 0x491D DUP3 PUSH2 0x4025 JUMP JUMPDEST PUSH2 0x4927 DUP2 DUP6 PUSH2 0x4909 JUMP JUMPDEST SWAP4 POP PUSH2 0x4937 DUP2 DUP6 PUSH1 0x20 DUP7 ADD PUSH2 0x403F JUMP JUMPDEST DUP1 DUP5 ADD SWAP2 POP POP SWAP3 SWAP2 POP POP JUMP JUMPDEST PUSH0 PUSH2 0x494E DUP3 DUP5 PUSH2 0x4913 JUMP JUMPDEST SWAP2 POP DUP2 SWAP1 POP SWAP3 SWAP2 POP POP JUMP JUMPDEST PUSH32 0x6F6E6C794F776E65720000000000000000000000000000000000000000000000 PUSH0 DUP3 ADD MSTORE POP JUMP JUMPDEST PUSH0 PUSH2 0x498D PUSH1 0x9 DUP4 PUSH2 0x402F JUMP JUMPDEST SWAP2 POP PUSH2 0x4998 DUP3 PUSH2 0x4959 JUMP JUMPDEST PUSH1 0x20 DUP3 ADD SWAP1 POP SWAP2 SWAP1 POP JUMP JUMPDEST PUSH0 PUSH1 0x20 DUP3 ADD SWAP1 POP DUP2 DUP2 SUB PUSH0 DUP4 ADD MSTORE PUSH2 0x49BA DUP2 PUSH2 0x4981 JUMP JUMPDEST SWAP1 POP SWAP2 SWAP1 POP JUMP JUMPDEST PUSH0 PUSH2 0x49CB DUP3 PUSH2 0x3985 JUMP JUMPDEST SWAP2 POP PUSH2 0x49D6 DUP4 PUSH2 0x3985 JUMP JUMPDEST SWAP3 POP DUP3 DUP3 SUB SWAP1 POP PUSH1 0xFF DUP2 GT ISZERO PUSH2 0x49EF JUMPI PUSH2 0x49EE PUSH2 0x4491 JUMP JUMPDEST JUMPDEST SWAP3 SWAP2 POP POP JUMP JUMPDEST PUSH0 PUSH2 0x49FF DUP3 PUSH2 0x3985 JUMP JUMPDEST SWAP2 POP PUSH1 0xFF DUP3 SUB PUSH2 0x4A12 JUMPI PUSH2 0x4A11 PUSH2 0x4491 JUMP JUMPDEST JUMPDEST PUSH1 0x1 DUP3 ADD SWAP1 POP SWAP2 SWAP1 POP JUMP JUMPDEST PUSH32 0x4E487B7100000000000000000000000000000000000000000000000000000000 PUSH0 MSTORE PUSH1 0x32 PUSH1 0x4 MSTORE PUSH1 0x24 PUSH0 REVERT JUMPDEST PUSH32 0x63616E6E6F74207769746864726177206465706F73697420746F6B656E000000 PUSH0 DUP3 ADD MSTORE POP JUMP JUMPDEST PUSH0 PUSH2 0x4A7E PUSH1 0x1D DUP4 PUSH2 0x402F JUMP JUMPDEST SWAP2 POP PUSH2 0x4A89 DUP3 PUSH2 0x4A4A JUMP JUMPDEST PUSH1 0x20 DUP3 ADD SWAP1 POP SWAP2 SWAP1 POP JUMP JUMPDEST PUSH0 PUSH1 0x20 DUP3 ADD SWAP1 POP DUP2 DUP2 SUB PUSH0 DUP4 ADD MSTORE PUSH2 0x4AAB DUP2 PUSH2 0x4A72 JUMP JUMPDEST SWAP1 POP SWAP2 SWAP1 POP JUMP JUMPDEST PUSH0 DUP2 MLOAD SWAP1 POP PUSH2 0x4AC0 DUP2 PUSH2 0x3B3B JUMP JUMPDEST SWAP3 SWAP2 POP POP JUMP JUMPDEST PUSH0 PUSH1 0x20 DUP3 DUP5 SUB SLT ISZERO PUSH2 0x4ADB JUMPI PUSH2 0x4ADA PUSH2 0x3923 JUMP JUMPDEST JUMPDEST PUSH0 PUSH2 0x4AE8 DUP5 DUP3 DUP6 ADD PUSH2 0x4AB2 JUMP JUMPDEST SWAP2 POP POP SWAP3 SWAP2 POP POP JUMP JUMPDEST PUSH0 PUSH1 0x40 DUP3 ADD SWAP1 POP PUSH2 0x4B04 PUSH0 DUP4 ADD DUP6 PUSH2 0x3B90 JUMP JUMPDEST PUSH2 0x4B11 PUSH1 0x20 DUP4 ADD DUP5 PUSH2 0x3AEB JUMP JUMPDEST SWAP4 SWAP3 POP POP POP JUMP JUMPDEST PUSH2 0x4B21 DUP2 PUSH2 0x39F9 JUMP JUMPDEST DUP2 EQ PUSH2 0x4B2B JUMPI PUSH0 DUP1 REVERT JUMPDEST POP JUMP JUMPDEST PUSH0 DUP2 MLOAD SWAP1 POP PUSH2 0x4B3C DUP2 PUSH2 0x4B18 JUMP JUMPDEST SWAP3 SWAP2 POP POP JUMP JUMPDEST PUSH0 PUSH1 0x20 DUP3 DUP5 SUB SLT ISZERO PUSH2 0x4B57 JUMPI PUSH2 0x4B56 PUSH2 0x3923 JUMP JUMPDEST JUMPDEST PUSH0 PUSH2 0x4B64 DUP5 DUP3 DUP6 ADD PUSH2 0x4B2E JUMP JUMPDEST SWAP2 POP POP SWAP3 SWAP2 POP POP JUMP JUMPDEST PUSH32 0x68747470733A2F2F6578616D706C652E636F6D2F726566657272616C2F000000 PUSH0 DUP3 ADD MSTORE POP JUMP JUMPDEST PUSH0 PUSH2 0x4BA1 PUSH1 0x1D DUP4 PUSH2 0x4909 JUMP JUMPDEST SWAP2 POP PUSH2 0x4BAC DUP3 PUSH2 0x4B6D JUMP JUMPDEST PUSH1 0x1D DUP3 ADD SWAP1 POP SWAP2 SWAP1 POP JUMP JUMPDEST PUSH0 PUSH2 0x4BC1 DUP3 PUSH2 0x4B95 JUMP JUMPDEST SWAP2 POP PUSH2 0x4BCD DUP3 DUP5 PUSH2 0x4913 JUMP JUMPDEST SWAP2 POP DUP2 SWAP1 POP SWAP3 SWAP2 POP POP JUMP JUMPDEST PUSH0 PUSH1 0x60 DUP3 ADD SWAP1 POP PUSH2 0x4BEB PUSH0 DUP4 ADD DUP7 PUSH2 0x3B90 JUMP JUMPDEST PUSH2 0x4BF8 PUSH1 0x20 DUP4 ADD DUP6 PUSH2 0x3B90 JUMP JUMPDEST PUSH2 0x4C05 PUSH1 0x40 DUP4 ADD DUP5 PUSH2 0x3AEB JUMP JUMPDEST SWAP5 SWAP4 POP POP POP POP JUMP JUMPDEST PUSH0 DUP2 SWAP1 POP SWAP2 SWAP1 POP JUMP JUMPDEST PUSH0 PUSH2 0x4C30 PUSH2 0x4C2B PUSH2 0x4C26 DUP5 PUSH2 0x4C0D JUMP JUMPDEST PUSH2 0x41F9 JUMP JUMPDEST PUSH2 0x3985 JUMP JUMPDEST SWAP1 POP SWAP2 SWAP1 POP JUMP JUMPDEST PUSH2 0x4C40 DUP2 PUSH2 0x4C16 JUMP JUMPDEST DUP3 MSTORE POP POP JUMP JUMPDEST PUSH0 PUSH1 0x60 DUP3 ADD SWAP1 POP PUSH2 0x4C59 PUSH0 DUP4 ADD DUP7 PUSH2 0x4C37 JUMP JUMPDEST PUSH2 0x4C66 PUSH1 0x20 DUP4 ADD DUP6 PUSH2 0x3B13 JUMP JUMPDEST PUSH2 0x4C73 PUSH1 0x40 DUP4 ADD DUP5 PUSH2 0x3B13 JUMP JUMPDEST SWAP5 SWAP4 POP POP POP POP JUMP JUMPDEST PUSH0 DUP2 SWAP1 POP SWAP2 SWAP1 POP JUMP JUMPDEST PUSH0 PUSH2 0x4C9E PUSH2 0x4C99 PUSH2 0x4C94 DUP5 PUSH2 0x4C7B JUMP JUMPDEST PUSH2 0x41F9 JUMP JUMPDEST PUSH2 0x3985 JUMP JUMPDEST SWAP1 POP SWAP2 SWAP1 POP JUMP JUMPDEST PUSH2 0x4CAE DUP2 PUSH2 0x4C84 JUMP JUMPDEST DUP3 MSTORE POP POP JUMP JUMPDEST PUSH0 PUSH1 0x60 DUP3 ADD SWAP1 POP PUSH2 0x4CC7 PUSH0 DUP4 ADD DUP7 PUSH2 0x4C37 JUMP JUMPDEST PUSH2 0x4CD4 PUSH1 0x20 DUP4 ADD DUP6 PUSH2 0x3B13 JUMP JUMPDEST PUSH2 0x4CE1 PUSH1 0x40 DUP4 ADD DUP5 PUSH2 0x4CA5 JUMP JUMPDEST SWAP5 SWAP4 POP POP POP POP JUMP JUMPDEST PUSH0 PUSH2 0x4CF3 DUP3 PUSH2 0x3985 JUMP JUMPDEST SWAP2 POP PUSH2 0x4CFE DUP4 PUSH2 0x3985 JUMP JUMPDEST SWAP3 POP DUP3 DUP3 ADD SWAP1 POP PUSH1 0xFF DUP2 GT ISZERO PUSH2 0x4D17 JUMPI PUSH2 0x4D16 PUSH2 0x4491 JUMP JUMPDEST JUMPDEST SWAP3 SWAP2 POP POP JUMP JUMPDEST PUSH0 PUSH1 0x40 DUP3 ADD SWAP1 POP PUSH2 0x4D30 PUSH0 DUP4 ADD DUP6 PUSH2 0x4C37 JUMP JUMPDEST PUSH2 0x4D3D PUSH1 0x20 DUP4 ADD DUP5 PUSH2 0x3B13 JUMP JUMPDEST SWAP4 SWAP3 POP POP POP JUMP JUMPDEST PUSH32 0x4E487B7100000000000000000000000000000000000000000000000000000000 PUSH0 MSTORE PUSH1 0x12 PUSH1 0x4 MSTORE PUSH1 0x24 PUSH0 REVERT JUMPDEST PUSH0 PUSH2 0x4D7B DUP3 PUSH2 0x3AE2 JUMP JUMPDEST SWAP2 POP PUSH2 0x4D86 DUP4 PUSH2 0x3AE2 JUMP JUMPDEST SWAP3 POP DUP3 PUSH2 0x4D96 JUMPI PUSH2 0x4D95 PUSH2 0x4D44 JUMP JUMPDEST JUMPDEST DUP3 DUP3 MOD SWAP1 POP SWAP3 SWAP2 POP POP JUMP JUMPDEST PUSH0 PUSH2 0x4DAB DUP3 PUSH2 0x3AE2 JUMP JUMPDEST SWAP2 POP PUSH2 0x4DB6 DUP4 PUSH2 0x3AE2 JUMP JUMPDEST SWAP3 POP DUP3 PUSH2 0x4DC6 JUMPI PUSH2 0x4DC5 PUSH2 0x4D44 JUMP JUMPDEST JUMPDEST DUP3 DUP3 DIV SWAP1 POP SWAP3 SWAP2 POP POP JUMP JUMPDEST PUSH0 PUSH2 0x4DDB DUP3 PUSH2 0x3AE2 JUMP JUMPDEST SWAP2 POP PUSH2 0x4DE6 DUP4 PUSH2 0x3AE2 JUMP JUMPDEST SWAP3 POP DUP3 DUP3 SUB SWAP1 POP DUP2 DUP2 GT ISZERO PUSH2 0x4DFE JUMPI PUSH2 0x4DFD PUSH2 0x4491 JUMP JUMPDEST JUMPDEST SWAP3 SWAP2 POP POP JUMP JUMPDEST PUSH32 0x75736572206973206E6F74206578697374732E20526567697374657220666972 PUSH0 DUP3 ADD MSTORE PUSH32 0x73742E0000000000000000000000000000000000000000000000000000000000 PUSH1 0x20 DUP3 ADD MSTORE POP JUMP JUMPDEST PUSH0 PUSH2 0x4E5E PUSH1 0x23 DUP4 PUSH2 0x402F JUMP JUMPDEST SWAP2 POP PUSH2 0x4E69 DUP3 PUSH2 0x4E04 JUMP JUMPDEST PUSH1 0x40 DUP3 ADD SWAP1 POP SWAP2 SWAP1 POP JUMP JUMPDEST PUSH0 PUSH1 0x20 DUP3 ADD SWAP1 POP DUP2 DUP2 SUB PUSH0 DUP4 ADD MSTORE PUSH2 0x4E8B DUP2 PUSH2 0x4E52 JUMP JUMPDEST SWAP1 POP SWAP2 SWAP1 POP JUMP JUMPDEST PUSH32 0x696E76616C6964206D6174726978000000000000000000000000000000000000 PUSH0 DUP3 ADD MSTORE POP JUMP JUMPDEST PUSH0 PUSH2 0x4EC6 PUSH1 0xE DUP4 PUSH2 0x402F JUMP JUMPDEST SWAP2 POP PUSH2 0x4ED1 DUP3 PUSH2 0x4E92 JUMP JUMPDEST PUSH1 0x20 DUP3 ADD SWAP1 POP SWAP2 SWAP1 POP JUMP JUMPDEST PUSH0 PUSH1 0x20 DUP3 ADD SWAP1 POP DUP2 DUP2 SUB PUSH0 DUP4 ADD MSTORE PUSH2 0x4EF3 DUP2 PUSH2 0x4EBA JUMP JUMPDEST SWAP1 POP SWAP2 SWAP1 POP JUMP JUMPDEST PUSH32 0x6275792070726576696F7573206C6576656C2066697273740000000000000000 PUSH0 DUP3 ADD MSTORE POP JUMP JUMPDEST PUSH0 PUSH2 0x4F2E PUSH1 0x18 DUP4 PUSH2 0x402F JUMP JUMPDEST SWAP2 POP PUSH2 0x4F39 DUP3 PUSH2 0x4EFA JUMP JUMPDEST PUSH1 0x20 DUP3 ADD SWAP1 POP SWAP2 SWAP1 POP JUMP JUMPDEST PUSH0 PUSH1 0x20 DUP3 ADD SWAP1 POP DUP2 DUP2 SUB PUSH0 DUP4 ADD MSTORE PUSH2 0x4F5B DUP2 PUSH2 0x4F22 JUMP JUMPDEST SWAP1 POP SWAP2 SWAP1 POP JUMP JUMPDEST PUSH32 0x6C6576656C20616C726561647920616374697661746564000000000000000000 PUSH0 DUP3 ADD MSTORE POP JUMP JUMPDEST PUSH0 PUSH2 0x4F96 PUSH1 0x17 DUP4 PUSH2 0x402F JUMP JUMPDEST SWAP2 POP PUSH2 0x4FA1 DUP3 PUSH2 0x4F62 JUMP JUMPDEST PUSH1 0x20 DUP3 ADD SWAP1 POP SWAP2 SWAP1 POP JUMP JUMPDEST PUSH0 PUSH1 0x20 DUP3 ADD SWAP1 POP DUP2 DUP2 SUB PUSH0 DUP4 ADD MSTORE PUSH2 0x4FC3 DUP2 PUSH2 0x4F8A JUMP JUMPDEST SWAP1 POP SWAP2 SWAP1 POP JUMP JUMPDEST PUSH32 0x536166654552433230203A204552433230206F7065726174696F6E2064696420 PUSH0 DUP3 ADD MSTORE PUSH32 0x6E6F742073756363656564000000000000000000000000000000000000000000 PUSH1 0x20 DUP3 ADD MSTORE POP JUMP JUMPDEST PUSH0 PUSH2 0x5024 PUSH1 0x2B DUP4 PUSH2 0x402F JUMP JUMPDEST SWAP2 POP PUSH2 0x502F DUP3 PUSH2 0x4FCA JUMP JUMPDEST PUSH1 0x40 DUP3 ADD SWAP1 POP SWAP2 SWAP1 POP JUMP JUMPDEST PUSH0 PUSH1 0x20 DUP3 ADD SWAP1 POP DUP2 DUP2 SUB PUSH0 DUP4 ADD MSTORE PUSH2 0x5051 DUP2 PUSH2 0x5018 JUMP JUMPDEST SWAP1 POP SWAP2 SWAP1 POP JUMP JUMPDEST PUSH0 PUSH1 0x40 DUP3 ADD SWAP1 POP PUSH2 0x506B PUSH0 DUP4 ADD DUP6 PUSH2 0x3B13 JUMP JUMPDEST PUSH2 0x5078 PUSH1 0x20 DUP4 ADD DUP5 PUSH2 0x3B13 JUMP JUMPDEST SWAP4 SWAP3 POP POP POP JUMP JUMPDEST PUSH32 0x41646472657373203A20696E73756666696369656E742062616C616E63652066 PUSH0 DUP3 ADD MSTORE PUSH32 0x6F722063616C6C00000000000000000000000000000000000000000000000000 PUSH1 0x20 DUP3 ADD MSTORE POP JUMP JUMPDEST PUSH0 PUSH2 0x50D9 PUSH1 0x27 DUP4 PUSH2 0x402F JUMP JUMPDEST SWAP2 POP PUSH2 0x50E4 DUP3 PUSH2 0x507F JUMP JUMPDEST PUSH1 0x40 DUP3 ADD SWAP1 POP SWAP2 SWAP1 POP JUMP JUMPDEST PUSH0 PUSH1 0x20 DUP3 ADD SWAP1 POP DUP2 DUP2 SUB PUSH0 DUP4 ADD MSTORE PUSH2 0x5106 DUP2 PUSH2 0x50CD JUMP JUMPDEST SWAP1 POP SWAP2 SWAP1 POP JUMP JUMPDEST PUSH0 DUP2 MLOAD SWAP1 POP SWAP2 SWAP1 POP JUMP JUMPDEST PUSH0 DUP2 SWAP1 POP SWAP3 SWAP2 POP POP JUMP JUMPDEST PUSH0 PUSH2 0x512B DUP3 PUSH2 0x510D JUMP JUMPDEST PUSH2 0x5135 DUP2 DUP6 PUSH2 0x5117 JUMP JUMPDEST SWAP4 POP PUSH2 0x5145 DUP2 DUP6 PUSH1 0x20 DUP7 ADD PUSH2 0x403F JUMP JUMPDEST DUP1 DUP5 ADD SWAP2 POP POP SWAP3 SWAP2 POP POP JUMP JUMPDEST PUSH0 PUSH2 0x515C DUP3 DUP5 PUSH2 0x5121 JUMP JUMPDEST SWAP2 POP DUP2 SWAP1 POP SWAP3 SWAP2 POP POP JUMP INVALID MSTORE8 PUSH2 0x6665 GASLIMIT MSTORE NUMBER ORIGIN ADDRESS KECCAK256 GASPRICE KECCAK256 PUSH13 0x6F77206C6576656C2063616C6C KECCAK256 PUSH7 0x61696C6564A264 PUSH10 0x70667358221220C4413F EXTCODECOPY 0xB7 PUSH29 0x5EE9F9B431A4BCBF1D9A2C20BF5C4587049C7C16076DBD69420864736F PUSH13 0x634300081A0033000000000000 "
		},
		"gasEstimates": {
			"creation": {
				"codeDepositCost": "4185200",
				"executionCost": "4808",
				"totalCost": "4190008"
			},
			"external": {
				"": "infinite",
				"BASIC_PRICE()": "2493",
				"LAST_LEVEL()": "2563",
				"balances(address)": "2893",
				"buyNewLevel(uint8,uint8)": "infinite",
				"buyNewLevelFor(address,uint8,uint8)": "infinite",
				"changeLock()": "28804",
				"contractOwner()": "2575",
				"depositToken()": "infinite",
				"findFreeX3Referrer(address,uint8)": "infinite",
				"generateReferralLink(address)": "infinite",
				"getTotalRevenue()": "infinite",
				"getTransactionHistory(address)": "infinite",
				"id1()": "2620",
				"idToAddress(uint256)": "2895",
				"impl()": "2616",
				"init(address,address,address)": "infinite",
				"isUserExists(address)": "2939",
				"lastUserId()": "2515",
				"levelPrice(uint8)": "2826",
				"locked()": "2555",
				"multisig()": "2576",
				"registerUser(address,string,string,string,string,string)": "infinite",
				"registrationExt(address,string,string,string,string,string)": "infinite",
				"registrationFor(address,address,string,string,string,string,string)": "infinite",
				"transactionHistory(address,uint256)": "infinite",
				"userIds(uint256)": "2873",
				"users(address)": "infinite",
				"usersActiveX3Levels(address,uint8)": "3188",
				"usersX3Matrix(address,uint8)": "infinite",
				"withdrawLostTokens(address)": "infinite"
			},
			"internal": {
				"_buyNewLevel(address,uint8,uint8)": "infinite",
				"bytesToAddress(bytes memory)": "infinite",
				"char(bytes1)": "infinite",
				"findBUSDReceiver(address,address,uint8,uint8)": "infinite",
				"registration(address,address,string memory,string memory,string memory,string memory,string memory)": "infinite",
				"sendBUSDDividends(address,address,uint8,uint8)": "infinite",
				"uintToString(uint256)": "infinite",
				"updateX3Referrer(address,address,uint8)": "infinite"
			}
		},
		"methodIdentifiers": {
			"BASIC_PRICE()": "9ac7e09e",
			"LAST_LEVEL()": "29c70400",
			"balances(address)": "27e235e3",
			"buyNewLevel(uint8,uint8)": "be389d57",
			"buyNewLevelFor(address,uint8,uint8)": "b99a9671",
			"changeLock()": "f07b62be",
			"contractOwner()": "ce606ee0",
			"depositToken()": "c89039c5",
			"findFreeX3Referrer(address,uint8)": "fa45323d",
			"generateReferralLink(address)": "aed8a6a7",
			"getTotalRevenue()": "957fae96",
			"getTransactionHistory(address)": "d20cf0e8",
			"id1()": "517999bc",
			"idToAddress(uint256)": "2a2d0c47",
			"impl()": "8abf6077",
			"init(address,address,address)": "184b9559",
			"isUserExists(address)": "509222cd",
			"lastUserId()": "348d4487",
			"levelPrice(uint8)": "ecabdf79",
			"locked()": "cf309012",
			"multisig()": "4783c35b",
			"registerUser(address,string,string,string,string,string)": "35075ff0",
			"registrationExt(address,string,string,string,string,string)": "767382c4",
			"registrationFor(address,address,string,string,string,string,string)": "885cec8d",
			"transactionHistory(address,uint256)": "e3abc2bc",
			"userIds(uint256)": "4635fd68",
			"users(address)": "a87430ba",
			"usersActiveX3Levels(address,uint8)": "07279e2a",
			"usersX3Matrix(address,uint8)": "83ba31b2",
			"withdrawLostTokens(address)": "a3546be4"
		}
	},
	"abi": [
		{
			"anonymous": false,
			"inputs": [
				{
					"indexed": true,
					"internalType": "address",
					"name": "receiver",
					"type": "address"
				},
				{
					"indexed": true,
					"internalType": "address",
					"name": "from",
					"type": "address"
				},
				{
					"indexed": false,
					"internalType": "uint8",
					"name": "matrix",
					"type": "uint8"
				},
				{
					"indexed": false,
					"internalType": "uint8",
					"name": "level",
					"type": "uint8"
				}
			],
			"name": "MissedBUSDReceive",
			"type": "event"
		},
		{
			"anonymous": false,
			"inputs": [
				{
					"indexed": true,
					"internalType": "address",
					"name": "user",
					"type": "address"
				},
				{
					"indexed": true,
					"internalType": "address",
					"name": "referrer",
					"type": "address"
				},
				{
					"indexed": false,
					"internalType": "uint8",
					"name": "matrix",
					"type": "uint8"
				},
				{
					"indexed": false,
					"internalType": "uint8",
					"name": "level",
					"type": "uint8"
				},
				{
					"indexed": false,
					"internalType": "uint8",
					"name": "place",
					"type": "uint8"
				}
			],
			"name": "NewUserPlace",
			"type": "event"
		},
		{
			"anonymous": false,
			"inputs": [
				{
					"indexed": true,
					"internalType": "address",
					"name": "user",
					"type": "address"
				},
				{
					"indexed": true,
					"internalType": "address",
					"name": "referrer",
					"type": "address"
				},
				{
					"indexed": true,
					"internalType": "uint256",
					"name": "userId",
					"type": "uint256"
				},
				{
					"indexed": false,
					"internalType": "uint256",
					"name": "referrerId",
					"type": "uint256"
				}
			],
			"name": "Registration",
			"type": "event"
		},
		{
			"anonymous": false,
			"inputs": [
				{
					"indexed": true,
					"internalType": "address",
					"name": "user",
					"type": "address"
				},
				{
					"indexed": true,
					"internalType": "address",
					"name": "currentReferrer",
					"type": "address"
				},
				{
					"indexed": true,
					"internalType": "address",
					"name": "caller",
					"type": "address"
				},
				{
					"indexed": false,
					"internalType": "uint8",
					"name": "matrix",
					"type": "uint8"
				},
				{
					"indexed": false,
					"internalType": "uint8",
					"name": "level",
					"type": "uint8"
				}
			],
			"name": "Reinvest",
			"type": "event"
		},
		{
			"anonymous": false,
			"inputs": [
				{
					"indexed": true,
					"internalType": "address",
					"name": "from",
					"type": "address"
				},
				{
					"indexed": true,
					"internalType": "address",
					"name": "receiver",
					"type": "address"
				},
				{
					"indexed": false,
					"internalType": "uint8",
					"name": "matrix",
					"type": "uint8"
				},
				{
					"indexed": false,
					"internalType": "uint8",
					"name": "level",
					"type": "uint8"
				}
			],
			"name": "SentExtraBUSDDividends",
			"type": "event"
		},
		{
			"anonymous": false,
			"inputs": [
				{
					"indexed": true,
					"internalType": "address",
					"name": "user",
					"type": "address"
				},
				{
					"indexed": true,
					"internalType": "address",
					"name": "referrer",
					"type": "address"
				},
				{
					"indexed": false,
					"internalType": "uint8",
					"name": "matrix",
					"type": "uint8"
				},
				{
					"indexed": false,
					"internalType": "uint8",
					"name": "level",
					"type": "uint8"
				}
			],
			"name": "Upgrade",
			"type": "event"
		},
		{
			"stateMutability": "nonpayable",
			"type": "fallback"
		},
		{
			"inputs": [],
			"name": "BASIC_PRICE",
			"outputs": [
				{
					"internalType": "uint256",
					"name": "",
					"type": "uint256"
				}
			],
			"stateMutability": "view",
			"type": "function"
		},
		{
			"inputs": [],
			"name": "LAST_LEVEL",
			"outputs": [
				{
					"internalType": "uint8",
					"name": "",
					"type": "uint8"
				}
			],
			"stateMutability": "view",
			"type": "function"
		},
		{
			"inputs": [
				{
					"internalType": "address",
					"name": "",
					"type": "address"
				}
			],
			"name": "balances",
			"outputs": [
				{
					"internalType": "uint256",
					"name": "",
					"type": "uint256"
				}
			],
			"stateMutability": "view",
			"type": "function"
		},
		{
			"inputs": [
				{
					"internalType": "uint8",
					"name": "matrix",
					"type": "uint8"
				},
				{
					"internalType": "uint8",
					"name": "level",
					"type": "uint8"
				}
			],
			"name": "buyNewLevel",
			"outputs": [],
			"stateMutability": "nonpayable",
			"type": "function"
		},
		{
			"inputs": [
				{
					"internalType": "address",
					"name": "userAddress",
					"type": "address"
				},
				{
					"internalType": "uint8",
					"name": "matrix",
					"type": "uint8"
				},
				{
					"internalType": "uint8",
					"name": "level",
					"type": "uint8"
				}
			],
			"name": "buyNewLevelFor",
			"outputs": [],
			"stateMutability": "nonpayable",
			"type": "function"
		},
		{
			"inputs": [],
			"name": "changeLock",
			"outputs": [],
			"stateMutability": "nonpayable",
			"type": "function"
		},
		{
			"inputs": [],
			"name": "contractOwner",
			"outputs": [
				{
					"internalType": "address",
					"name": "",
					"type": "address"
				}
			],
			"stateMutability": "view",
			"type": "function"
		},
		{
			"inputs": [],
			"name": "depositToken",
			"outputs": [
				{
					"internalType": "contract IERC20",
					"name": "",
					"type": "address"
				}
			],
			"stateMutability": "view",
			"type": "function"
		},
		{
			"inputs": [
				{
					"internalType": "address",
					"name": "userAddress",
					"type": "address"
				},
				{
					"internalType": "uint8",
					"name": "level",
					"type": "uint8"
				}
			],
			"name": "findFreeX3Referrer",
			"outputs": [
				{
					"internalType": "address",
					"name": "",
					"type": "address"
				}
			],
			"stateMutability": "view",
			"type": "function"
		},
		{
			"inputs": [
				{
					"internalType": "address",
					"name": "userAddress",
					"type": "address"
				}
			],
			"name": "generateReferralLink",
			"outputs": [
				{
					"internalType": "string",
					"name": "",
					"type": "string"
				}
			],
			"stateMutability": "view",
			"type": "function"
		},
		{
			"inputs": [],
			"name": "getTotalRevenue",
			"outputs": [
				{
					"internalType": "uint256",
					"name": "",
					"type": "uint256"
				}
			],
			"stateMutability": "view",
			"type": "function"
		},
		{
			"inputs": [
				{
					"internalType": "address",
					"name": "userAddress",
					"type": "address"
				}
			],
			"name": "getTransactionHistory",
			"outputs": [
				{
					"components": [
						{
							"internalType": "uint256",
							"name": "amount",
							"type": "uint256"
						},
						{
							"internalType": "uint256",
							"name": "timestamp",
							"type": "uint256"
						},
						{
							"internalType": "string",
							"name": "description",
							"type": "string"
						}
					],
					"internalType": "struct RonxBasic.Transaction[]",
					"name": "",
					"type": "tuple[]"
				}
			],
			"stateMutability": "view",
			"type": "function"
		},
		{
			"inputs": [],
			"name": "id1",
			"outputs": [
				{
					"internalType": "address",
					"name": "",
					"type": "address"
				}
			],
			"stateMutability": "view",
			"type": "function"
		},
		{
			"inputs": [
				{
					"internalType": "uint256",
					"name": "",
					"type": "uint256"
				}
			],
			"name": "idToAddress",
			"outputs": [
				{
					"internalType": "address",
					"name": "",
					"type": "address"
				}
			],
			"stateMutability": "view",
			"type": "function"
		},
		{
			"inputs": [],
			"name": "impl",
			"outputs": [
				{
					"internalType": "address",
					"name": "",
					"type": "address"
				}
			],
			"stateMutability": "view",
			"type": "function"
		},
		{
			"inputs": [
				{
					"internalType": "address",
					"name": "_ownerAddress",
					"type": "address"
				},
				{
					"internalType": "address",
					"name": "_multisig",
					"type": "address"
				},
				{
					"internalType": "contract IERC20",
					"name": "_depositTokenAddress",
					"type": "address"
				}
			],
			"name": "init",
			"outputs": [],
			"stateMutability": "nonpayable",
			"type": "function"
		},
		{
			"inputs": [
				{
					"internalType": "address",
					"name": "user",
					"type": "address"
				}
			],
			"name": "isUserExists",
			"outputs": [
				{
					"internalType": "bool",
					"name": "",
					"type": "bool"
				}
			],
			"stateMutability": "view",
			"type": "function"
		},
		{
			"inputs": [],
			"name": "lastUserId",
			"outputs": [
				{
					"internalType": "uint256",
					"name": "",
					"type": "uint256"
				}
			],
			"stateMutability": "view",
			"type": "function"
		},
		{
			"inputs": [
				{
					"internalType": "uint8",
					"name": "",
					"type": "uint8"
				}
			],
			"name": "levelPrice",
			"outputs": [
				{
					"internalType": "uint256",
					"name": "",
					"type": "uint256"
				}
			],
			"stateMutability": "view",
			"type": "function"
		},
		{
			"inputs": [],
			"name": "locked",
			"outputs": [
				{
					"internalType": "bool",
					"name": "",
					"type": "bool"
				}
			],
			"stateMutability": "view",
			"type": "function"
		},
		{
			"inputs": [],
			"name": "multisig",
			"outputs": [
				{
					"internalType": "address",
					"name": "",
					"type": "address"
				}
			],
			"stateMutability": "view",
			"type": "function"
		},
		{
			"inputs": [
				{
					"internalType": "address",
					"name": "referrerAddress",
					"type": "address"
				},
				{
					"internalType": "string",
					"name": "firstName",
					"type": "string"
				},
				{
					"internalType": "string",
					"name": "lastName",
					"type": "string"
				},
				{
					"internalType": "string",
					"name": "email",
					"type": "string"
				},
				{
					"internalType": "string",
					"name": "password",
					"type": "string"
				},
				{
					"internalType": "string",
					"name": "profilePicture",
					"type": "string"
				}
			],
			"name": "registerUser",
			"outputs": [],
			"stateMutability": "nonpayable",
			"type": "function"
		},
		{
			"inputs": [
				{
					"internalType": "address",
					"name": "referrerAddress",
					"type": "address"
				},
				{
					"internalType": "string",
					"name": "firstName",
					"type": "string"
				},
				{
					"internalType": "string",
					"name": "lastName",
					"type": "string"
				},
				{
					"internalType": "string",
					"name": "email",
					"type": "string"
				},
				{
					"internalType": "string",
					"name": "password",
					"type": "string"
				},
				{
					"internalType": "string",
					"name": "profilePicture",
					"type": "string"
				}
			],
			"name": "registrationExt",
			"outputs": [],
			"stateMutability": "nonpayable",
			"type": "function"
		},
		{
			"inputs": [
				{
					"internalType": "address",
					"name": "userAddress",
					"type": "address"
				},
				{
					"internalType": "address",
					"name": "referrerAddress",
					"type": "address"
				},
				{
					"internalType": "string",
					"name": "firstName",
					"type": "string"
				},
				{
					"internalType": "string",
					"name": "lastName",
					"type": "string"
				},
				{
					"internalType": "string",
					"name": "email",
					"type": "string"
				},
				{
					"internalType": "string",
					"name": "password",
					"type": "string"
				},
				{
					"internalType": "string",
					"name": "profilePicture",
					"type": "string"
				}
			],
			"name": "registrationFor",
			"outputs": [],
			"stateMutability": "nonpayable",
			"type": "function"
		},
		{
			"inputs": [
				{
					"internalType": "address",
					"name": "",
					"type": "address"
				},
				{
					"internalType": "uint256",
					"name": "",
					"type": "uint256"
				}
			],
			"name": "transactionHistory",
			"outputs": [
				{
					"internalType": "uint256",
					"name": "amount",
					"type": "uint256"
				},
				{
					"internalType": "uint256",
					"name": "timestamp",
					"type": "uint256"
				},
				{
					"internalType": "string",
					"name": "description",
					"type": "string"
				}
			],
			"stateMutability": "view",
			"type": "function"
		},
		{
			"inputs": [
				{
					"internalType": "uint256",
					"name": "",
					"type": "uint256"
				}
			],
			"name": "userIds",
			"outputs": [
				{
					"internalType": "address",
					"name": "",
					"type": "address"
				}
			],
			"stateMutability": "view",
			"type": "function"
		},
		{
			"inputs": [
				{
					"internalType": "address",
					"name": "",
					"type": "address"
				}
			],
			"name": "users",
			"outputs": [
				{
					"internalType": "uint256",
					"name": "id",
					"type": "uint256"
				},
				{
					"internalType": "address",
					"name": "referrer",
					"type": "address"
				},
				{
					"internalType": "string",
					"name": "firstName",
					"type": "string"
				},
				{
					"internalType": "string",
					"name": "lastName",
					"type": "string"
				},
				{
					"internalType": "string",
					"name": "email",
					"type": "string"
				},
				{
					"internalType": "bytes32",
					"name": "passwordHash",
					"type": "bytes32"
				},
				{
					"internalType": "string",
					"name": "profilePicture",
					"type": "string"
				},
				{
					"internalType": "string",
					"name": "referralLink",
					"type": "string"
				},
				{
					"internalType": "uint256",
					"name": "partnersCount",
					"type": "uint256"
				}
			],
			"stateMutability": "view",
			"type": "function"
		},
		{
			"inputs": [
				{
					"internalType": "address",
					"name": "userAddress",
					"type": "address"
				},
				{
					"internalType": "uint8",
					"name": "level",
					"type": "uint8"
				}
			],
			"name": "usersActiveX3Levels",
			"outputs": [
				{
					"internalType": "bool",
					"name": "",
					"type": "bool"
				}
			],
			"stateMutability": "view",
			"type": "function"
		},
		{
			"inputs": [
				{
					"internalType": "address",
					"name": "userAddress",
					"type": "address"
				},
				{
					"internalType": "uint8",
					"name": "level",
					"type": "uint8"
				}
			],
			"name": "usersX3Matrix",
			"outputs": [
				{
					"internalType": "address",
					"name": "",
					"type": "address"
				},
				{
					"internalType": "address[]",
					"name": "",
					"type": "address[]"
				},
				{
					"internalType": "bool",
					"name": "",
					"type": "bool"
				}
			],
			"stateMutability": "view",
			"type": "function"
		},
		{
			"inputs": [
				{
					"internalType": "address",
					"name": "tokenAddress",
					"type": "address"
				}
			],
			"name": "withdrawLostTokens",
			"outputs": [],
			"stateMutability": "nonpayable",
			"type": "function"
		}
	]
}